{"Contracts/Lending.sol":{"LendingPool":{"abi":[{"inputs":[{"internalType":"address","name":"usdc","type":"address"},{"internalType":"address","name":"_cbBtcToken","type":"address"},{"internalType":"address","name":"oracleAddress","type":"address"},{"internalType":"address","name":"_aavePool","type":"address"},{"internalType":"address","name":"_swapRouter","type":"address"}],"stateMutability":"nonpayable","type":"constructor"},{"anonymous":false,"inputs":[{"indexed":false,"internalType":"bytes32","name":"loanId","type":"bytes32"},{"indexed":false,"internalType":"uint256","name":"requested","type":"uint256"},{"indexed":false,"internalType":"uint256","name":"actualWithdrawn","type":"uint256"},{"indexed":false,"internalType":"uint256","name":"preBalance","type":"uint256"},{"indexed":false,"internalType":"uint256","name":"postBalance","type":"uint256"}],"name":"DebugUnstake","type":"event"},{"anonymous":false,"inputs":[{"indexed":false,"internalType":"bytes32","name":"loanId","type":"bytes32"},{"indexed":false,"internalType":"uint256","name":"principalRepaid","type":"uint256"},{"indexed":false,"internalType":"uint256","name":"proportionRepaid","type":"uint256"},{"indexed":false,"internalType":"uint256","name":"cbBtcToUnstake","type":"uint256"}],"name":"DebugUnstakeProportion","type":"event"},{"anonymous":false,"inputs":[{"indexed":false,"internalType":"bytes32","name":"loanId","type":"bytes32"},{"indexed":false,"internalType":"uint256","name":"index","type":"uint256"}],"name":"InstallmentPaid","type":"event"},{"anonymous":false,"inputs":[{"indexed":false,"internalType":"bytes32","name":"id","type":"bytes32"},{"indexed":false,"internalType":"uint256","name":"amount","type":"uint256"},{"indexed":false,"internalType":"uint256","name":"collateral","type":"uint256"},{"indexed":false,"internalType":"address","name":"borrower","type":"address"}],"name":"LoanCreated","type":"event"},{"anonymous":false,"inputs":[{"indexed":false,"internalType":"bytes32","name":"id","type":"bytes32"},{"indexed":false,"internalType":"address","name":"borrower","type":"address"},{"indexed":false,"internalType":"uint256","name":"btcPriceNow","type":"uint256"}],"name":"LoanLiquidated","type":"event"},{"anonymous":false,"inputs":[{"indexed":false,"internalType":"bytes32","name":"loanId","type":"bytes32"},{"indexed":false,"internalType":"address","name":"borrower","type":"address"},{"indexed":false,"internalType":"uint256","name":"amount","type":"uint256"},{"indexed":false,"internalType":"bool","name":"fullyRepaid","type":"bool"}],"name":"Payout","type":"event"},{"anonymous":false,"inputs":[{"indexed":false,"internalType":"bytes32","name":"loanId","type":"bytes32"},{"indexed":false,"internalType":"uint256","name":"usdcAmount","type":"uint256"},{"indexed":false,"internalType":"uint256","name":"cbBtcAmount","type":"uint256"}],"name":"TokensStaked","type":"event"},{"anonymous":false,"inputs":[{"indexed":false,"internalType":"bytes32","name":"loanId","type":"bytes32"},{"indexed":false,"internalType":"uint256","name":"cbBtcAmount","type":"uint256"},{"indexed":false,"internalType":"uint256","name":"usdcAmount","type":"uint256"},{"indexed":false,"internalType":"uint256","name":"borrowerCbBtcShare","type":"uint256"}],"name":"TokensUnstaked","type":"event"},{"inputs":[],"name":"aavePool","outputs":[{"internalType":"contract IAavePool","name":"","type":"address"}],"stateMutability":"view","type":"function"},{"inputs":[],"name":"cbBtcToken","outputs":[{"internalType":"address","name":"","type":"address"}],"stateMutability":"view","type":"function"},{"inputs":[],"name":"chainlinkOracle","outputs":[{"internalType":"contract AggregatorV3Interface","name":"","type":"address"}],"stateMutability":"view","type":"function"},{"inputs":[{"internalType":"bytes32","name":"loanId","type":"bytes32"},{"internalType":"bool","name":"status","type":"bool"}],"name":"changeInsuranceStatus","outputs":[],"stateMutability":"nonpayable","type":"function"},{"inputs":[{"internalType":"bytes32","name":"loanId","type":"bytes32"},{"internalType":"uint256","name":"principalRepaid","type":"uint256"}],"name":"debugUnstakeCalc","outputs":[{"internalType":"uint256","name":"proportionRepaid","type":"uint256"},{"internalType":"uint256","name":"cbBtcToUnstake","type":"uint256"}],"stateMutability":"view","type":"function"},{"inputs":[{"internalType":"bytes32","name":"loanId","type":"bytes32"}],"name":"getAmortizationSchedule","outputs":[{"internalType":"uint256[]","name":"principals","type":"uint256[]"},{"internalType":"uint256[]","name":"interests","type":"uint256[]"},{"internalType":"bool[]","name":"paidStatuses","type":"bool[]"}],"stateMutability":"view","type":"function"},{"inputs":[{"internalType":"bytes32","name":"loanId","type":"bytes32"}],"name":"getContributions","outputs":[{"internalType":"address[]","name":"lenders","type":"address[]"},{"internalType":"uint256[]","name":"amounts","type":"uint256[]"},{"internalType":"uint256[]","name":"receivableInterests","type":"uint256[]"},{"internalType":"uint256[]","name":"repaidPrincipals","type":"uint256[]"},{"internalType":"uint256[]","name":"repaidInterests","type":"uint256[]"}],"stateMutability":"view","type":"function"},{"inputs":[{"internalType":"bytes32","name":"loanId","type":"bytes32"}],"name":"getInstallmentSchedule","outputs":[{"components":[{"internalType":"uint256","name":"duePrincipal","type":"uint256"},{"internalType":"uint256","name":"dueInterest","type":"uint256"},{"internalType":"bool","name":"paid","type":"bool"},{"internalType":"uint256","name":"dueTimestamp","type":"uint256"}],"internalType":"struct LendingPool.Installment[]","name":"","type":"tuple[]"}],"stateMutability":"view","type":"function"},{"inputs":[],"name":"getPrice","outputs":[{"internalType":"int256","name":"","type":"int256"}],"stateMutability":"view","type":"function"},{"inputs":[{"internalType":"bytes32","name":"loanId","type":"bytes32"}],"name":"getStakedAmount","outputs":[{"internalType":"uint256","name":"","type":"uint256"}],"stateMutability":"view","type":"function"},{"inputs":[{"internalType":"address","name":"","type":"address"}],"name":"hasActiveLoan","outputs":[{"internalType":"bool","name":"","type":"bool"}],"stateMutability":"view","type":"function"},{"inputs":[{"internalType":"address","name":"","type":"address"}],"name":"lenders","outputs":[{"internalType":"uint256","name":"totalContributed","type":"uint256"}],"stateMutability":"view","type":"function"},{"inputs":[{"internalType":"bytes32","name":"loanId","type":"bytes32"}],"name":"liquidate","outputs":[],"stateMutability":"nonpayable","type":"function"},{"inputs":[{"internalType":"bytes32","name":"loanId","type":"bytes32"}],"name":"liquidateIfOverdue","outputs":[],"stateMutability":"nonpayable","type":"function"},{"inputs":[{"internalType":"uint256","name":"totalAmount","type":"uint256"},{"internalType":"uint256","name":"durationMonths","type":"uint256"},{"internalType":"uint256","name":"annualInterestRate","type":"uint256"},{"internalType":"address[]","name":"lenderAddresses","type":"address[]"},{"internalType":"uint256[]","name":"lenderAmounts","type":"uint256[]"}],"name":"loan","outputs":[],"stateMutability":"nonpayable","type":"function"},{"inputs":[{"internalType":"uint256","name":"","type":"uint256"}],"name":"loanIds","outputs":[{"internalType":"bytes32","name":"","type":"bytes32"}],"stateMutability":"view","type":"function"},{"inputs":[{"internalType":"bytes32","name":"","type":"bytes32"}],"name":"loans","outputs":[{"internalType":"bytes32","name":"id","type":"bytes32"},{"internalType":"address","name":"borrower","type":"address"},{"internalType":"uint256","name":"principal","type":"uint256"},{"internalType":"uint256","name":"borrowerDeposit","type":"uint256"},{"internalType":"uint256","name":"interestRate","type":"uint256"},{"internalType":"uint256","name":"duration","type":"uint256"},{"internalType":"uint256","name":"monthlyPayment","type":"uint256"},{"internalType":"uint256","name":"startTime","type":"uint256"},{"internalType":"uint256","name":"btcPriceAtCreation","type":"uint256"},{"internalType":"bool","name":"isActive","type":"bool"},{"internalType":"uint256","name":"totalAmount","type":"uint256"},{"internalType":"uint256","name":"stakedAmount","type":"uint256"},{"internalType":"uint256","name":"remainingPrincipal","type":"uint256"},{"internalType":"bool","name":"insuranceTaken","type":"bool"}],"stateMutability":"view","type":"function"},{"inputs":[{"internalType":"bytes32","name":"loanId","type":"bytes32"},{"internalType":"uint256","name":"index","type":"uint256"}],"name":"markInstallmentPaid","outputs":[],"stateMutability":"nonpayable","type":"function"},{"inputs":[],"name":"owner","outputs":[{"internalType":"address","name":"","type":"address"}],"stateMutability":"view","type":"function"},{"inputs":[{"internalType":"bytes32","name":"loanId","type":"bytes32"},{"internalType":"uint256","name":"usdcAmount","type":"uint256"}],"name":"payouts","outputs":[],"stateMutability":"nonpayable","type":"function"},{"inputs":[{"internalType":"address","name":"_aavePool","type":"address"}],"name":"setAavePool","outputs":[],"stateMutability":"nonpayable","type":"function"},{"inputs":[{"internalType":"address","name":"_cbBtcToken","type":"address"}],"name":"setCbBtcToken","outputs":[],"stateMutability":"nonpayable","type":"function"},{"inputs":[{"internalType":"address","name":"oracleAddress","type":"address"}],"name":"setChainlinkOracle","outputs":[],"stateMutability":"nonpayable","type":"function"},{"inputs":[{"internalType":"address","name":"_swapRouter","type":"address"}],"name":"setSwapRouter","outputs":[],"stateMutability":"nonpayable","type":"function"},{"inputs":[],"name":"swapRouter","outputs":[{"internalType":"contract ISwapRouter","name":"","type":"address"}],"stateMutability":"view","type":"function"},{"inputs":[],"name":"usdcToken","outputs":[{"internalType":"address","name":"","type":"address"}],"stateMutability":"view","type":"function"}],"evm":{"bytecode":{"linkReferences":{},"object":"608034620000ec57601f620030e838819003918201601f19168301916001600160401b03831184841017620000f15780849260a094604052833981010312620000ec576200004d8162000107565b906200005c6020820162000107565b906200006b6040820162000107565b91620000886080620000806060850162000107565b930162000107565b9160018060a01b0319943386600854161760085560018060a01b03948580948180941689600954161760095516876002541617600255168560035416176003551683600054161760005516906001541617600155604051612fcb90816200011d8239f35b600080fd5b634e487b7160e01b600052604160045260246000fd5b51906001600160a01b0382168203620000ec5756fe6080604052600436101561001257600080fd5b6000803560e01c80630a71096e14611e295780630e46238614611e0057806311eac85514611dd75780631fc8f4df14611ca657806321d4f8db14611c6457806328830d471461197e57806328fd10d714611941578063337a173714611914578063349f937c146118cb578063412736571461187e5780635206d2d01461185857806366fb6e5a14610b575780636c1945ae14610a565780637a9b041214610a0957806380f2122c1461063757806383cd8fcf146105e657806386280f821461057657806386a2e274146104445780638da5cb5b1461041b57806398d5fdca146103f8578063a03e4bc3146103d1578063c31c9c07146103a8578063c4a90815146102d8578063c9642d2a1461019f578063ef06e72c146101765763f8715a421461013b57600080fd5b3461017357602036600319011261017357600435906007548210156101735760206101658361217d565b90546040519160031b1c8152f35b80fd5b50346101735780600319360112610173576003546040516001600160a01b039091168152602090f35b5034610173576101ae366120f4565b906101c460018060a01b03600854163314612591565b8083526005602052600c604084206101e260ff6009830154166125e7565b019081548310156102935760ff60026101fb8585612575565b5001541661024e578260026102337f3d05ac2057427ac2f84502e7efefebf5ae10d9529129c2979ce60fb97d46061495604095612575565b5001805460ff1916600117905582519182526020820152a180f35b60405162461bcd60e51b815260206004820152601f60248201527f496e7374616c6c6d656e7420616c7265616479206d61726b65642070616964006044820152606490fd5b60405162461bcd60e51b815260206004820152601960248201527f496e76616c696420696e7374616c6c6d656e7420696e646578000000000000006044820152606490fd5b50346101735760203660031901126101735760406101c091600435815260056020522080549060018060a01b03600182015416906002810154600382015460048301546005840154600685015460078601549060088701549260ff60098901541694600a89015496600d8a01549860ff600f600e8d01549c0154169b60206040519e8f908152015260408d015260608c015260808b015260a08a015260c089015260e0880152610100870152151561012086015261014085015261016084015261018083015215156101a0820152f35b50346101735780600319360112610173576001546040516001600160a01b039091168152602090f35b5034610173578060031936011261017357546040516001600160a01b039091168152602090f35b50346101735780600319360112610173576020610413612286565b604051908152f35b50346101735780600319360112610173576008546040516001600160a01b039091168152602090f35b50346101735760203660031901126101735760043581526005602052600b6040822001908154906104748261231a565b9161047e8161231a565b6104878261231a565b906104918361231a565b9261049b8161231a565b945b818110610508576104cc87610504886104f6896104e88a6104da8b604051998a9960a08b5260a08b0190612140565b9089820360208b01526120c0565b9087820360408901526120c0565b9085820360608701526120c0565b9083820360808501526120c0565b0390f35b806004610518610571938b6124b2565b5080546001600160a01b031661052e848c612369565b52600181015461053e8488612369565b52600281015461054e8489612369565b52600381015461055e848a612369565b52015461056b8289612369565b52612493565b61049d565b50346101735760403660031901126101735760243580151581036105e2576105df906105ad60018060a01b03600854163314612591565b60043583526005602052600f604084206105cd60ff6009830154166125e7565b019060ff801983541691151516179055565b80f35b5080fd5b5034610173576020366003190112610173576004356001600160a01b03818116918290036106335761061d90600854163314612591565b6001600160601b0360a01b600254161760025580f35b8280fd5b503461017357610646366120f4565b908083526005602052604083209061066460ff6009840154166125e7565b60018201546001600160a01b031633036109c4576009546040516323b872dd60e01b815233600482015230602482015260448101859052906020908290606490829089906001600160a01b03165af180156109b95761099a575b50829084855b600c850154811080610991575b1561093c576106e381600c8701612575565b50805480156108f75760ff6002830154166108ec5760018201549061070882826123c6565b80881015610723575b5050505061071e90612493565b6106c4565b9061073861073e928298959b949a9799612486565b976123c6565b906002850154968a5b600b8701548110156108955761076081600b89016124b2565b50600181015480670de0b6b3a7640000810204670de0b6b3a76400001481151715610881578d61082893928d6107f8670de0b6b3a76400008f8f826107b66107af6107bd948360209c026123a6565b809361237d565b049461237d565b04600384016107cd8482546123c6565b9055600484016107de8282546123c6565b905560095493546001600160a01b039485169416926123c6565b60405163a9059cbb60e01b81526001600160a01b0390921660048301526024820152948592839182906044820190565b03925af19182156108765761084292610847575b50612493565b610747565b6108689060203d60201161086f575b6108608183612218565b8101906122ea565b503861083c565b503d610856565b6040513d8f823e3d90fd5b634e487b7160e01b8e52601160045260248efd5b509650979093965061071e929194506002600160ff198284015416179101557f3d05ac2057427ac2f84502e7efefebf5ae10d9529129c2979ce60fb97d46061460408051868152836020820152a190388080610711565b505061071e90612493565b60405162461bcd60e51b815260206004820152601860248201527f496e7374616c6c6d656e7420616c7265616479207061696400000000000000006044820152606490fd5b867fdc376abd09229a842ac7d8bcadc9017651f1f1b8490750870cae0ecd4aedf67460808587610976818c6109718a86612628565b612486565b6040519283523360208401526040830152156060820152a180f35b508315156106d1565b6109b29060203d60201161086f576108608183612218565b50386106be565b6040513d87823e3d90fd5b60405162461bcd60e51b815260206004820152601760248201527f4f6e6c7920626f72726f7765722063616e2072657061790000000000000000006044820152606490fd5b5034610173576020366003190112610173576004356001600160a01b038181169182900361063357610a4090600854163314612591565b6001600160601b0360a01b600354161760035580f35b503461017357602090816003193601126101735790600435825260058152600c60408320018054610a8681612302565b90610a946040519283612218565b8082528382018093865284862086915b838310610b0857505050506040519280840191818552518092526040840192945b828110610ad25784840385f35b85518051855280830151858401526040808201511515908601526060908101519085015294810194608090930192600101610ac5565b60048760019260409a9997989a51610b1f816121ca565b85548152848601548382015260ff60028701541615156040820152600386015460608201528152019201920191909694939596610aa4565b50346101735760a03660031901126101735760643567ffffffffffffffff81116105e257610b8990369060040161210f565b9060843567ffffffffffffffff811161185457610baa90369060040161210f565b926004351561181e57602435156117e657338552600660205260ff6040862054166117955783810361173b578015611700576014600435029160043583046014036111cd57610bfe60648404600435612486565b6009546040516323b872dd60e01b8152336004820152306024820152606480870460448301529296929091602091839182908c906001600160a01b03165af180156116f5576116d6575b509084929160405160208101903360601b825242603482015260348152610c6e816121fc565b519020968789526005602052606460408a209689885560018801336001600160601b0360a01b825416179055600435600a89015586600289015504600387015560443560048701556024356005870155426007870155610ccc612286565b600887015560098601600160ff1982541617905584600e870155600f860160ff1981541690558893895b8181106114955750505050500361143f57670de0b6b3a764000060443502906044358204670de0b6b3a76400001460443515171561142b57610d3c6104b083048461237d565b6104b08304670de0b6b3a764000001670de0b6b3a7640000116111cd576104b08304670de0b6b3a7640000011561141757610d916024356104b08504670de0b6b3a764000001670de0b6b3a7640000046124ce565b670de0b6b3a76400000390670de0b6b3a764000082116111b957600691610db7916123a6565b91015582845260056020526040842091670de0b6b3a764000081865b60243581106113ed575081610df0610df5926104b087049061237d565b61237d565b9080670de0b6b3a763ffff198101116111b957670de0b6b3a764000091610e2791670de0b6b3a763ffff1901906123a6565b0480600685015585915b602435831061127d578686600754600160401b81101561126957806001610e5b920160075561217d565b815460001960039290921b91821b19169083901b179055338252600660209081526040808420805460ff1916600190811790915583855260058352818520600a8101546009549254935163095ea7b360e01b81526001600160a01b039485166004820152602481018290529194909391929091839160449183918a91165af180156109b95761124a575b50604051610ef2816121fc565b6002815260403660208301376009546001600160a01b0316610f138261234c565b526002546001600160a01b0316610f2982612359565b52600354604051633fabe5a360e21b81529060a090829060049082906001600160a01b03165afa908115611162578691611216575b50858113156111e1576305f5e1008084029084820414841517156111b95790610f86916123a6565b806062810204606214811517156111cd576001546001600160a01b0316914261012c8101106111b95791610fe49391878094604051968795869485936338ed173960e01b855261012c4201926064606230940204906004870161244d565b03925af180156111ae57610fff91859161118c575b50612359565b518284526005602090815260408086206002548754925163095ea7b360e01b81526001600160a01b0393841660048201526024810186905291939192839160449183918b91165af180156111625761116d575b50845460025486916001600160a01b039182169116803b156106335760848392604051948593849263617ba03760e01b845260048401528860248401523060448401528160648401525af1801561116257611131575b506080927faeec09af87559b9077da2e499d1fad2e228d7c24cb4b566fe61976820abaadda6060846002857f65410888fb30edd04f6acfb2f6cfd92aaf0ebb9b5303b6286d65d0b031b5b7f79997600d60039801550154906040519187835260208301526040820152a1015460405191825260043560208301526040820152336060820152a180f35b67ffffffffffffffff819692961161114e576040529360806110a8565b634e487b7160e01b82526041600452602482fd5b6040513d88823e3d90fd5b6111859060203d60201161086f576108608183612218565b5085611052565b6111a891503d8087833e6111a08183612218565b8101906123d3565b85610ff9565b6040513d86823e3d90fd5b634e487b7160e01b87526011600452602487fd5b634e487b7160e01b86526011600452602486fd5b60405162461bcd60e51b815260206004820152600d60248201526c496e76616c696420707269636560981b6044820152606490fd5b611238915060a03d60a011611243575b6112308183612218565b810190612251565b505050905086610f5e565b503d611226565b6112629060203d60201161086f576108608183612218565b5084610ee5565b634e487b7160e01b83526041600452602483fd5b670de0b6b3a76400006112946104b086048361237d565b0490818311156113e7576112a88284612486565b916024356000198101116113d3576024356000190185146113be575b62278d0085818102048114861517156113aa576112e3908602426123c6565b604051916112f0836121ca565b84835260208301528960408301526060820152600c870154600160401b8110156113965780600161132a9201600c8a0155600c8901612575565b919091611382579161137c93916003606085611376965184556020810151600185015561136c60408201511515600286019060ff801983541691151516179055565b0151910155612486565b92612493565b91610e31565b634e487b7160e01b8a5260048a905260248afd5b634e487b7160e01b8a52604160045260248afd5b634e487b7160e01b8a52601160045260248afd5b92509050806113cd83826123c6565b926112c4565b634e487b7160e01b89526011600452602489fd5b876112a8565b91670de0b6b3a764000061140b611412926104b0880483019061237d565b0492612493565b610dd3565b634e487b7160e01b86526012600452602486fd5b634e487b7160e01b85526011600452602485fd5b60405162461bcd60e51b815260206004820152602860248201527f436f6c6c656374656420616d6f756e7420646f65736e2774206d6174636820706044820152671c9a5b98da5c185b60c21b6064820152608490fd5b909192939495506114a78183866124a2565b356001600160a01b03811681036116d2576114c38285886124a2565b35968715611695578b90602061151960018060a01b03600954168b6040519586809481936323b872dd60e01b8352308b6004850160409194939294606082019560018060a01b0380921683521660208201520152565b03925af190811561087657611535928a92611676575b506123c6565b9660018060a01b0382168c52600460205260408c206115558282546123c6565b90556104b061156c602435610df06044358561237d565b0490604051928360a081011067ffffffffffffffff60a0860111176116625760a0840160405260018060a01b03168352602083015260408201528a60608201528a6080820152600b880154600160401b81101561164e578060016115d99201600b8b0155600b8a016124b2565b91909161163a57805182546001600160a01b0319166001600160a01b03919091161782556020810151600183015560408101516002830155606081015160038301556080015160049091015561162e90612493565b90879594939291610cf6565b634e487b7160e01b8c5260048c905260248cfd5b634e487b7160e01b8c52604160045260248cfd5b634e487b7160e01b8e52604160045260248efd5b61168e9060203d60201161086f576108608183612218565b503861152f565b60405162461bcd60e51b8152602060048201526015602482015274125b9d985b1a59081b195b99195c88185b5bdd5b9d605a1b6044820152606490fd5b8a80fd5b6116ee9060203d60201161086f576108608183612218565b5038610c48565b6040513d8a823e3d90fd5b60405162461bcd60e51b8152602060048201526013602482015272139bc81b195b99195c9cc81c1c9bdd9a591959606a1b6044820152606490fd5b60405162461bcd60e51b815260206004820152602c60248201527f4c656e6465722061646472657373657320616e6420616d6f756e7473206c656e60448201526b0cee8d040dad2e6dac2e8c6d60a31b6064820152608490fd5b60405162461bcd60e51b815260206004820152602360248201527f426f72726f77657220616c72656164792068617320616e20616374697665206c60448201526237b0b760e91b6064820152608490fd5b60405162461bcd60e51b815260206004820152601060248201526f24b73b30b634b210323ab930ba34b7b760811b6044820152606490fd5b60405162461bcd60e51b815260206004820152600e60248201526d125b9d985b1a5908185b5bdd5b9d60921b6044820152606490fd5b8380fd5b503461017357604061187261186c366120f4565b90612f22565b82519182526020820152f35b5034610173576020366003190112610173576004356001600160a01b0381811691829003610633576118b590600854163314612591565b6001600160601b0360a01b600154161760015580f35b5034610173576020366003190112610173576004356001600160a01b03818116918290036106335761190290600854163314612591565b81546001600160a01b03191617815580f35b503461017357602036600319011261017357600d6040602092600435815260058452200154604051908152f35b5034610173576020366003190112610173576004356001600160a01b038116908190036105e2578160409160209352600483522054604051908152f35b5034610173576020806003193601126105e25760043560018060a01b036119aa81600854163314612591565b8184526005835260408420926009908185019182549260ff6119cd8186166125e7565b88908990600c8a018054925b838110611c1457505050506276a7001015611bba5760ff1980941690556001808701938585541689526006845260408920908154169055600d87015480611baa575b50600380880154600e8901549182611a8f575b8a7fcab88a55906c5830a49dddd8b31d115294a5e6c4210f25fe140530a39c51dc748a8a8a541690611a89611a61612286565b604080519384526001600160a01b039094166020840152928201929092529081906060820190565b0390a180f35b9091928099600b8c9101915b611aa6575b50611a2e565b8154811015611ba557611ab981836124b2565b50611acb8c8201548583015490612486565b8c8115611b945750670de0b6b3a7640000908181029081048203611b80578796959493928f9192611b09611b03611b459b8e966123a6565b8961237d565b04918d808c541692541690604051809b8195829463a9059cbb60e01b84526004840160209093929193604081019460018060a01b031681520152565b03925af1908115610876578c96611b6092611b6a5750612493565b9091929394611a9b565b610868908a3d8c1161086f576108608183612218565b634e487b7160e01b8f52601160045260248ffd5b96959493929050611b609150612493565b611aa0565b611bb49087612aa0565b38611a1b565b60405162461bcd60e51b815260048101849052602c60248201527f4c6f616e206973206e6f74206f766572647565206265796f6e642033206d6f6e60448201526b1d1a1cc81a5b881d1bdd185b60a21b6064820152608490fd5b611c1e8183612575565b5083600282015416611c365760030154804211611c45575b50611c4090612493565b6119d9565b611c409195611c57611c5d9242612486565b906123c6565b9490611c36565b5034610173576020366003190112610173576004356001600160a01b038116908190036105e25760408260ff9260209452600684522054166040519015158152f35b5034610173576020806003193601126105e25790600435815260058252600c6040822001805491611cd68361231a565b92611ce08161231a565b611ce982612302565b91611cf76040519384612218565b808352611d0381612302565b8388019590601f1901368737845b828110611d7f575050509480611d45611d389760405198899860608a5260608a01906120c0565b90888203848a01526120c0565b92868403604088015251928381520193925b828110611d6657505050500390f35b8351151585528695509381019392810192600101611d57565b8060ff6002611d97611dcc94869d9a999b9c9d612575565b508054611da4858f612369565b526001810154611db4858a612369565b52015416611dc2828a612369565b9015159052612493565b979695939497611d11565b50346101735780600319360112610173576009546040516001600160a01b039091168152602090f35b50346101735780600319360112610173576002546040516001600160a01b039091168152602090f35b503461017357602036600319011261017357611e5060018060a01b03600854163314612591565b600435815260056020526040812060098101805491611e7160ff84166125e7565b611e79612286565b91600d82016305f5e100611e8e85835461237d565b0491600e84019283546069810290808204606914901517156113d357606490041061205d5760ff1995861690556001830180546001600160a01b031687526006602052604087208054909616909555548061204b575b50600382015490549182611f43575b505091546040805160043581526001600160a01b0390921660208301528101919091527fcab88a55906c5830a49dddd8b31d115294a5e6c4210f25fe140530a39c51dc7491508060608101611a89565b909192855b600b83015481101561201e57611f6181600b85016124b2565b50611f756001820154600383015490612486565b80156120135780670de0b6b3a7640000810204670de0b6b3a7640000036113d357611ff59291670de0b6b3a7640000611fb5611b038a83602096026123a6565b600954925460405163a9059cbb60e01b81526001600160a01b039182166004820152929091046024830152909485929091169082908c9082906044820190565b03925af19182156116f55761200e926108475750612493565b611f48565b505061200e90612493565b50925050507fcab88a55906c5830a49dddd8b31d115294a5e6c4210f25fe140530a39c51dc743880611ef3565b61205790600435612aa0565b38611ee4565b60405162461bcd60e51b815260206004820152603560248201527f4254432076616c756520686173206e6f742064726f707065642062656c6f77206044820152741b1a5c5d5a59185d1a5bdb881d1a1c995cda1bdb19605a1b6064820152608490fd5b90815180825260208080930193019160005b8281106120e0575050505090565b8351855293810193928101926001016120d2565b604090600319011261210a576004359060243590565b600080fd5b9181601f8401121561210a5782359167ffffffffffffffff831161210a576020808501948460051b01011161210a57565b90815180825260208080930193019160005b828110612160575050505090565b83516001600160a01b031685529381019392810192600101612152565b6007548110156121b45760076000527fa66cc928b5edb82af9bd49922954155ab7b0942694bea4ce44661d9a8736c6880190600090565b634e487b7160e01b600052603260045260246000fd5b6080810190811067ffffffffffffffff8211176121e657604052565b634e487b7160e01b600052604160045260246000fd5b6060810190811067ffffffffffffffff8211176121e657604052565b90601f8019910116810190811067ffffffffffffffff8211176121e657604052565b519069ffffffffffffffffffff8216820361210a57565b908160a091031261210a576122658161223a565b9160208201519160408101519161228360806060840151930161223a565b90565b600354604051633fabe5a360e21b81529060a090829060049082906001600160a01b03165afa9081156122de576000916122be575090565b6122d6915060a03d8111611243576112308183612218565b505050905090565b6040513d6000823e3d90fd5b9081602091031261210a5751801515810361210a5790565b67ffffffffffffffff81116121e65760051b60200190565b9061232482612302565b6123316040519182612218565b8281528092612342601f1991612302565b0190602036910137565b8051156121b45760200190565b8051600110156121b45760400190565b80518210156121b45760209160051b010190565b8181029291811591840414171561239057565b634e487b7160e01b600052601160045260246000fd5b81156123b0570490565b634e487b7160e01b600052601260045260246000fd5b9190820180921161239057565b602090818184031261210a5780519067ffffffffffffffff821161210a57019180601f8401121561210a57825161240981612302565b936124176040519586612218565b818552838086019260051b82010192831161210a578301905b82821061243e575050505090565b81518152908301908301612430565b919260809361247292979695978452602084015260a0604084015260a0830190612140565b6001600160a01b0390951660608201520152565b9190820391821161239057565b60001981146123905760010190565b91908110156121b45760051b0190565b80548210156121b4576000526005602060002091020190600090565b90801561256e57811561256757818060011461255f5760021461254e5760208110610133831016604e8210600b8410161761254957600190815b80821161252057505081600019048111612390570290565b90928060001904811161239057818416612540575b800292811c90612508565b80920291612535565b900a90565b905060ff8111612390576001901b90565b505050600190565b5050600090565b5050600190565b80548210156121b45760005260206000209060021b0190600090565b1561259857565b60405162461bcd60e51b815260206004820152602160248201527f4f6e6c79206f776e65722063616e2063616c6c20746869732066756e6374696f6044820152603760f91b6064820152608490fd5b156125ee57565b60405162461bcd60e51b81526020600482015260126024820152714c6f616e206973206e6f742061637469766560701b6044820152606490fd5b906000918083526020600581526040808520938015808015612a94575b8015612a88575b61268b576305f5e1008083029283041417156111cd57612673600d916008870154906123a6565b9401948554808611612a80575b508415918215612694575b50505050505050565b8482526005845280822093600d85019384548811612a2e576129ec5760018060a01b03928360025416938351956370a0823160e01b9788885260049230848a0152602492868a85818c5afa998a1561298457869a6129bd575b50868d6064848954169b898c519d8e948593631a4ca37b60e21b85528c8501528a8401523060448401525af198891561298457869961298e575b508682600254169b858a51809e81938252308a8301525afa9a8b1561298457869b612951575b50898b11156129045788156128c2576127ac9287928261276f8c809554612486565b90556001816002541692015416878a5180968195829463a9059cbb60e01b84528b840160209093929193604081019460018060a01b031681520152565b03925af19081156128b857849161289b575b501561285957505092828860a096937f38a556a122683cb48d496614a7a03605b6c2c0482342924caf483386980ecc9f608061284b9c9b987f971c7ec4a7c96c0a198687499279ccf05d9699970007b5ae5017b1177ee02ed39b9851908a8252858583015286820152866060820152a1825196875286015284015260608301526080820152a18254612486565b90553880808080808061268b565b845162461bcd60e51b8152918201849052601b908201527f5472616e7366657220746f20626f72726f776572206661696c656400000000006044820152606490fd5b6128b29150853d871161086f576108608183612218565b386127be565b86513d86823e3d90fd5b875162461bcd60e51b8152808601889052601c818601527f556e7374616b652072657475726e6564207a65726f20746f6b656e73000000006044820152606490fd5b875162461bcd60e51b81528086018890526022818601527f5769746864726177616c206469646e277420696e6372656173652062616c616e604482015261636560f01b6064820152608490fd5b909a508681813d831161297d575b6129698183612218565b810103126129795751993861274d565b8580fd5b503d61295f565b88513d88823e3d90fd5b9098508681813d83116129b6575b6129a68183612218565b8101031261297957519738612727565b503d61299c565b9099508681813d83116129e5575b6129d58183612218565b81010312612979575198386126ed565b503d6129cb565b606491519062461bcd60e51b82526004820152601a60248201527f43616e6e6f7420756e7374616b65207a65726f20616d6f756e740000000000006044820152fd5b50608491519062461bcd60e51b82526004820152602660248201527f43616e6e6f7420756e7374616b65206d6f7265207468616e207374616b656420604482015265185b5bdd5b9d60d21b6064820152fd5b945038612680565b50600d8601541561264c565b50600886015415612645565b90600090828252602091600583526040600d818320019283548111612ecf578015612e8b5760025482516370a0823160e01b808252306004808401919091529097919691926001600160a01b03926024918416858a8481845afa998a15612e8157899a612e4e575b5090858594939260648b97885416918b519c8d938492631a4ca37b60e21b8452898401528c888401523060448401525af1988915612d53578599612e1f575b508584600254169b838a51809e8193825230888301525afa9a8b15612d5357859b612dec575b50898b1115612d9f578815612d5d57612b87898254612486565b9055600254600154885163095ea7b360e01b81529085166001600160a01b0316848201908152602081018b905290918791839187169082908990829060400103925af18015612d5357612d36575b50865191612be2836121fc565b600283528736878501378360025416612bfa8461234c565b528360095416612c0984612359565b52605f890293898504605f03612d2457600154169161012c420190814211612d13575090858a612c56829695948c51988997889687956338ed173960e01b8752606430940491870161244d565b03925af1908115612d0957608083612cc07f971c7ec4a7c96c0a198687499279ccf05d9699970007b5ae5017b1177ee02ed39c9a9896947f38a556a122683cb48d496614a7a03605b6c2c0482342924caf483386980ecc9f9460a09d9b999791612cef5750612359565b51908651918b83528686840152878301526060820152a1825196875286015284015260608301526080820152a1565b612d0391503d8085833e6111a08183612218565b38610ff9565b85513d84823e3d90fd5b634e487b7160e01b87526011835286fd5b50634e487b7160e01b85526011905283fd5b612d4c90863d881161086f576108608183612218565b5038612bd5565b88513d87823e3d90fd5b875162461bcd60e51b8152808401879052601c818401527f556e7374616b652072657475726e6564207a65726f20746f6b656e73000000006044820152606490fd5b875162461bcd60e51b81528084018790526022818401527f5769746864726177616c206469646e277420696e6372656173652062616c616e604482015261636560f01b6064820152608490fd5b909a508581813d8311612e18575b612e048183612218565b81010312612e1457519938612b6d565b8480fd5b503d612dfa565b9098508581813d8311612e47575b612e378183612218565b81010312612e1457519738612b47565b503d612e2d565b9099508581813d8311612e7a575b612e668183612218565b81010312612e7657519885612b08565b8880fd5b503d612e5c565b88513d8b823e3d90fd5b815162461bcd60e51b815260048101869052601a60248201527f43616e6e6f7420756e7374616b65207a65726f20616d6f756e740000000000006044820152606490fd5b815162461bcd60e51b815260048101869052602660248201527f43616e6e6f7420756e7374616b65206d6f7265207468616e207374616b656420604482015265185b5bdd5b9d60d21b6064820152608490fd5b600090815260056020526040812060028101549093928115612f8c57670de0b6b3a76400009283820291808304851490151715612f78575093612f6a612f7492600d966123a6565b948591015461237d565b0490565b634e487b7160e01b81526011600452602490fd5b5050809250919056fea264697066735822122012a91a210a813c110c735a383ebecb1ed46cc377796963d8fa7d033da56c68b164736f6c63430008140033","opcodes":"PUSH1 0x80 CALLVALUE PUSH3 0xEC JUMPI PUSH1 0x1F PUSH3 0x30E8 CODESIZE DUP2 SWAP1 SUB SWAP2 DUP3 ADD PUSH1 0x1F NOT AND DUP4 ADD SWAP2 PUSH1 0x1 PUSH1 0x1 PUSH1 0x40 SHL SUB DUP4 GT DUP5 DUP5 LT OR PUSH3 0xF1 JUMPI DUP1 DUP5 SWAP3 PUSH1 0xA0 SWAP5 PUSH1 0x40 MSTORE DUP4 CODECOPY DUP2 ADD SUB SLT PUSH3 0xEC JUMPI PUSH3 0x4D DUP2 PUSH3 0x107 JUMP JUMPDEST SWAP1 PUSH3 0x5C PUSH1 0x20 DUP3 ADD PUSH3 0x107 JUMP JUMPDEST SWAP1 PUSH3 0x6B PUSH1 0x40 DUP3 ADD PUSH3 0x107 JUMP JUMPDEST SWAP2 PUSH3 0x88 PUSH1 0x80 PUSH3 0x80 PUSH1 0x60 DUP6 ADD PUSH3 0x107 JUMP JUMPDEST SWAP4 ADD PUSH3 0x107 JUMP JUMPDEST SWAP2 PUSH1 0x1 DUP1 PUSH1 0xA0 SHL SUB NOT SWAP5 CALLER DUP7 PUSH1 0x8 SLOAD AND OR PUSH1 0x8 SSTORE PUSH1 0x1 DUP1 PUSH1 0xA0 SHL SUB SWAP5 DUP6 DUP1 SWAP5 DUP2 DUP1 SWAP5 AND DUP10 PUSH1 0x9 SLOAD AND OR PUSH1 0x9 SSTORE AND DUP8 PUSH1 0x2 SLOAD AND OR PUSH1 0x2 SSTORE AND DUP6 PUSH1 0x3 SLOAD AND OR PUSH1 0x3 SSTORE AND DUP4 PUSH1 0x0 SLOAD AND OR PUSH1 0x0 SSTORE AND SWAP1 PUSH1 0x1 SLOAD AND OR PUSH1 0x1 SSTORE PUSH1 0x40 MLOAD PUSH2 0x2FCB SWAP1 DUP2 PUSH3 0x11D DUP3 CODECOPY RETURN JUMPDEST PUSH1 0x0 DUP1 REVERT JUMPDEST PUSH4 0x4E487B71 PUSH1 0xE0 SHL PUSH1 0x0 MSTORE PUSH1 0x41 PUSH1 0x4 MSTORE PUSH1 0x24 PUSH1 0x0 REVERT JUMPDEST MLOAD SWAP1 PUSH1 0x1 PUSH1 0x1 PUSH1 0xA0 SHL SUB DUP3 AND DUP3 SUB PUSH3 0xEC JUMPI JUMP INVALID PUSH1 0x80 PUSH1 0x40 MSTORE PUSH1 0x4 CALLDATASIZE LT ISZERO PUSH2 0x12 JUMPI PUSH1 0x0 DUP1 REVERT JUMPDEST PUSH1 0x0 DUP1 CALLDATALOAD PUSH1 0xE0 SHR DUP1 PUSH4 0xA71096E EQ PUSH2 0x1E29 JUMPI DUP1 PUSH4 0xE462386 EQ PUSH2 0x1E00 JUMPI DUP1 PUSH4 0x11EAC855 EQ PUSH2 0x1DD7 JUMPI DUP1 PUSH4 0x1FC8F4DF EQ PUSH2 0x1CA6 JUMPI DUP1 PUSH4 0x21D4F8DB EQ PUSH2 0x1C64 JUMPI DUP1 PUSH4 0x28830D47 EQ PUSH2 0x197E JUMPI DUP1 PUSH4 0x28FD10D7 EQ PUSH2 0x1941 JUMPI DUP1 PUSH4 0x337A1737 EQ PUSH2 0x1914 JUMPI DUP1 PUSH4 0x349F937C EQ PUSH2 0x18CB JUMPI DUP1 PUSH4 0x41273657 EQ PUSH2 0x187E JUMPI DUP1 PUSH4 0x5206D2D0 EQ PUSH2 0x1858 JUMPI DUP1 PUSH4 0x66FB6E5A EQ PUSH2 0xB57 JUMPI DUP1 PUSH4 0x6C1945AE EQ PUSH2 0xA56 JUMPI DUP1 PUSH4 0x7A9B0412 EQ PUSH2 0xA09 JUMPI DUP1 PUSH4 0x80F2122C EQ PUSH2 0x637 JUMPI DUP1 PUSH4 0x83CD8FCF EQ PUSH2 0x5E6 JUMPI DUP1 PUSH4 0x86280F82 EQ PUSH2 0x576 JUMPI DUP1 PUSH4 0x86A2E274 EQ PUSH2 0x444 JUMPI DUP1 PUSH4 0x8DA5CB5B EQ PUSH2 0x41B JUMPI DUP1 PUSH4 0x98D5FDCA EQ PUSH2 0x3F8 JUMPI DUP1 PUSH4 0xA03E4BC3 EQ PUSH2 0x3D1 JUMPI DUP1 PUSH4 0xC31C9C07 EQ PUSH2 0x3A8 JUMPI DUP1 PUSH4 0xC4A90815 EQ PUSH2 0x2D8 JUMPI DUP1 PUSH4 0xC9642D2A EQ PUSH2 0x19F JUMPI DUP1 PUSH4 0xEF06E72C EQ PUSH2 0x176 JUMPI PUSH4 0xF8715A42 EQ PUSH2 0x13B JUMPI PUSH1 0x0 DUP1 REVERT JUMPDEST CALLVALUE PUSH2 0x173 JUMPI PUSH1 0x20 CALLDATASIZE PUSH1 0x3 NOT ADD SLT PUSH2 0x173 JUMPI PUSH1 0x4 CALLDATALOAD SWAP1 PUSH1 0x7 SLOAD DUP3 LT ISZERO PUSH2 0x173 JUMPI PUSH1 0x20 PUSH2 0x165 DUP4 PUSH2 0x217D JUMP JUMPDEST SWAP1 SLOAD PUSH1 0x40 MLOAD SWAP2 PUSH1 0x3 SHL SHR DUP2 MSTORE RETURN JUMPDEST DUP1 REVERT JUMPDEST POP CALLVALUE PUSH2 0x173 JUMPI DUP1 PUSH1 0x3 NOT CALLDATASIZE ADD SLT PUSH2 0x173 JUMPI PUSH1 0x3 SLOAD PUSH1 0x40 MLOAD PUSH1 0x1 PUSH1 0x1 PUSH1 0xA0 SHL SUB SWAP1 SWAP2 AND DUP2 MSTORE PUSH1 0x20 SWAP1 RETURN JUMPDEST POP CALLVALUE PUSH2 0x173 JUMPI PUSH2 0x1AE CALLDATASIZE PUSH2 0x20F4 JUMP JUMPDEST SWAP1 PUSH2 0x1C4 PUSH1 0x1 DUP1 PUSH1 0xA0 SHL SUB PUSH1 0x8 SLOAD AND CALLER EQ PUSH2 0x2591 JUMP JUMPDEST DUP1 DUP4 MSTORE PUSH1 0x5 PUSH1 0x20 MSTORE PUSH1 0xC PUSH1 0x40 DUP5 KECCAK256 PUSH2 0x1E2 PUSH1 0xFF PUSH1 0x9 DUP4 ADD SLOAD AND PUSH2 0x25E7 JUMP JUMPDEST ADD SWAP1 DUP2 SLOAD DUP4 LT ISZERO PUSH2 0x293 JUMPI PUSH1 0xFF PUSH1 0x2 PUSH2 0x1FB DUP6 DUP6 PUSH2 0x2575 JUMP JUMPDEST POP ADD SLOAD AND PUSH2 0x24E JUMPI DUP3 PUSH1 0x2 PUSH2 0x233 PUSH32 0x3D05AC2057427AC2F84502E7EFEFEBF5AE10D9529129C2979CE60FB97D460614 SWAP6 PUSH1 0x40 SWAP6 PUSH2 0x2575 JUMP JUMPDEST POP ADD DUP1 SLOAD PUSH1 0xFF NOT AND PUSH1 0x1 OR SWAP1 SSTORE DUP3 MLOAD SWAP2 DUP3 MSTORE PUSH1 0x20 DUP3 ADD MSTORE LOG1 DUP1 RETURN JUMPDEST PUSH1 0x40 MLOAD PUSH3 0x461BCD PUSH1 0xE5 SHL DUP2 MSTORE PUSH1 0x20 PUSH1 0x4 DUP3 ADD MSTORE PUSH1 0x1F PUSH1 0x24 DUP3 ADD MSTORE PUSH32 0x496E7374616C6C6D656E7420616C7265616479206D61726B6564207061696400 PUSH1 0x44 DUP3 ADD MSTORE PUSH1 0x64 SWAP1 REVERT JUMPDEST PUSH1 0x40 MLOAD PUSH3 0x461BCD PUSH1 0xE5 SHL DUP2 MSTORE PUSH1 0x20 PUSH1 0x4 DUP3 ADD MSTORE PUSH1 0x19 PUSH1 0x24 DUP3 ADD MSTORE PUSH32 0x496E76616C696420696E7374616C6C6D656E7420696E64657800000000000000 PUSH1 0x44 DUP3 ADD MSTORE PUSH1 0x64 SWAP1 REVERT JUMPDEST POP CALLVALUE PUSH2 0x173 JUMPI PUSH1 0x20 CALLDATASIZE PUSH1 0x3 NOT ADD SLT PUSH2 0x173 JUMPI PUSH1 0x40 PUSH2 0x1C0 SWAP2 PUSH1 0x4 CALLDATALOAD DUP2 MSTORE PUSH1 0x5 PUSH1 0x20 MSTORE KECCAK256 DUP1 SLOAD SWAP1 PUSH1 0x1 DUP1 PUSH1 0xA0 SHL SUB PUSH1 0x1 DUP3 ADD SLOAD AND SWAP1 PUSH1 0x2 DUP2 ADD SLOAD PUSH1 0x3 DUP3 ADD SLOAD PUSH1 0x4 DUP4 ADD SLOAD PUSH1 0x5 DUP5 ADD SLOAD PUSH1 0x6 DUP6 ADD SLOAD PUSH1 0x7 DUP7 ADD SLOAD SWAP1 PUSH1 0x8 DUP8 ADD SLOAD SWAP3 PUSH1 0xFF PUSH1 0x9 DUP10 ADD SLOAD AND SWAP5 PUSH1 0xA DUP10 ADD SLOAD SWAP7 PUSH1 0xD DUP11 ADD SLOAD SWAP9 PUSH1 0xFF PUSH1 0xF PUSH1 0xE DUP14 ADD SLOAD SWAP13 ADD SLOAD AND SWAP12 PUSH1 0x20 PUSH1 0x40 MLOAD SWAP15 DUP16 SWAP1 DUP2 MSTORE ADD MSTORE PUSH1 0x40 DUP14 ADD MSTORE PUSH1 0x60 DUP13 ADD MSTORE PUSH1 0x80 DUP12 ADD MSTORE PUSH1 0xA0 DUP11 ADD MSTORE PUSH1 0xC0 DUP10 ADD MSTORE PUSH1 0xE0 DUP9 ADD MSTORE PUSH2 0x100 DUP8 ADD MSTORE ISZERO ISZERO PUSH2 0x120 DUP7 ADD MSTORE PUSH2 0x140 DUP6 ADD MSTORE PUSH2 0x160 DUP5 ADD MSTORE PUSH2 0x180 DUP4 ADD MSTORE ISZERO ISZERO PUSH2 0x1A0 DUP3 ADD MSTORE RETURN JUMPDEST POP CALLVALUE PUSH2 0x173 JUMPI DUP1 PUSH1 0x3 NOT CALLDATASIZE ADD SLT PUSH2 0x173 JUMPI PUSH1 0x1 SLOAD PUSH1 0x40 MLOAD PUSH1 0x1 PUSH1 0x1 PUSH1 0xA0 SHL SUB SWAP1 SWAP2 AND DUP2 MSTORE PUSH1 0x20 SWAP1 RETURN JUMPDEST POP CALLVALUE PUSH2 0x173 JUMPI DUP1 PUSH1 0x3 NOT CALLDATASIZE ADD SLT PUSH2 0x173 JUMPI SLOAD PUSH1 0x40 MLOAD PUSH1 0x1 PUSH1 0x1 PUSH1 0xA0 SHL SUB SWAP1 SWAP2 AND DUP2 MSTORE PUSH1 0x20 SWAP1 RETURN JUMPDEST POP CALLVALUE PUSH2 0x173 JUMPI DUP1 PUSH1 0x3 NOT CALLDATASIZE ADD SLT PUSH2 0x173 JUMPI PUSH1 0x20 PUSH2 0x413 PUSH2 0x2286 JUMP JUMPDEST PUSH1 0x40 MLOAD SWAP1 DUP2 MSTORE RETURN JUMPDEST POP CALLVALUE PUSH2 0x173 JUMPI DUP1 PUSH1 0x3 NOT CALLDATASIZE ADD SLT PUSH2 0x173 JUMPI PUSH1 0x8 SLOAD PUSH1 0x40 MLOAD PUSH1 0x1 PUSH1 0x1 PUSH1 0xA0 SHL SUB SWAP1 SWAP2 AND DUP2 MSTORE PUSH1 0x20 SWAP1 RETURN JUMPDEST POP CALLVALUE PUSH2 0x173 JUMPI PUSH1 0x20 CALLDATASIZE PUSH1 0x3 NOT ADD SLT PUSH2 0x173 JUMPI PUSH1 0x4 CALLDATALOAD DUP2 MSTORE PUSH1 0x5 PUSH1 0x20 MSTORE PUSH1 0xB PUSH1 0x40 DUP3 KECCAK256 ADD SWAP1 DUP2 SLOAD SWAP1 PUSH2 0x474 DUP3 PUSH2 0x231A JUMP JUMPDEST SWAP2 PUSH2 0x47E DUP2 PUSH2 0x231A JUMP JUMPDEST PUSH2 0x487 DUP3 PUSH2 0x231A JUMP JUMPDEST SWAP1 PUSH2 0x491 DUP4 PUSH2 0x231A JUMP JUMPDEST SWAP3 PUSH2 0x49B DUP2 PUSH2 0x231A JUMP JUMPDEST SWAP5 JUMPDEST DUP2 DUP2 LT PUSH2 0x508 JUMPI PUSH2 0x4CC DUP8 PUSH2 0x504 DUP9 PUSH2 0x4F6 DUP10 PUSH2 0x4E8 DUP11 PUSH2 0x4DA DUP12 PUSH1 0x40 MLOAD SWAP10 DUP11 SWAP10 PUSH1 0xA0 DUP12 MSTORE PUSH1 0xA0 DUP12 ADD SWAP1 PUSH2 0x2140 JUMP JUMPDEST SWAP1 DUP10 DUP3 SUB PUSH1 0x20 DUP12 ADD MSTORE PUSH2 0x20C0 JUMP JUMPDEST SWAP1 DUP8 DUP3 SUB PUSH1 0x40 DUP10 ADD MSTORE PUSH2 0x20C0 JUMP JUMPDEST SWAP1 DUP6 DUP3 SUB PUSH1 0x60 DUP8 ADD MSTORE PUSH2 0x20C0 JUMP JUMPDEST SWAP1 DUP4 DUP3 SUB PUSH1 0x80 DUP6 ADD MSTORE PUSH2 0x20C0 JUMP JUMPDEST SUB SWAP1 RETURN JUMPDEST DUP1 PUSH1 0x4 PUSH2 0x518 PUSH2 0x571 SWAP4 DUP12 PUSH2 0x24B2 JUMP JUMPDEST POP DUP1 SLOAD PUSH1 0x1 PUSH1 0x1 PUSH1 0xA0 SHL SUB AND PUSH2 0x52E DUP5 DUP13 PUSH2 0x2369 JUMP JUMPDEST MSTORE PUSH1 0x1 DUP2 ADD SLOAD PUSH2 0x53E DUP5 DUP9 PUSH2 0x2369 JUMP JUMPDEST MSTORE PUSH1 0x2 DUP2 ADD SLOAD PUSH2 0x54E DUP5 DUP10 PUSH2 0x2369 JUMP JUMPDEST MSTORE PUSH1 0x3 DUP2 ADD SLOAD PUSH2 0x55E DUP5 DUP11 PUSH2 0x2369 JUMP JUMPDEST MSTORE ADD SLOAD PUSH2 0x56B DUP3 DUP10 PUSH2 0x2369 JUMP JUMPDEST MSTORE PUSH2 0x2493 JUMP JUMPDEST PUSH2 0x49D JUMP JUMPDEST POP CALLVALUE PUSH2 0x173 JUMPI PUSH1 0x40 CALLDATASIZE PUSH1 0x3 NOT ADD SLT PUSH2 0x173 JUMPI PUSH1 0x24 CALLDATALOAD DUP1 ISZERO ISZERO DUP2 SUB PUSH2 0x5E2 JUMPI PUSH2 0x5DF SWAP1 PUSH2 0x5AD PUSH1 0x1 DUP1 PUSH1 0xA0 SHL SUB PUSH1 0x8 SLOAD AND CALLER EQ PUSH2 0x2591 JUMP JUMPDEST PUSH1 0x4 CALLDATALOAD DUP4 MSTORE PUSH1 0x5 PUSH1 0x20 MSTORE PUSH1 0xF PUSH1 0x40 DUP5 KECCAK256 PUSH2 0x5CD PUSH1 0xFF PUSH1 0x9 DUP4 ADD SLOAD AND PUSH2 0x25E7 JUMP JUMPDEST ADD SWAP1 PUSH1 0xFF DUP1 NOT DUP4 SLOAD AND SWAP2 ISZERO ISZERO AND OR SWAP1 SSTORE JUMP JUMPDEST DUP1 RETURN JUMPDEST POP DUP1 REVERT JUMPDEST POP CALLVALUE PUSH2 0x173 JUMPI PUSH1 0x20 CALLDATASIZE PUSH1 0x3 NOT ADD SLT PUSH2 0x173 JUMPI PUSH1 0x4 CALLDATALOAD PUSH1 0x1 PUSH1 0x1 PUSH1 0xA0 SHL SUB DUP2 DUP2 AND SWAP2 DUP3 SWAP1 SUB PUSH2 0x633 JUMPI PUSH2 0x61D SWAP1 PUSH1 0x8 SLOAD AND CALLER EQ PUSH2 0x2591 JUMP JUMPDEST PUSH1 0x1 PUSH1 0x1 PUSH1 0x60 SHL SUB PUSH1 0xA0 SHL PUSH1 0x2 SLOAD AND OR PUSH1 0x2 SSTORE DUP1 RETURN JUMPDEST DUP3 DUP1 REVERT JUMPDEST POP CALLVALUE PUSH2 0x173 JUMPI PUSH2 0x646 CALLDATASIZE PUSH2 0x20F4 JUMP JUMPDEST SWAP1 DUP1 DUP4 MSTORE PUSH1 0x5 PUSH1 0x20 MSTORE PUSH1 0x40 DUP4 KECCAK256 SWAP1 PUSH2 0x664 PUSH1 0xFF PUSH1 0x9 DUP5 ADD SLOAD AND PUSH2 0x25E7 JUMP JUMPDEST PUSH1 0x1 DUP3 ADD SLOAD PUSH1 0x1 PUSH1 0x1 PUSH1 0xA0 SHL SUB AND CALLER SUB PUSH2 0x9C4 JUMPI PUSH1 0x9 SLOAD PUSH1 0x40 MLOAD PUSH4 0x23B872DD PUSH1 0xE0 SHL DUP2 MSTORE CALLER PUSH1 0x4 DUP3 ADD MSTORE ADDRESS PUSH1 0x24 DUP3 ADD MSTORE PUSH1 0x44 DUP2 ADD DUP6 SWAP1 MSTORE SWAP1 PUSH1 0x20 SWAP1 DUP3 SWAP1 PUSH1 0x64 SWAP1 DUP3 SWAP1 DUP10 SWAP1 PUSH1 0x1 PUSH1 0x1 PUSH1 0xA0 SHL SUB AND GAS CALL DUP1 ISZERO PUSH2 0x9B9 JUMPI PUSH2 0x99A JUMPI JUMPDEST POP DUP3 SWAP1 DUP5 DUP6 JUMPDEST PUSH1 0xC DUP6 ADD SLOAD DUP2 LT DUP1 PUSH2 0x991 JUMPI JUMPDEST ISZERO PUSH2 0x93C JUMPI PUSH2 0x6E3 DUP2 PUSH1 0xC DUP8 ADD PUSH2 0x2575 JUMP JUMPDEST POP DUP1 SLOAD DUP1 ISZERO PUSH2 0x8F7 JUMPI PUSH1 0xFF PUSH1 0x2 DUP4 ADD SLOAD AND PUSH2 0x8EC JUMPI PUSH1 0x1 DUP3 ADD SLOAD SWAP1 PUSH2 0x708 DUP3 DUP3 PUSH2 0x23C6 JUMP JUMPDEST DUP1 DUP9 LT ISZERO PUSH2 0x723 JUMPI JUMPDEST POP POP POP POP PUSH2 0x71E SWAP1 PUSH2 0x2493 JUMP JUMPDEST PUSH2 0x6C4 JUMP JUMPDEST SWAP1 PUSH2 0x738 PUSH2 0x73E SWAP3 DUP3 SWAP9 SWAP6 SWAP12 SWAP5 SWAP11 SWAP8 SWAP10 PUSH2 0x2486 JUMP JUMPDEST SWAP8 PUSH2 0x23C6 JUMP JUMPDEST SWAP1 PUSH1 0x2 DUP6 ADD SLOAD SWAP7 DUP11 JUMPDEST PUSH1 0xB DUP8 ADD SLOAD DUP2 LT ISZERO PUSH2 0x895 JUMPI PUSH2 0x760 DUP2 PUSH1 0xB DUP10 ADD PUSH2 0x24B2 JUMP JUMPDEST POP PUSH1 0x1 DUP2 ADD SLOAD DUP1 PUSH8 0xDE0B6B3A7640000 DUP2 MUL DIV PUSH8 0xDE0B6B3A7640000 EQ DUP2 ISZERO OR ISZERO PUSH2 0x881 JUMPI DUP14 PUSH2 0x828 SWAP4 SWAP3 DUP14 PUSH2 0x7F8 PUSH8 0xDE0B6B3A7640000 DUP16 DUP16 DUP3 PUSH2 0x7B6 PUSH2 0x7AF PUSH2 0x7BD SWAP5 DUP4 PUSH1 0x20 SWAP13 MUL PUSH2 0x23A6 JUMP JUMPDEST DUP1 SWAP4 PUSH2 0x237D JUMP JUMPDEST DIV SWAP5 PUSH2 0x237D JUMP JUMPDEST DIV PUSH1 0x3 DUP5 ADD PUSH2 0x7CD DUP5 DUP3 SLOAD PUSH2 0x23C6 JUMP JUMPDEST SWAP1 SSTORE PUSH1 0x4 DUP5 ADD PUSH2 0x7DE DUP3 DUP3 SLOAD PUSH2 0x23C6 JUMP JUMPDEST SWAP1 SSTORE PUSH1 0x9 SLOAD SWAP4 SLOAD PUSH1 0x1 PUSH1 0x1 PUSH1 0xA0 SHL SUB SWAP5 DUP6 AND SWAP5 AND SWAP3 PUSH2 0x23C6 JUMP JUMPDEST PUSH1 0x40 MLOAD PUSH4 0xA9059CBB PUSH1 0xE0 SHL DUP2 MSTORE PUSH1 0x1 PUSH1 0x1 PUSH1 0xA0 SHL SUB SWAP1 SWAP3 AND PUSH1 0x4 DUP4 ADD MSTORE PUSH1 0x24 DUP3 ADD MSTORE SWAP5 DUP6 SWAP3 DUP4 SWAP2 DUP3 SWAP1 PUSH1 0x44 DUP3 ADD SWAP1 JUMP JUMPDEST SUB SWAP3 GAS CALL SWAP2 DUP3 ISZERO PUSH2 0x876 JUMPI PUSH2 0x842 SWAP3 PUSH2 0x847 JUMPI JUMPDEST POP PUSH2 0x2493 JUMP JUMPDEST PUSH2 0x747 JUMP JUMPDEST PUSH2 0x868 SWAP1 PUSH1 0x20 RETURNDATASIZE PUSH1 0x20 GT PUSH2 0x86F JUMPI JUMPDEST PUSH2 0x860 DUP2 DUP4 PUSH2 0x2218 JUMP JUMPDEST DUP2 ADD SWAP1 PUSH2 0x22EA JUMP JUMPDEST POP CODESIZE PUSH2 0x83C JUMP JUMPDEST POP RETURNDATASIZE PUSH2 0x856 JUMP JUMPDEST PUSH1 0x40 MLOAD RETURNDATASIZE DUP16 DUP3 RETURNDATACOPY RETURNDATASIZE SWAP1 REVERT JUMPDEST PUSH4 0x4E487B71 PUSH1 0xE0 SHL DUP15 MSTORE PUSH1 0x11 PUSH1 0x4 MSTORE PUSH1 0x24 DUP15 REVERT JUMPDEST POP SWAP7 POP SWAP8 SWAP1 SWAP4 SWAP7 POP PUSH2 0x71E SWAP3 SWAP2 SWAP5 POP PUSH1 0x2 PUSH1 0x1 PUSH1 0xFF NOT DUP3 DUP5 ADD SLOAD AND OR SWAP2 ADD SSTORE PUSH32 0x3D05AC2057427AC2F84502E7EFEFEBF5AE10D9529129C2979CE60FB97D460614 PUSH1 0x40 DUP1 MLOAD DUP7 DUP2 MSTORE DUP4 PUSH1 0x20 DUP3 ADD MSTORE LOG1 SWAP1 CODESIZE DUP1 DUP1 PUSH2 0x711 JUMP JUMPDEST POP POP PUSH2 0x71E SWAP1 PUSH2 0x2493 JUMP JUMPDEST PUSH1 0x40 MLOAD PUSH3 0x461BCD PUSH1 0xE5 SHL DUP2 MSTORE PUSH1 0x20 PUSH1 0x4 DUP3 ADD MSTORE PUSH1 0x18 PUSH1 0x24 DUP3 ADD MSTORE PUSH32 0x496E7374616C6C6D656E7420616C726561647920706169640000000000000000 PUSH1 0x44 DUP3 ADD MSTORE PUSH1 0x64 SWAP1 REVERT JUMPDEST DUP7 PUSH32 0xDC376ABD09229A842AC7D8BCADC9017651F1F1B8490750870CAE0ECD4AEDF674 PUSH1 0x80 DUP6 DUP8 PUSH2 0x976 DUP2 DUP13 PUSH2 0x971 DUP11 DUP7 PUSH2 0x2628 JUMP JUMPDEST PUSH2 0x2486 JUMP JUMPDEST PUSH1 0x40 MLOAD SWAP3 DUP4 MSTORE CALLER PUSH1 0x20 DUP5 ADD MSTORE PUSH1 0x40 DUP4 ADD MSTORE ISZERO PUSH1 0x60 DUP3 ADD MSTORE LOG1 DUP1 RETURN JUMPDEST POP DUP4 ISZERO ISZERO PUSH2 0x6D1 JUMP JUMPDEST PUSH2 0x9B2 SWAP1 PUSH1 0x20 RETURNDATASIZE PUSH1 0x20 GT PUSH2 0x86F JUMPI PUSH2 0x860 DUP2 DUP4 PUSH2 0x2218 JUMP JUMPDEST POP CODESIZE PUSH2 0x6BE JUMP JUMPDEST PUSH1 0x40 MLOAD RETURNDATASIZE DUP8 DUP3 RETURNDATACOPY RETURNDATASIZE SWAP1 REVERT JUMPDEST PUSH1 0x40 MLOAD PUSH3 0x461BCD PUSH1 0xE5 SHL DUP2 MSTORE PUSH1 0x20 PUSH1 0x4 DUP3 ADD MSTORE PUSH1 0x17 PUSH1 0x24 DUP3 ADD MSTORE PUSH32 0x4F6E6C7920626F72726F7765722063616E207265706179000000000000000000 PUSH1 0x44 DUP3 ADD MSTORE PUSH1 0x64 SWAP1 REVERT JUMPDEST POP CALLVALUE PUSH2 0x173 JUMPI PUSH1 0x20 CALLDATASIZE PUSH1 0x3 NOT ADD SLT PUSH2 0x173 JUMPI PUSH1 0x4 CALLDATALOAD PUSH1 0x1 PUSH1 0x1 PUSH1 0xA0 SHL SUB DUP2 DUP2 AND SWAP2 DUP3 SWAP1 SUB PUSH2 0x633 JUMPI PUSH2 0xA40 SWAP1 PUSH1 0x8 SLOAD AND CALLER EQ PUSH2 0x2591 JUMP JUMPDEST PUSH1 0x1 PUSH1 0x1 PUSH1 0x60 SHL SUB PUSH1 0xA0 SHL PUSH1 0x3 SLOAD AND OR PUSH1 0x3 SSTORE DUP1 RETURN JUMPDEST POP CALLVALUE PUSH2 0x173 JUMPI PUSH1 0x20 SWAP1 DUP2 PUSH1 0x3 NOT CALLDATASIZE ADD SLT PUSH2 0x173 JUMPI SWAP1 PUSH1 0x4 CALLDATALOAD DUP3 MSTORE PUSH1 0x5 DUP2 MSTORE PUSH1 0xC PUSH1 0x40 DUP4 KECCAK256 ADD DUP1 SLOAD PUSH2 0xA86 DUP2 PUSH2 0x2302 JUMP JUMPDEST SWAP1 PUSH2 0xA94 PUSH1 0x40 MLOAD SWAP3 DUP4 PUSH2 0x2218 JUMP JUMPDEST DUP1 DUP3 MSTORE DUP4 DUP3 ADD DUP1 SWAP4 DUP7 MSTORE DUP5 DUP7 KECCAK256 DUP7 SWAP2 JUMPDEST DUP4 DUP4 LT PUSH2 0xB08 JUMPI POP POP POP POP PUSH1 0x40 MLOAD SWAP3 DUP1 DUP5 ADD SWAP2 DUP2 DUP6 MSTORE MLOAD DUP1 SWAP3 MSTORE PUSH1 0x40 DUP5 ADD SWAP3 SWAP5 JUMPDEST DUP3 DUP2 LT PUSH2 0xAD2 JUMPI DUP5 DUP5 SUB DUP6 RETURN JUMPDEST DUP6 MLOAD DUP1 MLOAD DUP6 MSTORE DUP1 DUP4 ADD MLOAD DUP6 DUP5 ADD MSTORE PUSH1 0x40 DUP1 DUP3 ADD MLOAD ISZERO ISZERO SWAP1 DUP7 ADD MSTORE PUSH1 0x60 SWAP1 DUP2 ADD MLOAD SWAP1 DUP6 ADD MSTORE SWAP5 DUP2 ADD SWAP5 PUSH1 0x80 SWAP1 SWAP4 ADD SWAP3 PUSH1 0x1 ADD PUSH2 0xAC5 JUMP JUMPDEST PUSH1 0x4 DUP8 PUSH1 0x1 SWAP3 PUSH1 0x40 SWAP11 SWAP10 SWAP8 SWAP9 SWAP11 MLOAD PUSH2 0xB1F DUP2 PUSH2 0x21CA JUMP JUMPDEST DUP6 SLOAD DUP2 MSTORE DUP5 DUP7 ADD SLOAD DUP4 DUP3 ADD MSTORE PUSH1 0xFF PUSH1 0x2 DUP8 ADD SLOAD AND ISZERO ISZERO PUSH1 0x40 DUP3 ADD MSTORE PUSH1 0x3 DUP7 ADD SLOAD PUSH1 0x60 DUP3 ADD MSTORE DUP2 MSTORE ADD SWAP3 ADD SWAP3 ADD SWAP2 SWAP1 SWAP7 SWAP5 SWAP4 SWAP6 SWAP7 PUSH2 0xAA4 JUMP JUMPDEST POP CALLVALUE PUSH2 0x173 JUMPI PUSH1 0xA0 CALLDATASIZE PUSH1 0x3 NOT ADD SLT PUSH2 0x173 JUMPI PUSH1 0x64 CALLDATALOAD PUSH8 0xFFFFFFFFFFFFFFFF DUP2 GT PUSH2 0x5E2 JUMPI PUSH2 0xB89 SWAP1 CALLDATASIZE SWAP1 PUSH1 0x4 ADD PUSH2 0x210F JUMP JUMPDEST SWAP1 PUSH1 0x84 CALLDATALOAD PUSH8 0xFFFFFFFFFFFFFFFF DUP2 GT PUSH2 0x1854 JUMPI PUSH2 0xBAA SWAP1 CALLDATASIZE SWAP1 PUSH1 0x4 ADD PUSH2 0x210F JUMP JUMPDEST SWAP3 PUSH1 0x4 CALLDATALOAD ISZERO PUSH2 0x181E JUMPI PUSH1 0x24 CALLDATALOAD ISZERO PUSH2 0x17E6 JUMPI CALLER DUP6 MSTORE PUSH1 0x6 PUSH1 0x20 MSTORE PUSH1 0xFF PUSH1 0x40 DUP7 KECCAK256 SLOAD AND PUSH2 0x1795 JUMPI DUP4 DUP2 SUB PUSH2 0x173B JUMPI DUP1 ISZERO PUSH2 0x1700 JUMPI PUSH1 0x14 PUSH1 0x4 CALLDATALOAD MUL SWAP2 PUSH1 0x4 CALLDATALOAD DUP4 DIV PUSH1 0x14 SUB PUSH2 0x11CD JUMPI PUSH2 0xBFE PUSH1 0x64 DUP5 DIV PUSH1 0x4 CALLDATALOAD PUSH2 0x2486 JUMP JUMPDEST PUSH1 0x9 SLOAD PUSH1 0x40 MLOAD PUSH4 0x23B872DD PUSH1 0xE0 SHL DUP2 MSTORE CALLER PUSH1 0x4 DUP3 ADD MSTORE ADDRESS PUSH1 0x24 DUP3 ADD MSTORE PUSH1 0x64 DUP1 DUP8 DIV PUSH1 0x44 DUP4 ADD MSTORE SWAP3 SWAP7 SWAP3 SWAP1 SWAP2 PUSH1 0x20 SWAP2 DUP4 SWAP2 DUP3 SWAP1 DUP13 SWAP1 PUSH1 0x1 PUSH1 0x1 PUSH1 0xA0 SHL SUB AND GAS CALL DUP1 ISZERO PUSH2 0x16F5 JUMPI PUSH2 0x16D6 JUMPI JUMPDEST POP SWAP1 DUP5 SWAP3 SWAP2 PUSH1 0x40 MLOAD PUSH1 0x20 DUP2 ADD SWAP1 CALLER PUSH1 0x60 SHL DUP3 MSTORE TIMESTAMP PUSH1 0x34 DUP3 ADD MSTORE PUSH1 0x34 DUP2 MSTORE PUSH2 0xC6E DUP2 PUSH2 0x21FC JUMP JUMPDEST MLOAD SWAP1 KECCAK256 SWAP7 DUP8 DUP10 MSTORE PUSH1 0x5 PUSH1 0x20 MSTORE PUSH1 0x64 PUSH1 0x40 DUP11 KECCAK256 SWAP7 DUP10 DUP9 SSTORE PUSH1 0x1 DUP9 ADD CALLER PUSH1 0x1 PUSH1 0x1 PUSH1 0x60 SHL SUB PUSH1 0xA0 SHL DUP3 SLOAD AND OR SWAP1 SSTORE PUSH1 0x4 CALLDATALOAD PUSH1 0xA DUP10 ADD SSTORE DUP7 PUSH1 0x2 DUP10 ADD SSTORE DIV PUSH1 0x3 DUP8 ADD SSTORE PUSH1 0x44 CALLDATALOAD PUSH1 0x4 DUP8 ADD SSTORE PUSH1 0x24 CALLDATALOAD PUSH1 0x5 DUP8 ADD SSTORE TIMESTAMP PUSH1 0x7 DUP8 ADD SSTORE PUSH2 0xCCC PUSH2 0x2286 JUMP JUMPDEST PUSH1 0x8 DUP8 ADD SSTORE PUSH1 0x9 DUP7 ADD PUSH1 0x1 PUSH1 0xFF NOT DUP3 SLOAD AND OR SWAP1 SSTORE DUP5 PUSH1 0xE DUP8 ADD SSTORE PUSH1 0xF DUP7 ADD PUSH1 0xFF NOT DUP2 SLOAD AND SWAP1 SSTORE DUP9 SWAP4 DUP10 JUMPDEST DUP2 DUP2 LT PUSH2 0x1495 JUMPI POP POP POP POP POP SUB PUSH2 0x143F JUMPI PUSH8 0xDE0B6B3A7640000 PUSH1 0x44 CALLDATALOAD MUL SWAP1 PUSH1 0x44 CALLDATALOAD DUP3 DIV PUSH8 0xDE0B6B3A7640000 EQ PUSH1 0x44 CALLDATALOAD ISZERO OR ISZERO PUSH2 0x142B JUMPI PUSH2 0xD3C PUSH2 0x4B0 DUP4 DIV DUP5 PUSH2 0x237D JUMP JUMPDEST PUSH2 0x4B0 DUP4 DIV PUSH8 0xDE0B6B3A7640000 ADD PUSH8 0xDE0B6B3A7640000 GT PUSH2 0x11CD JUMPI PUSH2 0x4B0 DUP4 DIV PUSH8 0xDE0B6B3A7640000 ADD ISZERO PUSH2 0x1417 JUMPI PUSH2 0xD91 PUSH1 0x24 CALLDATALOAD PUSH2 0x4B0 DUP6 DIV PUSH8 0xDE0B6B3A7640000 ADD PUSH8 0xDE0B6B3A7640000 DIV PUSH2 0x24CE JUMP JUMPDEST PUSH8 0xDE0B6B3A7640000 SUB SWAP1 PUSH8 0xDE0B6B3A7640000 DUP3 GT PUSH2 0x11B9 JUMPI PUSH1 0x6 SWAP2 PUSH2 0xDB7 SWAP2 PUSH2 0x23A6 JUMP JUMPDEST SWAP2 ADD SSTORE DUP3 DUP5 MSTORE PUSH1 0x5 PUSH1 0x20 MSTORE PUSH1 0x40 DUP5 KECCAK256 SWAP2 PUSH8 0xDE0B6B3A7640000 DUP2 DUP7 JUMPDEST PUSH1 0x24 CALLDATALOAD DUP2 LT PUSH2 0x13ED JUMPI POP DUP2 PUSH2 0xDF0 PUSH2 0xDF5 SWAP3 PUSH2 0x4B0 DUP8 DIV SWAP1 PUSH2 0x237D JUMP JUMPDEST PUSH2 0x237D JUMP JUMPDEST SWAP1 DUP1 PUSH8 0xDE0B6B3A763FFFF NOT DUP2 ADD GT PUSH2 0x11B9 JUMPI PUSH8 0xDE0B6B3A7640000 SWAP2 PUSH2 0xE27 SWAP2 PUSH8 0xDE0B6B3A763FFFF NOT ADD SWAP1 PUSH2 0x23A6 JUMP JUMPDEST DIV DUP1 PUSH1 0x6 DUP6 ADD SSTORE DUP6 SWAP2 JUMPDEST PUSH1 0x24 CALLDATALOAD DUP4 LT PUSH2 0x127D JUMPI DUP7 DUP7 PUSH1 0x7 SLOAD PUSH1 0x1 PUSH1 0x40 SHL DUP2 LT ISZERO PUSH2 0x1269 JUMPI DUP1 PUSH1 0x1 PUSH2 0xE5B SWAP3 ADD PUSH1 0x7 SSTORE PUSH2 0x217D JUMP JUMPDEST DUP2 SLOAD PUSH1 0x0 NOT PUSH1 0x3 SWAP3 SWAP1 SWAP3 SHL SWAP2 DUP3 SHL NOT AND SWAP1 DUP4 SWAP1 SHL OR SWAP1 SSTORE CALLER DUP3 MSTORE PUSH1 0x6 PUSH1 0x20 SWAP1 DUP2 MSTORE PUSH1 0x40 DUP1 DUP5 KECCAK256 DUP1 SLOAD PUSH1 0xFF NOT AND PUSH1 0x1 SWAP1 DUP2 OR SWAP1 SWAP2 SSTORE DUP4 DUP6 MSTORE PUSH1 0x5 DUP4 MSTORE DUP2 DUP6 KECCAK256 PUSH1 0xA DUP2 ADD SLOAD PUSH1 0x9 SLOAD SWAP3 SLOAD SWAP4 MLOAD PUSH4 0x95EA7B3 PUSH1 0xE0 SHL DUP2 MSTORE PUSH1 0x1 PUSH1 0x1 PUSH1 0xA0 SHL SUB SWAP5 DUP6 AND PUSH1 0x4 DUP3 ADD MSTORE PUSH1 0x24 DUP2 ADD DUP3 SWAP1 MSTORE SWAP2 SWAP5 SWAP1 SWAP4 SWAP2 SWAP3 SWAP1 SWAP2 DUP4 SWAP2 PUSH1 0x44 SWAP2 DUP4 SWAP2 DUP11 SWAP2 AND GAS CALL DUP1 ISZERO PUSH2 0x9B9 JUMPI PUSH2 0x124A JUMPI JUMPDEST POP PUSH1 0x40 MLOAD PUSH2 0xEF2 DUP2 PUSH2 0x21FC JUMP JUMPDEST PUSH1 0x2 DUP2 MSTORE PUSH1 0x40 CALLDATASIZE PUSH1 0x20 DUP4 ADD CALLDATACOPY PUSH1 0x9 SLOAD PUSH1 0x1 PUSH1 0x1 PUSH1 0xA0 SHL SUB AND PUSH2 0xF13 DUP3 PUSH2 0x234C JUMP JUMPDEST MSTORE PUSH1 0x2 SLOAD PUSH1 0x1 PUSH1 0x1 PUSH1 0xA0 SHL SUB AND PUSH2 0xF29 DUP3 PUSH2 0x2359 JUMP JUMPDEST MSTORE PUSH1 0x3 SLOAD PUSH1 0x40 MLOAD PUSH4 0x3FABE5A3 PUSH1 0xE2 SHL DUP2 MSTORE SWAP1 PUSH1 0xA0 SWAP1 DUP3 SWAP1 PUSH1 0x4 SWAP1 DUP3 SWAP1 PUSH1 0x1 PUSH1 0x1 PUSH1 0xA0 SHL SUB AND GAS STATICCALL SWAP1 DUP2 ISZERO PUSH2 0x1162 JUMPI DUP7 SWAP2 PUSH2 0x1216 JUMPI JUMPDEST POP DUP6 DUP2 SGT ISZERO PUSH2 0x11E1 JUMPI PUSH4 0x5F5E100 DUP1 DUP5 MUL SWAP1 DUP5 DUP3 DIV EQ DUP5 ISZERO OR ISZERO PUSH2 0x11B9 JUMPI SWAP1 PUSH2 0xF86 SWAP2 PUSH2 0x23A6 JUMP JUMPDEST DUP1 PUSH1 0x62 DUP2 MUL DIV PUSH1 0x62 EQ DUP2 ISZERO OR ISZERO PUSH2 0x11CD JUMPI PUSH1 0x1 SLOAD PUSH1 0x1 PUSH1 0x1 PUSH1 0xA0 SHL SUB AND SWAP2 TIMESTAMP PUSH2 0x12C DUP2 ADD LT PUSH2 0x11B9 JUMPI SWAP2 PUSH2 0xFE4 SWAP4 SWAP2 DUP8 DUP1 SWAP5 PUSH1 0x40 MLOAD SWAP7 DUP8 SWAP6 DUP7 SWAP5 DUP6 SWAP4 PUSH4 0x38ED1739 PUSH1 0xE0 SHL DUP6 MSTORE PUSH2 0x12C TIMESTAMP ADD SWAP3 PUSH1 0x64 PUSH1 0x62 ADDRESS SWAP5 MUL DIV SWAP1 PUSH1 0x4 DUP8 ADD PUSH2 0x244D JUMP JUMPDEST SUB SWAP3 GAS CALL DUP1 ISZERO PUSH2 0x11AE JUMPI PUSH2 0xFFF SWAP2 DUP6 SWAP2 PUSH2 0x118C JUMPI JUMPDEST POP PUSH2 0x2359 JUMP JUMPDEST MLOAD DUP3 DUP5 MSTORE PUSH1 0x5 PUSH1 0x20 SWAP1 DUP2 MSTORE PUSH1 0x40 DUP1 DUP7 KECCAK256 PUSH1 0x2 SLOAD DUP8 SLOAD SWAP3 MLOAD PUSH4 0x95EA7B3 PUSH1 0xE0 SHL DUP2 MSTORE PUSH1 0x1 PUSH1 0x1 PUSH1 0xA0 SHL SUB SWAP4 DUP5 AND PUSH1 0x4 DUP3 ADD MSTORE PUSH1 0x24 DUP2 ADD DUP7 SWAP1 MSTORE SWAP2 SWAP4 SWAP2 SWAP3 DUP4 SWAP2 PUSH1 0x44 SWAP2 DUP4 SWAP2 DUP12 SWAP2 AND GAS CALL DUP1 ISZERO PUSH2 0x1162 JUMPI PUSH2 0x116D JUMPI JUMPDEST POP DUP5 SLOAD PUSH1 0x2 SLOAD DUP7 SWAP2 PUSH1 0x1 PUSH1 0x1 PUSH1 0xA0 SHL SUB SWAP2 DUP3 AND SWAP2 AND DUP1 EXTCODESIZE ISZERO PUSH2 0x633 JUMPI PUSH1 0x84 DUP4 SWAP3 PUSH1 0x40 MLOAD SWAP5 DUP6 SWAP4 DUP5 SWAP3 PUSH4 0x617BA037 PUSH1 0xE0 SHL DUP5 MSTORE PUSH1 0x4 DUP5 ADD MSTORE DUP9 PUSH1 0x24 DUP5 ADD MSTORE ADDRESS PUSH1 0x44 DUP5 ADD MSTORE DUP2 PUSH1 0x64 DUP5 ADD MSTORE GAS CALL DUP1 ISZERO PUSH2 0x1162 JUMPI PUSH2 0x1131 JUMPI JUMPDEST POP PUSH1 0x80 SWAP3 PUSH32 0xAEEC09AF87559B9077DA2E499D1FAD2E228D7C24CB4B566FE61976820ABAADDA PUSH1 0x60 DUP5 PUSH1 0x2 DUP6 PUSH32 0x65410888FB30EDD04F6ACFB2F6CFD92AAF0EBB9B5303B6286D65D0B031B5B7F7 SWAP10 SWAP8 PUSH1 0xD PUSH1 0x3 SWAP9 ADD SSTORE ADD SLOAD SWAP1 PUSH1 0x40 MLOAD SWAP2 DUP8 DUP4 MSTORE PUSH1 0x20 DUP4 ADD MSTORE PUSH1 0x40 DUP3 ADD MSTORE LOG1 ADD SLOAD PUSH1 0x40 MLOAD SWAP2 DUP3 MSTORE PUSH1 0x4 CALLDATALOAD PUSH1 0x20 DUP4 ADD MSTORE PUSH1 0x40 DUP3 ADD MSTORE CALLER PUSH1 0x60 DUP3 ADD MSTORE LOG1 DUP1 RETURN JUMPDEST PUSH8 0xFFFFFFFFFFFFFFFF DUP2 SWAP7 SWAP3 SWAP7 GT PUSH2 0x114E JUMPI PUSH1 0x40 MSTORE SWAP4 PUSH1 0x80 PUSH2 0x10A8 JUMP JUMPDEST PUSH4 0x4E487B71 PUSH1 0xE0 SHL DUP3 MSTORE PUSH1 0x41 PUSH1 0x4 MSTORE PUSH1 0x24 DUP3 REVERT JUMPDEST PUSH1 0x40 MLOAD RETURNDATASIZE DUP9 DUP3 RETURNDATACOPY RETURNDATASIZE SWAP1 REVERT JUMPDEST PUSH2 0x1185 SWAP1 PUSH1 0x20 RETURNDATASIZE PUSH1 0x20 GT PUSH2 0x86F JUMPI PUSH2 0x860 DUP2 DUP4 PUSH2 0x2218 JUMP JUMPDEST POP DUP6 PUSH2 0x1052 JUMP JUMPDEST PUSH2 0x11A8 SWAP2 POP RETURNDATASIZE DUP1 DUP8 DUP4 RETURNDATACOPY PUSH2 0x11A0 DUP2 DUP4 PUSH2 0x2218 JUMP JUMPDEST DUP2 ADD SWAP1 PUSH2 0x23D3 JUMP JUMPDEST DUP6 PUSH2 0xFF9 JUMP JUMPDEST PUSH1 0x40 MLOAD RETURNDATASIZE DUP7 DUP3 RETURNDATACOPY RETURNDATASIZE SWAP1 REVERT JUMPDEST PUSH4 0x4E487B71 PUSH1 0xE0 SHL DUP8 MSTORE PUSH1 0x11 PUSH1 0x4 MSTORE PUSH1 0x24 DUP8 REVERT JUMPDEST PUSH4 0x4E487B71 PUSH1 0xE0 SHL DUP7 MSTORE PUSH1 0x11 PUSH1 0x4 MSTORE PUSH1 0x24 DUP7 REVERT JUMPDEST PUSH1 0x40 MLOAD PUSH3 0x461BCD PUSH1 0xE5 SHL DUP2 MSTORE PUSH1 0x20 PUSH1 0x4 DUP3 ADD MSTORE PUSH1 0xD PUSH1 0x24 DUP3 ADD MSTORE PUSH13 0x496E76616C6964207072696365 PUSH1 0x98 SHL PUSH1 0x44 DUP3 ADD MSTORE PUSH1 0x64 SWAP1 REVERT JUMPDEST PUSH2 0x1238 SWAP2 POP PUSH1 0xA0 RETURNDATASIZE PUSH1 0xA0 GT PUSH2 0x1243 JUMPI JUMPDEST PUSH2 0x1230 DUP2 DUP4 PUSH2 0x2218 JUMP JUMPDEST DUP2 ADD SWAP1 PUSH2 0x2251 JUMP JUMPDEST POP POP POP SWAP1 POP DUP7 PUSH2 0xF5E JUMP JUMPDEST POP RETURNDATASIZE PUSH2 0x1226 JUMP JUMPDEST PUSH2 0x1262 SWAP1 PUSH1 0x20 RETURNDATASIZE PUSH1 0x20 GT PUSH2 0x86F JUMPI PUSH2 0x860 DUP2 DUP4 PUSH2 0x2218 JUMP JUMPDEST POP DUP5 PUSH2 0xEE5 JUMP JUMPDEST PUSH4 0x4E487B71 PUSH1 0xE0 SHL DUP4 MSTORE PUSH1 0x41 PUSH1 0x4 MSTORE PUSH1 0x24 DUP4 REVERT JUMPDEST PUSH8 0xDE0B6B3A7640000 PUSH2 0x1294 PUSH2 0x4B0 DUP7 DIV DUP4 PUSH2 0x237D JUMP JUMPDEST DIV SWAP1 DUP2 DUP4 GT ISZERO PUSH2 0x13E7 JUMPI PUSH2 0x12A8 DUP3 DUP5 PUSH2 0x2486 JUMP JUMPDEST SWAP2 PUSH1 0x24 CALLDATALOAD PUSH1 0x0 NOT DUP2 ADD GT PUSH2 0x13D3 JUMPI PUSH1 0x24 CALLDATALOAD PUSH1 0x0 NOT ADD DUP6 EQ PUSH2 0x13BE JUMPI JUMPDEST PUSH3 0x278D00 DUP6 DUP2 DUP2 MUL DIV DUP2 EQ DUP7 ISZERO OR ISZERO PUSH2 0x13AA JUMPI PUSH2 0x12E3 SWAP1 DUP7 MUL TIMESTAMP PUSH2 0x23C6 JUMP JUMPDEST PUSH1 0x40 MLOAD SWAP2 PUSH2 0x12F0 DUP4 PUSH2 0x21CA JUMP JUMPDEST DUP5 DUP4 MSTORE PUSH1 0x20 DUP4 ADD MSTORE DUP10 PUSH1 0x40 DUP4 ADD MSTORE PUSH1 0x60 DUP3 ADD MSTORE PUSH1 0xC DUP8 ADD SLOAD PUSH1 0x1 PUSH1 0x40 SHL DUP2 LT ISZERO PUSH2 0x1396 JUMPI DUP1 PUSH1 0x1 PUSH2 0x132A SWAP3 ADD PUSH1 0xC DUP11 ADD SSTORE PUSH1 0xC DUP10 ADD PUSH2 0x2575 JUMP JUMPDEST SWAP2 SWAP1 SWAP2 PUSH2 0x1382 JUMPI SWAP2 PUSH2 0x137C SWAP4 SWAP2 PUSH1 0x3 PUSH1 0x60 DUP6 PUSH2 0x1376 SWAP7 MLOAD DUP5 SSTORE PUSH1 0x20 DUP2 ADD MLOAD PUSH1 0x1 DUP6 ADD SSTORE PUSH2 0x136C PUSH1 0x40 DUP3 ADD MLOAD ISZERO ISZERO PUSH1 0x2 DUP7 ADD SWAP1 PUSH1 0xFF DUP1 NOT DUP4 SLOAD AND SWAP2 ISZERO ISZERO AND OR SWAP1 SSTORE JUMP JUMPDEST ADD MLOAD SWAP2 ADD SSTORE PUSH2 0x2486 JUMP JUMPDEST SWAP3 PUSH2 0x2493 JUMP JUMPDEST SWAP2 PUSH2 0xE31 JUMP JUMPDEST PUSH4 0x4E487B71 PUSH1 0xE0 SHL DUP11 MSTORE PUSH1 0x4 DUP11 SWAP1 MSTORE PUSH1 0x24 DUP11 REVERT JUMPDEST PUSH4 0x4E487B71 PUSH1 0xE0 SHL DUP11 MSTORE PUSH1 0x41 PUSH1 0x4 MSTORE PUSH1 0x24 DUP11 REVERT JUMPDEST PUSH4 0x4E487B71 PUSH1 0xE0 SHL DUP11 MSTORE PUSH1 0x11 PUSH1 0x4 MSTORE PUSH1 0x24 DUP11 REVERT JUMPDEST SWAP3 POP SWAP1 POP DUP1 PUSH2 0x13CD DUP4 DUP3 PUSH2 0x23C6 JUMP JUMPDEST SWAP3 PUSH2 0x12C4 JUMP JUMPDEST PUSH4 0x4E487B71 PUSH1 0xE0 SHL DUP10 MSTORE PUSH1 0x11 PUSH1 0x4 MSTORE PUSH1 0x24 DUP10 REVERT JUMPDEST DUP8 PUSH2 0x12A8 JUMP JUMPDEST SWAP2 PUSH8 0xDE0B6B3A7640000 PUSH2 0x140B PUSH2 0x1412 SWAP3 PUSH2 0x4B0 DUP9 DIV DUP4 ADD SWAP1 PUSH2 0x237D JUMP JUMPDEST DIV SWAP3 PUSH2 0x2493 JUMP JUMPDEST PUSH2 0xDD3 JUMP JUMPDEST PUSH4 0x4E487B71 PUSH1 0xE0 SHL DUP7 MSTORE PUSH1 0x12 PUSH1 0x4 MSTORE PUSH1 0x24 DUP7 REVERT JUMPDEST PUSH4 0x4E487B71 PUSH1 0xE0 SHL DUP6 MSTORE PUSH1 0x11 PUSH1 0x4 MSTORE PUSH1 0x24 DUP6 REVERT JUMPDEST PUSH1 0x40 MLOAD PUSH3 0x461BCD PUSH1 0xE5 SHL DUP2 MSTORE PUSH1 0x20 PUSH1 0x4 DUP3 ADD MSTORE PUSH1 0x28 PUSH1 0x24 DUP3 ADD MSTORE PUSH32 0x436F6C6C656374656420616D6F756E7420646F65736E2774206D617463682070 PUSH1 0x44 DUP3 ADD MSTORE PUSH8 0x1C9A5B98DA5C185B PUSH1 0xC2 SHL PUSH1 0x64 DUP3 ADD MSTORE PUSH1 0x84 SWAP1 REVERT JUMPDEST SWAP1 SWAP2 SWAP3 SWAP4 SWAP5 SWAP6 POP PUSH2 0x14A7 DUP2 DUP4 DUP7 PUSH2 0x24A2 JUMP JUMPDEST CALLDATALOAD PUSH1 0x1 PUSH1 0x1 PUSH1 0xA0 SHL SUB DUP2 AND DUP2 SUB PUSH2 0x16D2 JUMPI PUSH2 0x14C3 DUP3 DUP6 DUP9 PUSH2 0x24A2 JUMP JUMPDEST CALLDATALOAD SWAP7 DUP8 ISZERO PUSH2 0x1695 JUMPI DUP12 SWAP1 PUSH1 0x20 PUSH2 0x1519 PUSH1 0x1 DUP1 PUSH1 0xA0 SHL SUB PUSH1 0x9 SLOAD AND DUP12 PUSH1 0x40 MLOAD SWAP6 DUP7 DUP1 SWAP5 DUP2 SWAP4 PUSH4 0x23B872DD PUSH1 0xE0 SHL DUP4 MSTORE ADDRESS DUP12 PUSH1 0x4 DUP6 ADD PUSH1 0x40 SWAP2 SWAP5 SWAP4 SWAP3 SWAP5 PUSH1 0x60 DUP3 ADD SWAP6 PUSH1 0x1 DUP1 PUSH1 0xA0 SHL SUB DUP1 SWAP3 AND DUP4 MSTORE AND PUSH1 0x20 DUP3 ADD MSTORE ADD MSTORE JUMP JUMPDEST SUB SWAP3 GAS CALL SWAP1 DUP2 ISZERO PUSH2 0x876 JUMPI PUSH2 0x1535 SWAP3 DUP11 SWAP3 PUSH2 0x1676 JUMPI JUMPDEST POP PUSH2 0x23C6 JUMP JUMPDEST SWAP7 PUSH1 0x1 DUP1 PUSH1 0xA0 SHL SUB DUP3 AND DUP13 MSTORE PUSH1 0x4 PUSH1 0x20 MSTORE PUSH1 0x40 DUP13 KECCAK256 PUSH2 0x1555 DUP3 DUP3 SLOAD PUSH2 0x23C6 JUMP JUMPDEST SWAP1 SSTORE PUSH2 0x4B0 PUSH2 0x156C PUSH1 0x24 CALLDATALOAD PUSH2 0xDF0 PUSH1 0x44 CALLDATALOAD DUP6 PUSH2 0x237D JUMP JUMPDEST DIV SWAP1 PUSH1 0x40 MLOAD SWAP3 DUP4 PUSH1 0xA0 DUP2 ADD LT PUSH8 0xFFFFFFFFFFFFFFFF PUSH1 0xA0 DUP7 ADD GT OR PUSH2 0x1662 JUMPI PUSH1 0xA0 DUP5 ADD PUSH1 0x40 MSTORE PUSH1 0x1 DUP1 PUSH1 0xA0 SHL SUB AND DUP4 MSTORE PUSH1 0x20 DUP4 ADD MSTORE PUSH1 0x40 DUP3 ADD MSTORE DUP11 PUSH1 0x60 DUP3 ADD MSTORE DUP11 PUSH1 0x80 DUP3 ADD MSTORE PUSH1 0xB DUP9 ADD SLOAD PUSH1 0x1 PUSH1 0x40 SHL DUP2 LT ISZERO PUSH2 0x164E JUMPI DUP1 PUSH1 0x1 PUSH2 0x15D9 SWAP3 ADD PUSH1 0xB DUP12 ADD SSTORE PUSH1 0xB DUP11 ADD PUSH2 0x24B2 JUMP JUMPDEST SWAP2 SWAP1 SWAP2 PUSH2 0x163A JUMPI DUP1 MLOAD DUP3 SLOAD PUSH1 0x1 PUSH1 0x1 PUSH1 0xA0 SHL SUB NOT AND PUSH1 0x1 PUSH1 0x1 PUSH1 0xA0 SHL SUB SWAP2 SWAP1 SWAP2 AND OR DUP3 SSTORE PUSH1 0x20 DUP2 ADD MLOAD PUSH1 0x1 DUP4 ADD SSTORE PUSH1 0x40 DUP2 ADD MLOAD PUSH1 0x2 DUP4 ADD SSTORE PUSH1 0x60 DUP2 ADD MLOAD PUSH1 0x3 DUP4 ADD SSTORE PUSH1 0x80 ADD MLOAD PUSH1 0x4 SWAP1 SWAP2 ADD SSTORE PUSH2 0x162E SWAP1 PUSH2 0x2493 JUMP JUMPDEST SWAP1 DUP8 SWAP6 SWAP5 SWAP4 SWAP3 SWAP2 PUSH2 0xCF6 JUMP JUMPDEST PUSH4 0x4E487B71 PUSH1 0xE0 SHL DUP13 MSTORE PUSH1 0x4 DUP13 SWAP1 MSTORE PUSH1 0x24 DUP13 REVERT JUMPDEST PUSH4 0x4E487B71 PUSH1 0xE0 SHL DUP13 MSTORE PUSH1 0x41 PUSH1 0x4 MSTORE PUSH1 0x24 DUP13 REVERT JUMPDEST PUSH4 0x4E487B71 PUSH1 0xE0 SHL DUP15 MSTORE PUSH1 0x41 PUSH1 0x4 MSTORE PUSH1 0x24 DUP15 REVERT JUMPDEST PUSH2 0x168E SWAP1 PUSH1 0x20 RETURNDATASIZE PUSH1 0x20 GT PUSH2 0x86F JUMPI PUSH2 0x860 DUP2 DUP4 PUSH2 0x2218 JUMP JUMPDEST POP CODESIZE PUSH2 0x152F JUMP JUMPDEST PUSH1 0x40 MLOAD PUSH3 0x461BCD PUSH1 0xE5 SHL DUP2 MSTORE PUSH1 0x20 PUSH1 0x4 DUP3 ADD MSTORE PUSH1 0x15 PUSH1 0x24 DUP3 ADD MSTORE PUSH21 0x125B9D985B1A59081B195B99195C88185B5BDD5B9D PUSH1 0x5A SHL PUSH1 0x44 DUP3 ADD MSTORE PUSH1 0x64 SWAP1 REVERT JUMPDEST DUP11 DUP1 REVERT JUMPDEST PUSH2 0x16EE SWAP1 PUSH1 0x20 RETURNDATASIZE PUSH1 0x20 GT PUSH2 0x86F JUMPI PUSH2 0x860 DUP2 DUP4 PUSH2 0x2218 JUMP JUMPDEST POP CODESIZE PUSH2 0xC48 JUMP JUMPDEST PUSH1 0x40 MLOAD RETURNDATASIZE DUP11 DUP3 RETURNDATACOPY RETURNDATASIZE SWAP1 REVERT JUMPDEST PUSH1 0x40 MLOAD PUSH3 0x461BCD PUSH1 0xE5 SHL DUP2 MSTORE PUSH1 0x20 PUSH1 0x4 DUP3 ADD MSTORE PUSH1 0x13 PUSH1 0x24 DUP3 ADD MSTORE PUSH19 0x139BC81B195B99195C9CC81C1C9BDD9A591959 PUSH1 0x6A SHL PUSH1 0x44 DUP3 ADD MSTORE PUSH1 0x64 SWAP1 REVERT JUMPDEST PUSH1 0x40 MLOAD PUSH3 0x461BCD PUSH1 0xE5 SHL DUP2 MSTORE PUSH1 0x20 PUSH1 0x4 DUP3 ADD MSTORE PUSH1 0x2C PUSH1 0x24 DUP3 ADD MSTORE PUSH32 0x4C656E6465722061646472657373657320616E6420616D6F756E7473206C656E PUSH1 0x44 DUP3 ADD MSTORE PUSH12 0xCEE8D040DAD2E6DAC2E8C6D PUSH1 0xA3 SHL PUSH1 0x64 DUP3 ADD MSTORE PUSH1 0x84 SWAP1 REVERT JUMPDEST PUSH1 0x40 MLOAD PUSH3 0x461BCD PUSH1 0xE5 SHL DUP2 MSTORE PUSH1 0x20 PUSH1 0x4 DUP3 ADD MSTORE PUSH1 0x23 PUSH1 0x24 DUP3 ADD MSTORE PUSH32 0x426F72726F77657220616C72656164792068617320616E20616374697665206C PUSH1 0x44 DUP3 ADD MSTORE PUSH3 0x37B0B7 PUSH1 0xE9 SHL PUSH1 0x64 DUP3 ADD MSTORE PUSH1 0x84 SWAP1 REVERT JUMPDEST PUSH1 0x40 MLOAD PUSH3 0x461BCD PUSH1 0xE5 SHL DUP2 MSTORE PUSH1 0x20 PUSH1 0x4 DUP3 ADD MSTORE PUSH1 0x10 PUSH1 0x24 DUP3 ADD MSTORE PUSH16 0x24B73B30B634B210323AB930BA34B7B7 PUSH1 0x81 SHL PUSH1 0x44 DUP3 ADD MSTORE PUSH1 0x64 SWAP1 REVERT JUMPDEST PUSH1 0x40 MLOAD PUSH3 0x461BCD PUSH1 0xE5 SHL DUP2 MSTORE PUSH1 0x20 PUSH1 0x4 DUP3 ADD MSTORE PUSH1 0xE PUSH1 0x24 DUP3 ADD MSTORE PUSH14 0x125B9D985B1A5908185B5BDD5B9D PUSH1 0x92 SHL PUSH1 0x44 DUP3 ADD MSTORE PUSH1 0x64 SWAP1 REVERT JUMPDEST DUP4 DUP1 REVERT JUMPDEST POP CALLVALUE PUSH2 0x173 JUMPI PUSH1 0x40 PUSH2 0x1872 PUSH2 0x186C CALLDATASIZE PUSH2 0x20F4 JUMP JUMPDEST SWAP1 PUSH2 0x2F22 JUMP JUMPDEST DUP3 MLOAD SWAP2 DUP3 MSTORE PUSH1 0x20 DUP3 ADD MSTORE RETURN JUMPDEST POP CALLVALUE PUSH2 0x173 JUMPI PUSH1 0x20 CALLDATASIZE PUSH1 0x3 NOT ADD SLT PUSH2 0x173 JUMPI PUSH1 0x4 CALLDATALOAD PUSH1 0x1 PUSH1 0x1 PUSH1 0xA0 SHL SUB DUP2 DUP2 AND SWAP2 DUP3 SWAP1 SUB PUSH2 0x633 JUMPI PUSH2 0x18B5 SWAP1 PUSH1 0x8 SLOAD AND CALLER EQ PUSH2 0x2591 JUMP JUMPDEST PUSH1 0x1 PUSH1 0x1 PUSH1 0x60 SHL SUB PUSH1 0xA0 SHL PUSH1 0x1 SLOAD AND OR PUSH1 0x1 SSTORE DUP1 RETURN JUMPDEST POP CALLVALUE PUSH2 0x173 JUMPI PUSH1 0x20 CALLDATASIZE PUSH1 0x3 NOT ADD SLT PUSH2 0x173 JUMPI PUSH1 0x4 CALLDATALOAD PUSH1 0x1 PUSH1 0x1 PUSH1 0xA0 SHL SUB DUP2 DUP2 AND SWAP2 DUP3 SWAP1 SUB PUSH2 0x633 JUMPI PUSH2 0x1902 SWAP1 PUSH1 0x8 SLOAD AND CALLER EQ PUSH2 0x2591 JUMP JUMPDEST DUP2 SLOAD PUSH1 0x1 PUSH1 0x1 PUSH1 0xA0 SHL SUB NOT AND OR DUP2 SSTORE DUP1 RETURN JUMPDEST POP CALLVALUE PUSH2 0x173 JUMPI PUSH1 0x20 CALLDATASIZE PUSH1 0x3 NOT ADD SLT PUSH2 0x173 JUMPI PUSH1 0xD PUSH1 0x40 PUSH1 0x20 SWAP3 PUSH1 0x4 CALLDATALOAD DUP2 MSTORE PUSH1 0x5 DUP5 MSTORE KECCAK256 ADD SLOAD PUSH1 0x40 MLOAD SWAP1 DUP2 MSTORE RETURN JUMPDEST POP CALLVALUE PUSH2 0x173 JUMPI PUSH1 0x20 CALLDATASIZE PUSH1 0x3 NOT ADD SLT PUSH2 0x173 JUMPI PUSH1 0x4 CALLDATALOAD PUSH1 0x1 PUSH1 0x1 PUSH1 0xA0 SHL SUB DUP2 AND SWAP1 DUP2 SWAP1 SUB PUSH2 0x5E2 JUMPI DUP2 PUSH1 0x40 SWAP2 PUSH1 0x20 SWAP4 MSTORE PUSH1 0x4 DUP4 MSTORE KECCAK256 SLOAD PUSH1 0x40 MLOAD SWAP1 DUP2 MSTORE RETURN JUMPDEST POP CALLVALUE PUSH2 0x173 JUMPI PUSH1 0x20 DUP1 PUSH1 0x3 NOT CALLDATASIZE ADD SLT PUSH2 0x5E2 JUMPI PUSH1 0x4 CALLDATALOAD PUSH1 0x1 DUP1 PUSH1 0xA0 SHL SUB PUSH2 0x19AA DUP2 PUSH1 0x8 SLOAD AND CALLER EQ PUSH2 0x2591 JUMP JUMPDEST DUP2 DUP5 MSTORE PUSH1 0x5 DUP4 MSTORE PUSH1 0x40 DUP5 KECCAK256 SWAP3 PUSH1 0x9 SWAP1 DUP2 DUP6 ADD SWAP2 DUP3 SLOAD SWAP3 PUSH1 0xFF PUSH2 0x19CD DUP2 DUP7 AND PUSH2 0x25E7 JUMP JUMPDEST DUP9 SWAP1 DUP10 SWAP1 PUSH1 0xC DUP11 ADD DUP1 SLOAD SWAP3 JUMPDEST DUP4 DUP2 LT PUSH2 0x1C14 JUMPI POP POP POP POP PUSH3 0x76A700 LT ISZERO PUSH2 0x1BBA JUMPI PUSH1 0xFF NOT DUP1 SWAP5 AND SWAP1 SSTORE PUSH1 0x1 DUP1 DUP8 ADD SWAP4 DUP6 DUP6 SLOAD AND DUP10 MSTORE PUSH1 0x6 DUP5 MSTORE PUSH1 0x40 DUP10 KECCAK256 SWAP1 DUP2 SLOAD AND SWAP1 SSTORE PUSH1 0xD DUP8 ADD SLOAD DUP1 PUSH2 0x1BAA JUMPI JUMPDEST POP PUSH1 0x3 DUP1 DUP9 ADD SLOAD PUSH1 0xE DUP10 ADD SLOAD SWAP2 DUP3 PUSH2 0x1A8F JUMPI JUMPDEST DUP11 PUSH32 0xCAB88A55906C5830A49DDDD8B31D115294A5E6C4210F25FE140530A39C51DC74 DUP11 DUP11 DUP11 SLOAD AND SWAP1 PUSH2 0x1A89 PUSH2 0x1A61 PUSH2 0x2286 JUMP JUMPDEST PUSH1 0x40 DUP1 MLOAD SWAP4 DUP5 MSTORE PUSH1 0x1 PUSH1 0x1 PUSH1 0xA0 SHL SUB SWAP1 SWAP5 AND PUSH1 0x20 DUP5 ADD MSTORE SWAP3 DUP3 ADD SWAP3 SWAP1 SWAP3 MSTORE SWAP1 DUP2 SWAP1 PUSH1 0x60 DUP3 ADD SWAP1 JUMP JUMPDEST SUB SWAP1 LOG1 DUP1 RETURN JUMPDEST SWAP1 SWAP2 SWAP3 DUP1 SWAP10 PUSH1 0xB DUP13 SWAP2 ADD SWAP2 JUMPDEST PUSH2 0x1AA6 JUMPI JUMPDEST POP PUSH2 0x1A2E JUMP JUMPDEST DUP2 SLOAD DUP2 LT ISZERO PUSH2 0x1BA5 JUMPI PUSH2 0x1AB9 DUP2 DUP4 PUSH2 0x24B2 JUMP JUMPDEST POP PUSH2 0x1ACB DUP13 DUP3 ADD SLOAD DUP6 DUP4 ADD SLOAD SWAP1 PUSH2 0x2486 JUMP JUMPDEST DUP13 DUP2 ISZERO PUSH2 0x1B94 JUMPI POP PUSH8 0xDE0B6B3A7640000 SWAP1 DUP2 DUP2 MUL SWAP1 DUP2 DIV DUP3 SUB PUSH2 0x1B80 JUMPI DUP8 SWAP7 SWAP6 SWAP5 SWAP4 SWAP3 DUP16 SWAP2 SWAP3 PUSH2 0x1B09 PUSH2 0x1B03 PUSH2 0x1B45 SWAP12 DUP15 SWAP7 PUSH2 0x23A6 JUMP JUMPDEST DUP10 PUSH2 0x237D JUMP JUMPDEST DIV SWAP2 DUP14 DUP1 DUP13 SLOAD AND SWAP3 SLOAD AND SWAP1 PUSH1 0x40 MLOAD DUP1 SWAP12 DUP2 SWAP6 DUP3 SWAP5 PUSH4 0xA9059CBB PUSH1 0xE0 SHL DUP5 MSTORE PUSH1 0x4 DUP5 ADD PUSH1 0x20 SWAP1 SWAP4 SWAP3 SWAP2 SWAP4 PUSH1 0x40 DUP2 ADD SWAP5 PUSH1 0x1 DUP1 PUSH1 0xA0 SHL SUB AND DUP2 MSTORE ADD MSTORE JUMP JUMPDEST SUB SWAP3 GAS CALL SWAP1 DUP2 ISZERO PUSH2 0x876 JUMPI DUP13 SWAP7 PUSH2 0x1B60 SWAP3 PUSH2 0x1B6A JUMPI POP PUSH2 0x2493 JUMP JUMPDEST SWAP1 SWAP2 SWAP3 SWAP4 SWAP5 PUSH2 0x1A9B JUMP JUMPDEST PUSH2 0x868 SWAP1 DUP11 RETURNDATASIZE DUP13 GT PUSH2 0x86F JUMPI PUSH2 0x860 DUP2 DUP4 PUSH2 0x2218 JUMP JUMPDEST PUSH4 0x4E487B71 PUSH1 0xE0 SHL DUP16 MSTORE PUSH1 0x11 PUSH1 0x4 MSTORE PUSH1 0x24 DUP16 REVERT JUMPDEST SWAP7 SWAP6 SWAP5 SWAP4 SWAP3 SWAP1 POP PUSH2 0x1B60 SWAP2 POP PUSH2 0x2493 JUMP JUMPDEST PUSH2 0x1AA0 JUMP JUMPDEST PUSH2 0x1BB4 SWAP1 DUP8 PUSH2 0x2AA0 JUMP JUMPDEST CODESIZE PUSH2 0x1A1B JUMP JUMPDEST PUSH1 0x40 MLOAD PUSH3 0x461BCD PUSH1 0xE5 SHL DUP2 MSTORE PUSH1 0x4 DUP2 ADD DUP5 SWAP1 MSTORE PUSH1 0x2C PUSH1 0x24 DUP3 ADD MSTORE PUSH32 0x4C6F616E206973206E6F74206F766572647565206265796F6E642033206D6F6E PUSH1 0x44 DUP3 ADD MSTORE PUSH12 0x1D1A1CC81A5B881D1BDD185B PUSH1 0xA2 SHL PUSH1 0x64 DUP3 ADD MSTORE PUSH1 0x84 SWAP1 REVERT JUMPDEST PUSH2 0x1C1E DUP2 DUP4 PUSH2 0x2575 JUMP JUMPDEST POP DUP4 PUSH1 0x2 DUP3 ADD SLOAD AND PUSH2 0x1C36 JUMPI PUSH1 0x3 ADD SLOAD DUP1 TIMESTAMP GT PUSH2 0x1C45 JUMPI JUMPDEST POP PUSH2 0x1C40 SWAP1 PUSH2 0x2493 JUMP JUMPDEST PUSH2 0x19D9 JUMP JUMPDEST PUSH2 0x1C40 SWAP2 SWAP6 PUSH2 0x1C57 PUSH2 0x1C5D SWAP3 TIMESTAMP PUSH2 0x2486 JUMP JUMPDEST SWAP1 PUSH2 0x23C6 JUMP JUMPDEST SWAP5 SWAP1 PUSH2 0x1C36 JUMP JUMPDEST POP CALLVALUE PUSH2 0x173 JUMPI PUSH1 0x20 CALLDATASIZE PUSH1 0x3 NOT ADD SLT PUSH2 0x173 JUMPI PUSH1 0x4 CALLDATALOAD PUSH1 0x1 PUSH1 0x1 PUSH1 0xA0 SHL SUB DUP2 AND SWAP1 DUP2 SWAP1 SUB PUSH2 0x5E2 JUMPI PUSH1 0x40 DUP3 PUSH1 0xFF SWAP3 PUSH1 0x20 SWAP5 MSTORE PUSH1 0x6 DUP5 MSTORE KECCAK256 SLOAD AND PUSH1 0x40 MLOAD SWAP1 ISZERO ISZERO DUP2 MSTORE RETURN JUMPDEST POP CALLVALUE PUSH2 0x173 JUMPI PUSH1 0x20 DUP1 PUSH1 0x3 NOT CALLDATASIZE ADD SLT PUSH2 0x5E2 JUMPI SWAP1 PUSH1 0x4 CALLDATALOAD DUP2 MSTORE PUSH1 0x5 DUP3 MSTORE PUSH1 0xC PUSH1 0x40 DUP3 KECCAK256 ADD DUP1 SLOAD SWAP2 PUSH2 0x1CD6 DUP4 PUSH2 0x231A JUMP JUMPDEST SWAP3 PUSH2 0x1CE0 DUP2 PUSH2 0x231A JUMP JUMPDEST PUSH2 0x1CE9 DUP3 PUSH2 0x2302 JUMP JUMPDEST SWAP2 PUSH2 0x1CF7 PUSH1 0x40 MLOAD SWAP4 DUP5 PUSH2 0x2218 JUMP JUMPDEST DUP1 DUP4 MSTORE PUSH2 0x1D03 DUP2 PUSH2 0x2302 JUMP JUMPDEST DUP4 DUP9 ADD SWAP6 SWAP1 PUSH1 0x1F NOT ADD CALLDATASIZE DUP8 CALLDATACOPY DUP5 JUMPDEST DUP3 DUP2 LT PUSH2 0x1D7F JUMPI POP POP POP SWAP5 DUP1 PUSH2 0x1D45 PUSH2 0x1D38 SWAP8 PUSH1 0x40 MLOAD SWAP9 DUP10 SWAP9 PUSH1 0x60 DUP11 MSTORE PUSH1 0x60 DUP11 ADD SWAP1 PUSH2 0x20C0 JUMP JUMPDEST SWAP1 DUP9 DUP3 SUB DUP5 DUP11 ADD MSTORE PUSH2 0x20C0 JUMP JUMPDEST SWAP3 DUP7 DUP5 SUB PUSH1 0x40 DUP9 ADD MSTORE MLOAD SWAP3 DUP4 DUP2 MSTORE ADD SWAP4 SWAP3 JUMPDEST DUP3 DUP2 LT PUSH2 0x1D66 JUMPI POP POP POP POP SUB SWAP1 RETURN JUMPDEST DUP4 MLOAD ISZERO ISZERO DUP6 MSTORE DUP7 SWAP6 POP SWAP4 DUP2 ADD SWAP4 SWAP3 DUP2 ADD SWAP3 PUSH1 0x1 ADD PUSH2 0x1D57 JUMP JUMPDEST DUP1 PUSH1 0xFF PUSH1 0x2 PUSH2 0x1D97 PUSH2 0x1DCC SWAP5 DUP7 SWAP14 SWAP11 SWAP10 SWAP12 SWAP13 SWAP14 PUSH2 0x2575 JUMP JUMPDEST POP DUP1 SLOAD PUSH2 0x1DA4 DUP6 DUP16 PUSH2 0x2369 JUMP JUMPDEST MSTORE PUSH1 0x1 DUP2 ADD SLOAD PUSH2 0x1DB4 DUP6 DUP11 PUSH2 0x2369 JUMP JUMPDEST MSTORE ADD SLOAD AND PUSH2 0x1DC2 DUP3 DUP11 PUSH2 0x2369 JUMP JUMPDEST SWAP1 ISZERO ISZERO SWAP1 MSTORE PUSH2 0x2493 JUMP JUMPDEST SWAP8 SWAP7 SWAP6 SWAP4 SWAP5 SWAP8 PUSH2 0x1D11 JUMP JUMPDEST POP CALLVALUE PUSH2 0x173 JUMPI DUP1 PUSH1 0x3 NOT CALLDATASIZE ADD SLT PUSH2 0x173 JUMPI PUSH1 0x9 SLOAD PUSH1 0x40 MLOAD PUSH1 0x1 PUSH1 0x1 PUSH1 0xA0 SHL SUB SWAP1 SWAP2 AND DUP2 MSTORE PUSH1 0x20 SWAP1 RETURN JUMPDEST POP CALLVALUE PUSH2 0x173 JUMPI DUP1 PUSH1 0x3 NOT CALLDATASIZE ADD SLT PUSH2 0x173 JUMPI PUSH1 0x2 SLOAD PUSH1 0x40 MLOAD PUSH1 0x1 PUSH1 0x1 PUSH1 0xA0 SHL SUB SWAP1 SWAP2 AND DUP2 MSTORE PUSH1 0x20 SWAP1 RETURN JUMPDEST POP CALLVALUE PUSH2 0x173 JUMPI PUSH1 0x20 CALLDATASIZE PUSH1 0x3 NOT ADD SLT PUSH2 0x173 JUMPI PUSH2 0x1E50 PUSH1 0x1 DUP1 PUSH1 0xA0 SHL SUB PUSH1 0x8 SLOAD AND CALLER EQ PUSH2 0x2591 JUMP JUMPDEST PUSH1 0x4 CALLDATALOAD DUP2 MSTORE PUSH1 0x5 PUSH1 0x20 MSTORE PUSH1 0x40 DUP2 KECCAK256 PUSH1 0x9 DUP2 ADD DUP1 SLOAD SWAP2 PUSH2 0x1E71 PUSH1 0xFF DUP5 AND PUSH2 0x25E7 JUMP JUMPDEST PUSH2 0x1E79 PUSH2 0x2286 JUMP JUMPDEST SWAP2 PUSH1 0xD DUP3 ADD PUSH4 0x5F5E100 PUSH2 0x1E8E DUP6 DUP4 SLOAD PUSH2 0x237D JUMP JUMPDEST DIV SWAP2 PUSH1 0xE DUP5 ADD SWAP3 DUP4 SLOAD PUSH1 0x69 DUP2 MUL SWAP1 DUP1 DUP3 DIV PUSH1 0x69 EQ SWAP1 ISZERO OR ISZERO PUSH2 0x13D3 JUMPI PUSH1 0x64 SWAP1 DIV LT PUSH2 0x205D JUMPI PUSH1 0xFF NOT SWAP6 DUP7 AND SWAP1 SSTORE PUSH1 0x1 DUP4 ADD DUP1 SLOAD PUSH1 0x1 PUSH1 0x1 PUSH1 0xA0 SHL SUB AND DUP8 MSTORE PUSH1 0x6 PUSH1 0x20 MSTORE PUSH1 0x40 DUP8 KECCAK256 DUP1 SLOAD SWAP1 SWAP7 AND SWAP1 SWAP6 SSTORE SLOAD DUP1 PUSH2 0x204B JUMPI JUMPDEST POP PUSH1 0x3 DUP3 ADD SLOAD SWAP1 SLOAD SWAP2 DUP3 PUSH2 0x1F43 JUMPI JUMPDEST POP POP SWAP2 SLOAD PUSH1 0x40 DUP1 MLOAD PUSH1 0x4 CALLDATALOAD DUP2 MSTORE PUSH1 0x1 PUSH1 0x1 PUSH1 0xA0 SHL SUB SWAP1 SWAP3 AND PUSH1 0x20 DUP4 ADD MSTORE DUP2 ADD SWAP2 SWAP1 SWAP2 MSTORE PUSH32 0xCAB88A55906C5830A49DDDD8B31D115294A5E6C4210F25FE140530A39C51DC74 SWAP2 POP DUP1 PUSH1 0x60 DUP2 ADD PUSH2 0x1A89 JUMP JUMPDEST SWAP1 SWAP2 SWAP3 DUP6 JUMPDEST PUSH1 0xB DUP4 ADD SLOAD DUP2 LT ISZERO PUSH2 0x201E JUMPI PUSH2 0x1F61 DUP2 PUSH1 0xB DUP6 ADD PUSH2 0x24B2 JUMP JUMPDEST POP PUSH2 0x1F75 PUSH1 0x1 DUP3 ADD SLOAD PUSH1 0x3 DUP4 ADD SLOAD SWAP1 PUSH2 0x2486 JUMP JUMPDEST DUP1 ISZERO PUSH2 0x2013 JUMPI DUP1 PUSH8 0xDE0B6B3A7640000 DUP2 MUL DIV PUSH8 0xDE0B6B3A7640000 SUB PUSH2 0x13D3 JUMPI PUSH2 0x1FF5 SWAP3 SWAP2 PUSH8 0xDE0B6B3A7640000 PUSH2 0x1FB5 PUSH2 0x1B03 DUP11 DUP4 PUSH1 0x20 SWAP7 MUL PUSH2 0x23A6 JUMP JUMPDEST PUSH1 0x9 SLOAD SWAP3 SLOAD PUSH1 0x40 MLOAD PUSH4 0xA9059CBB PUSH1 0xE0 SHL DUP2 MSTORE PUSH1 0x1 PUSH1 0x1 PUSH1 0xA0 SHL SUB SWAP2 DUP3 AND PUSH1 0x4 DUP3 ADD MSTORE SWAP3 SWAP1 SWAP2 DIV PUSH1 0x24 DUP4 ADD MSTORE SWAP1 SWAP5 DUP6 SWAP3 SWAP1 SWAP2 AND SWAP1 DUP3 SWAP1 DUP13 SWAP1 DUP3 SWAP1 PUSH1 0x44 DUP3 ADD SWAP1 JUMP JUMPDEST SUB SWAP3 GAS CALL SWAP2 DUP3 ISZERO PUSH2 0x16F5 JUMPI PUSH2 0x200E SWAP3 PUSH2 0x847 JUMPI POP PUSH2 0x2493 JUMP JUMPDEST PUSH2 0x1F48 JUMP JUMPDEST POP POP PUSH2 0x200E SWAP1 PUSH2 0x2493 JUMP JUMPDEST POP SWAP3 POP POP POP PUSH32 0xCAB88A55906C5830A49DDDD8B31D115294A5E6C4210F25FE140530A39C51DC74 CODESIZE DUP1 PUSH2 0x1EF3 JUMP JUMPDEST PUSH2 0x2057 SWAP1 PUSH1 0x4 CALLDATALOAD PUSH2 0x2AA0 JUMP JUMPDEST CODESIZE PUSH2 0x1EE4 JUMP JUMPDEST PUSH1 0x40 MLOAD PUSH3 0x461BCD PUSH1 0xE5 SHL DUP2 MSTORE PUSH1 0x20 PUSH1 0x4 DUP3 ADD MSTORE PUSH1 0x35 PUSH1 0x24 DUP3 ADD MSTORE PUSH32 0x4254432076616C756520686173206E6F742064726F707065642062656C6F7720 PUSH1 0x44 DUP3 ADD MSTORE PUSH21 0x1B1A5C5D5A59185D1A5BDB881D1A1C995CDA1BDB19 PUSH1 0x5A SHL PUSH1 0x64 DUP3 ADD MSTORE PUSH1 0x84 SWAP1 REVERT JUMPDEST SWAP1 DUP2 MLOAD DUP1 DUP3 MSTORE PUSH1 0x20 DUP1 DUP1 SWAP4 ADD SWAP4 ADD SWAP2 PUSH1 0x0 JUMPDEST DUP3 DUP2 LT PUSH2 0x20E0 JUMPI POP POP POP POP SWAP1 JUMP JUMPDEST DUP4 MLOAD DUP6 MSTORE SWAP4 DUP2 ADD SWAP4 SWAP3 DUP2 ADD SWAP3 PUSH1 0x1 ADD PUSH2 0x20D2 JUMP JUMPDEST PUSH1 0x40 SWAP1 PUSH1 0x3 NOT ADD SLT PUSH2 0x210A JUMPI PUSH1 0x4 CALLDATALOAD SWAP1 PUSH1 0x24 CALLDATALOAD SWAP1 JUMP JUMPDEST PUSH1 0x0 DUP1 REVERT JUMPDEST SWAP2 DUP2 PUSH1 0x1F DUP5 ADD SLT ISZERO PUSH2 0x210A JUMPI DUP3 CALLDATALOAD SWAP2 PUSH8 0xFFFFFFFFFFFFFFFF DUP4 GT PUSH2 0x210A JUMPI PUSH1 0x20 DUP1 DUP6 ADD SWAP5 DUP5 PUSH1 0x5 SHL ADD ADD GT PUSH2 0x210A JUMPI JUMP JUMPDEST SWAP1 DUP2 MLOAD DUP1 DUP3 MSTORE PUSH1 0x20 DUP1 DUP1 SWAP4 ADD SWAP4 ADD SWAP2 PUSH1 0x0 JUMPDEST DUP3 DUP2 LT PUSH2 0x2160 JUMPI POP POP POP POP SWAP1 JUMP JUMPDEST DUP4 MLOAD PUSH1 0x1 PUSH1 0x1 PUSH1 0xA0 SHL SUB AND DUP6 MSTORE SWAP4 DUP2 ADD SWAP4 SWAP3 DUP2 ADD SWAP3 PUSH1 0x1 ADD PUSH2 0x2152 JUMP JUMPDEST PUSH1 0x7 SLOAD DUP2 LT ISZERO PUSH2 0x21B4 JUMPI PUSH1 0x7 PUSH1 0x0 MSTORE PUSH32 0xA66CC928B5EDB82AF9BD49922954155AB7B0942694BEA4CE44661D9A8736C688 ADD SWAP1 PUSH1 0x0 SWAP1 JUMP JUMPDEST PUSH4 0x4E487B71 PUSH1 0xE0 SHL PUSH1 0x0 MSTORE PUSH1 0x32 PUSH1 0x4 MSTORE PUSH1 0x24 PUSH1 0x0 REVERT JUMPDEST PUSH1 0x80 DUP2 ADD SWAP1 DUP2 LT PUSH8 0xFFFFFFFFFFFFFFFF DUP3 GT OR PUSH2 0x21E6 JUMPI PUSH1 0x40 MSTORE JUMP JUMPDEST PUSH4 0x4E487B71 PUSH1 0xE0 SHL PUSH1 0x0 MSTORE PUSH1 0x41 PUSH1 0x4 MSTORE PUSH1 0x24 PUSH1 0x0 REVERT JUMPDEST PUSH1 0x60 DUP2 ADD SWAP1 DUP2 LT PUSH8 0xFFFFFFFFFFFFFFFF DUP3 GT OR PUSH2 0x21E6 JUMPI PUSH1 0x40 MSTORE JUMP JUMPDEST SWAP1 PUSH1 0x1F DUP1 NOT SWAP2 ADD AND DUP2 ADD SWAP1 DUP2 LT PUSH8 0xFFFFFFFFFFFFFFFF DUP3 GT OR PUSH2 0x21E6 JUMPI PUSH1 0x40 MSTORE JUMP JUMPDEST MLOAD SWAP1 PUSH10 0xFFFFFFFFFFFFFFFFFFFF DUP3 AND DUP3 SUB PUSH2 0x210A JUMPI JUMP JUMPDEST SWAP1 DUP2 PUSH1 0xA0 SWAP2 SUB SLT PUSH2 0x210A JUMPI PUSH2 0x2265 DUP2 PUSH2 0x223A JUMP JUMPDEST SWAP2 PUSH1 0x20 DUP3 ADD MLOAD SWAP2 PUSH1 0x40 DUP2 ADD MLOAD SWAP2 PUSH2 0x2283 PUSH1 0x80 PUSH1 0x60 DUP5 ADD MLOAD SWAP4 ADD PUSH2 0x223A JUMP JUMPDEST SWAP1 JUMP JUMPDEST PUSH1 0x3 SLOAD PUSH1 0x40 MLOAD PUSH4 0x3FABE5A3 PUSH1 0xE2 SHL DUP2 MSTORE SWAP1 PUSH1 0xA0 SWAP1 DUP3 SWAP1 PUSH1 0x4 SWAP1 DUP3 SWAP1 PUSH1 0x1 PUSH1 0x1 PUSH1 0xA0 SHL SUB AND GAS STATICCALL SWAP1 DUP2 ISZERO PUSH2 0x22DE JUMPI PUSH1 0x0 SWAP2 PUSH2 0x22BE JUMPI POP SWAP1 JUMP JUMPDEST PUSH2 0x22D6 SWAP2 POP PUSH1 0xA0 RETURNDATASIZE DUP2 GT PUSH2 0x1243 JUMPI PUSH2 0x1230 DUP2 DUP4 PUSH2 0x2218 JUMP JUMPDEST POP POP POP SWAP1 POP SWAP1 JUMP JUMPDEST PUSH1 0x40 MLOAD RETURNDATASIZE PUSH1 0x0 DUP3 RETURNDATACOPY RETURNDATASIZE SWAP1 REVERT JUMPDEST SWAP1 DUP2 PUSH1 0x20 SWAP2 SUB SLT PUSH2 0x210A JUMPI MLOAD DUP1 ISZERO ISZERO DUP2 SUB PUSH2 0x210A JUMPI SWAP1 JUMP JUMPDEST PUSH8 0xFFFFFFFFFFFFFFFF DUP2 GT PUSH2 0x21E6 JUMPI PUSH1 0x5 SHL PUSH1 0x20 ADD SWAP1 JUMP JUMPDEST SWAP1 PUSH2 0x2324 DUP3 PUSH2 0x2302 JUMP JUMPDEST PUSH2 0x2331 PUSH1 0x40 MLOAD SWAP2 DUP3 PUSH2 0x2218 JUMP JUMPDEST DUP3 DUP2 MSTORE DUP1 SWAP3 PUSH2 0x2342 PUSH1 0x1F NOT SWAP2 PUSH2 0x2302 JUMP JUMPDEST ADD SWAP1 PUSH1 0x20 CALLDATASIZE SWAP2 ADD CALLDATACOPY JUMP JUMPDEST DUP1 MLOAD ISZERO PUSH2 0x21B4 JUMPI PUSH1 0x20 ADD SWAP1 JUMP JUMPDEST DUP1 MLOAD PUSH1 0x1 LT ISZERO PUSH2 0x21B4 JUMPI PUSH1 0x40 ADD SWAP1 JUMP JUMPDEST DUP1 MLOAD DUP3 LT ISZERO PUSH2 0x21B4 JUMPI PUSH1 0x20 SWAP2 PUSH1 0x5 SHL ADD ADD SWAP1 JUMP JUMPDEST DUP2 DUP2 MUL SWAP3 SWAP2 DUP2 ISZERO SWAP2 DUP5 DIV EQ OR ISZERO PUSH2 0x2390 JUMPI JUMP JUMPDEST PUSH4 0x4E487B71 PUSH1 0xE0 SHL PUSH1 0x0 MSTORE PUSH1 0x11 PUSH1 0x4 MSTORE PUSH1 0x24 PUSH1 0x0 REVERT JUMPDEST DUP2 ISZERO PUSH2 0x23B0 JUMPI DIV SWAP1 JUMP JUMPDEST PUSH4 0x4E487B71 PUSH1 0xE0 SHL PUSH1 0x0 MSTORE PUSH1 0x12 PUSH1 0x4 MSTORE PUSH1 0x24 PUSH1 0x0 REVERT JUMPDEST SWAP2 SWAP1 DUP3 ADD DUP1 SWAP3 GT PUSH2 0x2390 JUMPI JUMP JUMPDEST PUSH1 0x20 SWAP1 DUP2 DUP2 DUP5 SUB SLT PUSH2 0x210A JUMPI DUP1 MLOAD SWAP1 PUSH8 0xFFFFFFFFFFFFFFFF DUP3 GT PUSH2 0x210A JUMPI ADD SWAP2 DUP1 PUSH1 0x1F DUP5 ADD SLT ISZERO PUSH2 0x210A JUMPI DUP3 MLOAD PUSH2 0x2409 DUP2 PUSH2 0x2302 JUMP JUMPDEST SWAP4 PUSH2 0x2417 PUSH1 0x40 MLOAD SWAP6 DUP7 PUSH2 0x2218 JUMP JUMPDEST DUP2 DUP6 MSTORE DUP4 DUP1 DUP7 ADD SWAP3 PUSH1 0x5 SHL DUP3 ADD ADD SWAP3 DUP4 GT PUSH2 0x210A JUMPI DUP4 ADD SWAP1 JUMPDEST DUP3 DUP3 LT PUSH2 0x243E JUMPI POP POP POP POP SWAP1 JUMP JUMPDEST DUP2 MLOAD DUP2 MSTORE SWAP1 DUP4 ADD SWAP1 DUP4 ADD PUSH2 0x2430 JUMP JUMPDEST SWAP2 SWAP3 PUSH1 0x80 SWAP4 PUSH2 0x2472 SWAP3 SWAP8 SWAP7 SWAP6 SWAP8 DUP5 MSTORE PUSH1 0x20 DUP5 ADD MSTORE PUSH1 0xA0 PUSH1 0x40 DUP5 ADD MSTORE PUSH1 0xA0 DUP4 ADD SWAP1 PUSH2 0x2140 JUMP JUMPDEST PUSH1 0x1 PUSH1 0x1 PUSH1 0xA0 SHL SUB SWAP1 SWAP6 AND PUSH1 0x60 DUP3 ADD MSTORE ADD MSTORE JUMP JUMPDEST SWAP2 SWAP1 DUP3 SUB SWAP2 DUP3 GT PUSH2 0x2390 JUMPI JUMP JUMPDEST PUSH1 0x0 NOT DUP2 EQ PUSH2 0x2390 JUMPI PUSH1 0x1 ADD SWAP1 JUMP JUMPDEST SWAP2 SWAP1 DUP2 LT ISZERO PUSH2 0x21B4 JUMPI PUSH1 0x5 SHL ADD SWAP1 JUMP JUMPDEST DUP1 SLOAD DUP3 LT ISZERO PUSH2 0x21B4 JUMPI PUSH1 0x0 MSTORE PUSH1 0x5 PUSH1 0x20 PUSH1 0x0 KECCAK256 SWAP2 MUL ADD SWAP1 PUSH1 0x0 SWAP1 JUMP JUMPDEST SWAP1 DUP1 ISZERO PUSH2 0x256E JUMPI DUP2 ISZERO PUSH2 0x2567 JUMPI DUP2 DUP1 PUSH1 0x1 EQ PUSH2 0x255F JUMPI PUSH1 0x2 EQ PUSH2 0x254E JUMPI PUSH1 0x20 DUP2 LT PUSH2 0x133 DUP4 LT AND PUSH1 0x4E DUP3 LT PUSH1 0xB DUP5 LT AND OR PUSH2 0x2549 JUMPI PUSH1 0x1 SWAP1 DUP2 JUMPDEST DUP1 DUP3 GT PUSH2 0x2520 JUMPI POP POP DUP2 PUSH1 0x0 NOT DIV DUP2 GT PUSH2 0x2390 JUMPI MUL SWAP1 JUMP JUMPDEST SWAP1 SWAP3 DUP1 PUSH1 0x0 NOT DIV DUP2 GT PUSH2 0x2390 JUMPI DUP2 DUP5 AND PUSH2 0x2540 JUMPI JUMPDEST DUP1 MUL SWAP3 DUP2 SHR SWAP1 PUSH2 0x2508 JUMP JUMPDEST DUP1 SWAP3 MUL SWAP2 PUSH2 0x2535 JUMP JUMPDEST SWAP1 EXP SWAP1 JUMP JUMPDEST SWAP1 POP PUSH1 0xFF DUP2 GT PUSH2 0x2390 JUMPI PUSH1 0x1 SWAP1 SHL SWAP1 JUMP JUMPDEST POP POP POP PUSH1 0x1 SWAP1 JUMP JUMPDEST POP POP PUSH1 0x0 SWAP1 JUMP JUMPDEST POP POP PUSH1 0x1 SWAP1 JUMP JUMPDEST DUP1 SLOAD DUP3 LT ISZERO PUSH2 0x21B4 JUMPI PUSH1 0x0 MSTORE PUSH1 0x20 PUSH1 0x0 KECCAK256 SWAP1 PUSH1 0x2 SHL ADD SWAP1 PUSH1 0x0 SWAP1 JUMP JUMPDEST ISZERO PUSH2 0x2598 JUMPI JUMP JUMPDEST PUSH1 0x40 MLOAD PUSH3 0x461BCD PUSH1 0xE5 SHL DUP2 MSTORE PUSH1 0x20 PUSH1 0x4 DUP3 ADD MSTORE PUSH1 0x21 PUSH1 0x24 DUP3 ADD MSTORE PUSH32 0x4F6E6C79206F776E65722063616E2063616C6C20746869732066756E6374696F PUSH1 0x44 DUP3 ADD MSTORE PUSH1 0x37 PUSH1 0xF9 SHL PUSH1 0x64 DUP3 ADD MSTORE PUSH1 0x84 SWAP1 REVERT JUMPDEST ISZERO PUSH2 0x25EE JUMPI JUMP JUMPDEST PUSH1 0x40 MLOAD PUSH3 0x461BCD PUSH1 0xE5 SHL DUP2 MSTORE PUSH1 0x20 PUSH1 0x4 DUP3 ADD MSTORE PUSH1 0x12 PUSH1 0x24 DUP3 ADD MSTORE PUSH18 0x4C6F616E206973206E6F7420616374697665 PUSH1 0x70 SHL PUSH1 0x44 DUP3 ADD MSTORE PUSH1 0x64 SWAP1 REVERT JUMPDEST SWAP1 PUSH1 0x0 SWAP2 DUP1 DUP4 MSTORE PUSH1 0x20 PUSH1 0x5 DUP2 MSTORE PUSH1 0x40 DUP1 DUP6 KECCAK256 SWAP4 DUP1 ISZERO DUP1 DUP1 ISZERO PUSH2 0x2A94 JUMPI JUMPDEST DUP1 ISZERO PUSH2 0x2A88 JUMPI JUMPDEST PUSH2 0x268B JUMPI PUSH4 0x5F5E100 DUP1 DUP4 MUL SWAP3 DUP4 DIV EQ OR ISZERO PUSH2 0x11CD JUMPI PUSH2 0x2673 PUSH1 0xD SWAP2 PUSH1 0x8 DUP8 ADD SLOAD SWAP1 PUSH2 0x23A6 JUMP JUMPDEST SWAP5 ADD SWAP5 DUP6 SLOAD DUP1 DUP7 GT PUSH2 0x2A80 JUMPI JUMPDEST POP DUP5 ISZERO SWAP2 DUP3 ISZERO PUSH2 0x2694 JUMPI JUMPDEST POP POP POP POP POP POP POP JUMP JUMPDEST DUP5 DUP3 MSTORE PUSH1 0x5 DUP5 MSTORE DUP1 DUP3 KECCAK256 SWAP4 PUSH1 0xD DUP6 ADD SWAP4 DUP5 SLOAD DUP9 GT PUSH2 0x2A2E JUMPI PUSH2 0x29EC JUMPI PUSH1 0x1 DUP1 PUSH1 0xA0 SHL SUB SWAP3 DUP4 PUSH1 0x2 SLOAD AND SWAP4 DUP4 MLOAD SWAP6 PUSH4 0x70A08231 PUSH1 0xE0 SHL SWAP8 DUP9 DUP9 MSTORE PUSH1 0x4 SWAP3 ADDRESS DUP5 DUP11 ADD MSTORE PUSH1 0x24 SWAP3 DUP7 DUP11 DUP6 DUP2 DUP13 GAS STATICCALL SWAP10 DUP11 ISZERO PUSH2 0x2984 JUMPI DUP7 SWAP11 PUSH2 0x29BD JUMPI JUMPDEST POP DUP7 DUP14 PUSH1 0x64 DUP5 DUP10 SLOAD AND SWAP12 DUP10 DUP13 MLOAD SWAP14 DUP15 SWAP5 DUP6 SWAP4 PUSH4 0x1A4CA37B PUSH1 0xE2 SHL DUP6 MSTORE DUP13 DUP6 ADD MSTORE DUP11 DUP5 ADD MSTORE ADDRESS PUSH1 0x44 DUP5 ADD MSTORE GAS CALL SWAP9 DUP10 ISZERO PUSH2 0x2984 JUMPI DUP7 SWAP10 PUSH2 0x298E JUMPI JUMPDEST POP DUP7 DUP3 PUSH1 0x2 SLOAD AND SWAP12 DUP6 DUP11 MLOAD DUP1 SWAP15 DUP2 SWAP4 DUP3 MSTORE ADDRESS DUP11 DUP4 ADD MSTORE GAS STATICCALL SWAP11 DUP12 ISZERO PUSH2 0x2984 JUMPI DUP7 SWAP12 PUSH2 0x2951 JUMPI JUMPDEST POP DUP10 DUP12 GT ISZERO PUSH2 0x2904 JUMPI DUP9 ISZERO PUSH2 0x28C2 JUMPI PUSH2 0x27AC SWAP3 DUP8 SWAP3 DUP3 PUSH2 0x276F DUP13 DUP1 SWAP6 SLOAD PUSH2 0x2486 JUMP JUMPDEST SWAP1 SSTORE PUSH1 0x1 DUP2 PUSH1 0x2 SLOAD AND SWAP3 ADD SLOAD AND DUP8 DUP11 MLOAD DUP1 SWAP7 DUP2 SWAP6 DUP3 SWAP5 PUSH4 0xA9059CBB PUSH1 0xE0 SHL DUP5 MSTORE DUP12 DUP5 ADD PUSH1 0x20 SWAP1 SWAP4 SWAP3 SWAP2 SWAP4 PUSH1 0x40 DUP2 ADD SWAP5 PUSH1 0x1 DUP1 PUSH1 0xA0 SHL SUB AND DUP2 MSTORE ADD MSTORE JUMP JUMPDEST SUB SWAP3 GAS CALL SWAP1 DUP2 ISZERO PUSH2 0x28B8 JUMPI DUP5 SWAP2 PUSH2 0x289B JUMPI JUMPDEST POP ISZERO PUSH2 0x2859 JUMPI POP POP SWAP3 DUP3 DUP9 PUSH1 0xA0 SWAP7 SWAP4 PUSH32 0x38A556A122683CB48D496614A7A03605B6C2C0482342924CAF483386980ECC9F PUSH1 0x80 PUSH2 0x284B SWAP13 SWAP12 SWAP9 PUSH32 0x971C7EC4A7C96C0A198687499279CCF05D9699970007B5AE5017B1177EE02ED3 SWAP12 SWAP9 MLOAD SWAP1 DUP11 DUP3 MSTORE DUP6 DUP6 DUP4 ADD MSTORE DUP7 DUP3 ADD MSTORE DUP7 PUSH1 0x60 DUP3 ADD MSTORE LOG1 DUP3 MLOAD SWAP7 DUP8 MSTORE DUP7 ADD MSTORE DUP5 ADD MSTORE PUSH1 0x60 DUP4 ADD MSTORE PUSH1 0x80 DUP3 ADD MSTORE LOG1 DUP3 SLOAD PUSH2 0x2486 JUMP JUMPDEST SWAP1 SSTORE CODESIZE DUP1 DUP1 DUP1 DUP1 DUP1 DUP1 PUSH2 0x268B JUMP JUMPDEST DUP5 MLOAD PUSH3 0x461BCD PUSH1 0xE5 SHL DUP2 MSTORE SWAP2 DUP3 ADD DUP5 SWAP1 MSTORE PUSH1 0x1B SWAP1 DUP3 ADD MSTORE PUSH32 0x5472616E7366657220746F20626F72726F776572206661696C65640000000000 PUSH1 0x44 DUP3 ADD MSTORE PUSH1 0x64 SWAP1 REVERT JUMPDEST PUSH2 0x28B2 SWAP2 POP DUP6 RETURNDATASIZE DUP8 GT PUSH2 0x86F JUMPI PUSH2 0x860 DUP2 DUP4 PUSH2 0x2218 JUMP JUMPDEST CODESIZE PUSH2 0x27BE JUMP JUMPDEST DUP7 MLOAD RETURNDATASIZE DUP7 DUP3 RETURNDATACOPY RETURNDATASIZE SWAP1 REVERT JUMPDEST DUP8 MLOAD PUSH3 0x461BCD PUSH1 0xE5 SHL DUP2 MSTORE DUP1 DUP7 ADD DUP9 SWAP1 MSTORE PUSH1 0x1C DUP2 DUP7 ADD MSTORE PUSH32 0x556E7374616B652072657475726E6564207A65726F20746F6B656E7300000000 PUSH1 0x44 DUP3 ADD MSTORE PUSH1 0x64 SWAP1 REVERT JUMPDEST DUP8 MLOAD PUSH3 0x461BCD PUSH1 0xE5 SHL DUP2 MSTORE DUP1 DUP7 ADD DUP9 SWAP1 MSTORE PUSH1 0x22 DUP2 DUP7 ADD MSTORE PUSH32 0x5769746864726177616C206469646E277420696E6372656173652062616C616E PUSH1 0x44 DUP3 ADD MSTORE PUSH2 0x6365 PUSH1 0xF0 SHL PUSH1 0x64 DUP3 ADD MSTORE PUSH1 0x84 SWAP1 REVERT JUMPDEST SWAP1 SWAP11 POP DUP7 DUP2 DUP2 RETURNDATASIZE DUP4 GT PUSH2 0x297D JUMPI JUMPDEST PUSH2 0x2969 DUP2 DUP4 PUSH2 0x2218 JUMP JUMPDEST DUP2 ADD SUB SLT PUSH2 0x2979 JUMPI MLOAD SWAP10 CODESIZE PUSH2 0x274D JUMP JUMPDEST DUP6 DUP1 REVERT JUMPDEST POP RETURNDATASIZE PUSH2 0x295F JUMP JUMPDEST DUP9 MLOAD RETURNDATASIZE DUP9 DUP3 RETURNDATACOPY RETURNDATASIZE SWAP1 REVERT JUMPDEST SWAP1 SWAP9 POP DUP7 DUP2 DUP2 RETURNDATASIZE DUP4 GT PUSH2 0x29B6 JUMPI JUMPDEST PUSH2 0x29A6 DUP2 DUP4 PUSH2 0x2218 JUMP JUMPDEST DUP2 ADD SUB SLT PUSH2 0x2979 JUMPI MLOAD SWAP8 CODESIZE PUSH2 0x2727 JUMP JUMPDEST POP RETURNDATASIZE PUSH2 0x299C JUMP JUMPDEST SWAP1 SWAP10 POP DUP7 DUP2 DUP2 RETURNDATASIZE DUP4 GT PUSH2 0x29E5 JUMPI JUMPDEST PUSH2 0x29D5 DUP2 DUP4 PUSH2 0x2218 JUMP JUMPDEST DUP2 ADD SUB SLT PUSH2 0x2979 JUMPI MLOAD SWAP9 CODESIZE PUSH2 0x26ED JUMP JUMPDEST POP RETURNDATASIZE PUSH2 0x29CB JUMP JUMPDEST PUSH1 0x64 SWAP2 MLOAD SWAP1 PUSH3 0x461BCD PUSH1 0xE5 SHL DUP3 MSTORE PUSH1 0x4 DUP3 ADD MSTORE PUSH1 0x1A PUSH1 0x24 DUP3 ADD MSTORE PUSH32 0x43616E6E6F7420756E7374616B65207A65726F20616D6F756E74000000000000 PUSH1 0x44 DUP3 ADD MSTORE REVERT JUMPDEST POP PUSH1 0x84 SWAP2 MLOAD SWAP1 PUSH3 0x461BCD PUSH1 0xE5 SHL DUP3 MSTORE PUSH1 0x4 DUP3 ADD MSTORE PUSH1 0x26 PUSH1 0x24 DUP3 ADD MSTORE PUSH32 0x43616E6E6F7420756E7374616B65206D6F7265207468616E207374616B656420 PUSH1 0x44 DUP3 ADD MSTORE PUSH6 0x185B5BDD5B9D PUSH1 0xD2 SHL PUSH1 0x64 DUP3 ADD MSTORE REVERT JUMPDEST SWAP5 POP CODESIZE PUSH2 0x2680 JUMP JUMPDEST POP PUSH1 0xD DUP7 ADD SLOAD ISZERO PUSH2 0x264C JUMP JUMPDEST POP PUSH1 0x8 DUP7 ADD SLOAD ISZERO PUSH2 0x2645 JUMP JUMPDEST SWAP1 PUSH1 0x0 SWAP1 DUP3 DUP3 MSTORE PUSH1 0x20 SWAP2 PUSH1 0x5 DUP4 MSTORE PUSH1 0x40 PUSH1 0xD DUP2 DUP4 KECCAK256 ADD SWAP3 DUP4 SLOAD DUP2 GT PUSH2 0x2ECF JUMPI DUP1 ISZERO PUSH2 0x2E8B JUMPI PUSH1 0x2 SLOAD DUP3 MLOAD PUSH4 0x70A08231 PUSH1 0xE0 SHL DUP1 DUP3 MSTORE ADDRESS PUSH1 0x4 DUP1 DUP5 ADD SWAP2 SWAP1 SWAP2 MSTORE SWAP1 SWAP8 SWAP2 SWAP7 SWAP2 SWAP3 PUSH1 0x1 PUSH1 0x1 PUSH1 0xA0 SHL SUB SWAP3 PUSH1 0x24 SWAP2 DUP5 AND DUP6 DUP11 DUP5 DUP2 DUP5 GAS STATICCALL SWAP10 DUP11 ISZERO PUSH2 0x2E81 JUMPI DUP10 SWAP11 PUSH2 0x2E4E JUMPI JUMPDEST POP SWAP1 DUP6 DUP6 SWAP5 SWAP4 SWAP3 PUSH1 0x64 DUP12 SWAP8 DUP9 SLOAD AND SWAP2 DUP12 MLOAD SWAP13 DUP14 SWAP4 DUP5 SWAP3 PUSH4 0x1A4CA37B PUSH1 0xE2 SHL DUP5 MSTORE DUP10 DUP5 ADD MSTORE DUP13 DUP9 DUP5 ADD MSTORE ADDRESS PUSH1 0x44 DUP5 ADD MSTORE GAS CALL SWAP9 DUP10 ISZERO PUSH2 0x2D53 JUMPI DUP6 SWAP10 PUSH2 0x2E1F JUMPI JUMPDEST POP DUP6 DUP5 PUSH1 0x2 SLOAD AND SWAP12 DUP4 DUP11 MLOAD DUP1 SWAP15 DUP2 SWAP4 DUP3 MSTORE ADDRESS DUP9 DUP4 ADD MSTORE GAS STATICCALL SWAP11 DUP12 ISZERO PUSH2 0x2D53 JUMPI DUP6 SWAP12 PUSH2 0x2DEC JUMPI JUMPDEST POP DUP10 DUP12 GT ISZERO PUSH2 0x2D9F JUMPI DUP9 ISZERO PUSH2 0x2D5D JUMPI PUSH2 0x2B87 DUP10 DUP3 SLOAD PUSH2 0x2486 JUMP JUMPDEST SWAP1 SSTORE PUSH1 0x2 SLOAD PUSH1 0x1 SLOAD DUP9 MLOAD PUSH4 0x95EA7B3 PUSH1 0xE0 SHL DUP2 MSTORE SWAP1 DUP6 AND PUSH1 0x1 PUSH1 0x1 PUSH1 0xA0 SHL SUB AND DUP5 DUP3 ADD SWAP1 DUP2 MSTORE PUSH1 0x20 DUP2 ADD DUP12 SWAP1 MSTORE SWAP1 SWAP2 DUP8 SWAP2 DUP4 SWAP2 DUP8 AND SWAP1 DUP3 SWAP1 DUP10 SWAP1 DUP3 SWAP1 PUSH1 0x40 ADD SUB SWAP3 GAS CALL DUP1 ISZERO PUSH2 0x2D53 JUMPI PUSH2 0x2D36 JUMPI JUMPDEST POP DUP7 MLOAD SWAP2 PUSH2 0x2BE2 DUP4 PUSH2 0x21FC JUMP JUMPDEST PUSH1 0x2 DUP4 MSTORE DUP8 CALLDATASIZE DUP8 DUP6 ADD CALLDATACOPY DUP4 PUSH1 0x2 SLOAD AND PUSH2 0x2BFA DUP5 PUSH2 0x234C JUMP JUMPDEST MSTORE DUP4 PUSH1 0x9 SLOAD AND PUSH2 0x2C09 DUP5 PUSH2 0x2359 JUMP JUMPDEST MSTORE PUSH1 0x5F DUP10 MUL SWAP4 DUP10 DUP6 DIV PUSH1 0x5F SUB PUSH2 0x2D24 JUMPI PUSH1 0x1 SLOAD AND SWAP2 PUSH2 0x12C TIMESTAMP ADD SWAP1 DUP2 TIMESTAMP GT PUSH2 0x2D13 JUMPI POP SWAP1 DUP6 DUP11 PUSH2 0x2C56 DUP3 SWAP7 SWAP6 SWAP5 DUP13 MLOAD SWAP9 DUP10 SWAP8 DUP9 SWAP7 DUP8 SWAP6 PUSH4 0x38ED1739 PUSH1 0xE0 SHL DUP8 MSTORE PUSH1 0x64 ADDRESS SWAP5 DIV SWAP2 DUP8 ADD PUSH2 0x244D JUMP JUMPDEST SUB SWAP3 GAS CALL SWAP1 DUP2 ISZERO PUSH2 0x2D09 JUMPI PUSH1 0x80 DUP4 PUSH2 0x2CC0 PUSH32 0x971C7EC4A7C96C0A198687499279CCF05D9699970007B5AE5017B1177EE02ED3 SWAP13 SWAP11 SWAP9 SWAP7 SWAP5 PUSH32 0x38A556A122683CB48D496614A7A03605B6C2C0482342924CAF483386980ECC9F SWAP5 PUSH1 0xA0 SWAP14 SWAP12 SWAP10 SWAP8 SWAP2 PUSH2 0x2CEF JUMPI POP PUSH2 0x2359 JUMP JUMPDEST MLOAD SWAP1 DUP7 MLOAD SWAP2 DUP12 DUP4 MSTORE DUP7 DUP7 DUP5 ADD MSTORE DUP8 DUP4 ADD MSTORE PUSH1 0x60 DUP3 ADD MSTORE LOG1 DUP3 MLOAD SWAP7 DUP8 MSTORE DUP7 ADD MSTORE DUP5 ADD MSTORE PUSH1 0x60 DUP4 ADD MSTORE PUSH1 0x80 DUP3 ADD MSTORE LOG1 JUMP JUMPDEST PUSH2 0x2D03 SWAP2 POP RETURNDATASIZE DUP1 DUP6 DUP4 RETURNDATACOPY PUSH2 0x11A0 DUP2 DUP4 PUSH2 0x2218 JUMP JUMPDEST CODESIZE PUSH2 0xFF9 JUMP JUMPDEST DUP6 MLOAD RETURNDATASIZE DUP5 DUP3 RETURNDATACOPY RETURNDATASIZE SWAP1 REVERT JUMPDEST PUSH4 0x4E487B71 PUSH1 0xE0 SHL DUP8 MSTORE PUSH1 0x11 DUP4 MSTORE DUP7 REVERT JUMPDEST POP PUSH4 0x4E487B71 PUSH1 0xE0 SHL DUP6 MSTORE PUSH1 0x11 SWAP1 MSTORE DUP4 REVERT JUMPDEST PUSH2 0x2D4C SWAP1 DUP7 RETURNDATASIZE DUP9 GT PUSH2 0x86F JUMPI PUSH2 0x860 DUP2 DUP4 PUSH2 0x2218 JUMP JUMPDEST POP CODESIZE PUSH2 0x2BD5 JUMP JUMPDEST DUP9 MLOAD RETURNDATASIZE DUP8 DUP3 RETURNDATACOPY RETURNDATASIZE SWAP1 REVERT JUMPDEST DUP8 MLOAD PUSH3 0x461BCD PUSH1 0xE5 SHL DUP2 MSTORE DUP1 DUP5 ADD DUP8 SWAP1 MSTORE PUSH1 0x1C DUP2 DUP5 ADD MSTORE PUSH32 0x556E7374616B652072657475726E6564207A65726F20746F6B656E7300000000 PUSH1 0x44 DUP3 ADD MSTORE PUSH1 0x64 SWAP1 REVERT JUMPDEST DUP8 MLOAD PUSH3 0x461BCD PUSH1 0xE5 SHL DUP2 MSTORE DUP1 DUP5 ADD DUP8 SWAP1 MSTORE PUSH1 0x22 DUP2 DUP5 ADD MSTORE PUSH32 0x5769746864726177616C206469646E277420696E6372656173652062616C616E PUSH1 0x44 DUP3 ADD MSTORE PUSH2 0x6365 PUSH1 0xF0 SHL PUSH1 0x64 DUP3 ADD MSTORE PUSH1 0x84 SWAP1 REVERT JUMPDEST SWAP1 SWAP11 POP DUP6 DUP2 DUP2 RETURNDATASIZE DUP4 GT PUSH2 0x2E18 JUMPI JUMPDEST PUSH2 0x2E04 DUP2 DUP4 PUSH2 0x2218 JUMP JUMPDEST DUP2 ADD SUB SLT PUSH2 0x2E14 JUMPI MLOAD SWAP10 CODESIZE PUSH2 0x2B6D JUMP JUMPDEST DUP5 DUP1 REVERT JUMPDEST POP RETURNDATASIZE PUSH2 0x2DFA JUMP JUMPDEST SWAP1 SWAP9 POP DUP6 DUP2 DUP2 RETURNDATASIZE DUP4 GT PUSH2 0x2E47 JUMPI JUMPDEST PUSH2 0x2E37 DUP2 DUP4 PUSH2 0x2218 JUMP JUMPDEST DUP2 ADD SUB SLT PUSH2 0x2E14 JUMPI MLOAD SWAP8 CODESIZE PUSH2 0x2B47 JUMP JUMPDEST POP RETURNDATASIZE PUSH2 0x2E2D JUMP JUMPDEST SWAP1 SWAP10 POP DUP6 DUP2 DUP2 RETURNDATASIZE DUP4 GT PUSH2 0x2E7A JUMPI JUMPDEST PUSH2 0x2E66 DUP2 DUP4 PUSH2 0x2218 JUMP JUMPDEST DUP2 ADD SUB SLT PUSH2 0x2E76 JUMPI MLOAD SWAP9 DUP6 PUSH2 0x2B08 JUMP JUMPDEST DUP9 DUP1 REVERT JUMPDEST POP RETURNDATASIZE PUSH2 0x2E5C JUMP JUMPDEST DUP9 MLOAD RETURNDATASIZE DUP12 DUP3 RETURNDATACOPY RETURNDATASIZE SWAP1 REVERT JUMPDEST DUP2 MLOAD PUSH3 0x461BCD PUSH1 0xE5 SHL DUP2 MSTORE PUSH1 0x4 DUP2 ADD DUP7 SWAP1 MSTORE PUSH1 0x1A PUSH1 0x24 DUP3 ADD MSTORE PUSH32 0x43616E6E6F7420756E7374616B65207A65726F20616D6F756E74000000000000 PUSH1 0x44 DUP3 ADD MSTORE PUSH1 0x64 SWAP1 REVERT JUMPDEST DUP2 MLOAD PUSH3 0x461BCD PUSH1 0xE5 SHL DUP2 MSTORE PUSH1 0x4 DUP2 ADD DUP7 SWAP1 MSTORE PUSH1 0x26 PUSH1 0x24 DUP3 ADD MSTORE PUSH32 0x43616E6E6F7420756E7374616B65206D6F7265207468616E207374616B656420 PUSH1 0x44 DUP3 ADD MSTORE PUSH6 0x185B5BDD5B9D PUSH1 0xD2 SHL PUSH1 0x64 DUP3 ADD MSTORE PUSH1 0x84 SWAP1 REVERT JUMPDEST PUSH1 0x0 SWAP1 DUP2 MSTORE PUSH1 0x5 PUSH1 0x20 MSTORE PUSH1 0x40 DUP2 KECCAK256 PUSH1 0x2 DUP2 ADD SLOAD SWAP1 SWAP4 SWAP3 DUP2 ISZERO PUSH2 0x2F8C JUMPI PUSH8 0xDE0B6B3A7640000 SWAP3 DUP4 DUP3 MUL SWAP2 DUP1 DUP4 DIV DUP6 EQ SWAP1 ISZERO OR ISZERO PUSH2 0x2F78 JUMPI POP SWAP4 PUSH2 0x2F6A PUSH2 0x2F74 SWAP3 PUSH1 0xD SWAP7 PUSH2 0x23A6 JUMP JUMPDEST SWAP5 DUP6 SWAP2 ADD SLOAD PUSH2 0x237D JUMP JUMPDEST DIV SWAP1 JUMP JUMPDEST PUSH4 0x4E487B71 PUSH1 0xE0 SHL DUP2 MSTORE PUSH1 0x11 PUSH1 0x4 MSTORE PUSH1 0x24 SWAP1 REVERT JUMPDEST POP POP DUP1 SWAP3 POP SWAP2 SWAP1 JUMP INVALID LOG2 PUSH5 0x6970667358 0x22 SLT KECCAK256 SLT 0xA9 BYTE 0x21 EXP DUP2 EXTCODECOPY GT 0xC PUSH20 0x5A383EBECB1ED46CC377796963D8FA7D033DA56C PUSH9 0xB164736F6C63430008 EQ STOP CALLER "},"methodIdentifiers":{"aavePool()":"a03e4bc3","cbBtcToken()":"0e462386","chainlinkOracle()":"ef06e72c","changeInsuranceStatus(bytes32,bool)":"86280f82","debugUnstakeCalc(bytes32,uint256)":"5206d2d0","getAmortizationSchedule(bytes32)":"1fc8f4df","getContributions(bytes32)":"86a2e274","getInstallmentSchedule(bytes32)":"6c1945ae","getPrice()":"98d5fdca","getStakedAmount(bytes32)":"337a1737","hasActiveLoan(address)":"21d4f8db","lenders(address)":"28fd10d7","liquidate(bytes32)":"0a71096e","liquidateIfOverdue(bytes32)":"28830d47","loan(uint256,uint256,uint256,address[],uint256[])":"66fb6e5a","loanIds(uint256)":"f8715a42","loans(bytes32)":"c4a90815","markInstallmentPaid(bytes32,uint256)":"c9642d2a","owner()":"8da5cb5b","payouts(bytes32,uint256)":"80f2122c","setAavePool(address)":"349f937c","setCbBtcToken(address)":"83cd8fcf","setChainlinkOracle(address)":"7a9b0412","setSwapRouter(address)":"41273657","swapRouter()":"c31c9c07","usdcToken()":"11eac855"}}}}}