{"Contracts/Lending.sol":{"LendingPool":{"abi":[{"inputs":[{"internalType":"address","name":"usdc","type":"address"},{"internalType":"address","name":"_cbBtcToken","type":"address"},{"internalType":"address","name":"oracleAddress","type":"address"},{"internalType":"address","name":"_aavePool","type":"address"},{"internalType":"address","name":"_swapRouter","type":"address"}],"stateMutability":"nonpayable","type":"constructor"},{"anonymous":false,"inputs":[{"indexed":false,"internalType":"bytes32","name":"loanId","type":"bytes32"},{"indexed":false,"internalType":"uint256","name":"requested","type":"uint256"},{"indexed":false,"internalType":"uint256","name":"actualWithdrawn","type":"uint256"},{"indexed":false,"internalType":"uint256","name":"preBalance","type":"uint256"},{"indexed":false,"internalType":"uint256","name":"postBalance","type":"uint256"}],"name":"DebugUnstake","type":"event"},{"anonymous":false,"inputs":[{"indexed":false,"internalType":"bytes32","name":"loanId","type":"bytes32"},{"indexed":false,"internalType":"uint256","name":"principalRepaid","type":"uint256"},{"indexed":false,"internalType":"uint256","name":"proportionRepaid","type":"uint256"},{"indexed":false,"internalType":"uint256","name":"cbBtcToUnstake","type":"uint256"}],"name":"DebugUnstakeProportion","type":"event"},{"anonymous":false,"inputs":[{"indexed":false,"internalType":"bytes32","name":"loanId","type":"bytes32"},{"indexed":false,"internalType":"uint256","name":"index","type":"uint256"}],"name":"InstallmentPaid","type":"event"},{"anonymous":false,"inputs":[{"indexed":false,"internalType":"bytes32","name":"id","type":"bytes32"},{"indexed":false,"internalType":"uint256","name":"amount","type":"uint256"},{"indexed":false,"internalType":"uint256","name":"collateral","type":"uint256"},{"indexed":false,"internalType":"address","name":"borrower","type":"address"}],"name":"LoanCreated","type":"event"},{"anonymous":false,"inputs":[{"indexed":false,"internalType":"bytes32","name":"id","type":"bytes32"},{"indexed":false,"internalType":"address","name":"borrower","type":"address"},{"indexed":false,"internalType":"uint256","name":"btcPriceNow","type":"uint256"}],"name":"LoanLiquidated","type":"event"},{"anonymous":false,"inputs":[{"indexed":false,"internalType":"bytes32","name":"loanId","type":"bytes32"},{"indexed":false,"internalType":"address","name":"borrower","type":"address"},{"indexed":false,"internalType":"uint256","name":"amount","type":"uint256"},{"indexed":false,"internalType":"bool","name":"fullyRepaid","type":"bool"}],"name":"Payout","type":"event"},{"anonymous":false,"inputs":[{"indexed":false,"internalType":"bytes32","name":"loanId","type":"bytes32"},{"indexed":false,"internalType":"uint256","name":"usdcAmount","type":"uint256"},{"indexed":false,"internalType":"uint256","name":"cbBtcAmount","type":"uint256"}],"name":"TokensStaked","type":"event"},{"anonymous":false,"inputs":[{"indexed":false,"internalType":"bytes32","name":"loanId","type":"bytes32"},{"indexed":false,"internalType":"uint256","name":"cbBtcAmount","type":"uint256"},{"indexed":false,"internalType":"uint256","name":"usdcAmount","type":"uint256"},{"indexed":false,"internalType":"uint256","name":"borrowerCbBtcShare","type":"uint256"}],"name":"TokensUnstaked","type":"event"},{"inputs":[],"name":"aavePool","outputs":[{"internalType":"contract IAavePool","name":"","type":"address"}],"stateMutability":"view","type":"function"},{"inputs":[],"name":"cbBtcToken","outputs":[{"internalType":"address","name":"","type":"address"}],"stateMutability":"view","type":"function"},{"inputs":[],"name":"chainlinkOracle","outputs":[{"internalType":"contract AggregatorV3Interface","name":"","type":"address"}],"stateMutability":"view","type":"function"},{"inputs":[{"internalType":"bytes32","name":"loanId","type":"bytes32"},{"internalType":"uint256","name":"principalRepaid","type":"uint256"}],"name":"debugUnstakeCalc","outputs":[{"internalType":"uint256","name":"proportionRepaid","type":"uint256"},{"internalType":"uint256","name":"cbBtcToUnstake","type":"uint256"}],"stateMutability":"view","type":"function"},{"inputs":[{"internalType":"bytes32","name":"loanId","type":"bytes32"}],"name":"getAmortizationSchedule","outputs":[{"internalType":"uint256[]","name":"principals","type":"uint256[]"},{"internalType":"uint256[]","name":"interests","type":"uint256[]"},{"internalType":"bool[]","name":"paidStatuses","type":"bool[]"}],"stateMutability":"view","type":"function"},{"inputs":[{"internalType":"bytes32","name":"loanId","type":"bytes32"}],"name":"getContributions","outputs":[{"internalType":"address[]","name":"lenders","type":"address[]"},{"internalType":"uint256[]","name":"amounts","type":"uint256[]"},{"internalType":"uint256[]","name":"receivableInterests","type":"uint256[]"},{"internalType":"uint256[]","name":"repaidPrincipals","type":"uint256[]"},{"internalType":"uint256[]","name":"repaidInterests","type":"uint256[]"}],"stateMutability":"view","type":"function"},{"inputs":[{"internalType":"bytes32","name":"loanId","type":"bytes32"}],"name":"getInstallmentSchedule","outputs":[{"components":[{"internalType":"uint256","name":"duePrincipal","type":"uint256"},{"internalType":"uint256","name":"dueInterest","type":"uint256"},{"internalType":"bool","name":"paid","type":"bool"},{"internalType":"uint256","name":"dueTimestamp","type":"uint256"}],"internalType":"struct LendingPool.Installment[]","name":"","type":"tuple[]"}],"stateMutability":"view","type":"function"},{"inputs":[],"name":"getPrice","outputs":[{"internalType":"int256","name":"","type":"int256"}],"stateMutability":"view","type":"function"},{"inputs":[{"internalType":"bytes32","name":"loanId","type":"bytes32"}],"name":"getStakedAmount","outputs":[{"internalType":"uint256","name":"","type":"uint256"}],"stateMutability":"view","type":"function"},{"inputs":[{"internalType":"address","name":"","type":"address"}],"name":"hasActiveLoan","outputs":[{"internalType":"bool","name":"","type":"bool"}],"stateMutability":"view","type":"function"},{"inputs":[{"internalType":"address","name":"","type":"address"}],"name":"lenders","outputs":[{"internalType":"uint256","name":"totalContributed","type":"uint256"}],"stateMutability":"view","type":"function"},{"inputs":[{"internalType":"bytes32","name":"loanId","type":"bytes32"}],"name":"liquidate","outputs":[],"stateMutability":"nonpayable","type":"function"},{"inputs":[{"internalType":"bytes32","name":"loanId","type":"bytes32"}],"name":"liquidateIfOverdue","outputs":[],"stateMutability":"nonpayable","type":"function"},{"inputs":[{"internalType":"uint256","name":"totalAmount","type":"uint256"},{"internalType":"uint256","name":"durationMonths","type":"uint256"},{"internalType":"uint256","name":"annualInterestRate","type":"uint256"},{"internalType":"address[]","name":"lenderAddresses","type":"address[]"},{"internalType":"uint256[]","name":"lenderAmounts","type":"uint256[]"}],"name":"loan","outputs":[],"stateMutability":"nonpayable","type":"function"},{"inputs":[{"internalType":"uint256","name":"","type":"uint256"}],"name":"loanIds","outputs":[{"internalType":"bytes32","name":"","type":"bytes32"}],"stateMutability":"view","type":"function"},{"inputs":[{"internalType":"bytes32","name":"","type":"bytes32"}],"name":"loans","outputs":[{"internalType":"bytes32","name":"id","type":"bytes32"},{"internalType":"address","name":"borrower","type":"address"},{"internalType":"uint256","name":"principal","type":"uint256"},{"internalType":"uint256","name":"borrowerDeposit","type":"uint256"},{"internalType":"uint256","name":"interestRate","type":"uint256"},{"internalType":"uint256","name":"duration","type":"uint256"},{"internalType":"uint256","name":"monthlyPayment","type":"uint256"},{"internalType":"uint256","name":"startTime","type":"uint256"},{"internalType":"uint256","name":"btcPriceAtCreation","type":"uint256"},{"internalType":"bool","name":"isActive","type":"bool"},{"internalType":"uint256","name":"totalAmount","type":"uint256"},{"internalType":"uint256","name":"stakedAmount","type":"uint256"},{"internalType":"uint256","name":"remainingPrincipal","type":"uint256"}],"stateMutability":"view","type":"function"},{"inputs":[{"internalType":"bytes32","name":"loanId","type":"bytes32"},{"internalType":"uint256","name":"index","type":"uint256"}],"name":"markInstallmentPaid","outputs":[],"stateMutability":"nonpayable","type":"function"},{"inputs":[],"name":"owner","outputs":[{"internalType":"address","name":"","type":"address"}],"stateMutability":"view","type":"function"},{"inputs":[{"internalType":"bytes32","name":"loanId","type":"bytes32"},{"internalType":"uint256","name":"usdcAmount","type":"uint256"}],"name":"payouts","outputs":[],"stateMutability":"nonpayable","type":"function"},{"inputs":[{"internalType":"address","name":"_aavePool","type":"address"}],"name":"setAavePool","outputs":[],"stateMutability":"nonpayable","type":"function"},{"inputs":[{"internalType":"address","name":"_cbBtcToken","type":"address"}],"name":"setCbBtcToken","outputs":[],"stateMutability":"nonpayable","type":"function"},{"inputs":[{"internalType":"address","name":"oracleAddress","type":"address"}],"name":"setChainlinkOracle","outputs":[],"stateMutability":"nonpayable","type":"function"},{"inputs":[{"internalType":"address","name":"_swapRouter","type":"address"}],"name":"setSwapRouter","outputs":[],"stateMutability":"nonpayable","type":"function"},{"inputs":[],"name":"swapRouter","outputs":[{"internalType":"contract ISwapRouter","name":"","type":"address"}],"stateMutability":"view","type":"function"},{"inputs":[],"name":"usdcToken","outputs":[{"internalType":"address","name":"","type":"address"}],"stateMutability":"view","type":"function"}],"evm":{"bytecode":{"linkReferences":{},"object":"608034620000ec57601f6200304c38819003918201601f19168301916001600160401b03831184841017620000f15780849260a094604052833981010312620000ec576200004d8162000107565b906200005c6020820162000107565b906200006b6040820162000107565b91620000886080620000806060850162000107565b930162000107565b9160018060a01b0319943386600854161760085560018060a01b03948580948180941689600954161760095516876002541617600255168560035416176003551683600054161760005516906001541617600155604051612f2f90816200011d8239f35b600080fd5b634e487b7160e01b600052604160045260246000fd5b51906001600160a01b0382168203620000ec5756fe6080604052600436101561001257600080fd5b6000803560e01c80630a71096e14611d8d5780630e46238614611d6457806311eac85514611d3b5780631fc8f4df14611c0a57806321d4f8db14611bc857806328830d47146118e257806328fd10d7146118a5578063337a173714611878578063349f937c1461182f57806341273657146117e25780635206d2d0146117bc57806366fb6e5a14610aca5780636c1945ae146109c95780637a9b04121461097c57806380f2122c146105aa57806383cd8fcf1461055957806386a2e274146104275780638da5cb5b146103fe57806398d5fdca146103db578063a03e4bc3146103b4578063c31c9c071461038b578063c4a90815146102cd578063c9642d2a14610194578063ef06e72c1461016b5763f8715a421461013057600080fd5b34610168576020366003190112610168576004359060075482101561016857602061015a836120e1565b90546040519160031b1c8152f35b80fd5b50346101685780600319360112610168576003546040516001600160a01b039091168152602090f35b5034610168576101a336612058565b906101b960018060a01b036008541633146124f5565b8083526005602052600c604084206101d760ff60098301541661254b565b019081548310156102885760ff60026101f085856124d9565b50015416610243578260026102287f3d05ac2057427ac2f84502e7efefebf5ae10d9529129c2979ce60fb97d460614956040956124d9565b5001805460ff1916600117905582519182526020820152a180f35b60405162461bcd60e51b815260206004820152601f60248201527f496e7374616c6c6d656e7420616c7265616479206d61726b65642070616964006044820152606490fd5b60405162461bcd60e51b815260206004820152601960248201527f496e76616c696420696e7374616c6c6d656e7420696e646578000000000000006044820152606490fd5b50346101685760203660031901126101685760406101a091600435815260056020522080549060018060a01b03600182015416906002810154600382015460048301546005840154600685015460078601549160088701549360ff60098901541695600a89015497600e600d8b01549a01549a6040519c8d5260208d015260408c015260608b015260808a015260a089015260c088015260e08701526101008601521515610120850152610140840152610160830152610180820152f35b50346101685780600319360112610168576001546040516001600160a01b039091168152602090f35b5034610168578060031936011261016857546040516001600160a01b039091168152602090f35b503461016857806003193601126101685760206103f66121ea565b604051908152f35b50346101685780600319360112610168576008546040516001600160a01b039091168152602090f35b50346101685760203660031901126101685760043581526005602052600b6040822001908154906104578261227e565b916104618161227e565b61046a8261227e565b906104748361227e565b9261047e8161227e565b945b8181106104eb576104af876104e7886104d9896104cb8a6104bd8b604051998a9960a08b5260a08b01906120a4565b9089820360208b0152612024565b908782036040890152612024565b908582036060870152612024565b908382036080850152612024565b0390f35b8060046104fb610554938b612416565b5080546001600160a01b0316610511848c6122cd565b52600181015461052184886122cd565b52600281015461053184896122cd565b526003810154610541848a6122cd565b52015461054e82896122cd565b526123f7565b610480565b5034610168576020366003190112610168576004356001600160a01b03818116918290036105a657610590906008541633146124f5565b6001600160601b0360a01b600254161760025580f35b8280fd5b5034610168576105b936612058565b90808352600560205260408320906105d760ff60098401541661254b565b60018201546001600160a01b03163303610937576009546040516323b872dd60e01b815233600482015230602482015260448101859052906020908290606490829089906001600160a01b03165af1801561092c5761090d575b50829084855b600c850154811080610904575b156108af5761065681600c87016124d9565b508054801561086a5760ff60028301541661085f5760018201549061067b828261232a565b80881015610696575b50505050610691906123f7565b610637565b906106ab6106b1928298959b949a97996123ea565b9761232a565b906002850154968a5b600b870154811015610808576106d381600b8901612416565b50600181015480670de0b6b3a7640000810204670de0b6b3a764000014811517156107f4578d61079b93928d61076b670de0b6b3a76400008f8f82610729610722610730948360209c0261230a565b80936122e1565b04946122e1565b046003840161074084825461232a565b90556004840161075182825461232a565b905560095493546001600160a01b0394851694169261232a565b60405163a9059cbb60e01b81526001600160a01b0390921660048301526024820152948592839182906044820190565b03925af19182156107e9576107b5926107ba575b506123f7565b6106ba565b6107db9060203d6020116107e2575b6107d3818361217c565b81019061224e565b50386107af565b503d6107c9565b6040513d8f823e3d90fd5b634e487b7160e01b8e52601160045260248efd5b5096509790939650610691929194506002600160ff198284015416179101557f3d05ac2057427ac2f84502e7efefebf5ae10d9529129c2979ce60fb97d46061460408051868152836020820152a190388080610684565b5050610691906123f7565b60405162461bcd60e51b815260206004820152601860248201527f496e7374616c6c6d656e7420616c7265616479207061696400000000000000006044820152606490fd5b867fdc376abd09229a842ac7d8bcadc9017651f1f1b8490750870cae0ecd4aedf674608085876108e9818c6108e48a8661258c565b6123ea565b6040519283523360208401526040830152156060820152a180f35b50831515610644565b6109259060203d6020116107e2576107d3818361217c565b5038610631565b6040513d87823e3d90fd5b60405162461bcd60e51b815260206004820152601760248201527f4f6e6c7920626f72726f7765722063616e2072657061790000000000000000006044820152606490fd5b5034610168576020366003190112610168576004356001600160a01b03818116918290036105a6576109b3906008541633146124f5565b6001600160601b0360a01b600354161760035580f35b503461016857602090816003193601126101685790600435825260058152600c604083200180546109f981612266565b90610a07604051928361217c565b8082528382018093865284862086915b838310610a7b57505050506040519280840191818552518092526040840192945b828110610a455784840385f35b85518051855280830151858401526040808201511515908601526060908101519085015294810194608090930192600101610a38565b60048760019260409a9997989a51610a928161212e565b85548152848601548382015260ff60028701541615156040820152600386015460608201528152019201920191909694939596610a17565b50346101685760a03660031901126101685760643567ffffffffffffffff81116117b857610afc903690600401612073565b9060843567ffffffffffffffff81116117b457610b1d903690600401612073565b926004351561177e576024351561174657338552600660205260ff6040862054166116f55783810361169b5780156116605760146004350291600435830460140361113557610b71606484046004356123ea565b6009546040516323b872dd60e01b8152336004820152306024820152606480870460448301529296929091602091839182908c906001600160a01b03165af1801561165557611636575b509084929160405160208101903360601b825242603482015260348152610be181612160565b519020968789526005602052606460408a209689885560018801336001600160601b0360a01b825416179055600435600a89015586600289015504600387015560443560048701556024356005870155426007870155610c3f6121ea565b600887015560098601805460ff19166001179055600e86018590558893845b8181106113f55750505050500361139f57670de0b6b3a764000060443502906044358204670de0b6b3a76400001460443515171561138b57610ca46104b08304846122e1565b6104b08304670de0b6b3a764000001670de0b6b3a764000011611135576104b08304670de0b6b3a7640000011561137757610cf96024356104b08504670de0b6b3a764000001670de0b6b3a764000004612432565b670de0b6b3a76400000390670de0b6b3a7640000821161112157600691610d1f9161230a565b91015582845260056020526040842091670de0b6b3a764000081865b602435811061134d575081610d58610d5d926104b08704906122e1565b6122e1565b9080670de0b6b3a763ffff1981011161112157670de0b6b3a764000091610d8f91670de0b6b3a763ffff19019061230a565b0480600685015585915b60243583106111e5578686600754600160401b8110156111d157806001610dc392016007556120e1565b815460001960039290921b91821b19169083901b179055338252600660209081526040808420805460ff1916600190811790915583855260058352818520600a8101546009549254935163095ea7b360e01b81526001600160a01b039485166004820152602481018290529194909391929091839160449183918a91165af1801561092c576111b2575b50604051610e5a81612160565b6002815260403660208301376009546001600160a01b0316610e7b826122b0565b526002546001600160a01b0316610e91826122bd565b52600354604051633fabe5a360e21b81529060a090829060049082906001600160a01b03165afa9081156110ca57869161117e575b5085811315611149576305f5e1008084029084820414841517156111215790610eee9161230a565b80606281020460621481151715611135576001546001600160a01b0316914261012c8101106111215791610f4c9391878094604051968795869485936338ed173960e01b855261012c420192606460623094020490600487016123b1565b03925af1801561111657610f679185916110f4575b506122bd565b518284526005602090815260408086206002548754925163095ea7b360e01b81526001600160a01b0393841660048201526024810186905291939192839160449183918b91165af180156110ca576110d5575b50845460025486916001600160a01b039182169116803b156105a65760848392604051948593849263617ba03760e01b845260048401528860248401523060448401528160648401525af180156110ca57611099575b506080927faeec09af87559b9077da2e499d1fad2e228d7c24cb4b566fe61976820abaadda6060846002857f65410888fb30edd04f6acfb2f6cfd92aaf0ebb9b5303b6286d65d0b031b5b7f79997600d60039801550154906040519187835260208301526040820152a1015460405191825260043560208301526040820152336060820152a180f35b67ffffffffffffffff81969296116110b657604052936080611010565b634e487b7160e01b82526041600452602482fd5b6040513d88823e3d90fd5b6110ed9060203d6020116107e2576107d3818361217c565b5085610fba565b61111091503d8087833e611108818361217c565b810190612337565b85610f61565b6040513d86823e3d90fd5b634e487b7160e01b87526011600452602487fd5b634e487b7160e01b86526011600452602486fd5b60405162461bcd60e51b815260206004820152600d60248201526c496e76616c696420707269636560981b6044820152606490fd5b6111a0915060a03d60a0116111ab575b611198818361217c565b8101906121b5565b505050905086610ec6565b503d61118e565b6111ca9060203d6020116107e2576107d3818361217c565b5084610e4d565b634e487b7160e01b83526041600452602483fd5b670de0b6b3a76400006111fc6104b08604836122e1565b0490818311156113475761121082846123ea565b916024356000198101116113335760243560001901851461131e575b62278d00858181020481148615171561130a5761124b9086024261232a565b604051916112588361212e565b84835260208301528960408301526060820152600c870154600160401b8110156112f6578060016112929201600c8a0155600c89016124d9565b9190916112e257916112dc939160036060856112d69651845560208101516001850155600284016040820151151560ff8019835416911617905501519101556123ea565b926123f7565b91610d99565b634e487b7160e01b8a5260048a905260248afd5b634e487b7160e01b8a52604160045260248afd5b634e487b7160e01b8a52601160045260248afd5b925090508061132d838261232a565b9261122c565b634e487b7160e01b89526011600452602489fd5b87611210565b91670de0b6b3a764000061136b611372926104b088048301906122e1565b04926123f7565b610d3b565b634e487b7160e01b86526012600452602486fd5b634e487b7160e01b85526011600452602485fd5b60405162461bcd60e51b815260206004820152602860248201527f436f6c6c656374656420616d6f756e7420646f65736e2774206d6174636820706044820152671c9a5b98da5c185b60c21b6064820152608490fd5b90919293949550611407818386612406565b356001600160a01b038116810361163257611423828588612406565b359687156115f5578b90602061147960018060a01b03600954168b6040519586809481936323b872dd60e01b8352308b6004850160409194939294606082019560018060a01b0380921683521660208201520152565b03925af19081156107e957611495928a926115d6575b5061232a565b9660018060a01b0382168c52600460205260408c206114b582825461232a565b90556104b06114cc602435610d58604435856122e1565b0490604051928360a081011067ffffffffffffffff60a0860111176115c25760a0840160405260018060a01b03168352602083015260408201528a60608201528a6080820152600b880154600160401b8110156115ae578060016115399201600b8b0155600b8a01612416565b91909161159a57805182546001600160a01b0319166001600160a01b03919091161782556020810151600183015560408101516002830155606081015160038301556080015160049091015561158e906123f7565b90879594939291610c5e565b634e487b7160e01b8c5260048c905260248cfd5b634e487b7160e01b8c52604160045260248cfd5b634e487b7160e01b8e52604160045260248efd5b6115ee9060203d6020116107e2576107d3818361217c565b503861148f565b60405162461bcd60e51b8152602060048201526015602482015274125b9d985b1a59081b195b99195c88185b5bdd5b9d605a1b6044820152606490fd5b8a80fd5b61164e9060203d6020116107e2576107d3818361217c565b5038610bbb565b6040513d8a823e3d90fd5b60405162461bcd60e51b8152602060048201526013602482015272139bc81b195b99195c9cc81c1c9bdd9a591959606a1b6044820152606490fd5b60405162461bcd60e51b815260206004820152602c60248201527f4c656e6465722061646472657373657320616e6420616d6f756e7473206c656e60448201526b0cee8d040dad2e6dac2e8c6d60a31b6064820152608490fd5b60405162461bcd60e51b815260206004820152602360248201527f426f72726f77657220616c72656164792068617320616e20616374697665206c60448201526237b0b760e91b6064820152608490fd5b60405162461bcd60e51b815260206004820152601060248201526f24b73b30b634b210323ab930ba34b7b760811b6044820152606490fd5b60405162461bcd60e51b815260206004820152600e60248201526d125b9d985b1a5908185b5bdd5b9d60921b6044820152606490fd5b8380fd5b5080fd5b50346101685760406117d66117d036612058565b90612e86565b82519182526020820152f35b5034610168576020366003190112610168576004356001600160a01b03818116918290036105a657611819906008541633146124f5565b6001600160601b0360a01b600154161760015580f35b5034610168576020366003190112610168576004356001600160a01b03818116918290036105a657611866906008541633146124f5565b81546001600160a01b03191617815580f35b503461016857602036600319011261016857600d6040602092600435815260058452200154604051908152f35b5034610168576020366003190112610168576004356001600160a01b038116908190036117b8578160409160209352600483522054604051908152f35b5034610168576020806003193601126117b85760043560018060a01b0361190e816008541633146124f5565b8184526005835260408420926009908185019182549260ff61193181861661254b565b88908990600c8a018054925b838110611b7857505050506276a7001015611b1e5760ff1980941690556001808701938585541689526006845260408920908154169055600d87015480611b0e575b50600380880154600e89015491826119f3575b8a7fcab88a55906c5830a49dddd8b31d115294a5e6c4210f25fe140530a39c51dc748a8a8a5416906119ed6119c56121ea565b604080519384526001600160a01b039094166020840152928201929092529081906060820190565b0390a180f35b9091928099600b8c9101915b611a0a575b50611992565b8154811015611b0957611a1d8183612416565b50611a2f8c82015485830154906123ea565b8c8115611af85750670de0b6b3a7640000908181029081048203611ae4578796959493928f9192611a6d611a67611aa99b8e9661230a565b896122e1565b04918d808c541692541690604051809b8195829463a9059cbb60e01b84526004840160209093929193604081019460018060a01b031681520152565b03925af19081156107e9578c96611ac492611ace57506123f7565b90919293946119ff565b6107db908a3d8c116107e2576107d3818361217c565b634e487b7160e01b8f52601160045260248ffd5b96959493929050611ac491506123f7565b611a04565b611b189087612a04565b3861197f565b60405162461bcd60e51b815260048101849052602c60248201527f4c6f616e206973206e6f74206f766572647565206265796f6e642033206d6f6e60448201526b1d1a1cc81a5b881d1bdd185b60a21b6064820152608490fd5b611b8281836124d9565b5083600282015416611b9a5760030154804211611ba9575b50611ba4906123f7565b61193d565b611ba49195611bbb611bc192426123ea565b9061232a565b9490611b9a565b5034610168576020366003190112610168576004356001600160a01b038116908190036117b85760408260ff9260209452600684522054166040519015158152f35b5034610168576020806003193601126117b85790600435815260058252600c6040822001805491611c3a8361227e565b92611c448161227e565b611c4d82612266565b91611c5b604051938461217c565b808352611c6781612266565b8388019590601f1901368737845b828110611ce3575050509480611ca9611c9c9760405198899860608a5260608a0190612024565b90888203848a0152612024565b92868403604088015251928381520193925b828110611cca57505050500390f35b8351151585528695509381019392810192600101611cbb565b8060ff6002611cfb611d3094869d9a999b9c9d6124d9565b508054611d08858f6122cd565b526001810154611d18858a6122cd565b52015416611d26828a6122cd565b90151590526123f7565b979695939497611c75565b50346101685780600319360112610168576009546040516001600160a01b039091168152602090f35b50346101685780600319360112610168576002546040516001600160a01b039091168152602090f35b503461016857602036600319011261016857611db460018060a01b036008541633146124f5565b600435815260056020526040812060098101805491611dd560ff841661254b565b611ddd6121ea565b91600d82016305f5e100611df28583546122e1565b0491600e8401928354606981029080820460691490151715611333576064900410611fc15760ff1995861690556001830180546001600160a01b0316875260066020526040872080549096169095555480611faf575b50600382015490549182611ea7575b505091546040805160043581526001600160a01b0390921660208301528101919091527fcab88a55906c5830a49dddd8b31d115294a5e6c4210f25fe140530a39c51dc74915080606081016119ed565b909192855b600b830154811015611f8257611ec581600b8501612416565b50611ed960018201546003830154906123ea565b8015611f775780670de0b6b3a7640000810204670de0b6b3a76400000361133357611f599291670de0b6b3a7640000611f19611a678a836020960261230a565b600954925460405163a9059cbb60e01b81526001600160a01b039182166004820152929091046024830152909485929091169082908c9082906044820190565b03925af191821561165557611f72926107ba57506123f7565b611eac565b5050611f72906123f7565b50925050507fcab88a55906c5830a49dddd8b31d115294a5e6c4210f25fe140530a39c51dc743880611e57565b611fbb90600435612a04565b38611e48565b60405162461bcd60e51b815260206004820152603560248201527f4254432076616c756520686173206e6f742064726f707065642062656c6f77206044820152741b1a5c5d5a59185d1a5bdb881d1a1c995cda1bdb19605a1b6064820152608490fd5b90815180825260208080930193019160005b828110612044575050505090565b835185529381019392810192600101612036565b604090600319011261206e576004359060243590565b600080fd5b9181601f8401121561206e5782359167ffffffffffffffff831161206e576020808501948460051b01011161206e57565b90815180825260208080930193019160005b8281106120c4575050505090565b83516001600160a01b0316855293810193928101926001016120b6565b6007548110156121185760076000527fa66cc928b5edb82af9bd49922954155ab7b0942694bea4ce44661d9a8736c6880190600090565b634e487b7160e01b600052603260045260246000fd5b6080810190811067ffffffffffffffff82111761214a57604052565b634e487b7160e01b600052604160045260246000fd5b6060810190811067ffffffffffffffff82111761214a57604052565b90601f8019910116810190811067ffffffffffffffff82111761214a57604052565b519069ffffffffffffffffffff8216820361206e57565b908160a091031261206e576121c98161219e565b916020820151916040810151916121e760806060840151930161219e565b90565b600354604051633fabe5a360e21b81529060a090829060049082906001600160a01b03165afa90811561224257600091612222575090565b61223a915060a03d81116111ab57611198818361217c565b505050905090565b6040513d6000823e3d90fd5b9081602091031261206e5751801515810361206e5790565b67ffffffffffffffff811161214a5760051b60200190565b9061228882612266565b612295604051918261217c565b82815280926122a6601f1991612266565b0190602036910137565b8051156121185760200190565b8051600110156121185760400190565b80518210156121185760209160051b010190565b818102929181159184041417156122f457565b634e487b7160e01b600052601160045260246000fd5b8115612314570490565b634e487b7160e01b600052601260045260246000fd5b919082018092116122f457565b602090818184031261206e5780519067ffffffffffffffff821161206e57019180601f8401121561206e57825161236d81612266565b9361237b604051958661217c565b818552838086019260051b82010192831161206e578301905b8282106123a2575050505090565b81518152908301908301612394565b91926080936123d692979695978452602084015260a0604084015260a08301906120a4565b6001600160a01b0390951660608201520152565b919082039182116122f457565b60001981146122f45760010190565b91908110156121185760051b0190565b8054821015612118576000526005602060002091020190600090565b9080156124d25781156124cb5781806001146124c3576002146124b25760208110610133831016604e8210600b841016176124ad57600190815b808211612484575050816000190481116122f4570290565b9092806000190481116122f4578184166124a4575b800292811c9061246c565b80920291612499565b900a90565b905060ff81116122f4576001901b90565b505050600190565b5050600090565b5050600190565b80548210156121185760005260206000209060021b0190600090565b156124fc57565b60405162461bcd60e51b815260206004820152602160248201527f4f6e6c79206f776e65722063616e2063616c6c20746869732066756e6374696f6044820152603760f91b6064820152608490fd5b1561255257565b60405162461bcd60e51b81526020600482015260126024820152714c6f616e206973206e6f742061637469766560701b6044820152606490fd5b9060009180835260206005815260408085209380158080156129f8575b80156129ec575b6125ef576305f5e100808302928304141715611135576125d7600d9160088701549061230a565b94019485548086116129e4575b5084159182156125f8575b50505050505050565b8482526005845280822093600d85019384548811612992576129505760018060a01b03928360025416938351956370a0823160e01b9788885260049230848a0152602492868a85818c5afa998a156128e857869a612921575b50868d6064848954169b898c519d8e948593631a4ca37b60e21b85528c8501528a8401523060448401525af19889156128e85786996128f2575b508682600254169b858a51809e81938252308a8301525afa9a8b156128e857869b6128b5575b50898b111561286857881561282657612710928792826126d38c8095546123ea565b90556001816002541692015416878a5180968195829463a9059cbb60e01b84528b840160209093929193604081019460018060a01b031681520152565b03925af190811561281c5784916127ff575b50156127bd57505092828860a096937f38a556a122683cb48d496614a7a03605b6c2c0482342924caf483386980ecc9f60806127af9c9b987f971c7ec4a7c96c0a198687499279ccf05d9699970007b5ae5017b1177ee02ed39b9851908a8252858583015286820152866060820152a1825196875286015284015260608301526080820152a182546123ea565b9055388080808080806125ef565b845162461bcd60e51b8152918201849052601b908201527f5472616e7366657220746f20626f72726f776572206661696c656400000000006044820152606490fd5b6128169150853d87116107e2576107d3818361217c565b38612722565b86513d86823e3d90fd5b875162461bcd60e51b8152808601889052601c818601527f556e7374616b652072657475726e6564207a65726f20746f6b656e73000000006044820152606490fd5b875162461bcd60e51b81528086018890526022818601527f5769746864726177616c206469646e277420696e6372656173652062616c616e604482015261636560f01b6064820152608490fd5b909a508681813d83116128e1575b6128cd818361217c565b810103126128dd575199386126b1565b8580fd5b503d6128c3565b88513d88823e3d90fd5b9098508681813d831161291a575b61290a818361217c565b810103126128dd5751973861268b565b503d612900565b9099508681813d8311612949575b612939818361217c565b810103126128dd57519838612651565b503d61292f565b606491519062461bcd60e51b82526004820152601a60248201527f43616e6e6f7420756e7374616b65207a65726f20616d6f756e740000000000006044820152fd5b50608491519062461bcd60e51b82526004820152602660248201527f43616e6e6f7420756e7374616b65206d6f7265207468616e207374616b656420604482015265185b5bdd5b9d60d21b6064820152fd5b9450386125e4565b50600d860154156125b0565b506008860154156125a9565b90600090828252602091600583526040600d818320019283548111612e33578015612def5760025482516370a0823160e01b808252306004808401919091529097919691926001600160a01b03926024918416858a8481845afa998a15612de557899a612db2575b5090858594939260648b97885416918b519c8d938492631a4ca37b60e21b8452898401528c888401523060448401525af1988915612cb7578599612d83575b508584600254169b838a51809e8193825230888301525afa9a8b15612cb757859b612d50575b50898b1115612d03578815612cc157612aeb8982546123ea565b9055600254600154885163095ea7b360e01b81529085166001600160a01b0316848201908152602081018b905290918791839187169082908990829060400103925af18015612cb757612c9a575b50865191612b4683612160565b600283528736878501378360025416612b5e846122b0565b528360095416612b6d846122bd565b52605f890293898504605f03612c8857600154169161012c420190814211612c77575090858a612bba829695948c51988997889687956338ed173960e01b875260643094049187016123b1565b03925af1908115612c6d57608083612c247f971c7ec4a7c96c0a198687499279ccf05d9699970007b5ae5017b1177ee02ed39c9a9896947f38a556a122683cb48d496614a7a03605b6c2c0482342924caf483386980ecc9f9460a09d9b999791612c5357506122bd565b51908651918b83528686840152878301526060820152a1825196875286015284015260608301526080820152a1565b612c6791503d8085833e611108818361217c565b38610f61565b85513d84823e3d90fd5b634e487b7160e01b87526011835286fd5b50634e487b7160e01b85526011905283fd5b612cb090863d88116107e2576107d3818361217c565b5038612b39565b88513d87823e3d90fd5b875162461bcd60e51b8152808401879052601c818401527f556e7374616b652072657475726e6564207a65726f20746f6b656e73000000006044820152606490fd5b875162461bcd60e51b81528084018790526022818401527f5769746864726177616c206469646e277420696e6372656173652062616c616e604482015261636560f01b6064820152608490fd5b909a508581813d8311612d7c575b612d68818361217c565b81010312612d7857519938612ad1565b8480fd5b503d612d5e565b9098508581813d8311612dab575b612d9b818361217c565b81010312612d7857519738612aab565b503d612d91565b9099508581813d8311612dde575b612dca818361217c565b81010312612dda57519885612a6c565b8880fd5b503d612dc0565b88513d8b823e3d90fd5b815162461bcd60e51b815260048101869052601a60248201527f43616e6e6f7420756e7374616b65207a65726f20616d6f756e740000000000006044820152606490fd5b815162461bcd60e51b815260048101869052602660248201527f43616e6e6f7420756e7374616b65206d6f7265207468616e207374616b656420604482015265185b5bdd5b9d60d21b6064820152608490fd5b600090815260056020526040812060028101549093928115612ef057670de0b6b3a76400009283820291808304851490151715612edc575093612ece612ed892600d9661230a565b94859101546122e1565b0490565b634e487b7160e01b81526011600452602490fd5b5050809250919056fea26469706673582212203ea5e433c08d2f3e4cc6d5e055bac316b39eea6e1a0044ff18d4b3f7fd4911af64736f6c63430008140033","opcodes":"PUSH1 0x80 CALLVALUE PUSH3 0xEC JUMPI PUSH1 0x1F PUSH3 0x304C CODESIZE DUP2 SWAP1 SUB SWAP2 DUP3 ADD PUSH1 0x1F NOT AND DUP4 ADD SWAP2 PUSH1 0x1 PUSH1 0x1 PUSH1 0x40 SHL SUB DUP4 GT DUP5 DUP5 LT OR PUSH3 0xF1 JUMPI DUP1 DUP5 SWAP3 PUSH1 0xA0 SWAP5 PUSH1 0x40 MSTORE DUP4 CODECOPY DUP2 ADD SUB SLT PUSH3 0xEC JUMPI PUSH3 0x4D DUP2 PUSH3 0x107 JUMP JUMPDEST SWAP1 PUSH3 0x5C PUSH1 0x20 DUP3 ADD PUSH3 0x107 JUMP JUMPDEST SWAP1 PUSH3 0x6B PUSH1 0x40 DUP3 ADD PUSH3 0x107 JUMP JUMPDEST SWAP2 PUSH3 0x88 PUSH1 0x80 PUSH3 0x80 PUSH1 0x60 DUP6 ADD PUSH3 0x107 JUMP JUMPDEST SWAP4 ADD PUSH3 0x107 JUMP JUMPDEST SWAP2 PUSH1 0x1 DUP1 PUSH1 0xA0 SHL SUB NOT SWAP5 CALLER DUP7 PUSH1 0x8 SLOAD AND OR PUSH1 0x8 SSTORE PUSH1 0x1 DUP1 PUSH1 0xA0 SHL SUB SWAP5 DUP6 DUP1 SWAP5 DUP2 DUP1 SWAP5 AND DUP10 PUSH1 0x9 SLOAD AND OR PUSH1 0x9 SSTORE AND DUP8 PUSH1 0x2 SLOAD AND OR PUSH1 0x2 SSTORE AND DUP6 PUSH1 0x3 SLOAD AND OR PUSH1 0x3 SSTORE AND DUP4 PUSH1 0x0 SLOAD AND OR PUSH1 0x0 SSTORE AND SWAP1 PUSH1 0x1 SLOAD AND OR PUSH1 0x1 SSTORE PUSH1 0x40 MLOAD PUSH2 0x2F2F SWAP1 DUP2 PUSH3 0x11D DUP3 CODECOPY RETURN JUMPDEST PUSH1 0x0 DUP1 REVERT JUMPDEST PUSH4 0x4E487B71 PUSH1 0xE0 SHL PUSH1 0x0 MSTORE PUSH1 0x41 PUSH1 0x4 MSTORE PUSH1 0x24 PUSH1 0x0 REVERT JUMPDEST MLOAD SWAP1 PUSH1 0x1 PUSH1 0x1 PUSH1 0xA0 SHL SUB DUP3 AND DUP3 SUB PUSH3 0xEC JUMPI JUMP INVALID PUSH1 0x80 PUSH1 0x40 MSTORE PUSH1 0x4 CALLDATASIZE LT ISZERO PUSH2 0x12 JUMPI PUSH1 0x0 DUP1 REVERT JUMPDEST PUSH1 0x0 DUP1 CALLDATALOAD PUSH1 0xE0 SHR DUP1 PUSH4 0xA71096E EQ PUSH2 0x1D8D JUMPI DUP1 PUSH4 0xE462386 EQ PUSH2 0x1D64 JUMPI DUP1 PUSH4 0x11EAC855 EQ PUSH2 0x1D3B JUMPI DUP1 PUSH4 0x1FC8F4DF EQ PUSH2 0x1C0A JUMPI DUP1 PUSH4 0x21D4F8DB EQ PUSH2 0x1BC8 JUMPI DUP1 PUSH4 0x28830D47 EQ PUSH2 0x18E2 JUMPI DUP1 PUSH4 0x28FD10D7 EQ PUSH2 0x18A5 JUMPI DUP1 PUSH4 0x337A1737 EQ PUSH2 0x1878 JUMPI DUP1 PUSH4 0x349F937C EQ PUSH2 0x182F JUMPI DUP1 PUSH4 0x41273657 EQ PUSH2 0x17E2 JUMPI DUP1 PUSH4 0x5206D2D0 EQ PUSH2 0x17BC JUMPI DUP1 PUSH4 0x66FB6E5A EQ PUSH2 0xACA JUMPI DUP1 PUSH4 0x6C1945AE EQ PUSH2 0x9C9 JUMPI DUP1 PUSH4 0x7A9B0412 EQ PUSH2 0x97C JUMPI DUP1 PUSH4 0x80F2122C EQ PUSH2 0x5AA JUMPI DUP1 PUSH4 0x83CD8FCF EQ PUSH2 0x559 JUMPI DUP1 PUSH4 0x86A2E274 EQ PUSH2 0x427 JUMPI DUP1 PUSH4 0x8DA5CB5B EQ PUSH2 0x3FE JUMPI DUP1 PUSH4 0x98D5FDCA EQ PUSH2 0x3DB JUMPI DUP1 PUSH4 0xA03E4BC3 EQ PUSH2 0x3B4 JUMPI DUP1 PUSH4 0xC31C9C07 EQ PUSH2 0x38B JUMPI DUP1 PUSH4 0xC4A90815 EQ PUSH2 0x2CD JUMPI DUP1 PUSH4 0xC9642D2A EQ PUSH2 0x194 JUMPI DUP1 PUSH4 0xEF06E72C EQ PUSH2 0x16B JUMPI PUSH4 0xF8715A42 EQ PUSH2 0x130 JUMPI PUSH1 0x0 DUP1 REVERT JUMPDEST CALLVALUE PUSH2 0x168 JUMPI PUSH1 0x20 CALLDATASIZE PUSH1 0x3 NOT ADD SLT PUSH2 0x168 JUMPI PUSH1 0x4 CALLDATALOAD SWAP1 PUSH1 0x7 SLOAD DUP3 LT ISZERO PUSH2 0x168 JUMPI PUSH1 0x20 PUSH2 0x15A DUP4 PUSH2 0x20E1 JUMP JUMPDEST SWAP1 SLOAD PUSH1 0x40 MLOAD SWAP2 PUSH1 0x3 SHL SHR DUP2 MSTORE RETURN JUMPDEST DUP1 REVERT JUMPDEST POP CALLVALUE PUSH2 0x168 JUMPI DUP1 PUSH1 0x3 NOT CALLDATASIZE ADD SLT PUSH2 0x168 JUMPI PUSH1 0x3 SLOAD PUSH1 0x40 MLOAD PUSH1 0x1 PUSH1 0x1 PUSH1 0xA0 SHL SUB SWAP1 SWAP2 AND DUP2 MSTORE PUSH1 0x20 SWAP1 RETURN JUMPDEST POP CALLVALUE PUSH2 0x168 JUMPI PUSH2 0x1A3 CALLDATASIZE PUSH2 0x2058 JUMP JUMPDEST SWAP1 PUSH2 0x1B9 PUSH1 0x1 DUP1 PUSH1 0xA0 SHL SUB PUSH1 0x8 SLOAD AND CALLER EQ PUSH2 0x24F5 JUMP JUMPDEST DUP1 DUP4 MSTORE PUSH1 0x5 PUSH1 0x20 MSTORE PUSH1 0xC PUSH1 0x40 DUP5 KECCAK256 PUSH2 0x1D7 PUSH1 0xFF PUSH1 0x9 DUP4 ADD SLOAD AND PUSH2 0x254B JUMP JUMPDEST ADD SWAP1 DUP2 SLOAD DUP4 LT ISZERO PUSH2 0x288 JUMPI PUSH1 0xFF PUSH1 0x2 PUSH2 0x1F0 DUP6 DUP6 PUSH2 0x24D9 JUMP JUMPDEST POP ADD SLOAD AND PUSH2 0x243 JUMPI DUP3 PUSH1 0x2 PUSH2 0x228 PUSH32 0x3D05AC2057427AC2F84502E7EFEFEBF5AE10D9529129C2979CE60FB97D460614 SWAP6 PUSH1 0x40 SWAP6 PUSH2 0x24D9 JUMP JUMPDEST POP ADD DUP1 SLOAD PUSH1 0xFF NOT AND PUSH1 0x1 OR SWAP1 SSTORE DUP3 MLOAD SWAP2 DUP3 MSTORE PUSH1 0x20 DUP3 ADD MSTORE LOG1 DUP1 RETURN JUMPDEST PUSH1 0x40 MLOAD PUSH3 0x461BCD PUSH1 0xE5 SHL DUP2 MSTORE PUSH1 0x20 PUSH1 0x4 DUP3 ADD MSTORE PUSH1 0x1F PUSH1 0x24 DUP3 ADD MSTORE PUSH32 0x496E7374616C6C6D656E7420616C7265616479206D61726B6564207061696400 PUSH1 0x44 DUP3 ADD MSTORE PUSH1 0x64 SWAP1 REVERT JUMPDEST PUSH1 0x40 MLOAD PUSH3 0x461BCD PUSH1 0xE5 SHL DUP2 MSTORE PUSH1 0x20 PUSH1 0x4 DUP3 ADD MSTORE PUSH1 0x19 PUSH1 0x24 DUP3 ADD MSTORE PUSH32 0x496E76616C696420696E7374616C6C6D656E7420696E64657800000000000000 PUSH1 0x44 DUP3 ADD MSTORE PUSH1 0x64 SWAP1 REVERT JUMPDEST POP CALLVALUE PUSH2 0x168 JUMPI PUSH1 0x20 CALLDATASIZE PUSH1 0x3 NOT ADD SLT PUSH2 0x168 JUMPI PUSH1 0x40 PUSH2 0x1A0 SWAP2 PUSH1 0x4 CALLDATALOAD DUP2 MSTORE PUSH1 0x5 PUSH1 0x20 MSTORE KECCAK256 DUP1 SLOAD SWAP1 PUSH1 0x1 DUP1 PUSH1 0xA0 SHL SUB PUSH1 0x1 DUP3 ADD SLOAD AND SWAP1 PUSH1 0x2 DUP2 ADD SLOAD PUSH1 0x3 DUP3 ADD SLOAD PUSH1 0x4 DUP4 ADD SLOAD PUSH1 0x5 DUP5 ADD SLOAD PUSH1 0x6 DUP6 ADD SLOAD PUSH1 0x7 DUP7 ADD SLOAD SWAP2 PUSH1 0x8 DUP8 ADD SLOAD SWAP4 PUSH1 0xFF PUSH1 0x9 DUP10 ADD SLOAD AND SWAP6 PUSH1 0xA DUP10 ADD SLOAD SWAP8 PUSH1 0xE PUSH1 0xD DUP12 ADD SLOAD SWAP11 ADD SLOAD SWAP11 PUSH1 0x40 MLOAD SWAP13 DUP14 MSTORE PUSH1 0x20 DUP14 ADD MSTORE PUSH1 0x40 DUP13 ADD MSTORE PUSH1 0x60 DUP12 ADD MSTORE PUSH1 0x80 DUP11 ADD MSTORE PUSH1 0xA0 DUP10 ADD MSTORE PUSH1 0xC0 DUP9 ADD MSTORE PUSH1 0xE0 DUP8 ADD MSTORE PUSH2 0x100 DUP7 ADD MSTORE ISZERO ISZERO PUSH2 0x120 DUP6 ADD MSTORE PUSH2 0x140 DUP5 ADD MSTORE PUSH2 0x160 DUP4 ADD MSTORE PUSH2 0x180 DUP3 ADD MSTORE RETURN JUMPDEST POP CALLVALUE PUSH2 0x168 JUMPI DUP1 PUSH1 0x3 NOT CALLDATASIZE ADD SLT PUSH2 0x168 JUMPI PUSH1 0x1 SLOAD PUSH1 0x40 MLOAD PUSH1 0x1 PUSH1 0x1 PUSH1 0xA0 SHL SUB SWAP1 SWAP2 AND DUP2 MSTORE PUSH1 0x20 SWAP1 RETURN JUMPDEST POP CALLVALUE PUSH2 0x168 JUMPI DUP1 PUSH1 0x3 NOT CALLDATASIZE ADD SLT PUSH2 0x168 JUMPI SLOAD PUSH1 0x40 MLOAD PUSH1 0x1 PUSH1 0x1 PUSH1 0xA0 SHL SUB SWAP1 SWAP2 AND DUP2 MSTORE PUSH1 0x20 SWAP1 RETURN JUMPDEST POP CALLVALUE PUSH2 0x168 JUMPI DUP1 PUSH1 0x3 NOT CALLDATASIZE ADD SLT PUSH2 0x168 JUMPI PUSH1 0x20 PUSH2 0x3F6 PUSH2 0x21EA JUMP JUMPDEST PUSH1 0x40 MLOAD SWAP1 DUP2 MSTORE RETURN JUMPDEST POP CALLVALUE PUSH2 0x168 JUMPI DUP1 PUSH1 0x3 NOT CALLDATASIZE ADD SLT PUSH2 0x168 JUMPI PUSH1 0x8 SLOAD PUSH1 0x40 MLOAD PUSH1 0x1 PUSH1 0x1 PUSH1 0xA0 SHL SUB SWAP1 SWAP2 AND DUP2 MSTORE PUSH1 0x20 SWAP1 RETURN JUMPDEST POP CALLVALUE PUSH2 0x168 JUMPI PUSH1 0x20 CALLDATASIZE PUSH1 0x3 NOT ADD SLT PUSH2 0x168 JUMPI PUSH1 0x4 CALLDATALOAD DUP2 MSTORE PUSH1 0x5 PUSH1 0x20 MSTORE PUSH1 0xB PUSH1 0x40 DUP3 KECCAK256 ADD SWAP1 DUP2 SLOAD SWAP1 PUSH2 0x457 DUP3 PUSH2 0x227E JUMP JUMPDEST SWAP2 PUSH2 0x461 DUP2 PUSH2 0x227E JUMP JUMPDEST PUSH2 0x46A DUP3 PUSH2 0x227E JUMP JUMPDEST SWAP1 PUSH2 0x474 DUP4 PUSH2 0x227E JUMP JUMPDEST SWAP3 PUSH2 0x47E DUP2 PUSH2 0x227E JUMP JUMPDEST SWAP5 JUMPDEST DUP2 DUP2 LT PUSH2 0x4EB JUMPI PUSH2 0x4AF DUP8 PUSH2 0x4E7 DUP9 PUSH2 0x4D9 DUP10 PUSH2 0x4CB DUP11 PUSH2 0x4BD DUP12 PUSH1 0x40 MLOAD SWAP10 DUP11 SWAP10 PUSH1 0xA0 DUP12 MSTORE PUSH1 0xA0 DUP12 ADD SWAP1 PUSH2 0x20A4 JUMP JUMPDEST SWAP1 DUP10 DUP3 SUB PUSH1 0x20 DUP12 ADD MSTORE PUSH2 0x2024 JUMP JUMPDEST SWAP1 DUP8 DUP3 SUB PUSH1 0x40 DUP10 ADD MSTORE PUSH2 0x2024 JUMP JUMPDEST SWAP1 DUP6 DUP3 SUB PUSH1 0x60 DUP8 ADD MSTORE PUSH2 0x2024 JUMP JUMPDEST SWAP1 DUP4 DUP3 SUB PUSH1 0x80 DUP6 ADD MSTORE PUSH2 0x2024 JUMP JUMPDEST SUB SWAP1 RETURN JUMPDEST DUP1 PUSH1 0x4 PUSH2 0x4FB PUSH2 0x554 SWAP4 DUP12 PUSH2 0x2416 JUMP JUMPDEST POP DUP1 SLOAD PUSH1 0x1 PUSH1 0x1 PUSH1 0xA0 SHL SUB AND PUSH2 0x511 DUP5 DUP13 PUSH2 0x22CD JUMP JUMPDEST MSTORE PUSH1 0x1 DUP2 ADD SLOAD PUSH2 0x521 DUP5 DUP9 PUSH2 0x22CD JUMP JUMPDEST MSTORE PUSH1 0x2 DUP2 ADD SLOAD PUSH2 0x531 DUP5 DUP10 PUSH2 0x22CD JUMP JUMPDEST MSTORE PUSH1 0x3 DUP2 ADD SLOAD PUSH2 0x541 DUP5 DUP11 PUSH2 0x22CD JUMP JUMPDEST MSTORE ADD SLOAD PUSH2 0x54E DUP3 DUP10 PUSH2 0x22CD JUMP JUMPDEST MSTORE PUSH2 0x23F7 JUMP JUMPDEST PUSH2 0x480 JUMP JUMPDEST POP CALLVALUE PUSH2 0x168 JUMPI PUSH1 0x20 CALLDATASIZE PUSH1 0x3 NOT ADD SLT PUSH2 0x168 JUMPI PUSH1 0x4 CALLDATALOAD PUSH1 0x1 PUSH1 0x1 PUSH1 0xA0 SHL SUB DUP2 DUP2 AND SWAP2 DUP3 SWAP1 SUB PUSH2 0x5A6 JUMPI PUSH2 0x590 SWAP1 PUSH1 0x8 SLOAD AND CALLER EQ PUSH2 0x24F5 JUMP JUMPDEST PUSH1 0x1 PUSH1 0x1 PUSH1 0x60 SHL SUB PUSH1 0xA0 SHL PUSH1 0x2 SLOAD AND OR PUSH1 0x2 SSTORE DUP1 RETURN JUMPDEST DUP3 DUP1 REVERT JUMPDEST POP CALLVALUE PUSH2 0x168 JUMPI PUSH2 0x5B9 CALLDATASIZE PUSH2 0x2058 JUMP JUMPDEST SWAP1 DUP1 DUP4 MSTORE PUSH1 0x5 PUSH1 0x20 MSTORE PUSH1 0x40 DUP4 KECCAK256 SWAP1 PUSH2 0x5D7 PUSH1 0xFF PUSH1 0x9 DUP5 ADD SLOAD AND PUSH2 0x254B JUMP JUMPDEST PUSH1 0x1 DUP3 ADD SLOAD PUSH1 0x1 PUSH1 0x1 PUSH1 0xA0 SHL SUB AND CALLER SUB PUSH2 0x937 JUMPI PUSH1 0x9 SLOAD PUSH1 0x40 MLOAD PUSH4 0x23B872DD PUSH1 0xE0 SHL DUP2 MSTORE CALLER PUSH1 0x4 DUP3 ADD MSTORE ADDRESS PUSH1 0x24 DUP3 ADD MSTORE PUSH1 0x44 DUP2 ADD DUP6 SWAP1 MSTORE SWAP1 PUSH1 0x20 SWAP1 DUP3 SWAP1 PUSH1 0x64 SWAP1 DUP3 SWAP1 DUP10 SWAP1 PUSH1 0x1 PUSH1 0x1 PUSH1 0xA0 SHL SUB AND GAS CALL DUP1 ISZERO PUSH2 0x92C JUMPI PUSH2 0x90D JUMPI JUMPDEST POP DUP3 SWAP1 DUP5 DUP6 JUMPDEST PUSH1 0xC DUP6 ADD SLOAD DUP2 LT DUP1 PUSH2 0x904 JUMPI JUMPDEST ISZERO PUSH2 0x8AF JUMPI PUSH2 0x656 DUP2 PUSH1 0xC DUP8 ADD PUSH2 0x24D9 JUMP JUMPDEST POP DUP1 SLOAD DUP1 ISZERO PUSH2 0x86A JUMPI PUSH1 0xFF PUSH1 0x2 DUP4 ADD SLOAD AND PUSH2 0x85F JUMPI PUSH1 0x1 DUP3 ADD SLOAD SWAP1 PUSH2 0x67B DUP3 DUP3 PUSH2 0x232A JUMP JUMPDEST DUP1 DUP9 LT ISZERO PUSH2 0x696 JUMPI JUMPDEST POP POP POP POP PUSH2 0x691 SWAP1 PUSH2 0x23F7 JUMP JUMPDEST PUSH2 0x637 JUMP JUMPDEST SWAP1 PUSH2 0x6AB PUSH2 0x6B1 SWAP3 DUP3 SWAP9 SWAP6 SWAP12 SWAP5 SWAP11 SWAP8 SWAP10 PUSH2 0x23EA JUMP JUMPDEST SWAP8 PUSH2 0x232A JUMP JUMPDEST SWAP1 PUSH1 0x2 DUP6 ADD SLOAD SWAP7 DUP11 JUMPDEST PUSH1 0xB DUP8 ADD SLOAD DUP2 LT ISZERO PUSH2 0x808 JUMPI PUSH2 0x6D3 DUP2 PUSH1 0xB DUP10 ADD PUSH2 0x2416 JUMP JUMPDEST POP PUSH1 0x1 DUP2 ADD SLOAD DUP1 PUSH8 0xDE0B6B3A7640000 DUP2 MUL DIV PUSH8 0xDE0B6B3A7640000 EQ DUP2 ISZERO OR ISZERO PUSH2 0x7F4 JUMPI DUP14 PUSH2 0x79B SWAP4 SWAP3 DUP14 PUSH2 0x76B PUSH8 0xDE0B6B3A7640000 DUP16 DUP16 DUP3 PUSH2 0x729 PUSH2 0x722 PUSH2 0x730 SWAP5 DUP4 PUSH1 0x20 SWAP13 MUL PUSH2 0x230A JUMP JUMPDEST DUP1 SWAP4 PUSH2 0x22E1 JUMP JUMPDEST DIV SWAP5 PUSH2 0x22E1 JUMP JUMPDEST DIV PUSH1 0x3 DUP5 ADD PUSH2 0x740 DUP5 DUP3 SLOAD PUSH2 0x232A JUMP JUMPDEST SWAP1 SSTORE PUSH1 0x4 DUP5 ADD PUSH2 0x751 DUP3 DUP3 SLOAD PUSH2 0x232A JUMP JUMPDEST SWAP1 SSTORE PUSH1 0x9 SLOAD SWAP4 SLOAD PUSH1 0x1 PUSH1 0x1 PUSH1 0xA0 SHL SUB SWAP5 DUP6 AND SWAP5 AND SWAP3 PUSH2 0x232A JUMP JUMPDEST PUSH1 0x40 MLOAD PUSH4 0xA9059CBB PUSH1 0xE0 SHL DUP2 MSTORE PUSH1 0x1 PUSH1 0x1 PUSH1 0xA0 SHL SUB SWAP1 SWAP3 AND PUSH1 0x4 DUP4 ADD MSTORE PUSH1 0x24 DUP3 ADD MSTORE SWAP5 DUP6 SWAP3 DUP4 SWAP2 DUP3 SWAP1 PUSH1 0x44 DUP3 ADD SWAP1 JUMP JUMPDEST SUB SWAP3 GAS CALL SWAP2 DUP3 ISZERO PUSH2 0x7E9 JUMPI PUSH2 0x7B5 SWAP3 PUSH2 0x7BA JUMPI JUMPDEST POP PUSH2 0x23F7 JUMP JUMPDEST PUSH2 0x6BA JUMP JUMPDEST PUSH2 0x7DB SWAP1 PUSH1 0x20 RETURNDATASIZE PUSH1 0x20 GT PUSH2 0x7E2 JUMPI JUMPDEST PUSH2 0x7D3 DUP2 DUP4 PUSH2 0x217C JUMP JUMPDEST DUP2 ADD SWAP1 PUSH2 0x224E JUMP JUMPDEST POP CODESIZE PUSH2 0x7AF JUMP JUMPDEST POP RETURNDATASIZE PUSH2 0x7C9 JUMP JUMPDEST PUSH1 0x40 MLOAD RETURNDATASIZE DUP16 DUP3 RETURNDATACOPY RETURNDATASIZE SWAP1 REVERT JUMPDEST PUSH4 0x4E487B71 PUSH1 0xE0 SHL DUP15 MSTORE PUSH1 0x11 PUSH1 0x4 MSTORE PUSH1 0x24 DUP15 REVERT JUMPDEST POP SWAP7 POP SWAP8 SWAP1 SWAP4 SWAP7 POP PUSH2 0x691 SWAP3 SWAP2 SWAP5 POP PUSH1 0x2 PUSH1 0x1 PUSH1 0xFF NOT DUP3 DUP5 ADD SLOAD AND OR SWAP2 ADD SSTORE PUSH32 0x3D05AC2057427AC2F84502E7EFEFEBF5AE10D9529129C2979CE60FB97D460614 PUSH1 0x40 DUP1 MLOAD DUP7 DUP2 MSTORE DUP4 PUSH1 0x20 DUP3 ADD MSTORE LOG1 SWAP1 CODESIZE DUP1 DUP1 PUSH2 0x684 JUMP JUMPDEST POP POP PUSH2 0x691 SWAP1 PUSH2 0x23F7 JUMP JUMPDEST PUSH1 0x40 MLOAD PUSH3 0x461BCD PUSH1 0xE5 SHL DUP2 MSTORE PUSH1 0x20 PUSH1 0x4 DUP3 ADD MSTORE PUSH1 0x18 PUSH1 0x24 DUP3 ADD MSTORE PUSH32 0x496E7374616C6C6D656E7420616C726561647920706169640000000000000000 PUSH1 0x44 DUP3 ADD MSTORE PUSH1 0x64 SWAP1 REVERT JUMPDEST DUP7 PUSH32 0xDC376ABD09229A842AC7D8BCADC9017651F1F1B8490750870CAE0ECD4AEDF674 PUSH1 0x80 DUP6 DUP8 PUSH2 0x8E9 DUP2 DUP13 PUSH2 0x8E4 DUP11 DUP7 PUSH2 0x258C JUMP JUMPDEST PUSH2 0x23EA JUMP JUMPDEST PUSH1 0x40 MLOAD SWAP3 DUP4 MSTORE CALLER PUSH1 0x20 DUP5 ADD MSTORE PUSH1 0x40 DUP4 ADD MSTORE ISZERO PUSH1 0x60 DUP3 ADD MSTORE LOG1 DUP1 RETURN JUMPDEST POP DUP4 ISZERO ISZERO PUSH2 0x644 JUMP JUMPDEST PUSH2 0x925 SWAP1 PUSH1 0x20 RETURNDATASIZE PUSH1 0x20 GT PUSH2 0x7E2 JUMPI PUSH2 0x7D3 DUP2 DUP4 PUSH2 0x217C JUMP JUMPDEST POP CODESIZE PUSH2 0x631 JUMP JUMPDEST PUSH1 0x40 MLOAD RETURNDATASIZE DUP8 DUP3 RETURNDATACOPY RETURNDATASIZE SWAP1 REVERT JUMPDEST PUSH1 0x40 MLOAD PUSH3 0x461BCD PUSH1 0xE5 SHL DUP2 MSTORE PUSH1 0x20 PUSH1 0x4 DUP3 ADD MSTORE PUSH1 0x17 PUSH1 0x24 DUP3 ADD MSTORE PUSH32 0x4F6E6C7920626F72726F7765722063616E207265706179000000000000000000 PUSH1 0x44 DUP3 ADD MSTORE PUSH1 0x64 SWAP1 REVERT JUMPDEST POP CALLVALUE PUSH2 0x168 JUMPI PUSH1 0x20 CALLDATASIZE PUSH1 0x3 NOT ADD SLT PUSH2 0x168 JUMPI PUSH1 0x4 CALLDATALOAD PUSH1 0x1 PUSH1 0x1 PUSH1 0xA0 SHL SUB DUP2 DUP2 AND SWAP2 DUP3 SWAP1 SUB PUSH2 0x5A6 JUMPI PUSH2 0x9B3 SWAP1 PUSH1 0x8 SLOAD AND CALLER EQ PUSH2 0x24F5 JUMP JUMPDEST PUSH1 0x1 PUSH1 0x1 PUSH1 0x60 SHL SUB PUSH1 0xA0 SHL PUSH1 0x3 SLOAD AND OR PUSH1 0x3 SSTORE DUP1 RETURN JUMPDEST POP CALLVALUE PUSH2 0x168 JUMPI PUSH1 0x20 SWAP1 DUP2 PUSH1 0x3 NOT CALLDATASIZE ADD SLT PUSH2 0x168 JUMPI SWAP1 PUSH1 0x4 CALLDATALOAD DUP3 MSTORE PUSH1 0x5 DUP2 MSTORE PUSH1 0xC PUSH1 0x40 DUP4 KECCAK256 ADD DUP1 SLOAD PUSH2 0x9F9 DUP2 PUSH2 0x2266 JUMP JUMPDEST SWAP1 PUSH2 0xA07 PUSH1 0x40 MLOAD SWAP3 DUP4 PUSH2 0x217C JUMP JUMPDEST DUP1 DUP3 MSTORE DUP4 DUP3 ADD DUP1 SWAP4 DUP7 MSTORE DUP5 DUP7 KECCAK256 DUP7 SWAP2 JUMPDEST DUP4 DUP4 LT PUSH2 0xA7B JUMPI POP POP POP POP PUSH1 0x40 MLOAD SWAP3 DUP1 DUP5 ADD SWAP2 DUP2 DUP6 MSTORE MLOAD DUP1 SWAP3 MSTORE PUSH1 0x40 DUP5 ADD SWAP3 SWAP5 JUMPDEST DUP3 DUP2 LT PUSH2 0xA45 JUMPI DUP5 DUP5 SUB DUP6 RETURN JUMPDEST DUP6 MLOAD DUP1 MLOAD DUP6 MSTORE DUP1 DUP4 ADD MLOAD DUP6 DUP5 ADD MSTORE PUSH1 0x40 DUP1 DUP3 ADD MLOAD ISZERO ISZERO SWAP1 DUP7 ADD MSTORE PUSH1 0x60 SWAP1 DUP2 ADD MLOAD SWAP1 DUP6 ADD MSTORE SWAP5 DUP2 ADD SWAP5 PUSH1 0x80 SWAP1 SWAP4 ADD SWAP3 PUSH1 0x1 ADD PUSH2 0xA38 JUMP JUMPDEST PUSH1 0x4 DUP8 PUSH1 0x1 SWAP3 PUSH1 0x40 SWAP11 SWAP10 SWAP8 SWAP9 SWAP11 MLOAD PUSH2 0xA92 DUP2 PUSH2 0x212E JUMP JUMPDEST DUP6 SLOAD DUP2 MSTORE DUP5 DUP7 ADD SLOAD DUP4 DUP3 ADD MSTORE PUSH1 0xFF PUSH1 0x2 DUP8 ADD SLOAD AND ISZERO ISZERO PUSH1 0x40 DUP3 ADD MSTORE PUSH1 0x3 DUP7 ADD SLOAD PUSH1 0x60 DUP3 ADD MSTORE DUP2 MSTORE ADD SWAP3 ADD SWAP3 ADD SWAP2 SWAP1 SWAP7 SWAP5 SWAP4 SWAP6 SWAP7 PUSH2 0xA17 JUMP JUMPDEST POP CALLVALUE PUSH2 0x168 JUMPI PUSH1 0xA0 CALLDATASIZE PUSH1 0x3 NOT ADD SLT PUSH2 0x168 JUMPI PUSH1 0x64 CALLDATALOAD PUSH8 0xFFFFFFFFFFFFFFFF DUP2 GT PUSH2 0x17B8 JUMPI PUSH2 0xAFC SWAP1 CALLDATASIZE SWAP1 PUSH1 0x4 ADD PUSH2 0x2073 JUMP JUMPDEST SWAP1 PUSH1 0x84 CALLDATALOAD PUSH8 0xFFFFFFFFFFFFFFFF DUP2 GT PUSH2 0x17B4 JUMPI PUSH2 0xB1D SWAP1 CALLDATASIZE SWAP1 PUSH1 0x4 ADD PUSH2 0x2073 JUMP JUMPDEST SWAP3 PUSH1 0x4 CALLDATALOAD ISZERO PUSH2 0x177E JUMPI PUSH1 0x24 CALLDATALOAD ISZERO PUSH2 0x1746 JUMPI CALLER DUP6 MSTORE PUSH1 0x6 PUSH1 0x20 MSTORE PUSH1 0xFF PUSH1 0x40 DUP7 KECCAK256 SLOAD AND PUSH2 0x16F5 JUMPI DUP4 DUP2 SUB PUSH2 0x169B JUMPI DUP1 ISZERO PUSH2 0x1660 JUMPI PUSH1 0x14 PUSH1 0x4 CALLDATALOAD MUL SWAP2 PUSH1 0x4 CALLDATALOAD DUP4 DIV PUSH1 0x14 SUB PUSH2 0x1135 JUMPI PUSH2 0xB71 PUSH1 0x64 DUP5 DIV PUSH1 0x4 CALLDATALOAD PUSH2 0x23EA JUMP JUMPDEST PUSH1 0x9 SLOAD PUSH1 0x40 MLOAD PUSH4 0x23B872DD PUSH1 0xE0 SHL DUP2 MSTORE CALLER PUSH1 0x4 DUP3 ADD MSTORE ADDRESS PUSH1 0x24 DUP3 ADD MSTORE PUSH1 0x64 DUP1 DUP8 DIV PUSH1 0x44 DUP4 ADD MSTORE SWAP3 SWAP7 SWAP3 SWAP1 SWAP2 PUSH1 0x20 SWAP2 DUP4 SWAP2 DUP3 SWAP1 DUP13 SWAP1 PUSH1 0x1 PUSH1 0x1 PUSH1 0xA0 SHL SUB AND GAS CALL DUP1 ISZERO PUSH2 0x1655 JUMPI PUSH2 0x1636 JUMPI JUMPDEST POP SWAP1 DUP5 SWAP3 SWAP2 PUSH1 0x40 MLOAD PUSH1 0x20 DUP2 ADD SWAP1 CALLER PUSH1 0x60 SHL DUP3 MSTORE TIMESTAMP PUSH1 0x34 DUP3 ADD MSTORE PUSH1 0x34 DUP2 MSTORE PUSH2 0xBE1 DUP2 PUSH2 0x2160 JUMP JUMPDEST MLOAD SWAP1 KECCAK256 SWAP7 DUP8 DUP10 MSTORE PUSH1 0x5 PUSH1 0x20 MSTORE PUSH1 0x64 PUSH1 0x40 DUP11 KECCAK256 SWAP7 DUP10 DUP9 SSTORE PUSH1 0x1 DUP9 ADD CALLER PUSH1 0x1 PUSH1 0x1 PUSH1 0x60 SHL SUB PUSH1 0xA0 SHL DUP3 SLOAD AND OR SWAP1 SSTORE PUSH1 0x4 CALLDATALOAD PUSH1 0xA DUP10 ADD SSTORE DUP7 PUSH1 0x2 DUP10 ADD SSTORE DIV PUSH1 0x3 DUP8 ADD SSTORE PUSH1 0x44 CALLDATALOAD PUSH1 0x4 DUP8 ADD SSTORE PUSH1 0x24 CALLDATALOAD PUSH1 0x5 DUP8 ADD SSTORE TIMESTAMP PUSH1 0x7 DUP8 ADD SSTORE PUSH2 0xC3F PUSH2 0x21EA JUMP JUMPDEST PUSH1 0x8 DUP8 ADD SSTORE PUSH1 0x9 DUP7 ADD DUP1 SLOAD PUSH1 0xFF NOT AND PUSH1 0x1 OR SWAP1 SSTORE PUSH1 0xE DUP7 ADD DUP6 SWAP1 SSTORE DUP9 SWAP4 DUP5 JUMPDEST DUP2 DUP2 LT PUSH2 0x13F5 JUMPI POP POP POP POP POP SUB PUSH2 0x139F JUMPI PUSH8 0xDE0B6B3A7640000 PUSH1 0x44 CALLDATALOAD MUL SWAP1 PUSH1 0x44 CALLDATALOAD DUP3 DIV PUSH8 0xDE0B6B3A7640000 EQ PUSH1 0x44 CALLDATALOAD ISZERO OR ISZERO PUSH2 0x138B JUMPI PUSH2 0xCA4 PUSH2 0x4B0 DUP4 DIV DUP5 PUSH2 0x22E1 JUMP JUMPDEST PUSH2 0x4B0 DUP4 DIV PUSH8 0xDE0B6B3A7640000 ADD PUSH8 0xDE0B6B3A7640000 GT PUSH2 0x1135 JUMPI PUSH2 0x4B0 DUP4 DIV PUSH8 0xDE0B6B3A7640000 ADD ISZERO PUSH2 0x1377 JUMPI PUSH2 0xCF9 PUSH1 0x24 CALLDATALOAD PUSH2 0x4B0 DUP6 DIV PUSH8 0xDE0B6B3A7640000 ADD PUSH8 0xDE0B6B3A7640000 DIV PUSH2 0x2432 JUMP JUMPDEST PUSH8 0xDE0B6B3A7640000 SUB SWAP1 PUSH8 0xDE0B6B3A7640000 DUP3 GT PUSH2 0x1121 JUMPI PUSH1 0x6 SWAP2 PUSH2 0xD1F SWAP2 PUSH2 0x230A JUMP JUMPDEST SWAP2 ADD SSTORE DUP3 DUP5 MSTORE PUSH1 0x5 PUSH1 0x20 MSTORE PUSH1 0x40 DUP5 KECCAK256 SWAP2 PUSH8 0xDE0B6B3A7640000 DUP2 DUP7 JUMPDEST PUSH1 0x24 CALLDATALOAD DUP2 LT PUSH2 0x134D JUMPI POP DUP2 PUSH2 0xD58 PUSH2 0xD5D SWAP3 PUSH2 0x4B0 DUP8 DIV SWAP1 PUSH2 0x22E1 JUMP JUMPDEST PUSH2 0x22E1 JUMP JUMPDEST SWAP1 DUP1 PUSH8 0xDE0B6B3A763FFFF NOT DUP2 ADD GT PUSH2 0x1121 JUMPI PUSH8 0xDE0B6B3A7640000 SWAP2 PUSH2 0xD8F SWAP2 PUSH8 0xDE0B6B3A763FFFF NOT ADD SWAP1 PUSH2 0x230A JUMP JUMPDEST DIV DUP1 PUSH1 0x6 DUP6 ADD SSTORE DUP6 SWAP2 JUMPDEST PUSH1 0x24 CALLDATALOAD DUP4 LT PUSH2 0x11E5 JUMPI DUP7 DUP7 PUSH1 0x7 SLOAD PUSH1 0x1 PUSH1 0x40 SHL DUP2 LT ISZERO PUSH2 0x11D1 JUMPI DUP1 PUSH1 0x1 PUSH2 0xDC3 SWAP3 ADD PUSH1 0x7 SSTORE PUSH2 0x20E1 JUMP JUMPDEST DUP2 SLOAD PUSH1 0x0 NOT PUSH1 0x3 SWAP3 SWAP1 SWAP3 SHL SWAP2 DUP3 SHL NOT AND SWAP1 DUP4 SWAP1 SHL OR SWAP1 SSTORE CALLER DUP3 MSTORE PUSH1 0x6 PUSH1 0x20 SWAP1 DUP2 MSTORE PUSH1 0x40 DUP1 DUP5 KECCAK256 DUP1 SLOAD PUSH1 0xFF NOT AND PUSH1 0x1 SWAP1 DUP2 OR SWAP1 SWAP2 SSTORE DUP4 DUP6 MSTORE PUSH1 0x5 DUP4 MSTORE DUP2 DUP6 KECCAK256 PUSH1 0xA DUP2 ADD SLOAD PUSH1 0x9 SLOAD SWAP3 SLOAD SWAP4 MLOAD PUSH4 0x95EA7B3 PUSH1 0xE0 SHL DUP2 MSTORE PUSH1 0x1 PUSH1 0x1 PUSH1 0xA0 SHL SUB SWAP5 DUP6 AND PUSH1 0x4 DUP3 ADD MSTORE PUSH1 0x24 DUP2 ADD DUP3 SWAP1 MSTORE SWAP2 SWAP5 SWAP1 SWAP4 SWAP2 SWAP3 SWAP1 SWAP2 DUP4 SWAP2 PUSH1 0x44 SWAP2 DUP4 SWAP2 DUP11 SWAP2 AND GAS CALL DUP1 ISZERO PUSH2 0x92C JUMPI PUSH2 0x11B2 JUMPI JUMPDEST POP PUSH1 0x40 MLOAD PUSH2 0xE5A DUP2 PUSH2 0x2160 JUMP JUMPDEST PUSH1 0x2 DUP2 MSTORE PUSH1 0x40 CALLDATASIZE PUSH1 0x20 DUP4 ADD CALLDATACOPY PUSH1 0x9 SLOAD PUSH1 0x1 PUSH1 0x1 PUSH1 0xA0 SHL SUB AND PUSH2 0xE7B DUP3 PUSH2 0x22B0 JUMP JUMPDEST MSTORE PUSH1 0x2 SLOAD PUSH1 0x1 PUSH1 0x1 PUSH1 0xA0 SHL SUB AND PUSH2 0xE91 DUP3 PUSH2 0x22BD JUMP JUMPDEST MSTORE PUSH1 0x3 SLOAD PUSH1 0x40 MLOAD PUSH4 0x3FABE5A3 PUSH1 0xE2 SHL DUP2 MSTORE SWAP1 PUSH1 0xA0 SWAP1 DUP3 SWAP1 PUSH1 0x4 SWAP1 DUP3 SWAP1 PUSH1 0x1 PUSH1 0x1 PUSH1 0xA0 SHL SUB AND GAS STATICCALL SWAP1 DUP2 ISZERO PUSH2 0x10CA JUMPI DUP7 SWAP2 PUSH2 0x117E JUMPI JUMPDEST POP DUP6 DUP2 SGT ISZERO PUSH2 0x1149 JUMPI PUSH4 0x5F5E100 DUP1 DUP5 MUL SWAP1 DUP5 DUP3 DIV EQ DUP5 ISZERO OR ISZERO PUSH2 0x1121 JUMPI SWAP1 PUSH2 0xEEE SWAP2 PUSH2 0x230A JUMP JUMPDEST DUP1 PUSH1 0x62 DUP2 MUL DIV PUSH1 0x62 EQ DUP2 ISZERO OR ISZERO PUSH2 0x1135 JUMPI PUSH1 0x1 SLOAD PUSH1 0x1 PUSH1 0x1 PUSH1 0xA0 SHL SUB AND SWAP2 TIMESTAMP PUSH2 0x12C DUP2 ADD LT PUSH2 0x1121 JUMPI SWAP2 PUSH2 0xF4C SWAP4 SWAP2 DUP8 DUP1 SWAP5 PUSH1 0x40 MLOAD SWAP7 DUP8 SWAP6 DUP7 SWAP5 DUP6 SWAP4 PUSH4 0x38ED1739 PUSH1 0xE0 SHL DUP6 MSTORE PUSH2 0x12C TIMESTAMP ADD SWAP3 PUSH1 0x64 PUSH1 0x62 ADDRESS SWAP5 MUL DIV SWAP1 PUSH1 0x4 DUP8 ADD PUSH2 0x23B1 JUMP JUMPDEST SUB SWAP3 GAS CALL DUP1 ISZERO PUSH2 0x1116 JUMPI PUSH2 0xF67 SWAP2 DUP6 SWAP2 PUSH2 0x10F4 JUMPI JUMPDEST POP PUSH2 0x22BD JUMP JUMPDEST MLOAD DUP3 DUP5 MSTORE PUSH1 0x5 PUSH1 0x20 SWAP1 DUP2 MSTORE PUSH1 0x40 DUP1 DUP7 KECCAK256 PUSH1 0x2 SLOAD DUP8 SLOAD SWAP3 MLOAD PUSH4 0x95EA7B3 PUSH1 0xE0 SHL DUP2 MSTORE PUSH1 0x1 PUSH1 0x1 PUSH1 0xA0 SHL SUB SWAP4 DUP5 AND PUSH1 0x4 DUP3 ADD MSTORE PUSH1 0x24 DUP2 ADD DUP7 SWAP1 MSTORE SWAP2 SWAP4 SWAP2 SWAP3 DUP4 SWAP2 PUSH1 0x44 SWAP2 DUP4 SWAP2 DUP12 SWAP2 AND GAS CALL DUP1 ISZERO PUSH2 0x10CA JUMPI PUSH2 0x10D5 JUMPI JUMPDEST POP DUP5 SLOAD PUSH1 0x2 SLOAD DUP7 SWAP2 PUSH1 0x1 PUSH1 0x1 PUSH1 0xA0 SHL SUB SWAP2 DUP3 AND SWAP2 AND DUP1 EXTCODESIZE ISZERO PUSH2 0x5A6 JUMPI PUSH1 0x84 DUP4 SWAP3 PUSH1 0x40 MLOAD SWAP5 DUP6 SWAP4 DUP5 SWAP3 PUSH4 0x617BA037 PUSH1 0xE0 SHL DUP5 MSTORE PUSH1 0x4 DUP5 ADD MSTORE DUP9 PUSH1 0x24 DUP5 ADD MSTORE ADDRESS PUSH1 0x44 DUP5 ADD MSTORE DUP2 PUSH1 0x64 DUP5 ADD MSTORE GAS CALL DUP1 ISZERO PUSH2 0x10CA JUMPI PUSH2 0x1099 JUMPI JUMPDEST POP PUSH1 0x80 SWAP3 PUSH32 0xAEEC09AF87559B9077DA2E499D1FAD2E228D7C24CB4B566FE61976820ABAADDA PUSH1 0x60 DUP5 PUSH1 0x2 DUP6 PUSH32 0x65410888FB30EDD04F6ACFB2F6CFD92AAF0EBB9B5303B6286D65D0B031B5B7F7 SWAP10 SWAP8 PUSH1 0xD PUSH1 0x3 SWAP9 ADD SSTORE ADD SLOAD SWAP1 PUSH1 0x40 MLOAD SWAP2 DUP8 DUP4 MSTORE PUSH1 0x20 DUP4 ADD MSTORE PUSH1 0x40 DUP3 ADD MSTORE LOG1 ADD SLOAD PUSH1 0x40 MLOAD SWAP2 DUP3 MSTORE PUSH1 0x4 CALLDATALOAD PUSH1 0x20 DUP4 ADD MSTORE PUSH1 0x40 DUP3 ADD MSTORE CALLER PUSH1 0x60 DUP3 ADD MSTORE LOG1 DUP1 RETURN JUMPDEST PUSH8 0xFFFFFFFFFFFFFFFF DUP2 SWAP7 SWAP3 SWAP7 GT PUSH2 0x10B6 JUMPI PUSH1 0x40 MSTORE SWAP4 PUSH1 0x80 PUSH2 0x1010 JUMP JUMPDEST PUSH4 0x4E487B71 PUSH1 0xE0 SHL DUP3 MSTORE PUSH1 0x41 PUSH1 0x4 MSTORE PUSH1 0x24 DUP3 REVERT JUMPDEST PUSH1 0x40 MLOAD RETURNDATASIZE DUP9 DUP3 RETURNDATACOPY RETURNDATASIZE SWAP1 REVERT JUMPDEST PUSH2 0x10ED SWAP1 PUSH1 0x20 RETURNDATASIZE PUSH1 0x20 GT PUSH2 0x7E2 JUMPI PUSH2 0x7D3 DUP2 DUP4 PUSH2 0x217C JUMP JUMPDEST POP DUP6 PUSH2 0xFBA JUMP JUMPDEST PUSH2 0x1110 SWAP2 POP RETURNDATASIZE DUP1 DUP8 DUP4 RETURNDATACOPY PUSH2 0x1108 DUP2 DUP4 PUSH2 0x217C JUMP JUMPDEST DUP2 ADD SWAP1 PUSH2 0x2337 JUMP JUMPDEST DUP6 PUSH2 0xF61 JUMP JUMPDEST PUSH1 0x40 MLOAD RETURNDATASIZE DUP7 DUP3 RETURNDATACOPY RETURNDATASIZE SWAP1 REVERT JUMPDEST PUSH4 0x4E487B71 PUSH1 0xE0 SHL DUP8 MSTORE PUSH1 0x11 PUSH1 0x4 MSTORE PUSH1 0x24 DUP8 REVERT JUMPDEST PUSH4 0x4E487B71 PUSH1 0xE0 SHL DUP7 MSTORE PUSH1 0x11 PUSH1 0x4 MSTORE PUSH1 0x24 DUP7 REVERT JUMPDEST PUSH1 0x40 MLOAD PUSH3 0x461BCD PUSH1 0xE5 SHL DUP2 MSTORE PUSH1 0x20 PUSH1 0x4 DUP3 ADD MSTORE PUSH1 0xD PUSH1 0x24 DUP3 ADD MSTORE PUSH13 0x496E76616C6964207072696365 PUSH1 0x98 SHL PUSH1 0x44 DUP3 ADD MSTORE PUSH1 0x64 SWAP1 REVERT JUMPDEST PUSH2 0x11A0 SWAP2 POP PUSH1 0xA0 RETURNDATASIZE PUSH1 0xA0 GT PUSH2 0x11AB JUMPI JUMPDEST PUSH2 0x1198 DUP2 DUP4 PUSH2 0x217C JUMP JUMPDEST DUP2 ADD SWAP1 PUSH2 0x21B5 JUMP JUMPDEST POP POP POP SWAP1 POP DUP7 PUSH2 0xEC6 JUMP JUMPDEST POP RETURNDATASIZE PUSH2 0x118E JUMP JUMPDEST PUSH2 0x11CA SWAP1 PUSH1 0x20 RETURNDATASIZE PUSH1 0x20 GT PUSH2 0x7E2 JUMPI PUSH2 0x7D3 DUP2 DUP4 PUSH2 0x217C JUMP JUMPDEST POP DUP5 PUSH2 0xE4D JUMP JUMPDEST PUSH4 0x4E487B71 PUSH1 0xE0 SHL DUP4 MSTORE PUSH1 0x41 PUSH1 0x4 MSTORE PUSH1 0x24 DUP4 REVERT JUMPDEST PUSH8 0xDE0B6B3A7640000 PUSH2 0x11FC PUSH2 0x4B0 DUP7 DIV DUP4 PUSH2 0x22E1 JUMP JUMPDEST DIV SWAP1 DUP2 DUP4 GT ISZERO PUSH2 0x1347 JUMPI PUSH2 0x1210 DUP3 DUP5 PUSH2 0x23EA JUMP JUMPDEST SWAP2 PUSH1 0x24 CALLDATALOAD PUSH1 0x0 NOT DUP2 ADD GT PUSH2 0x1333 JUMPI PUSH1 0x24 CALLDATALOAD PUSH1 0x0 NOT ADD DUP6 EQ PUSH2 0x131E JUMPI JUMPDEST PUSH3 0x278D00 DUP6 DUP2 DUP2 MUL DIV DUP2 EQ DUP7 ISZERO OR ISZERO PUSH2 0x130A JUMPI PUSH2 0x124B SWAP1 DUP7 MUL TIMESTAMP PUSH2 0x232A JUMP JUMPDEST PUSH1 0x40 MLOAD SWAP2 PUSH2 0x1258 DUP4 PUSH2 0x212E JUMP JUMPDEST DUP5 DUP4 MSTORE PUSH1 0x20 DUP4 ADD MSTORE DUP10 PUSH1 0x40 DUP4 ADD MSTORE PUSH1 0x60 DUP3 ADD MSTORE PUSH1 0xC DUP8 ADD SLOAD PUSH1 0x1 PUSH1 0x40 SHL DUP2 LT ISZERO PUSH2 0x12F6 JUMPI DUP1 PUSH1 0x1 PUSH2 0x1292 SWAP3 ADD PUSH1 0xC DUP11 ADD SSTORE PUSH1 0xC DUP10 ADD PUSH2 0x24D9 JUMP JUMPDEST SWAP2 SWAP1 SWAP2 PUSH2 0x12E2 JUMPI SWAP2 PUSH2 0x12DC SWAP4 SWAP2 PUSH1 0x3 PUSH1 0x60 DUP6 PUSH2 0x12D6 SWAP7 MLOAD DUP5 SSTORE PUSH1 0x20 DUP2 ADD MLOAD PUSH1 0x1 DUP6 ADD SSTORE PUSH1 0x2 DUP5 ADD PUSH1 0x40 DUP3 ADD MLOAD ISZERO ISZERO PUSH1 0xFF DUP1 NOT DUP4 SLOAD AND SWAP2 AND OR SWAP1 SSTORE ADD MLOAD SWAP2 ADD SSTORE PUSH2 0x23EA JUMP JUMPDEST SWAP3 PUSH2 0x23F7 JUMP JUMPDEST SWAP2 PUSH2 0xD99 JUMP JUMPDEST PUSH4 0x4E487B71 PUSH1 0xE0 SHL DUP11 MSTORE PUSH1 0x4 DUP11 SWAP1 MSTORE PUSH1 0x24 DUP11 REVERT JUMPDEST PUSH4 0x4E487B71 PUSH1 0xE0 SHL DUP11 MSTORE PUSH1 0x41 PUSH1 0x4 MSTORE PUSH1 0x24 DUP11 REVERT JUMPDEST PUSH4 0x4E487B71 PUSH1 0xE0 SHL DUP11 MSTORE PUSH1 0x11 PUSH1 0x4 MSTORE PUSH1 0x24 DUP11 REVERT JUMPDEST SWAP3 POP SWAP1 POP DUP1 PUSH2 0x132D DUP4 DUP3 PUSH2 0x232A JUMP JUMPDEST SWAP3 PUSH2 0x122C JUMP JUMPDEST PUSH4 0x4E487B71 PUSH1 0xE0 SHL DUP10 MSTORE PUSH1 0x11 PUSH1 0x4 MSTORE PUSH1 0x24 DUP10 REVERT JUMPDEST DUP8 PUSH2 0x1210 JUMP JUMPDEST SWAP2 PUSH8 0xDE0B6B3A7640000 PUSH2 0x136B PUSH2 0x1372 SWAP3 PUSH2 0x4B0 DUP9 DIV DUP4 ADD SWAP1 PUSH2 0x22E1 JUMP JUMPDEST DIV SWAP3 PUSH2 0x23F7 JUMP JUMPDEST PUSH2 0xD3B JUMP JUMPDEST PUSH4 0x4E487B71 PUSH1 0xE0 SHL DUP7 MSTORE PUSH1 0x12 PUSH1 0x4 MSTORE PUSH1 0x24 DUP7 REVERT JUMPDEST PUSH4 0x4E487B71 PUSH1 0xE0 SHL DUP6 MSTORE PUSH1 0x11 PUSH1 0x4 MSTORE PUSH1 0x24 DUP6 REVERT JUMPDEST PUSH1 0x40 MLOAD PUSH3 0x461BCD PUSH1 0xE5 SHL DUP2 MSTORE PUSH1 0x20 PUSH1 0x4 DUP3 ADD MSTORE PUSH1 0x28 PUSH1 0x24 DUP3 ADD MSTORE PUSH32 0x436F6C6C656374656420616D6F756E7420646F65736E2774206D617463682070 PUSH1 0x44 DUP3 ADD MSTORE PUSH8 0x1C9A5B98DA5C185B PUSH1 0xC2 SHL PUSH1 0x64 DUP3 ADD MSTORE PUSH1 0x84 SWAP1 REVERT JUMPDEST SWAP1 SWAP2 SWAP3 SWAP4 SWAP5 SWAP6 POP PUSH2 0x1407 DUP2 DUP4 DUP7 PUSH2 0x2406 JUMP JUMPDEST CALLDATALOAD PUSH1 0x1 PUSH1 0x1 PUSH1 0xA0 SHL SUB DUP2 AND DUP2 SUB PUSH2 0x1632 JUMPI PUSH2 0x1423 DUP3 DUP6 DUP9 PUSH2 0x2406 JUMP JUMPDEST CALLDATALOAD SWAP7 DUP8 ISZERO PUSH2 0x15F5 JUMPI DUP12 SWAP1 PUSH1 0x20 PUSH2 0x1479 PUSH1 0x1 DUP1 PUSH1 0xA0 SHL SUB PUSH1 0x9 SLOAD AND DUP12 PUSH1 0x40 MLOAD SWAP6 DUP7 DUP1 SWAP5 DUP2 SWAP4 PUSH4 0x23B872DD PUSH1 0xE0 SHL DUP4 MSTORE ADDRESS DUP12 PUSH1 0x4 DUP6 ADD PUSH1 0x40 SWAP2 SWAP5 SWAP4 SWAP3 SWAP5 PUSH1 0x60 DUP3 ADD SWAP6 PUSH1 0x1 DUP1 PUSH1 0xA0 SHL SUB DUP1 SWAP3 AND DUP4 MSTORE AND PUSH1 0x20 DUP3 ADD MSTORE ADD MSTORE JUMP JUMPDEST SUB SWAP3 GAS CALL SWAP1 DUP2 ISZERO PUSH2 0x7E9 JUMPI PUSH2 0x1495 SWAP3 DUP11 SWAP3 PUSH2 0x15D6 JUMPI JUMPDEST POP PUSH2 0x232A JUMP JUMPDEST SWAP7 PUSH1 0x1 DUP1 PUSH1 0xA0 SHL SUB DUP3 AND DUP13 MSTORE PUSH1 0x4 PUSH1 0x20 MSTORE PUSH1 0x40 DUP13 KECCAK256 PUSH2 0x14B5 DUP3 DUP3 SLOAD PUSH2 0x232A JUMP JUMPDEST SWAP1 SSTORE PUSH2 0x4B0 PUSH2 0x14CC PUSH1 0x24 CALLDATALOAD PUSH2 0xD58 PUSH1 0x44 CALLDATALOAD DUP6 PUSH2 0x22E1 JUMP JUMPDEST DIV SWAP1 PUSH1 0x40 MLOAD SWAP3 DUP4 PUSH1 0xA0 DUP2 ADD LT PUSH8 0xFFFFFFFFFFFFFFFF PUSH1 0xA0 DUP7 ADD GT OR PUSH2 0x15C2 JUMPI PUSH1 0xA0 DUP5 ADD PUSH1 0x40 MSTORE PUSH1 0x1 DUP1 PUSH1 0xA0 SHL SUB AND DUP4 MSTORE PUSH1 0x20 DUP4 ADD MSTORE PUSH1 0x40 DUP3 ADD MSTORE DUP11 PUSH1 0x60 DUP3 ADD MSTORE DUP11 PUSH1 0x80 DUP3 ADD MSTORE PUSH1 0xB DUP9 ADD SLOAD PUSH1 0x1 PUSH1 0x40 SHL DUP2 LT ISZERO PUSH2 0x15AE JUMPI DUP1 PUSH1 0x1 PUSH2 0x1539 SWAP3 ADD PUSH1 0xB DUP12 ADD SSTORE PUSH1 0xB DUP11 ADD PUSH2 0x2416 JUMP JUMPDEST SWAP2 SWAP1 SWAP2 PUSH2 0x159A JUMPI DUP1 MLOAD DUP3 SLOAD PUSH1 0x1 PUSH1 0x1 PUSH1 0xA0 SHL SUB NOT AND PUSH1 0x1 PUSH1 0x1 PUSH1 0xA0 SHL SUB SWAP2 SWAP1 SWAP2 AND OR DUP3 SSTORE PUSH1 0x20 DUP2 ADD MLOAD PUSH1 0x1 DUP4 ADD SSTORE PUSH1 0x40 DUP2 ADD MLOAD PUSH1 0x2 DUP4 ADD SSTORE PUSH1 0x60 DUP2 ADD MLOAD PUSH1 0x3 DUP4 ADD SSTORE PUSH1 0x80 ADD MLOAD PUSH1 0x4 SWAP1 SWAP2 ADD SSTORE PUSH2 0x158E SWAP1 PUSH2 0x23F7 JUMP JUMPDEST SWAP1 DUP8 SWAP6 SWAP5 SWAP4 SWAP3 SWAP2 PUSH2 0xC5E JUMP JUMPDEST PUSH4 0x4E487B71 PUSH1 0xE0 SHL DUP13 MSTORE PUSH1 0x4 DUP13 SWAP1 MSTORE PUSH1 0x24 DUP13 REVERT JUMPDEST PUSH4 0x4E487B71 PUSH1 0xE0 SHL DUP13 MSTORE PUSH1 0x41 PUSH1 0x4 MSTORE PUSH1 0x24 DUP13 REVERT JUMPDEST PUSH4 0x4E487B71 PUSH1 0xE0 SHL DUP15 MSTORE PUSH1 0x41 PUSH1 0x4 MSTORE PUSH1 0x24 DUP15 REVERT JUMPDEST PUSH2 0x15EE SWAP1 PUSH1 0x20 RETURNDATASIZE PUSH1 0x20 GT PUSH2 0x7E2 JUMPI PUSH2 0x7D3 DUP2 DUP4 PUSH2 0x217C JUMP JUMPDEST POP CODESIZE PUSH2 0x148F JUMP JUMPDEST PUSH1 0x40 MLOAD PUSH3 0x461BCD PUSH1 0xE5 SHL DUP2 MSTORE PUSH1 0x20 PUSH1 0x4 DUP3 ADD MSTORE PUSH1 0x15 PUSH1 0x24 DUP3 ADD MSTORE PUSH21 0x125B9D985B1A59081B195B99195C88185B5BDD5B9D PUSH1 0x5A SHL PUSH1 0x44 DUP3 ADD MSTORE PUSH1 0x64 SWAP1 REVERT JUMPDEST DUP11 DUP1 REVERT JUMPDEST PUSH2 0x164E SWAP1 PUSH1 0x20 RETURNDATASIZE PUSH1 0x20 GT PUSH2 0x7E2 JUMPI PUSH2 0x7D3 DUP2 DUP4 PUSH2 0x217C JUMP JUMPDEST POP CODESIZE PUSH2 0xBBB JUMP JUMPDEST PUSH1 0x40 MLOAD RETURNDATASIZE DUP11 DUP3 RETURNDATACOPY RETURNDATASIZE SWAP1 REVERT JUMPDEST PUSH1 0x40 MLOAD PUSH3 0x461BCD PUSH1 0xE5 SHL DUP2 MSTORE PUSH1 0x20 PUSH1 0x4 DUP3 ADD MSTORE PUSH1 0x13 PUSH1 0x24 DUP3 ADD MSTORE PUSH19 0x139BC81B195B99195C9CC81C1C9BDD9A591959 PUSH1 0x6A SHL PUSH1 0x44 DUP3 ADD MSTORE PUSH1 0x64 SWAP1 REVERT JUMPDEST PUSH1 0x40 MLOAD PUSH3 0x461BCD PUSH1 0xE5 SHL DUP2 MSTORE PUSH1 0x20 PUSH1 0x4 DUP3 ADD MSTORE PUSH1 0x2C PUSH1 0x24 DUP3 ADD MSTORE PUSH32 0x4C656E6465722061646472657373657320616E6420616D6F756E7473206C656E PUSH1 0x44 DUP3 ADD MSTORE PUSH12 0xCEE8D040DAD2E6DAC2E8C6D PUSH1 0xA3 SHL PUSH1 0x64 DUP3 ADD MSTORE PUSH1 0x84 SWAP1 REVERT JUMPDEST PUSH1 0x40 MLOAD PUSH3 0x461BCD PUSH1 0xE5 SHL DUP2 MSTORE PUSH1 0x20 PUSH1 0x4 DUP3 ADD MSTORE PUSH1 0x23 PUSH1 0x24 DUP3 ADD MSTORE PUSH32 0x426F72726F77657220616C72656164792068617320616E20616374697665206C PUSH1 0x44 DUP3 ADD MSTORE PUSH3 0x37B0B7 PUSH1 0xE9 SHL PUSH1 0x64 DUP3 ADD MSTORE PUSH1 0x84 SWAP1 REVERT JUMPDEST PUSH1 0x40 MLOAD PUSH3 0x461BCD PUSH1 0xE5 SHL DUP2 MSTORE PUSH1 0x20 PUSH1 0x4 DUP3 ADD MSTORE PUSH1 0x10 PUSH1 0x24 DUP3 ADD MSTORE PUSH16 0x24B73B30B634B210323AB930BA34B7B7 PUSH1 0x81 SHL PUSH1 0x44 DUP3 ADD MSTORE PUSH1 0x64 SWAP1 REVERT JUMPDEST PUSH1 0x40 MLOAD PUSH3 0x461BCD PUSH1 0xE5 SHL DUP2 MSTORE PUSH1 0x20 PUSH1 0x4 DUP3 ADD MSTORE PUSH1 0xE PUSH1 0x24 DUP3 ADD MSTORE PUSH14 0x125B9D985B1A5908185B5BDD5B9D PUSH1 0x92 SHL PUSH1 0x44 DUP3 ADD MSTORE PUSH1 0x64 SWAP1 REVERT JUMPDEST DUP4 DUP1 REVERT JUMPDEST POP DUP1 REVERT JUMPDEST POP CALLVALUE PUSH2 0x168 JUMPI PUSH1 0x40 PUSH2 0x17D6 PUSH2 0x17D0 CALLDATASIZE PUSH2 0x2058 JUMP JUMPDEST SWAP1 PUSH2 0x2E86 JUMP JUMPDEST DUP3 MLOAD SWAP2 DUP3 MSTORE PUSH1 0x20 DUP3 ADD MSTORE RETURN JUMPDEST POP CALLVALUE PUSH2 0x168 JUMPI PUSH1 0x20 CALLDATASIZE PUSH1 0x3 NOT ADD SLT PUSH2 0x168 JUMPI PUSH1 0x4 CALLDATALOAD PUSH1 0x1 PUSH1 0x1 PUSH1 0xA0 SHL SUB DUP2 DUP2 AND SWAP2 DUP3 SWAP1 SUB PUSH2 0x5A6 JUMPI PUSH2 0x1819 SWAP1 PUSH1 0x8 SLOAD AND CALLER EQ PUSH2 0x24F5 JUMP JUMPDEST PUSH1 0x1 PUSH1 0x1 PUSH1 0x60 SHL SUB PUSH1 0xA0 SHL PUSH1 0x1 SLOAD AND OR PUSH1 0x1 SSTORE DUP1 RETURN JUMPDEST POP CALLVALUE PUSH2 0x168 JUMPI PUSH1 0x20 CALLDATASIZE PUSH1 0x3 NOT ADD SLT PUSH2 0x168 JUMPI PUSH1 0x4 CALLDATALOAD PUSH1 0x1 PUSH1 0x1 PUSH1 0xA0 SHL SUB DUP2 DUP2 AND SWAP2 DUP3 SWAP1 SUB PUSH2 0x5A6 JUMPI PUSH2 0x1866 SWAP1 PUSH1 0x8 SLOAD AND CALLER EQ PUSH2 0x24F5 JUMP JUMPDEST DUP2 SLOAD PUSH1 0x1 PUSH1 0x1 PUSH1 0xA0 SHL SUB NOT AND OR DUP2 SSTORE DUP1 RETURN JUMPDEST POP CALLVALUE PUSH2 0x168 JUMPI PUSH1 0x20 CALLDATASIZE PUSH1 0x3 NOT ADD SLT PUSH2 0x168 JUMPI PUSH1 0xD PUSH1 0x40 PUSH1 0x20 SWAP3 PUSH1 0x4 CALLDATALOAD DUP2 MSTORE PUSH1 0x5 DUP5 MSTORE KECCAK256 ADD SLOAD PUSH1 0x40 MLOAD SWAP1 DUP2 MSTORE RETURN JUMPDEST POP CALLVALUE PUSH2 0x168 JUMPI PUSH1 0x20 CALLDATASIZE PUSH1 0x3 NOT ADD SLT PUSH2 0x168 JUMPI PUSH1 0x4 CALLDATALOAD PUSH1 0x1 PUSH1 0x1 PUSH1 0xA0 SHL SUB DUP2 AND SWAP1 DUP2 SWAP1 SUB PUSH2 0x17B8 JUMPI DUP2 PUSH1 0x40 SWAP2 PUSH1 0x20 SWAP4 MSTORE PUSH1 0x4 DUP4 MSTORE KECCAK256 SLOAD PUSH1 0x40 MLOAD SWAP1 DUP2 MSTORE RETURN JUMPDEST POP CALLVALUE PUSH2 0x168 JUMPI PUSH1 0x20 DUP1 PUSH1 0x3 NOT CALLDATASIZE ADD SLT PUSH2 0x17B8 JUMPI PUSH1 0x4 CALLDATALOAD PUSH1 0x1 DUP1 PUSH1 0xA0 SHL SUB PUSH2 0x190E DUP2 PUSH1 0x8 SLOAD AND CALLER EQ PUSH2 0x24F5 JUMP JUMPDEST DUP2 DUP5 MSTORE PUSH1 0x5 DUP4 MSTORE PUSH1 0x40 DUP5 KECCAK256 SWAP3 PUSH1 0x9 SWAP1 DUP2 DUP6 ADD SWAP2 DUP3 SLOAD SWAP3 PUSH1 0xFF PUSH2 0x1931 DUP2 DUP7 AND PUSH2 0x254B JUMP JUMPDEST DUP9 SWAP1 DUP10 SWAP1 PUSH1 0xC DUP11 ADD DUP1 SLOAD SWAP3 JUMPDEST DUP4 DUP2 LT PUSH2 0x1B78 JUMPI POP POP POP POP PUSH3 0x76A700 LT ISZERO PUSH2 0x1B1E JUMPI PUSH1 0xFF NOT DUP1 SWAP5 AND SWAP1 SSTORE PUSH1 0x1 DUP1 DUP8 ADD SWAP4 DUP6 DUP6 SLOAD AND DUP10 MSTORE PUSH1 0x6 DUP5 MSTORE PUSH1 0x40 DUP10 KECCAK256 SWAP1 DUP2 SLOAD AND SWAP1 SSTORE PUSH1 0xD DUP8 ADD SLOAD DUP1 PUSH2 0x1B0E JUMPI JUMPDEST POP PUSH1 0x3 DUP1 DUP9 ADD SLOAD PUSH1 0xE DUP10 ADD SLOAD SWAP2 DUP3 PUSH2 0x19F3 JUMPI JUMPDEST DUP11 PUSH32 0xCAB88A55906C5830A49DDDD8B31D115294A5E6C4210F25FE140530A39C51DC74 DUP11 DUP11 DUP11 SLOAD AND SWAP1 PUSH2 0x19ED PUSH2 0x19C5 PUSH2 0x21EA JUMP JUMPDEST PUSH1 0x40 DUP1 MLOAD SWAP4 DUP5 MSTORE PUSH1 0x1 PUSH1 0x1 PUSH1 0xA0 SHL SUB SWAP1 SWAP5 AND PUSH1 0x20 DUP5 ADD MSTORE SWAP3 DUP3 ADD SWAP3 SWAP1 SWAP3 MSTORE SWAP1 DUP2 SWAP1 PUSH1 0x60 DUP3 ADD SWAP1 JUMP JUMPDEST SUB SWAP1 LOG1 DUP1 RETURN JUMPDEST SWAP1 SWAP2 SWAP3 DUP1 SWAP10 PUSH1 0xB DUP13 SWAP2 ADD SWAP2 JUMPDEST PUSH2 0x1A0A JUMPI JUMPDEST POP PUSH2 0x1992 JUMP JUMPDEST DUP2 SLOAD DUP2 LT ISZERO PUSH2 0x1B09 JUMPI PUSH2 0x1A1D DUP2 DUP4 PUSH2 0x2416 JUMP JUMPDEST POP PUSH2 0x1A2F DUP13 DUP3 ADD SLOAD DUP6 DUP4 ADD SLOAD SWAP1 PUSH2 0x23EA JUMP JUMPDEST DUP13 DUP2 ISZERO PUSH2 0x1AF8 JUMPI POP PUSH8 0xDE0B6B3A7640000 SWAP1 DUP2 DUP2 MUL SWAP1 DUP2 DIV DUP3 SUB PUSH2 0x1AE4 JUMPI DUP8 SWAP7 SWAP6 SWAP5 SWAP4 SWAP3 DUP16 SWAP2 SWAP3 PUSH2 0x1A6D PUSH2 0x1A67 PUSH2 0x1AA9 SWAP12 DUP15 SWAP7 PUSH2 0x230A JUMP JUMPDEST DUP10 PUSH2 0x22E1 JUMP JUMPDEST DIV SWAP2 DUP14 DUP1 DUP13 SLOAD AND SWAP3 SLOAD AND SWAP1 PUSH1 0x40 MLOAD DUP1 SWAP12 DUP2 SWAP6 DUP3 SWAP5 PUSH4 0xA9059CBB PUSH1 0xE0 SHL DUP5 MSTORE PUSH1 0x4 DUP5 ADD PUSH1 0x20 SWAP1 SWAP4 SWAP3 SWAP2 SWAP4 PUSH1 0x40 DUP2 ADD SWAP5 PUSH1 0x1 DUP1 PUSH1 0xA0 SHL SUB AND DUP2 MSTORE ADD MSTORE JUMP JUMPDEST SUB SWAP3 GAS CALL SWAP1 DUP2 ISZERO PUSH2 0x7E9 JUMPI DUP13 SWAP7 PUSH2 0x1AC4 SWAP3 PUSH2 0x1ACE JUMPI POP PUSH2 0x23F7 JUMP JUMPDEST SWAP1 SWAP2 SWAP3 SWAP4 SWAP5 PUSH2 0x19FF JUMP JUMPDEST PUSH2 0x7DB SWAP1 DUP11 RETURNDATASIZE DUP13 GT PUSH2 0x7E2 JUMPI PUSH2 0x7D3 DUP2 DUP4 PUSH2 0x217C JUMP JUMPDEST PUSH4 0x4E487B71 PUSH1 0xE0 SHL DUP16 MSTORE PUSH1 0x11 PUSH1 0x4 MSTORE PUSH1 0x24 DUP16 REVERT JUMPDEST SWAP7 SWAP6 SWAP5 SWAP4 SWAP3 SWAP1 POP PUSH2 0x1AC4 SWAP2 POP PUSH2 0x23F7 JUMP JUMPDEST PUSH2 0x1A04 JUMP JUMPDEST PUSH2 0x1B18 SWAP1 DUP8 PUSH2 0x2A04 JUMP JUMPDEST CODESIZE PUSH2 0x197F JUMP JUMPDEST PUSH1 0x40 MLOAD PUSH3 0x461BCD PUSH1 0xE5 SHL DUP2 MSTORE PUSH1 0x4 DUP2 ADD DUP5 SWAP1 MSTORE PUSH1 0x2C PUSH1 0x24 DUP3 ADD MSTORE PUSH32 0x4C6F616E206973206E6F74206F766572647565206265796F6E642033206D6F6E PUSH1 0x44 DUP3 ADD MSTORE PUSH12 0x1D1A1CC81A5B881D1BDD185B PUSH1 0xA2 SHL PUSH1 0x64 DUP3 ADD MSTORE PUSH1 0x84 SWAP1 REVERT JUMPDEST PUSH2 0x1B82 DUP2 DUP4 PUSH2 0x24D9 JUMP JUMPDEST POP DUP4 PUSH1 0x2 DUP3 ADD SLOAD AND PUSH2 0x1B9A JUMPI PUSH1 0x3 ADD SLOAD DUP1 TIMESTAMP GT PUSH2 0x1BA9 JUMPI JUMPDEST POP PUSH2 0x1BA4 SWAP1 PUSH2 0x23F7 JUMP JUMPDEST PUSH2 0x193D JUMP JUMPDEST PUSH2 0x1BA4 SWAP2 SWAP6 PUSH2 0x1BBB PUSH2 0x1BC1 SWAP3 TIMESTAMP PUSH2 0x23EA JUMP JUMPDEST SWAP1 PUSH2 0x232A JUMP JUMPDEST SWAP5 SWAP1 PUSH2 0x1B9A JUMP JUMPDEST POP CALLVALUE PUSH2 0x168 JUMPI PUSH1 0x20 CALLDATASIZE PUSH1 0x3 NOT ADD SLT PUSH2 0x168 JUMPI PUSH1 0x4 CALLDATALOAD PUSH1 0x1 PUSH1 0x1 PUSH1 0xA0 SHL SUB DUP2 AND SWAP1 DUP2 SWAP1 SUB PUSH2 0x17B8 JUMPI PUSH1 0x40 DUP3 PUSH1 0xFF SWAP3 PUSH1 0x20 SWAP5 MSTORE PUSH1 0x6 DUP5 MSTORE KECCAK256 SLOAD AND PUSH1 0x40 MLOAD SWAP1 ISZERO ISZERO DUP2 MSTORE RETURN JUMPDEST POP CALLVALUE PUSH2 0x168 JUMPI PUSH1 0x20 DUP1 PUSH1 0x3 NOT CALLDATASIZE ADD SLT PUSH2 0x17B8 JUMPI SWAP1 PUSH1 0x4 CALLDATALOAD DUP2 MSTORE PUSH1 0x5 DUP3 MSTORE PUSH1 0xC PUSH1 0x40 DUP3 KECCAK256 ADD DUP1 SLOAD SWAP2 PUSH2 0x1C3A DUP4 PUSH2 0x227E JUMP JUMPDEST SWAP3 PUSH2 0x1C44 DUP2 PUSH2 0x227E JUMP JUMPDEST PUSH2 0x1C4D DUP3 PUSH2 0x2266 JUMP JUMPDEST SWAP2 PUSH2 0x1C5B PUSH1 0x40 MLOAD SWAP4 DUP5 PUSH2 0x217C JUMP JUMPDEST DUP1 DUP4 MSTORE PUSH2 0x1C67 DUP2 PUSH2 0x2266 JUMP JUMPDEST DUP4 DUP9 ADD SWAP6 SWAP1 PUSH1 0x1F NOT ADD CALLDATASIZE DUP8 CALLDATACOPY DUP5 JUMPDEST DUP3 DUP2 LT PUSH2 0x1CE3 JUMPI POP POP POP SWAP5 DUP1 PUSH2 0x1CA9 PUSH2 0x1C9C SWAP8 PUSH1 0x40 MLOAD SWAP9 DUP10 SWAP9 PUSH1 0x60 DUP11 MSTORE PUSH1 0x60 DUP11 ADD SWAP1 PUSH2 0x2024 JUMP JUMPDEST SWAP1 DUP9 DUP3 SUB DUP5 DUP11 ADD MSTORE PUSH2 0x2024 JUMP JUMPDEST SWAP3 DUP7 DUP5 SUB PUSH1 0x40 DUP9 ADD MSTORE MLOAD SWAP3 DUP4 DUP2 MSTORE ADD SWAP4 SWAP3 JUMPDEST DUP3 DUP2 LT PUSH2 0x1CCA JUMPI POP POP POP POP SUB SWAP1 RETURN JUMPDEST DUP4 MLOAD ISZERO ISZERO DUP6 MSTORE DUP7 SWAP6 POP SWAP4 DUP2 ADD SWAP4 SWAP3 DUP2 ADD SWAP3 PUSH1 0x1 ADD PUSH2 0x1CBB JUMP JUMPDEST DUP1 PUSH1 0xFF PUSH1 0x2 PUSH2 0x1CFB PUSH2 0x1D30 SWAP5 DUP7 SWAP14 SWAP11 SWAP10 SWAP12 SWAP13 SWAP14 PUSH2 0x24D9 JUMP JUMPDEST POP DUP1 SLOAD PUSH2 0x1D08 DUP6 DUP16 PUSH2 0x22CD JUMP JUMPDEST MSTORE PUSH1 0x1 DUP2 ADD SLOAD PUSH2 0x1D18 DUP6 DUP11 PUSH2 0x22CD JUMP JUMPDEST MSTORE ADD SLOAD AND PUSH2 0x1D26 DUP3 DUP11 PUSH2 0x22CD JUMP JUMPDEST SWAP1 ISZERO ISZERO SWAP1 MSTORE PUSH2 0x23F7 JUMP JUMPDEST SWAP8 SWAP7 SWAP6 SWAP4 SWAP5 SWAP8 PUSH2 0x1C75 JUMP JUMPDEST POP CALLVALUE PUSH2 0x168 JUMPI DUP1 PUSH1 0x3 NOT CALLDATASIZE ADD SLT PUSH2 0x168 JUMPI PUSH1 0x9 SLOAD PUSH1 0x40 MLOAD PUSH1 0x1 PUSH1 0x1 PUSH1 0xA0 SHL SUB SWAP1 SWAP2 AND DUP2 MSTORE PUSH1 0x20 SWAP1 RETURN JUMPDEST POP CALLVALUE PUSH2 0x168 JUMPI DUP1 PUSH1 0x3 NOT CALLDATASIZE ADD SLT PUSH2 0x168 JUMPI PUSH1 0x2 SLOAD PUSH1 0x40 MLOAD PUSH1 0x1 PUSH1 0x1 PUSH1 0xA0 SHL SUB SWAP1 SWAP2 AND DUP2 MSTORE PUSH1 0x20 SWAP1 RETURN JUMPDEST POP CALLVALUE PUSH2 0x168 JUMPI PUSH1 0x20 CALLDATASIZE PUSH1 0x3 NOT ADD SLT PUSH2 0x168 JUMPI PUSH2 0x1DB4 PUSH1 0x1 DUP1 PUSH1 0xA0 SHL SUB PUSH1 0x8 SLOAD AND CALLER EQ PUSH2 0x24F5 JUMP JUMPDEST PUSH1 0x4 CALLDATALOAD DUP2 MSTORE PUSH1 0x5 PUSH1 0x20 MSTORE PUSH1 0x40 DUP2 KECCAK256 PUSH1 0x9 DUP2 ADD DUP1 SLOAD SWAP2 PUSH2 0x1DD5 PUSH1 0xFF DUP5 AND PUSH2 0x254B JUMP JUMPDEST PUSH2 0x1DDD PUSH2 0x21EA JUMP JUMPDEST SWAP2 PUSH1 0xD DUP3 ADD PUSH4 0x5F5E100 PUSH2 0x1DF2 DUP6 DUP4 SLOAD PUSH2 0x22E1 JUMP JUMPDEST DIV SWAP2 PUSH1 0xE DUP5 ADD SWAP3 DUP4 SLOAD PUSH1 0x69 DUP2 MUL SWAP1 DUP1 DUP3 DIV PUSH1 0x69 EQ SWAP1 ISZERO OR ISZERO PUSH2 0x1333 JUMPI PUSH1 0x64 SWAP1 DIV LT PUSH2 0x1FC1 JUMPI PUSH1 0xFF NOT SWAP6 DUP7 AND SWAP1 SSTORE PUSH1 0x1 DUP4 ADD DUP1 SLOAD PUSH1 0x1 PUSH1 0x1 PUSH1 0xA0 SHL SUB AND DUP8 MSTORE PUSH1 0x6 PUSH1 0x20 MSTORE PUSH1 0x40 DUP8 KECCAK256 DUP1 SLOAD SWAP1 SWAP7 AND SWAP1 SWAP6 SSTORE SLOAD DUP1 PUSH2 0x1FAF JUMPI JUMPDEST POP PUSH1 0x3 DUP3 ADD SLOAD SWAP1 SLOAD SWAP2 DUP3 PUSH2 0x1EA7 JUMPI JUMPDEST POP POP SWAP2 SLOAD PUSH1 0x40 DUP1 MLOAD PUSH1 0x4 CALLDATALOAD DUP2 MSTORE PUSH1 0x1 PUSH1 0x1 PUSH1 0xA0 SHL SUB SWAP1 SWAP3 AND PUSH1 0x20 DUP4 ADD MSTORE DUP2 ADD SWAP2 SWAP1 SWAP2 MSTORE PUSH32 0xCAB88A55906C5830A49DDDD8B31D115294A5E6C4210F25FE140530A39C51DC74 SWAP2 POP DUP1 PUSH1 0x60 DUP2 ADD PUSH2 0x19ED JUMP JUMPDEST SWAP1 SWAP2 SWAP3 DUP6 JUMPDEST PUSH1 0xB DUP4 ADD SLOAD DUP2 LT ISZERO PUSH2 0x1F82 JUMPI PUSH2 0x1EC5 DUP2 PUSH1 0xB DUP6 ADD PUSH2 0x2416 JUMP JUMPDEST POP PUSH2 0x1ED9 PUSH1 0x1 DUP3 ADD SLOAD PUSH1 0x3 DUP4 ADD SLOAD SWAP1 PUSH2 0x23EA JUMP JUMPDEST DUP1 ISZERO PUSH2 0x1F77 JUMPI DUP1 PUSH8 0xDE0B6B3A7640000 DUP2 MUL DIV PUSH8 0xDE0B6B3A7640000 SUB PUSH2 0x1333 JUMPI PUSH2 0x1F59 SWAP3 SWAP2 PUSH8 0xDE0B6B3A7640000 PUSH2 0x1F19 PUSH2 0x1A67 DUP11 DUP4 PUSH1 0x20 SWAP7 MUL PUSH2 0x230A JUMP JUMPDEST PUSH1 0x9 SLOAD SWAP3 SLOAD PUSH1 0x40 MLOAD PUSH4 0xA9059CBB PUSH1 0xE0 SHL DUP2 MSTORE PUSH1 0x1 PUSH1 0x1 PUSH1 0xA0 SHL SUB SWAP2 DUP3 AND PUSH1 0x4 DUP3 ADD MSTORE SWAP3 SWAP1 SWAP2 DIV PUSH1 0x24 DUP4 ADD MSTORE SWAP1 SWAP5 DUP6 SWAP3 SWAP1 SWAP2 AND SWAP1 DUP3 SWAP1 DUP13 SWAP1 DUP3 SWAP1 PUSH1 0x44 DUP3 ADD SWAP1 JUMP JUMPDEST SUB SWAP3 GAS CALL SWAP2 DUP3 ISZERO PUSH2 0x1655 JUMPI PUSH2 0x1F72 SWAP3 PUSH2 0x7BA JUMPI POP PUSH2 0x23F7 JUMP JUMPDEST PUSH2 0x1EAC JUMP JUMPDEST POP POP PUSH2 0x1F72 SWAP1 PUSH2 0x23F7 JUMP JUMPDEST POP SWAP3 POP POP POP PUSH32 0xCAB88A55906C5830A49DDDD8B31D115294A5E6C4210F25FE140530A39C51DC74 CODESIZE DUP1 PUSH2 0x1E57 JUMP JUMPDEST PUSH2 0x1FBB SWAP1 PUSH1 0x4 CALLDATALOAD PUSH2 0x2A04 JUMP JUMPDEST CODESIZE PUSH2 0x1E48 JUMP JUMPDEST PUSH1 0x40 MLOAD PUSH3 0x461BCD PUSH1 0xE5 SHL DUP2 MSTORE PUSH1 0x20 PUSH1 0x4 DUP3 ADD MSTORE PUSH1 0x35 PUSH1 0x24 DUP3 ADD MSTORE PUSH32 0x4254432076616C756520686173206E6F742064726F707065642062656C6F7720 PUSH1 0x44 DUP3 ADD MSTORE PUSH21 0x1B1A5C5D5A59185D1A5BDB881D1A1C995CDA1BDB19 PUSH1 0x5A SHL PUSH1 0x64 DUP3 ADD MSTORE PUSH1 0x84 SWAP1 REVERT JUMPDEST SWAP1 DUP2 MLOAD DUP1 DUP3 MSTORE PUSH1 0x20 DUP1 DUP1 SWAP4 ADD SWAP4 ADD SWAP2 PUSH1 0x0 JUMPDEST DUP3 DUP2 LT PUSH2 0x2044 JUMPI POP POP POP POP SWAP1 JUMP JUMPDEST DUP4 MLOAD DUP6 MSTORE SWAP4 DUP2 ADD SWAP4 SWAP3 DUP2 ADD SWAP3 PUSH1 0x1 ADD PUSH2 0x2036 JUMP JUMPDEST PUSH1 0x40 SWAP1 PUSH1 0x3 NOT ADD SLT PUSH2 0x206E JUMPI PUSH1 0x4 CALLDATALOAD SWAP1 PUSH1 0x24 CALLDATALOAD SWAP1 JUMP JUMPDEST PUSH1 0x0 DUP1 REVERT JUMPDEST SWAP2 DUP2 PUSH1 0x1F DUP5 ADD SLT ISZERO PUSH2 0x206E JUMPI DUP3 CALLDATALOAD SWAP2 PUSH8 0xFFFFFFFFFFFFFFFF DUP4 GT PUSH2 0x206E JUMPI PUSH1 0x20 DUP1 DUP6 ADD SWAP5 DUP5 PUSH1 0x5 SHL ADD ADD GT PUSH2 0x206E JUMPI JUMP JUMPDEST SWAP1 DUP2 MLOAD DUP1 DUP3 MSTORE PUSH1 0x20 DUP1 DUP1 SWAP4 ADD SWAP4 ADD SWAP2 PUSH1 0x0 JUMPDEST DUP3 DUP2 LT PUSH2 0x20C4 JUMPI POP POP POP POP SWAP1 JUMP JUMPDEST DUP4 MLOAD PUSH1 0x1 PUSH1 0x1 PUSH1 0xA0 SHL SUB AND DUP6 MSTORE SWAP4 DUP2 ADD SWAP4 SWAP3 DUP2 ADD SWAP3 PUSH1 0x1 ADD PUSH2 0x20B6 JUMP JUMPDEST PUSH1 0x7 SLOAD DUP2 LT ISZERO PUSH2 0x2118 JUMPI PUSH1 0x7 PUSH1 0x0 MSTORE PUSH32 0xA66CC928B5EDB82AF9BD49922954155AB7B0942694BEA4CE44661D9A8736C688 ADD SWAP1 PUSH1 0x0 SWAP1 JUMP JUMPDEST PUSH4 0x4E487B71 PUSH1 0xE0 SHL PUSH1 0x0 MSTORE PUSH1 0x32 PUSH1 0x4 MSTORE PUSH1 0x24 PUSH1 0x0 REVERT JUMPDEST PUSH1 0x80 DUP2 ADD SWAP1 DUP2 LT PUSH8 0xFFFFFFFFFFFFFFFF DUP3 GT OR PUSH2 0x214A JUMPI PUSH1 0x40 MSTORE JUMP JUMPDEST PUSH4 0x4E487B71 PUSH1 0xE0 SHL PUSH1 0x0 MSTORE PUSH1 0x41 PUSH1 0x4 MSTORE PUSH1 0x24 PUSH1 0x0 REVERT JUMPDEST PUSH1 0x60 DUP2 ADD SWAP1 DUP2 LT PUSH8 0xFFFFFFFFFFFFFFFF DUP3 GT OR PUSH2 0x214A JUMPI PUSH1 0x40 MSTORE JUMP JUMPDEST SWAP1 PUSH1 0x1F DUP1 NOT SWAP2 ADD AND DUP2 ADD SWAP1 DUP2 LT PUSH8 0xFFFFFFFFFFFFFFFF DUP3 GT OR PUSH2 0x214A JUMPI PUSH1 0x40 MSTORE JUMP JUMPDEST MLOAD SWAP1 PUSH10 0xFFFFFFFFFFFFFFFFFFFF DUP3 AND DUP3 SUB PUSH2 0x206E JUMPI JUMP JUMPDEST SWAP1 DUP2 PUSH1 0xA0 SWAP2 SUB SLT PUSH2 0x206E JUMPI PUSH2 0x21C9 DUP2 PUSH2 0x219E JUMP JUMPDEST SWAP2 PUSH1 0x20 DUP3 ADD MLOAD SWAP2 PUSH1 0x40 DUP2 ADD MLOAD SWAP2 PUSH2 0x21E7 PUSH1 0x80 PUSH1 0x60 DUP5 ADD MLOAD SWAP4 ADD PUSH2 0x219E JUMP JUMPDEST SWAP1 JUMP JUMPDEST PUSH1 0x3 SLOAD PUSH1 0x40 MLOAD PUSH4 0x3FABE5A3 PUSH1 0xE2 SHL DUP2 MSTORE SWAP1 PUSH1 0xA0 SWAP1 DUP3 SWAP1 PUSH1 0x4 SWAP1 DUP3 SWAP1 PUSH1 0x1 PUSH1 0x1 PUSH1 0xA0 SHL SUB AND GAS STATICCALL SWAP1 DUP2 ISZERO PUSH2 0x2242 JUMPI PUSH1 0x0 SWAP2 PUSH2 0x2222 JUMPI POP SWAP1 JUMP JUMPDEST PUSH2 0x223A SWAP2 POP PUSH1 0xA0 RETURNDATASIZE DUP2 GT PUSH2 0x11AB JUMPI PUSH2 0x1198 DUP2 DUP4 PUSH2 0x217C JUMP JUMPDEST POP POP POP SWAP1 POP SWAP1 JUMP JUMPDEST PUSH1 0x40 MLOAD RETURNDATASIZE PUSH1 0x0 DUP3 RETURNDATACOPY RETURNDATASIZE SWAP1 REVERT JUMPDEST SWAP1 DUP2 PUSH1 0x20 SWAP2 SUB SLT PUSH2 0x206E JUMPI MLOAD DUP1 ISZERO ISZERO DUP2 SUB PUSH2 0x206E JUMPI SWAP1 JUMP JUMPDEST PUSH8 0xFFFFFFFFFFFFFFFF DUP2 GT PUSH2 0x214A JUMPI PUSH1 0x5 SHL PUSH1 0x20 ADD SWAP1 JUMP JUMPDEST SWAP1 PUSH2 0x2288 DUP3 PUSH2 0x2266 JUMP JUMPDEST PUSH2 0x2295 PUSH1 0x40 MLOAD SWAP2 DUP3 PUSH2 0x217C JUMP JUMPDEST DUP3 DUP2 MSTORE DUP1 SWAP3 PUSH2 0x22A6 PUSH1 0x1F NOT SWAP2 PUSH2 0x2266 JUMP JUMPDEST ADD SWAP1 PUSH1 0x20 CALLDATASIZE SWAP2 ADD CALLDATACOPY JUMP JUMPDEST DUP1 MLOAD ISZERO PUSH2 0x2118 JUMPI PUSH1 0x20 ADD SWAP1 JUMP JUMPDEST DUP1 MLOAD PUSH1 0x1 LT ISZERO PUSH2 0x2118 JUMPI PUSH1 0x40 ADD SWAP1 JUMP JUMPDEST DUP1 MLOAD DUP3 LT ISZERO PUSH2 0x2118 JUMPI PUSH1 0x20 SWAP2 PUSH1 0x5 SHL ADD ADD SWAP1 JUMP JUMPDEST DUP2 DUP2 MUL SWAP3 SWAP2 DUP2 ISZERO SWAP2 DUP5 DIV EQ OR ISZERO PUSH2 0x22F4 JUMPI JUMP JUMPDEST PUSH4 0x4E487B71 PUSH1 0xE0 SHL PUSH1 0x0 MSTORE PUSH1 0x11 PUSH1 0x4 MSTORE PUSH1 0x24 PUSH1 0x0 REVERT JUMPDEST DUP2 ISZERO PUSH2 0x2314 JUMPI DIV SWAP1 JUMP JUMPDEST PUSH4 0x4E487B71 PUSH1 0xE0 SHL PUSH1 0x0 MSTORE PUSH1 0x12 PUSH1 0x4 MSTORE PUSH1 0x24 PUSH1 0x0 REVERT JUMPDEST SWAP2 SWAP1 DUP3 ADD DUP1 SWAP3 GT PUSH2 0x22F4 JUMPI JUMP JUMPDEST PUSH1 0x20 SWAP1 DUP2 DUP2 DUP5 SUB SLT PUSH2 0x206E JUMPI DUP1 MLOAD SWAP1 PUSH8 0xFFFFFFFFFFFFFFFF DUP3 GT PUSH2 0x206E JUMPI ADD SWAP2 DUP1 PUSH1 0x1F DUP5 ADD SLT ISZERO PUSH2 0x206E JUMPI DUP3 MLOAD PUSH2 0x236D DUP2 PUSH2 0x2266 JUMP JUMPDEST SWAP4 PUSH2 0x237B PUSH1 0x40 MLOAD SWAP6 DUP7 PUSH2 0x217C JUMP JUMPDEST DUP2 DUP6 MSTORE DUP4 DUP1 DUP7 ADD SWAP3 PUSH1 0x5 SHL DUP3 ADD ADD SWAP3 DUP4 GT PUSH2 0x206E JUMPI DUP4 ADD SWAP1 JUMPDEST DUP3 DUP3 LT PUSH2 0x23A2 JUMPI POP POP POP POP SWAP1 JUMP JUMPDEST DUP2 MLOAD DUP2 MSTORE SWAP1 DUP4 ADD SWAP1 DUP4 ADD PUSH2 0x2394 JUMP JUMPDEST SWAP2 SWAP3 PUSH1 0x80 SWAP4 PUSH2 0x23D6 SWAP3 SWAP8 SWAP7 SWAP6 SWAP8 DUP5 MSTORE PUSH1 0x20 DUP5 ADD MSTORE PUSH1 0xA0 PUSH1 0x40 DUP5 ADD MSTORE PUSH1 0xA0 DUP4 ADD SWAP1 PUSH2 0x20A4 JUMP JUMPDEST PUSH1 0x1 PUSH1 0x1 PUSH1 0xA0 SHL SUB SWAP1 SWAP6 AND PUSH1 0x60 DUP3 ADD MSTORE ADD MSTORE JUMP JUMPDEST SWAP2 SWAP1 DUP3 SUB SWAP2 DUP3 GT PUSH2 0x22F4 JUMPI JUMP JUMPDEST PUSH1 0x0 NOT DUP2 EQ PUSH2 0x22F4 JUMPI PUSH1 0x1 ADD SWAP1 JUMP JUMPDEST SWAP2 SWAP1 DUP2 LT ISZERO PUSH2 0x2118 JUMPI PUSH1 0x5 SHL ADD SWAP1 JUMP JUMPDEST DUP1 SLOAD DUP3 LT ISZERO PUSH2 0x2118 JUMPI PUSH1 0x0 MSTORE PUSH1 0x5 PUSH1 0x20 PUSH1 0x0 KECCAK256 SWAP2 MUL ADD SWAP1 PUSH1 0x0 SWAP1 JUMP JUMPDEST SWAP1 DUP1 ISZERO PUSH2 0x24D2 JUMPI DUP2 ISZERO PUSH2 0x24CB JUMPI DUP2 DUP1 PUSH1 0x1 EQ PUSH2 0x24C3 JUMPI PUSH1 0x2 EQ PUSH2 0x24B2 JUMPI PUSH1 0x20 DUP2 LT PUSH2 0x133 DUP4 LT AND PUSH1 0x4E DUP3 LT PUSH1 0xB DUP5 LT AND OR PUSH2 0x24AD JUMPI PUSH1 0x1 SWAP1 DUP2 JUMPDEST DUP1 DUP3 GT PUSH2 0x2484 JUMPI POP POP DUP2 PUSH1 0x0 NOT DIV DUP2 GT PUSH2 0x22F4 JUMPI MUL SWAP1 JUMP JUMPDEST SWAP1 SWAP3 DUP1 PUSH1 0x0 NOT DIV DUP2 GT PUSH2 0x22F4 JUMPI DUP2 DUP5 AND PUSH2 0x24A4 JUMPI JUMPDEST DUP1 MUL SWAP3 DUP2 SHR SWAP1 PUSH2 0x246C JUMP JUMPDEST DUP1 SWAP3 MUL SWAP2 PUSH2 0x2499 JUMP JUMPDEST SWAP1 EXP SWAP1 JUMP JUMPDEST SWAP1 POP PUSH1 0xFF DUP2 GT PUSH2 0x22F4 JUMPI PUSH1 0x1 SWAP1 SHL SWAP1 JUMP JUMPDEST POP POP POP PUSH1 0x1 SWAP1 JUMP JUMPDEST POP POP PUSH1 0x0 SWAP1 JUMP JUMPDEST POP POP PUSH1 0x1 SWAP1 JUMP JUMPDEST DUP1 SLOAD DUP3 LT ISZERO PUSH2 0x2118 JUMPI PUSH1 0x0 MSTORE PUSH1 0x20 PUSH1 0x0 KECCAK256 SWAP1 PUSH1 0x2 SHL ADD SWAP1 PUSH1 0x0 SWAP1 JUMP JUMPDEST ISZERO PUSH2 0x24FC JUMPI JUMP JUMPDEST PUSH1 0x40 MLOAD PUSH3 0x461BCD PUSH1 0xE5 SHL DUP2 MSTORE PUSH1 0x20 PUSH1 0x4 DUP3 ADD MSTORE PUSH1 0x21 PUSH1 0x24 DUP3 ADD MSTORE PUSH32 0x4F6E6C79206F776E65722063616E2063616C6C20746869732066756E6374696F PUSH1 0x44 DUP3 ADD MSTORE PUSH1 0x37 PUSH1 0xF9 SHL PUSH1 0x64 DUP3 ADD MSTORE PUSH1 0x84 SWAP1 REVERT JUMPDEST ISZERO PUSH2 0x2552 JUMPI JUMP JUMPDEST PUSH1 0x40 MLOAD PUSH3 0x461BCD PUSH1 0xE5 SHL DUP2 MSTORE PUSH1 0x20 PUSH1 0x4 DUP3 ADD MSTORE PUSH1 0x12 PUSH1 0x24 DUP3 ADD MSTORE PUSH18 0x4C6F616E206973206E6F7420616374697665 PUSH1 0x70 SHL PUSH1 0x44 DUP3 ADD MSTORE PUSH1 0x64 SWAP1 REVERT JUMPDEST SWAP1 PUSH1 0x0 SWAP2 DUP1 DUP4 MSTORE PUSH1 0x20 PUSH1 0x5 DUP2 MSTORE PUSH1 0x40 DUP1 DUP6 KECCAK256 SWAP4 DUP1 ISZERO DUP1 DUP1 ISZERO PUSH2 0x29F8 JUMPI JUMPDEST DUP1 ISZERO PUSH2 0x29EC JUMPI JUMPDEST PUSH2 0x25EF JUMPI PUSH4 0x5F5E100 DUP1 DUP4 MUL SWAP3 DUP4 DIV EQ OR ISZERO PUSH2 0x1135 JUMPI PUSH2 0x25D7 PUSH1 0xD SWAP2 PUSH1 0x8 DUP8 ADD SLOAD SWAP1 PUSH2 0x230A JUMP JUMPDEST SWAP5 ADD SWAP5 DUP6 SLOAD DUP1 DUP7 GT PUSH2 0x29E4 JUMPI JUMPDEST POP DUP5 ISZERO SWAP2 DUP3 ISZERO PUSH2 0x25F8 JUMPI JUMPDEST POP POP POP POP POP POP POP JUMP JUMPDEST DUP5 DUP3 MSTORE PUSH1 0x5 DUP5 MSTORE DUP1 DUP3 KECCAK256 SWAP4 PUSH1 0xD DUP6 ADD SWAP4 DUP5 SLOAD DUP9 GT PUSH2 0x2992 JUMPI PUSH2 0x2950 JUMPI PUSH1 0x1 DUP1 PUSH1 0xA0 SHL SUB SWAP3 DUP4 PUSH1 0x2 SLOAD AND SWAP4 DUP4 MLOAD SWAP6 PUSH4 0x70A08231 PUSH1 0xE0 SHL SWAP8 DUP9 DUP9 MSTORE PUSH1 0x4 SWAP3 ADDRESS DUP5 DUP11 ADD MSTORE PUSH1 0x24 SWAP3 DUP7 DUP11 DUP6 DUP2 DUP13 GAS STATICCALL SWAP10 DUP11 ISZERO PUSH2 0x28E8 JUMPI DUP7 SWAP11 PUSH2 0x2921 JUMPI JUMPDEST POP DUP7 DUP14 PUSH1 0x64 DUP5 DUP10 SLOAD AND SWAP12 DUP10 DUP13 MLOAD SWAP14 DUP15 SWAP5 DUP6 SWAP4 PUSH4 0x1A4CA37B PUSH1 0xE2 SHL DUP6 MSTORE DUP13 DUP6 ADD MSTORE DUP11 DUP5 ADD MSTORE ADDRESS PUSH1 0x44 DUP5 ADD MSTORE GAS CALL SWAP9 DUP10 ISZERO PUSH2 0x28E8 JUMPI DUP7 SWAP10 PUSH2 0x28F2 JUMPI JUMPDEST POP DUP7 DUP3 PUSH1 0x2 SLOAD AND SWAP12 DUP6 DUP11 MLOAD DUP1 SWAP15 DUP2 SWAP4 DUP3 MSTORE ADDRESS DUP11 DUP4 ADD MSTORE GAS STATICCALL SWAP11 DUP12 ISZERO PUSH2 0x28E8 JUMPI DUP7 SWAP12 PUSH2 0x28B5 JUMPI JUMPDEST POP DUP10 DUP12 GT ISZERO PUSH2 0x2868 JUMPI DUP9 ISZERO PUSH2 0x2826 JUMPI PUSH2 0x2710 SWAP3 DUP8 SWAP3 DUP3 PUSH2 0x26D3 DUP13 DUP1 SWAP6 SLOAD PUSH2 0x23EA JUMP JUMPDEST SWAP1 SSTORE PUSH1 0x1 DUP2 PUSH1 0x2 SLOAD AND SWAP3 ADD SLOAD AND DUP8 DUP11 MLOAD DUP1 SWAP7 DUP2 SWAP6 DUP3 SWAP5 PUSH4 0xA9059CBB PUSH1 0xE0 SHL DUP5 MSTORE DUP12 DUP5 ADD PUSH1 0x20 SWAP1 SWAP4 SWAP3 SWAP2 SWAP4 PUSH1 0x40 DUP2 ADD SWAP5 PUSH1 0x1 DUP1 PUSH1 0xA0 SHL SUB AND DUP2 MSTORE ADD MSTORE JUMP JUMPDEST SUB SWAP3 GAS CALL SWAP1 DUP2 ISZERO PUSH2 0x281C JUMPI DUP5 SWAP2 PUSH2 0x27FF JUMPI JUMPDEST POP ISZERO PUSH2 0x27BD JUMPI POP POP SWAP3 DUP3 DUP9 PUSH1 0xA0 SWAP7 SWAP4 PUSH32 0x38A556A122683CB48D496614A7A03605B6C2C0482342924CAF483386980ECC9F PUSH1 0x80 PUSH2 0x27AF SWAP13 SWAP12 SWAP9 PUSH32 0x971C7EC4A7C96C0A198687499279CCF05D9699970007B5AE5017B1177EE02ED3 SWAP12 SWAP9 MLOAD SWAP1 DUP11 DUP3 MSTORE DUP6 DUP6 DUP4 ADD MSTORE DUP7 DUP3 ADD MSTORE DUP7 PUSH1 0x60 DUP3 ADD MSTORE LOG1 DUP3 MLOAD SWAP7 DUP8 MSTORE DUP7 ADD MSTORE DUP5 ADD MSTORE PUSH1 0x60 DUP4 ADD MSTORE PUSH1 0x80 DUP3 ADD MSTORE LOG1 DUP3 SLOAD PUSH2 0x23EA JUMP JUMPDEST SWAP1 SSTORE CODESIZE DUP1 DUP1 DUP1 DUP1 DUP1 DUP1 PUSH2 0x25EF JUMP JUMPDEST DUP5 MLOAD PUSH3 0x461BCD PUSH1 0xE5 SHL DUP2 MSTORE SWAP2 DUP3 ADD DUP5 SWAP1 MSTORE PUSH1 0x1B SWAP1 DUP3 ADD MSTORE PUSH32 0x5472616E7366657220746F20626F72726F776572206661696C65640000000000 PUSH1 0x44 DUP3 ADD MSTORE PUSH1 0x64 SWAP1 REVERT JUMPDEST PUSH2 0x2816 SWAP2 POP DUP6 RETURNDATASIZE DUP8 GT PUSH2 0x7E2 JUMPI PUSH2 0x7D3 DUP2 DUP4 PUSH2 0x217C JUMP JUMPDEST CODESIZE PUSH2 0x2722 JUMP JUMPDEST DUP7 MLOAD RETURNDATASIZE DUP7 DUP3 RETURNDATACOPY RETURNDATASIZE SWAP1 REVERT JUMPDEST DUP8 MLOAD PUSH3 0x461BCD PUSH1 0xE5 SHL DUP2 MSTORE DUP1 DUP7 ADD DUP9 SWAP1 MSTORE PUSH1 0x1C DUP2 DUP7 ADD MSTORE PUSH32 0x556E7374616B652072657475726E6564207A65726F20746F6B656E7300000000 PUSH1 0x44 DUP3 ADD MSTORE PUSH1 0x64 SWAP1 REVERT JUMPDEST DUP8 MLOAD PUSH3 0x461BCD PUSH1 0xE5 SHL DUP2 MSTORE DUP1 DUP7 ADD DUP9 SWAP1 MSTORE PUSH1 0x22 DUP2 DUP7 ADD MSTORE PUSH32 0x5769746864726177616C206469646E277420696E6372656173652062616C616E PUSH1 0x44 DUP3 ADD MSTORE PUSH2 0x6365 PUSH1 0xF0 SHL PUSH1 0x64 DUP3 ADD MSTORE PUSH1 0x84 SWAP1 REVERT JUMPDEST SWAP1 SWAP11 POP DUP7 DUP2 DUP2 RETURNDATASIZE DUP4 GT PUSH2 0x28E1 JUMPI JUMPDEST PUSH2 0x28CD DUP2 DUP4 PUSH2 0x217C JUMP JUMPDEST DUP2 ADD SUB SLT PUSH2 0x28DD JUMPI MLOAD SWAP10 CODESIZE PUSH2 0x26B1 JUMP JUMPDEST DUP6 DUP1 REVERT JUMPDEST POP RETURNDATASIZE PUSH2 0x28C3 JUMP JUMPDEST DUP9 MLOAD RETURNDATASIZE DUP9 DUP3 RETURNDATACOPY RETURNDATASIZE SWAP1 REVERT JUMPDEST SWAP1 SWAP9 POP DUP7 DUP2 DUP2 RETURNDATASIZE DUP4 GT PUSH2 0x291A JUMPI JUMPDEST PUSH2 0x290A DUP2 DUP4 PUSH2 0x217C JUMP JUMPDEST DUP2 ADD SUB SLT PUSH2 0x28DD JUMPI MLOAD SWAP8 CODESIZE PUSH2 0x268B JUMP JUMPDEST POP RETURNDATASIZE PUSH2 0x2900 JUMP JUMPDEST SWAP1 SWAP10 POP DUP7 DUP2 DUP2 RETURNDATASIZE DUP4 GT PUSH2 0x2949 JUMPI JUMPDEST PUSH2 0x2939 DUP2 DUP4 PUSH2 0x217C JUMP JUMPDEST DUP2 ADD SUB SLT PUSH2 0x28DD JUMPI MLOAD SWAP9 CODESIZE PUSH2 0x2651 JUMP JUMPDEST POP RETURNDATASIZE PUSH2 0x292F JUMP JUMPDEST PUSH1 0x64 SWAP2 MLOAD SWAP1 PUSH3 0x461BCD PUSH1 0xE5 SHL DUP3 MSTORE PUSH1 0x4 DUP3 ADD MSTORE PUSH1 0x1A PUSH1 0x24 DUP3 ADD MSTORE PUSH32 0x43616E6E6F7420756E7374616B65207A65726F20616D6F756E74000000000000 PUSH1 0x44 DUP3 ADD MSTORE REVERT JUMPDEST POP PUSH1 0x84 SWAP2 MLOAD SWAP1 PUSH3 0x461BCD PUSH1 0xE5 SHL DUP3 MSTORE PUSH1 0x4 DUP3 ADD MSTORE PUSH1 0x26 PUSH1 0x24 DUP3 ADD MSTORE PUSH32 0x43616E6E6F7420756E7374616B65206D6F7265207468616E207374616B656420 PUSH1 0x44 DUP3 ADD MSTORE PUSH6 0x185B5BDD5B9D PUSH1 0xD2 SHL PUSH1 0x64 DUP3 ADD MSTORE REVERT JUMPDEST SWAP5 POP CODESIZE PUSH2 0x25E4 JUMP JUMPDEST POP PUSH1 0xD DUP7 ADD SLOAD ISZERO PUSH2 0x25B0 JUMP JUMPDEST POP PUSH1 0x8 DUP7 ADD SLOAD ISZERO PUSH2 0x25A9 JUMP JUMPDEST SWAP1 PUSH1 0x0 SWAP1 DUP3 DUP3 MSTORE PUSH1 0x20 SWAP2 PUSH1 0x5 DUP4 MSTORE PUSH1 0x40 PUSH1 0xD DUP2 DUP4 KECCAK256 ADD SWAP3 DUP4 SLOAD DUP2 GT PUSH2 0x2E33 JUMPI DUP1 ISZERO PUSH2 0x2DEF JUMPI PUSH1 0x2 SLOAD DUP3 MLOAD PUSH4 0x70A08231 PUSH1 0xE0 SHL DUP1 DUP3 MSTORE ADDRESS PUSH1 0x4 DUP1 DUP5 ADD SWAP2 SWAP1 SWAP2 MSTORE SWAP1 SWAP8 SWAP2 SWAP7 SWAP2 SWAP3 PUSH1 0x1 PUSH1 0x1 PUSH1 0xA0 SHL SUB SWAP3 PUSH1 0x24 SWAP2 DUP5 AND DUP6 DUP11 DUP5 DUP2 DUP5 GAS STATICCALL SWAP10 DUP11 ISZERO PUSH2 0x2DE5 JUMPI DUP10 SWAP11 PUSH2 0x2DB2 JUMPI JUMPDEST POP SWAP1 DUP6 DUP6 SWAP5 SWAP4 SWAP3 PUSH1 0x64 DUP12 SWAP8 DUP9 SLOAD AND SWAP2 DUP12 MLOAD SWAP13 DUP14 SWAP4 DUP5 SWAP3 PUSH4 0x1A4CA37B PUSH1 0xE2 SHL DUP5 MSTORE DUP10 DUP5 ADD MSTORE DUP13 DUP9 DUP5 ADD MSTORE ADDRESS PUSH1 0x44 DUP5 ADD MSTORE GAS CALL SWAP9 DUP10 ISZERO PUSH2 0x2CB7 JUMPI DUP6 SWAP10 PUSH2 0x2D83 JUMPI JUMPDEST POP DUP6 DUP5 PUSH1 0x2 SLOAD AND SWAP12 DUP4 DUP11 MLOAD DUP1 SWAP15 DUP2 SWAP4 DUP3 MSTORE ADDRESS DUP9 DUP4 ADD MSTORE GAS STATICCALL SWAP11 DUP12 ISZERO PUSH2 0x2CB7 JUMPI DUP6 SWAP12 PUSH2 0x2D50 JUMPI JUMPDEST POP DUP10 DUP12 GT ISZERO PUSH2 0x2D03 JUMPI DUP9 ISZERO PUSH2 0x2CC1 JUMPI PUSH2 0x2AEB DUP10 DUP3 SLOAD PUSH2 0x23EA JUMP JUMPDEST SWAP1 SSTORE PUSH1 0x2 SLOAD PUSH1 0x1 SLOAD DUP9 MLOAD PUSH4 0x95EA7B3 PUSH1 0xE0 SHL DUP2 MSTORE SWAP1 DUP6 AND PUSH1 0x1 PUSH1 0x1 PUSH1 0xA0 SHL SUB AND DUP5 DUP3 ADD SWAP1 DUP2 MSTORE PUSH1 0x20 DUP2 ADD DUP12 SWAP1 MSTORE SWAP1 SWAP2 DUP8 SWAP2 DUP4 SWAP2 DUP8 AND SWAP1 DUP3 SWAP1 DUP10 SWAP1 DUP3 SWAP1 PUSH1 0x40 ADD SUB SWAP3 GAS CALL DUP1 ISZERO PUSH2 0x2CB7 JUMPI PUSH2 0x2C9A JUMPI JUMPDEST POP DUP7 MLOAD SWAP2 PUSH2 0x2B46 DUP4 PUSH2 0x2160 JUMP JUMPDEST PUSH1 0x2 DUP4 MSTORE DUP8 CALLDATASIZE DUP8 DUP6 ADD CALLDATACOPY DUP4 PUSH1 0x2 SLOAD AND PUSH2 0x2B5E DUP5 PUSH2 0x22B0 JUMP JUMPDEST MSTORE DUP4 PUSH1 0x9 SLOAD AND PUSH2 0x2B6D DUP5 PUSH2 0x22BD JUMP JUMPDEST MSTORE PUSH1 0x5F DUP10 MUL SWAP4 DUP10 DUP6 DIV PUSH1 0x5F SUB PUSH2 0x2C88 JUMPI PUSH1 0x1 SLOAD AND SWAP2 PUSH2 0x12C TIMESTAMP ADD SWAP1 DUP2 TIMESTAMP GT PUSH2 0x2C77 JUMPI POP SWAP1 DUP6 DUP11 PUSH2 0x2BBA DUP3 SWAP7 SWAP6 SWAP5 DUP13 MLOAD SWAP9 DUP10 SWAP8 DUP9 SWAP7 DUP8 SWAP6 PUSH4 0x38ED1739 PUSH1 0xE0 SHL DUP8 MSTORE PUSH1 0x64 ADDRESS SWAP5 DIV SWAP2 DUP8 ADD PUSH2 0x23B1 JUMP JUMPDEST SUB SWAP3 GAS CALL SWAP1 DUP2 ISZERO PUSH2 0x2C6D JUMPI PUSH1 0x80 DUP4 PUSH2 0x2C24 PUSH32 0x971C7EC4A7C96C0A198687499279CCF05D9699970007B5AE5017B1177EE02ED3 SWAP13 SWAP11 SWAP9 SWAP7 SWAP5 PUSH32 0x38A556A122683CB48D496614A7A03605B6C2C0482342924CAF483386980ECC9F SWAP5 PUSH1 0xA0 SWAP14 SWAP12 SWAP10 SWAP8 SWAP2 PUSH2 0x2C53 JUMPI POP PUSH2 0x22BD JUMP JUMPDEST MLOAD SWAP1 DUP7 MLOAD SWAP2 DUP12 DUP4 MSTORE DUP7 DUP7 DUP5 ADD MSTORE DUP8 DUP4 ADD MSTORE PUSH1 0x60 DUP3 ADD MSTORE LOG1 DUP3 MLOAD SWAP7 DUP8 MSTORE DUP7 ADD MSTORE DUP5 ADD MSTORE PUSH1 0x60 DUP4 ADD MSTORE PUSH1 0x80 DUP3 ADD MSTORE LOG1 JUMP JUMPDEST PUSH2 0x2C67 SWAP2 POP RETURNDATASIZE DUP1 DUP6 DUP4 RETURNDATACOPY PUSH2 0x1108 DUP2 DUP4 PUSH2 0x217C JUMP JUMPDEST CODESIZE PUSH2 0xF61 JUMP JUMPDEST DUP6 MLOAD RETURNDATASIZE DUP5 DUP3 RETURNDATACOPY RETURNDATASIZE SWAP1 REVERT JUMPDEST PUSH4 0x4E487B71 PUSH1 0xE0 SHL DUP8 MSTORE PUSH1 0x11 DUP4 MSTORE DUP7 REVERT JUMPDEST POP PUSH4 0x4E487B71 PUSH1 0xE0 SHL DUP6 MSTORE PUSH1 0x11 SWAP1 MSTORE DUP4 REVERT JUMPDEST PUSH2 0x2CB0 SWAP1 DUP7 RETURNDATASIZE DUP9 GT PUSH2 0x7E2 JUMPI PUSH2 0x7D3 DUP2 DUP4 PUSH2 0x217C JUMP JUMPDEST POP CODESIZE PUSH2 0x2B39 JUMP JUMPDEST DUP9 MLOAD RETURNDATASIZE DUP8 DUP3 RETURNDATACOPY RETURNDATASIZE SWAP1 REVERT JUMPDEST DUP8 MLOAD PUSH3 0x461BCD PUSH1 0xE5 SHL DUP2 MSTORE DUP1 DUP5 ADD DUP8 SWAP1 MSTORE PUSH1 0x1C DUP2 DUP5 ADD MSTORE PUSH32 0x556E7374616B652072657475726E6564207A65726F20746F6B656E7300000000 PUSH1 0x44 DUP3 ADD MSTORE PUSH1 0x64 SWAP1 REVERT JUMPDEST DUP8 MLOAD PUSH3 0x461BCD PUSH1 0xE5 SHL DUP2 MSTORE DUP1 DUP5 ADD DUP8 SWAP1 MSTORE PUSH1 0x22 DUP2 DUP5 ADD MSTORE PUSH32 0x5769746864726177616C206469646E277420696E6372656173652062616C616E PUSH1 0x44 DUP3 ADD MSTORE PUSH2 0x6365 PUSH1 0xF0 SHL PUSH1 0x64 DUP3 ADD MSTORE PUSH1 0x84 SWAP1 REVERT JUMPDEST SWAP1 SWAP11 POP DUP6 DUP2 DUP2 RETURNDATASIZE DUP4 GT PUSH2 0x2D7C JUMPI JUMPDEST PUSH2 0x2D68 DUP2 DUP4 PUSH2 0x217C JUMP JUMPDEST DUP2 ADD SUB SLT PUSH2 0x2D78 JUMPI MLOAD SWAP10 CODESIZE PUSH2 0x2AD1 JUMP JUMPDEST DUP5 DUP1 REVERT JUMPDEST POP RETURNDATASIZE PUSH2 0x2D5E JUMP JUMPDEST SWAP1 SWAP9 POP DUP6 DUP2 DUP2 RETURNDATASIZE DUP4 GT PUSH2 0x2DAB JUMPI JUMPDEST PUSH2 0x2D9B DUP2 DUP4 PUSH2 0x217C JUMP JUMPDEST DUP2 ADD SUB SLT PUSH2 0x2D78 JUMPI MLOAD SWAP8 CODESIZE PUSH2 0x2AAB JUMP JUMPDEST POP RETURNDATASIZE PUSH2 0x2D91 JUMP JUMPDEST SWAP1 SWAP10 POP DUP6 DUP2 DUP2 RETURNDATASIZE DUP4 GT PUSH2 0x2DDE JUMPI JUMPDEST PUSH2 0x2DCA DUP2 DUP4 PUSH2 0x217C JUMP JUMPDEST DUP2 ADD SUB SLT PUSH2 0x2DDA JUMPI MLOAD SWAP9 DUP6 PUSH2 0x2A6C JUMP JUMPDEST DUP9 DUP1 REVERT JUMPDEST POP RETURNDATASIZE PUSH2 0x2DC0 JUMP JUMPDEST DUP9 MLOAD RETURNDATASIZE DUP12 DUP3 RETURNDATACOPY RETURNDATASIZE SWAP1 REVERT JUMPDEST DUP2 MLOAD PUSH3 0x461BCD PUSH1 0xE5 SHL DUP2 MSTORE PUSH1 0x4 DUP2 ADD DUP7 SWAP1 MSTORE PUSH1 0x1A PUSH1 0x24 DUP3 ADD MSTORE PUSH32 0x43616E6E6F7420756E7374616B65207A65726F20616D6F756E74000000000000 PUSH1 0x44 DUP3 ADD MSTORE PUSH1 0x64 SWAP1 REVERT JUMPDEST DUP2 MLOAD PUSH3 0x461BCD PUSH1 0xE5 SHL DUP2 MSTORE PUSH1 0x4 DUP2 ADD DUP7 SWAP1 MSTORE PUSH1 0x26 PUSH1 0x24 DUP3 ADD MSTORE PUSH32 0x43616E6E6F7420756E7374616B65206D6F7265207468616E207374616B656420 PUSH1 0x44 DUP3 ADD MSTORE PUSH6 0x185B5BDD5B9D PUSH1 0xD2 SHL PUSH1 0x64 DUP3 ADD MSTORE PUSH1 0x84 SWAP1 REVERT JUMPDEST PUSH1 0x0 SWAP1 DUP2 MSTORE PUSH1 0x5 PUSH1 0x20 MSTORE PUSH1 0x40 DUP2 KECCAK256 PUSH1 0x2 DUP2 ADD SLOAD SWAP1 SWAP4 SWAP3 DUP2 ISZERO PUSH2 0x2EF0 JUMPI PUSH8 0xDE0B6B3A7640000 SWAP3 DUP4 DUP3 MUL SWAP2 DUP1 DUP4 DIV DUP6 EQ SWAP1 ISZERO OR ISZERO PUSH2 0x2EDC JUMPI POP SWAP4 PUSH2 0x2ECE PUSH2 0x2ED8 SWAP3 PUSH1 0xD SWAP7 PUSH2 0x230A JUMP JUMPDEST SWAP5 DUP6 SWAP2 ADD SLOAD PUSH2 0x22E1 JUMP JUMPDEST DIV SWAP1 JUMP JUMPDEST PUSH4 0x4E487B71 PUSH1 0xE0 SHL DUP2 MSTORE PUSH1 0x11 PUSH1 0x4 MSTORE PUSH1 0x24 SWAP1 REVERT JUMPDEST POP POP DUP1 SWAP3 POP SWAP2 SWAP1 JUMP INVALID LOG2 PUSH5 0x6970667358 0x22 SLT KECCAK256 RETURNDATACOPY 0xA5 0xE4 CALLER 0xC0 DUP14 0x2F RETURNDATACOPY 0x4C 0xC6 0xD5 0xE0 SSTORE 0xBA 0xC3 AND 0xB3 SWAP15 0xEA PUSH15 0x1A0044FF18D4B3F7FD4911AF64736F PUSH13 0x63430008140033000000000000 "},"methodIdentifiers":{"aavePool()":"a03e4bc3","cbBtcToken()":"0e462386","chainlinkOracle()":"ef06e72c","debugUnstakeCalc(bytes32,uint256)":"5206d2d0","getAmortizationSchedule(bytes32)":"1fc8f4df","getContributions(bytes32)":"86a2e274","getInstallmentSchedule(bytes32)":"6c1945ae","getPrice()":"98d5fdca","getStakedAmount(bytes32)":"337a1737","hasActiveLoan(address)":"21d4f8db","lenders(address)":"28fd10d7","liquidate(bytes32)":"0a71096e","liquidateIfOverdue(bytes32)":"28830d47","loan(uint256,uint256,uint256,address[],uint256[])":"66fb6e5a","loanIds(uint256)":"f8715a42","loans(bytes32)":"c4a90815","markInstallmentPaid(bytes32,uint256)":"c9642d2a","owner()":"8da5cb5b","payouts(bytes32,uint256)":"80f2122c","setAavePool(address)":"349f937c","setCbBtcToken(address)":"83cd8fcf","setChainlinkOracle(address)":"7a9b0412","setSwapRouter(address)":"41273657","swapRouter()":"c31c9c07","usdcToken()":"11eac855"}}}}}