{"Contracts/Helper.sol":{"MockDeployer":{"abi":[{"anonymous":false,"inputs":[{"indexed":false,"internalType":"address","name":"usdc","type":"address"},{"indexed":false,"internalType":"address","name":"cbBtc","type":"address"},{"indexed":false,"internalType":"address","name":"aavePool","type":"address"},{"indexed":false,"internalType":"address","name":"swapRouter","type":"address"},{"indexed":false,"internalType":"address","name":"priceOracle","type":"address"}],"name":"Deployed","type":"event"},{"anonymous":false,"inputs":[{"indexed":false,"internalType":"uint256","name":"usdcLiquidity","type":"uint256"},{"indexed":false,"internalType":"uint256","name":"btcLiquidity","type":"uint256"},{"indexed":false,"internalType":"uint256","name":"btcUsdRate","type":"uint256"}],"name":"Initialized","type":"event"},{"inputs":[],"name":"BTC_USD_PRICE","outputs":[{"internalType":"uint256","name":"","type":"uint256"}],"stateMutability":"view","type":"function"},{"inputs":[],"name":"INITIAL_BTC_LIQUIDITY","outputs":[{"internalType":"uint256","name":"","type":"uint256"}],"stateMutability":"view","type":"function"},{"inputs":[],"name":"INITIAL_USDC_LIQUIDITY","outputs":[{"internalType":"uint256","name":"","type":"uint256"}],"stateMutability":"view","type":"function"},{"inputs":[],"name":"aavePool","outputs":[{"internalType":"contract MockAavePool","name":"","type":"address"}],"stateMutability":"view","type":"function"},{"inputs":[],"name":"cbBtc","outputs":[{"internalType":"contract MockCbBTC","name":"","type":"address"}],"stateMutability":"view","type":"function"},{"inputs":[],"name":"deploy","outputs":[],"stateMutability":"nonpayable","type":"function"},{"inputs":[],"name":"getAddresses","outputs":[{"internalType":"address","name":"usdcAddress","type":"address"},{"internalType":"address","name":"cbBtcAddress","type":"address"},{"internalType":"address","name":"aavePoolAddress","type":"address"},{"internalType":"address","name":"swapRouterAddress","type":"address"},{"internalType":"address","name":"priceOracleAddress","type":"address"}],"stateMutability":"view","type":"function"},{"inputs":[],"name":"initialize","outputs":[],"stateMutability":"nonpayable","type":"function"},{"inputs":[{"internalType":"address","name":"user","type":"address"},{"internalType":"uint256","name":"usdcAmount","type":"uint256"},{"internalType":"uint256","name":"btcAmount","type":"uint256"}],"name":"mintTestTokens","outputs":[],"stateMutability":"nonpayable","type":"function"},{"inputs":[],"name":"priceOracle","outputs":[{"internalType":"contract MockBTCPriceOracle","name":"","type":"address"}],"stateMutability":"view","type":"function"},{"inputs":[],"name":"swapRouter","outputs":[{"internalType":"contract MockSwapRouter","name":"","type":"address"}],"stateMutability":"view","type":"function"},{"inputs":[{"internalType":"int256","name":"newPrice","type":"int256"}],"name":"updateBtcPrice","outputs":[],"stateMutability":"nonpayable","type":"function"},{"inputs":[],"name":"usdc","outputs":[{"internalType":"contract MockUSDC","name":"","type":"address"}],"stateMutability":"view","type":"function"}],"evm":{"bytecode":{"linkReferences":{},"object":"6080806040523461001657613923908161001c8239f35b600080fdfe60806040818152600491823610156200001757600080fd5b600092833560e01c9182632630c12f14620009ac575081633e413bee1462000982578163410147f51462000960578382636eb73b85146200082457508163775c300c1462000612578163801a450a14620005ef5781638129fc1c14620002535781639781a8ca1462000230578163a03e4bc3146200020557838263a0accccd146200017657508163a39fac12146200011d57508063c31c9c0714620000f35763ecf3a80e14620000c657600080fd5b34620000ef5781600319360112620000ef5760015490516001600160a01b039091168152602090f35b5080fd5b5034620000ef5781600319360112620000ef5760035490516001600160a01b039091168152602090f35b9190503462000172578260031936011262000172579154600154600254600354935494516001600160a01b0393841681529183166020830152821660408201529181166060830152909116608082015260a090f35b8280fd5b8091843462000201576020366003190112620002015781546001600160a01b031691620001a5831515620009d2565b823b15620001fc5783926024849284519586938492636a60cded60e11b84528035908401525af1908115620001f35750620001dd5750f35b620001e89062000a18565b620001f05780f35b80fd5b513d84823e3d90fd5b505050fd5b5050fd5b505034620000ef5781600319360112620000ef5760025490516001600160a01b039091168152602090f35b505034620000ef5781600319360112620000ef576020905165095e27d758008152f35b905034620001725782600319360112620001725782546001600160a01b0391849183169062000284821515620009d2565b813b15620001725782918551946340c10f1960e01b9283875230818801526516bcc41e90009685816024958a878301528160449a8b925af1908115620005cd578691620005d7575b5050816001541695863b15620004e3578851948552308286015285858281836405d21dba009b8c8a8401525af1948515620005cd578695620005b1575b50828554168360035416908a519063095ea7b360e01b92838352858301528a8783015281848160209b8c945af1801562000547576200058f575b50868a83866001541693898860035416935195869485938452898401528d8b8401525af180156200051b576200056d575b508260035416838654168460015416823b15620005695760848892838e519586948593631bc6f1e760e31b85528a8501528b8401526417fb474600888401526305f5e10060648401525af19081156200051b57869162000551575b508087858c935416848c88600354169551948593849263a9059cbb60e01b988985528b8501528c8401525af18015620005475762000525575b50868a83866001541693898860035416935195869485938452898401528d8b8401525af180156200051b57620004e7575b508260025416926001541691833b15620004e3578580946101f48c5197889687956339f2a8af60e11b87528601528401525af18015620004d957620004b7575b509265095e27d75800857f7c8b2bb4ba88603ecaf8a835a16f5dc600d81cc928f239a94f1ab037549017ca946060948251948552840152820152a180f35b620004c59094939462000a18565b620004d557843893929362000479565b8480fd5b86513d84823e3d90fd5b8580fd5b6200050b90873d891162000513575b62000502818362000a43565b81019062000a66565b503862000439565b503d620004f6565b8a513d88823e3d90fd5b6200053f90883d8a11620005135762000502818362000a43565b503862000408565b8b513d89823e3d90fd5b6200055c9062000a18565b620004d5578438620003cf565b8780fd5b6200058790873d8911620005135762000502818362000a43565b503862000374565b620005a990883d8a11620005135762000502818362000a43565b503862000343565b620005bf9095919562000a18565b620004d55784933862000309565b89513d88823e3d90fd5b620005e29062000a18565b620004d5578438620002cc565b505034620000ef5781600319360112620000ef57602090516516bcc41e90008152f35b838334620000ef5781600319360112620000ef57805192610d309384810167ffffffffffffffff9582821087831117620008115790829162001a098339039084f0908115620008055783546001600160a01b03199081166001600160a01b039384161785558351909290610cfe8082019088821183831017620007f257908291620027398339039086f08015620007e857811683600154161760015583516106818082019082821089831117620007f25790829162000a868339039086f08015620007e857811683600254161760025583516109028082019082821089831117620007f257908291620011078339039086f08015620007e857811683600354161760035583516104b78082019782891090891117620007d55781879860209298979862003437833965095e27d75800815203019085f08015620007cb5782549082169381168417909255835460015460025460035497519284166001600160a01b03908116845291841682166020840152831681166040830152959091168516606082015292161790911660808201527f560d905b644f11cd6f1e40961146bf323afe328326f2e94ead6d032af436ef4d9060a090a180f35b85513d86823e3d90fd5b634e487b7160e01b875260418452602487fd5b84513d87823e3d90fd5b634e487b7160e01b885260418552602488fd5b505051903d90823e3d90fd5b634e487b7160e01b865260418452602486fd5b809184346200020157606036600319011262000201578135916001600160a01b038084168403620004d55784546044359190811660243562000868821515620009d2565b80620008ed575b5050816200087b578580f35b60015416803b15620004e35783516340c10f1960e01b81526001600160a01b039095169285019283526020830191909152849184919082908490829060400103925af1908115620001f35750620008d5575b808080808580f35b620008e09062000a18565b620001f0578082620008cd565b813b15620005695785516340c10f1960e01b81526001600160a01b03881686820190815260208101929092529888928a928390036040019183915af1801562000956576200093f575b8686976200086f565b9490956200094d9062000a18565b93859062000936565b84513d88823e3d90fd5b505034620000ef5781600319360112620000ef57602090516405d21dba008152f35b505034620000ef5781600319360112620000ef57905490516001600160a01b039091168152602090f35b8491346200017257826003193601126200017257546001600160a01b0316815260209150f35b15620009da57565b60405162461bcd60e51b815260206004820152601660248201527511195c1b1bde4818dbdb9d1c9858dd1cc8199a5c9cdd60521b6044820152606490fd5b67ffffffffffffffff811162000a2d57604052565b634e487b7160e01b600052604160045260246000fd5b90601f8019910116810190811067ffffffffffffffff82111762000a2d57604052565b9081602091031262000a805751801515810362000a805790565b600080fdfe6080806040523461002857600380546001600160a01b03191633179055610653908161002e8239f35b600080fdfe608060408181526004918236101561001657600080fd5b600092833560e01c918263028cc6511461051157508163617ba037146103bc57816368da10ae1461039457816369328dec1461022957816373e5515e14610168575080638da5cb5b146101405780639782e82114610109578063dccda03d146100d25763ee9e836d1461008857600080fd5b346100ce57806003193601126100ce57806020926100a4610556565b6100ac610571565b6001600160a01b03918216835282865283832091168252845220549051908152f35b5080fd5b50346100ce5760203660031901126100ce5760209181906001600160a01b036100f9610556565b1681526002845220549051908152f35b50346100ce5760203660031901126100ce5760209181906001600160a01b03610130610556565b1681526001845220549051908152f35b50346100ce57816003193601126100ce5760035490516001600160a01b039091168152602090f35b905034610225578160031936011261022557610182610556565b600354602435926001600160a01b039291831633036101d85750916020917fcd71eadfd232caec497a12178db6d8be8a15f0f645b648615007e6e8e7143c8893169384865260028352818187205551908152a280f35b608490602086519162461bcd60e51b8352820152602160248201527f4f6e6c79206f776e65722063616e2063616c6c20746869732066756e6374696f6044820152603760f91b6064820152fd5b8280fd5b9190503461022557606036600319011261022557610245610556565b9160243593610252610587565b6001600160a01b03948516808352602083815285842033855281528584205490979193918181111561038c5750955b86156103525783825281885285822033835288528582206102a3888254610610565b9055838252600188528582206102ba888254610610565b905585519263a9059cbb60e01b8452168094830152856024830152868260448184875af1908115610347575061031a575b507f9b1bfa7fa9ee420a16e124f794c35ac9f90472acc99140eb2f6447c714cad8eb858451868152a351908152f35b61033990863d8811610340575b610331818361059d565b8101906105d5565b50386102eb565b503d610327565b8551903d90823e3d90fd5b855162461bcd60e51b815280860189905260146024820152734e6f2066756e647320746f20776974686472617760601b6044820152606490fd5b905095610281565b5050346100ce5760203660031901126100ce5760209181906001600160a01b03610130610556565b91905034610225576080366003190112610225576103d8610556565b90602435916103e5610587565b9260643561ffff81160361050d5780156104ca5782516323b872dd60e01b81523395810195909552306024860152604485018190526001600160a01b039182169260209283876064818b895af19687156104c0577fd1cf3d156d5f8f0d50f6c122ed609cec09d35c9b9fb3fff6ea0959134dae424e9596976104a3575b5085885287845281882096169586885283528087206104828382546105ed565b9055848752600183528087206104998382546105ed565b905551908152a380f35b6104b990853d871161034057610331818361059d565b5038610462565b82513d8a823e3d90fd5b825162461bcd60e51b8152602081870152601d60248201527f416d6f756e74206d7573742062652067726561746572207468616e20300000006044820152606490fd5b8580fd5b8490843461022557806003193601126102255760209261052f610556565b610537610571565b6001600160a01b03918216835282865283832091168252845220548152f35b600435906001600160a01b038216820361056c57565b600080fd5b602435906001600160a01b038216820361056c57565b604435906001600160a01b038216820361056c57565b90601f8019910116810190811067ffffffffffffffff8211176105bf57604052565b634e487b7160e01b600052604160045260246000fd5b9081602091031261056c5751801515810361056c5790565b919082018092116105fa57565b634e487b7160e01b600052601160045260246000fd5b919082039182116105fa5756fea2646970667358221220a6fba1a960429ea4a3978f38dc0962475fc4e203d409386370db71cc9d4e27b564736f6c634300081400336080806040523461002857600180546001600160a01b031916331790556108d4908161002e8239f35b600080fdfe608080604052600436101561001357600080fd5b60003560e01c90816338ed1739146102d457508063503fa44f1461027a5780638da5cb5b14610251578063baaa61be146101e25763de378f381461005657600080fd5b346101dd5760803660031901126101dd5761006f6107b6565b6100776107cc565b60015490916001600160a01b03916064359190604435908416330361018e57821561013e577ff7e06908c466f8ecd19cb46c7e97598dc5a8760f637bb764d91fc4b6da7664ef9260409283516100cc816107e2565b8381526001602092888484019186835216988960005260008552876000209a16998a6000528452866000209251835551910155835161010a816107e2565b82815260018282018581528960005260008452866000208960005284528660002092518355519101558351928352820152a3005b60405162461bcd60e51b815260206004820152602260248201527f44656e6f6d696e61746f72206d7573742062652067726561746572207468616e604482015261020360f41b6064820152608490fd5b60405162461bcd60e51b815260206004820152602160248201527f4f6e6c79206f776e65722063616e2063616c6c20746869732066756e6374696f6044820152603760f91b6064820152608490fd5b600080fd5b346101dd5760403660031901126101dd576101fb6107b6565b6102036107cc565b9060018060a01b0380911660005260006020526040600020911660005260205260408060002060208251610236816107e2565b60018354938483520154918291015282519182526020820152f35b346101dd5760003660031901126101dd576001546040516001600160a01b039091168152602090f35b346101dd5760403660031901126101dd576102936107b6565b61029b6107cc565b9060018060a01b038091166000526000602052604060002091166000526020526040806000206001815491015482519182526020820152f35b346101dd5760a03660031901126101dd5767ffffffffffffffff80604435116101dd573660236044350112156101dd5760443560040135116101dd573660246044356004013560051b6044350101116101dd57606435906001600160a01b03821682036101dd57600260443560040135106107855750600435156107405761036160443560040135610836565b61036e6040519182610814565b60046044350135808252601f199061038590610836565b0136602083013780511561072a57600435602082015260005b6004604435013560001981011161050e5760046044350135600019018110156106e4576103df6103da8260443560040135602460443501610862565b610872565b60018201821161050e576104056103da6001840160443560040135602460443501610862565b6001600160a01b038281166000908152602081815260408083209385168352929052819020905190600190610439836107e2565b805483520154806020830152156106a757610454848661084e565b5191815191838381020483148415171561050e5760200151918215610691578281850204610485600188018961084e565b52851561062a575b6004604435013560011981011161050e5760046044350135600119018614610524575b907ffa2dda1cc1b86e41239702756b13effbc1a092b5c57e3ad320fbe4f3b13fe235926040926104e0888a61084e565b51845190815295020460208501526001600160a01b03908116941692a3600019811461050e5760010161039e565b634e487b7160e01b600052601160045260246000fd5b906024358383860204106105e55760405163a9059cbb60e01b81526001600160a01b03898116600483015285840285900460248301529093906020908590604490829060009087165af19283156105d9577ffa2dda1cc1b86e41239702756b13effbc1a092b5c57e3ad320fbe4f3b13fe235946040946105aa575b5091925092506104b0565b6105cb9060203d6020116105d2575b6105c38183610814565b810190610886565b508a61059f565b503d6105b9565b6040513d6000823e3d90fd5b60405162461bcd60e51b815260206004820152601a60248201527f496e73756666696369656e74206f757470757420616d6f756e740000000000006044820152606490fd5b6040516323b872dd60e01b81523360048083019190915230602483015235604482015260208160648160006001600160a01b038b165af180156105d957610672575b5061048d565b61068a9060203d6020116105d2576105c38183610814565b508861066c565b634e487b7160e01b600052601260045260246000fd5b60405162461bcd60e51b8152602060048201526015602482015274115e18da185b99d9481c985d19481b9bdd081cd95d605a1b6044820152606490fd5b5060405180916020820160208352815180915260206040840192019060005b818110610711575050500390f35b8251845285945060209384019390920191600101610703565b634e487b7160e01b600052603260045260246000fd5b60405162461bcd60e51b815260206004820152601d60248201527f416d6f756e74206d7573742062652067726561746572207468616e20300000006044820152606490fd5b62461bcd60e51b815260206004820152600c60248201526b092dcecc2d8d2c840e0c2e8d60a31b6044820152606490fd5b600435906001600160a01b03821682036101dd57565b602435906001600160a01b03821682036101dd57565b6040810190811067ffffffffffffffff8211176107fe57604052565b634e487b7160e01b600052604160045260246000fd5b90601f8019910116810190811067ffffffffffffffff8211176107fe57604052565b67ffffffffffffffff81116107fe5760051b60200190565b805182101561072a5760209160051b010190565b919081101561072a5760051b0190565b356001600160a01b03811681036101dd5790565b908160209103126101dd575180151581036101dd579056fea26469706673582212200082059d7c3ae28f2af162eb6deebd6e9588d0bd68cfd9c62bef443f157a68bc64736f6c63430008140033608034620003a8576040906001600160401b0390808301828111828210176200039257835260098152602091684d6f636b205553444360b81b838301528351928484018481108382111762000392578552600493848152635553444360e01b828201528351908382116200037d576003928354926001968785811c9516801562000372575b838610146200035d578190601f9586811162000307575b508390868311600114620002a05760009262000294575b505060001982871b1c191690871b1784555b81519485116200027f5786548681811c9116801562000274575b828210146200025f5783811162000214575b5080928511600114620001a657509383949184926000956200019a575b50501b92600019911b1c19161781555b3315620001845750600554905190336001600160a01b0382167f8be0079c531659141344cd1fd0a4f28419497f9722a3daafe3b4186f6b6457e0600080a36001600160a81b0319163360ff60a01b191617600360a11b176005556109829081620003ae8239f35b60006024925191631e4fbdf760e01b8352820152fd5b0151935038806200010d565b92919084601f1981168860005285600020956000905b89838310620001f95750505010620001de575b50505050811b0181556200011d565b01519060f884600019921b161c1916905538808080620001cf565b858701518955909701969485019488935090810190620001bc565b87600052816000208480880160051c82019284891062000255575b0160051c019087905b82811062000248575050620000f0565b6000815501879062000238565b925081926200022f565b602288634e487b7160e01b6000525260246000fd5b90607f1690620000de565b604187634e487b7160e01b6000525260246000fd5b015190503880620000b2565b90899350601f1983169188600052856000209260005b87828210620002f05750508411620002d7575b505050811b018455620000c4565b015160001983891b60f8161c19169055388080620002c9565b8385015186558d97909501949384019301620002b6565b90915086600052836000208680850160051c82019286861062000353575b918b91869594930160051c01915b828110620003435750506200009b565b600081558594508b910162000333565b9250819262000325565b602289634e487b7160e01b6000525260246000fd5b94607f169462000084565b604186634e487b7160e01b6000525260246000fd5b634e487b7160e01b600052604160045260246000fd5b600080fdfe6080604081815260048036101561001557600080fd5b600092833560e01c90816306fdde031461065c57508063095ea7b3146105b357806318160ddd1461059457806323b872dd146104a1578063313ce5671461047c57806340c10f191461044f57806357915897146103ad57806370a0823114610376578063715018a6146103165780638da5cb5b146102ed57806395d89b41146101cd578063a9059cbb1461019c578063dd62ed3e1461014f5763f2fde38b146100bd57600080fd5b3461014b57602036600319011261014b576100d661079a565b906100df6107cb565b6001600160a01b03918216928315610135575050600554826bffffffffffffffffffffffff60a01b821617600555167f8be0079c531659141344cd1fd0a4f28419497f9722a3daafe3b4186f6b6457e08380a380f35b51631e4fbdf760e01b8152908101849052602490fd5b8280fd5b5050346101985780600319360112610198578060209261016d61079a565b6101756107b5565b6001600160a01b0391821683526001865283832091168252845220549051908152f35b5080fd5b5050346101985780600319360112610198576020906101c66101bc61079a565b60243590336107f7565b5160018152f35b50919034610198578160031936011261019857805190828454600181811c908083169283156102e3575b60209384841081146102d0578388529081156102b4575060011461025f575b505050829003601f01601f191682019267ffffffffffffffff84118385101761024c5750829182610248925282610751565b0390f35b634e487b7160e01b815260418552602490fd5b8787529192508591837f8a35acfbc15ff81a39ae7d344fd709f28e8600b4aa8c65c6b64bfe7fe36bd19b5b8385106102a05750505050830101388080610216565b80548886018301529301928490820161028a565b60ff1916878501525050151560051b8401019050388080610216565b634e487b7160e01b895260228a52602489fd5b91607f16916101f7565b50503461019857816003193601126101985760055490516001600160a01b039091168152602090f35b833461037357806003193601126103735761032f6107cb565b600580546001600160a01b0319811690915581906001600160a01b03167f8be0079c531659141344cd1fd0a4f28419497f9722a3daafe3b4186f6b6457e08280a380f35b80fd5b5050346101985760203660031901126101985760209181906001600160a01b0361039e61079a565b16815280845220549051908152f35b503461014b57602036600319011261014b5780359160ff60055460a01c16604d811161043c57600a0a612710908082029182040361043c5783116103f957836103f684336108d5565b80f35b906020606492519162461bcd60e51b8352820152601d60248201527f466175636574206c696d6974656420746f2031302c30303020555344430000006044820152fd5b634e487b7160e01b855260118352602485fd5b50503461019857366003190112610373576103f661046b61079a565b6104736107cb565b602435906108d5565b50503461019857816003193601126101985760209060ff60055460a01c169051908152f35b508234610373576060366003190112610373576104bc61079a565b6104c46107b5565b916044359360018060a01b038316808352600160205286832033845260205286832054916000198303610500575b6020886101c68989896107f7565b86831061056857811561055157331561053a575082526001602090815286832033845281529186902090859003905582906101c6876104f2565b8751634a1406b160e11b8152908101849052602490fd5b875163e602df0560e01b8152908101849052602490fd5b8751637dc7a0d960e11b8152339181019182526020820193909352604081018790528291506060010390fd5b5050346101985781600319360112610198576020906002549051908152f35b503461014b578160031936011261014b576105cc61079a565b602435903315610645576001600160a01b031691821561062e57508083602095338152600187528181208582528752205582519081527f8c5be1e5ebec7d5bd14f71427d1e84f3dd0314c0f7b2291e5b200ac8c7c3b925843392a35160018152f35b8351634a1406b160e11b8152908101859052602490fd5b835163e602df0560e01b8152808401869052602490fd5b849150833461014b578260031936011261014b5782600354600181811c90808316928315610747575b60209384841081146102d05783885290811561072b57506001146106d557505050829003601f01601f191682019267ffffffffffffffff84118385101761024c5750829182610248925282610751565b600387529192508591837fc2575a0e9e593c00f959f8c92f12db2869c3395a3b0502d05e2516446f71f85b5b8385106107175750505050830101858080610216565b805488860183015293019284908201610701565b60ff1916878501525050151560051b8401019050858080610216565b91607f1691610685565b6020808252825181830181905290939260005b82811061078657505060409293506000838284010152601f8019910116010190565b818101860151848201604001528501610764565b600435906001600160a01b03821682036107b057565b600080fd5b602435906001600160a01b03821682036107b057565b6005546001600160a01b031633036107df57565b60405163118cdaa760e01b8152336004820152602490fd5b916001600160a01b038084169283156108bc57169283156108a35760009083825281602052604082205490838210610871575091604082827fddf252ad1be2c89b69c2b068fc378daa952ba7f163c4a11628f55a4df523b3ef958760209652828652038282205586815220818154019055604051908152a3565b60405163391434e360e21b81526001600160a01b03919091166004820152602481019190915260448101839052606490fd5b60405163ec442f0560e01b815260006004820152602490fd5b604051634b637e8f60e11b815260006004820152602490fd5b6001600160a01b03169081156108a357600254908082018092116109365760207fddf252ad1be2c89b69c2b068fc378daa952ba7f163c4a11628f55a4df523b3ef9160009360025584845283825260408420818154019055604051908152a3565b634e487b7160e01b600052601160045260246000fdfea264697066735822122053aa4f850bb42ce3d99004d07cd9a4d643c0b8994bb3a8223a1f670184f2689864736f6c6343000814003360803462000385576040906001600160401b0390808301828111828210176200028757835260118152602090704d6f636b20436f696e626173652042544360781b82820152835192848401848110828211176200028757855260059384815264636242544360d81b84820152825182811162000287576003918254916001958684811c941680156200037a575b8885101462000364578190601f9485811162000310575b508890858311600114620002a9576000926200029d575b505060001982861b1c191690861b1783555b8051938411620002875760049586548681811c911680156200027c575b8282101462000267578381116200021e575b5080928511600114620001b05750938394918492600095620001a4575b50501b92600019911b1c19161781555b33156200018d57508054915191336001600160a01b0382167f8be0079c531659141344cd1fd0a4f28419497f9722a3daafe3b4186f6b6457e0600080a36001600160a81b0319163360ff60a01b191617600160a31b17905561097390816200038b8239f35b6024906000845191631e4fbdf760e01b8352820152fd5b01519350388062000118565b92919084601f1981168860005285600020956000905b89838310620002035750505010620001e8575b50505050811b01815562000128565b01519060f884600019921b161c1916905538808080620001d9565b858701518955909701969485019488935090810190620001c6565b8760005281600020848088018b1c8201928489106200025d575b018a1c019087905b82811062000250575050620000fb565b6000815501879062000240565b9250819262000238565b602288634e487b7160e01b6000525260246000fd5b90607f1690620000e9565b634e487b7160e01b600052604160045260246000fd5b015190503880620000ba565b90889350601f19831691876000528a6000209260005b8c828210620002f95750508411620002e0575b505050811b018355620000cc565b015160001983881b60f8161c19169055388080620002d2565b8385015186558c97909501949384019301620002bf565b9091508560005288600020858085018c1c8201928b86106200035a575b918a9186959493018d1c01915b8281106200034a575050620000a3565b600081558594508a91016200033a565b925081926200032d565b634e487b7160e01b600052602260045260246000fd5b93607f16936200008c565b600080fdfe6080604081815260048036101561001557600080fd5b600092833560e01c90816306fdde031461064d57508063095ea7b3146105a457806318160ddd1461058557806323b872dd14610492578063313ce5671461046d57806340c10f191461044057806357915897146103ad57806370a0823114610376578063715018a6146103165780638da5cb5b146102ed57806395d89b41146101cd578063a9059cbb1461019c578063dd62ed3e1461014f5763f2fde38b146100bd57600080fd5b3461014b57602036600319011261014b576100d661078b565b906100df6107bc565b6001600160a01b03918216928315610135575050600554826bffffffffffffffffffffffff60a01b821617600555167f8be0079c531659141344cd1fd0a4f28419497f9722a3daafe3b4186f6b6457e08380a380f35b51631e4fbdf760e01b8152908101849052602490fd5b8280fd5b5050346101985780600319360112610198578060209261016d61078b565b6101756107a6565b6001600160a01b0391821683526001865283832091168252845220549051908152f35b5080fd5b5050346101985780600319360112610198576020906101c66101bc61078b565b60243590336107e8565b5160018152f35b50919034610198578160031936011261019857805190828454600181811c908083169283156102e3575b60209384841081146102d0578388529081156102b4575060011461025f575b505050829003601f01601f191682019267ffffffffffffffff84118385101761024c5750829182610248925282610742565b0390f35b634e487b7160e01b815260418552602490fd5b8787529192508591837f8a35acfbc15ff81a39ae7d344fd709f28e8600b4aa8c65c6b64bfe7fe36bd19b5b8385106102a05750505050830101388080610216565b80548886018301529301928490820161028a565b60ff1916878501525050151560051b8401019050388080610216565b634e487b7160e01b895260228a52602489fd5b91607f16916101f7565b50503461019857816003193601126101985760055490516001600160a01b039091168152602090f35b833461037357806003193601126103735761032f6107bc565b600580546001600160a01b0319811690915581906001600160a01b03167f8be0079c531659141344cd1fd0a4f28419497f9722a3daafe3b4186f6b6457e08280a380f35b80fd5b5050346101985760203660031901126101985760209181906001600160a01b0361039e61078b565b16815280845220549051908152f35b503461014b57602036600319011261014b5780359160ff60055460a01c16604d811161042d57600a0a83116103ea57836103e784336108c6565b80f35b906020606492519162461bcd60e51b8352820152601960248201527f466175636574206c696d6974656420746f2031206362425443000000000000006044820152fd5b634e487b7160e01b855260118352602485fd5b50503461019857366003190112610373576103e761045c61078b565b6104646107bc565b602435906108c6565b50503461019857816003193601126101985760209060ff60055460a01c169051908152f35b508234610373576060366003190112610373576104ad61078b565b6104b56107a6565b916044359360018060a01b0383168083526001602052868320338452602052868320549160001983036104f1575b6020886101c68989896107e8565b86831061055957811561054257331561052b575082526001602090815286832033845281529186902090859003905582906101c6876104e3565b8751634a1406b160e11b8152908101849052602490fd5b875163e602df0560e01b8152908101849052602490fd5b8751637dc7a0d960e11b8152339181019182526020820193909352604081018790528291506060010390fd5b5050346101985781600319360112610198576020906002549051908152f35b503461014b578160031936011261014b576105bd61078b565b602435903315610636576001600160a01b031691821561061f57508083602095338152600187528181208582528752205582519081527f8c5be1e5ebec7d5bd14f71427d1e84f3dd0314c0f7b2291e5b200ac8c7c3b925843392a35160018152f35b8351634a1406b160e11b8152908101859052602490fd5b835163e602df0560e01b8152808401869052602490fd5b849150833461014b578260031936011261014b5782600354600181811c90808316928315610738575b60209384841081146102d05783885290811561071c57506001146106c657505050829003601f01601f191682019267ffffffffffffffff84118385101761024c5750829182610248925282610742565b600387529192508591837fc2575a0e9e593c00f959f8c92f12db2869c3395a3b0502d05e2516446f71f85b5b8385106107085750505050830101858080610216565b8054888601830152930192849082016106f2565b60ff1916878501525050151560051b8401019050858080610216565b91607f1691610676565b6020808252825181830181905290939260005b82811061077757505060409293506000838284010152601f8019910116010190565b818101860151848201604001528501610755565b600435906001600160a01b03821682036107a157565b600080fd5b602435906001600160a01b03821682036107a157565b6005546001600160a01b031633036107d057565b60405163118cdaa760e01b8152336004820152602490fd5b916001600160a01b038084169283156108ad57169283156108945760009083825281602052604082205490838210610862575091604082827fddf252ad1be2c89b69c2b068fc378daa952ba7f163c4a11628f55a4df523b3ef958760209652828652038282205586815220818154019055604051908152a3565b60405163391434e360e21b81526001600160a01b03919091166004820152602481019190915260448101839052606490fd5b60405163ec442f0560e01b815260006004820152602490fd5b604051634b637e8f60e11b815260006004820152602490fd5b6001600160a01b031690811561089457600254908082018092116109275760207fddf252ad1be2c89b69c2b068fc378daa952ba7f163c4a11628f55a4df523b3ef9160009360025584845283825260408420818154019055604051908152a3565b634e487b7160e01b600052601160045260246000fdfea2646970667358221220cad1d418a4ca2497fd3ed472e2561937f417918324797116551caec449338e3364736f6c6343000814003360803461012757601f6104b738819003918201601f19168301916001600160401b0383118484101761012c5780849260209460405283398101031261012757516001805460ff1916600817815560025480821c908216801561011d575b602082101461010757601f81116100ba575b507f4d6f636b20425443202f2055534400000000000000000000000000000000001c600255600355600055600480546001600160a01b0319163317905560405161037490816101438239f35b6002600052601f0160051c7f405787fa12a823e0f2b7631cc41b3ba8828b3321ca811111fa75cd3aa3bb5ace9081019082905b8281106100fb57505061006e565b600081550182906100ed565b634e487b7160e01b600052602260045260246000fd5b90607f169061005c565b600080fd5b634e487b7160e01b600052604160045260246000fdfe608060408181526004918236101561001657600080fd5b600090813560e01c908163313ce5671461031f5750806354fd4d50146102fc5780637284e4161461019d5780638da5cb5b14610175578063d4c19bda146100cb5763feaf968c1461006657600080fd5b346100c857806003193601126100c85769ffffffffffffffffffff431690805492610e0f194201914283116100b5575060a0945080519383855260208501528301524260608301526080820152f35b634e487b7160e01b815260118652602490fd5b80fd5b50919034610171576020366003190112610171578154823592906001600160a01b031633036101255750816020917ffa6bd982fa4e58a45ea44e1fe84ab8e9de93c3310ec81db62565ac50139a6ca393855551908152a180f35b6020608492519162461bcd60e51b8352820152602160248201527f4f6e6c79206f776e65722063616e2063616c6c20746869732066756e6374696f6044820152603760f91b6064820152fd5b8280fd5b5091346101715782600319360112610171575490516001600160a01b03909116815260209150f35b5091903461017157826003193601126101715780518360025460019581871c8783169788156102f2575b6020938483108a146102df57848798999a84895291826000146102c357505060011461026f575b5050601f801995869203011683019583871067ffffffffffffffff88111761025c575085929391838652818452845191828186015281955b8387106102445750508394508582601f949501015201168101030190f35b86810182015189880189015295810195889550610226565b634e487b7160e01b835260419052602482fd5b600285528492507f405787fa12a823e0f2b7631cc41b3ba8828b3321ca811111fa75cd3aa3bb5ace5b8284106102ad575050508301810138806101ee565b8054888501860152879650928401928101610298565b925093505060ff191682860152151560051b84010138806101ee565b634e487b7160e01b865260228952602486fd5b90607f16906101c7565b50903461031b578160031936011261031b576020906003549051908152f35b5080fd5b90503461031b578160031936011261031b5760209060ff600154168152f3fea2646970667358221220508e16740a653e7176dfc765b3d57346736b16a3f72608ca0e3555e9e9bfca3664736f6c63430008140033a2646970667358221220ef7fa8802bded4d9bd4ef6df065912629ff5731a3a2000dbec2a2014c9e6f63f64736f6c63430008140033","opcodes":"PUSH1 0x80 DUP1 PUSH1 0x40 MSTORE CALLVALUE PUSH2 0x16 JUMPI PUSH2 0x3923 SWAP1 DUP2 PUSH2 0x1C DUP3 CODECOPY RETURN JUMPDEST PUSH1 0x0 DUP1 REVERT INVALID PUSH1 0x80 PUSH1 0x40 DUP2 DUP2 MSTORE PUSH1 0x4 SWAP2 DUP3 CALLDATASIZE LT ISZERO PUSH3 0x17 JUMPI PUSH1 0x0 DUP1 REVERT JUMPDEST PUSH1 0x0 SWAP3 DUP4 CALLDATALOAD PUSH1 0xE0 SHR SWAP2 DUP3 PUSH4 0x2630C12F EQ PUSH3 0x9AC JUMPI POP DUP2 PUSH4 0x3E413BEE EQ PUSH3 0x982 JUMPI DUP2 PUSH4 0x410147F5 EQ PUSH3 0x960 JUMPI DUP4 DUP3 PUSH4 0x6EB73B85 EQ PUSH3 0x824 JUMPI POP DUP2 PUSH4 0x775C300C EQ PUSH3 0x612 JUMPI DUP2 PUSH4 0x801A450A EQ PUSH3 0x5EF JUMPI DUP2 PUSH4 0x8129FC1C EQ PUSH3 0x253 JUMPI DUP2 PUSH4 0x9781A8CA EQ PUSH3 0x230 JUMPI DUP2 PUSH4 0xA03E4BC3 EQ PUSH3 0x205 JUMPI DUP4 DUP3 PUSH4 0xA0ACCCCD EQ PUSH3 0x176 JUMPI POP DUP2 PUSH4 0xA39FAC12 EQ PUSH3 0x11D JUMPI POP DUP1 PUSH4 0xC31C9C07 EQ PUSH3 0xF3 JUMPI PUSH4 0xECF3A80E EQ PUSH3 0xC6 JUMPI PUSH1 0x0 DUP1 REVERT JUMPDEST CALLVALUE PUSH3 0xEF JUMPI DUP2 PUSH1 0x3 NOT CALLDATASIZE ADD SLT PUSH3 0xEF JUMPI PUSH1 0x1 SLOAD SWAP1 MLOAD PUSH1 0x1 PUSH1 0x1 PUSH1 0xA0 SHL SUB SWAP1 SWAP2 AND DUP2 MSTORE PUSH1 0x20 SWAP1 RETURN JUMPDEST POP DUP1 REVERT JUMPDEST POP CALLVALUE PUSH3 0xEF JUMPI DUP2 PUSH1 0x3 NOT CALLDATASIZE ADD SLT PUSH3 0xEF JUMPI PUSH1 0x3 SLOAD SWAP1 MLOAD PUSH1 0x1 PUSH1 0x1 PUSH1 0xA0 SHL SUB SWAP1 SWAP2 AND DUP2 MSTORE PUSH1 0x20 SWAP1 RETURN JUMPDEST SWAP2 SWAP1 POP CALLVALUE PUSH3 0x172 JUMPI DUP3 PUSH1 0x3 NOT CALLDATASIZE ADD SLT PUSH3 0x172 JUMPI SWAP2 SLOAD PUSH1 0x1 SLOAD PUSH1 0x2 SLOAD PUSH1 0x3 SLOAD SWAP4 SLOAD SWAP5 MLOAD PUSH1 0x1 PUSH1 0x1 PUSH1 0xA0 SHL SUB SWAP4 DUP5 AND DUP2 MSTORE SWAP2 DUP4 AND PUSH1 0x20 DUP4 ADD MSTORE DUP3 AND PUSH1 0x40 DUP3 ADD MSTORE SWAP2 DUP2 AND PUSH1 0x60 DUP4 ADD MSTORE SWAP1 SWAP2 AND PUSH1 0x80 DUP3 ADD MSTORE PUSH1 0xA0 SWAP1 RETURN JUMPDEST DUP3 DUP1 REVERT JUMPDEST DUP1 SWAP2 DUP5 CALLVALUE PUSH3 0x201 JUMPI PUSH1 0x20 CALLDATASIZE PUSH1 0x3 NOT ADD SLT PUSH3 0x201 JUMPI DUP2 SLOAD PUSH1 0x1 PUSH1 0x1 PUSH1 0xA0 SHL SUB AND SWAP2 PUSH3 0x1A5 DUP4 ISZERO ISZERO PUSH3 0x9D2 JUMP JUMPDEST DUP3 EXTCODESIZE ISZERO PUSH3 0x1FC JUMPI DUP4 SWAP3 PUSH1 0x24 DUP5 SWAP3 DUP5 MLOAD SWAP6 DUP7 SWAP4 DUP5 SWAP3 PUSH4 0x6A60CDED PUSH1 0xE1 SHL DUP5 MSTORE DUP1 CALLDATALOAD SWAP1 DUP5 ADD MSTORE GAS CALL SWAP1 DUP2 ISZERO PUSH3 0x1F3 JUMPI POP PUSH3 0x1DD JUMPI POP RETURN JUMPDEST PUSH3 0x1E8 SWAP1 PUSH3 0xA18 JUMP JUMPDEST PUSH3 0x1F0 JUMPI DUP1 RETURN JUMPDEST DUP1 REVERT JUMPDEST MLOAD RETURNDATASIZE DUP5 DUP3 RETURNDATACOPY RETURNDATASIZE SWAP1 REVERT JUMPDEST POP POP POP REVERT JUMPDEST POP POP REVERT JUMPDEST POP POP CALLVALUE PUSH3 0xEF JUMPI DUP2 PUSH1 0x3 NOT CALLDATASIZE ADD SLT PUSH3 0xEF JUMPI PUSH1 0x2 SLOAD SWAP1 MLOAD PUSH1 0x1 PUSH1 0x1 PUSH1 0xA0 SHL SUB SWAP1 SWAP2 AND DUP2 MSTORE PUSH1 0x20 SWAP1 RETURN JUMPDEST POP POP CALLVALUE PUSH3 0xEF JUMPI DUP2 PUSH1 0x3 NOT CALLDATASIZE ADD SLT PUSH3 0xEF JUMPI PUSH1 0x20 SWAP1 MLOAD PUSH6 0x95E27D75800 DUP2 MSTORE RETURN JUMPDEST SWAP1 POP CALLVALUE PUSH3 0x172 JUMPI DUP3 PUSH1 0x3 NOT CALLDATASIZE ADD SLT PUSH3 0x172 JUMPI DUP3 SLOAD PUSH1 0x1 PUSH1 0x1 PUSH1 0xA0 SHL SUB SWAP2 DUP5 SWAP2 DUP4 AND SWAP1 PUSH3 0x284 DUP3 ISZERO ISZERO PUSH3 0x9D2 JUMP JUMPDEST DUP2 EXTCODESIZE ISZERO PUSH3 0x172 JUMPI DUP3 SWAP2 DUP6 MLOAD SWAP5 PUSH4 0x40C10F19 PUSH1 0xE0 SHL SWAP3 DUP4 DUP8 MSTORE ADDRESS DUP2 DUP9 ADD MSTORE PUSH6 0x16BCC41E9000 SWAP7 DUP6 DUP2 PUSH1 0x24 SWAP6 DUP11 DUP8 DUP4 ADD MSTORE DUP2 PUSH1 0x44 SWAP11 DUP12 SWAP3 GAS CALL SWAP1 DUP2 ISZERO PUSH3 0x5CD JUMPI DUP7 SWAP2 PUSH3 0x5D7 JUMPI JUMPDEST POP POP DUP2 PUSH1 0x1 SLOAD AND SWAP6 DUP7 EXTCODESIZE ISZERO PUSH3 0x4E3 JUMPI DUP9 MLOAD SWAP5 DUP6 MSTORE ADDRESS DUP3 DUP7 ADD MSTORE DUP6 DUP6 DUP3 DUP2 DUP4 PUSH5 0x5D21DBA00 SWAP12 DUP13 DUP11 DUP5 ADD MSTORE GAS CALL SWAP5 DUP6 ISZERO PUSH3 0x5CD JUMPI DUP7 SWAP6 PUSH3 0x5B1 JUMPI JUMPDEST POP DUP3 DUP6 SLOAD AND DUP4 PUSH1 0x3 SLOAD AND SWAP1 DUP11 MLOAD SWAP1 PUSH4 0x95EA7B3 PUSH1 0xE0 SHL SWAP3 DUP4 DUP4 MSTORE DUP6 DUP4 ADD MSTORE DUP11 DUP8 DUP4 ADD MSTORE DUP2 DUP5 DUP2 PUSH1 0x20 SWAP12 DUP13 SWAP5 GAS CALL DUP1 ISZERO PUSH3 0x547 JUMPI PUSH3 0x58F JUMPI JUMPDEST POP DUP7 DUP11 DUP4 DUP7 PUSH1 0x1 SLOAD AND SWAP4 DUP10 DUP9 PUSH1 0x3 SLOAD AND SWAP4 MLOAD SWAP6 DUP7 SWAP5 DUP6 SWAP4 DUP5 MSTORE DUP10 DUP5 ADD MSTORE DUP14 DUP12 DUP5 ADD MSTORE GAS CALL DUP1 ISZERO PUSH3 0x51B JUMPI PUSH3 0x56D JUMPI JUMPDEST POP DUP3 PUSH1 0x3 SLOAD AND DUP4 DUP7 SLOAD AND DUP5 PUSH1 0x1 SLOAD AND DUP3 EXTCODESIZE ISZERO PUSH3 0x569 JUMPI PUSH1 0x84 DUP9 SWAP3 DUP4 DUP15 MLOAD SWAP6 DUP7 SWAP5 DUP6 SWAP4 PUSH4 0x1BC6F1E7 PUSH1 0xE3 SHL DUP6 MSTORE DUP11 DUP6 ADD MSTORE DUP12 DUP5 ADD MSTORE PUSH5 0x17FB474600 DUP9 DUP5 ADD MSTORE PUSH4 0x5F5E100 PUSH1 0x64 DUP5 ADD MSTORE GAS CALL SWAP1 DUP2 ISZERO PUSH3 0x51B JUMPI DUP7 SWAP2 PUSH3 0x551 JUMPI JUMPDEST POP DUP1 DUP8 DUP6 DUP13 SWAP4 SLOAD AND DUP5 DUP13 DUP9 PUSH1 0x3 SLOAD AND SWAP6 MLOAD SWAP5 DUP6 SWAP4 DUP5 SWAP3 PUSH4 0xA9059CBB PUSH1 0xE0 SHL SWAP9 DUP10 DUP6 MSTORE DUP12 DUP6 ADD MSTORE DUP13 DUP5 ADD MSTORE GAS CALL DUP1 ISZERO PUSH3 0x547 JUMPI PUSH3 0x525 JUMPI JUMPDEST POP DUP7 DUP11 DUP4 DUP7 PUSH1 0x1 SLOAD AND SWAP4 DUP10 DUP9 PUSH1 0x3 SLOAD AND SWAP4 MLOAD SWAP6 DUP7 SWAP5 DUP6 SWAP4 DUP5 MSTORE DUP10 DUP5 ADD MSTORE DUP14 DUP12 DUP5 ADD MSTORE GAS CALL DUP1 ISZERO PUSH3 0x51B JUMPI PUSH3 0x4E7 JUMPI JUMPDEST POP DUP3 PUSH1 0x2 SLOAD AND SWAP3 PUSH1 0x1 SLOAD AND SWAP2 DUP4 EXTCODESIZE ISZERO PUSH3 0x4E3 JUMPI DUP6 DUP1 SWAP5 PUSH2 0x1F4 DUP13 MLOAD SWAP8 DUP9 SWAP7 DUP8 SWAP6 PUSH4 0x39F2A8AF PUSH1 0xE1 SHL DUP8 MSTORE DUP7 ADD MSTORE DUP5 ADD MSTORE GAS CALL DUP1 ISZERO PUSH3 0x4D9 JUMPI PUSH3 0x4B7 JUMPI JUMPDEST POP SWAP3 PUSH6 0x95E27D75800 DUP6 PUSH32 0x7C8B2BB4BA88603ECAF8A835A16F5DC600D81CC928F239A94F1AB037549017CA SWAP5 PUSH1 0x60 SWAP5 DUP3 MLOAD SWAP5 DUP6 MSTORE DUP5 ADD MSTORE DUP3 ADD MSTORE LOG1 DUP1 RETURN JUMPDEST PUSH3 0x4C5 SWAP1 SWAP5 SWAP4 SWAP5 PUSH3 0xA18 JUMP JUMPDEST PUSH3 0x4D5 JUMPI DUP5 CODESIZE SWAP4 SWAP3 SWAP4 PUSH3 0x479 JUMP JUMPDEST DUP5 DUP1 REVERT JUMPDEST DUP7 MLOAD RETURNDATASIZE DUP5 DUP3 RETURNDATACOPY RETURNDATASIZE SWAP1 REVERT JUMPDEST DUP6 DUP1 REVERT JUMPDEST PUSH3 0x50B SWAP1 DUP8 RETURNDATASIZE DUP10 GT PUSH3 0x513 JUMPI JUMPDEST PUSH3 0x502 DUP2 DUP4 PUSH3 0xA43 JUMP JUMPDEST DUP2 ADD SWAP1 PUSH3 0xA66 JUMP JUMPDEST POP CODESIZE PUSH3 0x439 JUMP JUMPDEST POP RETURNDATASIZE PUSH3 0x4F6 JUMP JUMPDEST DUP11 MLOAD RETURNDATASIZE DUP9 DUP3 RETURNDATACOPY RETURNDATASIZE SWAP1 REVERT JUMPDEST PUSH3 0x53F SWAP1 DUP9 RETURNDATASIZE DUP11 GT PUSH3 0x513 JUMPI PUSH3 0x502 DUP2 DUP4 PUSH3 0xA43 JUMP JUMPDEST POP CODESIZE PUSH3 0x408 JUMP JUMPDEST DUP12 MLOAD RETURNDATASIZE DUP10 DUP3 RETURNDATACOPY RETURNDATASIZE SWAP1 REVERT JUMPDEST PUSH3 0x55C SWAP1 PUSH3 0xA18 JUMP JUMPDEST PUSH3 0x4D5 JUMPI DUP5 CODESIZE PUSH3 0x3CF JUMP JUMPDEST DUP8 DUP1 REVERT JUMPDEST PUSH3 0x587 SWAP1 DUP8 RETURNDATASIZE DUP10 GT PUSH3 0x513 JUMPI PUSH3 0x502 DUP2 DUP4 PUSH3 0xA43 JUMP JUMPDEST POP CODESIZE PUSH3 0x374 JUMP JUMPDEST PUSH3 0x5A9 SWAP1 DUP9 RETURNDATASIZE DUP11 GT PUSH3 0x513 JUMPI PUSH3 0x502 DUP2 DUP4 PUSH3 0xA43 JUMP JUMPDEST POP CODESIZE PUSH3 0x343 JUMP JUMPDEST PUSH3 0x5BF SWAP1 SWAP6 SWAP2 SWAP6 PUSH3 0xA18 JUMP JUMPDEST PUSH3 0x4D5 JUMPI DUP5 SWAP4 CODESIZE PUSH3 0x309 JUMP JUMPDEST DUP10 MLOAD RETURNDATASIZE DUP9 DUP3 RETURNDATACOPY RETURNDATASIZE SWAP1 REVERT JUMPDEST PUSH3 0x5E2 SWAP1 PUSH3 0xA18 JUMP JUMPDEST PUSH3 0x4D5 JUMPI DUP5 CODESIZE PUSH3 0x2CC JUMP JUMPDEST POP POP CALLVALUE PUSH3 0xEF JUMPI DUP2 PUSH1 0x3 NOT CALLDATASIZE ADD SLT PUSH3 0xEF JUMPI PUSH1 0x20 SWAP1 MLOAD PUSH6 0x16BCC41E9000 DUP2 MSTORE RETURN JUMPDEST DUP4 DUP4 CALLVALUE PUSH3 0xEF JUMPI DUP2 PUSH1 0x3 NOT CALLDATASIZE ADD SLT PUSH3 0xEF JUMPI DUP1 MLOAD SWAP3 PUSH2 0xD30 SWAP4 DUP5 DUP2 ADD PUSH8 0xFFFFFFFFFFFFFFFF SWAP6 DUP3 DUP3 LT DUP8 DUP4 GT OR PUSH3 0x811 JUMPI SWAP1 DUP3 SWAP2 PUSH3 0x1A09 DUP4 CODECOPY SUB SWAP1 DUP5 CREATE SWAP1 DUP2 ISZERO PUSH3 0x805 JUMPI DUP4 SLOAD PUSH1 0x1 PUSH1 0x1 PUSH1 0xA0 SHL SUB NOT SWAP1 DUP2 AND PUSH1 0x1 PUSH1 0x1 PUSH1 0xA0 SHL SUB SWAP4 DUP5 AND OR DUP6 SSTORE DUP4 MLOAD SWAP1 SWAP3 SWAP1 PUSH2 0xCFE DUP1 DUP3 ADD SWAP1 DUP9 DUP3 GT DUP4 DUP4 LT OR PUSH3 0x7F2 JUMPI SWAP1 DUP3 SWAP2 PUSH3 0x2739 DUP4 CODECOPY SUB SWAP1 DUP7 CREATE DUP1 ISZERO PUSH3 0x7E8 JUMPI DUP2 AND DUP4 PUSH1 0x1 SLOAD AND OR PUSH1 0x1 SSTORE DUP4 MLOAD PUSH2 0x681 DUP1 DUP3 ADD SWAP1 DUP3 DUP3 LT DUP10 DUP4 GT OR PUSH3 0x7F2 JUMPI SWAP1 DUP3 SWAP2 PUSH3 0xA86 DUP4 CODECOPY SUB SWAP1 DUP7 CREATE DUP1 ISZERO PUSH3 0x7E8 JUMPI DUP2 AND DUP4 PUSH1 0x2 SLOAD AND OR PUSH1 0x2 SSTORE DUP4 MLOAD PUSH2 0x902 DUP1 DUP3 ADD SWAP1 DUP3 DUP3 LT DUP10 DUP4 GT OR PUSH3 0x7F2 JUMPI SWAP1 DUP3 SWAP2 PUSH3 0x1107 DUP4 CODECOPY SUB SWAP1 DUP7 CREATE DUP1 ISZERO PUSH3 0x7E8 JUMPI DUP2 AND DUP4 PUSH1 0x3 SLOAD AND OR PUSH1 0x3 SSTORE DUP4 MLOAD PUSH2 0x4B7 DUP1 DUP3 ADD SWAP8 DUP3 DUP10 LT SWAP1 DUP10 GT OR PUSH3 0x7D5 JUMPI DUP2 DUP8 SWAP9 PUSH1 0x20 SWAP3 SWAP9 SWAP8 SWAP9 PUSH3 0x3437 DUP4 CODECOPY PUSH6 0x95E27D75800 DUP2 MSTORE SUB ADD SWAP1 DUP6 CREATE DUP1 ISZERO PUSH3 0x7CB JUMPI DUP3 SLOAD SWAP1 DUP3 AND SWAP4 DUP2 AND DUP5 OR SWAP1 SWAP3 SSTORE DUP4 SLOAD PUSH1 0x1 SLOAD PUSH1 0x2 SLOAD PUSH1 0x3 SLOAD SWAP8 MLOAD SWAP3 DUP5 AND PUSH1 0x1 PUSH1 0x1 PUSH1 0xA0 SHL SUB SWAP1 DUP2 AND DUP5 MSTORE SWAP2 DUP5 AND DUP3 AND PUSH1 0x20 DUP5 ADD MSTORE DUP4 AND DUP2 AND PUSH1 0x40 DUP4 ADD MSTORE SWAP6 SWAP1 SWAP2 AND DUP6 AND PUSH1 0x60 DUP3 ADD MSTORE SWAP3 AND OR SWAP1 SWAP2 AND PUSH1 0x80 DUP3 ADD MSTORE PUSH32 0x560D905B644F11CD6F1E40961146BF323AFE328326F2E94EAD6D032AF436EF4D SWAP1 PUSH1 0xA0 SWAP1 LOG1 DUP1 RETURN JUMPDEST DUP6 MLOAD RETURNDATASIZE DUP7 DUP3 RETURNDATACOPY RETURNDATASIZE SWAP1 REVERT JUMPDEST PUSH4 0x4E487B71 PUSH1 0xE0 SHL DUP8 MSTORE PUSH1 0x41 DUP5 MSTORE PUSH1 0x24 DUP8 REVERT JUMPDEST DUP5 MLOAD RETURNDATASIZE DUP8 DUP3 RETURNDATACOPY RETURNDATASIZE SWAP1 REVERT JUMPDEST PUSH4 0x4E487B71 PUSH1 0xE0 SHL DUP9 MSTORE PUSH1 0x41 DUP6 MSTORE PUSH1 0x24 DUP9 REVERT JUMPDEST POP POP MLOAD SWAP1 RETURNDATASIZE SWAP1 DUP3 RETURNDATACOPY RETURNDATASIZE SWAP1 REVERT JUMPDEST PUSH4 0x4E487B71 PUSH1 0xE0 SHL DUP7 MSTORE PUSH1 0x41 DUP5 MSTORE PUSH1 0x24 DUP7 REVERT JUMPDEST DUP1 SWAP2 DUP5 CALLVALUE PUSH3 0x201 JUMPI PUSH1 0x60 CALLDATASIZE PUSH1 0x3 NOT ADD SLT PUSH3 0x201 JUMPI DUP2 CALLDATALOAD SWAP2 PUSH1 0x1 PUSH1 0x1 PUSH1 0xA0 SHL SUB DUP1 DUP5 AND DUP5 SUB PUSH3 0x4D5 JUMPI DUP5 SLOAD PUSH1 0x44 CALLDATALOAD SWAP2 SWAP1 DUP2 AND PUSH1 0x24 CALLDATALOAD PUSH3 0x868 DUP3 ISZERO ISZERO PUSH3 0x9D2 JUMP JUMPDEST DUP1 PUSH3 0x8ED JUMPI JUMPDEST POP POP DUP2 PUSH3 0x87B JUMPI DUP6 DUP1 RETURN JUMPDEST PUSH1 0x1 SLOAD AND DUP1 EXTCODESIZE ISZERO PUSH3 0x4E3 JUMPI DUP4 MLOAD PUSH4 0x40C10F19 PUSH1 0xE0 SHL DUP2 MSTORE PUSH1 0x1 PUSH1 0x1 PUSH1 0xA0 SHL SUB SWAP1 SWAP6 AND SWAP3 DUP6 ADD SWAP3 DUP4 MSTORE PUSH1 0x20 DUP4 ADD SWAP2 SWAP1 SWAP2 MSTORE DUP5 SWAP2 DUP5 SWAP2 SWAP1 DUP3 SWAP1 DUP5 SWAP1 DUP3 SWAP1 PUSH1 0x40 ADD SUB SWAP3 GAS CALL SWAP1 DUP2 ISZERO PUSH3 0x1F3 JUMPI POP PUSH3 0x8D5 JUMPI JUMPDEST DUP1 DUP1 DUP1 DUP1 DUP6 DUP1 RETURN JUMPDEST PUSH3 0x8E0 SWAP1 PUSH3 0xA18 JUMP JUMPDEST PUSH3 0x1F0 JUMPI DUP1 DUP3 PUSH3 0x8CD JUMP JUMPDEST DUP2 EXTCODESIZE ISZERO PUSH3 0x569 JUMPI DUP6 MLOAD PUSH4 0x40C10F19 PUSH1 0xE0 SHL DUP2 MSTORE PUSH1 0x1 PUSH1 0x1 PUSH1 0xA0 SHL SUB DUP9 AND DUP7 DUP3 ADD SWAP1 DUP2 MSTORE PUSH1 0x20 DUP2 ADD SWAP3 SWAP1 SWAP3 MSTORE SWAP9 DUP9 SWAP3 DUP11 SWAP3 DUP4 SWAP1 SUB PUSH1 0x40 ADD SWAP2 DUP4 SWAP2 GAS CALL DUP1 ISZERO PUSH3 0x956 JUMPI PUSH3 0x93F JUMPI JUMPDEST DUP7 DUP7 SWAP8 PUSH3 0x86F JUMP JUMPDEST SWAP5 SWAP1 SWAP6 PUSH3 0x94D SWAP1 PUSH3 0xA18 JUMP JUMPDEST SWAP4 DUP6 SWAP1 PUSH3 0x936 JUMP JUMPDEST DUP5 MLOAD RETURNDATASIZE DUP9 DUP3 RETURNDATACOPY RETURNDATASIZE SWAP1 REVERT JUMPDEST POP POP CALLVALUE PUSH3 0xEF JUMPI DUP2 PUSH1 0x3 NOT CALLDATASIZE ADD SLT PUSH3 0xEF JUMPI PUSH1 0x20 SWAP1 MLOAD PUSH5 0x5D21DBA00 DUP2 MSTORE RETURN JUMPDEST POP POP CALLVALUE PUSH3 0xEF JUMPI DUP2 PUSH1 0x3 NOT CALLDATASIZE ADD SLT PUSH3 0xEF JUMPI SWAP1 SLOAD SWAP1 MLOAD PUSH1 0x1 PUSH1 0x1 PUSH1 0xA0 SHL SUB SWAP1 SWAP2 AND DUP2 MSTORE PUSH1 0x20 SWAP1 RETURN JUMPDEST DUP5 SWAP2 CALLVALUE PUSH3 0x172 JUMPI DUP3 PUSH1 0x3 NOT CALLDATASIZE ADD SLT PUSH3 0x172 JUMPI SLOAD PUSH1 0x1 PUSH1 0x1 PUSH1 0xA0 SHL SUB AND DUP2 MSTORE PUSH1 0x20 SWAP2 POP RETURN JUMPDEST ISZERO PUSH3 0x9DA JUMPI JUMP JUMPDEST PUSH1 0x40 MLOAD PUSH3 0x461BCD PUSH1 0xE5 SHL DUP2 MSTORE PUSH1 0x20 PUSH1 0x4 DUP3 ADD MSTORE PUSH1 0x16 PUSH1 0x24 DUP3 ADD MSTORE PUSH22 0x11195C1B1BDE4818DBDB9D1C9858DD1CC8199A5C9CDD PUSH1 0x52 SHL PUSH1 0x44 DUP3 ADD MSTORE PUSH1 0x64 SWAP1 REVERT JUMPDEST PUSH8 0xFFFFFFFFFFFFFFFF DUP2 GT PUSH3 0xA2D JUMPI PUSH1 0x40 MSTORE JUMP JUMPDEST PUSH4 0x4E487B71 PUSH1 0xE0 SHL PUSH1 0x0 MSTORE PUSH1 0x41 PUSH1 0x4 MSTORE PUSH1 0x24 PUSH1 0x0 REVERT JUMPDEST SWAP1 PUSH1 0x1F DUP1 NOT SWAP2 ADD AND DUP2 ADD SWAP1 DUP2 LT PUSH8 0xFFFFFFFFFFFFFFFF DUP3 GT OR PUSH3 0xA2D JUMPI PUSH1 0x40 MSTORE JUMP JUMPDEST SWAP1 DUP2 PUSH1 0x20 SWAP2 SUB SLT PUSH3 0xA80 JUMPI MLOAD DUP1 ISZERO ISZERO DUP2 SUB PUSH3 0xA80 JUMPI SWAP1 JUMP JUMPDEST PUSH1 0x0 DUP1 REVERT INVALID PUSH1 0x80 DUP1 PUSH1 0x40 MSTORE CALLVALUE PUSH2 0x28 JUMPI PUSH1 0x3 DUP1 SLOAD PUSH1 0x1 PUSH1 0x1 PUSH1 0xA0 SHL SUB NOT AND CALLER OR SWAP1 SSTORE PUSH2 0x653 SWAP1 DUP2 PUSH2 0x2E DUP3 CODECOPY RETURN JUMPDEST PUSH1 0x0 DUP1 REVERT INVALID PUSH1 0x80 PUSH1 0x40 DUP2 DUP2 MSTORE PUSH1 0x4 SWAP2 DUP3 CALLDATASIZE LT ISZERO PUSH2 0x16 JUMPI PUSH1 0x0 DUP1 REVERT JUMPDEST PUSH1 0x0 SWAP3 DUP4 CALLDATALOAD PUSH1 0xE0 SHR SWAP2 DUP3 PUSH4 0x28CC651 EQ PUSH2 0x511 JUMPI POP DUP2 PUSH4 0x617BA037 EQ PUSH2 0x3BC JUMPI DUP2 PUSH4 0x68DA10AE EQ PUSH2 0x394 JUMPI DUP2 PUSH4 0x69328DEC EQ PUSH2 0x229 JUMPI DUP2 PUSH4 0x73E5515E EQ PUSH2 0x168 JUMPI POP DUP1 PUSH4 0x8DA5CB5B EQ PUSH2 0x140 JUMPI DUP1 PUSH4 0x9782E821 EQ PUSH2 0x109 JUMPI DUP1 PUSH4 0xDCCDA03D EQ PUSH2 0xD2 JUMPI PUSH4 0xEE9E836D EQ PUSH2 0x88 JUMPI PUSH1 0x0 DUP1 REVERT JUMPDEST CALLVALUE PUSH2 0xCE JUMPI DUP1 PUSH1 0x3 NOT CALLDATASIZE ADD SLT PUSH2 0xCE JUMPI DUP1 PUSH1 0x20 SWAP3 PUSH2 0xA4 PUSH2 0x556 JUMP JUMPDEST PUSH2 0xAC PUSH2 0x571 JUMP JUMPDEST PUSH1 0x1 PUSH1 0x1 PUSH1 0xA0 SHL SUB SWAP2 DUP3 AND DUP4 MSTORE DUP3 DUP7 MSTORE DUP4 DUP4 KECCAK256 SWAP2 AND DUP3 MSTORE DUP5 MSTORE KECCAK256 SLOAD SWAP1 MLOAD SWAP1 DUP2 MSTORE RETURN JUMPDEST POP DUP1 REVERT JUMPDEST POP CALLVALUE PUSH2 0xCE JUMPI PUSH1 0x20 CALLDATASIZE PUSH1 0x3 NOT ADD SLT PUSH2 0xCE JUMPI PUSH1 0x20 SWAP2 DUP2 SWAP1 PUSH1 0x1 PUSH1 0x1 PUSH1 0xA0 SHL SUB PUSH2 0xF9 PUSH2 0x556 JUMP JUMPDEST AND DUP2 MSTORE PUSH1 0x2 DUP5 MSTORE KECCAK256 SLOAD SWAP1 MLOAD SWAP1 DUP2 MSTORE RETURN JUMPDEST POP CALLVALUE PUSH2 0xCE JUMPI PUSH1 0x20 CALLDATASIZE PUSH1 0x3 NOT ADD SLT PUSH2 0xCE JUMPI PUSH1 0x20 SWAP2 DUP2 SWAP1 PUSH1 0x1 PUSH1 0x1 PUSH1 0xA0 SHL SUB PUSH2 0x130 PUSH2 0x556 JUMP JUMPDEST AND DUP2 MSTORE PUSH1 0x1 DUP5 MSTORE KECCAK256 SLOAD SWAP1 MLOAD SWAP1 DUP2 MSTORE RETURN JUMPDEST POP CALLVALUE PUSH2 0xCE JUMPI DUP2 PUSH1 0x3 NOT CALLDATASIZE ADD SLT PUSH2 0xCE JUMPI PUSH1 0x3 SLOAD SWAP1 MLOAD PUSH1 0x1 PUSH1 0x1 PUSH1 0xA0 SHL SUB SWAP1 SWAP2 AND DUP2 MSTORE PUSH1 0x20 SWAP1 RETURN JUMPDEST SWAP1 POP CALLVALUE PUSH2 0x225 JUMPI DUP2 PUSH1 0x3 NOT CALLDATASIZE ADD SLT PUSH2 0x225 JUMPI PUSH2 0x182 PUSH2 0x556 JUMP JUMPDEST PUSH1 0x3 SLOAD PUSH1 0x24 CALLDATALOAD SWAP3 PUSH1 0x1 PUSH1 0x1 PUSH1 0xA0 SHL SUB SWAP3 SWAP2 DUP4 AND CALLER SUB PUSH2 0x1D8 JUMPI POP SWAP2 PUSH1 0x20 SWAP2 PUSH32 0xCD71EADFD232CAEC497A12178DB6D8BE8A15F0F645B648615007E6E8E7143C88 SWAP4 AND SWAP4 DUP5 DUP7 MSTORE PUSH1 0x2 DUP4 MSTORE DUP2 DUP2 DUP8 KECCAK256 SSTORE MLOAD SWAP1 DUP2 MSTORE LOG2 DUP1 RETURN JUMPDEST PUSH1 0x84 SWAP1 PUSH1 0x20 DUP7 MLOAD SWAP2 PUSH3 0x461BCD PUSH1 0xE5 SHL DUP4 MSTORE DUP3 ADD MSTORE PUSH1 0x21 PUSH1 0x24 DUP3 ADD MSTORE PUSH32 0x4F6E6C79206F776E65722063616E2063616C6C20746869732066756E6374696F PUSH1 0x44 DUP3 ADD MSTORE PUSH1 0x37 PUSH1 0xF9 SHL PUSH1 0x64 DUP3 ADD MSTORE REVERT JUMPDEST DUP3 DUP1 REVERT JUMPDEST SWAP2 SWAP1 POP CALLVALUE PUSH2 0x225 JUMPI PUSH1 0x60 CALLDATASIZE PUSH1 0x3 NOT ADD SLT PUSH2 0x225 JUMPI PUSH2 0x245 PUSH2 0x556 JUMP JUMPDEST SWAP2 PUSH1 0x24 CALLDATALOAD SWAP4 PUSH2 0x252 PUSH2 0x587 JUMP JUMPDEST PUSH1 0x1 PUSH1 0x1 PUSH1 0xA0 SHL SUB SWAP5 DUP6 AND DUP1 DUP4 MSTORE PUSH1 0x20 DUP4 DUP2 MSTORE DUP6 DUP5 KECCAK256 CALLER DUP6 MSTORE DUP2 MSTORE DUP6 DUP5 KECCAK256 SLOAD SWAP1 SWAP8 SWAP2 SWAP4 SWAP2 DUP2 DUP2 GT ISZERO PUSH2 0x38C JUMPI POP SWAP6 JUMPDEST DUP7 ISZERO PUSH2 0x352 JUMPI DUP4 DUP3 MSTORE DUP2 DUP9 MSTORE DUP6 DUP3 KECCAK256 CALLER DUP4 MSTORE DUP9 MSTORE DUP6 DUP3 KECCAK256 PUSH2 0x2A3 DUP9 DUP3 SLOAD PUSH2 0x610 JUMP JUMPDEST SWAP1 SSTORE DUP4 DUP3 MSTORE PUSH1 0x1 DUP9 MSTORE DUP6 DUP3 KECCAK256 PUSH2 0x2BA DUP9 DUP3 SLOAD PUSH2 0x610 JUMP JUMPDEST SWAP1 SSTORE DUP6 MLOAD SWAP3 PUSH4 0xA9059CBB PUSH1 0xE0 SHL DUP5 MSTORE AND DUP1 SWAP5 DUP4 ADD MSTORE DUP6 PUSH1 0x24 DUP4 ADD MSTORE DUP7 DUP3 PUSH1 0x44 DUP2 DUP5 DUP8 GAS CALL SWAP1 DUP2 ISZERO PUSH2 0x347 JUMPI POP PUSH2 0x31A JUMPI JUMPDEST POP PUSH32 0x9B1BFA7FA9EE420A16E124F794C35AC9F90472ACC99140EB2F6447C714CAD8EB DUP6 DUP5 MLOAD DUP7 DUP2 MSTORE LOG3 MLOAD SWAP1 DUP2 MSTORE RETURN JUMPDEST PUSH2 0x339 SWAP1 DUP7 RETURNDATASIZE DUP9 GT PUSH2 0x340 JUMPI JUMPDEST PUSH2 0x331 DUP2 DUP4 PUSH2 0x59D JUMP JUMPDEST DUP2 ADD SWAP1 PUSH2 0x5D5 JUMP JUMPDEST POP CODESIZE PUSH2 0x2EB JUMP JUMPDEST POP RETURNDATASIZE PUSH2 0x327 JUMP JUMPDEST DUP6 MLOAD SWAP1 RETURNDATASIZE SWAP1 DUP3 RETURNDATACOPY RETURNDATASIZE SWAP1 REVERT JUMPDEST DUP6 MLOAD PUSH3 0x461BCD PUSH1 0xE5 SHL DUP2 MSTORE DUP1 DUP7 ADD DUP10 SWAP1 MSTORE PUSH1 0x14 PUSH1 0x24 DUP3 ADD MSTORE PUSH20 0x4E6F2066756E647320746F207769746864726177 PUSH1 0x60 SHL PUSH1 0x44 DUP3 ADD MSTORE PUSH1 0x64 SWAP1 REVERT JUMPDEST SWAP1 POP SWAP6 PUSH2 0x281 JUMP JUMPDEST POP POP CALLVALUE PUSH2 0xCE JUMPI PUSH1 0x20 CALLDATASIZE PUSH1 0x3 NOT ADD SLT PUSH2 0xCE JUMPI PUSH1 0x20 SWAP2 DUP2 SWAP1 PUSH1 0x1 PUSH1 0x1 PUSH1 0xA0 SHL SUB PUSH2 0x130 PUSH2 0x556 JUMP JUMPDEST SWAP2 SWAP1 POP CALLVALUE PUSH2 0x225 JUMPI PUSH1 0x80 CALLDATASIZE PUSH1 0x3 NOT ADD SLT PUSH2 0x225 JUMPI PUSH2 0x3D8 PUSH2 0x556 JUMP JUMPDEST SWAP1 PUSH1 0x24 CALLDATALOAD SWAP2 PUSH2 0x3E5 PUSH2 0x587 JUMP JUMPDEST SWAP3 PUSH1 0x64 CALLDATALOAD PUSH2 0xFFFF DUP2 AND SUB PUSH2 0x50D JUMPI DUP1 ISZERO PUSH2 0x4CA JUMPI DUP3 MLOAD PUSH4 0x23B872DD PUSH1 0xE0 SHL DUP2 MSTORE CALLER SWAP6 DUP2 ADD SWAP6 SWAP1 SWAP6 MSTORE ADDRESS PUSH1 0x24 DUP7 ADD MSTORE PUSH1 0x44 DUP6 ADD DUP2 SWAP1 MSTORE PUSH1 0x1 PUSH1 0x1 PUSH1 0xA0 SHL SUB SWAP2 DUP3 AND SWAP3 PUSH1 0x20 SWAP3 DUP4 DUP8 PUSH1 0x64 DUP2 DUP12 DUP10 GAS CALL SWAP7 DUP8 ISZERO PUSH2 0x4C0 JUMPI PUSH32 0xD1CF3D156D5F8F0D50F6C122ED609CEC09D35C9B9FB3FFF6EA0959134DAE424E SWAP6 SWAP7 SWAP8 PUSH2 0x4A3 JUMPI JUMPDEST POP DUP6 DUP9 MSTORE DUP8 DUP5 MSTORE DUP2 DUP9 KECCAK256 SWAP7 AND SWAP6 DUP7 DUP9 MSTORE DUP4 MSTORE DUP1 DUP8 KECCAK256 PUSH2 0x482 DUP4 DUP3 SLOAD PUSH2 0x5ED JUMP JUMPDEST SWAP1 SSTORE DUP5 DUP8 MSTORE PUSH1 0x1 DUP4 MSTORE DUP1 DUP8 KECCAK256 PUSH2 0x499 DUP4 DUP3 SLOAD PUSH2 0x5ED JUMP JUMPDEST SWAP1 SSTORE MLOAD SWAP1 DUP2 MSTORE LOG3 DUP1 RETURN JUMPDEST PUSH2 0x4B9 SWAP1 DUP6 RETURNDATASIZE DUP8 GT PUSH2 0x340 JUMPI PUSH2 0x331 DUP2 DUP4 PUSH2 0x59D JUMP JUMPDEST POP CODESIZE PUSH2 0x462 JUMP JUMPDEST DUP3 MLOAD RETURNDATASIZE DUP11 DUP3 RETURNDATACOPY RETURNDATASIZE SWAP1 REVERT JUMPDEST DUP3 MLOAD PUSH3 0x461BCD PUSH1 0xE5 SHL DUP2 MSTORE PUSH1 0x20 DUP2 DUP8 ADD MSTORE PUSH1 0x1D PUSH1 0x24 DUP3 ADD MSTORE PUSH32 0x416D6F756E74206D7573742062652067726561746572207468616E2030000000 PUSH1 0x44 DUP3 ADD MSTORE PUSH1 0x64 SWAP1 REVERT JUMPDEST DUP6 DUP1 REVERT JUMPDEST DUP5 SWAP1 DUP5 CALLVALUE PUSH2 0x225 JUMPI DUP1 PUSH1 0x3 NOT CALLDATASIZE ADD SLT PUSH2 0x225 JUMPI PUSH1 0x20 SWAP3 PUSH2 0x52F PUSH2 0x556 JUMP JUMPDEST PUSH2 0x537 PUSH2 0x571 JUMP JUMPDEST PUSH1 0x1 PUSH1 0x1 PUSH1 0xA0 SHL SUB SWAP2 DUP3 AND DUP4 MSTORE DUP3 DUP7 MSTORE DUP4 DUP4 KECCAK256 SWAP2 AND DUP3 MSTORE DUP5 MSTORE KECCAK256 SLOAD DUP2 MSTORE RETURN JUMPDEST PUSH1 0x4 CALLDATALOAD SWAP1 PUSH1 0x1 PUSH1 0x1 PUSH1 0xA0 SHL SUB DUP3 AND DUP3 SUB PUSH2 0x56C JUMPI JUMP JUMPDEST PUSH1 0x0 DUP1 REVERT JUMPDEST PUSH1 0x24 CALLDATALOAD SWAP1 PUSH1 0x1 PUSH1 0x1 PUSH1 0xA0 SHL SUB DUP3 AND DUP3 SUB PUSH2 0x56C JUMPI JUMP JUMPDEST PUSH1 0x44 CALLDATALOAD SWAP1 PUSH1 0x1 PUSH1 0x1 PUSH1 0xA0 SHL SUB DUP3 AND DUP3 SUB PUSH2 0x56C JUMPI JUMP JUMPDEST SWAP1 PUSH1 0x1F DUP1 NOT SWAP2 ADD AND DUP2 ADD SWAP1 DUP2 LT PUSH8 0xFFFFFFFFFFFFFFFF DUP3 GT OR PUSH2 0x5BF JUMPI PUSH1 0x40 MSTORE JUMP JUMPDEST PUSH4 0x4E487B71 PUSH1 0xE0 SHL PUSH1 0x0 MSTORE PUSH1 0x41 PUSH1 0x4 MSTORE PUSH1 0x24 PUSH1 0x0 REVERT JUMPDEST SWAP1 DUP2 PUSH1 0x20 SWAP2 SUB SLT PUSH2 0x56C JUMPI MLOAD DUP1 ISZERO ISZERO DUP2 SUB PUSH2 0x56C JUMPI SWAP1 JUMP JUMPDEST SWAP2 SWAP1 DUP3 ADD DUP1 SWAP3 GT PUSH2 0x5FA JUMPI JUMP JUMPDEST PUSH4 0x4E487B71 PUSH1 0xE0 SHL PUSH1 0x0 MSTORE PUSH1 0x11 PUSH1 0x4 MSTORE PUSH1 0x24 PUSH1 0x0 REVERT JUMPDEST SWAP2 SWAP1 DUP3 SUB SWAP2 DUP3 GT PUSH2 0x5FA JUMPI JUMP INVALID LOG2 PUSH5 0x6970667358 0x22 SLT KECCAK256 0xA6 0xFB LOG1 0xA9 PUSH1 0x42 SWAP15 LOG4 LOG3 SWAP8 DUP16 CODESIZE 0xDC MULMOD PUSH3 0x475FC4 0xE2 SUB 0xD4 MULMOD CODESIZE PUSH4 0x70DB71CC SWAP14 0x4E 0x27 0xB5 PUSH5 0x736F6C6343 STOP ADDMOD EQ STOP CALLER PUSH1 0x80 DUP1 PUSH1 0x40 MSTORE CALLVALUE PUSH2 0x28 JUMPI PUSH1 0x1 DUP1 SLOAD PUSH1 0x1 PUSH1 0x1 PUSH1 0xA0 SHL SUB NOT AND CALLER OR SWAP1 SSTORE PUSH2 0x8D4 SWAP1 DUP2 PUSH2 0x2E DUP3 CODECOPY RETURN JUMPDEST PUSH1 0x0 DUP1 REVERT INVALID PUSH1 0x80 DUP1 PUSH1 0x40 MSTORE PUSH1 0x4 CALLDATASIZE LT ISZERO PUSH2 0x13 JUMPI PUSH1 0x0 DUP1 REVERT JUMPDEST PUSH1 0x0 CALLDATALOAD PUSH1 0xE0 SHR SWAP1 DUP2 PUSH4 0x38ED1739 EQ PUSH2 0x2D4 JUMPI POP DUP1 PUSH4 0x503FA44F EQ PUSH2 0x27A JUMPI DUP1 PUSH4 0x8DA5CB5B EQ PUSH2 0x251 JUMPI DUP1 PUSH4 0xBAAA61BE EQ PUSH2 0x1E2 JUMPI PUSH4 0xDE378F38 EQ PUSH2 0x56 JUMPI PUSH1 0x0 DUP1 REVERT JUMPDEST CALLVALUE PUSH2 0x1DD JUMPI PUSH1 0x80 CALLDATASIZE PUSH1 0x3 NOT ADD SLT PUSH2 0x1DD JUMPI PUSH2 0x6F PUSH2 0x7B6 JUMP JUMPDEST PUSH2 0x77 PUSH2 0x7CC JUMP JUMPDEST PUSH1 0x1 SLOAD SWAP1 SWAP2 PUSH1 0x1 PUSH1 0x1 PUSH1 0xA0 SHL SUB SWAP2 PUSH1 0x64 CALLDATALOAD SWAP2 SWAP1 PUSH1 0x44 CALLDATALOAD SWAP1 DUP5 AND CALLER SUB PUSH2 0x18E JUMPI DUP3 ISZERO PUSH2 0x13E JUMPI PUSH32 0xF7E06908C466F8ECD19CB46C7E97598DC5A8760F637BB764D91FC4B6DA7664EF SWAP3 PUSH1 0x40 SWAP3 DUP4 MLOAD PUSH2 0xCC DUP2 PUSH2 0x7E2 JUMP JUMPDEST DUP4 DUP2 MSTORE PUSH1 0x1 PUSH1 0x20 SWAP3 DUP9 DUP5 DUP5 ADD SWAP2 DUP7 DUP4 MSTORE AND SWAP9 DUP10 PUSH1 0x0 MSTORE PUSH1 0x0 DUP6 MSTORE DUP8 PUSH1 0x0 KECCAK256 SWAP11 AND SWAP10 DUP11 PUSH1 0x0 MSTORE DUP5 MSTORE DUP7 PUSH1 0x0 KECCAK256 SWAP3 MLOAD DUP4 SSTORE MLOAD SWAP2 ADD SSTORE DUP4 MLOAD PUSH2 0x10A DUP2 PUSH2 0x7E2 JUMP JUMPDEST DUP3 DUP2 MSTORE PUSH1 0x1 DUP3 DUP3 ADD DUP6 DUP2 MSTORE DUP10 PUSH1 0x0 MSTORE PUSH1 0x0 DUP5 MSTORE DUP7 PUSH1 0x0 KECCAK256 DUP10 PUSH1 0x0 MSTORE DUP5 MSTORE DUP7 PUSH1 0x0 KECCAK256 SWAP3 MLOAD DUP4 SSTORE MLOAD SWAP2 ADD SSTORE DUP4 MLOAD SWAP3 DUP4 MSTORE DUP3 ADD MSTORE LOG3 STOP JUMPDEST PUSH1 0x40 MLOAD PUSH3 0x461BCD PUSH1 0xE5 SHL DUP2 MSTORE PUSH1 0x20 PUSH1 0x4 DUP3 ADD MSTORE PUSH1 0x22 PUSH1 0x24 DUP3 ADD MSTORE PUSH32 0x44656E6F6D696E61746F72206D7573742062652067726561746572207468616E PUSH1 0x44 DUP3 ADD MSTORE PUSH2 0x203 PUSH1 0xF4 SHL PUSH1 0x64 DUP3 ADD MSTORE PUSH1 0x84 SWAP1 REVERT JUMPDEST PUSH1 0x40 MLOAD PUSH3 0x461BCD PUSH1 0xE5 SHL DUP2 MSTORE PUSH1 0x20 PUSH1 0x4 DUP3 ADD MSTORE PUSH1 0x21 PUSH1 0x24 DUP3 ADD MSTORE PUSH32 0x4F6E6C79206F776E65722063616E2063616C6C20746869732066756E6374696F PUSH1 0x44 DUP3 ADD MSTORE PUSH1 0x37 PUSH1 0xF9 SHL PUSH1 0x64 DUP3 ADD MSTORE PUSH1 0x84 SWAP1 REVERT JUMPDEST PUSH1 0x0 DUP1 REVERT JUMPDEST CALLVALUE PUSH2 0x1DD JUMPI PUSH1 0x40 CALLDATASIZE PUSH1 0x3 NOT ADD SLT PUSH2 0x1DD JUMPI PUSH2 0x1FB PUSH2 0x7B6 JUMP JUMPDEST PUSH2 0x203 PUSH2 0x7CC JUMP JUMPDEST SWAP1 PUSH1 0x1 DUP1 PUSH1 0xA0 SHL SUB DUP1 SWAP2 AND PUSH1 0x0 MSTORE PUSH1 0x0 PUSH1 0x20 MSTORE PUSH1 0x40 PUSH1 0x0 KECCAK256 SWAP2 AND PUSH1 0x0 MSTORE PUSH1 0x20 MSTORE PUSH1 0x40 DUP1 PUSH1 0x0 KECCAK256 PUSH1 0x20 DUP3 MLOAD PUSH2 0x236 DUP2 PUSH2 0x7E2 JUMP JUMPDEST PUSH1 0x1 DUP4 SLOAD SWAP4 DUP5 DUP4 MSTORE ADD SLOAD SWAP2 DUP3 SWAP2 ADD MSTORE DUP3 MLOAD SWAP2 DUP3 MSTORE PUSH1 0x20 DUP3 ADD MSTORE RETURN JUMPDEST CALLVALUE PUSH2 0x1DD JUMPI PUSH1 0x0 CALLDATASIZE PUSH1 0x3 NOT ADD SLT PUSH2 0x1DD JUMPI PUSH1 0x1 SLOAD PUSH1 0x40 MLOAD PUSH1 0x1 PUSH1 0x1 PUSH1 0xA0 SHL SUB SWAP1 SWAP2 AND DUP2 MSTORE PUSH1 0x20 SWAP1 RETURN JUMPDEST CALLVALUE PUSH2 0x1DD JUMPI PUSH1 0x40 CALLDATASIZE PUSH1 0x3 NOT ADD SLT PUSH2 0x1DD JUMPI PUSH2 0x293 PUSH2 0x7B6 JUMP JUMPDEST PUSH2 0x29B PUSH2 0x7CC JUMP JUMPDEST SWAP1 PUSH1 0x1 DUP1 PUSH1 0xA0 SHL SUB DUP1 SWAP2 AND PUSH1 0x0 MSTORE PUSH1 0x0 PUSH1 0x20 MSTORE PUSH1 0x40 PUSH1 0x0 KECCAK256 SWAP2 AND PUSH1 0x0 MSTORE PUSH1 0x20 MSTORE PUSH1 0x40 DUP1 PUSH1 0x0 KECCAK256 PUSH1 0x1 DUP2 SLOAD SWAP2 ADD SLOAD DUP3 MLOAD SWAP2 DUP3 MSTORE PUSH1 0x20 DUP3 ADD MSTORE RETURN JUMPDEST CALLVALUE PUSH2 0x1DD JUMPI PUSH1 0xA0 CALLDATASIZE PUSH1 0x3 NOT ADD SLT PUSH2 0x1DD JUMPI PUSH8 0xFFFFFFFFFFFFFFFF DUP1 PUSH1 0x44 CALLDATALOAD GT PUSH2 0x1DD JUMPI CALLDATASIZE PUSH1 0x23 PUSH1 0x44 CALLDATALOAD ADD SLT ISZERO PUSH2 0x1DD JUMPI PUSH1 0x44 CALLDATALOAD PUSH1 0x4 ADD CALLDATALOAD GT PUSH2 0x1DD JUMPI CALLDATASIZE PUSH1 0x24 PUSH1 0x44 CALLDATALOAD PUSH1 0x4 ADD CALLDATALOAD PUSH1 0x5 SHL PUSH1 0x44 CALLDATALOAD ADD ADD GT PUSH2 0x1DD JUMPI PUSH1 0x64 CALLDATALOAD SWAP1 PUSH1 0x1 PUSH1 0x1 PUSH1 0xA0 SHL SUB DUP3 AND DUP3 SUB PUSH2 0x1DD JUMPI PUSH1 0x2 PUSH1 0x44 CALLDATALOAD PUSH1 0x4 ADD CALLDATALOAD LT PUSH2 0x785 JUMPI POP PUSH1 0x4 CALLDATALOAD ISZERO PUSH2 0x740 JUMPI PUSH2 0x361 PUSH1 0x44 CALLDATALOAD PUSH1 0x4 ADD CALLDATALOAD PUSH2 0x836 JUMP JUMPDEST PUSH2 0x36E PUSH1 0x40 MLOAD SWAP2 DUP3 PUSH2 0x814 JUMP JUMPDEST PUSH1 0x4 PUSH1 0x44 CALLDATALOAD ADD CALLDATALOAD DUP1 DUP3 MSTORE PUSH1 0x1F NOT SWAP1 PUSH2 0x385 SWAP1 PUSH2 0x836 JUMP JUMPDEST ADD CALLDATASIZE PUSH1 0x20 DUP4 ADD CALLDATACOPY DUP1 MLOAD ISZERO PUSH2 0x72A JUMPI PUSH1 0x4 CALLDATALOAD PUSH1 0x20 DUP3 ADD MSTORE PUSH1 0x0 JUMPDEST PUSH1 0x4 PUSH1 0x44 CALLDATALOAD ADD CALLDATALOAD PUSH1 0x0 NOT DUP2 ADD GT PUSH2 0x50E JUMPI PUSH1 0x4 PUSH1 0x44 CALLDATALOAD ADD CALLDATALOAD PUSH1 0x0 NOT ADD DUP2 LT ISZERO PUSH2 0x6E4 JUMPI PUSH2 0x3DF PUSH2 0x3DA DUP3 PUSH1 0x44 CALLDATALOAD PUSH1 0x4 ADD CALLDATALOAD PUSH1 0x24 PUSH1 0x44 CALLDATALOAD ADD PUSH2 0x862 JUMP JUMPDEST PUSH2 0x872 JUMP JUMPDEST PUSH1 0x1 DUP3 ADD DUP3 GT PUSH2 0x50E JUMPI PUSH2 0x405 PUSH2 0x3DA PUSH1 0x1 DUP5 ADD PUSH1 0x44 CALLDATALOAD PUSH1 0x4 ADD CALLDATALOAD PUSH1 0x24 PUSH1 0x44 CALLDATALOAD ADD PUSH2 0x862 JUMP JUMPDEST PUSH1 0x1 PUSH1 0x1 PUSH1 0xA0 SHL SUB DUP3 DUP2 AND PUSH1 0x0 SWAP1 DUP2 MSTORE PUSH1 0x20 DUP2 DUP2 MSTORE PUSH1 0x40 DUP1 DUP4 KECCAK256 SWAP4 DUP6 AND DUP4 MSTORE SWAP3 SWAP1 MSTORE DUP2 SWAP1 KECCAK256 SWAP1 MLOAD SWAP1 PUSH1 0x1 SWAP1 PUSH2 0x439 DUP4 PUSH2 0x7E2 JUMP JUMPDEST DUP1 SLOAD DUP4 MSTORE ADD SLOAD DUP1 PUSH1 0x20 DUP4 ADD MSTORE ISZERO PUSH2 0x6A7 JUMPI PUSH2 0x454 DUP5 DUP7 PUSH2 0x84E JUMP JUMPDEST MLOAD SWAP2 DUP2 MLOAD SWAP2 DUP4 DUP4 DUP2 MUL DIV DUP4 EQ DUP5 ISZERO OR ISZERO PUSH2 0x50E JUMPI PUSH1 0x20 ADD MLOAD SWAP2 DUP3 ISZERO PUSH2 0x691 JUMPI DUP3 DUP2 DUP6 MUL DIV PUSH2 0x485 PUSH1 0x1 DUP9 ADD DUP10 PUSH2 0x84E JUMP JUMPDEST MSTORE DUP6 ISZERO PUSH2 0x62A JUMPI JUMPDEST PUSH1 0x4 PUSH1 0x44 CALLDATALOAD ADD CALLDATALOAD PUSH1 0x1 NOT DUP2 ADD GT PUSH2 0x50E JUMPI PUSH1 0x4 PUSH1 0x44 CALLDATALOAD ADD CALLDATALOAD PUSH1 0x1 NOT ADD DUP7 EQ PUSH2 0x524 JUMPI JUMPDEST SWAP1 PUSH32 0xFA2DDA1CC1B86E41239702756B13EFFBC1A092B5C57E3AD320FBE4F3B13FE235 SWAP3 PUSH1 0x40 SWAP3 PUSH2 0x4E0 DUP9 DUP11 PUSH2 0x84E JUMP JUMPDEST MLOAD DUP5 MLOAD SWAP1 DUP2 MSTORE SWAP6 MUL DIV PUSH1 0x20 DUP6 ADD MSTORE PUSH1 0x1 PUSH1 0x1 PUSH1 0xA0 SHL SUB SWAP1 DUP2 AND SWAP5 AND SWAP3 LOG3 PUSH1 0x0 NOT DUP2 EQ PUSH2 0x50E JUMPI PUSH1 0x1 ADD PUSH2 0x39E JUMP JUMPDEST PUSH4 0x4E487B71 PUSH1 0xE0 SHL PUSH1 0x0 MSTORE PUSH1 0x11 PUSH1 0x4 MSTORE PUSH1 0x24 PUSH1 0x0 REVERT JUMPDEST SWAP1 PUSH1 0x24 CALLDATALOAD DUP4 DUP4 DUP7 MUL DIV LT PUSH2 0x5E5 JUMPI PUSH1 0x40 MLOAD PUSH4 0xA9059CBB PUSH1 0xE0 SHL DUP2 MSTORE PUSH1 0x1 PUSH1 0x1 PUSH1 0xA0 SHL SUB DUP10 DUP2 AND PUSH1 0x4 DUP4 ADD MSTORE DUP6 DUP5 MUL DUP6 SWAP1 DIV PUSH1 0x24 DUP4 ADD MSTORE SWAP1 SWAP4 SWAP1 PUSH1 0x20 SWAP1 DUP6 SWAP1 PUSH1 0x44 SWAP1 DUP3 SWAP1 PUSH1 0x0 SWAP1 DUP8 AND GAS CALL SWAP3 DUP4 ISZERO PUSH2 0x5D9 JUMPI PUSH32 0xFA2DDA1CC1B86E41239702756B13EFFBC1A092B5C57E3AD320FBE4F3B13FE235 SWAP5 PUSH1 0x40 SWAP5 PUSH2 0x5AA JUMPI JUMPDEST POP SWAP2 SWAP3 POP SWAP3 POP PUSH2 0x4B0 JUMP JUMPDEST PUSH2 0x5CB SWAP1 PUSH1 0x20 RETURNDATASIZE PUSH1 0x20 GT PUSH2 0x5D2 JUMPI JUMPDEST PUSH2 0x5C3 DUP2 DUP4 PUSH2 0x814 JUMP JUMPDEST DUP2 ADD SWAP1 PUSH2 0x886 JUMP JUMPDEST POP DUP11 PUSH2 0x59F JUMP JUMPDEST POP RETURNDATASIZE PUSH2 0x5B9 JUMP JUMPDEST PUSH1 0x40 MLOAD RETURNDATASIZE PUSH1 0x0 DUP3 RETURNDATACOPY RETURNDATASIZE SWAP1 REVERT JUMPDEST PUSH1 0x40 MLOAD PUSH3 0x461BCD PUSH1 0xE5 SHL DUP2 MSTORE PUSH1 0x20 PUSH1 0x4 DUP3 ADD MSTORE PUSH1 0x1A PUSH1 0x24 DUP3 ADD MSTORE PUSH32 0x496E73756666696369656E74206F757470757420616D6F756E74000000000000 PUSH1 0x44 DUP3 ADD MSTORE PUSH1 0x64 SWAP1 REVERT JUMPDEST PUSH1 0x40 MLOAD PUSH4 0x23B872DD PUSH1 0xE0 SHL DUP2 MSTORE CALLER PUSH1 0x4 DUP1 DUP4 ADD SWAP2 SWAP1 SWAP2 MSTORE ADDRESS PUSH1 0x24 DUP4 ADD MSTORE CALLDATALOAD PUSH1 0x44 DUP3 ADD MSTORE PUSH1 0x20 DUP2 PUSH1 0x64 DUP2 PUSH1 0x0 PUSH1 0x1 PUSH1 0x1 PUSH1 0xA0 SHL SUB DUP12 AND GAS CALL DUP1 ISZERO PUSH2 0x5D9 JUMPI PUSH2 0x672 JUMPI JUMPDEST POP PUSH2 0x48D JUMP JUMPDEST PUSH2 0x68A SWAP1 PUSH1 0x20 RETURNDATASIZE PUSH1 0x20 GT PUSH2 0x5D2 JUMPI PUSH2 0x5C3 DUP2 DUP4 PUSH2 0x814 JUMP JUMPDEST POP DUP9 PUSH2 0x66C JUMP JUMPDEST PUSH4 0x4E487B71 PUSH1 0xE0 SHL PUSH1 0x0 MSTORE PUSH1 0x12 PUSH1 0x4 MSTORE PUSH1 0x24 PUSH1 0x0 REVERT JUMPDEST PUSH1 0x40 MLOAD PUSH3 0x461BCD PUSH1 0xE5 SHL DUP2 MSTORE PUSH1 0x20 PUSH1 0x4 DUP3 ADD MSTORE PUSH1 0x15 PUSH1 0x24 DUP3 ADD MSTORE PUSH21 0x115E18DA185B99D9481C985D19481B9BDD081CD95D PUSH1 0x5A SHL PUSH1 0x44 DUP3 ADD MSTORE PUSH1 0x64 SWAP1 REVERT JUMPDEST POP PUSH1 0x40 MLOAD DUP1 SWAP2 PUSH1 0x20 DUP3 ADD PUSH1 0x20 DUP4 MSTORE DUP2 MLOAD DUP1 SWAP2 MSTORE PUSH1 0x20 PUSH1 0x40 DUP5 ADD SWAP3 ADD SWAP1 PUSH1 0x0 JUMPDEST DUP2 DUP2 LT PUSH2 0x711 JUMPI POP POP POP SUB SWAP1 RETURN JUMPDEST DUP3 MLOAD DUP5 MSTORE DUP6 SWAP5 POP PUSH1 0x20 SWAP4 DUP5 ADD SWAP4 SWAP1 SWAP3 ADD SWAP2 PUSH1 0x1 ADD PUSH2 0x703 JUMP JUMPDEST PUSH4 0x4E487B71 PUSH1 0xE0 SHL PUSH1 0x0 MSTORE PUSH1 0x32 PUSH1 0x4 MSTORE PUSH1 0x24 PUSH1 0x0 REVERT JUMPDEST PUSH1 0x40 MLOAD PUSH3 0x461BCD PUSH1 0xE5 SHL DUP2 MSTORE PUSH1 0x20 PUSH1 0x4 DUP3 ADD MSTORE PUSH1 0x1D PUSH1 0x24 DUP3 ADD MSTORE PUSH32 0x416D6F756E74206D7573742062652067726561746572207468616E2030000000 PUSH1 0x44 DUP3 ADD MSTORE PUSH1 0x64 SWAP1 REVERT JUMPDEST PUSH3 0x461BCD PUSH1 0xE5 SHL DUP2 MSTORE PUSH1 0x20 PUSH1 0x4 DUP3 ADD MSTORE PUSH1 0xC PUSH1 0x24 DUP3 ADD MSTORE PUSH12 0x92DCECC2D8D2C840E0C2E8D PUSH1 0xA3 SHL PUSH1 0x44 DUP3 ADD MSTORE PUSH1 0x64 SWAP1 REVERT JUMPDEST PUSH1 0x4 CALLDATALOAD SWAP1 PUSH1 0x1 PUSH1 0x1 PUSH1 0xA0 SHL SUB DUP3 AND DUP3 SUB PUSH2 0x1DD JUMPI JUMP JUMPDEST PUSH1 0x24 CALLDATALOAD SWAP1 PUSH1 0x1 PUSH1 0x1 PUSH1 0xA0 SHL SUB DUP3 AND DUP3 SUB PUSH2 0x1DD JUMPI JUMP JUMPDEST PUSH1 0x40 DUP2 ADD SWAP1 DUP2 LT PUSH8 0xFFFFFFFFFFFFFFFF DUP3 GT OR PUSH2 0x7FE JUMPI PUSH1 0x40 MSTORE JUMP JUMPDEST PUSH4 0x4E487B71 PUSH1 0xE0 SHL PUSH1 0x0 MSTORE PUSH1 0x41 PUSH1 0x4 MSTORE PUSH1 0x24 PUSH1 0x0 REVERT JUMPDEST SWAP1 PUSH1 0x1F DUP1 NOT SWAP2 ADD AND DUP2 ADD SWAP1 DUP2 LT PUSH8 0xFFFFFFFFFFFFFFFF DUP3 GT OR PUSH2 0x7FE JUMPI PUSH1 0x40 MSTORE JUMP JUMPDEST PUSH8 0xFFFFFFFFFFFFFFFF DUP2 GT PUSH2 0x7FE JUMPI PUSH1 0x5 SHL PUSH1 0x20 ADD SWAP1 JUMP JUMPDEST DUP1 MLOAD DUP3 LT ISZERO PUSH2 0x72A JUMPI PUSH1 0x20 SWAP2 PUSH1 0x5 SHL ADD ADD SWAP1 JUMP JUMPDEST SWAP2 SWAP1 DUP2 LT ISZERO PUSH2 0x72A JUMPI PUSH1 0x5 SHL ADD SWAP1 JUMP JUMPDEST CALLDATALOAD PUSH1 0x1 PUSH1 0x1 PUSH1 0xA0 SHL SUB DUP2 AND DUP2 SUB PUSH2 0x1DD JUMPI SWAP1 JUMP JUMPDEST SWAP1 DUP2 PUSH1 0x20 SWAP2 SUB SLT PUSH2 0x1DD JUMPI MLOAD DUP1 ISZERO ISZERO DUP2 SUB PUSH2 0x1DD JUMPI SWAP1 JUMP INVALID LOG2 PUSH5 0x6970667358 0x22 SLT KECCAK256 STOP DUP3 SDIV SWAP14 PUSH29 0x3AE28F2AF162EB6DEEBD6E9588D0BD68CFD9C62BEF443F157A68BC6473 PUSH16 0x6C63430008140033608034620003A857 PUSH1 0x40 SWAP1 PUSH1 0x1 PUSH1 0x1 PUSH1 0x40 SHL SUB SWAP1 DUP1 DUP4 ADD DUP3 DUP2 GT DUP3 DUP3 LT OR PUSH3 0x392 JUMPI DUP4 MSTORE PUSH1 0x9 DUP2 MSTORE PUSH1 0x20 SWAP2 PUSH9 0x4D6F636B2055534443 PUSH1 0xB8 SHL DUP4 DUP4 ADD MSTORE DUP4 MLOAD SWAP3 DUP5 DUP5 ADD DUP5 DUP2 LT DUP4 DUP3 GT OR PUSH3 0x392 JUMPI DUP6 MSTORE PUSH1 0x4 SWAP4 DUP5 DUP2 MSTORE PUSH4 0x55534443 PUSH1 0xE0 SHL DUP3 DUP3 ADD MSTORE DUP4 MLOAD SWAP1 DUP4 DUP3 GT PUSH3 0x37D JUMPI PUSH1 0x3 SWAP3 DUP4 SLOAD SWAP3 PUSH1 0x1 SWAP7 DUP8 DUP6 DUP2 SHR SWAP6 AND DUP1 ISZERO PUSH3 0x372 JUMPI JUMPDEST DUP4 DUP7 LT EQ PUSH3 0x35D JUMPI DUP2 SWAP1 PUSH1 0x1F SWAP6 DUP7 DUP2 GT PUSH3 0x307 JUMPI JUMPDEST POP DUP4 SWAP1 DUP7 DUP4 GT PUSH1 0x1 EQ PUSH3 0x2A0 JUMPI PUSH1 0x0 SWAP3 PUSH3 0x294 JUMPI JUMPDEST POP POP PUSH1 0x0 NOT DUP3 DUP8 SHL SHR NOT AND SWAP1 DUP8 SHL OR DUP5 SSTORE JUMPDEST DUP2 MLOAD SWAP5 DUP6 GT PUSH3 0x27F JUMPI DUP7 SLOAD DUP7 DUP2 DUP2 SHR SWAP2 AND DUP1 ISZERO PUSH3 0x274 JUMPI JUMPDEST DUP3 DUP3 LT EQ PUSH3 0x25F JUMPI DUP4 DUP2 GT PUSH3 0x214 JUMPI JUMPDEST POP DUP1 SWAP3 DUP6 GT PUSH1 0x1 EQ PUSH3 0x1A6 JUMPI POP SWAP4 DUP4 SWAP5 SWAP2 DUP5 SWAP3 PUSH1 0x0 SWAP6 PUSH3 0x19A JUMPI JUMPDEST POP POP SHL SWAP3 PUSH1 0x0 NOT SWAP2 SHL SHR NOT AND OR DUP2 SSTORE JUMPDEST CALLER ISZERO PUSH3 0x184 JUMPI POP PUSH1 0x5 SLOAD SWAP1 MLOAD SWAP1 CALLER PUSH1 0x1 PUSH1 0x1 PUSH1 0xA0 SHL SUB DUP3 AND PUSH32 0x8BE0079C531659141344CD1FD0A4F28419497F9722A3DAAFE3B4186F6B6457E0 PUSH1 0x0 DUP1 LOG3 PUSH1 0x1 PUSH1 0x1 PUSH1 0xA8 SHL SUB NOT AND CALLER PUSH1 0xFF PUSH1 0xA0 SHL NOT AND OR PUSH1 0x3 PUSH1 0xA1 SHL OR PUSH1 0x5 SSTORE PUSH2 0x982 SWAP1 DUP2 PUSH3 0x3AE DUP3 CODECOPY RETURN JUMPDEST PUSH1 0x0 PUSH1 0x24 SWAP3 MLOAD SWAP2 PUSH4 0x1E4FBDF7 PUSH1 0xE0 SHL DUP4 MSTORE DUP3 ADD MSTORE REVERT JUMPDEST ADD MLOAD SWAP4 POP CODESIZE DUP1 PUSH3 0x10D JUMP JUMPDEST SWAP3 SWAP2 SWAP1 DUP5 PUSH1 0x1F NOT DUP2 AND DUP9 PUSH1 0x0 MSTORE DUP6 PUSH1 0x0 KECCAK256 SWAP6 PUSH1 0x0 SWAP1 JUMPDEST DUP10 DUP4 DUP4 LT PUSH3 0x1F9 JUMPI POP POP POP LT PUSH3 0x1DE JUMPI JUMPDEST POP POP POP POP DUP2 SHL ADD DUP2 SSTORE PUSH3 0x11D JUMP JUMPDEST ADD MLOAD SWAP1 PUSH1 0xF8 DUP5 PUSH1 0x0 NOT SWAP3 SHL AND SHR NOT AND SWAP1 SSTORE CODESIZE DUP1 DUP1 DUP1 PUSH3 0x1CF JUMP JUMPDEST DUP6 DUP8 ADD MLOAD DUP10 SSTORE SWAP1 SWAP8 ADD SWAP7 SWAP5 DUP6 ADD SWAP5 DUP9 SWAP4 POP SWAP1 DUP2 ADD SWAP1 PUSH3 0x1BC JUMP JUMPDEST DUP8 PUSH1 0x0 MSTORE DUP2 PUSH1 0x0 KECCAK256 DUP5 DUP1 DUP9 ADD PUSH1 0x5 SHR DUP3 ADD SWAP3 DUP5 DUP10 LT PUSH3 0x255 JUMPI JUMPDEST ADD PUSH1 0x5 SHR ADD SWAP1 DUP8 SWAP1 JUMPDEST DUP3 DUP2 LT PUSH3 0x248 JUMPI POP POP PUSH3 0xF0 JUMP JUMPDEST PUSH1 0x0 DUP2 SSTORE ADD DUP8 SWAP1 PUSH3 0x238 JUMP JUMPDEST SWAP3 POP DUP2 SWAP3 PUSH3 0x22F JUMP JUMPDEST PUSH1 0x22 DUP9 PUSH4 0x4E487B71 PUSH1 0xE0 SHL PUSH1 0x0 MSTORE MSTORE PUSH1 0x24 PUSH1 0x0 REVERT JUMPDEST SWAP1 PUSH1 0x7F AND SWAP1 PUSH3 0xDE JUMP JUMPDEST PUSH1 0x41 DUP8 PUSH4 0x4E487B71 PUSH1 0xE0 SHL PUSH1 0x0 MSTORE MSTORE PUSH1 0x24 PUSH1 0x0 REVERT JUMPDEST ADD MLOAD SWAP1 POP CODESIZE DUP1 PUSH3 0xB2 JUMP JUMPDEST SWAP1 DUP10 SWAP4 POP PUSH1 0x1F NOT DUP4 AND SWAP2 DUP9 PUSH1 0x0 MSTORE DUP6 PUSH1 0x0 KECCAK256 SWAP3 PUSH1 0x0 JUMPDEST DUP8 DUP3 DUP3 LT PUSH3 0x2F0 JUMPI POP POP DUP5 GT PUSH3 0x2D7 JUMPI JUMPDEST POP POP POP DUP2 SHL ADD DUP5 SSTORE PUSH3 0xC4 JUMP JUMPDEST ADD MLOAD PUSH1 0x0 NOT DUP4 DUP10 SHL PUSH1 0xF8 AND SHR NOT AND SWAP1 SSTORE CODESIZE DUP1 DUP1 PUSH3 0x2C9 JUMP JUMPDEST DUP4 DUP6 ADD MLOAD DUP7 SSTORE DUP14 SWAP8 SWAP1 SWAP6 ADD SWAP5 SWAP4 DUP5 ADD SWAP4 ADD PUSH3 0x2B6 JUMP JUMPDEST SWAP1 SWAP2 POP DUP7 PUSH1 0x0 MSTORE DUP4 PUSH1 0x0 KECCAK256 DUP7 DUP1 DUP6 ADD PUSH1 0x5 SHR DUP3 ADD SWAP3 DUP7 DUP7 LT PUSH3 0x353 JUMPI JUMPDEST SWAP2 DUP12 SWAP2 DUP7 SWAP6 SWAP5 SWAP4 ADD PUSH1 0x5 SHR ADD SWAP2 JUMPDEST DUP3 DUP2 LT PUSH3 0x343 JUMPI POP POP PUSH3 0x9B JUMP JUMPDEST PUSH1 0x0 DUP2 SSTORE DUP6 SWAP5 POP DUP12 SWAP2 ADD PUSH3 0x333 JUMP JUMPDEST SWAP3 POP DUP2 SWAP3 PUSH3 0x325 JUMP JUMPDEST PUSH1 0x22 DUP10 PUSH4 0x4E487B71 PUSH1 0xE0 SHL PUSH1 0x0 MSTORE MSTORE PUSH1 0x24 PUSH1 0x0 REVERT JUMPDEST SWAP5 PUSH1 0x7F AND SWAP5 PUSH3 0x84 JUMP JUMPDEST PUSH1 0x41 DUP7 PUSH4 0x4E487B71 PUSH1 0xE0 SHL PUSH1 0x0 MSTORE MSTORE PUSH1 0x24 PUSH1 0x0 REVERT JUMPDEST PUSH4 0x4E487B71 PUSH1 0xE0 SHL PUSH1 0x0 MSTORE PUSH1 0x41 PUSH1 0x4 MSTORE PUSH1 0x24 PUSH1 0x0 REVERT JUMPDEST PUSH1 0x0 DUP1 REVERT INVALID PUSH1 0x80 PUSH1 0x40 DUP2 DUP2 MSTORE PUSH1 0x4 DUP1 CALLDATASIZE LT ISZERO PUSH2 0x15 JUMPI PUSH1 0x0 DUP1 REVERT JUMPDEST PUSH1 0x0 SWAP3 DUP4 CALLDATALOAD PUSH1 0xE0 SHR SWAP1 DUP2 PUSH4 0x6FDDE03 EQ PUSH2 0x65C JUMPI POP DUP1 PUSH4 0x95EA7B3 EQ PUSH2 0x5B3 JUMPI DUP1 PUSH4 0x18160DDD EQ PUSH2 0x594 JUMPI DUP1 PUSH4 0x23B872DD EQ PUSH2 0x4A1 JUMPI DUP1 PUSH4 0x313CE567 EQ PUSH2 0x47C JUMPI DUP1 PUSH4 0x40C10F19 EQ PUSH2 0x44F JUMPI DUP1 PUSH4 0x57915897 EQ PUSH2 0x3AD JUMPI DUP1 PUSH4 0x70A08231 EQ PUSH2 0x376 JUMPI DUP1 PUSH4 0x715018A6 EQ PUSH2 0x316 JUMPI DUP1 PUSH4 0x8DA5CB5B EQ PUSH2 0x2ED JUMPI DUP1 PUSH4 0x95D89B41 EQ PUSH2 0x1CD JUMPI DUP1 PUSH4 0xA9059CBB EQ PUSH2 0x19C JUMPI DUP1 PUSH4 0xDD62ED3E EQ PUSH2 0x14F JUMPI PUSH4 0xF2FDE38B EQ PUSH2 0xBD JUMPI PUSH1 0x0 DUP1 REVERT JUMPDEST CALLVALUE PUSH2 0x14B JUMPI PUSH1 0x20 CALLDATASIZE PUSH1 0x3 NOT ADD SLT PUSH2 0x14B JUMPI PUSH2 0xD6 PUSH2 0x79A JUMP JUMPDEST SWAP1 PUSH2 0xDF PUSH2 0x7CB JUMP JUMPDEST PUSH1 0x1 PUSH1 0x1 PUSH1 0xA0 SHL SUB SWAP2 DUP3 AND SWAP3 DUP4 ISZERO PUSH2 0x135 JUMPI POP POP PUSH1 0x5 SLOAD DUP3 PUSH12 0xFFFFFFFFFFFFFFFFFFFFFFFF PUSH1 0xA0 SHL DUP3 AND OR PUSH1 0x5 SSTORE AND PUSH32 0x8BE0079C531659141344CD1FD0A4F28419497F9722A3DAAFE3B4186F6B6457E0 DUP4 DUP1 LOG3 DUP1 RETURN JUMPDEST MLOAD PUSH4 0x1E4FBDF7 PUSH1 0xE0 SHL DUP2 MSTORE SWAP1 DUP2 ADD DUP5 SWAP1 MSTORE PUSH1 0x24 SWAP1 REVERT JUMPDEST DUP3 DUP1 REVERT JUMPDEST POP POP CALLVALUE PUSH2 0x198 JUMPI DUP1 PUSH1 0x3 NOT CALLDATASIZE ADD SLT PUSH2 0x198 JUMPI DUP1 PUSH1 0x20 SWAP3 PUSH2 0x16D PUSH2 0x79A JUMP JUMPDEST PUSH2 0x175 PUSH2 0x7B5 JUMP JUMPDEST PUSH1 0x1 PUSH1 0x1 PUSH1 0xA0 SHL SUB SWAP2 DUP3 AND DUP4 MSTORE PUSH1 0x1 DUP7 MSTORE DUP4 DUP4 KECCAK256 SWAP2 AND DUP3 MSTORE DUP5 MSTORE KECCAK256 SLOAD SWAP1 MLOAD SWAP1 DUP2 MSTORE RETURN JUMPDEST POP DUP1 REVERT JUMPDEST POP POP CALLVALUE PUSH2 0x198 JUMPI DUP1 PUSH1 0x3 NOT CALLDATASIZE ADD SLT PUSH2 0x198 JUMPI PUSH1 0x20 SWAP1 PUSH2 0x1C6 PUSH2 0x1BC PUSH2 0x79A JUMP JUMPDEST PUSH1 0x24 CALLDATALOAD SWAP1 CALLER PUSH2 0x7F7 JUMP JUMPDEST MLOAD PUSH1 0x1 DUP2 MSTORE RETURN JUMPDEST POP SWAP2 SWAP1 CALLVALUE PUSH2 0x198 JUMPI DUP2 PUSH1 0x3 NOT CALLDATASIZE ADD SLT PUSH2 0x198 JUMPI DUP1 MLOAD SWAP1 DUP3 DUP5 SLOAD PUSH1 0x1 DUP2 DUP2 SHR SWAP1 DUP1 DUP4 AND SWAP3 DUP4 ISZERO PUSH2 0x2E3 JUMPI JUMPDEST PUSH1 0x20 SWAP4 DUP5 DUP5 LT DUP2 EQ PUSH2 0x2D0 JUMPI DUP4 DUP9 MSTORE SWAP1 DUP2 ISZERO PUSH2 0x2B4 JUMPI POP PUSH1 0x1 EQ PUSH2 0x25F JUMPI JUMPDEST POP POP POP DUP3 SWAP1 SUB PUSH1 0x1F ADD PUSH1 0x1F NOT AND DUP3 ADD SWAP3 PUSH8 0xFFFFFFFFFFFFFFFF DUP5 GT DUP4 DUP6 LT OR PUSH2 0x24C JUMPI POP DUP3 SWAP2 DUP3 PUSH2 0x248 SWAP3 MSTORE DUP3 PUSH2 0x751 JUMP JUMPDEST SUB SWAP1 RETURN JUMPDEST PUSH4 0x4E487B71 PUSH1 0xE0 SHL DUP2 MSTORE PUSH1 0x41 DUP6 MSTORE PUSH1 0x24 SWAP1 REVERT JUMPDEST DUP8 DUP8 MSTORE SWAP2 SWAP3 POP DUP6 SWAP2 DUP4 PUSH32 0x8A35ACFBC15FF81A39AE7D344FD709F28E8600B4AA8C65C6B64BFE7FE36BD19B JUMPDEST DUP4 DUP6 LT PUSH2 0x2A0 JUMPI POP POP POP POP DUP4 ADD ADD CODESIZE DUP1 DUP1 PUSH2 0x216 JUMP JUMPDEST DUP1 SLOAD DUP9 DUP7 ADD DUP4 ADD MSTORE SWAP4 ADD SWAP3 DUP5 SWAP1 DUP3 ADD PUSH2 0x28A JUMP JUMPDEST PUSH1 0xFF NOT AND DUP8 DUP6 ADD MSTORE POP POP ISZERO ISZERO PUSH1 0x5 SHL DUP5 ADD ADD SWAP1 POP CODESIZE DUP1 DUP1 PUSH2 0x216 JUMP JUMPDEST PUSH4 0x4E487B71 PUSH1 0xE0 SHL DUP10 MSTORE PUSH1 0x22 DUP11 MSTORE PUSH1 0x24 DUP10 REVERT JUMPDEST SWAP2 PUSH1 0x7F AND SWAP2 PUSH2 0x1F7 JUMP JUMPDEST POP POP CALLVALUE PUSH2 0x198 JUMPI DUP2 PUSH1 0x3 NOT CALLDATASIZE ADD SLT PUSH2 0x198 JUMPI PUSH1 0x5 SLOAD SWAP1 MLOAD PUSH1 0x1 PUSH1 0x1 PUSH1 0xA0 SHL SUB SWAP1 SWAP2 AND DUP2 MSTORE PUSH1 0x20 SWAP1 RETURN JUMPDEST DUP4 CALLVALUE PUSH2 0x373 JUMPI DUP1 PUSH1 0x3 NOT CALLDATASIZE ADD SLT PUSH2 0x373 JUMPI PUSH2 0x32F PUSH2 0x7CB JUMP JUMPDEST PUSH1 0x5 DUP1 SLOAD PUSH1 0x1 PUSH1 0x1 PUSH1 0xA0 SHL SUB NOT DUP2 AND SWAP1 SWAP2 SSTORE DUP2 SWAP1 PUSH1 0x1 PUSH1 0x1 PUSH1 0xA0 SHL SUB AND PUSH32 0x8BE0079C531659141344CD1FD0A4F28419497F9722A3DAAFE3B4186F6B6457E0 DUP3 DUP1 LOG3 DUP1 RETURN JUMPDEST DUP1 REVERT JUMPDEST POP POP CALLVALUE PUSH2 0x198 JUMPI PUSH1 0x20 CALLDATASIZE PUSH1 0x3 NOT ADD SLT PUSH2 0x198 JUMPI PUSH1 0x20 SWAP2 DUP2 SWAP1 PUSH1 0x1 PUSH1 0x1 PUSH1 0xA0 SHL SUB PUSH2 0x39E PUSH2 0x79A JUMP JUMPDEST AND DUP2 MSTORE DUP1 DUP5 MSTORE KECCAK256 SLOAD SWAP1 MLOAD SWAP1 DUP2 MSTORE RETURN JUMPDEST POP CALLVALUE PUSH2 0x14B JUMPI PUSH1 0x20 CALLDATASIZE PUSH1 0x3 NOT ADD SLT PUSH2 0x14B JUMPI DUP1 CALLDATALOAD SWAP2 PUSH1 0xFF PUSH1 0x5 SLOAD PUSH1 0xA0 SHR AND PUSH1 0x4D DUP2 GT PUSH2 0x43C JUMPI PUSH1 0xA EXP PUSH2 0x2710 SWAP1 DUP1 DUP3 MUL SWAP2 DUP3 DIV SUB PUSH2 0x43C JUMPI DUP4 GT PUSH2 0x3F9 JUMPI DUP4 PUSH2 0x3F6 DUP5 CALLER PUSH2 0x8D5 JUMP JUMPDEST DUP1 RETURN JUMPDEST SWAP1 PUSH1 0x20 PUSH1 0x64 SWAP3 MLOAD SWAP2 PUSH3 0x461BCD PUSH1 0xE5 SHL DUP4 MSTORE DUP3 ADD MSTORE PUSH1 0x1D PUSH1 0x24 DUP3 ADD MSTORE PUSH32 0x466175636574206C696D6974656420746F2031302C3030302055534443000000 PUSH1 0x44 DUP3 ADD MSTORE REVERT JUMPDEST PUSH4 0x4E487B71 PUSH1 0xE0 SHL DUP6 MSTORE PUSH1 0x11 DUP4 MSTORE PUSH1 0x24 DUP6 REVERT JUMPDEST POP POP CALLVALUE PUSH2 0x198 JUMPI CALLDATASIZE PUSH1 0x3 NOT ADD SLT PUSH2 0x373 JUMPI PUSH2 0x3F6 PUSH2 0x46B PUSH2 0x79A JUMP JUMPDEST PUSH2 0x473 PUSH2 0x7CB JUMP JUMPDEST PUSH1 0x24 CALLDATALOAD SWAP1 PUSH2 0x8D5 JUMP JUMPDEST POP POP CALLVALUE PUSH2 0x198 JUMPI DUP2 PUSH1 0x3 NOT CALLDATASIZE ADD SLT PUSH2 0x198 JUMPI PUSH1 0x20 SWAP1 PUSH1 0xFF PUSH1 0x5 SLOAD PUSH1 0xA0 SHR AND SWAP1 MLOAD SWAP1 DUP2 MSTORE RETURN JUMPDEST POP DUP3 CALLVALUE PUSH2 0x373 JUMPI PUSH1 0x60 CALLDATASIZE PUSH1 0x3 NOT ADD SLT PUSH2 0x373 JUMPI PUSH2 0x4BC PUSH2 0x79A JUMP JUMPDEST PUSH2 0x4C4 PUSH2 0x7B5 JUMP JUMPDEST SWAP2 PUSH1 0x44 CALLDATALOAD SWAP4 PUSH1 0x1 DUP1 PUSH1 0xA0 SHL SUB DUP4 AND DUP1 DUP4 MSTORE PUSH1 0x1 PUSH1 0x20 MSTORE DUP7 DUP4 KECCAK256 CALLER DUP5 MSTORE PUSH1 0x20 MSTORE DUP7 DUP4 KECCAK256 SLOAD SWAP2 PUSH1 0x0 NOT DUP4 SUB PUSH2 0x500 JUMPI JUMPDEST PUSH1 0x20 DUP9 PUSH2 0x1C6 DUP10 DUP10 DUP10 PUSH2 0x7F7 JUMP JUMPDEST DUP7 DUP4 LT PUSH2 0x568 JUMPI DUP2 ISZERO PUSH2 0x551 JUMPI CALLER ISZERO PUSH2 0x53A JUMPI POP DUP3 MSTORE PUSH1 0x1 PUSH1 0x20 SWAP1 DUP2 MSTORE DUP7 DUP4 KECCAK256 CALLER DUP5 MSTORE DUP2 MSTORE SWAP2 DUP7 SWAP1 KECCAK256 SWAP1 DUP6 SWAP1 SUB SWAP1 SSTORE DUP3 SWAP1 PUSH2 0x1C6 DUP8 PUSH2 0x4F2 JUMP JUMPDEST DUP8 MLOAD PUSH4 0x4A1406B1 PUSH1 0xE1 SHL DUP2 MSTORE SWAP1 DUP2 ADD DUP5 SWAP1 MSTORE PUSH1 0x24 SWAP1 REVERT JUMPDEST DUP8 MLOAD PUSH4 0xE602DF05 PUSH1 0xE0 SHL DUP2 MSTORE SWAP1 DUP2 ADD DUP5 SWAP1 MSTORE PUSH1 0x24 SWAP1 REVERT JUMPDEST DUP8 MLOAD PUSH4 0x7DC7A0D9 PUSH1 0xE1 SHL DUP2 MSTORE CALLER SWAP2 DUP2 ADD SWAP2 DUP3 MSTORE PUSH1 0x20 DUP3 ADD SWAP4 SWAP1 SWAP4 MSTORE PUSH1 0x40 DUP2 ADD DUP8 SWAP1 MSTORE DUP3 SWAP2 POP PUSH1 0x60 ADD SUB SWAP1 REVERT JUMPDEST POP POP CALLVALUE PUSH2 0x198 JUMPI DUP2 PUSH1 0x3 NOT CALLDATASIZE ADD SLT PUSH2 0x198 JUMPI PUSH1 0x20 SWAP1 PUSH1 0x2 SLOAD SWAP1 MLOAD SWAP1 DUP2 MSTORE RETURN JUMPDEST POP CALLVALUE PUSH2 0x14B JUMPI DUP2 PUSH1 0x3 NOT CALLDATASIZE ADD SLT PUSH2 0x14B JUMPI PUSH2 0x5CC PUSH2 0x79A JUMP JUMPDEST PUSH1 0x24 CALLDATALOAD SWAP1 CALLER ISZERO PUSH2 0x645 JUMPI PUSH1 0x1 PUSH1 0x1 PUSH1 0xA0 SHL SUB AND SWAP2 DUP3 ISZERO PUSH2 0x62E JUMPI POP DUP1 DUP4 PUSH1 0x20 SWAP6 CALLER DUP2 MSTORE PUSH1 0x1 DUP8 MSTORE DUP2 DUP2 KECCAK256 DUP6 DUP3 MSTORE DUP8 MSTORE KECCAK256 SSTORE DUP3 MLOAD SWAP1 DUP2 MSTORE PUSH32 0x8C5BE1E5EBEC7D5BD14F71427D1E84F3DD0314C0F7B2291E5B200AC8C7C3B925 DUP5 CALLER SWAP3 LOG3 MLOAD PUSH1 0x1 DUP2 MSTORE RETURN JUMPDEST DUP4 MLOAD PUSH4 0x4A1406B1 PUSH1 0xE1 SHL DUP2 MSTORE SWAP1 DUP2 ADD DUP6 SWAP1 MSTORE PUSH1 0x24 SWAP1 REVERT JUMPDEST DUP4 MLOAD PUSH4 0xE602DF05 PUSH1 0xE0 SHL DUP2 MSTORE DUP1 DUP5 ADD DUP7 SWAP1 MSTORE PUSH1 0x24 SWAP1 REVERT JUMPDEST DUP5 SWAP2 POP DUP4 CALLVALUE PUSH2 0x14B JUMPI DUP3 PUSH1 0x3 NOT CALLDATASIZE ADD SLT PUSH2 0x14B JUMPI DUP3 PUSH1 0x3 SLOAD PUSH1 0x1 DUP2 DUP2 SHR SWAP1 DUP1 DUP4 AND SWAP3 DUP4 ISZERO PUSH2 0x747 JUMPI JUMPDEST PUSH1 0x20 SWAP4 DUP5 DUP5 LT DUP2 EQ PUSH2 0x2D0 JUMPI DUP4 DUP9 MSTORE SWAP1 DUP2 ISZERO PUSH2 0x72B JUMPI POP PUSH1 0x1 EQ PUSH2 0x6D5 JUMPI POP POP POP DUP3 SWAP1 SUB PUSH1 0x1F ADD PUSH1 0x1F NOT AND DUP3 ADD SWAP3 PUSH8 0xFFFFFFFFFFFFFFFF DUP5 GT DUP4 DUP6 LT OR PUSH2 0x24C JUMPI POP DUP3 SWAP2 DUP3 PUSH2 0x248 SWAP3 MSTORE DUP3 PUSH2 0x751 JUMP JUMPDEST PUSH1 0x3 DUP8 MSTORE SWAP2 SWAP3 POP DUP6 SWAP2 DUP4 PUSH32 0xC2575A0E9E593C00F959F8C92F12DB2869C3395A3B0502D05E2516446F71F85B JUMPDEST DUP4 DUP6 LT PUSH2 0x717 JUMPI POP POP POP POP DUP4 ADD ADD DUP6 DUP1 DUP1 PUSH2 0x216 JUMP JUMPDEST DUP1 SLOAD DUP9 DUP7 ADD DUP4 ADD MSTORE SWAP4 ADD SWAP3 DUP5 SWAP1 DUP3 ADD PUSH2 0x701 JUMP JUMPDEST PUSH1 0xFF NOT AND DUP8 DUP6 ADD MSTORE POP POP ISZERO ISZERO PUSH1 0x5 SHL DUP5 ADD ADD SWAP1 POP DUP6 DUP1 DUP1 PUSH2 0x216 JUMP JUMPDEST SWAP2 PUSH1 0x7F AND SWAP2 PUSH2 0x685 JUMP JUMPDEST PUSH1 0x20 DUP1 DUP3 MSTORE DUP3 MLOAD DUP2 DUP4 ADD DUP2 SWAP1 MSTORE SWAP1 SWAP4 SWAP3 PUSH1 0x0 JUMPDEST DUP3 DUP2 LT PUSH2 0x786 JUMPI POP POP PUSH1 0x40 SWAP3 SWAP4 POP PUSH1 0x0 DUP4 DUP3 DUP5 ADD ADD MSTORE PUSH1 0x1F DUP1 NOT SWAP2 ADD AND ADD ADD SWAP1 JUMP JUMPDEST DUP2 DUP2 ADD DUP7 ADD MLOAD DUP5 DUP3 ADD PUSH1 0x40 ADD MSTORE DUP6 ADD PUSH2 0x764 JUMP JUMPDEST PUSH1 0x4 CALLDATALOAD SWAP1 PUSH1 0x1 PUSH1 0x1 PUSH1 0xA0 SHL SUB DUP3 AND DUP3 SUB PUSH2 0x7B0 JUMPI JUMP JUMPDEST PUSH1 0x0 DUP1 REVERT JUMPDEST PUSH1 0x24 CALLDATALOAD SWAP1 PUSH1 0x1 PUSH1 0x1 PUSH1 0xA0 SHL SUB DUP3 AND DUP3 SUB PUSH2 0x7B0 JUMPI JUMP JUMPDEST PUSH1 0x5 SLOAD PUSH1 0x1 PUSH1 0x1 PUSH1 0xA0 SHL SUB AND CALLER SUB PUSH2 0x7DF JUMPI JUMP JUMPDEST PUSH1 0x40 MLOAD PUSH4 0x118CDAA7 PUSH1 0xE0 SHL DUP2 MSTORE CALLER PUSH1 0x4 DUP3 ADD MSTORE PUSH1 0x24 SWAP1 REVERT JUMPDEST SWAP2 PUSH1 0x1 PUSH1 0x1 PUSH1 0xA0 SHL SUB DUP1 DUP5 AND SWAP3 DUP4 ISZERO PUSH2 0x8BC JUMPI AND SWAP3 DUP4 ISZERO PUSH2 0x8A3 JUMPI PUSH1 0x0 SWAP1 DUP4 DUP3 MSTORE DUP2 PUSH1 0x20 MSTORE PUSH1 0x40 DUP3 KECCAK256 SLOAD SWAP1 DUP4 DUP3 LT PUSH2 0x871 JUMPI POP SWAP2 PUSH1 0x40 DUP3 DUP3 PUSH32 0xDDF252AD1BE2C89B69C2B068FC378DAA952BA7F163C4A11628F55A4DF523B3EF SWAP6 DUP8 PUSH1 0x20 SWAP7 MSTORE DUP3 DUP7 MSTORE SUB DUP3 DUP3 KECCAK256 SSTORE DUP7 DUP2 MSTORE KECCAK256 DUP2 DUP2 SLOAD ADD SWAP1 SSTORE PUSH1 0x40 MLOAD SWAP1 DUP2 MSTORE LOG3 JUMP JUMPDEST PUSH1 0x40 MLOAD PUSH4 0x391434E3 PUSH1 0xE2 SHL DUP2 MSTORE PUSH1 0x1 PUSH1 0x1 PUSH1 0xA0 SHL SUB SWAP2 SWAP1 SWAP2 AND PUSH1 0x4 DUP3 ADD MSTORE PUSH1 0x24 DUP2 ADD SWAP2 SWAP1 SWAP2 MSTORE PUSH1 0x44 DUP2 ADD DUP4 SWAP1 MSTORE PUSH1 0x64 SWAP1 REVERT JUMPDEST PUSH1 0x40 MLOAD PUSH4 0xEC442F05 PUSH1 0xE0 SHL DUP2 MSTORE PUSH1 0x0 PUSH1 0x4 DUP3 ADD MSTORE PUSH1 0x24 SWAP1 REVERT JUMPDEST PUSH1 0x40 MLOAD PUSH4 0x4B637E8F PUSH1 0xE1 SHL DUP2 MSTORE PUSH1 0x0 PUSH1 0x4 DUP3 ADD MSTORE PUSH1 0x24 SWAP1 REVERT JUMPDEST PUSH1 0x1 PUSH1 0x1 PUSH1 0xA0 SHL SUB AND SWAP1 DUP2 ISZERO PUSH2 0x8A3 JUMPI PUSH1 0x2 SLOAD SWAP1 DUP1 DUP3 ADD DUP1 SWAP3 GT PUSH2 0x936 JUMPI PUSH1 0x20 PUSH32 0xDDF252AD1BE2C89B69C2B068FC378DAA952BA7F163C4A11628F55A4DF523B3EF SWAP2 PUSH1 0x0 SWAP4 PUSH1 0x2 SSTORE DUP5 DUP5 MSTORE DUP4 DUP3 MSTORE PUSH1 0x40 DUP5 KECCAK256 DUP2 DUP2 SLOAD ADD SWAP1 SSTORE PUSH1 0x40 MLOAD SWAP1 DUP2 MSTORE LOG3 JUMP JUMPDEST PUSH4 0x4E487B71 PUSH1 0xE0 SHL PUSH1 0x0 MSTORE PUSH1 0x11 PUSH1 0x4 MSTORE PUSH1 0x24 PUSH1 0x0 REVERT INVALID LOG2 PUSH5 0x6970667358 0x22 SLT KECCAK256 MSTORE8 0xAA 0x4F DUP6 SIGNEXTEND 0xB4 0x2C 0xE3 0xD9 SWAP1 DIV 0xD0 PUSH29 0xD9A4D643C0B8994BB3A8223A1F670184F2689864736F6C634300081400 CALLER PUSH1 0x80 CALLVALUE PUSH3 0x385 JUMPI PUSH1 0x40 SWAP1 PUSH1 0x1 PUSH1 0x1 PUSH1 0x40 SHL SUB SWAP1 DUP1 DUP4 ADD DUP3 DUP2 GT DUP3 DUP3 LT OR PUSH3 0x287 JUMPI DUP4 MSTORE PUSH1 0x11 DUP2 MSTORE PUSH1 0x20 SWAP1 PUSH17 0x4D6F636B20436F696E6261736520425443 PUSH1 0x78 SHL DUP3 DUP3 ADD MSTORE DUP4 MLOAD SWAP3 DUP5 DUP5 ADD DUP5 DUP2 LT DUP3 DUP3 GT OR PUSH3 0x287 JUMPI DUP6 MSTORE PUSH1 0x5 SWAP4 DUP5 DUP2 MSTORE PUSH5 0x6362425443 PUSH1 0xD8 SHL DUP5 DUP3 ADD MSTORE DUP3 MLOAD DUP3 DUP2 GT PUSH3 0x287 JUMPI PUSH1 0x3 SWAP2 DUP3 SLOAD SWAP2 PUSH1 0x1 SWAP6 DUP7 DUP5 DUP2 SHR SWAP5 AND DUP1 ISZERO PUSH3 0x37A JUMPI JUMPDEST DUP9 DUP6 LT EQ PUSH3 0x364 JUMPI DUP2 SWAP1 PUSH1 0x1F SWAP5 DUP6 DUP2 GT PUSH3 0x310 JUMPI JUMPDEST POP DUP9 SWAP1 DUP6 DUP4 GT PUSH1 0x1 EQ PUSH3 0x2A9 JUMPI PUSH1 0x0 SWAP3 PUSH3 0x29D JUMPI JUMPDEST POP POP PUSH1 0x0 NOT DUP3 DUP7 SHL SHR NOT AND SWAP1 DUP7 SHL OR DUP4 SSTORE JUMPDEST DUP1 MLOAD SWAP4 DUP5 GT PUSH3 0x287 JUMPI PUSH1 0x4 SWAP6 DUP7 SLOAD DUP7 DUP2 DUP2 SHR SWAP2 AND DUP1 ISZERO PUSH3 0x27C JUMPI JUMPDEST DUP3 DUP3 LT EQ PUSH3 0x267 JUMPI DUP4 DUP2 GT PUSH3 0x21E JUMPI JUMPDEST POP DUP1 SWAP3 DUP6 GT PUSH1 0x1 EQ PUSH3 0x1B0 JUMPI POP SWAP4 DUP4 SWAP5 SWAP2 DUP5 SWAP3 PUSH1 0x0 SWAP6 PUSH3 0x1A4 JUMPI JUMPDEST POP POP SHL SWAP3 PUSH1 0x0 NOT SWAP2 SHL SHR NOT AND OR DUP2 SSTORE JUMPDEST CALLER ISZERO PUSH3 0x18D JUMPI POP DUP1 SLOAD SWAP2 MLOAD SWAP2 CALLER PUSH1 0x1 PUSH1 0x1 PUSH1 0xA0 SHL SUB DUP3 AND PUSH32 0x8BE0079C531659141344CD1FD0A4F28419497F9722A3DAAFE3B4186F6B6457E0 PUSH1 0x0 DUP1 LOG3 PUSH1 0x1 PUSH1 0x1 PUSH1 0xA8 SHL SUB NOT AND CALLER PUSH1 0xFF PUSH1 0xA0 SHL NOT AND OR PUSH1 0x1 PUSH1 0xA3 SHL OR SWAP1 SSTORE PUSH2 0x973 SWAP1 DUP2 PUSH3 0x38B DUP3 CODECOPY RETURN JUMPDEST PUSH1 0x24 SWAP1 PUSH1 0x0 DUP5 MLOAD SWAP2 PUSH4 0x1E4FBDF7 PUSH1 0xE0 SHL DUP4 MSTORE DUP3 ADD MSTORE REVERT JUMPDEST ADD MLOAD SWAP4 POP CODESIZE DUP1 PUSH3 0x118 JUMP JUMPDEST SWAP3 SWAP2 SWAP1 DUP5 PUSH1 0x1F NOT DUP2 AND DUP9 PUSH1 0x0 MSTORE DUP6 PUSH1 0x0 KECCAK256 SWAP6 PUSH1 0x0 SWAP1 JUMPDEST DUP10 DUP4 DUP4 LT PUSH3 0x203 JUMPI POP POP POP LT PUSH3 0x1E8 JUMPI JUMPDEST POP POP POP POP DUP2 SHL ADD DUP2 SSTORE PUSH3 0x128 JUMP JUMPDEST ADD MLOAD SWAP1 PUSH1 0xF8 DUP5 PUSH1 0x0 NOT SWAP3 SHL AND SHR NOT AND SWAP1 SSTORE CODESIZE DUP1 DUP1 DUP1 PUSH3 0x1D9 JUMP JUMPDEST DUP6 DUP8 ADD MLOAD DUP10 SSTORE SWAP1 SWAP8 ADD SWAP7 SWAP5 DUP6 ADD SWAP5 DUP9 SWAP4 POP SWAP1 DUP2 ADD SWAP1 PUSH3 0x1C6 JUMP JUMPDEST DUP8 PUSH1 0x0 MSTORE DUP2 PUSH1 0x0 KECCAK256 DUP5 DUP1 DUP9 ADD DUP12 SHR DUP3 ADD SWAP3 DUP5 DUP10 LT PUSH3 0x25D JUMPI JUMPDEST ADD DUP11 SHR ADD SWAP1 DUP8 SWAP1 JUMPDEST DUP3 DUP2 LT PUSH3 0x250 JUMPI POP POP PUSH3 0xFB JUMP JUMPDEST PUSH1 0x0 DUP2 SSTORE ADD DUP8 SWAP1 PUSH3 0x240 JUMP JUMPDEST SWAP3 POP DUP2 SWAP3 PUSH3 0x238 JUMP JUMPDEST PUSH1 0x22 DUP9 PUSH4 0x4E487B71 PUSH1 0xE0 SHL PUSH1 0x0 MSTORE MSTORE PUSH1 0x24 PUSH1 0x0 REVERT JUMPDEST SWAP1 PUSH1 0x7F AND SWAP1 PUSH3 0xE9 JUMP JUMPDEST PUSH4 0x4E487B71 PUSH1 0xE0 SHL PUSH1 0x0 MSTORE PUSH1 0x41 PUSH1 0x4 MSTORE PUSH1 0x24 PUSH1 0x0 REVERT JUMPDEST ADD MLOAD SWAP1 POP CODESIZE DUP1 PUSH3 0xBA JUMP JUMPDEST SWAP1 DUP9 SWAP4 POP PUSH1 0x1F NOT DUP4 AND SWAP2 DUP8 PUSH1 0x0 MSTORE DUP11 PUSH1 0x0 KECCAK256 SWAP3 PUSH1 0x0 JUMPDEST DUP13 DUP3 DUP3 LT PUSH3 0x2F9 JUMPI POP POP DUP5 GT PUSH3 0x2E0 JUMPI JUMPDEST POP POP POP DUP2 SHL ADD DUP4 SSTORE PUSH3 0xCC JUMP JUMPDEST ADD MLOAD PUSH1 0x0 NOT DUP4 DUP9 SHL PUSH1 0xF8 AND SHR NOT AND SWAP1 SSTORE CODESIZE DUP1 DUP1 PUSH3 0x2D2 JUMP JUMPDEST DUP4 DUP6 ADD MLOAD DUP7 SSTORE DUP13 SWAP8 SWAP1 SWAP6 ADD SWAP5 SWAP4 DUP5 ADD SWAP4 ADD PUSH3 0x2BF JUMP JUMPDEST SWAP1 SWAP2 POP DUP6 PUSH1 0x0 MSTORE DUP9 PUSH1 0x0 KECCAK256 DUP6 DUP1 DUP6 ADD DUP13 SHR DUP3 ADD SWAP3 DUP12 DUP7 LT PUSH3 0x35A JUMPI JUMPDEST SWAP2 DUP11 SWAP2 DUP7 SWAP6 SWAP5 SWAP4 ADD DUP14 SHR ADD SWAP2 JUMPDEST DUP3 DUP2 LT PUSH3 0x34A JUMPI POP POP PUSH3 0xA3 JUMP JUMPDEST PUSH1 0x0 DUP2 SSTORE DUP6 SWAP5 POP DUP11 SWAP2 ADD PUSH3 0x33A JUMP JUMPDEST SWAP3 POP DUP2 SWAP3 PUSH3 0x32D JUMP JUMPDEST PUSH4 0x4E487B71 PUSH1 0xE0 SHL PUSH1 0x0 MSTORE PUSH1 0x22 PUSH1 0x4 MSTORE PUSH1 0x24 PUSH1 0x0 REVERT JUMPDEST SWAP4 PUSH1 0x7F AND SWAP4 PUSH3 0x8C JUMP JUMPDEST PUSH1 0x0 DUP1 REVERT INVALID PUSH1 0x80 PUSH1 0x40 DUP2 DUP2 MSTORE PUSH1 0x4 DUP1 CALLDATASIZE LT ISZERO PUSH2 0x15 JUMPI PUSH1 0x0 DUP1 REVERT JUMPDEST PUSH1 0x0 SWAP3 DUP4 CALLDATALOAD PUSH1 0xE0 SHR SWAP1 DUP2 PUSH4 0x6FDDE03 EQ PUSH2 0x64D JUMPI POP DUP1 PUSH4 0x95EA7B3 EQ PUSH2 0x5A4 JUMPI DUP1 PUSH4 0x18160DDD EQ PUSH2 0x585 JUMPI DUP1 PUSH4 0x23B872DD EQ PUSH2 0x492 JUMPI DUP1 PUSH4 0x313CE567 EQ PUSH2 0x46D JUMPI DUP1 PUSH4 0x40C10F19 EQ PUSH2 0x440 JUMPI DUP1 PUSH4 0x57915897 EQ PUSH2 0x3AD JUMPI DUP1 PUSH4 0x70A08231 EQ PUSH2 0x376 JUMPI DUP1 PUSH4 0x715018A6 EQ PUSH2 0x316 JUMPI DUP1 PUSH4 0x8DA5CB5B EQ PUSH2 0x2ED JUMPI DUP1 PUSH4 0x95D89B41 EQ PUSH2 0x1CD JUMPI DUP1 PUSH4 0xA9059CBB EQ PUSH2 0x19C JUMPI DUP1 PUSH4 0xDD62ED3E EQ PUSH2 0x14F JUMPI PUSH4 0xF2FDE38B EQ PUSH2 0xBD JUMPI PUSH1 0x0 DUP1 REVERT JUMPDEST CALLVALUE PUSH2 0x14B JUMPI PUSH1 0x20 CALLDATASIZE PUSH1 0x3 NOT ADD SLT PUSH2 0x14B JUMPI PUSH2 0xD6 PUSH2 0x78B JUMP JUMPDEST SWAP1 PUSH2 0xDF PUSH2 0x7BC JUMP JUMPDEST PUSH1 0x1 PUSH1 0x1 PUSH1 0xA0 SHL SUB SWAP2 DUP3 AND SWAP3 DUP4 ISZERO PUSH2 0x135 JUMPI POP POP PUSH1 0x5 SLOAD DUP3 PUSH12 0xFFFFFFFFFFFFFFFFFFFFFFFF PUSH1 0xA0 SHL DUP3 AND OR PUSH1 0x5 SSTORE AND PUSH32 0x8BE0079C531659141344CD1FD0A4F28419497F9722A3DAAFE3B4186F6B6457E0 DUP4 DUP1 LOG3 DUP1 RETURN JUMPDEST MLOAD PUSH4 0x1E4FBDF7 PUSH1 0xE0 SHL DUP2 MSTORE SWAP1 DUP2 ADD DUP5 SWAP1 MSTORE PUSH1 0x24 SWAP1 REVERT JUMPDEST DUP3 DUP1 REVERT JUMPDEST POP POP CALLVALUE PUSH2 0x198 JUMPI DUP1 PUSH1 0x3 NOT CALLDATASIZE ADD SLT PUSH2 0x198 JUMPI DUP1 PUSH1 0x20 SWAP3 PUSH2 0x16D PUSH2 0x78B JUMP JUMPDEST PUSH2 0x175 PUSH2 0x7A6 JUMP JUMPDEST PUSH1 0x1 PUSH1 0x1 PUSH1 0xA0 SHL SUB SWAP2 DUP3 AND DUP4 MSTORE PUSH1 0x1 DUP7 MSTORE DUP4 DUP4 KECCAK256 SWAP2 AND DUP3 MSTORE DUP5 MSTORE KECCAK256 SLOAD SWAP1 MLOAD SWAP1 DUP2 MSTORE RETURN JUMPDEST POP DUP1 REVERT JUMPDEST POP POP CALLVALUE PUSH2 0x198 JUMPI DUP1 PUSH1 0x3 NOT CALLDATASIZE ADD SLT PUSH2 0x198 JUMPI PUSH1 0x20 SWAP1 PUSH2 0x1C6 PUSH2 0x1BC PUSH2 0x78B JUMP JUMPDEST PUSH1 0x24 CALLDATALOAD SWAP1 CALLER PUSH2 0x7E8 JUMP JUMPDEST MLOAD PUSH1 0x1 DUP2 MSTORE RETURN JUMPDEST POP SWAP2 SWAP1 CALLVALUE PUSH2 0x198 JUMPI DUP2 PUSH1 0x3 NOT CALLDATASIZE ADD SLT PUSH2 0x198 JUMPI DUP1 MLOAD SWAP1 DUP3 DUP5 SLOAD PUSH1 0x1 DUP2 DUP2 SHR SWAP1 DUP1 DUP4 AND SWAP3 DUP4 ISZERO PUSH2 0x2E3 JUMPI JUMPDEST PUSH1 0x20 SWAP4 DUP5 DUP5 LT DUP2 EQ PUSH2 0x2D0 JUMPI DUP4 DUP9 MSTORE SWAP1 DUP2 ISZERO PUSH2 0x2B4 JUMPI POP PUSH1 0x1 EQ PUSH2 0x25F JUMPI JUMPDEST POP POP POP DUP3 SWAP1 SUB PUSH1 0x1F ADD PUSH1 0x1F NOT AND DUP3 ADD SWAP3 PUSH8 0xFFFFFFFFFFFFFFFF DUP5 GT DUP4 DUP6 LT OR PUSH2 0x24C JUMPI POP DUP3 SWAP2 DUP3 PUSH2 0x248 SWAP3 MSTORE DUP3 PUSH2 0x742 JUMP JUMPDEST SUB SWAP1 RETURN JUMPDEST PUSH4 0x4E487B71 PUSH1 0xE0 SHL DUP2 MSTORE PUSH1 0x41 DUP6 MSTORE PUSH1 0x24 SWAP1 REVERT JUMPDEST DUP8 DUP8 MSTORE SWAP2 SWAP3 POP DUP6 SWAP2 DUP4 PUSH32 0x8A35ACFBC15FF81A39AE7D344FD709F28E8600B4AA8C65C6B64BFE7FE36BD19B JUMPDEST DUP4 DUP6 LT PUSH2 0x2A0 JUMPI POP POP POP POP DUP4 ADD ADD CODESIZE DUP1 DUP1 PUSH2 0x216 JUMP JUMPDEST DUP1 SLOAD DUP9 DUP7 ADD DUP4 ADD MSTORE SWAP4 ADD SWAP3 DUP5 SWAP1 DUP3 ADD PUSH2 0x28A JUMP JUMPDEST PUSH1 0xFF NOT AND DUP8 DUP6 ADD MSTORE POP POP ISZERO ISZERO PUSH1 0x5 SHL DUP5 ADD ADD SWAP1 POP CODESIZE DUP1 DUP1 PUSH2 0x216 JUMP JUMPDEST PUSH4 0x4E487B71 PUSH1 0xE0 SHL DUP10 MSTORE PUSH1 0x22 DUP11 MSTORE PUSH1 0x24 DUP10 REVERT JUMPDEST SWAP2 PUSH1 0x7F AND SWAP2 PUSH2 0x1F7 JUMP JUMPDEST POP POP CALLVALUE PUSH2 0x198 JUMPI DUP2 PUSH1 0x3 NOT CALLDATASIZE ADD SLT PUSH2 0x198 JUMPI PUSH1 0x5 SLOAD SWAP1 MLOAD PUSH1 0x1 PUSH1 0x1 PUSH1 0xA0 SHL SUB SWAP1 SWAP2 AND DUP2 MSTORE PUSH1 0x20 SWAP1 RETURN JUMPDEST DUP4 CALLVALUE PUSH2 0x373 JUMPI DUP1 PUSH1 0x3 NOT CALLDATASIZE ADD SLT PUSH2 0x373 JUMPI PUSH2 0x32F PUSH2 0x7BC JUMP JUMPDEST PUSH1 0x5 DUP1 SLOAD PUSH1 0x1 PUSH1 0x1 PUSH1 0xA0 SHL SUB NOT DUP2 AND SWAP1 SWAP2 SSTORE DUP2 SWAP1 PUSH1 0x1 PUSH1 0x1 PUSH1 0xA0 SHL SUB AND PUSH32 0x8BE0079C531659141344CD1FD0A4F28419497F9722A3DAAFE3B4186F6B6457E0 DUP3 DUP1 LOG3 DUP1 RETURN JUMPDEST DUP1 REVERT JUMPDEST POP POP CALLVALUE PUSH2 0x198 JUMPI PUSH1 0x20 CALLDATASIZE PUSH1 0x3 NOT ADD SLT PUSH2 0x198 JUMPI PUSH1 0x20 SWAP2 DUP2 SWAP1 PUSH1 0x1 PUSH1 0x1 PUSH1 0xA0 SHL SUB PUSH2 0x39E PUSH2 0x78B JUMP JUMPDEST AND DUP2 MSTORE DUP1 DUP5 MSTORE KECCAK256 SLOAD SWAP1 MLOAD SWAP1 DUP2 MSTORE RETURN JUMPDEST POP CALLVALUE PUSH2 0x14B JUMPI PUSH1 0x20 CALLDATASIZE PUSH1 0x3 NOT ADD SLT PUSH2 0x14B JUMPI DUP1 CALLDATALOAD SWAP2 PUSH1 0xFF PUSH1 0x5 SLOAD PUSH1 0xA0 SHR AND PUSH1 0x4D DUP2 GT PUSH2 0x42D JUMPI PUSH1 0xA EXP DUP4 GT PUSH2 0x3EA JUMPI DUP4 PUSH2 0x3E7 DUP5 CALLER PUSH2 0x8C6 JUMP JUMPDEST DUP1 RETURN JUMPDEST SWAP1 PUSH1 0x20 PUSH1 0x64 SWAP3 MLOAD SWAP2 PUSH3 0x461BCD PUSH1 0xE5 SHL DUP4 MSTORE DUP3 ADD MSTORE PUSH1 0x19 PUSH1 0x24 DUP3 ADD MSTORE PUSH32 0x466175636574206C696D6974656420746F203120636242544300000000000000 PUSH1 0x44 DUP3 ADD MSTORE REVERT JUMPDEST PUSH4 0x4E487B71 PUSH1 0xE0 SHL DUP6 MSTORE PUSH1 0x11 DUP4 MSTORE PUSH1 0x24 DUP6 REVERT JUMPDEST POP POP CALLVALUE PUSH2 0x198 JUMPI CALLDATASIZE PUSH1 0x3 NOT ADD SLT PUSH2 0x373 JUMPI PUSH2 0x3E7 PUSH2 0x45C PUSH2 0x78B JUMP JUMPDEST PUSH2 0x464 PUSH2 0x7BC JUMP JUMPDEST PUSH1 0x24 CALLDATALOAD SWAP1 PUSH2 0x8C6 JUMP JUMPDEST POP POP CALLVALUE PUSH2 0x198 JUMPI DUP2 PUSH1 0x3 NOT CALLDATASIZE ADD SLT PUSH2 0x198 JUMPI PUSH1 0x20 SWAP1 PUSH1 0xFF PUSH1 0x5 SLOAD PUSH1 0xA0 SHR AND SWAP1 MLOAD SWAP1 DUP2 MSTORE RETURN JUMPDEST POP DUP3 CALLVALUE PUSH2 0x373 JUMPI PUSH1 0x60 CALLDATASIZE PUSH1 0x3 NOT ADD SLT PUSH2 0x373 JUMPI PUSH2 0x4AD PUSH2 0x78B JUMP JUMPDEST PUSH2 0x4B5 PUSH2 0x7A6 JUMP JUMPDEST SWAP2 PUSH1 0x44 CALLDATALOAD SWAP4 PUSH1 0x1 DUP1 PUSH1 0xA0 SHL SUB DUP4 AND DUP1 DUP4 MSTORE PUSH1 0x1 PUSH1 0x20 MSTORE DUP7 DUP4 KECCAK256 CALLER DUP5 MSTORE PUSH1 0x20 MSTORE DUP7 DUP4 KECCAK256 SLOAD SWAP2 PUSH1 0x0 NOT DUP4 SUB PUSH2 0x4F1 JUMPI JUMPDEST PUSH1 0x20 DUP9 PUSH2 0x1C6 DUP10 DUP10 DUP10 PUSH2 0x7E8 JUMP JUMPDEST DUP7 DUP4 LT PUSH2 0x559 JUMPI DUP2 ISZERO PUSH2 0x542 JUMPI CALLER ISZERO PUSH2 0x52B JUMPI POP DUP3 MSTORE PUSH1 0x1 PUSH1 0x20 SWAP1 DUP2 MSTORE DUP7 DUP4 KECCAK256 CALLER DUP5 MSTORE DUP2 MSTORE SWAP2 DUP7 SWAP1 KECCAK256 SWAP1 DUP6 SWAP1 SUB SWAP1 SSTORE DUP3 SWAP1 PUSH2 0x1C6 DUP8 PUSH2 0x4E3 JUMP JUMPDEST DUP8 MLOAD PUSH4 0x4A1406B1 PUSH1 0xE1 SHL DUP2 MSTORE SWAP1 DUP2 ADD DUP5 SWAP1 MSTORE PUSH1 0x24 SWAP1 REVERT JUMPDEST DUP8 MLOAD PUSH4 0xE602DF05 PUSH1 0xE0 SHL DUP2 MSTORE SWAP1 DUP2 ADD DUP5 SWAP1 MSTORE PUSH1 0x24 SWAP1 REVERT JUMPDEST DUP8 MLOAD PUSH4 0x7DC7A0D9 PUSH1 0xE1 SHL DUP2 MSTORE CALLER SWAP2 DUP2 ADD SWAP2 DUP3 MSTORE PUSH1 0x20 DUP3 ADD SWAP4 SWAP1 SWAP4 MSTORE PUSH1 0x40 DUP2 ADD DUP8 SWAP1 MSTORE DUP3 SWAP2 POP PUSH1 0x60 ADD SUB SWAP1 REVERT JUMPDEST POP POP CALLVALUE PUSH2 0x198 JUMPI DUP2 PUSH1 0x3 NOT CALLDATASIZE ADD SLT PUSH2 0x198 JUMPI PUSH1 0x20 SWAP1 PUSH1 0x2 SLOAD SWAP1 MLOAD SWAP1 DUP2 MSTORE RETURN JUMPDEST POP CALLVALUE PUSH2 0x14B JUMPI DUP2 PUSH1 0x3 NOT CALLDATASIZE ADD SLT PUSH2 0x14B JUMPI PUSH2 0x5BD PUSH2 0x78B JUMP JUMPDEST PUSH1 0x24 CALLDATALOAD SWAP1 CALLER ISZERO PUSH2 0x636 JUMPI PUSH1 0x1 PUSH1 0x1 PUSH1 0xA0 SHL SUB AND SWAP2 DUP3 ISZERO PUSH2 0x61F JUMPI POP DUP1 DUP4 PUSH1 0x20 SWAP6 CALLER DUP2 MSTORE PUSH1 0x1 DUP8 MSTORE DUP2 DUP2 KECCAK256 DUP6 DUP3 MSTORE DUP8 MSTORE KECCAK256 SSTORE DUP3 MLOAD SWAP1 DUP2 MSTORE PUSH32 0x8C5BE1E5EBEC7D5BD14F71427D1E84F3DD0314C0F7B2291E5B200AC8C7C3B925 DUP5 CALLER SWAP3 LOG3 MLOAD PUSH1 0x1 DUP2 MSTORE RETURN JUMPDEST DUP4 MLOAD PUSH4 0x4A1406B1 PUSH1 0xE1 SHL DUP2 MSTORE SWAP1 DUP2 ADD DUP6 SWAP1 MSTORE PUSH1 0x24 SWAP1 REVERT JUMPDEST DUP4 MLOAD PUSH4 0xE602DF05 PUSH1 0xE0 SHL DUP2 MSTORE DUP1 DUP5 ADD DUP7 SWAP1 MSTORE PUSH1 0x24 SWAP1 REVERT JUMPDEST DUP5 SWAP2 POP DUP4 CALLVALUE PUSH2 0x14B JUMPI DUP3 PUSH1 0x3 NOT CALLDATASIZE ADD SLT PUSH2 0x14B JUMPI DUP3 PUSH1 0x3 SLOAD PUSH1 0x1 DUP2 DUP2 SHR SWAP1 DUP1 DUP4 AND SWAP3 DUP4 ISZERO PUSH2 0x738 JUMPI JUMPDEST PUSH1 0x20 SWAP4 DUP5 DUP5 LT DUP2 EQ PUSH2 0x2D0 JUMPI DUP4 DUP9 MSTORE SWAP1 DUP2 ISZERO PUSH2 0x71C JUMPI POP PUSH1 0x1 EQ PUSH2 0x6C6 JUMPI POP POP POP DUP3 SWAP1 SUB PUSH1 0x1F ADD PUSH1 0x1F NOT AND DUP3 ADD SWAP3 PUSH8 0xFFFFFFFFFFFFFFFF DUP5 GT DUP4 DUP6 LT OR PUSH2 0x24C JUMPI POP DUP3 SWAP2 DUP3 PUSH2 0x248 SWAP3 MSTORE DUP3 PUSH2 0x742 JUMP JUMPDEST PUSH1 0x3 DUP8 MSTORE SWAP2 SWAP3 POP DUP6 SWAP2 DUP4 PUSH32 0xC2575A0E9E593C00F959F8C92F12DB2869C3395A3B0502D05E2516446F71F85B JUMPDEST DUP4 DUP6 LT PUSH2 0x708 JUMPI POP POP POP POP DUP4 ADD ADD DUP6 DUP1 DUP1 PUSH2 0x216 JUMP JUMPDEST DUP1 SLOAD DUP9 DUP7 ADD DUP4 ADD MSTORE SWAP4 ADD SWAP3 DUP5 SWAP1 DUP3 ADD PUSH2 0x6F2 JUMP JUMPDEST PUSH1 0xFF NOT AND DUP8 DUP6 ADD MSTORE POP POP ISZERO ISZERO PUSH1 0x5 SHL DUP5 ADD ADD SWAP1 POP DUP6 DUP1 DUP1 PUSH2 0x216 JUMP JUMPDEST SWAP2 PUSH1 0x7F AND SWAP2 PUSH2 0x676 JUMP JUMPDEST PUSH1 0x20 DUP1 DUP3 MSTORE DUP3 MLOAD DUP2 DUP4 ADD DUP2 SWAP1 MSTORE SWAP1 SWAP4 SWAP3 PUSH1 0x0 JUMPDEST DUP3 DUP2 LT PUSH2 0x777 JUMPI POP POP PUSH1 0x40 SWAP3 SWAP4 POP PUSH1 0x0 DUP4 DUP3 DUP5 ADD ADD MSTORE PUSH1 0x1F DUP1 NOT SWAP2 ADD AND ADD ADD SWAP1 JUMP JUMPDEST DUP2 DUP2 ADD DUP7 ADD MLOAD DUP5 DUP3 ADD PUSH1 0x40 ADD MSTORE DUP6 ADD PUSH2 0x755 JUMP JUMPDEST PUSH1 0x4 CALLDATALOAD SWAP1 PUSH1 0x1 PUSH1 0x1 PUSH1 0xA0 SHL SUB DUP3 AND DUP3 SUB PUSH2 0x7A1 JUMPI JUMP JUMPDEST PUSH1 0x0 DUP1 REVERT JUMPDEST PUSH1 0x24 CALLDATALOAD SWAP1 PUSH1 0x1 PUSH1 0x1 PUSH1 0xA0 SHL SUB DUP3 AND DUP3 SUB PUSH2 0x7A1 JUMPI JUMP JUMPDEST PUSH1 0x5 SLOAD PUSH1 0x1 PUSH1 0x1 PUSH1 0xA0 SHL SUB AND CALLER SUB PUSH2 0x7D0 JUMPI JUMP JUMPDEST PUSH1 0x40 MLOAD PUSH4 0x118CDAA7 PUSH1 0xE0 SHL DUP2 MSTORE CALLER PUSH1 0x4 DUP3 ADD MSTORE PUSH1 0x24 SWAP1 REVERT JUMPDEST SWAP2 PUSH1 0x1 PUSH1 0x1 PUSH1 0xA0 SHL SUB DUP1 DUP5 AND SWAP3 DUP4 ISZERO PUSH2 0x8AD JUMPI AND SWAP3 DUP4 ISZERO PUSH2 0x894 JUMPI PUSH1 0x0 SWAP1 DUP4 DUP3 MSTORE DUP2 PUSH1 0x20 MSTORE PUSH1 0x40 DUP3 KECCAK256 SLOAD SWAP1 DUP4 DUP3 LT PUSH2 0x862 JUMPI POP SWAP2 PUSH1 0x40 DUP3 DUP3 PUSH32 0xDDF252AD1BE2C89B69C2B068FC378DAA952BA7F163C4A11628F55A4DF523B3EF SWAP6 DUP8 PUSH1 0x20 SWAP7 MSTORE DUP3 DUP7 MSTORE SUB DUP3 DUP3 KECCAK256 SSTORE DUP7 DUP2 MSTORE KECCAK256 DUP2 DUP2 SLOAD ADD SWAP1 SSTORE PUSH1 0x40 MLOAD SWAP1 DUP2 MSTORE LOG3 JUMP JUMPDEST PUSH1 0x40 MLOAD PUSH4 0x391434E3 PUSH1 0xE2 SHL DUP2 MSTORE PUSH1 0x1 PUSH1 0x1 PUSH1 0xA0 SHL SUB SWAP2 SWAP1 SWAP2 AND PUSH1 0x4 DUP3 ADD MSTORE PUSH1 0x24 DUP2 ADD SWAP2 SWAP1 SWAP2 MSTORE PUSH1 0x44 DUP2 ADD DUP4 SWAP1 MSTORE PUSH1 0x64 SWAP1 REVERT JUMPDEST PUSH1 0x40 MLOAD PUSH4 0xEC442F05 PUSH1 0xE0 SHL DUP2 MSTORE PUSH1 0x0 PUSH1 0x4 DUP3 ADD MSTORE PUSH1 0x24 SWAP1 REVERT JUMPDEST PUSH1 0x40 MLOAD PUSH4 0x4B637E8F PUSH1 0xE1 SHL DUP2 MSTORE PUSH1 0x0 PUSH1 0x4 DUP3 ADD MSTORE PUSH1 0x24 SWAP1 REVERT JUMPDEST PUSH1 0x1 PUSH1 0x1 PUSH1 0xA0 SHL SUB AND SWAP1 DUP2 ISZERO PUSH2 0x894 JUMPI PUSH1 0x2 SLOAD SWAP1 DUP1 DUP3 ADD DUP1 SWAP3 GT PUSH2 0x927 JUMPI PUSH1 0x20 PUSH32 0xDDF252AD1BE2C89B69C2B068FC378DAA952BA7F163C4A11628F55A4DF523B3EF SWAP2 PUSH1 0x0 SWAP4 PUSH1 0x2 SSTORE DUP5 DUP5 MSTORE DUP4 DUP3 MSTORE PUSH1 0x40 DUP5 KECCAK256 DUP2 DUP2 SLOAD ADD SWAP1 SSTORE PUSH1 0x40 MLOAD SWAP1 DUP2 MSTORE LOG3 JUMP JUMPDEST PUSH4 0x4E487B71 PUSH1 0xE0 SHL PUSH1 0x0 MSTORE PUSH1 0x11 PUSH1 0x4 MSTORE PUSH1 0x24 PUSH1 0x0 REVERT INVALID LOG2 PUSH5 0x6970667358 0x22 SLT KECCAK256 0xCA 0xD1 0xD4 XOR LOG4 0xCA 0x24 SWAP8 REVERT RETURNDATACOPY 0xD4 PUSH19 0xE2561937F417918324797116551CAEC449338E CALLER PUSH5 0x736F6C6343 STOP ADDMOD EQ STOP CALLER PUSH1 0x80 CALLVALUE PUSH2 0x127 JUMPI PUSH1 0x1F PUSH2 0x4B7 CODESIZE DUP2 SWAP1 SUB SWAP2 DUP3 ADD PUSH1 0x1F NOT AND DUP4 ADD SWAP2 PUSH1 0x1 PUSH1 0x1 PUSH1 0x40 SHL SUB DUP4 GT DUP5 DUP5 LT OR PUSH2 0x12C JUMPI DUP1 DUP5 SWAP3 PUSH1 0x20 SWAP5 PUSH1 0x40 MSTORE DUP4 CODECOPY DUP2 ADD SUB SLT PUSH2 0x127 JUMPI MLOAD PUSH1 0x1 DUP1 SLOAD PUSH1 0xFF NOT AND PUSH1 0x8 OR DUP2 SSTORE PUSH1 0x2 SLOAD DUP1 DUP3 SHR SWAP1 DUP3 AND DUP1 ISZERO PUSH2 0x11D JUMPI JUMPDEST PUSH1 0x20 DUP3 LT EQ PUSH2 0x107 JUMPI PUSH1 0x1F DUP2 GT PUSH2 0xBA JUMPI JUMPDEST POP PUSH32 0x4D6F636B20425443202F2055534400000000000000000000000000000000001C PUSH1 0x2 SSTORE PUSH1 0x3 SSTORE PUSH1 0x0 SSTORE PUSH1 0x4 DUP1 SLOAD PUSH1 0x1 PUSH1 0x1 PUSH1 0xA0 SHL SUB NOT AND CALLER OR SWAP1 SSTORE PUSH1 0x40 MLOAD PUSH2 0x374 SWAP1 DUP2 PUSH2 0x143 DUP3 CODECOPY RETURN JUMPDEST PUSH1 0x2 PUSH1 0x0 MSTORE PUSH1 0x1F ADD PUSH1 0x5 SHR PUSH32 0x405787FA12A823E0F2B7631CC41B3BA8828B3321CA811111FA75CD3AA3BB5ACE SWAP1 DUP2 ADD SWAP1 DUP3 SWAP1 JUMPDEST DUP3 DUP2 LT PUSH2 0xFB JUMPI POP POP PUSH2 0x6E JUMP JUMPDEST PUSH1 0x0 DUP2 SSTORE ADD DUP3 SWAP1 PUSH2 0xED JUMP JUMPDEST PUSH4 0x4E487B71 PUSH1 0xE0 SHL PUSH1 0x0 MSTORE PUSH1 0x22 PUSH1 0x4 MSTORE PUSH1 0x24 PUSH1 0x0 REVERT JUMPDEST SWAP1 PUSH1 0x7F AND SWAP1 PUSH2 0x5C JUMP JUMPDEST PUSH1 0x0 DUP1 REVERT JUMPDEST PUSH4 0x4E487B71 PUSH1 0xE0 SHL PUSH1 0x0 MSTORE PUSH1 0x41 PUSH1 0x4 MSTORE PUSH1 0x24 PUSH1 0x0 REVERT INVALID PUSH1 0x80 PUSH1 0x40 DUP2 DUP2 MSTORE PUSH1 0x4 SWAP2 DUP3 CALLDATASIZE LT ISZERO PUSH2 0x16 JUMPI PUSH1 0x0 DUP1 REVERT JUMPDEST PUSH1 0x0 SWAP1 DUP2 CALLDATALOAD PUSH1 0xE0 SHR SWAP1 DUP2 PUSH4 0x313CE567 EQ PUSH2 0x31F JUMPI POP DUP1 PUSH4 0x54FD4D50 EQ PUSH2 0x2FC JUMPI DUP1 PUSH4 0x7284E416 EQ PUSH2 0x19D JUMPI DUP1 PUSH4 0x8DA5CB5B EQ PUSH2 0x175 JUMPI DUP1 PUSH4 0xD4C19BDA EQ PUSH2 0xCB JUMPI PUSH4 0xFEAF968C EQ PUSH2 0x66 JUMPI PUSH1 0x0 DUP1 REVERT JUMPDEST CALLVALUE PUSH2 0xC8 JUMPI DUP1 PUSH1 0x3 NOT CALLDATASIZE ADD SLT PUSH2 0xC8 JUMPI PUSH10 0xFFFFFFFFFFFFFFFFFFFF NUMBER AND SWAP1 DUP1 SLOAD SWAP3 PUSH2 0xE0F NOT TIMESTAMP ADD SWAP2 TIMESTAMP DUP4 GT PUSH2 0xB5 JUMPI POP PUSH1 0xA0 SWAP5 POP DUP1 MLOAD SWAP4 DUP4 DUP6 MSTORE PUSH1 0x20 DUP6 ADD MSTORE DUP4 ADD MSTORE TIMESTAMP PUSH1 0x60 DUP4 ADD MSTORE PUSH1 0x80 DUP3 ADD MSTORE RETURN JUMPDEST PUSH4 0x4E487B71 PUSH1 0xE0 SHL DUP2 MSTORE PUSH1 0x11 DUP7 MSTORE PUSH1 0x24 SWAP1 REVERT JUMPDEST DUP1 REVERT JUMPDEST POP SWAP2 SWAP1 CALLVALUE PUSH2 0x171 JUMPI PUSH1 0x20 CALLDATASIZE PUSH1 0x3 NOT ADD SLT PUSH2 0x171 JUMPI DUP2 SLOAD DUP3 CALLDATALOAD SWAP3 SWAP1 PUSH1 0x1 PUSH1 0x1 PUSH1 0xA0 SHL SUB AND CALLER SUB PUSH2 0x125 JUMPI POP DUP2 PUSH1 0x20 SWAP2 PUSH32 0xFA6BD982FA4E58A45EA44E1FE84AB8E9DE93C3310EC81DB62565AC50139A6CA3 SWAP4 DUP6 SSTORE MLOAD SWAP1 DUP2 MSTORE LOG1 DUP1 RETURN JUMPDEST PUSH1 0x20 PUSH1 0x84 SWAP3 MLOAD SWAP2 PUSH3 0x461BCD PUSH1 0xE5 SHL DUP4 MSTORE DUP3 ADD MSTORE PUSH1 0x21 PUSH1 0x24 DUP3 ADD MSTORE PUSH32 0x4F6E6C79206F776E65722063616E2063616C6C20746869732066756E6374696F PUSH1 0x44 DUP3 ADD MSTORE PUSH1 0x37 PUSH1 0xF9 SHL PUSH1 0x64 DUP3 ADD MSTORE REVERT JUMPDEST DUP3 DUP1 REVERT JUMPDEST POP SWAP2 CALLVALUE PUSH2 0x171 JUMPI DUP3 PUSH1 0x3 NOT CALLDATASIZE ADD SLT PUSH2 0x171 JUMPI SLOAD SWAP1 MLOAD PUSH1 0x1 PUSH1 0x1 PUSH1 0xA0 SHL SUB SWAP1 SWAP2 AND DUP2 MSTORE PUSH1 0x20 SWAP2 POP RETURN JUMPDEST POP SWAP2 SWAP1 CALLVALUE PUSH2 0x171 JUMPI DUP3 PUSH1 0x3 NOT CALLDATASIZE ADD SLT PUSH2 0x171 JUMPI DUP1 MLOAD DUP4 PUSH1 0x2 SLOAD PUSH1 0x1 SWAP6 DUP2 DUP8 SHR DUP8 DUP4 AND SWAP8 DUP9 ISZERO PUSH2 0x2F2 JUMPI JUMPDEST PUSH1 0x20 SWAP4 DUP5 DUP4 LT DUP11 EQ PUSH2 0x2DF JUMPI DUP5 DUP8 SWAP9 SWAP10 SWAP11 DUP5 DUP10 MSTORE SWAP2 DUP3 PUSH1 0x0 EQ PUSH2 0x2C3 JUMPI POP POP PUSH1 0x1 EQ PUSH2 0x26F JUMPI JUMPDEST POP POP PUSH1 0x1F DUP1 NOT SWAP6 DUP7 SWAP3 SUB ADD AND DUP4 ADD SWAP6 DUP4 DUP8 LT PUSH8 0xFFFFFFFFFFFFFFFF DUP9 GT OR PUSH2 0x25C JUMPI POP DUP6 SWAP3 SWAP4 SWAP2 DUP4 DUP7 MSTORE DUP2 DUP5 MSTORE DUP5 MLOAD SWAP2 DUP3 DUP2 DUP7 ADD MSTORE DUP2 SWAP6 JUMPDEST DUP4 DUP8 LT PUSH2 0x244 JUMPI POP POP DUP4 SWAP5 POP DUP6 DUP3 PUSH1 0x1F SWAP5 SWAP6 ADD ADD MSTORE ADD AND DUP2 ADD SUB ADD SWAP1 RETURN JUMPDEST DUP7 DUP2 ADD DUP3 ADD MLOAD DUP10 DUP9 ADD DUP10 ADD MSTORE SWAP6 DUP2 ADD SWAP6 DUP9 SWAP6 POP PUSH2 0x226 JUMP JUMPDEST PUSH4 0x4E487B71 PUSH1 0xE0 SHL DUP4 MSTORE PUSH1 0x41 SWAP1 MSTORE PUSH1 0x24 DUP3 REVERT JUMPDEST PUSH1 0x2 DUP6 MSTORE DUP5 SWAP3 POP PUSH32 0x405787FA12A823E0F2B7631CC41B3BA8828B3321CA811111FA75CD3AA3BB5ACE JUMPDEST DUP3 DUP5 LT PUSH2 0x2AD JUMPI POP POP POP DUP4 ADD DUP2 ADD CODESIZE DUP1 PUSH2 0x1EE JUMP JUMPDEST DUP1 SLOAD DUP9 DUP6 ADD DUP7 ADD MSTORE DUP8 SWAP7 POP SWAP3 DUP5 ADD SWAP3 DUP2 ADD PUSH2 0x298 JUMP JUMPDEST SWAP3 POP SWAP4 POP POP PUSH1 0xFF NOT AND DUP3 DUP7 ADD MSTORE ISZERO ISZERO PUSH1 0x5 SHL DUP5 ADD ADD CODESIZE DUP1 PUSH2 0x1EE JUMP JUMPDEST PUSH4 0x4E487B71 PUSH1 0xE0 SHL DUP7 MSTORE PUSH1 0x22 DUP10 MSTORE PUSH1 0x24 DUP7 REVERT JUMPDEST SWAP1 PUSH1 0x7F AND SWAP1 PUSH2 0x1C7 JUMP JUMPDEST POP SWAP1 CALLVALUE PUSH2 0x31B JUMPI DUP2 PUSH1 0x3 NOT CALLDATASIZE ADD SLT PUSH2 0x31B JUMPI PUSH1 0x20 SWAP1 PUSH1 0x3 SLOAD SWAP1 MLOAD SWAP1 DUP2 MSTORE RETURN JUMPDEST POP DUP1 REVERT JUMPDEST SWAP1 POP CALLVALUE PUSH2 0x31B JUMPI DUP2 PUSH1 0x3 NOT CALLDATASIZE ADD SLT PUSH2 0x31B JUMPI PUSH1 0x20 SWAP1 PUSH1 0xFF PUSH1 0x1 SLOAD AND DUP2 MSTORE RETURN INVALID LOG2 PUSH5 0x6970667358 0x22 SLT KECCAK256 POP DUP15 AND PUSH21 0xA653E7176DFC765B3D57346736B16A3F72608CA0E CALLDATALOAD SSTORE 0xE9 0xE9 0xBF 0xCA CALLDATASIZE PUSH5 0x736F6C6343 STOP ADDMOD EQ STOP CALLER LOG2 PUSH5 0x6970667358 0x22 SLT KECCAK256 0xEF PUSH32 0xA8802BDED4D9BD4EF6DF065912629FF5731A3A2000DBEC2A2014C9E6F63F6473 PUSH16 0x6C634300081400330000000000000000 "},"methodIdentifiers":{"BTC_USD_PRICE()":"9781a8ca","INITIAL_BTC_LIQUIDITY()":"410147f5","INITIAL_USDC_LIQUIDITY()":"801a450a","aavePool()":"a03e4bc3","cbBtc()":"ecf3a80e","deploy()":"775c300c","getAddresses()":"a39fac12","initialize()":"8129fc1c","mintTestTokens(address,uint256,uint256)":"6eb73b85","priceOracle()":"2630c12f","swapRouter()":"c31c9c07","updateBtcPrice(int256)":"a0accccd","usdc()":"3e413bee"}}}}}