{"Contracts/Lending.sol":{"LendingPool":{"abi":[{"inputs":[{"internalType":"address","name":"usdc","type":"address"},{"internalType":"address","name":"_cbBtcToken","type":"address"},{"internalType":"address","name":"oracleAddress","type":"address"},{"internalType":"address","name":"_aavePool","type":"address"},{"internalType":"address","name":"_swapRouter","type":"address"}],"stateMutability":"nonpayable","type":"constructor"},{"anonymous":false,"inputs":[{"indexed":false,"internalType":"bytes32","name":"loanId","type":"bytes32"},{"indexed":false,"internalType":"uint256","name":"index","type":"uint256"}],"name":"InstallmentPaid","type":"event"},{"anonymous":false,"inputs":[{"indexed":false,"internalType":"bytes32","name":"id","type":"bytes32"},{"indexed":false,"internalType":"uint256","name":"amount","type":"uint256"},{"indexed":false,"internalType":"uint256","name":"collateral","type":"uint256"},{"indexed":false,"internalType":"address","name":"borrower","type":"address"}],"name":"LoanCreated","type":"event"},{"anonymous":false,"inputs":[{"indexed":false,"internalType":"bytes32","name":"id","type":"bytes32"},{"indexed":false,"internalType":"address","name":"borrower","type":"address"},{"indexed":false,"internalType":"uint256","name":"btcPriceNow","type":"uint256"}],"name":"LoanLiquidated","type":"event"},{"anonymous":false,"inputs":[{"indexed":false,"internalType":"bytes32","name":"loanId","type":"bytes32"},{"indexed":false,"internalType":"address","name":"borrower","type":"address"},{"indexed":false,"internalType":"uint256","name":"amount","type":"uint256"},{"indexed":false,"internalType":"bool","name":"fullyRepaid","type":"bool"}],"name":"Payout","type":"event"},{"anonymous":false,"inputs":[{"indexed":false,"internalType":"bytes32","name":"loanId","type":"bytes32"},{"indexed":false,"internalType":"uint256","name":"usdcAmount","type":"uint256"},{"indexed":false,"internalType":"uint256","name":"cbBtcAmount","type":"uint256"}],"name":"TokensStaked","type":"event"},{"anonymous":false,"inputs":[{"indexed":false,"internalType":"bytes32","name":"loanId","type":"bytes32"},{"indexed":false,"internalType":"uint256","name":"cbBtcAmount","type":"uint256"},{"indexed":false,"internalType":"uint256","name":"usdcAmount","type":"uint256"},{"indexed":false,"internalType":"uint256","name":"borrowerCbBtcShare","type":"uint256"}],"name":"TokensUnstaked","type":"event"},{"inputs":[],"name":"aavePool","outputs":[{"internalType":"contract IAavePool","name":"","type":"address"}],"stateMutability":"view","type":"function"},{"inputs":[],"name":"cbBtcToken","outputs":[{"internalType":"address","name":"","type":"address"}],"stateMutability":"view","type":"function"},{"inputs":[],"name":"chainlinkOracle","outputs":[{"internalType":"contract AggregatorV3Interface","name":"","type":"address"}],"stateMutability":"view","type":"function"},{"inputs":[{"internalType":"bytes32","name":"loanId","type":"bytes32"}],"name":"getInstallmentSchedule","outputs":[{"components":[{"internalType":"uint256","name":"duePrincipal","type":"uint256"},{"internalType":"uint256","name":"dueInterest","type":"uint256"},{"internalType":"bool","name":"paid","type":"bool"},{"internalType":"uint256","name":"dueTimestamp","type":"uint256"}],"internalType":"struct LendingPool.Installment[]","name":"","type":"tuple[]"}],"stateMutability":"view","type":"function"},{"inputs":[],"name":"getPrice","outputs":[{"internalType":"int256","name":"","type":"int256"}],"stateMutability":"view","type":"function"},{"inputs":[{"internalType":"address","name":"","type":"address"}],"name":"hasActiveLoan","outputs":[{"internalType":"bool","name":"","type":"bool"}],"stateMutability":"view","type":"function"},{"inputs":[{"internalType":"address","name":"","type":"address"}],"name":"lenders","outputs":[{"internalType":"uint256","name":"totalContributed","type":"uint256"}],"stateMutability":"view","type":"function"},{"inputs":[{"internalType":"bytes32","name":"loanId","type":"bytes32"}],"name":"liquidate","outputs":[],"stateMutability":"nonpayable","type":"function"},{"inputs":[{"internalType":"bytes32","name":"loanId","type":"bytes32"}],"name":"liquidateIfOverdue","outputs":[],"stateMutability":"nonpayable","type":"function"},{"inputs":[{"internalType":"uint256","name":"totalAmount","type":"uint256"},{"internalType":"uint256","name":"durationMonths","type":"uint256"},{"internalType":"uint256","name":"annualInterestRate","type":"uint256"},{"internalType":"address[]","name":"lenderAddresses","type":"address[]"},{"internalType":"uint256[]","name":"lenderAmounts","type":"uint256[]"}],"name":"loan","outputs":[],"stateMutability":"nonpayable","type":"function"},{"inputs":[{"internalType":"uint256","name":"","type":"uint256"}],"name":"loanIds","outputs":[{"internalType":"bytes32","name":"","type":"bytes32"}],"stateMutability":"view","type":"function"},{"inputs":[{"internalType":"bytes32","name":"","type":"bytes32"}],"name":"loans","outputs":[{"internalType":"bytes32","name":"id","type":"bytes32"},{"internalType":"address","name":"borrower","type":"address"},{"internalType":"uint256","name":"principal","type":"uint256"},{"internalType":"uint256","name":"borrowerDeposit","type":"uint256"},{"internalType":"uint256","name":"interestRate","type":"uint256"},{"internalType":"uint256","name":"duration","type":"uint256"},{"internalType":"uint256","name":"monthlyPayment","type":"uint256"},{"internalType":"uint256","name":"startTime","type":"uint256"},{"internalType":"uint256","name":"btcPriceAtCreation","type":"uint256"},{"internalType":"bool","name":"isActive","type":"bool"},{"internalType":"uint256","name":"totalAmount","type":"uint256"},{"internalType":"uint256","name":"stakedAmount","type":"uint256"},{"internalType":"uint256","name":"remainingPrincipal","type":"uint256"}],"stateMutability":"view","type":"function"},{"inputs":[{"internalType":"bytes32","name":"loanId","type":"bytes32"},{"internalType":"uint256","name":"index","type":"uint256"}],"name":"markInstallmentPaid","outputs":[],"stateMutability":"nonpayable","type":"function"},{"inputs":[],"name":"owner","outputs":[{"internalType":"address","name":"","type":"address"}],"stateMutability":"view","type":"function"},{"inputs":[{"internalType":"bytes32","name":"loanId","type":"bytes32"},{"internalType":"uint256","name":"usdcAmount","type":"uint256"}],"name":"payouts","outputs":[],"stateMutability":"nonpayable","type":"function"},{"inputs":[{"internalType":"address","name":"_aavePool","type":"address"}],"name":"setAavePool","outputs":[],"stateMutability":"nonpayable","type":"function"},{"inputs":[{"internalType":"address","name":"_cbBtcToken","type":"address"}],"name":"setCbBtcToken","outputs":[],"stateMutability":"nonpayable","type":"function"},{"inputs":[{"internalType":"address","name":"oracleAddress","type":"address"}],"name":"setChainlinkOracle","outputs":[],"stateMutability":"nonpayable","type":"function"},{"inputs":[{"internalType":"address","name":"_swapRouter","type":"address"}],"name":"setSwapRouter","outputs":[],"stateMutability":"nonpayable","type":"function"},{"inputs":[],"name":"swapRouter","outputs":[{"internalType":"contract ISwapRouter","name":"","type":"address"}],"stateMutability":"view","type":"function"},{"inputs":[],"name":"usdcToken","outputs":[{"internalType":"address","name":"","type":"address"}],"stateMutability":"view","type":"function"}],"evm":{"bytecode":{"linkReferences":{},"object":"608034620000ec57601f620028e438819003918201601f19168301916001600160401b03831184841017620000f15780849260a094604052833981010312620000ec576200004d8162000107565b906200005c6020820162000107565b906200006b6040820162000107565b91620000886080620000806060850162000107565b930162000107565b9160018060a01b0319943386600854161760085560018060a01b039485809481809416896009541617600955168760025416176002551685600354161760035516836000541617600055169060015416176001556040516127c790816200011d8239f35b600080fd5b634e487b7160e01b600052604160045260246000fd5b51906001600160a01b0382168203620000ec5756fe6080604052600436101561001257600080fd5b6000803560e01c80630a71096e14611d945780630e46238614611d6b57806311eac85514611d4257806321d4f8db14611d0057806328830d4714611a1a57806328fd10d7146119dd578063349f937c14611994578063412736571461194757806366fb6e5a14610d0d5780636c1945ae14610c0c5780637a9b041214610bbf57806380f2122c1461044c57806383cd8fcf146103fb5780638da5cb5b146103d257806398d5fdca146103af578063a03e4bc314610388578063c31c9c071461035f578063c4a90815146102a1578063c9642d2a14610168578063ef06e72c1461013f5763f8715a421461010457600080fd5b3461013c57602036600319011261013c576004359060075482101561013c57602061012e83612077565b90546040519160031b1c8152f35b80fd5b503461013c578060031936011261013c576003546040516001600160a01b039091168152602090f35b503461013c5761017736612061565b9061018d60018060a01b03600854163314612454565b8083526005602052600c604084206101ab60ff6009830154166124aa565b0190815483101561025c5760ff60026101c48585612438565b50015416610217578260026101fc7f3d05ac2057427ac2f84502e7efefebf5ae10d9529129c2979ce60fb97d46061495604095612438565b5001805460ff1916600117905582519182526020820152a180f35b60405162461bcd60e51b815260206004820152601f60248201527f496e7374616c6c6d656e7420616c7265616479206d61726b65642070616964006044820152606490fd5b60405162461bcd60e51b815260206004820152601960248201527f496e76616c696420696e7374616c6c6d656e7420696e646578000000000000006044820152606490fd5b503461013c57602036600319011261013c5760406101a091600435815260056020522080549060018060a01b03600182015416906002810154600382015460048301546005840154600685015460078601549160088701549360ff60098901541695600a89015497600e600d8b01549a01549a6040519c8d5260208d015260408c015260608b015260808a015260a089015260c088015260e08701526101008601521515610120850152610140840152610160830152610180820152f35b503461013c578060031936011261013c576001546040516001600160a01b039091168152602090f35b503461013c578060031936011261013c57546040516001600160a01b039091168152602090f35b503461013c578060031936011261013c5760206103ca612180565b604051908152f35b503461013c578060031936011261013c576008546040516001600160a01b039091168152602090f35b503461013c57602036600319011261013c576004356001600160a01b03818116918290036104485761043290600854163314612454565b6001600160601b0360a01b600254161760025580f35b8280fd5b503461013c5761045b36612061565b81835260056020526040832061047760ff6009830154166124aa565b60018101546001600160a01b03163303610b7a576009546040516323b872dd60e01b815233600482015230602482015260448101849052906020908290606490829089906001600160a01b03165af18015610b6f57610b50575b5060088101548015610b1757670de0b6b3a76400008302838104670de0b6b3a76400001484151715610ae3579061050791612238565b8491855b600c820154811080610b0e575b15610b045761052a81600c8401612438565b5094600286015460ff8116610af75786549460018801549761054c8988612258565b928383106107155792879261057092600260016105769760ff191617910155612349565b96612258565b94600284015495895b600b8601548110156106ce5761059881600b8801612375565b50600181015480670de0b6b3a7640000810204670de0b6b3a764000014811517156106ba578c61066193928c610631670de0b6b3a76400006105f68f8f906105ef6105e885928360209c02612238565b8093612225565b0494612225565b0460038401610606848254612258565b905560048401610617828254612258565b905560095493546001600160a01b03948516941692612258565b60405163a9059cbb60e01b81526001600160a01b0390921660048301526024820152948592839182906044820190565b03925af19182156106af5761067b92610680575b50612356565b61057f565b6106a19060203d6020116106a8575b6106998183612112565b8101906121d8565b5038610675565b503d61068f565b6040513d8e823e3d90fd5b634e487b7160e01b8d52601160045260248dfd5b5095509550925061070d907f3d05ac2057427ac2f84502e7efefebf5ae10d9529129c2979ce60fb97d46061460408051898152836020820152a1612356565b93919361050b565b505050509392505092505b600e830161072f828254612349565b9055801590811561081b575b505060019184600c820154905b8181106107e5575b5050917fdc376abd09229a842ac7d8bcadc9017651f1f1b8490750870cae0ecd4aedf67493916080938261079c575b50604051928352336020840152604083015215156060820152a180f35b60098101805460ff1990811690915560018201546001600160a01b0316885260066020526040882080549091169055600d0154801561077f576107df90846124eb565b3861077f565b60ff60026107f683600c8701612438565b500154161561080d5761080890612356565b610748565b508593508290506080610750565b84865260056020526040862091670de0b6b3a76400008202918204670de0b6b3a7640000141715610ae35781600d61086461086c936002670de0b6b3a764000096015490612238565b910154612225565b04806108da575b508284526005602052604084208485600b83018054905b8183106108ae575050506108a4600e916002840154612349565b910155388061073b565b9091926108cd6108d39160036108c48786612375565b50015490612258565b93612356565b919061088a565b836000526005602052604060002090600d820180548211610a8f5760008054600254604051631a4ca37b60e21b81526001600160a01b03918216600482015260248101959095523060448601526020928592606492849291165af1918215610a3957600092610a5b575b50610950828254612349565b9055601981029080820460191481151715610a455760646109bf92046020816109798185612349565b60025460019097015460405163a9059cbb60e01b81526001600160a01b039182166004820152602481019390935290969195869290911690829060009082906044820190565b03925af18015610a39577f38a556a122683cb48d496614a7a03605b6c2c0482342924caf483386980ecc9f946080946109fd92610a1a575b5061263a565b60405192888452602084015260408301526060820152a138610873565b610a329060203d6020116106a8576106998183612112565b50386109f7565b6040513d6000823e3d90fd5b634e487b7160e01b600052601160045260246000fd5b90916020823d602011610a87575b81610a7660209383612112565b8101031261013c5750519038610944565b3d9150610a69565b60405162461bcd60e51b815260206004820152602660248201527f43616e6e6f7420756e7374616b65206d6f7265207468616e207374616b656420604482015265185b5bdd5b9d60d21b6064820152608490fd5b634e487b7160e01b86526011600452602486fd5b5092945061070d90612356565b5092919050610720565b50821515610518565b60405162461bcd60e51b8152602060048201526011602482015270496e76616c69642042544320707269636560781b6044820152606490fd5b610b689060203d6020116106a8576106998183612112565b50386104d1565b6040513d87823e3d90fd5b60405162461bcd60e51b815260206004820152601760248201527f4f6e6c7920626f72726f7765722063616e2072657061790000000000000000006044820152606490fd5b503461013c57602036600319011261013c576004356001600160a01b038181169182900361044857610bf690600854163314612454565b6001600160601b0360a01b600354161760035580f35b503461013c576020908160031936011261013c5790600435825260058152600c60408320018054610c3c816121f0565b90610c4a6040519283612112565b8082528382018093865284862086915b838310610cbe57505050506040519280840191818552518092526040840192945b828110610c885784840385f35b85518051855280830151858401526040808201511515908601526060908101519085015294810194608090930192600101610c7b565b60048760019260409a9997989a51610cd5816120c4565b85548152848601548382015260ff60028701541615156040820152600386015460608201528152019201920191909694939596610c5a565b503461013c5760a036600319011261013c5760643567ffffffffffffffff811161194357610d3f90369060040161202b565b9060843567ffffffffffffffff811161193f57610d6090369060040161202b565b926004351561190957602435156118d157338552600660205260ff604086205416611880578381036118265780156117eb57601460043502916004358304601403610ae357610db460648404600435612349565b6009546040516323b872dd60e01b8152336004820152306024820152606480870460448301529296929091602091839182908c906001600160a01b03165af180156117e0576117c1575b509084929160405160208101903360601b825242603482015260348152610e24816120f6565b519020968789526005602052606460408a209689885560018801336001600160601b0360a01b825416179055600435600a89015586600289015504600387015560443560048701556024356005870155426007870155610e82612180565b600887015560098601805460ff19166001179055600e86018590558893845b8181106115705750505050500361151a57670de0b6b3a764000060443502906044358204670de0b6b3a76400001460443515171561150657610ee76104b0830484612225565b6104b08304670de0b6b3a76400000180670de0b6b3a7640000116112e85780156114f257610f229060243590670de0b6b3a764000004612391565b670de0b6b3a76400000390670de0b6b3a764000082116112e857600691610f4891612238565b91015582845260056020526040842091600683015485915b6024358310611398578686600754600160401b81101561138457806001610f8a9201600755612077565b815460001960039290921b91821b19169083901b179055338252600660209081526040808420805460ff1916600190811790915583855260058352818520600a8101546009549254935163095ea7b360e01b81526001600160a01b039485166004820152602481018290529194909391929091839160449183918a91165af18015610b6f57611365575b50604051611021816120f6565b6002815260403660208301376009546001600160a01b031661104282612208565b526002546001600160a01b031661105882612215565b52600354604051633fabe5a360e21b81529060a090829060049082906001600160a01b03165afa908115611291578691611331575b50858113156112fc576305f5e1008084029084820414841517156112e857906110b591612238565b80606281020460621481151715610ae3576001546001600160a01b0316914261012c8101106112e857916111139391878094604051968795869485936338ed173960e01b855261012c420192606460623094020490600487016122df565b03925af180156112dd5761112e9185916112bb575b50612215565b518284526005602090815260408086206002548754925163095ea7b360e01b81526001600160a01b0393841660048201526024810186905291939192839160449183918b91165af180156112915761129c575b50845460025486916001600160a01b039182169116803b156104485760848392604051948593849263617ba03760e01b845260048401528860248401523060448401528160648401525af1801561129157611260575b506080927faeec09af87559b9077da2e499d1fad2e228d7c24cb4b566fe61976820abaadda6060846002857f65410888fb30edd04f6acfb2f6cfd92aaf0ebb9b5303b6286d65d0b031b5b7f79997600d60039801550154906040519187835260208301526040820152a1015460405191825260043560208301526040820152336060820152a180f35b67ffffffffffffffff819692961161127d576040529360806111d7565b634e487b7160e01b82526041600452602482fd5b6040513d88823e3d90fd5b6112b49060203d6020116106a8576106998183612112565b5085611181565b6112d791503d8087833e6112cf8183612112565b810190612265565b85611128565b6040513d86823e3d90fd5b634e487b7160e01b87526011600452602487fd5b60405162461bcd60e51b815260206004820152600d60248201526c496e76616c696420707269636560981b6044820152606490fd5b611353915060a03d60a01161135e575b61134b8183612112565b81019061214b565b50505090508661108d565b503d611341565b61137d9060203d6020116106a8576106998183612112565b5084611014565b634e487b7160e01b83526041600452602483fd5b670de0b6b3a76400006113af6104b0860483612225565b04906113bb8284612349565b916024356000198101116114de576024356000190185146114c9575b62278d0085818102048114861517156114b5576113f690860242612258565b60405191611403836120c4565b84835260208301528960408301526060820152600c870154600160401b8110156114a15780600161143d9201600c8a0155600c8901612438565b91909161148d5791611487939160036060856114819651845560208101516001850155600284016040820151151560ff801983541691161790550151910155612349565b92612356565b91610f60565b634e487b7160e01b8a5260048a905260248afd5b634e487b7160e01b8a52604160045260248afd5b634e487b7160e01b8a52601160045260248afd5b92509050806114d88382612258565b926113d7565b634e487b7160e01b89526011600452602489fd5b634e487b7160e01b87526012600452602487fd5b634e487b7160e01b85526011600452602485fd5b60405162461bcd60e51b815260206004820152602860248201527f436f6c6c656374656420616d6f756e7420646f65736e2774206d6174636820706044820152671c9a5b98da5c185b60c21b6064820152608490fd5b90919293949550611582818386612365565b356001600160a01b03811681036117bd5761159e828588612365565b35968715611780578b9060206115f460018060a01b03600954168b6040519586809481936323b872dd60e01b8352308b6004850160409194939294606082019560018060a01b0380921683521660208201520152565b03925af190811561177557611610928a92611756575b50612258565b9660018060a01b0382168c52600460205260408c20611630828254612258565b90556104b061164c60243561164760443585612225565b612225565b0490604051928360a081011067ffffffffffffffff60a0860111176117425760a0840160405260018060a01b03168352602083015260408201528a60608201528a6080820152600b880154600160401b81101561172e578060016116b99201600b8b0155600b8a01612375565b91909161171a57805182546001600160a01b0319166001600160a01b03919091161782556020810151600183015560408101516002830155606081015160038301556080015160049091015561170e90612356565b90879594939291610ea1565b634e487b7160e01b8c5260048c905260248cfd5b634e487b7160e01b8c52604160045260248cfd5b634e487b7160e01b8e52604160045260248efd5b61176e9060203d6020116106a8576106998183612112565b503861160a565b6040513d8f823e3d90fd5b60405162461bcd60e51b8152602060048201526015602482015274125b9d985b1a59081b195b99195c88185b5bdd5b9d605a1b6044820152606490fd5b8a80fd5b6117d99060203d6020116106a8576106998183612112565b5038610dfe565b6040513d8a823e3d90fd5b60405162461bcd60e51b8152602060048201526013602482015272139bc81b195b99195c9cc81c1c9bdd9a591959606a1b6044820152606490fd5b60405162461bcd60e51b815260206004820152602c60248201527f4c656e6465722061646472657373657320616e6420616d6f756e7473206c656e60448201526b0cee8d040dad2e6dac2e8c6d60a31b6064820152608490fd5b60405162461bcd60e51b815260206004820152602360248201527f426f72726f77657220616c72656164792068617320616e20616374697665206c60448201526237b0b760e91b6064820152608490fd5b60405162461bcd60e51b815260206004820152601060248201526f24b73b30b634b210323ab930ba34b7b760811b6044820152606490fd5b60405162461bcd60e51b815260206004820152600e60248201526d125b9d985b1a5908185b5bdd5b9d60921b6044820152606490fd5b8380fd5b5080fd5b503461013c57602036600319011261013c576004356001600160a01b03818116918290036104485761197e90600854163314612454565b6001600160601b0360a01b600154161760015580f35b503461013c57602036600319011261013c576004356001600160a01b0381811691829003610448576119cb90600854163314612454565b81546001600160a01b03191617815580f35b503461013c57602036600319011261013c576004356001600160a01b03811690819003611943578160409160209352600483522054604051908152f35b503461013c576020806003193601126119435760043560018060a01b03611a4681600854163314612454565b8184526005835260408420926009908185019182549260ff611a698186166124aa565b88908990600c8a018054925b838110611cb057505050506276a7001015611c565760ff1980941690556001808701938585541689526006845260408920908154169055600d87015480611c46575b50600380880154600e8901549182611b2b575b8a7fcab88a55906c5830a49dddd8b31d115294a5e6c4210f25fe140530a39c51dc748a8a8a541690611b25611afd612180565b604080519384526001600160a01b039094166020840152928201929092529081906060820190565b0390a180f35b9091928099600b8c9101915b611b42575b50611aca565b8154811015611c4157611b558183612375565b50611b678c8201548583015490612349565b8c8115611c305750670de0b6b3a7640000908181029081048203611c1c578796959493928f9192611ba5611b9f611be19b8e96612238565b89612225565b04918d808c541692541690604051809b8195829463a9059cbb60e01b84526004840160209093929193604081019460018060a01b031681520152565b03925af1908115611775578c96611bfc92611c065750612356565b9091929394611b37565b6106a1908a3d8c116106a8576106998183612112565b634e487b7160e01b8f52601160045260248ffd5b96959493929050611bfc9150612356565b611b3c565b611c5090876124eb565b38611ab7565b60405162461bcd60e51b815260048101849052602c60248201527f4c6f616e206973206e6f74206f766572647565206265796f6e642033206d6f6e60448201526b1d1a1cc81a5b881d1bdd185b60a21b6064820152608490fd5b611cba8183612438565b5083600282015416611cd25760030154804211611ce1575b50611cdc90612356565b611a75565b611cdc9195611cf3611cf99242612349565b90612258565b9490611cd2565b503461013c57602036600319011261013c576004356001600160a01b038116908190036119435760408260ff9260209452600684522054166040519015158152f35b503461013c578060031936011261013c576009546040516001600160a01b039091168152602090f35b503461013c578060031936011261013c576002546040516001600160a01b039091168152602090f35b503461013c57602036600319011261013c57611dbb60018060a01b03600854163314612454565b600435815260056020526040812060098101805491611ddc60ff84166124aa565b611de4612180565b91600d82016305f5e100611df9858354612225565b0491600e84019283546069810290808204606914901517156114de576064900410611fc85760ff1995861690556001830180546001600160a01b0316875260066020526040872080549096169095555480611fb6575b50600382015490549182611eae575b505091546040805160043581526001600160a01b0390921660208301528101919091527fcab88a55906c5830a49dddd8b31d115294a5e6c4210f25fe140530a39c51dc7491508060608101611b25565b909192855b600b830154811015611f8957611ecc81600b8501612375565b50611ee06001820154600383015490612349565b8015611f7e5780670de0b6b3a7640000810204670de0b6b3a7640000036114de57611f609291670de0b6b3a7640000611f20611b9f8a8360209602612238565b600954925460405163a9059cbb60e01b81526001600160a01b039182166004820152929091046024830152909485929091169082908c9082906044820190565b03925af19182156117e057611f79926106805750612356565b611eb3565b5050611f7990612356565b50925050507fcab88a55906c5830a49dddd8b31d115294a5e6c4210f25fe140530a39c51dc743880611e5e565b611fc2906004356124eb565b38611e4f565b60405162461bcd60e51b815260206004820152603560248201527f4254432076616c756520686173206e6f742064726f707065642062656c6f77206044820152741b1a5c5d5a59185d1a5bdb881d1a1c995cda1bdb19605a1b6064820152608490fd5b9181601f8401121561205c5782359167ffffffffffffffff831161205c576020808501948460051b01011161205c57565b600080fd5b604090600319011261205c576004359060243590565b6007548110156120ae5760076000527fa66cc928b5edb82af9bd49922954155ab7b0942694bea4ce44661d9a8736c6880190600090565b634e487b7160e01b600052603260045260246000fd5b6080810190811067ffffffffffffffff8211176120e057604052565b634e487b7160e01b600052604160045260246000fd5b6060810190811067ffffffffffffffff8211176120e057604052565b90601f8019910116810190811067ffffffffffffffff8211176120e057604052565b519069ffffffffffffffffffff8216820361205c57565b908160a091031261205c5761215f81612134565b9160208201519160408101519161217d608060608401519301612134565b90565b600354604051633fabe5a360e21b81529060a090829060049082906001600160a01b03165afa908115610a39576000916121b8575090565b6121d0915060a03d811161135e5761134b8183612112565b505050905090565b9081602091031261205c5751801515810361205c5790565b67ffffffffffffffff81116120e05760051b60200190565b8051156120ae5760200190565b8051600110156120ae5760400190565b81810292918115918404141715610a4557565b8115612242570490565b634e487b7160e01b600052601260045260246000fd5b91908201809211610a4557565b602090818184031261205c5780519067ffffffffffffffff821161205c57019180601f8401121561205c57825161229b816121f0565b936122a96040519586612112565b818552838086019260051b82010192831161205c578301905b8282106122d0575050505090565b815181529083019083016122c2565b9291909594939560a084019084526020918285015260a0604085015282518091528160c0850193019160005b82811061232c5750505050906080919460018060a01b031660608201520152565b83516001600160a01b03168552938101939281019260010161230b565b91908203918211610a4557565b6000198114610a455760010190565b91908110156120ae5760051b0190565b80548210156120ae576000526005602060002091020190600090565b90801561243157811561242a578180600114612422576002146124115760208110610133831016604e8210600b8410161761240c57600190815b8082116123e357505081600019048111610a45570290565b909280600019048111610a4557818416612403575b800292811c906123cb565b809202916123f8565b900a90565b905060ff8111610a45576001901b90565b505050600190565b5050600090565b5050600190565b80548210156120ae5760005260206000209060021b0190600090565b1561245b57565b60405162461bcd60e51b815260206004820152602160248201527f4f6e6c79206f776e65722063616e2063616c6c20746869732066756e6374696f6044820152603760f91b6064820152608490fd5b156124b157565b60405162461bcd60e51b81526020600482015260126024820152714c6f616e206973206e6f742061637469766560701b6044820152606490fd5b9060009082825260209060058252604090600d82852001805482116125e75784546002548451631a4ca37b60e21b81526001600160a01b03918216600482015260248101949094523060448501528591849160649183918a91165af19182156125dd5785926125a9575b5091818361258a7f38a556a122683cb48d496614a7a03605b6c2c0482342924caf483386980ecc9f9896946080989654612349565b90556125958161263a565b9282519586528501528301526060820152a1565b9091508381813d83116125d6575b6125c18183612112565b810103126125d25751906080612555565b8480fd5b503d6125b7565b83513d87823e3d90fd5b825162461bcd60e51b815260048101859052602660248201527f43616e6e6f7420756e7374616b65206d6f7265207468616e207374616b656420604482015265185b5bdd5b9d60d21b6064820152608490fd5b6002546001546040805163095ea7b360e01b81526001600160a01b03928316600482015260248101859052600095949193919291602090829060449082908a9087165af1801561278757612769575b508251612695816120f6565b600281528336602083013781600254166126ae82612208565b5281600954166126bd82612215565b52605f830291838304605f14841517156112e857600154169061012c4201938442116127555790878094939261270e8851978896879586946338ed173960e01b8652606430930490600487016122df565b03925af191821561274c57508361272d939492612731575b5050612215565b5190565b61274592503d8091833e6112cf8183612112565b3880612726565b513d85823e3d90fd5b634e487b7160e01b88526011600452602488fd5b6127809060203d81116106a8576106998183612112565b5038612689565b84513d88823e3d90fdfea264697066735822122092f7bc7c142bab4357a1d2fcf3e7131109a8f8d130feffa12e05fd3a9aaa33cf64736f6c63430008140033","opcodes":"PUSH1 0x80 CALLVALUE PUSH3 0xEC JUMPI PUSH1 0x1F PUSH3 0x28E4 CODESIZE DUP2 SWAP1 SUB SWAP2 DUP3 ADD PUSH1 0x1F NOT AND DUP4 ADD SWAP2 PUSH1 0x1 PUSH1 0x1 PUSH1 0x40 SHL SUB DUP4 GT DUP5 DUP5 LT OR PUSH3 0xF1 JUMPI DUP1 DUP5 SWAP3 PUSH1 0xA0 SWAP5 PUSH1 0x40 MSTORE DUP4 CODECOPY DUP2 ADD SUB SLT PUSH3 0xEC JUMPI PUSH3 0x4D DUP2 PUSH3 0x107 JUMP JUMPDEST SWAP1 PUSH3 0x5C PUSH1 0x20 DUP3 ADD PUSH3 0x107 JUMP JUMPDEST SWAP1 PUSH3 0x6B PUSH1 0x40 DUP3 ADD PUSH3 0x107 JUMP JUMPDEST SWAP2 PUSH3 0x88 PUSH1 0x80 PUSH3 0x80 PUSH1 0x60 DUP6 ADD PUSH3 0x107 JUMP JUMPDEST SWAP4 ADD PUSH3 0x107 JUMP JUMPDEST SWAP2 PUSH1 0x1 DUP1 PUSH1 0xA0 SHL SUB NOT SWAP5 CALLER DUP7 PUSH1 0x8 SLOAD AND OR PUSH1 0x8 SSTORE PUSH1 0x1 DUP1 PUSH1 0xA0 SHL SUB SWAP5 DUP6 DUP1 SWAP5 DUP2 DUP1 SWAP5 AND DUP10 PUSH1 0x9 SLOAD AND OR PUSH1 0x9 SSTORE AND DUP8 PUSH1 0x2 SLOAD AND OR PUSH1 0x2 SSTORE AND DUP6 PUSH1 0x3 SLOAD AND OR PUSH1 0x3 SSTORE AND DUP4 PUSH1 0x0 SLOAD AND OR PUSH1 0x0 SSTORE AND SWAP1 PUSH1 0x1 SLOAD AND OR PUSH1 0x1 SSTORE PUSH1 0x40 MLOAD PUSH2 0x27C7 SWAP1 DUP2 PUSH3 0x11D DUP3 CODECOPY RETURN JUMPDEST PUSH1 0x0 DUP1 REVERT JUMPDEST PUSH4 0x4E487B71 PUSH1 0xE0 SHL PUSH1 0x0 MSTORE PUSH1 0x41 PUSH1 0x4 MSTORE PUSH1 0x24 PUSH1 0x0 REVERT JUMPDEST MLOAD SWAP1 PUSH1 0x1 PUSH1 0x1 PUSH1 0xA0 SHL SUB DUP3 AND DUP3 SUB PUSH3 0xEC JUMPI JUMP INVALID PUSH1 0x80 PUSH1 0x40 MSTORE PUSH1 0x4 CALLDATASIZE LT ISZERO PUSH2 0x12 JUMPI PUSH1 0x0 DUP1 REVERT JUMPDEST PUSH1 0x0 DUP1 CALLDATALOAD PUSH1 0xE0 SHR DUP1 PUSH4 0xA71096E EQ PUSH2 0x1D94 JUMPI DUP1 PUSH4 0xE462386 EQ PUSH2 0x1D6B JUMPI DUP1 PUSH4 0x11EAC855 EQ PUSH2 0x1D42 JUMPI DUP1 PUSH4 0x21D4F8DB EQ PUSH2 0x1D00 JUMPI DUP1 PUSH4 0x28830D47 EQ PUSH2 0x1A1A JUMPI DUP1 PUSH4 0x28FD10D7 EQ PUSH2 0x19DD JUMPI DUP1 PUSH4 0x349F937C EQ PUSH2 0x1994 JUMPI DUP1 PUSH4 0x41273657 EQ PUSH2 0x1947 JUMPI DUP1 PUSH4 0x66FB6E5A EQ PUSH2 0xD0D JUMPI DUP1 PUSH4 0x6C1945AE EQ PUSH2 0xC0C JUMPI DUP1 PUSH4 0x7A9B0412 EQ PUSH2 0xBBF JUMPI DUP1 PUSH4 0x80F2122C EQ PUSH2 0x44C JUMPI DUP1 PUSH4 0x83CD8FCF EQ PUSH2 0x3FB JUMPI DUP1 PUSH4 0x8DA5CB5B EQ PUSH2 0x3D2 JUMPI DUP1 PUSH4 0x98D5FDCA EQ PUSH2 0x3AF JUMPI DUP1 PUSH4 0xA03E4BC3 EQ PUSH2 0x388 JUMPI DUP1 PUSH4 0xC31C9C07 EQ PUSH2 0x35F JUMPI DUP1 PUSH4 0xC4A90815 EQ PUSH2 0x2A1 JUMPI DUP1 PUSH4 0xC9642D2A EQ PUSH2 0x168 JUMPI DUP1 PUSH4 0xEF06E72C EQ PUSH2 0x13F JUMPI PUSH4 0xF8715A42 EQ PUSH2 0x104 JUMPI PUSH1 0x0 DUP1 REVERT JUMPDEST CALLVALUE PUSH2 0x13C JUMPI PUSH1 0x20 CALLDATASIZE PUSH1 0x3 NOT ADD SLT PUSH2 0x13C JUMPI PUSH1 0x4 CALLDATALOAD SWAP1 PUSH1 0x7 SLOAD DUP3 LT ISZERO PUSH2 0x13C JUMPI PUSH1 0x20 PUSH2 0x12E DUP4 PUSH2 0x2077 JUMP JUMPDEST SWAP1 SLOAD PUSH1 0x40 MLOAD SWAP2 PUSH1 0x3 SHL SHR DUP2 MSTORE RETURN JUMPDEST DUP1 REVERT JUMPDEST POP CALLVALUE PUSH2 0x13C JUMPI DUP1 PUSH1 0x3 NOT CALLDATASIZE ADD SLT PUSH2 0x13C JUMPI PUSH1 0x3 SLOAD PUSH1 0x40 MLOAD PUSH1 0x1 PUSH1 0x1 PUSH1 0xA0 SHL SUB SWAP1 SWAP2 AND DUP2 MSTORE PUSH1 0x20 SWAP1 RETURN JUMPDEST POP CALLVALUE PUSH2 0x13C JUMPI PUSH2 0x177 CALLDATASIZE PUSH2 0x2061 JUMP JUMPDEST SWAP1 PUSH2 0x18D PUSH1 0x1 DUP1 PUSH1 0xA0 SHL SUB PUSH1 0x8 SLOAD AND CALLER EQ PUSH2 0x2454 JUMP JUMPDEST DUP1 DUP4 MSTORE PUSH1 0x5 PUSH1 0x20 MSTORE PUSH1 0xC PUSH1 0x40 DUP5 KECCAK256 PUSH2 0x1AB PUSH1 0xFF PUSH1 0x9 DUP4 ADD SLOAD AND PUSH2 0x24AA JUMP JUMPDEST ADD SWAP1 DUP2 SLOAD DUP4 LT ISZERO PUSH2 0x25C JUMPI PUSH1 0xFF PUSH1 0x2 PUSH2 0x1C4 DUP6 DUP6 PUSH2 0x2438 JUMP JUMPDEST POP ADD SLOAD AND PUSH2 0x217 JUMPI DUP3 PUSH1 0x2 PUSH2 0x1FC PUSH32 0x3D05AC2057427AC2F84502E7EFEFEBF5AE10D9529129C2979CE60FB97D460614 SWAP6 PUSH1 0x40 SWAP6 PUSH2 0x2438 JUMP JUMPDEST POP ADD DUP1 SLOAD PUSH1 0xFF NOT AND PUSH1 0x1 OR SWAP1 SSTORE DUP3 MLOAD SWAP2 DUP3 MSTORE PUSH1 0x20 DUP3 ADD MSTORE LOG1 DUP1 RETURN JUMPDEST PUSH1 0x40 MLOAD PUSH3 0x461BCD PUSH1 0xE5 SHL DUP2 MSTORE PUSH1 0x20 PUSH1 0x4 DUP3 ADD MSTORE PUSH1 0x1F PUSH1 0x24 DUP3 ADD MSTORE PUSH32 0x496E7374616C6C6D656E7420616C7265616479206D61726B6564207061696400 PUSH1 0x44 DUP3 ADD MSTORE PUSH1 0x64 SWAP1 REVERT JUMPDEST PUSH1 0x40 MLOAD PUSH3 0x461BCD PUSH1 0xE5 SHL DUP2 MSTORE PUSH1 0x20 PUSH1 0x4 DUP3 ADD MSTORE PUSH1 0x19 PUSH1 0x24 DUP3 ADD MSTORE PUSH32 0x496E76616C696420696E7374616C6C6D656E7420696E64657800000000000000 PUSH1 0x44 DUP3 ADD MSTORE PUSH1 0x64 SWAP1 REVERT JUMPDEST POP CALLVALUE PUSH2 0x13C JUMPI PUSH1 0x20 CALLDATASIZE PUSH1 0x3 NOT ADD SLT PUSH2 0x13C JUMPI PUSH1 0x40 PUSH2 0x1A0 SWAP2 PUSH1 0x4 CALLDATALOAD DUP2 MSTORE PUSH1 0x5 PUSH1 0x20 MSTORE KECCAK256 DUP1 SLOAD SWAP1 PUSH1 0x1 DUP1 PUSH1 0xA0 SHL SUB PUSH1 0x1 DUP3 ADD SLOAD AND SWAP1 PUSH1 0x2 DUP2 ADD SLOAD PUSH1 0x3 DUP3 ADD SLOAD PUSH1 0x4 DUP4 ADD SLOAD PUSH1 0x5 DUP5 ADD SLOAD PUSH1 0x6 DUP6 ADD SLOAD PUSH1 0x7 DUP7 ADD SLOAD SWAP2 PUSH1 0x8 DUP8 ADD SLOAD SWAP4 PUSH1 0xFF PUSH1 0x9 DUP10 ADD SLOAD AND SWAP6 PUSH1 0xA DUP10 ADD SLOAD SWAP8 PUSH1 0xE PUSH1 0xD DUP12 ADD SLOAD SWAP11 ADD SLOAD SWAP11 PUSH1 0x40 MLOAD SWAP13 DUP14 MSTORE PUSH1 0x20 DUP14 ADD MSTORE PUSH1 0x40 DUP13 ADD MSTORE PUSH1 0x60 DUP12 ADD MSTORE PUSH1 0x80 DUP11 ADD MSTORE PUSH1 0xA0 DUP10 ADD MSTORE PUSH1 0xC0 DUP9 ADD MSTORE PUSH1 0xE0 DUP8 ADD MSTORE PUSH2 0x100 DUP7 ADD MSTORE ISZERO ISZERO PUSH2 0x120 DUP6 ADD MSTORE PUSH2 0x140 DUP5 ADD MSTORE PUSH2 0x160 DUP4 ADD MSTORE PUSH2 0x180 DUP3 ADD MSTORE RETURN JUMPDEST POP CALLVALUE PUSH2 0x13C JUMPI DUP1 PUSH1 0x3 NOT CALLDATASIZE ADD SLT PUSH2 0x13C JUMPI PUSH1 0x1 SLOAD PUSH1 0x40 MLOAD PUSH1 0x1 PUSH1 0x1 PUSH1 0xA0 SHL SUB SWAP1 SWAP2 AND DUP2 MSTORE PUSH1 0x20 SWAP1 RETURN JUMPDEST POP CALLVALUE PUSH2 0x13C JUMPI DUP1 PUSH1 0x3 NOT CALLDATASIZE ADD SLT PUSH2 0x13C JUMPI SLOAD PUSH1 0x40 MLOAD PUSH1 0x1 PUSH1 0x1 PUSH1 0xA0 SHL SUB SWAP1 SWAP2 AND DUP2 MSTORE PUSH1 0x20 SWAP1 RETURN JUMPDEST POP CALLVALUE PUSH2 0x13C JUMPI DUP1 PUSH1 0x3 NOT CALLDATASIZE ADD SLT PUSH2 0x13C JUMPI PUSH1 0x20 PUSH2 0x3CA PUSH2 0x2180 JUMP JUMPDEST PUSH1 0x40 MLOAD SWAP1 DUP2 MSTORE RETURN JUMPDEST POP CALLVALUE PUSH2 0x13C JUMPI DUP1 PUSH1 0x3 NOT CALLDATASIZE ADD SLT PUSH2 0x13C JUMPI PUSH1 0x8 SLOAD PUSH1 0x40 MLOAD PUSH1 0x1 PUSH1 0x1 PUSH1 0xA0 SHL SUB SWAP1 SWAP2 AND DUP2 MSTORE PUSH1 0x20 SWAP1 RETURN JUMPDEST POP CALLVALUE PUSH2 0x13C JUMPI PUSH1 0x20 CALLDATASIZE PUSH1 0x3 NOT ADD SLT PUSH2 0x13C JUMPI PUSH1 0x4 CALLDATALOAD PUSH1 0x1 PUSH1 0x1 PUSH1 0xA0 SHL SUB DUP2 DUP2 AND SWAP2 DUP3 SWAP1 SUB PUSH2 0x448 JUMPI PUSH2 0x432 SWAP1 PUSH1 0x8 SLOAD AND CALLER EQ PUSH2 0x2454 JUMP JUMPDEST PUSH1 0x1 PUSH1 0x1 PUSH1 0x60 SHL SUB PUSH1 0xA0 SHL PUSH1 0x2 SLOAD AND OR PUSH1 0x2 SSTORE DUP1 RETURN JUMPDEST DUP3 DUP1 REVERT JUMPDEST POP CALLVALUE PUSH2 0x13C JUMPI PUSH2 0x45B CALLDATASIZE PUSH2 0x2061 JUMP JUMPDEST DUP2 DUP4 MSTORE PUSH1 0x5 PUSH1 0x20 MSTORE PUSH1 0x40 DUP4 KECCAK256 PUSH2 0x477 PUSH1 0xFF PUSH1 0x9 DUP4 ADD SLOAD AND PUSH2 0x24AA JUMP JUMPDEST PUSH1 0x1 DUP2 ADD SLOAD PUSH1 0x1 PUSH1 0x1 PUSH1 0xA0 SHL SUB AND CALLER SUB PUSH2 0xB7A JUMPI PUSH1 0x9 SLOAD PUSH1 0x40 MLOAD PUSH4 0x23B872DD PUSH1 0xE0 SHL DUP2 MSTORE CALLER PUSH1 0x4 DUP3 ADD MSTORE ADDRESS PUSH1 0x24 DUP3 ADD MSTORE PUSH1 0x44 DUP2 ADD DUP5 SWAP1 MSTORE SWAP1 PUSH1 0x20 SWAP1 DUP3 SWAP1 PUSH1 0x64 SWAP1 DUP3 SWAP1 DUP10 SWAP1 PUSH1 0x1 PUSH1 0x1 PUSH1 0xA0 SHL SUB AND GAS CALL DUP1 ISZERO PUSH2 0xB6F JUMPI PUSH2 0xB50 JUMPI JUMPDEST POP PUSH1 0x8 DUP2 ADD SLOAD DUP1 ISZERO PUSH2 0xB17 JUMPI PUSH8 0xDE0B6B3A7640000 DUP4 MUL DUP4 DUP2 DIV PUSH8 0xDE0B6B3A7640000 EQ DUP5 ISZERO OR ISZERO PUSH2 0xAE3 JUMPI SWAP1 PUSH2 0x507 SWAP2 PUSH2 0x2238 JUMP JUMPDEST DUP5 SWAP2 DUP6 JUMPDEST PUSH1 0xC DUP3 ADD SLOAD DUP2 LT DUP1 PUSH2 0xB0E JUMPI JUMPDEST ISZERO PUSH2 0xB04 JUMPI PUSH2 0x52A DUP2 PUSH1 0xC DUP5 ADD PUSH2 0x2438 JUMP JUMPDEST POP SWAP5 PUSH1 0x2 DUP7 ADD SLOAD PUSH1 0xFF DUP2 AND PUSH2 0xAF7 JUMPI DUP7 SLOAD SWAP5 PUSH1 0x1 DUP9 ADD SLOAD SWAP8 PUSH2 0x54C DUP10 DUP9 PUSH2 0x2258 JUMP JUMPDEST SWAP3 DUP4 DUP4 LT PUSH2 0x715 JUMPI SWAP3 DUP8 SWAP3 PUSH2 0x570 SWAP3 PUSH1 0x2 PUSH1 0x1 PUSH2 0x576 SWAP8 PUSH1 0xFF NOT AND OR SWAP2 ADD SSTORE PUSH2 0x2349 JUMP JUMPDEST SWAP7 PUSH2 0x2258 JUMP JUMPDEST SWAP5 PUSH1 0x2 DUP5 ADD SLOAD SWAP6 DUP10 JUMPDEST PUSH1 0xB DUP7 ADD SLOAD DUP2 LT ISZERO PUSH2 0x6CE JUMPI PUSH2 0x598 DUP2 PUSH1 0xB DUP9 ADD PUSH2 0x2375 JUMP JUMPDEST POP PUSH1 0x1 DUP2 ADD SLOAD DUP1 PUSH8 0xDE0B6B3A7640000 DUP2 MUL DIV PUSH8 0xDE0B6B3A7640000 EQ DUP2 ISZERO OR ISZERO PUSH2 0x6BA JUMPI DUP13 PUSH2 0x661 SWAP4 SWAP3 DUP13 PUSH2 0x631 PUSH8 0xDE0B6B3A7640000 PUSH2 0x5F6 DUP16 DUP16 SWAP1 PUSH2 0x5EF PUSH2 0x5E8 DUP6 SWAP3 DUP4 PUSH1 0x20 SWAP13 MUL PUSH2 0x2238 JUMP JUMPDEST DUP1 SWAP4 PUSH2 0x2225 JUMP JUMPDEST DIV SWAP5 PUSH2 0x2225 JUMP JUMPDEST DIV PUSH1 0x3 DUP5 ADD PUSH2 0x606 DUP5 DUP3 SLOAD PUSH2 0x2258 JUMP JUMPDEST SWAP1 SSTORE PUSH1 0x4 DUP5 ADD PUSH2 0x617 DUP3 DUP3 SLOAD PUSH2 0x2258 JUMP JUMPDEST SWAP1 SSTORE PUSH1 0x9 SLOAD SWAP4 SLOAD PUSH1 0x1 PUSH1 0x1 PUSH1 0xA0 SHL SUB SWAP5 DUP6 AND SWAP5 AND SWAP3 PUSH2 0x2258 JUMP JUMPDEST PUSH1 0x40 MLOAD PUSH4 0xA9059CBB PUSH1 0xE0 SHL DUP2 MSTORE PUSH1 0x1 PUSH1 0x1 PUSH1 0xA0 SHL SUB SWAP1 SWAP3 AND PUSH1 0x4 DUP4 ADD MSTORE PUSH1 0x24 DUP3 ADD MSTORE SWAP5 DUP6 SWAP3 DUP4 SWAP2 DUP3 SWAP1 PUSH1 0x44 DUP3 ADD SWAP1 JUMP JUMPDEST SUB SWAP3 GAS CALL SWAP2 DUP3 ISZERO PUSH2 0x6AF JUMPI PUSH2 0x67B SWAP3 PUSH2 0x680 JUMPI JUMPDEST POP PUSH2 0x2356 JUMP JUMPDEST PUSH2 0x57F JUMP JUMPDEST PUSH2 0x6A1 SWAP1 PUSH1 0x20 RETURNDATASIZE PUSH1 0x20 GT PUSH2 0x6A8 JUMPI JUMPDEST PUSH2 0x699 DUP2 DUP4 PUSH2 0x2112 JUMP JUMPDEST DUP2 ADD SWAP1 PUSH2 0x21D8 JUMP JUMPDEST POP CODESIZE PUSH2 0x675 JUMP JUMPDEST POP RETURNDATASIZE PUSH2 0x68F JUMP JUMPDEST PUSH1 0x40 MLOAD RETURNDATASIZE DUP15 DUP3 RETURNDATACOPY RETURNDATASIZE SWAP1 REVERT JUMPDEST PUSH4 0x4E487B71 PUSH1 0xE0 SHL DUP14 MSTORE PUSH1 0x11 PUSH1 0x4 MSTORE PUSH1 0x24 DUP14 REVERT JUMPDEST POP SWAP6 POP SWAP6 POP SWAP3 POP PUSH2 0x70D SWAP1 PUSH32 0x3D05AC2057427AC2F84502E7EFEFEBF5AE10D9529129C2979CE60FB97D460614 PUSH1 0x40 DUP1 MLOAD DUP10 DUP2 MSTORE DUP4 PUSH1 0x20 DUP3 ADD MSTORE LOG1 PUSH2 0x2356 JUMP JUMPDEST SWAP4 SWAP2 SWAP4 PUSH2 0x50B JUMP JUMPDEST POP POP POP POP SWAP4 SWAP3 POP POP SWAP3 POP JUMPDEST PUSH1 0xE DUP4 ADD PUSH2 0x72F DUP3 DUP3 SLOAD PUSH2 0x2349 JUMP JUMPDEST SWAP1 SSTORE DUP1 ISZERO SWAP1 DUP2 ISZERO PUSH2 0x81B JUMPI JUMPDEST POP POP PUSH1 0x1 SWAP2 DUP5 PUSH1 0xC DUP3 ADD SLOAD SWAP1 JUMPDEST DUP2 DUP2 LT PUSH2 0x7E5 JUMPI JUMPDEST POP POP SWAP2 PUSH32 0xDC376ABD09229A842AC7D8BCADC9017651F1F1B8490750870CAE0ECD4AEDF674 SWAP4 SWAP2 PUSH1 0x80 SWAP4 DUP3 PUSH2 0x79C JUMPI JUMPDEST POP PUSH1 0x40 MLOAD SWAP3 DUP4 MSTORE CALLER PUSH1 0x20 DUP5 ADD MSTORE PUSH1 0x40 DUP4 ADD MSTORE ISZERO ISZERO PUSH1 0x60 DUP3 ADD MSTORE LOG1 DUP1 RETURN JUMPDEST PUSH1 0x9 DUP2 ADD DUP1 SLOAD PUSH1 0xFF NOT SWAP1 DUP2 AND SWAP1 SWAP2 SSTORE PUSH1 0x1 DUP3 ADD SLOAD PUSH1 0x1 PUSH1 0x1 PUSH1 0xA0 SHL SUB AND DUP9 MSTORE PUSH1 0x6 PUSH1 0x20 MSTORE PUSH1 0x40 DUP9 KECCAK256 DUP1 SLOAD SWAP1 SWAP2 AND SWAP1 SSTORE PUSH1 0xD ADD SLOAD DUP1 ISZERO PUSH2 0x77F JUMPI PUSH2 0x7DF SWAP1 DUP5 PUSH2 0x24EB JUMP JUMPDEST CODESIZE PUSH2 0x77F JUMP JUMPDEST PUSH1 0xFF PUSH1 0x2 PUSH2 0x7F6 DUP4 PUSH1 0xC DUP8 ADD PUSH2 0x2438 JUMP JUMPDEST POP ADD SLOAD AND ISZERO PUSH2 0x80D JUMPI PUSH2 0x808 SWAP1 PUSH2 0x2356 JUMP JUMPDEST PUSH2 0x748 JUMP JUMPDEST POP DUP6 SWAP4 POP DUP3 SWAP1 POP PUSH1 0x80 PUSH2 0x750 JUMP JUMPDEST DUP5 DUP7 MSTORE PUSH1 0x5 PUSH1 0x20 MSTORE PUSH1 0x40 DUP7 KECCAK256 SWAP2 PUSH8 0xDE0B6B3A7640000 DUP3 MUL SWAP2 DUP3 DIV PUSH8 0xDE0B6B3A7640000 EQ OR ISZERO PUSH2 0xAE3 JUMPI DUP2 PUSH1 0xD PUSH2 0x864 PUSH2 0x86C SWAP4 PUSH1 0x2 PUSH8 0xDE0B6B3A7640000 SWAP7 ADD SLOAD SWAP1 PUSH2 0x2238 JUMP JUMPDEST SWAP2 ADD SLOAD PUSH2 0x2225 JUMP JUMPDEST DIV DUP1 PUSH2 0x8DA JUMPI JUMPDEST POP DUP3 DUP5 MSTORE PUSH1 0x5 PUSH1 0x20 MSTORE PUSH1 0x40 DUP5 KECCAK256 DUP5 DUP6 PUSH1 0xB DUP4 ADD DUP1 SLOAD SWAP1 JUMPDEST DUP2 DUP4 LT PUSH2 0x8AE JUMPI POP POP POP PUSH2 0x8A4 PUSH1 0xE SWAP2 PUSH1 0x2 DUP5 ADD SLOAD PUSH2 0x2349 JUMP JUMPDEST SWAP2 ADD SSTORE CODESIZE DUP1 PUSH2 0x73B JUMP JUMPDEST SWAP1 SWAP2 SWAP3 PUSH2 0x8CD PUSH2 0x8D3 SWAP2 PUSH1 0x3 PUSH2 0x8C4 DUP8 DUP7 PUSH2 0x2375 JUMP JUMPDEST POP ADD SLOAD SWAP1 PUSH2 0x2258 JUMP JUMPDEST SWAP4 PUSH2 0x2356 JUMP JUMPDEST SWAP2 SWAP1 PUSH2 0x88A JUMP JUMPDEST DUP4 PUSH1 0x0 MSTORE PUSH1 0x5 PUSH1 0x20 MSTORE PUSH1 0x40 PUSH1 0x0 KECCAK256 SWAP1 PUSH1 0xD DUP3 ADD DUP1 SLOAD DUP3 GT PUSH2 0xA8F JUMPI PUSH1 0x0 DUP1 SLOAD PUSH1 0x2 SLOAD PUSH1 0x40 MLOAD PUSH4 0x1A4CA37B PUSH1 0xE2 SHL DUP2 MSTORE PUSH1 0x1 PUSH1 0x1 PUSH1 0xA0 SHL SUB SWAP2 DUP3 AND PUSH1 0x4 DUP3 ADD MSTORE PUSH1 0x24 DUP2 ADD SWAP6 SWAP1 SWAP6 MSTORE ADDRESS PUSH1 0x44 DUP7 ADD MSTORE PUSH1 0x20 SWAP3 DUP6 SWAP3 PUSH1 0x64 SWAP3 DUP5 SWAP3 SWAP2 AND GAS CALL SWAP2 DUP3 ISZERO PUSH2 0xA39 JUMPI PUSH1 0x0 SWAP3 PUSH2 0xA5B JUMPI JUMPDEST POP PUSH2 0x950 DUP3 DUP3 SLOAD PUSH2 0x2349 JUMP JUMPDEST SWAP1 SSTORE PUSH1 0x19 DUP2 MUL SWAP1 DUP1 DUP3 DIV PUSH1 0x19 EQ DUP2 ISZERO OR ISZERO PUSH2 0xA45 JUMPI PUSH1 0x64 PUSH2 0x9BF SWAP3 DIV PUSH1 0x20 DUP2 PUSH2 0x979 DUP2 DUP6 PUSH2 0x2349 JUMP JUMPDEST PUSH1 0x2 SLOAD PUSH1 0x1 SWAP1 SWAP8 ADD SLOAD PUSH1 0x40 MLOAD PUSH4 0xA9059CBB PUSH1 0xE0 SHL DUP2 MSTORE PUSH1 0x1 PUSH1 0x1 PUSH1 0xA0 SHL SUB SWAP2 DUP3 AND PUSH1 0x4 DUP3 ADD MSTORE PUSH1 0x24 DUP2 ADD SWAP4 SWAP1 SWAP4 MSTORE SWAP1 SWAP7 SWAP2 SWAP6 DUP7 SWAP3 SWAP1 SWAP2 AND SWAP1 DUP3 SWAP1 PUSH1 0x0 SWAP1 DUP3 SWAP1 PUSH1 0x44 DUP3 ADD SWAP1 JUMP JUMPDEST SUB SWAP3 GAS CALL DUP1 ISZERO PUSH2 0xA39 JUMPI PUSH32 0x38A556A122683CB48D496614A7A03605B6C2C0482342924CAF483386980ECC9F SWAP5 PUSH1 0x80 SWAP5 PUSH2 0x9FD SWAP3 PUSH2 0xA1A JUMPI JUMPDEST POP PUSH2 0x263A JUMP JUMPDEST PUSH1 0x40 MLOAD SWAP3 DUP9 DUP5 MSTORE PUSH1 0x20 DUP5 ADD MSTORE PUSH1 0x40 DUP4 ADD MSTORE PUSH1 0x60 DUP3 ADD MSTORE LOG1 CODESIZE PUSH2 0x873 JUMP JUMPDEST PUSH2 0xA32 SWAP1 PUSH1 0x20 RETURNDATASIZE PUSH1 0x20 GT PUSH2 0x6A8 JUMPI PUSH2 0x699 DUP2 DUP4 PUSH2 0x2112 JUMP JUMPDEST POP CODESIZE PUSH2 0x9F7 JUMP JUMPDEST PUSH1 0x40 MLOAD RETURNDATASIZE PUSH1 0x0 DUP3 RETURNDATACOPY RETURNDATASIZE SWAP1 REVERT JUMPDEST PUSH4 0x4E487B71 PUSH1 0xE0 SHL PUSH1 0x0 MSTORE PUSH1 0x11 PUSH1 0x4 MSTORE PUSH1 0x24 PUSH1 0x0 REVERT JUMPDEST SWAP1 SWAP2 PUSH1 0x20 DUP3 RETURNDATASIZE PUSH1 0x20 GT PUSH2 0xA87 JUMPI JUMPDEST DUP2 PUSH2 0xA76 PUSH1 0x20 SWAP4 DUP4 PUSH2 0x2112 JUMP JUMPDEST DUP2 ADD SUB SLT PUSH2 0x13C JUMPI POP MLOAD SWAP1 CODESIZE PUSH2 0x944 JUMP JUMPDEST RETURNDATASIZE SWAP2 POP PUSH2 0xA69 JUMP JUMPDEST PUSH1 0x40 MLOAD PUSH3 0x461BCD PUSH1 0xE5 SHL DUP2 MSTORE PUSH1 0x20 PUSH1 0x4 DUP3 ADD MSTORE PUSH1 0x26 PUSH1 0x24 DUP3 ADD MSTORE PUSH32 0x43616E6E6F7420756E7374616B65206D6F7265207468616E207374616B656420 PUSH1 0x44 DUP3 ADD MSTORE PUSH6 0x185B5BDD5B9D PUSH1 0xD2 SHL PUSH1 0x64 DUP3 ADD MSTORE PUSH1 0x84 SWAP1 REVERT JUMPDEST PUSH4 0x4E487B71 PUSH1 0xE0 SHL DUP7 MSTORE PUSH1 0x11 PUSH1 0x4 MSTORE PUSH1 0x24 DUP7 REVERT JUMPDEST POP SWAP3 SWAP5 POP PUSH2 0x70D SWAP1 PUSH2 0x2356 JUMP JUMPDEST POP SWAP3 SWAP2 SWAP1 POP PUSH2 0x720 JUMP JUMPDEST POP DUP3 ISZERO ISZERO PUSH2 0x518 JUMP JUMPDEST PUSH1 0x40 MLOAD PUSH3 0x461BCD PUSH1 0xE5 SHL DUP2 MSTORE PUSH1 0x20 PUSH1 0x4 DUP3 ADD MSTORE PUSH1 0x11 PUSH1 0x24 DUP3 ADD MSTORE PUSH17 0x496E76616C696420425443207072696365 PUSH1 0x78 SHL PUSH1 0x44 DUP3 ADD MSTORE PUSH1 0x64 SWAP1 REVERT JUMPDEST PUSH2 0xB68 SWAP1 PUSH1 0x20 RETURNDATASIZE PUSH1 0x20 GT PUSH2 0x6A8 JUMPI PUSH2 0x699 DUP2 DUP4 PUSH2 0x2112 JUMP JUMPDEST POP CODESIZE PUSH2 0x4D1 JUMP JUMPDEST PUSH1 0x40 MLOAD RETURNDATASIZE DUP8 DUP3 RETURNDATACOPY RETURNDATASIZE SWAP1 REVERT JUMPDEST PUSH1 0x40 MLOAD PUSH3 0x461BCD PUSH1 0xE5 SHL DUP2 MSTORE PUSH1 0x20 PUSH1 0x4 DUP3 ADD MSTORE PUSH1 0x17 PUSH1 0x24 DUP3 ADD MSTORE PUSH32 0x4F6E6C7920626F72726F7765722063616E207265706179000000000000000000 PUSH1 0x44 DUP3 ADD MSTORE PUSH1 0x64 SWAP1 REVERT JUMPDEST POP CALLVALUE PUSH2 0x13C JUMPI PUSH1 0x20 CALLDATASIZE PUSH1 0x3 NOT ADD SLT PUSH2 0x13C JUMPI PUSH1 0x4 CALLDATALOAD PUSH1 0x1 PUSH1 0x1 PUSH1 0xA0 SHL SUB DUP2 DUP2 AND SWAP2 DUP3 SWAP1 SUB PUSH2 0x448 JUMPI PUSH2 0xBF6 SWAP1 PUSH1 0x8 SLOAD AND CALLER EQ PUSH2 0x2454 JUMP JUMPDEST PUSH1 0x1 PUSH1 0x1 PUSH1 0x60 SHL SUB PUSH1 0xA0 SHL PUSH1 0x3 SLOAD AND OR PUSH1 0x3 SSTORE DUP1 RETURN JUMPDEST POP CALLVALUE PUSH2 0x13C JUMPI PUSH1 0x20 SWAP1 DUP2 PUSH1 0x3 NOT CALLDATASIZE ADD SLT PUSH2 0x13C JUMPI SWAP1 PUSH1 0x4 CALLDATALOAD DUP3 MSTORE PUSH1 0x5 DUP2 MSTORE PUSH1 0xC PUSH1 0x40 DUP4 KECCAK256 ADD DUP1 SLOAD PUSH2 0xC3C DUP2 PUSH2 0x21F0 JUMP JUMPDEST SWAP1 PUSH2 0xC4A PUSH1 0x40 MLOAD SWAP3 DUP4 PUSH2 0x2112 JUMP JUMPDEST DUP1 DUP3 MSTORE DUP4 DUP3 ADD DUP1 SWAP4 DUP7 MSTORE DUP5 DUP7 KECCAK256 DUP7 SWAP2 JUMPDEST DUP4 DUP4 LT PUSH2 0xCBE JUMPI POP POP POP POP PUSH1 0x40 MLOAD SWAP3 DUP1 DUP5 ADD SWAP2 DUP2 DUP6 MSTORE MLOAD DUP1 SWAP3 MSTORE PUSH1 0x40 DUP5 ADD SWAP3 SWAP5 JUMPDEST DUP3 DUP2 LT PUSH2 0xC88 JUMPI DUP5 DUP5 SUB DUP6 RETURN JUMPDEST DUP6 MLOAD DUP1 MLOAD DUP6 MSTORE DUP1 DUP4 ADD MLOAD DUP6 DUP5 ADD MSTORE PUSH1 0x40 DUP1 DUP3 ADD MLOAD ISZERO ISZERO SWAP1 DUP7 ADD MSTORE PUSH1 0x60 SWAP1 DUP2 ADD MLOAD SWAP1 DUP6 ADD MSTORE SWAP5 DUP2 ADD SWAP5 PUSH1 0x80 SWAP1 SWAP4 ADD SWAP3 PUSH1 0x1 ADD PUSH2 0xC7B JUMP JUMPDEST PUSH1 0x4 DUP8 PUSH1 0x1 SWAP3 PUSH1 0x40 SWAP11 SWAP10 SWAP8 SWAP9 SWAP11 MLOAD PUSH2 0xCD5 DUP2 PUSH2 0x20C4 JUMP JUMPDEST DUP6 SLOAD DUP2 MSTORE DUP5 DUP7 ADD SLOAD DUP4 DUP3 ADD MSTORE PUSH1 0xFF PUSH1 0x2 DUP8 ADD SLOAD AND ISZERO ISZERO PUSH1 0x40 DUP3 ADD MSTORE PUSH1 0x3 DUP7 ADD SLOAD PUSH1 0x60 DUP3 ADD MSTORE DUP2 MSTORE ADD SWAP3 ADD SWAP3 ADD SWAP2 SWAP1 SWAP7 SWAP5 SWAP4 SWAP6 SWAP7 PUSH2 0xC5A JUMP JUMPDEST POP CALLVALUE PUSH2 0x13C JUMPI PUSH1 0xA0 CALLDATASIZE PUSH1 0x3 NOT ADD SLT PUSH2 0x13C JUMPI PUSH1 0x64 CALLDATALOAD PUSH8 0xFFFFFFFFFFFFFFFF DUP2 GT PUSH2 0x1943 JUMPI PUSH2 0xD3F SWAP1 CALLDATASIZE SWAP1 PUSH1 0x4 ADD PUSH2 0x202B JUMP JUMPDEST SWAP1 PUSH1 0x84 CALLDATALOAD PUSH8 0xFFFFFFFFFFFFFFFF DUP2 GT PUSH2 0x193F JUMPI PUSH2 0xD60 SWAP1 CALLDATASIZE SWAP1 PUSH1 0x4 ADD PUSH2 0x202B JUMP JUMPDEST SWAP3 PUSH1 0x4 CALLDATALOAD ISZERO PUSH2 0x1909 JUMPI PUSH1 0x24 CALLDATALOAD ISZERO PUSH2 0x18D1 JUMPI CALLER DUP6 MSTORE PUSH1 0x6 PUSH1 0x20 MSTORE PUSH1 0xFF PUSH1 0x40 DUP7 KECCAK256 SLOAD AND PUSH2 0x1880 JUMPI DUP4 DUP2 SUB PUSH2 0x1826 JUMPI DUP1 ISZERO PUSH2 0x17EB JUMPI PUSH1 0x14 PUSH1 0x4 CALLDATALOAD MUL SWAP2 PUSH1 0x4 CALLDATALOAD DUP4 DIV PUSH1 0x14 SUB PUSH2 0xAE3 JUMPI PUSH2 0xDB4 PUSH1 0x64 DUP5 DIV PUSH1 0x4 CALLDATALOAD PUSH2 0x2349 JUMP JUMPDEST PUSH1 0x9 SLOAD PUSH1 0x40 MLOAD PUSH4 0x23B872DD PUSH1 0xE0 SHL DUP2 MSTORE CALLER PUSH1 0x4 DUP3 ADD MSTORE ADDRESS PUSH1 0x24 DUP3 ADD MSTORE PUSH1 0x64 DUP1 DUP8 DIV PUSH1 0x44 DUP4 ADD MSTORE SWAP3 SWAP7 SWAP3 SWAP1 SWAP2 PUSH1 0x20 SWAP2 DUP4 SWAP2 DUP3 SWAP1 DUP13 SWAP1 PUSH1 0x1 PUSH1 0x1 PUSH1 0xA0 SHL SUB AND GAS CALL DUP1 ISZERO PUSH2 0x17E0 JUMPI PUSH2 0x17C1 JUMPI JUMPDEST POP SWAP1 DUP5 SWAP3 SWAP2 PUSH1 0x40 MLOAD PUSH1 0x20 DUP2 ADD SWAP1 CALLER PUSH1 0x60 SHL DUP3 MSTORE TIMESTAMP PUSH1 0x34 DUP3 ADD MSTORE PUSH1 0x34 DUP2 MSTORE PUSH2 0xE24 DUP2 PUSH2 0x20F6 JUMP JUMPDEST MLOAD SWAP1 KECCAK256 SWAP7 DUP8 DUP10 MSTORE PUSH1 0x5 PUSH1 0x20 MSTORE PUSH1 0x64 PUSH1 0x40 DUP11 KECCAK256 SWAP7 DUP10 DUP9 SSTORE PUSH1 0x1 DUP9 ADD CALLER PUSH1 0x1 PUSH1 0x1 PUSH1 0x60 SHL SUB PUSH1 0xA0 SHL DUP3 SLOAD AND OR SWAP1 SSTORE PUSH1 0x4 CALLDATALOAD PUSH1 0xA DUP10 ADD SSTORE DUP7 PUSH1 0x2 DUP10 ADD SSTORE DIV PUSH1 0x3 DUP8 ADD SSTORE PUSH1 0x44 CALLDATALOAD PUSH1 0x4 DUP8 ADD SSTORE PUSH1 0x24 CALLDATALOAD PUSH1 0x5 DUP8 ADD SSTORE TIMESTAMP PUSH1 0x7 DUP8 ADD SSTORE PUSH2 0xE82 PUSH2 0x2180 JUMP JUMPDEST PUSH1 0x8 DUP8 ADD SSTORE PUSH1 0x9 DUP7 ADD DUP1 SLOAD PUSH1 0xFF NOT AND PUSH1 0x1 OR SWAP1 SSTORE PUSH1 0xE DUP7 ADD DUP6 SWAP1 SSTORE DUP9 SWAP4 DUP5 JUMPDEST DUP2 DUP2 LT PUSH2 0x1570 JUMPI POP POP POP POP POP SUB PUSH2 0x151A JUMPI PUSH8 0xDE0B6B3A7640000 PUSH1 0x44 CALLDATALOAD MUL SWAP1 PUSH1 0x44 CALLDATALOAD DUP3 DIV PUSH8 0xDE0B6B3A7640000 EQ PUSH1 0x44 CALLDATALOAD ISZERO OR ISZERO PUSH2 0x1506 JUMPI PUSH2 0xEE7 PUSH2 0x4B0 DUP4 DIV DUP5 PUSH2 0x2225 JUMP JUMPDEST PUSH2 0x4B0 DUP4 DIV PUSH8 0xDE0B6B3A7640000 ADD DUP1 PUSH8 0xDE0B6B3A7640000 GT PUSH2 0x12E8 JUMPI DUP1 ISZERO PUSH2 0x14F2 JUMPI PUSH2 0xF22 SWAP1 PUSH1 0x24 CALLDATALOAD SWAP1 PUSH8 0xDE0B6B3A7640000 DIV PUSH2 0x2391 JUMP JUMPDEST PUSH8 0xDE0B6B3A7640000 SUB SWAP1 PUSH8 0xDE0B6B3A7640000 DUP3 GT PUSH2 0x12E8 JUMPI PUSH1 0x6 SWAP2 PUSH2 0xF48 SWAP2 PUSH2 0x2238 JUMP JUMPDEST SWAP2 ADD SSTORE DUP3 DUP5 MSTORE PUSH1 0x5 PUSH1 0x20 MSTORE PUSH1 0x40 DUP5 KECCAK256 SWAP2 PUSH1 0x6 DUP4 ADD SLOAD DUP6 SWAP2 JUMPDEST PUSH1 0x24 CALLDATALOAD DUP4 LT PUSH2 0x1398 JUMPI DUP7 DUP7 PUSH1 0x7 SLOAD PUSH1 0x1 PUSH1 0x40 SHL DUP2 LT ISZERO PUSH2 0x1384 JUMPI DUP1 PUSH1 0x1 PUSH2 0xF8A SWAP3 ADD PUSH1 0x7 SSTORE PUSH2 0x2077 JUMP JUMPDEST DUP2 SLOAD PUSH1 0x0 NOT PUSH1 0x3 SWAP3 SWAP1 SWAP3 SHL SWAP2 DUP3 SHL NOT AND SWAP1 DUP4 SWAP1 SHL OR SWAP1 SSTORE CALLER DUP3 MSTORE PUSH1 0x6 PUSH1 0x20 SWAP1 DUP2 MSTORE PUSH1 0x40 DUP1 DUP5 KECCAK256 DUP1 SLOAD PUSH1 0xFF NOT AND PUSH1 0x1 SWAP1 DUP2 OR SWAP1 SWAP2 SSTORE DUP4 DUP6 MSTORE PUSH1 0x5 DUP4 MSTORE DUP2 DUP6 KECCAK256 PUSH1 0xA DUP2 ADD SLOAD PUSH1 0x9 SLOAD SWAP3 SLOAD SWAP4 MLOAD PUSH4 0x95EA7B3 PUSH1 0xE0 SHL DUP2 MSTORE PUSH1 0x1 PUSH1 0x1 PUSH1 0xA0 SHL SUB SWAP5 DUP6 AND PUSH1 0x4 DUP3 ADD MSTORE PUSH1 0x24 DUP2 ADD DUP3 SWAP1 MSTORE SWAP2 SWAP5 SWAP1 SWAP4 SWAP2 SWAP3 SWAP1 SWAP2 DUP4 SWAP2 PUSH1 0x44 SWAP2 DUP4 SWAP2 DUP11 SWAP2 AND GAS CALL DUP1 ISZERO PUSH2 0xB6F JUMPI PUSH2 0x1365 JUMPI JUMPDEST POP PUSH1 0x40 MLOAD PUSH2 0x1021 DUP2 PUSH2 0x20F6 JUMP JUMPDEST PUSH1 0x2 DUP2 MSTORE PUSH1 0x40 CALLDATASIZE PUSH1 0x20 DUP4 ADD CALLDATACOPY PUSH1 0x9 SLOAD PUSH1 0x1 PUSH1 0x1 PUSH1 0xA0 SHL SUB AND PUSH2 0x1042 DUP3 PUSH2 0x2208 JUMP JUMPDEST MSTORE PUSH1 0x2 SLOAD PUSH1 0x1 PUSH1 0x1 PUSH1 0xA0 SHL SUB AND PUSH2 0x1058 DUP3 PUSH2 0x2215 JUMP JUMPDEST MSTORE PUSH1 0x3 SLOAD PUSH1 0x40 MLOAD PUSH4 0x3FABE5A3 PUSH1 0xE2 SHL DUP2 MSTORE SWAP1 PUSH1 0xA0 SWAP1 DUP3 SWAP1 PUSH1 0x4 SWAP1 DUP3 SWAP1 PUSH1 0x1 PUSH1 0x1 PUSH1 0xA0 SHL SUB AND GAS STATICCALL SWAP1 DUP2 ISZERO PUSH2 0x1291 JUMPI DUP7 SWAP2 PUSH2 0x1331 JUMPI JUMPDEST POP DUP6 DUP2 SGT ISZERO PUSH2 0x12FC JUMPI PUSH4 0x5F5E100 DUP1 DUP5 MUL SWAP1 DUP5 DUP3 DIV EQ DUP5 ISZERO OR ISZERO PUSH2 0x12E8 JUMPI SWAP1 PUSH2 0x10B5 SWAP2 PUSH2 0x2238 JUMP JUMPDEST DUP1 PUSH1 0x62 DUP2 MUL DIV PUSH1 0x62 EQ DUP2 ISZERO OR ISZERO PUSH2 0xAE3 JUMPI PUSH1 0x1 SLOAD PUSH1 0x1 PUSH1 0x1 PUSH1 0xA0 SHL SUB AND SWAP2 TIMESTAMP PUSH2 0x12C DUP2 ADD LT PUSH2 0x12E8 JUMPI SWAP2 PUSH2 0x1113 SWAP4 SWAP2 DUP8 DUP1 SWAP5 PUSH1 0x40 MLOAD SWAP7 DUP8 SWAP6 DUP7 SWAP5 DUP6 SWAP4 PUSH4 0x38ED1739 PUSH1 0xE0 SHL DUP6 MSTORE PUSH2 0x12C TIMESTAMP ADD SWAP3 PUSH1 0x64 PUSH1 0x62 ADDRESS SWAP5 MUL DIV SWAP1 PUSH1 0x4 DUP8 ADD PUSH2 0x22DF JUMP JUMPDEST SUB SWAP3 GAS CALL DUP1 ISZERO PUSH2 0x12DD JUMPI PUSH2 0x112E SWAP2 DUP6 SWAP2 PUSH2 0x12BB JUMPI JUMPDEST POP PUSH2 0x2215 JUMP JUMPDEST MLOAD DUP3 DUP5 MSTORE PUSH1 0x5 PUSH1 0x20 SWAP1 DUP2 MSTORE PUSH1 0x40 DUP1 DUP7 KECCAK256 PUSH1 0x2 SLOAD DUP8 SLOAD SWAP3 MLOAD PUSH4 0x95EA7B3 PUSH1 0xE0 SHL DUP2 MSTORE PUSH1 0x1 PUSH1 0x1 PUSH1 0xA0 SHL SUB SWAP4 DUP5 AND PUSH1 0x4 DUP3 ADD MSTORE PUSH1 0x24 DUP2 ADD DUP7 SWAP1 MSTORE SWAP2 SWAP4 SWAP2 SWAP3 DUP4 SWAP2 PUSH1 0x44 SWAP2 DUP4 SWAP2 DUP12 SWAP2 AND GAS CALL DUP1 ISZERO PUSH2 0x1291 JUMPI PUSH2 0x129C JUMPI JUMPDEST POP DUP5 SLOAD PUSH1 0x2 SLOAD DUP7 SWAP2 PUSH1 0x1 PUSH1 0x1 PUSH1 0xA0 SHL SUB SWAP2 DUP3 AND SWAP2 AND DUP1 EXTCODESIZE ISZERO PUSH2 0x448 JUMPI PUSH1 0x84 DUP4 SWAP3 PUSH1 0x40 MLOAD SWAP5 DUP6 SWAP4 DUP5 SWAP3 PUSH4 0x617BA037 PUSH1 0xE0 SHL DUP5 MSTORE PUSH1 0x4 DUP5 ADD MSTORE DUP9 PUSH1 0x24 DUP5 ADD MSTORE ADDRESS PUSH1 0x44 DUP5 ADD MSTORE DUP2 PUSH1 0x64 DUP5 ADD MSTORE GAS CALL DUP1 ISZERO PUSH2 0x1291 JUMPI PUSH2 0x1260 JUMPI JUMPDEST POP PUSH1 0x80 SWAP3 PUSH32 0xAEEC09AF87559B9077DA2E499D1FAD2E228D7C24CB4B566FE61976820ABAADDA PUSH1 0x60 DUP5 PUSH1 0x2 DUP6 PUSH32 0x65410888FB30EDD04F6ACFB2F6CFD92AAF0EBB9B5303B6286D65D0B031B5B7F7 SWAP10 SWAP8 PUSH1 0xD PUSH1 0x3 SWAP9 ADD SSTORE ADD SLOAD SWAP1 PUSH1 0x40 MLOAD SWAP2 DUP8 DUP4 MSTORE PUSH1 0x20 DUP4 ADD MSTORE PUSH1 0x40 DUP3 ADD MSTORE LOG1 ADD SLOAD PUSH1 0x40 MLOAD SWAP2 DUP3 MSTORE PUSH1 0x4 CALLDATALOAD PUSH1 0x20 DUP4 ADD MSTORE PUSH1 0x40 DUP3 ADD MSTORE CALLER PUSH1 0x60 DUP3 ADD MSTORE LOG1 DUP1 RETURN JUMPDEST PUSH8 0xFFFFFFFFFFFFFFFF DUP2 SWAP7 SWAP3 SWAP7 GT PUSH2 0x127D JUMPI PUSH1 0x40 MSTORE SWAP4 PUSH1 0x80 PUSH2 0x11D7 JUMP JUMPDEST PUSH4 0x4E487B71 PUSH1 0xE0 SHL DUP3 MSTORE PUSH1 0x41 PUSH1 0x4 MSTORE PUSH1 0x24 DUP3 REVERT JUMPDEST PUSH1 0x40 MLOAD RETURNDATASIZE DUP9 DUP3 RETURNDATACOPY RETURNDATASIZE SWAP1 REVERT JUMPDEST PUSH2 0x12B4 SWAP1 PUSH1 0x20 RETURNDATASIZE PUSH1 0x20 GT PUSH2 0x6A8 JUMPI PUSH2 0x699 DUP2 DUP4 PUSH2 0x2112 JUMP JUMPDEST POP DUP6 PUSH2 0x1181 JUMP JUMPDEST PUSH2 0x12D7 SWAP2 POP RETURNDATASIZE DUP1 DUP8 DUP4 RETURNDATACOPY PUSH2 0x12CF DUP2 DUP4 PUSH2 0x2112 JUMP JUMPDEST DUP2 ADD SWAP1 PUSH2 0x2265 JUMP JUMPDEST DUP6 PUSH2 0x1128 JUMP JUMPDEST PUSH1 0x40 MLOAD RETURNDATASIZE DUP7 DUP3 RETURNDATACOPY RETURNDATASIZE SWAP1 REVERT JUMPDEST PUSH4 0x4E487B71 PUSH1 0xE0 SHL DUP8 MSTORE PUSH1 0x11 PUSH1 0x4 MSTORE PUSH1 0x24 DUP8 REVERT JUMPDEST PUSH1 0x40 MLOAD PUSH3 0x461BCD PUSH1 0xE5 SHL DUP2 MSTORE PUSH1 0x20 PUSH1 0x4 DUP3 ADD MSTORE PUSH1 0xD PUSH1 0x24 DUP3 ADD MSTORE PUSH13 0x496E76616C6964207072696365 PUSH1 0x98 SHL PUSH1 0x44 DUP3 ADD MSTORE PUSH1 0x64 SWAP1 REVERT JUMPDEST PUSH2 0x1353 SWAP2 POP PUSH1 0xA0 RETURNDATASIZE PUSH1 0xA0 GT PUSH2 0x135E JUMPI JUMPDEST PUSH2 0x134B DUP2 DUP4 PUSH2 0x2112 JUMP JUMPDEST DUP2 ADD SWAP1 PUSH2 0x214B JUMP JUMPDEST POP POP POP SWAP1 POP DUP7 PUSH2 0x108D JUMP JUMPDEST POP RETURNDATASIZE PUSH2 0x1341 JUMP JUMPDEST PUSH2 0x137D SWAP1 PUSH1 0x20 RETURNDATASIZE PUSH1 0x20 GT PUSH2 0x6A8 JUMPI PUSH2 0x699 DUP2 DUP4 PUSH2 0x2112 JUMP JUMPDEST POP DUP5 PUSH2 0x1014 JUMP JUMPDEST PUSH4 0x4E487B71 PUSH1 0xE0 SHL DUP4 MSTORE PUSH1 0x41 PUSH1 0x4 MSTORE PUSH1 0x24 DUP4 REVERT JUMPDEST PUSH8 0xDE0B6B3A7640000 PUSH2 0x13AF PUSH2 0x4B0 DUP7 DIV DUP4 PUSH2 0x2225 JUMP JUMPDEST DIV SWAP1 PUSH2 0x13BB DUP3 DUP5 PUSH2 0x2349 JUMP JUMPDEST SWAP2 PUSH1 0x24 CALLDATALOAD PUSH1 0x0 NOT DUP2 ADD GT PUSH2 0x14DE JUMPI PUSH1 0x24 CALLDATALOAD PUSH1 0x0 NOT ADD DUP6 EQ PUSH2 0x14C9 JUMPI JUMPDEST PUSH3 0x278D00 DUP6 DUP2 DUP2 MUL DIV DUP2 EQ DUP7 ISZERO OR ISZERO PUSH2 0x14B5 JUMPI PUSH2 0x13F6 SWAP1 DUP7 MUL TIMESTAMP PUSH2 0x2258 JUMP JUMPDEST PUSH1 0x40 MLOAD SWAP2 PUSH2 0x1403 DUP4 PUSH2 0x20C4 JUMP JUMPDEST DUP5 DUP4 MSTORE PUSH1 0x20 DUP4 ADD MSTORE DUP10 PUSH1 0x40 DUP4 ADD MSTORE PUSH1 0x60 DUP3 ADD MSTORE PUSH1 0xC DUP8 ADD SLOAD PUSH1 0x1 PUSH1 0x40 SHL DUP2 LT ISZERO PUSH2 0x14A1 JUMPI DUP1 PUSH1 0x1 PUSH2 0x143D SWAP3 ADD PUSH1 0xC DUP11 ADD SSTORE PUSH1 0xC DUP10 ADD PUSH2 0x2438 JUMP JUMPDEST SWAP2 SWAP1 SWAP2 PUSH2 0x148D JUMPI SWAP2 PUSH2 0x1487 SWAP4 SWAP2 PUSH1 0x3 PUSH1 0x60 DUP6 PUSH2 0x1481 SWAP7 MLOAD DUP5 SSTORE PUSH1 0x20 DUP2 ADD MLOAD PUSH1 0x1 DUP6 ADD SSTORE PUSH1 0x2 DUP5 ADD PUSH1 0x40 DUP3 ADD MLOAD ISZERO ISZERO PUSH1 0xFF DUP1 NOT DUP4 SLOAD AND SWAP2 AND OR SWAP1 SSTORE ADD MLOAD SWAP2 ADD SSTORE PUSH2 0x2349 JUMP JUMPDEST SWAP3 PUSH2 0x2356 JUMP JUMPDEST SWAP2 PUSH2 0xF60 JUMP JUMPDEST PUSH4 0x4E487B71 PUSH1 0xE0 SHL DUP11 MSTORE PUSH1 0x4 DUP11 SWAP1 MSTORE PUSH1 0x24 DUP11 REVERT JUMPDEST PUSH4 0x4E487B71 PUSH1 0xE0 SHL DUP11 MSTORE PUSH1 0x41 PUSH1 0x4 MSTORE PUSH1 0x24 DUP11 REVERT JUMPDEST PUSH4 0x4E487B71 PUSH1 0xE0 SHL DUP11 MSTORE PUSH1 0x11 PUSH1 0x4 MSTORE PUSH1 0x24 DUP11 REVERT JUMPDEST SWAP3 POP SWAP1 POP DUP1 PUSH2 0x14D8 DUP4 DUP3 PUSH2 0x2258 JUMP JUMPDEST SWAP3 PUSH2 0x13D7 JUMP JUMPDEST PUSH4 0x4E487B71 PUSH1 0xE0 SHL DUP10 MSTORE PUSH1 0x11 PUSH1 0x4 MSTORE PUSH1 0x24 DUP10 REVERT JUMPDEST PUSH4 0x4E487B71 PUSH1 0xE0 SHL DUP8 MSTORE PUSH1 0x12 PUSH1 0x4 MSTORE PUSH1 0x24 DUP8 REVERT JUMPDEST PUSH4 0x4E487B71 PUSH1 0xE0 SHL DUP6 MSTORE PUSH1 0x11 PUSH1 0x4 MSTORE PUSH1 0x24 DUP6 REVERT JUMPDEST PUSH1 0x40 MLOAD PUSH3 0x461BCD PUSH1 0xE5 SHL DUP2 MSTORE PUSH1 0x20 PUSH1 0x4 DUP3 ADD MSTORE PUSH1 0x28 PUSH1 0x24 DUP3 ADD MSTORE PUSH32 0x436F6C6C656374656420616D6F756E7420646F65736E2774206D617463682070 PUSH1 0x44 DUP3 ADD MSTORE PUSH8 0x1C9A5B98DA5C185B PUSH1 0xC2 SHL PUSH1 0x64 DUP3 ADD MSTORE PUSH1 0x84 SWAP1 REVERT JUMPDEST SWAP1 SWAP2 SWAP3 SWAP4 SWAP5 SWAP6 POP PUSH2 0x1582 DUP2 DUP4 DUP7 PUSH2 0x2365 JUMP JUMPDEST CALLDATALOAD PUSH1 0x1 PUSH1 0x1 PUSH1 0xA0 SHL SUB DUP2 AND DUP2 SUB PUSH2 0x17BD JUMPI PUSH2 0x159E DUP3 DUP6 DUP9 PUSH2 0x2365 JUMP JUMPDEST CALLDATALOAD SWAP7 DUP8 ISZERO PUSH2 0x1780 JUMPI DUP12 SWAP1 PUSH1 0x20 PUSH2 0x15F4 PUSH1 0x1 DUP1 PUSH1 0xA0 SHL SUB PUSH1 0x9 SLOAD AND DUP12 PUSH1 0x40 MLOAD SWAP6 DUP7 DUP1 SWAP5 DUP2 SWAP4 PUSH4 0x23B872DD PUSH1 0xE0 SHL DUP4 MSTORE ADDRESS DUP12 PUSH1 0x4 DUP6 ADD PUSH1 0x40 SWAP2 SWAP5 SWAP4 SWAP3 SWAP5 PUSH1 0x60 DUP3 ADD SWAP6 PUSH1 0x1 DUP1 PUSH1 0xA0 SHL SUB DUP1 SWAP3 AND DUP4 MSTORE AND PUSH1 0x20 DUP3 ADD MSTORE ADD MSTORE JUMP JUMPDEST SUB SWAP3 GAS CALL SWAP1 DUP2 ISZERO PUSH2 0x1775 JUMPI PUSH2 0x1610 SWAP3 DUP11 SWAP3 PUSH2 0x1756 JUMPI JUMPDEST POP PUSH2 0x2258 JUMP JUMPDEST SWAP7 PUSH1 0x1 DUP1 PUSH1 0xA0 SHL SUB DUP3 AND DUP13 MSTORE PUSH1 0x4 PUSH1 0x20 MSTORE PUSH1 0x40 DUP13 KECCAK256 PUSH2 0x1630 DUP3 DUP3 SLOAD PUSH2 0x2258 JUMP JUMPDEST SWAP1 SSTORE PUSH2 0x4B0 PUSH2 0x164C PUSH1 0x24 CALLDATALOAD PUSH2 0x1647 PUSH1 0x44 CALLDATALOAD DUP6 PUSH2 0x2225 JUMP JUMPDEST PUSH2 0x2225 JUMP JUMPDEST DIV SWAP1 PUSH1 0x40 MLOAD SWAP3 DUP4 PUSH1 0xA0 DUP2 ADD LT PUSH8 0xFFFFFFFFFFFFFFFF PUSH1 0xA0 DUP7 ADD GT OR PUSH2 0x1742 JUMPI PUSH1 0xA0 DUP5 ADD PUSH1 0x40 MSTORE PUSH1 0x1 DUP1 PUSH1 0xA0 SHL SUB AND DUP4 MSTORE PUSH1 0x20 DUP4 ADD MSTORE PUSH1 0x40 DUP3 ADD MSTORE DUP11 PUSH1 0x60 DUP3 ADD MSTORE DUP11 PUSH1 0x80 DUP3 ADD MSTORE PUSH1 0xB DUP9 ADD SLOAD PUSH1 0x1 PUSH1 0x40 SHL DUP2 LT ISZERO PUSH2 0x172E JUMPI DUP1 PUSH1 0x1 PUSH2 0x16B9 SWAP3 ADD PUSH1 0xB DUP12 ADD SSTORE PUSH1 0xB DUP11 ADD PUSH2 0x2375 JUMP JUMPDEST SWAP2 SWAP1 SWAP2 PUSH2 0x171A JUMPI DUP1 MLOAD DUP3 SLOAD PUSH1 0x1 PUSH1 0x1 PUSH1 0xA0 SHL SUB NOT AND PUSH1 0x1 PUSH1 0x1 PUSH1 0xA0 SHL SUB SWAP2 SWAP1 SWAP2 AND OR DUP3 SSTORE PUSH1 0x20 DUP2 ADD MLOAD PUSH1 0x1 DUP4 ADD SSTORE PUSH1 0x40 DUP2 ADD MLOAD PUSH1 0x2 DUP4 ADD SSTORE PUSH1 0x60 DUP2 ADD MLOAD PUSH1 0x3 DUP4 ADD SSTORE PUSH1 0x80 ADD MLOAD PUSH1 0x4 SWAP1 SWAP2 ADD SSTORE PUSH2 0x170E SWAP1 PUSH2 0x2356 JUMP JUMPDEST SWAP1 DUP8 SWAP6 SWAP5 SWAP4 SWAP3 SWAP2 PUSH2 0xEA1 JUMP JUMPDEST PUSH4 0x4E487B71 PUSH1 0xE0 SHL DUP13 MSTORE PUSH1 0x4 DUP13 SWAP1 MSTORE PUSH1 0x24 DUP13 REVERT JUMPDEST PUSH4 0x4E487B71 PUSH1 0xE0 SHL DUP13 MSTORE PUSH1 0x41 PUSH1 0x4 MSTORE PUSH1 0x24 DUP13 REVERT JUMPDEST PUSH4 0x4E487B71 PUSH1 0xE0 SHL DUP15 MSTORE PUSH1 0x41 PUSH1 0x4 MSTORE PUSH1 0x24 DUP15 REVERT JUMPDEST PUSH2 0x176E SWAP1 PUSH1 0x20 RETURNDATASIZE PUSH1 0x20 GT PUSH2 0x6A8 JUMPI PUSH2 0x699 DUP2 DUP4 PUSH2 0x2112 JUMP JUMPDEST POP CODESIZE PUSH2 0x160A JUMP JUMPDEST PUSH1 0x40 MLOAD RETURNDATASIZE DUP16 DUP3 RETURNDATACOPY RETURNDATASIZE SWAP1 REVERT JUMPDEST PUSH1 0x40 MLOAD PUSH3 0x461BCD PUSH1 0xE5 SHL DUP2 MSTORE PUSH1 0x20 PUSH1 0x4 DUP3 ADD MSTORE PUSH1 0x15 PUSH1 0x24 DUP3 ADD MSTORE PUSH21 0x125B9D985B1A59081B195B99195C88185B5BDD5B9D PUSH1 0x5A SHL PUSH1 0x44 DUP3 ADD MSTORE PUSH1 0x64 SWAP1 REVERT JUMPDEST DUP11 DUP1 REVERT JUMPDEST PUSH2 0x17D9 SWAP1 PUSH1 0x20 RETURNDATASIZE PUSH1 0x20 GT PUSH2 0x6A8 JUMPI PUSH2 0x699 DUP2 DUP4 PUSH2 0x2112 JUMP JUMPDEST POP CODESIZE PUSH2 0xDFE JUMP JUMPDEST PUSH1 0x40 MLOAD RETURNDATASIZE DUP11 DUP3 RETURNDATACOPY RETURNDATASIZE SWAP1 REVERT JUMPDEST PUSH1 0x40 MLOAD PUSH3 0x461BCD PUSH1 0xE5 SHL DUP2 MSTORE PUSH1 0x20 PUSH1 0x4 DUP3 ADD MSTORE PUSH1 0x13 PUSH1 0x24 DUP3 ADD MSTORE PUSH19 0x139BC81B195B99195C9CC81C1C9BDD9A591959 PUSH1 0x6A SHL PUSH1 0x44 DUP3 ADD MSTORE PUSH1 0x64 SWAP1 REVERT JUMPDEST PUSH1 0x40 MLOAD PUSH3 0x461BCD PUSH1 0xE5 SHL DUP2 MSTORE PUSH1 0x20 PUSH1 0x4 DUP3 ADD MSTORE PUSH1 0x2C PUSH1 0x24 DUP3 ADD MSTORE PUSH32 0x4C656E6465722061646472657373657320616E6420616D6F756E7473206C656E PUSH1 0x44 DUP3 ADD MSTORE PUSH12 0xCEE8D040DAD2E6DAC2E8C6D PUSH1 0xA3 SHL PUSH1 0x64 DUP3 ADD MSTORE PUSH1 0x84 SWAP1 REVERT JUMPDEST PUSH1 0x40 MLOAD PUSH3 0x461BCD PUSH1 0xE5 SHL DUP2 MSTORE PUSH1 0x20 PUSH1 0x4 DUP3 ADD MSTORE PUSH1 0x23 PUSH1 0x24 DUP3 ADD MSTORE PUSH32 0x426F72726F77657220616C72656164792068617320616E20616374697665206C PUSH1 0x44 DUP3 ADD MSTORE PUSH3 0x37B0B7 PUSH1 0xE9 SHL PUSH1 0x64 DUP3 ADD MSTORE PUSH1 0x84 SWAP1 REVERT JUMPDEST PUSH1 0x40 MLOAD PUSH3 0x461BCD PUSH1 0xE5 SHL DUP2 MSTORE PUSH1 0x20 PUSH1 0x4 DUP3 ADD MSTORE PUSH1 0x10 PUSH1 0x24 DUP3 ADD MSTORE PUSH16 0x24B73B30B634B210323AB930BA34B7B7 PUSH1 0x81 SHL PUSH1 0x44 DUP3 ADD MSTORE PUSH1 0x64 SWAP1 REVERT JUMPDEST PUSH1 0x40 MLOAD PUSH3 0x461BCD PUSH1 0xE5 SHL DUP2 MSTORE PUSH1 0x20 PUSH1 0x4 DUP3 ADD MSTORE PUSH1 0xE PUSH1 0x24 DUP3 ADD MSTORE PUSH14 0x125B9D985B1A5908185B5BDD5B9D PUSH1 0x92 SHL PUSH1 0x44 DUP3 ADD MSTORE PUSH1 0x64 SWAP1 REVERT JUMPDEST DUP4 DUP1 REVERT JUMPDEST POP DUP1 REVERT JUMPDEST POP CALLVALUE PUSH2 0x13C JUMPI PUSH1 0x20 CALLDATASIZE PUSH1 0x3 NOT ADD SLT PUSH2 0x13C JUMPI PUSH1 0x4 CALLDATALOAD PUSH1 0x1 PUSH1 0x1 PUSH1 0xA0 SHL SUB DUP2 DUP2 AND SWAP2 DUP3 SWAP1 SUB PUSH2 0x448 JUMPI PUSH2 0x197E SWAP1 PUSH1 0x8 SLOAD AND CALLER EQ PUSH2 0x2454 JUMP JUMPDEST PUSH1 0x1 PUSH1 0x1 PUSH1 0x60 SHL SUB PUSH1 0xA0 SHL PUSH1 0x1 SLOAD AND OR PUSH1 0x1 SSTORE DUP1 RETURN JUMPDEST POP CALLVALUE PUSH2 0x13C JUMPI PUSH1 0x20 CALLDATASIZE PUSH1 0x3 NOT ADD SLT PUSH2 0x13C JUMPI PUSH1 0x4 CALLDATALOAD PUSH1 0x1 PUSH1 0x1 PUSH1 0xA0 SHL SUB DUP2 DUP2 AND SWAP2 DUP3 SWAP1 SUB PUSH2 0x448 JUMPI PUSH2 0x19CB SWAP1 PUSH1 0x8 SLOAD AND CALLER EQ PUSH2 0x2454 JUMP JUMPDEST DUP2 SLOAD PUSH1 0x1 PUSH1 0x1 PUSH1 0xA0 SHL SUB NOT AND OR DUP2 SSTORE DUP1 RETURN JUMPDEST POP CALLVALUE PUSH2 0x13C JUMPI PUSH1 0x20 CALLDATASIZE PUSH1 0x3 NOT ADD SLT PUSH2 0x13C JUMPI PUSH1 0x4 CALLDATALOAD PUSH1 0x1 PUSH1 0x1 PUSH1 0xA0 SHL SUB DUP2 AND SWAP1 DUP2 SWAP1 SUB PUSH2 0x1943 JUMPI DUP2 PUSH1 0x40 SWAP2 PUSH1 0x20 SWAP4 MSTORE PUSH1 0x4 DUP4 MSTORE KECCAK256 SLOAD PUSH1 0x40 MLOAD SWAP1 DUP2 MSTORE RETURN JUMPDEST POP CALLVALUE PUSH2 0x13C JUMPI PUSH1 0x20 DUP1 PUSH1 0x3 NOT CALLDATASIZE ADD SLT PUSH2 0x1943 JUMPI PUSH1 0x4 CALLDATALOAD PUSH1 0x1 DUP1 PUSH1 0xA0 SHL SUB PUSH2 0x1A46 DUP2 PUSH1 0x8 SLOAD AND CALLER EQ PUSH2 0x2454 JUMP JUMPDEST DUP2 DUP5 MSTORE PUSH1 0x5 DUP4 MSTORE PUSH1 0x40 DUP5 KECCAK256 SWAP3 PUSH1 0x9 SWAP1 DUP2 DUP6 ADD SWAP2 DUP3 SLOAD SWAP3 PUSH1 0xFF PUSH2 0x1A69 DUP2 DUP7 AND PUSH2 0x24AA JUMP JUMPDEST DUP9 SWAP1 DUP10 SWAP1 PUSH1 0xC DUP11 ADD DUP1 SLOAD SWAP3 JUMPDEST DUP4 DUP2 LT PUSH2 0x1CB0 JUMPI POP POP POP POP PUSH3 0x76A700 LT ISZERO PUSH2 0x1C56 JUMPI PUSH1 0xFF NOT DUP1 SWAP5 AND SWAP1 SSTORE PUSH1 0x1 DUP1 DUP8 ADD SWAP4 DUP6 DUP6 SLOAD AND DUP10 MSTORE PUSH1 0x6 DUP5 MSTORE PUSH1 0x40 DUP10 KECCAK256 SWAP1 DUP2 SLOAD AND SWAP1 SSTORE PUSH1 0xD DUP8 ADD SLOAD DUP1 PUSH2 0x1C46 JUMPI JUMPDEST POP PUSH1 0x3 DUP1 DUP9 ADD SLOAD PUSH1 0xE DUP10 ADD SLOAD SWAP2 DUP3 PUSH2 0x1B2B JUMPI JUMPDEST DUP11 PUSH32 0xCAB88A55906C5830A49DDDD8B31D115294A5E6C4210F25FE140530A39C51DC74 DUP11 DUP11 DUP11 SLOAD AND SWAP1 PUSH2 0x1B25 PUSH2 0x1AFD PUSH2 0x2180 JUMP JUMPDEST PUSH1 0x40 DUP1 MLOAD SWAP4 DUP5 MSTORE PUSH1 0x1 PUSH1 0x1 PUSH1 0xA0 SHL SUB SWAP1 SWAP5 AND PUSH1 0x20 DUP5 ADD MSTORE SWAP3 DUP3 ADD SWAP3 SWAP1 SWAP3 MSTORE SWAP1 DUP2 SWAP1 PUSH1 0x60 DUP3 ADD SWAP1 JUMP JUMPDEST SUB SWAP1 LOG1 DUP1 RETURN JUMPDEST SWAP1 SWAP2 SWAP3 DUP1 SWAP10 PUSH1 0xB DUP13 SWAP2 ADD SWAP2 JUMPDEST PUSH2 0x1B42 JUMPI JUMPDEST POP PUSH2 0x1ACA JUMP JUMPDEST DUP2 SLOAD DUP2 LT ISZERO PUSH2 0x1C41 JUMPI PUSH2 0x1B55 DUP2 DUP4 PUSH2 0x2375 JUMP JUMPDEST POP PUSH2 0x1B67 DUP13 DUP3 ADD SLOAD DUP6 DUP4 ADD SLOAD SWAP1 PUSH2 0x2349 JUMP JUMPDEST DUP13 DUP2 ISZERO PUSH2 0x1C30 JUMPI POP PUSH8 0xDE0B6B3A7640000 SWAP1 DUP2 DUP2 MUL SWAP1 DUP2 DIV DUP3 SUB PUSH2 0x1C1C JUMPI DUP8 SWAP7 SWAP6 SWAP5 SWAP4 SWAP3 DUP16 SWAP2 SWAP3 PUSH2 0x1BA5 PUSH2 0x1B9F PUSH2 0x1BE1 SWAP12 DUP15 SWAP7 PUSH2 0x2238 JUMP JUMPDEST DUP10 PUSH2 0x2225 JUMP JUMPDEST DIV SWAP2 DUP14 DUP1 DUP13 SLOAD AND SWAP3 SLOAD AND SWAP1 PUSH1 0x40 MLOAD DUP1 SWAP12 DUP2 SWAP6 DUP3 SWAP5 PUSH4 0xA9059CBB PUSH1 0xE0 SHL DUP5 MSTORE PUSH1 0x4 DUP5 ADD PUSH1 0x20 SWAP1 SWAP4 SWAP3 SWAP2 SWAP4 PUSH1 0x40 DUP2 ADD SWAP5 PUSH1 0x1 DUP1 PUSH1 0xA0 SHL SUB AND DUP2 MSTORE ADD MSTORE JUMP JUMPDEST SUB SWAP3 GAS CALL SWAP1 DUP2 ISZERO PUSH2 0x1775 JUMPI DUP13 SWAP7 PUSH2 0x1BFC SWAP3 PUSH2 0x1C06 JUMPI POP PUSH2 0x2356 JUMP JUMPDEST SWAP1 SWAP2 SWAP3 SWAP4 SWAP5 PUSH2 0x1B37 JUMP JUMPDEST PUSH2 0x6A1 SWAP1 DUP11 RETURNDATASIZE DUP13 GT PUSH2 0x6A8 JUMPI PUSH2 0x699 DUP2 DUP4 PUSH2 0x2112 JUMP JUMPDEST PUSH4 0x4E487B71 PUSH1 0xE0 SHL DUP16 MSTORE PUSH1 0x11 PUSH1 0x4 MSTORE PUSH1 0x24 DUP16 REVERT JUMPDEST SWAP7 SWAP6 SWAP5 SWAP4 SWAP3 SWAP1 POP PUSH2 0x1BFC SWAP2 POP PUSH2 0x2356 JUMP JUMPDEST PUSH2 0x1B3C JUMP JUMPDEST PUSH2 0x1C50 SWAP1 DUP8 PUSH2 0x24EB JUMP JUMPDEST CODESIZE PUSH2 0x1AB7 JUMP JUMPDEST PUSH1 0x40 MLOAD PUSH3 0x461BCD PUSH1 0xE5 SHL DUP2 MSTORE PUSH1 0x4 DUP2 ADD DUP5 SWAP1 MSTORE PUSH1 0x2C PUSH1 0x24 DUP3 ADD MSTORE PUSH32 0x4C6F616E206973206E6F74206F766572647565206265796F6E642033206D6F6E PUSH1 0x44 DUP3 ADD MSTORE PUSH12 0x1D1A1CC81A5B881D1BDD185B PUSH1 0xA2 SHL PUSH1 0x64 DUP3 ADD MSTORE PUSH1 0x84 SWAP1 REVERT JUMPDEST PUSH2 0x1CBA DUP2 DUP4 PUSH2 0x2438 JUMP JUMPDEST POP DUP4 PUSH1 0x2 DUP3 ADD SLOAD AND PUSH2 0x1CD2 JUMPI PUSH1 0x3 ADD SLOAD DUP1 TIMESTAMP GT PUSH2 0x1CE1 JUMPI JUMPDEST POP PUSH2 0x1CDC SWAP1 PUSH2 0x2356 JUMP JUMPDEST PUSH2 0x1A75 JUMP JUMPDEST PUSH2 0x1CDC SWAP2 SWAP6 PUSH2 0x1CF3 PUSH2 0x1CF9 SWAP3 TIMESTAMP PUSH2 0x2349 JUMP JUMPDEST SWAP1 PUSH2 0x2258 JUMP JUMPDEST SWAP5 SWAP1 PUSH2 0x1CD2 JUMP JUMPDEST POP CALLVALUE PUSH2 0x13C JUMPI PUSH1 0x20 CALLDATASIZE PUSH1 0x3 NOT ADD SLT PUSH2 0x13C JUMPI PUSH1 0x4 CALLDATALOAD PUSH1 0x1 PUSH1 0x1 PUSH1 0xA0 SHL SUB DUP2 AND SWAP1 DUP2 SWAP1 SUB PUSH2 0x1943 JUMPI PUSH1 0x40 DUP3 PUSH1 0xFF SWAP3 PUSH1 0x20 SWAP5 MSTORE PUSH1 0x6 DUP5 MSTORE KECCAK256 SLOAD AND PUSH1 0x40 MLOAD SWAP1 ISZERO ISZERO DUP2 MSTORE RETURN JUMPDEST POP CALLVALUE PUSH2 0x13C JUMPI DUP1 PUSH1 0x3 NOT CALLDATASIZE ADD SLT PUSH2 0x13C JUMPI PUSH1 0x9 SLOAD PUSH1 0x40 MLOAD PUSH1 0x1 PUSH1 0x1 PUSH1 0xA0 SHL SUB SWAP1 SWAP2 AND DUP2 MSTORE PUSH1 0x20 SWAP1 RETURN JUMPDEST POP CALLVALUE PUSH2 0x13C JUMPI DUP1 PUSH1 0x3 NOT CALLDATASIZE ADD SLT PUSH2 0x13C JUMPI PUSH1 0x2 SLOAD PUSH1 0x40 MLOAD PUSH1 0x1 PUSH1 0x1 PUSH1 0xA0 SHL SUB SWAP1 SWAP2 AND DUP2 MSTORE PUSH1 0x20 SWAP1 RETURN JUMPDEST POP CALLVALUE PUSH2 0x13C JUMPI PUSH1 0x20 CALLDATASIZE PUSH1 0x3 NOT ADD SLT PUSH2 0x13C JUMPI PUSH2 0x1DBB PUSH1 0x1 DUP1 PUSH1 0xA0 SHL SUB PUSH1 0x8 SLOAD AND CALLER EQ PUSH2 0x2454 JUMP JUMPDEST PUSH1 0x4 CALLDATALOAD DUP2 MSTORE PUSH1 0x5 PUSH1 0x20 MSTORE PUSH1 0x40 DUP2 KECCAK256 PUSH1 0x9 DUP2 ADD DUP1 SLOAD SWAP2 PUSH2 0x1DDC PUSH1 0xFF DUP5 AND PUSH2 0x24AA JUMP JUMPDEST PUSH2 0x1DE4 PUSH2 0x2180 JUMP JUMPDEST SWAP2 PUSH1 0xD DUP3 ADD PUSH4 0x5F5E100 PUSH2 0x1DF9 DUP6 DUP4 SLOAD PUSH2 0x2225 JUMP JUMPDEST DIV SWAP2 PUSH1 0xE DUP5 ADD SWAP3 DUP4 SLOAD PUSH1 0x69 DUP2 MUL SWAP1 DUP1 DUP3 DIV PUSH1 0x69 EQ SWAP1 ISZERO OR ISZERO PUSH2 0x14DE JUMPI PUSH1 0x64 SWAP1 DIV LT PUSH2 0x1FC8 JUMPI PUSH1 0xFF NOT SWAP6 DUP7 AND SWAP1 SSTORE PUSH1 0x1 DUP4 ADD DUP1 SLOAD PUSH1 0x1 PUSH1 0x1 PUSH1 0xA0 SHL SUB AND DUP8 MSTORE PUSH1 0x6 PUSH1 0x20 MSTORE PUSH1 0x40 DUP8 KECCAK256 DUP1 SLOAD SWAP1 SWAP7 AND SWAP1 SWAP6 SSTORE SLOAD DUP1 PUSH2 0x1FB6 JUMPI JUMPDEST POP PUSH1 0x3 DUP3 ADD SLOAD SWAP1 SLOAD SWAP2 DUP3 PUSH2 0x1EAE JUMPI JUMPDEST POP POP SWAP2 SLOAD PUSH1 0x40 DUP1 MLOAD PUSH1 0x4 CALLDATALOAD DUP2 MSTORE PUSH1 0x1 PUSH1 0x1 PUSH1 0xA0 SHL SUB SWAP1 SWAP3 AND PUSH1 0x20 DUP4 ADD MSTORE DUP2 ADD SWAP2 SWAP1 SWAP2 MSTORE PUSH32 0xCAB88A55906C5830A49DDDD8B31D115294A5E6C4210F25FE140530A39C51DC74 SWAP2 POP DUP1 PUSH1 0x60 DUP2 ADD PUSH2 0x1B25 JUMP JUMPDEST SWAP1 SWAP2 SWAP3 DUP6 JUMPDEST PUSH1 0xB DUP4 ADD SLOAD DUP2 LT ISZERO PUSH2 0x1F89 JUMPI PUSH2 0x1ECC DUP2 PUSH1 0xB DUP6 ADD PUSH2 0x2375 JUMP JUMPDEST POP PUSH2 0x1EE0 PUSH1 0x1 DUP3 ADD SLOAD PUSH1 0x3 DUP4 ADD SLOAD SWAP1 PUSH2 0x2349 JUMP JUMPDEST DUP1 ISZERO PUSH2 0x1F7E JUMPI DUP1 PUSH8 0xDE0B6B3A7640000 DUP2 MUL DIV PUSH8 0xDE0B6B3A7640000 SUB PUSH2 0x14DE JUMPI PUSH2 0x1F60 SWAP3 SWAP2 PUSH8 0xDE0B6B3A7640000 PUSH2 0x1F20 PUSH2 0x1B9F DUP11 DUP4 PUSH1 0x20 SWAP7 MUL PUSH2 0x2238 JUMP JUMPDEST PUSH1 0x9 SLOAD SWAP3 SLOAD PUSH1 0x40 MLOAD PUSH4 0xA9059CBB PUSH1 0xE0 SHL DUP2 MSTORE PUSH1 0x1 PUSH1 0x1 PUSH1 0xA0 SHL SUB SWAP2 DUP3 AND PUSH1 0x4 DUP3 ADD MSTORE SWAP3 SWAP1 SWAP2 DIV PUSH1 0x24 DUP4 ADD MSTORE SWAP1 SWAP5 DUP6 SWAP3 SWAP1 SWAP2 AND SWAP1 DUP3 SWAP1 DUP13 SWAP1 DUP3 SWAP1 PUSH1 0x44 DUP3 ADD SWAP1 JUMP JUMPDEST SUB SWAP3 GAS CALL SWAP2 DUP3 ISZERO PUSH2 0x17E0 JUMPI PUSH2 0x1F79 SWAP3 PUSH2 0x680 JUMPI POP PUSH2 0x2356 JUMP JUMPDEST PUSH2 0x1EB3 JUMP JUMPDEST POP POP PUSH2 0x1F79 SWAP1 PUSH2 0x2356 JUMP JUMPDEST POP SWAP3 POP POP POP PUSH32 0xCAB88A55906C5830A49DDDD8B31D115294A5E6C4210F25FE140530A39C51DC74 CODESIZE DUP1 PUSH2 0x1E5E JUMP JUMPDEST PUSH2 0x1FC2 SWAP1 PUSH1 0x4 CALLDATALOAD PUSH2 0x24EB JUMP JUMPDEST CODESIZE PUSH2 0x1E4F JUMP JUMPDEST PUSH1 0x40 MLOAD PUSH3 0x461BCD PUSH1 0xE5 SHL DUP2 MSTORE PUSH1 0x20 PUSH1 0x4 DUP3 ADD MSTORE PUSH1 0x35 PUSH1 0x24 DUP3 ADD MSTORE PUSH32 0x4254432076616C756520686173206E6F742064726F707065642062656C6F7720 PUSH1 0x44 DUP3 ADD MSTORE PUSH21 0x1B1A5C5D5A59185D1A5BDB881D1A1C995CDA1BDB19 PUSH1 0x5A SHL PUSH1 0x64 DUP3 ADD MSTORE PUSH1 0x84 SWAP1 REVERT JUMPDEST SWAP2 DUP2 PUSH1 0x1F DUP5 ADD SLT ISZERO PUSH2 0x205C JUMPI DUP3 CALLDATALOAD SWAP2 PUSH8 0xFFFFFFFFFFFFFFFF DUP4 GT PUSH2 0x205C JUMPI PUSH1 0x20 DUP1 DUP6 ADD SWAP5 DUP5 PUSH1 0x5 SHL ADD ADD GT PUSH2 0x205C JUMPI JUMP JUMPDEST PUSH1 0x0 DUP1 REVERT JUMPDEST PUSH1 0x40 SWAP1 PUSH1 0x3 NOT ADD SLT PUSH2 0x205C JUMPI PUSH1 0x4 CALLDATALOAD SWAP1 PUSH1 0x24 CALLDATALOAD SWAP1 JUMP JUMPDEST PUSH1 0x7 SLOAD DUP2 LT ISZERO PUSH2 0x20AE JUMPI PUSH1 0x7 PUSH1 0x0 MSTORE PUSH32 0xA66CC928B5EDB82AF9BD49922954155AB7B0942694BEA4CE44661D9A8736C688 ADD SWAP1 PUSH1 0x0 SWAP1 JUMP JUMPDEST PUSH4 0x4E487B71 PUSH1 0xE0 SHL PUSH1 0x0 MSTORE PUSH1 0x32 PUSH1 0x4 MSTORE PUSH1 0x24 PUSH1 0x0 REVERT JUMPDEST PUSH1 0x80 DUP2 ADD SWAP1 DUP2 LT PUSH8 0xFFFFFFFFFFFFFFFF DUP3 GT OR PUSH2 0x20E0 JUMPI PUSH1 0x40 MSTORE JUMP JUMPDEST PUSH4 0x4E487B71 PUSH1 0xE0 SHL PUSH1 0x0 MSTORE PUSH1 0x41 PUSH1 0x4 MSTORE PUSH1 0x24 PUSH1 0x0 REVERT JUMPDEST PUSH1 0x60 DUP2 ADD SWAP1 DUP2 LT PUSH8 0xFFFFFFFFFFFFFFFF DUP3 GT OR PUSH2 0x20E0 JUMPI PUSH1 0x40 MSTORE JUMP JUMPDEST SWAP1 PUSH1 0x1F DUP1 NOT SWAP2 ADD AND DUP2 ADD SWAP1 DUP2 LT PUSH8 0xFFFFFFFFFFFFFFFF DUP3 GT OR PUSH2 0x20E0 JUMPI PUSH1 0x40 MSTORE JUMP JUMPDEST MLOAD SWAP1 PUSH10 0xFFFFFFFFFFFFFFFFFFFF DUP3 AND DUP3 SUB PUSH2 0x205C JUMPI JUMP JUMPDEST SWAP1 DUP2 PUSH1 0xA0 SWAP2 SUB SLT PUSH2 0x205C JUMPI PUSH2 0x215F DUP2 PUSH2 0x2134 JUMP JUMPDEST SWAP2 PUSH1 0x20 DUP3 ADD MLOAD SWAP2 PUSH1 0x40 DUP2 ADD MLOAD SWAP2 PUSH2 0x217D PUSH1 0x80 PUSH1 0x60 DUP5 ADD MLOAD SWAP4 ADD PUSH2 0x2134 JUMP JUMPDEST SWAP1 JUMP JUMPDEST PUSH1 0x3 SLOAD PUSH1 0x40 MLOAD PUSH4 0x3FABE5A3 PUSH1 0xE2 SHL DUP2 MSTORE SWAP1 PUSH1 0xA0 SWAP1 DUP3 SWAP1 PUSH1 0x4 SWAP1 DUP3 SWAP1 PUSH1 0x1 PUSH1 0x1 PUSH1 0xA0 SHL SUB AND GAS STATICCALL SWAP1 DUP2 ISZERO PUSH2 0xA39 JUMPI PUSH1 0x0 SWAP2 PUSH2 0x21B8 JUMPI POP SWAP1 JUMP JUMPDEST PUSH2 0x21D0 SWAP2 POP PUSH1 0xA0 RETURNDATASIZE DUP2 GT PUSH2 0x135E JUMPI PUSH2 0x134B DUP2 DUP4 PUSH2 0x2112 JUMP JUMPDEST POP POP POP SWAP1 POP SWAP1 JUMP JUMPDEST SWAP1 DUP2 PUSH1 0x20 SWAP2 SUB SLT PUSH2 0x205C JUMPI MLOAD DUP1 ISZERO ISZERO DUP2 SUB PUSH2 0x205C JUMPI SWAP1 JUMP JUMPDEST PUSH8 0xFFFFFFFFFFFFFFFF DUP2 GT PUSH2 0x20E0 JUMPI PUSH1 0x5 SHL PUSH1 0x20 ADD SWAP1 JUMP JUMPDEST DUP1 MLOAD ISZERO PUSH2 0x20AE JUMPI PUSH1 0x20 ADD SWAP1 JUMP JUMPDEST DUP1 MLOAD PUSH1 0x1 LT ISZERO PUSH2 0x20AE JUMPI PUSH1 0x40 ADD SWAP1 JUMP JUMPDEST DUP2 DUP2 MUL SWAP3 SWAP2 DUP2 ISZERO SWAP2 DUP5 DIV EQ OR ISZERO PUSH2 0xA45 JUMPI JUMP JUMPDEST DUP2 ISZERO PUSH2 0x2242 JUMPI DIV SWAP1 JUMP JUMPDEST PUSH4 0x4E487B71 PUSH1 0xE0 SHL PUSH1 0x0 MSTORE PUSH1 0x12 PUSH1 0x4 MSTORE PUSH1 0x24 PUSH1 0x0 REVERT JUMPDEST SWAP2 SWAP1 DUP3 ADD DUP1 SWAP3 GT PUSH2 0xA45 JUMPI JUMP JUMPDEST PUSH1 0x20 SWAP1 DUP2 DUP2 DUP5 SUB SLT PUSH2 0x205C JUMPI DUP1 MLOAD SWAP1 PUSH8 0xFFFFFFFFFFFFFFFF DUP3 GT PUSH2 0x205C JUMPI ADD SWAP2 DUP1 PUSH1 0x1F DUP5 ADD SLT ISZERO PUSH2 0x205C JUMPI DUP3 MLOAD PUSH2 0x229B DUP2 PUSH2 0x21F0 JUMP JUMPDEST SWAP4 PUSH2 0x22A9 PUSH1 0x40 MLOAD SWAP6 DUP7 PUSH2 0x2112 JUMP JUMPDEST DUP2 DUP6 MSTORE DUP4 DUP1 DUP7 ADD SWAP3 PUSH1 0x5 SHL DUP3 ADD ADD SWAP3 DUP4 GT PUSH2 0x205C JUMPI DUP4 ADD SWAP1 JUMPDEST DUP3 DUP3 LT PUSH2 0x22D0 JUMPI POP POP POP POP SWAP1 JUMP JUMPDEST DUP2 MLOAD DUP2 MSTORE SWAP1 DUP4 ADD SWAP1 DUP4 ADD PUSH2 0x22C2 JUMP JUMPDEST SWAP3 SWAP2 SWAP1 SWAP6 SWAP5 SWAP4 SWAP6 PUSH1 0xA0 DUP5 ADD SWAP1 DUP5 MSTORE PUSH1 0x20 SWAP2 DUP3 DUP6 ADD MSTORE PUSH1 0xA0 PUSH1 0x40 DUP6 ADD MSTORE DUP3 MLOAD DUP1 SWAP2 MSTORE DUP2 PUSH1 0xC0 DUP6 ADD SWAP4 ADD SWAP2 PUSH1 0x0 JUMPDEST DUP3 DUP2 LT PUSH2 0x232C JUMPI POP POP POP POP SWAP1 PUSH1 0x80 SWAP2 SWAP5 PUSH1 0x1 DUP1 PUSH1 0xA0 SHL SUB AND PUSH1 0x60 DUP3 ADD MSTORE ADD MSTORE JUMP JUMPDEST DUP4 MLOAD PUSH1 0x1 PUSH1 0x1 PUSH1 0xA0 SHL SUB AND DUP6 MSTORE SWAP4 DUP2 ADD SWAP4 SWAP3 DUP2 ADD SWAP3 PUSH1 0x1 ADD PUSH2 0x230B JUMP JUMPDEST SWAP2 SWAP1 DUP3 SUB SWAP2 DUP3 GT PUSH2 0xA45 JUMPI JUMP JUMPDEST PUSH1 0x0 NOT DUP2 EQ PUSH2 0xA45 JUMPI PUSH1 0x1 ADD SWAP1 JUMP JUMPDEST SWAP2 SWAP1 DUP2 LT ISZERO PUSH2 0x20AE JUMPI PUSH1 0x5 SHL ADD SWAP1 JUMP JUMPDEST DUP1 SLOAD DUP3 LT ISZERO PUSH2 0x20AE JUMPI PUSH1 0x0 MSTORE PUSH1 0x5 PUSH1 0x20 PUSH1 0x0 KECCAK256 SWAP2 MUL ADD SWAP1 PUSH1 0x0 SWAP1 JUMP JUMPDEST SWAP1 DUP1 ISZERO PUSH2 0x2431 JUMPI DUP2 ISZERO PUSH2 0x242A JUMPI DUP2 DUP1 PUSH1 0x1 EQ PUSH2 0x2422 JUMPI PUSH1 0x2 EQ PUSH2 0x2411 JUMPI PUSH1 0x20 DUP2 LT PUSH2 0x133 DUP4 LT AND PUSH1 0x4E DUP3 LT PUSH1 0xB DUP5 LT AND OR PUSH2 0x240C JUMPI PUSH1 0x1 SWAP1 DUP2 JUMPDEST DUP1 DUP3 GT PUSH2 0x23E3 JUMPI POP POP DUP2 PUSH1 0x0 NOT DIV DUP2 GT PUSH2 0xA45 JUMPI MUL SWAP1 JUMP JUMPDEST SWAP1 SWAP3 DUP1 PUSH1 0x0 NOT DIV DUP2 GT PUSH2 0xA45 JUMPI DUP2 DUP5 AND PUSH2 0x2403 JUMPI JUMPDEST DUP1 MUL SWAP3 DUP2 SHR SWAP1 PUSH2 0x23CB JUMP JUMPDEST DUP1 SWAP3 MUL SWAP2 PUSH2 0x23F8 JUMP JUMPDEST SWAP1 EXP SWAP1 JUMP JUMPDEST SWAP1 POP PUSH1 0xFF DUP2 GT PUSH2 0xA45 JUMPI PUSH1 0x1 SWAP1 SHL SWAP1 JUMP JUMPDEST POP POP POP PUSH1 0x1 SWAP1 JUMP JUMPDEST POP POP PUSH1 0x0 SWAP1 JUMP JUMPDEST POP POP PUSH1 0x1 SWAP1 JUMP JUMPDEST DUP1 SLOAD DUP3 LT ISZERO PUSH2 0x20AE JUMPI PUSH1 0x0 MSTORE PUSH1 0x20 PUSH1 0x0 KECCAK256 SWAP1 PUSH1 0x2 SHL ADD SWAP1 PUSH1 0x0 SWAP1 JUMP JUMPDEST ISZERO PUSH2 0x245B JUMPI JUMP JUMPDEST PUSH1 0x40 MLOAD PUSH3 0x461BCD PUSH1 0xE5 SHL DUP2 MSTORE PUSH1 0x20 PUSH1 0x4 DUP3 ADD MSTORE PUSH1 0x21 PUSH1 0x24 DUP3 ADD MSTORE PUSH32 0x4F6E6C79206F776E65722063616E2063616C6C20746869732066756E6374696F PUSH1 0x44 DUP3 ADD MSTORE PUSH1 0x37 PUSH1 0xF9 SHL PUSH1 0x64 DUP3 ADD MSTORE PUSH1 0x84 SWAP1 REVERT JUMPDEST ISZERO PUSH2 0x24B1 JUMPI JUMP JUMPDEST PUSH1 0x40 MLOAD PUSH3 0x461BCD PUSH1 0xE5 SHL DUP2 MSTORE PUSH1 0x20 PUSH1 0x4 DUP3 ADD MSTORE PUSH1 0x12 PUSH1 0x24 DUP3 ADD MSTORE PUSH18 0x4C6F616E206973206E6F7420616374697665 PUSH1 0x70 SHL PUSH1 0x44 DUP3 ADD MSTORE PUSH1 0x64 SWAP1 REVERT JUMPDEST SWAP1 PUSH1 0x0 SWAP1 DUP3 DUP3 MSTORE PUSH1 0x20 SWAP1 PUSH1 0x5 DUP3 MSTORE PUSH1 0x40 SWAP1 PUSH1 0xD DUP3 DUP6 KECCAK256 ADD DUP1 SLOAD DUP3 GT PUSH2 0x25E7 JUMPI DUP5 SLOAD PUSH1 0x2 SLOAD DUP5 MLOAD PUSH4 0x1A4CA37B PUSH1 0xE2 SHL DUP2 MSTORE PUSH1 0x1 PUSH1 0x1 PUSH1 0xA0 SHL SUB SWAP2 DUP3 AND PUSH1 0x4 DUP3 ADD MSTORE PUSH1 0x24 DUP2 ADD SWAP5 SWAP1 SWAP5 MSTORE ADDRESS PUSH1 0x44 DUP6 ADD MSTORE DUP6 SWAP2 DUP5 SWAP2 PUSH1 0x64 SWAP2 DUP4 SWAP2 DUP11 SWAP2 AND GAS CALL SWAP2 DUP3 ISZERO PUSH2 0x25DD JUMPI DUP6 SWAP3 PUSH2 0x25A9 JUMPI JUMPDEST POP SWAP2 DUP2 DUP4 PUSH2 0x258A PUSH32 0x38A556A122683CB48D496614A7A03605B6C2C0482342924CAF483386980ECC9F SWAP9 SWAP7 SWAP5 PUSH1 0x80 SWAP9 SWAP7 SLOAD PUSH2 0x2349 JUMP JUMPDEST SWAP1 SSTORE PUSH2 0x2595 DUP2 PUSH2 0x263A JUMP JUMPDEST SWAP3 DUP3 MLOAD SWAP6 DUP7 MSTORE DUP6 ADD MSTORE DUP4 ADD MSTORE PUSH1 0x60 DUP3 ADD MSTORE LOG1 JUMP JUMPDEST SWAP1 SWAP2 POP DUP4 DUP2 DUP2 RETURNDATASIZE DUP4 GT PUSH2 0x25D6 JUMPI JUMPDEST PUSH2 0x25C1 DUP2 DUP4 PUSH2 0x2112 JUMP JUMPDEST DUP2 ADD SUB SLT PUSH2 0x25D2 JUMPI MLOAD SWAP1 PUSH1 0x80 PUSH2 0x2555 JUMP JUMPDEST DUP5 DUP1 REVERT JUMPDEST POP RETURNDATASIZE PUSH2 0x25B7 JUMP JUMPDEST DUP4 MLOAD RETURNDATASIZE DUP8 DUP3 RETURNDATACOPY RETURNDATASIZE SWAP1 REVERT JUMPDEST DUP3 MLOAD PUSH3 0x461BCD PUSH1 0xE5 SHL DUP2 MSTORE PUSH1 0x4 DUP2 ADD DUP6 SWAP1 MSTORE PUSH1 0x26 PUSH1 0x24 DUP3 ADD MSTORE PUSH32 0x43616E6E6F7420756E7374616B65206D6F7265207468616E207374616B656420 PUSH1 0x44 DUP3 ADD MSTORE PUSH6 0x185B5BDD5B9D PUSH1 0xD2 SHL PUSH1 0x64 DUP3 ADD MSTORE PUSH1 0x84 SWAP1 REVERT JUMPDEST PUSH1 0x2 SLOAD PUSH1 0x1 SLOAD PUSH1 0x40 DUP1 MLOAD PUSH4 0x95EA7B3 PUSH1 0xE0 SHL DUP2 MSTORE PUSH1 0x1 PUSH1 0x1 PUSH1 0xA0 SHL SUB SWAP3 DUP4 AND PUSH1 0x4 DUP3 ADD MSTORE PUSH1 0x24 DUP2 ADD DUP6 SWAP1 MSTORE PUSH1 0x0 SWAP6 SWAP5 SWAP2 SWAP4 SWAP2 SWAP3 SWAP2 PUSH1 0x20 SWAP1 DUP3 SWAP1 PUSH1 0x44 SWAP1 DUP3 SWAP1 DUP11 SWAP1 DUP8 AND GAS CALL DUP1 ISZERO PUSH2 0x2787 JUMPI PUSH2 0x2769 JUMPI JUMPDEST POP DUP3 MLOAD PUSH2 0x2695 DUP2 PUSH2 0x20F6 JUMP JUMPDEST PUSH1 0x2 DUP2 MSTORE DUP4 CALLDATASIZE PUSH1 0x20 DUP4 ADD CALLDATACOPY DUP2 PUSH1 0x2 SLOAD AND PUSH2 0x26AE DUP3 PUSH2 0x2208 JUMP JUMPDEST MSTORE DUP2 PUSH1 0x9 SLOAD AND PUSH2 0x26BD DUP3 PUSH2 0x2215 JUMP JUMPDEST MSTORE PUSH1 0x5F DUP4 MUL SWAP2 DUP4 DUP4 DIV PUSH1 0x5F EQ DUP5 ISZERO OR ISZERO PUSH2 0x12E8 JUMPI PUSH1 0x1 SLOAD AND SWAP1 PUSH2 0x12C TIMESTAMP ADD SWAP4 DUP5 TIMESTAMP GT PUSH2 0x2755 JUMPI SWAP1 DUP8 DUP1 SWAP5 SWAP4 SWAP3 PUSH2 0x270E DUP9 MLOAD SWAP8 DUP9 SWAP7 DUP8 SWAP6 DUP7 SWAP5 PUSH4 0x38ED1739 PUSH1 0xE0 SHL DUP7 MSTORE PUSH1 0x64 ADDRESS SWAP4 DIV SWAP1 PUSH1 0x4 DUP8 ADD PUSH2 0x22DF JUMP JUMPDEST SUB SWAP3 GAS CALL SWAP2 DUP3 ISZERO PUSH2 0x274C JUMPI POP DUP4 PUSH2 0x272D SWAP4 SWAP5 SWAP3 PUSH2 0x2731 JUMPI JUMPDEST POP POP PUSH2 0x2215 JUMP JUMPDEST MLOAD SWAP1 JUMP JUMPDEST PUSH2 0x2745 SWAP3 POP RETURNDATASIZE DUP1 SWAP2 DUP4 RETURNDATACOPY PUSH2 0x12CF DUP2 DUP4 PUSH2 0x2112 JUMP JUMPDEST CODESIZE DUP1 PUSH2 0x2726 JUMP JUMPDEST MLOAD RETURNDATASIZE DUP6 DUP3 RETURNDATACOPY RETURNDATASIZE SWAP1 REVERT JUMPDEST PUSH4 0x4E487B71 PUSH1 0xE0 SHL DUP9 MSTORE PUSH1 0x11 PUSH1 0x4 MSTORE PUSH1 0x24 DUP9 REVERT JUMPDEST PUSH2 0x2780 SWAP1 PUSH1 0x20 RETURNDATASIZE DUP2 GT PUSH2 0x6A8 JUMPI PUSH2 0x699 DUP2 DUP4 PUSH2 0x2112 JUMP JUMPDEST POP CODESIZE PUSH2 0x2689 JUMP JUMPDEST DUP5 MLOAD RETURNDATASIZE DUP9 DUP3 RETURNDATACOPY RETURNDATASIZE SWAP1 REVERT INVALID LOG2 PUSH5 0x6970667358 0x22 SLT KECCAK256 SWAP3 0xF7 0xBC PUSH29 0x142BAB4357A1D2FCF3E7131109A8F8D130FEFFA12E05FD3A9AAA33CF64 PUSH20 0x6F6C634300081400330000000000000000000000 "},"methodIdentifiers":{"aavePool()":"a03e4bc3","cbBtcToken()":"0e462386","chainlinkOracle()":"ef06e72c","getInstallmentSchedule(bytes32)":"6c1945ae","getPrice()":"98d5fdca","hasActiveLoan(address)":"21d4f8db","lenders(address)":"28fd10d7","liquidate(bytes32)":"0a71096e","liquidateIfOverdue(bytes32)":"28830d47","loan(uint256,uint256,uint256,address[],uint256[])":"66fb6e5a","loanIds(uint256)":"f8715a42","loans(bytes32)":"c4a90815","markInstallmentPaid(bytes32,uint256)":"c9642d2a","owner()":"8da5cb5b","payouts(bytes32,uint256)":"80f2122c","setAavePool(address)":"349f937c","setCbBtcToken(address)":"83cd8fcf","setChainlinkOracle(address)":"7a9b0412","setSwapRouter(address)":"41273657","swapRouter()":"c31c9c07","usdcToken()":"11eac855"}}}}}