{"Contracts/Helper.sol":{"MockAavePool":{"abi":[{"inputs":[],"stateMutability":"nonpayable","type":"constructor"},{"anonymous":false,"inputs":[{"indexed":true,"internalType":"address","name":"asset","type":"address"},{"indexed":false,"internalType":"uint256","name":"rate","type":"uint256"}],"name":"InterestRateSet","type":"event"},{"anonymous":false,"inputs":[{"indexed":true,"internalType":"address","name":"asset","type":"address"},{"indexed":true,"internalType":"address","name":"user","type":"address"},{"indexed":false,"internalType":"uint256","name":"amount","type":"uint256"}],"name":"Supply","type":"event"},{"anonymous":false,"inputs":[{"indexed":true,"internalType":"address","name":"asset","type":"address"},{"indexed":true,"internalType":"address","name":"user","type":"address"},{"indexed":false,"internalType":"uint256","name":"amount","type":"uint256"}],"name":"Withdraw","type":"event"},{"inputs":[{"internalType":"address","name":"asset","type":"address"}],"name":"getTotalSupply","outputs":[{"internalType":"uint256","name":"","type":"uint256"}],"stateMutability":"view","type":"function"},{"inputs":[{"internalType":"address","name":"asset","type":"address"},{"internalType":"address","name":"user","type":"address"}],"name":"getUserSupply","outputs":[{"internalType":"uint256","name":"","type":"uint256"}],"stateMutability":"view","type":"function"},{"inputs":[{"internalType":"address","name":"","type":"address"}],"name":"interestRates","outputs":[{"internalType":"uint256","name":"","type":"uint256"}],"stateMutability":"view","type":"function"},{"inputs":[],"name":"owner","outputs":[{"internalType":"address","name":"","type":"address"}],"stateMutability":"view","type":"function"},{"inputs":[{"internalType":"address","name":"asset","type":"address"},{"internalType":"uint256","name":"rate","type":"uint256"}],"name":"setInterestRate","outputs":[],"stateMutability":"nonpayable","type":"function"},{"inputs":[{"internalType":"address","name":"asset","type":"address"},{"internalType":"uint256","name":"amount","type":"uint256"},{"internalType":"address","name":"onBehalfOf","type":"address"},{"internalType":"uint16","name":"referralCode","type":"uint16"}],"name":"supply","outputs":[],"stateMutability":"nonpayable","type":"function"},{"inputs":[{"internalType":"address","name":"","type":"address"}],"name":"totalSupplies","outputs":[{"internalType":"uint256","name":"","type":"uint256"}],"stateMutability":"view","type":"function"},{"inputs":[{"internalType":"address","name":"","type":"address"},{"internalType":"address","name":"","type":"address"}],"name":"userSupplies","outputs":[{"internalType":"uint256","name":"","type":"uint256"}],"stateMutability":"view","type":"function"},{"inputs":[{"internalType":"address","name":"asset","type":"address"},{"internalType":"uint256","name":"amount","type":"uint256"},{"internalType":"address","name":"to","type":"address"}],"name":"withdraw","outputs":[{"internalType":"uint256","name":"","type":"uint256"}],"stateMutability":"nonpayable","type":"function"}],"evm":{"bytecode":{"linkReferences":{},"object":"6080806040523461002857600380546001600160a01b03191633179055610653908161002e8239f35b600080fdfe608060408181526004918236101561001657600080fd5b600092833560e01c918263028cc6511461051157508163617ba037146103bc57816368da10ae1461039457816369328dec1461022957816373e5515e14610168575080638da5cb5b146101405780639782e82114610109578063dccda03d146100d25763ee9e836d1461008857600080fd5b346100ce57806003193601126100ce57806020926100a4610556565b6100ac610571565b6001600160a01b03918216835282865283832091168252845220549051908152f35b5080fd5b50346100ce5760203660031901126100ce5760209181906001600160a01b036100f9610556565b1681526002845220549051908152f35b50346100ce5760203660031901126100ce5760209181906001600160a01b03610130610556565b1681526001845220549051908152f35b50346100ce57816003193601126100ce5760035490516001600160a01b039091168152602090f35b905034610225578160031936011261022557610182610556565b600354602435926001600160a01b039291831633036101d85750916020917fcd71eadfd232caec497a12178db6d8be8a15f0f645b648615007e6e8e7143c8893169384865260028352818187205551908152a280f35b608490602086519162461bcd60e51b8352820152602160248201527f4f6e6c79206f776e65722063616e2063616c6c20746869732066756e6374696f6044820152603760f91b6064820152fd5b8280fd5b9190503461022557606036600319011261022557610245610556565b9160243593610252610587565b6001600160a01b03948516808352602083815285842033855281528584205490979193918181111561038c5750955b86156103525783825281885285822033835288528582206102a3888254610610565b9055838252600188528582206102ba888254610610565b905585519263a9059cbb60e01b8452168094830152856024830152868260448184875af1908115610347575061031a575b507f9b1bfa7fa9ee420a16e124f794c35ac9f90472acc99140eb2f6447c714cad8eb858451868152a351908152f35b61033990863d8811610340575b610331818361059d565b8101906105d5565b50386102eb565b503d610327565b8551903d90823e3d90fd5b855162461bcd60e51b815280860189905260146024820152734e6f2066756e647320746f20776974686472617760601b6044820152606490fd5b905095610281565b5050346100ce5760203660031901126100ce5760209181906001600160a01b03610130610556565b91905034610225576080366003190112610225576103d8610556565b90602435916103e5610587565b9260643561ffff81160361050d5780156104ca5782516323b872dd60e01b81523395810195909552306024860152604485018190526001600160a01b039182169260209283876064818b895af19687156104c0577fd1cf3d156d5f8f0d50f6c122ed609cec09d35c9b9fb3fff6ea0959134dae424e9596976104a3575b5085885287845281882096169586885283528087206104828382546105ed565b9055848752600183528087206104998382546105ed565b905551908152a380f35b6104b990853d871161034057610331818361059d565b5038610462565b82513d8a823e3d90fd5b825162461bcd60e51b8152602081870152601d60248201527f416d6f756e74206d7573742062652067726561746572207468616e20300000006044820152606490fd5b8580fd5b8490843461022557806003193601126102255760209261052f610556565b610537610571565b6001600160a01b03918216835282865283832091168252845220548152f35b600435906001600160a01b038216820361056c57565b600080fd5b602435906001600160a01b038216820361056c57565b604435906001600160a01b038216820361056c57565b90601f8019910116810190811067ffffffffffffffff8211176105bf57604052565b634e487b7160e01b600052604160045260246000fd5b9081602091031261056c5751801515810361056c5790565b919082018092116105fa57565b634e487b7160e01b600052601160045260246000fd5b919082039182116105fa5756fea2646970667358221220d8982471803c50fd23ade1aae30ea435b6b7391a95fab22fd70d92bcc21f400e64736f6c63430008140033","opcodes":"PUSH1 0x80 DUP1 PUSH1 0x40 MSTORE CALLVALUE PUSH2 0x28 JUMPI PUSH1 0x3 DUP1 SLOAD PUSH1 0x1 PUSH1 0x1 PUSH1 0xA0 SHL SUB NOT AND CALLER OR SWAP1 SSTORE PUSH2 0x653 SWAP1 DUP2 PUSH2 0x2E DUP3 CODECOPY RETURN JUMPDEST PUSH1 0x0 DUP1 REVERT INVALID PUSH1 0x80 PUSH1 0x40 DUP2 DUP2 MSTORE PUSH1 0x4 SWAP2 DUP3 CALLDATASIZE LT ISZERO PUSH2 0x16 JUMPI PUSH1 0x0 DUP1 REVERT JUMPDEST PUSH1 0x0 SWAP3 DUP4 CALLDATALOAD PUSH1 0xE0 SHR SWAP2 DUP3 PUSH4 0x28CC651 EQ PUSH2 0x511 JUMPI POP DUP2 PUSH4 0x617BA037 EQ PUSH2 0x3BC JUMPI DUP2 PUSH4 0x68DA10AE EQ PUSH2 0x394 JUMPI DUP2 PUSH4 0x69328DEC EQ PUSH2 0x229 JUMPI DUP2 PUSH4 0x73E5515E EQ PUSH2 0x168 JUMPI POP DUP1 PUSH4 0x8DA5CB5B EQ PUSH2 0x140 JUMPI DUP1 PUSH4 0x9782E821 EQ PUSH2 0x109 JUMPI DUP1 PUSH4 0xDCCDA03D EQ PUSH2 0xD2 JUMPI PUSH4 0xEE9E836D EQ PUSH2 0x88 JUMPI PUSH1 0x0 DUP1 REVERT JUMPDEST CALLVALUE PUSH2 0xCE JUMPI DUP1 PUSH1 0x3 NOT CALLDATASIZE ADD SLT PUSH2 0xCE JUMPI DUP1 PUSH1 0x20 SWAP3 PUSH2 0xA4 PUSH2 0x556 JUMP JUMPDEST PUSH2 0xAC PUSH2 0x571 JUMP JUMPDEST PUSH1 0x1 PUSH1 0x1 PUSH1 0xA0 SHL SUB SWAP2 DUP3 AND DUP4 MSTORE DUP3 DUP7 MSTORE DUP4 DUP4 KECCAK256 SWAP2 AND DUP3 MSTORE DUP5 MSTORE KECCAK256 SLOAD SWAP1 MLOAD SWAP1 DUP2 MSTORE RETURN JUMPDEST POP DUP1 REVERT JUMPDEST POP CALLVALUE PUSH2 0xCE JUMPI PUSH1 0x20 CALLDATASIZE PUSH1 0x3 NOT ADD SLT PUSH2 0xCE JUMPI PUSH1 0x20 SWAP2 DUP2 SWAP1 PUSH1 0x1 PUSH1 0x1 PUSH1 0xA0 SHL SUB PUSH2 0xF9 PUSH2 0x556 JUMP JUMPDEST AND DUP2 MSTORE PUSH1 0x2 DUP5 MSTORE KECCAK256 SLOAD SWAP1 MLOAD SWAP1 DUP2 MSTORE RETURN JUMPDEST POP CALLVALUE PUSH2 0xCE JUMPI PUSH1 0x20 CALLDATASIZE PUSH1 0x3 NOT ADD SLT PUSH2 0xCE JUMPI PUSH1 0x20 SWAP2 DUP2 SWAP1 PUSH1 0x1 PUSH1 0x1 PUSH1 0xA0 SHL SUB PUSH2 0x130 PUSH2 0x556 JUMP JUMPDEST AND DUP2 MSTORE PUSH1 0x1 DUP5 MSTORE KECCAK256 SLOAD SWAP1 MLOAD SWAP1 DUP2 MSTORE RETURN JUMPDEST POP CALLVALUE PUSH2 0xCE JUMPI DUP2 PUSH1 0x3 NOT CALLDATASIZE ADD SLT PUSH2 0xCE JUMPI PUSH1 0x3 SLOAD SWAP1 MLOAD PUSH1 0x1 PUSH1 0x1 PUSH1 0xA0 SHL SUB SWAP1 SWAP2 AND DUP2 MSTORE PUSH1 0x20 SWAP1 RETURN JUMPDEST SWAP1 POP CALLVALUE PUSH2 0x225 JUMPI DUP2 PUSH1 0x3 NOT CALLDATASIZE ADD SLT PUSH2 0x225 JUMPI PUSH2 0x182 PUSH2 0x556 JUMP JUMPDEST PUSH1 0x3 SLOAD PUSH1 0x24 CALLDATALOAD SWAP3 PUSH1 0x1 PUSH1 0x1 PUSH1 0xA0 SHL SUB SWAP3 SWAP2 DUP4 AND CALLER SUB PUSH2 0x1D8 JUMPI POP SWAP2 PUSH1 0x20 SWAP2 PUSH32 0xCD71EADFD232CAEC497A12178DB6D8BE8A15F0F645B648615007E6E8E7143C88 SWAP4 AND SWAP4 DUP5 DUP7 MSTORE PUSH1 0x2 DUP4 MSTORE DUP2 DUP2 DUP8 KECCAK256 SSTORE MLOAD SWAP1 DUP2 MSTORE LOG2 DUP1 RETURN JUMPDEST PUSH1 0x84 SWAP1 PUSH1 0x20 DUP7 MLOAD SWAP2 PUSH3 0x461BCD PUSH1 0xE5 SHL DUP4 MSTORE DUP3 ADD MSTORE PUSH1 0x21 PUSH1 0x24 DUP3 ADD MSTORE PUSH32 0x4F6E6C79206F776E65722063616E2063616C6C20746869732066756E6374696F PUSH1 0x44 DUP3 ADD MSTORE PUSH1 0x37 PUSH1 0xF9 SHL PUSH1 0x64 DUP3 ADD MSTORE REVERT JUMPDEST DUP3 DUP1 REVERT JUMPDEST SWAP2 SWAP1 POP CALLVALUE PUSH2 0x225 JUMPI PUSH1 0x60 CALLDATASIZE PUSH1 0x3 NOT ADD SLT PUSH2 0x225 JUMPI PUSH2 0x245 PUSH2 0x556 JUMP JUMPDEST SWAP2 PUSH1 0x24 CALLDATALOAD SWAP4 PUSH2 0x252 PUSH2 0x587 JUMP JUMPDEST PUSH1 0x1 PUSH1 0x1 PUSH1 0xA0 SHL SUB SWAP5 DUP6 AND DUP1 DUP4 MSTORE PUSH1 0x20 DUP4 DUP2 MSTORE DUP6 DUP5 KECCAK256 CALLER DUP6 MSTORE DUP2 MSTORE DUP6 DUP5 KECCAK256 SLOAD SWAP1 SWAP8 SWAP2 SWAP4 SWAP2 DUP2 DUP2 GT ISZERO PUSH2 0x38C JUMPI POP SWAP6 JUMPDEST DUP7 ISZERO PUSH2 0x352 JUMPI DUP4 DUP3 MSTORE DUP2 DUP9 MSTORE DUP6 DUP3 KECCAK256 CALLER DUP4 MSTORE DUP9 MSTORE DUP6 DUP3 KECCAK256 PUSH2 0x2A3 DUP9 DUP3 SLOAD PUSH2 0x610 JUMP JUMPDEST SWAP1 SSTORE DUP4 DUP3 MSTORE PUSH1 0x1 DUP9 MSTORE DUP6 DUP3 KECCAK256 PUSH2 0x2BA DUP9 DUP3 SLOAD PUSH2 0x610 JUMP JUMPDEST SWAP1 SSTORE DUP6 MLOAD SWAP3 PUSH4 0xA9059CBB PUSH1 0xE0 SHL DUP5 MSTORE AND DUP1 SWAP5 DUP4 ADD MSTORE DUP6 PUSH1 0x24 DUP4 ADD MSTORE DUP7 DUP3 PUSH1 0x44 DUP2 DUP5 DUP8 GAS CALL SWAP1 DUP2 ISZERO PUSH2 0x347 JUMPI POP PUSH2 0x31A JUMPI JUMPDEST POP PUSH32 0x9B1BFA7FA9EE420A16E124F794C35AC9F90472ACC99140EB2F6447C714CAD8EB DUP6 DUP5 MLOAD DUP7 DUP2 MSTORE LOG3 MLOAD SWAP1 DUP2 MSTORE RETURN JUMPDEST PUSH2 0x339 SWAP1 DUP7 RETURNDATASIZE DUP9 GT PUSH2 0x340 JUMPI JUMPDEST PUSH2 0x331 DUP2 DUP4 PUSH2 0x59D JUMP JUMPDEST DUP2 ADD SWAP1 PUSH2 0x5D5 JUMP JUMPDEST POP CODESIZE PUSH2 0x2EB JUMP JUMPDEST POP RETURNDATASIZE PUSH2 0x327 JUMP JUMPDEST DUP6 MLOAD SWAP1 RETURNDATASIZE SWAP1 DUP3 RETURNDATACOPY RETURNDATASIZE SWAP1 REVERT JUMPDEST DUP6 MLOAD PUSH3 0x461BCD PUSH1 0xE5 SHL DUP2 MSTORE DUP1 DUP7 ADD DUP10 SWAP1 MSTORE PUSH1 0x14 PUSH1 0x24 DUP3 ADD MSTORE PUSH20 0x4E6F2066756E647320746F207769746864726177 PUSH1 0x60 SHL PUSH1 0x44 DUP3 ADD MSTORE PUSH1 0x64 SWAP1 REVERT JUMPDEST SWAP1 POP SWAP6 PUSH2 0x281 JUMP JUMPDEST POP POP CALLVALUE PUSH2 0xCE JUMPI PUSH1 0x20 CALLDATASIZE PUSH1 0x3 NOT ADD SLT PUSH2 0xCE JUMPI PUSH1 0x20 SWAP2 DUP2 SWAP1 PUSH1 0x1 PUSH1 0x1 PUSH1 0xA0 SHL SUB PUSH2 0x130 PUSH2 0x556 JUMP JUMPDEST SWAP2 SWAP1 POP CALLVALUE PUSH2 0x225 JUMPI PUSH1 0x80 CALLDATASIZE PUSH1 0x3 NOT ADD SLT PUSH2 0x225 JUMPI PUSH2 0x3D8 PUSH2 0x556 JUMP JUMPDEST SWAP1 PUSH1 0x24 CALLDATALOAD SWAP2 PUSH2 0x3E5 PUSH2 0x587 JUMP JUMPDEST SWAP3 PUSH1 0x64 CALLDATALOAD PUSH2 0xFFFF DUP2 AND SUB PUSH2 0x50D JUMPI DUP1 ISZERO PUSH2 0x4CA JUMPI DUP3 MLOAD PUSH4 0x23B872DD PUSH1 0xE0 SHL DUP2 MSTORE CALLER SWAP6 DUP2 ADD SWAP6 SWAP1 SWAP6 MSTORE ADDRESS PUSH1 0x24 DUP7 ADD MSTORE PUSH1 0x44 DUP6 ADD DUP2 SWAP1 MSTORE PUSH1 0x1 PUSH1 0x1 PUSH1 0xA0 SHL SUB SWAP2 DUP3 AND SWAP3 PUSH1 0x20 SWAP3 DUP4 DUP8 PUSH1 0x64 DUP2 DUP12 DUP10 GAS CALL SWAP7 DUP8 ISZERO PUSH2 0x4C0 JUMPI PUSH32 0xD1CF3D156D5F8F0D50F6C122ED609CEC09D35C9B9FB3FFF6EA0959134DAE424E SWAP6 SWAP7 SWAP8 PUSH2 0x4A3 JUMPI JUMPDEST POP DUP6 DUP9 MSTORE DUP8 DUP5 MSTORE DUP2 DUP9 KECCAK256 SWAP7 AND SWAP6 DUP7 DUP9 MSTORE DUP4 MSTORE DUP1 DUP8 KECCAK256 PUSH2 0x482 DUP4 DUP3 SLOAD PUSH2 0x5ED JUMP JUMPDEST SWAP1 SSTORE DUP5 DUP8 MSTORE PUSH1 0x1 DUP4 MSTORE DUP1 DUP8 KECCAK256 PUSH2 0x499 DUP4 DUP3 SLOAD PUSH2 0x5ED JUMP JUMPDEST SWAP1 SSTORE MLOAD SWAP1 DUP2 MSTORE LOG3 DUP1 RETURN JUMPDEST PUSH2 0x4B9 SWAP1 DUP6 RETURNDATASIZE DUP8 GT PUSH2 0x340 JUMPI PUSH2 0x331 DUP2 DUP4 PUSH2 0x59D JUMP JUMPDEST POP CODESIZE PUSH2 0x462 JUMP JUMPDEST DUP3 MLOAD RETURNDATASIZE DUP11 DUP3 RETURNDATACOPY RETURNDATASIZE SWAP1 REVERT JUMPDEST DUP3 MLOAD PUSH3 0x461BCD PUSH1 0xE5 SHL DUP2 MSTORE PUSH1 0x20 DUP2 DUP8 ADD MSTORE PUSH1 0x1D PUSH1 0x24 DUP3 ADD MSTORE PUSH32 0x416D6F756E74206D7573742062652067726561746572207468616E2030000000 PUSH1 0x44 DUP3 ADD MSTORE PUSH1 0x64 SWAP1 REVERT JUMPDEST DUP6 DUP1 REVERT JUMPDEST DUP5 SWAP1 DUP5 CALLVALUE PUSH2 0x225 JUMPI DUP1 PUSH1 0x3 NOT CALLDATASIZE ADD SLT PUSH2 0x225 JUMPI PUSH1 0x20 SWAP3 PUSH2 0x52F PUSH2 0x556 JUMP JUMPDEST PUSH2 0x537 PUSH2 0x571 JUMP JUMPDEST PUSH1 0x1 PUSH1 0x1 PUSH1 0xA0 SHL SUB SWAP2 DUP3 AND DUP4 MSTORE DUP3 DUP7 MSTORE DUP4 DUP4 KECCAK256 SWAP2 AND DUP3 MSTORE DUP5 MSTORE KECCAK256 SLOAD DUP2 MSTORE RETURN JUMPDEST PUSH1 0x4 CALLDATALOAD SWAP1 PUSH1 0x1 PUSH1 0x1 PUSH1 0xA0 SHL SUB DUP3 AND DUP3 SUB PUSH2 0x56C JUMPI JUMP JUMPDEST PUSH1 0x0 DUP1 REVERT JUMPDEST PUSH1 0x24 CALLDATALOAD SWAP1 PUSH1 0x1 PUSH1 0x1 PUSH1 0xA0 SHL SUB DUP3 AND DUP3 SUB PUSH2 0x56C JUMPI JUMP JUMPDEST PUSH1 0x44 CALLDATALOAD SWAP1 PUSH1 0x1 PUSH1 0x1 PUSH1 0xA0 SHL SUB DUP3 AND DUP3 SUB PUSH2 0x56C JUMPI JUMP JUMPDEST SWAP1 PUSH1 0x1F DUP1 NOT SWAP2 ADD AND DUP2 ADD SWAP1 DUP2 LT PUSH8 0xFFFFFFFFFFFFFFFF DUP3 GT OR PUSH2 0x5BF JUMPI PUSH1 0x40 MSTORE JUMP JUMPDEST PUSH4 0x4E487B71 PUSH1 0xE0 SHL PUSH1 0x0 MSTORE PUSH1 0x41 PUSH1 0x4 MSTORE PUSH1 0x24 PUSH1 0x0 REVERT JUMPDEST SWAP1 DUP2 PUSH1 0x20 SWAP2 SUB SLT PUSH2 0x56C JUMPI MLOAD DUP1 ISZERO ISZERO DUP2 SUB PUSH2 0x56C JUMPI SWAP1 JUMP JUMPDEST SWAP2 SWAP1 DUP3 ADD DUP1 SWAP3 GT PUSH2 0x5FA JUMPI JUMP JUMPDEST PUSH4 0x4E487B71 PUSH1 0xE0 SHL PUSH1 0x0 MSTORE PUSH1 0x11 PUSH1 0x4 MSTORE PUSH1 0x24 PUSH1 0x0 REVERT JUMPDEST SWAP2 SWAP1 DUP3 SUB SWAP2 DUP3 GT PUSH2 0x5FA JUMPI JUMP INVALID LOG2 PUSH5 0x6970667358 0x22 SLT KECCAK256 0xD8 SWAP9 0x24 PUSH18 0x803C50FD23ADE1AAE30EA435B6B7391A95FA 0xB2 0x2F 0xD7 0xD SWAP3 0xBC 0xC2 0x1F BLOCKHASH 0xE PUSH5 0x736F6C6343 STOP ADDMOD EQ STOP CALLER "},"methodIdentifiers":{"getTotalSupply(address)":"68da10ae","getUserSupply(address,address)":"ee9e836d","interestRates(address)":"dccda03d","owner()":"8da5cb5b","setInterestRate(address,uint256)":"73e5515e","supply(address,uint256,address,uint16)":"617ba037","totalSupplies(address)":"9782e821","userSupplies(address,address)":"028cc651","withdraw(address,uint256,address)":"69328dec"}}}}}