{"contracts/Helper.sol":{"MockBTCPriceOracle":{"abi":[{"inputs":[{"internalType":"int256","name":"initialPrice","type":"int256"}],"stateMutability":"nonpayable","type":"constructor"},{"anonymous":false,"inputs":[{"indexed":false,"internalType":"int256","name":"price","type":"int256"}],"name":"PriceUpdated","type":"event"},{"inputs":[],"name":"decimals","outputs":[{"internalType":"uint8","name":"","type":"uint8"}],"stateMutability":"view","type":"function"},{"inputs":[],"name":"description","outputs":[{"internalType":"string","name":"","type":"string"}],"stateMutability":"view","type":"function"},{"inputs":[],"name":"latestRoundData","outputs":[{"internalType":"uint80","name":"roundId","type":"uint80"},{"internalType":"int256","name":"answer","type":"int256"},{"internalType":"uint256","name":"startedAt","type":"uint256"},{"internalType":"uint256","name":"updatedAt","type":"uint256"},{"internalType":"uint80","name":"answeredInRound","type":"uint80"}],"stateMutability":"view","type":"function"},{"inputs":[],"name":"owner","outputs":[{"internalType":"address","name":"","type":"address"}],"stateMutability":"view","type":"function"},{"inputs":[{"internalType":"int256","name":"newPrice","type":"int256"}],"name":"updatePrice","outputs":[],"stateMutability":"nonpayable","type":"function"},{"inputs":[],"name":"version","outputs":[{"internalType":"uint256","name":"","type":"uint256"}],"stateMutability":"view","type":"function"}],"evm":{"bytecode":{"linkReferences":{},"object":"60803461012757601f6104b738819003918201601f19168301916001600160401b0383118484101761012c5780849260209460405283398101031261012757516001805460ff1916600817815560025480821c908216801561011d575b602082101461010757601f81116100ba575b507f4d6f636b20425443202f2055534400000000000000000000000000000000001c600255600355600055600480546001600160a01b0319163317905560405161037490816101438239f35b6002600052601f0160051c7f405787fa12a823e0f2b7631cc41b3ba8828b3321ca811111fa75cd3aa3bb5ace9081019082905b8281106100fb57505061006e565b600081550182906100ed565b634e487b7160e01b600052602260045260246000fd5b90607f169061005c565b600080fd5b634e487b7160e01b600052604160045260246000fdfe608060408181526004918236101561001657600080fd5b600090813560e01c908163313ce5671461031f5750806354fd4d50146102fc5780637284e4161461019d5780638da5cb5b14610175578063d4c19bda146100cb5763feaf968c1461006657600080fd5b346100c857806003193601126100c85769ffffffffffffffffffff431690805492610e0f194201914283116100b5575060a0945080519383855260208501528301524260608301526080820152f35b634e487b7160e01b815260118652602490fd5b80fd5b50919034610171576020366003190112610171578154823592906001600160a01b031633036101255750816020917ffa6bd982fa4e58a45ea44e1fe84ab8e9de93c3310ec81db62565ac50139a6ca393855551908152a180f35b6020608492519162461bcd60e51b8352820152602160248201527f4f6e6c79206f776e65722063616e2063616c6c20746869732066756e6374696f6044820152603760f91b6064820152fd5b8280fd5b5091346101715782600319360112610171575490516001600160a01b03909116815260209150f35b5091903461017157826003193601126101715780518360025460019581871c8783169788156102f2575b6020938483108a146102df57848798999a84895291826000146102c357505060011461026f575b5050601f801995869203011683019583871067ffffffffffffffff88111761025c575085929391838652818452845191828186015281955b8387106102445750508394508582601f949501015201168101030190f35b86810182015189880189015295810195889550610226565b634e487b7160e01b835260419052602482fd5b600285528492507f405787fa12a823e0f2b7631cc41b3ba8828b3321ca811111fa75cd3aa3bb5ace5b8284106102ad575050508301810138806101ee565b8054888501860152879650928401928101610298565b925093505060ff191682860152151560051b84010138806101ee565b634e487b7160e01b865260228952602486fd5b90607f16906101c7565b50903461031b578160031936011261031b576020906003549051908152f35b5080fd5b90503461031b578160031936011261031b5760209060ff600154168152f3fea2646970667358221220844d2d09dbd935a296fb6fbe48e6516c2dd930f4f7c8279da7df1b82727a90ee64736f6c63430008140033","opcodes":"PUSH1 0x80 CALLVALUE PUSH2 0x127 JUMPI PUSH1 0x1F PUSH2 0x4B7 CODESIZE DUP2 SWAP1 SUB SWAP2 DUP3 ADD PUSH1 0x1F NOT AND DUP4 ADD SWAP2 PUSH1 0x1 PUSH1 0x1 PUSH1 0x40 SHL SUB DUP4 GT DUP5 DUP5 LT OR PUSH2 0x12C JUMPI DUP1 DUP5 SWAP3 PUSH1 0x20 SWAP5 PUSH1 0x40 MSTORE DUP4 CODECOPY DUP2 ADD SUB SLT PUSH2 0x127 JUMPI MLOAD PUSH1 0x1 DUP1 SLOAD PUSH1 0xFF NOT AND PUSH1 0x8 OR DUP2 SSTORE PUSH1 0x2 SLOAD DUP1 DUP3 SHR SWAP1 DUP3 AND DUP1 ISZERO PUSH2 0x11D JUMPI JUMPDEST PUSH1 0x20 DUP3 LT EQ PUSH2 0x107 JUMPI PUSH1 0x1F DUP2 GT PUSH2 0xBA JUMPI JUMPDEST POP PUSH32 0x4D6F636B20425443202F2055534400000000000000000000000000000000001C PUSH1 0x2 SSTORE PUSH1 0x3 SSTORE PUSH1 0x0 SSTORE PUSH1 0x4 DUP1 SLOAD PUSH1 0x1 PUSH1 0x1 PUSH1 0xA0 SHL SUB NOT AND CALLER OR SWAP1 SSTORE PUSH1 0x40 MLOAD PUSH2 0x374 SWAP1 DUP2 PUSH2 0x143 DUP3 CODECOPY RETURN JUMPDEST PUSH1 0x2 PUSH1 0x0 MSTORE PUSH1 0x1F ADD PUSH1 0x5 SHR PUSH32 0x405787FA12A823E0F2B7631CC41B3BA8828B3321CA811111FA75CD3AA3BB5ACE SWAP1 DUP2 ADD SWAP1 DUP3 SWAP1 JUMPDEST DUP3 DUP2 LT PUSH2 0xFB JUMPI POP POP PUSH2 0x6E JUMP JUMPDEST PUSH1 0x0 DUP2 SSTORE ADD DUP3 SWAP1 PUSH2 0xED JUMP JUMPDEST PUSH4 0x4E487B71 PUSH1 0xE0 SHL PUSH1 0x0 MSTORE PUSH1 0x22 PUSH1 0x4 MSTORE PUSH1 0x24 PUSH1 0x0 REVERT JUMPDEST SWAP1 PUSH1 0x7F AND SWAP1 PUSH2 0x5C JUMP JUMPDEST PUSH1 0x0 DUP1 REVERT JUMPDEST PUSH4 0x4E487B71 PUSH1 0xE0 SHL PUSH1 0x0 MSTORE PUSH1 0x41 PUSH1 0x4 MSTORE PUSH1 0x24 PUSH1 0x0 REVERT INVALID PUSH1 0x80 PUSH1 0x40 DUP2 DUP2 MSTORE PUSH1 0x4 SWAP2 DUP3 CALLDATASIZE LT ISZERO PUSH2 0x16 JUMPI PUSH1 0x0 DUP1 REVERT JUMPDEST PUSH1 0x0 SWAP1 DUP2 CALLDATALOAD PUSH1 0xE0 SHR SWAP1 DUP2 PUSH4 0x313CE567 EQ PUSH2 0x31F JUMPI POP DUP1 PUSH4 0x54FD4D50 EQ PUSH2 0x2FC JUMPI DUP1 PUSH4 0x7284E416 EQ PUSH2 0x19D JUMPI DUP1 PUSH4 0x8DA5CB5B EQ PUSH2 0x175 JUMPI DUP1 PUSH4 0xD4C19BDA EQ PUSH2 0xCB JUMPI PUSH4 0xFEAF968C EQ PUSH2 0x66 JUMPI PUSH1 0x0 DUP1 REVERT JUMPDEST CALLVALUE PUSH2 0xC8 JUMPI DUP1 PUSH1 0x3 NOT CALLDATASIZE ADD SLT PUSH2 0xC8 JUMPI PUSH10 0xFFFFFFFFFFFFFFFFFFFF NUMBER AND SWAP1 DUP1 SLOAD SWAP3 PUSH2 0xE0F NOT TIMESTAMP ADD SWAP2 TIMESTAMP DUP4 GT PUSH2 0xB5 JUMPI POP PUSH1 0xA0 SWAP5 POP DUP1 MLOAD SWAP4 DUP4 DUP6 MSTORE PUSH1 0x20 DUP6 ADD MSTORE DUP4 ADD MSTORE TIMESTAMP PUSH1 0x60 DUP4 ADD MSTORE PUSH1 0x80 DUP3 ADD MSTORE RETURN JUMPDEST PUSH4 0x4E487B71 PUSH1 0xE0 SHL DUP2 MSTORE PUSH1 0x11 DUP7 MSTORE PUSH1 0x24 SWAP1 REVERT JUMPDEST DUP1 REVERT JUMPDEST POP SWAP2 SWAP1 CALLVALUE PUSH2 0x171 JUMPI PUSH1 0x20 CALLDATASIZE PUSH1 0x3 NOT ADD SLT PUSH2 0x171 JUMPI DUP2 SLOAD DUP3 CALLDATALOAD SWAP3 SWAP1 PUSH1 0x1 PUSH1 0x1 PUSH1 0xA0 SHL SUB AND CALLER SUB PUSH2 0x125 JUMPI POP DUP2 PUSH1 0x20 SWAP2 PUSH32 0xFA6BD982FA4E58A45EA44E1FE84AB8E9DE93C3310EC81DB62565AC50139A6CA3 SWAP4 DUP6 SSTORE MLOAD SWAP1 DUP2 MSTORE LOG1 DUP1 RETURN JUMPDEST PUSH1 0x20 PUSH1 0x84 SWAP3 MLOAD SWAP2 PUSH3 0x461BCD PUSH1 0xE5 SHL DUP4 MSTORE DUP3 ADD MSTORE PUSH1 0x21 PUSH1 0x24 DUP3 ADD MSTORE PUSH32 0x4F6E6C79206F776E65722063616E2063616C6C20746869732066756E6374696F PUSH1 0x44 DUP3 ADD MSTORE PUSH1 0x37 PUSH1 0xF9 SHL PUSH1 0x64 DUP3 ADD MSTORE REVERT JUMPDEST DUP3 DUP1 REVERT JUMPDEST POP SWAP2 CALLVALUE PUSH2 0x171 JUMPI DUP3 PUSH1 0x3 NOT CALLDATASIZE ADD SLT PUSH2 0x171 JUMPI SLOAD SWAP1 MLOAD PUSH1 0x1 PUSH1 0x1 PUSH1 0xA0 SHL SUB SWAP1 SWAP2 AND DUP2 MSTORE PUSH1 0x20 SWAP2 POP RETURN JUMPDEST POP SWAP2 SWAP1 CALLVALUE PUSH2 0x171 JUMPI DUP3 PUSH1 0x3 NOT CALLDATASIZE ADD SLT PUSH2 0x171 JUMPI DUP1 MLOAD DUP4 PUSH1 0x2 SLOAD PUSH1 0x1 SWAP6 DUP2 DUP8 SHR DUP8 DUP4 AND SWAP8 DUP9 ISZERO PUSH2 0x2F2 JUMPI JUMPDEST PUSH1 0x20 SWAP4 DUP5 DUP4 LT DUP11 EQ PUSH2 0x2DF JUMPI DUP5 DUP8 SWAP9 SWAP10 SWAP11 DUP5 DUP10 MSTORE SWAP2 DUP3 PUSH1 0x0 EQ PUSH2 0x2C3 JUMPI POP POP PUSH1 0x1 EQ PUSH2 0x26F JUMPI JUMPDEST POP POP PUSH1 0x1F DUP1 NOT SWAP6 DUP7 SWAP3 SUB ADD AND DUP4 ADD SWAP6 DUP4 DUP8 LT PUSH8 0xFFFFFFFFFFFFFFFF DUP9 GT OR PUSH2 0x25C JUMPI POP DUP6 SWAP3 SWAP4 SWAP2 DUP4 DUP7 MSTORE DUP2 DUP5 MSTORE DUP5 MLOAD SWAP2 DUP3 DUP2 DUP7 ADD MSTORE DUP2 SWAP6 JUMPDEST DUP4 DUP8 LT PUSH2 0x244 JUMPI POP POP DUP4 SWAP5 POP DUP6 DUP3 PUSH1 0x1F SWAP5 SWAP6 ADD ADD MSTORE ADD AND DUP2 ADD SUB ADD SWAP1 RETURN JUMPDEST DUP7 DUP2 ADD DUP3 ADD MLOAD DUP10 DUP9 ADD DUP10 ADD MSTORE SWAP6 DUP2 ADD SWAP6 DUP9 SWAP6 POP PUSH2 0x226 JUMP JUMPDEST PUSH4 0x4E487B71 PUSH1 0xE0 SHL DUP4 MSTORE PUSH1 0x41 SWAP1 MSTORE PUSH1 0x24 DUP3 REVERT JUMPDEST PUSH1 0x2 DUP6 MSTORE DUP5 SWAP3 POP PUSH32 0x405787FA12A823E0F2B7631CC41B3BA8828B3321CA811111FA75CD3AA3BB5ACE JUMPDEST DUP3 DUP5 LT PUSH2 0x2AD JUMPI POP POP POP DUP4 ADD DUP2 ADD CODESIZE DUP1 PUSH2 0x1EE JUMP JUMPDEST DUP1 SLOAD DUP9 DUP6 ADD DUP7 ADD MSTORE DUP8 SWAP7 POP SWAP3 DUP5 ADD SWAP3 DUP2 ADD PUSH2 0x298 JUMP JUMPDEST SWAP3 POP SWAP4 POP POP PUSH1 0xFF NOT AND DUP3 DUP7 ADD MSTORE ISZERO ISZERO PUSH1 0x5 SHL DUP5 ADD ADD CODESIZE DUP1 PUSH2 0x1EE JUMP JUMPDEST PUSH4 0x4E487B71 PUSH1 0xE0 SHL DUP7 MSTORE PUSH1 0x22 DUP10 MSTORE PUSH1 0x24 DUP7 REVERT JUMPDEST SWAP1 PUSH1 0x7F AND SWAP1 PUSH2 0x1C7 JUMP JUMPDEST POP SWAP1 CALLVALUE PUSH2 0x31B JUMPI DUP2 PUSH1 0x3 NOT CALLDATASIZE ADD SLT PUSH2 0x31B JUMPI PUSH1 0x20 SWAP1 PUSH1 0x3 SLOAD SWAP1 MLOAD SWAP1 DUP2 MSTORE RETURN JUMPDEST POP DUP1 REVERT JUMPDEST SWAP1 POP CALLVALUE PUSH2 0x31B JUMPI DUP2 PUSH1 0x3 NOT CALLDATASIZE ADD SLT PUSH2 0x31B JUMPI PUSH1 0x20 SWAP1 PUSH1 0xFF PUSH1 0x1 SLOAD AND DUP2 MSTORE RETURN INVALID LOG2 PUSH5 0x6970667358 0x22 SLT KECCAK256 DUP5 0x4D 0x2D MULMOD 0xDB 0xD9 CALLDATALOAD LOG2 SWAP7 0xFB PUSH16 0xBE48E6516C2DD930F4F7C8279DA7DF1B DUP3 PUSH19 0x7A90EE64736F6C634300081400330000000000 "},"methodIdentifiers":{"decimals()":"313ce567","description()":"7284e416","latestRoundData()":"feaf968c","owner()":"8da5cb5b","updatePrice(int256)":"d4c19bda","version()":"54fd4d50"}}}}}