{"Contracts/Lending.sol":{"LendingPool":{"abi":[{"inputs":[{"internalType":"address","name":"usdc","type":"address"},{"internalType":"address","name":"_cbBtcToken","type":"address"},{"internalType":"address","name":"oracleAddress","type":"address"},{"internalType":"address","name":"_aavePool","type":"address"},{"internalType":"address","name":"_swapRouter","type":"address"}],"stateMutability":"nonpayable","type":"constructor"},{"anonymous":false,"inputs":[{"indexed":false,"internalType":"bytes32","name":"loanId","type":"bytes32"},{"indexed":false,"internalType":"uint256","name":"requested","type":"uint256"},{"indexed":false,"internalType":"uint256","name":"actualWithdrawn","type":"uint256"},{"indexed":false,"internalType":"uint256","name":"preBalance","type":"uint256"},{"indexed":false,"internalType":"uint256","name":"postBalance","type":"uint256"}],"name":"DebugUnstake","type":"event"},{"anonymous":false,"inputs":[{"indexed":false,"internalType":"bytes32","name":"loanId","type":"bytes32"},{"indexed":false,"internalType":"uint256","name":"principalRepaid","type":"uint256"},{"indexed":false,"internalType":"uint256","name":"proportionRepaid","type":"uint256"},{"indexed":false,"internalType":"uint256","name":"cbBtcToUnstake","type":"uint256"}],"name":"DebugUnstakeProportion","type":"event"},{"anonymous":false,"inputs":[{"indexed":false,"internalType":"bytes32","name":"loanId","type":"bytes32"},{"indexed":false,"internalType":"uint256","name":"index","type":"uint256"}],"name":"InstallmentPaid","type":"event"},{"anonymous":false,"inputs":[{"indexed":false,"internalType":"bytes32","name":"id","type":"bytes32"},{"indexed":false,"internalType":"uint256","name":"amount","type":"uint256"},{"indexed":false,"internalType":"uint256","name":"collateral","type":"uint256"},{"indexed":false,"internalType":"address","name":"borrower","type":"address"}],"name":"LoanCreated","type":"event"},{"anonymous":false,"inputs":[{"indexed":false,"internalType":"bytes32","name":"id","type":"bytes32"},{"indexed":false,"internalType":"address","name":"borrower","type":"address"},{"indexed":false,"internalType":"uint256","name":"btcPriceNow","type":"uint256"}],"name":"LoanLiquidated","type":"event"},{"anonymous":false,"inputs":[{"indexed":false,"internalType":"bytes32","name":"loanId","type":"bytes32"},{"indexed":false,"internalType":"address","name":"borrower","type":"address"},{"indexed":false,"internalType":"uint256","name":"amount","type":"uint256"},{"indexed":false,"internalType":"bool","name":"fullyRepaid","type":"bool"}],"name":"Payout","type":"event"},{"anonymous":false,"inputs":[{"indexed":false,"internalType":"bytes32","name":"loanId","type":"bytes32"},{"indexed":false,"internalType":"uint256","name":"usdcAmount","type":"uint256"},{"indexed":false,"internalType":"uint256","name":"cbBtcAmount","type":"uint256"}],"name":"TokensStaked","type":"event"},{"anonymous":false,"inputs":[{"indexed":false,"internalType":"bytes32","name":"loanId","type":"bytes32"},{"indexed":false,"internalType":"uint256","name":"cbBtcAmount","type":"uint256"},{"indexed":false,"internalType":"uint256","name":"usdcAmount","type":"uint256"},{"indexed":false,"internalType":"uint256","name":"borrowerCbBtcShare","type":"uint256"}],"name":"TokensUnstaked","type":"event"},{"inputs":[],"name":"aavePool","outputs":[{"internalType":"contract IAavePool","name":"","type":"address"}],"stateMutability":"view","type":"function"},{"inputs":[],"name":"cbBtcToken","outputs":[{"internalType":"address","name":"","type":"address"}],"stateMutability":"view","type":"function"},{"inputs":[],"name":"chainlinkOracle","outputs":[{"internalType":"contract AggregatorV3Interface","name":"","type":"address"}],"stateMutability":"view","type":"function"},{"inputs":[{"internalType":"bytes32","name":"loanId","type":"bytes32"},{"internalType":"uint256","name":"principalRepaid","type":"uint256"}],"name":"debugUnstakeCalc","outputs":[{"internalType":"uint256","name":"proportionRepaid","type":"uint256"},{"internalType":"uint256","name":"cbBtcToUnstake","type":"uint256"}],"stateMutability":"view","type":"function"},{"inputs":[{"internalType":"bytes32","name":"loanId","type":"bytes32"}],"name":"getAmortizationSchedule","outputs":[{"internalType":"uint256[]","name":"principals","type":"uint256[]"},{"internalType":"uint256[]","name":"interests","type":"uint256[]"},{"internalType":"bool[]","name":"paidStatuses","type":"bool[]"}],"stateMutability":"view","type":"function"},{"inputs":[{"internalType":"bytes32","name":"loanId","type":"bytes32"}],"name":"getInstallmentSchedule","outputs":[{"components":[{"internalType":"uint256","name":"duePrincipal","type":"uint256"},{"internalType":"uint256","name":"dueInterest","type":"uint256"},{"internalType":"bool","name":"paid","type":"bool"},{"internalType":"uint256","name":"dueTimestamp","type":"uint256"}],"internalType":"struct LendingPool.Installment[]","name":"","type":"tuple[]"}],"stateMutability":"view","type":"function"},{"inputs":[],"name":"getPrice","outputs":[{"internalType":"int256","name":"","type":"int256"}],"stateMutability":"view","type":"function"},{"inputs":[{"internalType":"bytes32","name":"loanId","type":"bytes32"}],"name":"getStakedAmount","outputs":[{"internalType":"uint256","name":"","type":"uint256"}],"stateMutability":"view","type":"function"},{"inputs":[{"internalType":"address","name":"","type":"address"}],"name":"hasActiveLoan","outputs":[{"internalType":"bool","name":"","type":"bool"}],"stateMutability":"view","type":"function"},{"inputs":[{"internalType":"address","name":"","type":"address"}],"name":"lenders","outputs":[{"internalType":"uint256","name":"totalContributed","type":"uint256"}],"stateMutability":"view","type":"function"},{"inputs":[{"internalType":"bytes32","name":"loanId","type":"bytes32"}],"name":"liquidate","outputs":[],"stateMutability":"nonpayable","type":"function"},{"inputs":[{"internalType":"bytes32","name":"loanId","type":"bytes32"}],"name":"liquidateIfOverdue","outputs":[],"stateMutability":"nonpayable","type":"function"},{"inputs":[{"internalType":"uint256","name":"totalAmount","type":"uint256"},{"internalType":"uint256","name":"durationMonths","type":"uint256"},{"internalType":"uint256","name":"annualInterestRate","type":"uint256"},{"internalType":"address[]","name":"lenderAddresses","type":"address[]"},{"internalType":"uint256[]","name":"lenderAmounts","type":"uint256[]"}],"name":"loan","outputs":[],"stateMutability":"nonpayable","type":"function"},{"inputs":[{"internalType":"uint256","name":"","type":"uint256"}],"name":"loanIds","outputs":[{"internalType":"bytes32","name":"","type":"bytes32"}],"stateMutability":"view","type":"function"},{"inputs":[{"internalType":"bytes32","name":"","type":"bytes32"}],"name":"loans","outputs":[{"internalType":"bytes32","name":"id","type":"bytes32"},{"internalType":"address","name":"borrower","type":"address"},{"internalType":"uint256","name":"principal","type":"uint256"},{"internalType":"uint256","name":"borrowerDeposit","type":"uint256"},{"internalType":"uint256","name":"interestRate","type":"uint256"},{"internalType":"uint256","name":"duration","type":"uint256"},{"internalType":"uint256","name":"monthlyPayment","type":"uint256"},{"internalType":"uint256","name":"startTime","type":"uint256"},{"internalType":"uint256","name":"btcPriceAtCreation","type":"uint256"},{"internalType":"bool","name":"isActive","type":"bool"},{"internalType":"uint256","name":"totalAmount","type":"uint256"},{"internalType":"uint256","name":"stakedAmount","type":"uint256"},{"internalType":"uint256","name":"remainingPrincipal","type":"uint256"}],"stateMutability":"view","type":"function"},{"inputs":[{"internalType":"bytes32","name":"loanId","type":"bytes32"},{"internalType":"uint256","name":"index","type":"uint256"}],"name":"markInstallmentPaid","outputs":[],"stateMutability":"nonpayable","type":"function"},{"inputs":[],"name":"owner","outputs":[{"internalType":"address","name":"","type":"address"}],"stateMutability":"view","type":"function"},{"inputs":[{"internalType":"bytes32","name":"loanId","type":"bytes32"},{"internalType":"uint256","name":"usdcAmount","type":"uint256"}],"name":"payouts","outputs":[],"stateMutability":"nonpayable","type":"function"},{"inputs":[{"internalType":"address","name":"_aavePool","type":"address"}],"name":"setAavePool","outputs":[],"stateMutability":"nonpayable","type":"function"},{"inputs":[{"internalType":"address","name":"_cbBtcToken","type":"address"}],"name":"setCbBtcToken","outputs":[],"stateMutability":"nonpayable","type":"function"},{"inputs":[{"internalType":"address","name":"oracleAddress","type":"address"}],"name":"setChainlinkOracle","outputs":[],"stateMutability":"nonpayable","type":"function"},{"inputs":[{"internalType":"address","name":"_swapRouter","type":"address"}],"name":"setSwapRouter","outputs":[],"stateMutability":"nonpayable","type":"function"},{"inputs":[],"name":"swapRouter","outputs":[{"internalType":"contract ISwapRouter","name":"","type":"address"}],"stateMutability":"view","type":"function"},{"inputs":[],"name":"usdcToken","outputs":[{"internalType":"address","name":"","type":"address"}],"stateMutability":"view","type":"function"}],"evm":{"bytecode":{"linkReferences":{},"object":"608034620000ec57601f62002ec138819003918201601f19168301916001600160401b03831184841017620000f15780849260a094604052833981010312620000ec576200004d8162000107565b906200005c6020820162000107565b906200006b6040820162000107565b91620000886080620000806060850162000107565b930162000107565b9160018060a01b0319943386600854161760085560018060a01b03948580948180941689600954161760095516876002541617600255168560035416176003551683600054161760005516906001541617600155604051612da490816200011d8239f35b600080fd5b634e487b7160e01b600052604160045260246000fd5b51906001600160a01b0382168203620000ec5756fe6080604052600436101561001257600080fd5b6000803560e01c80630a71096e14611c505780630e46238614611c2757806311eac85514611bfe5780631fc8f4df14611acd57806321d4f8db14611a8b57806328830d47146117a557806328fd10d714611768578063337a17371461173b578063349f937c146116f257806341273657146116a55780635206d2d01461167f57806366fb6e5a1461098d5780636c1945ae1461088c5780637a9b04121461083f57806380f2122c1461046d57806383cd8fcf1461041c5780638da5cb5b146103f357806398d5fdca146103d0578063a03e4bc3146103a9578063c31c9c0714610380578063c4a90815146102c2578063c9642d2a14610189578063ef06e72c146101605763f8715a421461012557600080fd5b3461015d57602036600319011261015d576004359060075482101561015d57602061014f83611f67565b90546040519160031b1c8152f35b80fd5b503461015d578060031936011261015d576003546040516001600160a01b039091168152602090f35b503461015d5761019836611f1b565b906101ae60018060a01b0360085416331461237a565b8083526005602052600c604084206101cc60ff6009830154166123d0565b0190815483101561027d5760ff60026101e5858561235e565b500154166102385782600261021d7f3d05ac2057427ac2f84502e7efefebf5ae10d9529129c2979ce60fb97d4606149560409561235e565b5001805460ff1916600117905582519182526020820152a180f35b60405162461bcd60e51b815260206004820152601f60248201527f496e7374616c6c6d656e7420616c7265616479206d61726b65642070616964006044820152606490fd5b60405162461bcd60e51b815260206004820152601960248201527f496e76616c696420696e7374616c6c6d656e7420696e646578000000000000006044820152606490fd5b503461015d57602036600319011261015d5760406101a091600435815260056020522080549060018060a01b03600182015416906002810154600382015460048301546005840154600685015460078601549160088701549360ff60098901541695600a89015497600e600d8b01549a01549a6040519c8d5260208d015260408c015260608b015260808a015260a089015260c088015260e08701526101008601521515610120850152610140840152610160830152610180820152f35b503461015d578060031936011261015d576001546040516001600160a01b039091168152602090f35b503461015d578060031936011261015d57546040516001600160a01b039091168152602090f35b503461015d578060031936011261015d5760206103eb612070565b604051908152f35b503461015d578060031936011261015d576008546040516001600160a01b039091168152602090f35b503461015d57602036600319011261015d576004356001600160a01b0381811691829003610469576104539060085416331461237a565b6001600160601b0360a01b600254161760025580f35b8280fd5b503461015d5761047c36611f1b565b908083526005602052604083209061049a60ff6009840154166123d0565b60018201546001600160a01b031633036107fa576009546040516323b872dd60e01b815233600482015230602482015260448101859052906020908290606490829089906001600160a01b03165af180156107ef576107d0575b50829084855b600c8501548110806107c7575b156107725761051981600c870161235e565b508054801561072d5760ff6002830154166107225760018201549061053e828261217e565b80881015610559575b505050506105549061227c565b6104fa565b9061056e610574928298959b949a979961226f565b9761217e565b906002850154968a5b600b8701548110156106cb5761059681600b890161229b565b50600181015480670de0b6b3a7640000810204670de0b6b3a764000014811517156106b7578d61065e93928d61062e670de0b6b3a76400008f8f826105ec6105e56105f3948360209c0261215e565b8093612135565b0494612135565b046003840161060384825461217e565b90556004840161061482825461217e565b905560095493546001600160a01b0394851694169261217e565b60405163a9059cbb60e01b81526001600160a01b0390921660048301526024820152948592839182906044820190565b03925af19182156106ac576106789261067d575b5061227c565b61057d565b61069e9060203d6020116106a5575b6106968183612002565b8101906120d4565b5038610672565b503d61068c565b6040513d8f823e3d90fd5b634e487b7160e01b8e52601160045260248efd5b5096509790939650610554929194506002600160ff198284015416179101557f3d05ac2057427ac2f84502e7efefebf5ae10d9529129c2979ce60fb97d46061460408051868152836020820152a190388080610547565b50506105549061227c565b60405162461bcd60e51b815260206004820152601860248201527f496e7374616c6c6d656e7420616c7265616479207061696400000000000000006044820152606490fd5b867fdc376abd09229a842ac7d8bcadc9017651f1f1b8490750870cae0ecd4aedf674608085876107ac818c6107a78a86612411565b61226f565b6040519283523360208401526040830152156060820152a180f35b50831515610507565b6107e89060203d6020116106a5576106968183612002565b50386104f4565b6040513d87823e3d90fd5b60405162461bcd60e51b815260206004820152601760248201527f4f6e6c7920626f72726f7765722063616e2072657061790000000000000000006044820152606490fd5b503461015d57602036600319011261015d576004356001600160a01b0381811691829003610469576108769060085416331461237a565b6001600160601b0360a01b600354161760035580f35b503461015d576020908160031936011261015d5790600435825260058152600c604083200180546108bc816120ec565b906108ca6040519283612002565b8082528382018093865284862086915b83831061093e57505050506040519280840191818552518092526040840192945b8281106109085784840385f35b855180518552808301518584015260408082015115159086015260609081015190850152948101946080909301926001016108fb565b60048760019260409a9997989a5161095581611fb4565b85548152848601548382015260ff600287015416151560408201526003860154606082015281520192019201919096949395966108da565b503461015d5760a036600319011261015d5760643567ffffffffffffffff811161167b576109bf903690600401611f36565b9060843567ffffffffffffffff8111611677576109e0903690600401611f36565b9260043515611641576024351561160957338552600660205260ff6040862054166115b85783810361155e57801561152357601460043502916004358304601403610ff857610a346064840460043561226f565b6009546040516323b872dd60e01b8152336004820152306024820152606480870460448301529296929091602091839182908c906001600160a01b03165af18015611518576114f9575b509084929160405160208101903360601b825242603482015260348152610aa481611fe6565b519020968789526005602052606460408a209689885560018801336001600160601b0360a01b825416179055600435600a89015586600289015504600387015560443560048701556024356005870155426007870155610b02612070565b600887015560098601805460ff19166001179055600e86018590558893845b8181106112b85750505050500361126257670de0b6b3a764000060443502906044358204670de0b6b3a76400001460443515171561124e57610b676104b0830484612135565b6104b08304670de0b6b3a764000001670de0b6b3a764000011610ff8576104b08304670de0b6b3a7640000011561123a57610bbc6024356104b08504670de0b6b3a764000001670de0b6b3a7640000046122b7565b670de0b6b3a76400000390670de0b6b3a76400008211610fe457600691610be29161215e565b91015582845260056020526040842091670de0b6b3a764000081865b6024358110611210575081610c1b610c20926104b0870490612135565b612135565b9080670de0b6b3a763ffff19810111610fe457670de0b6b3a764000091610c5291670de0b6b3a763ffff19019061215e565b0480600685015585915b60243583106110a8578686600754600160401b81101561109457806001610c869201600755611f67565b815460001960039290921b91821b19169083901b179055338252600660209081526040808420805460ff1916600190811790915583855260058352818520600a8101546009549254935163095ea7b360e01b81526001600160a01b039485166004820152602481018290529194909391929091839160449183918a91165af180156107ef57611075575b50604051610d1d81611fe6565b6002815260403660208301376009546001600160a01b0316610d3e82612104565b526002546001600160a01b0316610d5482612111565b52600354604051633fabe5a360e21b81529060a090829060049082906001600160a01b03165afa908115610f8d578691611041575b508581131561100c576305f5e100808402908482041484151715610fe45790610db19161215e565b80606281020460621481151715610ff8576001546001600160a01b0316914261012c810110610fe45791610e0f9391878094604051968795869485936338ed173960e01b855261012c42019260646062309402049060048701612205565b03925af18015610fd957610e2a918591610fb7575b50612111565b518284526005602090815260408086206002548754925163095ea7b360e01b81526001600160a01b0393841660048201526024810186905291939192839160449183918b91165af18015610f8d57610f98575b50845460025486916001600160a01b039182169116803b156104695760848392604051948593849263617ba03760e01b845260048401528860248401523060448401528160648401525af18015610f8d57610f5c575b506080927faeec09af87559b9077da2e499d1fad2e228d7c24cb4b566fe61976820abaadda6060846002857f65410888fb30edd04f6acfb2f6cfd92aaf0ebb9b5303b6286d65d0b031b5b7f79997600d60039801550154906040519187835260208301526040820152a1015460405191825260043560208301526040820152336060820152a180f35b67ffffffffffffffff8196929611610f7957604052936080610ed3565b634e487b7160e01b82526041600452602482fd5b6040513d88823e3d90fd5b610fb09060203d6020116106a5576106968183612002565b5085610e7d565b610fd391503d8087833e610fcb8183612002565b81019061218b565b85610e24565b6040513d86823e3d90fd5b634e487b7160e01b87526011600452602487fd5b634e487b7160e01b86526011600452602486fd5b60405162461bcd60e51b815260206004820152600d60248201526c496e76616c696420707269636560981b6044820152606490fd5b611063915060a03d60a01161106e575b61105b8183612002565b81019061203b565b505050905086610d89565b503d611051565b61108d9060203d6020116106a5576106968183612002565b5084610d10565b634e487b7160e01b83526041600452602483fd5b670de0b6b3a76400006110bf6104b0860483612135565b04908183111561120a576110d3828461226f565b916024356000198101116111f6576024356000190185146111e1575b62278d0085818102048114861517156111cd5761110e9086024261217e565b6040519161111b83611fb4565b84835260208301528960408301526060820152600c870154600160401b8110156111b9578060016111559201600c8a0155600c890161235e565b9190916111a5579161119f939160036060856111999651845560208101516001850155600284016040820151151560ff80198354169116179055015191015561226f565b9261227c565b91610c5c565b634e487b7160e01b8a5260048a905260248afd5b634e487b7160e01b8a52604160045260248afd5b634e487b7160e01b8a52601160045260248afd5b92509050806111f0838261217e565b926110ef565b634e487b7160e01b89526011600452602489fd5b876110d3565b91670de0b6b3a764000061122e611235926104b08804830190612135565b049261227c565b610bfe565b634e487b7160e01b86526012600452602486fd5b634e487b7160e01b85526011600452602485fd5b60405162461bcd60e51b815260206004820152602860248201527f436f6c6c656374656420616d6f756e7420646f65736e2774206d6174636820706044820152671c9a5b98da5c185b60c21b6064820152608490fd5b909192939495506112ca81838661228b565b356001600160a01b03811681036114f5576112e682858861228b565b359687156114b8578b90602061133c60018060a01b03600954168b6040519586809481936323b872dd60e01b8352308b6004850160409194939294606082019560018060a01b0380921683521660208201520152565b03925af19081156106ac57611358928a92611499575b5061217e565b9660018060a01b0382168c52600460205260408c2061137882825461217e565b90556104b061138f602435610c1b60443585612135565b0490604051928360a081011067ffffffffffffffff60a0860111176114855760a0840160405260018060a01b03168352602083015260408201528a60608201528a6080820152600b880154600160401b811015611471578060016113fc9201600b8b0155600b8a0161229b565b91909161145d57805182546001600160a01b0319166001600160a01b0391909116178255602081015160018301556040810151600283015560608101516003830155608001516004909101556114519061227c565b90879594939291610b21565b634e487b7160e01b8c5260048c905260248cfd5b634e487b7160e01b8c52604160045260248cfd5b634e487b7160e01b8e52604160045260248efd5b6114b19060203d6020116106a5576106968183612002565b5038611352565b60405162461bcd60e51b8152602060048201526015602482015274125b9d985b1a59081b195b99195c88185b5bdd5b9d605a1b6044820152606490fd5b8a80fd5b6115119060203d6020116106a5576106968183612002565b5038610a7e565b6040513d8a823e3d90fd5b60405162461bcd60e51b8152602060048201526013602482015272139bc81b195b99195c9cc81c1c9bdd9a591959606a1b6044820152606490fd5b60405162461bcd60e51b815260206004820152602c60248201527f4c656e6465722061646472657373657320616e6420616d6f756e7473206c656e60448201526b0cee8d040dad2e6dac2e8c6d60a31b6064820152608490fd5b60405162461bcd60e51b815260206004820152602360248201527f426f72726f77657220616c72656164792068617320616e20616374697665206c60448201526237b0b760e91b6064820152608490fd5b60405162461bcd60e51b815260206004820152601060248201526f24b73b30b634b210323ab930ba34b7b760811b6044820152606490fd5b60405162461bcd60e51b815260206004820152600e60248201526d125b9d985b1a5908185b5bdd5b9d60921b6044820152606490fd5b8380fd5b5080fd5b503461015d57604061169961169336611f1b565b90612cc9565b82519182526020820152f35b503461015d57602036600319011261015d576004356001600160a01b0381811691829003610469576116dc9060085416331461237a565b6001600160601b0360a01b600154161760015580f35b503461015d57602036600319011261015d576004356001600160a01b0381811691829003610469576117299060085416331461237a565b81546001600160a01b03191617815580f35b503461015d57602036600319011261015d57600d6040602092600435815260058452200154604051908152f35b503461015d57602036600319011261015d576004356001600160a01b0381169081900361167b578160409160209352600483522054604051908152f35b503461015d5760208060031936011261167b5760043560018060a01b036117d18160085416331461237a565b8184526005835260408420926009908185019182549260ff6117f48186166123d0565b88908990600c8a018054925b838110611a3b57505050506276a70010156119e15760ff1980941690556001808701938585541689526006845260408920908154169055600d870154806119d1575b50600380880154600e89015491826118b6575b8a7fcab88a55906c5830a49dddd8b31d115294a5e6c4210f25fe140530a39c51dc748a8a8a5416906118b0611888612070565b604080519384526001600160a01b039094166020840152928201929092529081906060820190565b0390a180f35b9091928099600b8c9101915b6118cd575b50611855565b81548110156119cc576118e0818361229b565b506118f28c820154858301549061226f565b8c81156119bb5750670de0b6b3a76400009081810290810482036119a7578796959493928f919261193061192a61196c9b8e9661215e565b89612135565b04918d808c541692541690604051809b8195829463a9059cbb60e01b84526004840160209093929193604081019460018060a01b031681520152565b03925af19081156106ac578c9661198792611991575061227c565b90919293946118c2565b61069e908a3d8c116106a5576106968183612002565b634e487b7160e01b8f52601160045260248ffd5b96959493929050611987915061227c565b6118c7565b6119db908761286a565b38611842565b60405162461bcd60e51b815260048101849052602c60248201527f4c6f616e206973206e6f74206f766572647565206265796f6e642033206d6f6e60448201526b1d1a1cc81a5b881d1bdd185b60a21b6064820152608490fd5b611a45818361235e565b5083600282015416611a5d5760030154804211611a6c575b50611a679061227c565b611800565b611a679195611a7e611a84924261226f565b9061217e565b9490611a5d565b503461015d57602036600319011261015d576004356001600160a01b0381169081900361167b5760408260ff9260209452600684522054166040519015158152f35b503461015d5760208060031936011261167b5790600435815260058252600c6040822001805491611afd83612d3c565b92611b0781612d3c565b611b10826120ec565b91611b1e6040519384612002565b808352611b2a816120ec565b8388019590601f1901368737845b828110611ba6575050509480611b6c611b5f9760405198899860608a5260608a0190611ee7565b90888203848a0152611ee7565b92868403604088015251928381520193925b828110611b8d57505050500390f35b8351151585528695509381019392810192600101611b7e565b8060ff6002611bbe611bf394869d9a999b9c9d61235e565b508054611bcb858f612121565b526001810154611bdb858a612121565b52015416611be9828a612121565b901515905261227c565b979695939497611b38565b503461015d578060031936011261015d576009546040516001600160a01b039091168152602090f35b503461015d578060031936011261015d576002546040516001600160a01b039091168152602090f35b503461015d57602036600319011261015d57611c7760018060a01b0360085416331461237a565b600435815260056020526040812060098101805491611c9860ff84166123d0565b611ca0612070565b91600d82016305f5e100611cb5858354612135565b0491600e84019283546069810290808204606914901517156111f6576064900410611e845760ff1995861690556001830180546001600160a01b0316875260066020526040872080549096169095555480611e72575b50600382015490549182611d6a575b505091546040805160043581526001600160a01b0390921660208301528101919091527fcab88a55906c5830a49dddd8b31d115294a5e6c4210f25fe140530a39c51dc74915080606081016118b0565b909192855b600b830154811015611e4557611d8881600b850161229b565b50611d9c600182015460038301549061226f565b8015611e3a5780670de0b6b3a7640000810204670de0b6b3a7640000036111f657611e1c9291670de0b6b3a7640000611ddc61192a8a836020960261215e565b600954925460405163a9059cbb60e01b81526001600160a01b039182166004820152929091046024830152909485929091169082908c9082906044820190565b03925af191821561151857611e359261067d575061227c565b611d6f565b5050611e359061227c565b50925050507fcab88a55906c5830a49dddd8b31d115294a5e6c4210f25fe140530a39c51dc743880611d1a565b611e7e9060043561286a565b38611d0b565b60405162461bcd60e51b815260206004820152603560248201527f4254432076616c756520686173206e6f742064726f707065642062656c6f77206044820152741b1a5c5d5a59185d1a5bdb881d1a1c995cda1bdb19605a1b6064820152608490fd5b90815180825260208080930193019160005b828110611f07575050505090565b835185529381019392810192600101611ef9565b6040906003190112611f31576004359060243590565b600080fd5b9181601f84011215611f315782359167ffffffffffffffff8311611f31576020808501948460051b010111611f3157565b600754811015611f9e5760076000527fa66cc928b5edb82af9bd49922954155ab7b0942694bea4ce44661d9a8736c6880190600090565b634e487b7160e01b600052603260045260246000fd5b6080810190811067ffffffffffffffff821117611fd057604052565b634e487b7160e01b600052604160045260246000fd5b6060810190811067ffffffffffffffff821117611fd057604052565b90601f8019910116810190811067ffffffffffffffff821117611fd057604052565b519069ffffffffffffffffffff82168203611f3157565b908160a0910312611f315761204f81612024565b9160208201519160408101519161206d608060608401519301612024565b90565b600354604051633fabe5a360e21b81529060a090829060049082906001600160a01b03165afa9081156120c8576000916120a8575090565b6120c0915060a03d811161106e5761105b8183612002565b505050905090565b6040513d6000823e3d90fd5b90816020910312611f3157518015158103611f315790565b67ffffffffffffffff8111611fd05760051b60200190565b805115611f9e5760200190565b805160011015611f9e5760400190565b8051821015611f9e5760209160051b010190565b8181029291811591840414171561214857565b634e487b7160e01b600052601160045260246000fd5b8115612168570490565b634e487b7160e01b600052601260045260246000fd5b9190820180921161214857565b6020908181840312611f315780519067ffffffffffffffff8211611f3157019180601f84011215611f315782516121c1816120ec565b936121cf6040519586612002565b818552838086019260051b820101928311611f31578301905b8282106121f6575050505090565b815181529083019083016121e8565b9291909594939560a084019084526020918285015260a0604085015282518091528160c0850193019160005b8281106122525750505050906080919460018060a01b031660608201520152565b83516001600160a01b031685529381019392810192600101612231565b9190820391821161214857565b60001981146121485760010190565b9190811015611f9e5760051b0190565b8054821015611f9e576000526005602060002091020190600090565b908015612357578115612350578180600114612348576002146123375760208110610133831016604e8210600b8410161761233257600190815b80821161230957505081600019048111612148570290565b90928060001904811161214857818416612329575b800292811c906122f1565b8092029161231e565b900a90565b905060ff8111612148576001901b90565b505050600190565b5050600090565b5050600190565b8054821015611f9e5760005260206000209060021b0190600090565b1561238157565b60405162461bcd60e51b815260206004820152602160248201527f4f6e6c79206f776e65722063616e2063616c6c20746869732066756e6374696f6044820152603760f91b6064820152608490fd5b156123d757565b60405162461bcd60e51b81526020600482015260126024820152714c6f616e206973206e6f742061637469766560701b6044820152606490fd5b91906000908382526020936005855260409283812092801580801561285e575b8015612852575b612477576305f5e10080830292830414171561283e5761245f600d9160088601549061215e565b9301938454808511612836575b508315968715612481575b5050505050509050565b8383526005815281832097600d890190815487116127e3576127a05760018060a01b03908160025416998a92855192836370a0823160e01b8082528782600498308a83015260249889915afa918215612736578a9261276f575b50878c9d9e9f858c9e9d9e54169660010196868854168c519e8f93631a4ca37b60e21b85528c8501528a8401526044830152818d5a92606493f19a8b15612736578a9b612740575b5087846002541691878b51809481938252308c8301525afa908115612736578a91612705575b5011156126b8578815612676576125a3928692826125698c80955461226f565b9055806002541691541689895180968195829463a9059cbb60e01b84528b840160209093929193604081019460018060a01b031681520152565b03925af190811561266c57869161264f575b501561260f57505081519485528401859052830152606082015261260191907f38a556a122683cb48d496614a7a03605b6c2c0482342924caf483386980ecc9f90608090a1825461226f565b905580388080808080612477565b601b9192606494519362461bcd60e51b85528401528201527f5472616e7366657220746f20626f72726f776572206661696c656400000000006044820152fd5b6126669150843d86116106a5576106968183612002565b386125b5565b85513d88823e3d90fd5b865162461bcd60e51b8152808601879052601c818601527f556e7374616b652072657475726e6564207a65726f20746f6b656e73000000006044820152606490fd5b865162461bcd60e51b81528086018790526022818601527f5769746864726177616c206469646e277420696e6372656173652062616c616e604482015261636560f01b6064820152608490fd5b90508781813d831161272f575b61271c8183612002565b8101031261272b575138612549565b8980fd5b503d612712565b89513d8c823e3d90fd5b909a508781813d8311612768575b6127588183612002565b8101031261272b57519938612523565b503d61274e565b9e9150878f813d8311612799575b6127878183612002565b8101031261272b579d51909d876124db565b503d61277d565b50606491519062461bcd60e51b82526004820152601a60248201527f43616e6e6f7420756e7374616b65207a65726f20616d6f756e740000000000006044820152fd5b835162461bcd60e51b815260048101849052602660248201527f43616e6e6f7420756e7374616b65206d6f7265207468616e207374616b656420604482015265185b5bdd5b9d60d21b6064820152608490fd5b93503861246c565b634e487b7160e01b82526011600452602482fd5b50600d85015415612438565b50600885015415612431565b9060009082825260209060058252604090818420600d81019081548311612c76578215612c325760018060a01b039182600254169085516370a0823160e01b80825260049330858401526024958a848881855afa938415612c28578a9796959493928d8d938c938297612bde575b5090606492918c600181845416920154169b519b8c958694631a4ca37b60e21b86528c8601528c85015260448401525af1958615612ba5578b96612baf575b5089876002541691868b5180948193825230898301525afa908115612ba5578b91612b78575b501115612b2c578315612aeb5761295584825461226f565b9055600254600154875163095ea7b360e01b81529086166001600160a01b03168382019081526020810186905290918991839188169082908d90829060400103925af18015612ae157612ac4575b508551926129b084611fe6565b6002845286368986013784600254166129c885612104565b5284600954166129d785612111565b52605f810294818604605f03612ab257600154169261012c420190814211612aa157508994939291612a2486928a51988997889687956338ed173960e01b87526064309404918701612205565b03925af1908115612a975791612a688694927f38a556a122683cb48d496614a7a03605b6c2c0482342924caf483386980ecc9f98969460809891612a7d5750612111565b519282519586528501528301526060820152a1565b612a9191503d8088833e610fcb8183612002565b38610e24565b83513d87823e3d90fd5b634e487b7160e01b8b52601184528afd5b634e487b7160e01b8a5260118352838afd5b612ada90883d8a116106a5576106968183612002565b50386129a3565b87513d8b823e3d90fd5b50601c6064928888519362461bcd60e51b85528401528201527f556e7374616b652072657475726e6564207a65726f20746f6b656e73000000006044820152fd5b5060226084928888519362461bcd60e51b85528401528201527f5769746864726177616c206469646e277420696e6372656173652062616c616e604482015261636560f01b6064820152fd5b90508981813d8311612b9e575b612b8f8183612002565b810103126114f557513861293d565b503d612b85565b89513d8d823e3d90fd5b9095508981813d8311612bd7575b612bc78183612002565b810103126114f557519438612917565b503d612bbd565b94935096979899505092935081813d8311612c21575b612bfe8183612002565b81010312612c1d578860648b9897969594938e8e9451969091926128d8565b8b80fd5b503d612bf4565b8a513d8e823e3d90fd5b835162461bcd60e51b815260048101869052601a60248201527f43616e6e6f7420756e7374616b65207a65726f20616d6f756e740000000000006044820152606490fd5b835162461bcd60e51b815260048101869052602660248201527f43616e6e6f7420756e7374616b65206d6f7265207468616e207374616b656420604482015265185b5bdd5b9d60d21b6064820152608490fd5b600090815260056020526040812060028101549093928115612d3357670de0b6b3a76400009283820291808304851490151715612d1f575093612d11612d1b92600d9661215e565b9485910154612135565b0490565b634e487b7160e01b81526011600452602490fd5b50508092509190565b90612d46826120ec565b612d536040519182612002565b8281528092612d64601f19916120ec565b019060203691013756fea26469706673582212204cbcb9647f5520dc2d4bc5d4a3763fe46ba94f13eba69918996da9ef024309c564736f6c63430008140033","opcodes":"PUSH1 0x80 CALLVALUE PUSH3 0xEC JUMPI PUSH1 0x1F PUSH3 0x2EC1 CODESIZE DUP2 SWAP1 SUB SWAP2 DUP3 ADD PUSH1 0x1F NOT AND DUP4 ADD SWAP2 PUSH1 0x1 PUSH1 0x1 PUSH1 0x40 SHL SUB DUP4 GT DUP5 DUP5 LT OR PUSH3 0xF1 JUMPI DUP1 DUP5 SWAP3 PUSH1 0xA0 SWAP5 PUSH1 0x40 MSTORE DUP4 CODECOPY DUP2 ADD SUB SLT PUSH3 0xEC JUMPI PUSH3 0x4D DUP2 PUSH3 0x107 JUMP JUMPDEST SWAP1 PUSH3 0x5C PUSH1 0x20 DUP3 ADD PUSH3 0x107 JUMP JUMPDEST SWAP1 PUSH3 0x6B PUSH1 0x40 DUP3 ADD PUSH3 0x107 JUMP JUMPDEST SWAP2 PUSH3 0x88 PUSH1 0x80 PUSH3 0x80 PUSH1 0x60 DUP6 ADD PUSH3 0x107 JUMP JUMPDEST SWAP4 ADD PUSH3 0x107 JUMP JUMPDEST SWAP2 PUSH1 0x1 DUP1 PUSH1 0xA0 SHL SUB NOT SWAP5 CALLER DUP7 PUSH1 0x8 SLOAD AND OR PUSH1 0x8 SSTORE PUSH1 0x1 DUP1 PUSH1 0xA0 SHL SUB SWAP5 DUP6 DUP1 SWAP5 DUP2 DUP1 SWAP5 AND DUP10 PUSH1 0x9 SLOAD AND OR PUSH1 0x9 SSTORE AND DUP8 PUSH1 0x2 SLOAD AND OR PUSH1 0x2 SSTORE AND DUP6 PUSH1 0x3 SLOAD AND OR PUSH1 0x3 SSTORE AND DUP4 PUSH1 0x0 SLOAD AND OR PUSH1 0x0 SSTORE AND SWAP1 PUSH1 0x1 SLOAD AND OR PUSH1 0x1 SSTORE PUSH1 0x40 MLOAD PUSH2 0x2DA4 SWAP1 DUP2 PUSH3 0x11D DUP3 CODECOPY RETURN JUMPDEST PUSH1 0x0 DUP1 REVERT JUMPDEST PUSH4 0x4E487B71 PUSH1 0xE0 SHL PUSH1 0x0 MSTORE PUSH1 0x41 PUSH1 0x4 MSTORE PUSH1 0x24 PUSH1 0x0 REVERT JUMPDEST MLOAD SWAP1 PUSH1 0x1 PUSH1 0x1 PUSH1 0xA0 SHL SUB DUP3 AND DUP3 SUB PUSH3 0xEC JUMPI JUMP INVALID PUSH1 0x80 PUSH1 0x40 MSTORE PUSH1 0x4 CALLDATASIZE LT ISZERO PUSH2 0x12 JUMPI PUSH1 0x0 DUP1 REVERT JUMPDEST PUSH1 0x0 DUP1 CALLDATALOAD PUSH1 0xE0 SHR DUP1 PUSH4 0xA71096E EQ PUSH2 0x1C50 JUMPI DUP1 PUSH4 0xE462386 EQ PUSH2 0x1C27 JUMPI DUP1 PUSH4 0x11EAC855 EQ PUSH2 0x1BFE JUMPI DUP1 PUSH4 0x1FC8F4DF EQ PUSH2 0x1ACD JUMPI DUP1 PUSH4 0x21D4F8DB EQ PUSH2 0x1A8B JUMPI DUP1 PUSH4 0x28830D47 EQ PUSH2 0x17A5 JUMPI DUP1 PUSH4 0x28FD10D7 EQ PUSH2 0x1768 JUMPI DUP1 PUSH4 0x337A1737 EQ PUSH2 0x173B JUMPI DUP1 PUSH4 0x349F937C EQ PUSH2 0x16F2 JUMPI DUP1 PUSH4 0x41273657 EQ PUSH2 0x16A5 JUMPI DUP1 PUSH4 0x5206D2D0 EQ PUSH2 0x167F JUMPI DUP1 PUSH4 0x66FB6E5A EQ PUSH2 0x98D JUMPI DUP1 PUSH4 0x6C1945AE EQ PUSH2 0x88C JUMPI DUP1 PUSH4 0x7A9B0412 EQ PUSH2 0x83F JUMPI DUP1 PUSH4 0x80F2122C EQ PUSH2 0x46D JUMPI DUP1 PUSH4 0x83CD8FCF EQ PUSH2 0x41C JUMPI DUP1 PUSH4 0x8DA5CB5B EQ PUSH2 0x3F3 JUMPI DUP1 PUSH4 0x98D5FDCA EQ PUSH2 0x3D0 JUMPI DUP1 PUSH4 0xA03E4BC3 EQ PUSH2 0x3A9 JUMPI DUP1 PUSH4 0xC31C9C07 EQ PUSH2 0x380 JUMPI DUP1 PUSH4 0xC4A90815 EQ PUSH2 0x2C2 JUMPI DUP1 PUSH4 0xC9642D2A EQ PUSH2 0x189 JUMPI DUP1 PUSH4 0xEF06E72C EQ PUSH2 0x160 JUMPI PUSH4 0xF8715A42 EQ PUSH2 0x125 JUMPI PUSH1 0x0 DUP1 REVERT JUMPDEST CALLVALUE PUSH2 0x15D JUMPI PUSH1 0x20 CALLDATASIZE PUSH1 0x3 NOT ADD SLT PUSH2 0x15D JUMPI PUSH1 0x4 CALLDATALOAD SWAP1 PUSH1 0x7 SLOAD DUP3 LT ISZERO PUSH2 0x15D JUMPI PUSH1 0x20 PUSH2 0x14F DUP4 PUSH2 0x1F67 JUMP JUMPDEST SWAP1 SLOAD PUSH1 0x40 MLOAD SWAP2 PUSH1 0x3 SHL SHR DUP2 MSTORE RETURN JUMPDEST DUP1 REVERT JUMPDEST POP CALLVALUE PUSH2 0x15D JUMPI DUP1 PUSH1 0x3 NOT CALLDATASIZE ADD SLT PUSH2 0x15D JUMPI PUSH1 0x3 SLOAD PUSH1 0x40 MLOAD PUSH1 0x1 PUSH1 0x1 PUSH1 0xA0 SHL SUB SWAP1 SWAP2 AND DUP2 MSTORE PUSH1 0x20 SWAP1 RETURN JUMPDEST POP CALLVALUE PUSH2 0x15D JUMPI PUSH2 0x198 CALLDATASIZE PUSH2 0x1F1B JUMP JUMPDEST SWAP1 PUSH2 0x1AE PUSH1 0x1 DUP1 PUSH1 0xA0 SHL SUB PUSH1 0x8 SLOAD AND CALLER EQ PUSH2 0x237A JUMP JUMPDEST DUP1 DUP4 MSTORE PUSH1 0x5 PUSH1 0x20 MSTORE PUSH1 0xC PUSH1 0x40 DUP5 KECCAK256 PUSH2 0x1CC PUSH1 0xFF PUSH1 0x9 DUP4 ADD SLOAD AND PUSH2 0x23D0 JUMP JUMPDEST ADD SWAP1 DUP2 SLOAD DUP4 LT ISZERO PUSH2 0x27D JUMPI PUSH1 0xFF PUSH1 0x2 PUSH2 0x1E5 DUP6 DUP6 PUSH2 0x235E JUMP JUMPDEST POP ADD SLOAD AND PUSH2 0x238 JUMPI DUP3 PUSH1 0x2 PUSH2 0x21D PUSH32 0x3D05AC2057427AC2F84502E7EFEFEBF5AE10D9529129C2979CE60FB97D460614 SWAP6 PUSH1 0x40 SWAP6 PUSH2 0x235E JUMP JUMPDEST POP ADD DUP1 SLOAD PUSH1 0xFF NOT AND PUSH1 0x1 OR SWAP1 SSTORE DUP3 MLOAD SWAP2 DUP3 MSTORE PUSH1 0x20 DUP3 ADD MSTORE LOG1 DUP1 RETURN JUMPDEST PUSH1 0x40 MLOAD PUSH3 0x461BCD PUSH1 0xE5 SHL DUP2 MSTORE PUSH1 0x20 PUSH1 0x4 DUP3 ADD MSTORE PUSH1 0x1F PUSH1 0x24 DUP3 ADD MSTORE PUSH32 0x496E7374616C6C6D656E7420616C7265616479206D61726B6564207061696400 PUSH1 0x44 DUP3 ADD MSTORE PUSH1 0x64 SWAP1 REVERT JUMPDEST PUSH1 0x40 MLOAD PUSH3 0x461BCD PUSH1 0xE5 SHL DUP2 MSTORE PUSH1 0x20 PUSH1 0x4 DUP3 ADD MSTORE PUSH1 0x19 PUSH1 0x24 DUP3 ADD MSTORE PUSH32 0x496E76616C696420696E7374616C6C6D656E7420696E64657800000000000000 PUSH1 0x44 DUP3 ADD MSTORE PUSH1 0x64 SWAP1 REVERT JUMPDEST POP CALLVALUE PUSH2 0x15D JUMPI PUSH1 0x20 CALLDATASIZE PUSH1 0x3 NOT ADD SLT PUSH2 0x15D JUMPI PUSH1 0x40 PUSH2 0x1A0 SWAP2 PUSH1 0x4 CALLDATALOAD DUP2 MSTORE PUSH1 0x5 PUSH1 0x20 MSTORE KECCAK256 DUP1 SLOAD SWAP1 PUSH1 0x1 DUP1 PUSH1 0xA0 SHL SUB PUSH1 0x1 DUP3 ADD SLOAD AND SWAP1 PUSH1 0x2 DUP2 ADD SLOAD PUSH1 0x3 DUP3 ADD SLOAD PUSH1 0x4 DUP4 ADD SLOAD PUSH1 0x5 DUP5 ADD SLOAD PUSH1 0x6 DUP6 ADD SLOAD PUSH1 0x7 DUP7 ADD SLOAD SWAP2 PUSH1 0x8 DUP8 ADD SLOAD SWAP4 PUSH1 0xFF PUSH1 0x9 DUP10 ADD SLOAD AND SWAP6 PUSH1 0xA DUP10 ADD SLOAD SWAP8 PUSH1 0xE PUSH1 0xD DUP12 ADD SLOAD SWAP11 ADD SLOAD SWAP11 PUSH1 0x40 MLOAD SWAP13 DUP14 MSTORE PUSH1 0x20 DUP14 ADD MSTORE PUSH1 0x40 DUP13 ADD MSTORE PUSH1 0x60 DUP12 ADD MSTORE PUSH1 0x80 DUP11 ADD MSTORE PUSH1 0xA0 DUP10 ADD MSTORE PUSH1 0xC0 DUP9 ADD MSTORE PUSH1 0xE0 DUP8 ADD MSTORE PUSH2 0x100 DUP7 ADD MSTORE ISZERO ISZERO PUSH2 0x120 DUP6 ADD MSTORE PUSH2 0x140 DUP5 ADD MSTORE PUSH2 0x160 DUP4 ADD MSTORE PUSH2 0x180 DUP3 ADD MSTORE RETURN JUMPDEST POP CALLVALUE PUSH2 0x15D JUMPI DUP1 PUSH1 0x3 NOT CALLDATASIZE ADD SLT PUSH2 0x15D JUMPI PUSH1 0x1 SLOAD PUSH1 0x40 MLOAD PUSH1 0x1 PUSH1 0x1 PUSH1 0xA0 SHL SUB SWAP1 SWAP2 AND DUP2 MSTORE PUSH1 0x20 SWAP1 RETURN JUMPDEST POP CALLVALUE PUSH2 0x15D JUMPI DUP1 PUSH1 0x3 NOT CALLDATASIZE ADD SLT PUSH2 0x15D JUMPI SLOAD PUSH1 0x40 MLOAD PUSH1 0x1 PUSH1 0x1 PUSH1 0xA0 SHL SUB SWAP1 SWAP2 AND DUP2 MSTORE PUSH1 0x20 SWAP1 RETURN JUMPDEST POP CALLVALUE PUSH2 0x15D JUMPI DUP1 PUSH1 0x3 NOT CALLDATASIZE ADD SLT PUSH2 0x15D JUMPI PUSH1 0x20 PUSH2 0x3EB PUSH2 0x2070 JUMP JUMPDEST PUSH1 0x40 MLOAD SWAP1 DUP2 MSTORE RETURN JUMPDEST POP CALLVALUE PUSH2 0x15D JUMPI DUP1 PUSH1 0x3 NOT CALLDATASIZE ADD SLT PUSH2 0x15D JUMPI PUSH1 0x8 SLOAD PUSH1 0x40 MLOAD PUSH1 0x1 PUSH1 0x1 PUSH1 0xA0 SHL SUB SWAP1 SWAP2 AND DUP2 MSTORE PUSH1 0x20 SWAP1 RETURN JUMPDEST POP CALLVALUE PUSH2 0x15D JUMPI PUSH1 0x20 CALLDATASIZE PUSH1 0x3 NOT ADD SLT PUSH2 0x15D JUMPI PUSH1 0x4 CALLDATALOAD PUSH1 0x1 PUSH1 0x1 PUSH1 0xA0 SHL SUB DUP2 DUP2 AND SWAP2 DUP3 SWAP1 SUB PUSH2 0x469 JUMPI PUSH2 0x453 SWAP1 PUSH1 0x8 SLOAD AND CALLER EQ PUSH2 0x237A JUMP JUMPDEST PUSH1 0x1 PUSH1 0x1 PUSH1 0x60 SHL SUB PUSH1 0xA0 SHL PUSH1 0x2 SLOAD AND OR PUSH1 0x2 SSTORE DUP1 RETURN JUMPDEST DUP3 DUP1 REVERT JUMPDEST POP CALLVALUE PUSH2 0x15D JUMPI PUSH2 0x47C CALLDATASIZE PUSH2 0x1F1B JUMP JUMPDEST SWAP1 DUP1 DUP4 MSTORE PUSH1 0x5 PUSH1 0x20 MSTORE PUSH1 0x40 DUP4 KECCAK256 SWAP1 PUSH2 0x49A PUSH1 0xFF PUSH1 0x9 DUP5 ADD SLOAD AND PUSH2 0x23D0 JUMP JUMPDEST PUSH1 0x1 DUP3 ADD SLOAD PUSH1 0x1 PUSH1 0x1 PUSH1 0xA0 SHL SUB AND CALLER SUB PUSH2 0x7FA JUMPI PUSH1 0x9 SLOAD PUSH1 0x40 MLOAD PUSH4 0x23B872DD PUSH1 0xE0 SHL DUP2 MSTORE CALLER PUSH1 0x4 DUP3 ADD MSTORE ADDRESS PUSH1 0x24 DUP3 ADD MSTORE PUSH1 0x44 DUP2 ADD DUP6 SWAP1 MSTORE SWAP1 PUSH1 0x20 SWAP1 DUP3 SWAP1 PUSH1 0x64 SWAP1 DUP3 SWAP1 DUP10 SWAP1 PUSH1 0x1 PUSH1 0x1 PUSH1 0xA0 SHL SUB AND GAS CALL DUP1 ISZERO PUSH2 0x7EF JUMPI PUSH2 0x7D0 JUMPI JUMPDEST POP DUP3 SWAP1 DUP5 DUP6 JUMPDEST PUSH1 0xC DUP6 ADD SLOAD DUP2 LT DUP1 PUSH2 0x7C7 JUMPI JUMPDEST ISZERO PUSH2 0x772 JUMPI PUSH2 0x519 DUP2 PUSH1 0xC DUP8 ADD PUSH2 0x235E JUMP JUMPDEST POP DUP1 SLOAD DUP1 ISZERO PUSH2 0x72D JUMPI PUSH1 0xFF PUSH1 0x2 DUP4 ADD SLOAD AND PUSH2 0x722 JUMPI PUSH1 0x1 DUP3 ADD SLOAD SWAP1 PUSH2 0x53E DUP3 DUP3 PUSH2 0x217E JUMP JUMPDEST DUP1 DUP9 LT ISZERO PUSH2 0x559 JUMPI JUMPDEST POP POP POP POP PUSH2 0x554 SWAP1 PUSH2 0x227C JUMP JUMPDEST PUSH2 0x4FA JUMP JUMPDEST SWAP1 PUSH2 0x56E PUSH2 0x574 SWAP3 DUP3 SWAP9 SWAP6 SWAP12 SWAP5 SWAP11 SWAP8 SWAP10 PUSH2 0x226F JUMP JUMPDEST SWAP8 PUSH2 0x217E JUMP JUMPDEST SWAP1 PUSH1 0x2 DUP6 ADD SLOAD SWAP7 DUP11 JUMPDEST PUSH1 0xB DUP8 ADD SLOAD DUP2 LT ISZERO PUSH2 0x6CB JUMPI PUSH2 0x596 DUP2 PUSH1 0xB DUP10 ADD PUSH2 0x229B JUMP JUMPDEST POP PUSH1 0x1 DUP2 ADD SLOAD DUP1 PUSH8 0xDE0B6B3A7640000 DUP2 MUL DIV PUSH8 0xDE0B6B3A7640000 EQ DUP2 ISZERO OR ISZERO PUSH2 0x6B7 JUMPI DUP14 PUSH2 0x65E SWAP4 SWAP3 DUP14 PUSH2 0x62E PUSH8 0xDE0B6B3A7640000 DUP16 DUP16 DUP3 PUSH2 0x5EC PUSH2 0x5E5 PUSH2 0x5F3 SWAP5 DUP4 PUSH1 0x20 SWAP13 MUL PUSH2 0x215E JUMP JUMPDEST DUP1 SWAP4 PUSH2 0x2135 JUMP JUMPDEST DIV SWAP5 PUSH2 0x2135 JUMP JUMPDEST DIV PUSH1 0x3 DUP5 ADD PUSH2 0x603 DUP5 DUP3 SLOAD PUSH2 0x217E JUMP JUMPDEST SWAP1 SSTORE PUSH1 0x4 DUP5 ADD PUSH2 0x614 DUP3 DUP3 SLOAD PUSH2 0x217E JUMP JUMPDEST SWAP1 SSTORE PUSH1 0x9 SLOAD SWAP4 SLOAD PUSH1 0x1 PUSH1 0x1 PUSH1 0xA0 SHL SUB SWAP5 DUP6 AND SWAP5 AND SWAP3 PUSH2 0x217E JUMP JUMPDEST PUSH1 0x40 MLOAD PUSH4 0xA9059CBB PUSH1 0xE0 SHL DUP2 MSTORE PUSH1 0x1 PUSH1 0x1 PUSH1 0xA0 SHL SUB SWAP1 SWAP3 AND PUSH1 0x4 DUP4 ADD MSTORE PUSH1 0x24 DUP3 ADD MSTORE SWAP5 DUP6 SWAP3 DUP4 SWAP2 DUP3 SWAP1 PUSH1 0x44 DUP3 ADD SWAP1 JUMP JUMPDEST SUB SWAP3 GAS CALL SWAP2 DUP3 ISZERO PUSH2 0x6AC JUMPI PUSH2 0x678 SWAP3 PUSH2 0x67D JUMPI JUMPDEST POP PUSH2 0x227C JUMP JUMPDEST PUSH2 0x57D JUMP JUMPDEST PUSH2 0x69E SWAP1 PUSH1 0x20 RETURNDATASIZE PUSH1 0x20 GT PUSH2 0x6A5 JUMPI JUMPDEST PUSH2 0x696 DUP2 DUP4 PUSH2 0x2002 JUMP JUMPDEST DUP2 ADD SWAP1 PUSH2 0x20D4 JUMP JUMPDEST POP CODESIZE PUSH2 0x672 JUMP JUMPDEST POP RETURNDATASIZE PUSH2 0x68C JUMP JUMPDEST PUSH1 0x40 MLOAD RETURNDATASIZE DUP16 DUP3 RETURNDATACOPY RETURNDATASIZE SWAP1 REVERT JUMPDEST PUSH4 0x4E487B71 PUSH1 0xE0 SHL DUP15 MSTORE PUSH1 0x11 PUSH1 0x4 MSTORE PUSH1 0x24 DUP15 REVERT JUMPDEST POP SWAP7 POP SWAP8 SWAP1 SWAP4 SWAP7 POP PUSH2 0x554 SWAP3 SWAP2 SWAP5 POP PUSH1 0x2 PUSH1 0x1 PUSH1 0xFF NOT DUP3 DUP5 ADD SLOAD AND OR SWAP2 ADD SSTORE PUSH32 0x3D05AC2057427AC2F84502E7EFEFEBF5AE10D9529129C2979CE60FB97D460614 PUSH1 0x40 DUP1 MLOAD DUP7 DUP2 MSTORE DUP4 PUSH1 0x20 DUP3 ADD MSTORE LOG1 SWAP1 CODESIZE DUP1 DUP1 PUSH2 0x547 JUMP JUMPDEST POP POP PUSH2 0x554 SWAP1 PUSH2 0x227C JUMP JUMPDEST PUSH1 0x40 MLOAD PUSH3 0x461BCD PUSH1 0xE5 SHL DUP2 MSTORE PUSH1 0x20 PUSH1 0x4 DUP3 ADD MSTORE PUSH1 0x18 PUSH1 0x24 DUP3 ADD MSTORE PUSH32 0x496E7374616C6C6D656E7420616C726561647920706169640000000000000000 PUSH1 0x44 DUP3 ADD MSTORE PUSH1 0x64 SWAP1 REVERT JUMPDEST DUP7 PUSH32 0xDC376ABD09229A842AC7D8BCADC9017651F1F1B8490750870CAE0ECD4AEDF674 PUSH1 0x80 DUP6 DUP8 PUSH2 0x7AC DUP2 DUP13 PUSH2 0x7A7 DUP11 DUP7 PUSH2 0x2411 JUMP JUMPDEST PUSH2 0x226F JUMP JUMPDEST PUSH1 0x40 MLOAD SWAP3 DUP4 MSTORE CALLER PUSH1 0x20 DUP5 ADD MSTORE PUSH1 0x40 DUP4 ADD MSTORE ISZERO PUSH1 0x60 DUP3 ADD MSTORE LOG1 DUP1 RETURN JUMPDEST POP DUP4 ISZERO ISZERO PUSH2 0x507 JUMP JUMPDEST PUSH2 0x7E8 SWAP1 PUSH1 0x20 RETURNDATASIZE PUSH1 0x20 GT PUSH2 0x6A5 JUMPI PUSH2 0x696 DUP2 DUP4 PUSH2 0x2002 JUMP JUMPDEST POP CODESIZE PUSH2 0x4F4 JUMP JUMPDEST PUSH1 0x40 MLOAD RETURNDATASIZE DUP8 DUP3 RETURNDATACOPY RETURNDATASIZE SWAP1 REVERT JUMPDEST PUSH1 0x40 MLOAD PUSH3 0x461BCD PUSH1 0xE5 SHL DUP2 MSTORE PUSH1 0x20 PUSH1 0x4 DUP3 ADD MSTORE PUSH1 0x17 PUSH1 0x24 DUP3 ADD MSTORE PUSH32 0x4F6E6C7920626F72726F7765722063616E207265706179000000000000000000 PUSH1 0x44 DUP3 ADD MSTORE PUSH1 0x64 SWAP1 REVERT JUMPDEST POP CALLVALUE PUSH2 0x15D JUMPI PUSH1 0x20 CALLDATASIZE PUSH1 0x3 NOT ADD SLT PUSH2 0x15D JUMPI PUSH1 0x4 CALLDATALOAD PUSH1 0x1 PUSH1 0x1 PUSH1 0xA0 SHL SUB DUP2 DUP2 AND SWAP2 DUP3 SWAP1 SUB PUSH2 0x469 JUMPI PUSH2 0x876 SWAP1 PUSH1 0x8 SLOAD AND CALLER EQ PUSH2 0x237A JUMP JUMPDEST PUSH1 0x1 PUSH1 0x1 PUSH1 0x60 SHL SUB PUSH1 0xA0 SHL PUSH1 0x3 SLOAD AND OR PUSH1 0x3 SSTORE DUP1 RETURN JUMPDEST POP CALLVALUE PUSH2 0x15D JUMPI PUSH1 0x20 SWAP1 DUP2 PUSH1 0x3 NOT CALLDATASIZE ADD SLT PUSH2 0x15D JUMPI SWAP1 PUSH1 0x4 CALLDATALOAD DUP3 MSTORE PUSH1 0x5 DUP2 MSTORE PUSH1 0xC PUSH1 0x40 DUP4 KECCAK256 ADD DUP1 SLOAD PUSH2 0x8BC DUP2 PUSH2 0x20EC JUMP JUMPDEST SWAP1 PUSH2 0x8CA PUSH1 0x40 MLOAD SWAP3 DUP4 PUSH2 0x2002 JUMP JUMPDEST DUP1 DUP3 MSTORE DUP4 DUP3 ADD DUP1 SWAP4 DUP7 MSTORE DUP5 DUP7 KECCAK256 DUP7 SWAP2 JUMPDEST DUP4 DUP4 LT PUSH2 0x93E JUMPI POP POP POP POP PUSH1 0x40 MLOAD SWAP3 DUP1 DUP5 ADD SWAP2 DUP2 DUP6 MSTORE MLOAD DUP1 SWAP3 MSTORE PUSH1 0x40 DUP5 ADD SWAP3 SWAP5 JUMPDEST DUP3 DUP2 LT PUSH2 0x908 JUMPI DUP5 DUP5 SUB DUP6 RETURN JUMPDEST DUP6 MLOAD DUP1 MLOAD DUP6 MSTORE DUP1 DUP4 ADD MLOAD DUP6 DUP5 ADD MSTORE PUSH1 0x40 DUP1 DUP3 ADD MLOAD ISZERO ISZERO SWAP1 DUP7 ADD MSTORE PUSH1 0x60 SWAP1 DUP2 ADD MLOAD SWAP1 DUP6 ADD MSTORE SWAP5 DUP2 ADD SWAP5 PUSH1 0x80 SWAP1 SWAP4 ADD SWAP3 PUSH1 0x1 ADD PUSH2 0x8FB JUMP JUMPDEST PUSH1 0x4 DUP8 PUSH1 0x1 SWAP3 PUSH1 0x40 SWAP11 SWAP10 SWAP8 SWAP9 SWAP11 MLOAD PUSH2 0x955 DUP2 PUSH2 0x1FB4 JUMP JUMPDEST DUP6 SLOAD DUP2 MSTORE DUP5 DUP7 ADD SLOAD DUP4 DUP3 ADD MSTORE PUSH1 0xFF PUSH1 0x2 DUP8 ADD SLOAD AND ISZERO ISZERO PUSH1 0x40 DUP3 ADD MSTORE PUSH1 0x3 DUP7 ADD SLOAD PUSH1 0x60 DUP3 ADD MSTORE DUP2 MSTORE ADD SWAP3 ADD SWAP3 ADD SWAP2 SWAP1 SWAP7 SWAP5 SWAP4 SWAP6 SWAP7 PUSH2 0x8DA JUMP JUMPDEST POP CALLVALUE PUSH2 0x15D JUMPI PUSH1 0xA0 CALLDATASIZE PUSH1 0x3 NOT ADD SLT PUSH2 0x15D JUMPI PUSH1 0x64 CALLDATALOAD PUSH8 0xFFFFFFFFFFFFFFFF DUP2 GT PUSH2 0x167B JUMPI PUSH2 0x9BF SWAP1 CALLDATASIZE SWAP1 PUSH1 0x4 ADD PUSH2 0x1F36 JUMP JUMPDEST SWAP1 PUSH1 0x84 CALLDATALOAD PUSH8 0xFFFFFFFFFFFFFFFF DUP2 GT PUSH2 0x1677 JUMPI PUSH2 0x9E0 SWAP1 CALLDATASIZE SWAP1 PUSH1 0x4 ADD PUSH2 0x1F36 JUMP JUMPDEST SWAP3 PUSH1 0x4 CALLDATALOAD ISZERO PUSH2 0x1641 JUMPI PUSH1 0x24 CALLDATALOAD ISZERO PUSH2 0x1609 JUMPI CALLER DUP6 MSTORE PUSH1 0x6 PUSH1 0x20 MSTORE PUSH1 0xFF PUSH1 0x40 DUP7 KECCAK256 SLOAD AND PUSH2 0x15B8 JUMPI DUP4 DUP2 SUB PUSH2 0x155E JUMPI DUP1 ISZERO PUSH2 0x1523 JUMPI PUSH1 0x14 PUSH1 0x4 CALLDATALOAD MUL SWAP2 PUSH1 0x4 CALLDATALOAD DUP4 DIV PUSH1 0x14 SUB PUSH2 0xFF8 JUMPI PUSH2 0xA34 PUSH1 0x64 DUP5 DIV PUSH1 0x4 CALLDATALOAD PUSH2 0x226F JUMP JUMPDEST PUSH1 0x9 SLOAD PUSH1 0x40 MLOAD PUSH4 0x23B872DD PUSH1 0xE0 SHL DUP2 MSTORE CALLER PUSH1 0x4 DUP3 ADD MSTORE ADDRESS PUSH1 0x24 DUP3 ADD MSTORE PUSH1 0x64 DUP1 DUP8 DIV PUSH1 0x44 DUP4 ADD MSTORE SWAP3 SWAP7 SWAP3 SWAP1 SWAP2 PUSH1 0x20 SWAP2 DUP4 SWAP2 DUP3 SWAP1 DUP13 SWAP1 PUSH1 0x1 PUSH1 0x1 PUSH1 0xA0 SHL SUB AND GAS CALL DUP1 ISZERO PUSH2 0x1518 JUMPI PUSH2 0x14F9 JUMPI JUMPDEST POP SWAP1 DUP5 SWAP3 SWAP2 PUSH1 0x40 MLOAD PUSH1 0x20 DUP2 ADD SWAP1 CALLER PUSH1 0x60 SHL DUP3 MSTORE TIMESTAMP PUSH1 0x34 DUP3 ADD MSTORE PUSH1 0x34 DUP2 MSTORE PUSH2 0xAA4 DUP2 PUSH2 0x1FE6 JUMP JUMPDEST MLOAD SWAP1 KECCAK256 SWAP7 DUP8 DUP10 MSTORE PUSH1 0x5 PUSH1 0x20 MSTORE PUSH1 0x64 PUSH1 0x40 DUP11 KECCAK256 SWAP7 DUP10 DUP9 SSTORE PUSH1 0x1 DUP9 ADD CALLER PUSH1 0x1 PUSH1 0x1 PUSH1 0x60 SHL SUB PUSH1 0xA0 SHL DUP3 SLOAD AND OR SWAP1 SSTORE PUSH1 0x4 CALLDATALOAD PUSH1 0xA DUP10 ADD SSTORE DUP7 PUSH1 0x2 DUP10 ADD SSTORE DIV PUSH1 0x3 DUP8 ADD SSTORE PUSH1 0x44 CALLDATALOAD PUSH1 0x4 DUP8 ADD SSTORE PUSH1 0x24 CALLDATALOAD PUSH1 0x5 DUP8 ADD SSTORE TIMESTAMP PUSH1 0x7 DUP8 ADD SSTORE PUSH2 0xB02 PUSH2 0x2070 JUMP JUMPDEST PUSH1 0x8 DUP8 ADD SSTORE PUSH1 0x9 DUP7 ADD DUP1 SLOAD PUSH1 0xFF NOT AND PUSH1 0x1 OR SWAP1 SSTORE PUSH1 0xE DUP7 ADD DUP6 SWAP1 SSTORE DUP9 SWAP4 DUP5 JUMPDEST DUP2 DUP2 LT PUSH2 0x12B8 JUMPI POP POP POP POP POP SUB PUSH2 0x1262 JUMPI PUSH8 0xDE0B6B3A7640000 PUSH1 0x44 CALLDATALOAD MUL SWAP1 PUSH1 0x44 CALLDATALOAD DUP3 DIV PUSH8 0xDE0B6B3A7640000 EQ PUSH1 0x44 CALLDATALOAD ISZERO OR ISZERO PUSH2 0x124E JUMPI PUSH2 0xB67 PUSH2 0x4B0 DUP4 DIV DUP5 PUSH2 0x2135 JUMP JUMPDEST PUSH2 0x4B0 DUP4 DIV PUSH8 0xDE0B6B3A7640000 ADD PUSH8 0xDE0B6B3A7640000 GT PUSH2 0xFF8 JUMPI PUSH2 0x4B0 DUP4 DIV PUSH8 0xDE0B6B3A7640000 ADD ISZERO PUSH2 0x123A JUMPI PUSH2 0xBBC PUSH1 0x24 CALLDATALOAD PUSH2 0x4B0 DUP6 DIV PUSH8 0xDE0B6B3A7640000 ADD PUSH8 0xDE0B6B3A7640000 DIV PUSH2 0x22B7 JUMP JUMPDEST PUSH8 0xDE0B6B3A7640000 SUB SWAP1 PUSH8 0xDE0B6B3A7640000 DUP3 GT PUSH2 0xFE4 JUMPI PUSH1 0x6 SWAP2 PUSH2 0xBE2 SWAP2 PUSH2 0x215E JUMP JUMPDEST SWAP2 ADD SSTORE DUP3 DUP5 MSTORE PUSH1 0x5 PUSH1 0x20 MSTORE PUSH1 0x40 DUP5 KECCAK256 SWAP2 PUSH8 0xDE0B6B3A7640000 DUP2 DUP7 JUMPDEST PUSH1 0x24 CALLDATALOAD DUP2 LT PUSH2 0x1210 JUMPI POP DUP2 PUSH2 0xC1B PUSH2 0xC20 SWAP3 PUSH2 0x4B0 DUP8 DIV SWAP1 PUSH2 0x2135 JUMP JUMPDEST PUSH2 0x2135 JUMP JUMPDEST SWAP1 DUP1 PUSH8 0xDE0B6B3A763FFFF NOT DUP2 ADD GT PUSH2 0xFE4 JUMPI PUSH8 0xDE0B6B3A7640000 SWAP2 PUSH2 0xC52 SWAP2 PUSH8 0xDE0B6B3A763FFFF NOT ADD SWAP1 PUSH2 0x215E JUMP JUMPDEST DIV DUP1 PUSH1 0x6 DUP6 ADD SSTORE DUP6 SWAP2 JUMPDEST PUSH1 0x24 CALLDATALOAD DUP4 LT PUSH2 0x10A8 JUMPI DUP7 DUP7 PUSH1 0x7 SLOAD PUSH1 0x1 PUSH1 0x40 SHL DUP2 LT ISZERO PUSH2 0x1094 JUMPI DUP1 PUSH1 0x1 PUSH2 0xC86 SWAP3 ADD PUSH1 0x7 SSTORE PUSH2 0x1F67 JUMP JUMPDEST DUP2 SLOAD PUSH1 0x0 NOT PUSH1 0x3 SWAP3 SWAP1 SWAP3 SHL SWAP2 DUP3 SHL NOT AND SWAP1 DUP4 SWAP1 SHL OR SWAP1 SSTORE CALLER DUP3 MSTORE PUSH1 0x6 PUSH1 0x20 SWAP1 DUP2 MSTORE PUSH1 0x40 DUP1 DUP5 KECCAK256 DUP1 SLOAD PUSH1 0xFF NOT AND PUSH1 0x1 SWAP1 DUP2 OR SWAP1 SWAP2 SSTORE DUP4 DUP6 MSTORE PUSH1 0x5 DUP4 MSTORE DUP2 DUP6 KECCAK256 PUSH1 0xA DUP2 ADD SLOAD PUSH1 0x9 SLOAD SWAP3 SLOAD SWAP4 MLOAD PUSH4 0x95EA7B3 PUSH1 0xE0 SHL DUP2 MSTORE PUSH1 0x1 PUSH1 0x1 PUSH1 0xA0 SHL SUB SWAP5 DUP6 AND PUSH1 0x4 DUP3 ADD MSTORE PUSH1 0x24 DUP2 ADD DUP3 SWAP1 MSTORE SWAP2 SWAP5 SWAP1 SWAP4 SWAP2 SWAP3 SWAP1 SWAP2 DUP4 SWAP2 PUSH1 0x44 SWAP2 DUP4 SWAP2 DUP11 SWAP2 AND GAS CALL DUP1 ISZERO PUSH2 0x7EF JUMPI PUSH2 0x1075 JUMPI JUMPDEST POP PUSH1 0x40 MLOAD PUSH2 0xD1D DUP2 PUSH2 0x1FE6 JUMP JUMPDEST PUSH1 0x2 DUP2 MSTORE PUSH1 0x40 CALLDATASIZE PUSH1 0x20 DUP4 ADD CALLDATACOPY PUSH1 0x9 SLOAD PUSH1 0x1 PUSH1 0x1 PUSH1 0xA0 SHL SUB AND PUSH2 0xD3E DUP3 PUSH2 0x2104 JUMP JUMPDEST MSTORE PUSH1 0x2 SLOAD PUSH1 0x1 PUSH1 0x1 PUSH1 0xA0 SHL SUB AND PUSH2 0xD54 DUP3 PUSH2 0x2111 JUMP JUMPDEST MSTORE PUSH1 0x3 SLOAD PUSH1 0x40 MLOAD PUSH4 0x3FABE5A3 PUSH1 0xE2 SHL DUP2 MSTORE SWAP1 PUSH1 0xA0 SWAP1 DUP3 SWAP1 PUSH1 0x4 SWAP1 DUP3 SWAP1 PUSH1 0x1 PUSH1 0x1 PUSH1 0xA0 SHL SUB AND GAS STATICCALL SWAP1 DUP2 ISZERO PUSH2 0xF8D JUMPI DUP7 SWAP2 PUSH2 0x1041 JUMPI JUMPDEST POP DUP6 DUP2 SGT ISZERO PUSH2 0x100C JUMPI PUSH4 0x5F5E100 DUP1 DUP5 MUL SWAP1 DUP5 DUP3 DIV EQ DUP5 ISZERO OR ISZERO PUSH2 0xFE4 JUMPI SWAP1 PUSH2 0xDB1 SWAP2 PUSH2 0x215E JUMP JUMPDEST DUP1 PUSH1 0x62 DUP2 MUL DIV PUSH1 0x62 EQ DUP2 ISZERO OR ISZERO PUSH2 0xFF8 JUMPI PUSH1 0x1 SLOAD PUSH1 0x1 PUSH1 0x1 PUSH1 0xA0 SHL SUB AND SWAP2 TIMESTAMP PUSH2 0x12C DUP2 ADD LT PUSH2 0xFE4 JUMPI SWAP2 PUSH2 0xE0F SWAP4 SWAP2 DUP8 DUP1 SWAP5 PUSH1 0x40 MLOAD SWAP7 DUP8 SWAP6 DUP7 SWAP5 DUP6 SWAP4 PUSH4 0x38ED1739 PUSH1 0xE0 SHL DUP6 MSTORE PUSH2 0x12C TIMESTAMP ADD SWAP3 PUSH1 0x64 PUSH1 0x62 ADDRESS SWAP5 MUL DIV SWAP1 PUSH1 0x4 DUP8 ADD PUSH2 0x2205 JUMP JUMPDEST SUB SWAP3 GAS CALL DUP1 ISZERO PUSH2 0xFD9 JUMPI PUSH2 0xE2A SWAP2 DUP6 SWAP2 PUSH2 0xFB7 JUMPI JUMPDEST POP PUSH2 0x2111 JUMP JUMPDEST MLOAD DUP3 DUP5 MSTORE PUSH1 0x5 PUSH1 0x20 SWAP1 DUP2 MSTORE PUSH1 0x40 DUP1 DUP7 KECCAK256 PUSH1 0x2 SLOAD DUP8 SLOAD SWAP3 MLOAD PUSH4 0x95EA7B3 PUSH1 0xE0 SHL DUP2 MSTORE PUSH1 0x1 PUSH1 0x1 PUSH1 0xA0 SHL SUB SWAP4 DUP5 AND PUSH1 0x4 DUP3 ADD MSTORE PUSH1 0x24 DUP2 ADD DUP7 SWAP1 MSTORE SWAP2 SWAP4 SWAP2 SWAP3 DUP4 SWAP2 PUSH1 0x44 SWAP2 DUP4 SWAP2 DUP12 SWAP2 AND GAS CALL DUP1 ISZERO PUSH2 0xF8D JUMPI PUSH2 0xF98 JUMPI JUMPDEST POP DUP5 SLOAD PUSH1 0x2 SLOAD DUP7 SWAP2 PUSH1 0x1 PUSH1 0x1 PUSH1 0xA0 SHL SUB SWAP2 DUP3 AND SWAP2 AND DUP1 EXTCODESIZE ISZERO PUSH2 0x469 JUMPI PUSH1 0x84 DUP4 SWAP3 PUSH1 0x40 MLOAD SWAP5 DUP6 SWAP4 DUP5 SWAP3 PUSH4 0x617BA037 PUSH1 0xE0 SHL DUP5 MSTORE PUSH1 0x4 DUP5 ADD MSTORE DUP9 PUSH1 0x24 DUP5 ADD MSTORE ADDRESS PUSH1 0x44 DUP5 ADD MSTORE DUP2 PUSH1 0x64 DUP5 ADD MSTORE GAS CALL DUP1 ISZERO PUSH2 0xF8D JUMPI PUSH2 0xF5C JUMPI JUMPDEST POP PUSH1 0x80 SWAP3 PUSH32 0xAEEC09AF87559B9077DA2E499D1FAD2E228D7C24CB4B566FE61976820ABAADDA PUSH1 0x60 DUP5 PUSH1 0x2 DUP6 PUSH32 0x65410888FB30EDD04F6ACFB2F6CFD92AAF0EBB9B5303B6286D65D0B031B5B7F7 SWAP10 SWAP8 PUSH1 0xD PUSH1 0x3 SWAP9 ADD SSTORE ADD SLOAD SWAP1 PUSH1 0x40 MLOAD SWAP2 DUP8 DUP4 MSTORE PUSH1 0x20 DUP4 ADD MSTORE PUSH1 0x40 DUP3 ADD MSTORE LOG1 ADD SLOAD PUSH1 0x40 MLOAD SWAP2 DUP3 MSTORE PUSH1 0x4 CALLDATALOAD PUSH1 0x20 DUP4 ADD MSTORE PUSH1 0x40 DUP3 ADD MSTORE CALLER PUSH1 0x60 DUP3 ADD MSTORE LOG1 DUP1 RETURN JUMPDEST PUSH8 0xFFFFFFFFFFFFFFFF DUP2 SWAP7 SWAP3 SWAP7 GT PUSH2 0xF79 JUMPI PUSH1 0x40 MSTORE SWAP4 PUSH1 0x80 PUSH2 0xED3 JUMP JUMPDEST PUSH4 0x4E487B71 PUSH1 0xE0 SHL DUP3 MSTORE PUSH1 0x41 PUSH1 0x4 MSTORE PUSH1 0x24 DUP3 REVERT JUMPDEST PUSH1 0x40 MLOAD RETURNDATASIZE DUP9 DUP3 RETURNDATACOPY RETURNDATASIZE SWAP1 REVERT JUMPDEST PUSH2 0xFB0 SWAP1 PUSH1 0x20 RETURNDATASIZE PUSH1 0x20 GT PUSH2 0x6A5 JUMPI PUSH2 0x696 DUP2 DUP4 PUSH2 0x2002 JUMP JUMPDEST POP DUP6 PUSH2 0xE7D JUMP JUMPDEST PUSH2 0xFD3 SWAP2 POP RETURNDATASIZE DUP1 DUP8 DUP4 RETURNDATACOPY PUSH2 0xFCB DUP2 DUP4 PUSH2 0x2002 JUMP JUMPDEST DUP2 ADD SWAP1 PUSH2 0x218B JUMP JUMPDEST DUP6 PUSH2 0xE24 JUMP JUMPDEST PUSH1 0x40 MLOAD RETURNDATASIZE DUP7 DUP3 RETURNDATACOPY RETURNDATASIZE SWAP1 REVERT JUMPDEST PUSH4 0x4E487B71 PUSH1 0xE0 SHL DUP8 MSTORE PUSH1 0x11 PUSH1 0x4 MSTORE PUSH1 0x24 DUP8 REVERT JUMPDEST PUSH4 0x4E487B71 PUSH1 0xE0 SHL DUP7 MSTORE PUSH1 0x11 PUSH1 0x4 MSTORE PUSH1 0x24 DUP7 REVERT JUMPDEST PUSH1 0x40 MLOAD PUSH3 0x461BCD PUSH1 0xE5 SHL DUP2 MSTORE PUSH1 0x20 PUSH1 0x4 DUP3 ADD MSTORE PUSH1 0xD PUSH1 0x24 DUP3 ADD MSTORE PUSH13 0x496E76616C6964207072696365 PUSH1 0x98 SHL PUSH1 0x44 DUP3 ADD MSTORE PUSH1 0x64 SWAP1 REVERT JUMPDEST PUSH2 0x1063 SWAP2 POP PUSH1 0xA0 RETURNDATASIZE PUSH1 0xA0 GT PUSH2 0x106E JUMPI JUMPDEST PUSH2 0x105B DUP2 DUP4 PUSH2 0x2002 JUMP JUMPDEST DUP2 ADD SWAP1 PUSH2 0x203B JUMP JUMPDEST POP POP POP SWAP1 POP DUP7 PUSH2 0xD89 JUMP JUMPDEST POP RETURNDATASIZE PUSH2 0x1051 JUMP JUMPDEST PUSH2 0x108D SWAP1 PUSH1 0x20 RETURNDATASIZE PUSH1 0x20 GT PUSH2 0x6A5 JUMPI PUSH2 0x696 DUP2 DUP4 PUSH2 0x2002 JUMP JUMPDEST POP DUP5 PUSH2 0xD10 JUMP JUMPDEST PUSH4 0x4E487B71 PUSH1 0xE0 SHL DUP4 MSTORE PUSH1 0x41 PUSH1 0x4 MSTORE PUSH1 0x24 DUP4 REVERT JUMPDEST PUSH8 0xDE0B6B3A7640000 PUSH2 0x10BF PUSH2 0x4B0 DUP7 DIV DUP4 PUSH2 0x2135 JUMP JUMPDEST DIV SWAP1 DUP2 DUP4 GT ISZERO PUSH2 0x120A JUMPI PUSH2 0x10D3 DUP3 DUP5 PUSH2 0x226F JUMP JUMPDEST SWAP2 PUSH1 0x24 CALLDATALOAD PUSH1 0x0 NOT DUP2 ADD GT PUSH2 0x11F6 JUMPI PUSH1 0x24 CALLDATALOAD PUSH1 0x0 NOT ADD DUP6 EQ PUSH2 0x11E1 JUMPI JUMPDEST PUSH3 0x278D00 DUP6 DUP2 DUP2 MUL DIV DUP2 EQ DUP7 ISZERO OR ISZERO PUSH2 0x11CD JUMPI PUSH2 0x110E SWAP1 DUP7 MUL TIMESTAMP PUSH2 0x217E JUMP JUMPDEST PUSH1 0x40 MLOAD SWAP2 PUSH2 0x111B DUP4 PUSH2 0x1FB4 JUMP JUMPDEST DUP5 DUP4 MSTORE PUSH1 0x20 DUP4 ADD MSTORE DUP10 PUSH1 0x40 DUP4 ADD MSTORE PUSH1 0x60 DUP3 ADD MSTORE PUSH1 0xC DUP8 ADD SLOAD PUSH1 0x1 PUSH1 0x40 SHL DUP2 LT ISZERO PUSH2 0x11B9 JUMPI DUP1 PUSH1 0x1 PUSH2 0x1155 SWAP3 ADD PUSH1 0xC DUP11 ADD SSTORE PUSH1 0xC DUP10 ADD PUSH2 0x235E JUMP JUMPDEST SWAP2 SWAP1 SWAP2 PUSH2 0x11A5 JUMPI SWAP2 PUSH2 0x119F SWAP4 SWAP2 PUSH1 0x3 PUSH1 0x60 DUP6 PUSH2 0x1199 SWAP7 MLOAD DUP5 SSTORE PUSH1 0x20 DUP2 ADD MLOAD PUSH1 0x1 DUP6 ADD SSTORE PUSH1 0x2 DUP5 ADD PUSH1 0x40 DUP3 ADD MLOAD ISZERO ISZERO PUSH1 0xFF DUP1 NOT DUP4 SLOAD AND SWAP2 AND OR SWAP1 SSTORE ADD MLOAD SWAP2 ADD SSTORE PUSH2 0x226F JUMP JUMPDEST SWAP3 PUSH2 0x227C JUMP JUMPDEST SWAP2 PUSH2 0xC5C JUMP JUMPDEST PUSH4 0x4E487B71 PUSH1 0xE0 SHL DUP11 MSTORE PUSH1 0x4 DUP11 SWAP1 MSTORE PUSH1 0x24 DUP11 REVERT JUMPDEST PUSH4 0x4E487B71 PUSH1 0xE0 SHL DUP11 MSTORE PUSH1 0x41 PUSH1 0x4 MSTORE PUSH1 0x24 DUP11 REVERT JUMPDEST PUSH4 0x4E487B71 PUSH1 0xE0 SHL DUP11 MSTORE PUSH1 0x11 PUSH1 0x4 MSTORE PUSH1 0x24 DUP11 REVERT JUMPDEST SWAP3 POP SWAP1 POP DUP1 PUSH2 0x11F0 DUP4 DUP3 PUSH2 0x217E JUMP JUMPDEST SWAP3 PUSH2 0x10EF JUMP JUMPDEST PUSH4 0x4E487B71 PUSH1 0xE0 SHL DUP10 MSTORE PUSH1 0x11 PUSH1 0x4 MSTORE PUSH1 0x24 DUP10 REVERT JUMPDEST DUP8 PUSH2 0x10D3 JUMP JUMPDEST SWAP2 PUSH8 0xDE0B6B3A7640000 PUSH2 0x122E PUSH2 0x1235 SWAP3 PUSH2 0x4B0 DUP9 DIV DUP4 ADD SWAP1 PUSH2 0x2135 JUMP JUMPDEST DIV SWAP3 PUSH2 0x227C JUMP JUMPDEST PUSH2 0xBFE JUMP JUMPDEST PUSH4 0x4E487B71 PUSH1 0xE0 SHL DUP7 MSTORE PUSH1 0x12 PUSH1 0x4 MSTORE PUSH1 0x24 DUP7 REVERT JUMPDEST PUSH4 0x4E487B71 PUSH1 0xE0 SHL DUP6 MSTORE PUSH1 0x11 PUSH1 0x4 MSTORE PUSH1 0x24 DUP6 REVERT JUMPDEST PUSH1 0x40 MLOAD PUSH3 0x461BCD PUSH1 0xE5 SHL DUP2 MSTORE PUSH1 0x20 PUSH1 0x4 DUP3 ADD MSTORE PUSH1 0x28 PUSH1 0x24 DUP3 ADD MSTORE PUSH32 0x436F6C6C656374656420616D6F756E7420646F65736E2774206D617463682070 PUSH1 0x44 DUP3 ADD MSTORE PUSH8 0x1C9A5B98DA5C185B PUSH1 0xC2 SHL PUSH1 0x64 DUP3 ADD MSTORE PUSH1 0x84 SWAP1 REVERT JUMPDEST SWAP1 SWAP2 SWAP3 SWAP4 SWAP5 SWAP6 POP PUSH2 0x12CA DUP2 DUP4 DUP7 PUSH2 0x228B JUMP JUMPDEST CALLDATALOAD PUSH1 0x1 PUSH1 0x1 PUSH1 0xA0 SHL SUB DUP2 AND DUP2 SUB PUSH2 0x14F5 JUMPI PUSH2 0x12E6 DUP3 DUP6 DUP9 PUSH2 0x228B JUMP JUMPDEST CALLDATALOAD SWAP7 DUP8 ISZERO PUSH2 0x14B8 JUMPI DUP12 SWAP1 PUSH1 0x20 PUSH2 0x133C PUSH1 0x1 DUP1 PUSH1 0xA0 SHL SUB PUSH1 0x9 SLOAD AND DUP12 PUSH1 0x40 MLOAD SWAP6 DUP7 DUP1 SWAP5 DUP2 SWAP4 PUSH4 0x23B872DD PUSH1 0xE0 SHL DUP4 MSTORE ADDRESS DUP12 PUSH1 0x4 DUP6 ADD PUSH1 0x40 SWAP2 SWAP5 SWAP4 SWAP3 SWAP5 PUSH1 0x60 DUP3 ADD SWAP6 PUSH1 0x1 DUP1 PUSH1 0xA0 SHL SUB DUP1 SWAP3 AND DUP4 MSTORE AND PUSH1 0x20 DUP3 ADD MSTORE ADD MSTORE JUMP JUMPDEST SUB SWAP3 GAS CALL SWAP1 DUP2 ISZERO PUSH2 0x6AC JUMPI PUSH2 0x1358 SWAP3 DUP11 SWAP3 PUSH2 0x1499 JUMPI JUMPDEST POP PUSH2 0x217E JUMP JUMPDEST SWAP7 PUSH1 0x1 DUP1 PUSH1 0xA0 SHL SUB DUP3 AND DUP13 MSTORE PUSH1 0x4 PUSH1 0x20 MSTORE PUSH1 0x40 DUP13 KECCAK256 PUSH2 0x1378 DUP3 DUP3 SLOAD PUSH2 0x217E JUMP JUMPDEST SWAP1 SSTORE PUSH2 0x4B0 PUSH2 0x138F PUSH1 0x24 CALLDATALOAD PUSH2 0xC1B PUSH1 0x44 CALLDATALOAD DUP6 PUSH2 0x2135 JUMP JUMPDEST DIV SWAP1 PUSH1 0x40 MLOAD SWAP3 DUP4 PUSH1 0xA0 DUP2 ADD LT PUSH8 0xFFFFFFFFFFFFFFFF PUSH1 0xA0 DUP7 ADD GT OR PUSH2 0x1485 JUMPI PUSH1 0xA0 DUP5 ADD PUSH1 0x40 MSTORE PUSH1 0x1 DUP1 PUSH1 0xA0 SHL SUB AND DUP4 MSTORE PUSH1 0x20 DUP4 ADD MSTORE PUSH1 0x40 DUP3 ADD MSTORE DUP11 PUSH1 0x60 DUP3 ADD MSTORE DUP11 PUSH1 0x80 DUP3 ADD MSTORE PUSH1 0xB DUP9 ADD SLOAD PUSH1 0x1 PUSH1 0x40 SHL DUP2 LT ISZERO PUSH2 0x1471 JUMPI DUP1 PUSH1 0x1 PUSH2 0x13FC SWAP3 ADD PUSH1 0xB DUP12 ADD SSTORE PUSH1 0xB DUP11 ADD PUSH2 0x229B JUMP JUMPDEST SWAP2 SWAP1 SWAP2 PUSH2 0x145D JUMPI DUP1 MLOAD DUP3 SLOAD PUSH1 0x1 PUSH1 0x1 PUSH1 0xA0 SHL SUB NOT AND PUSH1 0x1 PUSH1 0x1 PUSH1 0xA0 SHL SUB SWAP2 SWAP1 SWAP2 AND OR DUP3 SSTORE PUSH1 0x20 DUP2 ADD MLOAD PUSH1 0x1 DUP4 ADD SSTORE PUSH1 0x40 DUP2 ADD MLOAD PUSH1 0x2 DUP4 ADD SSTORE PUSH1 0x60 DUP2 ADD MLOAD PUSH1 0x3 DUP4 ADD SSTORE PUSH1 0x80 ADD MLOAD PUSH1 0x4 SWAP1 SWAP2 ADD SSTORE PUSH2 0x1451 SWAP1 PUSH2 0x227C JUMP JUMPDEST SWAP1 DUP8 SWAP6 SWAP5 SWAP4 SWAP3 SWAP2 PUSH2 0xB21 JUMP JUMPDEST PUSH4 0x4E487B71 PUSH1 0xE0 SHL DUP13 MSTORE PUSH1 0x4 DUP13 SWAP1 MSTORE PUSH1 0x24 DUP13 REVERT JUMPDEST PUSH4 0x4E487B71 PUSH1 0xE0 SHL DUP13 MSTORE PUSH1 0x41 PUSH1 0x4 MSTORE PUSH1 0x24 DUP13 REVERT JUMPDEST PUSH4 0x4E487B71 PUSH1 0xE0 SHL DUP15 MSTORE PUSH1 0x41 PUSH1 0x4 MSTORE PUSH1 0x24 DUP15 REVERT JUMPDEST PUSH2 0x14B1 SWAP1 PUSH1 0x20 RETURNDATASIZE PUSH1 0x20 GT PUSH2 0x6A5 JUMPI PUSH2 0x696 DUP2 DUP4 PUSH2 0x2002 JUMP JUMPDEST POP CODESIZE PUSH2 0x1352 JUMP JUMPDEST PUSH1 0x40 MLOAD PUSH3 0x461BCD PUSH1 0xE5 SHL DUP2 MSTORE PUSH1 0x20 PUSH1 0x4 DUP3 ADD MSTORE PUSH1 0x15 PUSH1 0x24 DUP3 ADD MSTORE PUSH21 0x125B9D985B1A59081B195B99195C88185B5BDD5B9D PUSH1 0x5A SHL PUSH1 0x44 DUP3 ADD MSTORE PUSH1 0x64 SWAP1 REVERT JUMPDEST DUP11 DUP1 REVERT JUMPDEST PUSH2 0x1511 SWAP1 PUSH1 0x20 RETURNDATASIZE PUSH1 0x20 GT PUSH2 0x6A5 JUMPI PUSH2 0x696 DUP2 DUP4 PUSH2 0x2002 JUMP JUMPDEST POP CODESIZE PUSH2 0xA7E JUMP JUMPDEST PUSH1 0x40 MLOAD RETURNDATASIZE DUP11 DUP3 RETURNDATACOPY RETURNDATASIZE SWAP1 REVERT JUMPDEST PUSH1 0x40 MLOAD PUSH3 0x461BCD PUSH1 0xE5 SHL DUP2 MSTORE PUSH1 0x20 PUSH1 0x4 DUP3 ADD MSTORE PUSH1 0x13 PUSH1 0x24 DUP3 ADD MSTORE PUSH19 0x139BC81B195B99195C9CC81C1C9BDD9A591959 PUSH1 0x6A SHL PUSH1 0x44 DUP3 ADD MSTORE PUSH1 0x64 SWAP1 REVERT JUMPDEST PUSH1 0x40 MLOAD PUSH3 0x461BCD PUSH1 0xE5 SHL DUP2 MSTORE PUSH1 0x20 PUSH1 0x4 DUP3 ADD MSTORE PUSH1 0x2C PUSH1 0x24 DUP3 ADD MSTORE PUSH32 0x4C656E6465722061646472657373657320616E6420616D6F756E7473206C656E PUSH1 0x44 DUP3 ADD MSTORE PUSH12 0xCEE8D040DAD2E6DAC2E8C6D PUSH1 0xA3 SHL PUSH1 0x64 DUP3 ADD MSTORE PUSH1 0x84 SWAP1 REVERT JUMPDEST PUSH1 0x40 MLOAD PUSH3 0x461BCD PUSH1 0xE5 SHL DUP2 MSTORE PUSH1 0x20 PUSH1 0x4 DUP3 ADD MSTORE PUSH1 0x23 PUSH1 0x24 DUP3 ADD MSTORE PUSH32 0x426F72726F77657220616C72656164792068617320616E20616374697665206C PUSH1 0x44 DUP3 ADD MSTORE PUSH3 0x37B0B7 PUSH1 0xE9 SHL PUSH1 0x64 DUP3 ADD MSTORE PUSH1 0x84 SWAP1 REVERT JUMPDEST PUSH1 0x40 MLOAD PUSH3 0x461BCD PUSH1 0xE5 SHL DUP2 MSTORE PUSH1 0x20 PUSH1 0x4 DUP3 ADD MSTORE PUSH1 0x10 PUSH1 0x24 DUP3 ADD MSTORE PUSH16 0x24B73B30B634B210323AB930BA34B7B7 PUSH1 0x81 SHL PUSH1 0x44 DUP3 ADD MSTORE PUSH1 0x64 SWAP1 REVERT JUMPDEST PUSH1 0x40 MLOAD PUSH3 0x461BCD PUSH1 0xE5 SHL DUP2 MSTORE PUSH1 0x20 PUSH1 0x4 DUP3 ADD MSTORE PUSH1 0xE PUSH1 0x24 DUP3 ADD MSTORE PUSH14 0x125B9D985B1A5908185B5BDD5B9D PUSH1 0x92 SHL PUSH1 0x44 DUP3 ADD MSTORE PUSH1 0x64 SWAP1 REVERT JUMPDEST DUP4 DUP1 REVERT JUMPDEST POP DUP1 REVERT JUMPDEST POP CALLVALUE PUSH2 0x15D JUMPI PUSH1 0x40 PUSH2 0x1699 PUSH2 0x1693 CALLDATASIZE PUSH2 0x1F1B JUMP JUMPDEST SWAP1 PUSH2 0x2CC9 JUMP JUMPDEST DUP3 MLOAD SWAP2 DUP3 MSTORE PUSH1 0x20 DUP3 ADD MSTORE RETURN JUMPDEST POP CALLVALUE PUSH2 0x15D JUMPI PUSH1 0x20 CALLDATASIZE PUSH1 0x3 NOT ADD SLT PUSH2 0x15D JUMPI PUSH1 0x4 CALLDATALOAD PUSH1 0x1 PUSH1 0x1 PUSH1 0xA0 SHL SUB DUP2 DUP2 AND SWAP2 DUP3 SWAP1 SUB PUSH2 0x469 JUMPI PUSH2 0x16DC SWAP1 PUSH1 0x8 SLOAD AND CALLER EQ PUSH2 0x237A JUMP JUMPDEST PUSH1 0x1 PUSH1 0x1 PUSH1 0x60 SHL SUB PUSH1 0xA0 SHL PUSH1 0x1 SLOAD AND OR PUSH1 0x1 SSTORE DUP1 RETURN JUMPDEST POP CALLVALUE PUSH2 0x15D JUMPI PUSH1 0x20 CALLDATASIZE PUSH1 0x3 NOT ADD SLT PUSH2 0x15D JUMPI PUSH1 0x4 CALLDATALOAD PUSH1 0x1 PUSH1 0x1 PUSH1 0xA0 SHL SUB DUP2 DUP2 AND SWAP2 DUP3 SWAP1 SUB PUSH2 0x469 JUMPI PUSH2 0x1729 SWAP1 PUSH1 0x8 SLOAD AND CALLER EQ PUSH2 0x237A JUMP JUMPDEST DUP2 SLOAD PUSH1 0x1 PUSH1 0x1 PUSH1 0xA0 SHL SUB NOT AND OR DUP2 SSTORE DUP1 RETURN JUMPDEST POP CALLVALUE PUSH2 0x15D JUMPI PUSH1 0x20 CALLDATASIZE PUSH1 0x3 NOT ADD SLT PUSH2 0x15D JUMPI PUSH1 0xD PUSH1 0x40 PUSH1 0x20 SWAP3 PUSH1 0x4 CALLDATALOAD DUP2 MSTORE PUSH1 0x5 DUP5 MSTORE KECCAK256 ADD SLOAD PUSH1 0x40 MLOAD SWAP1 DUP2 MSTORE RETURN JUMPDEST POP CALLVALUE PUSH2 0x15D JUMPI PUSH1 0x20 CALLDATASIZE PUSH1 0x3 NOT ADD SLT PUSH2 0x15D JUMPI PUSH1 0x4 CALLDATALOAD PUSH1 0x1 PUSH1 0x1 PUSH1 0xA0 SHL SUB DUP2 AND SWAP1 DUP2 SWAP1 SUB PUSH2 0x167B JUMPI DUP2 PUSH1 0x40 SWAP2 PUSH1 0x20 SWAP4 MSTORE PUSH1 0x4 DUP4 MSTORE KECCAK256 SLOAD PUSH1 0x40 MLOAD SWAP1 DUP2 MSTORE RETURN JUMPDEST POP CALLVALUE PUSH2 0x15D JUMPI PUSH1 0x20 DUP1 PUSH1 0x3 NOT CALLDATASIZE ADD SLT PUSH2 0x167B JUMPI PUSH1 0x4 CALLDATALOAD PUSH1 0x1 DUP1 PUSH1 0xA0 SHL SUB PUSH2 0x17D1 DUP2 PUSH1 0x8 SLOAD AND CALLER EQ PUSH2 0x237A JUMP JUMPDEST DUP2 DUP5 MSTORE PUSH1 0x5 DUP4 MSTORE PUSH1 0x40 DUP5 KECCAK256 SWAP3 PUSH1 0x9 SWAP1 DUP2 DUP6 ADD SWAP2 DUP3 SLOAD SWAP3 PUSH1 0xFF PUSH2 0x17F4 DUP2 DUP7 AND PUSH2 0x23D0 JUMP JUMPDEST DUP9 SWAP1 DUP10 SWAP1 PUSH1 0xC DUP11 ADD DUP1 SLOAD SWAP3 JUMPDEST DUP4 DUP2 LT PUSH2 0x1A3B JUMPI POP POP POP POP PUSH3 0x76A700 LT ISZERO PUSH2 0x19E1 JUMPI PUSH1 0xFF NOT DUP1 SWAP5 AND SWAP1 SSTORE PUSH1 0x1 DUP1 DUP8 ADD SWAP4 DUP6 DUP6 SLOAD AND DUP10 MSTORE PUSH1 0x6 DUP5 MSTORE PUSH1 0x40 DUP10 KECCAK256 SWAP1 DUP2 SLOAD AND SWAP1 SSTORE PUSH1 0xD DUP8 ADD SLOAD DUP1 PUSH2 0x19D1 JUMPI JUMPDEST POP PUSH1 0x3 DUP1 DUP9 ADD SLOAD PUSH1 0xE DUP10 ADD SLOAD SWAP2 DUP3 PUSH2 0x18B6 JUMPI JUMPDEST DUP11 PUSH32 0xCAB88A55906C5830A49DDDD8B31D115294A5E6C4210F25FE140530A39C51DC74 DUP11 DUP11 DUP11 SLOAD AND SWAP1 PUSH2 0x18B0 PUSH2 0x1888 PUSH2 0x2070 JUMP JUMPDEST PUSH1 0x40 DUP1 MLOAD SWAP4 DUP5 MSTORE PUSH1 0x1 PUSH1 0x1 PUSH1 0xA0 SHL SUB SWAP1 SWAP5 AND PUSH1 0x20 DUP5 ADD MSTORE SWAP3 DUP3 ADD SWAP3 SWAP1 SWAP3 MSTORE SWAP1 DUP2 SWAP1 PUSH1 0x60 DUP3 ADD SWAP1 JUMP JUMPDEST SUB SWAP1 LOG1 DUP1 RETURN JUMPDEST SWAP1 SWAP2 SWAP3 DUP1 SWAP10 PUSH1 0xB DUP13 SWAP2 ADD SWAP2 JUMPDEST PUSH2 0x18CD JUMPI JUMPDEST POP PUSH2 0x1855 JUMP JUMPDEST DUP2 SLOAD DUP2 LT ISZERO PUSH2 0x19CC JUMPI PUSH2 0x18E0 DUP2 DUP4 PUSH2 0x229B JUMP JUMPDEST POP PUSH2 0x18F2 DUP13 DUP3 ADD SLOAD DUP6 DUP4 ADD SLOAD SWAP1 PUSH2 0x226F JUMP JUMPDEST DUP13 DUP2 ISZERO PUSH2 0x19BB JUMPI POP PUSH8 0xDE0B6B3A7640000 SWAP1 DUP2 DUP2 MUL SWAP1 DUP2 DIV DUP3 SUB PUSH2 0x19A7 JUMPI DUP8 SWAP7 SWAP6 SWAP5 SWAP4 SWAP3 DUP16 SWAP2 SWAP3 PUSH2 0x1930 PUSH2 0x192A PUSH2 0x196C SWAP12 DUP15 SWAP7 PUSH2 0x215E JUMP JUMPDEST DUP10 PUSH2 0x2135 JUMP JUMPDEST DIV SWAP2 DUP14 DUP1 DUP13 SLOAD AND SWAP3 SLOAD AND SWAP1 PUSH1 0x40 MLOAD DUP1 SWAP12 DUP2 SWAP6 DUP3 SWAP5 PUSH4 0xA9059CBB PUSH1 0xE0 SHL DUP5 MSTORE PUSH1 0x4 DUP5 ADD PUSH1 0x20 SWAP1 SWAP4 SWAP3 SWAP2 SWAP4 PUSH1 0x40 DUP2 ADD SWAP5 PUSH1 0x1 DUP1 PUSH1 0xA0 SHL SUB AND DUP2 MSTORE ADD MSTORE JUMP JUMPDEST SUB SWAP3 GAS CALL SWAP1 DUP2 ISZERO PUSH2 0x6AC JUMPI DUP13 SWAP7 PUSH2 0x1987 SWAP3 PUSH2 0x1991 JUMPI POP PUSH2 0x227C JUMP JUMPDEST SWAP1 SWAP2 SWAP3 SWAP4 SWAP5 PUSH2 0x18C2 JUMP JUMPDEST PUSH2 0x69E SWAP1 DUP11 RETURNDATASIZE DUP13 GT PUSH2 0x6A5 JUMPI PUSH2 0x696 DUP2 DUP4 PUSH2 0x2002 JUMP JUMPDEST PUSH4 0x4E487B71 PUSH1 0xE0 SHL DUP16 MSTORE PUSH1 0x11 PUSH1 0x4 MSTORE PUSH1 0x24 DUP16 REVERT JUMPDEST SWAP7 SWAP6 SWAP5 SWAP4 SWAP3 SWAP1 POP PUSH2 0x1987 SWAP2 POP PUSH2 0x227C JUMP JUMPDEST PUSH2 0x18C7 JUMP JUMPDEST PUSH2 0x19DB SWAP1 DUP8 PUSH2 0x286A JUMP JUMPDEST CODESIZE PUSH2 0x1842 JUMP JUMPDEST PUSH1 0x40 MLOAD PUSH3 0x461BCD PUSH1 0xE5 SHL DUP2 MSTORE PUSH1 0x4 DUP2 ADD DUP5 SWAP1 MSTORE PUSH1 0x2C PUSH1 0x24 DUP3 ADD MSTORE PUSH32 0x4C6F616E206973206E6F74206F766572647565206265796F6E642033206D6F6E PUSH1 0x44 DUP3 ADD MSTORE PUSH12 0x1D1A1CC81A5B881D1BDD185B PUSH1 0xA2 SHL PUSH1 0x64 DUP3 ADD MSTORE PUSH1 0x84 SWAP1 REVERT JUMPDEST PUSH2 0x1A45 DUP2 DUP4 PUSH2 0x235E JUMP JUMPDEST POP DUP4 PUSH1 0x2 DUP3 ADD SLOAD AND PUSH2 0x1A5D JUMPI PUSH1 0x3 ADD SLOAD DUP1 TIMESTAMP GT PUSH2 0x1A6C JUMPI JUMPDEST POP PUSH2 0x1A67 SWAP1 PUSH2 0x227C JUMP JUMPDEST PUSH2 0x1800 JUMP JUMPDEST PUSH2 0x1A67 SWAP2 SWAP6 PUSH2 0x1A7E PUSH2 0x1A84 SWAP3 TIMESTAMP PUSH2 0x226F JUMP JUMPDEST SWAP1 PUSH2 0x217E JUMP JUMPDEST SWAP5 SWAP1 PUSH2 0x1A5D JUMP JUMPDEST POP CALLVALUE PUSH2 0x15D JUMPI PUSH1 0x20 CALLDATASIZE PUSH1 0x3 NOT ADD SLT PUSH2 0x15D JUMPI PUSH1 0x4 CALLDATALOAD PUSH1 0x1 PUSH1 0x1 PUSH1 0xA0 SHL SUB DUP2 AND SWAP1 DUP2 SWAP1 SUB PUSH2 0x167B JUMPI PUSH1 0x40 DUP3 PUSH1 0xFF SWAP3 PUSH1 0x20 SWAP5 MSTORE PUSH1 0x6 DUP5 MSTORE KECCAK256 SLOAD AND PUSH1 0x40 MLOAD SWAP1 ISZERO ISZERO DUP2 MSTORE RETURN JUMPDEST POP CALLVALUE PUSH2 0x15D JUMPI PUSH1 0x20 DUP1 PUSH1 0x3 NOT CALLDATASIZE ADD SLT PUSH2 0x167B JUMPI SWAP1 PUSH1 0x4 CALLDATALOAD DUP2 MSTORE PUSH1 0x5 DUP3 MSTORE PUSH1 0xC PUSH1 0x40 DUP3 KECCAK256 ADD DUP1 SLOAD SWAP2 PUSH2 0x1AFD DUP4 PUSH2 0x2D3C JUMP JUMPDEST SWAP3 PUSH2 0x1B07 DUP2 PUSH2 0x2D3C JUMP JUMPDEST PUSH2 0x1B10 DUP3 PUSH2 0x20EC JUMP JUMPDEST SWAP2 PUSH2 0x1B1E PUSH1 0x40 MLOAD SWAP4 DUP5 PUSH2 0x2002 JUMP JUMPDEST DUP1 DUP4 MSTORE PUSH2 0x1B2A DUP2 PUSH2 0x20EC JUMP JUMPDEST DUP4 DUP9 ADD SWAP6 SWAP1 PUSH1 0x1F NOT ADD CALLDATASIZE DUP8 CALLDATACOPY DUP5 JUMPDEST DUP3 DUP2 LT PUSH2 0x1BA6 JUMPI POP POP POP SWAP5 DUP1 PUSH2 0x1B6C PUSH2 0x1B5F SWAP8 PUSH1 0x40 MLOAD SWAP9 DUP10 SWAP9 PUSH1 0x60 DUP11 MSTORE PUSH1 0x60 DUP11 ADD SWAP1 PUSH2 0x1EE7 JUMP JUMPDEST SWAP1 DUP9 DUP3 SUB DUP5 DUP11 ADD MSTORE PUSH2 0x1EE7 JUMP JUMPDEST SWAP3 DUP7 DUP5 SUB PUSH1 0x40 DUP9 ADD MSTORE MLOAD SWAP3 DUP4 DUP2 MSTORE ADD SWAP4 SWAP3 JUMPDEST DUP3 DUP2 LT PUSH2 0x1B8D JUMPI POP POP POP POP SUB SWAP1 RETURN JUMPDEST DUP4 MLOAD ISZERO ISZERO DUP6 MSTORE DUP7 SWAP6 POP SWAP4 DUP2 ADD SWAP4 SWAP3 DUP2 ADD SWAP3 PUSH1 0x1 ADD PUSH2 0x1B7E JUMP JUMPDEST DUP1 PUSH1 0xFF PUSH1 0x2 PUSH2 0x1BBE PUSH2 0x1BF3 SWAP5 DUP7 SWAP14 SWAP11 SWAP10 SWAP12 SWAP13 SWAP14 PUSH2 0x235E JUMP JUMPDEST POP DUP1 SLOAD PUSH2 0x1BCB DUP6 DUP16 PUSH2 0x2121 JUMP JUMPDEST MSTORE PUSH1 0x1 DUP2 ADD SLOAD PUSH2 0x1BDB DUP6 DUP11 PUSH2 0x2121 JUMP JUMPDEST MSTORE ADD SLOAD AND PUSH2 0x1BE9 DUP3 DUP11 PUSH2 0x2121 JUMP JUMPDEST SWAP1 ISZERO ISZERO SWAP1 MSTORE PUSH2 0x227C JUMP JUMPDEST SWAP8 SWAP7 SWAP6 SWAP4 SWAP5 SWAP8 PUSH2 0x1B38 JUMP JUMPDEST POP CALLVALUE PUSH2 0x15D JUMPI DUP1 PUSH1 0x3 NOT CALLDATASIZE ADD SLT PUSH2 0x15D JUMPI PUSH1 0x9 SLOAD PUSH1 0x40 MLOAD PUSH1 0x1 PUSH1 0x1 PUSH1 0xA0 SHL SUB SWAP1 SWAP2 AND DUP2 MSTORE PUSH1 0x20 SWAP1 RETURN JUMPDEST POP CALLVALUE PUSH2 0x15D JUMPI DUP1 PUSH1 0x3 NOT CALLDATASIZE ADD SLT PUSH2 0x15D JUMPI PUSH1 0x2 SLOAD PUSH1 0x40 MLOAD PUSH1 0x1 PUSH1 0x1 PUSH1 0xA0 SHL SUB SWAP1 SWAP2 AND DUP2 MSTORE PUSH1 0x20 SWAP1 RETURN JUMPDEST POP CALLVALUE PUSH2 0x15D JUMPI PUSH1 0x20 CALLDATASIZE PUSH1 0x3 NOT ADD SLT PUSH2 0x15D JUMPI PUSH2 0x1C77 PUSH1 0x1 DUP1 PUSH1 0xA0 SHL SUB PUSH1 0x8 SLOAD AND CALLER EQ PUSH2 0x237A JUMP JUMPDEST PUSH1 0x4 CALLDATALOAD DUP2 MSTORE PUSH1 0x5 PUSH1 0x20 MSTORE PUSH1 0x40 DUP2 KECCAK256 PUSH1 0x9 DUP2 ADD DUP1 SLOAD SWAP2 PUSH2 0x1C98 PUSH1 0xFF DUP5 AND PUSH2 0x23D0 JUMP JUMPDEST PUSH2 0x1CA0 PUSH2 0x2070 JUMP JUMPDEST SWAP2 PUSH1 0xD DUP3 ADD PUSH4 0x5F5E100 PUSH2 0x1CB5 DUP6 DUP4 SLOAD PUSH2 0x2135 JUMP JUMPDEST DIV SWAP2 PUSH1 0xE DUP5 ADD SWAP3 DUP4 SLOAD PUSH1 0x69 DUP2 MUL SWAP1 DUP1 DUP3 DIV PUSH1 0x69 EQ SWAP1 ISZERO OR ISZERO PUSH2 0x11F6 JUMPI PUSH1 0x64 SWAP1 DIV LT PUSH2 0x1E84 JUMPI PUSH1 0xFF NOT SWAP6 DUP7 AND SWAP1 SSTORE PUSH1 0x1 DUP4 ADD DUP1 SLOAD PUSH1 0x1 PUSH1 0x1 PUSH1 0xA0 SHL SUB AND DUP8 MSTORE PUSH1 0x6 PUSH1 0x20 MSTORE PUSH1 0x40 DUP8 KECCAK256 DUP1 SLOAD SWAP1 SWAP7 AND SWAP1 SWAP6 SSTORE SLOAD DUP1 PUSH2 0x1E72 JUMPI JUMPDEST POP PUSH1 0x3 DUP3 ADD SLOAD SWAP1 SLOAD SWAP2 DUP3 PUSH2 0x1D6A JUMPI JUMPDEST POP POP SWAP2 SLOAD PUSH1 0x40 DUP1 MLOAD PUSH1 0x4 CALLDATALOAD DUP2 MSTORE PUSH1 0x1 PUSH1 0x1 PUSH1 0xA0 SHL SUB SWAP1 SWAP3 AND PUSH1 0x20 DUP4 ADD MSTORE DUP2 ADD SWAP2 SWAP1 SWAP2 MSTORE PUSH32 0xCAB88A55906C5830A49DDDD8B31D115294A5E6C4210F25FE140530A39C51DC74 SWAP2 POP DUP1 PUSH1 0x60 DUP2 ADD PUSH2 0x18B0 JUMP JUMPDEST SWAP1 SWAP2 SWAP3 DUP6 JUMPDEST PUSH1 0xB DUP4 ADD SLOAD DUP2 LT ISZERO PUSH2 0x1E45 JUMPI PUSH2 0x1D88 DUP2 PUSH1 0xB DUP6 ADD PUSH2 0x229B JUMP JUMPDEST POP PUSH2 0x1D9C PUSH1 0x1 DUP3 ADD SLOAD PUSH1 0x3 DUP4 ADD SLOAD SWAP1 PUSH2 0x226F JUMP JUMPDEST DUP1 ISZERO PUSH2 0x1E3A JUMPI DUP1 PUSH8 0xDE0B6B3A7640000 DUP2 MUL DIV PUSH8 0xDE0B6B3A7640000 SUB PUSH2 0x11F6 JUMPI PUSH2 0x1E1C SWAP3 SWAP2 PUSH8 0xDE0B6B3A7640000 PUSH2 0x1DDC PUSH2 0x192A DUP11 DUP4 PUSH1 0x20 SWAP7 MUL PUSH2 0x215E JUMP JUMPDEST PUSH1 0x9 SLOAD SWAP3 SLOAD PUSH1 0x40 MLOAD PUSH4 0xA9059CBB PUSH1 0xE0 SHL DUP2 MSTORE PUSH1 0x1 PUSH1 0x1 PUSH1 0xA0 SHL SUB SWAP2 DUP3 AND PUSH1 0x4 DUP3 ADD MSTORE SWAP3 SWAP1 SWAP2 DIV PUSH1 0x24 DUP4 ADD MSTORE SWAP1 SWAP5 DUP6 SWAP3 SWAP1 SWAP2 AND SWAP1 DUP3 SWAP1 DUP13 SWAP1 DUP3 SWAP1 PUSH1 0x44 DUP3 ADD SWAP1 JUMP JUMPDEST SUB SWAP3 GAS CALL SWAP2 DUP3 ISZERO PUSH2 0x1518 JUMPI PUSH2 0x1E35 SWAP3 PUSH2 0x67D JUMPI POP PUSH2 0x227C JUMP JUMPDEST PUSH2 0x1D6F JUMP JUMPDEST POP POP PUSH2 0x1E35 SWAP1 PUSH2 0x227C JUMP JUMPDEST POP SWAP3 POP POP POP PUSH32 0xCAB88A55906C5830A49DDDD8B31D115294A5E6C4210F25FE140530A39C51DC74 CODESIZE DUP1 PUSH2 0x1D1A JUMP JUMPDEST PUSH2 0x1E7E SWAP1 PUSH1 0x4 CALLDATALOAD PUSH2 0x286A JUMP JUMPDEST CODESIZE PUSH2 0x1D0B JUMP JUMPDEST PUSH1 0x40 MLOAD PUSH3 0x461BCD PUSH1 0xE5 SHL DUP2 MSTORE PUSH1 0x20 PUSH1 0x4 DUP3 ADD MSTORE PUSH1 0x35 PUSH1 0x24 DUP3 ADD MSTORE PUSH32 0x4254432076616C756520686173206E6F742064726F707065642062656C6F7720 PUSH1 0x44 DUP3 ADD MSTORE PUSH21 0x1B1A5C5D5A59185D1A5BDB881D1A1C995CDA1BDB19 PUSH1 0x5A SHL PUSH1 0x64 DUP3 ADD MSTORE PUSH1 0x84 SWAP1 REVERT JUMPDEST SWAP1 DUP2 MLOAD DUP1 DUP3 MSTORE PUSH1 0x20 DUP1 DUP1 SWAP4 ADD SWAP4 ADD SWAP2 PUSH1 0x0 JUMPDEST DUP3 DUP2 LT PUSH2 0x1F07 JUMPI POP POP POP POP SWAP1 JUMP JUMPDEST DUP4 MLOAD DUP6 MSTORE SWAP4 DUP2 ADD SWAP4 SWAP3 DUP2 ADD SWAP3 PUSH1 0x1 ADD PUSH2 0x1EF9 JUMP JUMPDEST PUSH1 0x40 SWAP1 PUSH1 0x3 NOT ADD SLT PUSH2 0x1F31 JUMPI PUSH1 0x4 CALLDATALOAD SWAP1 PUSH1 0x24 CALLDATALOAD SWAP1 JUMP JUMPDEST PUSH1 0x0 DUP1 REVERT JUMPDEST SWAP2 DUP2 PUSH1 0x1F DUP5 ADD SLT ISZERO PUSH2 0x1F31 JUMPI DUP3 CALLDATALOAD SWAP2 PUSH8 0xFFFFFFFFFFFFFFFF DUP4 GT PUSH2 0x1F31 JUMPI PUSH1 0x20 DUP1 DUP6 ADD SWAP5 DUP5 PUSH1 0x5 SHL ADD ADD GT PUSH2 0x1F31 JUMPI JUMP JUMPDEST PUSH1 0x7 SLOAD DUP2 LT ISZERO PUSH2 0x1F9E JUMPI PUSH1 0x7 PUSH1 0x0 MSTORE PUSH32 0xA66CC928B5EDB82AF9BD49922954155AB7B0942694BEA4CE44661D9A8736C688 ADD SWAP1 PUSH1 0x0 SWAP1 JUMP JUMPDEST PUSH4 0x4E487B71 PUSH1 0xE0 SHL PUSH1 0x0 MSTORE PUSH1 0x32 PUSH1 0x4 MSTORE PUSH1 0x24 PUSH1 0x0 REVERT JUMPDEST PUSH1 0x80 DUP2 ADD SWAP1 DUP2 LT PUSH8 0xFFFFFFFFFFFFFFFF DUP3 GT OR PUSH2 0x1FD0 JUMPI PUSH1 0x40 MSTORE JUMP JUMPDEST PUSH4 0x4E487B71 PUSH1 0xE0 SHL PUSH1 0x0 MSTORE PUSH1 0x41 PUSH1 0x4 MSTORE PUSH1 0x24 PUSH1 0x0 REVERT JUMPDEST PUSH1 0x60 DUP2 ADD SWAP1 DUP2 LT PUSH8 0xFFFFFFFFFFFFFFFF DUP3 GT OR PUSH2 0x1FD0 JUMPI PUSH1 0x40 MSTORE JUMP JUMPDEST SWAP1 PUSH1 0x1F DUP1 NOT SWAP2 ADD AND DUP2 ADD SWAP1 DUP2 LT PUSH8 0xFFFFFFFFFFFFFFFF DUP3 GT OR PUSH2 0x1FD0 JUMPI PUSH1 0x40 MSTORE JUMP JUMPDEST MLOAD SWAP1 PUSH10 0xFFFFFFFFFFFFFFFFFFFF DUP3 AND DUP3 SUB PUSH2 0x1F31 JUMPI JUMP JUMPDEST SWAP1 DUP2 PUSH1 0xA0 SWAP2 SUB SLT PUSH2 0x1F31 JUMPI PUSH2 0x204F DUP2 PUSH2 0x2024 JUMP JUMPDEST SWAP2 PUSH1 0x20 DUP3 ADD MLOAD SWAP2 PUSH1 0x40 DUP2 ADD MLOAD SWAP2 PUSH2 0x206D PUSH1 0x80 PUSH1 0x60 DUP5 ADD MLOAD SWAP4 ADD PUSH2 0x2024 JUMP JUMPDEST SWAP1 JUMP JUMPDEST PUSH1 0x3 SLOAD PUSH1 0x40 MLOAD PUSH4 0x3FABE5A3 PUSH1 0xE2 SHL DUP2 MSTORE SWAP1 PUSH1 0xA0 SWAP1 DUP3 SWAP1 PUSH1 0x4 SWAP1 DUP3 SWAP1 PUSH1 0x1 PUSH1 0x1 PUSH1 0xA0 SHL SUB AND GAS STATICCALL SWAP1 DUP2 ISZERO PUSH2 0x20C8 JUMPI PUSH1 0x0 SWAP2 PUSH2 0x20A8 JUMPI POP SWAP1 JUMP JUMPDEST PUSH2 0x20C0 SWAP2 POP PUSH1 0xA0 RETURNDATASIZE DUP2 GT PUSH2 0x106E JUMPI PUSH2 0x105B DUP2 DUP4 PUSH2 0x2002 JUMP JUMPDEST POP POP POP SWAP1 POP SWAP1 JUMP JUMPDEST PUSH1 0x40 MLOAD RETURNDATASIZE PUSH1 0x0 DUP3 RETURNDATACOPY RETURNDATASIZE SWAP1 REVERT JUMPDEST SWAP1 DUP2 PUSH1 0x20 SWAP2 SUB SLT PUSH2 0x1F31 JUMPI MLOAD DUP1 ISZERO ISZERO DUP2 SUB PUSH2 0x1F31 JUMPI SWAP1 JUMP JUMPDEST PUSH8 0xFFFFFFFFFFFFFFFF DUP2 GT PUSH2 0x1FD0 JUMPI PUSH1 0x5 SHL PUSH1 0x20 ADD SWAP1 JUMP JUMPDEST DUP1 MLOAD ISZERO PUSH2 0x1F9E JUMPI PUSH1 0x20 ADD SWAP1 JUMP JUMPDEST DUP1 MLOAD PUSH1 0x1 LT ISZERO PUSH2 0x1F9E JUMPI PUSH1 0x40 ADD SWAP1 JUMP JUMPDEST DUP1 MLOAD DUP3 LT ISZERO PUSH2 0x1F9E JUMPI PUSH1 0x20 SWAP2 PUSH1 0x5 SHL ADD ADD SWAP1 JUMP JUMPDEST DUP2 DUP2 MUL SWAP3 SWAP2 DUP2 ISZERO SWAP2 DUP5 DIV EQ OR ISZERO PUSH2 0x2148 JUMPI JUMP JUMPDEST PUSH4 0x4E487B71 PUSH1 0xE0 SHL PUSH1 0x0 MSTORE PUSH1 0x11 PUSH1 0x4 MSTORE PUSH1 0x24 PUSH1 0x0 REVERT JUMPDEST DUP2 ISZERO PUSH2 0x2168 JUMPI DIV SWAP1 JUMP JUMPDEST PUSH4 0x4E487B71 PUSH1 0xE0 SHL PUSH1 0x0 MSTORE PUSH1 0x12 PUSH1 0x4 MSTORE PUSH1 0x24 PUSH1 0x0 REVERT JUMPDEST SWAP2 SWAP1 DUP3 ADD DUP1 SWAP3 GT PUSH2 0x2148 JUMPI JUMP JUMPDEST PUSH1 0x20 SWAP1 DUP2 DUP2 DUP5 SUB SLT PUSH2 0x1F31 JUMPI DUP1 MLOAD SWAP1 PUSH8 0xFFFFFFFFFFFFFFFF DUP3 GT PUSH2 0x1F31 JUMPI ADD SWAP2 DUP1 PUSH1 0x1F DUP5 ADD SLT ISZERO PUSH2 0x1F31 JUMPI DUP3 MLOAD PUSH2 0x21C1 DUP2 PUSH2 0x20EC JUMP JUMPDEST SWAP4 PUSH2 0x21CF PUSH1 0x40 MLOAD SWAP6 DUP7 PUSH2 0x2002 JUMP JUMPDEST DUP2 DUP6 MSTORE DUP4 DUP1 DUP7 ADD SWAP3 PUSH1 0x5 SHL DUP3 ADD ADD SWAP3 DUP4 GT PUSH2 0x1F31 JUMPI DUP4 ADD SWAP1 JUMPDEST DUP3 DUP3 LT PUSH2 0x21F6 JUMPI POP POP POP POP SWAP1 JUMP JUMPDEST DUP2 MLOAD DUP2 MSTORE SWAP1 DUP4 ADD SWAP1 DUP4 ADD PUSH2 0x21E8 JUMP JUMPDEST SWAP3 SWAP2 SWAP1 SWAP6 SWAP5 SWAP4 SWAP6 PUSH1 0xA0 DUP5 ADD SWAP1 DUP5 MSTORE PUSH1 0x20 SWAP2 DUP3 DUP6 ADD MSTORE PUSH1 0xA0 PUSH1 0x40 DUP6 ADD MSTORE DUP3 MLOAD DUP1 SWAP2 MSTORE DUP2 PUSH1 0xC0 DUP6 ADD SWAP4 ADD SWAP2 PUSH1 0x0 JUMPDEST DUP3 DUP2 LT PUSH2 0x2252 JUMPI POP POP POP POP SWAP1 PUSH1 0x80 SWAP2 SWAP5 PUSH1 0x1 DUP1 PUSH1 0xA0 SHL SUB AND PUSH1 0x60 DUP3 ADD MSTORE ADD MSTORE JUMP JUMPDEST DUP4 MLOAD PUSH1 0x1 PUSH1 0x1 PUSH1 0xA0 SHL SUB AND DUP6 MSTORE SWAP4 DUP2 ADD SWAP4 SWAP3 DUP2 ADD SWAP3 PUSH1 0x1 ADD PUSH2 0x2231 JUMP JUMPDEST SWAP2 SWAP1 DUP3 SUB SWAP2 DUP3 GT PUSH2 0x2148 JUMPI JUMP JUMPDEST PUSH1 0x0 NOT DUP2 EQ PUSH2 0x2148 JUMPI PUSH1 0x1 ADD SWAP1 JUMP JUMPDEST SWAP2 SWAP1 DUP2 LT ISZERO PUSH2 0x1F9E JUMPI PUSH1 0x5 SHL ADD SWAP1 JUMP JUMPDEST DUP1 SLOAD DUP3 LT ISZERO PUSH2 0x1F9E JUMPI PUSH1 0x0 MSTORE PUSH1 0x5 PUSH1 0x20 PUSH1 0x0 KECCAK256 SWAP2 MUL ADD SWAP1 PUSH1 0x0 SWAP1 JUMP JUMPDEST SWAP1 DUP1 ISZERO PUSH2 0x2357 JUMPI DUP2 ISZERO PUSH2 0x2350 JUMPI DUP2 DUP1 PUSH1 0x1 EQ PUSH2 0x2348 JUMPI PUSH1 0x2 EQ PUSH2 0x2337 JUMPI PUSH1 0x20 DUP2 LT PUSH2 0x133 DUP4 LT AND PUSH1 0x4E DUP3 LT PUSH1 0xB DUP5 LT AND OR PUSH2 0x2332 JUMPI PUSH1 0x1 SWAP1 DUP2 JUMPDEST DUP1 DUP3 GT PUSH2 0x2309 JUMPI POP POP DUP2 PUSH1 0x0 NOT DIV DUP2 GT PUSH2 0x2148 JUMPI MUL SWAP1 JUMP JUMPDEST SWAP1 SWAP3 DUP1 PUSH1 0x0 NOT DIV DUP2 GT PUSH2 0x2148 JUMPI DUP2 DUP5 AND PUSH2 0x2329 JUMPI JUMPDEST DUP1 MUL SWAP3 DUP2 SHR SWAP1 PUSH2 0x22F1 JUMP JUMPDEST DUP1 SWAP3 MUL SWAP2 PUSH2 0x231E JUMP JUMPDEST SWAP1 EXP SWAP1 JUMP JUMPDEST SWAP1 POP PUSH1 0xFF DUP2 GT PUSH2 0x2148 JUMPI PUSH1 0x1 SWAP1 SHL SWAP1 JUMP JUMPDEST POP POP POP PUSH1 0x1 SWAP1 JUMP JUMPDEST POP POP PUSH1 0x0 SWAP1 JUMP JUMPDEST POP POP PUSH1 0x1 SWAP1 JUMP JUMPDEST DUP1 SLOAD DUP3 LT ISZERO PUSH2 0x1F9E JUMPI PUSH1 0x0 MSTORE PUSH1 0x20 PUSH1 0x0 KECCAK256 SWAP1 PUSH1 0x2 SHL ADD SWAP1 PUSH1 0x0 SWAP1 JUMP JUMPDEST ISZERO PUSH2 0x2381 JUMPI JUMP JUMPDEST PUSH1 0x40 MLOAD PUSH3 0x461BCD PUSH1 0xE5 SHL DUP2 MSTORE PUSH1 0x20 PUSH1 0x4 DUP3 ADD MSTORE PUSH1 0x21 PUSH1 0x24 DUP3 ADD MSTORE PUSH32 0x4F6E6C79206F776E65722063616E2063616C6C20746869732066756E6374696F PUSH1 0x44 DUP3 ADD MSTORE PUSH1 0x37 PUSH1 0xF9 SHL PUSH1 0x64 DUP3 ADD MSTORE PUSH1 0x84 SWAP1 REVERT JUMPDEST ISZERO PUSH2 0x23D7 JUMPI JUMP JUMPDEST PUSH1 0x40 MLOAD PUSH3 0x461BCD PUSH1 0xE5 SHL DUP2 MSTORE PUSH1 0x20 PUSH1 0x4 DUP3 ADD MSTORE PUSH1 0x12 PUSH1 0x24 DUP3 ADD MSTORE PUSH18 0x4C6F616E206973206E6F7420616374697665 PUSH1 0x70 SHL PUSH1 0x44 DUP3 ADD MSTORE PUSH1 0x64 SWAP1 REVERT JUMPDEST SWAP2 SWAP1 PUSH1 0x0 SWAP1 DUP4 DUP3 MSTORE PUSH1 0x20 SWAP4 PUSH1 0x5 DUP6 MSTORE PUSH1 0x40 SWAP3 DUP4 DUP2 KECCAK256 SWAP3 DUP1 ISZERO DUP1 DUP1 ISZERO PUSH2 0x285E JUMPI JUMPDEST DUP1 ISZERO PUSH2 0x2852 JUMPI JUMPDEST PUSH2 0x2477 JUMPI PUSH4 0x5F5E100 DUP1 DUP4 MUL SWAP3 DUP4 DIV EQ OR ISZERO PUSH2 0x283E JUMPI PUSH2 0x245F PUSH1 0xD SWAP2 PUSH1 0x8 DUP7 ADD SLOAD SWAP1 PUSH2 0x215E JUMP JUMPDEST SWAP4 ADD SWAP4 DUP5 SLOAD DUP1 DUP6 GT PUSH2 0x2836 JUMPI JUMPDEST POP DUP4 ISZERO SWAP7 DUP8 ISZERO PUSH2 0x2481 JUMPI JUMPDEST POP POP POP POP POP POP SWAP1 POP JUMP JUMPDEST DUP4 DUP4 MSTORE PUSH1 0x5 DUP2 MSTORE DUP2 DUP4 KECCAK256 SWAP8 PUSH1 0xD DUP10 ADD SWAP1 DUP2 SLOAD DUP8 GT PUSH2 0x27E3 JUMPI PUSH2 0x27A0 JUMPI PUSH1 0x1 DUP1 PUSH1 0xA0 SHL SUB SWAP1 DUP2 PUSH1 0x2 SLOAD AND SWAP10 DUP11 SWAP3 DUP6 MLOAD SWAP3 DUP4 PUSH4 0x70A08231 PUSH1 0xE0 SHL DUP1 DUP3 MSTORE DUP8 DUP3 PUSH1 0x4 SWAP9 ADDRESS DUP11 DUP4 ADD MSTORE PUSH1 0x24 SWAP9 DUP10 SWAP2 GAS STATICCALL SWAP2 DUP3 ISZERO PUSH2 0x2736 JUMPI DUP11 SWAP3 PUSH2 0x276F JUMPI JUMPDEST POP DUP8 DUP13 SWAP14 SWAP15 SWAP16 DUP6 DUP13 SWAP15 SWAP14 SWAP15 SLOAD AND SWAP7 PUSH1 0x1 ADD SWAP7 DUP7 DUP9 SLOAD AND DUP13 MLOAD SWAP15 DUP16 SWAP4 PUSH4 0x1A4CA37B PUSH1 0xE2 SHL DUP6 MSTORE DUP13 DUP6 ADD MSTORE DUP11 DUP5 ADD MSTORE PUSH1 0x44 DUP4 ADD MSTORE DUP2 DUP14 GAS SWAP3 PUSH1 0x64 SWAP4 CALL SWAP11 DUP12 ISZERO PUSH2 0x2736 JUMPI DUP11 SWAP12 PUSH2 0x2740 JUMPI JUMPDEST POP DUP8 DUP5 PUSH1 0x2 SLOAD AND SWAP2 DUP8 DUP12 MLOAD DUP1 SWAP5 DUP2 SWAP4 DUP3 MSTORE ADDRESS DUP13 DUP4 ADD MSTORE GAS STATICCALL SWAP1 DUP2 ISZERO PUSH2 0x2736 JUMPI DUP11 SWAP2 PUSH2 0x2705 JUMPI JUMPDEST POP GT ISZERO PUSH2 0x26B8 JUMPI DUP9 ISZERO PUSH2 0x2676 JUMPI PUSH2 0x25A3 SWAP3 DUP7 SWAP3 DUP3 PUSH2 0x2569 DUP13 DUP1 SWAP6 SLOAD PUSH2 0x226F JUMP JUMPDEST SWAP1 SSTORE DUP1 PUSH1 0x2 SLOAD AND SWAP2 SLOAD AND DUP10 DUP10 MLOAD DUP1 SWAP7 DUP2 SWAP6 DUP3 SWAP5 PUSH4 0xA9059CBB PUSH1 0xE0 SHL DUP5 MSTORE DUP12 DUP5 ADD PUSH1 0x20 SWAP1 SWAP4 SWAP3 SWAP2 SWAP4 PUSH1 0x40 DUP2 ADD SWAP5 PUSH1 0x1 DUP1 PUSH1 0xA0 SHL SUB AND DUP2 MSTORE ADD MSTORE JUMP JUMPDEST SUB SWAP3 GAS CALL SWAP1 DUP2 ISZERO PUSH2 0x266C JUMPI DUP7 SWAP2 PUSH2 0x264F JUMPI JUMPDEST POP ISZERO PUSH2 0x260F JUMPI POP POP DUP2 MLOAD SWAP5 DUP6 MSTORE DUP5 ADD DUP6 SWAP1 MSTORE DUP4 ADD MSTORE PUSH1 0x60 DUP3 ADD MSTORE PUSH2 0x2601 SWAP2 SWAP1 PUSH32 0x38A556A122683CB48D496614A7A03605B6C2C0482342924CAF483386980ECC9F SWAP1 PUSH1 0x80 SWAP1 LOG1 DUP3 SLOAD PUSH2 0x226F JUMP JUMPDEST SWAP1 SSTORE DUP1 CODESIZE DUP1 DUP1 DUP1 DUP1 DUP1 PUSH2 0x2477 JUMP JUMPDEST PUSH1 0x1B SWAP2 SWAP3 PUSH1 0x64 SWAP5 MLOAD SWAP4 PUSH3 0x461BCD PUSH1 0xE5 SHL DUP6 MSTORE DUP5 ADD MSTORE DUP3 ADD MSTORE PUSH32 0x5472616E7366657220746F20626F72726F776572206661696C65640000000000 PUSH1 0x44 DUP3 ADD MSTORE REVERT JUMPDEST PUSH2 0x2666 SWAP2 POP DUP5 RETURNDATASIZE DUP7 GT PUSH2 0x6A5 JUMPI PUSH2 0x696 DUP2 DUP4 PUSH2 0x2002 JUMP JUMPDEST CODESIZE PUSH2 0x25B5 JUMP JUMPDEST DUP6 MLOAD RETURNDATASIZE DUP9 DUP3 RETURNDATACOPY RETURNDATASIZE SWAP1 REVERT JUMPDEST DUP7 MLOAD PUSH3 0x461BCD PUSH1 0xE5 SHL DUP2 MSTORE DUP1 DUP7 ADD DUP8 SWAP1 MSTORE PUSH1 0x1C DUP2 DUP7 ADD MSTORE PUSH32 0x556E7374616B652072657475726E6564207A65726F20746F6B656E7300000000 PUSH1 0x44 DUP3 ADD MSTORE PUSH1 0x64 SWAP1 REVERT JUMPDEST DUP7 MLOAD PUSH3 0x461BCD PUSH1 0xE5 SHL DUP2 MSTORE DUP1 DUP7 ADD DUP8 SWAP1 MSTORE PUSH1 0x22 DUP2 DUP7 ADD MSTORE PUSH32 0x5769746864726177616C206469646E277420696E6372656173652062616C616E PUSH1 0x44 DUP3 ADD MSTORE PUSH2 0x6365 PUSH1 0xF0 SHL PUSH1 0x64 DUP3 ADD MSTORE PUSH1 0x84 SWAP1 REVERT JUMPDEST SWAP1 POP DUP8 DUP2 DUP2 RETURNDATASIZE DUP4 GT PUSH2 0x272F JUMPI JUMPDEST PUSH2 0x271C DUP2 DUP4 PUSH2 0x2002 JUMP JUMPDEST DUP2 ADD SUB SLT PUSH2 0x272B JUMPI MLOAD CODESIZE PUSH2 0x2549 JUMP JUMPDEST DUP10 DUP1 REVERT JUMPDEST POP RETURNDATASIZE PUSH2 0x2712 JUMP JUMPDEST DUP10 MLOAD RETURNDATASIZE DUP13 DUP3 RETURNDATACOPY RETURNDATASIZE SWAP1 REVERT JUMPDEST SWAP1 SWAP11 POP DUP8 DUP2 DUP2 RETURNDATASIZE DUP4 GT PUSH2 0x2768 JUMPI JUMPDEST PUSH2 0x2758 DUP2 DUP4 PUSH2 0x2002 JUMP JUMPDEST DUP2 ADD SUB SLT PUSH2 0x272B JUMPI MLOAD SWAP10 CODESIZE PUSH2 0x2523 JUMP JUMPDEST POP RETURNDATASIZE PUSH2 0x274E JUMP JUMPDEST SWAP15 SWAP2 POP DUP8 DUP16 DUP2 RETURNDATASIZE DUP4 GT PUSH2 0x2799 JUMPI JUMPDEST PUSH2 0x2787 DUP2 DUP4 PUSH2 0x2002 JUMP JUMPDEST DUP2 ADD SUB SLT PUSH2 0x272B JUMPI SWAP14 MLOAD SWAP1 SWAP14 DUP8 PUSH2 0x24DB JUMP JUMPDEST POP RETURNDATASIZE PUSH2 0x277D JUMP JUMPDEST POP PUSH1 0x64 SWAP2 MLOAD SWAP1 PUSH3 0x461BCD PUSH1 0xE5 SHL DUP3 MSTORE PUSH1 0x4 DUP3 ADD MSTORE PUSH1 0x1A PUSH1 0x24 DUP3 ADD MSTORE PUSH32 0x43616E6E6F7420756E7374616B65207A65726F20616D6F756E74000000000000 PUSH1 0x44 DUP3 ADD MSTORE REVERT JUMPDEST DUP4 MLOAD PUSH3 0x461BCD PUSH1 0xE5 SHL DUP2 MSTORE PUSH1 0x4 DUP2 ADD DUP5 SWAP1 MSTORE PUSH1 0x26 PUSH1 0x24 DUP3 ADD MSTORE PUSH32 0x43616E6E6F7420756E7374616B65206D6F7265207468616E207374616B656420 PUSH1 0x44 DUP3 ADD MSTORE PUSH6 0x185B5BDD5B9D PUSH1 0xD2 SHL PUSH1 0x64 DUP3 ADD MSTORE PUSH1 0x84 SWAP1 REVERT JUMPDEST SWAP4 POP CODESIZE PUSH2 0x246C JUMP JUMPDEST PUSH4 0x4E487B71 PUSH1 0xE0 SHL DUP3 MSTORE PUSH1 0x11 PUSH1 0x4 MSTORE PUSH1 0x24 DUP3 REVERT JUMPDEST POP PUSH1 0xD DUP6 ADD SLOAD ISZERO PUSH2 0x2438 JUMP JUMPDEST POP PUSH1 0x8 DUP6 ADD SLOAD ISZERO PUSH2 0x2431 JUMP JUMPDEST SWAP1 PUSH1 0x0 SWAP1 DUP3 DUP3 MSTORE PUSH1 0x20 SWAP1 PUSH1 0x5 DUP3 MSTORE PUSH1 0x40 SWAP1 DUP2 DUP5 KECCAK256 PUSH1 0xD DUP2 ADD SWAP1 DUP2 SLOAD DUP4 GT PUSH2 0x2C76 JUMPI DUP3 ISZERO PUSH2 0x2C32 JUMPI PUSH1 0x1 DUP1 PUSH1 0xA0 SHL SUB SWAP2 DUP3 PUSH1 0x2 SLOAD AND SWAP1 DUP6 MLOAD PUSH4 0x70A08231 PUSH1 0xE0 SHL DUP1 DUP3 MSTORE PUSH1 0x4 SWAP4 ADDRESS DUP6 DUP5 ADD MSTORE PUSH1 0x24 SWAP6 DUP11 DUP5 DUP9 DUP2 DUP6 GAS STATICCALL SWAP4 DUP5 ISZERO PUSH2 0x2C28 JUMPI DUP11 SWAP8 SWAP7 SWAP6 SWAP5 SWAP4 SWAP3 DUP14 DUP14 SWAP4 DUP13 SWAP4 DUP3 SWAP8 PUSH2 0x2BDE JUMPI JUMPDEST POP SWAP1 PUSH1 0x64 SWAP3 SWAP2 DUP13 PUSH1 0x1 DUP2 DUP5 SLOAD AND SWAP3 ADD SLOAD AND SWAP12 MLOAD SWAP12 DUP13 SWAP6 DUP7 SWAP5 PUSH4 0x1A4CA37B PUSH1 0xE2 SHL DUP7 MSTORE DUP13 DUP7 ADD MSTORE DUP13 DUP6 ADD MSTORE PUSH1 0x44 DUP5 ADD MSTORE GAS CALL SWAP6 DUP7 ISZERO PUSH2 0x2BA5 JUMPI DUP12 SWAP7 PUSH2 0x2BAF JUMPI JUMPDEST POP DUP10 DUP8 PUSH1 0x2 SLOAD AND SWAP2 DUP7 DUP12 MLOAD DUP1 SWAP5 DUP2 SWAP4 DUP3 MSTORE ADDRESS DUP10 DUP4 ADD MSTORE GAS STATICCALL SWAP1 DUP2 ISZERO PUSH2 0x2BA5 JUMPI DUP12 SWAP2 PUSH2 0x2B78 JUMPI JUMPDEST POP GT ISZERO PUSH2 0x2B2C JUMPI DUP4 ISZERO PUSH2 0x2AEB JUMPI PUSH2 0x2955 DUP5 DUP3 SLOAD PUSH2 0x226F JUMP JUMPDEST SWAP1 SSTORE PUSH1 0x2 SLOAD PUSH1 0x1 SLOAD DUP8 MLOAD PUSH4 0x95EA7B3 PUSH1 0xE0 SHL DUP2 MSTORE SWAP1 DUP7 AND PUSH1 0x1 PUSH1 0x1 PUSH1 0xA0 SHL SUB AND DUP4 DUP3 ADD SWAP1 DUP2 MSTORE PUSH1 0x20 DUP2 ADD DUP7 SWAP1 MSTORE SWAP1 SWAP2 DUP10 SWAP2 DUP4 SWAP2 DUP9 AND SWAP1 DUP3 SWAP1 DUP14 SWAP1 DUP3 SWAP1 PUSH1 0x40 ADD SUB SWAP3 GAS CALL DUP1 ISZERO PUSH2 0x2AE1 JUMPI PUSH2 0x2AC4 JUMPI JUMPDEST POP DUP6 MLOAD SWAP3 PUSH2 0x29B0 DUP5 PUSH2 0x1FE6 JUMP JUMPDEST PUSH1 0x2 DUP5 MSTORE DUP7 CALLDATASIZE DUP10 DUP7 ADD CALLDATACOPY DUP5 PUSH1 0x2 SLOAD AND PUSH2 0x29C8 DUP6 PUSH2 0x2104 JUMP JUMPDEST MSTORE DUP5 PUSH1 0x9 SLOAD AND PUSH2 0x29D7 DUP6 PUSH2 0x2111 JUMP JUMPDEST MSTORE PUSH1 0x5F DUP2 MUL SWAP5 DUP2 DUP7 DIV PUSH1 0x5F SUB PUSH2 0x2AB2 JUMPI PUSH1 0x1 SLOAD AND SWAP3 PUSH2 0x12C TIMESTAMP ADD SWAP1 DUP2 TIMESTAMP GT PUSH2 0x2AA1 JUMPI POP DUP10 SWAP5 SWAP4 SWAP3 SWAP2 PUSH2 0x2A24 DUP7 SWAP3 DUP11 MLOAD SWAP9 DUP10 SWAP8 DUP9 SWAP7 DUP8 SWAP6 PUSH4 0x38ED1739 PUSH1 0xE0 SHL DUP8 MSTORE PUSH1 0x64 ADDRESS SWAP5 DIV SWAP2 DUP8 ADD PUSH2 0x2205 JUMP JUMPDEST SUB SWAP3 GAS CALL SWAP1 DUP2 ISZERO PUSH2 0x2A97 JUMPI SWAP2 PUSH2 0x2A68 DUP7 SWAP5 SWAP3 PUSH32 0x38A556A122683CB48D496614A7A03605B6C2C0482342924CAF483386980ECC9F SWAP9 SWAP7 SWAP5 PUSH1 0x80 SWAP9 SWAP2 PUSH2 0x2A7D JUMPI POP PUSH2 0x2111 JUMP JUMPDEST MLOAD SWAP3 DUP3 MLOAD SWAP6 DUP7 MSTORE DUP6 ADD MSTORE DUP4 ADD MSTORE PUSH1 0x60 DUP3 ADD MSTORE LOG1 JUMP JUMPDEST PUSH2 0x2A91 SWAP2 POP RETURNDATASIZE DUP1 DUP9 DUP4 RETURNDATACOPY PUSH2 0xFCB DUP2 DUP4 PUSH2 0x2002 JUMP JUMPDEST CODESIZE PUSH2 0xE24 JUMP JUMPDEST DUP4 MLOAD RETURNDATASIZE DUP8 DUP3 RETURNDATACOPY RETURNDATASIZE SWAP1 REVERT JUMPDEST PUSH4 0x4E487B71 PUSH1 0xE0 SHL DUP12 MSTORE PUSH1 0x11 DUP5 MSTORE DUP11 REVERT JUMPDEST PUSH4 0x4E487B71 PUSH1 0xE0 SHL DUP11 MSTORE PUSH1 0x11 DUP4 MSTORE DUP4 DUP11 REVERT JUMPDEST PUSH2 0x2ADA SWAP1 DUP9 RETURNDATASIZE DUP11 GT PUSH2 0x6A5 JUMPI PUSH2 0x696 DUP2 DUP4 PUSH2 0x2002 JUMP JUMPDEST POP CODESIZE PUSH2 0x29A3 JUMP JUMPDEST DUP8 MLOAD RETURNDATASIZE DUP12 DUP3 RETURNDATACOPY RETURNDATASIZE SWAP1 REVERT JUMPDEST POP PUSH1 0x1C PUSH1 0x64 SWAP3 DUP9 DUP9 MLOAD SWAP4 PUSH3 0x461BCD PUSH1 0xE5 SHL DUP6 MSTORE DUP5 ADD MSTORE DUP3 ADD MSTORE PUSH32 0x556E7374616B652072657475726E6564207A65726F20746F6B656E7300000000 PUSH1 0x44 DUP3 ADD MSTORE REVERT JUMPDEST POP PUSH1 0x22 PUSH1 0x84 SWAP3 DUP9 DUP9 MLOAD SWAP4 PUSH3 0x461BCD PUSH1 0xE5 SHL DUP6 MSTORE DUP5 ADD MSTORE DUP3 ADD MSTORE PUSH32 0x5769746864726177616C206469646E277420696E6372656173652062616C616E PUSH1 0x44 DUP3 ADD MSTORE PUSH2 0x6365 PUSH1 0xF0 SHL PUSH1 0x64 DUP3 ADD MSTORE REVERT JUMPDEST SWAP1 POP DUP10 DUP2 DUP2 RETURNDATASIZE DUP4 GT PUSH2 0x2B9E JUMPI JUMPDEST PUSH2 0x2B8F DUP2 DUP4 PUSH2 0x2002 JUMP JUMPDEST DUP2 ADD SUB SLT PUSH2 0x14F5 JUMPI MLOAD CODESIZE PUSH2 0x293D JUMP JUMPDEST POP RETURNDATASIZE PUSH2 0x2B85 JUMP JUMPDEST DUP10 MLOAD RETURNDATASIZE DUP14 DUP3 RETURNDATACOPY RETURNDATASIZE SWAP1 REVERT JUMPDEST SWAP1 SWAP6 POP DUP10 DUP2 DUP2 RETURNDATASIZE DUP4 GT PUSH2 0x2BD7 JUMPI JUMPDEST PUSH2 0x2BC7 DUP2 DUP4 PUSH2 0x2002 JUMP JUMPDEST DUP2 ADD SUB SLT PUSH2 0x14F5 JUMPI MLOAD SWAP5 CODESIZE PUSH2 0x2917 JUMP JUMPDEST POP RETURNDATASIZE PUSH2 0x2BBD JUMP JUMPDEST SWAP5 SWAP4 POP SWAP7 SWAP8 SWAP9 SWAP10 POP POP SWAP3 SWAP4 POP DUP2 DUP2 RETURNDATASIZE DUP4 GT PUSH2 0x2C21 JUMPI JUMPDEST PUSH2 0x2BFE DUP2 DUP4 PUSH2 0x2002 JUMP JUMPDEST DUP2 ADD SUB SLT PUSH2 0x2C1D JUMPI DUP9 PUSH1 0x64 DUP12 SWAP9 SWAP8 SWAP7 SWAP6 SWAP5 SWAP4 DUP15 DUP15 SWAP5 MLOAD SWAP7 SWAP1 SWAP2 SWAP3 PUSH2 0x28D8 JUMP JUMPDEST DUP12 DUP1 REVERT JUMPDEST POP RETURNDATASIZE PUSH2 0x2BF4 JUMP JUMPDEST DUP11 MLOAD RETURNDATASIZE DUP15 DUP3 RETURNDATACOPY RETURNDATASIZE SWAP1 REVERT JUMPDEST DUP4 MLOAD PUSH3 0x461BCD PUSH1 0xE5 SHL DUP2 MSTORE PUSH1 0x4 DUP2 ADD DUP7 SWAP1 MSTORE PUSH1 0x1A PUSH1 0x24 DUP3 ADD MSTORE PUSH32 0x43616E6E6F7420756E7374616B65207A65726F20616D6F756E74000000000000 PUSH1 0x44 DUP3 ADD MSTORE PUSH1 0x64 SWAP1 REVERT JUMPDEST DUP4 MLOAD PUSH3 0x461BCD PUSH1 0xE5 SHL DUP2 MSTORE PUSH1 0x4 DUP2 ADD DUP7 SWAP1 MSTORE PUSH1 0x26 PUSH1 0x24 DUP3 ADD MSTORE PUSH32 0x43616E6E6F7420756E7374616B65206D6F7265207468616E207374616B656420 PUSH1 0x44 DUP3 ADD MSTORE PUSH6 0x185B5BDD5B9D PUSH1 0xD2 SHL PUSH1 0x64 DUP3 ADD MSTORE PUSH1 0x84 SWAP1 REVERT JUMPDEST PUSH1 0x0 SWAP1 DUP2 MSTORE PUSH1 0x5 PUSH1 0x20 MSTORE PUSH1 0x40 DUP2 KECCAK256 PUSH1 0x2 DUP2 ADD SLOAD SWAP1 SWAP4 SWAP3 DUP2 ISZERO PUSH2 0x2D33 JUMPI PUSH8 0xDE0B6B3A7640000 SWAP3 DUP4 DUP3 MUL SWAP2 DUP1 DUP4 DIV DUP6 EQ SWAP1 ISZERO OR ISZERO PUSH2 0x2D1F JUMPI POP SWAP4 PUSH2 0x2D11 PUSH2 0x2D1B SWAP3 PUSH1 0xD SWAP7 PUSH2 0x215E JUMP JUMPDEST SWAP5 DUP6 SWAP2 ADD SLOAD PUSH2 0x2135 JUMP JUMPDEST DIV SWAP1 JUMP JUMPDEST PUSH4 0x4E487B71 PUSH1 0xE0 SHL DUP2 MSTORE PUSH1 0x11 PUSH1 0x4 MSTORE PUSH1 0x24 SWAP1 REVERT JUMPDEST POP POP DUP1 SWAP3 POP SWAP2 SWAP1 JUMP JUMPDEST SWAP1 PUSH2 0x2D46 DUP3 PUSH2 0x20EC JUMP JUMPDEST PUSH2 0x2D53 PUSH1 0x40 MLOAD SWAP2 DUP3 PUSH2 0x2002 JUMP JUMPDEST DUP3 DUP2 MSTORE DUP1 SWAP3 PUSH2 0x2D64 PUSH1 0x1F NOT SWAP2 PUSH2 0x20EC JUMP JUMPDEST ADD SWAP1 PUSH1 0x20 CALLDATASIZE SWAP2 ADD CALLDATACOPY JUMP INVALID LOG2 PUSH5 0x6970667358 0x22 SLT KECCAK256 0x4C 0xBC 0xB9 PUSH5 0x7F5520DC2D 0x4B 0xC5 0xD4 LOG3 PUSH23 0x3FE46BA94F13EBA69918996DA9EF024309C564736F6C63 NUMBER STOP ADDMOD EQ STOP CALLER "},"methodIdentifiers":{"aavePool()":"a03e4bc3","cbBtcToken()":"0e462386","chainlinkOracle()":"ef06e72c","debugUnstakeCalc(bytes32,uint256)":"5206d2d0","getAmortizationSchedule(bytes32)":"1fc8f4df","getInstallmentSchedule(bytes32)":"6c1945ae","getPrice()":"98d5fdca","getStakedAmount(bytes32)":"337a1737","hasActiveLoan(address)":"21d4f8db","lenders(address)":"28fd10d7","liquidate(bytes32)":"0a71096e","liquidateIfOverdue(bytes32)":"28830d47","loan(uint256,uint256,uint256,address[],uint256[])":"66fb6e5a","loanIds(uint256)":"f8715a42","loans(bytes32)":"c4a90815","markInstallmentPaid(bytes32,uint256)":"c9642d2a","owner()":"8da5cb5b","payouts(bytes32,uint256)":"80f2122c","setAavePool(address)":"349f937c","setCbBtcToken(address)":"83cd8fcf","setChainlinkOracle(address)":"7a9b0412","setSwapRouter(address)":"41273657","swapRouter()":"c31c9c07","usdcToken()":"11eac855"}}}}}