{"Contracts/Lending.sol":{"LendingPool":{"abi":[{"inputs":[{"internalType":"address","name":"usdc","type":"address"},{"internalType":"address","name":"_cbBtcToken","type":"address"},{"internalType":"address","name":"oracleAddress","type":"address"},{"internalType":"address","name":"_aavePool","type":"address"},{"internalType":"address","name":"_swapRouter","type":"address"}],"stateMutability":"nonpayable","type":"constructor"},{"anonymous":false,"inputs":[{"indexed":false,"internalType":"bytes32","name":"loanId","type":"bytes32"},{"indexed":false,"internalType":"uint256","name":"index","type":"uint256"}],"name":"InstallmentPaid","type":"event"},{"anonymous":false,"inputs":[{"indexed":false,"internalType":"bytes32","name":"id","type":"bytes32"},{"indexed":false,"internalType":"uint256","name":"amount","type":"uint256"},{"indexed":false,"internalType":"uint256","name":"collateral","type":"uint256"},{"indexed":false,"internalType":"address","name":"borrower","type":"address"}],"name":"LoanCreated","type":"event"},{"anonymous":false,"inputs":[{"indexed":false,"internalType":"bytes32","name":"id","type":"bytes32"},{"indexed":false,"internalType":"address","name":"borrower","type":"address"},{"indexed":false,"internalType":"uint256","name":"btcPriceNow","type":"uint256"}],"name":"LoanLiquidated","type":"event"},{"anonymous":false,"inputs":[{"indexed":false,"internalType":"bytes32","name":"loanId","type":"bytes32"},{"indexed":false,"internalType":"address","name":"borrower","type":"address"},{"indexed":false,"internalType":"uint256","name":"amount","type":"uint256"},{"indexed":false,"internalType":"bool","name":"fullyRepaid","type":"bool"}],"name":"Payout","type":"event"},{"anonymous":false,"inputs":[{"indexed":false,"internalType":"bytes32","name":"loanId","type":"bytes32"},{"indexed":false,"internalType":"uint256","name":"usdcAmount","type":"uint256"},{"indexed":false,"internalType":"uint256","name":"cbBtcAmount","type":"uint256"}],"name":"TokensStaked","type":"event"},{"anonymous":false,"inputs":[{"indexed":false,"internalType":"bytes32","name":"loanId","type":"bytes32"},{"indexed":false,"internalType":"uint256","name":"cbBtcAmount","type":"uint256"},{"indexed":false,"internalType":"uint256","name":"usdcAmount","type":"uint256"},{"indexed":false,"internalType":"uint256","name":"borrowerCbBtcShare","type":"uint256"}],"name":"TokensUnstaked","type":"event"},{"inputs":[],"name":"aavePool","outputs":[{"internalType":"contract IAavePool","name":"","type":"address"}],"stateMutability":"view","type":"function"},{"inputs":[],"name":"cbBtcToken","outputs":[{"internalType":"address","name":"","type":"address"}],"stateMutability":"view","type":"function"},{"inputs":[],"name":"chainlinkOracle","outputs":[{"internalType":"contract AggregatorV3Interface","name":"","type":"address"}],"stateMutability":"view","type":"function"},{"inputs":[{"internalType":"bytes32","name":"loanId","type":"bytes32"}],"name":"getInstallmentSchedule","outputs":[{"components":[{"internalType":"uint256","name":"duePrincipal","type":"uint256"},{"internalType":"uint256","name":"dueInterest","type":"uint256"},{"internalType":"bool","name":"paid","type":"bool"},{"internalType":"uint256","name":"dueTimestamp","type":"uint256"}],"internalType":"struct LendingPool.Installment[]","name":"","type":"tuple[]"}],"stateMutability":"view","type":"function"},{"inputs":[],"name":"getPrice","outputs":[{"internalType":"int256","name":"","type":"int256"}],"stateMutability":"view","type":"function"},{"inputs":[{"internalType":"address","name":"","type":"address"}],"name":"hasActiveLoan","outputs":[{"internalType":"bool","name":"","type":"bool"}],"stateMutability":"view","type":"function"},{"inputs":[{"internalType":"address","name":"","type":"address"}],"name":"lenders","outputs":[{"internalType":"uint256","name":"totalContributed","type":"uint256"}],"stateMutability":"view","type":"function"},{"inputs":[{"internalType":"bytes32","name":"loanId","type":"bytes32"}],"name":"liquidate","outputs":[],"stateMutability":"nonpayable","type":"function"},{"inputs":[{"internalType":"bytes32","name":"loanId","type":"bytes32"}],"name":"liquidateIfOverdue","outputs":[],"stateMutability":"nonpayable","type":"function"},{"inputs":[{"internalType":"uint256","name":"totalAmount","type":"uint256"},{"internalType":"uint256","name":"durationMonths","type":"uint256"},{"internalType":"uint256","name":"annualInterestRate","type":"uint256"},{"internalType":"address[]","name":"lenderAddresses","type":"address[]"},{"internalType":"uint256[]","name":"lenderAmounts","type":"uint256[]"}],"name":"loan","outputs":[],"stateMutability":"nonpayable","type":"function"},{"inputs":[{"internalType":"uint256","name":"","type":"uint256"}],"name":"loanIds","outputs":[{"internalType":"bytes32","name":"","type":"bytes32"}],"stateMutability":"view","type":"function"},{"inputs":[{"internalType":"bytes32","name":"","type":"bytes32"}],"name":"loans","outputs":[{"internalType":"bytes32","name":"id","type":"bytes32"},{"internalType":"address","name":"borrower","type":"address"},{"internalType":"uint256","name":"principal","type":"uint256"},{"internalType":"uint256","name":"borrowerDeposit","type":"uint256"},{"internalType":"uint256","name":"interestRate","type":"uint256"},{"internalType":"uint256","name":"duration","type":"uint256"},{"internalType":"uint256","name":"monthlyPayment","type":"uint256"},{"internalType":"uint256","name":"startTime","type":"uint256"},{"internalType":"uint256","name":"btcPriceAtCreation","type":"uint256"},{"internalType":"bool","name":"isActive","type":"bool"},{"internalType":"uint256","name":"stakedAmount","type":"uint256"},{"internalType":"uint256","name":"remainingPrincipal","type":"uint256"}],"stateMutability":"view","type":"function"},{"inputs":[{"internalType":"bytes32","name":"loanId","type":"bytes32"},{"internalType":"uint256","name":"index","type":"uint256"}],"name":"markInstallmentPaid","outputs":[],"stateMutability":"nonpayable","type":"function"},{"inputs":[],"name":"owner","outputs":[{"internalType":"address","name":"","type":"address"}],"stateMutability":"view","type":"function"},{"inputs":[{"internalType":"bytes32","name":"loanId","type":"bytes32"},{"internalType":"uint256","name":"usdcAmount","type":"uint256"}],"name":"payouts","outputs":[],"stateMutability":"nonpayable","type":"function"},{"inputs":[{"internalType":"address","name":"_aavePool","type":"address"}],"name":"setAavePool","outputs":[],"stateMutability":"nonpayable","type":"function"},{"inputs":[{"internalType":"address","name":"_cbBtcToken","type":"address"}],"name":"setCbBtcToken","outputs":[],"stateMutability":"nonpayable","type":"function"},{"inputs":[{"internalType":"address","name":"oracleAddress","type":"address"}],"name":"setChainlinkOracle","outputs":[],"stateMutability":"nonpayable","type":"function"},{"inputs":[{"internalType":"address","name":"_swapRouter","type":"address"}],"name":"setSwapRouter","outputs":[],"stateMutability":"nonpayable","type":"function"},{"inputs":[],"name":"swapRouter","outputs":[{"internalType":"contract ISwapRouter","name":"","type":"address"}],"stateMutability":"view","type":"function"},{"inputs":[],"name":"usdcToken","outputs":[{"internalType":"address","name":"","type":"address"}],"stateMutability":"view","type":"function"}],"evm":{"bytecode":{"linkReferences":{},"object":"608034620000ec57601f6200280038819003918201601f19168301916001600160401b03831184841017620000f15780849260a094604052833981010312620000ec576200004d8162000107565b906200005c6020820162000107565b906200006b6040820162000107565b91620000886080620000806060850162000107565b930162000107565b9160018060a01b0319943386600854161760085560018060a01b039485809481809416896009541617600955168760025416176002551685600354161760035516836000541617600055169060015416176001556040516126e390816200011d8239f35b600080fd5b634e487b7160e01b600052604160045260246000fd5b51906001600160a01b0382168203620000ec5756fe6080604052600436101561001257600080fd5b6000803560e01c80630a71096e14611cbc5780630e46238614611c9357806311eac85514611c6a57806321d4f8db14611c2857806328830d471461194257806328fd10d714611905578063349f937c146118bc578063412736571461186f57806366fb6e5a14610d025780636c1945ae14610c015780637a9b041214610bb457806380f2122c1461044157806383cd8fcf146103f05780638da5cb5b146103c757806398d5fdca146103a4578063a03e4bc31461037d578063c31c9c0714610354578063c4a90815146102a1578063c9642d2a14610168578063ef06e72c1461013f5763f8715a421461010457600080fd5b3461013c57602036600319011261013c576004359060075482101561013c57602061012e83611f9f565b90546040519160031b1c8152f35b80fd5b503461013c578060031936011261013c576003546040516001600160a01b039091168152602090f35b503461013c5761017736611f89565b9061018d60018060a01b03600854163314612370565b8083526005602052600b604084206101ab60ff6009830154166123c6565b0190815483101561025c5760ff60026101c48585612354565b50015416610217578260026101fc7f3d05ac2057427ac2f84502e7efefebf5ae10d9529129c2979ce60fb97d46061495604095612354565b5001805460ff1916600117905582519182526020820152a180f35b60405162461bcd60e51b815260206004820152601f60248201527f496e7374616c6c6d656e7420616c7265616479206d61726b65642070616964006044820152606490fd5b60405162461bcd60e51b815260206004820152601960248201527f496e76616c696420696e7374616c6c6d656e7420696e646578000000000000006044820152606490fd5b503461013c57602036600319011261013c57604061018091600435815260056020522080549060018060a01b0360018201541690600281015460038201546004830154600584015460068501549060078601549260088701549460ff60098901541696600d600c8a0154990154996040519b8c5260208c015260408b015260608a0152608089015260a088015260c087015260e08601526101008501521515610120840152610140830152610160820152f35b503461013c578060031936011261013c576001546040516001600160a01b039091168152602090f35b503461013c578060031936011261013c57546040516001600160a01b039091168152602090f35b503461013c578060031936011261013c5760206103bf612073565b604051908152f35b503461013c578060031936011261013c576008546040516001600160a01b039091168152602090f35b503461013c57602036600319011261013c576004356001600160a01b038181169182900361043d5761042790600854163314612370565b6001600160601b0360a01b600254161760025580f35b8280fd5b503461013c5761045036611f89565b81835260056020526040832061046c60ff6009830154166123c6565b60018101546001600160a01b03163303610b6f576009546040516323b872dd60e01b815233600482015230602482015260448101849052906020908290606490829089906001600160a01b03165af18015610b6457610b45575b5060088101548015610b0c57670de0b6b3a76400008302838104670de0b6b3a76400001484151715610ad857906104fc91612154565b8491855b600b820154811080610b03575b15610af95761051f81600b8401612354565b5094600286015460ff8116610aec578654946001880154976105418988612174565b9283831061070a57928792610565926002600161056b9760ff191617910155612265565b96612174565b94600284015495895b600a8601548110156106c35761058d81600a8801612291565b50600181015480670de0b6b3a7640000810204670de0b6b3a764000014811517156106af578c61065693928c610626670de0b6b3a76400006105eb8f8f906105e46105dd85928360209c02612154565b8093612141565b0494612141565b04600384016105fb848254612174565b90556004840161060c828254612174565b905560095493546001600160a01b03948516941692612174565b60405163a9059cbb60e01b81526001600160a01b0390921660048301526024820152948592839182906044820190565b03925af19182156106a45761067092610675575b50612272565b610574565b6106969060203d60201161069d575b61068e818361203a565b8101906120f4565b503861066a565b503d610684565b6040513d8e823e3d90fd5b634e487b7160e01b8d52601160045260248dfd5b50955095509250610702907f3d05ac2057427ac2f84502e7efefebf5ae10d9529129c2979ce60fb97d46061460408051898152836020820152a1612272565b939193610500565b505050509392505092505b600d8301610724828254612265565b90558015908115610810575b505060019184600b820154905b8181106107da575b5050917fdc376abd09229a842ac7d8bcadc9017651f1f1b8490750870cae0ecd4aedf674939160809382610791575b50604051928352336020840152604083015215156060820152a180f35b60098101805460ff1990811690915560018201546001600160a01b0316885260066020526040882080549091169055600c01548015610774576107d49084612407565b38610774565b60ff60026107eb83600b8701612354565b5001541615610802576107fd90612272565b61073d565b508593508290506080610745565b84865260056020526040862091670de0b6b3a76400008202918204670de0b6b3a7640000141715610ad85781600c610859610861936002670de0b6b3a764000096015490612154565b910154612141565b04806108cf575b508284526005602052604084208485600a83018054905b8183106108a357505050610899600d916002840154612265565b9101553880610730565b9091926108c26108c89160036108b98786612291565b50015490612174565b93612272565b919061087f565b836000526005602052604060002090600c820180548211610a845760008054600254604051631a4ca37b60e21b81526001600160a01b03918216600482015260248101959095523060448601526020928592606492849291165af1918215610a2e57600092610a50575b50610945828254612265565b9055601981029080820460191481151715610a3a5760646109b4920460208161096e8185612265565b60025460019097015460405163a9059cbb60e01b81526001600160a01b039182166004820152602481019390935290969195869290911690829060009082906044820190565b03925af18015610a2e577f38a556a122683cb48d496614a7a03605b6c2c0482342924caf483386980ecc9f946080946109f292610a0f575b50612556565b60405192888452602084015260408301526060820152a138610868565b610a279060203d60201161069d5761068e818361203a565b50386109ec565b6040513d6000823e3d90fd5b634e487b7160e01b600052601160045260246000fd5b90916020823d602011610a7c575b81610a6b6020938361203a565b8101031261013c5750519038610939565b3d9150610a5e565b60405162461bcd60e51b815260206004820152602660248201527f43616e6e6f7420756e7374616b65206d6f7265207468616e207374616b656420604482015265185b5bdd5b9d60d21b6064820152608490fd5b634e487b7160e01b86526011600452602486fd5b5092945061070290612272565b5092919050610715565b5082151561050d565b60405162461bcd60e51b8152602060048201526011602482015270496e76616c69642042544320707269636560781b6044820152606490fd5b610b5d9060203d60201161069d5761068e818361203a565b50386104c6565b6040513d87823e3d90fd5b60405162461bcd60e51b815260206004820152601760248201527f4f6e6c7920626f72726f7765722063616e2072657061790000000000000000006044820152606490fd5b503461013c57602036600319011261013c576004356001600160a01b038181169182900361043d57610beb90600854163314612370565b6001600160601b0360a01b600354161760035580f35b503461013c576020908160031936011261013c5790600435825260058152600b60408320018054610c318161210c565b90610c3f604051928361203a565b8082528382018093865284862086915b838310610cb357505050506040519280840191818552518092526040840192945b828110610c7d5784840385f35b85518051855280830151858401526040808201511515908601526060908101519085015294810194608090930192600101610c70565b60048760019260409a9997989a51610cca81611fec565b85548152848601548382015260ff60028701541615156040820152600386015460608201528152019201920191909694939596610c4f565b503461013c5760a036600319011261013c5760643567ffffffffffffffff811161186b57610d34903690600401611f53565b9060843567ffffffffffffffff811161186757610d55903690600401611f53565b926004351561183157602435156117f957338552600660205260ff6040862054166117a85783810361174e57801561171357601460043502916004358304601403610ad857610da960648404600435612265565b6009546040516323b872dd60e01b8152336004820152306024820152606480870460448301529296929091602091839182908c906001600160a01b03165af18015611708576116e9575b509084929160405160208101903360601b825242603482015260348152610e198161201e565b519020968789526005602052606460408a209689885560018801336001600160601b0360a01b82541617905586600289015504600387015560443560048701556024356005870155426007870155610e6f612073565b600887015560098601805460ff19166001179055600d86018590558893845b8181106114985750505050500361144257670de0b6b3a764000060443502906044358204670de0b6b3a76400001460443515171561127957610ed46104b0830484612141565b6104b08304670de0b6b3a76400000180670de0b6b3a76400001161141a57801561142e57610f0f9060243590670de0b6b3a7640000046122ad565b670de0b6b3a76400000390670de0b6b3a7640000821161141a57600691610f3591612154565b91015582845260056020526040842091600683015485915b60243583106112c0578686600754600160401b8110156112ac57806001610f779201600755611f9f565b815460001960039290921b91821b19169083901b179055338252600660209081526040808420805460ff191660019081179091558385526005835281852060028101546009549254935163095ea7b360e01b81526001600160a01b039485166004820152602481018290529194909391929091839160449183918a91165af18015610b645761128d575b506040519061100f8261201e565b6002825260403660208401376009546001600160a01b031661103083612124565b526002546001600160a01b031661104683612131565b5280605f810204605f1481151715611279576001546001600160a01b0316904261012c810110610ad8579185916110a493836040518096819582946338ed173960e01b845261012c42019130916064605f82020490600487016121fb565b03925af1801561126e576110bf91859161124c575b50612131565b518284526005602090815260408086206002548754925163095ea7b360e01b81526001600160a01b0393841660048201526024810186905291939192839160449183918b91165af180156112225761122d575b50845460025486916001600160a01b039182169116803b1561043d5760848392604051948593849263617ba03760e01b845260048401528860248401523060448401528160648401525af18015611222576111f1575b506080927faeec09af87559b9077da2e499d1fad2e228d7c24cb4b566fe61976820abaadda6060846002857f65410888fb30edd04f6acfb2f6cfd92aaf0ebb9b5303b6286d65d0b031b5b7f79997600c60039801550154906040519187835260208301526040820152a1015460405191825260043560208301526040820152336060820152a180f35b67ffffffffffffffff819692961161120e57604052936080611168565b634e487b7160e01b82526041600452602482fd5b6040513d88823e3d90fd5b6112459060203d60201161069d5761068e818361203a565b5085611112565b61126891503d8087833e611260818361203a565b810190612181565b856110b9565b6040513d86823e3d90fd5b634e487b7160e01b85526011600452602485fd5b6112a59060203d60201161069d5761068e818361203a565b5084611001565b634e487b7160e01b83526041600452602483fd5b670de0b6b3a76400006112d76104b0860483612141565b04906112e38284612265565b91602435600019810111611406576024356000190185146113f1575b62278d0085818102048114861517156113dd5761131e90860242612174565b6040519161132b83611fec565b84835260208301528960408301526060820152600b870154600160401b8110156113c9578060016113659201600b8a0155600b8901612354565b9190916113b557916113af939160036060856113a99651845560208101516001850155600284016040820151151560ff801983541691161790550151910155612265565b92612272565b91610f4d565b634e487b7160e01b8a5260048a905260248afd5b634e487b7160e01b8a52604160045260248afd5b634e487b7160e01b8a52601160045260248afd5b92509050806114008382612174565b926112ff565b634e487b7160e01b89526011600452602489fd5b634e487b7160e01b87526011600452602487fd5b634e487b7160e01b87526012600452602487fd5b60405162461bcd60e51b815260206004820152602860248201527f436f6c6c656374656420616d6f756e7420646f65736e2774206d6174636820706044820152671c9a5b98da5c185b60c21b6064820152608490fd5b909192939495506114aa818386612281565b356001600160a01b03811681036116e5576114c6828588612281565b359687156116a8578b90602061151c60018060a01b03600954168b6040519586809481936323b872dd60e01b8352308b6004850160409194939294606082019560018060a01b0380921683521660208201520152565b03925af190811561169d57611538928a9261167e575b50612174565b9660018060a01b0382168c52600460205260408c20611558828254612174565b90556104b061157460243561156f60443585612141565b612141565b0490604051928360a081011067ffffffffffffffff60a08601111761166a5760a0840160405260018060a01b03168352602083015260408201528a60608201528a6080820152600a880154600160401b811015611656578060016115e19201600a8b0155600a8a01612291565b91909161164257805182546001600160a01b0319166001600160a01b03919091161782556020810151600183015560408101516002830155606081015160038301556080015160049091015561163690612272565b90879594939291610e8e565b634e487b7160e01b8c5260048c905260248cfd5b634e487b7160e01b8c52604160045260248cfd5b634e487b7160e01b8e52604160045260248efd5b6116969060203d60201161069d5761068e818361203a565b5038611532565b6040513d8f823e3d90fd5b60405162461bcd60e51b8152602060048201526015602482015274125b9d985b1a59081b195b99195c88185b5bdd5b9d605a1b6044820152606490fd5b8a80fd5b6117019060203d60201161069d5761068e818361203a565b5038610df3565b6040513d8a823e3d90fd5b60405162461bcd60e51b8152602060048201526013602482015272139bc81b195b99195c9cc81c1c9bdd9a591959606a1b6044820152606490fd5b60405162461bcd60e51b815260206004820152602c60248201527f4c656e6465722061646472657373657320616e6420616d6f756e7473206c656e60448201526b0cee8d040dad2e6dac2e8c6d60a31b6064820152608490fd5b60405162461bcd60e51b815260206004820152602360248201527f426f72726f77657220616c72656164792068617320616e20616374697665206c60448201526237b0b760e91b6064820152608490fd5b60405162461bcd60e51b815260206004820152601060248201526f24b73b30b634b210323ab930ba34b7b760811b6044820152606490fd5b60405162461bcd60e51b815260206004820152600e60248201526d125b9d985b1a5908185b5bdd5b9d60921b6044820152606490fd5b8380fd5b5080fd5b503461013c57602036600319011261013c576004356001600160a01b038181169182900361043d576118a690600854163314612370565b6001600160601b0360a01b600154161760015580f35b503461013c57602036600319011261013c576004356001600160a01b038181169182900361043d576118f390600854163314612370565b81546001600160a01b03191617815580f35b503461013c57602036600319011261013c576004356001600160a01b0381169081900361186b578160409160209352600483522054604051908152f35b503461013c5760208060031936011261186b5760043560018060a01b0361196e81600854163314612370565b8184526005835260408420926009908185019182549260ff6119918186166123c6565b88908990600b8a018054925b838110611bd857505050506276a7001015611b7e5760ff1980941690556001808701938585541689526006845260408920908154169055600c87015480611b6e575b50600380880154600d8901549182611a53575b8a7fcab88a55906c5830a49dddd8b31d115294a5e6c4210f25fe140530a39c51dc748a8a8a541690611a4d611a25612073565b604080519384526001600160a01b039094166020840152928201929092529081906060820190565b0390a180f35b9091928099600a8c9101915b611a6a575b506119f2565b8154811015611b6957611a7d8183612291565b50611a8f8c8201548583015490612265565b8c8115611b585750670de0b6b3a7640000908181029081048203611b44578796959493928f9192611acd611ac7611b099b8e96612154565b89612141565b04918d808c541692541690604051809b8195829463a9059cbb60e01b84526004840160209093929193604081019460018060a01b031681520152565b03925af190811561169d578c96611b2492611b2e5750612272565b9091929394611a5f565b610696908a3d8c1161069d5761068e818361203a565b634e487b7160e01b8f52601160045260248ffd5b96959493929050611b249150612272565b611a64565b611b789087612407565b386119df565b60405162461bcd60e51b815260048101849052602c60248201527f4c6f616e206973206e6f74206f766572647565206265796f6e642033206d6f6e60448201526b1d1a1cc81a5b881d1bdd185b60a21b6064820152608490fd5b611be28183612354565b5083600282015416611bfa5760030154804211611c09575b50611c0490612272565b61199d565b611c049195611c1b611c219242612265565b90612174565b9490611bfa565b503461013c57602036600319011261013c576004356001600160a01b0381169081900361186b5760408260ff9260209452600684522054166040519015158152f35b503461013c578060031936011261013c576009546040516001600160a01b039091168152602090f35b503461013c578060031936011261013c576002546040516001600160a01b039091168152602090f35b503461013c57602036600319011261013c57611ce360018060a01b03600854163314612370565b600435815260056020526040812060098101805491611d0460ff84166123c6565b611d0c612073565b91600c82016305f5e100611d21858354612141565b0491600d8401928354606981029080820460691490151715611406576064900410611ef05760ff1995861690556001830180546001600160a01b0316875260066020526040872080549096169095555480611ede575b50600382015490549182611dd6575b505091546040805160043581526001600160a01b0390921660208301528101919091527fcab88a55906c5830a49dddd8b31d115294a5e6c4210f25fe140530a39c51dc7491508060608101611a4d565b909192855b600a830154811015611eb157611df481600a8501612291565b50611e086001820154600383015490612265565b8015611ea65780670de0b6b3a7640000810204670de0b6b3a76400000361140657611e889291670de0b6b3a7640000611e48611ac78a8360209602612154565b600954925460405163a9059cbb60e01b81526001600160a01b039182166004820152929091046024830152909485929091169082908c9082906044820190565b03925af191821561170857611ea1926106755750612272565b611ddb565b5050611ea190612272565b50925050507fcab88a55906c5830a49dddd8b31d115294a5e6c4210f25fe140530a39c51dc743880611d86565b611eea90600435612407565b38611d77565b60405162461bcd60e51b815260206004820152603560248201527f4254432076616c756520686173206e6f742064726f707065642062656c6f77206044820152741b1a5c5d5a59185d1a5bdb881d1a1c995cda1bdb19605a1b6064820152608490fd5b9181601f84011215611f845782359167ffffffffffffffff8311611f84576020808501948460051b010111611f8457565b600080fd5b6040906003190112611f84576004359060243590565b600754811015611fd65760076000527fa66cc928b5edb82af9bd49922954155ab7b0942694bea4ce44661d9a8736c6880190600090565b634e487b7160e01b600052603260045260246000fd5b6080810190811067ffffffffffffffff82111761200857604052565b634e487b7160e01b600052604160045260246000fd5b6060810190811067ffffffffffffffff82111761200857604052565b90601f8019910116810190811067ffffffffffffffff82111761200857604052565b519069ffffffffffffffffffff82168203611f8457565b600354604051633fabe5a360e21b81529060a090829060049082906001600160a01b03165afa908115610a2e576000916120ab575090565b9060a0823d82116120ec575b816120c460a0938361203a565b8101031261013c57506120d68161205c565b506120e860806020830151920161205c565b5090565b3d91506120b7565b90816020910312611f8457518015158103611f845790565b67ffffffffffffffff81116120085760051b60200190565b805115611fd65760200190565b805160011015611fd65760400190565b81810292918115918404141715610a3a57565b811561215e570490565b634e487b7160e01b600052601260045260246000fd5b91908201809211610a3a57565b6020908181840312611f845780519067ffffffffffffffff8211611f8457019180601f84011215611f845782516121b78161210c565b936121c5604051958661203a565b818552838086019260051b820101928311611f84578301905b8282106121ec575050505090565b815181529083019083016121de565b9291909594939560a084019084526020918285015260a0604085015282518091528160c0850193019160005b8281106122485750505050906080919460018060a01b031660608201520152565b83516001600160a01b031685529381019392810192600101612227565b91908203918211610a3a57565b6000198114610a3a5760010190565b9190811015611fd65760051b0190565b8054821015611fd6576000526005602060002091020190600090565b90801561234d57811561234657818060011461233e5760021461232d5760208110610133831016604e8210600b8410161761232857600190815b8082116122ff57505081600019048111610a3a570290565b909280600019048111610a3a5781841661231f575b800292811c906122e7565b80920291612314565b900a90565b905060ff8111610a3a576001901b90565b505050600190565b5050600090565b5050600190565b8054821015611fd65760005260206000209060021b0190600090565b1561237757565b60405162461bcd60e51b815260206004820152602160248201527f4f6e6c79206f776e65722063616e2063616c6c20746869732066756e6374696f6044820152603760f91b6064820152608490fd5b156123cd57565b60405162461bcd60e51b81526020600482015260126024820152714c6f616e206973206e6f742061637469766560701b6044820152606490fd5b9060009082825260209060058252604090600c82852001805482116125035784546002548451631a4ca37b60e21b81526001600160a01b03918216600482015260248101949094523060448501528591849160649183918a91165af19182156124f95785926124c5575b509181836124a67f38a556a122683cb48d496614a7a03605b6c2c0482342924caf483386980ecc9f9896946080989654612265565b90556124b181612556565b9282519586528501528301526060820152a1565b9091508381813d83116124f2575b6124dd818361203a565b810103126124ee5751906080612471565b8480fd5b503d6124d3565b83513d87823e3d90fd5b825162461bcd60e51b815260048101859052602660248201527f43616e6e6f7420756e7374616b65206d6f7265207468616e207374616b656420604482015265185b5bdd5b9d60d21b6064820152608490fd5b6002546001546040805163095ea7b360e01b81526001600160a01b03928316600482015260248101859052600095949193919291602090829060449082908a9087165af180156126a357612685575b5082516125b18161201e565b600281528336602083013781600254166125ca82612124565b5281600954166125d982612131565b52605f830291838304605f148415171561141a57600154169061012c4201938442116126715790878094939261262a8851978896879586946338ed173960e01b8652606430930490600487016121fb565b03925af191821561266857508361264993949261264d575b5050612131565b5190565b61266192503d8091833e611260818361203a565b3880612642565b513d85823e3d90fd5b634e487b7160e01b88526011600452602488fd5b61269c9060203d811161069d5761068e818361203a565b50386125a5565b84513d88823e3d90fdfea264697066735822122067af01fe44e4e0eff65518bb8a7fa6ba5fd6583082d3214edb4b692a072cea1164736f6c63430008140033","opcodes":"PUSH1 0x80 CALLVALUE PUSH3 0xEC JUMPI PUSH1 0x1F PUSH3 0x2800 CODESIZE DUP2 SWAP1 SUB SWAP2 DUP3 ADD PUSH1 0x1F NOT AND DUP4 ADD SWAP2 PUSH1 0x1 PUSH1 0x1 PUSH1 0x40 SHL SUB DUP4 GT DUP5 DUP5 LT OR PUSH3 0xF1 JUMPI DUP1 DUP5 SWAP3 PUSH1 0xA0 SWAP5 PUSH1 0x40 MSTORE DUP4 CODECOPY DUP2 ADD SUB SLT PUSH3 0xEC JUMPI PUSH3 0x4D DUP2 PUSH3 0x107 JUMP JUMPDEST SWAP1 PUSH3 0x5C PUSH1 0x20 DUP3 ADD PUSH3 0x107 JUMP JUMPDEST SWAP1 PUSH3 0x6B PUSH1 0x40 DUP3 ADD PUSH3 0x107 JUMP JUMPDEST SWAP2 PUSH3 0x88 PUSH1 0x80 PUSH3 0x80 PUSH1 0x60 DUP6 ADD PUSH3 0x107 JUMP JUMPDEST SWAP4 ADD PUSH3 0x107 JUMP JUMPDEST SWAP2 PUSH1 0x1 DUP1 PUSH1 0xA0 SHL SUB NOT SWAP5 CALLER DUP7 PUSH1 0x8 SLOAD AND OR PUSH1 0x8 SSTORE PUSH1 0x1 DUP1 PUSH1 0xA0 SHL SUB SWAP5 DUP6 DUP1 SWAP5 DUP2 DUP1 SWAP5 AND DUP10 PUSH1 0x9 SLOAD AND OR PUSH1 0x9 SSTORE AND DUP8 PUSH1 0x2 SLOAD AND OR PUSH1 0x2 SSTORE AND DUP6 PUSH1 0x3 SLOAD AND OR PUSH1 0x3 SSTORE AND DUP4 PUSH1 0x0 SLOAD AND OR PUSH1 0x0 SSTORE AND SWAP1 PUSH1 0x1 SLOAD AND OR PUSH1 0x1 SSTORE PUSH1 0x40 MLOAD PUSH2 0x26E3 SWAP1 DUP2 PUSH3 0x11D DUP3 CODECOPY RETURN JUMPDEST PUSH1 0x0 DUP1 REVERT JUMPDEST PUSH4 0x4E487B71 PUSH1 0xE0 SHL PUSH1 0x0 MSTORE PUSH1 0x41 PUSH1 0x4 MSTORE PUSH1 0x24 PUSH1 0x0 REVERT JUMPDEST MLOAD SWAP1 PUSH1 0x1 PUSH1 0x1 PUSH1 0xA0 SHL SUB DUP3 AND DUP3 SUB PUSH3 0xEC JUMPI JUMP INVALID PUSH1 0x80 PUSH1 0x40 MSTORE PUSH1 0x4 CALLDATASIZE LT ISZERO PUSH2 0x12 JUMPI PUSH1 0x0 DUP1 REVERT JUMPDEST PUSH1 0x0 DUP1 CALLDATALOAD PUSH1 0xE0 SHR DUP1 PUSH4 0xA71096E EQ PUSH2 0x1CBC JUMPI DUP1 PUSH4 0xE462386 EQ PUSH2 0x1C93 JUMPI DUP1 PUSH4 0x11EAC855 EQ PUSH2 0x1C6A JUMPI DUP1 PUSH4 0x21D4F8DB EQ PUSH2 0x1C28 JUMPI DUP1 PUSH4 0x28830D47 EQ PUSH2 0x1942 JUMPI DUP1 PUSH4 0x28FD10D7 EQ PUSH2 0x1905 JUMPI DUP1 PUSH4 0x349F937C EQ PUSH2 0x18BC JUMPI DUP1 PUSH4 0x41273657 EQ PUSH2 0x186F JUMPI DUP1 PUSH4 0x66FB6E5A EQ PUSH2 0xD02 JUMPI DUP1 PUSH4 0x6C1945AE EQ PUSH2 0xC01 JUMPI DUP1 PUSH4 0x7A9B0412 EQ PUSH2 0xBB4 JUMPI DUP1 PUSH4 0x80F2122C EQ PUSH2 0x441 JUMPI DUP1 PUSH4 0x83CD8FCF EQ PUSH2 0x3F0 JUMPI DUP1 PUSH4 0x8DA5CB5B EQ PUSH2 0x3C7 JUMPI DUP1 PUSH4 0x98D5FDCA EQ PUSH2 0x3A4 JUMPI DUP1 PUSH4 0xA03E4BC3 EQ PUSH2 0x37D JUMPI DUP1 PUSH4 0xC31C9C07 EQ PUSH2 0x354 JUMPI DUP1 PUSH4 0xC4A90815 EQ PUSH2 0x2A1 JUMPI DUP1 PUSH4 0xC9642D2A EQ PUSH2 0x168 JUMPI DUP1 PUSH4 0xEF06E72C EQ PUSH2 0x13F JUMPI PUSH4 0xF8715A42 EQ PUSH2 0x104 JUMPI PUSH1 0x0 DUP1 REVERT JUMPDEST CALLVALUE PUSH2 0x13C JUMPI PUSH1 0x20 CALLDATASIZE PUSH1 0x3 NOT ADD SLT PUSH2 0x13C JUMPI PUSH1 0x4 CALLDATALOAD SWAP1 PUSH1 0x7 SLOAD DUP3 LT ISZERO PUSH2 0x13C JUMPI PUSH1 0x20 PUSH2 0x12E DUP4 PUSH2 0x1F9F JUMP JUMPDEST SWAP1 SLOAD PUSH1 0x40 MLOAD SWAP2 PUSH1 0x3 SHL SHR DUP2 MSTORE RETURN JUMPDEST DUP1 REVERT JUMPDEST POP CALLVALUE PUSH2 0x13C JUMPI DUP1 PUSH1 0x3 NOT CALLDATASIZE ADD SLT PUSH2 0x13C JUMPI PUSH1 0x3 SLOAD PUSH1 0x40 MLOAD PUSH1 0x1 PUSH1 0x1 PUSH1 0xA0 SHL SUB SWAP1 SWAP2 AND DUP2 MSTORE PUSH1 0x20 SWAP1 RETURN JUMPDEST POP CALLVALUE PUSH2 0x13C JUMPI PUSH2 0x177 CALLDATASIZE PUSH2 0x1F89 JUMP JUMPDEST SWAP1 PUSH2 0x18D PUSH1 0x1 DUP1 PUSH1 0xA0 SHL SUB PUSH1 0x8 SLOAD AND CALLER EQ PUSH2 0x2370 JUMP JUMPDEST DUP1 DUP4 MSTORE PUSH1 0x5 PUSH1 0x20 MSTORE PUSH1 0xB PUSH1 0x40 DUP5 KECCAK256 PUSH2 0x1AB PUSH1 0xFF PUSH1 0x9 DUP4 ADD SLOAD AND PUSH2 0x23C6 JUMP JUMPDEST ADD SWAP1 DUP2 SLOAD DUP4 LT ISZERO PUSH2 0x25C JUMPI PUSH1 0xFF PUSH1 0x2 PUSH2 0x1C4 DUP6 DUP6 PUSH2 0x2354 JUMP JUMPDEST POP ADD SLOAD AND PUSH2 0x217 JUMPI DUP3 PUSH1 0x2 PUSH2 0x1FC PUSH32 0x3D05AC2057427AC2F84502E7EFEFEBF5AE10D9529129C2979CE60FB97D460614 SWAP6 PUSH1 0x40 SWAP6 PUSH2 0x2354 JUMP JUMPDEST POP ADD DUP1 SLOAD PUSH1 0xFF NOT AND PUSH1 0x1 OR SWAP1 SSTORE DUP3 MLOAD SWAP2 DUP3 MSTORE PUSH1 0x20 DUP3 ADD MSTORE LOG1 DUP1 RETURN JUMPDEST PUSH1 0x40 MLOAD PUSH3 0x461BCD PUSH1 0xE5 SHL DUP2 MSTORE PUSH1 0x20 PUSH1 0x4 DUP3 ADD MSTORE PUSH1 0x1F PUSH1 0x24 DUP3 ADD MSTORE PUSH32 0x496E7374616C6C6D656E7420616C7265616479206D61726B6564207061696400 PUSH1 0x44 DUP3 ADD MSTORE PUSH1 0x64 SWAP1 REVERT JUMPDEST PUSH1 0x40 MLOAD PUSH3 0x461BCD PUSH1 0xE5 SHL DUP2 MSTORE PUSH1 0x20 PUSH1 0x4 DUP3 ADD MSTORE PUSH1 0x19 PUSH1 0x24 DUP3 ADD MSTORE PUSH32 0x496E76616C696420696E7374616C6C6D656E7420696E64657800000000000000 PUSH1 0x44 DUP3 ADD MSTORE PUSH1 0x64 SWAP1 REVERT JUMPDEST POP CALLVALUE PUSH2 0x13C JUMPI PUSH1 0x20 CALLDATASIZE PUSH1 0x3 NOT ADD SLT PUSH2 0x13C JUMPI PUSH1 0x40 PUSH2 0x180 SWAP2 PUSH1 0x4 CALLDATALOAD DUP2 MSTORE PUSH1 0x5 PUSH1 0x20 MSTORE KECCAK256 DUP1 SLOAD SWAP1 PUSH1 0x1 DUP1 PUSH1 0xA0 SHL SUB PUSH1 0x1 DUP3 ADD SLOAD AND SWAP1 PUSH1 0x2 DUP2 ADD SLOAD PUSH1 0x3 DUP3 ADD SLOAD PUSH1 0x4 DUP4 ADD SLOAD PUSH1 0x5 DUP5 ADD SLOAD PUSH1 0x6 DUP6 ADD SLOAD SWAP1 PUSH1 0x7 DUP7 ADD SLOAD SWAP3 PUSH1 0x8 DUP8 ADD SLOAD SWAP5 PUSH1 0xFF PUSH1 0x9 DUP10 ADD SLOAD AND SWAP7 PUSH1 0xD PUSH1 0xC DUP11 ADD SLOAD SWAP10 ADD SLOAD SWAP10 PUSH1 0x40 MLOAD SWAP12 DUP13 MSTORE PUSH1 0x20 DUP13 ADD MSTORE PUSH1 0x40 DUP12 ADD MSTORE PUSH1 0x60 DUP11 ADD MSTORE PUSH1 0x80 DUP10 ADD MSTORE PUSH1 0xA0 DUP9 ADD MSTORE PUSH1 0xC0 DUP8 ADD MSTORE PUSH1 0xE0 DUP7 ADD MSTORE PUSH2 0x100 DUP6 ADD MSTORE ISZERO ISZERO PUSH2 0x120 DUP5 ADD MSTORE PUSH2 0x140 DUP4 ADD MSTORE PUSH2 0x160 DUP3 ADD MSTORE RETURN JUMPDEST POP CALLVALUE PUSH2 0x13C JUMPI DUP1 PUSH1 0x3 NOT CALLDATASIZE ADD SLT PUSH2 0x13C JUMPI PUSH1 0x1 SLOAD PUSH1 0x40 MLOAD PUSH1 0x1 PUSH1 0x1 PUSH1 0xA0 SHL SUB SWAP1 SWAP2 AND DUP2 MSTORE PUSH1 0x20 SWAP1 RETURN JUMPDEST POP CALLVALUE PUSH2 0x13C JUMPI DUP1 PUSH1 0x3 NOT CALLDATASIZE ADD SLT PUSH2 0x13C JUMPI SLOAD PUSH1 0x40 MLOAD PUSH1 0x1 PUSH1 0x1 PUSH1 0xA0 SHL SUB SWAP1 SWAP2 AND DUP2 MSTORE PUSH1 0x20 SWAP1 RETURN JUMPDEST POP CALLVALUE PUSH2 0x13C JUMPI DUP1 PUSH1 0x3 NOT CALLDATASIZE ADD SLT PUSH2 0x13C JUMPI PUSH1 0x20 PUSH2 0x3BF PUSH2 0x2073 JUMP JUMPDEST PUSH1 0x40 MLOAD SWAP1 DUP2 MSTORE RETURN JUMPDEST POP CALLVALUE PUSH2 0x13C JUMPI DUP1 PUSH1 0x3 NOT CALLDATASIZE ADD SLT PUSH2 0x13C JUMPI PUSH1 0x8 SLOAD PUSH1 0x40 MLOAD PUSH1 0x1 PUSH1 0x1 PUSH1 0xA0 SHL SUB SWAP1 SWAP2 AND DUP2 MSTORE PUSH1 0x20 SWAP1 RETURN JUMPDEST POP CALLVALUE PUSH2 0x13C JUMPI PUSH1 0x20 CALLDATASIZE PUSH1 0x3 NOT ADD SLT PUSH2 0x13C JUMPI PUSH1 0x4 CALLDATALOAD PUSH1 0x1 PUSH1 0x1 PUSH1 0xA0 SHL SUB DUP2 DUP2 AND SWAP2 DUP3 SWAP1 SUB PUSH2 0x43D JUMPI PUSH2 0x427 SWAP1 PUSH1 0x8 SLOAD AND CALLER EQ PUSH2 0x2370 JUMP JUMPDEST PUSH1 0x1 PUSH1 0x1 PUSH1 0x60 SHL SUB PUSH1 0xA0 SHL PUSH1 0x2 SLOAD AND OR PUSH1 0x2 SSTORE DUP1 RETURN JUMPDEST DUP3 DUP1 REVERT JUMPDEST POP CALLVALUE PUSH2 0x13C JUMPI PUSH2 0x450 CALLDATASIZE PUSH2 0x1F89 JUMP JUMPDEST DUP2 DUP4 MSTORE PUSH1 0x5 PUSH1 0x20 MSTORE PUSH1 0x40 DUP4 KECCAK256 PUSH2 0x46C PUSH1 0xFF PUSH1 0x9 DUP4 ADD SLOAD AND PUSH2 0x23C6 JUMP JUMPDEST PUSH1 0x1 DUP2 ADD SLOAD PUSH1 0x1 PUSH1 0x1 PUSH1 0xA0 SHL SUB AND CALLER SUB PUSH2 0xB6F JUMPI PUSH1 0x9 SLOAD PUSH1 0x40 MLOAD PUSH4 0x23B872DD PUSH1 0xE0 SHL DUP2 MSTORE CALLER PUSH1 0x4 DUP3 ADD MSTORE ADDRESS PUSH1 0x24 DUP3 ADD MSTORE PUSH1 0x44 DUP2 ADD DUP5 SWAP1 MSTORE SWAP1 PUSH1 0x20 SWAP1 DUP3 SWAP1 PUSH1 0x64 SWAP1 DUP3 SWAP1 DUP10 SWAP1 PUSH1 0x1 PUSH1 0x1 PUSH1 0xA0 SHL SUB AND GAS CALL DUP1 ISZERO PUSH2 0xB64 JUMPI PUSH2 0xB45 JUMPI JUMPDEST POP PUSH1 0x8 DUP2 ADD SLOAD DUP1 ISZERO PUSH2 0xB0C JUMPI PUSH8 0xDE0B6B3A7640000 DUP4 MUL DUP4 DUP2 DIV PUSH8 0xDE0B6B3A7640000 EQ DUP5 ISZERO OR ISZERO PUSH2 0xAD8 JUMPI SWAP1 PUSH2 0x4FC SWAP2 PUSH2 0x2154 JUMP JUMPDEST DUP5 SWAP2 DUP6 JUMPDEST PUSH1 0xB DUP3 ADD SLOAD DUP2 LT DUP1 PUSH2 0xB03 JUMPI JUMPDEST ISZERO PUSH2 0xAF9 JUMPI PUSH2 0x51F DUP2 PUSH1 0xB DUP5 ADD PUSH2 0x2354 JUMP JUMPDEST POP SWAP5 PUSH1 0x2 DUP7 ADD SLOAD PUSH1 0xFF DUP2 AND PUSH2 0xAEC JUMPI DUP7 SLOAD SWAP5 PUSH1 0x1 DUP9 ADD SLOAD SWAP8 PUSH2 0x541 DUP10 DUP9 PUSH2 0x2174 JUMP JUMPDEST SWAP3 DUP4 DUP4 LT PUSH2 0x70A JUMPI SWAP3 DUP8 SWAP3 PUSH2 0x565 SWAP3 PUSH1 0x2 PUSH1 0x1 PUSH2 0x56B SWAP8 PUSH1 0xFF NOT AND OR SWAP2 ADD SSTORE PUSH2 0x2265 JUMP JUMPDEST SWAP7 PUSH2 0x2174 JUMP JUMPDEST SWAP5 PUSH1 0x2 DUP5 ADD SLOAD SWAP6 DUP10 JUMPDEST PUSH1 0xA DUP7 ADD SLOAD DUP2 LT ISZERO PUSH2 0x6C3 JUMPI PUSH2 0x58D DUP2 PUSH1 0xA DUP9 ADD PUSH2 0x2291 JUMP JUMPDEST POP PUSH1 0x1 DUP2 ADD SLOAD DUP1 PUSH8 0xDE0B6B3A7640000 DUP2 MUL DIV PUSH8 0xDE0B6B3A7640000 EQ DUP2 ISZERO OR ISZERO PUSH2 0x6AF JUMPI DUP13 PUSH2 0x656 SWAP4 SWAP3 DUP13 PUSH2 0x626 PUSH8 0xDE0B6B3A7640000 PUSH2 0x5EB DUP16 DUP16 SWAP1 PUSH2 0x5E4 PUSH2 0x5DD DUP6 SWAP3 DUP4 PUSH1 0x20 SWAP13 MUL PUSH2 0x2154 JUMP JUMPDEST DUP1 SWAP4 PUSH2 0x2141 JUMP JUMPDEST DIV SWAP5 PUSH2 0x2141 JUMP JUMPDEST DIV PUSH1 0x3 DUP5 ADD PUSH2 0x5FB DUP5 DUP3 SLOAD PUSH2 0x2174 JUMP JUMPDEST SWAP1 SSTORE PUSH1 0x4 DUP5 ADD PUSH2 0x60C DUP3 DUP3 SLOAD PUSH2 0x2174 JUMP JUMPDEST SWAP1 SSTORE PUSH1 0x9 SLOAD SWAP4 SLOAD PUSH1 0x1 PUSH1 0x1 PUSH1 0xA0 SHL SUB SWAP5 DUP6 AND SWAP5 AND SWAP3 PUSH2 0x2174 JUMP JUMPDEST PUSH1 0x40 MLOAD PUSH4 0xA9059CBB PUSH1 0xE0 SHL DUP2 MSTORE PUSH1 0x1 PUSH1 0x1 PUSH1 0xA0 SHL SUB SWAP1 SWAP3 AND PUSH1 0x4 DUP4 ADD MSTORE PUSH1 0x24 DUP3 ADD MSTORE SWAP5 DUP6 SWAP3 DUP4 SWAP2 DUP3 SWAP1 PUSH1 0x44 DUP3 ADD SWAP1 JUMP JUMPDEST SUB SWAP3 GAS CALL SWAP2 DUP3 ISZERO PUSH2 0x6A4 JUMPI PUSH2 0x670 SWAP3 PUSH2 0x675 JUMPI JUMPDEST POP PUSH2 0x2272 JUMP JUMPDEST PUSH2 0x574 JUMP JUMPDEST PUSH2 0x696 SWAP1 PUSH1 0x20 RETURNDATASIZE PUSH1 0x20 GT PUSH2 0x69D JUMPI JUMPDEST PUSH2 0x68E DUP2 DUP4 PUSH2 0x203A JUMP JUMPDEST DUP2 ADD SWAP1 PUSH2 0x20F4 JUMP JUMPDEST POP CODESIZE PUSH2 0x66A JUMP JUMPDEST POP RETURNDATASIZE PUSH2 0x684 JUMP JUMPDEST PUSH1 0x40 MLOAD RETURNDATASIZE DUP15 DUP3 RETURNDATACOPY RETURNDATASIZE SWAP1 REVERT JUMPDEST PUSH4 0x4E487B71 PUSH1 0xE0 SHL DUP14 MSTORE PUSH1 0x11 PUSH1 0x4 MSTORE PUSH1 0x24 DUP14 REVERT JUMPDEST POP SWAP6 POP SWAP6 POP SWAP3 POP PUSH2 0x702 SWAP1 PUSH32 0x3D05AC2057427AC2F84502E7EFEFEBF5AE10D9529129C2979CE60FB97D460614 PUSH1 0x40 DUP1 MLOAD DUP10 DUP2 MSTORE DUP4 PUSH1 0x20 DUP3 ADD MSTORE LOG1 PUSH2 0x2272 JUMP JUMPDEST SWAP4 SWAP2 SWAP4 PUSH2 0x500 JUMP JUMPDEST POP POP POP POP SWAP4 SWAP3 POP POP SWAP3 POP JUMPDEST PUSH1 0xD DUP4 ADD PUSH2 0x724 DUP3 DUP3 SLOAD PUSH2 0x2265 JUMP JUMPDEST SWAP1 SSTORE DUP1 ISZERO SWAP1 DUP2 ISZERO PUSH2 0x810 JUMPI JUMPDEST POP POP PUSH1 0x1 SWAP2 DUP5 PUSH1 0xB DUP3 ADD SLOAD SWAP1 JUMPDEST DUP2 DUP2 LT PUSH2 0x7DA JUMPI JUMPDEST POP POP SWAP2 PUSH32 0xDC376ABD09229A842AC7D8BCADC9017651F1F1B8490750870CAE0ECD4AEDF674 SWAP4 SWAP2 PUSH1 0x80 SWAP4 DUP3 PUSH2 0x791 JUMPI JUMPDEST POP PUSH1 0x40 MLOAD SWAP3 DUP4 MSTORE CALLER PUSH1 0x20 DUP5 ADD MSTORE PUSH1 0x40 DUP4 ADD MSTORE ISZERO ISZERO PUSH1 0x60 DUP3 ADD MSTORE LOG1 DUP1 RETURN JUMPDEST PUSH1 0x9 DUP2 ADD DUP1 SLOAD PUSH1 0xFF NOT SWAP1 DUP2 AND SWAP1 SWAP2 SSTORE PUSH1 0x1 DUP3 ADD SLOAD PUSH1 0x1 PUSH1 0x1 PUSH1 0xA0 SHL SUB AND DUP9 MSTORE PUSH1 0x6 PUSH1 0x20 MSTORE PUSH1 0x40 DUP9 KECCAK256 DUP1 SLOAD SWAP1 SWAP2 AND SWAP1 SSTORE PUSH1 0xC ADD SLOAD DUP1 ISZERO PUSH2 0x774 JUMPI PUSH2 0x7D4 SWAP1 DUP5 PUSH2 0x2407 JUMP JUMPDEST CODESIZE PUSH2 0x774 JUMP JUMPDEST PUSH1 0xFF PUSH1 0x2 PUSH2 0x7EB DUP4 PUSH1 0xB DUP8 ADD PUSH2 0x2354 JUMP JUMPDEST POP ADD SLOAD AND ISZERO PUSH2 0x802 JUMPI PUSH2 0x7FD SWAP1 PUSH2 0x2272 JUMP JUMPDEST PUSH2 0x73D JUMP JUMPDEST POP DUP6 SWAP4 POP DUP3 SWAP1 POP PUSH1 0x80 PUSH2 0x745 JUMP JUMPDEST DUP5 DUP7 MSTORE PUSH1 0x5 PUSH1 0x20 MSTORE PUSH1 0x40 DUP7 KECCAK256 SWAP2 PUSH8 0xDE0B6B3A7640000 DUP3 MUL SWAP2 DUP3 DIV PUSH8 0xDE0B6B3A7640000 EQ OR ISZERO PUSH2 0xAD8 JUMPI DUP2 PUSH1 0xC PUSH2 0x859 PUSH2 0x861 SWAP4 PUSH1 0x2 PUSH8 0xDE0B6B3A7640000 SWAP7 ADD SLOAD SWAP1 PUSH2 0x2154 JUMP JUMPDEST SWAP2 ADD SLOAD PUSH2 0x2141 JUMP JUMPDEST DIV DUP1 PUSH2 0x8CF JUMPI JUMPDEST POP DUP3 DUP5 MSTORE PUSH1 0x5 PUSH1 0x20 MSTORE PUSH1 0x40 DUP5 KECCAK256 DUP5 DUP6 PUSH1 0xA DUP4 ADD DUP1 SLOAD SWAP1 JUMPDEST DUP2 DUP4 LT PUSH2 0x8A3 JUMPI POP POP POP PUSH2 0x899 PUSH1 0xD SWAP2 PUSH1 0x2 DUP5 ADD SLOAD PUSH2 0x2265 JUMP JUMPDEST SWAP2 ADD SSTORE CODESIZE DUP1 PUSH2 0x730 JUMP JUMPDEST SWAP1 SWAP2 SWAP3 PUSH2 0x8C2 PUSH2 0x8C8 SWAP2 PUSH1 0x3 PUSH2 0x8B9 DUP8 DUP7 PUSH2 0x2291 JUMP JUMPDEST POP ADD SLOAD SWAP1 PUSH2 0x2174 JUMP JUMPDEST SWAP4 PUSH2 0x2272 JUMP JUMPDEST SWAP2 SWAP1 PUSH2 0x87F JUMP JUMPDEST DUP4 PUSH1 0x0 MSTORE PUSH1 0x5 PUSH1 0x20 MSTORE PUSH1 0x40 PUSH1 0x0 KECCAK256 SWAP1 PUSH1 0xC DUP3 ADD DUP1 SLOAD DUP3 GT PUSH2 0xA84 JUMPI PUSH1 0x0 DUP1 SLOAD PUSH1 0x2 SLOAD PUSH1 0x40 MLOAD PUSH4 0x1A4CA37B PUSH1 0xE2 SHL DUP2 MSTORE PUSH1 0x1 PUSH1 0x1 PUSH1 0xA0 SHL SUB SWAP2 DUP3 AND PUSH1 0x4 DUP3 ADD MSTORE PUSH1 0x24 DUP2 ADD SWAP6 SWAP1 SWAP6 MSTORE ADDRESS PUSH1 0x44 DUP7 ADD MSTORE PUSH1 0x20 SWAP3 DUP6 SWAP3 PUSH1 0x64 SWAP3 DUP5 SWAP3 SWAP2 AND GAS CALL SWAP2 DUP3 ISZERO PUSH2 0xA2E JUMPI PUSH1 0x0 SWAP3 PUSH2 0xA50 JUMPI JUMPDEST POP PUSH2 0x945 DUP3 DUP3 SLOAD PUSH2 0x2265 JUMP JUMPDEST SWAP1 SSTORE PUSH1 0x19 DUP2 MUL SWAP1 DUP1 DUP3 DIV PUSH1 0x19 EQ DUP2 ISZERO OR ISZERO PUSH2 0xA3A JUMPI PUSH1 0x64 PUSH2 0x9B4 SWAP3 DIV PUSH1 0x20 DUP2 PUSH2 0x96E DUP2 DUP6 PUSH2 0x2265 JUMP JUMPDEST PUSH1 0x2 SLOAD PUSH1 0x1 SWAP1 SWAP8 ADD SLOAD PUSH1 0x40 MLOAD PUSH4 0xA9059CBB PUSH1 0xE0 SHL DUP2 MSTORE PUSH1 0x1 PUSH1 0x1 PUSH1 0xA0 SHL SUB SWAP2 DUP3 AND PUSH1 0x4 DUP3 ADD MSTORE PUSH1 0x24 DUP2 ADD SWAP4 SWAP1 SWAP4 MSTORE SWAP1 SWAP7 SWAP2 SWAP6 DUP7 SWAP3 SWAP1 SWAP2 AND SWAP1 DUP3 SWAP1 PUSH1 0x0 SWAP1 DUP3 SWAP1 PUSH1 0x44 DUP3 ADD SWAP1 JUMP JUMPDEST SUB SWAP3 GAS CALL DUP1 ISZERO PUSH2 0xA2E JUMPI PUSH32 0x38A556A122683CB48D496614A7A03605B6C2C0482342924CAF483386980ECC9F SWAP5 PUSH1 0x80 SWAP5 PUSH2 0x9F2 SWAP3 PUSH2 0xA0F JUMPI JUMPDEST POP PUSH2 0x2556 JUMP JUMPDEST PUSH1 0x40 MLOAD SWAP3 DUP9 DUP5 MSTORE PUSH1 0x20 DUP5 ADD MSTORE PUSH1 0x40 DUP4 ADD MSTORE PUSH1 0x60 DUP3 ADD MSTORE LOG1 CODESIZE PUSH2 0x868 JUMP JUMPDEST PUSH2 0xA27 SWAP1 PUSH1 0x20 RETURNDATASIZE PUSH1 0x20 GT PUSH2 0x69D JUMPI PUSH2 0x68E DUP2 DUP4 PUSH2 0x203A JUMP JUMPDEST POP CODESIZE PUSH2 0x9EC JUMP JUMPDEST PUSH1 0x40 MLOAD RETURNDATASIZE PUSH1 0x0 DUP3 RETURNDATACOPY RETURNDATASIZE SWAP1 REVERT JUMPDEST PUSH4 0x4E487B71 PUSH1 0xE0 SHL PUSH1 0x0 MSTORE PUSH1 0x11 PUSH1 0x4 MSTORE PUSH1 0x24 PUSH1 0x0 REVERT JUMPDEST SWAP1 SWAP2 PUSH1 0x20 DUP3 RETURNDATASIZE PUSH1 0x20 GT PUSH2 0xA7C JUMPI JUMPDEST DUP2 PUSH2 0xA6B PUSH1 0x20 SWAP4 DUP4 PUSH2 0x203A JUMP JUMPDEST DUP2 ADD SUB SLT PUSH2 0x13C JUMPI POP MLOAD SWAP1 CODESIZE PUSH2 0x939 JUMP JUMPDEST RETURNDATASIZE SWAP2 POP PUSH2 0xA5E JUMP JUMPDEST PUSH1 0x40 MLOAD PUSH3 0x461BCD PUSH1 0xE5 SHL DUP2 MSTORE PUSH1 0x20 PUSH1 0x4 DUP3 ADD MSTORE PUSH1 0x26 PUSH1 0x24 DUP3 ADD MSTORE PUSH32 0x43616E6E6F7420756E7374616B65206D6F7265207468616E207374616B656420 PUSH1 0x44 DUP3 ADD MSTORE PUSH6 0x185B5BDD5B9D PUSH1 0xD2 SHL PUSH1 0x64 DUP3 ADD MSTORE PUSH1 0x84 SWAP1 REVERT JUMPDEST PUSH4 0x4E487B71 PUSH1 0xE0 SHL DUP7 MSTORE PUSH1 0x11 PUSH1 0x4 MSTORE PUSH1 0x24 DUP7 REVERT JUMPDEST POP SWAP3 SWAP5 POP PUSH2 0x702 SWAP1 PUSH2 0x2272 JUMP JUMPDEST POP SWAP3 SWAP2 SWAP1 POP PUSH2 0x715 JUMP JUMPDEST POP DUP3 ISZERO ISZERO PUSH2 0x50D JUMP JUMPDEST PUSH1 0x40 MLOAD PUSH3 0x461BCD PUSH1 0xE5 SHL DUP2 MSTORE PUSH1 0x20 PUSH1 0x4 DUP3 ADD MSTORE PUSH1 0x11 PUSH1 0x24 DUP3 ADD MSTORE PUSH17 0x496E76616C696420425443207072696365 PUSH1 0x78 SHL PUSH1 0x44 DUP3 ADD MSTORE PUSH1 0x64 SWAP1 REVERT JUMPDEST PUSH2 0xB5D SWAP1 PUSH1 0x20 RETURNDATASIZE PUSH1 0x20 GT PUSH2 0x69D JUMPI PUSH2 0x68E DUP2 DUP4 PUSH2 0x203A JUMP JUMPDEST POP CODESIZE PUSH2 0x4C6 JUMP JUMPDEST PUSH1 0x40 MLOAD RETURNDATASIZE DUP8 DUP3 RETURNDATACOPY RETURNDATASIZE SWAP1 REVERT JUMPDEST PUSH1 0x40 MLOAD PUSH3 0x461BCD PUSH1 0xE5 SHL DUP2 MSTORE PUSH1 0x20 PUSH1 0x4 DUP3 ADD MSTORE PUSH1 0x17 PUSH1 0x24 DUP3 ADD MSTORE PUSH32 0x4F6E6C7920626F72726F7765722063616E207265706179000000000000000000 PUSH1 0x44 DUP3 ADD MSTORE PUSH1 0x64 SWAP1 REVERT JUMPDEST POP CALLVALUE PUSH2 0x13C JUMPI PUSH1 0x20 CALLDATASIZE PUSH1 0x3 NOT ADD SLT PUSH2 0x13C JUMPI PUSH1 0x4 CALLDATALOAD PUSH1 0x1 PUSH1 0x1 PUSH1 0xA0 SHL SUB DUP2 DUP2 AND SWAP2 DUP3 SWAP1 SUB PUSH2 0x43D JUMPI PUSH2 0xBEB SWAP1 PUSH1 0x8 SLOAD AND CALLER EQ PUSH2 0x2370 JUMP JUMPDEST PUSH1 0x1 PUSH1 0x1 PUSH1 0x60 SHL SUB PUSH1 0xA0 SHL PUSH1 0x3 SLOAD AND OR PUSH1 0x3 SSTORE DUP1 RETURN JUMPDEST POP CALLVALUE PUSH2 0x13C JUMPI PUSH1 0x20 SWAP1 DUP2 PUSH1 0x3 NOT CALLDATASIZE ADD SLT PUSH2 0x13C JUMPI SWAP1 PUSH1 0x4 CALLDATALOAD DUP3 MSTORE PUSH1 0x5 DUP2 MSTORE PUSH1 0xB PUSH1 0x40 DUP4 KECCAK256 ADD DUP1 SLOAD PUSH2 0xC31 DUP2 PUSH2 0x210C JUMP JUMPDEST SWAP1 PUSH2 0xC3F PUSH1 0x40 MLOAD SWAP3 DUP4 PUSH2 0x203A JUMP JUMPDEST DUP1 DUP3 MSTORE DUP4 DUP3 ADD DUP1 SWAP4 DUP7 MSTORE DUP5 DUP7 KECCAK256 DUP7 SWAP2 JUMPDEST DUP4 DUP4 LT PUSH2 0xCB3 JUMPI POP POP POP POP PUSH1 0x40 MLOAD SWAP3 DUP1 DUP5 ADD SWAP2 DUP2 DUP6 MSTORE MLOAD DUP1 SWAP3 MSTORE PUSH1 0x40 DUP5 ADD SWAP3 SWAP5 JUMPDEST DUP3 DUP2 LT PUSH2 0xC7D JUMPI DUP5 DUP5 SUB DUP6 RETURN JUMPDEST DUP6 MLOAD DUP1 MLOAD DUP6 MSTORE DUP1 DUP4 ADD MLOAD DUP6 DUP5 ADD MSTORE PUSH1 0x40 DUP1 DUP3 ADD MLOAD ISZERO ISZERO SWAP1 DUP7 ADD MSTORE PUSH1 0x60 SWAP1 DUP2 ADD MLOAD SWAP1 DUP6 ADD MSTORE SWAP5 DUP2 ADD SWAP5 PUSH1 0x80 SWAP1 SWAP4 ADD SWAP3 PUSH1 0x1 ADD PUSH2 0xC70 JUMP JUMPDEST PUSH1 0x4 DUP8 PUSH1 0x1 SWAP3 PUSH1 0x40 SWAP11 SWAP10 SWAP8 SWAP9 SWAP11 MLOAD PUSH2 0xCCA DUP2 PUSH2 0x1FEC JUMP JUMPDEST DUP6 SLOAD DUP2 MSTORE DUP5 DUP7 ADD SLOAD DUP4 DUP3 ADD MSTORE PUSH1 0xFF PUSH1 0x2 DUP8 ADD SLOAD AND ISZERO ISZERO PUSH1 0x40 DUP3 ADD MSTORE PUSH1 0x3 DUP7 ADD SLOAD PUSH1 0x60 DUP3 ADD MSTORE DUP2 MSTORE ADD SWAP3 ADD SWAP3 ADD SWAP2 SWAP1 SWAP7 SWAP5 SWAP4 SWAP6 SWAP7 PUSH2 0xC4F JUMP JUMPDEST POP CALLVALUE PUSH2 0x13C JUMPI PUSH1 0xA0 CALLDATASIZE PUSH1 0x3 NOT ADD SLT PUSH2 0x13C JUMPI PUSH1 0x64 CALLDATALOAD PUSH8 0xFFFFFFFFFFFFFFFF DUP2 GT PUSH2 0x186B JUMPI PUSH2 0xD34 SWAP1 CALLDATASIZE SWAP1 PUSH1 0x4 ADD PUSH2 0x1F53 JUMP JUMPDEST SWAP1 PUSH1 0x84 CALLDATALOAD PUSH8 0xFFFFFFFFFFFFFFFF DUP2 GT PUSH2 0x1867 JUMPI PUSH2 0xD55 SWAP1 CALLDATASIZE SWAP1 PUSH1 0x4 ADD PUSH2 0x1F53 JUMP JUMPDEST SWAP3 PUSH1 0x4 CALLDATALOAD ISZERO PUSH2 0x1831 JUMPI PUSH1 0x24 CALLDATALOAD ISZERO PUSH2 0x17F9 JUMPI CALLER DUP6 MSTORE PUSH1 0x6 PUSH1 0x20 MSTORE PUSH1 0xFF PUSH1 0x40 DUP7 KECCAK256 SLOAD AND PUSH2 0x17A8 JUMPI DUP4 DUP2 SUB PUSH2 0x174E JUMPI DUP1 ISZERO PUSH2 0x1713 JUMPI PUSH1 0x14 PUSH1 0x4 CALLDATALOAD MUL SWAP2 PUSH1 0x4 CALLDATALOAD DUP4 DIV PUSH1 0x14 SUB PUSH2 0xAD8 JUMPI PUSH2 0xDA9 PUSH1 0x64 DUP5 DIV PUSH1 0x4 CALLDATALOAD PUSH2 0x2265 JUMP JUMPDEST PUSH1 0x9 SLOAD PUSH1 0x40 MLOAD PUSH4 0x23B872DD PUSH1 0xE0 SHL DUP2 MSTORE CALLER PUSH1 0x4 DUP3 ADD MSTORE ADDRESS PUSH1 0x24 DUP3 ADD MSTORE PUSH1 0x64 DUP1 DUP8 DIV PUSH1 0x44 DUP4 ADD MSTORE SWAP3 SWAP7 SWAP3 SWAP1 SWAP2 PUSH1 0x20 SWAP2 DUP4 SWAP2 DUP3 SWAP1 DUP13 SWAP1 PUSH1 0x1 PUSH1 0x1 PUSH1 0xA0 SHL SUB AND GAS CALL DUP1 ISZERO PUSH2 0x1708 JUMPI PUSH2 0x16E9 JUMPI JUMPDEST POP SWAP1 DUP5 SWAP3 SWAP2 PUSH1 0x40 MLOAD PUSH1 0x20 DUP2 ADD SWAP1 CALLER PUSH1 0x60 SHL DUP3 MSTORE TIMESTAMP PUSH1 0x34 DUP3 ADD MSTORE PUSH1 0x34 DUP2 MSTORE PUSH2 0xE19 DUP2 PUSH2 0x201E JUMP JUMPDEST MLOAD SWAP1 KECCAK256 SWAP7 DUP8 DUP10 MSTORE PUSH1 0x5 PUSH1 0x20 MSTORE PUSH1 0x64 PUSH1 0x40 DUP11 KECCAK256 SWAP7 DUP10 DUP9 SSTORE PUSH1 0x1 DUP9 ADD CALLER PUSH1 0x1 PUSH1 0x1 PUSH1 0x60 SHL SUB PUSH1 0xA0 SHL DUP3 SLOAD AND OR SWAP1 SSTORE DUP7 PUSH1 0x2 DUP10 ADD SSTORE DIV PUSH1 0x3 DUP8 ADD SSTORE PUSH1 0x44 CALLDATALOAD PUSH1 0x4 DUP8 ADD SSTORE PUSH1 0x24 CALLDATALOAD PUSH1 0x5 DUP8 ADD SSTORE TIMESTAMP PUSH1 0x7 DUP8 ADD SSTORE PUSH2 0xE6F PUSH2 0x2073 JUMP JUMPDEST PUSH1 0x8 DUP8 ADD SSTORE PUSH1 0x9 DUP7 ADD DUP1 SLOAD PUSH1 0xFF NOT AND PUSH1 0x1 OR SWAP1 SSTORE PUSH1 0xD DUP7 ADD DUP6 SWAP1 SSTORE DUP9 SWAP4 DUP5 JUMPDEST DUP2 DUP2 LT PUSH2 0x1498 JUMPI POP POP POP POP POP SUB PUSH2 0x1442 JUMPI PUSH8 0xDE0B6B3A7640000 PUSH1 0x44 CALLDATALOAD MUL SWAP1 PUSH1 0x44 CALLDATALOAD DUP3 DIV PUSH8 0xDE0B6B3A7640000 EQ PUSH1 0x44 CALLDATALOAD ISZERO OR ISZERO PUSH2 0x1279 JUMPI PUSH2 0xED4 PUSH2 0x4B0 DUP4 DIV DUP5 PUSH2 0x2141 JUMP JUMPDEST PUSH2 0x4B0 DUP4 DIV PUSH8 0xDE0B6B3A7640000 ADD DUP1 PUSH8 0xDE0B6B3A7640000 GT PUSH2 0x141A JUMPI DUP1 ISZERO PUSH2 0x142E JUMPI PUSH2 0xF0F SWAP1 PUSH1 0x24 CALLDATALOAD SWAP1 PUSH8 0xDE0B6B3A7640000 DIV PUSH2 0x22AD JUMP JUMPDEST PUSH8 0xDE0B6B3A7640000 SUB SWAP1 PUSH8 0xDE0B6B3A7640000 DUP3 GT PUSH2 0x141A JUMPI PUSH1 0x6 SWAP2 PUSH2 0xF35 SWAP2 PUSH2 0x2154 JUMP JUMPDEST SWAP2 ADD SSTORE DUP3 DUP5 MSTORE PUSH1 0x5 PUSH1 0x20 MSTORE PUSH1 0x40 DUP5 KECCAK256 SWAP2 PUSH1 0x6 DUP4 ADD SLOAD DUP6 SWAP2 JUMPDEST PUSH1 0x24 CALLDATALOAD DUP4 LT PUSH2 0x12C0 JUMPI DUP7 DUP7 PUSH1 0x7 SLOAD PUSH1 0x1 PUSH1 0x40 SHL DUP2 LT ISZERO PUSH2 0x12AC JUMPI DUP1 PUSH1 0x1 PUSH2 0xF77 SWAP3 ADD PUSH1 0x7 SSTORE PUSH2 0x1F9F JUMP JUMPDEST DUP2 SLOAD PUSH1 0x0 NOT PUSH1 0x3 SWAP3 SWAP1 SWAP3 SHL SWAP2 DUP3 SHL NOT AND SWAP1 DUP4 SWAP1 SHL OR SWAP1 SSTORE CALLER DUP3 MSTORE PUSH1 0x6 PUSH1 0x20 SWAP1 DUP2 MSTORE PUSH1 0x40 DUP1 DUP5 KECCAK256 DUP1 SLOAD PUSH1 0xFF NOT AND PUSH1 0x1 SWAP1 DUP2 OR SWAP1 SWAP2 SSTORE DUP4 DUP6 MSTORE PUSH1 0x5 DUP4 MSTORE DUP2 DUP6 KECCAK256 PUSH1 0x2 DUP2 ADD SLOAD PUSH1 0x9 SLOAD SWAP3 SLOAD SWAP4 MLOAD PUSH4 0x95EA7B3 PUSH1 0xE0 SHL DUP2 MSTORE PUSH1 0x1 PUSH1 0x1 PUSH1 0xA0 SHL SUB SWAP5 DUP6 AND PUSH1 0x4 DUP3 ADD MSTORE PUSH1 0x24 DUP2 ADD DUP3 SWAP1 MSTORE SWAP2 SWAP5 SWAP1 SWAP4 SWAP2 SWAP3 SWAP1 SWAP2 DUP4 SWAP2 PUSH1 0x44 SWAP2 DUP4 SWAP2 DUP11 SWAP2 AND GAS CALL DUP1 ISZERO PUSH2 0xB64 JUMPI PUSH2 0x128D JUMPI JUMPDEST POP PUSH1 0x40 MLOAD SWAP1 PUSH2 0x100F DUP3 PUSH2 0x201E JUMP JUMPDEST PUSH1 0x2 DUP3 MSTORE PUSH1 0x40 CALLDATASIZE PUSH1 0x20 DUP5 ADD CALLDATACOPY PUSH1 0x9 SLOAD PUSH1 0x1 PUSH1 0x1 PUSH1 0xA0 SHL SUB AND PUSH2 0x1030 DUP4 PUSH2 0x2124 JUMP JUMPDEST MSTORE PUSH1 0x2 SLOAD PUSH1 0x1 PUSH1 0x1 PUSH1 0xA0 SHL SUB AND PUSH2 0x1046 DUP4 PUSH2 0x2131 JUMP JUMPDEST MSTORE DUP1 PUSH1 0x5F DUP2 MUL DIV PUSH1 0x5F EQ DUP2 ISZERO OR ISZERO PUSH2 0x1279 JUMPI PUSH1 0x1 SLOAD PUSH1 0x1 PUSH1 0x1 PUSH1 0xA0 SHL SUB AND SWAP1 TIMESTAMP PUSH2 0x12C DUP2 ADD LT PUSH2 0xAD8 JUMPI SWAP2 DUP6 SWAP2 PUSH2 0x10A4 SWAP4 DUP4 PUSH1 0x40 MLOAD DUP1 SWAP7 DUP2 SWAP6 DUP3 SWAP5 PUSH4 0x38ED1739 PUSH1 0xE0 SHL DUP5 MSTORE PUSH2 0x12C TIMESTAMP ADD SWAP2 ADDRESS SWAP2 PUSH1 0x64 PUSH1 0x5F DUP3 MUL DIV SWAP1 PUSH1 0x4 DUP8 ADD PUSH2 0x21FB JUMP JUMPDEST SUB SWAP3 GAS CALL DUP1 ISZERO PUSH2 0x126E JUMPI PUSH2 0x10BF SWAP2 DUP6 SWAP2 PUSH2 0x124C JUMPI JUMPDEST POP PUSH2 0x2131 JUMP JUMPDEST MLOAD DUP3 DUP5 MSTORE PUSH1 0x5 PUSH1 0x20 SWAP1 DUP2 MSTORE PUSH1 0x40 DUP1 DUP7 KECCAK256 PUSH1 0x2 SLOAD DUP8 SLOAD SWAP3 MLOAD PUSH4 0x95EA7B3 PUSH1 0xE0 SHL DUP2 MSTORE PUSH1 0x1 PUSH1 0x1 PUSH1 0xA0 SHL SUB SWAP4 DUP5 AND PUSH1 0x4 DUP3 ADD MSTORE PUSH1 0x24 DUP2 ADD DUP7 SWAP1 MSTORE SWAP2 SWAP4 SWAP2 SWAP3 DUP4 SWAP2 PUSH1 0x44 SWAP2 DUP4 SWAP2 DUP12 SWAP2 AND GAS CALL DUP1 ISZERO PUSH2 0x1222 JUMPI PUSH2 0x122D JUMPI JUMPDEST POP DUP5 SLOAD PUSH1 0x2 SLOAD DUP7 SWAP2 PUSH1 0x1 PUSH1 0x1 PUSH1 0xA0 SHL SUB SWAP2 DUP3 AND SWAP2 AND DUP1 EXTCODESIZE ISZERO PUSH2 0x43D JUMPI PUSH1 0x84 DUP4 SWAP3 PUSH1 0x40 MLOAD SWAP5 DUP6 SWAP4 DUP5 SWAP3 PUSH4 0x617BA037 PUSH1 0xE0 SHL DUP5 MSTORE PUSH1 0x4 DUP5 ADD MSTORE DUP9 PUSH1 0x24 DUP5 ADD MSTORE ADDRESS PUSH1 0x44 DUP5 ADD MSTORE DUP2 PUSH1 0x64 DUP5 ADD MSTORE GAS CALL DUP1 ISZERO PUSH2 0x1222 JUMPI PUSH2 0x11F1 JUMPI JUMPDEST POP PUSH1 0x80 SWAP3 PUSH32 0xAEEC09AF87559B9077DA2E499D1FAD2E228D7C24CB4B566FE61976820ABAADDA PUSH1 0x60 DUP5 PUSH1 0x2 DUP6 PUSH32 0x65410888FB30EDD04F6ACFB2F6CFD92AAF0EBB9B5303B6286D65D0B031B5B7F7 SWAP10 SWAP8 PUSH1 0xC PUSH1 0x3 SWAP9 ADD SSTORE ADD SLOAD SWAP1 PUSH1 0x40 MLOAD SWAP2 DUP8 DUP4 MSTORE PUSH1 0x20 DUP4 ADD MSTORE PUSH1 0x40 DUP3 ADD MSTORE LOG1 ADD SLOAD PUSH1 0x40 MLOAD SWAP2 DUP3 MSTORE PUSH1 0x4 CALLDATALOAD PUSH1 0x20 DUP4 ADD MSTORE PUSH1 0x40 DUP3 ADD MSTORE CALLER PUSH1 0x60 DUP3 ADD MSTORE LOG1 DUP1 RETURN JUMPDEST PUSH8 0xFFFFFFFFFFFFFFFF DUP2 SWAP7 SWAP3 SWAP7 GT PUSH2 0x120E JUMPI PUSH1 0x40 MSTORE SWAP4 PUSH1 0x80 PUSH2 0x1168 JUMP JUMPDEST PUSH4 0x4E487B71 PUSH1 0xE0 SHL DUP3 MSTORE PUSH1 0x41 PUSH1 0x4 MSTORE PUSH1 0x24 DUP3 REVERT JUMPDEST PUSH1 0x40 MLOAD RETURNDATASIZE DUP9 DUP3 RETURNDATACOPY RETURNDATASIZE SWAP1 REVERT JUMPDEST PUSH2 0x1245 SWAP1 PUSH1 0x20 RETURNDATASIZE PUSH1 0x20 GT PUSH2 0x69D JUMPI PUSH2 0x68E DUP2 DUP4 PUSH2 0x203A JUMP JUMPDEST POP DUP6 PUSH2 0x1112 JUMP JUMPDEST PUSH2 0x1268 SWAP2 POP RETURNDATASIZE DUP1 DUP8 DUP4 RETURNDATACOPY PUSH2 0x1260 DUP2 DUP4 PUSH2 0x203A JUMP JUMPDEST DUP2 ADD SWAP1 PUSH2 0x2181 JUMP JUMPDEST DUP6 PUSH2 0x10B9 JUMP JUMPDEST PUSH1 0x40 MLOAD RETURNDATASIZE DUP7 DUP3 RETURNDATACOPY RETURNDATASIZE SWAP1 REVERT JUMPDEST PUSH4 0x4E487B71 PUSH1 0xE0 SHL DUP6 MSTORE PUSH1 0x11 PUSH1 0x4 MSTORE PUSH1 0x24 DUP6 REVERT JUMPDEST PUSH2 0x12A5 SWAP1 PUSH1 0x20 RETURNDATASIZE PUSH1 0x20 GT PUSH2 0x69D JUMPI PUSH2 0x68E DUP2 DUP4 PUSH2 0x203A JUMP JUMPDEST POP DUP5 PUSH2 0x1001 JUMP JUMPDEST PUSH4 0x4E487B71 PUSH1 0xE0 SHL DUP4 MSTORE PUSH1 0x41 PUSH1 0x4 MSTORE PUSH1 0x24 DUP4 REVERT JUMPDEST PUSH8 0xDE0B6B3A7640000 PUSH2 0x12D7 PUSH2 0x4B0 DUP7 DIV DUP4 PUSH2 0x2141 JUMP JUMPDEST DIV SWAP1 PUSH2 0x12E3 DUP3 DUP5 PUSH2 0x2265 JUMP JUMPDEST SWAP2 PUSH1 0x24 CALLDATALOAD PUSH1 0x0 NOT DUP2 ADD GT PUSH2 0x1406 JUMPI PUSH1 0x24 CALLDATALOAD PUSH1 0x0 NOT ADD DUP6 EQ PUSH2 0x13F1 JUMPI JUMPDEST PUSH3 0x278D00 DUP6 DUP2 DUP2 MUL DIV DUP2 EQ DUP7 ISZERO OR ISZERO PUSH2 0x13DD JUMPI PUSH2 0x131E SWAP1 DUP7 MUL TIMESTAMP PUSH2 0x2174 JUMP JUMPDEST PUSH1 0x40 MLOAD SWAP2 PUSH2 0x132B DUP4 PUSH2 0x1FEC JUMP JUMPDEST DUP5 DUP4 MSTORE PUSH1 0x20 DUP4 ADD MSTORE DUP10 PUSH1 0x40 DUP4 ADD MSTORE PUSH1 0x60 DUP3 ADD MSTORE PUSH1 0xB DUP8 ADD SLOAD PUSH1 0x1 PUSH1 0x40 SHL DUP2 LT ISZERO PUSH2 0x13C9 JUMPI DUP1 PUSH1 0x1 PUSH2 0x1365 SWAP3 ADD PUSH1 0xB DUP11 ADD SSTORE PUSH1 0xB DUP10 ADD PUSH2 0x2354 JUMP JUMPDEST SWAP2 SWAP1 SWAP2 PUSH2 0x13B5 JUMPI SWAP2 PUSH2 0x13AF SWAP4 SWAP2 PUSH1 0x3 PUSH1 0x60 DUP6 PUSH2 0x13A9 SWAP7 MLOAD DUP5 SSTORE PUSH1 0x20 DUP2 ADD MLOAD PUSH1 0x1 DUP6 ADD SSTORE PUSH1 0x2 DUP5 ADD PUSH1 0x40 DUP3 ADD MLOAD ISZERO ISZERO PUSH1 0xFF DUP1 NOT DUP4 SLOAD AND SWAP2 AND OR SWAP1 SSTORE ADD MLOAD SWAP2 ADD SSTORE PUSH2 0x2265 JUMP JUMPDEST SWAP3 PUSH2 0x2272 JUMP JUMPDEST SWAP2 PUSH2 0xF4D JUMP JUMPDEST PUSH4 0x4E487B71 PUSH1 0xE0 SHL DUP11 MSTORE PUSH1 0x4 DUP11 SWAP1 MSTORE PUSH1 0x24 DUP11 REVERT JUMPDEST PUSH4 0x4E487B71 PUSH1 0xE0 SHL DUP11 MSTORE PUSH1 0x41 PUSH1 0x4 MSTORE PUSH1 0x24 DUP11 REVERT JUMPDEST PUSH4 0x4E487B71 PUSH1 0xE0 SHL DUP11 MSTORE PUSH1 0x11 PUSH1 0x4 MSTORE PUSH1 0x24 DUP11 REVERT JUMPDEST SWAP3 POP SWAP1 POP DUP1 PUSH2 0x1400 DUP4 DUP3 PUSH2 0x2174 JUMP JUMPDEST SWAP3 PUSH2 0x12FF JUMP JUMPDEST PUSH4 0x4E487B71 PUSH1 0xE0 SHL DUP10 MSTORE PUSH1 0x11 PUSH1 0x4 MSTORE PUSH1 0x24 DUP10 REVERT JUMPDEST PUSH4 0x4E487B71 PUSH1 0xE0 SHL DUP8 MSTORE PUSH1 0x11 PUSH1 0x4 MSTORE PUSH1 0x24 DUP8 REVERT JUMPDEST PUSH4 0x4E487B71 PUSH1 0xE0 SHL DUP8 MSTORE PUSH1 0x12 PUSH1 0x4 MSTORE PUSH1 0x24 DUP8 REVERT JUMPDEST PUSH1 0x40 MLOAD PUSH3 0x461BCD PUSH1 0xE5 SHL DUP2 MSTORE PUSH1 0x20 PUSH1 0x4 DUP3 ADD MSTORE PUSH1 0x28 PUSH1 0x24 DUP3 ADD MSTORE PUSH32 0x436F6C6C656374656420616D6F756E7420646F65736E2774206D617463682070 PUSH1 0x44 DUP3 ADD MSTORE PUSH8 0x1C9A5B98DA5C185B PUSH1 0xC2 SHL PUSH1 0x64 DUP3 ADD MSTORE PUSH1 0x84 SWAP1 REVERT JUMPDEST SWAP1 SWAP2 SWAP3 SWAP4 SWAP5 SWAP6 POP PUSH2 0x14AA DUP2 DUP4 DUP7 PUSH2 0x2281 JUMP JUMPDEST CALLDATALOAD PUSH1 0x1 PUSH1 0x1 PUSH1 0xA0 SHL SUB DUP2 AND DUP2 SUB PUSH2 0x16E5 JUMPI PUSH2 0x14C6 DUP3 DUP6 DUP9 PUSH2 0x2281 JUMP JUMPDEST CALLDATALOAD SWAP7 DUP8 ISZERO PUSH2 0x16A8 JUMPI DUP12 SWAP1 PUSH1 0x20 PUSH2 0x151C PUSH1 0x1 DUP1 PUSH1 0xA0 SHL SUB PUSH1 0x9 SLOAD AND DUP12 PUSH1 0x40 MLOAD SWAP6 DUP7 DUP1 SWAP5 DUP2 SWAP4 PUSH4 0x23B872DD PUSH1 0xE0 SHL DUP4 MSTORE ADDRESS DUP12 PUSH1 0x4 DUP6 ADD PUSH1 0x40 SWAP2 SWAP5 SWAP4 SWAP3 SWAP5 PUSH1 0x60 DUP3 ADD SWAP6 PUSH1 0x1 DUP1 PUSH1 0xA0 SHL SUB DUP1 SWAP3 AND DUP4 MSTORE AND PUSH1 0x20 DUP3 ADD MSTORE ADD MSTORE JUMP JUMPDEST SUB SWAP3 GAS CALL SWAP1 DUP2 ISZERO PUSH2 0x169D JUMPI PUSH2 0x1538 SWAP3 DUP11 SWAP3 PUSH2 0x167E JUMPI JUMPDEST POP PUSH2 0x2174 JUMP JUMPDEST SWAP7 PUSH1 0x1 DUP1 PUSH1 0xA0 SHL SUB DUP3 AND DUP13 MSTORE PUSH1 0x4 PUSH1 0x20 MSTORE PUSH1 0x40 DUP13 KECCAK256 PUSH2 0x1558 DUP3 DUP3 SLOAD PUSH2 0x2174 JUMP JUMPDEST SWAP1 SSTORE PUSH2 0x4B0 PUSH2 0x1574 PUSH1 0x24 CALLDATALOAD PUSH2 0x156F PUSH1 0x44 CALLDATALOAD DUP6 PUSH2 0x2141 JUMP JUMPDEST PUSH2 0x2141 JUMP JUMPDEST DIV SWAP1 PUSH1 0x40 MLOAD SWAP3 DUP4 PUSH1 0xA0 DUP2 ADD LT PUSH8 0xFFFFFFFFFFFFFFFF PUSH1 0xA0 DUP7 ADD GT OR PUSH2 0x166A JUMPI PUSH1 0xA0 DUP5 ADD PUSH1 0x40 MSTORE PUSH1 0x1 DUP1 PUSH1 0xA0 SHL SUB AND DUP4 MSTORE PUSH1 0x20 DUP4 ADD MSTORE PUSH1 0x40 DUP3 ADD MSTORE DUP11 PUSH1 0x60 DUP3 ADD MSTORE DUP11 PUSH1 0x80 DUP3 ADD MSTORE PUSH1 0xA DUP9 ADD SLOAD PUSH1 0x1 PUSH1 0x40 SHL DUP2 LT ISZERO PUSH2 0x1656 JUMPI DUP1 PUSH1 0x1 PUSH2 0x15E1 SWAP3 ADD PUSH1 0xA DUP12 ADD SSTORE PUSH1 0xA DUP11 ADD PUSH2 0x2291 JUMP JUMPDEST SWAP2 SWAP1 SWAP2 PUSH2 0x1642 JUMPI DUP1 MLOAD DUP3 SLOAD PUSH1 0x1 PUSH1 0x1 PUSH1 0xA0 SHL SUB NOT AND PUSH1 0x1 PUSH1 0x1 PUSH1 0xA0 SHL SUB SWAP2 SWAP1 SWAP2 AND OR DUP3 SSTORE PUSH1 0x20 DUP2 ADD MLOAD PUSH1 0x1 DUP4 ADD SSTORE PUSH1 0x40 DUP2 ADD MLOAD PUSH1 0x2 DUP4 ADD SSTORE PUSH1 0x60 DUP2 ADD MLOAD PUSH1 0x3 DUP4 ADD SSTORE PUSH1 0x80 ADD MLOAD PUSH1 0x4 SWAP1 SWAP2 ADD SSTORE PUSH2 0x1636 SWAP1 PUSH2 0x2272 JUMP JUMPDEST SWAP1 DUP8 SWAP6 SWAP5 SWAP4 SWAP3 SWAP2 PUSH2 0xE8E JUMP JUMPDEST PUSH4 0x4E487B71 PUSH1 0xE0 SHL DUP13 MSTORE PUSH1 0x4 DUP13 SWAP1 MSTORE PUSH1 0x24 DUP13 REVERT JUMPDEST PUSH4 0x4E487B71 PUSH1 0xE0 SHL DUP13 MSTORE PUSH1 0x41 PUSH1 0x4 MSTORE PUSH1 0x24 DUP13 REVERT JUMPDEST PUSH4 0x4E487B71 PUSH1 0xE0 SHL DUP15 MSTORE PUSH1 0x41 PUSH1 0x4 MSTORE PUSH1 0x24 DUP15 REVERT JUMPDEST PUSH2 0x1696 SWAP1 PUSH1 0x20 RETURNDATASIZE PUSH1 0x20 GT PUSH2 0x69D JUMPI PUSH2 0x68E DUP2 DUP4 PUSH2 0x203A JUMP JUMPDEST POP CODESIZE PUSH2 0x1532 JUMP JUMPDEST PUSH1 0x40 MLOAD RETURNDATASIZE DUP16 DUP3 RETURNDATACOPY RETURNDATASIZE SWAP1 REVERT JUMPDEST PUSH1 0x40 MLOAD PUSH3 0x461BCD PUSH1 0xE5 SHL DUP2 MSTORE PUSH1 0x20 PUSH1 0x4 DUP3 ADD MSTORE PUSH1 0x15 PUSH1 0x24 DUP3 ADD MSTORE PUSH21 0x125B9D985B1A59081B195B99195C88185B5BDD5B9D PUSH1 0x5A SHL PUSH1 0x44 DUP3 ADD MSTORE PUSH1 0x64 SWAP1 REVERT JUMPDEST DUP11 DUP1 REVERT JUMPDEST PUSH2 0x1701 SWAP1 PUSH1 0x20 RETURNDATASIZE PUSH1 0x20 GT PUSH2 0x69D JUMPI PUSH2 0x68E DUP2 DUP4 PUSH2 0x203A JUMP JUMPDEST POP CODESIZE PUSH2 0xDF3 JUMP JUMPDEST PUSH1 0x40 MLOAD RETURNDATASIZE DUP11 DUP3 RETURNDATACOPY RETURNDATASIZE SWAP1 REVERT JUMPDEST PUSH1 0x40 MLOAD PUSH3 0x461BCD PUSH1 0xE5 SHL DUP2 MSTORE PUSH1 0x20 PUSH1 0x4 DUP3 ADD MSTORE PUSH1 0x13 PUSH1 0x24 DUP3 ADD MSTORE PUSH19 0x139BC81B195B99195C9CC81C1C9BDD9A591959 PUSH1 0x6A SHL PUSH1 0x44 DUP3 ADD MSTORE PUSH1 0x64 SWAP1 REVERT JUMPDEST PUSH1 0x40 MLOAD PUSH3 0x461BCD PUSH1 0xE5 SHL DUP2 MSTORE PUSH1 0x20 PUSH1 0x4 DUP3 ADD MSTORE PUSH1 0x2C PUSH1 0x24 DUP3 ADD MSTORE PUSH32 0x4C656E6465722061646472657373657320616E6420616D6F756E7473206C656E PUSH1 0x44 DUP3 ADD MSTORE PUSH12 0xCEE8D040DAD2E6DAC2E8C6D PUSH1 0xA3 SHL PUSH1 0x64 DUP3 ADD MSTORE PUSH1 0x84 SWAP1 REVERT JUMPDEST PUSH1 0x40 MLOAD PUSH3 0x461BCD PUSH1 0xE5 SHL DUP2 MSTORE PUSH1 0x20 PUSH1 0x4 DUP3 ADD MSTORE PUSH1 0x23 PUSH1 0x24 DUP3 ADD MSTORE PUSH32 0x426F72726F77657220616C72656164792068617320616E20616374697665206C PUSH1 0x44 DUP3 ADD MSTORE PUSH3 0x37B0B7 PUSH1 0xE9 SHL PUSH1 0x64 DUP3 ADD MSTORE PUSH1 0x84 SWAP1 REVERT JUMPDEST PUSH1 0x40 MLOAD PUSH3 0x461BCD PUSH1 0xE5 SHL DUP2 MSTORE PUSH1 0x20 PUSH1 0x4 DUP3 ADD MSTORE PUSH1 0x10 PUSH1 0x24 DUP3 ADD MSTORE PUSH16 0x24B73B30B634B210323AB930BA34B7B7 PUSH1 0x81 SHL PUSH1 0x44 DUP3 ADD MSTORE PUSH1 0x64 SWAP1 REVERT JUMPDEST PUSH1 0x40 MLOAD PUSH3 0x461BCD PUSH1 0xE5 SHL DUP2 MSTORE PUSH1 0x20 PUSH1 0x4 DUP3 ADD MSTORE PUSH1 0xE PUSH1 0x24 DUP3 ADD MSTORE PUSH14 0x125B9D985B1A5908185B5BDD5B9D PUSH1 0x92 SHL PUSH1 0x44 DUP3 ADD MSTORE PUSH1 0x64 SWAP1 REVERT JUMPDEST DUP4 DUP1 REVERT JUMPDEST POP DUP1 REVERT JUMPDEST POP CALLVALUE PUSH2 0x13C JUMPI PUSH1 0x20 CALLDATASIZE PUSH1 0x3 NOT ADD SLT PUSH2 0x13C JUMPI PUSH1 0x4 CALLDATALOAD PUSH1 0x1 PUSH1 0x1 PUSH1 0xA0 SHL SUB DUP2 DUP2 AND SWAP2 DUP3 SWAP1 SUB PUSH2 0x43D JUMPI PUSH2 0x18A6 SWAP1 PUSH1 0x8 SLOAD AND CALLER EQ PUSH2 0x2370 JUMP JUMPDEST PUSH1 0x1 PUSH1 0x1 PUSH1 0x60 SHL SUB PUSH1 0xA0 SHL PUSH1 0x1 SLOAD AND OR PUSH1 0x1 SSTORE DUP1 RETURN JUMPDEST POP CALLVALUE PUSH2 0x13C JUMPI PUSH1 0x20 CALLDATASIZE PUSH1 0x3 NOT ADD SLT PUSH2 0x13C JUMPI PUSH1 0x4 CALLDATALOAD PUSH1 0x1 PUSH1 0x1 PUSH1 0xA0 SHL SUB DUP2 DUP2 AND SWAP2 DUP3 SWAP1 SUB PUSH2 0x43D JUMPI PUSH2 0x18F3 SWAP1 PUSH1 0x8 SLOAD AND CALLER EQ PUSH2 0x2370 JUMP JUMPDEST DUP2 SLOAD PUSH1 0x1 PUSH1 0x1 PUSH1 0xA0 SHL SUB NOT AND OR DUP2 SSTORE DUP1 RETURN JUMPDEST POP CALLVALUE PUSH2 0x13C JUMPI PUSH1 0x20 CALLDATASIZE PUSH1 0x3 NOT ADD SLT PUSH2 0x13C JUMPI PUSH1 0x4 CALLDATALOAD PUSH1 0x1 PUSH1 0x1 PUSH1 0xA0 SHL SUB DUP2 AND SWAP1 DUP2 SWAP1 SUB PUSH2 0x186B JUMPI DUP2 PUSH1 0x40 SWAP2 PUSH1 0x20 SWAP4 MSTORE PUSH1 0x4 DUP4 MSTORE KECCAK256 SLOAD PUSH1 0x40 MLOAD SWAP1 DUP2 MSTORE RETURN JUMPDEST POP CALLVALUE PUSH2 0x13C JUMPI PUSH1 0x20 DUP1 PUSH1 0x3 NOT CALLDATASIZE ADD SLT PUSH2 0x186B JUMPI PUSH1 0x4 CALLDATALOAD PUSH1 0x1 DUP1 PUSH1 0xA0 SHL SUB PUSH2 0x196E DUP2 PUSH1 0x8 SLOAD AND CALLER EQ PUSH2 0x2370 JUMP JUMPDEST DUP2 DUP5 MSTORE PUSH1 0x5 DUP4 MSTORE PUSH1 0x40 DUP5 KECCAK256 SWAP3 PUSH1 0x9 SWAP1 DUP2 DUP6 ADD SWAP2 DUP3 SLOAD SWAP3 PUSH1 0xFF PUSH2 0x1991 DUP2 DUP7 AND PUSH2 0x23C6 JUMP JUMPDEST DUP9 SWAP1 DUP10 SWAP1 PUSH1 0xB DUP11 ADD DUP1 SLOAD SWAP3 JUMPDEST DUP4 DUP2 LT PUSH2 0x1BD8 JUMPI POP POP POP POP PUSH3 0x76A700 LT ISZERO PUSH2 0x1B7E JUMPI PUSH1 0xFF NOT DUP1 SWAP5 AND SWAP1 SSTORE PUSH1 0x1 DUP1 DUP8 ADD SWAP4 DUP6 DUP6 SLOAD AND DUP10 MSTORE PUSH1 0x6 DUP5 MSTORE PUSH1 0x40 DUP10 KECCAK256 SWAP1 DUP2 SLOAD AND SWAP1 SSTORE PUSH1 0xC DUP8 ADD SLOAD DUP1 PUSH2 0x1B6E JUMPI JUMPDEST POP PUSH1 0x3 DUP1 DUP9 ADD SLOAD PUSH1 0xD DUP10 ADD SLOAD SWAP2 DUP3 PUSH2 0x1A53 JUMPI JUMPDEST DUP11 PUSH32 0xCAB88A55906C5830A49DDDD8B31D115294A5E6C4210F25FE140530A39C51DC74 DUP11 DUP11 DUP11 SLOAD AND SWAP1 PUSH2 0x1A4D PUSH2 0x1A25 PUSH2 0x2073 JUMP JUMPDEST PUSH1 0x40 DUP1 MLOAD SWAP4 DUP5 MSTORE PUSH1 0x1 PUSH1 0x1 PUSH1 0xA0 SHL SUB SWAP1 SWAP5 AND PUSH1 0x20 DUP5 ADD MSTORE SWAP3 DUP3 ADD SWAP3 SWAP1 SWAP3 MSTORE SWAP1 DUP2 SWAP1 PUSH1 0x60 DUP3 ADD SWAP1 JUMP JUMPDEST SUB SWAP1 LOG1 DUP1 RETURN JUMPDEST SWAP1 SWAP2 SWAP3 DUP1 SWAP10 PUSH1 0xA DUP13 SWAP2 ADD SWAP2 JUMPDEST PUSH2 0x1A6A JUMPI JUMPDEST POP PUSH2 0x19F2 JUMP JUMPDEST DUP2 SLOAD DUP2 LT ISZERO PUSH2 0x1B69 JUMPI PUSH2 0x1A7D DUP2 DUP4 PUSH2 0x2291 JUMP JUMPDEST POP PUSH2 0x1A8F DUP13 DUP3 ADD SLOAD DUP6 DUP4 ADD SLOAD SWAP1 PUSH2 0x2265 JUMP JUMPDEST DUP13 DUP2 ISZERO PUSH2 0x1B58 JUMPI POP PUSH8 0xDE0B6B3A7640000 SWAP1 DUP2 DUP2 MUL SWAP1 DUP2 DIV DUP3 SUB PUSH2 0x1B44 JUMPI DUP8 SWAP7 SWAP6 SWAP5 SWAP4 SWAP3 DUP16 SWAP2 SWAP3 PUSH2 0x1ACD PUSH2 0x1AC7 PUSH2 0x1B09 SWAP12 DUP15 SWAP7 PUSH2 0x2154 JUMP JUMPDEST DUP10 PUSH2 0x2141 JUMP JUMPDEST DIV SWAP2 DUP14 DUP1 DUP13 SLOAD AND SWAP3 SLOAD AND SWAP1 PUSH1 0x40 MLOAD DUP1 SWAP12 DUP2 SWAP6 DUP3 SWAP5 PUSH4 0xA9059CBB PUSH1 0xE0 SHL DUP5 MSTORE PUSH1 0x4 DUP5 ADD PUSH1 0x20 SWAP1 SWAP4 SWAP3 SWAP2 SWAP4 PUSH1 0x40 DUP2 ADD SWAP5 PUSH1 0x1 DUP1 PUSH1 0xA0 SHL SUB AND DUP2 MSTORE ADD MSTORE JUMP JUMPDEST SUB SWAP3 GAS CALL SWAP1 DUP2 ISZERO PUSH2 0x169D JUMPI DUP13 SWAP7 PUSH2 0x1B24 SWAP3 PUSH2 0x1B2E JUMPI POP PUSH2 0x2272 JUMP JUMPDEST SWAP1 SWAP2 SWAP3 SWAP4 SWAP5 PUSH2 0x1A5F JUMP JUMPDEST PUSH2 0x696 SWAP1 DUP11 RETURNDATASIZE DUP13 GT PUSH2 0x69D JUMPI PUSH2 0x68E DUP2 DUP4 PUSH2 0x203A JUMP JUMPDEST PUSH4 0x4E487B71 PUSH1 0xE0 SHL DUP16 MSTORE PUSH1 0x11 PUSH1 0x4 MSTORE PUSH1 0x24 DUP16 REVERT JUMPDEST SWAP7 SWAP6 SWAP5 SWAP4 SWAP3 SWAP1 POP PUSH2 0x1B24 SWAP2 POP PUSH2 0x2272 JUMP JUMPDEST PUSH2 0x1A64 JUMP JUMPDEST PUSH2 0x1B78 SWAP1 DUP8 PUSH2 0x2407 JUMP JUMPDEST CODESIZE PUSH2 0x19DF JUMP JUMPDEST PUSH1 0x40 MLOAD PUSH3 0x461BCD PUSH1 0xE5 SHL DUP2 MSTORE PUSH1 0x4 DUP2 ADD DUP5 SWAP1 MSTORE PUSH1 0x2C PUSH1 0x24 DUP3 ADD MSTORE PUSH32 0x4C6F616E206973206E6F74206F766572647565206265796F6E642033206D6F6E PUSH1 0x44 DUP3 ADD MSTORE PUSH12 0x1D1A1CC81A5B881D1BDD185B PUSH1 0xA2 SHL PUSH1 0x64 DUP3 ADD MSTORE PUSH1 0x84 SWAP1 REVERT JUMPDEST PUSH2 0x1BE2 DUP2 DUP4 PUSH2 0x2354 JUMP JUMPDEST POP DUP4 PUSH1 0x2 DUP3 ADD SLOAD AND PUSH2 0x1BFA JUMPI PUSH1 0x3 ADD SLOAD DUP1 TIMESTAMP GT PUSH2 0x1C09 JUMPI JUMPDEST POP PUSH2 0x1C04 SWAP1 PUSH2 0x2272 JUMP JUMPDEST PUSH2 0x199D JUMP JUMPDEST PUSH2 0x1C04 SWAP2 SWAP6 PUSH2 0x1C1B PUSH2 0x1C21 SWAP3 TIMESTAMP PUSH2 0x2265 JUMP JUMPDEST SWAP1 PUSH2 0x2174 JUMP JUMPDEST SWAP5 SWAP1 PUSH2 0x1BFA JUMP JUMPDEST POP CALLVALUE PUSH2 0x13C JUMPI PUSH1 0x20 CALLDATASIZE PUSH1 0x3 NOT ADD SLT PUSH2 0x13C JUMPI PUSH1 0x4 CALLDATALOAD PUSH1 0x1 PUSH1 0x1 PUSH1 0xA0 SHL SUB DUP2 AND SWAP1 DUP2 SWAP1 SUB PUSH2 0x186B JUMPI PUSH1 0x40 DUP3 PUSH1 0xFF SWAP3 PUSH1 0x20 SWAP5 MSTORE PUSH1 0x6 DUP5 MSTORE KECCAK256 SLOAD AND PUSH1 0x40 MLOAD SWAP1 ISZERO ISZERO DUP2 MSTORE RETURN JUMPDEST POP CALLVALUE PUSH2 0x13C JUMPI DUP1 PUSH1 0x3 NOT CALLDATASIZE ADD SLT PUSH2 0x13C JUMPI PUSH1 0x9 SLOAD PUSH1 0x40 MLOAD PUSH1 0x1 PUSH1 0x1 PUSH1 0xA0 SHL SUB SWAP1 SWAP2 AND DUP2 MSTORE PUSH1 0x20 SWAP1 RETURN JUMPDEST POP CALLVALUE PUSH2 0x13C JUMPI DUP1 PUSH1 0x3 NOT CALLDATASIZE ADD SLT PUSH2 0x13C JUMPI PUSH1 0x2 SLOAD PUSH1 0x40 MLOAD PUSH1 0x1 PUSH1 0x1 PUSH1 0xA0 SHL SUB SWAP1 SWAP2 AND DUP2 MSTORE PUSH1 0x20 SWAP1 RETURN JUMPDEST POP CALLVALUE PUSH2 0x13C JUMPI PUSH1 0x20 CALLDATASIZE PUSH1 0x3 NOT ADD SLT PUSH2 0x13C JUMPI PUSH2 0x1CE3 PUSH1 0x1 DUP1 PUSH1 0xA0 SHL SUB PUSH1 0x8 SLOAD AND CALLER EQ PUSH2 0x2370 JUMP JUMPDEST PUSH1 0x4 CALLDATALOAD DUP2 MSTORE PUSH1 0x5 PUSH1 0x20 MSTORE PUSH1 0x40 DUP2 KECCAK256 PUSH1 0x9 DUP2 ADD DUP1 SLOAD SWAP2 PUSH2 0x1D04 PUSH1 0xFF DUP5 AND PUSH2 0x23C6 JUMP JUMPDEST PUSH2 0x1D0C PUSH2 0x2073 JUMP JUMPDEST SWAP2 PUSH1 0xC DUP3 ADD PUSH4 0x5F5E100 PUSH2 0x1D21 DUP6 DUP4 SLOAD PUSH2 0x2141 JUMP JUMPDEST DIV SWAP2 PUSH1 0xD DUP5 ADD SWAP3 DUP4 SLOAD PUSH1 0x69 DUP2 MUL SWAP1 DUP1 DUP3 DIV PUSH1 0x69 EQ SWAP1 ISZERO OR ISZERO PUSH2 0x1406 JUMPI PUSH1 0x64 SWAP1 DIV LT PUSH2 0x1EF0 JUMPI PUSH1 0xFF NOT SWAP6 DUP7 AND SWAP1 SSTORE PUSH1 0x1 DUP4 ADD DUP1 SLOAD PUSH1 0x1 PUSH1 0x1 PUSH1 0xA0 SHL SUB AND DUP8 MSTORE PUSH1 0x6 PUSH1 0x20 MSTORE PUSH1 0x40 DUP8 KECCAK256 DUP1 SLOAD SWAP1 SWAP7 AND SWAP1 SWAP6 SSTORE SLOAD DUP1 PUSH2 0x1EDE JUMPI JUMPDEST POP PUSH1 0x3 DUP3 ADD SLOAD SWAP1 SLOAD SWAP2 DUP3 PUSH2 0x1DD6 JUMPI JUMPDEST POP POP SWAP2 SLOAD PUSH1 0x40 DUP1 MLOAD PUSH1 0x4 CALLDATALOAD DUP2 MSTORE PUSH1 0x1 PUSH1 0x1 PUSH1 0xA0 SHL SUB SWAP1 SWAP3 AND PUSH1 0x20 DUP4 ADD MSTORE DUP2 ADD SWAP2 SWAP1 SWAP2 MSTORE PUSH32 0xCAB88A55906C5830A49DDDD8B31D115294A5E6C4210F25FE140530A39C51DC74 SWAP2 POP DUP1 PUSH1 0x60 DUP2 ADD PUSH2 0x1A4D JUMP JUMPDEST SWAP1 SWAP2 SWAP3 DUP6 JUMPDEST PUSH1 0xA DUP4 ADD SLOAD DUP2 LT ISZERO PUSH2 0x1EB1 JUMPI PUSH2 0x1DF4 DUP2 PUSH1 0xA DUP6 ADD PUSH2 0x2291 JUMP JUMPDEST POP PUSH2 0x1E08 PUSH1 0x1 DUP3 ADD SLOAD PUSH1 0x3 DUP4 ADD SLOAD SWAP1 PUSH2 0x2265 JUMP JUMPDEST DUP1 ISZERO PUSH2 0x1EA6 JUMPI DUP1 PUSH8 0xDE0B6B3A7640000 DUP2 MUL DIV PUSH8 0xDE0B6B3A7640000 SUB PUSH2 0x1406 JUMPI PUSH2 0x1E88 SWAP3 SWAP2 PUSH8 0xDE0B6B3A7640000 PUSH2 0x1E48 PUSH2 0x1AC7 DUP11 DUP4 PUSH1 0x20 SWAP7 MUL PUSH2 0x2154 JUMP JUMPDEST PUSH1 0x9 SLOAD SWAP3 SLOAD PUSH1 0x40 MLOAD PUSH4 0xA9059CBB PUSH1 0xE0 SHL DUP2 MSTORE PUSH1 0x1 PUSH1 0x1 PUSH1 0xA0 SHL SUB SWAP2 DUP3 AND PUSH1 0x4 DUP3 ADD MSTORE SWAP3 SWAP1 SWAP2 DIV PUSH1 0x24 DUP4 ADD MSTORE SWAP1 SWAP5 DUP6 SWAP3 SWAP1 SWAP2 AND SWAP1 DUP3 SWAP1 DUP13 SWAP1 DUP3 SWAP1 PUSH1 0x44 DUP3 ADD SWAP1 JUMP JUMPDEST SUB SWAP3 GAS CALL SWAP2 DUP3 ISZERO PUSH2 0x1708 JUMPI PUSH2 0x1EA1 SWAP3 PUSH2 0x675 JUMPI POP PUSH2 0x2272 JUMP JUMPDEST PUSH2 0x1DDB JUMP JUMPDEST POP POP PUSH2 0x1EA1 SWAP1 PUSH2 0x2272 JUMP JUMPDEST POP SWAP3 POP POP POP PUSH32 0xCAB88A55906C5830A49DDDD8B31D115294A5E6C4210F25FE140530A39C51DC74 CODESIZE DUP1 PUSH2 0x1D86 JUMP JUMPDEST PUSH2 0x1EEA SWAP1 PUSH1 0x4 CALLDATALOAD PUSH2 0x2407 JUMP JUMPDEST CODESIZE PUSH2 0x1D77 JUMP JUMPDEST PUSH1 0x40 MLOAD PUSH3 0x461BCD PUSH1 0xE5 SHL DUP2 MSTORE PUSH1 0x20 PUSH1 0x4 DUP3 ADD MSTORE PUSH1 0x35 PUSH1 0x24 DUP3 ADD MSTORE PUSH32 0x4254432076616C756520686173206E6F742064726F707065642062656C6F7720 PUSH1 0x44 DUP3 ADD MSTORE PUSH21 0x1B1A5C5D5A59185D1A5BDB881D1A1C995CDA1BDB19 PUSH1 0x5A SHL PUSH1 0x64 DUP3 ADD MSTORE PUSH1 0x84 SWAP1 REVERT JUMPDEST SWAP2 DUP2 PUSH1 0x1F DUP5 ADD SLT ISZERO PUSH2 0x1F84 JUMPI DUP3 CALLDATALOAD SWAP2 PUSH8 0xFFFFFFFFFFFFFFFF DUP4 GT PUSH2 0x1F84 JUMPI PUSH1 0x20 DUP1 DUP6 ADD SWAP5 DUP5 PUSH1 0x5 SHL ADD ADD GT PUSH2 0x1F84 JUMPI JUMP JUMPDEST PUSH1 0x0 DUP1 REVERT JUMPDEST PUSH1 0x40 SWAP1 PUSH1 0x3 NOT ADD SLT PUSH2 0x1F84 JUMPI PUSH1 0x4 CALLDATALOAD SWAP1 PUSH1 0x24 CALLDATALOAD SWAP1 JUMP JUMPDEST PUSH1 0x7 SLOAD DUP2 LT ISZERO PUSH2 0x1FD6 JUMPI PUSH1 0x7 PUSH1 0x0 MSTORE PUSH32 0xA66CC928B5EDB82AF9BD49922954155AB7B0942694BEA4CE44661D9A8736C688 ADD SWAP1 PUSH1 0x0 SWAP1 JUMP JUMPDEST PUSH4 0x4E487B71 PUSH1 0xE0 SHL PUSH1 0x0 MSTORE PUSH1 0x32 PUSH1 0x4 MSTORE PUSH1 0x24 PUSH1 0x0 REVERT JUMPDEST PUSH1 0x80 DUP2 ADD SWAP1 DUP2 LT PUSH8 0xFFFFFFFFFFFFFFFF DUP3 GT OR PUSH2 0x2008 JUMPI PUSH1 0x40 MSTORE JUMP JUMPDEST PUSH4 0x4E487B71 PUSH1 0xE0 SHL PUSH1 0x0 MSTORE PUSH1 0x41 PUSH1 0x4 MSTORE PUSH1 0x24 PUSH1 0x0 REVERT JUMPDEST PUSH1 0x60 DUP2 ADD SWAP1 DUP2 LT PUSH8 0xFFFFFFFFFFFFFFFF DUP3 GT OR PUSH2 0x2008 JUMPI PUSH1 0x40 MSTORE JUMP JUMPDEST SWAP1 PUSH1 0x1F DUP1 NOT SWAP2 ADD AND DUP2 ADD SWAP1 DUP2 LT PUSH8 0xFFFFFFFFFFFFFFFF DUP3 GT OR PUSH2 0x2008 JUMPI PUSH1 0x40 MSTORE JUMP JUMPDEST MLOAD SWAP1 PUSH10 0xFFFFFFFFFFFFFFFFFFFF DUP3 AND DUP3 SUB PUSH2 0x1F84 JUMPI JUMP JUMPDEST PUSH1 0x3 SLOAD PUSH1 0x40 MLOAD PUSH4 0x3FABE5A3 PUSH1 0xE2 SHL DUP2 MSTORE SWAP1 PUSH1 0xA0 SWAP1 DUP3 SWAP1 PUSH1 0x4 SWAP1 DUP3 SWAP1 PUSH1 0x1 PUSH1 0x1 PUSH1 0xA0 SHL SUB AND GAS STATICCALL SWAP1 DUP2 ISZERO PUSH2 0xA2E JUMPI PUSH1 0x0 SWAP2 PUSH2 0x20AB JUMPI POP SWAP1 JUMP JUMPDEST SWAP1 PUSH1 0xA0 DUP3 RETURNDATASIZE DUP3 GT PUSH2 0x20EC JUMPI JUMPDEST DUP2 PUSH2 0x20C4 PUSH1 0xA0 SWAP4 DUP4 PUSH2 0x203A JUMP JUMPDEST DUP2 ADD SUB SLT PUSH2 0x13C JUMPI POP PUSH2 0x20D6 DUP2 PUSH2 0x205C JUMP JUMPDEST POP PUSH2 0x20E8 PUSH1 0x80 PUSH1 0x20 DUP4 ADD MLOAD SWAP3 ADD PUSH2 0x205C JUMP JUMPDEST POP SWAP1 JUMP JUMPDEST RETURNDATASIZE SWAP2 POP PUSH2 0x20B7 JUMP JUMPDEST SWAP1 DUP2 PUSH1 0x20 SWAP2 SUB SLT PUSH2 0x1F84 JUMPI MLOAD DUP1 ISZERO ISZERO DUP2 SUB PUSH2 0x1F84 JUMPI SWAP1 JUMP JUMPDEST PUSH8 0xFFFFFFFFFFFFFFFF DUP2 GT PUSH2 0x2008 JUMPI PUSH1 0x5 SHL PUSH1 0x20 ADD SWAP1 JUMP JUMPDEST DUP1 MLOAD ISZERO PUSH2 0x1FD6 JUMPI PUSH1 0x20 ADD SWAP1 JUMP JUMPDEST DUP1 MLOAD PUSH1 0x1 LT ISZERO PUSH2 0x1FD6 JUMPI PUSH1 0x40 ADD SWAP1 JUMP JUMPDEST DUP2 DUP2 MUL SWAP3 SWAP2 DUP2 ISZERO SWAP2 DUP5 DIV EQ OR ISZERO PUSH2 0xA3A JUMPI JUMP JUMPDEST DUP2 ISZERO PUSH2 0x215E JUMPI DIV SWAP1 JUMP JUMPDEST PUSH4 0x4E487B71 PUSH1 0xE0 SHL PUSH1 0x0 MSTORE PUSH1 0x12 PUSH1 0x4 MSTORE PUSH1 0x24 PUSH1 0x0 REVERT JUMPDEST SWAP2 SWAP1 DUP3 ADD DUP1 SWAP3 GT PUSH2 0xA3A JUMPI JUMP JUMPDEST PUSH1 0x20 SWAP1 DUP2 DUP2 DUP5 SUB SLT PUSH2 0x1F84 JUMPI DUP1 MLOAD SWAP1 PUSH8 0xFFFFFFFFFFFFFFFF DUP3 GT PUSH2 0x1F84 JUMPI ADD SWAP2 DUP1 PUSH1 0x1F DUP5 ADD SLT ISZERO PUSH2 0x1F84 JUMPI DUP3 MLOAD PUSH2 0x21B7 DUP2 PUSH2 0x210C JUMP JUMPDEST SWAP4 PUSH2 0x21C5 PUSH1 0x40 MLOAD SWAP6 DUP7 PUSH2 0x203A JUMP JUMPDEST DUP2 DUP6 MSTORE DUP4 DUP1 DUP7 ADD SWAP3 PUSH1 0x5 SHL DUP3 ADD ADD SWAP3 DUP4 GT PUSH2 0x1F84 JUMPI DUP4 ADD SWAP1 JUMPDEST DUP3 DUP3 LT PUSH2 0x21EC JUMPI POP POP POP POP SWAP1 JUMP JUMPDEST DUP2 MLOAD DUP2 MSTORE SWAP1 DUP4 ADD SWAP1 DUP4 ADD PUSH2 0x21DE JUMP JUMPDEST SWAP3 SWAP2 SWAP1 SWAP6 SWAP5 SWAP4 SWAP6 PUSH1 0xA0 DUP5 ADD SWAP1 DUP5 MSTORE PUSH1 0x20 SWAP2 DUP3 DUP6 ADD MSTORE PUSH1 0xA0 PUSH1 0x40 DUP6 ADD MSTORE DUP3 MLOAD DUP1 SWAP2 MSTORE DUP2 PUSH1 0xC0 DUP6 ADD SWAP4 ADD SWAP2 PUSH1 0x0 JUMPDEST DUP3 DUP2 LT PUSH2 0x2248 JUMPI POP POP POP POP SWAP1 PUSH1 0x80 SWAP2 SWAP5 PUSH1 0x1 DUP1 PUSH1 0xA0 SHL SUB AND PUSH1 0x60 DUP3 ADD MSTORE ADD MSTORE JUMP JUMPDEST DUP4 MLOAD PUSH1 0x1 PUSH1 0x1 PUSH1 0xA0 SHL SUB AND DUP6 MSTORE SWAP4 DUP2 ADD SWAP4 SWAP3 DUP2 ADD SWAP3 PUSH1 0x1 ADD PUSH2 0x2227 JUMP JUMPDEST SWAP2 SWAP1 DUP3 SUB SWAP2 DUP3 GT PUSH2 0xA3A JUMPI JUMP JUMPDEST PUSH1 0x0 NOT DUP2 EQ PUSH2 0xA3A JUMPI PUSH1 0x1 ADD SWAP1 JUMP JUMPDEST SWAP2 SWAP1 DUP2 LT ISZERO PUSH2 0x1FD6 JUMPI PUSH1 0x5 SHL ADD SWAP1 JUMP JUMPDEST DUP1 SLOAD DUP3 LT ISZERO PUSH2 0x1FD6 JUMPI PUSH1 0x0 MSTORE PUSH1 0x5 PUSH1 0x20 PUSH1 0x0 KECCAK256 SWAP2 MUL ADD SWAP1 PUSH1 0x0 SWAP1 JUMP JUMPDEST SWAP1 DUP1 ISZERO PUSH2 0x234D JUMPI DUP2 ISZERO PUSH2 0x2346 JUMPI DUP2 DUP1 PUSH1 0x1 EQ PUSH2 0x233E JUMPI PUSH1 0x2 EQ PUSH2 0x232D JUMPI PUSH1 0x20 DUP2 LT PUSH2 0x133 DUP4 LT AND PUSH1 0x4E DUP3 LT PUSH1 0xB DUP5 LT AND OR PUSH2 0x2328 JUMPI PUSH1 0x1 SWAP1 DUP2 JUMPDEST DUP1 DUP3 GT PUSH2 0x22FF JUMPI POP POP DUP2 PUSH1 0x0 NOT DIV DUP2 GT PUSH2 0xA3A JUMPI MUL SWAP1 JUMP JUMPDEST SWAP1 SWAP3 DUP1 PUSH1 0x0 NOT DIV DUP2 GT PUSH2 0xA3A JUMPI DUP2 DUP5 AND PUSH2 0x231F JUMPI JUMPDEST DUP1 MUL SWAP3 DUP2 SHR SWAP1 PUSH2 0x22E7 JUMP JUMPDEST DUP1 SWAP3 MUL SWAP2 PUSH2 0x2314 JUMP JUMPDEST SWAP1 EXP SWAP1 JUMP JUMPDEST SWAP1 POP PUSH1 0xFF DUP2 GT PUSH2 0xA3A JUMPI PUSH1 0x1 SWAP1 SHL SWAP1 JUMP JUMPDEST POP POP POP PUSH1 0x1 SWAP1 JUMP JUMPDEST POP POP PUSH1 0x0 SWAP1 JUMP JUMPDEST POP POP PUSH1 0x1 SWAP1 JUMP JUMPDEST DUP1 SLOAD DUP3 LT ISZERO PUSH2 0x1FD6 JUMPI PUSH1 0x0 MSTORE PUSH1 0x20 PUSH1 0x0 KECCAK256 SWAP1 PUSH1 0x2 SHL ADD SWAP1 PUSH1 0x0 SWAP1 JUMP JUMPDEST ISZERO PUSH2 0x2377 JUMPI JUMP JUMPDEST PUSH1 0x40 MLOAD PUSH3 0x461BCD PUSH1 0xE5 SHL DUP2 MSTORE PUSH1 0x20 PUSH1 0x4 DUP3 ADD MSTORE PUSH1 0x21 PUSH1 0x24 DUP3 ADD MSTORE PUSH32 0x4F6E6C79206F776E65722063616E2063616C6C20746869732066756E6374696F PUSH1 0x44 DUP3 ADD MSTORE PUSH1 0x37 PUSH1 0xF9 SHL PUSH1 0x64 DUP3 ADD MSTORE PUSH1 0x84 SWAP1 REVERT JUMPDEST ISZERO PUSH2 0x23CD JUMPI JUMP JUMPDEST PUSH1 0x40 MLOAD PUSH3 0x461BCD PUSH1 0xE5 SHL DUP2 MSTORE PUSH1 0x20 PUSH1 0x4 DUP3 ADD MSTORE PUSH1 0x12 PUSH1 0x24 DUP3 ADD MSTORE PUSH18 0x4C6F616E206973206E6F7420616374697665 PUSH1 0x70 SHL PUSH1 0x44 DUP3 ADD MSTORE PUSH1 0x64 SWAP1 REVERT JUMPDEST SWAP1 PUSH1 0x0 SWAP1 DUP3 DUP3 MSTORE PUSH1 0x20 SWAP1 PUSH1 0x5 DUP3 MSTORE PUSH1 0x40 SWAP1 PUSH1 0xC DUP3 DUP6 KECCAK256 ADD DUP1 SLOAD DUP3 GT PUSH2 0x2503 JUMPI DUP5 SLOAD PUSH1 0x2 SLOAD DUP5 MLOAD PUSH4 0x1A4CA37B PUSH1 0xE2 SHL DUP2 MSTORE PUSH1 0x1 PUSH1 0x1 PUSH1 0xA0 SHL SUB SWAP2 DUP3 AND PUSH1 0x4 DUP3 ADD MSTORE PUSH1 0x24 DUP2 ADD SWAP5 SWAP1 SWAP5 MSTORE ADDRESS PUSH1 0x44 DUP6 ADD MSTORE DUP6 SWAP2 DUP5 SWAP2 PUSH1 0x64 SWAP2 DUP4 SWAP2 DUP11 SWAP2 AND GAS CALL SWAP2 DUP3 ISZERO PUSH2 0x24F9 JUMPI DUP6 SWAP3 PUSH2 0x24C5 JUMPI JUMPDEST POP SWAP2 DUP2 DUP4 PUSH2 0x24A6 PUSH32 0x38A556A122683CB48D496614A7A03605B6C2C0482342924CAF483386980ECC9F SWAP9 SWAP7 SWAP5 PUSH1 0x80 SWAP9 SWAP7 SLOAD PUSH2 0x2265 JUMP JUMPDEST SWAP1 SSTORE PUSH2 0x24B1 DUP2 PUSH2 0x2556 JUMP JUMPDEST SWAP3 DUP3 MLOAD SWAP6 DUP7 MSTORE DUP6 ADD MSTORE DUP4 ADD MSTORE PUSH1 0x60 DUP3 ADD MSTORE LOG1 JUMP JUMPDEST SWAP1 SWAP2 POP DUP4 DUP2 DUP2 RETURNDATASIZE DUP4 GT PUSH2 0x24F2 JUMPI JUMPDEST PUSH2 0x24DD DUP2 DUP4 PUSH2 0x203A JUMP JUMPDEST DUP2 ADD SUB SLT PUSH2 0x24EE JUMPI MLOAD SWAP1 PUSH1 0x80 PUSH2 0x2471 JUMP JUMPDEST DUP5 DUP1 REVERT JUMPDEST POP RETURNDATASIZE PUSH2 0x24D3 JUMP JUMPDEST DUP4 MLOAD RETURNDATASIZE DUP8 DUP3 RETURNDATACOPY RETURNDATASIZE SWAP1 REVERT JUMPDEST DUP3 MLOAD PUSH3 0x461BCD PUSH1 0xE5 SHL DUP2 MSTORE PUSH1 0x4 DUP2 ADD DUP6 SWAP1 MSTORE PUSH1 0x26 PUSH1 0x24 DUP3 ADD MSTORE PUSH32 0x43616E6E6F7420756E7374616B65206D6F7265207468616E207374616B656420 PUSH1 0x44 DUP3 ADD MSTORE PUSH6 0x185B5BDD5B9D PUSH1 0xD2 SHL PUSH1 0x64 DUP3 ADD MSTORE PUSH1 0x84 SWAP1 REVERT JUMPDEST PUSH1 0x2 SLOAD PUSH1 0x1 SLOAD PUSH1 0x40 DUP1 MLOAD PUSH4 0x95EA7B3 PUSH1 0xE0 SHL DUP2 MSTORE PUSH1 0x1 PUSH1 0x1 PUSH1 0xA0 SHL SUB SWAP3 DUP4 AND PUSH1 0x4 DUP3 ADD MSTORE PUSH1 0x24 DUP2 ADD DUP6 SWAP1 MSTORE PUSH1 0x0 SWAP6 SWAP5 SWAP2 SWAP4 SWAP2 SWAP3 SWAP2 PUSH1 0x20 SWAP1 DUP3 SWAP1 PUSH1 0x44 SWAP1 DUP3 SWAP1 DUP11 SWAP1 DUP8 AND GAS CALL DUP1 ISZERO PUSH2 0x26A3 JUMPI PUSH2 0x2685 JUMPI JUMPDEST POP DUP3 MLOAD PUSH2 0x25B1 DUP2 PUSH2 0x201E JUMP JUMPDEST PUSH1 0x2 DUP2 MSTORE DUP4 CALLDATASIZE PUSH1 0x20 DUP4 ADD CALLDATACOPY DUP2 PUSH1 0x2 SLOAD AND PUSH2 0x25CA DUP3 PUSH2 0x2124 JUMP JUMPDEST MSTORE DUP2 PUSH1 0x9 SLOAD AND PUSH2 0x25D9 DUP3 PUSH2 0x2131 JUMP JUMPDEST MSTORE PUSH1 0x5F DUP4 MUL SWAP2 DUP4 DUP4 DIV PUSH1 0x5F EQ DUP5 ISZERO OR ISZERO PUSH2 0x141A JUMPI PUSH1 0x1 SLOAD AND SWAP1 PUSH2 0x12C TIMESTAMP ADD SWAP4 DUP5 TIMESTAMP GT PUSH2 0x2671 JUMPI SWAP1 DUP8 DUP1 SWAP5 SWAP4 SWAP3 PUSH2 0x262A DUP9 MLOAD SWAP8 DUP9 SWAP7 DUP8 SWAP6 DUP7 SWAP5 PUSH4 0x38ED1739 PUSH1 0xE0 SHL DUP7 MSTORE PUSH1 0x64 ADDRESS SWAP4 DIV SWAP1 PUSH1 0x4 DUP8 ADD PUSH2 0x21FB JUMP JUMPDEST SUB SWAP3 GAS CALL SWAP2 DUP3 ISZERO PUSH2 0x2668 JUMPI POP DUP4 PUSH2 0x2649 SWAP4 SWAP5 SWAP3 PUSH2 0x264D JUMPI JUMPDEST POP POP PUSH2 0x2131 JUMP JUMPDEST MLOAD SWAP1 JUMP JUMPDEST PUSH2 0x2661 SWAP3 POP RETURNDATASIZE DUP1 SWAP2 DUP4 RETURNDATACOPY PUSH2 0x1260 DUP2 DUP4 PUSH2 0x203A JUMP JUMPDEST CODESIZE DUP1 PUSH2 0x2642 JUMP JUMPDEST MLOAD RETURNDATASIZE DUP6 DUP3 RETURNDATACOPY RETURNDATASIZE SWAP1 REVERT JUMPDEST PUSH4 0x4E487B71 PUSH1 0xE0 SHL DUP9 MSTORE PUSH1 0x11 PUSH1 0x4 MSTORE PUSH1 0x24 DUP9 REVERT JUMPDEST PUSH2 0x269C SWAP1 PUSH1 0x20 RETURNDATASIZE DUP2 GT PUSH2 0x69D JUMPI PUSH2 0x68E DUP2 DUP4 PUSH2 0x203A JUMP JUMPDEST POP CODESIZE PUSH2 0x25A5 JUMP JUMPDEST DUP5 MLOAD RETURNDATASIZE DUP9 DUP3 RETURNDATACOPY RETURNDATASIZE SWAP1 REVERT INVALID LOG2 PUSH5 0x6970667358 0x22 SLT KECCAK256 PUSH8 0xAF01FE44E4E0EFF6 SSTORE XOR 0xBB DUP11 PUSH32 0xA6BA5FD6583082D3214EDB4B692A072CEA1164736F6C63430008140033000000 "},"methodIdentifiers":{"aavePool()":"a03e4bc3","cbBtcToken()":"0e462386","chainlinkOracle()":"ef06e72c","getInstallmentSchedule(bytes32)":"6c1945ae","getPrice()":"98d5fdca","hasActiveLoan(address)":"21d4f8db","lenders(address)":"28fd10d7","liquidate(bytes32)":"0a71096e","liquidateIfOverdue(bytes32)":"28830d47","loan(uint256,uint256,uint256,address[],uint256[])":"66fb6e5a","loanIds(uint256)":"f8715a42","loans(bytes32)":"c4a90815","markInstallmentPaid(bytes32,uint256)":"c9642d2a","owner()":"8da5cb5b","payouts(bytes32,uint256)":"80f2122c","setAavePool(address)":"349f937c","setCbBtcToken(address)":"83cd8fcf","setChainlinkOracle(address)":"7a9b0412","setSwapRouter(address)":"41273657","swapRouter()":"c31c9c07","usdcToken()":"11eac855"}}}}}