{"Contracts/Lending.sol":{"LendingPool":{"abi":[{"inputs":[{"internalType":"address","name":"usdc","type":"address"},{"internalType":"address","name":"_cbBtcToken","type":"address"},{"internalType":"address","name":"oracleAddress","type":"address"},{"internalType":"address","name":"_aavePool","type":"address"},{"internalType":"address","name":"_swapRouter","type":"address"}],"stateMutability":"nonpayable","type":"constructor"},{"anonymous":false,"inputs":[{"indexed":false,"internalType":"bytes32","name":"loanId","type":"bytes32"},{"indexed":false,"internalType":"uint256","name":"requested","type":"uint256"},{"indexed":false,"internalType":"uint256","name":"actualWithdrawn","type":"uint256"},{"indexed":false,"internalType":"uint256","name":"preBalance","type":"uint256"},{"indexed":false,"internalType":"uint256","name":"postBalance","type":"uint256"}],"name":"DebugUnstake","type":"event"},{"anonymous":false,"inputs":[{"indexed":false,"internalType":"bytes32","name":"loanId","type":"bytes32"},{"indexed":false,"internalType":"uint256","name":"principalRepaid","type":"uint256"},{"indexed":false,"internalType":"uint256","name":"proportionRepaid","type":"uint256"},{"indexed":false,"internalType":"uint256","name":"cbBtcToUnstake","type":"uint256"}],"name":"DebugUnstakeProportion","type":"event"},{"anonymous":false,"inputs":[{"indexed":false,"internalType":"bytes32","name":"loanId","type":"bytes32"},{"indexed":false,"internalType":"uint256","name":"index","type":"uint256"}],"name":"InstallmentPaid","type":"event"},{"anonymous":false,"inputs":[{"indexed":false,"internalType":"bytes32","name":"id","type":"bytes32"},{"indexed":false,"internalType":"uint256","name":"amount","type":"uint256"},{"indexed":false,"internalType":"uint256","name":"collateral","type":"uint256"},{"indexed":false,"internalType":"address","name":"borrower","type":"address"}],"name":"LoanCreated","type":"event"},{"anonymous":false,"inputs":[{"indexed":false,"internalType":"bytes32","name":"id","type":"bytes32"},{"indexed":false,"internalType":"address","name":"borrower","type":"address"},{"indexed":false,"internalType":"uint256","name":"btcPriceNow","type":"uint256"}],"name":"LoanLiquidated","type":"event"},{"anonymous":false,"inputs":[{"indexed":false,"internalType":"bytes32","name":"loanId","type":"bytes32"},{"indexed":false,"internalType":"address","name":"borrower","type":"address"},{"indexed":false,"internalType":"uint256","name":"amount","type":"uint256"},{"indexed":false,"internalType":"bool","name":"fullyRepaid","type":"bool"}],"name":"Payout","type":"event"},{"anonymous":false,"inputs":[{"indexed":false,"internalType":"bytes32","name":"loanId","type":"bytes32"},{"indexed":false,"internalType":"uint256","name":"usdcAmount","type":"uint256"},{"indexed":false,"internalType":"uint256","name":"cbBtcAmount","type":"uint256"}],"name":"TokensStaked","type":"event"},{"anonymous":false,"inputs":[{"indexed":false,"internalType":"bytes32","name":"loanId","type":"bytes32"},{"indexed":false,"internalType":"uint256","name":"cbBtcAmount","type":"uint256"},{"indexed":false,"internalType":"uint256","name":"usdcAmount","type":"uint256"},{"indexed":false,"internalType":"uint256","name":"borrowerCbBtcShare","type":"uint256"}],"name":"TokensUnstaked","type":"event"},{"inputs":[],"name":"aavePool","outputs":[{"internalType":"contract IAavePool","name":"","type":"address"}],"stateMutability":"view","type":"function"},{"inputs":[],"name":"cbBtcToken","outputs":[{"internalType":"address","name":"","type":"address"}],"stateMutability":"view","type":"function"},{"inputs":[],"name":"chainlinkOracle","outputs":[{"internalType":"contract AggregatorV3Interface","name":"","type":"address"}],"stateMutability":"view","type":"function"},{"inputs":[{"internalType":"bytes32","name":"loanId","type":"bytes32"},{"internalType":"uint256","name":"principalRepaid","type":"uint256"}],"name":"debugUnstakeCalc","outputs":[{"internalType":"uint256","name":"proportionRepaid","type":"uint256"},{"internalType":"uint256","name":"cbBtcToUnstake","type":"uint256"}],"stateMutability":"view","type":"function"},{"inputs":[{"internalType":"bytes32","name":"loanId","type":"bytes32"}],"name":"getInstallmentSchedule","outputs":[{"components":[{"internalType":"uint256","name":"duePrincipal","type":"uint256"},{"internalType":"uint256","name":"dueInterest","type":"uint256"},{"internalType":"bool","name":"paid","type":"bool"},{"internalType":"uint256","name":"dueTimestamp","type":"uint256"}],"internalType":"struct LendingPool.Installment[]","name":"","type":"tuple[]"}],"stateMutability":"view","type":"function"},{"inputs":[],"name":"getPrice","outputs":[{"internalType":"int256","name":"","type":"int256"}],"stateMutability":"view","type":"function"},{"inputs":[{"internalType":"bytes32","name":"loanId","type":"bytes32"}],"name":"getStakedAmount","outputs":[{"internalType":"uint256","name":"","type":"uint256"}],"stateMutability":"view","type":"function"},{"inputs":[{"internalType":"address","name":"","type":"address"}],"name":"hasActiveLoan","outputs":[{"internalType":"bool","name":"","type":"bool"}],"stateMutability":"view","type":"function"},{"inputs":[{"internalType":"address","name":"","type":"address"}],"name":"lenders","outputs":[{"internalType":"uint256","name":"totalContributed","type":"uint256"}],"stateMutability":"view","type":"function"},{"inputs":[{"internalType":"bytes32","name":"loanId","type":"bytes32"}],"name":"liquidate","outputs":[],"stateMutability":"nonpayable","type":"function"},{"inputs":[{"internalType":"bytes32","name":"loanId","type":"bytes32"}],"name":"liquidateIfOverdue","outputs":[],"stateMutability":"nonpayable","type":"function"},{"inputs":[{"internalType":"uint256","name":"totalAmount","type":"uint256"},{"internalType":"uint256","name":"durationMonths","type":"uint256"},{"internalType":"uint256","name":"annualInterestRate","type":"uint256"},{"internalType":"address[]","name":"lenderAddresses","type":"address[]"},{"internalType":"uint256[]","name":"lenderAmounts","type":"uint256[]"}],"name":"loan","outputs":[],"stateMutability":"nonpayable","type":"function"},{"inputs":[{"internalType":"uint256","name":"","type":"uint256"}],"name":"loanIds","outputs":[{"internalType":"bytes32","name":"","type":"bytes32"}],"stateMutability":"view","type":"function"},{"inputs":[{"internalType":"bytes32","name":"","type":"bytes32"}],"name":"loans","outputs":[{"internalType":"bytes32","name":"id","type":"bytes32"},{"internalType":"address","name":"borrower","type":"address"},{"internalType":"uint256","name":"principal","type":"uint256"},{"internalType":"uint256","name":"borrowerDeposit","type":"uint256"},{"internalType":"uint256","name":"interestRate","type":"uint256"},{"internalType":"uint256","name":"duration","type":"uint256"},{"internalType":"uint256","name":"monthlyPayment","type":"uint256"},{"internalType":"uint256","name":"startTime","type":"uint256"},{"internalType":"uint256","name":"btcPriceAtCreation","type":"uint256"},{"internalType":"bool","name":"isActive","type":"bool"},{"internalType":"uint256","name":"totalAmount","type":"uint256"},{"internalType":"uint256","name":"stakedAmount","type":"uint256"},{"internalType":"uint256","name":"remainingPrincipal","type":"uint256"}],"stateMutability":"view","type":"function"},{"inputs":[{"internalType":"bytes32","name":"loanId","type":"bytes32"},{"internalType":"uint256","name":"index","type":"uint256"}],"name":"markInstallmentPaid","outputs":[],"stateMutability":"nonpayable","type":"function"},{"inputs":[],"name":"owner","outputs":[{"internalType":"address","name":"","type":"address"}],"stateMutability":"view","type":"function"},{"inputs":[{"internalType":"bytes32","name":"loanId","type":"bytes32"},{"internalType":"uint256","name":"usdcAmount","type":"uint256"}],"name":"payouts","outputs":[],"stateMutability":"nonpayable","type":"function"},{"inputs":[{"internalType":"address","name":"_aavePool","type":"address"}],"name":"setAavePool","outputs":[],"stateMutability":"nonpayable","type":"function"},{"inputs":[{"internalType":"address","name":"_cbBtcToken","type":"address"}],"name":"setCbBtcToken","outputs":[],"stateMutability":"nonpayable","type":"function"},{"inputs":[{"internalType":"address","name":"oracleAddress","type":"address"}],"name":"setChainlinkOracle","outputs":[],"stateMutability":"nonpayable","type":"function"},{"inputs":[{"internalType":"address","name":"_swapRouter","type":"address"}],"name":"setSwapRouter","outputs":[],"stateMutability":"nonpayable","type":"function"},{"inputs":[],"name":"swapRouter","outputs":[{"internalType":"contract ISwapRouter","name":"","type":"address"}],"stateMutability":"view","type":"function"},{"inputs":[],"name":"usdcToken","outputs":[{"internalType":"address","name":"","type":"address"}],"stateMutability":"view","type":"function"}],"evm":{"bytecode":{"linkReferences":{},"object":"608034620000ec57601f62002c0838819003918201601f19168301916001600160401b03831184841017620000f15780849260a094604052833981010312620000ec576200004d8162000107565b906200005c6020820162000107565b906200006b6040820162000107565b91620000886080620000806060850162000107565b930162000107565b9160018060a01b0319943386600854161760085560018060a01b03948580948180941689600954161760095516876002541617600255168560035416176003551683600054161760005516906001541617600155604051612aeb90816200011d8239f35b600080fd5b634e487b7160e01b600052604160045260246000fd5b51906001600160a01b0382168203620000ec5756fe6080604052600436101561001257600080fd5b6000803560e01c80630a71096e14611a195780630e462386146119f057806311eac855146119c757806321d4f8db1461198557806328830d471461169f57806328fd10d714611662578063337a173714611635578063349f937c146115ec578063412736571461159f5780635206d2d01461157957806366fb6e5a146109365780636c1945ae146108355780637a9b0412146107e857806380f2122c1461046257806383cd8fcf146104115780638da5cb5b146103e857806398d5fdca146103c5578063a03e4bc31461039e578063c31c9c0714610375578063c4a90815146102b7578063c9642d2a1461017e578063ef06e72c146101555763f8715a421461011a57600080fd5b34610152576020366003190112610152576004359060075482101561015257602061014483611cfc565b90546040519160031b1c8152f35b80fd5b50346101525780600319360112610152576003546040516001600160a01b039091168152602090f35b50346101525761018d36611cb0565b906101a360018060a01b036008541633146120fb565b8083526005602052600c604084206101c160ff600983015416612151565b019081548310156102725760ff60026101da85856120df565b5001541661022d578260026102127f3d05ac2057427ac2f84502e7efefebf5ae10d9529129c2979ce60fb97d460614956040956120df565b5001805460ff1916600117905582519182526020820152a180f35b60405162461bcd60e51b815260206004820152601f60248201527f496e7374616c6c6d656e7420616c7265616479206d61726b65642070616964006044820152606490fd5b60405162461bcd60e51b815260206004820152601960248201527f496e76616c696420696e7374616c6c6d656e7420696e646578000000000000006044820152606490fd5b50346101525760203660031901126101525760406101a091600435815260056020522080549060018060a01b03600182015416906002810154600382015460048301546005840154600685015460078601549160088701549360ff60098901541695600a89015497600e600d8b01549a01549a6040519c8d5260208d015260408c015260608b015260808a015260a089015260c088015260e08701526101008601521515610120850152610140840152610160830152610180820152f35b50346101525780600319360112610152576001546040516001600160a01b039091168152602090f35b5034610152578060031936011261015257546040516001600160a01b039091168152602090f35b503461015257806003193601126101525760206103e0611e05565b604051908152f35b50346101525780600319360112610152576008546040516001600160a01b039091168152602090f35b5034610152576020366003190112610152576004356001600160a01b038181169182900361045e57610448906008541633146120fb565b6001600160601b0360a01b600254161760025580f35b8280fd5b50346101525761047136611cb0565b908083526005602052604083209061048f60ff600984015416612151565b60018201546001600160a01b031633036107a3576009546040516323b872dd60e01b815233600482015230602482015260448101859052906020908290606490829089906001600160a01b03165af1801561079857610779575b50829084855b600c850154811080610770575b1561071b5761050e81600c87016120df565b5060ff60028201541661071157805460018201549061052d8282611eff565b80881015610548575b5050505061054390611ffd565b6104ef565b9061055d610563928298959b949a9799611ff0565b97611eff565b906002850154968a5b600b8701548110156106ba5761058581600b890161201c565b50600181015480670de0b6b3a7640000810204670de0b6b3a764000014811517156106a6578d61064d93928d61061d670de0b6b3a76400008f8f826105db6105d46105e2948360209c02611edf565b8093611eb6565b0494611eb6565b04600384016105f2848254611eff565b905560048401610603828254611eff565b905560095493546001600160a01b03948516941692611eff565b60405163a9059cbb60e01b81526001600160a01b0390921660048301526024820152948592839182906044820190565b03925af191821561069b576106679261066c575b50611ffd565b61056c565b61068d9060203d602011610694575b6106858183611d97565b810190611e69565b5038610661565b503d61067b565b6040513d8f823e3d90fd5b634e487b7160e01b8e52601160045260248efd5b5096509790939650610543929194506002600160ff198284015416179101557f3d05ac2057427ac2f84502e7efefebf5ae10d9529129c2979ce60fb97d46061460408051868152836020820152a190388080610536565b5061054390611ffd565b867fdc376abd09229a842ac7d8bcadc9017651f1f1b8490750870cae0ecd4aedf67460808587610755818c6107508a86612192565b611ff0565b6040519283523360208401526040830152156060820152a180f35b508315156104fc565b6107919060203d602011610694576106858183611d97565b50386104e9565b6040513d87823e3d90fd5b60405162461bcd60e51b815260206004820152601760248201527f4f6e6c7920626f72726f7765722063616e2072657061790000000000000000006044820152606490fd5b5034610152576020366003190112610152576004356001600160a01b038181169182900361045e5761081f906008541633146120fb565b6001600160601b0360a01b600354161760035580f35b503461015257602090816003193601126101525790600435825260058152600c6040832001805461086581611e81565b906108736040519283611d97565b8082528382018093865284862086915b8383106108e757505050506040519280840191818552518092526040840192945b8281106108b15784840385f35b855180518552808301518584015260408082015115159086015260609081015190850152948101946080909301926001016108a4565b60048760019260409a9997989a516108fe81611d49565b85548152848601548382015260ff60028701541615156040820152600386015460608201528152019201920191909694939596610883565b50346101525760a03660031901126101525760643567ffffffffffffffff811161157557610968903690600401611ccb565b9060843567ffffffffffffffff811161157157610989903690600401611ccb565b926004351561153b576024351561150357338552600660205260ff6040862054166114b25783810361145857801561141d57601460043502916004358304601403610f25576109dd60648404600435611ff0565b6009546040516323b872dd60e01b8152336004820152306024820152606480870460448301529296929091602091839182908c906001600160a01b03165af18015611412576113f3575b509084929160405160208101903360601b825242603482015260348152610a4d81611d7b565b519020968789526005602052606460408a209689885560018801336001600160601b0360a01b825416179055600435600a89015586600289015504600387015560443560048701556024356005870155426007870155610aab611e05565b600887015560098601805460ff19166001179055600e86018590558893845b8181106111ad5750505050500361115757670de0b6b3a764000060443502906044358204670de0b6b3a76400001460443515171561114357610b106104b0830484611eb6565b6104b08304670de0b6b3a76400000180670de0b6b3a764000011610f1157801561112f57610b4b9060243590670de0b6b3a764000004612038565b670de0b6b3a76400000390670de0b6b3a76400008211610f1157600691610b7191611edf565b91015582845260056020526040842091600683015485915b6024358310610fd5578686600754600160401b811015610fc157806001610bb39201600755611cfc565b815460001960039290921b91821b19169083901b179055338252600660209081526040808420805460ff1916600190811790915583855260058352818520600a8101546009549254935163095ea7b360e01b81526001600160a01b039485166004820152602481018290529194909391929091839160449183918a91165af1801561079857610fa2575b50604051610c4a81611d7b565b6002815260403660208301376009546001600160a01b0316610c6b82611e99565b526002546001600160a01b0316610c8182611ea6565b52600354604051633fabe5a360e21b81529060a090829060049082906001600160a01b03165afa908115610eba578691610f6e575b5085811315610f39576305f5e100808402908482041484151715610f115790610cde91611edf565b80606281020460621481151715610f25576001546001600160a01b0316914261012c810110610f115791610d3c9391878094604051968795869485936338ed173960e01b855261012c42019260646062309402049060048701611f86565b03925af18015610f0657610d57918591610ee4575b50611ea6565b518284526005602090815260408086206002548754925163095ea7b360e01b81526001600160a01b0393841660048201526024810186905291939192839160449183918b91165af18015610eba57610ec5575b50845460025486916001600160a01b039182169116803b1561045e5760848392604051948593849263617ba03760e01b845260048401528860248401523060448401528160648401525af18015610eba57610e89575b506080927faeec09af87559b9077da2e499d1fad2e228d7c24cb4b566fe61976820abaadda6060846002857f65410888fb30edd04f6acfb2f6cfd92aaf0ebb9b5303b6286d65d0b031b5b7f79997600d60039801550154906040519187835260208301526040820152a1015460405191825260043560208301526040820152336060820152a180f35b67ffffffffffffffff8196929611610ea657604052936080610e00565b634e487b7160e01b82526041600452602482fd5b6040513d88823e3d90fd5b610edd9060203d602011610694576106858183611d97565b5085610daa565b610f0091503d8087833e610ef88183611d97565b810190611f0c565b85610d51565b6040513d86823e3d90fd5b634e487b7160e01b87526011600452602487fd5b634e487b7160e01b86526011600452602486fd5b60405162461bcd60e51b815260206004820152600d60248201526c496e76616c696420707269636560981b6044820152606490fd5b610f90915060a03d60a011610f9b575b610f888183611d97565b810190611dd0565b505050905086610cb6565b503d610f7e565b610fba9060203d602011610694576106858183611d97565b5084610c3d565b634e487b7160e01b83526041600452602483fd5b670de0b6b3a7640000610fec6104b0860483611eb6565b0490610ff88284611ff0565b9160243560001981011161111b57602435600019018514611106575b62278d0085818102048114861517156110f25761103390860242611eff565b6040519161104083611d49565b84835260208301528960408301526060820152600c870154600160401b8110156110de5780600161107a9201600c8a0155600c89016120df565b9190916110ca57916110c4939160036060856110be9651845560208101516001850155600284016040820151151560ff801983541691161790550151910155611ff0565b92611ffd565b91610b89565b634e487b7160e01b8a5260048a905260248afd5b634e487b7160e01b8a52604160045260248afd5b634e487b7160e01b8a52601160045260248afd5b92509050806111158382611eff565b92611014565b634e487b7160e01b89526011600452602489fd5b634e487b7160e01b87526012600452602487fd5b634e487b7160e01b85526011600452602485fd5b60405162461bcd60e51b815260206004820152602860248201527f436f6c6c656374656420616d6f756e7420646f65736e2774206d6174636820706044820152671c9a5b98da5c185b60c21b6064820152608490fd5b909192939495506111bf81838661200c565b356001600160a01b03811681036113ef576111db82858861200c565b359687156113b2578b90602061123160018060a01b03600954168b6040519586809481936323b872dd60e01b8352308b6004850160409194939294606082019560018060a01b0380921683521660208201520152565b03925af190811561069b5761124d928a92611393575b50611eff565b9660018060a01b0382168c52600460205260408c2061126d828254611eff565b90556104b061128960243561128460443585611eb6565b611eb6565b0490604051928360a081011067ffffffffffffffff60a08601111761137f5760a0840160405260018060a01b03168352602083015260408201528a60608201528a6080820152600b880154600160401b81101561136b578060016112f69201600b8b0155600b8a0161201c565b91909161135757805182546001600160a01b0319166001600160a01b03919091161782556020810151600183015560408101516002830155606081015160038301556080015160049091015561134b90611ffd565b90879594939291610aca565b634e487b7160e01b8c5260048c905260248cfd5b634e487b7160e01b8c52604160045260248cfd5b634e487b7160e01b8e52604160045260248efd5b6113ab9060203d602011610694576106858183611d97565b5038611247565b60405162461bcd60e51b8152602060048201526015602482015274125b9d985b1a59081b195b99195c88185b5bdd5b9d605a1b6044820152606490fd5b8a80fd5b61140b9060203d602011610694576106858183611d97565b5038610a27565b6040513d8a823e3d90fd5b60405162461bcd60e51b8152602060048201526013602482015272139bc81b195b99195c9cc81c1c9bdd9a591959606a1b6044820152606490fd5b60405162461bcd60e51b815260206004820152602c60248201527f4c656e6465722061646472657373657320616e6420616d6f756e7473206c656e60448201526b0cee8d040dad2e6dac2e8c6d60a31b6064820152608490fd5b60405162461bcd60e51b815260206004820152602360248201527f426f72726f77657220616c72656164792068617320616e20616374697665206c60448201526237b0b760e91b6064820152608490fd5b60405162461bcd60e51b815260206004820152601060248201526f24b73b30b634b210323ab930ba34b7b760811b6044820152606490fd5b60405162461bcd60e51b815260206004820152600e60248201526d125b9d985b1a5908185b5bdd5b9d60921b6044820152606490fd5b8380fd5b5080fd5b503461015257604061159361158d36611cb0565b90612a42565b82519182526020820152f35b5034610152576020366003190112610152576004356001600160a01b038181169182900361045e576115d6906008541633146120fb565b6001600160601b0360a01b600154161760015580f35b5034610152576020366003190112610152576004356001600160a01b038181169182900361045e57611623906008541633146120fb565b81546001600160a01b03191617815580f35b503461015257602036600319011261015257600d6040602092600435815260058452200154604051908152f35b5034610152576020366003190112610152576004356001600160a01b03811690819003611575578160409160209352600483522054604051908152f35b5034610152576020806003193601126115755760043560018060a01b036116cb816008541633146120fb565b8184526005835260408420926009908185019182549260ff6116ee818616612151565b88908990600c8a018054925b83811061193557505050506276a70010156118db5760ff1980941690556001808701938585541689526006845260408920908154169055600d870154806118cb575b50600380880154600e89015491826117b0575b8a7fcab88a55906c5830a49dddd8b31d115294a5e6c4210f25fe140530a39c51dc748a8a8a5416906117aa611782611e05565b604080519384526001600160a01b039094166020840152928201929092529081906060820190565b0390a180f35b9091928099600b8c9101915b6117c7575b5061174f565b81548110156118c6576117da818361201c565b506117ec8c8201548583015490611ff0565b8c81156118b55750670de0b6b3a76400009081810290810482036118a1578796959493928f919261182a6118246118669b8e96611edf565b89611eb6565b04918d808c541692541690604051809b8195829463a9059cbb60e01b84526004840160209093929193604081019460018060a01b031681520152565b03925af190811561069b578c966118819261188b5750611ffd565b90919293946117bc565b61068d908a3d8c11610694576106858183611d97565b634e487b7160e01b8f52601160045260248ffd5b969594939290506118819150611ffd565b6117c1565b6118d59087612600565b3861173c565b60405162461bcd60e51b815260048101849052602c60248201527f4c6f616e206973206e6f74206f766572647565206265796f6e642033206d6f6e60448201526b1d1a1cc81a5b881d1bdd185b60a21b6064820152608490fd5b61193f81836120df565b50836002820154166119575760030154804211611966575b5061196190611ffd565b6116fa565b611961919561197861197e9242611ff0565b90611eff565b9490611957565b5034610152576020366003190112610152576004356001600160a01b038116908190036115755760408260ff9260209452600684522054166040519015158152f35b50346101525780600319360112610152576009546040516001600160a01b039091168152602090f35b50346101525780600319360112610152576002546040516001600160a01b039091168152602090f35b503461015257602036600319011261015257611a4060018060a01b036008541633146120fb565b600435815260056020526040812060098101805491611a6160ff8416612151565b611a69611e05565b91600d82016305f5e100611a7e858354611eb6565b0491600e840192835460698102908082046069149015171561111b576064900410611c4d5760ff1995861690556001830180546001600160a01b0316875260066020526040872080549096169095555480611c3b575b50600382015490549182611b33575b505091546040805160043581526001600160a01b0390921660208301528101919091527fcab88a55906c5830a49dddd8b31d115294a5e6c4210f25fe140530a39c51dc74915080606081016117aa565b909192855b600b830154811015611c0e57611b5181600b850161201c565b50611b656001820154600383015490611ff0565b8015611c035780670de0b6b3a7640000810204670de0b6b3a76400000361111b57611be59291670de0b6b3a7640000611ba56118248a8360209602611edf565b600954925460405163a9059cbb60e01b81526001600160a01b039182166004820152929091046024830152909485929091169082908c9082906044820190565b03925af191821561141257611bfe9261066c5750611ffd565b611b38565b5050611bfe90611ffd565b50925050507fcab88a55906c5830a49dddd8b31d115294a5e6c4210f25fe140530a39c51dc743880611ae3565b611c4790600435612600565b38611ad4565b60405162461bcd60e51b815260206004820152603560248201527f4254432076616c756520686173206e6f742064726f707065642062656c6f77206044820152741b1a5c5d5a59185d1a5bdb881d1a1c995cda1bdb19605a1b6064820152608490fd5b6040906003190112611cc6576004359060243590565b600080fd5b9181601f84011215611cc65782359167ffffffffffffffff8311611cc6576020808501948460051b010111611cc657565b600754811015611d335760076000527fa66cc928b5edb82af9bd49922954155ab7b0942694bea4ce44661d9a8736c6880190600090565b634e487b7160e01b600052603260045260246000fd5b6080810190811067ffffffffffffffff821117611d6557604052565b634e487b7160e01b600052604160045260246000fd5b6060810190811067ffffffffffffffff821117611d6557604052565b90601f8019910116810190811067ffffffffffffffff821117611d6557604052565b519069ffffffffffffffffffff82168203611cc657565b908160a0910312611cc657611de481611db9565b91602082015191604081015191611e02608060608401519301611db9565b90565b600354604051633fabe5a360e21b81529060a090829060049082906001600160a01b03165afa908115611e5d57600091611e3d575090565b611e55915060a03d8111610f9b57610f888183611d97565b505050905090565b6040513d6000823e3d90fd5b90816020910312611cc657518015158103611cc65790565b67ffffffffffffffff8111611d655760051b60200190565b805115611d335760200190565b805160011015611d335760400190565b81810292918115918404141715611ec957565b634e487b7160e01b600052601160045260246000fd5b8115611ee9570490565b634e487b7160e01b600052601260045260246000fd5b91908201809211611ec957565b6020908181840312611cc65780519067ffffffffffffffff8211611cc657019180601f84011215611cc6578251611f4281611e81565b93611f506040519586611d97565b818552838086019260051b820101928311611cc6578301905b828210611f77575050505090565b81518152908301908301611f69565b9291909594939560a084019084526020918285015260a0604085015282518091528160c0850193019160005b828110611fd35750505050906080919460018060a01b031660608201520152565b83516001600160a01b031685529381019392810192600101611fb2565b91908203918211611ec957565b6000198114611ec95760010190565b9190811015611d335760051b0190565b8054821015611d33576000526005602060002091020190600090565b9080156120d85781156120d15781806001146120c9576002146120b85760208110610133831016604e8210600b841016176120b357600190815b80821161208a57505081600019048111611ec9570290565b909280600019048111611ec9578184166120aa575b800292811c90612072565b8092029161209f565b900a90565b905060ff8111611ec9576001901b90565b505050600190565b5050600090565b5050600190565b8054821015611d335760005260206000209060021b0190600090565b1561210257565b60405162461bcd60e51b815260206004820152602160248201527f4f6e6c79206f776e65722063616e2063616c6c20746869732066756e6374696f6044820152603760f91b6064820152608490fd5b1561215857565b60405162461bcd60e51b81526020600482015260126024820152714c6f616e206973206e6f742061637469766560701b6044820152606490fd5b60008181526005602090815260408083209594909181158080156125f4575b6125ea57670de0b6b3a7640000908184029084820483141715610f2557886121e66121f0926002600d999a9b9c015490611edf565b9687910154611eb6565b049485156125a65786815260058252838120600d810190815488116125535760025486516370a0823160e01b8082523060048084019190915294602494936001600160a01b0393919290841689838881845afa9283156124d3578e98979695949392918a8e8d93829661250f575b50818b9189606494541690519d8e958694631a4ca37b60e21b86528501528c8401523060448401525af19788156124d3578c918b918b9a6124dd575b508786600254169351809481938252308c8301525afa9081156124d35789916124a2575b5011156124555785156124135761231b928892826122de89809554611ff0565b90556001816002541692015416888c5180968195829463a9059cbb60e01b84528b840160209093929193604081019460018060a01b031681520152565b03925af19081156124095785916123ec575b50156123aa575050917f38a556a122683cb48d496614a7a03605b6c2c0482342924caf483386980ecc9f60807fbbe6753bdc52f1f0bca193fae9cf6f21e08e703147f9903fd2a84bb9cf273fa6999795938795829a9851918a83528986840152878301526060820152a182519586528501528301526060820152a1565b865162461bcd60e51b8152918201859052601b908201527f5472616e7366657220746f20626f72726f776572206661696c656400000000006044820152606490fd5b6124039150863d8811610694576106858183611d97565b3861232d565b88513d87823e3d90fd5b895162461bcd60e51b8152808601899052601c818601527f556e7374616b652072657475726e6564207a65726f20746f6b656e73000000006044820152606490fd5b895162461bcd60e51b81528086018990526022818601527f5769746864726177616c206469646e277420696e6372656173652062616c616e604482015261636560f01b6064820152608490fd5b90508981813d83116124cc575b6124b98183611d97565b810103126124c85751386122be565b8880fd5b503d6124af565b8c513d8b823e3d90fd5b9250985081813d8311612508575b6124f58183611d97565b810103126124c857898c9151983861229a565b503d6124eb565b94969798999a9b505050925081813d831161254c575b61252f8183611d97565b810103126124c857518d97969594939290918a908a8e606461225e565b503d612525565b855162461bcd60e51b815260048101859052602660248201527f43616e6e6f7420756e7374616b65206d6f7265207468616e207374616b656420604482015265185b5bdd5b9d60d21b6064820152608490fd5b835162461bcd60e51b815260048101839052601960248201527f416d6f756e7420746f20756e7374616b65206973207a65726f000000000000006044820152606490fd5b5050505050509050565b506002880154156121b1565b9060009082825260209060058252604090600d82852001805482116129ef5781156129ab5760025483516370a0823160e01b808252306004808401919091526001600160a01b0394602494919390929091861689838781845afa928315612937578b9695949392918b918894612970575b50606489895416918c51998a938492631a4ca37b60e21b84528a8401528d8b8401523060448401525af1958615612937578b96612941575b5089876002541691868b5180948193825230898301525afa908115612937578b9161290a575b5011156128be57831561287d576126e7848254611ff0565b9055600254600154875163095ea7b360e01b81529086166001600160a01b03168382019081526020810186905290918991839188169082908d90829060400103925af1801561287357612856575b5085519261274284611d7b565b60028452863689860137846002541661275a85611e99565b52846009541661276985611ea6565b52605f810294818604605f0361284457600154169261012c420190814211612833575089949392916127b686928a51988997889687956338ed173960e01b87526064309404918701611f86565b03925af190811561282957916127fa8694927f38a556a122683cb48d496614a7a03605b6c2c0482342924caf483386980ecc9f9896946080989161280f5750611ea6565b519282519586528501528301526060820152a1565b61282391503d8088833e610ef88183611d97565b38610d51565b83513d87823e3d90fd5b634e487b7160e01b8b52601184528afd5b634e487b7160e01b8a5260118352838afd5b61286c90883d8a11610694576106858183611d97565b5038612735565b87513d8b823e3d90fd5b50601c6064928888519362461bcd60e51b85528401528201527f556e7374616b652072657475726e6564207a65726f20746f6b656e73000000006044820152fd5b5060226084928888519362461bcd60e51b85528401528201527f5769746864726177616c206469646e277420696e6372656173652062616c616e604482015261636560f01b6064820152fd5b90508981813d8311612930575b6129218183611d97565b810103126113ef5751386126cf565b503d612917565b89513d8d823e3d90fd5b9095508981813d8311612969575b6129598183611d97565b810103126113ef575194386126a9565b503d61294f565b929350939495965081813d83116129a4575b61298c8183611d97565b810103126113ef5790898b9695949392519238612671565b503d612982565b825162461bcd60e51b815260048101859052601a60248201527f43616e6e6f7420756e7374616b65207a65726f20616d6f756e740000000000006044820152606490fd5b825162461bcd60e51b815260048101859052602660248201527f43616e6e6f7420756e7374616b65206d6f7265207468616e207374616b656420604482015265185b5bdd5b9d60d21b6064820152608490fd5b600090815260056020526040812060028101549093928115612aac57670de0b6b3a76400009283820291808304851490151715612a98575093612a8a612a9492600d96611edf565b9485910154611eb6565b0490565b634e487b7160e01b81526011600452602490fd5b5050809250919056fea26469706673582212208aea43713d52269c0cbe6898baa896c72e3faf39f7f3deefb39566917cb8709c64736f6c63430008140033","opcodes":"PUSH1 0x80 CALLVALUE PUSH3 0xEC JUMPI PUSH1 0x1F PUSH3 0x2C08 CODESIZE DUP2 SWAP1 SUB SWAP2 DUP3 ADD PUSH1 0x1F NOT AND DUP4 ADD SWAP2 PUSH1 0x1 PUSH1 0x1 PUSH1 0x40 SHL SUB DUP4 GT DUP5 DUP5 LT OR PUSH3 0xF1 JUMPI DUP1 DUP5 SWAP3 PUSH1 0xA0 SWAP5 PUSH1 0x40 MSTORE DUP4 CODECOPY DUP2 ADD SUB SLT PUSH3 0xEC JUMPI PUSH3 0x4D DUP2 PUSH3 0x107 JUMP JUMPDEST SWAP1 PUSH3 0x5C PUSH1 0x20 DUP3 ADD PUSH3 0x107 JUMP JUMPDEST SWAP1 PUSH3 0x6B PUSH1 0x40 DUP3 ADD PUSH3 0x107 JUMP JUMPDEST SWAP2 PUSH3 0x88 PUSH1 0x80 PUSH3 0x80 PUSH1 0x60 DUP6 ADD PUSH3 0x107 JUMP JUMPDEST SWAP4 ADD PUSH3 0x107 JUMP JUMPDEST SWAP2 PUSH1 0x1 DUP1 PUSH1 0xA0 SHL SUB NOT SWAP5 CALLER DUP7 PUSH1 0x8 SLOAD AND OR PUSH1 0x8 SSTORE PUSH1 0x1 DUP1 PUSH1 0xA0 SHL SUB SWAP5 DUP6 DUP1 SWAP5 DUP2 DUP1 SWAP5 AND DUP10 PUSH1 0x9 SLOAD AND OR PUSH1 0x9 SSTORE AND DUP8 PUSH1 0x2 SLOAD AND OR PUSH1 0x2 SSTORE AND DUP6 PUSH1 0x3 SLOAD AND OR PUSH1 0x3 SSTORE AND DUP4 PUSH1 0x0 SLOAD AND OR PUSH1 0x0 SSTORE AND SWAP1 PUSH1 0x1 SLOAD AND OR PUSH1 0x1 SSTORE PUSH1 0x40 MLOAD PUSH2 0x2AEB SWAP1 DUP2 PUSH3 0x11D DUP3 CODECOPY RETURN JUMPDEST PUSH1 0x0 DUP1 REVERT JUMPDEST PUSH4 0x4E487B71 PUSH1 0xE0 SHL PUSH1 0x0 MSTORE PUSH1 0x41 PUSH1 0x4 MSTORE PUSH1 0x24 PUSH1 0x0 REVERT JUMPDEST MLOAD SWAP1 PUSH1 0x1 PUSH1 0x1 PUSH1 0xA0 SHL SUB DUP3 AND DUP3 SUB PUSH3 0xEC JUMPI JUMP INVALID PUSH1 0x80 PUSH1 0x40 MSTORE PUSH1 0x4 CALLDATASIZE LT ISZERO PUSH2 0x12 JUMPI PUSH1 0x0 DUP1 REVERT JUMPDEST PUSH1 0x0 DUP1 CALLDATALOAD PUSH1 0xE0 SHR DUP1 PUSH4 0xA71096E EQ PUSH2 0x1A19 JUMPI DUP1 PUSH4 0xE462386 EQ PUSH2 0x19F0 JUMPI DUP1 PUSH4 0x11EAC855 EQ PUSH2 0x19C7 JUMPI DUP1 PUSH4 0x21D4F8DB EQ PUSH2 0x1985 JUMPI DUP1 PUSH4 0x28830D47 EQ PUSH2 0x169F JUMPI DUP1 PUSH4 0x28FD10D7 EQ PUSH2 0x1662 JUMPI DUP1 PUSH4 0x337A1737 EQ PUSH2 0x1635 JUMPI DUP1 PUSH4 0x349F937C EQ PUSH2 0x15EC JUMPI DUP1 PUSH4 0x41273657 EQ PUSH2 0x159F JUMPI DUP1 PUSH4 0x5206D2D0 EQ PUSH2 0x1579 JUMPI DUP1 PUSH4 0x66FB6E5A EQ PUSH2 0x936 JUMPI DUP1 PUSH4 0x6C1945AE EQ PUSH2 0x835 JUMPI DUP1 PUSH4 0x7A9B0412 EQ PUSH2 0x7E8 JUMPI DUP1 PUSH4 0x80F2122C EQ PUSH2 0x462 JUMPI DUP1 PUSH4 0x83CD8FCF EQ PUSH2 0x411 JUMPI DUP1 PUSH4 0x8DA5CB5B EQ PUSH2 0x3E8 JUMPI DUP1 PUSH4 0x98D5FDCA EQ PUSH2 0x3C5 JUMPI DUP1 PUSH4 0xA03E4BC3 EQ PUSH2 0x39E JUMPI DUP1 PUSH4 0xC31C9C07 EQ PUSH2 0x375 JUMPI DUP1 PUSH4 0xC4A90815 EQ PUSH2 0x2B7 JUMPI DUP1 PUSH4 0xC9642D2A EQ PUSH2 0x17E JUMPI DUP1 PUSH4 0xEF06E72C EQ PUSH2 0x155 JUMPI PUSH4 0xF8715A42 EQ PUSH2 0x11A JUMPI PUSH1 0x0 DUP1 REVERT JUMPDEST CALLVALUE PUSH2 0x152 JUMPI PUSH1 0x20 CALLDATASIZE PUSH1 0x3 NOT ADD SLT PUSH2 0x152 JUMPI PUSH1 0x4 CALLDATALOAD SWAP1 PUSH1 0x7 SLOAD DUP3 LT ISZERO PUSH2 0x152 JUMPI PUSH1 0x20 PUSH2 0x144 DUP4 PUSH2 0x1CFC JUMP JUMPDEST SWAP1 SLOAD PUSH1 0x40 MLOAD SWAP2 PUSH1 0x3 SHL SHR DUP2 MSTORE RETURN JUMPDEST DUP1 REVERT JUMPDEST POP CALLVALUE PUSH2 0x152 JUMPI DUP1 PUSH1 0x3 NOT CALLDATASIZE ADD SLT PUSH2 0x152 JUMPI PUSH1 0x3 SLOAD PUSH1 0x40 MLOAD PUSH1 0x1 PUSH1 0x1 PUSH1 0xA0 SHL SUB SWAP1 SWAP2 AND DUP2 MSTORE PUSH1 0x20 SWAP1 RETURN JUMPDEST POP CALLVALUE PUSH2 0x152 JUMPI PUSH2 0x18D CALLDATASIZE PUSH2 0x1CB0 JUMP JUMPDEST SWAP1 PUSH2 0x1A3 PUSH1 0x1 DUP1 PUSH1 0xA0 SHL SUB PUSH1 0x8 SLOAD AND CALLER EQ PUSH2 0x20FB JUMP JUMPDEST DUP1 DUP4 MSTORE PUSH1 0x5 PUSH1 0x20 MSTORE PUSH1 0xC PUSH1 0x40 DUP5 KECCAK256 PUSH2 0x1C1 PUSH1 0xFF PUSH1 0x9 DUP4 ADD SLOAD AND PUSH2 0x2151 JUMP JUMPDEST ADD SWAP1 DUP2 SLOAD DUP4 LT ISZERO PUSH2 0x272 JUMPI PUSH1 0xFF PUSH1 0x2 PUSH2 0x1DA DUP6 DUP6 PUSH2 0x20DF JUMP JUMPDEST POP ADD SLOAD AND PUSH2 0x22D JUMPI DUP3 PUSH1 0x2 PUSH2 0x212 PUSH32 0x3D05AC2057427AC2F84502E7EFEFEBF5AE10D9529129C2979CE60FB97D460614 SWAP6 PUSH1 0x40 SWAP6 PUSH2 0x20DF JUMP JUMPDEST POP ADD DUP1 SLOAD PUSH1 0xFF NOT AND PUSH1 0x1 OR SWAP1 SSTORE DUP3 MLOAD SWAP2 DUP3 MSTORE PUSH1 0x20 DUP3 ADD MSTORE LOG1 DUP1 RETURN JUMPDEST PUSH1 0x40 MLOAD PUSH3 0x461BCD PUSH1 0xE5 SHL DUP2 MSTORE PUSH1 0x20 PUSH1 0x4 DUP3 ADD MSTORE PUSH1 0x1F PUSH1 0x24 DUP3 ADD MSTORE PUSH32 0x496E7374616C6C6D656E7420616C7265616479206D61726B6564207061696400 PUSH1 0x44 DUP3 ADD MSTORE PUSH1 0x64 SWAP1 REVERT JUMPDEST PUSH1 0x40 MLOAD PUSH3 0x461BCD PUSH1 0xE5 SHL DUP2 MSTORE PUSH1 0x20 PUSH1 0x4 DUP3 ADD MSTORE PUSH1 0x19 PUSH1 0x24 DUP3 ADD MSTORE PUSH32 0x496E76616C696420696E7374616C6C6D656E7420696E64657800000000000000 PUSH1 0x44 DUP3 ADD MSTORE PUSH1 0x64 SWAP1 REVERT JUMPDEST POP CALLVALUE PUSH2 0x152 JUMPI PUSH1 0x20 CALLDATASIZE PUSH1 0x3 NOT ADD SLT PUSH2 0x152 JUMPI PUSH1 0x40 PUSH2 0x1A0 SWAP2 PUSH1 0x4 CALLDATALOAD DUP2 MSTORE PUSH1 0x5 PUSH1 0x20 MSTORE KECCAK256 DUP1 SLOAD SWAP1 PUSH1 0x1 DUP1 PUSH1 0xA0 SHL SUB PUSH1 0x1 DUP3 ADD SLOAD AND SWAP1 PUSH1 0x2 DUP2 ADD SLOAD PUSH1 0x3 DUP3 ADD SLOAD PUSH1 0x4 DUP4 ADD SLOAD PUSH1 0x5 DUP5 ADD SLOAD PUSH1 0x6 DUP6 ADD SLOAD PUSH1 0x7 DUP7 ADD SLOAD SWAP2 PUSH1 0x8 DUP8 ADD SLOAD SWAP4 PUSH1 0xFF PUSH1 0x9 DUP10 ADD SLOAD AND SWAP6 PUSH1 0xA DUP10 ADD SLOAD SWAP8 PUSH1 0xE PUSH1 0xD DUP12 ADD SLOAD SWAP11 ADD SLOAD SWAP11 PUSH1 0x40 MLOAD SWAP13 DUP14 MSTORE PUSH1 0x20 DUP14 ADD MSTORE PUSH1 0x40 DUP13 ADD MSTORE PUSH1 0x60 DUP12 ADD MSTORE PUSH1 0x80 DUP11 ADD MSTORE PUSH1 0xA0 DUP10 ADD MSTORE PUSH1 0xC0 DUP9 ADD MSTORE PUSH1 0xE0 DUP8 ADD MSTORE PUSH2 0x100 DUP7 ADD MSTORE ISZERO ISZERO PUSH2 0x120 DUP6 ADD MSTORE PUSH2 0x140 DUP5 ADD MSTORE PUSH2 0x160 DUP4 ADD MSTORE PUSH2 0x180 DUP3 ADD MSTORE RETURN JUMPDEST POP CALLVALUE PUSH2 0x152 JUMPI DUP1 PUSH1 0x3 NOT CALLDATASIZE ADD SLT PUSH2 0x152 JUMPI PUSH1 0x1 SLOAD PUSH1 0x40 MLOAD PUSH1 0x1 PUSH1 0x1 PUSH1 0xA0 SHL SUB SWAP1 SWAP2 AND DUP2 MSTORE PUSH1 0x20 SWAP1 RETURN JUMPDEST POP CALLVALUE PUSH2 0x152 JUMPI DUP1 PUSH1 0x3 NOT CALLDATASIZE ADD SLT PUSH2 0x152 JUMPI SLOAD PUSH1 0x40 MLOAD PUSH1 0x1 PUSH1 0x1 PUSH1 0xA0 SHL SUB SWAP1 SWAP2 AND DUP2 MSTORE PUSH1 0x20 SWAP1 RETURN JUMPDEST POP CALLVALUE PUSH2 0x152 JUMPI DUP1 PUSH1 0x3 NOT CALLDATASIZE ADD SLT PUSH2 0x152 JUMPI PUSH1 0x20 PUSH2 0x3E0 PUSH2 0x1E05 JUMP JUMPDEST PUSH1 0x40 MLOAD SWAP1 DUP2 MSTORE RETURN JUMPDEST POP CALLVALUE PUSH2 0x152 JUMPI DUP1 PUSH1 0x3 NOT CALLDATASIZE ADD SLT PUSH2 0x152 JUMPI PUSH1 0x8 SLOAD PUSH1 0x40 MLOAD PUSH1 0x1 PUSH1 0x1 PUSH1 0xA0 SHL SUB SWAP1 SWAP2 AND DUP2 MSTORE PUSH1 0x20 SWAP1 RETURN JUMPDEST POP CALLVALUE PUSH2 0x152 JUMPI PUSH1 0x20 CALLDATASIZE PUSH1 0x3 NOT ADD SLT PUSH2 0x152 JUMPI PUSH1 0x4 CALLDATALOAD PUSH1 0x1 PUSH1 0x1 PUSH1 0xA0 SHL SUB DUP2 DUP2 AND SWAP2 DUP3 SWAP1 SUB PUSH2 0x45E JUMPI PUSH2 0x448 SWAP1 PUSH1 0x8 SLOAD AND CALLER EQ PUSH2 0x20FB JUMP JUMPDEST PUSH1 0x1 PUSH1 0x1 PUSH1 0x60 SHL SUB PUSH1 0xA0 SHL PUSH1 0x2 SLOAD AND OR PUSH1 0x2 SSTORE DUP1 RETURN JUMPDEST DUP3 DUP1 REVERT JUMPDEST POP CALLVALUE PUSH2 0x152 JUMPI PUSH2 0x471 CALLDATASIZE PUSH2 0x1CB0 JUMP JUMPDEST SWAP1 DUP1 DUP4 MSTORE PUSH1 0x5 PUSH1 0x20 MSTORE PUSH1 0x40 DUP4 KECCAK256 SWAP1 PUSH2 0x48F PUSH1 0xFF PUSH1 0x9 DUP5 ADD SLOAD AND PUSH2 0x2151 JUMP JUMPDEST PUSH1 0x1 DUP3 ADD SLOAD PUSH1 0x1 PUSH1 0x1 PUSH1 0xA0 SHL SUB AND CALLER SUB PUSH2 0x7A3 JUMPI PUSH1 0x9 SLOAD PUSH1 0x40 MLOAD PUSH4 0x23B872DD PUSH1 0xE0 SHL DUP2 MSTORE CALLER PUSH1 0x4 DUP3 ADD MSTORE ADDRESS PUSH1 0x24 DUP3 ADD MSTORE PUSH1 0x44 DUP2 ADD DUP6 SWAP1 MSTORE SWAP1 PUSH1 0x20 SWAP1 DUP3 SWAP1 PUSH1 0x64 SWAP1 DUP3 SWAP1 DUP10 SWAP1 PUSH1 0x1 PUSH1 0x1 PUSH1 0xA0 SHL SUB AND GAS CALL DUP1 ISZERO PUSH2 0x798 JUMPI PUSH2 0x779 JUMPI JUMPDEST POP DUP3 SWAP1 DUP5 DUP6 JUMPDEST PUSH1 0xC DUP6 ADD SLOAD DUP2 LT DUP1 PUSH2 0x770 JUMPI JUMPDEST ISZERO PUSH2 0x71B JUMPI PUSH2 0x50E DUP2 PUSH1 0xC DUP8 ADD PUSH2 0x20DF JUMP JUMPDEST POP PUSH1 0xFF PUSH1 0x2 DUP3 ADD SLOAD AND PUSH2 0x711 JUMPI DUP1 SLOAD PUSH1 0x1 DUP3 ADD SLOAD SWAP1 PUSH2 0x52D DUP3 DUP3 PUSH2 0x1EFF JUMP JUMPDEST DUP1 DUP9 LT ISZERO PUSH2 0x548 JUMPI JUMPDEST POP POP POP POP PUSH2 0x543 SWAP1 PUSH2 0x1FFD JUMP JUMPDEST PUSH2 0x4EF JUMP JUMPDEST SWAP1 PUSH2 0x55D PUSH2 0x563 SWAP3 DUP3 SWAP9 SWAP6 SWAP12 SWAP5 SWAP11 SWAP8 SWAP10 PUSH2 0x1FF0 JUMP JUMPDEST SWAP8 PUSH2 0x1EFF JUMP JUMPDEST SWAP1 PUSH1 0x2 DUP6 ADD SLOAD SWAP7 DUP11 JUMPDEST PUSH1 0xB DUP8 ADD SLOAD DUP2 LT ISZERO PUSH2 0x6BA JUMPI PUSH2 0x585 DUP2 PUSH1 0xB DUP10 ADD PUSH2 0x201C JUMP JUMPDEST POP PUSH1 0x1 DUP2 ADD SLOAD DUP1 PUSH8 0xDE0B6B3A7640000 DUP2 MUL DIV PUSH8 0xDE0B6B3A7640000 EQ DUP2 ISZERO OR ISZERO PUSH2 0x6A6 JUMPI DUP14 PUSH2 0x64D SWAP4 SWAP3 DUP14 PUSH2 0x61D PUSH8 0xDE0B6B3A7640000 DUP16 DUP16 DUP3 PUSH2 0x5DB PUSH2 0x5D4 PUSH2 0x5E2 SWAP5 DUP4 PUSH1 0x20 SWAP13 MUL PUSH2 0x1EDF JUMP JUMPDEST DUP1 SWAP4 PUSH2 0x1EB6 JUMP JUMPDEST DIV SWAP5 PUSH2 0x1EB6 JUMP JUMPDEST DIV PUSH1 0x3 DUP5 ADD PUSH2 0x5F2 DUP5 DUP3 SLOAD PUSH2 0x1EFF JUMP JUMPDEST SWAP1 SSTORE PUSH1 0x4 DUP5 ADD PUSH2 0x603 DUP3 DUP3 SLOAD PUSH2 0x1EFF JUMP JUMPDEST SWAP1 SSTORE PUSH1 0x9 SLOAD SWAP4 SLOAD PUSH1 0x1 PUSH1 0x1 PUSH1 0xA0 SHL SUB SWAP5 DUP6 AND SWAP5 AND SWAP3 PUSH2 0x1EFF JUMP JUMPDEST PUSH1 0x40 MLOAD PUSH4 0xA9059CBB PUSH1 0xE0 SHL DUP2 MSTORE PUSH1 0x1 PUSH1 0x1 PUSH1 0xA0 SHL SUB SWAP1 SWAP3 AND PUSH1 0x4 DUP4 ADD MSTORE PUSH1 0x24 DUP3 ADD MSTORE SWAP5 DUP6 SWAP3 DUP4 SWAP2 DUP3 SWAP1 PUSH1 0x44 DUP3 ADD SWAP1 JUMP JUMPDEST SUB SWAP3 GAS CALL SWAP2 DUP3 ISZERO PUSH2 0x69B JUMPI PUSH2 0x667 SWAP3 PUSH2 0x66C JUMPI JUMPDEST POP PUSH2 0x1FFD JUMP JUMPDEST PUSH2 0x56C JUMP JUMPDEST PUSH2 0x68D SWAP1 PUSH1 0x20 RETURNDATASIZE PUSH1 0x20 GT PUSH2 0x694 JUMPI JUMPDEST PUSH2 0x685 DUP2 DUP4 PUSH2 0x1D97 JUMP JUMPDEST DUP2 ADD SWAP1 PUSH2 0x1E69 JUMP JUMPDEST POP CODESIZE PUSH2 0x661 JUMP JUMPDEST POP RETURNDATASIZE PUSH2 0x67B JUMP JUMPDEST PUSH1 0x40 MLOAD RETURNDATASIZE DUP16 DUP3 RETURNDATACOPY RETURNDATASIZE SWAP1 REVERT JUMPDEST PUSH4 0x4E487B71 PUSH1 0xE0 SHL DUP15 MSTORE PUSH1 0x11 PUSH1 0x4 MSTORE PUSH1 0x24 DUP15 REVERT JUMPDEST POP SWAP7 POP SWAP8 SWAP1 SWAP4 SWAP7 POP PUSH2 0x543 SWAP3 SWAP2 SWAP5 POP PUSH1 0x2 PUSH1 0x1 PUSH1 0xFF NOT DUP3 DUP5 ADD SLOAD AND OR SWAP2 ADD SSTORE PUSH32 0x3D05AC2057427AC2F84502E7EFEFEBF5AE10D9529129C2979CE60FB97D460614 PUSH1 0x40 DUP1 MLOAD DUP7 DUP2 MSTORE DUP4 PUSH1 0x20 DUP3 ADD MSTORE LOG1 SWAP1 CODESIZE DUP1 DUP1 PUSH2 0x536 JUMP JUMPDEST POP PUSH2 0x543 SWAP1 PUSH2 0x1FFD JUMP JUMPDEST DUP7 PUSH32 0xDC376ABD09229A842AC7D8BCADC9017651F1F1B8490750870CAE0ECD4AEDF674 PUSH1 0x80 DUP6 DUP8 PUSH2 0x755 DUP2 DUP13 PUSH2 0x750 DUP11 DUP7 PUSH2 0x2192 JUMP JUMPDEST PUSH2 0x1FF0 JUMP JUMPDEST PUSH1 0x40 MLOAD SWAP3 DUP4 MSTORE CALLER PUSH1 0x20 DUP5 ADD MSTORE PUSH1 0x40 DUP4 ADD MSTORE ISZERO PUSH1 0x60 DUP3 ADD MSTORE LOG1 DUP1 RETURN JUMPDEST POP DUP4 ISZERO ISZERO PUSH2 0x4FC JUMP JUMPDEST PUSH2 0x791 SWAP1 PUSH1 0x20 RETURNDATASIZE PUSH1 0x20 GT PUSH2 0x694 JUMPI PUSH2 0x685 DUP2 DUP4 PUSH2 0x1D97 JUMP JUMPDEST POP CODESIZE PUSH2 0x4E9 JUMP JUMPDEST PUSH1 0x40 MLOAD RETURNDATASIZE DUP8 DUP3 RETURNDATACOPY RETURNDATASIZE SWAP1 REVERT JUMPDEST PUSH1 0x40 MLOAD PUSH3 0x461BCD PUSH1 0xE5 SHL DUP2 MSTORE PUSH1 0x20 PUSH1 0x4 DUP3 ADD MSTORE PUSH1 0x17 PUSH1 0x24 DUP3 ADD MSTORE PUSH32 0x4F6E6C7920626F72726F7765722063616E207265706179000000000000000000 PUSH1 0x44 DUP3 ADD MSTORE PUSH1 0x64 SWAP1 REVERT JUMPDEST POP CALLVALUE PUSH2 0x152 JUMPI PUSH1 0x20 CALLDATASIZE PUSH1 0x3 NOT ADD SLT PUSH2 0x152 JUMPI PUSH1 0x4 CALLDATALOAD PUSH1 0x1 PUSH1 0x1 PUSH1 0xA0 SHL SUB DUP2 DUP2 AND SWAP2 DUP3 SWAP1 SUB PUSH2 0x45E JUMPI PUSH2 0x81F SWAP1 PUSH1 0x8 SLOAD AND CALLER EQ PUSH2 0x20FB JUMP JUMPDEST PUSH1 0x1 PUSH1 0x1 PUSH1 0x60 SHL SUB PUSH1 0xA0 SHL PUSH1 0x3 SLOAD AND OR PUSH1 0x3 SSTORE DUP1 RETURN JUMPDEST POP CALLVALUE PUSH2 0x152 JUMPI PUSH1 0x20 SWAP1 DUP2 PUSH1 0x3 NOT CALLDATASIZE ADD SLT PUSH2 0x152 JUMPI SWAP1 PUSH1 0x4 CALLDATALOAD DUP3 MSTORE PUSH1 0x5 DUP2 MSTORE PUSH1 0xC PUSH1 0x40 DUP4 KECCAK256 ADD DUP1 SLOAD PUSH2 0x865 DUP2 PUSH2 0x1E81 JUMP JUMPDEST SWAP1 PUSH2 0x873 PUSH1 0x40 MLOAD SWAP3 DUP4 PUSH2 0x1D97 JUMP JUMPDEST DUP1 DUP3 MSTORE DUP4 DUP3 ADD DUP1 SWAP4 DUP7 MSTORE DUP5 DUP7 KECCAK256 DUP7 SWAP2 JUMPDEST DUP4 DUP4 LT PUSH2 0x8E7 JUMPI POP POP POP POP PUSH1 0x40 MLOAD SWAP3 DUP1 DUP5 ADD SWAP2 DUP2 DUP6 MSTORE MLOAD DUP1 SWAP3 MSTORE PUSH1 0x40 DUP5 ADD SWAP3 SWAP5 JUMPDEST DUP3 DUP2 LT PUSH2 0x8B1 JUMPI DUP5 DUP5 SUB DUP6 RETURN JUMPDEST DUP6 MLOAD DUP1 MLOAD DUP6 MSTORE DUP1 DUP4 ADD MLOAD DUP6 DUP5 ADD MSTORE PUSH1 0x40 DUP1 DUP3 ADD MLOAD ISZERO ISZERO SWAP1 DUP7 ADD MSTORE PUSH1 0x60 SWAP1 DUP2 ADD MLOAD SWAP1 DUP6 ADD MSTORE SWAP5 DUP2 ADD SWAP5 PUSH1 0x80 SWAP1 SWAP4 ADD SWAP3 PUSH1 0x1 ADD PUSH2 0x8A4 JUMP JUMPDEST PUSH1 0x4 DUP8 PUSH1 0x1 SWAP3 PUSH1 0x40 SWAP11 SWAP10 SWAP8 SWAP9 SWAP11 MLOAD PUSH2 0x8FE DUP2 PUSH2 0x1D49 JUMP JUMPDEST DUP6 SLOAD DUP2 MSTORE DUP5 DUP7 ADD SLOAD DUP4 DUP3 ADD MSTORE PUSH1 0xFF PUSH1 0x2 DUP8 ADD SLOAD AND ISZERO ISZERO PUSH1 0x40 DUP3 ADD MSTORE PUSH1 0x3 DUP7 ADD SLOAD PUSH1 0x60 DUP3 ADD MSTORE DUP2 MSTORE ADD SWAP3 ADD SWAP3 ADD SWAP2 SWAP1 SWAP7 SWAP5 SWAP4 SWAP6 SWAP7 PUSH2 0x883 JUMP JUMPDEST POP CALLVALUE PUSH2 0x152 JUMPI PUSH1 0xA0 CALLDATASIZE PUSH1 0x3 NOT ADD SLT PUSH2 0x152 JUMPI PUSH1 0x64 CALLDATALOAD PUSH8 0xFFFFFFFFFFFFFFFF DUP2 GT PUSH2 0x1575 JUMPI PUSH2 0x968 SWAP1 CALLDATASIZE SWAP1 PUSH1 0x4 ADD PUSH2 0x1CCB JUMP JUMPDEST SWAP1 PUSH1 0x84 CALLDATALOAD PUSH8 0xFFFFFFFFFFFFFFFF DUP2 GT PUSH2 0x1571 JUMPI PUSH2 0x989 SWAP1 CALLDATASIZE SWAP1 PUSH1 0x4 ADD PUSH2 0x1CCB JUMP JUMPDEST SWAP3 PUSH1 0x4 CALLDATALOAD ISZERO PUSH2 0x153B JUMPI PUSH1 0x24 CALLDATALOAD ISZERO PUSH2 0x1503 JUMPI CALLER DUP6 MSTORE PUSH1 0x6 PUSH1 0x20 MSTORE PUSH1 0xFF PUSH1 0x40 DUP7 KECCAK256 SLOAD AND PUSH2 0x14B2 JUMPI DUP4 DUP2 SUB PUSH2 0x1458 JUMPI DUP1 ISZERO PUSH2 0x141D JUMPI PUSH1 0x14 PUSH1 0x4 CALLDATALOAD MUL SWAP2 PUSH1 0x4 CALLDATALOAD DUP4 DIV PUSH1 0x14 SUB PUSH2 0xF25 JUMPI PUSH2 0x9DD PUSH1 0x64 DUP5 DIV PUSH1 0x4 CALLDATALOAD PUSH2 0x1FF0 JUMP JUMPDEST PUSH1 0x9 SLOAD PUSH1 0x40 MLOAD PUSH4 0x23B872DD PUSH1 0xE0 SHL DUP2 MSTORE CALLER PUSH1 0x4 DUP3 ADD MSTORE ADDRESS PUSH1 0x24 DUP3 ADD MSTORE PUSH1 0x64 DUP1 DUP8 DIV PUSH1 0x44 DUP4 ADD MSTORE SWAP3 SWAP7 SWAP3 SWAP1 SWAP2 PUSH1 0x20 SWAP2 DUP4 SWAP2 DUP3 SWAP1 DUP13 SWAP1 PUSH1 0x1 PUSH1 0x1 PUSH1 0xA0 SHL SUB AND GAS CALL DUP1 ISZERO PUSH2 0x1412 JUMPI PUSH2 0x13F3 JUMPI JUMPDEST POP SWAP1 DUP5 SWAP3 SWAP2 PUSH1 0x40 MLOAD PUSH1 0x20 DUP2 ADD SWAP1 CALLER PUSH1 0x60 SHL DUP3 MSTORE TIMESTAMP PUSH1 0x34 DUP3 ADD MSTORE PUSH1 0x34 DUP2 MSTORE PUSH2 0xA4D DUP2 PUSH2 0x1D7B JUMP JUMPDEST MLOAD SWAP1 KECCAK256 SWAP7 DUP8 DUP10 MSTORE PUSH1 0x5 PUSH1 0x20 MSTORE PUSH1 0x64 PUSH1 0x40 DUP11 KECCAK256 SWAP7 DUP10 DUP9 SSTORE PUSH1 0x1 DUP9 ADD CALLER PUSH1 0x1 PUSH1 0x1 PUSH1 0x60 SHL SUB PUSH1 0xA0 SHL DUP3 SLOAD AND OR SWAP1 SSTORE PUSH1 0x4 CALLDATALOAD PUSH1 0xA DUP10 ADD SSTORE DUP7 PUSH1 0x2 DUP10 ADD SSTORE DIV PUSH1 0x3 DUP8 ADD SSTORE PUSH1 0x44 CALLDATALOAD PUSH1 0x4 DUP8 ADD SSTORE PUSH1 0x24 CALLDATALOAD PUSH1 0x5 DUP8 ADD SSTORE TIMESTAMP PUSH1 0x7 DUP8 ADD SSTORE PUSH2 0xAAB PUSH2 0x1E05 JUMP JUMPDEST PUSH1 0x8 DUP8 ADD SSTORE PUSH1 0x9 DUP7 ADD DUP1 SLOAD PUSH1 0xFF NOT AND PUSH1 0x1 OR SWAP1 SSTORE PUSH1 0xE DUP7 ADD DUP6 SWAP1 SSTORE DUP9 SWAP4 DUP5 JUMPDEST DUP2 DUP2 LT PUSH2 0x11AD JUMPI POP POP POP POP POP SUB PUSH2 0x1157 JUMPI PUSH8 0xDE0B6B3A7640000 PUSH1 0x44 CALLDATALOAD MUL SWAP1 PUSH1 0x44 CALLDATALOAD DUP3 DIV PUSH8 0xDE0B6B3A7640000 EQ PUSH1 0x44 CALLDATALOAD ISZERO OR ISZERO PUSH2 0x1143 JUMPI PUSH2 0xB10 PUSH2 0x4B0 DUP4 DIV DUP5 PUSH2 0x1EB6 JUMP JUMPDEST PUSH2 0x4B0 DUP4 DIV PUSH8 0xDE0B6B3A7640000 ADD DUP1 PUSH8 0xDE0B6B3A7640000 GT PUSH2 0xF11 JUMPI DUP1 ISZERO PUSH2 0x112F JUMPI PUSH2 0xB4B SWAP1 PUSH1 0x24 CALLDATALOAD SWAP1 PUSH8 0xDE0B6B3A7640000 DIV PUSH2 0x2038 JUMP JUMPDEST PUSH8 0xDE0B6B3A7640000 SUB SWAP1 PUSH8 0xDE0B6B3A7640000 DUP3 GT PUSH2 0xF11 JUMPI PUSH1 0x6 SWAP2 PUSH2 0xB71 SWAP2 PUSH2 0x1EDF JUMP JUMPDEST SWAP2 ADD SSTORE DUP3 DUP5 MSTORE PUSH1 0x5 PUSH1 0x20 MSTORE PUSH1 0x40 DUP5 KECCAK256 SWAP2 PUSH1 0x6 DUP4 ADD SLOAD DUP6 SWAP2 JUMPDEST PUSH1 0x24 CALLDATALOAD DUP4 LT PUSH2 0xFD5 JUMPI DUP7 DUP7 PUSH1 0x7 SLOAD PUSH1 0x1 PUSH1 0x40 SHL DUP2 LT ISZERO PUSH2 0xFC1 JUMPI DUP1 PUSH1 0x1 PUSH2 0xBB3 SWAP3 ADD PUSH1 0x7 SSTORE PUSH2 0x1CFC JUMP JUMPDEST DUP2 SLOAD PUSH1 0x0 NOT PUSH1 0x3 SWAP3 SWAP1 SWAP3 SHL SWAP2 DUP3 SHL NOT AND SWAP1 DUP4 SWAP1 SHL OR SWAP1 SSTORE CALLER DUP3 MSTORE PUSH1 0x6 PUSH1 0x20 SWAP1 DUP2 MSTORE PUSH1 0x40 DUP1 DUP5 KECCAK256 DUP1 SLOAD PUSH1 0xFF NOT AND PUSH1 0x1 SWAP1 DUP2 OR SWAP1 SWAP2 SSTORE DUP4 DUP6 MSTORE PUSH1 0x5 DUP4 MSTORE DUP2 DUP6 KECCAK256 PUSH1 0xA DUP2 ADD SLOAD PUSH1 0x9 SLOAD SWAP3 SLOAD SWAP4 MLOAD PUSH4 0x95EA7B3 PUSH1 0xE0 SHL DUP2 MSTORE PUSH1 0x1 PUSH1 0x1 PUSH1 0xA0 SHL SUB SWAP5 DUP6 AND PUSH1 0x4 DUP3 ADD MSTORE PUSH1 0x24 DUP2 ADD DUP3 SWAP1 MSTORE SWAP2 SWAP5 SWAP1 SWAP4 SWAP2 SWAP3 SWAP1 SWAP2 DUP4 SWAP2 PUSH1 0x44 SWAP2 DUP4 SWAP2 DUP11 SWAP2 AND GAS CALL DUP1 ISZERO PUSH2 0x798 JUMPI PUSH2 0xFA2 JUMPI JUMPDEST POP PUSH1 0x40 MLOAD PUSH2 0xC4A DUP2 PUSH2 0x1D7B JUMP JUMPDEST PUSH1 0x2 DUP2 MSTORE PUSH1 0x40 CALLDATASIZE PUSH1 0x20 DUP4 ADD CALLDATACOPY PUSH1 0x9 SLOAD PUSH1 0x1 PUSH1 0x1 PUSH1 0xA0 SHL SUB AND PUSH2 0xC6B DUP3 PUSH2 0x1E99 JUMP JUMPDEST MSTORE PUSH1 0x2 SLOAD PUSH1 0x1 PUSH1 0x1 PUSH1 0xA0 SHL SUB AND PUSH2 0xC81 DUP3 PUSH2 0x1EA6 JUMP JUMPDEST MSTORE PUSH1 0x3 SLOAD PUSH1 0x40 MLOAD PUSH4 0x3FABE5A3 PUSH1 0xE2 SHL DUP2 MSTORE SWAP1 PUSH1 0xA0 SWAP1 DUP3 SWAP1 PUSH1 0x4 SWAP1 DUP3 SWAP1 PUSH1 0x1 PUSH1 0x1 PUSH1 0xA0 SHL SUB AND GAS STATICCALL SWAP1 DUP2 ISZERO PUSH2 0xEBA JUMPI DUP7 SWAP2 PUSH2 0xF6E JUMPI JUMPDEST POP DUP6 DUP2 SGT ISZERO PUSH2 0xF39 JUMPI PUSH4 0x5F5E100 DUP1 DUP5 MUL SWAP1 DUP5 DUP3 DIV EQ DUP5 ISZERO OR ISZERO PUSH2 0xF11 JUMPI SWAP1 PUSH2 0xCDE SWAP2 PUSH2 0x1EDF JUMP JUMPDEST DUP1 PUSH1 0x62 DUP2 MUL DIV PUSH1 0x62 EQ DUP2 ISZERO OR ISZERO PUSH2 0xF25 JUMPI PUSH1 0x1 SLOAD PUSH1 0x1 PUSH1 0x1 PUSH1 0xA0 SHL SUB AND SWAP2 TIMESTAMP PUSH2 0x12C DUP2 ADD LT PUSH2 0xF11 JUMPI SWAP2 PUSH2 0xD3C SWAP4 SWAP2 DUP8 DUP1 SWAP5 PUSH1 0x40 MLOAD SWAP7 DUP8 SWAP6 DUP7 SWAP5 DUP6 SWAP4 PUSH4 0x38ED1739 PUSH1 0xE0 SHL DUP6 MSTORE PUSH2 0x12C TIMESTAMP ADD SWAP3 PUSH1 0x64 PUSH1 0x62 ADDRESS SWAP5 MUL DIV SWAP1 PUSH1 0x4 DUP8 ADD PUSH2 0x1F86 JUMP JUMPDEST SUB SWAP3 GAS CALL DUP1 ISZERO PUSH2 0xF06 JUMPI PUSH2 0xD57 SWAP2 DUP6 SWAP2 PUSH2 0xEE4 JUMPI JUMPDEST POP PUSH2 0x1EA6 JUMP JUMPDEST MLOAD DUP3 DUP5 MSTORE PUSH1 0x5 PUSH1 0x20 SWAP1 DUP2 MSTORE PUSH1 0x40 DUP1 DUP7 KECCAK256 PUSH1 0x2 SLOAD DUP8 SLOAD SWAP3 MLOAD PUSH4 0x95EA7B3 PUSH1 0xE0 SHL DUP2 MSTORE PUSH1 0x1 PUSH1 0x1 PUSH1 0xA0 SHL SUB SWAP4 DUP5 AND PUSH1 0x4 DUP3 ADD MSTORE PUSH1 0x24 DUP2 ADD DUP7 SWAP1 MSTORE SWAP2 SWAP4 SWAP2 SWAP3 DUP4 SWAP2 PUSH1 0x44 SWAP2 DUP4 SWAP2 DUP12 SWAP2 AND GAS CALL DUP1 ISZERO PUSH2 0xEBA JUMPI PUSH2 0xEC5 JUMPI JUMPDEST POP DUP5 SLOAD PUSH1 0x2 SLOAD DUP7 SWAP2 PUSH1 0x1 PUSH1 0x1 PUSH1 0xA0 SHL SUB SWAP2 DUP3 AND SWAP2 AND DUP1 EXTCODESIZE ISZERO PUSH2 0x45E JUMPI PUSH1 0x84 DUP4 SWAP3 PUSH1 0x40 MLOAD SWAP5 DUP6 SWAP4 DUP5 SWAP3 PUSH4 0x617BA037 PUSH1 0xE0 SHL DUP5 MSTORE PUSH1 0x4 DUP5 ADD MSTORE DUP9 PUSH1 0x24 DUP5 ADD MSTORE ADDRESS PUSH1 0x44 DUP5 ADD MSTORE DUP2 PUSH1 0x64 DUP5 ADD MSTORE GAS CALL DUP1 ISZERO PUSH2 0xEBA JUMPI PUSH2 0xE89 JUMPI JUMPDEST POP PUSH1 0x80 SWAP3 PUSH32 0xAEEC09AF87559B9077DA2E499D1FAD2E228D7C24CB4B566FE61976820ABAADDA PUSH1 0x60 DUP5 PUSH1 0x2 DUP6 PUSH32 0x65410888FB30EDD04F6ACFB2F6CFD92AAF0EBB9B5303B6286D65D0B031B5B7F7 SWAP10 SWAP8 PUSH1 0xD PUSH1 0x3 SWAP9 ADD SSTORE ADD SLOAD SWAP1 PUSH1 0x40 MLOAD SWAP2 DUP8 DUP4 MSTORE PUSH1 0x20 DUP4 ADD MSTORE PUSH1 0x40 DUP3 ADD MSTORE LOG1 ADD SLOAD PUSH1 0x40 MLOAD SWAP2 DUP3 MSTORE PUSH1 0x4 CALLDATALOAD PUSH1 0x20 DUP4 ADD MSTORE PUSH1 0x40 DUP3 ADD MSTORE CALLER PUSH1 0x60 DUP3 ADD MSTORE LOG1 DUP1 RETURN JUMPDEST PUSH8 0xFFFFFFFFFFFFFFFF DUP2 SWAP7 SWAP3 SWAP7 GT PUSH2 0xEA6 JUMPI PUSH1 0x40 MSTORE SWAP4 PUSH1 0x80 PUSH2 0xE00 JUMP JUMPDEST PUSH4 0x4E487B71 PUSH1 0xE0 SHL DUP3 MSTORE PUSH1 0x41 PUSH1 0x4 MSTORE PUSH1 0x24 DUP3 REVERT JUMPDEST PUSH1 0x40 MLOAD RETURNDATASIZE DUP9 DUP3 RETURNDATACOPY RETURNDATASIZE SWAP1 REVERT JUMPDEST PUSH2 0xEDD SWAP1 PUSH1 0x20 RETURNDATASIZE PUSH1 0x20 GT PUSH2 0x694 JUMPI PUSH2 0x685 DUP2 DUP4 PUSH2 0x1D97 JUMP JUMPDEST POP DUP6 PUSH2 0xDAA JUMP JUMPDEST PUSH2 0xF00 SWAP2 POP RETURNDATASIZE DUP1 DUP8 DUP4 RETURNDATACOPY PUSH2 0xEF8 DUP2 DUP4 PUSH2 0x1D97 JUMP JUMPDEST DUP2 ADD SWAP1 PUSH2 0x1F0C JUMP JUMPDEST DUP6 PUSH2 0xD51 JUMP JUMPDEST PUSH1 0x40 MLOAD RETURNDATASIZE DUP7 DUP3 RETURNDATACOPY RETURNDATASIZE SWAP1 REVERT JUMPDEST PUSH4 0x4E487B71 PUSH1 0xE0 SHL DUP8 MSTORE PUSH1 0x11 PUSH1 0x4 MSTORE PUSH1 0x24 DUP8 REVERT JUMPDEST PUSH4 0x4E487B71 PUSH1 0xE0 SHL DUP7 MSTORE PUSH1 0x11 PUSH1 0x4 MSTORE PUSH1 0x24 DUP7 REVERT JUMPDEST PUSH1 0x40 MLOAD PUSH3 0x461BCD PUSH1 0xE5 SHL DUP2 MSTORE PUSH1 0x20 PUSH1 0x4 DUP3 ADD MSTORE PUSH1 0xD PUSH1 0x24 DUP3 ADD MSTORE PUSH13 0x496E76616C6964207072696365 PUSH1 0x98 SHL PUSH1 0x44 DUP3 ADD MSTORE PUSH1 0x64 SWAP1 REVERT JUMPDEST PUSH2 0xF90 SWAP2 POP PUSH1 0xA0 RETURNDATASIZE PUSH1 0xA0 GT PUSH2 0xF9B JUMPI JUMPDEST PUSH2 0xF88 DUP2 DUP4 PUSH2 0x1D97 JUMP JUMPDEST DUP2 ADD SWAP1 PUSH2 0x1DD0 JUMP JUMPDEST POP POP POP SWAP1 POP DUP7 PUSH2 0xCB6 JUMP JUMPDEST POP RETURNDATASIZE PUSH2 0xF7E JUMP JUMPDEST PUSH2 0xFBA SWAP1 PUSH1 0x20 RETURNDATASIZE PUSH1 0x20 GT PUSH2 0x694 JUMPI PUSH2 0x685 DUP2 DUP4 PUSH2 0x1D97 JUMP JUMPDEST POP DUP5 PUSH2 0xC3D JUMP JUMPDEST PUSH4 0x4E487B71 PUSH1 0xE0 SHL DUP4 MSTORE PUSH1 0x41 PUSH1 0x4 MSTORE PUSH1 0x24 DUP4 REVERT JUMPDEST PUSH8 0xDE0B6B3A7640000 PUSH2 0xFEC PUSH2 0x4B0 DUP7 DIV DUP4 PUSH2 0x1EB6 JUMP JUMPDEST DIV SWAP1 PUSH2 0xFF8 DUP3 DUP5 PUSH2 0x1FF0 JUMP JUMPDEST SWAP2 PUSH1 0x24 CALLDATALOAD PUSH1 0x0 NOT DUP2 ADD GT PUSH2 0x111B JUMPI PUSH1 0x24 CALLDATALOAD PUSH1 0x0 NOT ADD DUP6 EQ PUSH2 0x1106 JUMPI JUMPDEST PUSH3 0x278D00 DUP6 DUP2 DUP2 MUL DIV DUP2 EQ DUP7 ISZERO OR ISZERO PUSH2 0x10F2 JUMPI PUSH2 0x1033 SWAP1 DUP7 MUL TIMESTAMP PUSH2 0x1EFF JUMP JUMPDEST PUSH1 0x40 MLOAD SWAP2 PUSH2 0x1040 DUP4 PUSH2 0x1D49 JUMP JUMPDEST DUP5 DUP4 MSTORE PUSH1 0x20 DUP4 ADD MSTORE DUP10 PUSH1 0x40 DUP4 ADD MSTORE PUSH1 0x60 DUP3 ADD MSTORE PUSH1 0xC DUP8 ADD SLOAD PUSH1 0x1 PUSH1 0x40 SHL DUP2 LT ISZERO PUSH2 0x10DE JUMPI DUP1 PUSH1 0x1 PUSH2 0x107A SWAP3 ADD PUSH1 0xC DUP11 ADD SSTORE PUSH1 0xC DUP10 ADD PUSH2 0x20DF JUMP JUMPDEST SWAP2 SWAP1 SWAP2 PUSH2 0x10CA JUMPI SWAP2 PUSH2 0x10C4 SWAP4 SWAP2 PUSH1 0x3 PUSH1 0x60 DUP6 PUSH2 0x10BE SWAP7 MLOAD DUP5 SSTORE PUSH1 0x20 DUP2 ADD MLOAD PUSH1 0x1 DUP6 ADD SSTORE PUSH1 0x2 DUP5 ADD PUSH1 0x40 DUP3 ADD MLOAD ISZERO ISZERO PUSH1 0xFF DUP1 NOT DUP4 SLOAD AND SWAP2 AND OR SWAP1 SSTORE ADD MLOAD SWAP2 ADD SSTORE PUSH2 0x1FF0 JUMP JUMPDEST SWAP3 PUSH2 0x1FFD JUMP JUMPDEST SWAP2 PUSH2 0xB89 JUMP JUMPDEST PUSH4 0x4E487B71 PUSH1 0xE0 SHL DUP11 MSTORE PUSH1 0x4 DUP11 SWAP1 MSTORE PUSH1 0x24 DUP11 REVERT JUMPDEST PUSH4 0x4E487B71 PUSH1 0xE0 SHL DUP11 MSTORE PUSH1 0x41 PUSH1 0x4 MSTORE PUSH1 0x24 DUP11 REVERT JUMPDEST PUSH4 0x4E487B71 PUSH1 0xE0 SHL DUP11 MSTORE PUSH1 0x11 PUSH1 0x4 MSTORE PUSH1 0x24 DUP11 REVERT JUMPDEST SWAP3 POP SWAP1 POP DUP1 PUSH2 0x1115 DUP4 DUP3 PUSH2 0x1EFF JUMP JUMPDEST SWAP3 PUSH2 0x1014 JUMP JUMPDEST PUSH4 0x4E487B71 PUSH1 0xE0 SHL DUP10 MSTORE PUSH1 0x11 PUSH1 0x4 MSTORE PUSH1 0x24 DUP10 REVERT JUMPDEST PUSH4 0x4E487B71 PUSH1 0xE0 SHL DUP8 MSTORE PUSH1 0x12 PUSH1 0x4 MSTORE PUSH1 0x24 DUP8 REVERT JUMPDEST PUSH4 0x4E487B71 PUSH1 0xE0 SHL DUP6 MSTORE PUSH1 0x11 PUSH1 0x4 MSTORE PUSH1 0x24 DUP6 REVERT JUMPDEST PUSH1 0x40 MLOAD PUSH3 0x461BCD PUSH1 0xE5 SHL DUP2 MSTORE PUSH1 0x20 PUSH1 0x4 DUP3 ADD MSTORE PUSH1 0x28 PUSH1 0x24 DUP3 ADD MSTORE PUSH32 0x436F6C6C656374656420616D6F756E7420646F65736E2774206D617463682070 PUSH1 0x44 DUP3 ADD MSTORE PUSH8 0x1C9A5B98DA5C185B PUSH1 0xC2 SHL PUSH1 0x64 DUP3 ADD MSTORE PUSH1 0x84 SWAP1 REVERT JUMPDEST SWAP1 SWAP2 SWAP3 SWAP4 SWAP5 SWAP6 POP PUSH2 0x11BF DUP2 DUP4 DUP7 PUSH2 0x200C JUMP JUMPDEST CALLDATALOAD PUSH1 0x1 PUSH1 0x1 PUSH1 0xA0 SHL SUB DUP2 AND DUP2 SUB PUSH2 0x13EF JUMPI PUSH2 0x11DB DUP3 DUP6 DUP9 PUSH2 0x200C JUMP JUMPDEST CALLDATALOAD SWAP7 DUP8 ISZERO PUSH2 0x13B2 JUMPI DUP12 SWAP1 PUSH1 0x20 PUSH2 0x1231 PUSH1 0x1 DUP1 PUSH1 0xA0 SHL SUB PUSH1 0x9 SLOAD AND DUP12 PUSH1 0x40 MLOAD SWAP6 DUP7 DUP1 SWAP5 DUP2 SWAP4 PUSH4 0x23B872DD PUSH1 0xE0 SHL DUP4 MSTORE ADDRESS DUP12 PUSH1 0x4 DUP6 ADD PUSH1 0x40 SWAP2 SWAP5 SWAP4 SWAP3 SWAP5 PUSH1 0x60 DUP3 ADD SWAP6 PUSH1 0x1 DUP1 PUSH1 0xA0 SHL SUB DUP1 SWAP3 AND DUP4 MSTORE AND PUSH1 0x20 DUP3 ADD MSTORE ADD MSTORE JUMP JUMPDEST SUB SWAP3 GAS CALL SWAP1 DUP2 ISZERO PUSH2 0x69B JUMPI PUSH2 0x124D SWAP3 DUP11 SWAP3 PUSH2 0x1393 JUMPI JUMPDEST POP PUSH2 0x1EFF JUMP JUMPDEST SWAP7 PUSH1 0x1 DUP1 PUSH1 0xA0 SHL SUB DUP3 AND DUP13 MSTORE PUSH1 0x4 PUSH1 0x20 MSTORE PUSH1 0x40 DUP13 KECCAK256 PUSH2 0x126D DUP3 DUP3 SLOAD PUSH2 0x1EFF JUMP JUMPDEST SWAP1 SSTORE PUSH2 0x4B0 PUSH2 0x1289 PUSH1 0x24 CALLDATALOAD PUSH2 0x1284 PUSH1 0x44 CALLDATALOAD DUP6 PUSH2 0x1EB6 JUMP JUMPDEST PUSH2 0x1EB6 JUMP JUMPDEST DIV SWAP1 PUSH1 0x40 MLOAD SWAP3 DUP4 PUSH1 0xA0 DUP2 ADD LT PUSH8 0xFFFFFFFFFFFFFFFF PUSH1 0xA0 DUP7 ADD GT OR PUSH2 0x137F JUMPI PUSH1 0xA0 DUP5 ADD PUSH1 0x40 MSTORE PUSH1 0x1 DUP1 PUSH1 0xA0 SHL SUB AND DUP4 MSTORE PUSH1 0x20 DUP4 ADD MSTORE PUSH1 0x40 DUP3 ADD MSTORE DUP11 PUSH1 0x60 DUP3 ADD MSTORE DUP11 PUSH1 0x80 DUP3 ADD MSTORE PUSH1 0xB DUP9 ADD SLOAD PUSH1 0x1 PUSH1 0x40 SHL DUP2 LT ISZERO PUSH2 0x136B JUMPI DUP1 PUSH1 0x1 PUSH2 0x12F6 SWAP3 ADD PUSH1 0xB DUP12 ADD SSTORE PUSH1 0xB DUP11 ADD PUSH2 0x201C JUMP JUMPDEST SWAP2 SWAP1 SWAP2 PUSH2 0x1357 JUMPI DUP1 MLOAD DUP3 SLOAD PUSH1 0x1 PUSH1 0x1 PUSH1 0xA0 SHL SUB NOT AND PUSH1 0x1 PUSH1 0x1 PUSH1 0xA0 SHL SUB SWAP2 SWAP1 SWAP2 AND OR DUP3 SSTORE PUSH1 0x20 DUP2 ADD MLOAD PUSH1 0x1 DUP4 ADD SSTORE PUSH1 0x40 DUP2 ADD MLOAD PUSH1 0x2 DUP4 ADD SSTORE PUSH1 0x60 DUP2 ADD MLOAD PUSH1 0x3 DUP4 ADD SSTORE PUSH1 0x80 ADD MLOAD PUSH1 0x4 SWAP1 SWAP2 ADD SSTORE PUSH2 0x134B SWAP1 PUSH2 0x1FFD JUMP JUMPDEST SWAP1 DUP8 SWAP6 SWAP5 SWAP4 SWAP3 SWAP2 PUSH2 0xACA JUMP JUMPDEST PUSH4 0x4E487B71 PUSH1 0xE0 SHL DUP13 MSTORE PUSH1 0x4 DUP13 SWAP1 MSTORE PUSH1 0x24 DUP13 REVERT JUMPDEST PUSH4 0x4E487B71 PUSH1 0xE0 SHL DUP13 MSTORE PUSH1 0x41 PUSH1 0x4 MSTORE PUSH1 0x24 DUP13 REVERT JUMPDEST PUSH4 0x4E487B71 PUSH1 0xE0 SHL DUP15 MSTORE PUSH1 0x41 PUSH1 0x4 MSTORE PUSH1 0x24 DUP15 REVERT JUMPDEST PUSH2 0x13AB SWAP1 PUSH1 0x20 RETURNDATASIZE PUSH1 0x20 GT PUSH2 0x694 JUMPI PUSH2 0x685 DUP2 DUP4 PUSH2 0x1D97 JUMP JUMPDEST POP CODESIZE PUSH2 0x1247 JUMP JUMPDEST PUSH1 0x40 MLOAD PUSH3 0x461BCD PUSH1 0xE5 SHL DUP2 MSTORE PUSH1 0x20 PUSH1 0x4 DUP3 ADD MSTORE PUSH1 0x15 PUSH1 0x24 DUP3 ADD MSTORE PUSH21 0x125B9D985B1A59081B195B99195C88185B5BDD5B9D PUSH1 0x5A SHL PUSH1 0x44 DUP3 ADD MSTORE PUSH1 0x64 SWAP1 REVERT JUMPDEST DUP11 DUP1 REVERT JUMPDEST PUSH2 0x140B SWAP1 PUSH1 0x20 RETURNDATASIZE PUSH1 0x20 GT PUSH2 0x694 JUMPI PUSH2 0x685 DUP2 DUP4 PUSH2 0x1D97 JUMP JUMPDEST POP CODESIZE PUSH2 0xA27 JUMP JUMPDEST PUSH1 0x40 MLOAD RETURNDATASIZE DUP11 DUP3 RETURNDATACOPY RETURNDATASIZE SWAP1 REVERT JUMPDEST PUSH1 0x40 MLOAD PUSH3 0x461BCD PUSH1 0xE5 SHL DUP2 MSTORE PUSH1 0x20 PUSH1 0x4 DUP3 ADD MSTORE PUSH1 0x13 PUSH1 0x24 DUP3 ADD MSTORE PUSH19 0x139BC81B195B99195C9CC81C1C9BDD9A591959 PUSH1 0x6A SHL PUSH1 0x44 DUP3 ADD MSTORE PUSH1 0x64 SWAP1 REVERT JUMPDEST PUSH1 0x40 MLOAD PUSH3 0x461BCD PUSH1 0xE5 SHL DUP2 MSTORE PUSH1 0x20 PUSH1 0x4 DUP3 ADD MSTORE PUSH1 0x2C PUSH1 0x24 DUP3 ADD MSTORE PUSH32 0x4C656E6465722061646472657373657320616E6420616D6F756E7473206C656E PUSH1 0x44 DUP3 ADD MSTORE PUSH12 0xCEE8D040DAD2E6DAC2E8C6D PUSH1 0xA3 SHL PUSH1 0x64 DUP3 ADD MSTORE PUSH1 0x84 SWAP1 REVERT JUMPDEST PUSH1 0x40 MLOAD PUSH3 0x461BCD PUSH1 0xE5 SHL DUP2 MSTORE PUSH1 0x20 PUSH1 0x4 DUP3 ADD MSTORE PUSH1 0x23 PUSH1 0x24 DUP3 ADD MSTORE PUSH32 0x426F72726F77657220616C72656164792068617320616E20616374697665206C PUSH1 0x44 DUP3 ADD MSTORE PUSH3 0x37B0B7 PUSH1 0xE9 SHL PUSH1 0x64 DUP3 ADD MSTORE PUSH1 0x84 SWAP1 REVERT JUMPDEST PUSH1 0x40 MLOAD PUSH3 0x461BCD PUSH1 0xE5 SHL DUP2 MSTORE PUSH1 0x20 PUSH1 0x4 DUP3 ADD MSTORE PUSH1 0x10 PUSH1 0x24 DUP3 ADD MSTORE PUSH16 0x24B73B30B634B210323AB930BA34B7B7 PUSH1 0x81 SHL PUSH1 0x44 DUP3 ADD MSTORE PUSH1 0x64 SWAP1 REVERT JUMPDEST PUSH1 0x40 MLOAD PUSH3 0x461BCD PUSH1 0xE5 SHL DUP2 MSTORE PUSH1 0x20 PUSH1 0x4 DUP3 ADD MSTORE PUSH1 0xE PUSH1 0x24 DUP3 ADD MSTORE PUSH14 0x125B9D985B1A5908185B5BDD5B9D PUSH1 0x92 SHL PUSH1 0x44 DUP3 ADD MSTORE PUSH1 0x64 SWAP1 REVERT JUMPDEST DUP4 DUP1 REVERT JUMPDEST POP DUP1 REVERT JUMPDEST POP CALLVALUE PUSH2 0x152 JUMPI PUSH1 0x40 PUSH2 0x1593 PUSH2 0x158D CALLDATASIZE PUSH2 0x1CB0 JUMP JUMPDEST SWAP1 PUSH2 0x2A42 JUMP JUMPDEST DUP3 MLOAD SWAP2 DUP3 MSTORE PUSH1 0x20 DUP3 ADD MSTORE RETURN JUMPDEST POP CALLVALUE PUSH2 0x152 JUMPI PUSH1 0x20 CALLDATASIZE PUSH1 0x3 NOT ADD SLT PUSH2 0x152 JUMPI PUSH1 0x4 CALLDATALOAD PUSH1 0x1 PUSH1 0x1 PUSH1 0xA0 SHL SUB DUP2 DUP2 AND SWAP2 DUP3 SWAP1 SUB PUSH2 0x45E JUMPI PUSH2 0x15D6 SWAP1 PUSH1 0x8 SLOAD AND CALLER EQ PUSH2 0x20FB JUMP JUMPDEST PUSH1 0x1 PUSH1 0x1 PUSH1 0x60 SHL SUB PUSH1 0xA0 SHL PUSH1 0x1 SLOAD AND OR PUSH1 0x1 SSTORE DUP1 RETURN JUMPDEST POP CALLVALUE PUSH2 0x152 JUMPI PUSH1 0x20 CALLDATASIZE PUSH1 0x3 NOT ADD SLT PUSH2 0x152 JUMPI PUSH1 0x4 CALLDATALOAD PUSH1 0x1 PUSH1 0x1 PUSH1 0xA0 SHL SUB DUP2 DUP2 AND SWAP2 DUP3 SWAP1 SUB PUSH2 0x45E JUMPI PUSH2 0x1623 SWAP1 PUSH1 0x8 SLOAD AND CALLER EQ PUSH2 0x20FB JUMP JUMPDEST DUP2 SLOAD PUSH1 0x1 PUSH1 0x1 PUSH1 0xA0 SHL SUB NOT AND OR DUP2 SSTORE DUP1 RETURN JUMPDEST POP CALLVALUE PUSH2 0x152 JUMPI PUSH1 0x20 CALLDATASIZE PUSH1 0x3 NOT ADD SLT PUSH2 0x152 JUMPI PUSH1 0xD PUSH1 0x40 PUSH1 0x20 SWAP3 PUSH1 0x4 CALLDATALOAD DUP2 MSTORE PUSH1 0x5 DUP5 MSTORE KECCAK256 ADD SLOAD PUSH1 0x40 MLOAD SWAP1 DUP2 MSTORE RETURN JUMPDEST POP CALLVALUE PUSH2 0x152 JUMPI PUSH1 0x20 CALLDATASIZE PUSH1 0x3 NOT ADD SLT PUSH2 0x152 JUMPI PUSH1 0x4 CALLDATALOAD PUSH1 0x1 PUSH1 0x1 PUSH1 0xA0 SHL SUB DUP2 AND SWAP1 DUP2 SWAP1 SUB PUSH2 0x1575 JUMPI DUP2 PUSH1 0x40 SWAP2 PUSH1 0x20 SWAP4 MSTORE PUSH1 0x4 DUP4 MSTORE KECCAK256 SLOAD PUSH1 0x40 MLOAD SWAP1 DUP2 MSTORE RETURN JUMPDEST POP CALLVALUE PUSH2 0x152 JUMPI PUSH1 0x20 DUP1 PUSH1 0x3 NOT CALLDATASIZE ADD SLT PUSH2 0x1575 JUMPI PUSH1 0x4 CALLDATALOAD PUSH1 0x1 DUP1 PUSH1 0xA0 SHL SUB PUSH2 0x16CB DUP2 PUSH1 0x8 SLOAD AND CALLER EQ PUSH2 0x20FB JUMP JUMPDEST DUP2 DUP5 MSTORE PUSH1 0x5 DUP4 MSTORE PUSH1 0x40 DUP5 KECCAK256 SWAP3 PUSH1 0x9 SWAP1 DUP2 DUP6 ADD SWAP2 DUP3 SLOAD SWAP3 PUSH1 0xFF PUSH2 0x16EE DUP2 DUP7 AND PUSH2 0x2151 JUMP JUMPDEST DUP9 SWAP1 DUP10 SWAP1 PUSH1 0xC DUP11 ADD DUP1 SLOAD SWAP3 JUMPDEST DUP4 DUP2 LT PUSH2 0x1935 JUMPI POP POP POP POP PUSH3 0x76A700 LT ISZERO PUSH2 0x18DB JUMPI PUSH1 0xFF NOT DUP1 SWAP5 AND SWAP1 SSTORE PUSH1 0x1 DUP1 DUP8 ADD SWAP4 DUP6 DUP6 SLOAD AND DUP10 MSTORE PUSH1 0x6 DUP5 MSTORE PUSH1 0x40 DUP10 KECCAK256 SWAP1 DUP2 SLOAD AND SWAP1 SSTORE PUSH1 0xD DUP8 ADD SLOAD DUP1 PUSH2 0x18CB JUMPI JUMPDEST POP PUSH1 0x3 DUP1 DUP9 ADD SLOAD PUSH1 0xE DUP10 ADD SLOAD SWAP2 DUP3 PUSH2 0x17B0 JUMPI JUMPDEST DUP11 PUSH32 0xCAB88A55906C5830A49DDDD8B31D115294A5E6C4210F25FE140530A39C51DC74 DUP11 DUP11 DUP11 SLOAD AND SWAP1 PUSH2 0x17AA PUSH2 0x1782 PUSH2 0x1E05 JUMP JUMPDEST PUSH1 0x40 DUP1 MLOAD SWAP4 DUP5 MSTORE PUSH1 0x1 PUSH1 0x1 PUSH1 0xA0 SHL SUB SWAP1 SWAP5 AND PUSH1 0x20 DUP5 ADD MSTORE SWAP3 DUP3 ADD SWAP3 SWAP1 SWAP3 MSTORE SWAP1 DUP2 SWAP1 PUSH1 0x60 DUP3 ADD SWAP1 JUMP JUMPDEST SUB SWAP1 LOG1 DUP1 RETURN JUMPDEST SWAP1 SWAP2 SWAP3 DUP1 SWAP10 PUSH1 0xB DUP13 SWAP2 ADD SWAP2 JUMPDEST PUSH2 0x17C7 JUMPI JUMPDEST POP PUSH2 0x174F JUMP JUMPDEST DUP2 SLOAD DUP2 LT ISZERO PUSH2 0x18C6 JUMPI PUSH2 0x17DA DUP2 DUP4 PUSH2 0x201C JUMP JUMPDEST POP PUSH2 0x17EC DUP13 DUP3 ADD SLOAD DUP6 DUP4 ADD SLOAD SWAP1 PUSH2 0x1FF0 JUMP JUMPDEST DUP13 DUP2 ISZERO PUSH2 0x18B5 JUMPI POP PUSH8 0xDE0B6B3A7640000 SWAP1 DUP2 DUP2 MUL SWAP1 DUP2 DIV DUP3 SUB PUSH2 0x18A1 JUMPI DUP8 SWAP7 SWAP6 SWAP5 SWAP4 SWAP3 DUP16 SWAP2 SWAP3 PUSH2 0x182A PUSH2 0x1824 PUSH2 0x1866 SWAP12 DUP15 SWAP7 PUSH2 0x1EDF JUMP JUMPDEST DUP10 PUSH2 0x1EB6 JUMP JUMPDEST DIV SWAP2 DUP14 DUP1 DUP13 SLOAD AND SWAP3 SLOAD AND SWAP1 PUSH1 0x40 MLOAD DUP1 SWAP12 DUP2 SWAP6 DUP3 SWAP5 PUSH4 0xA9059CBB PUSH1 0xE0 SHL DUP5 MSTORE PUSH1 0x4 DUP5 ADD PUSH1 0x20 SWAP1 SWAP4 SWAP3 SWAP2 SWAP4 PUSH1 0x40 DUP2 ADD SWAP5 PUSH1 0x1 DUP1 PUSH1 0xA0 SHL SUB AND DUP2 MSTORE ADD MSTORE JUMP JUMPDEST SUB SWAP3 GAS CALL SWAP1 DUP2 ISZERO PUSH2 0x69B JUMPI DUP13 SWAP7 PUSH2 0x1881 SWAP3 PUSH2 0x188B JUMPI POP PUSH2 0x1FFD JUMP JUMPDEST SWAP1 SWAP2 SWAP3 SWAP4 SWAP5 PUSH2 0x17BC JUMP JUMPDEST PUSH2 0x68D SWAP1 DUP11 RETURNDATASIZE DUP13 GT PUSH2 0x694 JUMPI PUSH2 0x685 DUP2 DUP4 PUSH2 0x1D97 JUMP JUMPDEST PUSH4 0x4E487B71 PUSH1 0xE0 SHL DUP16 MSTORE PUSH1 0x11 PUSH1 0x4 MSTORE PUSH1 0x24 DUP16 REVERT JUMPDEST SWAP7 SWAP6 SWAP5 SWAP4 SWAP3 SWAP1 POP PUSH2 0x1881 SWAP2 POP PUSH2 0x1FFD JUMP JUMPDEST PUSH2 0x17C1 JUMP JUMPDEST PUSH2 0x18D5 SWAP1 DUP8 PUSH2 0x2600 JUMP JUMPDEST CODESIZE PUSH2 0x173C JUMP JUMPDEST PUSH1 0x40 MLOAD PUSH3 0x461BCD PUSH1 0xE5 SHL DUP2 MSTORE PUSH1 0x4 DUP2 ADD DUP5 SWAP1 MSTORE PUSH1 0x2C PUSH1 0x24 DUP3 ADD MSTORE PUSH32 0x4C6F616E206973206E6F74206F766572647565206265796F6E642033206D6F6E PUSH1 0x44 DUP3 ADD MSTORE PUSH12 0x1D1A1CC81A5B881D1BDD185B PUSH1 0xA2 SHL PUSH1 0x64 DUP3 ADD MSTORE PUSH1 0x84 SWAP1 REVERT JUMPDEST PUSH2 0x193F DUP2 DUP4 PUSH2 0x20DF JUMP JUMPDEST POP DUP4 PUSH1 0x2 DUP3 ADD SLOAD AND PUSH2 0x1957 JUMPI PUSH1 0x3 ADD SLOAD DUP1 TIMESTAMP GT PUSH2 0x1966 JUMPI JUMPDEST POP PUSH2 0x1961 SWAP1 PUSH2 0x1FFD JUMP JUMPDEST PUSH2 0x16FA JUMP JUMPDEST PUSH2 0x1961 SWAP2 SWAP6 PUSH2 0x1978 PUSH2 0x197E SWAP3 TIMESTAMP PUSH2 0x1FF0 JUMP JUMPDEST SWAP1 PUSH2 0x1EFF JUMP JUMPDEST SWAP5 SWAP1 PUSH2 0x1957 JUMP JUMPDEST POP CALLVALUE PUSH2 0x152 JUMPI PUSH1 0x20 CALLDATASIZE PUSH1 0x3 NOT ADD SLT PUSH2 0x152 JUMPI PUSH1 0x4 CALLDATALOAD PUSH1 0x1 PUSH1 0x1 PUSH1 0xA0 SHL SUB DUP2 AND SWAP1 DUP2 SWAP1 SUB PUSH2 0x1575 JUMPI PUSH1 0x40 DUP3 PUSH1 0xFF SWAP3 PUSH1 0x20 SWAP5 MSTORE PUSH1 0x6 DUP5 MSTORE KECCAK256 SLOAD AND PUSH1 0x40 MLOAD SWAP1 ISZERO ISZERO DUP2 MSTORE RETURN JUMPDEST POP CALLVALUE PUSH2 0x152 JUMPI DUP1 PUSH1 0x3 NOT CALLDATASIZE ADD SLT PUSH2 0x152 JUMPI PUSH1 0x9 SLOAD PUSH1 0x40 MLOAD PUSH1 0x1 PUSH1 0x1 PUSH1 0xA0 SHL SUB SWAP1 SWAP2 AND DUP2 MSTORE PUSH1 0x20 SWAP1 RETURN JUMPDEST POP CALLVALUE PUSH2 0x152 JUMPI DUP1 PUSH1 0x3 NOT CALLDATASIZE ADD SLT PUSH2 0x152 JUMPI PUSH1 0x2 SLOAD PUSH1 0x40 MLOAD PUSH1 0x1 PUSH1 0x1 PUSH1 0xA0 SHL SUB SWAP1 SWAP2 AND DUP2 MSTORE PUSH1 0x20 SWAP1 RETURN JUMPDEST POP CALLVALUE PUSH2 0x152 JUMPI PUSH1 0x20 CALLDATASIZE PUSH1 0x3 NOT ADD SLT PUSH2 0x152 JUMPI PUSH2 0x1A40 PUSH1 0x1 DUP1 PUSH1 0xA0 SHL SUB PUSH1 0x8 SLOAD AND CALLER EQ PUSH2 0x20FB JUMP JUMPDEST PUSH1 0x4 CALLDATALOAD DUP2 MSTORE PUSH1 0x5 PUSH1 0x20 MSTORE PUSH1 0x40 DUP2 KECCAK256 PUSH1 0x9 DUP2 ADD DUP1 SLOAD SWAP2 PUSH2 0x1A61 PUSH1 0xFF DUP5 AND PUSH2 0x2151 JUMP JUMPDEST PUSH2 0x1A69 PUSH2 0x1E05 JUMP JUMPDEST SWAP2 PUSH1 0xD DUP3 ADD PUSH4 0x5F5E100 PUSH2 0x1A7E DUP6 DUP4 SLOAD PUSH2 0x1EB6 JUMP JUMPDEST DIV SWAP2 PUSH1 0xE DUP5 ADD SWAP3 DUP4 SLOAD PUSH1 0x69 DUP2 MUL SWAP1 DUP1 DUP3 DIV PUSH1 0x69 EQ SWAP1 ISZERO OR ISZERO PUSH2 0x111B JUMPI PUSH1 0x64 SWAP1 DIV LT PUSH2 0x1C4D JUMPI PUSH1 0xFF NOT SWAP6 DUP7 AND SWAP1 SSTORE PUSH1 0x1 DUP4 ADD DUP1 SLOAD PUSH1 0x1 PUSH1 0x1 PUSH1 0xA0 SHL SUB AND DUP8 MSTORE PUSH1 0x6 PUSH1 0x20 MSTORE PUSH1 0x40 DUP8 KECCAK256 DUP1 SLOAD SWAP1 SWAP7 AND SWAP1 SWAP6 SSTORE SLOAD DUP1 PUSH2 0x1C3B JUMPI JUMPDEST POP PUSH1 0x3 DUP3 ADD SLOAD SWAP1 SLOAD SWAP2 DUP3 PUSH2 0x1B33 JUMPI JUMPDEST POP POP SWAP2 SLOAD PUSH1 0x40 DUP1 MLOAD PUSH1 0x4 CALLDATALOAD DUP2 MSTORE PUSH1 0x1 PUSH1 0x1 PUSH1 0xA0 SHL SUB SWAP1 SWAP3 AND PUSH1 0x20 DUP4 ADD MSTORE DUP2 ADD SWAP2 SWAP1 SWAP2 MSTORE PUSH32 0xCAB88A55906C5830A49DDDD8B31D115294A5E6C4210F25FE140530A39C51DC74 SWAP2 POP DUP1 PUSH1 0x60 DUP2 ADD PUSH2 0x17AA JUMP JUMPDEST SWAP1 SWAP2 SWAP3 DUP6 JUMPDEST PUSH1 0xB DUP4 ADD SLOAD DUP2 LT ISZERO PUSH2 0x1C0E JUMPI PUSH2 0x1B51 DUP2 PUSH1 0xB DUP6 ADD PUSH2 0x201C JUMP JUMPDEST POP PUSH2 0x1B65 PUSH1 0x1 DUP3 ADD SLOAD PUSH1 0x3 DUP4 ADD SLOAD SWAP1 PUSH2 0x1FF0 JUMP JUMPDEST DUP1 ISZERO PUSH2 0x1C03 JUMPI DUP1 PUSH8 0xDE0B6B3A7640000 DUP2 MUL DIV PUSH8 0xDE0B6B3A7640000 SUB PUSH2 0x111B JUMPI PUSH2 0x1BE5 SWAP3 SWAP2 PUSH8 0xDE0B6B3A7640000 PUSH2 0x1BA5 PUSH2 0x1824 DUP11 DUP4 PUSH1 0x20 SWAP7 MUL PUSH2 0x1EDF JUMP JUMPDEST PUSH1 0x9 SLOAD SWAP3 SLOAD PUSH1 0x40 MLOAD PUSH4 0xA9059CBB PUSH1 0xE0 SHL DUP2 MSTORE PUSH1 0x1 PUSH1 0x1 PUSH1 0xA0 SHL SUB SWAP2 DUP3 AND PUSH1 0x4 DUP3 ADD MSTORE SWAP3 SWAP1 SWAP2 DIV PUSH1 0x24 DUP4 ADD MSTORE SWAP1 SWAP5 DUP6 SWAP3 SWAP1 SWAP2 AND SWAP1 DUP3 SWAP1 DUP13 SWAP1 DUP3 SWAP1 PUSH1 0x44 DUP3 ADD SWAP1 JUMP JUMPDEST SUB SWAP3 GAS CALL SWAP2 DUP3 ISZERO PUSH2 0x1412 JUMPI PUSH2 0x1BFE SWAP3 PUSH2 0x66C JUMPI POP PUSH2 0x1FFD JUMP JUMPDEST PUSH2 0x1B38 JUMP JUMPDEST POP POP PUSH2 0x1BFE SWAP1 PUSH2 0x1FFD JUMP JUMPDEST POP SWAP3 POP POP POP PUSH32 0xCAB88A55906C5830A49DDDD8B31D115294A5E6C4210F25FE140530A39C51DC74 CODESIZE DUP1 PUSH2 0x1AE3 JUMP JUMPDEST PUSH2 0x1C47 SWAP1 PUSH1 0x4 CALLDATALOAD PUSH2 0x2600 JUMP JUMPDEST CODESIZE PUSH2 0x1AD4 JUMP JUMPDEST PUSH1 0x40 MLOAD PUSH3 0x461BCD PUSH1 0xE5 SHL DUP2 MSTORE PUSH1 0x20 PUSH1 0x4 DUP3 ADD MSTORE PUSH1 0x35 PUSH1 0x24 DUP3 ADD MSTORE PUSH32 0x4254432076616C756520686173206E6F742064726F707065642062656C6F7720 PUSH1 0x44 DUP3 ADD MSTORE PUSH21 0x1B1A5C5D5A59185D1A5BDB881D1A1C995CDA1BDB19 PUSH1 0x5A SHL PUSH1 0x64 DUP3 ADD MSTORE PUSH1 0x84 SWAP1 REVERT JUMPDEST PUSH1 0x40 SWAP1 PUSH1 0x3 NOT ADD SLT PUSH2 0x1CC6 JUMPI PUSH1 0x4 CALLDATALOAD SWAP1 PUSH1 0x24 CALLDATALOAD SWAP1 JUMP JUMPDEST PUSH1 0x0 DUP1 REVERT JUMPDEST SWAP2 DUP2 PUSH1 0x1F DUP5 ADD SLT ISZERO PUSH2 0x1CC6 JUMPI DUP3 CALLDATALOAD SWAP2 PUSH8 0xFFFFFFFFFFFFFFFF DUP4 GT PUSH2 0x1CC6 JUMPI PUSH1 0x20 DUP1 DUP6 ADD SWAP5 DUP5 PUSH1 0x5 SHL ADD ADD GT PUSH2 0x1CC6 JUMPI JUMP JUMPDEST PUSH1 0x7 SLOAD DUP2 LT ISZERO PUSH2 0x1D33 JUMPI PUSH1 0x7 PUSH1 0x0 MSTORE PUSH32 0xA66CC928B5EDB82AF9BD49922954155AB7B0942694BEA4CE44661D9A8736C688 ADD SWAP1 PUSH1 0x0 SWAP1 JUMP JUMPDEST PUSH4 0x4E487B71 PUSH1 0xE0 SHL PUSH1 0x0 MSTORE PUSH1 0x32 PUSH1 0x4 MSTORE PUSH1 0x24 PUSH1 0x0 REVERT JUMPDEST PUSH1 0x80 DUP2 ADD SWAP1 DUP2 LT PUSH8 0xFFFFFFFFFFFFFFFF DUP3 GT OR PUSH2 0x1D65 JUMPI PUSH1 0x40 MSTORE JUMP JUMPDEST PUSH4 0x4E487B71 PUSH1 0xE0 SHL PUSH1 0x0 MSTORE PUSH1 0x41 PUSH1 0x4 MSTORE PUSH1 0x24 PUSH1 0x0 REVERT JUMPDEST PUSH1 0x60 DUP2 ADD SWAP1 DUP2 LT PUSH8 0xFFFFFFFFFFFFFFFF DUP3 GT OR PUSH2 0x1D65 JUMPI PUSH1 0x40 MSTORE JUMP JUMPDEST SWAP1 PUSH1 0x1F DUP1 NOT SWAP2 ADD AND DUP2 ADD SWAP1 DUP2 LT PUSH8 0xFFFFFFFFFFFFFFFF DUP3 GT OR PUSH2 0x1D65 JUMPI PUSH1 0x40 MSTORE JUMP JUMPDEST MLOAD SWAP1 PUSH10 0xFFFFFFFFFFFFFFFFFFFF DUP3 AND DUP3 SUB PUSH2 0x1CC6 JUMPI JUMP JUMPDEST SWAP1 DUP2 PUSH1 0xA0 SWAP2 SUB SLT PUSH2 0x1CC6 JUMPI PUSH2 0x1DE4 DUP2 PUSH2 0x1DB9 JUMP JUMPDEST SWAP2 PUSH1 0x20 DUP3 ADD MLOAD SWAP2 PUSH1 0x40 DUP2 ADD MLOAD SWAP2 PUSH2 0x1E02 PUSH1 0x80 PUSH1 0x60 DUP5 ADD MLOAD SWAP4 ADD PUSH2 0x1DB9 JUMP JUMPDEST SWAP1 JUMP JUMPDEST PUSH1 0x3 SLOAD PUSH1 0x40 MLOAD PUSH4 0x3FABE5A3 PUSH1 0xE2 SHL DUP2 MSTORE SWAP1 PUSH1 0xA0 SWAP1 DUP3 SWAP1 PUSH1 0x4 SWAP1 DUP3 SWAP1 PUSH1 0x1 PUSH1 0x1 PUSH1 0xA0 SHL SUB AND GAS STATICCALL SWAP1 DUP2 ISZERO PUSH2 0x1E5D JUMPI PUSH1 0x0 SWAP2 PUSH2 0x1E3D JUMPI POP SWAP1 JUMP JUMPDEST PUSH2 0x1E55 SWAP2 POP PUSH1 0xA0 RETURNDATASIZE DUP2 GT PUSH2 0xF9B JUMPI PUSH2 0xF88 DUP2 DUP4 PUSH2 0x1D97 JUMP JUMPDEST POP POP POP SWAP1 POP SWAP1 JUMP JUMPDEST PUSH1 0x40 MLOAD RETURNDATASIZE PUSH1 0x0 DUP3 RETURNDATACOPY RETURNDATASIZE SWAP1 REVERT JUMPDEST SWAP1 DUP2 PUSH1 0x20 SWAP2 SUB SLT PUSH2 0x1CC6 JUMPI MLOAD DUP1 ISZERO ISZERO DUP2 SUB PUSH2 0x1CC6 JUMPI SWAP1 JUMP JUMPDEST PUSH8 0xFFFFFFFFFFFFFFFF DUP2 GT PUSH2 0x1D65 JUMPI PUSH1 0x5 SHL PUSH1 0x20 ADD SWAP1 JUMP JUMPDEST DUP1 MLOAD ISZERO PUSH2 0x1D33 JUMPI PUSH1 0x20 ADD SWAP1 JUMP JUMPDEST DUP1 MLOAD PUSH1 0x1 LT ISZERO PUSH2 0x1D33 JUMPI PUSH1 0x40 ADD SWAP1 JUMP JUMPDEST DUP2 DUP2 MUL SWAP3 SWAP2 DUP2 ISZERO SWAP2 DUP5 DIV EQ OR ISZERO PUSH2 0x1EC9 JUMPI JUMP JUMPDEST PUSH4 0x4E487B71 PUSH1 0xE0 SHL PUSH1 0x0 MSTORE PUSH1 0x11 PUSH1 0x4 MSTORE PUSH1 0x24 PUSH1 0x0 REVERT JUMPDEST DUP2 ISZERO PUSH2 0x1EE9 JUMPI DIV SWAP1 JUMP JUMPDEST PUSH4 0x4E487B71 PUSH1 0xE0 SHL PUSH1 0x0 MSTORE PUSH1 0x12 PUSH1 0x4 MSTORE PUSH1 0x24 PUSH1 0x0 REVERT JUMPDEST SWAP2 SWAP1 DUP3 ADD DUP1 SWAP3 GT PUSH2 0x1EC9 JUMPI JUMP JUMPDEST PUSH1 0x20 SWAP1 DUP2 DUP2 DUP5 SUB SLT PUSH2 0x1CC6 JUMPI DUP1 MLOAD SWAP1 PUSH8 0xFFFFFFFFFFFFFFFF DUP3 GT PUSH2 0x1CC6 JUMPI ADD SWAP2 DUP1 PUSH1 0x1F DUP5 ADD SLT ISZERO PUSH2 0x1CC6 JUMPI DUP3 MLOAD PUSH2 0x1F42 DUP2 PUSH2 0x1E81 JUMP JUMPDEST SWAP4 PUSH2 0x1F50 PUSH1 0x40 MLOAD SWAP6 DUP7 PUSH2 0x1D97 JUMP JUMPDEST DUP2 DUP6 MSTORE DUP4 DUP1 DUP7 ADD SWAP3 PUSH1 0x5 SHL DUP3 ADD ADD SWAP3 DUP4 GT PUSH2 0x1CC6 JUMPI DUP4 ADD SWAP1 JUMPDEST DUP3 DUP3 LT PUSH2 0x1F77 JUMPI POP POP POP POP SWAP1 JUMP JUMPDEST DUP2 MLOAD DUP2 MSTORE SWAP1 DUP4 ADD SWAP1 DUP4 ADD PUSH2 0x1F69 JUMP JUMPDEST SWAP3 SWAP2 SWAP1 SWAP6 SWAP5 SWAP4 SWAP6 PUSH1 0xA0 DUP5 ADD SWAP1 DUP5 MSTORE PUSH1 0x20 SWAP2 DUP3 DUP6 ADD MSTORE PUSH1 0xA0 PUSH1 0x40 DUP6 ADD MSTORE DUP3 MLOAD DUP1 SWAP2 MSTORE DUP2 PUSH1 0xC0 DUP6 ADD SWAP4 ADD SWAP2 PUSH1 0x0 JUMPDEST DUP3 DUP2 LT PUSH2 0x1FD3 JUMPI POP POP POP POP SWAP1 PUSH1 0x80 SWAP2 SWAP5 PUSH1 0x1 DUP1 PUSH1 0xA0 SHL SUB AND PUSH1 0x60 DUP3 ADD MSTORE ADD MSTORE JUMP JUMPDEST DUP4 MLOAD PUSH1 0x1 PUSH1 0x1 PUSH1 0xA0 SHL SUB AND DUP6 MSTORE SWAP4 DUP2 ADD SWAP4 SWAP3 DUP2 ADD SWAP3 PUSH1 0x1 ADD PUSH2 0x1FB2 JUMP JUMPDEST SWAP2 SWAP1 DUP3 SUB SWAP2 DUP3 GT PUSH2 0x1EC9 JUMPI JUMP JUMPDEST PUSH1 0x0 NOT DUP2 EQ PUSH2 0x1EC9 JUMPI PUSH1 0x1 ADD SWAP1 JUMP JUMPDEST SWAP2 SWAP1 DUP2 LT ISZERO PUSH2 0x1D33 JUMPI PUSH1 0x5 SHL ADD SWAP1 JUMP JUMPDEST DUP1 SLOAD DUP3 LT ISZERO PUSH2 0x1D33 JUMPI PUSH1 0x0 MSTORE PUSH1 0x5 PUSH1 0x20 PUSH1 0x0 KECCAK256 SWAP2 MUL ADD SWAP1 PUSH1 0x0 SWAP1 JUMP JUMPDEST SWAP1 DUP1 ISZERO PUSH2 0x20D8 JUMPI DUP2 ISZERO PUSH2 0x20D1 JUMPI DUP2 DUP1 PUSH1 0x1 EQ PUSH2 0x20C9 JUMPI PUSH1 0x2 EQ PUSH2 0x20B8 JUMPI PUSH1 0x20 DUP2 LT PUSH2 0x133 DUP4 LT AND PUSH1 0x4E DUP3 LT PUSH1 0xB DUP5 LT AND OR PUSH2 0x20B3 JUMPI PUSH1 0x1 SWAP1 DUP2 JUMPDEST DUP1 DUP3 GT PUSH2 0x208A JUMPI POP POP DUP2 PUSH1 0x0 NOT DIV DUP2 GT PUSH2 0x1EC9 JUMPI MUL SWAP1 JUMP JUMPDEST SWAP1 SWAP3 DUP1 PUSH1 0x0 NOT DIV DUP2 GT PUSH2 0x1EC9 JUMPI DUP2 DUP5 AND PUSH2 0x20AA JUMPI JUMPDEST DUP1 MUL SWAP3 DUP2 SHR SWAP1 PUSH2 0x2072 JUMP JUMPDEST DUP1 SWAP3 MUL SWAP2 PUSH2 0x209F JUMP JUMPDEST SWAP1 EXP SWAP1 JUMP JUMPDEST SWAP1 POP PUSH1 0xFF DUP2 GT PUSH2 0x1EC9 JUMPI PUSH1 0x1 SWAP1 SHL SWAP1 JUMP JUMPDEST POP POP POP PUSH1 0x1 SWAP1 JUMP JUMPDEST POP POP PUSH1 0x0 SWAP1 JUMP JUMPDEST POP POP PUSH1 0x1 SWAP1 JUMP JUMPDEST DUP1 SLOAD DUP3 LT ISZERO PUSH2 0x1D33 JUMPI PUSH1 0x0 MSTORE PUSH1 0x20 PUSH1 0x0 KECCAK256 SWAP1 PUSH1 0x2 SHL ADD SWAP1 PUSH1 0x0 SWAP1 JUMP JUMPDEST ISZERO PUSH2 0x2102 JUMPI JUMP JUMPDEST PUSH1 0x40 MLOAD PUSH3 0x461BCD PUSH1 0xE5 SHL DUP2 MSTORE PUSH1 0x20 PUSH1 0x4 DUP3 ADD MSTORE PUSH1 0x21 PUSH1 0x24 DUP3 ADD MSTORE PUSH32 0x4F6E6C79206F776E65722063616E2063616C6C20746869732066756E6374696F PUSH1 0x44 DUP3 ADD MSTORE PUSH1 0x37 PUSH1 0xF9 SHL PUSH1 0x64 DUP3 ADD MSTORE PUSH1 0x84 SWAP1 REVERT JUMPDEST ISZERO PUSH2 0x2158 JUMPI JUMP JUMPDEST PUSH1 0x40 MLOAD PUSH3 0x461BCD PUSH1 0xE5 SHL DUP2 MSTORE PUSH1 0x20 PUSH1 0x4 DUP3 ADD MSTORE PUSH1 0x12 PUSH1 0x24 DUP3 ADD MSTORE PUSH18 0x4C6F616E206973206E6F7420616374697665 PUSH1 0x70 SHL PUSH1 0x44 DUP3 ADD MSTORE PUSH1 0x64 SWAP1 REVERT JUMPDEST PUSH1 0x0 DUP2 DUP2 MSTORE PUSH1 0x5 PUSH1 0x20 SWAP1 DUP2 MSTORE PUSH1 0x40 DUP1 DUP4 KECCAK256 SWAP6 SWAP5 SWAP1 SWAP2 DUP2 ISZERO DUP1 DUP1 ISZERO PUSH2 0x25F4 JUMPI JUMPDEST PUSH2 0x25EA JUMPI PUSH8 0xDE0B6B3A7640000 SWAP1 DUP2 DUP5 MUL SWAP1 DUP5 DUP3 DIV DUP4 EQ OR ISZERO PUSH2 0xF25 JUMPI DUP9 PUSH2 0x21E6 PUSH2 0x21F0 SWAP3 PUSH1 0x2 PUSH1 0xD SWAP10 SWAP11 SWAP12 SWAP13 ADD SLOAD SWAP1 PUSH2 0x1EDF JUMP JUMPDEST SWAP7 DUP8 SWAP2 ADD SLOAD PUSH2 0x1EB6 JUMP JUMPDEST DIV SWAP5 DUP6 ISZERO PUSH2 0x25A6 JUMPI DUP7 DUP2 MSTORE PUSH1 0x5 DUP3 MSTORE DUP4 DUP2 KECCAK256 PUSH1 0xD DUP2 ADD SWAP1 DUP2 SLOAD DUP9 GT PUSH2 0x2553 JUMPI PUSH1 0x2 SLOAD DUP7 MLOAD PUSH4 0x70A08231 PUSH1 0xE0 SHL DUP1 DUP3 MSTORE ADDRESS PUSH1 0x4 DUP1 DUP5 ADD SWAP2 SWAP1 SWAP2 MSTORE SWAP5 PUSH1 0x24 SWAP5 SWAP4 PUSH1 0x1 PUSH1 0x1 PUSH1 0xA0 SHL SUB SWAP4 SWAP2 SWAP3 SWAP1 DUP5 AND DUP10 DUP4 DUP9 DUP2 DUP5 GAS STATICCALL SWAP3 DUP4 ISZERO PUSH2 0x24D3 JUMPI DUP15 SWAP9 SWAP8 SWAP7 SWAP6 SWAP5 SWAP4 SWAP3 SWAP2 DUP11 DUP15 DUP14 SWAP4 DUP3 SWAP7 PUSH2 0x250F JUMPI JUMPDEST POP DUP2 DUP12 SWAP2 DUP10 PUSH1 0x64 SWAP5 SLOAD AND SWAP1 MLOAD SWAP14 DUP15 SWAP6 DUP7 SWAP5 PUSH4 0x1A4CA37B PUSH1 0xE2 SHL DUP7 MSTORE DUP6 ADD MSTORE DUP13 DUP5 ADD MSTORE ADDRESS PUSH1 0x44 DUP5 ADD MSTORE GAS CALL SWAP8 DUP9 ISZERO PUSH2 0x24D3 JUMPI DUP13 SWAP2 DUP12 SWAP2 DUP12 SWAP11 PUSH2 0x24DD JUMPI JUMPDEST POP DUP8 DUP7 PUSH1 0x2 SLOAD AND SWAP4 MLOAD DUP1 SWAP5 DUP2 SWAP4 DUP3 MSTORE ADDRESS DUP13 DUP4 ADD MSTORE GAS STATICCALL SWAP1 DUP2 ISZERO PUSH2 0x24D3 JUMPI DUP10 SWAP2 PUSH2 0x24A2 JUMPI JUMPDEST POP GT ISZERO PUSH2 0x2455 JUMPI DUP6 ISZERO PUSH2 0x2413 JUMPI PUSH2 0x231B SWAP3 DUP9 SWAP3 DUP3 PUSH2 0x22DE DUP10 DUP1 SWAP6 SLOAD PUSH2 0x1FF0 JUMP JUMPDEST SWAP1 SSTORE PUSH1 0x1 DUP2 PUSH1 0x2 SLOAD AND SWAP3 ADD SLOAD AND DUP9 DUP13 MLOAD DUP1 SWAP7 DUP2 SWAP6 DUP3 SWAP5 PUSH4 0xA9059CBB PUSH1 0xE0 SHL DUP5 MSTORE DUP12 DUP5 ADD PUSH1 0x20 SWAP1 SWAP4 SWAP3 SWAP2 SWAP4 PUSH1 0x40 DUP2 ADD SWAP5 PUSH1 0x1 DUP1 PUSH1 0xA0 SHL SUB AND DUP2 MSTORE ADD MSTORE JUMP JUMPDEST SUB SWAP3 GAS CALL SWAP1 DUP2 ISZERO PUSH2 0x2409 JUMPI DUP6 SWAP2 PUSH2 0x23EC JUMPI JUMPDEST POP ISZERO PUSH2 0x23AA JUMPI POP POP SWAP2 PUSH32 0x38A556A122683CB48D496614A7A03605B6C2C0482342924CAF483386980ECC9F PUSH1 0x80 PUSH32 0xBBE6753BDC52F1F0BCA193FAE9CF6F21E08E703147F9903FD2A84BB9CF273FA6 SWAP10 SWAP8 SWAP6 SWAP4 DUP8 SWAP6 DUP3 SWAP11 SWAP9 MLOAD SWAP2 DUP11 DUP4 MSTORE DUP10 DUP7 DUP5 ADD MSTORE DUP8 DUP4 ADD MSTORE PUSH1 0x60 DUP3 ADD MSTORE LOG1 DUP3 MLOAD SWAP6 DUP7 MSTORE DUP6 ADD MSTORE DUP4 ADD MSTORE PUSH1 0x60 DUP3 ADD MSTORE LOG1 JUMP JUMPDEST DUP7 MLOAD PUSH3 0x461BCD PUSH1 0xE5 SHL DUP2 MSTORE SWAP2 DUP3 ADD DUP6 SWAP1 MSTORE PUSH1 0x1B SWAP1 DUP3 ADD MSTORE PUSH32 0x5472616E7366657220746F20626F72726F776572206661696C65640000000000 PUSH1 0x44 DUP3 ADD MSTORE PUSH1 0x64 SWAP1 REVERT JUMPDEST PUSH2 0x2403 SWAP2 POP DUP7 RETURNDATASIZE DUP9 GT PUSH2 0x694 JUMPI PUSH2 0x685 DUP2 DUP4 PUSH2 0x1D97 JUMP JUMPDEST CODESIZE PUSH2 0x232D JUMP JUMPDEST DUP9 MLOAD RETURNDATASIZE DUP8 DUP3 RETURNDATACOPY RETURNDATASIZE SWAP1 REVERT JUMPDEST DUP10 MLOAD PUSH3 0x461BCD PUSH1 0xE5 SHL DUP2 MSTORE DUP1 DUP7 ADD DUP10 SWAP1 MSTORE PUSH1 0x1C DUP2 DUP7 ADD MSTORE PUSH32 0x556E7374616B652072657475726E6564207A65726F20746F6B656E7300000000 PUSH1 0x44 DUP3 ADD MSTORE PUSH1 0x64 SWAP1 REVERT JUMPDEST DUP10 MLOAD PUSH3 0x461BCD PUSH1 0xE5 SHL DUP2 MSTORE DUP1 DUP7 ADD DUP10 SWAP1 MSTORE PUSH1 0x22 DUP2 DUP7 ADD MSTORE PUSH32 0x5769746864726177616C206469646E277420696E6372656173652062616C616E PUSH1 0x44 DUP3 ADD MSTORE PUSH2 0x6365 PUSH1 0xF0 SHL PUSH1 0x64 DUP3 ADD MSTORE PUSH1 0x84 SWAP1 REVERT JUMPDEST SWAP1 POP DUP10 DUP2 DUP2 RETURNDATASIZE DUP4 GT PUSH2 0x24CC JUMPI JUMPDEST PUSH2 0x24B9 DUP2 DUP4 PUSH2 0x1D97 JUMP JUMPDEST DUP2 ADD SUB SLT PUSH2 0x24C8 JUMPI MLOAD CODESIZE PUSH2 0x22BE JUMP JUMPDEST DUP9 DUP1 REVERT JUMPDEST POP RETURNDATASIZE PUSH2 0x24AF JUMP JUMPDEST DUP13 MLOAD RETURNDATASIZE DUP12 DUP3 RETURNDATACOPY RETURNDATASIZE SWAP1 REVERT JUMPDEST SWAP3 POP SWAP9 POP DUP2 DUP2 RETURNDATASIZE DUP4 GT PUSH2 0x2508 JUMPI JUMPDEST PUSH2 0x24F5 DUP2 DUP4 PUSH2 0x1D97 JUMP JUMPDEST DUP2 ADD SUB SLT PUSH2 0x24C8 JUMPI DUP10 DUP13 SWAP2 MLOAD SWAP9 CODESIZE PUSH2 0x229A JUMP JUMPDEST POP RETURNDATASIZE PUSH2 0x24EB JUMP JUMPDEST SWAP5 SWAP7 SWAP8 SWAP9 SWAP10 SWAP11 SWAP12 POP POP POP SWAP3 POP DUP2 DUP2 RETURNDATASIZE DUP4 GT PUSH2 0x254C JUMPI JUMPDEST PUSH2 0x252F DUP2 DUP4 PUSH2 0x1D97 JUMP JUMPDEST DUP2 ADD SUB SLT PUSH2 0x24C8 JUMPI MLOAD DUP14 SWAP8 SWAP7 SWAP6 SWAP5 SWAP4 SWAP3 SWAP1 SWAP2 DUP11 SWAP1 DUP11 DUP15 PUSH1 0x64 PUSH2 0x225E JUMP JUMPDEST POP RETURNDATASIZE PUSH2 0x2525 JUMP JUMPDEST DUP6 MLOAD PUSH3 0x461BCD PUSH1 0xE5 SHL DUP2 MSTORE PUSH1 0x4 DUP2 ADD DUP6 SWAP1 MSTORE PUSH1 0x26 PUSH1 0x24 DUP3 ADD MSTORE PUSH32 0x43616E6E6F7420756E7374616B65206D6F7265207468616E207374616B656420 PUSH1 0x44 DUP3 ADD MSTORE PUSH6 0x185B5BDD5B9D PUSH1 0xD2 SHL PUSH1 0x64 DUP3 ADD MSTORE PUSH1 0x84 SWAP1 REVERT JUMPDEST DUP4 MLOAD PUSH3 0x461BCD PUSH1 0xE5 SHL DUP2 MSTORE PUSH1 0x4 DUP2 ADD DUP4 SWAP1 MSTORE PUSH1 0x19 PUSH1 0x24 DUP3 ADD MSTORE PUSH32 0x416D6F756E7420746F20756E7374616B65206973207A65726F00000000000000 PUSH1 0x44 DUP3 ADD MSTORE PUSH1 0x64 SWAP1 REVERT JUMPDEST POP POP POP POP POP POP SWAP1 POP JUMP JUMPDEST POP PUSH1 0x2 DUP9 ADD SLOAD ISZERO PUSH2 0x21B1 JUMP JUMPDEST SWAP1 PUSH1 0x0 SWAP1 DUP3 DUP3 MSTORE PUSH1 0x20 SWAP1 PUSH1 0x5 DUP3 MSTORE PUSH1 0x40 SWAP1 PUSH1 0xD DUP3 DUP6 KECCAK256 ADD DUP1 SLOAD DUP3 GT PUSH2 0x29EF JUMPI DUP2 ISZERO PUSH2 0x29AB JUMPI PUSH1 0x2 SLOAD DUP4 MLOAD PUSH4 0x70A08231 PUSH1 0xE0 SHL DUP1 DUP3 MSTORE ADDRESS PUSH1 0x4 DUP1 DUP5 ADD SWAP2 SWAP1 SWAP2 MSTORE PUSH1 0x1 PUSH1 0x1 PUSH1 0xA0 SHL SUB SWAP5 PUSH1 0x24 SWAP5 SWAP2 SWAP4 SWAP1 SWAP3 SWAP1 SWAP2 DUP7 AND DUP10 DUP4 DUP8 DUP2 DUP5 GAS STATICCALL SWAP3 DUP4 ISZERO PUSH2 0x2937 JUMPI DUP12 SWAP7 SWAP6 SWAP5 SWAP4 SWAP3 SWAP2 DUP12 SWAP2 DUP9 SWAP5 PUSH2 0x2970 JUMPI JUMPDEST POP PUSH1 0x64 DUP10 DUP10 SLOAD AND SWAP2 DUP13 MLOAD SWAP10 DUP11 SWAP4 DUP5 SWAP3 PUSH4 0x1A4CA37B PUSH1 0xE2 SHL DUP5 MSTORE DUP11 DUP5 ADD MSTORE DUP14 DUP12 DUP5 ADD MSTORE ADDRESS PUSH1 0x44 DUP5 ADD MSTORE GAS CALL SWAP6 DUP7 ISZERO PUSH2 0x2937 JUMPI DUP12 SWAP7 PUSH2 0x2941 JUMPI JUMPDEST POP DUP10 DUP8 PUSH1 0x2 SLOAD AND SWAP2 DUP7 DUP12 MLOAD DUP1 SWAP5 DUP2 SWAP4 DUP3 MSTORE ADDRESS DUP10 DUP4 ADD MSTORE GAS STATICCALL SWAP1 DUP2 ISZERO PUSH2 0x2937 JUMPI DUP12 SWAP2 PUSH2 0x290A JUMPI JUMPDEST POP GT ISZERO PUSH2 0x28BE JUMPI DUP4 ISZERO PUSH2 0x287D JUMPI PUSH2 0x26E7 DUP5 DUP3 SLOAD PUSH2 0x1FF0 JUMP JUMPDEST SWAP1 SSTORE PUSH1 0x2 SLOAD PUSH1 0x1 SLOAD DUP8 MLOAD PUSH4 0x95EA7B3 PUSH1 0xE0 SHL DUP2 MSTORE SWAP1 DUP7 AND PUSH1 0x1 PUSH1 0x1 PUSH1 0xA0 SHL SUB AND DUP4 DUP3 ADD SWAP1 DUP2 MSTORE PUSH1 0x20 DUP2 ADD DUP7 SWAP1 MSTORE SWAP1 SWAP2 DUP10 SWAP2 DUP4 SWAP2 DUP9 AND SWAP1 DUP3 SWAP1 DUP14 SWAP1 DUP3 SWAP1 PUSH1 0x40 ADD SUB SWAP3 GAS CALL DUP1 ISZERO PUSH2 0x2873 JUMPI PUSH2 0x2856 JUMPI JUMPDEST POP DUP6 MLOAD SWAP3 PUSH2 0x2742 DUP5 PUSH2 0x1D7B JUMP JUMPDEST PUSH1 0x2 DUP5 MSTORE DUP7 CALLDATASIZE DUP10 DUP7 ADD CALLDATACOPY DUP5 PUSH1 0x2 SLOAD AND PUSH2 0x275A DUP6 PUSH2 0x1E99 JUMP JUMPDEST MSTORE DUP5 PUSH1 0x9 SLOAD AND PUSH2 0x2769 DUP6 PUSH2 0x1EA6 JUMP JUMPDEST MSTORE PUSH1 0x5F DUP2 MUL SWAP5 DUP2 DUP7 DIV PUSH1 0x5F SUB PUSH2 0x2844 JUMPI PUSH1 0x1 SLOAD AND SWAP3 PUSH2 0x12C TIMESTAMP ADD SWAP1 DUP2 TIMESTAMP GT PUSH2 0x2833 JUMPI POP DUP10 SWAP5 SWAP4 SWAP3 SWAP2 PUSH2 0x27B6 DUP7 SWAP3 DUP11 MLOAD SWAP9 DUP10 SWAP8 DUP9 SWAP7 DUP8 SWAP6 PUSH4 0x38ED1739 PUSH1 0xE0 SHL DUP8 MSTORE PUSH1 0x64 ADDRESS SWAP5 DIV SWAP2 DUP8 ADD PUSH2 0x1F86 JUMP JUMPDEST SUB SWAP3 GAS CALL SWAP1 DUP2 ISZERO PUSH2 0x2829 JUMPI SWAP2 PUSH2 0x27FA DUP7 SWAP5 SWAP3 PUSH32 0x38A556A122683CB48D496614A7A03605B6C2C0482342924CAF483386980ECC9F SWAP9 SWAP7 SWAP5 PUSH1 0x80 SWAP9 SWAP2 PUSH2 0x280F JUMPI POP PUSH2 0x1EA6 JUMP JUMPDEST MLOAD SWAP3 DUP3 MLOAD SWAP6 DUP7 MSTORE DUP6 ADD MSTORE DUP4 ADD MSTORE PUSH1 0x60 DUP3 ADD MSTORE LOG1 JUMP JUMPDEST PUSH2 0x2823 SWAP2 POP RETURNDATASIZE DUP1 DUP9 DUP4 RETURNDATACOPY PUSH2 0xEF8 DUP2 DUP4 PUSH2 0x1D97 JUMP JUMPDEST CODESIZE PUSH2 0xD51 JUMP JUMPDEST DUP4 MLOAD RETURNDATASIZE DUP8 DUP3 RETURNDATACOPY RETURNDATASIZE SWAP1 REVERT JUMPDEST PUSH4 0x4E487B71 PUSH1 0xE0 SHL DUP12 MSTORE PUSH1 0x11 DUP5 MSTORE DUP11 REVERT JUMPDEST PUSH4 0x4E487B71 PUSH1 0xE0 SHL DUP11 MSTORE PUSH1 0x11 DUP4 MSTORE DUP4 DUP11 REVERT JUMPDEST PUSH2 0x286C SWAP1 DUP9 RETURNDATASIZE DUP11 GT PUSH2 0x694 JUMPI PUSH2 0x685 DUP2 DUP4 PUSH2 0x1D97 JUMP JUMPDEST POP CODESIZE PUSH2 0x2735 JUMP JUMPDEST DUP8 MLOAD RETURNDATASIZE DUP12 DUP3 RETURNDATACOPY RETURNDATASIZE SWAP1 REVERT JUMPDEST POP PUSH1 0x1C PUSH1 0x64 SWAP3 DUP9 DUP9 MLOAD SWAP4 PUSH3 0x461BCD PUSH1 0xE5 SHL DUP6 MSTORE DUP5 ADD MSTORE DUP3 ADD MSTORE PUSH32 0x556E7374616B652072657475726E6564207A65726F20746F6B656E7300000000 PUSH1 0x44 DUP3 ADD MSTORE REVERT JUMPDEST POP PUSH1 0x22 PUSH1 0x84 SWAP3 DUP9 DUP9 MLOAD SWAP4 PUSH3 0x461BCD PUSH1 0xE5 SHL DUP6 MSTORE DUP5 ADD MSTORE DUP3 ADD MSTORE PUSH32 0x5769746864726177616C206469646E277420696E6372656173652062616C616E PUSH1 0x44 DUP3 ADD MSTORE PUSH2 0x6365 PUSH1 0xF0 SHL PUSH1 0x64 DUP3 ADD MSTORE REVERT JUMPDEST SWAP1 POP DUP10 DUP2 DUP2 RETURNDATASIZE DUP4 GT PUSH2 0x2930 JUMPI JUMPDEST PUSH2 0x2921 DUP2 DUP4 PUSH2 0x1D97 JUMP JUMPDEST DUP2 ADD SUB SLT PUSH2 0x13EF JUMPI MLOAD CODESIZE PUSH2 0x26CF JUMP JUMPDEST POP RETURNDATASIZE PUSH2 0x2917 JUMP JUMPDEST DUP10 MLOAD RETURNDATASIZE DUP14 DUP3 RETURNDATACOPY RETURNDATASIZE SWAP1 REVERT JUMPDEST SWAP1 SWAP6 POP DUP10 DUP2 DUP2 RETURNDATASIZE DUP4 GT PUSH2 0x2969 JUMPI JUMPDEST PUSH2 0x2959 DUP2 DUP4 PUSH2 0x1D97 JUMP JUMPDEST DUP2 ADD SUB SLT PUSH2 0x13EF JUMPI MLOAD SWAP5 CODESIZE PUSH2 0x26A9 JUMP JUMPDEST POP RETURNDATASIZE PUSH2 0x294F JUMP JUMPDEST SWAP3 SWAP4 POP SWAP4 SWAP5 SWAP6 SWAP7 POP DUP2 DUP2 RETURNDATASIZE DUP4 GT PUSH2 0x29A4 JUMPI JUMPDEST PUSH2 0x298C DUP2 DUP4 PUSH2 0x1D97 JUMP JUMPDEST DUP2 ADD SUB SLT PUSH2 0x13EF JUMPI SWAP1 DUP10 DUP12 SWAP7 SWAP6 SWAP5 SWAP4 SWAP3 MLOAD SWAP3 CODESIZE PUSH2 0x2671 JUMP JUMPDEST POP RETURNDATASIZE PUSH2 0x2982 JUMP JUMPDEST DUP3 MLOAD PUSH3 0x461BCD PUSH1 0xE5 SHL DUP2 MSTORE PUSH1 0x4 DUP2 ADD DUP6 SWAP1 MSTORE PUSH1 0x1A PUSH1 0x24 DUP3 ADD MSTORE PUSH32 0x43616E6E6F7420756E7374616B65207A65726F20616D6F756E74000000000000 PUSH1 0x44 DUP3 ADD MSTORE PUSH1 0x64 SWAP1 REVERT JUMPDEST DUP3 MLOAD PUSH3 0x461BCD PUSH1 0xE5 SHL DUP2 MSTORE PUSH1 0x4 DUP2 ADD DUP6 SWAP1 MSTORE PUSH1 0x26 PUSH1 0x24 DUP3 ADD MSTORE PUSH32 0x43616E6E6F7420756E7374616B65206D6F7265207468616E207374616B656420 PUSH1 0x44 DUP3 ADD MSTORE PUSH6 0x185B5BDD5B9D PUSH1 0xD2 SHL PUSH1 0x64 DUP3 ADD MSTORE PUSH1 0x84 SWAP1 REVERT JUMPDEST PUSH1 0x0 SWAP1 DUP2 MSTORE PUSH1 0x5 PUSH1 0x20 MSTORE PUSH1 0x40 DUP2 KECCAK256 PUSH1 0x2 DUP2 ADD SLOAD SWAP1 SWAP4 SWAP3 DUP2 ISZERO PUSH2 0x2AAC JUMPI PUSH8 0xDE0B6B3A7640000 SWAP3 DUP4 DUP3 MUL SWAP2 DUP1 DUP4 DIV DUP6 EQ SWAP1 ISZERO OR ISZERO PUSH2 0x2A98 JUMPI POP SWAP4 PUSH2 0x2A8A PUSH2 0x2A94 SWAP3 PUSH1 0xD SWAP7 PUSH2 0x1EDF JUMP JUMPDEST SWAP5 DUP6 SWAP2 ADD SLOAD PUSH2 0x1EB6 JUMP JUMPDEST DIV SWAP1 JUMP JUMPDEST PUSH4 0x4E487B71 PUSH1 0xE0 SHL DUP2 MSTORE PUSH1 0x11 PUSH1 0x4 MSTORE PUSH1 0x24 SWAP1 REVERT JUMPDEST POP POP DUP1 SWAP3 POP SWAP2 SWAP1 JUMP INVALID LOG2 PUSH5 0x6970667358 0x22 SLT KECCAK256 DUP11 0xEA NUMBER PUSH18 0x3D52269C0CBE6898BAA896C72E3FAF39F7F3 0xDE 0xEF 0xB3 SWAP6 PUSH7 0x917CB8709C6473 PUSH16 0x6C634300081400330000000000000000 "},"methodIdentifiers":{"aavePool()":"a03e4bc3","cbBtcToken()":"0e462386","chainlinkOracle()":"ef06e72c","debugUnstakeCalc(bytes32,uint256)":"5206d2d0","getInstallmentSchedule(bytes32)":"6c1945ae","getPrice()":"98d5fdca","getStakedAmount(bytes32)":"337a1737","hasActiveLoan(address)":"21d4f8db","lenders(address)":"28fd10d7","liquidate(bytes32)":"0a71096e","liquidateIfOverdue(bytes32)":"28830d47","loan(uint256,uint256,uint256,address[],uint256[])":"66fb6e5a","loanIds(uint256)":"f8715a42","loans(bytes32)":"c4a90815","markInstallmentPaid(bytes32,uint256)":"c9642d2a","owner()":"8da5cb5b","payouts(bytes32,uint256)":"80f2122c","setAavePool(address)":"349f937c","setCbBtcToken(address)":"83cd8fcf","setChainlinkOracle(address)":"7a9b0412","setSwapRouter(address)":"41273657","swapRouter()":"c31c9c07","usdcToken()":"11eac855"}}}}}