{"Contracts/Helper.sol":{"MockSwapRouter":{"abi":[{"inputs":[],"stateMutability":"nonpayable","type":"constructor"},{"anonymous":false,"inputs":[{"indexed":true,"internalType":"address","name":"tokenA","type":"address"},{"indexed":true,"internalType":"address","name":"tokenB","type":"address"},{"indexed":false,"internalType":"uint256","name":"numerator","type":"uint256"},{"indexed":false,"internalType":"uint256","name":"denominator","type":"uint256"}],"name":"RateSet","type":"event"},{"anonymous":false,"inputs":[{"indexed":true,"internalType":"address","name":"tokenIn","type":"address"},{"indexed":true,"internalType":"address","name":"tokenOut","type":"address"},{"indexed":false,"internalType":"uint256","name":"amountIn","type":"uint256"},{"indexed":false,"internalType":"uint256","name":"amountOut","type":"uint256"}],"name":"Swap","type":"event"},{"inputs":[{"internalType":"address","name":"","type":"address"},{"internalType":"address","name":"","type":"address"}],"name":"exchangeRates","outputs":[{"internalType":"uint256","name":"numerator","type":"uint256"},{"internalType":"uint256","name":"denominator","type":"uint256"}],"stateMutability":"view","type":"function"},{"inputs":[{"internalType":"address","name":"tokenA","type":"address"},{"internalType":"address","name":"tokenB","type":"address"}],"name":"getExchangeRate","outputs":[{"internalType":"uint256","name":"","type":"uint256"},{"internalType":"uint256","name":"","type":"uint256"}],"stateMutability":"view","type":"function"},{"inputs":[],"name":"owner","outputs":[{"internalType":"address","name":"","type":"address"}],"stateMutability":"view","type":"function"},{"inputs":[{"internalType":"address","name":"tokenA","type":"address"},{"internalType":"address","name":"tokenB","type":"address"},{"internalType":"uint256","name":"numerator","type":"uint256"},{"internalType":"uint256","name":"denominator","type":"uint256"}],"name":"setExchangeRate","outputs":[],"stateMutability":"nonpayable","type":"function"},{"inputs":[{"internalType":"uint256","name":"amountIn","type":"uint256"},{"internalType":"uint256","name":"amountOutMin","type":"uint256"},{"internalType":"address[]","name":"path","type":"address[]"},{"internalType":"address","name":"to","type":"address"},{"internalType":"uint256","name":"deadline","type":"uint256"}],"name":"swapExactTokensForTokens","outputs":[{"internalType":"uint256[]","name":"amounts","type":"uint256[]"}],"stateMutability":"nonpayable","type":"function"}],"evm":{"bytecode":{"linkReferences":{},"object":"6080806040523461002857600180546001600160a01b031916331790556108e9908161002e8239f35b600080fdfe608080604052600436101561001357600080fd5b60003560e01c90816338ed1739146102d457508063503fa44f1461027a5780638da5cb5b14610251578063baaa61be146101e25763de378f381461005657600080fd5b346101dd5760803660031901126101dd5761006f6107cb565b6100776107e1565b60015490916001600160a01b03916064359190604435908416330361018e57821561013e577ff7e06908c466f8ecd19cb46c7e97598dc5a8760f637bb764d91fc4b6da7664ef9260409283516100cc816107f7565b8381526001602092888484019186835216988960005260008552876000209a16998a6000528452866000209251835551910155835161010a816107f7565b82815260018282018581528960005260008452866000208960005284528660002092518355519101558351928352820152a3005b60405162461bcd60e51b815260206004820152602260248201527f44656e6f6d696e61746f72206d7573742062652067726561746572207468616e604482015261020360f41b6064820152608490fd5b60405162461bcd60e51b815260206004820152602160248201527f4f6e6c79206f776e65722063616e2063616c6c20746869732066756e6374696f6044820152603760f91b6064820152608490fd5b600080fd5b346101dd5760403660031901126101dd576101fb6107cb565b6102036107e1565b9060018060a01b0380911660005260006020526040600020911660005260205260408060002060208251610236816107f7565b60018354938483520154918291015282519182526020820152f35b346101dd5760003660031901126101dd576001546040516001600160a01b039091168152602090f35b346101dd5760403660031901126101dd576102936107cb565b61029b6107e1565b9060018060a01b038091166000526000602052604060002091166000526020526040806000206001815491015482519182526020820152f35b346101dd5760a03660031901126101dd5767ffffffffffffffff80604435116101dd573660236044350112156101dd5760443560040135116101dd573660246044356004013560051b6044350101116101dd57606435906001600160a01b03821682036101dd576002604435600401351061079a575060043515610755576103616044356004013561084b565b61036e6040519182610829565b60046044350135808252601f19906103859061084b565b0136602083013780511561073f57600435602082015260005b600460443501356000198101116105195760046044350135600019018110156106f9576103df6103da8260443560040135602460443501610877565b610887565b600182018211610519576104056103da6001840160443560040135602460443501610877565b6001600160a01b038281166000908152602081815260408083209385168352929052819020905190610436826107f7565b60018154918284520154806020840152151590816106ef575b50156106b25761045f8486610863565b51916020820151918383810204831484151715610519575191821561069c5782818502046104906001880189610863565b528515610635575b60046044350135600119810111610519576004604435013560011901861461052f575b907ffa2dda1cc1b86e41239702756b13effbc1a092b5c57e3ad320fbe4f3b13fe235926040926104eb888a610863565b51845190815295020460208501526001600160a01b03908116941692a360001981146105195760010161039e565b634e487b7160e01b600052601160045260246000fd5b906024358383860204106105f05760405163a9059cbb60e01b81526001600160a01b03898116600483015285840285900460248301529093906020908590604490829060009087165af19283156105e4577ffa2dda1cc1b86e41239702756b13effbc1a092b5c57e3ad320fbe4f3b13fe235946040946105b5575b5091925092506104bb565b6105d69060203d6020116105dd575b6105ce8183610829565b81019061089b565b508a6105aa565b503d6105c4565b6040513d6000823e3d90fd5b60405162461bcd60e51b815260206004820152601a60248201527f496e73756666696369656e74206f757470757420616d6f756e740000000000006044820152606490fd5b6040516323b872dd60e01b81523360048083019190915230602483015235604482015260208160648160006001600160a01b038b165af180156105e45761067d575b50610498565b6106959060203d6020116105dd576105ce8183610829565b5088610677565b634e487b7160e01b600052601260045260246000fd5b60405162461bcd60e51b8152602060048201526015602482015274115e18da185b99d9481c985d19481b9bdd081cd95d605a1b6044820152606490fd5b905015158761044f565b5060405180916020820160208352815180915260206040840192019060005b818110610726575050500390f35b8251845285945060209384019390920191600101610718565b634e487b7160e01b600052603260045260246000fd5b60405162461bcd60e51b815260206004820152601d60248201527f416d6f756e74206d7573742062652067726561746572207468616e20300000006044820152606490fd5b62461bcd60e51b815260206004820152600c60248201526b092dcecc2d8d2c840e0c2e8d60a31b6044820152606490fd5b600435906001600160a01b03821682036101dd57565b602435906001600160a01b03821682036101dd57565b6040810190811067ffffffffffffffff82111761081357604052565b634e487b7160e01b600052604160045260246000fd5b90601f8019910116810190811067ffffffffffffffff82111761081357604052565b67ffffffffffffffff81116108135760051b60200190565b805182101561073f5760209160051b010190565b919081101561073f5760051b0190565b356001600160a01b03811681036101dd5790565b908160209103126101dd575180151581036101dd579056fea26469706673582212203ab168a7665b11b4091d60c1d678c09d68a315b645dc8d8230aa2b52a0243ae364736f6c63430008140033","opcodes":"PUSH1 0x80 DUP1 PUSH1 0x40 MSTORE CALLVALUE PUSH2 0x28 JUMPI PUSH1 0x1 DUP1 SLOAD PUSH1 0x1 PUSH1 0x1 PUSH1 0xA0 SHL SUB NOT AND CALLER OR SWAP1 SSTORE PUSH2 0x8E9 SWAP1 DUP2 PUSH2 0x2E DUP3 CODECOPY RETURN JUMPDEST PUSH1 0x0 DUP1 REVERT INVALID PUSH1 0x80 DUP1 PUSH1 0x40 MSTORE PUSH1 0x4 CALLDATASIZE LT ISZERO PUSH2 0x13 JUMPI PUSH1 0x0 DUP1 REVERT JUMPDEST PUSH1 0x0 CALLDATALOAD PUSH1 0xE0 SHR SWAP1 DUP2 PUSH4 0x38ED1739 EQ PUSH2 0x2D4 JUMPI POP DUP1 PUSH4 0x503FA44F EQ PUSH2 0x27A JUMPI DUP1 PUSH4 0x8DA5CB5B EQ PUSH2 0x251 JUMPI DUP1 PUSH4 0xBAAA61BE EQ PUSH2 0x1E2 JUMPI PUSH4 0xDE378F38 EQ PUSH2 0x56 JUMPI PUSH1 0x0 DUP1 REVERT JUMPDEST CALLVALUE PUSH2 0x1DD JUMPI PUSH1 0x80 CALLDATASIZE PUSH1 0x3 NOT ADD SLT PUSH2 0x1DD JUMPI PUSH2 0x6F PUSH2 0x7CB JUMP JUMPDEST PUSH2 0x77 PUSH2 0x7E1 JUMP JUMPDEST PUSH1 0x1 SLOAD SWAP1 SWAP2 PUSH1 0x1 PUSH1 0x1 PUSH1 0xA0 SHL SUB SWAP2 PUSH1 0x64 CALLDATALOAD SWAP2 SWAP1 PUSH1 0x44 CALLDATALOAD SWAP1 DUP5 AND CALLER SUB PUSH2 0x18E JUMPI DUP3 ISZERO PUSH2 0x13E JUMPI PUSH32 0xF7E06908C466F8ECD19CB46C7E97598DC5A8760F637BB764D91FC4B6DA7664EF SWAP3 PUSH1 0x40 SWAP3 DUP4 MLOAD PUSH2 0xCC DUP2 PUSH2 0x7F7 JUMP JUMPDEST DUP4 DUP2 MSTORE PUSH1 0x1 PUSH1 0x20 SWAP3 DUP9 DUP5 DUP5 ADD SWAP2 DUP7 DUP4 MSTORE AND SWAP9 DUP10 PUSH1 0x0 MSTORE PUSH1 0x0 DUP6 MSTORE DUP8 PUSH1 0x0 KECCAK256 SWAP11 AND SWAP10 DUP11 PUSH1 0x0 MSTORE DUP5 MSTORE DUP7 PUSH1 0x0 KECCAK256 SWAP3 MLOAD DUP4 SSTORE MLOAD SWAP2 ADD SSTORE DUP4 MLOAD PUSH2 0x10A DUP2 PUSH2 0x7F7 JUMP JUMPDEST DUP3 DUP2 MSTORE PUSH1 0x1 DUP3 DUP3 ADD DUP6 DUP2 MSTORE DUP10 PUSH1 0x0 MSTORE PUSH1 0x0 DUP5 MSTORE DUP7 PUSH1 0x0 KECCAK256 DUP10 PUSH1 0x0 MSTORE DUP5 MSTORE DUP7 PUSH1 0x0 KECCAK256 SWAP3 MLOAD DUP4 SSTORE MLOAD SWAP2 ADD SSTORE DUP4 MLOAD SWAP3 DUP4 MSTORE DUP3 ADD MSTORE LOG3 STOP JUMPDEST PUSH1 0x40 MLOAD PUSH3 0x461BCD PUSH1 0xE5 SHL DUP2 MSTORE PUSH1 0x20 PUSH1 0x4 DUP3 ADD MSTORE PUSH1 0x22 PUSH1 0x24 DUP3 ADD MSTORE PUSH32 0x44656E6F6D696E61746F72206D7573742062652067726561746572207468616E PUSH1 0x44 DUP3 ADD MSTORE PUSH2 0x203 PUSH1 0xF4 SHL PUSH1 0x64 DUP3 ADD MSTORE PUSH1 0x84 SWAP1 REVERT JUMPDEST PUSH1 0x40 MLOAD PUSH3 0x461BCD PUSH1 0xE5 SHL DUP2 MSTORE PUSH1 0x20 PUSH1 0x4 DUP3 ADD MSTORE PUSH1 0x21 PUSH1 0x24 DUP3 ADD MSTORE PUSH32 0x4F6E6C79206F776E65722063616E2063616C6C20746869732066756E6374696F PUSH1 0x44 DUP3 ADD MSTORE PUSH1 0x37 PUSH1 0xF9 SHL PUSH1 0x64 DUP3 ADD MSTORE PUSH1 0x84 SWAP1 REVERT JUMPDEST PUSH1 0x0 DUP1 REVERT JUMPDEST CALLVALUE PUSH2 0x1DD JUMPI PUSH1 0x40 CALLDATASIZE PUSH1 0x3 NOT ADD SLT PUSH2 0x1DD JUMPI PUSH2 0x1FB PUSH2 0x7CB JUMP JUMPDEST PUSH2 0x203 PUSH2 0x7E1 JUMP JUMPDEST SWAP1 PUSH1 0x1 DUP1 PUSH1 0xA0 SHL SUB DUP1 SWAP2 AND PUSH1 0x0 MSTORE PUSH1 0x0 PUSH1 0x20 MSTORE PUSH1 0x40 PUSH1 0x0 KECCAK256 SWAP2 AND PUSH1 0x0 MSTORE PUSH1 0x20 MSTORE PUSH1 0x40 DUP1 PUSH1 0x0 KECCAK256 PUSH1 0x20 DUP3 MLOAD PUSH2 0x236 DUP2 PUSH2 0x7F7 JUMP JUMPDEST PUSH1 0x1 DUP4 SLOAD SWAP4 DUP5 DUP4 MSTORE ADD SLOAD SWAP2 DUP3 SWAP2 ADD MSTORE DUP3 MLOAD SWAP2 DUP3 MSTORE PUSH1 0x20 DUP3 ADD MSTORE RETURN JUMPDEST CALLVALUE PUSH2 0x1DD JUMPI PUSH1 0x0 CALLDATASIZE PUSH1 0x3 NOT ADD SLT PUSH2 0x1DD JUMPI PUSH1 0x1 SLOAD PUSH1 0x40 MLOAD PUSH1 0x1 PUSH1 0x1 PUSH1 0xA0 SHL SUB SWAP1 SWAP2 AND DUP2 MSTORE PUSH1 0x20 SWAP1 RETURN JUMPDEST CALLVALUE PUSH2 0x1DD JUMPI PUSH1 0x40 CALLDATASIZE PUSH1 0x3 NOT ADD SLT PUSH2 0x1DD JUMPI PUSH2 0x293 PUSH2 0x7CB JUMP JUMPDEST PUSH2 0x29B PUSH2 0x7E1 JUMP JUMPDEST SWAP1 PUSH1 0x1 DUP1 PUSH1 0xA0 SHL SUB DUP1 SWAP2 AND PUSH1 0x0 MSTORE PUSH1 0x0 PUSH1 0x20 MSTORE PUSH1 0x40 PUSH1 0x0 KECCAK256 SWAP2 AND PUSH1 0x0 MSTORE PUSH1 0x20 MSTORE PUSH1 0x40 DUP1 PUSH1 0x0 KECCAK256 PUSH1 0x1 DUP2 SLOAD SWAP2 ADD SLOAD DUP3 MLOAD SWAP2 DUP3 MSTORE PUSH1 0x20 DUP3 ADD MSTORE RETURN JUMPDEST CALLVALUE PUSH2 0x1DD JUMPI PUSH1 0xA0 CALLDATASIZE PUSH1 0x3 NOT ADD SLT PUSH2 0x1DD JUMPI PUSH8 0xFFFFFFFFFFFFFFFF DUP1 PUSH1 0x44 CALLDATALOAD GT PUSH2 0x1DD JUMPI CALLDATASIZE PUSH1 0x23 PUSH1 0x44 CALLDATALOAD ADD SLT ISZERO PUSH2 0x1DD JUMPI PUSH1 0x44 CALLDATALOAD PUSH1 0x4 ADD CALLDATALOAD GT PUSH2 0x1DD JUMPI CALLDATASIZE PUSH1 0x24 PUSH1 0x44 CALLDATALOAD PUSH1 0x4 ADD CALLDATALOAD PUSH1 0x5 SHL PUSH1 0x44 CALLDATALOAD ADD ADD GT PUSH2 0x1DD JUMPI PUSH1 0x64 CALLDATALOAD SWAP1 PUSH1 0x1 PUSH1 0x1 PUSH1 0xA0 SHL SUB DUP3 AND DUP3 SUB PUSH2 0x1DD JUMPI PUSH1 0x2 PUSH1 0x44 CALLDATALOAD PUSH1 0x4 ADD CALLDATALOAD LT PUSH2 0x79A JUMPI POP PUSH1 0x4 CALLDATALOAD ISZERO PUSH2 0x755 JUMPI PUSH2 0x361 PUSH1 0x44 CALLDATALOAD PUSH1 0x4 ADD CALLDATALOAD PUSH2 0x84B JUMP JUMPDEST PUSH2 0x36E PUSH1 0x40 MLOAD SWAP2 DUP3 PUSH2 0x829 JUMP JUMPDEST PUSH1 0x4 PUSH1 0x44 CALLDATALOAD ADD CALLDATALOAD DUP1 DUP3 MSTORE PUSH1 0x1F NOT SWAP1 PUSH2 0x385 SWAP1 PUSH2 0x84B JUMP JUMPDEST ADD CALLDATASIZE PUSH1 0x20 DUP4 ADD CALLDATACOPY DUP1 MLOAD ISZERO PUSH2 0x73F JUMPI PUSH1 0x4 CALLDATALOAD PUSH1 0x20 DUP3 ADD MSTORE PUSH1 0x0 JUMPDEST PUSH1 0x4 PUSH1 0x44 CALLDATALOAD ADD CALLDATALOAD PUSH1 0x0 NOT DUP2 ADD GT PUSH2 0x519 JUMPI PUSH1 0x4 PUSH1 0x44 CALLDATALOAD ADD CALLDATALOAD PUSH1 0x0 NOT ADD DUP2 LT ISZERO PUSH2 0x6F9 JUMPI PUSH2 0x3DF PUSH2 0x3DA DUP3 PUSH1 0x44 CALLDATALOAD PUSH1 0x4 ADD CALLDATALOAD PUSH1 0x24 PUSH1 0x44 CALLDATALOAD ADD PUSH2 0x877 JUMP JUMPDEST PUSH2 0x887 JUMP JUMPDEST PUSH1 0x1 DUP3 ADD DUP3 GT PUSH2 0x519 JUMPI PUSH2 0x405 PUSH2 0x3DA PUSH1 0x1 DUP5 ADD PUSH1 0x44 CALLDATALOAD PUSH1 0x4 ADD CALLDATALOAD PUSH1 0x24 PUSH1 0x44 CALLDATALOAD ADD PUSH2 0x877 JUMP JUMPDEST PUSH1 0x1 PUSH1 0x1 PUSH1 0xA0 SHL SUB DUP3 DUP2 AND PUSH1 0x0 SWAP1 DUP2 MSTORE PUSH1 0x20 DUP2 DUP2 MSTORE PUSH1 0x40 DUP1 DUP4 KECCAK256 SWAP4 DUP6 AND DUP4 MSTORE SWAP3 SWAP1 MSTORE DUP2 SWAP1 KECCAK256 SWAP1 MLOAD SWAP1 PUSH2 0x436 DUP3 PUSH2 0x7F7 JUMP JUMPDEST PUSH1 0x1 DUP2 SLOAD SWAP2 DUP3 DUP5 MSTORE ADD SLOAD DUP1 PUSH1 0x20 DUP5 ADD MSTORE ISZERO ISZERO SWAP1 DUP2 PUSH2 0x6EF JUMPI JUMPDEST POP ISZERO PUSH2 0x6B2 JUMPI PUSH2 0x45F DUP5 DUP7 PUSH2 0x863 JUMP JUMPDEST MLOAD SWAP2 PUSH1 0x20 DUP3 ADD MLOAD SWAP2 DUP4 DUP4 DUP2 MUL DIV DUP4 EQ DUP5 ISZERO OR ISZERO PUSH2 0x519 JUMPI MLOAD SWAP2 DUP3 ISZERO PUSH2 0x69C JUMPI DUP3 DUP2 DUP6 MUL DIV PUSH2 0x490 PUSH1 0x1 DUP9 ADD DUP10 PUSH2 0x863 JUMP JUMPDEST MSTORE DUP6 ISZERO PUSH2 0x635 JUMPI JUMPDEST PUSH1 0x4 PUSH1 0x44 CALLDATALOAD ADD CALLDATALOAD PUSH1 0x1 NOT DUP2 ADD GT PUSH2 0x519 JUMPI PUSH1 0x4 PUSH1 0x44 CALLDATALOAD ADD CALLDATALOAD PUSH1 0x1 NOT ADD DUP7 EQ PUSH2 0x52F JUMPI JUMPDEST SWAP1 PUSH32 0xFA2DDA1CC1B86E41239702756B13EFFBC1A092B5C57E3AD320FBE4F3B13FE235 SWAP3 PUSH1 0x40 SWAP3 PUSH2 0x4EB DUP9 DUP11 PUSH2 0x863 JUMP JUMPDEST MLOAD DUP5 MLOAD SWAP1 DUP2 MSTORE SWAP6 MUL DIV PUSH1 0x20 DUP6 ADD MSTORE PUSH1 0x1 PUSH1 0x1 PUSH1 0xA0 SHL SUB SWAP1 DUP2 AND SWAP5 AND SWAP3 LOG3 PUSH1 0x0 NOT DUP2 EQ PUSH2 0x519 JUMPI PUSH1 0x1 ADD PUSH2 0x39E JUMP JUMPDEST PUSH4 0x4E487B71 PUSH1 0xE0 SHL PUSH1 0x0 MSTORE PUSH1 0x11 PUSH1 0x4 MSTORE PUSH1 0x24 PUSH1 0x0 REVERT JUMPDEST SWAP1 PUSH1 0x24 CALLDATALOAD DUP4 DUP4 DUP7 MUL DIV LT PUSH2 0x5F0 JUMPI PUSH1 0x40 MLOAD PUSH4 0xA9059CBB PUSH1 0xE0 SHL DUP2 MSTORE PUSH1 0x1 PUSH1 0x1 PUSH1 0xA0 SHL SUB DUP10 DUP2 AND PUSH1 0x4 DUP4 ADD MSTORE DUP6 DUP5 MUL DUP6 SWAP1 DIV PUSH1 0x24 DUP4 ADD MSTORE SWAP1 SWAP4 SWAP1 PUSH1 0x20 SWAP1 DUP6 SWAP1 PUSH1 0x44 SWAP1 DUP3 SWAP1 PUSH1 0x0 SWAP1 DUP8 AND GAS CALL SWAP3 DUP4 ISZERO PUSH2 0x5E4 JUMPI PUSH32 0xFA2DDA1CC1B86E41239702756B13EFFBC1A092B5C57E3AD320FBE4F3B13FE235 SWAP5 PUSH1 0x40 SWAP5 PUSH2 0x5B5 JUMPI JUMPDEST POP SWAP2 SWAP3 POP SWAP3 POP PUSH2 0x4BB JUMP JUMPDEST PUSH2 0x5D6 SWAP1 PUSH1 0x20 RETURNDATASIZE PUSH1 0x20 GT PUSH2 0x5DD JUMPI JUMPDEST PUSH2 0x5CE DUP2 DUP4 PUSH2 0x829 JUMP JUMPDEST DUP2 ADD SWAP1 PUSH2 0x89B JUMP JUMPDEST POP DUP11 PUSH2 0x5AA JUMP JUMPDEST POP RETURNDATASIZE PUSH2 0x5C4 JUMP JUMPDEST PUSH1 0x40 MLOAD RETURNDATASIZE PUSH1 0x0 DUP3 RETURNDATACOPY RETURNDATASIZE SWAP1 REVERT JUMPDEST PUSH1 0x40 MLOAD PUSH3 0x461BCD PUSH1 0xE5 SHL DUP2 MSTORE PUSH1 0x20 PUSH1 0x4 DUP3 ADD MSTORE PUSH1 0x1A PUSH1 0x24 DUP3 ADD MSTORE PUSH32 0x496E73756666696369656E74206F757470757420616D6F756E74000000000000 PUSH1 0x44 DUP3 ADD MSTORE PUSH1 0x64 SWAP1 REVERT JUMPDEST PUSH1 0x40 MLOAD PUSH4 0x23B872DD PUSH1 0xE0 SHL DUP2 MSTORE CALLER PUSH1 0x4 DUP1 DUP4 ADD SWAP2 SWAP1 SWAP2 MSTORE ADDRESS PUSH1 0x24 DUP4 ADD MSTORE CALLDATALOAD PUSH1 0x44 DUP3 ADD MSTORE PUSH1 0x20 DUP2 PUSH1 0x64 DUP2 PUSH1 0x0 PUSH1 0x1 PUSH1 0x1 PUSH1 0xA0 SHL SUB DUP12 AND GAS CALL DUP1 ISZERO PUSH2 0x5E4 JUMPI PUSH2 0x67D JUMPI JUMPDEST POP PUSH2 0x498 JUMP JUMPDEST PUSH2 0x695 SWAP1 PUSH1 0x20 RETURNDATASIZE PUSH1 0x20 GT PUSH2 0x5DD JUMPI PUSH2 0x5CE DUP2 DUP4 PUSH2 0x829 JUMP JUMPDEST POP DUP9 PUSH2 0x677 JUMP JUMPDEST PUSH4 0x4E487B71 PUSH1 0xE0 SHL PUSH1 0x0 MSTORE PUSH1 0x12 PUSH1 0x4 MSTORE PUSH1 0x24 PUSH1 0x0 REVERT JUMPDEST PUSH1 0x40 MLOAD PUSH3 0x461BCD PUSH1 0xE5 SHL DUP2 MSTORE PUSH1 0x20 PUSH1 0x4 DUP3 ADD MSTORE PUSH1 0x15 PUSH1 0x24 DUP3 ADD MSTORE PUSH21 0x115E18DA185B99D9481C985D19481B9BDD081CD95D PUSH1 0x5A SHL PUSH1 0x44 DUP3 ADD MSTORE PUSH1 0x64 SWAP1 REVERT JUMPDEST SWAP1 POP ISZERO ISZERO DUP8 PUSH2 0x44F JUMP JUMPDEST POP PUSH1 0x40 MLOAD DUP1 SWAP2 PUSH1 0x20 DUP3 ADD PUSH1 0x20 DUP4 MSTORE DUP2 MLOAD DUP1 SWAP2 MSTORE PUSH1 0x20 PUSH1 0x40 DUP5 ADD SWAP3 ADD SWAP1 PUSH1 0x0 JUMPDEST DUP2 DUP2 LT PUSH2 0x726 JUMPI POP POP POP SUB SWAP1 RETURN JUMPDEST DUP3 MLOAD DUP5 MSTORE DUP6 SWAP5 POP PUSH1 0x20 SWAP4 DUP5 ADD SWAP4 SWAP1 SWAP3 ADD SWAP2 PUSH1 0x1 ADD PUSH2 0x718 JUMP JUMPDEST PUSH4 0x4E487B71 PUSH1 0xE0 SHL PUSH1 0x0 MSTORE PUSH1 0x32 PUSH1 0x4 MSTORE PUSH1 0x24 PUSH1 0x0 REVERT JUMPDEST PUSH1 0x40 MLOAD PUSH3 0x461BCD PUSH1 0xE5 SHL DUP2 MSTORE PUSH1 0x20 PUSH1 0x4 DUP3 ADD MSTORE PUSH1 0x1D PUSH1 0x24 DUP3 ADD MSTORE PUSH32 0x416D6F756E74206D7573742062652067726561746572207468616E2030000000 PUSH1 0x44 DUP3 ADD MSTORE PUSH1 0x64 SWAP1 REVERT JUMPDEST PUSH3 0x461BCD PUSH1 0xE5 SHL DUP2 MSTORE PUSH1 0x20 PUSH1 0x4 DUP3 ADD MSTORE PUSH1 0xC PUSH1 0x24 DUP3 ADD MSTORE PUSH12 0x92DCECC2D8D2C840E0C2E8D PUSH1 0xA3 SHL PUSH1 0x44 DUP3 ADD MSTORE PUSH1 0x64 SWAP1 REVERT JUMPDEST PUSH1 0x4 CALLDATALOAD SWAP1 PUSH1 0x1 PUSH1 0x1 PUSH1 0xA0 SHL SUB DUP3 AND DUP3 SUB PUSH2 0x1DD JUMPI JUMP JUMPDEST PUSH1 0x24 CALLDATALOAD SWAP1 PUSH1 0x1 PUSH1 0x1 PUSH1 0xA0 SHL SUB DUP3 AND DUP3 SUB PUSH2 0x1DD JUMPI JUMP JUMPDEST PUSH1 0x40 DUP2 ADD SWAP1 DUP2 LT PUSH8 0xFFFFFFFFFFFFFFFF DUP3 GT OR PUSH2 0x813 JUMPI PUSH1 0x40 MSTORE JUMP JUMPDEST PUSH4 0x4E487B71 PUSH1 0xE0 SHL PUSH1 0x0 MSTORE PUSH1 0x41 PUSH1 0x4 MSTORE PUSH1 0x24 PUSH1 0x0 REVERT JUMPDEST SWAP1 PUSH1 0x1F DUP1 NOT SWAP2 ADD AND DUP2 ADD SWAP1 DUP2 LT PUSH8 0xFFFFFFFFFFFFFFFF DUP3 GT OR PUSH2 0x813 JUMPI PUSH1 0x40 MSTORE JUMP JUMPDEST PUSH8 0xFFFFFFFFFFFFFFFF DUP2 GT PUSH2 0x813 JUMPI PUSH1 0x5 SHL PUSH1 0x20 ADD SWAP1 JUMP JUMPDEST DUP1 MLOAD DUP3 LT ISZERO PUSH2 0x73F JUMPI PUSH1 0x20 SWAP2 PUSH1 0x5 SHL ADD ADD SWAP1 JUMP JUMPDEST SWAP2 SWAP1 DUP2 LT ISZERO PUSH2 0x73F JUMPI PUSH1 0x5 SHL ADD SWAP1 JUMP JUMPDEST CALLDATALOAD PUSH1 0x1 PUSH1 0x1 PUSH1 0xA0 SHL SUB DUP2 AND DUP2 SUB PUSH2 0x1DD JUMPI SWAP1 JUMP JUMPDEST SWAP1 DUP2 PUSH1 0x20 SWAP2 SUB SLT PUSH2 0x1DD JUMPI MLOAD DUP1 ISZERO ISZERO DUP2 SUB PUSH2 0x1DD JUMPI SWAP1 JUMP INVALID LOG2 PUSH5 0x6970667358 0x22 SLT KECCAK256 GASPRICE 0xB1 PUSH9 0xA7665B11B4091D60C1 0xD6 PUSH25 0xC09D68A315B645DC8D8230AA2B52A0243AE364736F6C634300 ADDMOD EQ STOP CALLER "},"methodIdentifiers":{"exchangeRates(address,address)":"503fa44f","getExchangeRate(address,address)":"baaa61be","owner()":"8da5cb5b","setExchangeRate(address,address,uint256,uint256)":"de378f38","swapExactTokensForTokens(uint256,uint256,address[],address,uint256)":"38ed1739"}}}}}