{"Contracts/Lending.sol":{"LendingPool":{"abi":[{"inputs":[{"internalType":"address","name":"usdc","type":"address"},{"internalType":"address","name":"_cbBtcToken","type":"address"},{"internalType":"address","name":"oracleAddress","type":"address"},{"internalType":"address","name":"_aavePool","type":"address"},{"internalType":"address","name":"_swapRouter","type":"address"}],"stateMutability":"nonpayable","type":"constructor"},{"anonymous":false,"inputs":[{"indexed":false,"internalType":"bytes32","name":"loanId","type":"bytes32"},{"indexed":false,"internalType":"uint256","name":"requested","type":"uint256"},{"indexed":false,"internalType":"uint256","name":"actualWithdrawn","type":"uint256"},{"indexed":false,"internalType":"uint256","name":"preBalance","type":"uint256"},{"indexed":false,"internalType":"uint256","name":"postBalance","type":"uint256"}],"name":"DebugUnstake","type":"event"},{"anonymous":false,"inputs":[{"indexed":false,"internalType":"bytes32","name":"loanId","type":"bytes32"},{"indexed":false,"internalType":"uint256","name":"principalRepaid","type":"uint256"},{"indexed":false,"internalType":"uint256","name":"proportionRepaid","type":"uint256"},{"indexed":false,"internalType":"uint256","name":"cbBtcToUnstake","type":"uint256"}],"name":"DebugUnstakeProportion","type":"event"},{"anonymous":false,"inputs":[{"indexed":false,"internalType":"bytes32","name":"loanId","type":"bytes32"},{"indexed":false,"internalType":"uint256","name":"index","type":"uint256"}],"name":"InstallmentPaid","type":"event"},{"anonymous":false,"inputs":[{"indexed":false,"internalType":"bytes32","name":"id","type":"bytes32"},{"indexed":false,"internalType":"uint256","name":"amount","type":"uint256"},{"indexed":false,"internalType":"uint256","name":"collateral","type":"uint256"},{"indexed":false,"internalType":"address","name":"borrower","type":"address"}],"name":"LoanCreated","type":"event"},{"anonymous":false,"inputs":[{"indexed":false,"internalType":"bytes32","name":"id","type":"bytes32"},{"indexed":false,"internalType":"address","name":"borrower","type":"address"},{"indexed":false,"internalType":"uint256","name":"btcPriceNow","type":"uint256"}],"name":"LoanLiquidated","type":"event"},{"anonymous":false,"inputs":[{"indexed":false,"internalType":"bytes32","name":"loanId","type":"bytes32"},{"indexed":false,"internalType":"address","name":"borrower","type":"address"},{"indexed":false,"internalType":"uint256","name":"amount","type":"uint256"},{"indexed":false,"internalType":"bool","name":"fullyRepaid","type":"bool"}],"name":"Payout","type":"event"},{"anonymous":false,"inputs":[{"indexed":false,"internalType":"bytes32","name":"loanId","type":"bytes32"},{"indexed":false,"internalType":"uint256","name":"usdcAmount","type":"uint256"},{"indexed":false,"internalType":"uint256","name":"cbBtcAmount","type":"uint256"}],"name":"TokensStaked","type":"event"},{"anonymous":false,"inputs":[{"indexed":false,"internalType":"bytes32","name":"loanId","type":"bytes32"},{"indexed":false,"internalType":"uint256","name":"cbBtcAmount","type":"uint256"},{"indexed":false,"internalType":"uint256","name":"usdcAmount","type":"uint256"},{"indexed":false,"internalType":"uint256","name":"borrowerCbBtcShare","type":"uint256"}],"name":"TokensUnstaked","type":"event"},{"inputs":[],"name":"aavePool","outputs":[{"internalType":"contract IAavePool","name":"","type":"address"}],"stateMutability":"view","type":"function"},{"inputs":[],"name":"accumulatedFees","outputs":[{"internalType":"uint256","name":"","type":"uint256"}],"stateMutability":"view","type":"function"},{"inputs":[],"name":"cbBtcToken","outputs":[{"internalType":"address","name":"","type":"address"}],"stateMutability":"view","type":"function"},{"inputs":[],"name":"chainlinkOracle","outputs":[{"internalType":"contract AggregatorV3Interface","name":"","type":"address"}],"stateMutability":"view","type":"function"},{"inputs":[{"internalType":"bytes32","name":"loanId","type":"bytes32"},{"internalType":"uint256","name":"principalRepaid","type":"uint256"}],"name":"debugUnstakeCalc","outputs":[{"internalType":"uint256","name":"proportionRepaid","type":"uint256"},{"internalType":"uint256","name":"cbBtcToUnstake","type":"uint256"}],"stateMutability":"view","type":"function"},{"inputs":[],"name":"earlyClosureFeeBps","outputs":[{"internalType":"uint256","name":"","type":"uint256"}],"stateMutability":"view","type":"function"},{"inputs":[{"internalType":"bytes32","name":"loanId","type":"bytes32"}],"name":"getAmortizationSchedule","outputs":[{"internalType":"uint256[]","name":"principals","type":"uint256[]"},{"internalType":"uint256[]","name":"interests","type":"uint256[]"},{"internalType":"bool[]","name":"paidStatuses","type":"bool[]"}],"stateMutability":"view","type":"function"},{"inputs":[{"internalType":"bytes32","name":"loanId","type":"bytes32"}],"name":"getContributions","outputs":[{"internalType":"address[]","name":"lenders","type":"address[]"},{"internalType":"uint256[]","name":"amounts","type":"uint256[]"},{"internalType":"uint256[]","name":"receivableInterests","type":"uint256[]"},{"internalType":"uint256[]","name":"repaidPrincipals","type":"uint256[]"},{"internalType":"uint256[]","name":"repaidInterests","type":"uint256[]"}],"stateMutability":"view","type":"function"},{"inputs":[{"internalType":"bytes32","name":"loanId","type":"bytes32"}],"name":"getInstallmentSchedule","outputs":[{"components":[{"internalType":"uint256","name":"duePrincipal","type":"uint256"},{"internalType":"uint256","name":"dueInterest","type":"uint256"},{"internalType":"bool","name":"paid","type":"bool"},{"internalType":"uint256","name":"dueTimestamp","type":"uint256"}],"internalType":"struct LendingPool.Installment[]","name":"","type":"tuple[]"}],"stateMutability":"view","type":"function"},{"inputs":[],"name":"getPrice","outputs":[{"internalType":"int256","name":"","type":"int256"}],"stateMutability":"view","type":"function"},{"inputs":[{"internalType":"bytes32","name":"loanId","type":"bytes32"}],"name":"getStakedAmount","outputs":[{"internalType":"uint256","name":"","type":"uint256"}],"stateMutability":"view","type":"function"},{"inputs":[{"internalType":"address","name":"","type":"address"}],"name":"hasActiveLoan","outputs":[{"internalType":"bool","name":"","type":"bool"}],"stateMutability":"view","type":"function"},{"inputs":[{"internalType":"address","name":"","type":"address"}],"name":"lenders","outputs":[{"internalType":"uint256","name":"totalContributed","type":"uint256"}],"stateMutability":"view","type":"function"},{"inputs":[{"internalType":"bytes32","name":"loanId","type":"bytes32"}],"name":"liquidate","outputs":[],"stateMutability":"nonpayable","type":"function"},{"inputs":[{"internalType":"bytes32","name":"loanId","type":"bytes32"}],"name":"liquidateIfOverdue","outputs":[],"stateMutability":"nonpayable","type":"function"},{"inputs":[{"internalType":"uint256","name":"totalAmount","type":"uint256"},{"internalType":"uint256","name":"durationMonths","type":"uint256"},{"internalType":"uint256","name":"annualInterestRate","type":"uint256"},{"internalType":"address[]","name":"lenderAddresses","type":"address[]"},{"internalType":"uint256[]","name":"lenderAmounts","type":"uint256[]"}],"name":"loan","outputs":[],"stateMutability":"nonpayable","type":"function"},{"inputs":[{"internalType":"uint256","name":"","type":"uint256"}],"name":"loanIds","outputs":[{"internalType":"bytes32","name":"","type":"bytes32"}],"stateMutability":"view","type":"function"},{"inputs":[{"internalType":"bytes32","name":"","type":"bytes32"}],"name":"loans","outputs":[{"internalType":"bytes32","name":"id","type":"bytes32"},{"internalType":"address","name":"borrower","type":"address"},{"internalType":"uint256","name":"principal","type":"uint256"},{"internalType":"uint256","name":"borrowerDeposit","type":"uint256"},{"internalType":"uint256","name":"interestRate","type":"uint256"},{"internalType":"uint256","name":"duration","type":"uint256"},{"internalType":"uint256","name":"monthlyPayment","type":"uint256"},{"internalType":"uint256","name":"startTime","type":"uint256"},{"internalType":"uint256","name":"btcPriceAtCreation","type":"uint256"},{"internalType":"bool","name":"isActive","type":"bool"},{"internalType":"uint256","name":"totalAmount","type":"uint256"},{"internalType":"uint256","name":"stakedAmount","type":"uint256"},{"internalType":"uint256","name":"remainingPrincipal","type":"uint256"}],"stateMutability":"view","type":"function"},{"inputs":[{"internalType":"bytes32","name":"loanId","type":"bytes32"},{"internalType":"uint256","name":"index","type":"uint256"}],"name":"markInstallmentPaid","outputs":[],"stateMutability":"nonpayable","type":"function"},{"inputs":[],"name":"missedPaymentFeeBps","outputs":[{"internalType":"uint256","name":"","type":"uint256"}],"stateMutability":"view","type":"function"},{"inputs":[],"name":"originationFeeBps","outputs":[{"internalType":"uint256","name":"","type":"uint256"}],"stateMutability":"view","type":"function"},{"inputs":[],"name":"owner","outputs":[{"internalType":"address","name":"","type":"address"}],"stateMutability":"view","type":"function"},{"inputs":[{"internalType":"bytes32","name":"loanId","type":"bytes32"},{"internalType":"uint256","name":"usdcAmount","type":"uint256"}],"name":"payouts","outputs":[],"stateMutability":"nonpayable","type":"function"},{"inputs":[{"internalType":"address","name":"_aavePool","type":"address"}],"name":"setAavePool","outputs":[],"stateMutability":"nonpayable","type":"function"},{"inputs":[{"internalType":"address","name":"_cbBtcToken","type":"address"}],"name":"setCbBtcToken","outputs":[],"stateMutability":"nonpayable","type":"function"},{"inputs":[{"internalType":"address","name":"oracleAddress","type":"address"}],"name":"setChainlinkOracle","outputs":[],"stateMutability":"nonpayable","type":"function"},{"inputs":[{"internalType":"uint256","name":"bps","type":"uint256"}],"name":"setEarlyClosureFee","outputs":[],"stateMutability":"nonpayable","type":"function"},{"inputs":[{"internalType":"uint256","name":"bps","type":"uint256"}],"name":"setMissedPaymentFee","outputs":[],"stateMutability":"nonpayable","type":"function"},{"inputs":[{"internalType":"uint256","name":"bps","type":"uint256"}],"name":"setOriginationFee","outputs":[],"stateMutability":"nonpayable","type":"function"},{"inputs":[{"internalType":"address","name":"_swapRouter","type":"address"}],"name":"setSwapRouter","outputs":[],"stateMutability":"nonpayable","type":"function"},{"inputs":[],"name":"swapRouter","outputs":[{"internalType":"contract ISwapRouter","name":"","type":"address"}],"stateMutability":"view","type":"function"},{"inputs":[],"name":"usdcToken","outputs":[{"internalType":"address","name":"","type":"address"}],"stateMutability":"view","type":"function"},{"inputs":[{"internalType":"address","name":"to","type":"address"}],"name":"withdrawAccumulatedFees","outputs":[],"stateMutability":"nonpayable","type":"function"}],"evm":{"bytecode":{"linkReferences":{},"object":"608034620000fb57601f6200354438819003918201601f19168301916001600160401b03831184841017620001005780849260a094604052833981010312620000fb576200004d8162000116565b906200005c6020820162000116565b906200006b6040820162000116565b91620000886080620000806060850162000116565b930162000116565b9160018060a01b0319943386600854161760085560018060a01b039485809481809416896009541617600955168760025416176002551685600354161760035516836000541617600055169060015416176001556000600a556000600b556000600c5560405161341890816200012c8239f35b600080fd5b634e487b7160e01b600052604160045260246000fd5b51906001600160a01b0382168203620000fb5756fe608080604052600436101561001357600080fd5b600090813560e01c9081630662bcc4146124b6575080630a71096e146121e25780630e462386146121b957806311eac855146121905780631fc8f4df1461205f57806321d4f8db1461201d57806328830d4714611cf957806328fd10d714611cbc57806331739bb714611c9e578063337a173714611c71578063349f937c14611c285780634127365714611bdb5780635206d2d014611bb5578063587f5ed714611b9757806363eed60314611b7957806366fb6e5a14610e065780636c1945ae14610d055780637a9b041214610cb85780637f2006a014610c7a57806380f2122c1461077c57806383cd8fcf1461072f57806386a2e274146105fd5780638da5cb5b146105d457806398d5fdca146105b1578063a03e4bc31461058a578063b2f004521461054c578063c1f106631461044e578063c31c9c0714610425578063c4a9081514610367578063c9642d2a1461022e578063dcfc8ebf146101f0578063ef06e72c146101c75763f8715a421461018c57600080fd5b346101c45760203660031901126101c457600435906007548210156101c45760206101b68361258f565b90546040519160031b1c8152f35b80fd5b50346101c457806003193601126101c4576003546040516001600160a01b039091168152602090f35b50346101c45760203660031901126101c45760043561021a60018060a01b036008541633146129a3565b6102286127108211156133a7565b600b5580f35b50346101c45761023d36612506565b9061025360018060a01b036008541633146129a3565b8083526005602052600c6040842061027160ff6009830154166129f9565b019081548310156103225760ff600261028a8585612987565b500154166102dd578260026102c27f3d05ac2057427ac2f84502e7efefebf5ae10d9529129c2979ce60fb97d46061495604095612987565b5001805460ff1916600117905582519182526020820152a180f35b60405162461bcd60e51b815260206004820152601f60248201527f496e7374616c6c6d656e7420616c7265616479206d61726b65642070616964006044820152606490fd5b60405162461bcd60e51b815260206004820152601960248201527f496e76616c696420696e7374616c6c6d656e7420696e646578000000000000006044820152606490fd5b50346101c45760203660031901126101c45760406101a091600435815260056020522080549060018060a01b03600182015416906002810154600382015460048301546005840154600685015460078601549160088701549360ff60098901541695600a89015497600e600d8b01549a01549a6040519c8d5260208d015260408c015260608b015260808a015260a089015260c088015260e08701526101008601521515610120850152610140840152610160830152610180820152f35b50346101c457806003193601126101c4576001546040516001600160a01b039091168152602090f35b50346101c45760203660031901126101c4576004356001600160a01b03808216820361054857610483816008541633146129a3565b600d54801561050d57600d84905560095460405163a9059cbb60e01b81526001600160a01b039490941660048501526024840191909152602091839160449183918791165af18015610502576104d7575080f35b6104f79060203d81116104fb575b6104ef818361262a565b810190612745565b5080f35b503d6104e5565b6040513d84823e3d90fd5b60405162461bcd60e51b81526020600482015260136024820152724e6f206665657320746f20776974686472617760681b6044820152606490fd5b8280fd5b50346101c45760203660031901126101c45760043561057660018060a01b036008541633146129a3565b6105846127108211156133a7565b600c5580f35b50346101c457806003193601126101c457546040516001600160a01b039091168152602090f35b50346101c457806003193601126101c45760206105cc612698565b604051908152f35b50346101c457806003193601126101c4576008546040516001600160a01b039091168152602090f35b50346101c45760203660031901126101c45760043581526005602052600b60408220019081549061062d82612782565b9161063781612782565b61064082612782565b9061064a83612782565b9261065481612782565b945b8181106106c157610685876106bd886106af896106a18a6106938b604051998a9960a08b5260a08b0190612552565b9089820360208b01526124d2565b9087820360408901526124d2565b9085820360608701526124d2565b9083820360808501526124d2565b0390f35b8060046106d161072a938b6128c4565b5080546001600160a01b03166106e7848c6127d1565b5260018101546106f784886127d1565b52600281015461070784896127d1565b526003810154610717848a6127d1565b52015461072482896127d1565b526128a5565b610656565b50346101c45760203660031901126101c4576004356001600160a01b038181169182900361054857610766906008541633146129a3565b6001600160601b0360a01b600254161760025580f35b50346101c45761078b36612506565b90808352600560205260408320906107a960ff6009840154166129f9565b60018201546001600160a01b03163303610c35576009546040516323b872dd60e01b815233600482015230602482015260448101859052906020908290606490829089906001600160a01b03165af18015610c2a57610c0b575b50829084855b600c850154811080610c02575b15610a715761082881600c8701612987565b5080548015610a2c5760ff600283015416610a215760018201549061084d828261275d565b80881015610868575b50505050610863906128a5565b610809565b9061087d610883928298959b949a9799612898565b9761275d565b906002850154968a5b600b8701548110156109ca576108a581600b89016128c4565b50600181015480670de0b6b3a7640000810204670de0b6b3a764000014811517156109b6578d61096d93928d61093d670de0b6b3a76400008f8f826108fb6108f4610902948360209c02612725565b80936126fc565b04946126fc565b046003840161091284825461275d565b90556004840161092382825461275d565b905560095493546001600160a01b0394851694169261275d565b60405163a9059cbb60e01b81526001600160a01b0390921660048301526024820152948592839182906044820190565b03925af19182156109ab576109879261098c575b506128a5565b61088c565b6109a49060203d6020116104fb576104ef818361262a565b5038610981565b6040513d8f823e3d90fd5b634e487b7160e01b8e52601160045260248efd5b5096509790939650610863929194506002600160ff198284015416179101557f3d05ac2057427ac2f84502e7efefebf5ae10d9529129c2979ce60fb97d46061460408051868152836020820152a190388080610856565b5050610863906128a5565b60405162461bcd60e51b815260206004820152601860248201527f496e7374616c6c6d656e7420616c7265616479207061696400000000000000006044820152606490fd5b5091610aab817fdc376abd09229a842ac7d8bcadc9017651f1f1b8490750870cae0ecd4aedf6749596610aa660809686612a3a565b612898565b6040519283523360208401526040830152156060820152a160018283600c840154905b818110610b94575b505081610b8a575b50610ae7575080f35b610afb6002612710920154600b54906126fc565b0480610b05575080f35b6009546040516323b872dd60e01b81523360048201523060248201526044810183905291906020908390606490829087906001600160a01b03165af1918215610b7f57610b5a92610b60575b50600d5461275d565b600d5580f35b610b789060203d6020116104fb576104ef818361262a565b5038610b51565b6040513d85823e3d90fd5b9050421038610ade565b60ff6002610ba583600c8901612987565b5001541615610bf557610bbb81600c8701612987565b508360038092015411610bd8575b50610bd3906128a5565b610ace565b819350610beb610bd392600c8801612987565b5001549290610bc9565b5050905082903880610ad6565b50831515610816565b610c239060203d6020116104fb576104ef818361262a565b5038610803565b6040513d87823e3d90fd5b60405162461bcd60e51b815260206004820152601760248201527f4f6e6c7920626f72726f7765722063616e2072657061790000000000000000006044820152606490fd5b50346101c45760203660031901126101c457600435610ca460018060a01b036008541633146129a3565b610cb26127108211156133a7565b600a5580f35b50346101c45760203660031901126101c4576004356001600160a01b038181169182900361054857610cef906008541633146129a3565b6001600160601b0360a01b600354161760035580f35b50346101c457602090816003193601126101c45790600435825260058152600c60408320018054610d358161276a565b90610d43604051928361262a565b8082528382018093865284862086915b838310610db757505050506040519280840191818552518092526040840192945b828110610d815784840385f35b85518051855280830151858401526040808201511515908601526060908101519085015294810194608090930192600101610d74565b60048760019260409a9997989a51610dce816125dc565b85548152848601548382015260ff60028701541615156040820152600386015460608201528152019201920191909694939596610d53565b50346101c45760a03660031901126101c45760643567ffffffffffffffff8111611b7557610e38903690600401612521565b9060843567ffffffffffffffff8111611b7157610e59903690600401612521565b9260043515611b3b5760243515611b0357338552600660205260ff604086205416611ab257838103611a58578015611a1d57612710610e9c600a546004356126fc565b04806119b5575b5060146004350291600435830460140361148a57610ec660648404600435612898565b6009546040516323b872dd60e01b8152336004820152306024820152606480870460448301529296929091602091839182908c906001600160a01b03165af180156119aa5761198b575b509084929160405160208101903360601b825242603482015260348152610f368161260e565b519020968789526005602052606460408a209689885560018801336001600160601b0360a01b825416179055600435600a89015586600289015504600387015560443560048701556024356005870155426007870155610f94612698565b600887015560098601805460ff19166001179055600e86018590558893845b81811061174a575050505050036116f457670de0b6b3a764000060443502906044358204670de0b6b3a7640000146044351517156116e057610ff96104b08304846126fc565b6104b08304670de0b6b3a764000001670de0b6b3a76400001161148a576104b08304670de0b6b3a764000001156116cc5761104e6024356104b08504670de0b6b3a764000001670de0b6b3a7640000046128e0565b670de0b6b3a76400000390670de0b6b3a764000082116114765760069161107491612725565b91015582845260056020526040842091670de0b6b3a764000081865b60243581106116a25750816110ad6110b2926104b08704906126fc565b6126fc565b9080670de0b6b3a763ffff1981011161147657670de0b6b3a7640000916110e491670de0b6b3a763ffff190190612725565b0480600685015585915b602435831061153a578686600754600160401b81101561152657806001611118920160075561258f565b815460001960039290921b91821b19169083901b179055338252600660209081526040808420805460ff1916600190811790915583855260058352818520600a8101546009549254935163095ea7b360e01b81526001600160a01b039485166004820152602481018290529194909391929091839160449183918a91165af18015610c2a57611507575b506040516111af8161260e565b6002815260403660208301376009546001600160a01b03166111d0826127b4565b526002546001600160a01b03166111e6826127c1565b52600354604051633fabe5a360e21b81529060a090829060049082906001600160a01b03165afa90811561141f5786916114d3575b508581131561149e576305f5e100808402908482041484151715611476579061124391612725565b8060628102046062148115171561148a576001546001600160a01b0316914261012c81011061147657916112a19391878094604051968795869485936338ed173960e01b855261012c4201926064606230940204906004870161285f565b03925af1801561146b576112bc918591611449575b506127c1565b518284526005602090815260408086206002548754925163095ea7b360e01b81526001600160a01b0393841660048201526024810186905291939192839160449183918b91165af1801561141f5761142a575b50845460025486916001600160a01b039182169116803b156105485760848392604051948593849263617ba03760e01b845260048401528860248401523060448401528160648401525af1801561141f576113ee575b506080927faeec09af87559b9077da2e499d1fad2e228d7c24cb4b566fe61976820abaadda6060846002857f65410888fb30edd04f6acfb2f6cfd92aaf0ebb9b5303b6286d65d0b031b5b7f79997600d60039801550154906040519187835260208301526040820152a1015460405191825260043560208301526040820152336060820152a180f35b67ffffffffffffffff819692961161140b57604052936080611365565b634e487b7160e01b82526041600452602482fd5b6040513d88823e3d90fd5b6114429060203d6020116104fb576104ef818361262a565b508561130f565b61146591503d8087833e61145d818361262a565b8101906127e5565b856112b6565b6040513d86823e3d90fd5b634e487b7160e01b87526011600452602487fd5b634e487b7160e01b86526011600452602486fd5b60405162461bcd60e51b815260206004820152600d60248201526c496e76616c696420707269636560981b6044820152606490fd5b6114f5915060a03d60a011611500575b6114ed818361262a565b810190612663565b50505090508661121b565b503d6114e3565b61151f9060203d6020116104fb576104ef818361262a565b50846111a2565b634e487b7160e01b83526041600452602483fd5b670de0b6b3a76400006115516104b08604836126fc565b04908183111561169c576115658284612898565b9160243560001981011161168857602435600019018514611673575b62278d00858181020481148615171561165f576115a09086024261275d565b604051916115ad836125dc565b84835260208301528960408301526060820152600c870154600160401b81101561164b578060016115e79201600c8a0155600c8901612987565b91909161163757916116319391600360608561162b9651845560208101516001850155600284016040820151151560ff801983541691161790550151910155612898565b926128a5565b916110ee565b634e487b7160e01b8a5260048a905260248afd5b634e487b7160e01b8a52604160045260248afd5b634e487b7160e01b8a52601160045260248afd5b9250905080611682838261275d565b92611581565b634e487b7160e01b89526011600452602489fd5b87611565565b91670de0b6b3a76400006116c06116c7926104b088048301906126fc565b04926128a5565b611090565b634e487b7160e01b86526012600452602486fd5b634e487b7160e01b85526011600452602485fd5b60405162461bcd60e51b815260206004820152602860248201527f436f6c6c656374656420616d6f756e7420646f65736e2774206d6174636820706044820152671c9a5b98da5c185b60c21b6064820152608490fd5b9091929394955061175c8183866128b4565b356001600160a01b0381168103611987576117788285886128b4565b3596871561194a578b9060206117ce60018060a01b03600954168b6040519586809481936323b872dd60e01b8352308b6004850160409194939294606082019560018060a01b0380921683521660208201520152565b03925af19081156109ab576117ea928a9261192b575b5061275d565b9660018060a01b0382168c52600460205260408c2061180a82825461275d565b90556104b06118216024356110ad604435856126fc565b0490604051928360a081011067ffffffffffffffff60a0860111176119175760a0840160405260018060a01b03168352602083015260408201528a60608201528a6080820152600b880154600160401b8110156119035780600161188e9201600b8b0155600b8a016128c4565b9190916118ef57805182546001600160a01b0319166001600160a01b0391909116178255602081015160018301556040810151600283015560608101516003830155608001516004909101556118e3906128a5565b90879594939291610fb3565b634e487b7160e01b8c5260048c905260248cfd5b634e487b7160e01b8c52604160045260248cfd5b634e487b7160e01b8e52604160045260248efd5b6119439060203d6020116104fb576104ef818361262a565b50386117e4565b60405162461bcd60e51b8152602060048201526015602482015274125b9d985b1a59081b195b99195c88185b5bdd5b9d605a1b6044820152606490fd5b8a80fd5b6119a39060203d6020116104fb576104ef818361262a565b5038610f10565b6040513d8a823e3d90fd5b6009546040516323b872dd60e01b8152336004820152306024820152604481018390529190602090839060649082908b906001600160a01b03165af1918215611a1257611a0992610b605750600d5461275d565b600d5538610ea3565b6040513d89823e3d90fd5b60405162461bcd60e51b8152602060048201526013602482015272139bc81b195b99195c9cc81c1c9bdd9a591959606a1b6044820152606490fd5b60405162461bcd60e51b815260206004820152602c60248201527f4c656e6465722061646472657373657320616e6420616d6f756e7473206c656e60448201526b0cee8d040dad2e6dac2e8c6d60a31b6064820152608490fd5b60405162461bcd60e51b815260206004820152602360248201527f426f72726f77657220616c72656164792068617320616e20616374697665206c60448201526237b0b760e91b6064820152608490fd5b60405162461bcd60e51b815260206004820152601060248201526f24b73b30b634b210323ab930ba34b7b760811b6044820152606490fd5b60405162461bcd60e51b815260206004820152600e60248201526d125b9d985b1a5908185b5bdd5b9d60921b6044820152606490fd5b8380fd5b5080fd5b50346101c457806003193601126101c4576020600c54604051908152f35b50346101c457806003193601126101c4576020600d54604051908152f35b50346101c4576040611bcf611bc936612506565b90613334565b82519182526020820152f35b50346101c45760203660031901126101c4576004356001600160a01b038181169182900361054857611c12906008541633146129a3565b6001600160601b0360a01b600154161760015580f35b50346101c45760203660031901126101c4576004356001600160a01b038181169182900361054857611c5f906008541633146129a3565b81546001600160a01b03191617815580f35b50346101c45760203660031901126101c457600d6040602092600435815260058452200154604051908152f35b50346101c457806003193601126101c4576020600a54604051908152f35b50346101c45760203660031901126101c4576004356001600160a01b03811690819003611b75578160409160209352600483522054604051908152f35b50346101c457602080600319360112611b755760043560018060a01b03611d25816008541633146129a3565b8184526005835260408420926009908185019160ff611d46818554166129f9565b87908890600c89018054925b838110611fcd57505050506276a7001015611f7357600e8601612710611d7c8254600b54906126fc565b0480611f51575b5060ff199384815416905560019081880194868654168a526006855260408a20908154169055600d88015480611f41575b506003908189015490549182611e26575b8a7fcab88a55906c5830a49dddd8b31d115294a5e6c4210f25fe140530a39c51dc748a8a8a541690611e20611df8612698565b604080519384526001600160a01b039094166020840152928201929092529081906060820190565b0390a180f35b9091928099600b8c9101915b611e3d575b50611dc5565b8154811015611f3c57611e5081836128c4565b50611e628c8201548583015490612898565b8c8115611f2b5750670de0b6b3a7640000908181029081048203611f17578796959493928f9192611ea0611e9a611edc9b8e96612725565b896126fc565b04918d808c541692541690604051809b8195829463a9059cbb60e01b84526004840160209093929193604081019460018060a01b031681520152565b03925af19081156109ab578c96611ef792611f0157506128a5565b9091929394611e32565b6109a4908a3d8c116104fb576104ef818361262a565b634e487b7160e01b8f52601160045260248ffd5b96959493929050611ef791506128a5565b611e37565b611f4b9088612eb2565b38611db4565b80611f61611f6b92600d5461275d565b600d558254612898565b815538611d83565b60405162461bcd60e51b815260048101839052602c60248201527f4c6f616e206973206e6f74206f766572647565206265796f6e642033206d6f6e60448201526b1d1a1cc81a5b881d1bdd185b60a21b6064820152608490fd5b611fd78183612987565b5083600282015416611fef5760030154804211611ffe575b50611ff9906128a5565b611d52565b611ff991956120106120169242612898565b9061275d565b9490611fef565b50346101c45760203660031901126101c4576004356001600160a01b03811690819003611b755760408260ff9260209452600684522054166040519015158152f35b50346101c457602080600319360112611b755790600435815260058252600c604082200180549161208f83612782565b9261209981612782565b6120a28261276a565b916120b0604051938461262a565b8083526120bc8161276a565b8388019590601f1901368737845b8281106121385750505094806120fe6120f19760405198899860608a5260608a01906124d2565b90888203848a01526124d2565b92868403604088015251928381520193925b82811061211f57505050500390f35b8351151585528695509381019392810192600101612110565b8060ff600261215061218594869d9a999b9c9d612987565b50805461215d858f6127d1565b52600181015461216d858a6127d1565b5201541661217b828a6127d1565b90151590526128a5565b9796959394976120ca565b50346101c457806003193601126101c4576009546040516001600160a01b039091168152602090f35b50346101c457806003193601126101c4576002546040516001600160a01b039091168152602090f35b50346101c45760203660031901126101c45761220960018060a01b036008541633146129a3565b60043581526005602052604081206009810180549161222a60ff84166129f9565b612232612698565b91600d82016305f5e1006122478583546126fc565b0491600e84019283546069810290808204606914901517156116885760649004106124535760ff1995861690556001830180546001600160a01b0316875260066020526040872080549096169095558154600c54612710916122a991906126fc565b0480612431575b50548061241f575b50600382015490549182612317575b505091546040805160043581526001600160a01b0390921660208301528101919091527fcab88a55906c5830a49dddd8b31d115294a5e6c4210f25fe140530a39c51dc7491508060608101611e20565b909192855b600b8301548110156123f25761233581600b85016128c4565b506123496001820154600383015490612898565b80156123e75780670de0b6b3a7640000810204670de0b6b3a764000003611688576123c99291670de0b6b3a7640000612389611e9a8a8360209602612725565b600954925460405163a9059cbb60e01b81526001600160a01b039182166004820152929091046024830152909485929091169082908c9082906044820190565b03925af19182156119aa576123e29261098c57506128a5565b61231c565b50506123e2906128a5565b50925050507fcab88a55906c5830a49dddd8b31d115294a5e6c4210f25fe140530a39c51dc7438806122c7565b61242b90600435612eb2565b386122b8565b8061244161244b92600d5461275d565b600d558354612898565b8255386122b0565b60405162461bcd60e51b815260206004820152603560248201527f4254432076616c756520686173206e6f742064726f707065642062656c6f77206044820152741b1a5c5d5a59185d1a5bdb881d1a1c995cda1bdb19605a1b6064820152608490fd5b905034611b755781600319360112611b7557602090600b548152f35b90815180825260208080930193019160005b8281106124f2575050505090565b8351855293810193928101926001016124e4565b604090600319011261251c576004359060243590565b600080fd5b9181601f8401121561251c5782359167ffffffffffffffff831161251c576020808501948460051b01011161251c57565b90815180825260208080930193019160005b828110612572575050505090565b83516001600160a01b031685529381019392810192600101612564565b6007548110156125c65760076000527fa66cc928b5edb82af9bd49922954155ab7b0942694bea4ce44661d9a8736c6880190600090565b634e487b7160e01b600052603260045260246000fd5b6080810190811067ffffffffffffffff8211176125f857604052565b634e487b7160e01b600052604160045260246000fd5b6060810190811067ffffffffffffffff8211176125f857604052565b90601f8019910116810190811067ffffffffffffffff8211176125f857604052565b519069ffffffffffffffffffff8216820361251c57565b908160a091031261251c576126778161264c565b9160208201519160408101519161269560806060840151930161264c565b90565b600354604051633fabe5a360e21b81529060a090829060049082906001600160a01b03165afa9081156126f0576000916126d0575090565b6126e8915060a03d8111611500576114ed818361262a565b505050905090565b6040513d6000823e3d90fd5b8181029291811591840414171561270f57565b634e487b7160e01b600052601160045260246000fd5b811561272f570490565b634e487b7160e01b600052601260045260246000fd5b9081602091031261251c5751801515810361251c5790565b9190820180921161270f57565b67ffffffffffffffff81116125f85760051b60200190565b9061278c8261276a565b612799604051918261262a565b82815280926127aa601f199161276a565b0190602036910137565b8051156125c65760200190565b8051600110156125c65760400190565b80518210156125c65760209160051b010190565b602090818184031261251c5780519067ffffffffffffffff821161251c57019180601f8401121561251c57825161281b8161276a565b93612829604051958661262a565b818552838086019260051b82010192831161251c578301905b828210612850575050505090565b81518152908301908301612842565b919260809361288492979695978452602084015260a0604084015260a0830190612552565b6001600160a01b0390951660608201520152565b9190820391821161270f57565b600019811461270f5760010190565b91908110156125c65760051b0190565b80548210156125c6576000526005602060002091020190600090565b908015612980578115612979578180600114612971576002146129605760208110610133831016604e8210600b8410161761295b57600190815b8082116129325750508160001904811161270f570290565b90928060001904811161270f57818416612952575b800292811c9061291a565b80920291612947565b900a90565b905060ff811161270f576001901b90565b505050600190565b5050600090565b5050600190565b80548210156125c65760005260206000209060021b0190600090565b156129aa57565b60405162461bcd60e51b815260206004820152602160248201527f4f6e6c79206f776e65722063616e2063616c6c20746869732066756e6374696f6044820152603760f91b6064820152608490fd5b15612a0057565b60405162461bcd60e51b81526020600482015260126024820152714c6f616e206973206e6f742061637469766560701b6044820152606490fd5b906000918083526020600581526040808520938015808015612ea6575b8015612e9a575b612a9d576305f5e10080830292830414171561148a57612a85600d91600887015490612725565b9401948554808611612e92575b508415918215612aa6575b50505050505050565b8482526005845280822093600d85019384548811612e4057612dfe5760018060a01b03928360025416938351956370a0823160e01b9788885260049230848a0152602492868a85818c5afa998a15612d9657869a612dcf575b50868d6064848954169b898c519d8e948593631a4ca37b60e21b85528c8501528a8401523060448401525af1988915612d96578699612da0575b508682600254169b858a51809e81938252308a8301525afa9a8b15612d9657869b612d63575b50898b1115612d16578815612cd457612bbe92879282612b818c809554612898565b90556001816002541692015416878a5180968195829463a9059cbb60e01b84528b840160209093929193604081019460018060a01b031681520152565b03925af1908115612cca578491612cad575b5015612c6b57505092828860a096937f38a556a122683cb48d496614a7a03605b6c2c0482342924caf483386980ecc9f6080612c5d9c9b987f971c7ec4a7c96c0a198687499279ccf05d9699970007b5ae5017b1177ee02ed39b9851908a8252858583015286820152866060820152a1825196875286015284015260608301526080820152a18254612898565b905538808080808080612a9d565b845162461bcd60e51b8152918201849052601b908201527f5472616e7366657220746f20626f72726f776572206661696c656400000000006044820152606490fd5b612cc49150853d87116104fb576104ef818361262a565b38612bd0565b86513d86823e3d90fd5b875162461bcd60e51b8152808601889052601c818601527f556e7374616b652072657475726e6564207a65726f20746f6b656e73000000006044820152606490fd5b875162461bcd60e51b81528086018890526022818601527f5769746864726177616c206469646e277420696e6372656173652062616c616e604482015261636560f01b6064820152608490fd5b909a508681813d8311612d8f575b612d7b818361262a565b81010312612d8b57519938612b5f565b8580fd5b503d612d71565b88513d88823e3d90fd5b9098508681813d8311612dc8575b612db8818361262a565b81010312612d8b57519738612b39565b503d612dae565b9099508681813d8311612df7575b612de7818361262a565b81010312612d8b57519838612aff565b503d612ddd565b606491519062461bcd60e51b82526004820152601a60248201527f43616e6e6f7420756e7374616b65207a65726f20616d6f756e740000000000006044820152fd5b50608491519062461bcd60e51b82526004820152602660248201527f43616e6e6f7420756e7374616b65206d6f7265207468616e207374616b656420604482015265185b5bdd5b9d60d21b6064820152fd5b945038612a92565b50600d86015415612a5e565b50600886015415612a57565b90600090828252602091600583526040600d8183200192835481116132e157801561329d5760025482516370a0823160e01b808252306004808401919091529097919691926001600160a01b03926024918416858a8481845afa998a1561329357899a613260575b5090858594939260648b97885416918b519c8d938492631a4ca37b60e21b8452898401528c888401523060448401525af1988915613165578599613231575b508584600254169b838a51809e8193825230888301525afa9a8b1561316557859b6131fe575b50898b11156131b157881561316f57612f99898254612898565b9055600254600154885163095ea7b360e01b81529085166001600160a01b0316848201908152602081018b905290918791839187169082908990829060400103925af1801561316557613148575b50865191612ff48361260e565b60028352873687850137836002541661300c846127b4565b52836009541661301b846127c1565b52605f890293898504605f0361313657600154169161012c420190814211613125575090858a613068829695948c51988997889687956338ed173960e01b8752606430940491870161285f565b03925af190811561311b576080836130d27f971c7ec4a7c96c0a198687499279ccf05d9699970007b5ae5017b1177ee02ed39c9a9896947f38a556a122683cb48d496614a7a03605b6c2c0482342924caf483386980ecc9f9460a09d9b99979161310157506127c1565b51908651918b83528686840152878301526060820152a1825196875286015284015260608301526080820152a1565b61311591503d8085833e61145d818361262a565b386112b6565b85513d84823e3d90fd5b634e487b7160e01b87526011835286fd5b50634e487b7160e01b85526011905283fd5b61315e90863d88116104fb576104ef818361262a565b5038612fe7565b88513d87823e3d90fd5b875162461bcd60e51b8152808401879052601c818401527f556e7374616b652072657475726e6564207a65726f20746f6b656e73000000006044820152606490fd5b875162461bcd60e51b81528084018790526022818401527f5769746864726177616c206469646e277420696e6372656173652062616c616e604482015261636560f01b6064820152608490fd5b909a508581813d831161322a575b613216818361262a565b8101031261322657519938612f7f565b8480fd5b503d61320c565b9098508581813d8311613259575b613249818361262a565b8101031261322657519738612f59565b503d61323f565b9099508581813d831161328c575b613278818361262a565b8101031261328857519885612f1a565b8880fd5b503d61326e565b88513d8b823e3d90fd5b815162461bcd60e51b815260048101869052601a60248201527f43616e6e6f7420756e7374616b65207a65726f20616d6f756e740000000000006044820152606490fd5b815162461bcd60e51b815260048101869052602660248201527f43616e6e6f7420756e7374616b65206d6f7265207468616e207374616b656420604482015265185b5bdd5b9d60d21b6064820152608490fd5b60009081526005602052604081206002810154909392811561339e57670de0b6b3a7640000928382029180830485149015171561338a57509361337c61338692600d96612725565b94859101546126fc565b0490565b634e487b7160e01b81526011600452602490fd5b50508092509190565b156133ae57565b60405162461bcd60e51b815260206004820152600c60248201526b08ccaca40e8dede40d0d2ced60a31b6044820152606490fdfea264697066735822122047aa4c40daf8488757d0ea531421f0d1c183321154e92becd32de300f494d29664736f6c63430008140033","opcodes":"PUSH1 0x80 CALLVALUE PUSH3 0xFB JUMPI PUSH1 0x1F PUSH3 0x3544 CODESIZE DUP2 SWAP1 SUB SWAP2 DUP3 ADD PUSH1 0x1F NOT AND DUP4 ADD SWAP2 PUSH1 0x1 PUSH1 0x1 PUSH1 0x40 SHL SUB DUP4 GT DUP5 DUP5 LT OR PUSH3 0x100 JUMPI DUP1 DUP5 SWAP3 PUSH1 0xA0 SWAP5 PUSH1 0x40 MSTORE DUP4 CODECOPY DUP2 ADD SUB SLT PUSH3 0xFB JUMPI PUSH3 0x4D DUP2 PUSH3 0x116 JUMP JUMPDEST SWAP1 PUSH3 0x5C PUSH1 0x20 DUP3 ADD PUSH3 0x116 JUMP JUMPDEST SWAP1 PUSH3 0x6B PUSH1 0x40 DUP3 ADD PUSH3 0x116 JUMP JUMPDEST SWAP2 PUSH3 0x88 PUSH1 0x80 PUSH3 0x80 PUSH1 0x60 DUP6 ADD PUSH3 0x116 JUMP JUMPDEST SWAP4 ADD PUSH3 0x116 JUMP JUMPDEST SWAP2 PUSH1 0x1 DUP1 PUSH1 0xA0 SHL SUB NOT SWAP5 CALLER DUP7 PUSH1 0x8 SLOAD AND OR PUSH1 0x8 SSTORE PUSH1 0x1 DUP1 PUSH1 0xA0 SHL SUB SWAP5 DUP6 DUP1 SWAP5 DUP2 DUP1 SWAP5 AND DUP10 PUSH1 0x9 SLOAD AND OR PUSH1 0x9 SSTORE AND DUP8 PUSH1 0x2 SLOAD AND OR PUSH1 0x2 SSTORE AND DUP6 PUSH1 0x3 SLOAD AND OR PUSH1 0x3 SSTORE AND DUP4 PUSH1 0x0 SLOAD AND OR PUSH1 0x0 SSTORE AND SWAP1 PUSH1 0x1 SLOAD AND OR PUSH1 0x1 SSTORE PUSH1 0x0 PUSH1 0xA SSTORE PUSH1 0x0 PUSH1 0xB SSTORE PUSH1 0x0 PUSH1 0xC SSTORE PUSH1 0x40 MLOAD PUSH2 0x3418 SWAP1 DUP2 PUSH3 0x12C DUP3 CODECOPY RETURN JUMPDEST PUSH1 0x0 DUP1 REVERT JUMPDEST PUSH4 0x4E487B71 PUSH1 0xE0 SHL PUSH1 0x0 MSTORE PUSH1 0x41 PUSH1 0x4 MSTORE PUSH1 0x24 PUSH1 0x0 REVERT JUMPDEST MLOAD SWAP1 PUSH1 0x1 PUSH1 0x1 PUSH1 0xA0 SHL SUB DUP3 AND DUP3 SUB PUSH3 0xFB JUMPI JUMP INVALID PUSH1 0x80 DUP1 PUSH1 0x40 MSTORE PUSH1 0x4 CALLDATASIZE LT ISZERO PUSH2 0x13 JUMPI PUSH1 0x0 DUP1 REVERT JUMPDEST PUSH1 0x0 SWAP1 DUP2 CALLDATALOAD PUSH1 0xE0 SHR SWAP1 DUP2 PUSH4 0x662BCC4 EQ PUSH2 0x24B6 JUMPI POP DUP1 PUSH4 0xA71096E EQ PUSH2 0x21E2 JUMPI DUP1 PUSH4 0xE462386 EQ PUSH2 0x21B9 JUMPI DUP1 PUSH4 0x11EAC855 EQ PUSH2 0x2190 JUMPI DUP1 PUSH4 0x1FC8F4DF EQ PUSH2 0x205F JUMPI DUP1 PUSH4 0x21D4F8DB EQ PUSH2 0x201D JUMPI DUP1 PUSH4 0x28830D47 EQ PUSH2 0x1CF9 JUMPI DUP1 PUSH4 0x28FD10D7 EQ PUSH2 0x1CBC JUMPI DUP1 PUSH4 0x31739BB7 EQ PUSH2 0x1C9E JUMPI DUP1 PUSH4 0x337A1737 EQ PUSH2 0x1C71 JUMPI DUP1 PUSH4 0x349F937C EQ PUSH2 0x1C28 JUMPI DUP1 PUSH4 0x41273657 EQ PUSH2 0x1BDB JUMPI DUP1 PUSH4 0x5206D2D0 EQ PUSH2 0x1BB5 JUMPI DUP1 PUSH4 0x587F5ED7 EQ PUSH2 0x1B97 JUMPI DUP1 PUSH4 0x63EED603 EQ PUSH2 0x1B79 JUMPI DUP1 PUSH4 0x66FB6E5A EQ PUSH2 0xE06 JUMPI DUP1 PUSH4 0x6C1945AE EQ PUSH2 0xD05 JUMPI DUP1 PUSH4 0x7A9B0412 EQ PUSH2 0xCB8 JUMPI DUP1 PUSH4 0x7F2006A0 EQ PUSH2 0xC7A JUMPI DUP1 PUSH4 0x80F2122C EQ PUSH2 0x77C JUMPI DUP1 PUSH4 0x83CD8FCF EQ PUSH2 0x72F JUMPI DUP1 PUSH4 0x86A2E274 EQ PUSH2 0x5FD JUMPI DUP1 PUSH4 0x8DA5CB5B EQ PUSH2 0x5D4 JUMPI DUP1 PUSH4 0x98D5FDCA EQ PUSH2 0x5B1 JUMPI DUP1 PUSH4 0xA03E4BC3 EQ PUSH2 0x58A JUMPI DUP1 PUSH4 0xB2F00452 EQ PUSH2 0x54C JUMPI DUP1 PUSH4 0xC1F10663 EQ PUSH2 0x44E JUMPI DUP1 PUSH4 0xC31C9C07 EQ PUSH2 0x425 JUMPI DUP1 PUSH4 0xC4A90815 EQ PUSH2 0x367 JUMPI DUP1 PUSH4 0xC9642D2A EQ PUSH2 0x22E JUMPI DUP1 PUSH4 0xDCFC8EBF EQ PUSH2 0x1F0 JUMPI DUP1 PUSH4 0xEF06E72C EQ PUSH2 0x1C7 JUMPI PUSH4 0xF8715A42 EQ PUSH2 0x18C JUMPI PUSH1 0x0 DUP1 REVERT JUMPDEST CALLVALUE PUSH2 0x1C4 JUMPI PUSH1 0x20 CALLDATASIZE PUSH1 0x3 NOT ADD SLT PUSH2 0x1C4 JUMPI PUSH1 0x4 CALLDATALOAD SWAP1 PUSH1 0x7 SLOAD DUP3 LT ISZERO PUSH2 0x1C4 JUMPI PUSH1 0x20 PUSH2 0x1B6 DUP4 PUSH2 0x258F JUMP JUMPDEST SWAP1 SLOAD PUSH1 0x40 MLOAD SWAP2 PUSH1 0x3 SHL SHR DUP2 MSTORE RETURN JUMPDEST DUP1 REVERT JUMPDEST POP CALLVALUE PUSH2 0x1C4 JUMPI DUP1 PUSH1 0x3 NOT CALLDATASIZE ADD SLT PUSH2 0x1C4 JUMPI PUSH1 0x3 SLOAD PUSH1 0x40 MLOAD PUSH1 0x1 PUSH1 0x1 PUSH1 0xA0 SHL SUB SWAP1 SWAP2 AND DUP2 MSTORE PUSH1 0x20 SWAP1 RETURN JUMPDEST POP CALLVALUE PUSH2 0x1C4 JUMPI PUSH1 0x20 CALLDATASIZE PUSH1 0x3 NOT ADD SLT PUSH2 0x1C4 JUMPI PUSH1 0x4 CALLDATALOAD PUSH2 0x21A PUSH1 0x1 DUP1 PUSH1 0xA0 SHL SUB PUSH1 0x8 SLOAD AND CALLER EQ PUSH2 0x29A3 JUMP JUMPDEST PUSH2 0x228 PUSH2 0x2710 DUP3 GT ISZERO PUSH2 0x33A7 JUMP JUMPDEST PUSH1 0xB SSTORE DUP1 RETURN JUMPDEST POP CALLVALUE PUSH2 0x1C4 JUMPI PUSH2 0x23D CALLDATASIZE PUSH2 0x2506 JUMP JUMPDEST SWAP1 PUSH2 0x253 PUSH1 0x1 DUP1 PUSH1 0xA0 SHL SUB PUSH1 0x8 SLOAD AND CALLER EQ PUSH2 0x29A3 JUMP JUMPDEST DUP1 DUP4 MSTORE PUSH1 0x5 PUSH1 0x20 MSTORE PUSH1 0xC PUSH1 0x40 DUP5 KECCAK256 PUSH2 0x271 PUSH1 0xFF PUSH1 0x9 DUP4 ADD SLOAD AND PUSH2 0x29F9 JUMP JUMPDEST ADD SWAP1 DUP2 SLOAD DUP4 LT ISZERO PUSH2 0x322 JUMPI PUSH1 0xFF PUSH1 0x2 PUSH2 0x28A DUP6 DUP6 PUSH2 0x2987 JUMP JUMPDEST POP ADD SLOAD AND PUSH2 0x2DD JUMPI DUP3 PUSH1 0x2 PUSH2 0x2C2 PUSH32 0x3D05AC2057427AC2F84502E7EFEFEBF5AE10D9529129C2979CE60FB97D460614 SWAP6 PUSH1 0x40 SWAP6 PUSH2 0x2987 JUMP JUMPDEST POP ADD DUP1 SLOAD PUSH1 0xFF NOT AND PUSH1 0x1 OR SWAP1 SSTORE DUP3 MLOAD SWAP2 DUP3 MSTORE PUSH1 0x20 DUP3 ADD MSTORE LOG1 DUP1 RETURN JUMPDEST PUSH1 0x40 MLOAD PUSH3 0x461BCD PUSH1 0xE5 SHL DUP2 MSTORE PUSH1 0x20 PUSH1 0x4 DUP3 ADD MSTORE PUSH1 0x1F PUSH1 0x24 DUP3 ADD MSTORE PUSH32 0x496E7374616C6C6D656E7420616C7265616479206D61726B6564207061696400 PUSH1 0x44 DUP3 ADD MSTORE PUSH1 0x64 SWAP1 REVERT JUMPDEST PUSH1 0x40 MLOAD PUSH3 0x461BCD PUSH1 0xE5 SHL DUP2 MSTORE PUSH1 0x20 PUSH1 0x4 DUP3 ADD MSTORE PUSH1 0x19 PUSH1 0x24 DUP3 ADD MSTORE PUSH32 0x496E76616C696420696E7374616C6C6D656E7420696E64657800000000000000 PUSH1 0x44 DUP3 ADD MSTORE PUSH1 0x64 SWAP1 REVERT JUMPDEST POP CALLVALUE PUSH2 0x1C4 JUMPI PUSH1 0x20 CALLDATASIZE PUSH1 0x3 NOT ADD SLT PUSH2 0x1C4 JUMPI PUSH1 0x40 PUSH2 0x1A0 SWAP2 PUSH1 0x4 CALLDATALOAD DUP2 MSTORE PUSH1 0x5 PUSH1 0x20 MSTORE KECCAK256 DUP1 SLOAD SWAP1 PUSH1 0x1 DUP1 PUSH1 0xA0 SHL SUB PUSH1 0x1 DUP3 ADD SLOAD AND SWAP1 PUSH1 0x2 DUP2 ADD SLOAD PUSH1 0x3 DUP3 ADD SLOAD PUSH1 0x4 DUP4 ADD SLOAD PUSH1 0x5 DUP5 ADD SLOAD PUSH1 0x6 DUP6 ADD SLOAD PUSH1 0x7 DUP7 ADD SLOAD SWAP2 PUSH1 0x8 DUP8 ADD SLOAD SWAP4 PUSH1 0xFF PUSH1 0x9 DUP10 ADD SLOAD AND SWAP6 PUSH1 0xA DUP10 ADD SLOAD SWAP8 PUSH1 0xE PUSH1 0xD DUP12 ADD SLOAD SWAP11 ADD SLOAD SWAP11 PUSH1 0x40 MLOAD SWAP13 DUP14 MSTORE PUSH1 0x20 DUP14 ADD MSTORE PUSH1 0x40 DUP13 ADD MSTORE PUSH1 0x60 DUP12 ADD MSTORE PUSH1 0x80 DUP11 ADD MSTORE PUSH1 0xA0 DUP10 ADD MSTORE PUSH1 0xC0 DUP9 ADD MSTORE PUSH1 0xE0 DUP8 ADD MSTORE PUSH2 0x100 DUP7 ADD MSTORE ISZERO ISZERO PUSH2 0x120 DUP6 ADD MSTORE PUSH2 0x140 DUP5 ADD MSTORE PUSH2 0x160 DUP4 ADD MSTORE PUSH2 0x180 DUP3 ADD MSTORE RETURN JUMPDEST POP CALLVALUE PUSH2 0x1C4 JUMPI DUP1 PUSH1 0x3 NOT CALLDATASIZE ADD SLT PUSH2 0x1C4 JUMPI PUSH1 0x1 SLOAD PUSH1 0x40 MLOAD PUSH1 0x1 PUSH1 0x1 PUSH1 0xA0 SHL SUB SWAP1 SWAP2 AND DUP2 MSTORE PUSH1 0x20 SWAP1 RETURN JUMPDEST POP CALLVALUE PUSH2 0x1C4 JUMPI PUSH1 0x20 CALLDATASIZE PUSH1 0x3 NOT ADD SLT PUSH2 0x1C4 JUMPI PUSH1 0x4 CALLDATALOAD PUSH1 0x1 PUSH1 0x1 PUSH1 0xA0 SHL SUB DUP1 DUP3 AND DUP3 SUB PUSH2 0x548 JUMPI PUSH2 0x483 DUP2 PUSH1 0x8 SLOAD AND CALLER EQ PUSH2 0x29A3 JUMP JUMPDEST PUSH1 0xD SLOAD DUP1 ISZERO PUSH2 0x50D JUMPI PUSH1 0xD DUP5 SWAP1 SSTORE PUSH1 0x9 SLOAD PUSH1 0x40 MLOAD PUSH4 0xA9059CBB PUSH1 0xE0 SHL DUP2 MSTORE PUSH1 0x1 PUSH1 0x1 PUSH1 0xA0 SHL SUB SWAP5 SWAP1 SWAP5 AND PUSH1 0x4 DUP6 ADD MSTORE PUSH1 0x24 DUP5 ADD SWAP2 SWAP1 SWAP2 MSTORE PUSH1 0x20 SWAP2 DUP4 SWAP2 PUSH1 0x44 SWAP2 DUP4 SWAP2 DUP8 SWAP2 AND GAS CALL DUP1 ISZERO PUSH2 0x502 JUMPI PUSH2 0x4D7 JUMPI POP DUP1 RETURN JUMPDEST PUSH2 0x4F7 SWAP1 PUSH1 0x20 RETURNDATASIZE DUP2 GT PUSH2 0x4FB JUMPI JUMPDEST PUSH2 0x4EF DUP2 DUP4 PUSH2 0x262A JUMP JUMPDEST DUP2 ADD SWAP1 PUSH2 0x2745 JUMP JUMPDEST POP DUP1 RETURN JUMPDEST POP RETURNDATASIZE PUSH2 0x4E5 JUMP JUMPDEST PUSH1 0x40 MLOAD RETURNDATASIZE DUP5 DUP3 RETURNDATACOPY RETURNDATASIZE SWAP1 REVERT JUMPDEST PUSH1 0x40 MLOAD PUSH3 0x461BCD PUSH1 0xE5 SHL DUP2 MSTORE PUSH1 0x20 PUSH1 0x4 DUP3 ADD MSTORE PUSH1 0x13 PUSH1 0x24 DUP3 ADD MSTORE PUSH19 0x4E6F206665657320746F207769746864726177 PUSH1 0x68 SHL PUSH1 0x44 DUP3 ADD MSTORE PUSH1 0x64 SWAP1 REVERT JUMPDEST DUP3 DUP1 REVERT JUMPDEST POP CALLVALUE PUSH2 0x1C4 JUMPI PUSH1 0x20 CALLDATASIZE PUSH1 0x3 NOT ADD SLT PUSH2 0x1C4 JUMPI PUSH1 0x4 CALLDATALOAD PUSH2 0x576 PUSH1 0x1 DUP1 PUSH1 0xA0 SHL SUB PUSH1 0x8 SLOAD AND CALLER EQ PUSH2 0x29A3 JUMP JUMPDEST PUSH2 0x584 PUSH2 0x2710 DUP3 GT ISZERO PUSH2 0x33A7 JUMP JUMPDEST PUSH1 0xC SSTORE DUP1 RETURN JUMPDEST POP CALLVALUE PUSH2 0x1C4 JUMPI DUP1 PUSH1 0x3 NOT CALLDATASIZE ADD SLT PUSH2 0x1C4 JUMPI SLOAD PUSH1 0x40 MLOAD PUSH1 0x1 PUSH1 0x1 PUSH1 0xA0 SHL SUB SWAP1 SWAP2 AND DUP2 MSTORE PUSH1 0x20 SWAP1 RETURN JUMPDEST POP CALLVALUE PUSH2 0x1C4 JUMPI DUP1 PUSH1 0x3 NOT CALLDATASIZE ADD SLT PUSH2 0x1C4 JUMPI PUSH1 0x20 PUSH2 0x5CC PUSH2 0x2698 JUMP JUMPDEST PUSH1 0x40 MLOAD SWAP1 DUP2 MSTORE RETURN JUMPDEST POP CALLVALUE PUSH2 0x1C4 JUMPI DUP1 PUSH1 0x3 NOT CALLDATASIZE ADD SLT PUSH2 0x1C4 JUMPI PUSH1 0x8 SLOAD PUSH1 0x40 MLOAD PUSH1 0x1 PUSH1 0x1 PUSH1 0xA0 SHL SUB SWAP1 SWAP2 AND DUP2 MSTORE PUSH1 0x20 SWAP1 RETURN JUMPDEST POP CALLVALUE PUSH2 0x1C4 JUMPI PUSH1 0x20 CALLDATASIZE PUSH1 0x3 NOT ADD SLT PUSH2 0x1C4 JUMPI PUSH1 0x4 CALLDATALOAD DUP2 MSTORE PUSH1 0x5 PUSH1 0x20 MSTORE PUSH1 0xB PUSH1 0x40 DUP3 KECCAK256 ADD SWAP1 DUP2 SLOAD SWAP1 PUSH2 0x62D DUP3 PUSH2 0x2782 JUMP JUMPDEST SWAP2 PUSH2 0x637 DUP2 PUSH2 0x2782 JUMP JUMPDEST PUSH2 0x640 DUP3 PUSH2 0x2782 JUMP JUMPDEST SWAP1 PUSH2 0x64A DUP4 PUSH2 0x2782 JUMP JUMPDEST SWAP3 PUSH2 0x654 DUP2 PUSH2 0x2782 JUMP JUMPDEST SWAP5 JUMPDEST DUP2 DUP2 LT PUSH2 0x6C1 JUMPI PUSH2 0x685 DUP8 PUSH2 0x6BD DUP9 PUSH2 0x6AF DUP10 PUSH2 0x6A1 DUP11 PUSH2 0x693 DUP12 PUSH1 0x40 MLOAD SWAP10 DUP11 SWAP10 PUSH1 0xA0 DUP12 MSTORE PUSH1 0xA0 DUP12 ADD SWAP1 PUSH2 0x2552 JUMP JUMPDEST SWAP1 DUP10 DUP3 SUB PUSH1 0x20 DUP12 ADD MSTORE PUSH2 0x24D2 JUMP JUMPDEST SWAP1 DUP8 DUP3 SUB PUSH1 0x40 DUP10 ADD MSTORE PUSH2 0x24D2 JUMP JUMPDEST SWAP1 DUP6 DUP3 SUB PUSH1 0x60 DUP8 ADD MSTORE PUSH2 0x24D2 JUMP JUMPDEST SWAP1 DUP4 DUP3 SUB PUSH1 0x80 DUP6 ADD MSTORE PUSH2 0x24D2 JUMP JUMPDEST SUB SWAP1 RETURN JUMPDEST DUP1 PUSH1 0x4 PUSH2 0x6D1 PUSH2 0x72A SWAP4 DUP12 PUSH2 0x28C4 JUMP JUMPDEST POP DUP1 SLOAD PUSH1 0x1 PUSH1 0x1 PUSH1 0xA0 SHL SUB AND PUSH2 0x6E7 DUP5 DUP13 PUSH2 0x27D1 JUMP JUMPDEST MSTORE PUSH1 0x1 DUP2 ADD SLOAD PUSH2 0x6F7 DUP5 DUP9 PUSH2 0x27D1 JUMP JUMPDEST MSTORE PUSH1 0x2 DUP2 ADD SLOAD PUSH2 0x707 DUP5 DUP10 PUSH2 0x27D1 JUMP JUMPDEST MSTORE PUSH1 0x3 DUP2 ADD SLOAD PUSH2 0x717 DUP5 DUP11 PUSH2 0x27D1 JUMP JUMPDEST MSTORE ADD SLOAD PUSH2 0x724 DUP3 DUP10 PUSH2 0x27D1 JUMP JUMPDEST MSTORE PUSH2 0x28A5 JUMP JUMPDEST PUSH2 0x656 JUMP JUMPDEST POP CALLVALUE PUSH2 0x1C4 JUMPI PUSH1 0x20 CALLDATASIZE PUSH1 0x3 NOT ADD SLT PUSH2 0x1C4 JUMPI PUSH1 0x4 CALLDATALOAD PUSH1 0x1 PUSH1 0x1 PUSH1 0xA0 SHL SUB DUP2 DUP2 AND SWAP2 DUP3 SWAP1 SUB PUSH2 0x548 JUMPI PUSH2 0x766 SWAP1 PUSH1 0x8 SLOAD AND CALLER EQ PUSH2 0x29A3 JUMP JUMPDEST PUSH1 0x1 PUSH1 0x1 PUSH1 0x60 SHL SUB PUSH1 0xA0 SHL PUSH1 0x2 SLOAD AND OR PUSH1 0x2 SSTORE DUP1 RETURN JUMPDEST POP CALLVALUE PUSH2 0x1C4 JUMPI PUSH2 0x78B CALLDATASIZE PUSH2 0x2506 JUMP JUMPDEST SWAP1 DUP1 DUP4 MSTORE PUSH1 0x5 PUSH1 0x20 MSTORE PUSH1 0x40 DUP4 KECCAK256 SWAP1 PUSH2 0x7A9 PUSH1 0xFF PUSH1 0x9 DUP5 ADD SLOAD AND PUSH2 0x29F9 JUMP JUMPDEST PUSH1 0x1 DUP3 ADD SLOAD PUSH1 0x1 PUSH1 0x1 PUSH1 0xA0 SHL SUB AND CALLER SUB PUSH2 0xC35 JUMPI PUSH1 0x9 SLOAD PUSH1 0x40 MLOAD PUSH4 0x23B872DD PUSH1 0xE0 SHL DUP2 MSTORE CALLER PUSH1 0x4 DUP3 ADD MSTORE ADDRESS PUSH1 0x24 DUP3 ADD MSTORE PUSH1 0x44 DUP2 ADD DUP6 SWAP1 MSTORE SWAP1 PUSH1 0x20 SWAP1 DUP3 SWAP1 PUSH1 0x64 SWAP1 DUP3 SWAP1 DUP10 SWAP1 PUSH1 0x1 PUSH1 0x1 PUSH1 0xA0 SHL SUB AND GAS CALL DUP1 ISZERO PUSH2 0xC2A JUMPI PUSH2 0xC0B JUMPI JUMPDEST POP DUP3 SWAP1 DUP5 DUP6 JUMPDEST PUSH1 0xC DUP6 ADD SLOAD DUP2 LT DUP1 PUSH2 0xC02 JUMPI JUMPDEST ISZERO PUSH2 0xA71 JUMPI PUSH2 0x828 DUP2 PUSH1 0xC DUP8 ADD PUSH2 0x2987 JUMP JUMPDEST POP DUP1 SLOAD DUP1 ISZERO PUSH2 0xA2C JUMPI PUSH1 0xFF PUSH1 0x2 DUP4 ADD SLOAD AND PUSH2 0xA21 JUMPI PUSH1 0x1 DUP3 ADD SLOAD SWAP1 PUSH2 0x84D DUP3 DUP3 PUSH2 0x275D JUMP JUMPDEST DUP1 DUP9 LT ISZERO PUSH2 0x868 JUMPI JUMPDEST POP POP POP POP PUSH2 0x863 SWAP1 PUSH2 0x28A5 JUMP JUMPDEST PUSH2 0x809 JUMP JUMPDEST SWAP1 PUSH2 0x87D PUSH2 0x883 SWAP3 DUP3 SWAP9 SWAP6 SWAP12 SWAP5 SWAP11 SWAP8 SWAP10 PUSH2 0x2898 JUMP JUMPDEST SWAP8 PUSH2 0x275D JUMP JUMPDEST SWAP1 PUSH1 0x2 DUP6 ADD SLOAD SWAP7 DUP11 JUMPDEST PUSH1 0xB DUP8 ADD SLOAD DUP2 LT ISZERO PUSH2 0x9CA JUMPI PUSH2 0x8A5 DUP2 PUSH1 0xB DUP10 ADD PUSH2 0x28C4 JUMP JUMPDEST POP PUSH1 0x1 DUP2 ADD SLOAD DUP1 PUSH8 0xDE0B6B3A7640000 DUP2 MUL DIV PUSH8 0xDE0B6B3A7640000 EQ DUP2 ISZERO OR ISZERO PUSH2 0x9B6 JUMPI DUP14 PUSH2 0x96D SWAP4 SWAP3 DUP14 PUSH2 0x93D PUSH8 0xDE0B6B3A7640000 DUP16 DUP16 DUP3 PUSH2 0x8FB PUSH2 0x8F4 PUSH2 0x902 SWAP5 DUP4 PUSH1 0x20 SWAP13 MUL PUSH2 0x2725 JUMP JUMPDEST DUP1 SWAP4 PUSH2 0x26FC JUMP JUMPDEST DIV SWAP5 PUSH2 0x26FC JUMP JUMPDEST DIV PUSH1 0x3 DUP5 ADD PUSH2 0x912 DUP5 DUP3 SLOAD PUSH2 0x275D JUMP JUMPDEST SWAP1 SSTORE PUSH1 0x4 DUP5 ADD PUSH2 0x923 DUP3 DUP3 SLOAD PUSH2 0x275D JUMP JUMPDEST SWAP1 SSTORE PUSH1 0x9 SLOAD SWAP4 SLOAD PUSH1 0x1 PUSH1 0x1 PUSH1 0xA0 SHL SUB SWAP5 DUP6 AND SWAP5 AND SWAP3 PUSH2 0x275D JUMP JUMPDEST PUSH1 0x40 MLOAD PUSH4 0xA9059CBB PUSH1 0xE0 SHL DUP2 MSTORE PUSH1 0x1 PUSH1 0x1 PUSH1 0xA0 SHL SUB SWAP1 SWAP3 AND PUSH1 0x4 DUP4 ADD MSTORE PUSH1 0x24 DUP3 ADD MSTORE SWAP5 DUP6 SWAP3 DUP4 SWAP2 DUP3 SWAP1 PUSH1 0x44 DUP3 ADD SWAP1 JUMP JUMPDEST SUB SWAP3 GAS CALL SWAP2 DUP3 ISZERO PUSH2 0x9AB JUMPI PUSH2 0x987 SWAP3 PUSH2 0x98C JUMPI JUMPDEST POP PUSH2 0x28A5 JUMP JUMPDEST PUSH2 0x88C JUMP JUMPDEST PUSH2 0x9A4 SWAP1 PUSH1 0x20 RETURNDATASIZE PUSH1 0x20 GT PUSH2 0x4FB JUMPI PUSH2 0x4EF DUP2 DUP4 PUSH2 0x262A JUMP JUMPDEST POP CODESIZE PUSH2 0x981 JUMP JUMPDEST PUSH1 0x40 MLOAD RETURNDATASIZE DUP16 DUP3 RETURNDATACOPY RETURNDATASIZE SWAP1 REVERT JUMPDEST PUSH4 0x4E487B71 PUSH1 0xE0 SHL DUP15 MSTORE PUSH1 0x11 PUSH1 0x4 MSTORE PUSH1 0x24 DUP15 REVERT JUMPDEST POP SWAP7 POP SWAP8 SWAP1 SWAP4 SWAP7 POP PUSH2 0x863 SWAP3 SWAP2 SWAP5 POP PUSH1 0x2 PUSH1 0x1 PUSH1 0xFF NOT DUP3 DUP5 ADD SLOAD AND OR SWAP2 ADD SSTORE PUSH32 0x3D05AC2057427AC2F84502E7EFEFEBF5AE10D9529129C2979CE60FB97D460614 PUSH1 0x40 DUP1 MLOAD DUP7 DUP2 MSTORE DUP4 PUSH1 0x20 DUP3 ADD MSTORE LOG1 SWAP1 CODESIZE DUP1 DUP1 PUSH2 0x856 JUMP JUMPDEST POP POP PUSH2 0x863 SWAP1 PUSH2 0x28A5 JUMP JUMPDEST PUSH1 0x40 MLOAD PUSH3 0x461BCD PUSH1 0xE5 SHL DUP2 MSTORE PUSH1 0x20 PUSH1 0x4 DUP3 ADD MSTORE PUSH1 0x18 PUSH1 0x24 DUP3 ADD MSTORE PUSH32 0x496E7374616C6C6D656E7420616C726561647920706169640000000000000000 PUSH1 0x44 DUP3 ADD MSTORE PUSH1 0x64 SWAP1 REVERT JUMPDEST POP SWAP2 PUSH2 0xAAB DUP2 PUSH32 0xDC376ABD09229A842AC7D8BCADC9017651F1F1B8490750870CAE0ECD4AEDF674 SWAP6 SWAP7 PUSH2 0xAA6 PUSH1 0x80 SWAP7 DUP7 PUSH2 0x2A3A JUMP JUMPDEST PUSH2 0x2898 JUMP JUMPDEST PUSH1 0x40 MLOAD SWAP3 DUP4 MSTORE CALLER PUSH1 0x20 DUP5 ADD MSTORE PUSH1 0x40 DUP4 ADD MSTORE ISZERO PUSH1 0x60 DUP3 ADD MSTORE LOG1 PUSH1 0x1 DUP3 DUP4 PUSH1 0xC DUP5 ADD SLOAD SWAP1 JUMPDEST DUP2 DUP2 LT PUSH2 0xB94 JUMPI JUMPDEST POP POP DUP2 PUSH2 0xB8A JUMPI JUMPDEST POP PUSH2 0xAE7 JUMPI POP DUP1 RETURN JUMPDEST PUSH2 0xAFB PUSH1 0x2 PUSH2 0x2710 SWAP3 ADD SLOAD PUSH1 0xB SLOAD SWAP1 PUSH2 0x26FC JUMP JUMPDEST DIV DUP1 PUSH2 0xB05 JUMPI POP DUP1 RETURN JUMPDEST PUSH1 0x9 SLOAD PUSH1 0x40 MLOAD PUSH4 0x23B872DD PUSH1 0xE0 SHL DUP2 MSTORE CALLER PUSH1 0x4 DUP3 ADD MSTORE ADDRESS PUSH1 0x24 DUP3 ADD MSTORE PUSH1 0x44 DUP2 ADD DUP4 SWAP1 MSTORE SWAP2 SWAP1 PUSH1 0x20 SWAP1 DUP4 SWAP1 PUSH1 0x64 SWAP1 DUP3 SWAP1 DUP8 SWAP1 PUSH1 0x1 PUSH1 0x1 PUSH1 0xA0 SHL SUB AND GAS CALL SWAP2 DUP3 ISZERO PUSH2 0xB7F JUMPI PUSH2 0xB5A SWAP3 PUSH2 0xB60 JUMPI JUMPDEST POP PUSH1 0xD SLOAD PUSH2 0x275D JUMP JUMPDEST PUSH1 0xD SSTORE DUP1 RETURN JUMPDEST PUSH2 0xB78 SWAP1 PUSH1 0x20 RETURNDATASIZE PUSH1 0x20 GT PUSH2 0x4FB JUMPI PUSH2 0x4EF DUP2 DUP4 PUSH2 0x262A JUMP JUMPDEST POP CODESIZE PUSH2 0xB51 JUMP JUMPDEST PUSH1 0x40 MLOAD RETURNDATASIZE DUP6 DUP3 RETURNDATACOPY RETURNDATASIZE SWAP1 REVERT JUMPDEST SWAP1 POP TIMESTAMP LT CODESIZE PUSH2 0xADE JUMP JUMPDEST PUSH1 0xFF PUSH1 0x2 PUSH2 0xBA5 DUP4 PUSH1 0xC DUP10 ADD PUSH2 0x2987 JUMP JUMPDEST POP ADD SLOAD AND ISZERO PUSH2 0xBF5 JUMPI PUSH2 0xBBB DUP2 PUSH1 0xC DUP8 ADD PUSH2 0x2987 JUMP JUMPDEST POP DUP4 PUSH1 0x3 DUP1 SWAP3 ADD SLOAD GT PUSH2 0xBD8 JUMPI JUMPDEST POP PUSH2 0xBD3 SWAP1 PUSH2 0x28A5 JUMP JUMPDEST PUSH2 0xACE JUMP JUMPDEST DUP2 SWAP4 POP PUSH2 0xBEB PUSH2 0xBD3 SWAP3 PUSH1 0xC DUP9 ADD PUSH2 0x2987 JUMP JUMPDEST POP ADD SLOAD SWAP3 SWAP1 PUSH2 0xBC9 JUMP JUMPDEST POP POP SWAP1 POP DUP3 SWAP1 CODESIZE DUP1 PUSH2 0xAD6 JUMP JUMPDEST POP DUP4 ISZERO ISZERO PUSH2 0x816 JUMP JUMPDEST PUSH2 0xC23 SWAP1 PUSH1 0x20 RETURNDATASIZE PUSH1 0x20 GT PUSH2 0x4FB JUMPI PUSH2 0x4EF DUP2 DUP4 PUSH2 0x262A JUMP JUMPDEST POP CODESIZE PUSH2 0x803 JUMP JUMPDEST PUSH1 0x40 MLOAD RETURNDATASIZE DUP8 DUP3 RETURNDATACOPY RETURNDATASIZE SWAP1 REVERT JUMPDEST PUSH1 0x40 MLOAD PUSH3 0x461BCD PUSH1 0xE5 SHL DUP2 MSTORE PUSH1 0x20 PUSH1 0x4 DUP3 ADD MSTORE PUSH1 0x17 PUSH1 0x24 DUP3 ADD MSTORE PUSH32 0x4F6E6C7920626F72726F7765722063616E207265706179000000000000000000 PUSH1 0x44 DUP3 ADD MSTORE PUSH1 0x64 SWAP1 REVERT JUMPDEST POP CALLVALUE PUSH2 0x1C4 JUMPI PUSH1 0x20 CALLDATASIZE PUSH1 0x3 NOT ADD SLT PUSH2 0x1C4 JUMPI PUSH1 0x4 CALLDATALOAD PUSH2 0xCA4 PUSH1 0x1 DUP1 PUSH1 0xA0 SHL SUB PUSH1 0x8 SLOAD AND CALLER EQ PUSH2 0x29A3 JUMP JUMPDEST PUSH2 0xCB2 PUSH2 0x2710 DUP3 GT ISZERO PUSH2 0x33A7 JUMP JUMPDEST PUSH1 0xA SSTORE DUP1 RETURN JUMPDEST POP CALLVALUE PUSH2 0x1C4 JUMPI PUSH1 0x20 CALLDATASIZE PUSH1 0x3 NOT ADD SLT PUSH2 0x1C4 JUMPI PUSH1 0x4 CALLDATALOAD PUSH1 0x1 PUSH1 0x1 PUSH1 0xA0 SHL SUB DUP2 DUP2 AND SWAP2 DUP3 SWAP1 SUB PUSH2 0x548 JUMPI PUSH2 0xCEF SWAP1 PUSH1 0x8 SLOAD AND CALLER EQ PUSH2 0x29A3 JUMP JUMPDEST PUSH1 0x1 PUSH1 0x1 PUSH1 0x60 SHL SUB PUSH1 0xA0 SHL PUSH1 0x3 SLOAD AND OR PUSH1 0x3 SSTORE DUP1 RETURN JUMPDEST POP CALLVALUE PUSH2 0x1C4 JUMPI PUSH1 0x20 SWAP1 DUP2 PUSH1 0x3 NOT CALLDATASIZE ADD SLT PUSH2 0x1C4 JUMPI SWAP1 PUSH1 0x4 CALLDATALOAD DUP3 MSTORE PUSH1 0x5 DUP2 MSTORE PUSH1 0xC PUSH1 0x40 DUP4 KECCAK256 ADD DUP1 SLOAD PUSH2 0xD35 DUP2 PUSH2 0x276A JUMP JUMPDEST SWAP1 PUSH2 0xD43 PUSH1 0x40 MLOAD SWAP3 DUP4 PUSH2 0x262A JUMP JUMPDEST DUP1 DUP3 MSTORE DUP4 DUP3 ADD DUP1 SWAP4 DUP7 MSTORE DUP5 DUP7 KECCAK256 DUP7 SWAP2 JUMPDEST DUP4 DUP4 LT PUSH2 0xDB7 JUMPI POP POP POP POP PUSH1 0x40 MLOAD SWAP3 DUP1 DUP5 ADD SWAP2 DUP2 DUP6 MSTORE MLOAD DUP1 SWAP3 MSTORE PUSH1 0x40 DUP5 ADD SWAP3 SWAP5 JUMPDEST DUP3 DUP2 LT PUSH2 0xD81 JUMPI DUP5 DUP5 SUB DUP6 RETURN JUMPDEST DUP6 MLOAD DUP1 MLOAD DUP6 MSTORE DUP1 DUP4 ADD MLOAD DUP6 DUP5 ADD MSTORE PUSH1 0x40 DUP1 DUP3 ADD MLOAD ISZERO ISZERO SWAP1 DUP7 ADD MSTORE PUSH1 0x60 SWAP1 DUP2 ADD MLOAD SWAP1 DUP6 ADD MSTORE SWAP5 DUP2 ADD SWAP5 PUSH1 0x80 SWAP1 SWAP4 ADD SWAP3 PUSH1 0x1 ADD PUSH2 0xD74 JUMP JUMPDEST PUSH1 0x4 DUP8 PUSH1 0x1 SWAP3 PUSH1 0x40 SWAP11 SWAP10 SWAP8 SWAP9 SWAP11 MLOAD PUSH2 0xDCE DUP2 PUSH2 0x25DC JUMP JUMPDEST DUP6 SLOAD DUP2 MSTORE DUP5 DUP7 ADD SLOAD DUP4 DUP3 ADD MSTORE PUSH1 0xFF PUSH1 0x2 DUP8 ADD SLOAD AND ISZERO ISZERO PUSH1 0x40 DUP3 ADD MSTORE PUSH1 0x3 DUP7 ADD SLOAD PUSH1 0x60 DUP3 ADD MSTORE DUP2 MSTORE ADD SWAP3 ADD SWAP3 ADD SWAP2 SWAP1 SWAP7 SWAP5 SWAP4 SWAP6 SWAP7 PUSH2 0xD53 JUMP JUMPDEST POP CALLVALUE PUSH2 0x1C4 JUMPI PUSH1 0xA0 CALLDATASIZE PUSH1 0x3 NOT ADD SLT PUSH2 0x1C4 JUMPI PUSH1 0x64 CALLDATALOAD PUSH8 0xFFFFFFFFFFFFFFFF DUP2 GT PUSH2 0x1B75 JUMPI PUSH2 0xE38 SWAP1 CALLDATASIZE SWAP1 PUSH1 0x4 ADD PUSH2 0x2521 JUMP JUMPDEST SWAP1 PUSH1 0x84 CALLDATALOAD PUSH8 0xFFFFFFFFFFFFFFFF DUP2 GT PUSH2 0x1B71 JUMPI PUSH2 0xE59 SWAP1 CALLDATASIZE SWAP1 PUSH1 0x4 ADD PUSH2 0x2521 JUMP JUMPDEST SWAP3 PUSH1 0x4 CALLDATALOAD ISZERO PUSH2 0x1B3B JUMPI PUSH1 0x24 CALLDATALOAD ISZERO PUSH2 0x1B03 JUMPI CALLER DUP6 MSTORE PUSH1 0x6 PUSH1 0x20 MSTORE PUSH1 0xFF PUSH1 0x40 DUP7 KECCAK256 SLOAD AND PUSH2 0x1AB2 JUMPI DUP4 DUP2 SUB PUSH2 0x1A58 JUMPI DUP1 ISZERO PUSH2 0x1A1D JUMPI PUSH2 0x2710 PUSH2 0xE9C PUSH1 0xA SLOAD PUSH1 0x4 CALLDATALOAD PUSH2 0x26FC JUMP JUMPDEST DIV DUP1 PUSH2 0x19B5 JUMPI JUMPDEST POP PUSH1 0x14 PUSH1 0x4 CALLDATALOAD MUL SWAP2 PUSH1 0x4 CALLDATALOAD DUP4 DIV PUSH1 0x14 SUB PUSH2 0x148A JUMPI PUSH2 0xEC6 PUSH1 0x64 DUP5 DIV PUSH1 0x4 CALLDATALOAD PUSH2 0x2898 JUMP JUMPDEST PUSH1 0x9 SLOAD PUSH1 0x40 MLOAD PUSH4 0x23B872DD PUSH1 0xE0 SHL DUP2 MSTORE CALLER PUSH1 0x4 DUP3 ADD MSTORE ADDRESS PUSH1 0x24 DUP3 ADD MSTORE PUSH1 0x64 DUP1 DUP8 DIV PUSH1 0x44 DUP4 ADD MSTORE SWAP3 SWAP7 SWAP3 SWAP1 SWAP2 PUSH1 0x20 SWAP2 DUP4 SWAP2 DUP3 SWAP1 DUP13 SWAP1 PUSH1 0x1 PUSH1 0x1 PUSH1 0xA0 SHL SUB AND GAS CALL DUP1 ISZERO PUSH2 0x19AA JUMPI PUSH2 0x198B JUMPI JUMPDEST POP SWAP1 DUP5 SWAP3 SWAP2 PUSH1 0x40 MLOAD PUSH1 0x20 DUP2 ADD SWAP1 CALLER PUSH1 0x60 SHL DUP3 MSTORE TIMESTAMP PUSH1 0x34 DUP3 ADD MSTORE PUSH1 0x34 DUP2 MSTORE PUSH2 0xF36 DUP2 PUSH2 0x260E JUMP JUMPDEST MLOAD SWAP1 KECCAK256 SWAP7 DUP8 DUP10 MSTORE PUSH1 0x5 PUSH1 0x20 MSTORE PUSH1 0x64 PUSH1 0x40 DUP11 KECCAK256 SWAP7 DUP10 DUP9 SSTORE PUSH1 0x1 DUP9 ADD CALLER PUSH1 0x1 PUSH1 0x1 PUSH1 0x60 SHL SUB PUSH1 0xA0 SHL DUP3 SLOAD AND OR SWAP1 SSTORE PUSH1 0x4 CALLDATALOAD PUSH1 0xA DUP10 ADD SSTORE DUP7 PUSH1 0x2 DUP10 ADD SSTORE DIV PUSH1 0x3 DUP8 ADD SSTORE PUSH1 0x44 CALLDATALOAD PUSH1 0x4 DUP8 ADD SSTORE PUSH1 0x24 CALLDATALOAD PUSH1 0x5 DUP8 ADD SSTORE TIMESTAMP PUSH1 0x7 DUP8 ADD SSTORE PUSH2 0xF94 PUSH2 0x2698 JUMP JUMPDEST PUSH1 0x8 DUP8 ADD SSTORE PUSH1 0x9 DUP7 ADD DUP1 SLOAD PUSH1 0xFF NOT AND PUSH1 0x1 OR SWAP1 SSTORE PUSH1 0xE DUP7 ADD DUP6 SWAP1 SSTORE DUP9 SWAP4 DUP5 JUMPDEST DUP2 DUP2 LT PUSH2 0x174A JUMPI POP POP POP POP POP SUB PUSH2 0x16F4 JUMPI PUSH8 0xDE0B6B3A7640000 PUSH1 0x44 CALLDATALOAD MUL SWAP1 PUSH1 0x44 CALLDATALOAD DUP3 DIV PUSH8 0xDE0B6B3A7640000 EQ PUSH1 0x44 CALLDATALOAD ISZERO OR ISZERO PUSH2 0x16E0 JUMPI PUSH2 0xFF9 PUSH2 0x4B0 DUP4 DIV DUP5 PUSH2 0x26FC JUMP JUMPDEST PUSH2 0x4B0 DUP4 DIV PUSH8 0xDE0B6B3A7640000 ADD PUSH8 0xDE0B6B3A7640000 GT PUSH2 0x148A JUMPI PUSH2 0x4B0 DUP4 DIV PUSH8 0xDE0B6B3A7640000 ADD ISZERO PUSH2 0x16CC JUMPI PUSH2 0x104E PUSH1 0x24 CALLDATALOAD PUSH2 0x4B0 DUP6 DIV PUSH8 0xDE0B6B3A7640000 ADD PUSH8 0xDE0B6B3A7640000 DIV PUSH2 0x28E0 JUMP JUMPDEST PUSH8 0xDE0B6B3A7640000 SUB SWAP1 PUSH8 0xDE0B6B3A7640000 DUP3 GT PUSH2 0x1476 JUMPI PUSH1 0x6 SWAP2 PUSH2 0x1074 SWAP2 PUSH2 0x2725 JUMP JUMPDEST SWAP2 ADD SSTORE DUP3 DUP5 MSTORE PUSH1 0x5 PUSH1 0x20 MSTORE PUSH1 0x40 DUP5 KECCAK256 SWAP2 PUSH8 0xDE0B6B3A7640000 DUP2 DUP7 JUMPDEST PUSH1 0x24 CALLDATALOAD DUP2 LT PUSH2 0x16A2 JUMPI POP DUP2 PUSH2 0x10AD PUSH2 0x10B2 SWAP3 PUSH2 0x4B0 DUP8 DIV SWAP1 PUSH2 0x26FC JUMP JUMPDEST PUSH2 0x26FC JUMP JUMPDEST SWAP1 DUP1 PUSH8 0xDE0B6B3A763FFFF NOT DUP2 ADD GT PUSH2 0x1476 JUMPI PUSH8 0xDE0B6B3A7640000 SWAP2 PUSH2 0x10E4 SWAP2 PUSH8 0xDE0B6B3A763FFFF NOT ADD SWAP1 PUSH2 0x2725 JUMP JUMPDEST DIV DUP1 PUSH1 0x6 DUP6 ADD SSTORE DUP6 SWAP2 JUMPDEST PUSH1 0x24 CALLDATALOAD DUP4 LT PUSH2 0x153A JUMPI DUP7 DUP7 PUSH1 0x7 SLOAD PUSH1 0x1 PUSH1 0x40 SHL DUP2 LT ISZERO PUSH2 0x1526 JUMPI DUP1 PUSH1 0x1 PUSH2 0x1118 SWAP3 ADD PUSH1 0x7 SSTORE PUSH2 0x258F JUMP JUMPDEST DUP2 SLOAD PUSH1 0x0 NOT PUSH1 0x3 SWAP3 SWAP1 SWAP3 SHL SWAP2 DUP3 SHL NOT AND SWAP1 DUP4 SWAP1 SHL OR SWAP1 SSTORE CALLER DUP3 MSTORE PUSH1 0x6 PUSH1 0x20 SWAP1 DUP2 MSTORE PUSH1 0x40 DUP1 DUP5 KECCAK256 DUP1 SLOAD PUSH1 0xFF NOT AND PUSH1 0x1 SWAP1 DUP2 OR SWAP1 SWAP2 SSTORE DUP4 DUP6 MSTORE PUSH1 0x5 DUP4 MSTORE DUP2 DUP6 KECCAK256 PUSH1 0xA DUP2 ADD SLOAD PUSH1 0x9 SLOAD SWAP3 SLOAD SWAP4 MLOAD PUSH4 0x95EA7B3 PUSH1 0xE0 SHL DUP2 MSTORE PUSH1 0x1 PUSH1 0x1 PUSH1 0xA0 SHL SUB SWAP5 DUP6 AND PUSH1 0x4 DUP3 ADD MSTORE PUSH1 0x24 DUP2 ADD DUP3 SWAP1 MSTORE SWAP2 SWAP5 SWAP1 SWAP4 SWAP2 SWAP3 SWAP1 SWAP2 DUP4 SWAP2 PUSH1 0x44 SWAP2 DUP4 SWAP2 DUP11 SWAP2 AND GAS CALL DUP1 ISZERO PUSH2 0xC2A JUMPI PUSH2 0x1507 JUMPI JUMPDEST POP PUSH1 0x40 MLOAD PUSH2 0x11AF DUP2 PUSH2 0x260E JUMP JUMPDEST PUSH1 0x2 DUP2 MSTORE PUSH1 0x40 CALLDATASIZE PUSH1 0x20 DUP4 ADD CALLDATACOPY PUSH1 0x9 SLOAD PUSH1 0x1 PUSH1 0x1 PUSH1 0xA0 SHL SUB AND PUSH2 0x11D0 DUP3 PUSH2 0x27B4 JUMP JUMPDEST MSTORE PUSH1 0x2 SLOAD PUSH1 0x1 PUSH1 0x1 PUSH1 0xA0 SHL SUB AND PUSH2 0x11E6 DUP3 PUSH2 0x27C1 JUMP JUMPDEST MSTORE PUSH1 0x3 SLOAD PUSH1 0x40 MLOAD PUSH4 0x3FABE5A3 PUSH1 0xE2 SHL DUP2 MSTORE SWAP1 PUSH1 0xA0 SWAP1 DUP3 SWAP1 PUSH1 0x4 SWAP1 DUP3 SWAP1 PUSH1 0x1 PUSH1 0x1 PUSH1 0xA0 SHL SUB AND GAS STATICCALL SWAP1 DUP2 ISZERO PUSH2 0x141F JUMPI DUP7 SWAP2 PUSH2 0x14D3 JUMPI JUMPDEST POP DUP6 DUP2 SGT ISZERO PUSH2 0x149E JUMPI PUSH4 0x5F5E100 DUP1 DUP5 MUL SWAP1 DUP5 DUP3 DIV EQ DUP5 ISZERO OR ISZERO PUSH2 0x1476 JUMPI SWAP1 PUSH2 0x1243 SWAP2 PUSH2 0x2725 JUMP JUMPDEST DUP1 PUSH1 0x62 DUP2 MUL DIV PUSH1 0x62 EQ DUP2 ISZERO OR ISZERO PUSH2 0x148A JUMPI PUSH1 0x1 SLOAD PUSH1 0x1 PUSH1 0x1 PUSH1 0xA0 SHL SUB AND SWAP2 TIMESTAMP PUSH2 0x12C DUP2 ADD LT PUSH2 0x1476 JUMPI SWAP2 PUSH2 0x12A1 SWAP4 SWAP2 DUP8 DUP1 SWAP5 PUSH1 0x40 MLOAD SWAP7 DUP8 SWAP6 DUP7 SWAP5 DUP6 SWAP4 PUSH4 0x38ED1739 PUSH1 0xE0 SHL DUP6 MSTORE PUSH2 0x12C TIMESTAMP ADD SWAP3 PUSH1 0x64 PUSH1 0x62 ADDRESS SWAP5 MUL DIV SWAP1 PUSH1 0x4 DUP8 ADD PUSH2 0x285F JUMP JUMPDEST SUB SWAP3 GAS CALL DUP1 ISZERO PUSH2 0x146B JUMPI PUSH2 0x12BC SWAP2 DUP6 SWAP2 PUSH2 0x1449 JUMPI JUMPDEST POP PUSH2 0x27C1 JUMP JUMPDEST MLOAD DUP3 DUP5 MSTORE PUSH1 0x5 PUSH1 0x20 SWAP1 DUP2 MSTORE PUSH1 0x40 DUP1 DUP7 KECCAK256 PUSH1 0x2 SLOAD DUP8 SLOAD SWAP3 MLOAD PUSH4 0x95EA7B3 PUSH1 0xE0 SHL DUP2 MSTORE PUSH1 0x1 PUSH1 0x1 PUSH1 0xA0 SHL SUB SWAP4 DUP5 AND PUSH1 0x4 DUP3 ADD MSTORE PUSH1 0x24 DUP2 ADD DUP7 SWAP1 MSTORE SWAP2 SWAP4 SWAP2 SWAP3 DUP4 SWAP2 PUSH1 0x44 SWAP2 DUP4 SWAP2 DUP12 SWAP2 AND GAS CALL DUP1 ISZERO PUSH2 0x141F JUMPI PUSH2 0x142A JUMPI JUMPDEST POP DUP5 SLOAD PUSH1 0x2 SLOAD DUP7 SWAP2 PUSH1 0x1 PUSH1 0x1 PUSH1 0xA0 SHL SUB SWAP2 DUP3 AND SWAP2 AND DUP1 EXTCODESIZE ISZERO PUSH2 0x548 JUMPI PUSH1 0x84 DUP4 SWAP3 PUSH1 0x40 MLOAD SWAP5 DUP6 SWAP4 DUP5 SWAP3 PUSH4 0x617BA037 PUSH1 0xE0 SHL DUP5 MSTORE PUSH1 0x4 DUP5 ADD MSTORE DUP9 PUSH1 0x24 DUP5 ADD MSTORE ADDRESS PUSH1 0x44 DUP5 ADD MSTORE DUP2 PUSH1 0x64 DUP5 ADD MSTORE GAS CALL DUP1 ISZERO PUSH2 0x141F JUMPI PUSH2 0x13EE JUMPI JUMPDEST POP PUSH1 0x80 SWAP3 PUSH32 0xAEEC09AF87559B9077DA2E499D1FAD2E228D7C24CB4B566FE61976820ABAADDA PUSH1 0x60 DUP5 PUSH1 0x2 DUP6 PUSH32 0x65410888FB30EDD04F6ACFB2F6CFD92AAF0EBB9B5303B6286D65D0B031B5B7F7 SWAP10 SWAP8 PUSH1 0xD PUSH1 0x3 SWAP9 ADD SSTORE ADD SLOAD SWAP1 PUSH1 0x40 MLOAD SWAP2 DUP8 DUP4 MSTORE PUSH1 0x20 DUP4 ADD MSTORE PUSH1 0x40 DUP3 ADD MSTORE LOG1 ADD SLOAD PUSH1 0x40 MLOAD SWAP2 DUP3 MSTORE PUSH1 0x4 CALLDATALOAD PUSH1 0x20 DUP4 ADD MSTORE PUSH1 0x40 DUP3 ADD MSTORE CALLER PUSH1 0x60 DUP3 ADD MSTORE LOG1 DUP1 RETURN JUMPDEST PUSH8 0xFFFFFFFFFFFFFFFF DUP2 SWAP7 SWAP3 SWAP7 GT PUSH2 0x140B JUMPI PUSH1 0x40 MSTORE SWAP4 PUSH1 0x80 PUSH2 0x1365 JUMP JUMPDEST PUSH4 0x4E487B71 PUSH1 0xE0 SHL DUP3 MSTORE PUSH1 0x41 PUSH1 0x4 MSTORE PUSH1 0x24 DUP3 REVERT JUMPDEST PUSH1 0x40 MLOAD RETURNDATASIZE DUP9 DUP3 RETURNDATACOPY RETURNDATASIZE SWAP1 REVERT JUMPDEST PUSH2 0x1442 SWAP1 PUSH1 0x20 RETURNDATASIZE PUSH1 0x20 GT PUSH2 0x4FB JUMPI PUSH2 0x4EF DUP2 DUP4 PUSH2 0x262A JUMP JUMPDEST POP DUP6 PUSH2 0x130F JUMP JUMPDEST PUSH2 0x1465 SWAP2 POP RETURNDATASIZE DUP1 DUP8 DUP4 RETURNDATACOPY PUSH2 0x145D DUP2 DUP4 PUSH2 0x262A JUMP JUMPDEST DUP2 ADD SWAP1 PUSH2 0x27E5 JUMP JUMPDEST DUP6 PUSH2 0x12B6 JUMP JUMPDEST PUSH1 0x40 MLOAD RETURNDATASIZE DUP7 DUP3 RETURNDATACOPY RETURNDATASIZE SWAP1 REVERT JUMPDEST PUSH4 0x4E487B71 PUSH1 0xE0 SHL DUP8 MSTORE PUSH1 0x11 PUSH1 0x4 MSTORE PUSH1 0x24 DUP8 REVERT JUMPDEST PUSH4 0x4E487B71 PUSH1 0xE0 SHL DUP7 MSTORE PUSH1 0x11 PUSH1 0x4 MSTORE PUSH1 0x24 DUP7 REVERT JUMPDEST PUSH1 0x40 MLOAD PUSH3 0x461BCD PUSH1 0xE5 SHL DUP2 MSTORE PUSH1 0x20 PUSH1 0x4 DUP3 ADD MSTORE PUSH1 0xD PUSH1 0x24 DUP3 ADD MSTORE PUSH13 0x496E76616C6964207072696365 PUSH1 0x98 SHL PUSH1 0x44 DUP3 ADD MSTORE PUSH1 0x64 SWAP1 REVERT JUMPDEST PUSH2 0x14F5 SWAP2 POP PUSH1 0xA0 RETURNDATASIZE PUSH1 0xA0 GT PUSH2 0x1500 JUMPI JUMPDEST PUSH2 0x14ED DUP2 DUP4 PUSH2 0x262A JUMP JUMPDEST DUP2 ADD SWAP1 PUSH2 0x2663 JUMP JUMPDEST POP POP POP SWAP1 POP DUP7 PUSH2 0x121B JUMP JUMPDEST POP RETURNDATASIZE PUSH2 0x14E3 JUMP JUMPDEST PUSH2 0x151F SWAP1 PUSH1 0x20 RETURNDATASIZE PUSH1 0x20 GT PUSH2 0x4FB JUMPI PUSH2 0x4EF DUP2 DUP4 PUSH2 0x262A JUMP JUMPDEST POP DUP5 PUSH2 0x11A2 JUMP JUMPDEST PUSH4 0x4E487B71 PUSH1 0xE0 SHL DUP4 MSTORE PUSH1 0x41 PUSH1 0x4 MSTORE PUSH1 0x24 DUP4 REVERT JUMPDEST PUSH8 0xDE0B6B3A7640000 PUSH2 0x1551 PUSH2 0x4B0 DUP7 DIV DUP4 PUSH2 0x26FC JUMP JUMPDEST DIV SWAP1 DUP2 DUP4 GT ISZERO PUSH2 0x169C JUMPI PUSH2 0x1565 DUP3 DUP5 PUSH2 0x2898 JUMP JUMPDEST SWAP2 PUSH1 0x24 CALLDATALOAD PUSH1 0x0 NOT DUP2 ADD GT PUSH2 0x1688 JUMPI PUSH1 0x24 CALLDATALOAD PUSH1 0x0 NOT ADD DUP6 EQ PUSH2 0x1673 JUMPI JUMPDEST PUSH3 0x278D00 DUP6 DUP2 DUP2 MUL DIV DUP2 EQ DUP7 ISZERO OR ISZERO PUSH2 0x165F JUMPI PUSH2 0x15A0 SWAP1 DUP7 MUL TIMESTAMP PUSH2 0x275D JUMP JUMPDEST PUSH1 0x40 MLOAD SWAP2 PUSH2 0x15AD DUP4 PUSH2 0x25DC JUMP JUMPDEST DUP5 DUP4 MSTORE PUSH1 0x20 DUP4 ADD MSTORE DUP10 PUSH1 0x40 DUP4 ADD MSTORE PUSH1 0x60 DUP3 ADD MSTORE PUSH1 0xC DUP8 ADD SLOAD PUSH1 0x1 PUSH1 0x40 SHL DUP2 LT ISZERO PUSH2 0x164B JUMPI DUP1 PUSH1 0x1 PUSH2 0x15E7 SWAP3 ADD PUSH1 0xC DUP11 ADD SSTORE PUSH1 0xC DUP10 ADD PUSH2 0x2987 JUMP JUMPDEST SWAP2 SWAP1 SWAP2 PUSH2 0x1637 JUMPI SWAP2 PUSH2 0x1631 SWAP4 SWAP2 PUSH1 0x3 PUSH1 0x60 DUP6 PUSH2 0x162B SWAP7 MLOAD DUP5 SSTORE PUSH1 0x20 DUP2 ADD MLOAD PUSH1 0x1 DUP6 ADD SSTORE PUSH1 0x2 DUP5 ADD PUSH1 0x40 DUP3 ADD MLOAD ISZERO ISZERO PUSH1 0xFF DUP1 NOT DUP4 SLOAD AND SWAP2 AND OR SWAP1 SSTORE ADD MLOAD SWAP2 ADD SSTORE PUSH2 0x2898 JUMP JUMPDEST SWAP3 PUSH2 0x28A5 JUMP JUMPDEST SWAP2 PUSH2 0x10EE JUMP JUMPDEST PUSH4 0x4E487B71 PUSH1 0xE0 SHL DUP11 MSTORE PUSH1 0x4 DUP11 SWAP1 MSTORE PUSH1 0x24 DUP11 REVERT JUMPDEST PUSH4 0x4E487B71 PUSH1 0xE0 SHL DUP11 MSTORE PUSH1 0x41 PUSH1 0x4 MSTORE PUSH1 0x24 DUP11 REVERT JUMPDEST PUSH4 0x4E487B71 PUSH1 0xE0 SHL DUP11 MSTORE PUSH1 0x11 PUSH1 0x4 MSTORE PUSH1 0x24 DUP11 REVERT JUMPDEST SWAP3 POP SWAP1 POP DUP1 PUSH2 0x1682 DUP4 DUP3 PUSH2 0x275D JUMP JUMPDEST SWAP3 PUSH2 0x1581 JUMP JUMPDEST PUSH4 0x4E487B71 PUSH1 0xE0 SHL DUP10 MSTORE PUSH1 0x11 PUSH1 0x4 MSTORE PUSH1 0x24 DUP10 REVERT JUMPDEST DUP8 PUSH2 0x1565 JUMP JUMPDEST SWAP2 PUSH8 0xDE0B6B3A7640000 PUSH2 0x16C0 PUSH2 0x16C7 SWAP3 PUSH2 0x4B0 DUP9 DIV DUP4 ADD SWAP1 PUSH2 0x26FC JUMP JUMPDEST DIV SWAP3 PUSH2 0x28A5 JUMP JUMPDEST PUSH2 0x1090 JUMP JUMPDEST PUSH4 0x4E487B71 PUSH1 0xE0 SHL DUP7 MSTORE PUSH1 0x12 PUSH1 0x4 MSTORE PUSH1 0x24 DUP7 REVERT JUMPDEST PUSH4 0x4E487B71 PUSH1 0xE0 SHL DUP6 MSTORE PUSH1 0x11 PUSH1 0x4 MSTORE PUSH1 0x24 DUP6 REVERT JUMPDEST PUSH1 0x40 MLOAD PUSH3 0x461BCD PUSH1 0xE5 SHL DUP2 MSTORE PUSH1 0x20 PUSH1 0x4 DUP3 ADD MSTORE PUSH1 0x28 PUSH1 0x24 DUP3 ADD MSTORE PUSH32 0x436F6C6C656374656420616D6F756E7420646F65736E2774206D617463682070 PUSH1 0x44 DUP3 ADD MSTORE PUSH8 0x1C9A5B98DA5C185B PUSH1 0xC2 SHL PUSH1 0x64 DUP3 ADD MSTORE PUSH1 0x84 SWAP1 REVERT JUMPDEST SWAP1 SWAP2 SWAP3 SWAP4 SWAP5 SWAP6 POP PUSH2 0x175C DUP2 DUP4 DUP7 PUSH2 0x28B4 JUMP JUMPDEST CALLDATALOAD PUSH1 0x1 PUSH1 0x1 PUSH1 0xA0 SHL SUB DUP2 AND DUP2 SUB PUSH2 0x1987 JUMPI PUSH2 0x1778 DUP3 DUP6 DUP9 PUSH2 0x28B4 JUMP JUMPDEST CALLDATALOAD SWAP7 DUP8 ISZERO PUSH2 0x194A JUMPI DUP12 SWAP1 PUSH1 0x20 PUSH2 0x17CE PUSH1 0x1 DUP1 PUSH1 0xA0 SHL SUB PUSH1 0x9 SLOAD AND DUP12 PUSH1 0x40 MLOAD SWAP6 DUP7 DUP1 SWAP5 DUP2 SWAP4 PUSH4 0x23B872DD PUSH1 0xE0 SHL DUP4 MSTORE ADDRESS DUP12 PUSH1 0x4 DUP6 ADD PUSH1 0x40 SWAP2 SWAP5 SWAP4 SWAP3 SWAP5 PUSH1 0x60 DUP3 ADD SWAP6 PUSH1 0x1 DUP1 PUSH1 0xA0 SHL SUB DUP1 SWAP3 AND DUP4 MSTORE AND PUSH1 0x20 DUP3 ADD MSTORE ADD MSTORE JUMP JUMPDEST SUB SWAP3 GAS CALL SWAP1 DUP2 ISZERO PUSH2 0x9AB JUMPI PUSH2 0x17EA SWAP3 DUP11 SWAP3 PUSH2 0x192B JUMPI JUMPDEST POP PUSH2 0x275D JUMP JUMPDEST SWAP7 PUSH1 0x1 DUP1 PUSH1 0xA0 SHL SUB DUP3 AND DUP13 MSTORE PUSH1 0x4 PUSH1 0x20 MSTORE PUSH1 0x40 DUP13 KECCAK256 PUSH2 0x180A DUP3 DUP3 SLOAD PUSH2 0x275D JUMP JUMPDEST SWAP1 SSTORE PUSH2 0x4B0 PUSH2 0x1821 PUSH1 0x24 CALLDATALOAD PUSH2 0x10AD PUSH1 0x44 CALLDATALOAD DUP6 PUSH2 0x26FC JUMP JUMPDEST DIV SWAP1 PUSH1 0x40 MLOAD SWAP3 DUP4 PUSH1 0xA0 DUP2 ADD LT PUSH8 0xFFFFFFFFFFFFFFFF PUSH1 0xA0 DUP7 ADD GT OR PUSH2 0x1917 JUMPI PUSH1 0xA0 DUP5 ADD PUSH1 0x40 MSTORE PUSH1 0x1 DUP1 PUSH1 0xA0 SHL SUB AND DUP4 MSTORE PUSH1 0x20 DUP4 ADD MSTORE PUSH1 0x40 DUP3 ADD MSTORE DUP11 PUSH1 0x60 DUP3 ADD MSTORE DUP11 PUSH1 0x80 DUP3 ADD MSTORE PUSH1 0xB DUP9 ADD SLOAD PUSH1 0x1 PUSH1 0x40 SHL DUP2 LT ISZERO PUSH2 0x1903 JUMPI DUP1 PUSH1 0x1 PUSH2 0x188E SWAP3 ADD PUSH1 0xB DUP12 ADD SSTORE PUSH1 0xB DUP11 ADD PUSH2 0x28C4 JUMP JUMPDEST SWAP2 SWAP1 SWAP2 PUSH2 0x18EF JUMPI DUP1 MLOAD DUP3 SLOAD PUSH1 0x1 PUSH1 0x1 PUSH1 0xA0 SHL SUB NOT AND PUSH1 0x1 PUSH1 0x1 PUSH1 0xA0 SHL SUB SWAP2 SWAP1 SWAP2 AND OR DUP3 SSTORE PUSH1 0x20 DUP2 ADD MLOAD PUSH1 0x1 DUP4 ADD SSTORE PUSH1 0x40 DUP2 ADD MLOAD PUSH1 0x2 DUP4 ADD SSTORE PUSH1 0x60 DUP2 ADD MLOAD PUSH1 0x3 DUP4 ADD SSTORE PUSH1 0x80 ADD MLOAD PUSH1 0x4 SWAP1 SWAP2 ADD SSTORE PUSH2 0x18E3 SWAP1 PUSH2 0x28A5 JUMP JUMPDEST SWAP1 DUP8 SWAP6 SWAP5 SWAP4 SWAP3 SWAP2 PUSH2 0xFB3 JUMP JUMPDEST PUSH4 0x4E487B71 PUSH1 0xE0 SHL DUP13 MSTORE PUSH1 0x4 DUP13 SWAP1 MSTORE PUSH1 0x24 DUP13 REVERT JUMPDEST PUSH4 0x4E487B71 PUSH1 0xE0 SHL DUP13 MSTORE PUSH1 0x41 PUSH1 0x4 MSTORE PUSH1 0x24 DUP13 REVERT JUMPDEST PUSH4 0x4E487B71 PUSH1 0xE0 SHL DUP15 MSTORE PUSH1 0x41 PUSH1 0x4 MSTORE PUSH1 0x24 DUP15 REVERT JUMPDEST PUSH2 0x1943 SWAP1 PUSH1 0x20 RETURNDATASIZE PUSH1 0x20 GT PUSH2 0x4FB JUMPI PUSH2 0x4EF DUP2 DUP4 PUSH2 0x262A JUMP JUMPDEST POP CODESIZE PUSH2 0x17E4 JUMP JUMPDEST PUSH1 0x40 MLOAD PUSH3 0x461BCD PUSH1 0xE5 SHL DUP2 MSTORE PUSH1 0x20 PUSH1 0x4 DUP3 ADD MSTORE PUSH1 0x15 PUSH1 0x24 DUP3 ADD MSTORE PUSH21 0x125B9D985B1A59081B195B99195C88185B5BDD5B9D PUSH1 0x5A SHL PUSH1 0x44 DUP3 ADD MSTORE PUSH1 0x64 SWAP1 REVERT JUMPDEST DUP11 DUP1 REVERT JUMPDEST PUSH2 0x19A3 SWAP1 PUSH1 0x20 RETURNDATASIZE PUSH1 0x20 GT PUSH2 0x4FB JUMPI PUSH2 0x4EF DUP2 DUP4 PUSH2 0x262A JUMP JUMPDEST POP CODESIZE PUSH2 0xF10 JUMP JUMPDEST PUSH1 0x40 MLOAD RETURNDATASIZE DUP11 DUP3 RETURNDATACOPY RETURNDATASIZE SWAP1 REVERT JUMPDEST PUSH1 0x9 SLOAD PUSH1 0x40 MLOAD PUSH4 0x23B872DD PUSH1 0xE0 SHL DUP2 MSTORE CALLER PUSH1 0x4 DUP3 ADD MSTORE ADDRESS PUSH1 0x24 DUP3 ADD MSTORE PUSH1 0x44 DUP2 ADD DUP4 SWAP1 MSTORE SWAP2 SWAP1 PUSH1 0x20 SWAP1 DUP4 SWAP1 PUSH1 0x64 SWAP1 DUP3 SWAP1 DUP12 SWAP1 PUSH1 0x1 PUSH1 0x1 PUSH1 0xA0 SHL SUB AND GAS CALL SWAP2 DUP3 ISZERO PUSH2 0x1A12 JUMPI PUSH2 0x1A09 SWAP3 PUSH2 0xB60 JUMPI POP PUSH1 0xD SLOAD PUSH2 0x275D JUMP JUMPDEST PUSH1 0xD SSTORE CODESIZE PUSH2 0xEA3 JUMP JUMPDEST PUSH1 0x40 MLOAD RETURNDATASIZE DUP10 DUP3 RETURNDATACOPY RETURNDATASIZE SWAP1 REVERT JUMPDEST PUSH1 0x40 MLOAD PUSH3 0x461BCD PUSH1 0xE5 SHL DUP2 MSTORE PUSH1 0x20 PUSH1 0x4 DUP3 ADD MSTORE PUSH1 0x13 PUSH1 0x24 DUP3 ADD MSTORE PUSH19 0x139BC81B195B99195C9CC81C1C9BDD9A591959 PUSH1 0x6A SHL PUSH1 0x44 DUP3 ADD MSTORE PUSH1 0x64 SWAP1 REVERT JUMPDEST PUSH1 0x40 MLOAD PUSH3 0x461BCD PUSH1 0xE5 SHL DUP2 MSTORE PUSH1 0x20 PUSH1 0x4 DUP3 ADD MSTORE PUSH1 0x2C PUSH1 0x24 DUP3 ADD MSTORE PUSH32 0x4C656E6465722061646472657373657320616E6420616D6F756E7473206C656E PUSH1 0x44 DUP3 ADD MSTORE PUSH12 0xCEE8D040DAD2E6DAC2E8C6D PUSH1 0xA3 SHL PUSH1 0x64 DUP3 ADD MSTORE PUSH1 0x84 SWAP1 REVERT JUMPDEST PUSH1 0x40 MLOAD PUSH3 0x461BCD PUSH1 0xE5 SHL DUP2 MSTORE PUSH1 0x20 PUSH1 0x4 DUP3 ADD MSTORE PUSH1 0x23 PUSH1 0x24 DUP3 ADD MSTORE PUSH32 0x426F72726F77657220616C72656164792068617320616E20616374697665206C PUSH1 0x44 DUP3 ADD MSTORE PUSH3 0x37B0B7 PUSH1 0xE9 SHL PUSH1 0x64 DUP3 ADD MSTORE PUSH1 0x84 SWAP1 REVERT JUMPDEST PUSH1 0x40 MLOAD PUSH3 0x461BCD PUSH1 0xE5 SHL DUP2 MSTORE PUSH1 0x20 PUSH1 0x4 DUP3 ADD MSTORE PUSH1 0x10 PUSH1 0x24 DUP3 ADD MSTORE PUSH16 0x24B73B30B634B210323AB930BA34B7B7 PUSH1 0x81 SHL PUSH1 0x44 DUP3 ADD MSTORE PUSH1 0x64 SWAP1 REVERT JUMPDEST PUSH1 0x40 MLOAD PUSH3 0x461BCD PUSH1 0xE5 SHL DUP2 MSTORE PUSH1 0x20 PUSH1 0x4 DUP3 ADD MSTORE PUSH1 0xE PUSH1 0x24 DUP3 ADD MSTORE PUSH14 0x125B9D985B1A5908185B5BDD5B9D PUSH1 0x92 SHL PUSH1 0x44 DUP3 ADD MSTORE PUSH1 0x64 SWAP1 REVERT JUMPDEST DUP4 DUP1 REVERT JUMPDEST POP DUP1 REVERT JUMPDEST POP CALLVALUE PUSH2 0x1C4 JUMPI DUP1 PUSH1 0x3 NOT CALLDATASIZE ADD SLT PUSH2 0x1C4 JUMPI PUSH1 0x20 PUSH1 0xC SLOAD PUSH1 0x40 MLOAD SWAP1 DUP2 MSTORE RETURN JUMPDEST POP CALLVALUE PUSH2 0x1C4 JUMPI DUP1 PUSH1 0x3 NOT CALLDATASIZE ADD SLT PUSH2 0x1C4 JUMPI PUSH1 0x20 PUSH1 0xD SLOAD PUSH1 0x40 MLOAD SWAP1 DUP2 MSTORE RETURN JUMPDEST POP CALLVALUE PUSH2 0x1C4 JUMPI PUSH1 0x40 PUSH2 0x1BCF PUSH2 0x1BC9 CALLDATASIZE PUSH2 0x2506 JUMP JUMPDEST SWAP1 PUSH2 0x3334 JUMP JUMPDEST DUP3 MLOAD SWAP2 DUP3 MSTORE PUSH1 0x20 DUP3 ADD MSTORE RETURN JUMPDEST POP CALLVALUE PUSH2 0x1C4 JUMPI PUSH1 0x20 CALLDATASIZE PUSH1 0x3 NOT ADD SLT PUSH2 0x1C4 JUMPI PUSH1 0x4 CALLDATALOAD PUSH1 0x1 PUSH1 0x1 PUSH1 0xA0 SHL SUB DUP2 DUP2 AND SWAP2 DUP3 SWAP1 SUB PUSH2 0x548 JUMPI PUSH2 0x1C12 SWAP1 PUSH1 0x8 SLOAD AND CALLER EQ PUSH2 0x29A3 JUMP JUMPDEST PUSH1 0x1 PUSH1 0x1 PUSH1 0x60 SHL SUB PUSH1 0xA0 SHL PUSH1 0x1 SLOAD AND OR PUSH1 0x1 SSTORE DUP1 RETURN JUMPDEST POP CALLVALUE PUSH2 0x1C4 JUMPI PUSH1 0x20 CALLDATASIZE PUSH1 0x3 NOT ADD SLT PUSH2 0x1C4 JUMPI PUSH1 0x4 CALLDATALOAD PUSH1 0x1 PUSH1 0x1 PUSH1 0xA0 SHL SUB DUP2 DUP2 AND SWAP2 DUP3 SWAP1 SUB PUSH2 0x548 JUMPI PUSH2 0x1C5F SWAP1 PUSH1 0x8 SLOAD AND CALLER EQ PUSH2 0x29A3 JUMP JUMPDEST DUP2 SLOAD PUSH1 0x1 PUSH1 0x1 PUSH1 0xA0 SHL SUB NOT AND OR DUP2 SSTORE DUP1 RETURN JUMPDEST POP CALLVALUE PUSH2 0x1C4 JUMPI PUSH1 0x20 CALLDATASIZE PUSH1 0x3 NOT ADD SLT PUSH2 0x1C4 JUMPI PUSH1 0xD PUSH1 0x40 PUSH1 0x20 SWAP3 PUSH1 0x4 CALLDATALOAD DUP2 MSTORE PUSH1 0x5 DUP5 MSTORE KECCAK256 ADD SLOAD PUSH1 0x40 MLOAD SWAP1 DUP2 MSTORE RETURN JUMPDEST POP CALLVALUE PUSH2 0x1C4 JUMPI DUP1 PUSH1 0x3 NOT CALLDATASIZE ADD SLT PUSH2 0x1C4 JUMPI PUSH1 0x20 PUSH1 0xA SLOAD PUSH1 0x40 MLOAD SWAP1 DUP2 MSTORE RETURN JUMPDEST POP CALLVALUE PUSH2 0x1C4 JUMPI PUSH1 0x20 CALLDATASIZE PUSH1 0x3 NOT ADD SLT PUSH2 0x1C4 JUMPI PUSH1 0x4 CALLDATALOAD PUSH1 0x1 PUSH1 0x1 PUSH1 0xA0 SHL SUB DUP2 AND SWAP1 DUP2 SWAP1 SUB PUSH2 0x1B75 JUMPI DUP2 PUSH1 0x40 SWAP2 PUSH1 0x20 SWAP4 MSTORE PUSH1 0x4 DUP4 MSTORE KECCAK256 SLOAD PUSH1 0x40 MLOAD SWAP1 DUP2 MSTORE RETURN JUMPDEST POP CALLVALUE PUSH2 0x1C4 JUMPI PUSH1 0x20 DUP1 PUSH1 0x3 NOT CALLDATASIZE ADD SLT PUSH2 0x1B75 JUMPI PUSH1 0x4 CALLDATALOAD PUSH1 0x1 DUP1 PUSH1 0xA0 SHL SUB PUSH2 0x1D25 DUP2 PUSH1 0x8 SLOAD AND CALLER EQ PUSH2 0x29A3 JUMP JUMPDEST DUP2 DUP5 MSTORE PUSH1 0x5 DUP4 MSTORE PUSH1 0x40 DUP5 KECCAK256 SWAP3 PUSH1 0x9 SWAP1 DUP2 DUP6 ADD SWAP2 PUSH1 0xFF PUSH2 0x1D46 DUP2 DUP6 SLOAD AND PUSH2 0x29F9 JUMP JUMPDEST DUP8 SWAP1 DUP9 SWAP1 PUSH1 0xC DUP10 ADD DUP1 SLOAD SWAP3 JUMPDEST DUP4 DUP2 LT PUSH2 0x1FCD JUMPI POP POP POP POP PUSH3 0x76A700 LT ISZERO PUSH2 0x1F73 JUMPI PUSH1 0xE DUP7 ADD PUSH2 0x2710 PUSH2 0x1D7C DUP3 SLOAD PUSH1 0xB SLOAD SWAP1 PUSH2 0x26FC JUMP JUMPDEST DIV DUP1 PUSH2 0x1F51 JUMPI JUMPDEST POP PUSH1 0xFF NOT SWAP4 DUP5 DUP2 SLOAD AND SWAP1 SSTORE PUSH1 0x1 SWAP1 DUP2 DUP9 ADD SWAP5 DUP7 DUP7 SLOAD AND DUP11 MSTORE PUSH1 0x6 DUP6 MSTORE PUSH1 0x40 DUP11 KECCAK256 SWAP1 DUP2 SLOAD AND SWAP1 SSTORE PUSH1 0xD DUP9 ADD SLOAD DUP1 PUSH2 0x1F41 JUMPI JUMPDEST POP PUSH1 0x3 SWAP1 DUP2 DUP10 ADD SLOAD SWAP1 SLOAD SWAP2 DUP3 PUSH2 0x1E26 JUMPI JUMPDEST DUP11 PUSH32 0xCAB88A55906C5830A49DDDD8B31D115294A5E6C4210F25FE140530A39C51DC74 DUP11 DUP11 DUP11 SLOAD AND SWAP1 PUSH2 0x1E20 PUSH2 0x1DF8 PUSH2 0x2698 JUMP JUMPDEST PUSH1 0x40 DUP1 MLOAD SWAP4 DUP5 MSTORE PUSH1 0x1 PUSH1 0x1 PUSH1 0xA0 SHL SUB SWAP1 SWAP5 AND PUSH1 0x20 DUP5 ADD MSTORE SWAP3 DUP3 ADD SWAP3 SWAP1 SWAP3 MSTORE SWAP1 DUP2 SWAP1 PUSH1 0x60 DUP3 ADD SWAP1 JUMP JUMPDEST SUB SWAP1 LOG1 DUP1 RETURN JUMPDEST SWAP1 SWAP2 SWAP3 DUP1 SWAP10 PUSH1 0xB DUP13 SWAP2 ADD SWAP2 JUMPDEST PUSH2 0x1E3D JUMPI JUMPDEST POP PUSH2 0x1DC5 JUMP JUMPDEST DUP2 SLOAD DUP2 LT ISZERO PUSH2 0x1F3C JUMPI PUSH2 0x1E50 DUP2 DUP4 PUSH2 0x28C4 JUMP JUMPDEST POP PUSH2 0x1E62 DUP13 DUP3 ADD SLOAD DUP6 DUP4 ADD SLOAD SWAP1 PUSH2 0x2898 JUMP JUMPDEST DUP13 DUP2 ISZERO PUSH2 0x1F2B JUMPI POP PUSH8 0xDE0B6B3A7640000 SWAP1 DUP2 DUP2 MUL SWAP1 DUP2 DIV DUP3 SUB PUSH2 0x1F17 JUMPI DUP8 SWAP7 SWAP6 SWAP5 SWAP4 SWAP3 DUP16 SWAP2 SWAP3 PUSH2 0x1EA0 PUSH2 0x1E9A PUSH2 0x1EDC SWAP12 DUP15 SWAP7 PUSH2 0x2725 JUMP JUMPDEST DUP10 PUSH2 0x26FC JUMP JUMPDEST DIV SWAP2 DUP14 DUP1 DUP13 SLOAD AND SWAP3 SLOAD AND SWAP1 PUSH1 0x40 MLOAD DUP1 SWAP12 DUP2 SWAP6 DUP3 SWAP5 PUSH4 0xA9059CBB PUSH1 0xE0 SHL DUP5 MSTORE PUSH1 0x4 DUP5 ADD PUSH1 0x20 SWAP1 SWAP4 SWAP3 SWAP2 SWAP4 PUSH1 0x40 DUP2 ADD SWAP5 PUSH1 0x1 DUP1 PUSH1 0xA0 SHL SUB AND DUP2 MSTORE ADD MSTORE JUMP JUMPDEST SUB SWAP3 GAS CALL SWAP1 DUP2 ISZERO PUSH2 0x9AB JUMPI DUP13 SWAP7 PUSH2 0x1EF7 SWAP3 PUSH2 0x1F01 JUMPI POP PUSH2 0x28A5 JUMP JUMPDEST SWAP1 SWAP2 SWAP3 SWAP4 SWAP5 PUSH2 0x1E32 JUMP JUMPDEST PUSH2 0x9A4 SWAP1 DUP11 RETURNDATASIZE DUP13 GT PUSH2 0x4FB JUMPI PUSH2 0x4EF DUP2 DUP4 PUSH2 0x262A JUMP JUMPDEST PUSH4 0x4E487B71 PUSH1 0xE0 SHL DUP16 MSTORE PUSH1 0x11 PUSH1 0x4 MSTORE PUSH1 0x24 DUP16 REVERT JUMPDEST SWAP7 SWAP6 SWAP5 SWAP4 SWAP3 SWAP1 POP PUSH2 0x1EF7 SWAP2 POP PUSH2 0x28A5 JUMP JUMPDEST PUSH2 0x1E37 JUMP JUMPDEST PUSH2 0x1F4B SWAP1 DUP9 PUSH2 0x2EB2 JUMP JUMPDEST CODESIZE PUSH2 0x1DB4 JUMP JUMPDEST DUP1 PUSH2 0x1F61 PUSH2 0x1F6B SWAP3 PUSH1 0xD SLOAD PUSH2 0x275D JUMP JUMPDEST PUSH1 0xD SSTORE DUP3 SLOAD PUSH2 0x2898 JUMP JUMPDEST DUP2 SSTORE CODESIZE PUSH2 0x1D83 JUMP JUMPDEST PUSH1 0x40 MLOAD PUSH3 0x461BCD PUSH1 0xE5 SHL DUP2 MSTORE PUSH1 0x4 DUP2 ADD DUP4 SWAP1 MSTORE PUSH1 0x2C PUSH1 0x24 DUP3 ADD MSTORE PUSH32 0x4C6F616E206973206E6F74206F766572647565206265796F6E642033206D6F6E PUSH1 0x44 DUP3 ADD MSTORE PUSH12 0x1D1A1CC81A5B881D1BDD185B PUSH1 0xA2 SHL PUSH1 0x64 DUP3 ADD MSTORE PUSH1 0x84 SWAP1 REVERT JUMPDEST PUSH2 0x1FD7 DUP2 DUP4 PUSH2 0x2987 JUMP JUMPDEST POP DUP4 PUSH1 0x2 DUP3 ADD SLOAD AND PUSH2 0x1FEF JUMPI PUSH1 0x3 ADD SLOAD DUP1 TIMESTAMP GT PUSH2 0x1FFE JUMPI JUMPDEST POP PUSH2 0x1FF9 SWAP1 PUSH2 0x28A5 JUMP JUMPDEST PUSH2 0x1D52 JUMP JUMPDEST PUSH2 0x1FF9 SWAP2 SWAP6 PUSH2 0x2010 PUSH2 0x2016 SWAP3 TIMESTAMP PUSH2 0x2898 JUMP JUMPDEST SWAP1 PUSH2 0x275D JUMP JUMPDEST SWAP5 SWAP1 PUSH2 0x1FEF JUMP JUMPDEST POP CALLVALUE PUSH2 0x1C4 JUMPI PUSH1 0x20 CALLDATASIZE PUSH1 0x3 NOT ADD SLT PUSH2 0x1C4 JUMPI PUSH1 0x4 CALLDATALOAD PUSH1 0x1 PUSH1 0x1 PUSH1 0xA0 SHL SUB DUP2 AND SWAP1 DUP2 SWAP1 SUB PUSH2 0x1B75 JUMPI PUSH1 0x40 DUP3 PUSH1 0xFF SWAP3 PUSH1 0x20 SWAP5 MSTORE PUSH1 0x6 DUP5 MSTORE KECCAK256 SLOAD AND PUSH1 0x40 MLOAD SWAP1 ISZERO ISZERO DUP2 MSTORE RETURN JUMPDEST POP CALLVALUE PUSH2 0x1C4 JUMPI PUSH1 0x20 DUP1 PUSH1 0x3 NOT CALLDATASIZE ADD SLT PUSH2 0x1B75 JUMPI SWAP1 PUSH1 0x4 CALLDATALOAD DUP2 MSTORE PUSH1 0x5 DUP3 MSTORE PUSH1 0xC PUSH1 0x40 DUP3 KECCAK256 ADD DUP1 SLOAD SWAP2 PUSH2 0x208F DUP4 PUSH2 0x2782 JUMP JUMPDEST SWAP3 PUSH2 0x2099 DUP2 PUSH2 0x2782 JUMP JUMPDEST PUSH2 0x20A2 DUP3 PUSH2 0x276A JUMP JUMPDEST SWAP2 PUSH2 0x20B0 PUSH1 0x40 MLOAD SWAP4 DUP5 PUSH2 0x262A JUMP JUMPDEST DUP1 DUP4 MSTORE PUSH2 0x20BC DUP2 PUSH2 0x276A JUMP JUMPDEST DUP4 DUP9 ADD SWAP6 SWAP1 PUSH1 0x1F NOT ADD CALLDATASIZE DUP8 CALLDATACOPY DUP5 JUMPDEST DUP3 DUP2 LT PUSH2 0x2138 JUMPI POP POP POP SWAP5 DUP1 PUSH2 0x20FE PUSH2 0x20F1 SWAP8 PUSH1 0x40 MLOAD SWAP9 DUP10 SWAP9 PUSH1 0x60 DUP11 MSTORE PUSH1 0x60 DUP11 ADD SWAP1 PUSH2 0x24D2 JUMP JUMPDEST SWAP1 DUP9 DUP3 SUB DUP5 DUP11 ADD MSTORE PUSH2 0x24D2 JUMP JUMPDEST SWAP3 DUP7 DUP5 SUB PUSH1 0x40 DUP9 ADD MSTORE MLOAD SWAP3 DUP4 DUP2 MSTORE ADD SWAP4 SWAP3 JUMPDEST DUP3 DUP2 LT PUSH2 0x211F JUMPI POP POP POP POP SUB SWAP1 RETURN JUMPDEST DUP4 MLOAD ISZERO ISZERO DUP6 MSTORE DUP7 SWAP6 POP SWAP4 DUP2 ADD SWAP4 SWAP3 DUP2 ADD SWAP3 PUSH1 0x1 ADD PUSH2 0x2110 JUMP JUMPDEST DUP1 PUSH1 0xFF PUSH1 0x2 PUSH2 0x2150 PUSH2 0x2185 SWAP5 DUP7 SWAP14 SWAP11 SWAP10 SWAP12 SWAP13 SWAP14 PUSH2 0x2987 JUMP JUMPDEST POP DUP1 SLOAD PUSH2 0x215D DUP6 DUP16 PUSH2 0x27D1 JUMP JUMPDEST MSTORE PUSH1 0x1 DUP2 ADD SLOAD PUSH2 0x216D DUP6 DUP11 PUSH2 0x27D1 JUMP JUMPDEST MSTORE ADD SLOAD AND PUSH2 0x217B DUP3 DUP11 PUSH2 0x27D1 JUMP JUMPDEST SWAP1 ISZERO ISZERO SWAP1 MSTORE PUSH2 0x28A5 JUMP JUMPDEST SWAP8 SWAP7 SWAP6 SWAP4 SWAP5 SWAP8 PUSH2 0x20CA JUMP JUMPDEST POP CALLVALUE PUSH2 0x1C4 JUMPI DUP1 PUSH1 0x3 NOT CALLDATASIZE ADD SLT PUSH2 0x1C4 JUMPI PUSH1 0x9 SLOAD PUSH1 0x40 MLOAD PUSH1 0x1 PUSH1 0x1 PUSH1 0xA0 SHL SUB SWAP1 SWAP2 AND DUP2 MSTORE PUSH1 0x20 SWAP1 RETURN JUMPDEST POP CALLVALUE PUSH2 0x1C4 JUMPI DUP1 PUSH1 0x3 NOT CALLDATASIZE ADD SLT PUSH2 0x1C4 JUMPI PUSH1 0x2 SLOAD PUSH1 0x40 MLOAD PUSH1 0x1 PUSH1 0x1 PUSH1 0xA0 SHL SUB SWAP1 SWAP2 AND DUP2 MSTORE PUSH1 0x20 SWAP1 RETURN JUMPDEST POP CALLVALUE PUSH2 0x1C4 JUMPI PUSH1 0x20 CALLDATASIZE PUSH1 0x3 NOT ADD SLT PUSH2 0x1C4 JUMPI PUSH2 0x2209 PUSH1 0x1 DUP1 PUSH1 0xA0 SHL SUB PUSH1 0x8 SLOAD AND CALLER EQ PUSH2 0x29A3 JUMP JUMPDEST PUSH1 0x4 CALLDATALOAD DUP2 MSTORE PUSH1 0x5 PUSH1 0x20 MSTORE PUSH1 0x40 DUP2 KECCAK256 PUSH1 0x9 DUP2 ADD DUP1 SLOAD SWAP2 PUSH2 0x222A PUSH1 0xFF DUP5 AND PUSH2 0x29F9 JUMP JUMPDEST PUSH2 0x2232 PUSH2 0x2698 JUMP JUMPDEST SWAP2 PUSH1 0xD DUP3 ADD PUSH4 0x5F5E100 PUSH2 0x2247 DUP6 DUP4 SLOAD PUSH2 0x26FC JUMP JUMPDEST DIV SWAP2 PUSH1 0xE DUP5 ADD SWAP3 DUP4 SLOAD PUSH1 0x69 DUP2 MUL SWAP1 DUP1 DUP3 DIV PUSH1 0x69 EQ SWAP1 ISZERO OR ISZERO PUSH2 0x1688 JUMPI PUSH1 0x64 SWAP1 DIV LT PUSH2 0x2453 JUMPI PUSH1 0xFF NOT SWAP6 DUP7 AND SWAP1 SSTORE PUSH1 0x1 DUP4 ADD DUP1 SLOAD PUSH1 0x1 PUSH1 0x1 PUSH1 0xA0 SHL SUB AND DUP8 MSTORE PUSH1 0x6 PUSH1 0x20 MSTORE PUSH1 0x40 DUP8 KECCAK256 DUP1 SLOAD SWAP1 SWAP7 AND SWAP1 SWAP6 SSTORE DUP2 SLOAD PUSH1 0xC SLOAD PUSH2 0x2710 SWAP2 PUSH2 0x22A9 SWAP2 SWAP1 PUSH2 0x26FC JUMP JUMPDEST DIV DUP1 PUSH2 0x2431 JUMPI JUMPDEST POP SLOAD DUP1 PUSH2 0x241F JUMPI JUMPDEST POP PUSH1 0x3 DUP3 ADD SLOAD SWAP1 SLOAD SWAP2 DUP3 PUSH2 0x2317 JUMPI JUMPDEST POP POP SWAP2 SLOAD PUSH1 0x40 DUP1 MLOAD PUSH1 0x4 CALLDATALOAD DUP2 MSTORE PUSH1 0x1 PUSH1 0x1 PUSH1 0xA0 SHL SUB SWAP1 SWAP3 AND PUSH1 0x20 DUP4 ADD MSTORE DUP2 ADD SWAP2 SWAP1 SWAP2 MSTORE PUSH32 0xCAB88A55906C5830A49DDDD8B31D115294A5E6C4210F25FE140530A39C51DC74 SWAP2 POP DUP1 PUSH1 0x60 DUP2 ADD PUSH2 0x1E20 JUMP JUMPDEST SWAP1 SWAP2 SWAP3 DUP6 JUMPDEST PUSH1 0xB DUP4 ADD SLOAD DUP2 LT ISZERO PUSH2 0x23F2 JUMPI PUSH2 0x2335 DUP2 PUSH1 0xB DUP6 ADD PUSH2 0x28C4 JUMP JUMPDEST POP PUSH2 0x2349 PUSH1 0x1 DUP3 ADD SLOAD PUSH1 0x3 DUP4 ADD SLOAD SWAP1 PUSH2 0x2898 JUMP JUMPDEST DUP1 ISZERO PUSH2 0x23E7 JUMPI DUP1 PUSH8 0xDE0B6B3A7640000 DUP2 MUL DIV PUSH8 0xDE0B6B3A7640000 SUB PUSH2 0x1688 JUMPI PUSH2 0x23C9 SWAP3 SWAP2 PUSH8 0xDE0B6B3A7640000 PUSH2 0x2389 PUSH2 0x1E9A DUP11 DUP4 PUSH1 0x20 SWAP7 MUL PUSH2 0x2725 JUMP JUMPDEST PUSH1 0x9 SLOAD SWAP3 SLOAD PUSH1 0x40 MLOAD PUSH4 0xA9059CBB PUSH1 0xE0 SHL DUP2 MSTORE PUSH1 0x1 PUSH1 0x1 PUSH1 0xA0 SHL SUB SWAP2 DUP3 AND PUSH1 0x4 DUP3 ADD MSTORE SWAP3 SWAP1 SWAP2 DIV PUSH1 0x24 DUP4 ADD MSTORE SWAP1 SWAP5 DUP6 SWAP3 SWAP1 SWAP2 AND SWAP1 DUP3 SWAP1 DUP13 SWAP1 DUP3 SWAP1 PUSH1 0x44 DUP3 ADD SWAP1 JUMP JUMPDEST SUB SWAP3 GAS CALL SWAP2 DUP3 ISZERO PUSH2 0x19AA JUMPI PUSH2 0x23E2 SWAP3 PUSH2 0x98C JUMPI POP PUSH2 0x28A5 JUMP JUMPDEST PUSH2 0x231C JUMP JUMPDEST POP POP PUSH2 0x23E2 SWAP1 PUSH2 0x28A5 JUMP JUMPDEST POP SWAP3 POP POP POP PUSH32 0xCAB88A55906C5830A49DDDD8B31D115294A5E6C4210F25FE140530A39C51DC74 CODESIZE DUP1 PUSH2 0x22C7 JUMP JUMPDEST PUSH2 0x242B SWAP1 PUSH1 0x4 CALLDATALOAD PUSH2 0x2EB2 JUMP JUMPDEST CODESIZE PUSH2 0x22B8 JUMP JUMPDEST DUP1 PUSH2 0x2441 PUSH2 0x244B SWAP3 PUSH1 0xD SLOAD PUSH2 0x275D JUMP JUMPDEST PUSH1 0xD SSTORE DUP4 SLOAD PUSH2 0x2898 JUMP JUMPDEST DUP3 SSTORE CODESIZE PUSH2 0x22B0 JUMP JUMPDEST PUSH1 0x40 MLOAD PUSH3 0x461BCD PUSH1 0xE5 SHL DUP2 MSTORE PUSH1 0x20 PUSH1 0x4 DUP3 ADD MSTORE PUSH1 0x35 PUSH1 0x24 DUP3 ADD MSTORE PUSH32 0x4254432076616C756520686173206E6F742064726F707065642062656C6F7720 PUSH1 0x44 DUP3 ADD MSTORE PUSH21 0x1B1A5C5D5A59185D1A5BDB881D1A1C995CDA1BDB19 PUSH1 0x5A SHL PUSH1 0x64 DUP3 ADD MSTORE PUSH1 0x84 SWAP1 REVERT JUMPDEST SWAP1 POP CALLVALUE PUSH2 0x1B75 JUMPI DUP2 PUSH1 0x3 NOT CALLDATASIZE ADD SLT PUSH2 0x1B75 JUMPI PUSH1 0x20 SWAP1 PUSH1 0xB SLOAD DUP2 MSTORE RETURN JUMPDEST SWAP1 DUP2 MLOAD DUP1 DUP3 MSTORE PUSH1 0x20 DUP1 DUP1 SWAP4 ADD SWAP4 ADD SWAP2 PUSH1 0x0 JUMPDEST DUP3 DUP2 LT PUSH2 0x24F2 JUMPI POP POP POP POP SWAP1 JUMP JUMPDEST DUP4 MLOAD DUP6 MSTORE SWAP4 DUP2 ADD SWAP4 SWAP3 DUP2 ADD SWAP3 PUSH1 0x1 ADD PUSH2 0x24E4 JUMP JUMPDEST PUSH1 0x40 SWAP1 PUSH1 0x3 NOT ADD SLT PUSH2 0x251C JUMPI PUSH1 0x4 CALLDATALOAD SWAP1 PUSH1 0x24 CALLDATALOAD SWAP1 JUMP JUMPDEST PUSH1 0x0 DUP1 REVERT JUMPDEST SWAP2 DUP2 PUSH1 0x1F DUP5 ADD SLT ISZERO PUSH2 0x251C JUMPI DUP3 CALLDATALOAD SWAP2 PUSH8 0xFFFFFFFFFFFFFFFF DUP4 GT PUSH2 0x251C JUMPI PUSH1 0x20 DUP1 DUP6 ADD SWAP5 DUP5 PUSH1 0x5 SHL ADD ADD GT PUSH2 0x251C JUMPI JUMP JUMPDEST SWAP1 DUP2 MLOAD DUP1 DUP3 MSTORE PUSH1 0x20 DUP1 DUP1 SWAP4 ADD SWAP4 ADD SWAP2 PUSH1 0x0 JUMPDEST DUP3 DUP2 LT PUSH2 0x2572 JUMPI POP POP POP POP SWAP1 JUMP JUMPDEST DUP4 MLOAD PUSH1 0x1 PUSH1 0x1 PUSH1 0xA0 SHL SUB AND DUP6 MSTORE SWAP4 DUP2 ADD SWAP4 SWAP3 DUP2 ADD SWAP3 PUSH1 0x1 ADD PUSH2 0x2564 JUMP JUMPDEST PUSH1 0x7 SLOAD DUP2 LT ISZERO PUSH2 0x25C6 JUMPI PUSH1 0x7 PUSH1 0x0 MSTORE PUSH32 0xA66CC928B5EDB82AF9BD49922954155AB7B0942694BEA4CE44661D9A8736C688 ADD SWAP1 PUSH1 0x0 SWAP1 JUMP JUMPDEST PUSH4 0x4E487B71 PUSH1 0xE0 SHL PUSH1 0x0 MSTORE PUSH1 0x32 PUSH1 0x4 MSTORE PUSH1 0x24 PUSH1 0x0 REVERT JUMPDEST PUSH1 0x80 DUP2 ADD SWAP1 DUP2 LT PUSH8 0xFFFFFFFFFFFFFFFF DUP3 GT OR PUSH2 0x25F8 JUMPI PUSH1 0x40 MSTORE JUMP JUMPDEST PUSH4 0x4E487B71 PUSH1 0xE0 SHL PUSH1 0x0 MSTORE PUSH1 0x41 PUSH1 0x4 MSTORE PUSH1 0x24 PUSH1 0x0 REVERT JUMPDEST PUSH1 0x60 DUP2 ADD SWAP1 DUP2 LT PUSH8 0xFFFFFFFFFFFFFFFF DUP3 GT OR PUSH2 0x25F8 JUMPI PUSH1 0x40 MSTORE JUMP JUMPDEST SWAP1 PUSH1 0x1F DUP1 NOT SWAP2 ADD AND DUP2 ADD SWAP1 DUP2 LT PUSH8 0xFFFFFFFFFFFFFFFF DUP3 GT OR PUSH2 0x25F8 JUMPI PUSH1 0x40 MSTORE JUMP JUMPDEST MLOAD SWAP1 PUSH10 0xFFFFFFFFFFFFFFFFFFFF DUP3 AND DUP3 SUB PUSH2 0x251C JUMPI JUMP JUMPDEST SWAP1 DUP2 PUSH1 0xA0 SWAP2 SUB SLT PUSH2 0x251C JUMPI PUSH2 0x2677 DUP2 PUSH2 0x264C JUMP JUMPDEST SWAP2 PUSH1 0x20 DUP3 ADD MLOAD SWAP2 PUSH1 0x40 DUP2 ADD MLOAD SWAP2 PUSH2 0x2695 PUSH1 0x80 PUSH1 0x60 DUP5 ADD MLOAD SWAP4 ADD PUSH2 0x264C JUMP JUMPDEST SWAP1 JUMP JUMPDEST PUSH1 0x3 SLOAD PUSH1 0x40 MLOAD PUSH4 0x3FABE5A3 PUSH1 0xE2 SHL DUP2 MSTORE SWAP1 PUSH1 0xA0 SWAP1 DUP3 SWAP1 PUSH1 0x4 SWAP1 DUP3 SWAP1 PUSH1 0x1 PUSH1 0x1 PUSH1 0xA0 SHL SUB AND GAS STATICCALL SWAP1 DUP2 ISZERO PUSH2 0x26F0 JUMPI PUSH1 0x0 SWAP2 PUSH2 0x26D0 JUMPI POP SWAP1 JUMP JUMPDEST PUSH2 0x26E8 SWAP2 POP PUSH1 0xA0 RETURNDATASIZE DUP2 GT PUSH2 0x1500 JUMPI PUSH2 0x14ED DUP2 DUP4 PUSH2 0x262A JUMP JUMPDEST POP POP POP SWAP1 POP SWAP1 JUMP JUMPDEST PUSH1 0x40 MLOAD RETURNDATASIZE PUSH1 0x0 DUP3 RETURNDATACOPY RETURNDATASIZE SWAP1 REVERT JUMPDEST DUP2 DUP2 MUL SWAP3 SWAP2 DUP2 ISZERO SWAP2 DUP5 DIV EQ OR ISZERO PUSH2 0x270F JUMPI JUMP JUMPDEST PUSH4 0x4E487B71 PUSH1 0xE0 SHL PUSH1 0x0 MSTORE PUSH1 0x11 PUSH1 0x4 MSTORE PUSH1 0x24 PUSH1 0x0 REVERT JUMPDEST DUP2 ISZERO PUSH2 0x272F JUMPI DIV SWAP1 JUMP JUMPDEST PUSH4 0x4E487B71 PUSH1 0xE0 SHL PUSH1 0x0 MSTORE PUSH1 0x12 PUSH1 0x4 MSTORE PUSH1 0x24 PUSH1 0x0 REVERT JUMPDEST SWAP1 DUP2 PUSH1 0x20 SWAP2 SUB SLT PUSH2 0x251C JUMPI MLOAD DUP1 ISZERO ISZERO DUP2 SUB PUSH2 0x251C JUMPI SWAP1 JUMP JUMPDEST SWAP2 SWAP1 DUP3 ADD DUP1 SWAP3 GT PUSH2 0x270F JUMPI JUMP JUMPDEST PUSH8 0xFFFFFFFFFFFFFFFF DUP2 GT PUSH2 0x25F8 JUMPI PUSH1 0x5 SHL PUSH1 0x20 ADD SWAP1 JUMP JUMPDEST SWAP1 PUSH2 0x278C DUP3 PUSH2 0x276A JUMP JUMPDEST PUSH2 0x2799 PUSH1 0x40 MLOAD SWAP2 DUP3 PUSH2 0x262A JUMP JUMPDEST DUP3 DUP2 MSTORE DUP1 SWAP3 PUSH2 0x27AA PUSH1 0x1F NOT SWAP2 PUSH2 0x276A JUMP JUMPDEST ADD SWAP1 PUSH1 0x20 CALLDATASIZE SWAP2 ADD CALLDATACOPY JUMP JUMPDEST DUP1 MLOAD ISZERO PUSH2 0x25C6 JUMPI PUSH1 0x20 ADD SWAP1 JUMP JUMPDEST DUP1 MLOAD PUSH1 0x1 LT ISZERO PUSH2 0x25C6 JUMPI PUSH1 0x40 ADD SWAP1 JUMP JUMPDEST DUP1 MLOAD DUP3 LT ISZERO PUSH2 0x25C6 JUMPI PUSH1 0x20 SWAP2 PUSH1 0x5 SHL ADD ADD SWAP1 JUMP JUMPDEST PUSH1 0x20 SWAP1 DUP2 DUP2 DUP5 SUB SLT PUSH2 0x251C JUMPI DUP1 MLOAD SWAP1 PUSH8 0xFFFFFFFFFFFFFFFF DUP3 GT PUSH2 0x251C JUMPI ADD SWAP2 DUP1 PUSH1 0x1F DUP5 ADD SLT ISZERO PUSH2 0x251C JUMPI DUP3 MLOAD PUSH2 0x281B DUP2 PUSH2 0x276A JUMP JUMPDEST SWAP4 PUSH2 0x2829 PUSH1 0x40 MLOAD SWAP6 DUP7 PUSH2 0x262A JUMP JUMPDEST DUP2 DUP6 MSTORE DUP4 DUP1 DUP7 ADD SWAP3 PUSH1 0x5 SHL DUP3 ADD ADD SWAP3 DUP4 GT PUSH2 0x251C JUMPI DUP4 ADD SWAP1 JUMPDEST DUP3 DUP3 LT PUSH2 0x2850 JUMPI POP POP POP POP SWAP1 JUMP JUMPDEST DUP2 MLOAD DUP2 MSTORE SWAP1 DUP4 ADD SWAP1 DUP4 ADD PUSH2 0x2842 JUMP JUMPDEST SWAP2 SWAP3 PUSH1 0x80 SWAP4 PUSH2 0x2884 SWAP3 SWAP8 SWAP7 SWAP6 SWAP8 DUP5 MSTORE PUSH1 0x20 DUP5 ADD MSTORE PUSH1 0xA0 PUSH1 0x40 DUP5 ADD MSTORE PUSH1 0xA0 DUP4 ADD SWAP1 PUSH2 0x2552 JUMP JUMPDEST PUSH1 0x1 PUSH1 0x1 PUSH1 0xA0 SHL SUB SWAP1 SWAP6 AND PUSH1 0x60 DUP3 ADD MSTORE ADD MSTORE JUMP JUMPDEST SWAP2 SWAP1 DUP3 SUB SWAP2 DUP3 GT PUSH2 0x270F JUMPI JUMP JUMPDEST PUSH1 0x0 NOT DUP2 EQ PUSH2 0x270F JUMPI PUSH1 0x1 ADD SWAP1 JUMP JUMPDEST SWAP2 SWAP1 DUP2 LT ISZERO PUSH2 0x25C6 JUMPI PUSH1 0x5 SHL ADD SWAP1 JUMP JUMPDEST DUP1 SLOAD DUP3 LT ISZERO PUSH2 0x25C6 JUMPI PUSH1 0x0 MSTORE PUSH1 0x5 PUSH1 0x20 PUSH1 0x0 KECCAK256 SWAP2 MUL ADD SWAP1 PUSH1 0x0 SWAP1 JUMP JUMPDEST SWAP1 DUP1 ISZERO PUSH2 0x2980 JUMPI DUP2 ISZERO PUSH2 0x2979 JUMPI DUP2 DUP1 PUSH1 0x1 EQ PUSH2 0x2971 JUMPI PUSH1 0x2 EQ PUSH2 0x2960 JUMPI PUSH1 0x20 DUP2 LT PUSH2 0x133 DUP4 LT AND PUSH1 0x4E DUP3 LT PUSH1 0xB DUP5 LT AND OR PUSH2 0x295B JUMPI PUSH1 0x1 SWAP1 DUP2 JUMPDEST DUP1 DUP3 GT PUSH2 0x2932 JUMPI POP POP DUP2 PUSH1 0x0 NOT DIV DUP2 GT PUSH2 0x270F JUMPI MUL SWAP1 JUMP JUMPDEST SWAP1 SWAP3 DUP1 PUSH1 0x0 NOT DIV DUP2 GT PUSH2 0x270F JUMPI DUP2 DUP5 AND PUSH2 0x2952 JUMPI JUMPDEST DUP1 MUL SWAP3 DUP2 SHR SWAP1 PUSH2 0x291A JUMP JUMPDEST DUP1 SWAP3 MUL SWAP2 PUSH2 0x2947 JUMP JUMPDEST SWAP1 EXP SWAP1 JUMP JUMPDEST SWAP1 POP PUSH1 0xFF DUP2 GT PUSH2 0x270F JUMPI PUSH1 0x1 SWAP1 SHL SWAP1 JUMP JUMPDEST POP POP POP PUSH1 0x1 SWAP1 JUMP JUMPDEST POP POP PUSH1 0x0 SWAP1 JUMP JUMPDEST POP POP PUSH1 0x1 SWAP1 JUMP JUMPDEST DUP1 SLOAD DUP3 LT ISZERO PUSH2 0x25C6 JUMPI PUSH1 0x0 MSTORE PUSH1 0x20 PUSH1 0x0 KECCAK256 SWAP1 PUSH1 0x2 SHL ADD SWAP1 PUSH1 0x0 SWAP1 JUMP JUMPDEST ISZERO PUSH2 0x29AA JUMPI JUMP JUMPDEST PUSH1 0x40 MLOAD PUSH3 0x461BCD PUSH1 0xE5 SHL DUP2 MSTORE PUSH1 0x20 PUSH1 0x4 DUP3 ADD MSTORE PUSH1 0x21 PUSH1 0x24 DUP3 ADD MSTORE PUSH32 0x4F6E6C79206F776E65722063616E2063616C6C20746869732066756E6374696F PUSH1 0x44 DUP3 ADD MSTORE PUSH1 0x37 PUSH1 0xF9 SHL PUSH1 0x64 DUP3 ADD MSTORE PUSH1 0x84 SWAP1 REVERT JUMPDEST ISZERO PUSH2 0x2A00 JUMPI JUMP JUMPDEST PUSH1 0x40 MLOAD PUSH3 0x461BCD PUSH1 0xE5 SHL DUP2 MSTORE PUSH1 0x20 PUSH1 0x4 DUP3 ADD MSTORE PUSH1 0x12 PUSH1 0x24 DUP3 ADD MSTORE PUSH18 0x4C6F616E206973206E6F7420616374697665 PUSH1 0x70 SHL PUSH1 0x44 DUP3 ADD MSTORE PUSH1 0x64 SWAP1 REVERT JUMPDEST SWAP1 PUSH1 0x0 SWAP2 DUP1 DUP4 MSTORE PUSH1 0x20 PUSH1 0x5 DUP2 MSTORE PUSH1 0x40 DUP1 DUP6 KECCAK256 SWAP4 DUP1 ISZERO DUP1 DUP1 ISZERO PUSH2 0x2EA6 JUMPI JUMPDEST DUP1 ISZERO PUSH2 0x2E9A JUMPI JUMPDEST PUSH2 0x2A9D JUMPI PUSH4 0x5F5E100 DUP1 DUP4 MUL SWAP3 DUP4 DIV EQ OR ISZERO PUSH2 0x148A JUMPI PUSH2 0x2A85 PUSH1 0xD SWAP2 PUSH1 0x8 DUP8 ADD SLOAD SWAP1 PUSH2 0x2725 JUMP JUMPDEST SWAP5 ADD SWAP5 DUP6 SLOAD DUP1 DUP7 GT PUSH2 0x2E92 JUMPI JUMPDEST POP DUP5 ISZERO SWAP2 DUP3 ISZERO PUSH2 0x2AA6 JUMPI JUMPDEST POP POP POP POP POP POP POP JUMP JUMPDEST DUP5 DUP3 MSTORE PUSH1 0x5 DUP5 MSTORE DUP1 DUP3 KECCAK256 SWAP4 PUSH1 0xD DUP6 ADD SWAP4 DUP5 SLOAD DUP9 GT PUSH2 0x2E40 JUMPI PUSH2 0x2DFE JUMPI PUSH1 0x1 DUP1 PUSH1 0xA0 SHL SUB SWAP3 DUP4 PUSH1 0x2 SLOAD AND SWAP4 DUP4 MLOAD SWAP6 PUSH4 0x70A08231 PUSH1 0xE0 SHL SWAP8 DUP9 DUP9 MSTORE PUSH1 0x4 SWAP3 ADDRESS DUP5 DUP11 ADD MSTORE PUSH1 0x24 SWAP3 DUP7 DUP11 DUP6 DUP2 DUP13 GAS STATICCALL SWAP10 DUP11 ISZERO PUSH2 0x2D96 JUMPI DUP7 SWAP11 PUSH2 0x2DCF JUMPI JUMPDEST POP DUP7 DUP14 PUSH1 0x64 DUP5 DUP10 SLOAD AND SWAP12 DUP10 DUP13 MLOAD SWAP14 DUP15 SWAP5 DUP6 SWAP4 PUSH4 0x1A4CA37B PUSH1 0xE2 SHL DUP6 MSTORE DUP13 DUP6 ADD MSTORE DUP11 DUP5 ADD MSTORE ADDRESS PUSH1 0x44 DUP5 ADD MSTORE GAS CALL SWAP9 DUP10 ISZERO PUSH2 0x2D96 JUMPI DUP7 SWAP10 PUSH2 0x2DA0 JUMPI JUMPDEST POP DUP7 DUP3 PUSH1 0x2 SLOAD AND SWAP12 DUP6 DUP11 MLOAD DUP1 SWAP15 DUP2 SWAP4 DUP3 MSTORE ADDRESS DUP11 DUP4 ADD MSTORE GAS STATICCALL SWAP11 DUP12 ISZERO PUSH2 0x2D96 JUMPI DUP7 SWAP12 PUSH2 0x2D63 JUMPI JUMPDEST POP DUP10 DUP12 GT ISZERO PUSH2 0x2D16 JUMPI DUP9 ISZERO PUSH2 0x2CD4 JUMPI PUSH2 0x2BBE SWAP3 DUP8 SWAP3 DUP3 PUSH2 0x2B81 DUP13 DUP1 SWAP6 SLOAD PUSH2 0x2898 JUMP JUMPDEST SWAP1 SSTORE PUSH1 0x1 DUP2 PUSH1 0x2 SLOAD AND SWAP3 ADD SLOAD AND DUP8 DUP11 MLOAD DUP1 SWAP7 DUP2 SWAP6 DUP3 SWAP5 PUSH4 0xA9059CBB PUSH1 0xE0 SHL DUP5 MSTORE DUP12 DUP5 ADD PUSH1 0x20 SWAP1 SWAP4 SWAP3 SWAP2 SWAP4 PUSH1 0x40 DUP2 ADD SWAP5 PUSH1 0x1 DUP1 PUSH1 0xA0 SHL SUB AND DUP2 MSTORE ADD MSTORE JUMP JUMPDEST SUB SWAP3 GAS CALL SWAP1 DUP2 ISZERO PUSH2 0x2CCA JUMPI DUP5 SWAP2 PUSH2 0x2CAD JUMPI JUMPDEST POP ISZERO PUSH2 0x2C6B JUMPI POP POP SWAP3 DUP3 DUP9 PUSH1 0xA0 SWAP7 SWAP4 PUSH32 0x38A556A122683CB48D496614A7A03605B6C2C0482342924CAF483386980ECC9F PUSH1 0x80 PUSH2 0x2C5D SWAP13 SWAP12 SWAP9 PUSH32 0x971C7EC4A7C96C0A198687499279CCF05D9699970007B5AE5017B1177EE02ED3 SWAP12 SWAP9 MLOAD SWAP1 DUP11 DUP3 MSTORE DUP6 DUP6 DUP4 ADD MSTORE DUP7 DUP3 ADD MSTORE DUP7 PUSH1 0x60 DUP3 ADD MSTORE LOG1 DUP3 MLOAD SWAP7 DUP8 MSTORE DUP7 ADD MSTORE DUP5 ADD MSTORE PUSH1 0x60 DUP4 ADD MSTORE PUSH1 0x80 DUP3 ADD MSTORE LOG1 DUP3 SLOAD PUSH2 0x2898 JUMP JUMPDEST SWAP1 SSTORE CODESIZE DUP1 DUP1 DUP1 DUP1 DUP1 DUP1 PUSH2 0x2A9D JUMP JUMPDEST DUP5 MLOAD PUSH3 0x461BCD PUSH1 0xE5 SHL DUP2 MSTORE SWAP2 DUP3 ADD DUP5 SWAP1 MSTORE PUSH1 0x1B SWAP1 DUP3 ADD MSTORE PUSH32 0x5472616E7366657220746F20626F72726F776572206661696C65640000000000 PUSH1 0x44 DUP3 ADD MSTORE PUSH1 0x64 SWAP1 REVERT JUMPDEST PUSH2 0x2CC4 SWAP2 POP DUP6 RETURNDATASIZE DUP8 GT PUSH2 0x4FB JUMPI PUSH2 0x4EF DUP2 DUP4 PUSH2 0x262A JUMP JUMPDEST CODESIZE PUSH2 0x2BD0 JUMP JUMPDEST DUP7 MLOAD RETURNDATASIZE DUP7 DUP3 RETURNDATACOPY RETURNDATASIZE SWAP1 REVERT JUMPDEST DUP8 MLOAD PUSH3 0x461BCD PUSH1 0xE5 SHL DUP2 MSTORE DUP1 DUP7 ADD DUP9 SWAP1 MSTORE PUSH1 0x1C DUP2 DUP7 ADD MSTORE PUSH32 0x556E7374616B652072657475726E6564207A65726F20746F6B656E7300000000 PUSH1 0x44 DUP3 ADD MSTORE PUSH1 0x64 SWAP1 REVERT JUMPDEST DUP8 MLOAD PUSH3 0x461BCD PUSH1 0xE5 SHL DUP2 MSTORE DUP1 DUP7 ADD DUP9 SWAP1 MSTORE PUSH1 0x22 DUP2 DUP7 ADD MSTORE PUSH32 0x5769746864726177616C206469646E277420696E6372656173652062616C616E PUSH1 0x44 DUP3 ADD MSTORE PUSH2 0x6365 PUSH1 0xF0 SHL PUSH1 0x64 DUP3 ADD MSTORE PUSH1 0x84 SWAP1 REVERT JUMPDEST SWAP1 SWAP11 POP DUP7 DUP2 DUP2 RETURNDATASIZE DUP4 GT PUSH2 0x2D8F JUMPI JUMPDEST PUSH2 0x2D7B DUP2 DUP4 PUSH2 0x262A JUMP JUMPDEST DUP2 ADD SUB SLT PUSH2 0x2D8B JUMPI MLOAD SWAP10 CODESIZE PUSH2 0x2B5F JUMP JUMPDEST DUP6 DUP1 REVERT JUMPDEST POP RETURNDATASIZE PUSH2 0x2D71 JUMP JUMPDEST DUP9 MLOAD RETURNDATASIZE DUP9 DUP3 RETURNDATACOPY RETURNDATASIZE SWAP1 REVERT JUMPDEST SWAP1 SWAP9 POP DUP7 DUP2 DUP2 RETURNDATASIZE DUP4 GT PUSH2 0x2DC8 JUMPI JUMPDEST PUSH2 0x2DB8 DUP2 DUP4 PUSH2 0x262A JUMP JUMPDEST DUP2 ADD SUB SLT PUSH2 0x2D8B JUMPI MLOAD SWAP8 CODESIZE PUSH2 0x2B39 JUMP JUMPDEST POP RETURNDATASIZE PUSH2 0x2DAE JUMP JUMPDEST SWAP1 SWAP10 POP DUP7 DUP2 DUP2 RETURNDATASIZE DUP4 GT PUSH2 0x2DF7 JUMPI JUMPDEST PUSH2 0x2DE7 DUP2 DUP4 PUSH2 0x262A JUMP JUMPDEST DUP2 ADD SUB SLT PUSH2 0x2D8B JUMPI MLOAD SWAP9 CODESIZE PUSH2 0x2AFF JUMP JUMPDEST POP RETURNDATASIZE PUSH2 0x2DDD JUMP JUMPDEST PUSH1 0x64 SWAP2 MLOAD SWAP1 PUSH3 0x461BCD PUSH1 0xE5 SHL DUP3 MSTORE PUSH1 0x4 DUP3 ADD MSTORE PUSH1 0x1A PUSH1 0x24 DUP3 ADD MSTORE PUSH32 0x43616E6E6F7420756E7374616B65207A65726F20616D6F756E74000000000000 PUSH1 0x44 DUP3 ADD MSTORE REVERT JUMPDEST POP PUSH1 0x84 SWAP2 MLOAD SWAP1 PUSH3 0x461BCD PUSH1 0xE5 SHL DUP3 MSTORE PUSH1 0x4 DUP3 ADD MSTORE PUSH1 0x26 PUSH1 0x24 DUP3 ADD MSTORE PUSH32 0x43616E6E6F7420756E7374616B65206D6F7265207468616E207374616B656420 PUSH1 0x44 DUP3 ADD MSTORE PUSH6 0x185B5BDD5B9D PUSH1 0xD2 SHL PUSH1 0x64 DUP3 ADD MSTORE REVERT JUMPDEST SWAP5 POP CODESIZE PUSH2 0x2A92 JUMP JUMPDEST POP PUSH1 0xD DUP7 ADD SLOAD ISZERO PUSH2 0x2A5E JUMP JUMPDEST POP PUSH1 0x8 DUP7 ADD SLOAD ISZERO PUSH2 0x2A57 JUMP JUMPDEST SWAP1 PUSH1 0x0 SWAP1 DUP3 DUP3 MSTORE PUSH1 0x20 SWAP2 PUSH1 0x5 DUP4 MSTORE PUSH1 0x40 PUSH1 0xD DUP2 DUP4 KECCAK256 ADD SWAP3 DUP4 SLOAD DUP2 GT PUSH2 0x32E1 JUMPI DUP1 ISZERO PUSH2 0x329D JUMPI PUSH1 0x2 SLOAD DUP3 MLOAD PUSH4 0x70A08231 PUSH1 0xE0 SHL DUP1 DUP3 MSTORE ADDRESS PUSH1 0x4 DUP1 DUP5 ADD SWAP2 SWAP1 SWAP2 MSTORE SWAP1 SWAP8 SWAP2 SWAP7 SWAP2 SWAP3 PUSH1 0x1 PUSH1 0x1 PUSH1 0xA0 SHL SUB SWAP3 PUSH1 0x24 SWAP2 DUP5 AND DUP6 DUP11 DUP5 DUP2 DUP5 GAS STATICCALL SWAP10 DUP11 ISZERO PUSH2 0x3293 JUMPI DUP10 SWAP11 PUSH2 0x3260 JUMPI JUMPDEST POP SWAP1 DUP6 DUP6 SWAP5 SWAP4 SWAP3 PUSH1 0x64 DUP12 SWAP8 DUP9 SLOAD AND SWAP2 DUP12 MLOAD SWAP13 DUP14 SWAP4 DUP5 SWAP3 PUSH4 0x1A4CA37B PUSH1 0xE2 SHL DUP5 MSTORE DUP10 DUP5 ADD MSTORE DUP13 DUP9 DUP5 ADD MSTORE ADDRESS PUSH1 0x44 DUP5 ADD MSTORE GAS CALL SWAP9 DUP10 ISZERO PUSH2 0x3165 JUMPI DUP6 SWAP10 PUSH2 0x3231 JUMPI JUMPDEST POP DUP6 DUP5 PUSH1 0x2 SLOAD AND SWAP12 DUP4 DUP11 MLOAD DUP1 SWAP15 DUP2 SWAP4 DUP3 MSTORE ADDRESS DUP9 DUP4 ADD MSTORE GAS STATICCALL SWAP11 DUP12 ISZERO PUSH2 0x3165 JUMPI DUP6 SWAP12 PUSH2 0x31FE JUMPI JUMPDEST POP DUP10 DUP12 GT ISZERO PUSH2 0x31B1 JUMPI DUP9 ISZERO PUSH2 0x316F JUMPI PUSH2 0x2F99 DUP10 DUP3 SLOAD PUSH2 0x2898 JUMP JUMPDEST SWAP1 SSTORE PUSH1 0x2 SLOAD PUSH1 0x1 SLOAD DUP9 MLOAD PUSH4 0x95EA7B3 PUSH1 0xE0 SHL DUP2 MSTORE SWAP1 DUP6 AND PUSH1 0x1 PUSH1 0x1 PUSH1 0xA0 SHL SUB AND DUP5 DUP3 ADD SWAP1 DUP2 MSTORE PUSH1 0x20 DUP2 ADD DUP12 SWAP1 MSTORE SWAP1 SWAP2 DUP8 SWAP2 DUP4 SWAP2 DUP8 AND SWAP1 DUP3 SWAP1 DUP10 SWAP1 DUP3 SWAP1 PUSH1 0x40 ADD SUB SWAP3 GAS CALL DUP1 ISZERO PUSH2 0x3165 JUMPI PUSH2 0x3148 JUMPI JUMPDEST POP DUP7 MLOAD SWAP2 PUSH2 0x2FF4 DUP4 PUSH2 0x260E JUMP JUMPDEST PUSH1 0x2 DUP4 MSTORE DUP8 CALLDATASIZE DUP8 DUP6 ADD CALLDATACOPY DUP4 PUSH1 0x2 SLOAD AND PUSH2 0x300C DUP5 PUSH2 0x27B4 JUMP JUMPDEST MSTORE DUP4 PUSH1 0x9 SLOAD AND PUSH2 0x301B DUP5 PUSH2 0x27C1 JUMP JUMPDEST MSTORE PUSH1 0x5F DUP10 MUL SWAP4 DUP10 DUP6 DIV PUSH1 0x5F SUB PUSH2 0x3136 JUMPI PUSH1 0x1 SLOAD AND SWAP2 PUSH2 0x12C TIMESTAMP ADD SWAP1 DUP2 TIMESTAMP GT PUSH2 0x3125 JUMPI POP SWAP1 DUP6 DUP11 PUSH2 0x3068 DUP3 SWAP7 SWAP6 SWAP5 DUP13 MLOAD SWAP9 DUP10 SWAP8 DUP9 SWAP7 DUP8 SWAP6 PUSH4 0x38ED1739 PUSH1 0xE0 SHL DUP8 MSTORE PUSH1 0x64 ADDRESS SWAP5 DIV SWAP2 DUP8 ADD PUSH2 0x285F JUMP JUMPDEST SUB SWAP3 GAS CALL SWAP1 DUP2 ISZERO PUSH2 0x311B JUMPI PUSH1 0x80 DUP4 PUSH2 0x30D2 PUSH32 0x971C7EC4A7C96C0A198687499279CCF05D9699970007B5AE5017B1177EE02ED3 SWAP13 SWAP11 SWAP9 SWAP7 SWAP5 PUSH32 0x38A556A122683CB48D496614A7A03605B6C2C0482342924CAF483386980ECC9F SWAP5 PUSH1 0xA0 SWAP14 SWAP12 SWAP10 SWAP8 SWAP2 PUSH2 0x3101 JUMPI POP PUSH2 0x27C1 JUMP JUMPDEST MLOAD SWAP1 DUP7 MLOAD SWAP2 DUP12 DUP4 MSTORE DUP7 DUP7 DUP5 ADD MSTORE DUP8 DUP4 ADD MSTORE PUSH1 0x60 DUP3 ADD MSTORE LOG1 DUP3 MLOAD SWAP7 DUP8 MSTORE DUP7 ADD MSTORE DUP5 ADD MSTORE PUSH1 0x60 DUP4 ADD MSTORE PUSH1 0x80 DUP3 ADD MSTORE LOG1 JUMP JUMPDEST PUSH2 0x3115 SWAP2 POP RETURNDATASIZE DUP1 DUP6 DUP4 RETURNDATACOPY PUSH2 0x145D DUP2 DUP4 PUSH2 0x262A JUMP JUMPDEST CODESIZE PUSH2 0x12B6 JUMP JUMPDEST DUP6 MLOAD RETURNDATASIZE DUP5 DUP3 RETURNDATACOPY RETURNDATASIZE SWAP1 REVERT JUMPDEST PUSH4 0x4E487B71 PUSH1 0xE0 SHL DUP8 MSTORE PUSH1 0x11 DUP4 MSTORE DUP7 REVERT JUMPDEST POP PUSH4 0x4E487B71 PUSH1 0xE0 SHL DUP6 MSTORE PUSH1 0x11 SWAP1 MSTORE DUP4 REVERT JUMPDEST PUSH2 0x315E SWAP1 DUP7 RETURNDATASIZE DUP9 GT PUSH2 0x4FB JUMPI PUSH2 0x4EF DUP2 DUP4 PUSH2 0x262A JUMP JUMPDEST POP CODESIZE PUSH2 0x2FE7 JUMP JUMPDEST DUP9 MLOAD RETURNDATASIZE DUP8 DUP3 RETURNDATACOPY RETURNDATASIZE SWAP1 REVERT JUMPDEST DUP8 MLOAD PUSH3 0x461BCD PUSH1 0xE5 SHL DUP2 MSTORE DUP1 DUP5 ADD DUP8 SWAP1 MSTORE PUSH1 0x1C DUP2 DUP5 ADD MSTORE PUSH32 0x556E7374616B652072657475726E6564207A65726F20746F6B656E7300000000 PUSH1 0x44 DUP3 ADD MSTORE PUSH1 0x64 SWAP1 REVERT JUMPDEST DUP8 MLOAD PUSH3 0x461BCD PUSH1 0xE5 SHL DUP2 MSTORE DUP1 DUP5 ADD DUP8 SWAP1 MSTORE PUSH1 0x22 DUP2 DUP5 ADD MSTORE PUSH32 0x5769746864726177616C206469646E277420696E6372656173652062616C616E PUSH1 0x44 DUP3 ADD MSTORE PUSH2 0x6365 PUSH1 0xF0 SHL PUSH1 0x64 DUP3 ADD MSTORE PUSH1 0x84 SWAP1 REVERT JUMPDEST SWAP1 SWAP11 POP DUP6 DUP2 DUP2 RETURNDATASIZE DUP4 GT PUSH2 0x322A JUMPI JUMPDEST PUSH2 0x3216 DUP2 DUP4 PUSH2 0x262A JUMP JUMPDEST DUP2 ADD SUB SLT PUSH2 0x3226 JUMPI MLOAD SWAP10 CODESIZE PUSH2 0x2F7F JUMP JUMPDEST DUP5 DUP1 REVERT JUMPDEST POP RETURNDATASIZE PUSH2 0x320C JUMP JUMPDEST SWAP1 SWAP9 POP DUP6 DUP2 DUP2 RETURNDATASIZE DUP4 GT PUSH2 0x3259 JUMPI JUMPDEST PUSH2 0x3249 DUP2 DUP4 PUSH2 0x262A JUMP JUMPDEST DUP2 ADD SUB SLT PUSH2 0x3226 JUMPI MLOAD SWAP8 CODESIZE PUSH2 0x2F59 JUMP JUMPDEST POP RETURNDATASIZE PUSH2 0x323F JUMP JUMPDEST SWAP1 SWAP10 POP DUP6 DUP2 DUP2 RETURNDATASIZE DUP4 GT PUSH2 0x328C JUMPI JUMPDEST PUSH2 0x3278 DUP2 DUP4 PUSH2 0x262A JUMP JUMPDEST DUP2 ADD SUB SLT PUSH2 0x3288 JUMPI MLOAD SWAP9 DUP6 PUSH2 0x2F1A JUMP JUMPDEST DUP9 DUP1 REVERT JUMPDEST POP RETURNDATASIZE PUSH2 0x326E JUMP JUMPDEST DUP9 MLOAD RETURNDATASIZE DUP12 DUP3 RETURNDATACOPY RETURNDATASIZE SWAP1 REVERT JUMPDEST DUP2 MLOAD PUSH3 0x461BCD PUSH1 0xE5 SHL DUP2 MSTORE PUSH1 0x4 DUP2 ADD DUP7 SWAP1 MSTORE PUSH1 0x1A PUSH1 0x24 DUP3 ADD MSTORE PUSH32 0x43616E6E6F7420756E7374616B65207A65726F20616D6F756E74000000000000 PUSH1 0x44 DUP3 ADD MSTORE PUSH1 0x64 SWAP1 REVERT JUMPDEST DUP2 MLOAD PUSH3 0x461BCD PUSH1 0xE5 SHL DUP2 MSTORE PUSH1 0x4 DUP2 ADD DUP7 SWAP1 MSTORE PUSH1 0x26 PUSH1 0x24 DUP3 ADD MSTORE PUSH32 0x43616E6E6F7420756E7374616B65206D6F7265207468616E207374616B656420 PUSH1 0x44 DUP3 ADD MSTORE PUSH6 0x185B5BDD5B9D PUSH1 0xD2 SHL PUSH1 0x64 DUP3 ADD MSTORE PUSH1 0x84 SWAP1 REVERT JUMPDEST PUSH1 0x0 SWAP1 DUP2 MSTORE PUSH1 0x5 PUSH1 0x20 MSTORE PUSH1 0x40 DUP2 KECCAK256 PUSH1 0x2 DUP2 ADD SLOAD SWAP1 SWAP4 SWAP3 DUP2 ISZERO PUSH2 0x339E JUMPI PUSH8 0xDE0B6B3A7640000 SWAP3 DUP4 DUP3 MUL SWAP2 DUP1 DUP4 DIV DUP6 EQ SWAP1 ISZERO OR ISZERO PUSH2 0x338A JUMPI POP SWAP4 PUSH2 0x337C PUSH2 0x3386 SWAP3 PUSH1 0xD SWAP7 PUSH2 0x2725 JUMP JUMPDEST SWAP5 DUP6 SWAP2 ADD SLOAD PUSH2 0x26FC JUMP JUMPDEST DIV SWAP1 JUMP JUMPDEST PUSH4 0x4E487B71 PUSH1 0xE0 SHL DUP2 MSTORE PUSH1 0x11 PUSH1 0x4 MSTORE PUSH1 0x24 SWAP1 REVERT JUMPDEST POP POP DUP1 SWAP3 POP SWAP2 SWAP1 JUMP JUMPDEST ISZERO PUSH2 0x33AE JUMPI JUMP JUMPDEST PUSH1 0x40 MLOAD PUSH3 0x461BCD PUSH1 0xE5 SHL DUP2 MSTORE PUSH1 0x20 PUSH1 0x4 DUP3 ADD MSTORE PUSH1 0xC PUSH1 0x24 DUP3 ADD MSTORE PUSH12 0x8CCACA40E8DEDE40D0D2CED PUSH1 0xA3 SHL PUSH1 0x44 DUP3 ADD MSTORE PUSH1 0x64 SWAP1 REVERT INVALID LOG2 PUSH5 0x6970667358 0x22 SLT KECCAK256 SELFBALANCE 0xAA 0x4C BLOCKHASH 0xDA 0xF8 BASEFEE DUP8 JUMPI 0xD0 0xEA MSTORE8 EQ 0x21 CREATE 0xD1 0xC1 DUP4 ORIGIN GT SLOAD 0xE9 0x2B 0xEC 0xD3 0x2D 0xE3 STOP DELEGATECALL SWAP5 0xD2 SWAP7 PUSH5 0x736F6C6343 STOP ADDMOD EQ STOP CALLER "},"methodIdentifiers":{"aavePool()":"a03e4bc3","accumulatedFees()":"587f5ed7","cbBtcToken()":"0e462386","chainlinkOracle()":"ef06e72c","debugUnstakeCalc(bytes32,uint256)":"5206d2d0","earlyClosureFeeBps()":"0662bcc4","getAmortizationSchedule(bytes32)":"1fc8f4df","getContributions(bytes32)":"86a2e274","getInstallmentSchedule(bytes32)":"6c1945ae","getPrice()":"98d5fdca","getStakedAmount(bytes32)":"337a1737","hasActiveLoan(address)":"21d4f8db","lenders(address)":"28fd10d7","liquidate(bytes32)":"0a71096e","liquidateIfOverdue(bytes32)":"28830d47","loan(uint256,uint256,uint256,address[],uint256[])":"66fb6e5a","loanIds(uint256)":"f8715a42","loans(bytes32)":"c4a90815","markInstallmentPaid(bytes32,uint256)":"c9642d2a","missedPaymentFeeBps()":"63eed603","originationFeeBps()":"31739bb7","owner()":"8da5cb5b","payouts(bytes32,uint256)":"80f2122c","setAavePool(address)":"349f937c","setCbBtcToken(address)":"83cd8fcf","setChainlinkOracle(address)":"7a9b0412","setEarlyClosureFee(uint256)":"dcfc8ebf","setMissedPaymentFee(uint256)":"b2f00452","setOriginationFee(uint256)":"7f2006a0","setSwapRouter(address)":"41273657","swapRouter()":"c31c9c07","usdcToken()":"11eac855","withdrawAccumulatedFees(address)":"c1f10663"}}}}}