{"Contracts/Lending.sol":{"LendingPool":{"abi":[{"inputs":[{"internalType":"address","name":"usdc","type":"address"},{"internalType":"address","name":"_cbBtcToken","type":"address"},{"internalType":"address","name":"oracleAddress","type":"address"},{"internalType":"address","name":"_aavePool","type":"address"},{"internalType":"address","name":"_swapRouter","type":"address"}],"stateMutability":"nonpayable","type":"constructor"},{"anonymous":false,"inputs":[{"indexed":true,"internalType":"address","name":"lender","type":"address"},{"indexed":false,"internalType":"uint256","name":"amount","type":"uint256"}],"name":"Deposit","type":"event"},{"anonymous":false,"inputs":[{"indexed":false,"internalType":"bytes32","name":"loanId","type":"bytes32"},{"indexed":false,"internalType":"uint256","name":"index","type":"uint256"}],"name":"InstallmentPaid","type":"event"},{"anonymous":false,"inputs":[{"indexed":false,"internalType":"bytes32","name":"id","type":"bytes32"},{"indexed":false,"internalType":"uint256","name":"amount","type":"uint256"},{"indexed":false,"internalType":"uint256","name":"collateral","type":"uint256"},{"indexed":false,"internalType":"address","name":"borrower","type":"address"}],"name":"LoanCreated","type":"event"},{"anonymous":false,"inputs":[{"indexed":false,"internalType":"bytes32","name":"id","type":"bytes32"},{"indexed":false,"internalType":"address","name":"borrower","type":"address"},{"indexed":false,"internalType":"uint256","name":"btcPriceNow","type":"uint256"}],"name":"LoanLiquidated","type":"event"},{"anonymous":false,"inputs":[{"indexed":false,"internalType":"bytes32","name":"loanId","type":"bytes32"},{"indexed":false,"internalType":"address","name":"borrower","type":"address"},{"indexed":false,"internalType":"uint256","name":"amount","type":"uint256"},{"indexed":false,"internalType":"bool","name":"fullyRepaid","type":"bool"}],"name":"Payout","type":"event"},{"anonymous":false,"inputs":[{"indexed":false,"internalType":"bytes32","name":"loanId","type":"bytes32"},{"indexed":false,"internalType":"uint256","name":"usdcAmount","type":"uint256"},{"indexed":false,"internalType":"uint256","name":"cbBtcAmount","type":"uint256"}],"name":"TokensStaked","type":"event"},{"anonymous":false,"inputs":[{"indexed":false,"internalType":"bytes32","name":"loanId","type":"bytes32"},{"indexed":false,"internalType":"uint256","name":"cbBtcAmount","type":"uint256"},{"indexed":false,"internalType":"uint256","name":"usdcAmount","type":"uint256"},{"indexed":false,"internalType":"uint256","name":"borrowerCbBtcShare","type":"uint256"}],"name":"TokensUnstaked","type":"event"},{"anonymous":false,"inputs":[{"indexed":true,"internalType":"address","name":"lender","type":"address"},{"indexed":false,"internalType":"uint256","name":"amount","type":"uint256"}],"name":"Withdraw","type":"event"},{"inputs":[],"name":"aavePool","outputs":[{"internalType":"contract IAavePool","name":"","type":"address"}],"stateMutability":"view","type":"function"},{"inputs":[],"name":"cbBtcToken","outputs":[{"internalType":"address","name":"","type":"address"}],"stateMutability":"view","type":"function"},{"inputs":[],"name":"chainlinkOracle","outputs":[{"internalType":"contract AggregatorV3Interface","name":"","type":"address"}],"stateMutability":"view","type":"function"},{"inputs":[{"internalType":"uint256","name":"amount","type":"uint256"}],"name":"deposit","outputs":[],"stateMutability":"nonpayable","type":"function"},{"inputs":[{"internalType":"bytes32","name":"loanId","type":"bytes32"}],"name":"getInstallmentSchedule","outputs":[{"components":[{"internalType":"uint256","name":"duePrincipal","type":"uint256"},{"internalType":"uint256","name":"dueInterest","type":"uint256"},{"internalType":"bool","name":"paid","type":"bool"}],"internalType":"struct LendingPool.Installment[]","name":"","type":"tuple[]"}],"stateMutability":"view","type":"function"},{"inputs":[],"name":"getPrice","outputs":[{"internalType":"int256","name":"","type":"int256"}],"stateMutability":"view","type":"function"},{"inputs":[{"internalType":"address","name":"","type":"address"}],"name":"hasActiveLoan","outputs":[{"internalType":"bool","name":"","type":"bool"}],"stateMutability":"view","type":"function"},{"inputs":[{"internalType":"address","name":"","type":"address"}],"name":"lenders","outputs":[{"internalType":"uint256","name":"deposit","type":"uint256"},{"internalType":"uint256","name":"totalContributed","type":"uint256"},{"internalType":"uint256","name":"remainingDeposit","type":"uint256"},{"internalType":"uint256","name":"depositTimestamp","type":"uint256"}],"stateMutability":"view","type":"function"},{"inputs":[{"internalType":"uint256","name":"","type":"uint256"}],"name":"lendersList","outputs":[{"internalType":"address","name":"","type":"address"}],"stateMutability":"view","type":"function"},{"inputs":[{"internalType":"bytes32","name":"loanId","type":"bytes32"}],"name":"liquidate","outputs":[],"stateMutability":"nonpayable","type":"function"},{"inputs":[{"internalType":"uint256","name":"totalAmount","type":"uint256"},{"internalType":"uint256","name":"durationMonths","type":"uint256"},{"internalType":"uint256","name":"annualInterestRate","type":"uint256"}],"name":"loan","outputs":[],"stateMutability":"nonpayable","type":"function"},{"inputs":[{"internalType":"uint256","name":"","type":"uint256"}],"name":"loanIds","outputs":[{"internalType":"bytes32","name":"","type":"bytes32"}],"stateMutability":"view","type":"function"},{"inputs":[{"internalType":"bytes32","name":"","type":"bytes32"}],"name":"loans","outputs":[{"internalType":"bytes32","name":"id","type":"bytes32"},{"internalType":"address","name":"borrower","type":"address"},{"internalType":"uint256","name":"principal","type":"uint256"},{"internalType":"uint256","name":"borrowerDeposit","type":"uint256"},{"internalType":"uint256","name":"interestRate","type":"uint256"},{"internalType":"uint256","name":"duration","type":"uint256"},{"internalType":"uint256","name":"monthlyPayment","type":"uint256"},{"internalType":"uint256","name":"startTime","type":"uint256"},{"internalType":"uint256","name":"btcPriceAtCreation","type":"uint256"},{"internalType":"bool","name":"isActive","type":"bool"},{"internalType":"uint256","name":"stakedAmount","type":"uint256"},{"internalType":"uint256","name":"remainingPrincipal","type":"uint256"}],"stateMutability":"view","type":"function"},{"inputs":[{"internalType":"bytes32","name":"loanId","type":"bytes32"},{"internalType":"uint256","name":"index","type":"uint256"}],"name":"markInstallmentPaid","outputs":[],"stateMutability":"nonpayable","type":"function"},{"inputs":[],"name":"owner","outputs":[{"internalType":"address","name":"","type":"address"}],"stateMutability":"view","type":"function"},{"inputs":[{"internalType":"bytes32","name":"loanId","type":"bytes32"},{"internalType":"uint256","name":"usdcAmount","type":"uint256"}],"name":"payouts","outputs":[],"stateMutability":"nonpayable","type":"function"},{"inputs":[{"internalType":"address","name":"_aavePool","type":"address"}],"name":"setAavePool","outputs":[],"stateMutability":"nonpayable","type":"function"},{"inputs":[{"internalType":"address","name":"_cbBtcToken","type":"address"}],"name":"setCbBtcToken","outputs":[],"stateMutability":"nonpayable","type":"function"},{"inputs":[{"internalType":"address","name":"oracleAddress","type":"address"}],"name":"setChainlinkOracle","outputs":[],"stateMutability":"nonpayable","type":"function"},{"inputs":[{"internalType":"address","name":"_swapRouter","type":"address"}],"name":"setSwapRouter","outputs":[],"stateMutability":"nonpayable","type":"function"},{"inputs":[],"name":"swapRouter","outputs":[{"internalType":"contract ISwapRouter","name":"","type":"address"}],"stateMutability":"view","type":"function"},{"inputs":[],"name":"usdcToken","outputs":[{"internalType":"address","name":"","type":"address"}],"stateMutability":"view","type":"function"},{"inputs":[{"internalType":"uint256","name":"amount","type":"uint256"}],"name":"withdraw","outputs":[],"stateMutability":"nonpayable","type":"function"}],"evm":{"bytecode":{"linkReferences":{},"object":"608034620000ec57601f620027e338819003918201601f19168301916001600160401b03831184841017620000f15780849260a094604052833981010312620000ec576200004d8162000107565b906200005c6020820162000107565b906200006b6040820162000107565b91620000886080620000806060850162000107565b930162000107565b9160018060a01b0319943386600954161760095560018060a01b03948580948180941689600a541617600a55168760025416176002551685600354161760035516836000541617600055169060015416176001556040516126c690816200011d8239f35b600080fd5b634e487b7160e01b600052604160045260246000fd5b51906001600160a01b0382168203620000ec5756fe6080604052600436101561001257600080fd5b6000803560e01c80630a71096e14611c475780630e46238614611c1e57806311eac85514611bf557806321d4f8db14611bb357806328fd10d714611b535780632e1a7d4d14611a2c578063349f937c146119e357806341273657146119965780636c1945ae146118a95780637a9b04121461185c57806380f2122c1461112557806383cd8fcf146110d8578063864a83b2146105e25780638da5cb5b146105b957806398d5fdca14610596578063a03e4bc31461056f578063b6b55f25146103d7578063c31c9c07146103ae578063c4a90815146102fb578063c7c92222146102b7578063c9642d2a1461017e578063ef06e72c146101555763f8715a421461011a57600080fd5b34610152576020366003190112610152576004359060085482101561015257602061014483611f48565b90546040519160031b1c8152f35b80fd5b50346101525780600319360112610152576003546040516001600160a01b039091168152602090f35b50346101525761018d36611ee0565b906101a360018060a01b0360095416331461234a565b8083526005602052600b604084206101c160ff6009830154166123a0565b019081548310156102725760ff60026101da858561232e565b5001541661022d578260026102127f3d05ac2057427ac2f84502e7efefebf5ae10d9529129c2979ce60fb97d4606149560409561232e565b5001805460ff1916600117905582519182526020820152a180f35b60405162461bcd60e51b815260206004820152601f60248201527f496e7374616c6c6d656e7420616c7265616479206d61726b65642070616964006044820152606490fd5b60405162461bcd60e51b815260206004820152601960248201527f496e76616c696420696e7374616c6c6d656e7420696e646578000000000000006044820152606490fd5b503461015257602036600319011261015257600435906007548210156101525760206102e283611efb565b905460405160039290921b1c6001600160a01b03168152f35b503461015257602036600319011261015257604061018091600435815260056020522080549060018060a01b0360018201541690600281015460038201546004830154600584015460068501549060078601549260088701549460ff60098901541696600d600c8a0154990154996040519b8c5260208c015260408b015260608a0152608089015260a088015260c087015260e08601526101008501521515610120840152610140830152610160820152f35b50346101525780600319360112610152576001546040516001600160a01b039091168152602090f35b50346101525760208060031936011261056b57600435906103f9821515612077565b600a546040516323b872dd60e01b8152336004820152306024820152604481018490526001600160a01b0391839082906064908290899087165af1801561056057610533575b50338452600482526040842054156104c4575b507fe1fffcc4923d04b559f4d29a8bfc6cda04eb5b0d3c460751c2402c5c5cc9109c90338452600481526040842061048b8482546120cc565b905533845260048152600260408520016104a68482546120cc565b9055338452600481524260036040862001556040519283523392a280f35b600754600160401b81101561051f57906105068260017fe1fffcc4923d04b559f4d29a8bfc6cda04eb5b0d3c460751c2402c5c5cc9109c959401600755611efb565b819291549060031b9133831b921b191617905590610452565b634e487b7160e01b85526041600452602485fd5b61055290833d8511610559575b61054a8183611fb1565b8101906120b4565b503861043f565b503d610540565b6040513d87823e3d90fd5b5080fd5b5034610152578060031936011261015257546040516001600160a01b039091168152602090f35b503461015257806003193601126101525760206105b1611fea565b604051908152f35b50346101525780600319360112610152576009546040516001600160a01b039091168152602090f35b50346101525760603660031901126101525760043515906106038215612077565b602435156110a057338152600660205260ff60408220541661104f57601460043502916004358304601414171561103b57610643606483046004356120ef565b600a546040516323b872dd60e01b81523360048201523060248201526064808604604483015290916020918391829087906001600160a01b03165af1801561103057611011575b5060075490610698826120fc565b916106a66040519384611fb1565b808352601f196106b5826120fc565b01366020850137835b818110610fe35750506001905b82518210156107d3576001600160a01b036106e68385612131565b5116908185526004602052600360408620015495836000198101136001166107bf5760001984015b8681121580610794575b1561076c576001600160a01b0361072f8288612131565b511661074361073d836123e1565b88612131565b52600160ff1b8114610758576000190161070e565b634e487b7160e01b87526011600452602487fd5b61078e93919750610782610788919593956123e1565b86612131565b5261225c565b906106cb565b506001600160a01b036107a78288612131565b51168752600460205287600360408920015411610718565b634e487b7160e01b86526011600452602486fd5b8284868160405160208101903360601b8252426034820152603481526107f881611f7f565b5190209384845260056020526064604085209386855560018501336001600160601b0360a01b8254161790558760028601550460038401556044356004840155602435600584015542600784015561084e611fea565b600884015560098301600160ff1982541617905585600d840155835b8151811080610fda575b15610a3c576001600160a01b0361088b8284612131565b5116808652600460205260026040872001548015610a3157806108ae868b6120ef565b1015610a2b57506108bf84896120ef565b935b8415610a1f5784610909918389526004602052600260408a20016108e68382546120ef565b90558389526004602052600160408a20016109028382546120cc565b90556120cc565b936104b061092460243561091f60443585612145565b612145565b0490604051928360a081011067ffffffffffffffff60a086011117610a0b5760a08401604052835260208301526040820152856060820152856080820152600a850154600160401b8110156109f7578060016109899201600a880155600a870161226b565b9190916109e357805182546001600160a01b0319166001600160a01b0391909116178255602081015160018301556040810151600283015560608101516003830155608001516004909101556109de9061225c565b61086a565b634e487b7160e01b87526004879052602487fd5b634e487b7160e01b87526041600452602487fd5b634e487b7160e01b89526041600452602489fd5b9350506109de9061225c565b936108c1565b50506109de9061225c565b50509380929403610f9557670de0b6b3a764000060443502906044358204670de0b6b3a764000014604435151715610e2557610a7c6104b0830484612145565b6104b08304670de0b6b3a76400000180670de0b6b3a764000011610758578015610f8157610ab79060243590670de0b6b3a764000004612287565b670de0b6b3a76400000390670de0b6b3a7640000821161075857600691610add91612158565b91015582845260056020526040842091600683015485915b6024358310610e6c578686600854600160401b811015610e5857806001610b1f9201600855611f48565b815460001960039290921b91821b19169083901b179055338252600660209081526040808420805460ff19166001908117909155838552600583528185206002810154600a549254935163095ea7b360e01b81526001600160a01b039485166004820152602481018290529194909391929091839160449183918a91165af1801561056057610e39575b5060405190610bb782611f7f565b600282526040366020840137600a546001600160a01b0316610bd883612114565b526002546001600160a01b0316610bee83612121565b5280605f810204605f1481151715610e25576001546001600160a01b0316904261012c8101106107bf57918591610c4c93836040518096819582946338ed173960e01b845261012c42019130916064605f82020490600487016121f2565b03925af18015610e1a57610c67918591610df8575b50612121565b518284526005602090815260408086206002548754925163095ea7b360e01b81526001600160a01b0393841660048201526024810186905291939192839160449183918b91165af18015610dca57610dd9575b50845460025486916001600160a01b039182169116803b15610dd55760848392604051948593849263617ba03760e01b845260048401528860248401523060448401528160648401525af18015610dca57610d99575b506080927faeec09af87559b9077da2e499d1fad2e228d7c24cb4b566fe61976820abaadda6060846002857f65410888fb30edd04f6acfb2f6cfd92aaf0ebb9b5303b6286d65d0b031b5b7f79997600c60039801550154906040519187835260208301526040820152a1015460405191825260043560208301526040820152336060820152a180f35b67ffffffffffffffff8196929611610db657604052936080610d10565b634e487b7160e01b82526041600452602482fd5b6040513d88823e3d90fd5b8280fd5b610df19060203d6020116105595761054a8183611fb1565b5085610cba565b610e1491503d8087833e610e0c8183611fb1565b810190612178565b85610c61565b6040513d86823e3d90fd5b634e487b7160e01b85526011600452602485fd5b610e519060203d6020116105595761054a8183611fb1565b5084610ba9565b634e487b7160e01b83526041600452602483fd5b670de0b6b3a7640000610e836104b0860483612145565b0490610e8f82846120ef565b91602435600019810111610f6d57602435600019018514610f58575b60405190610eb882611f7f565b8382526020820152886040820152600b870154600160401b811015610f4457806001610eed9201600b8a0155600b890161232e565b610f3057918160406002610f2495610f2a97955181556020840151600182015501910151151560ff801983541691161790556120ef565b9261225c565b91610af5565b634e487b7160e01b8a5260048a905260248afd5b634e487b7160e01b8a52604160045260248afd5b9250905080610f6783826120cc565b92610eab565b634e487b7160e01b89526011600452602489fd5b634e487b7160e01b87526012600452602487fd5b60405162461bcd60e51b815260206004820152601760248201527f4e6f7420656e6f756768206c656e6465722066756e64730000000000000000006044820152606490fd5b50868310610874565b80610ff061100c92611efb565b905460039190911b1c6001600160a01b03166107888287612131565b6106be565b6110299060203d6020116105595761054a8183611fb1565b503861068a565b6040513d85823e3d90fd5b634e487b7160e01b81526011600452602490fd5b60405162461bcd60e51b815260206004820152602360248201527f426f72726f77657220616c72656164792068617320616e20616374697665206c60448201526237b0b760e91b6064820152608490fd5b60405162461bcd60e51b815260206004820152601060248201526f24b73b30b634b210323ab930ba34b7b760811b6044820152606490fd5b5034610152576020366003190112610152576004356001600160a01b0381811691829003610dd55761110f9060095416331461234a565b6001600160601b0360a01b600254161760025580f35b50346101525761113436611ee0565b81835260056020526040832061115060ff6009830154166123a0565b60018101546001600160a01b0316330361181757600a546040516323b872dd60e01b815233600482015230602482015260448101849052906020908290606490829089906001600160a01b03165af18015610560576117f8575b506111b3611fea565b848113156117bf57670de0b6b3a76400008302838104670de0b6b3a764000014841517156107bf57906111e591612158565b8491855b600b8201548110806117b6575b156117ac5761120881600b840161232e565b5094600286015460ff811661179f5786549460018801549761122a89886120cc565b928383106113e35792879261124e92600260016112549760ff1916179101556120ef565b966120cc565b94600284015495895b600a86015481101561139c5761127681600a880161226b565b50600181015480670de0b6b3a7640000810204670de0b6b3a76400001481151715611388578c61133f93928c61130f670de0b6b3a76400006112d48f8f906112cd6112c685928360209c02612158565b8093612145565b0494612145565b04600384016112e48482546120cc565b9055600484016112f58282546120cc565b9055600a5493546001600160a01b039485169416926120cc565b60405163a9059cbb60e01b81526001600160a01b0390921660048301526024820152948592839182906044820190565b03925af191821561137d576113599261135e575b5061225c565b61125d565b6113769060203d6020116105595761054a8183611fb1565b5038611353565b6040513d8e823e3d90fd5b634e487b7160e01b8d52601160045260248dfd5b509550955092506113db907f3d05ac2057427ac2f84502e7efefebf5ae10d9529129c2979ce60fb97d46061460408051898152836020820152a161225c565b9391936111e9565b505050509392505092505b600d83016113fd8282546120ef565b905580159081156114e9575b505060019184600b820154905b8181106114b3575b5050917fdc376abd09229a842ac7d8bcadc9017651f1f1b8490750870cae0ecd4aedf67493916080938261146a575b50604051928352336020840152604083015215156060820152a180f35b60098101805460ff1990811690915560018201546001600160a01b0316885260066020526040882080549091169055600c0154801561144d576114ad90846123fe565b3861144d565b60ff60026114c483600b870161232e565b50015416156114db576114d69061225c565b611416565b50859350829050608061141e565b8486526005602052604086209181670de0b6b3a7640000810204670de0b6b3a76400001417156107bf5781600c61153361153b93670de0b6b3a76400006002819701549102612158565b910154612145565b04806115a9575b508284526005602052604084208485600a83018054905b81831061157d57505050611573600d9160028401546120ef565b9101553880611409565b90919261159c6115a2916003611593878661226b565b500154906120cc565b9361225c565b9190611559565b83855260056020526040852090600c820154811161174b578554600254604051631a4ca37b60e21b81526001600160a01b0391821660048201526024810193909352306044840152602091839160649183918b91165af1908115610dca578691611715575b5061161d81600c8401546120ef565b600c830155806019810204601914811517156107bf57806064601961169093020460208161164b81856120ef565b60025460019097015460405163a9059cbb60e01b81526001600160a01b03918216600482015260248101939093529096919586929091169082908c9082906044820190565b03925af1801561170a577f38a556a122683cb48d496614a7a03605b6c2c0482342924caf483386980ecc9f946080946116ce926116eb575b5061254d565b60405192888452602084015260408301526060820152a138611542565b6117039060203d6020116105595761054a8183611fb1565b50386116c8565b6040513d8a823e3d90fd5b90506020813d602011611743575b8161173060209383611fb1565b8101031261173f57513861160e565b8580fd5b3d9150611723565b60405162461bcd60e51b815260206004820152602660248201527f43616e6e6f7420756e7374616b65206d6f7265207468616e207374616b656420604482015265185b5bdd5b9d60d21b6064820152608490fd5b509294506113db9061225c565b50929190506113ee565b508215156111f6565b60405162461bcd60e51b8152602060048201526011602482015270496e76616c69642042544320707269636560781b6044820152606490fd5b6118109060203d6020116105595761054a8183611fb1565b50386111aa565b60405162461bcd60e51b815260206004820152601760248201527f4f6e6c7920626f72726f7765722063616e2072657061790000000000000000006044820152606490fd5b5034610152576020366003190112610152576004356001600160a01b0381811691829003610dd5576118939060095416331461234a565b6001600160601b0360a01b600354161760035580f35b503461015257602090816003193601126101525790600435825260058152600b604083200180546118d9816120fc565b906118e76040519283611fb1565b8082528382018093865284862086915b83831061195157505050506040519280840191818552518092526040840192945b8281106119255784840385f35b855180518552808301518584015260409081015115159085015294810194606090930192600101611918565b60038760019260409a9997989a5161196881611f7f565b85548152848601548382015260ff6002870154161515604082015281520192019201919096949395966118f7565b5034610152576020366003190112610152576004356001600160a01b0381811691829003610dd5576119cd9060095416331461234a565b6001600160601b0360a01b600154161760015580f35b5034610152576020366003190112610152576004356001600160a01b0381811691829003610dd557611a1a9060095416331461234a565b81546001600160a01b03191617815580f35b50346101525760208060031936011261056b57600435903383526004815281600260408520015410611b18573383526004815260026040842001611a718382546120ef565b90553383526004815260408320611a898382546120ef565b9055600a5460405163a9059cbb60e01b815233600482015260248101849052919081908390604490829088906001600160a01b03165af1918215610e1a577f884edad9ce6fa2440d8a54cc123490eb96d2768479d49ff9c7366125a942436492611afb575b506040519283523392a280f35b611b1190823d84116105595761054a8183611fb1565b5038611aee565b6064906040519062461bcd60e51b825260048201526014602482015273496e73756666696369656e742062616c616e636560601b6044820152fd5b5034610152576020366003190112610152576004356001600160a01b0381169081900361056b5781604091608093526004602052208054906001810154906003600282015491015491604051938452602084015260408301526060820152f35b5034610152576020366003190112610152576004356001600160a01b0381169081900361056b5760408260ff9260209452600684522054166040519015158152f35b5034610152578060031936011261015257600a546040516001600160a01b039091168152602090f35b50346101525780600319360112610152576002546040516001600160a01b039091168152602090f35b503461015257602036600319011261015257611c6e60018060a01b0360095416331461234a565b60043581526005602052604081206009810190815491611c9060ff84166123a0565b611c98611fea565b92600c8301906305f5e100611cae868454612145565b0492600d8501938454606981029080820460691490151715610f6d576064900410611e7d5760ff19918216905560018401546001600160a01b03168652600660205260408620805490911690555480611e6b575b50600382015490549081611d5f575b5050600101546040805160043581526001600160a01b0390921660208301528101919091527fcab88a55906c5830a49dddd8b31d115294a5e6c4210f25fe140530a39c51dc7490606090a180f35b9091845b600a820154811015611e5e57611d7c81600a840161226b565b50611d9060018201546003830154906120ef565b8015611e535780670de0b6b3a7640000810204670de0b6b3a764000003611e3f57611e169291670de0b6b3a7640000611dd6611dd0898360209602612158565b88612145565b600a54925460405163a9059cbb60e01b81526001600160a01b039182166004820152929091046024830152909485929091169082908b9082906044820190565b03925af1918215611e3457611e2f9261135e575061225c565b611d63565b6040513d89823e3d90fd5b634e487b7160e01b88526011600452602488fd5b5050611e2f9061225c565b5091508290506060611d11565b611e77906004356123fe565b38611d02565b60405162461bcd60e51b815260206004820152603560248201527f4254432076616c756520686173206e6f742064726f707065642062656c6f77206044820152741b1a5c5d5a59185d1a5bdb881d1a1c995cda1bdb19605a1b6064820152608490fd5b6040906003190112611ef6576004359060243590565b600080fd5b600754811015611f325760076000527fa66cc928b5edb82af9bd49922954155ab7b0942694bea4ce44661d9a8736c6880190600090565b634e487b7160e01b600052603260045260246000fd5b600854811015611f325760086000527ff3f7a9fe364faab93b216da50a3214154f22a0a2b415b23a84c8169e8b636ee30190600090565b6060810190811067ffffffffffffffff821117611f9b57604052565b634e487b7160e01b600052604160045260246000fd5b90601f8019910116810190811067ffffffffffffffff821117611f9b57604052565b519069ffffffffffffffffffff82168203611ef657565b600354604051633fabe5a360e21b81529060a090829060049082906001600160a01b03165afa90811561206b57600091612022575090565b9060a0823d8211612063575b8161203b60a09383611fb1565b81010312610152575061204d81611fd3565b5061205f608060208301519201611fd3565b5090565b3d915061202e565b6040513d6000823e3d90fd5b1561207e57565b60405162461bcd60e51b815260206004820152600e60248201526d125b9d985b1a5908185b5bdd5b9d60921b6044820152606490fd5b90816020910312611ef657518015158103611ef65790565b919082018092116120d957565b634e487b7160e01b600052601160045260246000fd5b919082039182116120d957565b67ffffffffffffffff8111611f9b5760051b60200190565b805115611f325760200190565b805160011015611f325760400190565b8051821015611f325760209160051b010190565b818102929181159184041417156120d957565b8115612162570490565b634e487b7160e01b600052601260045260246000fd5b6020908181840312611ef65780519067ffffffffffffffff8211611ef657019180601f84011215611ef65782516121ae816120fc565b936121bc6040519586611fb1565b818552838086019260051b820101928311611ef6578301905b8282106121e3575050505090565b815181529083019083016121d5565b9291909594939560a084019084526020918285015260a0604085015282518091528160c0850193019160005b82811061223f5750505050906080919460018060a01b031660608201520152565b83516001600160a01b03168552938101939281019260010161221e565b60001981146120d95760010190565b8054821015611f32576000526005602060002091020190600090565b908015612327578115612320578180600114612318576002146123075760208110610133831016604e8210600b8410161761230257600190815b8082116122d9575050816000190481116120d9570290565b9092806000190481116120d9578184166122f9575b800292811c906122c1565b809202916122ee565b900a90565b905060ff81116120d9576001901b90565b505050600190565b5050600090565b5050600190565b8054821015611f32576000526003602060002091020190600090565b1561235157565b60405162461bcd60e51b815260206004820152602160248201527f4f6e6c79206f776e65722063616e2063616c6c20746869732066756e6374696f6044820152603760f91b6064820152608490fd5b156123a757565b60405162461bcd60e51b81526020600482015260126024820152714c6f616e206973206e6f742061637469766560701b6044820152606490fd5b90600182019160006001841291129080158216911516176120d957565b9060009082825260209060058252604090600c82852001805482116124fa5784546002548451631a4ca37b60e21b81526001600160a01b03918216600482015260248101949094523060448501528591849160649183918a91165af19182156124f05785926124bc575b5091818361249d7f38a556a122683cb48d496614a7a03605b6c2c0482342924caf483386980ecc9f98969460809896546120ef565b90556124a88161254d565b9282519586528501528301526060820152a1565b9091508381813d83116124e9575b6124d48183611fb1565b810103126124e55751906080612468565b8480fd5b503d6124ca565b83513d87823e3d90fd5b825162461bcd60e51b815260048101859052602660248201527f43616e6e6f7420756e7374616b65206d6f7265207468616e207374616b656420604482015265185b5bdd5b9d60d21b6064820152608490fd5b6002546001546040805163095ea7b360e01b81526001600160a01b03928316600482015260248101859052600095949193919291602090829060449082908a9087165af1801561268657612668575b5082516125a881611f7f565b600281528336602083013781600254166125c182612114565b5281600a54166125d082612121565b52605f830291838304605f148415171561075857600154169061012c420193844211611e3f579087809493926126218851978896879586946338ed173960e01b8652606430930490600487016121f2565b03925af191821561265f575083612640939492612644575b5050612121565b5190565b61265892503d8091833e610e0c8183611fb1565b3880612639565b513d85823e3d90fd5b61267f9060203d81116105595761054a8183611fb1565b503861259c565b84513d88823e3d90fdfea264697066735822122064de75b2011f51ef1d087c31bd8e7c40faf5da3a2bba35ef304c99279778debd64736f6c63430008140033","opcodes":"PUSH1 0x80 CALLVALUE PUSH3 0xEC JUMPI PUSH1 0x1F PUSH3 0x27E3 CODESIZE DUP2 SWAP1 SUB SWAP2 DUP3 ADD PUSH1 0x1F NOT AND DUP4 ADD SWAP2 PUSH1 0x1 PUSH1 0x1 PUSH1 0x40 SHL SUB DUP4 GT DUP5 DUP5 LT OR PUSH3 0xF1 JUMPI DUP1 DUP5 SWAP3 PUSH1 0xA0 SWAP5 PUSH1 0x40 MSTORE DUP4 CODECOPY DUP2 ADD SUB SLT PUSH3 0xEC JUMPI PUSH3 0x4D DUP2 PUSH3 0x107 JUMP JUMPDEST SWAP1 PUSH3 0x5C PUSH1 0x20 DUP3 ADD PUSH3 0x107 JUMP JUMPDEST SWAP1 PUSH3 0x6B PUSH1 0x40 DUP3 ADD PUSH3 0x107 JUMP JUMPDEST SWAP2 PUSH3 0x88 PUSH1 0x80 PUSH3 0x80 PUSH1 0x60 DUP6 ADD PUSH3 0x107 JUMP JUMPDEST SWAP4 ADD PUSH3 0x107 JUMP JUMPDEST SWAP2 PUSH1 0x1 DUP1 PUSH1 0xA0 SHL SUB NOT SWAP5 CALLER DUP7 PUSH1 0x9 SLOAD AND OR PUSH1 0x9 SSTORE PUSH1 0x1 DUP1 PUSH1 0xA0 SHL SUB SWAP5 DUP6 DUP1 SWAP5 DUP2 DUP1 SWAP5 AND DUP10 PUSH1 0xA SLOAD AND OR PUSH1 0xA SSTORE AND DUP8 PUSH1 0x2 SLOAD AND OR PUSH1 0x2 SSTORE AND DUP6 PUSH1 0x3 SLOAD AND OR PUSH1 0x3 SSTORE AND DUP4 PUSH1 0x0 SLOAD AND OR PUSH1 0x0 SSTORE AND SWAP1 PUSH1 0x1 SLOAD AND OR PUSH1 0x1 SSTORE PUSH1 0x40 MLOAD PUSH2 0x26C6 SWAP1 DUP2 PUSH3 0x11D DUP3 CODECOPY RETURN JUMPDEST PUSH1 0x0 DUP1 REVERT JUMPDEST PUSH4 0x4E487B71 PUSH1 0xE0 SHL PUSH1 0x0 MSTORE PUSH1 0x41 PUSH1 0x4 MSTORE PUSH1 0x24 PUSH1 0x0 REVERT JUMPDEST MLOAD SWAP1 PUSH1 0x1 PUSH1 0x1 PUSH1 0xA0 SHL SUB DUP3 AND DUP3 SUB PUSH3 0xEC JUMPI JUMP INVALID PUSH1 0x80 PUSH1 0x40 MSTORE PUSH1 0x4 CALLDATASIZE LT ISZERO PUSH2 0x12 JUMPI PUSH1 0x0 DUP1 REVERT JUMPDEST PUSH1 0x0 DUP1 CALLDATALOAD PUSH1 0xE0 SHR DUP1 PUSH4 0xA71096E EQ PUSH2 0x1C47 JUMPI DUP1 PUSH4 0xE462386 EQ PUSH2 0x1C1E JUMPI DUP1 PUSH4 0x11EAC855 EQ PUSH2 0x1BF5 JUMPI DUP1 PUSH4 0x21D4F8DB EQ PUSH2 0x1BB3 JUMPI DUP1 PUSH4 0x28FD10D7 EQ PUSH2 0x1B53 JUMPI DUP1 PUSH4 0x2E1A7D4D EQ PUSH2 0x1A2C JUMPI DUP1 PUSH4 0x349F937C EQ PUSH2 0x19E3 JUMPI DUP1 PUSH4 0x41273657 EQ PUSH2 0x1996 JUMPI DUP1 PUSH4 0x6C1945AE EQ PUSH2 0x18A9 JUMPI DUP1 PUSH4 0x7A9B0412 EQ PUSH2 0x185C JUMPI DUP1 PUSH4 0x80F2122C EQ PUSH2 0x1125 JUMPI DUP1 PUSH4 0x83CD8FCF EQ PUSH2 0x10D8 JUMPI DUP1 PUSH4 0x864A83B2 EQ PUSH2 0x5E2 JUMPI DUP1 PUSH4 0x8DA5CB5B EQ PUSH2 0x5B9 JUMPI DUP1 PUSH4 0x98D5FDCA EQ PUSH2 0x596 JUMPI DUP1 PUSH4 0xA03E4BC3 EQ PUSH2 0x56F JUMPI DUP1 PUSH4 0xB6B55F25 EQ PUSH2 0x3D7 JUMPI DUP1 PUSH4 0xC31C9C07 EQ PUSH2 0x3AE JUMPI DUP1 PUSH4 0xC4A90815 EQ PUSH2 0x2FB JUMPI DUP1 PUSH4 0xC7C92222 EQ PUSH2 0x2B7 JUMPI DUP1 PUSH4 0xC9642D2A EQ PUSH2 0x17E JUMPI DUP1 PUSH4 0xEF06E72C EQ PUSH2 0x155 JUMPI PUSH4 0xF8715A42 EQ PUSH2 0x11A JUMPI PUSH1 0x0 DUP1 REVERT JUMPDEST CALLVALUE PUSH2 0x152 JUMPI PUSH1 0x20 CALLDATASIZE PUSH1 0x3 NOT ADD SLT PUSH2 0x152 JUMPI PUSH1 0x4 CALLDATALOAD SWAP1 PUSH1 0x8 SLOAD DUP3 LT ISZERO PUSH2 0x152 JUMPI PUSH1 0x20 PUSH2 0x144 DUP4 PUSH2 0x1F48 JUMP JUMPDEST SWAP1 SLOAD PUSH1 0x40 MLOAD SWAP2 PUSH1 0x3 SHL SHR DUP2 MSTORE RETURN JUMPDEST DUP1 REVERT JUMPDEST POP CALLVALUE PUSH2 0x152 JUMPI DUP1 PUSH1 0x3 NOT CALLDATASIZE ADD SLT PUSH2 0x152 JUMPI PUSH1 0x3 SLOAD PUSH1 0x40 MLOAD PUSH1 0x1 PUSH1 0x1 PUSH1 0xA0 SHL SUB SWAP1 SWAP2 AND DUP2 MSTORE PUSH1 0x20 SWAP1 RETURN JUMPDEST POP CALLVALUE PUSH2 0x152 JUMPI PUSH2 0x18D CALLDATASIZE PUSH2 0x1EE0 JUMP JUMPDEST SWAP1 PUSH2 0x1A3 PUSH1 0x1 DUP1 PUSH1 0xA0 SHL SUB PUSH1 0x9 SLOAD AND CALLER EQ PUSH2 0x234A JUMP JUMPDEST DUP1 DUP4 MSTORE PUSH1 0x5 PUSH1 0x20 MSTORE PUSH1 0xB PUSH1 0x40 DUP5 KECCAK256 PUSH2 0x1C1 PUSH1 0xFF PUSH1 0x9 DUP4 ADD SLOAD AND PUSH2 0x23A0 JUMP JUMPDEST ADD SWAP1 DUP2 SLOAD DUP4 LT ISZERO PUSH2 0x272 JUMPI PUSH1 0xFF PUSH1 0x2 PUSH2 0x1DA DUP6 DUP6 PUSH2 0x232E JUMP JUMPDEST POP ADD SLOAD AND PUSH2 0x22D JUMPI DUP3 PUSH1 0x2 PUSH2 0x212 PUSH32 0x3D05AC2057427AC2F84502E7EFEFEBF5AE10D9529129C2979CE60FB97D460614 SWAP6 PUSH1 0x40 SWAP6 PUSH2 0x232E JUMP JUMPDEST POP ADD DUP1 SLOAD PUSH1 0xFF NOT AND PUSH1 0x1 OR SWAP1 SSTORE DUP3 MLOAD SWAP2 DUP3 MSTORE PUSH1 0x20 DUP3 ADD MSTORE LOG1 DUP1 RETURN JUMPDEST PUSH1 0x40 MLOAD PUSH3 0x461BCD PUSH1 0xE5 SHL DUP2 MSTORE PUSH1 0x20 PUSH1 0x4 DUP3 ADD MSTORE PUSH1 0x1F PUSH1 0x24 DUP3 ADD MSTORE PUSH32 0x496E7374616C6C6D656E7420616C7265616479206D61726B6564207061696400 PUSH1 0x44 DUP3 ADD MSTORE PUSH1 0x64 SWAP1 REVERT JUMPDEST PUSH1 0x40 MLOAD PUSH3 0x461BCD PUSH1 0xE5 SHL DUP2 MSTORE PUSH1 0x20 PUSH1 0x4 DUP3 ADD MSTORE PUSH1 0x19 PUSH1 0x24 DUP3 ADD MSTORE PUSH32 0x496E76616C696420696E7374616C6C6D656E7420696E64657800000000000000 PUSH1 0x44 DUP3 ADD MSTORE PUSH1 0x64 SWAP1 REVERT JUMPDEST POP CALLVALUE PUSH2 0x152 JUMPI PUSH1 0x20 CALLDATASIZE PUSH1 0x3 NOT ADD SLT PUSH2 0x152 JUMPI PUSH1 0x4 CALLDATALOAD SWAP1 PUSH1 0x7 SLOAD DUP3 LT ISZERO PUSH2 0x152 JUMPI PUSH1 0x20 PUSH2 0x2E2 DUP4 PUSH2 0x1EFB JUMP JUMPDEST SWAP1 SLOAD PUSH1 0x40 MLOAD PUSH1 0x3 SWAP3 SWAP1 SWAP3 SHL SHR PUSH1 0x1 PUSH1 0x1 PUSH1 0xA0 SHL SUB AND DUP2 MSTORE RETURN JUMPDEST POP CALLVALUE PUSH2 0x152 JUMPI PUSH1 0x20 CALLDATASIZE PUSH1 0x3 NOT ADD SLT PUSH2 0x152 JUMPI PUSH1 0x40 PUSH2 0x180 SWAP2 PUSH1 0x4 CALLDATALOAD DUP2 MSTORE PUSH1 0x5 PUSH1 0x20 MSTORE KECCAK256 DUP1 SLOAD SWAP1 PUSH1 0x1 DUP1 PUSH1 0xA0 SHL SUB PUSH1 0x1 DUP3 ADD SLOAD AND SWAP1 PUSH1 0x2 DUP2 ADD SLOAD PUSH1 0x3 DUP3 ADD SLOAD PUSH1 0x4 DUP4 ADD SLOAD PUSH1 0x5 DUP5 ADD SLOAD PUSH1 0x6 DUP6 ADD SLOAD SWAP1 PUSH1 0x7 DUP7 ADD SLOAD SWAP3 PUSH1 0x8 DUP8 ADD SLOAD SWAP5 PUSH1 0xFF PUSH1 0x9 DUP10 ADD SLOAD AND SWAP7 PUSH1 0xD PUSH1 0xC DUP11 ADD SLOAD SWAP10 ADD SLOAD SWAP10 PUSH1 0x40 MLOAD SWAP12 DUP13 MSTORE PUSH1 0x20 DUP13 ADD MSTORE PUSH1 0x40 DUP12 ADD MSTORE PUSH1 0x60 DUP11 ADD MSTORE PUSH1 0x80 DUP10 ADD MSTORE PUSH1 0xA0 DUP9 ADD MSTORE PUSH1 0xC0 DUP8 ADD MSTORE PUSH1 0xE0 DUP7 ADD MSTORE PUSH2 0x100 DUP6 ADD MSTORE ISZERO ISZERO PUSH2 0x120 DUP5 ADD MSTORE PUSH2 0x140 DUP4 ADD MSTORE PUSH2 0x160 DUP3 ADD MSTORE RETURN JUMPDEST POP CALLVALUE PUSH2 0x152 JUMPI DUP1 PUSH1 0x3 NOT CALLDATASIZE ADD SLT PUSH2 0x152 JUMPI PUSH1 0x1 SLOAD PUSH1 0x40 MLOAD PUSH1 0x1 PUSH1 0x1 PUSH1 0xA0 SHL SUB SWAP1 SWAP2 AND DUP2 MSTORE PUSH1 0x20 SWAP1 RETURN JUMPDEST POP CALLVALUE PUSH2 0x152 JUMPI PUSH1 0x20 DUP1 PUSH1 0x3 NOT CALLDATASIZE ADD SLT PUSH2 0x56B JUMPI PUSH1 0x4 CALLDATALOAD SWAP1 PUSH2 0x3F9 DUP3 ISZERO ISZERO PUSH2 0x2077 JUMP JUMPDEST PUSH1 0xA SLOAD PUSH1 0x40 MLOAD PUSH4 0x23B872DD PUSH1 0xE0 SHL DUP2 MSTORE CALLER PUSH1 0x4 DUP3 ADD MSTORE ADDRESS PUSH1 0x24 DUP3 ADD MSTORE PUSH1 0x44 DUP2 ADD DUP5 SWAP1 MSTORE PUSH1 0x1 PUSH1 0x1 PUSH1 0xA0 SHL SUB SWAP2 DUP4 SWAP1 DUP3 SWAP1 PUSH1 0x64 SWAP1 DUP3 SWAP1 DUP10 SWAP1 DUP8 AND GAS CALL DUP1 ISZERO PUSH2 0x560 JUMPI PUSH2 0x533 JUMPI JUMPDEST POP CALLER DUP5 MSTORE PUSH1 0x4 DUP3 MSTORE PUSH1 0x40 DUP5 KECCAK256 SLOAD ISZERO PUSH2 0x4C4 JUMPI JUMPDEST POP PUSH32 0xE1FFFCC4923D04B559F4D29A8BFC6CDA04EB5B0D3C460751C2402C5C5CC9109C SWAP1 CALLER DUP5 MSTORE PUSH1 0x4 DUP2 MSTORE PUSH1 0x40 DUP5 KECCAK256 PUSH2 0x48B DUP5 DUP3 SLOAD PUSH2 0x20CC JUMP JUMPDEST SWAP1 SSTORE CALLER DUP5 MSTORE PUSH1 0x4 DUP2 MSTORE PUSH1 0x2 PUSH1 0x40 DUP6 KECCAK256 ADD PUSH2 0x4A6 DUP5 DUP3 SLOAD PUSH2 0x20CC JUMP JUMPDEST SWAP1 SSTORE CALLER DUP5 MSTORE PUSH1 0x4 DUP2 MSTORE TIMESTAMP PUSH1 0x3 PUSH1 0x40 DUP7 KECCAK256 ADD SSTORE PUSH1 0x40 MLOAD SWAP3 DUP4 MSTORE CALLER SWAP3 LOG2 DUP1 RETURN JUMPDEST PUSH1 0x7 SLOAD PUSH1 0x1 PUSH1 0x40 SHL DUP2 LT ISZERO PUSH2 0x51F JUMPI SWAP1 PUSH2 0x506 DUP3 PUSH1 0x1 PUSH32 0xE1FFFCC4923D04B559F4D29A8BFC6CDA04EB5B0D3C460751C2402C5C5CC9109C SWAP6 SWAP5 ADD PUSH1 0x7 SSTORE PUSH2 0x1EFB JUMP JUMPDEST DUP2 SWAP3 SWAP2 SLOAD SWAP1 PUSH1 0x3 SHL SWAP2 CALLER DUP4 SHL SWAP3 SHL NOT AND OR SWAP1 SSTORE SWAP1 PUSH2 0x452 JUMP JUMPDEST PUSH4 0x4E487B71 PUSH1 0xE0 SHL DUP6 MSTORE PUSH1 0x41 PUSH1 0x4 MSTORE PUSH1 0x24 DUP6 REVERT JUMPDEST PUSH2 0x552 SWAP1 DUP4 RETURNDATASIZE DUP6 GT PUSH2 0x559 JUMPI JUMPDEST PUSH2 0x54A DUP2 DUP4 PUSH2 0x1FB1 JUMP JUMPDEST DUP2 ADD SWAP1 PUSH2 0x20B4 JUMP JUMPDEST POP CODESIZE PUSH2 0x43F JUMP JUMPDEST POP RETURNDATASIZE PUSH2 0x540 JUMP JUMPDEST PUSH1 0x40 MLOAD RETURNDATASIZE DUP8 DUP3 RETURNDATACOPY RETURNDATASIZE SWAP1 REVERT JUMPDEST POP DUP1 REVERT JUMPDEST POP CALLVALUE PUSH2 0x152 JUMPI DUP1 PUSH1 0x3 NOT CALLDATASIZE ADD SLT PUSH2 0x152 JUMPI SLOAD PUSH1 0x40 MLOAD PUSH1 0x1 PUSH1 0x1 PUSH1 0xA0 SHL SUB SWAP1 SWAP2 AND DUP2 MSTORE PUSH1 0x20 SWAP1 RETURN JUMPDEST POP CALLVALUE PUSH2 0x152 JUMPI DUP1 PUSH1 0x3 NOT CALLDATASIZE ADD SLT PUSH2 0x152 JUMPI PUSH1 0x20 PUSH2 0x5B1 PUSH2 0x1FEA JUMP JUMPDEST PUSH1 0x40 MLOAD SWAP1 DUP2 MSTORE RETURN JUMPDEST POP CALLVALUE PUSH2 0x152 JUMPI DUP1 PUSH1 0x3 NOT CALLDATASIZE ADD SLT PUSH2 0x152 JUMPI PUSH1 0x9 SLOAD PUSH1 0x40 MLOAD PUSH1 0x1 PUSH1 0x1 PUSH1 0xA0 SHL SUB SWAP1 SWAP2 AND DUP2 MSTORE PUSH1 0x20 SWAP1 RETURN JUMPDEST POP CALLVALUE PUSH2 0x152 JUMPI PUSH1 0x60 CALLDATASIZE PUSH1 0x3 NOT ADD SLT PUSH2 0x152 JUMPI PUSH1 0x4 CALLDATALOAD ISZERO SWAP1 PUSH2 0x603 DUP3 ISZERO PUSH2 0x2077 JUMP JUMPDEST PUSH1 0x24 CALLDATALOAD ISZERO PUSH2 0x10A0 JUMPI CALLER DUP2 MSTORE PUSH1 0x6 PUSH1 0x20 MSTORE PUSH1 0xFF PUSH1 0x40 DUP3 KECCAK256 SLOAD AND PUSH2 0x104F JUMPI PUSH1 0x14 PUSH1 0x4 CALLDATALOAD MUL SWAP2 PUSH1 0x4 CALLDATALOAD DUP4 DIV PUSH1 0x14 EQ OR ISZERO PUSH2 0x103B JUMPI PUSH2 0x643 PUSH1 0x64 DUP4 DIV PUSH1 0x4 CALLDATALOAD PUSH2 0x20EF JUMP JUMPDEST PUSH1 0xA SLOAD PUSH1 0x40 MLOAD PUSH4 0x23B872DD PUSH1 0xE0 SHL DUP2 MSTORE CALLER PUSH1 0x4 DUP3 ADD MSTORE ADDRESS PUSH1 0x24 DUP3 ADD MSTORE PUSH1 0x64 DUP1 DUP7 DIV PUSH1 0x44 DUP4 ADD MSTORE SWAP1 SWAP2 PUSH1 0x20 SWAP2 DUP4 SWAP2 DUP3 SWAP1 DUP8 SWAP1 PUSH1 0x1 PUSH1 0x1 PUSH1 0xA0 SHL SUB AND GAS CALL DUP1 ISZERO PUSH2 0x1030 JUMPI PUSH2 0x1011 JUMPI JUMPDEST POP PUSH1 0x7 SLOAD SWAP1 PUSH2 0x698 DUP3 PUSH2 0x20FC JUMP JUMPDEST SWAP2 PUSH2 0x6A6 PUSH1 0x40 MLOAD SWAP4 DUP5 PUSH2 0x1FB1 JUMP JUMPDEST DUP1 DUP4 MSTORE PUSH1 0x1F NOT PUSH2 0x6B5 DUP3 PUSH2 0x20FC JUMP JUMPDEST ADD CALLDATASIZE PUSH1 0x20 DUP6 ADD CALLDATACOPY DUP4 JUMPDEST DUP2 DUP2 LT PUSH2 0xFE3 JUMPI POP POP PUSH1 0x1 SWAP1 JUMPDEST DUP3 MLOAD DUP3 LT ISZERO PUSH2 0x7D3 JUMPI PUSH1 0x1 PUSH1 0x1 PUSH1 0xA0 SHL SUB PUSH2 0x6E6 DUP4 DUP6 PUSH2 0x2131 JUMP JUMPDEST MLOAD AND SWAP1 DUP2 DUP6 MSTORE PUSH1 0x4 PUSH1 0x20 MSTORE PUSH1 0x3 PUSH1 0x40 DUP7 KECCAK256 ADD SLOAD SWAP6 DUP4 PUSH1 0x0 NOT DUP2 ADD SGT PUSH1 0x1 AND PUSH2 0x7BF JUMPI PUSH1 0x0 NOT DUP5 ADD JUMPDEST DUP7 DUP2 SLT ISZERO DUP1 PUSH2 0x794 JUMPI JUMPDEST ISZERO PUSH2 0x76C JUMPI PUSH1 0x1 PUSH1 0x1 PUSH1 0xA0 SHL SUB PUSH2 0x72F DUP3 DUP9 PUSH2 0x2131 JUMP JUMPDEST MLOAD AND PUSH2 0x743 PUSH2 0x73D DUP4 PUSH2 0x23E1 JUMP JUMPDEST DUP9 PUSH2 0x2131 JUMP JUMPDEST MSTORE PUSH1 0x1 PUSH1 0xFF SHL DUP2 EQ PUSH2 0x758 JUMPI PUSH1 0x0 NOT ADD PUSH2 0x70E JUMP JUMPDEST PUSH4 0x4E487B71 PUSH1 0xE0 SHL DUP8 MSTORE PUSH1 0x11 PUSH1 0x4 MSTORE PUSH1 0x24 DUP8 REVERT JUMPDEST PUSH2 0x78E SWAP4 SWAP2 SWAP8 POP PUSH2 0x782 PUSH2 0x788 SWAP2 SWAP6 SWAP4 SWAP6 PUSH2 0x23E1 JUMP JUMPDEST DUP7 PUSH2 0x2131 JUMP JUMPDEST MSTORE PUSH2 0x225C JUMP JUMPDEST SWAP1 PUSH2 0x6CB JUMP JUMPDEST POP PUSH1 0x1 PUSH1 0x1 PUSH1 0xA0 SHL SUB PUSH2 0x7A7 DUP3 DUP9 PUSH2 0x2131 JUMP JUMPDEST MLOAD AND DUP8 MSTORE PUSH1 0x4 PUSH1 0x20 MSTORE DUP8 PUSH1 0x3 PUSH1 0x40 DUP10 KECCAK256 ADD SLOAD GT PUSH2 0x718 JUMP JUMPDEST PUSH4 0x4E487B71 PUSH1 0xE0 SHL DUP7 MSTORE PUSH1 0x11 PUSH1 0x4 MSTORE PUSH1 0x24 DUP7 REVERT JUMPDEST DUP3 DUP5 DUP7 DUP2 PUSH1 0x40 MLOAD PUSH1 0x20 DUP2 ADD SWAP1 CALLER PUSH1 0x60 SHL DUP3 MSTORE TIMESTAMP PUSH1 0x34 DUP3 ADD MSTORE PUSH1 0x34 DUP2 MSTORE PUSH2 0x7F8 DUP2 PUSH2 0x1F7F JUMP JUMPDEST MLOAD SWAP1 KECCAK256 SWAP4 DUP5 DUP5 MSTORE PUSH1 0x5 PUSH1 0x20 MSTORE PUSH1 0x64 PUSH1 0x40 DUP6 KECCAK256 SWAP4 DUP7 DUP6 SSTORE PUSH1 0x1 DUP6 ADD CALLER PUSH1 0x1 PUSH1 0x1 PUSH1 0x60 SHL SUB PUSH1 0xA0 SHL DUP3 SLOAD AND OR SWAP1 SSTORE DUP8 PUSH1 0x2 DUP7 ADD SSTORE DIV PUSH1 0x3 DUP5 ADD SSTORE PUSH1 0x44 CALLDATALOAD PUSH1 0x4 DUP5 ADD SSTORE PUSH1 0x24 CALLDATALOAD PUSH1 0x5 DUP5 ADD SSTORE TIMESTAMP PUSH1 0x7 DUP5 ADD SSTORE PUSH2 0x84E PUSH2 0x1FEA JUMP JUMPDEST PUSH1 0x8 DUP5 ADD SSTORE PUSH1 0x9 DUP4 ADD PUSH1 0x1 PUSH1 0xFF NOT DUP3 SLOAD AND OR SWAP1 SSTORE DUP6 PUSH1 0xD DUP5 ADD SSTORE DUP4 JUMPDEST DUP2 MLOAD DUP2 LT DUP1 PUSH2 0xFDA JUMPI JUMPDEST ISZERO PUSH2 0xA3C JUMPI PUSH1 0x1 PUSH1 0x1 PUSH1 0xA0 SHL SUB PUSH2 0x88B DUP3 DUP5 PUSH2 0x2131 JUMP JUMPDEST MLOAD AND DUP1 DUP7 MSTORE PUSH1 0x4 PUSH1 0x20 MSTORE PUSH1 0x2 PUSH1 0x40 DUP8 KECCAK256 ADD SLOAD DUP1 ISZERO PUSH2 0xA31 JUMPI DUP1 PUSH2 0x8AE DUP7 DUP12 PUSH2 0x20EF JUMP JUMPDEST LT ISZERO PUSH2 0xA2B JUMPI POP PUSH2 0x8BF DUP5 DUP10 PUSH2 0x20EF JUMP JUMPDEST SWAP4 JUMPDEST DUP5 ISZERO PUSH2 0xA1F JUMPI DUP5 PUSH2 0x909 SWAP2 DUP4 DUP10 MSTORE PUSH1 0x4 PUSH1 0x20 MSTORE PUSH1 0x2 PUSH1 0x40 DUP11 KECCAK256 ADD PUSH2 0x8E6 DUP4 DUP3 SLOAD PUSH2 0x20EF JUMP JUMPDEST SWAP1 SSTORE DUP4 DUP10 MSTORE PUSH1 0x4 PUSH1 0x20 MSTORE PUSH1 0x1 PUSH1 0x40 DUP11 KECCAK256 ADD PUSH2 0x902 DUP4 DUP3 SLOAD PUSH2 0x20CC JUMP JUMPDEST SWAP1 SSTORE PUSH2 0x20CC JUMP JUMPDEST SWAP4 PUSH2 0x4B0 PUSH2 0x924 PUSH1 0x24 CALLDATALOAD PUSH2 0x91F PUSH1 0x44 CALLDATALOAD DUP6 PUSH2 0x2145 JUMP JUMPDEST PUSH2 0x2145 JUMP JUMPDEST DIV SWAP1 PUSH1 0x40 MLOAD SWAP3 DUP4 PUSH1 0xA0 DUP2 ADD LT PUSH8 0xFFFFFFFFFFFFFFFF PUSH1 0xA0 DUP7 ADD GT OR PUSH2 0xA0B JUMPI PUSH1 0xA0 DUP5 ADD PUSH1 0x40 MSTORE DUP4 MSTORE PUSH1 0x20 DUP4 ADD MSTORE PUSH1 0x40 DUP3 ADD MSTORE DUP6 PUSH1 0x60 DUP3 ADD MSTORE DUP6 PUSH1 0x80 DUP3 ADD MSTORE PUSH1 0xA DUP6 ADD SLOAD PUSH1 0x1 PUSH1 0x40 SHL DUP2 LT ISZERO PUSH2 0x9F7 JUMPI DUP1 PUSH1 0x1 PUSH2 0x989 SWAP3 ADD PUSH1 0xA DUP9 ADD SSTORE PUSH1 0xA DUP8 ADD PUSH2 0x226B JUMP JUMPDEST SWAP2 SWAP1 SWAP2 PUSH2 0x9E3 JUMPI DUP1 MLOAD DUP3 SLOAD PUSH1 0x1 PUSH1 0x1 PUSH1 0xA0 SHL SUB NOT AND PUSH1 0x1 PUSH1 0x1 PUSH1 0xA0 SHL SUB SWAP2 SWAP1 SWAP2 AND OR DUP3 SSTORE PUSH1 0x20 DUP2 ADD MLOAD PUSH1 0x1 DUP4 ADD SSTORE PUSH1 0x40 DUP2 ADD MLOAD PUSH1 0x2 DUP4 ADD SSTORE PUSH1 0x60 DUP2 ADD MLOAD PUSH1 0x3 DUP4 ADD SSTORE PUSH1 0x80 ADD MLOAD PUSH1 0x4 SWAP1 SWAP2 ADD SSTORE PUSH2 0x9DE SWAP1 PUSH2 0x225C JUMP JUMPDEST PUSH2 0x86A JUMP JUMPDEST PUSH4 0x4E487B71 PUSH1 0xE0 SHL DUP8 MSTORE PUSH1 0x4 DUP8 SWAP1 MSTORE PUSH1 0x24 DUP8 REVERT JUMPDEST PUSH4 0x4E487B71 PUSH1 0xE0 SHL DUP8 MSTORE PUSH1 0x41 PUSH1 0x4 MSTORE PUSH1 0x24 DUP8 REVERT JUMPDEST PUSH4 0x4E487B71 PUSH1 0xE0 SHL DUP10 MSTORE PUSH1 0x41 PUSH1 0x4 MSTORE PUSH1 0x24 DUP10 REVERT JUMPDEST SWAP4 POP POP PUSH2 0x9DE SWAP1 PUSH2 0x225C JUMP JUMPDEST SWAP4 PUSH2 0x8C1 JUMP JUMPDEST POP POP PUSH2 0x9DE SWAP1 PUSH2 0x225C JUMP JUMPDEST POP POP SWAP4 DUP1 SWAP3 SWAP5 SUB PUSH2 0xF95 JUMPI PUSH8 0xDE0B6B3A7640000 PUSH1 0x44 CALLDATALOAD MUL SWAP1 PUSH1 0x44 CALLDATALOAD DUP3 DIV PUSH8 0xDE0B6B3A7640000 EQ PUSH1 0x44 CALLDATALOAD ISZERO OR ISZERO PUSH2 0xE25 JUMPI PUSH2 0xA7C PUSH2 0x4B0 DUP4 DIV DUP5 PUSH2 0x2145 JUMP JUMPDEST PUSH2 0x4B0 DUP4 DIV PUSH8 0xDE0B6B3A7640000 ADD DUP1 PUSH8 0xDE0B6B3A7640000 GT PUSH2 0x758 JUMPI DUP1 ISZERO PUSH2 0xF81 JUMPI PUSH2 0xAB7 SWAP1 PUSH1 0x24 CALLDATALOAD SWAP1 PUSH8 0xDE0B6B3A7640000 DIV PUSH2 0x2287 JUMP JUMPDEST PUSH8 0xDE0B6B3A7640000 SUB SWAP1 PUSH8 0xDE0B6B3A7640000 DUP3 GT PUSH2 0x758 JUMPI PUSH1 0x6 SWAP2 PUSH2 0xADD SWAP2 PUSH2 0x2158 JUMP JUMPDEST SWAP2 ADD SSTORE DUP3 DUP5 MSTORE PUSH1 0x5 PUSH1 0x20 MSTORE PUSH1 0x40 DUP5 KECCAK256 SWAP2 PUSH1 0x6 DUP4 ADD SLOAD DUP6 SWAP2 JUMPDEST PUSH1 0x24 CALLDATALOAD DUP4 LT PUSH2 0xE6C JUMPI DUP7 DUP7 PUSH1 0x8 SLOAD PUSH1 0x1 PUSH1 0x40 SHL DUP2 LT ISZERO PUSH2 0xE58 JUMPI DUP1 PUSH1 0x1 PUSH2 0xB1F SWAP3 ADD PUSH1 0x8 SSTORE PUSH2 0x1F48 JUMP JUMPDEST DUP2 SLOAD PUSH1 0x0 NOT PUSH1 0x3 SWAP3 SWAP1 SWAP3 SHL SWAP2 DUP3 SHL NOT AND SWAP1 DUP4 SWAP1 SHL OR SWAP1 SSTORE CALLER DUP3 MSTORE PUSH1 0x6 PUSH1 0x20 SWAP1 DUP2 MSTORE PUSH1 0x40 DUP1 DUP5 KECCAK256 DUP1 SLOAD PUSH1 0xFF NOT AND PUSH1 0x1 SWAP1 DUP2 OR SWAP1 SWAP2 SSTORE DUP4 DUP6 MSTORE PUSH1 0x5 DUP4 MSTORE DUP2 DUP6 KECCAK256 PUSH1 0x2 DUP2 ADD SLOAD PUSH1 0xA SLOAD SWAP3 SLOAD SWAP4 MLOAD PUSH4 0x95EA7B3 PUSH1 0xE0 SHL DUP2 MSTORE PUSH1 0x1 PUSH1 0x1 PUSH1 0xA0 SHL SUB SWAP5 DUP6 AND PUSH1 0x4 DUP3 ADD MSTORE PUSH1 0x24 DUP2 ADD DUP3 SWAP1 MSTORE SWAP2 SWAP5 SWAP1 SWAP4 SWAP2 SWAP3 SWAP1 SWAP2 DUP4 SWAP2 PUSH1 0x44 SWAP2 DUP4 SWAP2 DUP11 SWAP2 AND GAS CALL DUP1 ISZERO PUSH2 0x560 JUMPI PUSH2 0xE39 JUMPI JUMPDEST POP PUSH1 0x40 MLOAD SWAP1 PUSH2 0xBB7 DUP3 PUSH2 0x1F7F JUMP JUMPDEST PUSH1 0x2 DUP3 MSTORE PUSH1 0x40 CALLDATASIZE PUSH1 0x20 DUP5 ADD CALLDATACOPY PUSH1 0xA SLOAD PUSH1 0x1 PUSH1 0x1 PUSH1 0xA0 SHL SUB AND PUSH2 0xBD8 DUP4 PUSH2 0x2114 JUMP JUMPDEST MSTORE PUSH1 0x2 SLOAD PUSH1 0x1 PUSH1 0x1 PUSH1 0xA0 SHL SUB AND PUSH2 0xBEE DUP4 PUSH2 0x2121 JUMP JUMPDEST MSTORE DUP1 PUSH1 0x5F DUP2 MUL DIV PUSH1 0x5F EQ DUP2 ISZERO OR ISZERO PUSH2 0xE25 JUMPI PUSH1 0x1 SLOAD PUSH1 0x1 PUSH1 0x1 PUSH1 0xA0 SHL SUB AND SWAP1 TIMESTAMP PUSH2 0x12C DUP2 ADD LT PUSH2 0x7BF JUMPI SWAP2 DUP6 SWAP2 PUSH2 0xC4C SWAP4 DUP4 PUSH1 0x40 MLOAD DUP1 SWAP7 DUP2 SWAP6 DUP3 SWAP5 PUSH4 0x38ED1739 PUSH1 0xE0 SHL DUP5 MSTORE PUSH2 0x12C TIMESTAMP ADD SWAP2 ADDRESS SWAP2 PUSH1 0x64 PUSH1 0x5F DUP3 MUL DIV SWAP1 PUSH1 0x4 DUP8 ADD PUSH2 0x21F2 JUMP JUMPDEST SUB SWAP3 GAS CALL DUP1 ISZERO PUSH2 0xE1A JUMPI PUSH2 0xC67 SWAP2 DUP6 SWAP2 PUSH2 0xDF8 JUMPI JUMPDEST POP PUSH2 0x2121 JUMP JUMPDEST MLOAD DUP3 DUP5 MSTORE PUSH1 0x5 PUSH1 0x20 SWAP1 DUP2 MSTORE PUSH1 0x40 DUP1 DUP7 KECCAK256 PUSH1 0x2 SLOAD DUP8 SLOAD SWAP3 MLOAD PUSH4 0x95EA7B3 PUSH1 0xE0 SHL DUP2 MSTORE PUSH1 0x1 PUSH1 0x1 PUSH1 0xA0 SHL SUB SWAP4 DUP5 AND PUSH1 0x4 DUP3 ADD MSTORE PUSH1 0x24 DUP2 ADD DUP7 SWAP1 MSTORE SWAP2 SWAP4 SWAP2 SWAP3 DUP4 SWAP2 PUSH1 0x44 SWAP2 DUP4 SWAP2 DUP12 SWAP2 AND GAS CALL DUP1 ISZERO PUSH2 0xDCA JUMPI PUSH2 0xDD9 JUMPI JUMPDEST POP DUP5 SLOAD PUSH1 0x2 SLOAD DUP7 SWAP2 PUSH1 0x1 PUSH1 0x1 PUSH1 0xA0 SHL SUB SWAP2 DUP3 AND SWAP2 AND DUP1 EXTCODESIZE ISZERO PUSH2 0xDD5 JUMPI PUSH1 0x84 DUP4 SWAP3 PUSH1 0x40 MLOAD SWAP5 DUP6 SWAP4 DUP5 SWAP3 PUSH4 0x617BA037 PUSH1 0xE0 SHL DUP5 MSTORE PUSH1 0x4 DUP5 ADD MSTORE DUP9 PUSH1 0x24 DUP5 ADD MSTORE ADDRESS PUSH1 0x44 DUP5 ADD MSTORE DUP2 PUSH1 0x64 DUP5 ADD MSTORE GAS CALL DUP1 ISZERO PUSH2 0xDCA JUMPI PUSH2 0xD99 JUMPI JUMPDEST POP PUSH1 0x80 SWAP3 PUSH32 0xAEEC09AF87559B9077DA2E499D1FAD2E228D7C24CB4B566FE61976820ABAADDA PUSH1 0x60 DUP5 PUSH1 0x2 DUP6 PUSH32 0x65410888FB30EDD04F6ACFB2F6CFD92AAF0EBB9B5303B6286D65D0B031B5B7F7 SWAP10 SWAP8 PUSH1 0xC PUSH1 0x3 SWAP9 ADD SSTORE ADD SLOAD SWAP1 PUSH1 0x40 MLOAD SWAP2 DUP8 DUP4 MSTORE PUSH1 0x20 DUP4 ADD MSTORE PUSH1 0x40 DUP3 ADD MSTORE LOG1 ADD SLOAD PUSH1 0x40 MLOAD SWAP2 DUP3 MSTORE PUSH1 0x4 CALLDATALOAD PUSH1 0x20 DUP4 ADD MSTORE PUSH1 0x40 DUP3 ADD MSTORE CALLER PUSH1 0x60 DUP3 ADD MSTORE LOG1 DUP1 RETURN JUMPDEST PUSH8 0xFFFFFFFFFFFFFFFF DUP2 SWAP7 SWAP3 SWAP7 GT PUSH2 0xDB6 JUMPI PUSH1 0x40 MSTORE SWAP4 PUSH1 0x80 PUSH2 0xD10 JUMP JUMPDEST PUSH4 0x4E487B71 PUSH1 0xE0 SHL DUP3 MSTORE PUSH1 0x41 PUSH1 0x4 MSTORE PUSH1 0x24 DUP3 REVERT JUMPDEST PUSH1 0x40 MLOAD RETURNDATASIZE DUP9 DUP3 RETURNDATACOPY RETURNDATASIZE SWAP1 REVERT JUMPDEST DUP3 DUP1 REVERT JUMPDEST PUSH2 0xDF1 SWAP1 PUSH1 0x20 RETURNDATASIZE PUSH1 0x20 GT PUSH2 0x559 JUMPI PUSH2 0x54A DUP2 DUP4 PUSH2 0x1FB1 JUMP JUMPDEST POP DUP6 PUSH2 0xCBA JUMP JUMPDEST PUSH2 0xE14 SWAP2 POP RETURNDATASIZE DUP1 DUP8 DUP4 RETURNDATACOPY PUSH2 0xE0C DUP2 DUP4 PUSH2 0x1FB1 JUMP JUMPDEST DUP2 ADD SWAP1 PUSH2 0x2178 JUMP JUMPDEST DUP6 PUSH2 0xC61 JUMP JUMPDEST PUSH1 0x40 MLOAD RETURNDATASIZE DUP7 DUP3 RETURNDATACOPY RETURNDATASIZE SWAP1 REVERT JUMPDEST PUSH4 0x4E487B71 PUSH1 0xE0 SHL DUP6 MSTORE PUSH1 0x11 PUSH1 0x4 MSTORE PUSH1 0x24 DUP6 REVERT JUMPDEST PUSH2 0xE51 SWAP1 PUSH1 0x20 RETURNDATASIZE PUSH1 0x20 GT PUSH2 0x559 JUMPI PUSH2 0x54A DUP2 DUP4 PUSH2 0x1FB1 JUMP JUMPDEST POP DUP5 PUSH2 0xBA9 JUMP JUMPDEST PUSH4 0x4E487B71 PUSH1 0xE0 SHL DUP4 MSTORE PUSH1 0x41 PUSH1 0x4 MSTORE PUSH1 0x24 DUP4 REVERT JUMPDEST PUSH8 0xDE0B6B3A7640000 PUSH2 0xE83 PUSH2 0x4B0 DUP7 DIV DUP4 PUSH2 0x2145 JUMP JUMPDEST DIV SWAP1 PUSH2 0xE8F DUP3 DUP5 PUSH2 0x20EF JUMP JUMPDEST SWAP2 PUSH1 0x24 CALLDATALOAD PUSH1 0x0 NOT DUP2 ADD GT PUSH2 0xF6D JUMPI PUSH1 0x24 CALLDATALOAD PUSH1 0x0 NOT ADD DUP6 EQ PUSH2 0xF58 JUMPI JUMPDEST PUSH1 0x40 MLOAD SWAP1 PUSH2 0xEB8 DUP3 PUSH2 0x1F7F JUMP JUMPDEST DUP4 DUP3 MSTORE PUSH1 0x20 DUP3 ADD MSTORE DUP9 PUSH1 0x40 DUP3 ADD MSTORE PUSH1 0xB DUP8 ADD SLOAD PUSH1 0x1 PUSH1 0x40 SHL DUP2 LT ISZERO PUSH2 0xF44 JUMPI DUP1 PUSH1 0x1 PUSH2 0xEED SWAP3 ADD PUSH1 0xB DUP11 ADD SSTORE PUSH1 0xB DUP10 ADD PUSH2 0x232E JUMP JUMPDEST PUSH2 0xF30 JUMPI SWAP2 DUP2 PUSH1 0x40 PUSH1 0x2 PUSH2 0xF24 SWAP6 PUSH2 0xF2A SWAP8 SWAP6 MLOAD DUP2 SSTORE PUSH1 0x20 DUP5 ADD MLOAD PUSH1 0x1 DUP3 ADD SSTORE ADD SWAP2 ADD MLOAD ISZERO ISZERO PUSH1 0xFF DUP1 NOT DUP4 SLOAD AND SWAP2 AND OR SWAP1 SSTORE PUSH2 0x20EF JUMP JUMPDEST SWAP3 PUSH2 0x225C JUMP JUMPDEST SWAP2 PUSH2 0xAF5 JUMP JUMPDEST PUSH4 0x4E487B71 PUSH1 0xE0 SHL DUP11 MSTORE PUSH1 0x4 DUP11 SWAP1 MSTORE PUSH1 0x24 DUP11 REVERT JUMPDEST PUSH4 0x4E487B71 PUSH1 0xE0 SHL DUP11 MSTORE PUSH1 0x41 PUSH1 0x4 MSTORE PUSH1 0x24 DUP11 REVERT JUMPDEST SWAP3 POP SWAP1 POP DUP1 PUSH2 0xF67 DUP4 DUP3 PUSH2 0x20CC JUMP JUMPDEST SWAP3 PUSH2 0xEAB JUMP JUMPDEST PUSH4 0x4E487B71 PUSH1 0xE0 SHL DUP10 MSTORE PUSH1 0x11 PUSH1 0x4 MSTORE PUSH1 0x24 DUP10 REVERT JUMPDEST PUSH4 0x4E487B71 PUSH1 0xE0 SHL DUP8 MSTORE PUSH1 0x12 PUSH1 0x4 MSTORE PUSH1 0x24 DUP8 REVERT JUMPDEST PUSH1 0x40 MLOAD PUSH3 0x461BCD PUSH1 0xE5 SHL DUP2 MSTORE PUSH1 0x20 PUSH1 0x4 DUP3 ADD MSTORE PUSH1 0x17 PUSH1 0x24 DUP3 ADD MSTORE PUSH32 0x4E6F7420656E6F756768206C656E6465722066756E6473000000000000000000 PUSH1 0x44 DUP3 ADD MSTORE PUSH1 0x64 SWAP1 REVERT JUMPDEST POP DUP7 DUP4 LT PUSH2 0x874 JUMP JUMPDEST DUP1 PUSH2 0xFF0 PUSH2 0x100C SWAP3 PUSH2 0x1EFB JUMP JUMPDEST SWAP1 SLOAD PUSH1 0x3 SWAP2 SWAP1 SWAP2 SHL SHR PUSH1 0x1 PUSH1 0x1 PUSH1 0xA0 SHL SUB AND PUSH2 0x788 DUP3 DUP8 PUSH2 0x2131 JUMP JUMPDEST PUSH2 0x6BE JUMP JUMPDEST PUSH2 0x1029 SWAP1 PUSH1 0x20 RETURNDATASIZE PUSH1 0x20 GT PUSH2 0x559 JUMPI PUSH2 0x54A DUP2 DUP4 PUSH2 0x1FB1 JUMP JUMPDEST POP CODESIZE PUSH2 0x68A JUMP JUMPDEST PUSH1 0x40 MLOAD RETURNDATASIZE DUP6 DUP3 RETURNDATACOPY RETURNDATASIZE SWAP1 REVERT JUMPDEST PUSH4 0x4E487B71 PUSH1 0xE0 SHL DUP2 MSTORE PUSH1 0x11 PUSH1 0x4 MSTORE PUSH1 0x24 SWAP1 REVERT JUMPDEST PUSH1 0x40 MLOAD PUSH3 0x461BCD PUSH1 0xE5 SHL DUP2 MSTORE PUSH1 0x20 PUSH1 0x4 DUP3 ADD MSTORE PUSH1 0x23 PUSH1 0x24 DUP3 ADD MSTORE PUSH32 0x426F72726F77657220616C72656164792068617320616E20616374697665206C PUSH1 0x44 DUP3 ADD MSTORE PUSH3 0x37B0B7 PUSH1 0xE9 SHL PUSH1 0x64 DUP3 ADD MSTORE PUSH1 0x84 SWAP1 REVERT JUMPDEST PUSH1 0x40 MLOAD PUSH3 0x461BCD PUSH1 0xE5 SHL DUP2 MSTORE PUSH1 0x20 PUSH1 0x4 DUP3 ADD MSTORE PUSH1 0x10 PUSH1 0x24 DUP3 ADD MSTORE PUSH16 0x24B73B30B634B210323AB930BA34B7B7 PUSH1 0x81 SHL PUSH1 0x44 DUP3 ADD MSTORE PUSH1 0x64 SWAP1 REVERT JUMPDEST POP CALLVALUE PUSH2 0x152 JUMPI PUSH1 0x20 CALLDATASIZE PUSH1 0x3 NOT ADD SLT PUSH2 0x152 JUMPI PUSH1 0x4 CALLDATALOAD PUSH1 0x1 PUSH1 0x1 PUSH1 0xA0 SHL SUB DUP2 DUP2 AND SWAP2 DUP3 SWAP1 SUB PUSH2 0xDD5 JUMPI PUSH2 0x110F SWAP1 PUSH1 0x9 SLOAD AND CALLER EQ PUSH2 0x234A JUMP JUMPDEST PUSH1 0x1 PUSH1 0x1 PUSH1 0x60 SHL SUB PUSH1 0xA0 SHL PUSH1 0x2 SLOAD AND OR PUSH1 0x2 SSTORE DUP1 RETURN JUMPDEST POP CALLVALUE PUSH2 0x152 JUMPI PUSH2 0x1134 CALLDATASIZE PUSH2 0x1EE0 JUMP JUMPDEST DUP2 DUP4 MSTORE PUSH1 0x5 PUSH1 0x20 MSTORE PUSH1 0x40 DUP4 KECCAK256 PUSH2 0x1150 PUSH1 0xFF PUSH1 0x9 DUP4 ADD SLOAD AND PUSH2 0x23A0 JUMP JUMPDEST PUSH1 0x1 DUP2 ADD SLOAD PUSH1 0x1 PUSH1 0x1 PUSH1 0xA0 SHL SUB AND CALLER SUB PUSH2 0x1817 JUMPI PUSH1 0xA SLOAD PUSH1 0x40 MLOAD PUSH4 0x23B872DD PUSH1 0xE0 SHL DUP2 MSTORE CALLER PUSH1 0x4 DUP3 ADD MSTORE ADDRESS PUSH1 0x24 DUP3 ADD MSTORE PUSH1 0x44 DUP2 ADD DUP5 SWAP1 MSTORE SWAP1 PUSH1 0x20 SWAP1 DUP3 SWAP1 PUSH1 0x64 SWAP1 DUP3 SWAP1 DUP10 SWAP1 PUSH1 0x1 PUSH1 0x1 PUSH1 0xA0 SHL SUB AND GAS CALL DUP1 ISZERO PUSH2 0x560 JUMPI PUSH2 0x17F8 JUMPI JUMPDEST POP PUSH2 0x11B3 PUSH2 0x1FEA JUMP JUMPDEST DUP5 DUP2 SGT ISZERO PUSH2 0x17BF JUMPI PUSH8 0xDE0B6B3A7640000 DUP4 MUL DUP4 DUP2 DIV PUSH8 0xDE0B6B3A7640000 EQ DUP5 ISZERO OR ISZERO PUSH2 0x7BF JUMPI SWAP1 PUSH2 0x11E5 SWAP2 PUSH2 0x2158 JUMP JUMPDEST DUP5 SWAP2 DUP6 JUMPDEST PUSH1 0xB DUP3 ADD SLOAD DUP2 LT DUP1 PUSH2 0x17B6 JUMPI JUMPDEST ISZERO PUSH2 0x17AC JUMPI PUSH2 0x1208 DUP2 PUSH1 0xB DUP5 ADD PUSH2 0x232E JUMP JUMPDEST POP SWAP5 PUSH1 0x2 DUP7 ADD SLOAD PUSH1 0xFF DUP2 AND PUSH2 0x179F JUMPI DUP7 SLOAD SWAP5 PUSH1 0x1 DUP9 ADD SLOAD SWAP8 PUSH2 0x122A DUP10 DUP9 PUSH2 0x20CC JUMP JUMPDEST SWAP3 DUP4 DUP4 LT PUSH2 0x13E3 JUMPI SWAP3 DUP8 SWAP3 PUSH2 0x124E SWAP3 PUSH1 0x2 PUSH1 0x1 PUSH2 0x1254 SWAP8 PUSH1 0xFF NOT AND OR SWAP2 ADD SSTORE PUSH2 0x20EF JUMP JUMPDEST SWAP7 PUSH2 0x20CC JUMP JUMPDEST SWAP5 PUSH1 0x2 DUP5 ADD SLOAD SWAP6 DUP10 JUMPDEST PUSH1 0xA DUP7 ADD SLOAD DUP2 LT ISZERO PUSH2 0x139C JUMPI PUSH2 0x1276 DUP2 PUSH1 0xA DUP9 ADD PUSH2 0x226B JUMP JUMPDEST POP PUSH1 0x1 DUP2 ADD SLOAD DUP1 PUSH8 0xDE0B6B3A7640000 DUP2 MUL DIV PUSH8 0xDE0B6B3A7640000 EQ DUP2 ISZERO OR ISZERO PUSH2 0x1388 JUMPI DUP13 PUSH2 0x133F SWAP4 SWAP3 DUP13 PUSH2 0x130F PUSH8 0xDE0B6B3A7640000 PUSH2 0x12D4 DUP16 DUP16 SWAP1 PUSH2 0x12CD PUSH2 0x12C6 DUP6 SWAP3 DUP4 PUSH1 0x20 SWAP13 MUL PUSH2 0x2158 JUMP JUMPDEST DUP1 SWAP4 PUSH2 0x2145 JUMP JUMPDEST DIV SWAP5 PUSH2 0x2145 JUMP JUMPDEST DIV PUSH1 0x3 DUP5 ADD PUSH2 0x12E4 DUP5 DUP3 SLOAD PUSH2 0x20CC JUMP JUMPDEST SWAP1 SSTORE PUSH1 0x4 DUP5 ADD PUSH2 0x12F5 DUP3 DUP3 SLOAD PUSH2 0x20CC JUMP JUMPDEST SWAP1 SSTORE PUSH1 0xA SLOAD SWAP4 SLOAD PUSH1 0x1 PUSH1 0x1 PUSH1 0xA0 SHL SUB SWAP5 DUP6 AND SWAP5 AND SWAP3 PUSH2 0x20CC JUMP JUMPDEST PUSH1 0x40 MLOAD PUSH4 0xA9059CBB PUSH1 0xE0 SHL DUP2 MSTORE PUSH1 0x1 PUSH1 0x1 PUSH1 0xA0 SHL SUB SWAP1 SWAP3 AND PUSH1 0x4 DUP4 ADD MSTORE PUSH1 0x24 DUP3 ADD MSTORE SWAP5 DUP6 SWAP3 DUP4 SWAP2 DUP3 SWAP1 PUSH1 0x44 DUP3 ADD SWAP1 JUMP JUMPDEST SUB SWAP3 GAS CALL SWAP2 DUP3 ISZERO PUSH2 0x137D JUMPI PUSH2 0x1359 SWAP3 PUSH2 0x135E JUMPI JUMPDEST POP PUSH2 0x225C JUMP JUMPDEST PUSH2 0x125D JUMP JUMPDEST PUSH2 0x1376 SWAP1 PUSH1 0x20 RETURNDATASIZE PUSH1 0x20 GT PUSH2 0x559 JUMPI PUSH2 0x54A DUP2 DUP4 PUSH2 0x1FB1 JUMP JUMPDEST POP CODESIZE PUSH2 0x1353 JUMP JUMPDEST PUSH1 0x40 MLOAD RETURNDATASIZE DUP15 DUP3 RETURNDATACOPY RETURNDATASIZE SWAP1 REVERT JUMPDEST PUSH4 0x4E487B71 PUSH1 0xE0 SHL DUP14 MSTORE PUSH1 0x11 PUSH1 0x4 MSTORE PUSH1 0x24 DUP14 REVERT JUMPDEST POP SWAP6 POP SWAP6 POP SWAP3 POP PUSH2 0x13DB SWAP1 PUSH32 0x3D05AC2057427AC2F84502E7EFEFEBF5AE10D9529129C2979CE60FB97D460614 PUSH1 0x40 DUP1 MLOAD DUP10 DUP2 MSTORE DUP4 PUSH1 0x20 DUP3 ADD MSTORE LOG1 PUSH2 0x225C JUMP JUMPDEST SWAP4 SWAP2 SWAP4 PUSH2 0x11E9 JUMP JUMPDEST POP POP POP POP SWAP4 SWAP3 POP POP SWAP3 POP JUMPDEST PUSH1 0xD DUP4 ADD PUSH2 0x13FD DUP3 DUP3 SLOAD PUSH2 0x20EF JUMP JUMPDEST SWAP1 SSTORE DUP1 ISZERO SWAP1 DUP2 ISZERO PUSH2 0x14E9 JUMPI JUMPDEST POP POP PUSH1 0x1 SWAP2 DUP5 PUSH1 0xB DUP3 ADD SLOAD SWAP1 JUMPDEST DUP2 DUP2 LT PUSH2 0x14B3 JUMPI JUMPDEST POP POP SWAP2 PUSH32 0xDC376ABD09229A842AC7D8BCADC9017651F1F1B8490750870CAE0ECD4AEDF674 SWAP4 SWAP2 PUSH1 0x80 SWAP4 DUP3 PUSH2 0x146A JUMPI JUMPDEST POP PUSH1 0x40 MLOAD SWAP3 DUP4 MSTORE CALLER PUSH1 0x20 DUP5 ADD MSTORE PUSH1 0x40 DUP4 ADD MSTORE ISZERO ISZERO PUSH1 0x60 DUP3 ADD MSTORE LOG1 DUP1 RETURN JUMPDEST PUSH1 0x9 DUP2 ADD DUP1 SLOAD PUSH1 0xFF NOT SWAP1 DUP2 AND SWAP1 SWAP2 SSTORE PUSH1 0x1 DUP3 ADD SLOAD PUSH1 0x1 PUSH1 0x1 PUSH1 0xA0 SHL SUB AND DUP9 MSTORE PUSH1 0x6 PUSH1 0x20 MSTORE PUSH1 0x40 DUP9 KECCAK256 DUP1 SLOAD SWAP1 SWAP2 AND SWAP1 SSTORE PUSH1 0xC ADD SLOAD DUP1 ISZERO PUSH2 0x144D JUMPI PUSH2 0x14AD SWAP1 DUP5 PUSH2 0x23FE JUMP JUMPDEST CODESIZE PUSH2 0x144D JUMP JUMPDEST PUSH1 0xFF PUSH1 0x2 PUSH2 0x14C4 DUP4 PUSH1 0xB DUP8 ADD PUSH2 0x232E JUMP JUMPDEST POP ADD SLOAD AND ISZERO PUSH2 0x14DB JUMPI PUSH2 0x14D6 SWAP1 PUSH2 0x225C JUMP JUMPDEST PUSH2 0x1416 JUMP JUMPDEST POP DUP6 SWAP4 POP DUP3 SWAP1 POP PUSH1 0x80 PUSH2 0x141E JUMP JUMPDEST DUP5 DUP7 MSTORE PUSH1 0x5 PUSH1 0x20 MSTORE PUSH1 0x40 DUP7 KECCAK256 SWAP2 DUP2 PUSH8 0xDE0B6B3A7640000 DUP2 MUL DIV PUSH8 0xDE0B6B3A7640000 EQ OR ISZERO PUSH2 0x7BF JUMPI DUP2 PUSH1 0xC PUSH2 0x1533 PUSH2 0x153B SWAP4 PUSH8 0xDE0B6B3A7640000 PUSH1 0x2 DUP2 SWAP8 ADD SLOAD SWAP2 MUL PUSH2 0x2158 JUMP JUMPDEST SWAP2 ADD SLOAD PUSH2 0x2145 JUMP JUMPDEST DIV DUP1 PUSH2 0x15A9 JUMPI JUMPDEST POP DUP3 DUP5 MSTORE PUSH1 0x5 PUSH1 0x20 MSTORE PUSH1 0x40 DUP5 KECCAK256 DUP5 DUP6 PUSH1 0xA DUP4 ADD DUP1 SLOAD SWAP1 JUMPDEST DUP2 DUP4 LT PUSH2 0x157D JUMPI POP POP POP PUSH2 0x1573 PUSH1 0xD SWAP2 PUSH1 0x2 DUP5 ADD SLOAD PUSH2 0x20EF JUMP JUMPDEST SWAP2 ADD SSTORE CODESIZE DUP1 PUSH2 0x1409 JUMP JUMPDEST SWAP1 SWAP2 SWAP3 PUSH2 0x159C PUSH2 0x15A2 SWAP2 PUSH1 0x3 PUSH2 0x1593 DUP8 DUP7 PUSH2 0x226B JUMP JUMPDEST POP ADD SLOAD SWAP1 PUSH2 0x20CC JUMP JUMPDEST SWAP4 PUSH2 0x225C JUMP JUMPDEST SWAP2 SWAP1 PUSH2 0x1559 JUMP JUMPDEST DUP4 DUP6 MSTORE PUSH1 0x5 PUSH1 0x20 MSTORE PUSH1 0x40 DUP6 KECCAK256 SWAP1 PUSH1 0xC DUP3 ADD SLOAD DUP2 GT PUSH2 0x174B JUMPI DUP6 SLOAD PUSH1 0x2 SLOAD PUSH1 0x40 MLOAD PUSH4 0x1A4CA37B PUSH1 0xE2 SHL DUP2 MSTORE PUSH1 0x1 PUSH1 0x1 PUSH1 0xA0 SHL SUB SWAP2 DUP3 AND PUSH1 0x4 DUP3 ADD MSTORE PUSH1 0x24 DUP2 ADD SWAP4 SWAP1 SWAP4 MSTORE ADDRESS PUSH1 0x44 DUP5 ADD MSTORE PUSH1 0x20 SWAP2 DUP4 SWAP2 PUSH1 0x64 SWAP2 DUP4 SWAP2 DUP12 SWAP2 AND GAS CALL SWAP1 DUP2 ISZERO PUSH2 0xDCA JUMPI DUP7 SWAP2 PUSH2 0x1715 JUMPI JUMPDEST POP PUSH2 0x161D DUP2 PUSH1 0xC DUP5 ADD SLOAD PUSH2 0x20EF JUMP JUMPDEST PUSH1 0xC DUP4 ADD SSTORE DUP1 PUSH1 0x19 DUP2 MUL DIV PUSH1 0x19 EQ DUP2 ISZERO OR ISZERO PUSH2 0x7BF JUMPI DUP1 PUSH1 0x64 PUSH1 0x19 PUSH2 0x1690 SWAP4 MUL DIV PUSH1 0x20 DUP2 PUSH2 0x164B DUP2 DUP6 PUSH2 0x20EF JUMP JUMPDEST PUSH1 0x2 SLOAD PUSH1 0x1 SWAP1 SWAP8 ADD SLOAD PUSH1 0x40 MLOAD PUSH4 0xA9059CBB PUSH1 0xE0 SHL DUP2 MSTORE PUSH1 0x1 PUSH1 0x1 PUSH1 0xA0 SHL SUB SWAP2 DUP3 AND PUSH1 0x4 DUP3 ADD MSTORE PUSH1 0x24 DUP2 ADD SWAP4 SWAP1 SWAP4 MSTORE SWAP1 SWAP7 SWAP2 SWAP6 DUP7 SWAP3 SWAP1 SWAP2 AND SWAP1 DUP3 SWAP1 DUP13 SWAP1 DUP3 SWAP1 PUSH1 0x44 DUP3 ADD SWAP1 JUMP JUMPDEST SUB SWAP3 GAS CALL DUP1 ISZERO PUSH2 0x170A JUMPI PUSH32 0x38A556A122683CB48D496614A7A03605B6C2C0482342924CAF483386980ECC9F SWAP5 PUSH1 0x80 SWAP5 PUSH2 0x16CE SWAP3 PUSH2 0x16EB JUMPI JUMPDEST POP PUSH2 0x254D JUMP JUMPDEST PUSH1 0x40 MLOAD SWAP3 DUP9 DUP5 MSTORE PUSH1 0x20 DUP5 ADD MSTORE PUSH1 0x40 DUP4 ADD MSTORE PUSH1 0x60 DUP3 ADD MSTORE LOG1 CODESIZE PUSH2 0x1542 JUMP JUMPDEST PUSH2 0x1703 SWAP1 PUSH1 0x20 RETURNDATASIZE PUSH1 0x20 GT PUSH2 0x559 JUMPI PUSH2 0x54A DUP2 DUP4 PUSH2 0x1FB1 JUMP JUMPDEST POP CODESIZE PUSH2 0x16C8 JUMP JUMPDEST PUSH1 0x40 MLOAD RETURNDATASIZE DUP11 DUP3 RETURNDATACOPY RETURNDATASIZE SWAP1 REVERT JUMPDEST SWAP1 POP PUSH1 0x20 DUP2 RETURNDATASIZE PUSH1 0x20 GT PUSH2 0x1743 JUMPI JUMPDEST DUP2 PUSH2 0x1730 PUSH1 0x20 SWAP4 DUP4 PUSH2 0x1FB1 JUMP JUMPDEST DUP2 ADD SUB SLT PUSH2 0x173F JUMPI MLOAD CODESIZE PUSH2 0x160E JUMP JUMPDEST DUP6 DUP1 REVERT JUMPDEST RETURNDATASIZE SWAP2 POP PUSH2 0x1723 JUMP JUMPDEST PUSH1 0x40 MLOAD PUSH3 0x461BCD PUSH1 0xE5 SHL DUP2 MSTORE PUSH1 0x20 PUSH1 0x4 DUP3 ADD MSTORE PUSH1 0x26 PUSH1 0x24 DUP3 ADD MSTORE PUSH32 0x43616E6E6F7420756E7374616B65206D6F7265207468616E207374616B656420 PUSH1 0x44 DUP3 ADD MSTORE PUSH6 0x185B5BDD5B9D PUSH1 0xD2 SHL PUSH1 0x64 DUP3 ADD MSTORE PUSH1 0x84 SWAP1 REVERT JUMPDEST POP SWAP3 SWAP5 POP PUSH2 0x13DB SWAP1 PUSH2 0x225C JUMP JUMPDEST POP SWAP3 SWAP2 SWAP1 POP PUSH2 0x13EE JUMP JUMPDEST POP DUP3 ISZERO ISZERO PUSH2 0x11F6 JUMP JUMPDEST PUSH1 0x40 MLOAD PUSH3 0x461BCD PUSH1 0xE5 SHL DUP2 MSTORE PUSH1 0x20 PUSH1 0x4 DUP3 ADD MSTORE PUSH1 0x11 PUSH1 0x24 DUP3 ADD MSTORE PUSH17 0x496E76616C696420425443207072696365 PUSH1 0x78 SHL PUSH1 0x44 DUP3 ADD MSTORE PUSH1 0x64 SWAP1 REVERT JUMPDEST PUSH2 0x1810 SWAP1 PUSH1 0x20 RETURNDATASIZE PUSH1 0x20 GT PUSH2 0x559 JUMPI PUSH2 0x54A DUP2 DUP4 PUSH2 0x1FB1 JUMP JUMPDEST POP CODESIZE PUSH2 0x11AA JUMP JUMPDEST PUSH1 0x40 MLOAD PUSH3 0x461BCD PUSH1 0xE5 SHL DUP2 MSTORE PUSH1 0x20 PUSH1 0x4 DUP3 ADD MSTORE PUSH1 0x17 PUSH1 0x24 DUP3 ADD MSTORE PUSH32 0x4F6E6C7920626F72726F7765722063616E207265706179000000000000000000 PUSH1 0x44 DUP3 ADD MSTORE PUSH1 0x64 SWAP1 REVERT JUMPDEST POP CALLVALUE PUSH2 0x152 JUMPI PUSH1 0x20 CALLDATASIZE PUSH1 0x3 NOT ADD SLT PUSH2 0x152 JUMPI PUSH1 0x4 CALLDATALOAD PUSH1 0x1 PUSH1 0x1 PUSH1 0xA0 SHL SUB DUP2 DUP2 AND SWAP2 DUP3 SWAP1 SUB PUSH2 0xDD5 JUMPI PUSH2 0x1893 SWAP1 PUSH1 0x9 SLOAD AND CALLER EQ PUSH2 0x234A JUMP JUMPDEST PUSH1 0x1 PUSH1 0x1 PUSH1 0x60 SHL SUB PUSH1 0xA0 SHL PUSH1 0x3 SLOAD AND OR PUSH1 0x3 SSTORE DUP1 RETURN JUMPDEST POP CALLVALUE PUSH2 0x152 JUMPI PUSH1 0x20 SWAP1 DUP2 PUSH1 0x3 NOT CALLDATASIZE ADD SLT PUSH2 0x152 JUMPI SWAP1 PUSH1 0x4 CALLDATALOAD DUP3 MSTORE PUSH1 0x5 DUP2 MSTORE PUSH1 0xB PUSH1 0x40 DUP4 KECCAK256 ADD DUP1 SLOAD PUSH2 0x18D9 DUP2 PUSH2 0x20FC JUMP JUMPDEST SWAP1 PUSH2 0x18E7 PUSH1 0x40 MLOAD SWAP3 DUP4 PUSH2 0x1FB1 JUMP JUMPDEST DUP1 DUP3 MSTORE DUP4 DUP3 ADD DUP1 SWAP4 DUP7 MSTORE DUP5 DUP7 KECCAK256 DUP7 SWAP2 JUMPDEST DUP4 DUP4 LT PUSH2 0x1951 JUMPI POP POP POP POP PUSH1 0x40 MLOAD SWAP3 DUP1 DUP5 ADD SWAP2 DUP2 DUP6 MSTORE MLOAD DUP1 SWAP3 MSTORE PUSH1 0x40 DUP5 ADD SWAP3 SWAP5 JUMPDEST DUP3 DUP2 LT PUSH2 0x1925 JUMPI DUP5 DUP5 SUB DUP6 RETURN JUMPDEST DUP6 MLOAD DUP1 MLOAD DUP6 MSTORE DUP1 DUP4 ADD MLOAD DUP6 DUP5 ADD MSTORE PUSH1 0x40 SWAP1 DUP2 ADD MLOAD ISZERO ISZERO SWAP1 DUP6 ADD MSTORE SWAP5 DUP2 ADD SWAP5 PUSH1 0x60 SWAP1 SWAP4 ADD SWAP3 PUSH1 0x1 ADD PUSH2 0x1918 JUMP JUMPDEST PUSH1 0x3 DUP8 PUSH1 0x1 SWAP3 PUSH1 0x40 SWAP11 SWAP10 SWAP8 SWAP9 SWAP11 MLOAD PUSH2 0x1968 DUP2 PUSH2 0x1F7F JUMP JUMPDEST DUP6 SLOAD DUP2 MSTORE DUP5 DUP7 ADD SLOAD DUP4 DUP3 ADD MSTORE PUSH1 0xFF PUSH1 0x2 DUP8 ADD SLOAD AND ISZERO ISZERO PUSH1 0x40 DUP3 ADD MSTORE DUP2 MSTORE ADD SWAP3 ADD SWAP3 ADD SWAP2 SWAP1 SWAP7 SWAP5 SWAP4 SWAP6 SWAP7 PUSH2 0x18F7 JUMP JUMPDEST POP CALLVALUE PUSH2 0x152 JUMPI PUSH1 0x20 CALLDATASIZE PUSH1 0x3 NOT ADD SLT PUSH2 0x152 JUMPI PUSH1 0x4 CALLDATALOAD PUSH1 0x1 PUSH1 0x1 PUSH1 0xA0 SHL SUB DUP2 DUP2 AND SWAP2 DUP3 SWAP1 SUB PUSH2 0xDD5 JUMPI PUSH2 0x19CD SWAP1 PUSH1 0x9 SLOAD AND CALLER EQ PUSH2 0x234A JUMP JUMPDEST PUSH1 0x1 PUSH1 0x1 PUSH1 0x60 SHL SUB PUSH1 0xA0 SHL PUSH1 0x1 SLOAD AND OR PUSH1 0x1 SSTORE DUP1 RETURN JUMPDEST POP CALLVALUE PUSH2 0x152 JUMPI PUSH1 0x20 CALLDATASIZE PUSH1 0x3 NOT ADD SLT PUSH2 0x152 JUMPI PUSH1 0x4 CALLDATALOAD PUSH1 0x1 PUSH1 0x1 PUSH1 0xA0 SHL SUB DUP2 DUP2 AND SWAP2 DUP3 SWAP1 SUB PUSH2 0xDD5 JUMPI PUSH2 0x1A1A SWAP1 PUSH1 0x9 SLOAD AND CALLER EQ PUSH2 0x234A JUMP JUMPDEST DUP2 SLOAD PUSH1 0x1 PUSH1 0x1 PUSH1 0xA0 SHL SUB NOT AND OR DUP2 SSTORE DUP1 RETURN JUMPDEST POP CALLVALUE PUSH2 0x152 JUMPI PUSH1 0x20 DUP1 PUSH1 0x3 NOT CALLDATASIZE ADD SLT PUSH2 0x56B JUMPI PUSH1 0x4 CALLDATALOAD SWAP1 CALLER DUP4 MSTORE PUSH1 0x4 DUP2 MSTORE DUP2 PUSH1 0x2 PUSH1 0x40 DUP6 KECCAK256 ADD SLOAD LT PUSH2 0x1B18 JUMPI CALLER DUP4 MSTORE PUSH1 0x4 DUP2 MSTORE PUSH1 0x2 PUSH1 0x40 DUP5 KECCAK256 ADD PUSH2 0x1A71 DUP4 DUP3 SLOAD PUSH2 0x20EF JUMP JUMPDEST SWAP1 SSTORE CALLER DUP4 MSTORE PUSH1 0x4 DUP2 MSTORE PUSH1 0x40 DUP4 KECCAK256 PUSH2 0x1A89 DUP4 DUP3 SLOAD PUSH2 0x20EF JUMP JUMPDEST SWAP1 SSTORE PUSH1 0xA SLOAD PUSH1 0x40 MLOAD PUSH4 0xA9059CBB PUSH1 0xE0 SHL DUP2 MSTORE CALLER PUSH1 0x4 DUP3 ADD MSTORE PUSH1 0x24 DUP2 ADD DUP5 SWAP1 MSTORE SWAP2 SWAP1 DUP2 SWAP1 DUP4 SWAP1 PUSH1 0x44 SWAP1 DUP3 SWAP1 DUP9 SWAP1 PUSH1 0x1 PUSH1 0x1 PUSH1 0xA0 SHL SUB AND GAS CALL SWAP2 DUP3 ISZERO PUSH2 0xE1A JUMPI PUSH32 0x884EDAD9CE6FA2440D8A54CC123490EB96D2768479D49FF9C7366125A9424364 SWAP3 PUSH2 0x1AFB JUMPI JUMPDEST POP PUSH1 0x40 MLOAD SWAP3 DUP4 MSTORE CALLER SWAP3 LOG2 DUP1 RETURN JUMPDEST PUSH2 0x1B11 SWAP1 DUP3 RETURNDATASIZE DUP5 GT PUSH2 0x559 JUMPI PUSH2 0x54A DUP2 DUP4 PUSH2 0x1FB1 JUMP JUMPDEST POP CODESIZE PUSH2 0x1AEE JUMP JUMPDEST PUSH1 0x64 SWAP1 PUSH1 0x40 MLOAD SWAP1 PUSH3 0x461BCD PUSH1 0xE5 SHL DUP3 MSTORE PUSH1 0x4 DUP3 ADD MSTORE PUSH1 0x14 PUSH1 0x24 DUP3 ADD MSTORE PUSH20 0x496E73756666696369656E742062616C616E6365 PUSH1 0x60 SHL PUSH1 0x44 DUP3 ADD MSTORE REVERT JUMPDEST POP CALLVALUE PUSH2 0x152 JUMPI PUSH1 0x20 CALLDATASIZE PUSH1 0x3 NOT ADD SLT PUSH2 0x152 JUMPI PUSH1 0x4 CALLDATALOAD PUSH1 0x1 PUSH1 0x1 PUSH1 0xA0 SHL SUB DUP2 AND SWAP1 DUP2 SWAP1 SUB PUSH2 0x56B JUMPI DUP2 PUSH1 0x40 SWAP2 PUSH1 0x80 SWAP4 MSTORE PUSH1 0x4 PUSH1 0x20 MSTORE KECCAK256 DUP1 SLOAD SWAP1 PUSH1 0x1 DUP2 ADD SLOAD SWAP1 PUSH1 0x3 PUSH1 0x2 DUP3 ADD SLOAD SWAP2 ADD SLOAD SWAP2 PUSH1 0x40 MLOAD SWAP4 DUP5 MSTORE PUSH1 0x20 DUP5 ADD MSTORE PUSH1 0x40 DUP4 ADD MSTORE PUSH1 0x60 DUP3 ADD MSTORE RETURN JUMPDEST POP CALLVALUE PUSH2 0x152 JUMPI PUSH1 0x20 CALLDATASIZE PUSH1 0x3 NOT ADD SLT PUSH2 0x152 JUMPI PUSH1 0x4 CALLDATALOAD PUSH1 0x1 PUSH1 0x1 PUSH1 0xA0 SHL SUB DUP2 AND SWAP1 DUP2 SWAP1 SUB PUSH2 0x56B JUMPI PUSH1 0x40 DUP3 PUSH1 0xFF SWAP3 PUSH1 0x20 SWAP5 MSTORE PUSH1 0x6 DUP5 MSTORE KECCAK256 SLOAD AND PUSH1 0x40 MLOAD SWAP1 ISZERO ISZERO DUP2 MSTORE RETURN JUMPDEST POP CALLVALUE PUSH2 0x152 JUMPI DUP1 PUSH1 0x3 NOT CALLDATASIZE ADD SLT PUSH2 0x152 JUMPI PUSH1 0xA SLOAD PUSH1 0x40 MLOAD PUSH1 0x1 PUSH1 0x1 PUSH1 0xA0 SHL SUB SWAP1 SWAP2 AND DUP2 MSTORE PUSH1 0x20 SWAP1 RETURN JUMPDEST POP CALLVALUE PUSH2 0x152 JUMPI DUP1 PUSH1 0x3 NOT CALLDATASIZE ADD SLT PUSH2 0x152 JUMPI PUSH1 0x2 SLOAD PUSH1 0x40 MLOAD PUSH1 0x1 PUSH1 0x1 PUSH1 0xA0 SHL SUB SWAP1 SWAP2 AND DUP2 MSTORE PUSH1 0x20 SWAP1 RETURN JUMPDEST POP CALLVALUE PUSH2 0x152 JUMPI PUSH1 0x20 CALLDATASIZE PUSH1 0x3 NOT ADD SLT PUSH2 0x152 JUMPI PUSH2 0x1C6E PUSH1 0x1 DUP1 PUSH1 0xA0 SHL SUB PUSH1 0x9 SLOAD AND CALLER EQ PUSH2 0x234A JUMP JUMPDEST PUSH1 0x4 CALLDATALOAD DUP2 MSTORE PUSH1 0x5 PUSH1 0x20 MSTORE PUSH1 0x40 DUP2 KECCAK256 PUSH1 0x9 DUP2 ADD SWAP1 DUP2 SLOAD SWAP2 PUSH2 0x1C90 PUSH1 0xFF DUP5 AND PUSH2 0x23A0 JUMP JUMPDEST PUSH2 0x1C98 PUSH2 0x1FEA JUMP JUMPDEST SWAP3 PUSH1 0xC DUP4 ADD SWAP1 PUSH4 0x5F5E100 PUSH2 0x1CAE DUP7 DUP5 SLOAD PUSH2 0x2145 JUMP JUMPDEST DIV SWAP3 PUSH1 0xD DUP6 ADD SWAP4 DUP5 SLOAD PUSH1 0x69 DUP2 MUL SWAP1 DUP1 DUP3 DIV PUSH1 0x69 EQ SWAP1 ISZERO OR ISZERO PUSH2 0xF6D JUMPI PUSH1 0x64 SWAP1 DIV LT PUSH2 0x1E7D JUMPI PUSH1 0xFF NOT SWAP2 DUP3 AND SWAP1 SSTORE PUSH1 0x1 DUP5 ADD SLOAD PUSH1 0x1 PUSH1 0x1 PUSH1 0xA0 SHL SUB AND DUP7 MSTORE PUSH1 0x6 PUSH1 0x20 MSTORE PUSH1 0x40 DUP7 KECCAK256 DUP1 SLOAD SWAP1 SWAP2 AND SWAP1 SSTORE SLOAD DUP1 PUSH2 0x1E6B JUMPI JUMPDEST POP PUSH1 0x3 DUP3 ADD SLOAD SWAP1 SLOAD SWAP1 DUP2 PUSH2 0x1D5F JUMPI JUMPDEST POP POP PUSH1 0x1 ADD SLOAD PUSH1 0x40 DUP1 MLOAD PUSH1 0x4 CALLDATALOAD DUP2 MSTORE PUSH1 0x1 PUSH1 0x1 PUSH1 0xA0 SHL SUB SWAP1 SWAP3 AND PUSH1 0x20 DUP4 ADD MSTORE DUP2 ADD SWAP2 SWAP1 SWAP2 MSTORE PUSH32 0xCAB88A55906C5830A49DDDD8B31D115294A5E6C4210F25FE140530A39C51DC74 SWAP1 PUSH1 0x60 SWAP1 LOG1 DUP1 RETURN JUMPDEST SWAP1 SWAP2 DUP5 JUMPDEST PUSH1 0xA DUP3 ADD SLOAD DUP2 LT ISZERO PUSH2 0x1E5E JUMPI PUSH2 0x1D7C DUP2 PUSH1 0xA DUP5 ADD PUSH2 0x226B JUMP JUMPDEST POP PUSH2 0x1D90 PUSH1 0x1 DUP3 ADD SLOAD PUSH1 0x3 DUP4 ADD SLOAD SWAP1 PUSH2 0x20EF JUMP JUMPDEST DUP1 ISZERO PUSH2 0x1E53 JUMPI DUP1 PUSH8 0xDE0B6B3A7640000 DUP2 MUL DIV PUSH8 0xDE0B6B3A7640000 SUB PUSH2 0x1E3F JUMPI PUSH2 0x1E16 SWAP3 SWAP2 PUSH8 0xDE0B6B3A7640000 PUSH2 0x1DD6 PUSH2 0x1DD0 DUP10 DUP4 PUSH1 0x20 SWAP7 MUL PUSH2 0x2158 JUMP JUMPDEST DUP9 PUSH2 0x2145 JUMP JUMPDEST PUSH1 0xA SLOAD SWAP3 SLOAD PUSH1 0x40 MLOAD PUSH4 0xA9059CBB PUSH1 0xE0 SHL DUP2 MSTORE PUSH1 0x1 PUSH1 0x1 PUSH1 0xA0 SHL SUB SWAP2 DUP3 AND PUSH1 0x4 DUP3 ADD MSTORE SWAP3 SWAP1 SWAP2 DIV PUSH1 0x24 DUP4 ADD MSTORE SWAP1 SWAP5 DUP6 SWAP3 SWAP1 SWAP2 AND SWAP1 DUP3 SWAP1 DUP12 SWAP1 DUP3 SWAP1 PUSH1 0x44 DUP3 ADD SWAP1 JUMP JUMPDEST SUB SWAP3 GAS CALL SWAP2 DUP3 ISZERO PUSH2 0x1E34 JUMPI PUSH2 0x1E2F SWAP3 PUSH2 0x135E JUMPI POP PUSH2 0x225C JUMP JUMPDEST PUSH2 0x1D63 JUMP JUMPDEST PUSH1 0x40 MLOAD RETURNDATASIZE DUP10 DUP3 RETURNDATACOPY RETURNDATASIZE SWAP1 REVERT JUMPDEST PUSH4 0x4E487B71 PUSH1 0xE0 SHL DUP9 MSTORE PUSH1 0x11 PUSH1 0x4 MSTORE PUSH1 0x24 DUP9 REVERT JUMPDEST POP POP PUSH2 0x1E2F SWAP1 PUSH2 0x225C JUMP JUMPDEST POP SWAP2 POP DUP3 SWAP1 POP PUSH1 0x60 PUSH2 0x1D11 JUMP JUMPDEST PUSH2 0x1E77 SWAP1 PUSH1 0x4 CALLDATALOAD PUSH2 0x23FE JUMP JUMPDEST CODESIZE PUSH2 0x1D02 JUMP JUMPDEST PUSH1 0x40 MLOAD PUSH3 0x461BCD PUSH1 0xE5 SHL DUP2 MSTORE PUSH1 0x20 PUSH1 0x4 DUP3 ADD MSTORE PUSH1 0x35 PUSH1 0x24 DUP3 ADD MSTORE PUSH32 0x4254432076616C756520686173206E6F742064726F707065642062656C6F7720 PUSH1 0x44 DUP3 ADD MSTORE PUSH21 0x1B1A5C5D5A59185D1A5BDB881D1A1C995CDA1BDB19 PUSH1 0x5A SHL PUSH1 0x64 DUP3 ADD MSTORE PUSH1 0x84 SWAP1 REVERT JUMPDEST PUSH1 0x40 SWAP1 PUSH1 0x3 NOT ADD SLT PUSH2 0x1EF6 JUMPI PUSH1 0x4 CALLDATALOAD SWAP1 PUSH1 0x24 CALLDATALOAD SWAP1 JUMP JUMPDEST PUSH1 0x0 DUP1 REVERT JUMPDEST PUSH1 0x7 SLOAD DUP2 LT ISZERO PUSH2 0x1F32 JUMPI PUSH1 0x7 PUSH1 0x0 MSTORE PUSH32 0xA66CC928B5EDB82AF9BD49922954155AB7B0942694BEA4CE44661D9A8736C688 ADD SWAP1 PUSH1 0x0 SWAP1 JUMP JUMPDEST PUSH4 0x4E487B71 PUSH1 0xE0 SHL PUSH1 0x0 MSTORE PUSH1 0x32 PUSH1 0x4 MSTORE PUSH1 0x24 PUSH1 0x0 REVERT JUMPDEST PUSH1 0x8 SLOAD DUP2 LT ISZERO PUSH2 0x1F32 JUMPI PUSH1 0x8 PUSH1 0x0 MSTORE PUSH32 0xF3F7A9FE364FAAB93B216DA50A3214154F22A0A2B415B23A84C8169E8B636EE3 ADD SWAP1 PUSH1 0x0 SWAP1 JUMP JUMPDEST PUSH1 0x60 DUP2 ADD SWAP1 DUP2 LT PUSH8 0xFFFFFFFFFFFFFFFF DUP3 GT OR PUSH2 0x1F9B JUMPI PUSH1 0x40 MSTORE JUMP JUMPDEST PUSH4 0x4E487B71 PUSH1 0xE0 SHL PUSH1 0x0 MSTORE PUSH1 0x41 PUSH1 0x4 MSTORE PUSH1 0x24 PUSH1 0x0 REVERT JUMPDEST SWAP1 PUSH1 0x1F DUP1 NOT SWAP2 ADD AND DUP2 ADD SWAP1 DUP2 LT PUSH8 0xFFFFFFFFFFFFFFFF DUP3 GT OR PUSH2 0x1F9B JUMPI PUSH1 0x40 MSTORE JUMP JUMPDEST MLOAD SWAP1 PUSH10 0xFFFFFFFFFFFFFFFFFFFF DUP3 AND DUP3 SUB PUSH2 0x1EF6 JUMPI JUMP JUMPDEST PUSH1 0x3 SLOAD PUSH1 0x40 MLOAD PUSH4 0x3FABE5A3 PUSH1 0xE2 SHL DUP2 MSTORE SWAP1 PUSH1 0xA0 SWAP1 DUP3 SWAP1 PUSH1 0x4 SWAP1 DUP3 SWAP1 PUSH1 0x1 PUSH1 0x1 PUSH1 0xA0 SHL SUB AND GAS STATICCALL SWAP1 DUP2 ISZERO PUSH2 0x206B JUMPI PUSH1 0x0 SWAP2 PUSH2 0x2022 JUMPI POP SWAP1 JUMP JUMPDEST SWAP1 PUSH1 0xA0 DUP3 RETURNDATASIZE DUP3 GT PUSH2 0x2063 JUMPI JUMPDEST DUP2 PUSH2 0x203B PUSH1 0xA0 SWAP4 DUP4 PUSH2 0x1FB1 JUMP JUMPDEST DUP2 ADD SUB SLT PUSH2 0x152 JUMPI POP PUSH2 0x204D DUP2 PUSH2 0x1FD3 JUMP JUMPDEST POP PUSH2 0x205F PUSH1 0x80 PUSH1 0x20 DUP4 ADD MLOAD SWAP3 ADD PUSH2 0x1FD3 JUMP JUMPDEST POP SWAP1 JUMP JUMPDEST RETURNDATASIZE SWAP2 POP PUSH2 0x202E JUMP JUMPDEST PUSH1 0x40 MLOAD RETURNDATASIZE PUSH1 0x0 DUP3 RETURNDATACOPY RETURNDATASIZE SWAP1 REVERT JUMPDEST ISZERO PUSH2 0x207E JUMPI JUMP JUMPDEST PUSH1 0x40 MLOAD PUSH3 0x461BCD PUSH1 0xE5 SHL DUP2 MSTORE PUSH1 0x20 PUSH1 0x4 DUP3 ADD MSTORE PUSH1 0xE PUSH1 0x24 DUP3 ADD MSTORE PUSH14 0x125B9D985B1A5908185B5BDD5B9D PUSH1 0x92 SHL PUSH1 0x44 DUP3 ADD MSTORE PUSH1 0x64 SWAP1 REVERT JUMPDEST SWAP1 DUP2 PUSH1 0x20 SWAP2 SUB SLT PUSH2 0x1EF6 JUMPI MLOAD DUP1 ISZERO ISZERO DUP2 SUB PUSH2 0x1EF6 JUMPI SWAP1 JUMP JUMPDEST SWAP2 SWAP1 DUP3 ADD DUP1 SWAP3 GT PUSH2 0x20D9 JUMPI JUMP JUMPDEST PUSH4 0x4E487B71 PUSH1 0xE0 SHL PUSH1 0x0 MSTORE PUSH1 0x11 PUSH1 0x4 MSTORE PUSH1 0x24 PUSH1 0x0 REVERT JUMPDEST SWAP2 SWAP1 DUP3 SUB SWAP2 DUP3 GT PUSH2 0x20D9 JUMPI JUMP JUMPDEST PUSH8 0xFFFFFFFFFFFFFFFF DUP2 GT PUSH2 0x1F9B JUMPI PUSH1 0x5 SHL PUSH1 0x20 ADD SWAP1 JUMP JUMPDEST DUP1 MLOAD ISZERO PUSH2 0x1F32 JUMPI PUSH1 0x20 ADD SWAP1 JUMP JUMPDEST DUP1 MLOAD PUSH1 0x1 LT ISZERO PUSH2 0x1F32 JUMPI PUSH1 0x40 ADD SWAP1 JUMP JUMPDEST DUP1 MLOAD DUP3 LT ISZERO PUSH2 0x1F32 JUMPI PUSH1 0x20 SWAP2 PUSH1 0x5 SHL ADD ADD SWAP1 JUMP JUMPDEST DUP2 DUP2 MUL SWAP3 SWAP2 DUP2 ISZERO SWAP2 DUP5 DIV EQ OR ISZERO PUSH2 0x20D9 JUMPI JUMP JUMPDEST DUP2 ISZERO PUSH2 0x2162 JUMPI DIV SWAP1 JUMP JUMPDEST PUSH4 0x4E487B71 PUSH1 0xE0 SHL PUSH1 0x0 MSTORE PUSH1 0x12 PUSH1 0x4 MSTORE PUSH1 0x24 PUSH1 0x0 REVERT JUMPDEST PUSH1 0x20 SWAP1 DUP2 DUP2 DUP5 SUB SLT PUSH2 0x1EF6 JUMPI DUP1 MLOAD SWAP1 PUSH8 0xFFFFFFFFFFFFFFFF DUP3 GT PUSH2 0x1EF6 JUMPI ADD SWAP2 DUP1 PUSH1 0x1F DUP5 ADD SLT ISZERO PUSH2 0x1EF6 JUMPI DUP3 MLOAD PUSH2 0x21AE DUP2 PUSH2 0x20FC JUMP JUMPDEST SWAP4 PUSH2 0x21BC PUSH1 0x40 MLOAD SWAP6 DUP7 PUSH2 0x1FB1 JUMP JUMPDEST DUP2 DUP6 MSTORE DUP4 DUP1 DUP7 ADD SWAP3 PUSH1 0x5 SHL DUP3 ADD ADD SWAP3 DUP4 GT PUSH2 0x1EF6 JUMPI DUP4 ADD SWAP1 JUMPDEST DUP3 DUP3 LT PUSH2 0x21E3 JUMPI POP POP POP POP SWAP1 JUMP JUMPDEST DUP2 MLOAD DUP2 MSTORE SWAP1 DUP4 ADD SWAP1 DUP4 ADD PUSH2 0x21D5 JUMP JUMPDEST SWAP3 SWAP2 SWAP1 SWAP6 SWAP5 SWAP4 SWAP6 PUSH1 0xA0 DUP5 ADD SWAP1 DUP5 MSTORE PUSH1 0x20 SWAP2 DUP3 DUP6 ADD MSTORE PUSH1 0xA0 PUSH1 0x40 DUP6 ADD MSTORE DUP3 MLOAD DUP1 SWAP2 MSTORE DUP2 PUSH1 0xC0 DUP6 ADD SWAP4 ADD SWAP2 PUSH1 0x0 JUMPDEST DUP3 DUP2 LT PUSH2 0x223F JUMPI POP POP POP POP SWAP1 PUSH1 0x80 SWAP2 SWAP5 PUSH1 0x1 DUP1 PUSH1 0xA0 SHL SUB AND PUSH1 0x60 DUP3 ADD MSTORE ADD MSTORE JUMP JUMPDEST DUP4 MLOAD PUSH1 0x1 PUSH1 0x1 PUSH1 0xA0 SHL SUB AND DUP6 MSTORE SWAP4 DUP2 ADD SWAP4 SWAP3 DUP2 ADD SWAP3 PUSH1 0x1 ADD PUSH2 0x221E JUMP JUMPDEST PUSH1 0x0 NOT DUP2 EQ PUSH2 0x20D9 JUMPI PUSH1 0x1 ADD SWAP1 JUMP JUMPDEST DUP1 SLOAD DUP3 LT ISZERO PUSH2 0x1F32 JUMPI PUSH1 0x0 MSTORE PUSH1 0x5 PUSH1 0x20 PUSH1 0x0 KECCAK256 SWAP2 MUL ADD SWAP1 PUSH1 0x0 SWAP1 JUMP JUMPDEST SWAP1 DUP1 ISZERO PUSH2 0x2327 JUMPI DUP2 ISZERO PUSH2 0x2320 JUMPI DUP2 DUP1 PUSH1 0x1 EQ PUSH2 0x2318 JUMPI PUSH1 0x2 EQ PUSH2 0x2307 JUMPI PUSH1 0x20 DUP2 LT PUSH2 0x133 DUP4 LT AND PUSH1 0x4E DUP3 LT PUSH1 0xB DUP5 LT AND OR PUSH2 0x2302 JUMPI PUSH1 0x1 SWAP1 DUP2 JUMPDEST DUP1 DUP3 GT PUSH2 0x22D9 JUMPI POP POP DUP2 PUSH1 0x0 NOT DIV DUP2 GT PUSH2 0x20D9 JUMPI MUL SWAP1 JUMP JUMPDEST SWAP1 SWAP3 DUP1 PUSH1 0x0 NOT DIV DUP2 GT PUSH2 0x20D9 JUMPI DUP2 DUP5 AND PUSH2 0x22F9 JUMPI JUMPDEST DUP1 MUL SWAP3 DUP2 SHR SWAP1 PUSH2 0x22C1 JUMP JUMPDEST DUP1 SWAP3 MUL SWAP2 PUSH2 0x22EE JUMP JUMPDEST SWAP1 EXP SWAP1 JUMP JUMPDEST SWAP1 POP PUSH1 0xFF DUP2 GT PUSH2 0x20D9 JUMPI PUSH1 0x1 SWAP1 SHL SWAP1 JUMP JUMPDEST POP POP POP PUSH1 0x1 SWAP1 JUMP JUMPDEST POP POP PUSH1 0x0 SWAP1 JUMP JUMPDEST POP POP PUSH1 0x1 SWAP1 JUMP JUMPDEST DUP1 SLOAD DUP3 LT ISZERO PUSH2 0x1F32 JUMPI PUSH1 0x0 MSTORE PUSH1 0x3 PUSH1 0x20 PUSH1 0x0 KECCAK256 SWAP2 MUL ADD SWAP1 PUSH1 0x0 SWAP1 JUMP JUMPDEST ISZERO PUSH2 0x2351 JUMPI JUMP JUMPDEST PUSH1 0x40 MLOAD PUSH3 0x461BCD PUSH1 0xE5 SHL DUP2 MSTORE PUSH1 0x20 PUSH1 0x4 DUP3 ADD MSTORE PUSH1 0x21 PUSH1 0x24 DUP3 ADD MSTORE PUSH32 0x4F6E6C79206F776E65722063616E2063616C6C20746869732066756E6374696F PUSH1 0x44 DUP3 ADD MSTORE PUSH1 0x37 PUSH1 0xF9 SHL PUSH1 0x64 DUP3 ADD MSTORE PUSH1 0x84 SWAP1 REVERT JUMPDEST ISZERO PUSH2 0x23A7 JUMPI JUMP JUMPDEST PUSH1 0x40 MLOAD PUSH3 0x461BCD PUSH1 0xE5 SHL DUP2 MSTORE PUSH1 0x20 PUSH1 0x4 DUP3 ADD MSTORE PUSH1 0x12 PUSH1 0x24 DUP3 ADD MSTORE PUSH18 0x4C6F616E206973206E6F7420616374697665 PUSH1 0x70 SHL PUSH1 0x44 DUP3 ADD MSTORE PUSH1 0x64 SWAP1 REVERT JUMPDEST SWAP1 PUSH1 0x1 DUP3 ADD SWAP2 PUSH1 0x0 PUSH1 0x1 DUP5 SLT SWAP2 SLT SWAP1 DUP1 ISZERO DUP3 AND SWAP2 ISZERO AND OR PUSH2 0x20D9 JUMPI JUMP JUMPDEST SWAP1 PUSH1 0x0 SWAP1 DUP3 DUP3 MSTORE PUSH1 0x20 SWAP1 PUSH1 0x5 DUP3 MSTORE PUSH1 0x40 SWAP1 PUSH1 0xC DUP3 DUP6 KECCAK256 ADD DUP1 SLOAD DUP3 GT PUSH2 0x24FA JUMPI DUP5 SLOAD PUSH1 0x2 SLOAD DUP5 MLOAD PUSH4 0x1A4CA37B PUSH1 0xE2 SHL DUP2 MSTORE PUSH1 0x1 PUSH1 0x1 PUSH1 0xA0 SHL SUB SWAP2 DUP3 AND PUSH1 0x4 DUP3 ADD MSTORE PUSH1 0x24 DUP2 ADD SWAP5 SWAP1 SWAP5 MSTORE ADDRESS PUSH1 0x44 DUP6 ADD MSTORE DUP6 SWAP2 DUP5 SWAP2 PUSH1 0x64 SWAP2 DUP4 SWAP2 DUP11 SWAP2 AND GAS CALL SWAP2 DUP3 ISZERO PUSH2 0x24F0 JUMPI DUP6 SWAP3 PUSH2 0x24BC JUMPI JUMPDEST POP SWAP2 DUP2 DUP4 PUSH2 0x249D PUSH32 0x38A556A122683CB48D496614A7A03605B6C2C0482342924CAF483386980ECC9F SWAP9 SWAP7 SWAP5 PUSH1 0x80 SWAP9 SWAP7 SLOAD PUSH2 0x20EF JUMP JUMPDEST SWAP1 SSTORE PUSH2 0x24A8 DUP2 PUSH2 0x254D JUMP JUMPDEST SWAP3 DUP3 MLOAD SWAP6 DUP7 MSTORE DUP6 ADD MSTORE DUP4 ADD MSTORE PUSH1 0x60 DUP3 ADD MSTORE LOG1 JUMP JUMPDEST SWAP1 SWAP2 POP DUP4 DUP2 DUP2 RETURNDATASIZE DUP4 GT PUSH2 0x24E9 JUMPI JUMPDEST PUSH2 0x24D4 DUP2 DUP4 PUSH2 0x1FB1 JUMP JUMPDEST DUP2 ADD SUB SLT PUSH2 0x24E5 JUMPI MLOAD SWAP1 PUSH1 0x80 PUSH2 0x2468 JUMP JUMPDEST DUP5 DUP1 REVERT JUMPDEST POP RETURNDATASIZE PUSH2 0x24CA JUMP JUMPDEST DUP4 MLOAD RETURNDATASIZE DUP8 DUP3 RETURNDATACOPY RETURNDATASIZE SWAP1 REVERT JUMPDEST DUP3 MLOAD PUSH3 0x461BCD PUSH1 0xE5 SHL DUP2 MSTORE PUSH1 0x4 DUP2 ADD DUP6 SWAP1 MSTORE PUSH1 0x26 PUSH1 0x24 DUP3 ADD MSTORE PUSH32 0x43616E6E6F7420756E7374616B65206D6F7265207468616E207374616B656420 PUSH1 0x44 DUP3 ADD MSTORE PUSH6 0x185B5BDD5B9D PUSH1 0xD2 SHL PUSH1 0x64 DUP3 ADD MSTORE PUSH1 0x84 SWAP1 REVERT JUMPDEST PUSH1 0x2 SLOAD PUSH1 0x1 SLOAD PUSH1 0x40 DUP1 MLOAD PUSH4 0x95EA7B3 PUSH1 0xE0 SHL DUP2 MSTORE PUSH1 0x1 PUSH1 0x1 PUSH1 0xA0 SHL SUB SWAP3 DUP4 AND PUSH1 0x4 DUP3 ADD MSTORE PUSH1 0x24 DUP2 ADD DUP6 SWAP1 MSTORE PUSH1 0x0 SWAP6 SWAP5 SWAP2 SWAP4 SWAP2 SWAP3 SWAP2 PUSH1 0x20 SWAP1 DUP3 SWAP1 PUSH1 0x44 SWAP1 DUP3 SWAP1 DUP11 SWAP1 DUP8 AND GAS CALL DUP1 ISZERO PUSH2 0x2686 JUMPI PUSH2 0x2668 JUMPI JUMPDEST POP DUP3 MLOAD PUSH2 0x25A8 DUP2 PUSH2 0x1F7F JUMP JUMPDEST PUSH1 0x2 DUP2 MSTORE DUP4 CALLDATASIZE PUSH1 0x20 DUP4 ADD CALLDATACOPY DUP2 PUSH1 0x2 SLOAD AND PUSH2 0x25C1 DUP3 PUSH2 0x2114 JUMP JUMPDEST MSTORE DUP2 PUSH1 0xA SLOAD AND PUSH2 0x25D0 DUP3 PUSH2 0x2121 JUMP JUMPDEST MSTORE PUSH1 0x5F DUP4 MUL SWAP2 DUP4 DUP4 DIV PUSH1 0x5F EQ DUP5 ISZERO OR ISZERO PUSH2 0x758 JUMPI PUSH1 0x1 SLOAD AND SWAP1 PUSH2 0x12C TIMESTAMP ADD SWAP4 DUP5 TIMESTAMP GT PUSH2 0x1E3F JUMPI SWAP1 DUP8 DUP1 SWAP5 SWAP4 SWAP3 PUSH2 0x2621 DUP9 MLOAD SWAP8 DUP9 SWAP7 DUP8 SWAP6 DUP7 SWAP5 PUSH4 0x38ED1739 PUSH1 0xE0 SHL DUP7 MSTORE PUSH1 0x64 ADDRESS SWAP4 DIV SWAP1 PUSH1 0x4 DUP8 ADD PUSH2 0x21F2 JUMP JUMPDEST SUB SWAP3 GAS CALL SWAP2 DUP3 ISZERO PUSH2 0x265F JUMPI POP DUP4 PUSH2 0x2640 SWAP4 SWAP5 SWAP3 PUSH2 0x2644 JUMPI JUMPDEST POP POP PUSH2 0x2121 JUMP JUMPDEST MLOAD SWAP1 JUMP JUMPDEST PUSH2 0x2658 SWAP3 POP RETURNDATASIZE DUP1 SWAP2 DUP4 RETURNDATACOPY PUSH2 0xE0C DUP2 DUP4 PUSH2 0x1FB1 JUMP JUMPDEST CODESIZE DUP1 PUSH2 0x2639 JUMP JUMPDEST MLOAD RETURNDATASIZE DUP6 DUP3 RETURNDATACOPY RETURNDATASIZE SWAP1 REVERT JUMPDEST PUSH2 0x267F SWAP1 PUSH1 0x20 RETURNDATASIZE DUP2 GT PUSH2 0x559 JUMPI PUSH2 0x54A DUP2 DUP4 PUSH2 0x1FB1 JUMP JUMPDEST POP CODESIZE PUSH2 0x259C JUMP JUMPDEST DUP5 MLOAD RETURNDATASIZE DUP9 DUP3 RETURNDATACOPY RETURNDATASIZE SWAP1 REVERT INVALID LOG2 PUSH5 0x6970667358 0x22 SLT KECCAK256 PUSH5 0xDE75B2011F MLOAD 0xEF SAR ADDMOD PUSH29 0x31BD8E7C40FAF5DA3A2BBA35EF304C99279778DEBD64736F6C63430008 EQ STOP CALLER "},"methodIdentifiers":{"aavePool()":"a03e4bc3","cbBtcToken()":"0e462386","chainlinkOracle()":"ef06e72c","deposit(uint256)":"b6b55f25","getInstallmentSchedule(bytes32)":"6c1945ae","getPrice()":"98d5fdca","hasActiveLoan(address)":"21d4f8db","lenders(address)":"28fd10d7","lendersList(uint256)":"c7c92222","liquidate(bytes32)":"0a71096e","loan(uint256,uint256,uint256)":"864a83b2","loanIds(uint256)":"f8715a42","loans(bytes32)":"c4a90815","markInstallmentPaid(bytes32,uint256)":"c9642d2a","owner()":"8da5cb5b","payouts(bytes32,uint256)":"80f2122c","setAavePool(address)":"349f937c","setCbBtcToken(address)":"83cd8fcf","setChainlinkOracle(address)":"7a9b0412","setSwapRouter(address)":"41273657","swapRouter()":"c31c9c07","usdcToken()":"11eac855","withdraw(uint256)":"2e1a7d4d"}}}}}