{"Contracts/Lending.sol":{"LendingPool":{"abi":[{"inputs":[{"internalType":"address","name":"usdc","type":"address"},{"internalType":"address","name":"oracleAddress","type":"address"}],"stateMutability":"nonpayable","type":"constructor"},{"anonymous":false,"inputs":[{"indexed":false,"internalType":"bytes32","name":"loanId","type":"bytes32"},{"indexed":false,"internalType":"uint256","name":"index","type":"uint256"}],"name":"InstallmentPaid","type":"event"},{"anonymous":false,"inputs":[{"indexed":false,"internalType":"bytes32","name":"id","type":"bytes32"},{"indexed":false,"internalType":"uint256","name":"amount","type":"uint256"},{"indexed":false,"internalType":"uint256","name":"collateral","type":"uint256"},{"indexed":false,"internalType":"address","name":"borrower","type":"address"}],"name":"LoanCreated","type":"event"},{"anonymous":false,"inputs":[{"indexed":false,"internalType":"bytes32","name":"id","type":"bytes32"},{"indexed":false,"internalType":"address","name":"borrower","type":"address"},{"indexed":false,"internalType":"uint256","name":"btcPriceNow","type":"uint256"}],"name":"LoanLiquidated","type":"event"},{"anonymous":false,"inputs":[{"indexed":false,"internalType":"bytes32","name":"loanId","type":"bytes32"},{"indexed":false,"internalType":"address","name":"borrower","type":"address"},{"indexed":false,"internalType":"uint256","name":"amount","type":"uint256"},{"indexed":false,"internalType":"bool","name":"fullyRepaid","type":"bool"}],"name":"Payout","type":"event"},{"inputs":[],"name":"chainlinkOracle","outputs":[{"internalType":"contract AggregatorV3Interface","name":"","type":"address"}],"stateMutability":"view","type":"function"},{"inputs":[{"internalType":"uint256","name":"amount","type":"uint256"}],"name":"deposit","outputs":[],"stateMutability":"nonpayable","type":"function"},{"inputs":[{"internalType":"bytes32","name":"loanId","type":"bytes32"}],"name":"getInstallmentSchedule","outputs":[{"components":[{"internalType":"uint256","name":"duePrincipal","type":"uint256"},{"internalType":"uint256","name":"dueInterest","type":"uint256"},{"internalType":"bool","name":"paid","type":"bool"}],"internalType":"struct LendingPool.Installment[]","name":"","type":"tuple[]"}],"stateMutability":"view","type":"function"},{"inputs":[],"name":"getPrice","outputs":[{"internalType":"int256","name":"","type":"int256"}],"stateMutability":"view","type":"function"},{"inputs":[{"internalType":"address","name":"","type":"address"}],"name":"hasActiveLoan","outputs":[{"internalType":"bool","name":"","type":"bool"}],"stateMutability":"view","type":"function"},{"inputs":[{"internalType":"address","name":"","type":"address"}],"name":"lenders","outputs":[{"internalType":"uint256","name":"deposit","type":"uint256"},{"internalType":"uint256","name":"totalContributed","type":"uint256"},{"internalType":"uint256","name":"remainingDeposit","type":"uint256"},{"internalType":"uint256","name":"depositTimestamp","type":"uint256"}],"stateMutability":"view","type":"function"},{"inputs":[{"internalType":"uint256","name":"","type":"uint256"}],"name":"lendersList","outputs":[{"internalType":"address","name":"","type":"address"}],"stateMutability":"view","type":"function"},{"inputs":[{"internalType":"bytes32","name":"loanId","type":"bytes32"}],"name":"liquidate","outputs":[],"stateMutability":"nonpayable","type":"function"},{"inputs":[{"internalType":"uint256","name":"totalAmount","type":"uint256"},{"internalType":"uint256","name":"durationMonths","type":"uint256"},{"internalType":"uint256","name":"annualInterestRate","type":"uint256"}],"name":"loan","outputs":[],"stateMutability":"nonpayable","type":"function"},{"inputs":[{"internalType":"uint256","name":"","type":"uint256"}],"name":"loanIds","outputs":[{"internalType":"bytes32","name":"","type":"bytes32"}],"stateMutability":"view","type":"function"},{"inputs":[{"internalType":"bytes32","name":"","type":"bytes32"}],"name":"loans","outputs":[{"internalType":"bytes32","name":"id","type":"bytes32"},{"internalType":"address","name":"borrower","type":"address"},{"internalType":"uint256","name":"principal","type":"uint256"},{"internalType":"uint256","name":"borrowerDeposit","type":"uint256"},{"internalType":"uint256","name":"interestRate","type":"uint256"},{"internalType":"uint256","name":"duration","type":"uint256"},{"internalType":"uint256","name":"monthlyPayment","type":"uint256"},{"internalType":"uint256","name":"startTime","type":"uint256"},{"internalType":"uint256","name":"btcPriceAtCreation","type":"uint256"},{"internalType":"bool","name":"isActive","type":"bool"}],"stateMutability":"view","type":"function"},{"inputs":[{"internalType":"bytes32","name":"loanId","type":"bytes32"},{"internalType":"uint256","name":"index","type":"uint256"}],"name":"markInstallmentPaid","outputs":[],"stateMutability":"nonpayable","type":"function"},{"inputs":[],"name":"owner","outputs":[{"internalType":"address","name":"","type":"address"}],"stateMutability":"view","type":"function"},{"inputs":[{"internalType":"bytes32","name":"loanId","type":"bytes32"},{"internalType":"uint256","name":"usdcAmount","type":"uint256"}],"name":"payouts","outputs":[],"stateMutability":"nonpayable","type":"function"},{"inputs":[{"internalType":"address","name":"oracleAddress","type":"address"}],"name":"setChainlinkOracle","outputs":[],"stateMutability":"nonpayable","type":"function"},{"inputs":[],"name":"usdcToken","outputs":[{"internalType":"address","name":"","type":"address"}],"stateMutability":"view","type":"function"},{"inputs":[{"internalType":"uint256","name":"amount","type":"uint256"}],"name":"withdraw","outputs":[],"stateMutability":"nonpayable","type":"function"}],"evm":{"bytecode":{"linkReferences":{},"object":"60803461009457601f62001c1238819003918201601f19168301916001600160401b0383118484101761009957808492604094855283398101031261009457610053602061004c836100af565b92016100af565b9060018060a01b0319913383600654161760065560018060a01b0380921683600754161760075516906000541617600055604051611b4e9081620000c48239f35b600080fd5b634e487b7160e01b600052604160045260246000fd5b51906001600160a01b03821682036100945756fe6080604052600436101561001257600080fd5b60003560e01c80630a71096e1461146d57806311eac8551461144457806321d4f8db1461140157806328fd10d7146113a15780632e1a7d4d1461129d5780636c1945ae146111b95780637a9b04121461116b57806380f2122c14610cf9578063864a83b2146104f35780638da5cb5b146104ca57806398d5fdca146104a7578063b6b55f2514610354578063c4a90815146102b7578063c7c9222214610275578063c9642d2a1461013c578063ef06e72c146101135763f8715a42146100d757600080fd5b3461010e57602036600319011261010e5760043560055481101561010e576101006020916117ae565b90546040519160031b1c8152f35b600080fd5b3461010e57600036600319011261010e576000546040516001600160a01b039091168152602090f35b3461010e5761014a3661174b565b9061016060018060a01b03600654163314611a64565b806000526002602052600b604060002061018060ff600983015416611aba565b019081548310156102305760ff60026101998585611a30565b500154166101eb578260026101d17f3d05ac2057427ac2f84502e7efefebf5ae10d9529129c2979ce60fb97d46061495604095611a30565b5001805460ff1916600117905582519182526020820152a1005b60405162461bcd60e51b815260206004820152601f60248201527f496e7374616c6c6d656e7420616c7265616479206d61726b65642070616964006044820152606490fd5b60405162461bcd60e51b815260206004820152601960248201527f496e76616c696420696e7374616c6c6d656e7420696e646578000000000000006044820152606490fd5b3461010e57602036600319011261010e5760043560045481101561010e5761029e602091611761565b905460405160039290921b1c6001600160a01b03168152f35b3461010e57602036600319011261010e576004356000526002602052610140604060002080549060018060a01b036001820154169060028101546003820154600483015460058401549060068501549260078601549460ff600960088901549801541697604051998a5260208a015260408901526060880152608087015260a086015260c085015260e08401526101008301521515610120820152f35b3461010e5760208060031936011261010e57600435906103758215156118be565b6007546040516323b872dd60e01b8152336004820152306024820152604481018490526001600160a01b03939183908290606490829060009089165af1801561049b5761046e575b5033600052600182526040600020541561041f575b600192503360005282825260406000206103ed828254611913565b9055336000528282526104096002604060002001918254611913565b9055336000525242600360406000200155600080f35b60045492600160401b84101561045857610440846001809601600455611761565b819291549060031b9133831b921b19161790556103d2565b634e487b7160e01b600052604160045260246000fd5b61048d90833d8511610494575b6104858183611801565b8101906118fb565b50836103bd565b503d61047b565b6040513d6000823e3d90fd5b3461010e57600036600319011261010e5760206104c261183a565b604051908152f35b3461010e57600036600319011261010e576006546040516001600160a01b039091168152602090f35b3461010e57606036600319011261010e576004351561051281156118be565b60243515610cc15733600052600360205260ff60406000205416610c7057601460043502906004358204601414171561066e5761055460648204600435611920565b6007546040516323b872dd60e01b8152336004820152306024820152606480850460448301529091602091839182906000906001600160a01b03165af1801561049b57610c51575b50600454906105aa82611a4c565b916105b86040519384611801565b808352601f196105c782611a4c565b0136602085013760005b818110610c235750506001905b82518210156106d9576001600160a01b036105f98385611959565b511690816000526001602052600360406000200154948360001981011360011661066e5760001984015b6000811215806106ac575b15610684576001600160a01b036106458288611959565b511661065961065383611afb565b88611959565b52600160ff1b811461066e5760001901610623565b634e487b7160e01b600052601160045260246000fd5b6106a69391965061069a6106a091959395611afb565b86611959565b5261194a565b906105de565b506001600160a01b036106bf8288611959565b51166000526001602052866003604060002001541161062e565b8284600060405160208101903360601b8252426034820152603481526106fe816117e5565b51902092836000526002602052606460406000209385855560018501336001600160601b0360a01b8254161790558660028601550460038401556044356004840155602435600584015542600784015561075661183a565b600884015560098301805460ff1916600117905560005b8151811080610c1a575b1561091c576001600160a01b0361078e8284611959565b511690816000526001602052600260406000200154801561091157806107b4868a611920565b101561090b57506107c58488611920565b935b84156108ff57846108139184600052600160205260026040600020016107ee838254611920565b9055846000526001602052600160406000200161080c838254611913565b9055611913565b936104b061082e6024356108296044358561192d565b61192d565b0490604051938460a081011067ffffffffffffffff60a0870111176104585760a085016040528452602084015260408301526000606083015260006080830152600a850154600160401b811015610458578060016108959201600a880155600a870161196d565b6108e957600460806108e49460018060a01b038151166001600160601b0360a01b855416178455602081015160018501556040810151600285015560608101516003850155015191015561194a565b61076d565b634e487b7160e01b600052600060045260246000fd5b93506108e4915061194a565b936107c7565b506108e4915061194a565b848685818603610bd557670de0b6b3a764000060443502906044358204670de0b6b3a76400001460443515171561066e5761095b6104b083048461192d565b6104b08304670de0b6b3a76400000180670de0b6b3a76400001161066e578015610bbf576109969060243590670de0b6b3a764000004611989565b670de0b6b3a76400000390670de0b6b3a7640000821161066e576006916109bc91611940565b91015560008381526002602052604081206006810154935b6024358310610ae65785600554600160401b811015610458578060016109fd92016005556117ae565b8154600391821b84811b60001990911b199091161790915533600081815260209283526040808220805460ff19166001179055848252600280855281832060075491810154925163a9059cbb60e01b8152600481019590955260248501929092529094929391849160449183916001600160a01b03165af1801561049b577f65410888fb30edd04f6acfb2f6cfd92aaf0ebb9b5303b6286d65d0b031b5b7f793608093600392610ac7575b50015460405191825260043560208301526040820152336060820152a1005b610adf9060203d602011610494576104858183611801565b5085610aa8565b670de0b6b3a7640000610afd6104b086048361192d565b0490610b098287611920565b60243560001981011161066e57602435600019018514610bab575b60405192610b31846117e5565b818452602084015260006040840152600b840154600160401b81101561045857806001610b679201600b870155600b8601611a30565b9290926108e9578360406002610b9f95610ba5975181556020840151600182015501910151151560ff80198354169116179055611920565b9261194a565b916109d4565b50945084610bb98282611913565b95610b24565b634e487b7160e01b600052601260045260246000fd5b60405162461bcd60e51b815260206004820152601760248201527f4e6f7420656e6f756768206c656e6465722066756e64730000000000000000006044820152606490fd5b50858310610777565b80610c30610c4c92611761565b905460039190911b1c6001600160a01b03166106a08287611959565b6105d1565b610c699060203d602011610494576104858183611801565b508261059c565b60405162461bcd60e51b815260206004820152602360248201527f426f72726f77657220616c72656164792068617320616e20616374697665206c60448201526237b0b760e91b6064820152608490fd5b60405162461bcd60e51b815260206004820152601060248201526f24b73b30b634b210323ab930ba34b7b760811b6044820152606490fd5b3461010e57610d073661174b565b908060005260026020526040600020610d2660ff600983015416611aba565b60018101546001600160a01b03163303611126576007546040516323b872dd60e01b81523360048201523060248201526044810185905290602090829060649082906000906001600160a01b03165af1801561049b57611107575b5091806000935b600b8101548510806110fe575b156110f65760ff6002610dab87600b8501611a30565b500154166110ea57610dc085600b8301611a30565b5094855495600181015493610dd58589611913565b91828210610f6b57600201805460ff19166001179055610df59190611920565b9360028301549460005b600a850154811015610f2457610e1881600a870161196d565b509060018201549182670de0b6b3a7640000810204670de0b6b3a7640000148315171561066e578a602091610eb1670de0b6b3a7640000610e7581610e6d8f610e669083610ee69c02611940565b809761192d565b04948d61192d565b0460038301610e85858254611913565b905560048301610e96828254611913565b905560075492546001600160a01b0390811694931692611913565b60405163a9059cbb60e01b81526001600160a01b03909316600484015260248301529093849190829060009082906044820190565b03925af191821561049b57610f0092610f05575b5061194a565b610dff565b610f1d9060203d602011610494576104858183611801565b508a610efa565b5096509250610f639193507f3d05ac2057427ac2f84502e7efefebf5ae10d9529129c2979ce60fb97d46061460408051878152836020820152a161194a565b939091610d88565b50935050509293505b600192836000600b830154905b8181106110ad575b5050611076575b81610fd7575b7fdc376abd09229a842ac7d8bcadc9017651f1f1b8490750870cae0ecd4aedf6746080868686604051928352336020840152604083015215156060820152a1005b6007546001919091015460405163a9059cbb60e01b81526001600160a01b0391821660048201526024810193909352919492939160209186916044918391600091165af192831561049b577fdc376abd09229a842ac7d8bcadc9017651f1f1b8490750870cae0ecd4aedf67494608094611057575b509193819350610f96565b61106f9060203d602011610494576104858183611801565b508561104c565b60098101805460ff1990811690915560018201546001600160a01b0316600090815260036020526040902080549091169055610f90565b90915060ff60026110c183600b8701611a30565b50015416156110db576110d39061194a565b908591610f81565b50509250600092838680610f89565b919093610f639061194a565b929350610f74565b50811515610d95565b61111f9060203d602011610494576104858183611801565b5083610d81565b60405162461bcd60e51b815260206004820152601760248201527f4f6e6c7920626f72726f7765722063616e2072657061790000000000000000006044820152606490fd5b3461010e57602036600319011261010e576004356001600160a01b038181169182900361010e576111a190600654163314611a64565b6001600160601b0360a01b6000541617600055600080f35b3461010e5760208060031936011261010e57600435600052600290818152600b6040600020019182546111eb81611a4c565b916111f96040519384611801565b81835260009485528385208484019591865b84841061126357604080518881528751818a018190528a928201908a60005b8281106112375784840385f35b85518051855280830151858401526040908101511515908501529481019460609093019260010161122a565b600387600192604051611275816117e5565b86548152848701548382015260ff86880154161515604082015281520193019301929161120b565b3461010e5760208060031936011261010e5760043533600052600182528060026040600020015410611365578161133d60009233845260018352600260408520016112e9828254611920565b90553384526001835260408420611301828254611920565b905560075460405163a9059cbb60e01b81523360048201526024810192909252909384926001600160a01b039092169183919082906044820190565b03925af1801561049b5761134d57005b8161136392903d10610494576104858183611801565b005b60405162461bcd60e51b8152600481018390526014602482015273496e73756666696369656e742062616c616e636560601b6044820152606490fd5b3461010e57602036600319011261010e576004356001600160a01b0381169081900361010e576000526001602052608060406000208054906001810154906003600282015491015491604051938452602084015260408301526060820152f35b3461010e57602036600319011261010e576004356001600160a01b0381169081900361010e576000526003602052602060ff604060002054166040519015158152f35b3461010e57600036600319011261010e576007546040516001600160a01b039091168152602090f35b3461010e57602036600319011261010e5761149360018060a01b03600654163314611a64565b600435600052600260205260406000206009810180546114b560ff8216611aba565b6114bd61183a565b916008840154606484028481046064148515171561066e57605f820291808304605f149015171561066e57116116e75760ff19809216905560018060a01b036001840154166000526003602052604060002090815416905560038201546000906000600a8501545b8082106116ab5750508161157e575b50506060907fcab88a55906c5830a49dddd8b31d115294a5e6c4210f25fe140530a39c51dc74926001808060a01b03910154169060405191600435835260208301526040820152a1005b909260005b600a82015481101561167f5761159c81600a840161196d565b50906115b16001830154600384015490611920565b80156116745780670de0b6b3a7640000810204670de0b6b3a76400000361066e5761163792670de0b6b3a76400006115f66115f08a8360209602611940565b8861192d565b600754925460405163a9059cbb60e01b81526001600160a01b0391821660048201529290910460248301529094859290911690829060009082906044820190565b03925af191821561049b5761165092611655575061194a565b611583565b61166d9060203d602011610494576104858183611801565b5086610efa565b50611650915061194a565b5092508190507fcab88a55906c5830a49dddd8b31d115294a5e6c4210f25fe140530a39c51dc74611534565b90926116db6116e1916116d56116c487600a8b0161196d565b506003600182015491015490611920565b90611913565b9361194a565b90611525565b60405162461bcd60e51b815260206004820152603660248201527f42544320707269636520686173206e6f742064726f707065642073756666696360448201527534b2b73a363c903337b9103634b8bab4b230ba34b7b760511b6064820152608490fd5b604090600319011261010e576004359060243590565b6004548110156117985760046000527f8a35acfbc15ff81a39ae7d344fd709f28e8600b4aa8c65c6b64bfe7fe36bd19b0190600090565b634e487b7160e01b600052603260045260246000fd5b6005548110156117985760056000527f036b6384b5eca791c62761152d0c79bb0604c104a5fb6f4eb0703f3154bb3db00190600090565b6060810190811067ffffffffffffffff82111761045857604052565b90601f8019910116810190811067ffffffffffffffff82111761045857604052565b519069ffffffffffffffffffff8216820361010e57565b600054604051633fabe5a360e21b81529060a090829060049082906001600160a01b03165afa90811561049b57600091611872575090565b9060a0823d82116118b6575b8161188b60a09383611801565b810103126118b3575061189d81611823565b506118af608060208301519201611823565b5090565b80fd5b3d915061187e565b156118c557565b60405162461bcd60e51b815260206004820152600e60248201526d125b9d985b1a5908185b5bdd5b9d60921b6044820152606490fd5b9081602091031261010e5751801515810361010e5790565b9190820180921161066e57565b9190820391821161066e57565b8181029291811591840414171561066e57565b8115610bbf570490565b600019811461066e5760010190565b80518210156117985760209160051b010190565b8054821015611798576000526005602060002091020190600090565b908015611a29578115611a22578180600114611a1a57600214611a095760208110610133831016604e8210600b84101617611a0457600190815b8082116119db5750508160001904811161066e570290565b90928060001904811161066e578184166119fb575b800292811c906119c3565b809202916119f0565b900a90565b905060ff811161066e576001901b90565b505050600190565b5050600090565b5050600190565b8054821015611798576000526003602060002091020190600090565b67ffffffffffffffff81116104585760051b60200190565b15611a6b57565b60405162461bcd60e51b815260206004820152602160248201527f4f6e6c79206f776e65722063616e2063616c6c20746869732066756e6374696f6044820152603760f91b6064820152608490fd5b15611ac157565b60405162461bcd60e51b81526020600482015260126024820152714c6f616e206973206e6f742061637469766560701b6044820152606490fd5b906001820191600060018412911290801582169115161761066e5756fea2646970667358221220631dff929478bf1bc900edd0546ee6033561fabbd659e212afe44c509cf3f95b64736f6c63430008140033","opcodes":"PUSH1 0x80 CALLVALUE PUSH2 0x94 JUMPI PUSH1 0x1F PUSH3 0x1C12 CODESIZE DUP2 SWAP1 SUB SWAP2 DUP3 ADD PUSH1 0x1F NOT AND DUP4 ADD SWAP2 PUSH1 0x1 PUSH1 0x1 PUSH1 0x40 SHL SUB DUP4 GT DUP5 DUP5 LT OR PUSH2 0x99 JUMPI DUP1 DUP5 SWAP3 PUSH1 0x40 SWAP5 DUP6 MSTORE DUP4 CODECOPY DUP2 ADD SUB SLT PUSH2 0x94 JUMPI PUSH2 0x53 PUSH1 0x20 PUSH2 0x4C DUP4 PUSH2 0xAF JUMP JUMPDEST SWAP3 ADD PUSH2 0xAF JUMP JUMPDEST SWAP1 PUSH1 0x1 DUP1 PUSH1 0xA0 SHL SUB NOT SWAP2 CALLER DUP4 PUSH1 0x6 SLOAD AND OR PUSH1 0x6 SSTORE PUSH1 0x1 DUP1 PUSH1 0xA0 SHL SUB DUP1 SWAP3 AND DUP4 PUSH1 0x7 SLOAD AND OR PUSH1 0x7 SSTORE AND SWAP1 PUSH1 0x0 SLOAD AND OR PUSH1 0x0 SSTORE PUSH1 0x40 MLOAD PUSH2 0x1B4E SWAP1 DUP2 PUSH3 0xC4 DUP3 CODECOPY RETURN JUMPDEST PUSH1 0x0 DUP1 REVERT JUMPDEST PUSH4 0x4E487B71 PUSH1 0xE0 SHL PUSH1 0x0 MSTORE PUSH1 0x41 PUSH1 0x4 MSTORE PUSH1 0x24 PUSH1 0x0 REVERT JUMPDEST MLOAD SWAP1 PUSH1 0x1 PUSH1 0x1 PUSH1 0xA0 SHL SUB DUP3 AND DUP3 SUB PUSH2 0x94 JUMPI JUMP INVALID PUSH1 0x80 PUSH1 0x40 MSTORE PUSH1 0x4 CALLDATASIZE LT ISZERO PUSH2 0x12 JUMPI PUSH1 0x0 DUP1 REVERT JUMPDEST PUSH1 0x0 CALLDATALOAD PUSH1 0xE0 SHR DUP1 PUSH4 0xA71096E EQ PUSH2 0x146D JUMPI DUP1 PUSH4 0x11EAC855 EQ PUSH2 0x1444 JUMPI DUP1 PUSH4 0x21D4F8DB EQ PUSH2 0x1401 JUMPI DUP1 PUSH4 0x28FD10D7 EQ PUSH2 0x13A1 JUMPI DUP1 PUSH4 0x2E1A7D4D EQ PUSH2 0x129D JUMPI DUP1 PUSH4 0x6C1945AE EQ PUSH2 0x11B9 JUMPI DUP1 PUSH4 0x7A9B0412 EQ PUSH2 0x116B JUMPI DUP1 PUSH4 0x80F2122C EQ PUSH2 0xCF9 JUMPI DUP1 PUSH4 0x864A83B2 EQ PUSH2 0x4F3 JUMPI DUP1 PUSH4 0x8DA5CB5B EQ PUSH2 0x4CA JUMPI DUP1 PUSH4 0x98D5FDCA EQ PUSH2 0x4A7 JUMPI DUP1 PUSH4 0xB6B55F25 EQ PUSH2 0x354 JUMPI DUP1 PUSH4 0xC4A90815 EQ PUSH2 0x2B7 JUMPI DUP1 PUSH4 0xC7C92222 EQ PUSH2 0x275 JUMPI DUP1 PUSH4 0xC9642D2A EQ PUSH2 0x13C JUMPI DUP1 PUSH4 0xEF06E72C EQ PUSH2 0x113 JUMPI PUSH4 0xF8715A42 EQ PUSH2 0xD7 JUMPI PUSH1 0x0 DUP1 REVERT JUMPDEST CALLVALUE PUSH2 0x10E JUMPI PUSH1 0x20 CALLDATASIZE PUSH1 0x3 NOT ADD SLT PUSH2 0x10E JUMPI PUSH1 0x4 CALLDATALOAD PUSH1 0x5 SLOAD DUP2 LT ISZERO PUSH2 0x10E JUMPI PUSH2 0x100 PUSH1 0x20 SWAP2 PUSH2 0x17AE JUMP JUMPDEST SWAP1 SLOAD PUSH1 0x40 MLOAD SWAP2 PUSH1 0x3 SHL SHR DUP2 MSTORE RETURN JUMPDEST PUSH1 0x0 DUP1 REVERT JUMPDEST CALLVALUE PUSH2 0x10E JUMPI PUSH1 0x0 CALLDATASIZE PUSH1 0x3 NOT ADD SLT PUSH2 0x10E JUMPI PUSH1 0x0 SLOAD PUSH1 0x40 MLOAD PUSH1 0x1 PUSH1 0x1 PUSH1 0xA0 SHL SUB SWAP1 SWAP2 AND DUP2 MSTORE PUSH1 0x20 SWAP1 RETURN JUMPDEST CALLVALUE PUSH2 0x10E JUMPI PUSH2 0x14A CALLDATASIZE PUSH2 0x174B JUMP JUMPDEST SWAP1 PUSH2 0x160 PUSH1 0x1 DUP1 PUSH1 0xA0 SHL SUB PUSH1 0x6 SLOAD AND CALLER EQ PUSH2 0x1A64 JUMP JUMPDEST DUP1 PUSH1 0x0 MSTORE PUSH1 0x2 PUSH1 0x20 MSTORE PUSH1 0xB PUSH1 0x40 PUSH1 0x0 KECCAK256 PUSH2 0x180 PUSH1 0xFF PUSH1 0x9 DUP4 ADD SLOAD AND PUSH2 0x1ABA JUMP JUMPDEST ADD SWAP1 DUP2 SLOAD DUP4 LT ISZERO PUSH2 0x230 JUMPI PUSH1 0xFF PUSH1 0x2 PUSH2 0x199 DUP6 DUP6 PUSH2 0x1A30 JUMP JUMPDEST POP ADD SLOAD AND PUSH2 0x1EB JUMPI DUP3 PUSH1 0x2 PUSH2 0x1D1 PUSH32 0x3D05AC2057427AC2F84502E7EFEFEBF5AE10D9529129C2979CE60FB97D460614 SWAP6 PUSH1 0x40 SWAP6 PUSH2 0x1A30 JUMP JUMPDEST POP ADD DUP1 SLOAD PUSH1 0xFF NOT AND PUSH1 0x1 OR SWAP1 SSTORE DUP3 MLOAD SWAP2 DUP3 MSTORE PUSH1 0x20 DUP3 ADD MSTORE LOG1 STOP JUMPDEST PUSH1 0x40 MLOAD PUSH3 0x461BCD PUSH1 0xE5 SHL DUP2 MSTORE PUSH1 0x20 PUSH1 0x4 DUP3 ADD MSTORE PUSH1 0x1F PUSH1 0x24 DUP3 ADD MSTORE PUSH32 0x496E7374616C6C6D656E7420616C7265616479206D61726B6564207061696400 PUSH1 0x44 DUP3 ADD MSTORE PUSH1 0x64 SWAP1 REVERT JUMPDEST PUSH1 0x40 MLOAD PUSH3 0x461BCD PUSH1 0xE5 SHL DUP2 MSTORE PUSH1 0x20 PUSH1 0x4 DUP3 ADD MSTORE PUSH1 0x19 PUSH1 0x24 DUP3 ADD MSTORE PUSH32 0x496E76616C696420696E7374616C6C6D656E7420696E64657800000000000000 PUSH1 0x44 DUP3 ADD MSTORE PUSH1 0x64 SWAP1 REVERT JUMPDEST CALLVALUE PUSH2 0x10E JUMPI PUSH1 0x20 CALLDATASIZE PUSH1 0x3 NOT ADD SLT PUSH2 0x10E JUMPI PUSH1 0x4 CALLDATALOAD PUSH1 0x4 SLOAD DUP2 LT ISZERO PUSH2 0x10E JUMPI PUSH2 0x29E PUSH1 0x20 SWAP2 PUSH2 0x1761 JUMP JUMPDEST SWAP1 SLOAD PUSH1 0x40 MLOAD PUSH1 0x3 SWAP3 SWAP1 SWAP3 SHL SHR PUSH1 0x1 PUSH1 0x1 PUSH1 0xA0 SHL SUB AND DUP2 MSTORE RETURN JUMPDEST CALLVALUE PUSH2 0x10E JUMPI PUSH1 0x20 CALLDATASIZE PUSH1 0x3 NOT ADD SLT PUSH2 0x10E JUMPI PUSH1 0x4 CALLDATALOAD PUSH1 0x0 MSTORE PUSH1 0x2 PUSH1 0x20 MSTORE PUSH2 0x140 PUSH1 0x40 PUSH1 0x0 KECCAK256 DUP1 SLOAD SWAP1 PUSH1 0x1 DUP1 PUSH1 0xA0 SHL SUB PUSH1 0x1 DUP3 ADD SLOAD AND SWAP1 PUSH1 0x2 DUP2 ADD SLOAD PUSH1 0x3 DUP3 ADD SLOAD PUSH1 0x4 DUP4 ADD SLOAD PUSH1 0x5 DUP5 ADD SLOAD SWAP1 PUSH1 0x6 DUP6 ADD SLOAD SWAP3 PUSH1 0x7 DUP7 ADD SLOAD SWAP5 PUSH1 0xFF PUSH1 0x9 PUSH1 0x8 DUP10 ADD SLOAD SWAP9 ADD SLOAD AND SWAP8 PUSH1 0x40 MLOAD SWAP10 DUP11 MSTORE PUSH1 0x20 DUP11 ADD MSTORE PUSH1 0x40 DUP10 ADD MSTORE PUSH1 0x60 DUP9 ADD MSTORE PUSH1 0x80 DUP8 ADD MSTORE PUSH1 0xA0 DUP7 ADD MSTORE PUSH1 0xC0 DUP6 ADD MSTORE PUSH1 0xE0 DUP5 ADD MSTORE PUSH2 0x100 DUP4 ADD MSTORE ISZERO ISZERO PUSH2 0x120 DUP3 ADD MSTORE RETURN JUMPDEST CALLVALUE PUSH2 0x10E JUMPI PUSH1 0x20 DUP1 PUSH1 0x3 NOT CALLDATASIZE ADD SLT PUSH2 0x10E JUMPI PUSH1 0x4 CALLDATALOAD SWAP1 PUSH2 0x375 DUP3 ISZERO ISZERO PUSH2 0x18BE JUMP JUMPDEST PUSH1 0x7 SLOAD PUSH1 0x40 MLOAD PUSH4 0x23B872DD PUSH1 0xE0 SHL DUP2 MSTORE CALLER PUSH1 0x4 DUP3 ADD MSTORE ADDRESS PUSH1 0x24 DUP3 ADD MSTORE PUSH1 0x44 DUP2 ADD DUP5 SWAP1 MSTORE PUSH1 0x1 PUSH1 0x1 PUSH1 0xA0 SHL SUB SWAP4 SWAP2 DUP4 SWAP1 DUP3 SWAP1 PUSH1 0x64 SWAP1 DUP3 SWAP1 PUSH1 0x0 SWAP1 DUP10 AND GAS CALL DUP1 ISZERO PUSH2 0x49B JUMPI PUSH2 0x46E JUMPI JUMPDEST POP CALLER PUSH1 0x0 MSTORE PUSH1 0x1 DUP3 MSTORE PUSH1 0x40 PUSH1 0x0 KECCAK256 SLOAD ISZERO PUSH2 0x41F JUMPI JUMPDEST PUSH1 0x1 SWAP3 POP CALLER PUSH1 0x0 MSTORE DUP3 DUP3 MSTORE PUSH1 0x40 PUSH1 0x0 KECCAK256 PUSH2 0x3ED DUP3 DUP3 SLOAD PUSH2 0x1913 JUMP JUMPDEST SWAP1 SSTORE CALLER PUSH1 0x0 MSTORE DUP3 DUP3 MSTORE PUSH2 0x409 PUSH1 0x2 PUSH1 0x40 PUSH1 0x0 KECCAK256 ADD SWAP2 DUP3 SLOAD PUSH2 0x1913 JUMP JUMPDEST SWAP1 SSTORE CALLER PUSH1 0x0 MSTORE MSTORE TIMESTAMP PUSH1 0x3 PUSH1 0x40 PUSH1 0x0 KECCAK256 ADD SSTORE PUSH1 0x0 DUP1 RETURN JUMPDEST PUSH1 0x4 SLOAD SWAP3 PUSH1 0x1 PUSH1 0x40 SHL DUP5 LT ISZERO PUSH2 0x458 JUMPI PUSH2 0x440 DUP5 PUSH1 0x1 DUP1 SWAP7 ADD PUSH1 0x4 SSTORE PUSH2 0x1761 JUMP JUMPDEST DUP2 SWAP3 SWAP2 SLOAD SWAP1 PUSH1 0x3 SHL SWAP2 CALLER DUP4 SHL SWAP3 SHL NOT AND OR SWAP1 SSTORE PUSH2 0x3D2 JUMP JUMPDEST PUSH4 0x4E487B71 PUSH1 0xE0 SHL PUSH1 0x0 MSTORE PUSH1 0x41 PUSH1 0x4 MSTORE PUSH1 0x24 PUSH1 0x0 REVERT JUMPDEST PUSH2 0x48D SWAP1 DUP4 RETURNDATASIZE DUP6 GT PUSH2 0x494 JUMPI JUMPDEST PUSH2 0x485 DUP2 DUP4 PUSH2 0x1801 JUMP JUMPDEST DUP2 ADD SWAP1 PUSH2 0x18FB JUMP JUMPDEST POP DUP4 PUSH2 0x3BD JUMP JUMPDEST POP RETURNDATASIZE PUSH2 0x47B JUMP JUMPDEST PUSH1 0x40 MLOAD RETURNDATASIZE PUSH1 0x0 DUP3 RETURNDATACOPY RETURNDATASIZE SWAP1 REVERT JUMPDEST CALLVALUE PUSH2 0x10E JUMPI PUSH1 0x0 CALLDATASIZE PUSH1 0x3 NOT ADD SLT PUSH2 0x10E JUMPI PUSH1 0x20 PUSH2 0x4C2 PUSH2 0x183A JUMP JUMPDEST PUSH1 0x40 MLOAD SWAP1 DUP2 MSTORE RETURN JUMPDEST CALLVALUE PUSH2 0x10E JUMPI PUSH1 0x0 CALLDATASIZE PUSH1 0x3 NOT ADD SLT PUSH2 0x10E JUMPI PUSH1 0x6 SLOAD PUSH1 0x40 MLOAD PUSH1 0x1 PUSH1 0x1 PUSH1 0xA0 SHL SUB SWAP1 SWAP2 AND DUP2 MSTORE PUSH1 0x20 SWAP1 RETURN JUMPDEST CALLVALUE PUSH2 0x10E JUMPI PUSH1 0x60 CALLDATASIZE PUSH1 0x3 NOT ADD SLT PUSH2 0x10E JUMPI PUSH1 0x4 CALLDATALOAD ISZERO PUSH2 0x512 DUP2 ISZERO PUSH2 0x18BE JUMP JUMPDEST PUSH1 0x24 CALLDATALOAD ISZERO PUSH2 0xCC1 JUMPI CALLER PUSH1 0x0 MSTORE PUSH1 0x3 PUSH1 0x20 MSTORE PUSH1 0xFF PUSH1 0x40 PUSH1 0x0 KECCAK256 SLOAD AND PUSH2 0xC70 JUMPI PUSH1 0x14 PUSH1 0x4 CALLDATALOAD MUL SWAP1 PUSH1 0x4 CALLDATALOAD DUP3 DIV PUSH1 0x14 EQ OR ISZERO PUSH2 0x66E JUMPI PUSH2 0x554 PUSH1 0x64 DUP3 DIV PUSH1 0x4 CALLDATALOAD PUSH2 0x1920 JUMP JUMPDEST PUSH1 0x7 SLOAD PUSH1 0x40 MLOAD PUSH4 0x23B872DD PUSH1 0xE0 SHL DUP2 MSTORE CALLER PUSH1 0x4 DUP3 ADD MSTORE ADDRESS PUSH1 0x24 DUP3 ADD MSTORE PUSH1 0x64 DUP1 DUP6 DIV PUSH1 0x44 DUP4 ADD MSTORE SWAP1 SWAP2 PUSH1 0x20 SWAP2 DUP4 SWAP2 DUP3 SWAP1 PUSH1 0x0 SWAP1 PUSH1 0x1 PUSH1 0x1 PUSH1 0xA0 SHL SUB AND GAS CALL DUP1 ISZERO PUSH2 0x49B JUMPI PUSH2 0xC51 JUMPI JUMPDEST POP PUSH1 0x4 SLOAD SWAP1 PUSH2 0x5AA DUP3 PUSH2 0x1A4C JUMP JUMPDEST SWAP2 PUSH2 0x5B8 PUSH1 0x40 MLOAD SWAP4 DUP5 PUSH2 0x1801 JUMP JUMPDEST DUP1 DUP4 MSTORE PUSH1 0x1F NOT PUSH2 0x5C7 DUP3 PUSH2 0x1A4C JUMP JUMPDEST ADD CALLDATASIZE PUSH1 0x20 DUP6 ADD CALLDATACOPY PUSH1 0x0 JUMPDEST DUP2 DUP2 LT PUSH2 0xC23 JUMPI POP POP PUSH1 0x1 SWAP1 JUMPDEST DUP3 MLOAD DUP3 LT ISZERO PUSH2 0x6D9 JUMPI PUSH1 0x1 PUSH1 0x1 PUSH1 0xA0 SHL SUB PUSH2 0x5F9 DUP4 DUP6 PUSH2 0x1959 JUMP JUMPDEST MLOAD AND SWAP1 DUP2 PUSH1 0x0 MSTORE PUSH1 0x1 PUSH1 0x20 MSTORE PUSH1 0x3 PUSH1 0x40 PUSH1 0x0 KECCAK256 ADD SLOAD SWAP5 DUP4 PUSH1 0x0 NOT DUP2 ADD SGT PUSH1 0x1 AND PUSH2 0x66E JUMPI PUSH1 0x0 NOT DUP5 ADD JUMPDEST PUSH1 0x0 DUP2 SLT ISZERO DUP1 PUSH2 0x6AC JUMPI JUMPDEST ISZERO PUSH2 0x684 JUMPI PUSH1 0x1 PUSH1 0x1 PUSH1 0xA0 SHL SUB PUSH2 0x645 DUP3 DUP9 PUSH2 0x1959 JUMP JUMPDEST MLOAD AND PUSH2 0x659 PUSH2 0x653 DUP4 PUSH2 0x1AFB JUMP JUMPDEST DUP9 PUSH2 0x1959 JUMP JUMPDEST MSTORE PUSH1 0x1 PUSH1 0xFF SHL DUP2 EQ PUSH2 0x66E JUMPI PUSH1 0x0 NOT ADD PUSH2 0x623 JUMP JUMPDEST PUSH4 0x4E487B71 PUSH1 0xE0 SHL PUSH1 0x0 MSTORE PUSH1 0x11 PUSH1 0x4 MSTORE PUSH1 0x24 PUSH1 0x0 REVERT JUMPDEST PUSH2 0x6A6 SWAP4 SWAP2 SWAP7 POP PUSH2 0x69A PUSH2 0x6A0 SWAP2 SWAP6 SWAP4 SWAP6 PUSH2 0x1AFB JUMP JUMPDEST DUP7 PUSH2 0x1959 JUMP JUMPDEST MSTORE PUSH2 0x194A JUMP JUMPDEST SWAP1 PUSH2 0x5DE JUMP JUMPDEST POP PUSH1 0x1 PUSH1 0x1 PUSH1 0xA0 SHL SUB PUSH2 0x6BF DUP3 DUP9 PUSH2 0x1959 JUMP JUMPDEST MLOAD AND PUSH1 0x0 MSTORE PUSH1 0x1 PUSH1 0x20 MSTORE DUP7 PUSH1 0x3 PUSH1 0x40 PUSH1 0x0 KECCAK256 ADD SLOAD GT PUSH2 0x62E JUMP JUMPDEST DUP3 DUP5 PUSH1 0x0 PUSH1 0x40 MLOAD PUSH1 0x20 DUP2 ADD SWAP1 CALLER PUSH1 0x60 SHL DUP3 MSTORE TIMESTAMP PUSH1 0x34 DUP3 ADD MSTORE PUSH1 0x34 DUP2 MSTORE PUSH2 0x6FE DUP2 PUSH2 0x17E5 JUMP JUMPDEST MLOAD SWAP1 KECCAK256 SWAP3 DUP4 PUSH1 0x0 MSTORE PUSH1 0x2 PUSH1 0x20 MSTORE PUSH1 0x64 PUSH1 0x40 PUSH1 0x0 KECCAK256 SWAP4 DUP6 DUP6 SSTORE PUSH1 0x1 DUP6 ADD CALLER PUSH1 0x1 PUSH1 0x1 PUSH1 0x60 SHL SUB PUSH1 0xA0 SHL DUP3 SLOAD AND OR SWAP1 SSTORE DUP7 PUSH1 0x2 DUP7 ADD SSTORE DIV PUSH1 0x3 DUP5 ADD SSTORE PUSH1 0x44 CALLDATALOAD PUSH1 0x4 DUP5 ADD SSTORE PUSH1 0x24 CALLDATALOAD PUSH1 0x5 DUP5 ADD SSTORE TIMESTAMP PUSH1 0x7 DUP5 ADD SSTORE PUSH2 0x756 PUSH2 0x183A JUMP JUMPDEST PUSH1 0x8 DUP5 ADD SSTORE PUSH1 0x9 DUP4 ADD DUP1 SLOAD PUSH1 0xFF NOT AND PUSH1 0x1 OR SWAP1 SSTORE PUSH1 0x0 JUMPDEST DUP2 MLOAD DUP2 LT DUP1 PUSH2 0xC1A JUMPI JUMPDEST ISZERO PUSH2 0x91C JUMPI PUSH1 0x1 PUSH1 0x1 PUSH1 0xA0 SHL SUB PUSH2 0x78E DUP3 DUP5 PUSH2 0x1959 JUMP JUMPDEST MLOAD AND SWAP1 DUP2 PUSH1 0x0 MSTORE PUSH1 0x1 PUSH1 0x20 MSTORE PUSH1 0x2 PUSH1 0x40 PUSH1 0x0 KECCAK256 ADD SLOAD DUP1 ISZERO PUSH2 0x911 JUMPI DUP1 PUSH2 0x7B4 DUP7 DUP11 PUSH2 0x1920 JUMP JUMPDEST LT ISZERO PUSH2 0x90B JUMPI POP PUSH2 0x7C5 DUP5 DUP9 PUSH2 0x1920 JUMP JUMPDEST SWAP4 JUMPDEST DUP5 ISZERO PUSH2 0x8FF JUMPI DUP5 PUSH2 0x813 SWAP2 DUP5 PUSH1 0x0 MSTORE PUSH1 0x1 PUSH1 0x20 MSTORE PUSH1 0x2 PUSH1 0x40 PUSH1 0x0 KECCAK256 ADD PUSH2 0x7EE DUP4 DUP3 SLOAD PUSH2 0x1920 JUMP JUMPDEST SWAP1 SSTORE DUP5 PUSH1 0x0 MSTORE PUSH1 0x1 PUSH1 0x20 MSTORE PUSH1 0x1 PUSH1 0x40 PUSH1 0x0 KECCAK256 ADD PUSH2 0x80C DUP4 DUP3 SLOAD PUSH2 0x1913 JUMP JUMPDEST SWAP1 SSTORE PUSH2 0x1913 JUMP JUMPDEST SWAP4 PUSH2 0x4B0 PUSH2 0x82E PUSH1 0x24 CALLDATALOAD PUSH2 0x829 PUSH1 0x44 CALLDATALOAD DUP6 PUSH2 0x192D JUMP JUMPDEST PUSH2 0x192D JUMP JUMPDEST DIV SWAP1 PUSH1 0x40 MLOAD SWAP4 DUP5 PUSH1 0xA0 DUP2 ADD LT PUSH8 0xFFFFFFFFFFFFFFFF PUSH1 0xA0 DUP8 ADD GT OR PUSH2 0x458 JUMPI PUSH1 0xA0 DUP6 ADD PUSH1 0x40 MSTORE DUP5 MSTORE PUSH1 0x20 DUP5 ADD MSTORE PUSH1 0x40 DUP4 ADD MSTORE PUSH1 0x0 PUSH1 0x60 DUP4 ADD MSTORE PUSH1 0x0 PUSH1 0x80 DUP4 ADD MSTORE PUSH1 0xA DUP6 ADD SLOAD PUSH1 0x1 PUSH1 0x40 SHL DUP2 LT ISZERO PUSH2 0x458 JUMPI DUP1 PUSH1 0x1 PUSH2 0x895 SWAP3 ADD PUSH1 0xA DUP9 ADD SSTORE PUSH1 0xA DUP8 ADD PUSH2 0x196D JUMP JUMPDEST PUSH2 0x8E9 JUMPI PUSH1 0x4 PUSH1 0x80 PUSH2 0x8E4 SWAP5 PUSH1 0x1 DUP1 PUSH1 0xA0 SHL SUB DUP2 MLOAD AND PUSH1 0x1 PUSH1 0x1 PUSH1 0x60 SHL SUB PUSH1 0xA0 SHL DUP6 SLOAD AND OR DUP5 SSTORE PUSH1 0x20 DUP2 ADD MLOAD PUSH1 0x1 DUP6 ADD SSTORE PUSH1 0x40 DUP2 ADD MLOAD PUSH1 0x2 DUP6 ADD SSTORE PUSH1 0x60 DUP2 ADD MLOAD PUSH1 0x3 DUP6 ADD SSTORE ADD MLOAD SWAP2 ADD SSTORE PUSH2 0x194A JUMP JUMPDEST PUSH2 0x76D JUMP JUMPDEST PUSH4 0x4E487B71 PUSH1 0xE0 SHL PUSH1 0x0 MSTORE PUSH1 0x0 PUSH1 0x4 MSTORE PUSH1 0x24 PUSH1 0x0 REVERT JUMPDEST SWAP4 POP PUSH2 0x8E4 SWAP2 POP PUSH2 0x194A JUMP JUMPDEST SWAP4 PUSH2 0x7C7 JUMP JUMPDEST POP PUSH2 0x8E4 SWAP2 POP PUSH2 0x194A JUMP JUMPDEST DUP5 DUP7 DUP6 DUP2 DUP7 SUB PUSH2 0xBD5 JUMPI PUSH8 0xDE0B6B3A7640000 PUSH1 0x44 CALLDATALOAD MUL SWAP1 PUSH1 0x44 CALLDATALOAD DUP3 DIV PUSH8 0xDE0B6B3A7640000 EQ PUSH1 0x44 CALLDATALOAD ISZERO OR ISZERO PUSH2 0x66E JUMPI PUSH2 0x95B PUSH2 0x4B0 DUP4 DIV DUP5 PUSH2 0x192D JUMP JUMPDEST PUSH2 0x4B0 DUP4 DIV PUSH8 0xDE0B6B3A7640000 ADD DUP1 PUSH8 0xDE0B6B3A7640000 GT PUSH2 0x66E JUMPI DUP1 ISZERO PUSH2 0xBBF JUMPI PUSH2 0x996 SWAP1 PUSH1 0x24 CALLDATALOAD SWAP1 PUSH8 0xDE0B6B3A7640000 DIV PUSH2 0x1989 JUMP JUMPDEST PUSH8 0xDE0B6B3A7640000 SUB SWAP1 PUSH8 0xDE0B6B3A7640000 DUP3 GT PUSH2 0x66E JUMPI PUSH1 0x6 SWAP2 PUSH2 0x9BC SWAP2 PUSH2 0x1940 JUMP JUMPDEST SWAP2 ADD SSTORE PUSH1 0x0 DUP4 DUP2 MSTORE PUSH1 0x2 PUSH1 0x20 MSTORE PUSH1 0x40 DUP2 KECCAK256 PUSH1 0x6 DUP2 ADD SLOAD SWAP4 JUMPDEST PUSH1 0x24 CALLDATALOAD DUP4 LT PUSH2 0xAE6 JUMPI DUP6 PUSH1 0x5 SLOAD PUSH1 0x1 PUSH1 0x40 SHL DUP2 LT ISZERO PUSH2 0x458 JUMPI DUP1 PUSH1 0x1 PUSH2 0x9FD SWAP3 ADD PUSH1 0x5 SSTORE PUSH2 0x17AE JUMP JUMPDEST DUP2 SLOAD PUSH1 0x3 SWAP2 DUP3 SHL DUP5 DUP2 SHL PUSH1 0x0 NOT SWAP1 SWAP2 SHL NOT SWAP1 SWAP2 AND OR SWAP1 SWAP2 SSTORE CALLER PUSH1 0x0 DUP2 DUP2 MSTORE PUSH1 0x20 SWAP3 DUP4 MSTORE PUSH1 0x40 DUP1 DUP3 KECCAK256 DUP1 SLOAD PUSH1 0xFF NOT AND PUSH1 0x1 OR SWAP1 SSTORE DUP5 DUP3 MSTORE PUSH1 0x2 DUP1 DUP6 MSTORE DUP2 DUP4 KECCAK256 PUSH1 0x7 SLOAD SWAP2 DUP2 ADD SLOAD SWAP3 MLOAD PUSH4 0xA9059CBB PUSH1 0xE0 SHL DUP2 MSTORE PUSH1 0x4 DUP2 ADD SWAP6 SWAP1 SWAP6 MSTORE PUSH1 0x24 DUP6 ADD SWAP3 SWAP1 SWAP3 MSTORE SWAP1 SWAP5 SWAP3 SWAP4 SWAP2 DUP5 SWAP2 PUSH1 0x44 SWAP2 DUP4 SWAP2 PUSH1 0x1 PUSH1 0x1 PUSH1 0xA0 SHL SUB AND GAS CALL DUP1 ISZERO PUSH2 0x49B JUMPI PUSH32 0x65410888FB30EDD04F6ACFB2F6CFD92AAF0EBB9B5303B6286D65D0B031B5B7F7 SWAP4 PUSH1 0x80 SWAP4 PUSH1 0x3 SWAP3 PUSH2 0xAC7 JUMPI JUMPDEST POP ADD SLOAD PUSH1 0x40 MLOAD SWAP2 DUP3 MSTORE PUSH1 0x4 CALLDATALOAD PUSH1 0x20 DUP4 ADD MSTORE PUSH1 0x40 DUP3 ADD MSTORE CALLER PUSH1 0x60 DUP3 ADD MSTORE LOG1 STOP JUMPDEST PUSH2 0xADF SWAP1 PUSH1 0x20 RETURNDATASIZE PUSH1 0x20 GT PUSH2 0x494 JUMPI PUSH2 0x485 DUP2 DUP4 PUSH2 0x1801 JUMP JUMPDEST POP DUP6 PUSH2 0xAA8 JUMP JUMPDEST PUSH8 0xDE0B6B3A7640000 PUSH2 0xAFD PUSH2 0x4B0 DUP7 DIV DUP4 PUSH2 0x192D JUMP JUMPDEST DIV SWAP1 PUSH2 0xB09 DUP3 DUP8 PUSH2 0x1920 JUMP JUMPDEST PUSH1 0x24 CALLDATALOAD PUSH1 0x0 NOT DUP2 ADD GT PUSH2 0x66E JUMPI PUSH1 0x24 CALLDATALOAD PUSH1 0x0 NOT ADD DUP6 EQ PUSH2 0xBAB JUMPI JUMPDEST PUSH1 0x40 MLOAD SWAP3 PUSH2 0xB31 DUP5 PUSH2 0x17E5 JUMP JUMPDEST DUP2 DUP5 MSTORE PUSH1 0x20 DUP5 ADD MSTORE PUSH1 0x0 PUSH1 0x40 DUP5 ADD MSTORE PUSH1 0xB DUP5 ADD SLOAD PUSH1 0x1 PUSH1 0x40 SHL DUP2 LT ISZERO PUSH2 0x458 JUMPI DUP1 PUSH1 0x1 PUSH2 0xB67 SWAP3 ADD PUSH1 0xB DUP8 ADD SSTORE PUSH1 0xB DUP7 ADD PUSH2 0x1A30 JUMP JUMPDEST SWAP3 SWAP1 SWAP3 PUSH2 0x8E9 JUMPI DUP4 PUSH1 0x40 PUSH1 0x2 PUSH2 0xB9F SWAP6 PUSH2 0xBA5 SWAP8 MLOAD DUP2 SSTORE PUSH1 0x20 DUP5 ADD MLOAD PUSH1 0x1 DUP3 ADD SSTORE ADD SWAP2 ADD MLOAD ISZERO ISZERO PUSH1 0xFF DUP1 NOT DUP4 SLOAD AND SWAP2 AND OR SWAP1 SSTORE PUSH2 0x1920 JUMP JUMPDEST SWAP3 PUSH2 0x194A JUMP JUMPDEST SWAP2 PUSH2 0x9D4 JUMP JUMPDEST POP SWAP5 POP DUP5 PUSH2 0xBB9 DUP3 DUP3 PUSH2 0x1913 JUMP JUMPDEST SWAP6 PUSH2 0xB24 JUMP JUMPDEST PUSH4 0x4E487B71 PUSH1 0xE0 SHL PUSH1 0x0 MSTORE PUSH1 0x12 PUSH1 0x4 MSTORE PUSH1 0x24 PUSH1 0x0 REVERT JUMPDEST PUSH1 0x40 MLOAD PUSH3 0x461BCD PUSH1 0xE5 SHL DUP2 MSTORE PUSH1 0x20 PUSH1 0x4 DUP3 ADD MSTORE PUSH1 0x17 PUSH1 0x24 DUP3 ADD MSTORE PUSH32 0x4E6F7420656E6F756768206C656E6465722066756E6473000000000000000000 PUSH1 0x44 DUP3 ADD MSTORE PUSH1 0x64 SWAP1 REVERT JUMPDEST POP DUP6 DUP4 LT PUSH2 0x777 JUMP JUMPDEST DUP1 PUSH2 0xC30 PUSH2 0xC4C SWAP3 PUSH2 0x1761 JUMP JUMPDEST SWAP1 SLOAD PUSH1 0x3 SWAP2 SWAP1 SWAP2 SHL SHR PUSH1 0x1 PUSH1 0x1 PUSH1 0xA0 SHL SUB AND PUSH2 0x6A0 DUP3 DUP8 PUSH2 0x1959 JUMP JUMPDEST PUSH2 0x5D1 JUMP JUMPDEST PUSH2 0xC69 SWAP1 PUSH1 0x20 RETURNDATASIZE PUSH1 0x20 GT PUSH2 0x494 JUMPI PUSH2 0x485 DUP2 DUP4 PUSH2 0x1801 JUMP JUMPDEST POP DUP3 PUSH2 0x59C JUMP JUMPDEST PUSH1 0x40 MLOAD PUSH3 0x461BCD PUSH1 0xE5 SHL DUP2 MSTORE PUSH1 0x20 PUSH1 0x4 DUP3 ADD MSTORE PUSH1 0x23 PUSH1 0x24 DUP3 ADD MSTORE PUSH32 0x426F72726F77657220616C72656164792068617320616E20616374697665206C PUSH1 0x44 DUP3 ADD MSTORE PUSH3 0x37B0B7 PUSH1 0xE9 SHL PUSH1 0x64 DUP3 ADD MSTORE PUSH1 0x84 SWAP1 REVERT JUMPDEST PUSH1 0x40 MLOAD PUSH3 0x461BCD PUSH1 0xE5 SHL DUP2 MSTORE PUSH1 0x20 PUSH1 0x4 DUP3 ADD MSTORE PUSH1 0x10 PUSH1 0x24 DUP3 ADD MSTORE PUSH16 0x24B73B30B634B210323AB930BA34B7B7 PUSH1 0x81 SHL PUSH1 0x44 DUP3 ADD MSTORE PUSH1 0x64 SWAP1 REVERT JUMPDEST CALLVALUE PUSH2 0x10E JUMPI PUSH2 0xD07 CALLDATASIZE PUSH2 0x174B JUMP JUMPDEST SWAP1 DUP1 PUSH1 0x0 MSTORE PUSH1 0x2 PUSH1 0x20 MSTORE PUSH1 0x40 PUSH1 0x0 KECCAK256 PUSH2 0xD26 PUSH1 0xFF PUSH1 0x9 DUP4 ADD SLOAD AND PUSH2 0x1ABA JUMP JUMPDEST PUSH1 0x1 DUP2 ADD SLOAD PUSH1 0x1 PUSH1 0x1 PUSH1 0xA0 SHL SUB AND CALLER SUB PUSH2 0x1126 JUMPI PUSH1 0x7 SLOAD PUSH1 0x40 MLOAD PUSH4 0x23B872DD PUSH1 0xE0 SHL DUP2 MSTORE CALLER PUSH1 0x4 DUP3 ADD MSTORE ADDRESS PUSH1 0x24 DUP3 ADD MSTORE PUSH1 0x44 DUP2 ADD DUP6 SWAP1 MSTORE SWAP1 PUSH1 0x20 SWAP1 DUP3 SWAP1 PUSH1 0x64 SWAP1 DUP3 SWAP1 PUSH1 0x0 SWAP1 PUSH1 0x1 PUSH1 0x1 PUSH1 0xA0 SHL SUB AND GAS CALL DUP1 ISZERO PUSH2 0x49B JUMPI PUSH2 0x1107 JUMPI JUMPDEST POP SWAP2 DUP1 PUSH1 0x0 SWAP4 JUMPDEST PUSH1 0xB DUP2 ADD SLOAD DUP6 LT DUP1 PUSH2 0x10FE JUMPI JUMPDEST ISZERO PUSH2 0x10F6 JUMPI PUSH1 0xFF PUSH1 0x2 PUSH2 0xDAB DUP8 PUSH1 0xB DUP6 ADD PUSH2 0x1A30 JUMP JUMPDEST POP ADD SLOAD AND PUSH2 0x10EA JUMPI PUSH2 0xDC0 DUP6 PUSH1 0xB DUP4 ADD PUSH2 0x1A30 JUMP JUMPDEST POP SWAP5 DUP6 SLOAD SWAP6 PUSH1 0x1 DUP2 ADD SLOAD SWAP4 PUSH2 0xDD5 DUP6 DUP10 PUSH2 0x1913 JUMP JUMPDEST SWAP2 DUP3 DUP3 LT PUSH2 0xF6B JUMPI PUSH1 0x2 ADD DUP1 SLOAD PUSH1 0xFF NOT AND PUSH1 0x1 OR SWAP1 SSTORE PUSH2 0xDF5 SWAP2 SWAP1 PUSH2 0x1920 JUMP JUMPDEST SWAP4 PUSH1 0x2 DUP4 ADD SLOAD SWAP5 PUSH1 0x0 JUMPDEST PUSH1 0xA DUP6 ADD SLOAD DUP2 LT ISZERO PUSH2 0xF24 JUMPI PUSH2 0xE18 DUP2 PUSH1 0xA DUP8 ADD PUSH2 0x196D JUMP JUMPDEST POP SWAP1 PUSH1 0x1 DUP3 ADD SLOAD SWAP2 DUP3 PUSH8 0xDE0B6B3A7640000 DUP2 MUL DIV PUSH8 0xDE0B6B3A7640000 EQ DUP4 ISZERO OR ISZERO PUSH2 0x66E JUMPI DUP11 PUSH1 0x20 SWAP2 PUSH2 0xEB1 PUSH8 0xDE0B6B3A7640000 PUSH2 0xE75 DUP2 PUSH2 0xE6D DUP16 PUSH2 0xE66 SWAP1 DUP4 PUSH2 0xEE6 SWAP13 MUL PUSH2 0x1940 JUMP JUMPDEST DUP1 SWAP8 PUSH2 0x192D JUMP JUMPDEST DIV SWAP5 DUP14 PUSH2 0x192D JUMP JUMPDEST DIV PUSH1 0x3 DUP4 ADD PUSH2 0xE85 DUP6 DUP3 SLOAD PUSH2 0x1913 JUMP JUMPDEST SWAP1 SSTORE PUSH1 0x4 DUP4 ADD PUSH2 0xE96 DUP3 DUP3 SLOAD PUSH2 0x1913 JUMP JUMPDEST SWAP1 SSTORE PUSH1 0x7 SLOAD SWAP3 SLOAD PUSH1 0x1 PUSH1 0x1 PUSH1 0xA0 SHL SUB SWAP1 DUP2 AND SWAP5 SWAP4 AND SWAP3 PUSH2 0x1913 JUMP JUMPDEST PUSH1 0x40 MLOAD PUSH4 0xA9059CBB PUSH1 0xE0 SHL DUP2 MSTORE PUSH1 0x1 PUSH1 0x1 PUSH1 0xA0 SHL SUB SWAP1 SWAP4 AND PUSH1 0x4 DUP5 ADD MSTORE PUSH1 0x24 DUP4 ADD MSTORE SWAP1 SWAP4 DUP5 SWAP2 SWAP1 DUP3 SWAP1 PUSH1 0x0 SWAP1 DUP3 SWAP1 PUSH1 0x44 DUP3 ADD SWAP1 JUMP JUMPDEST SUB SWAP3 GAS CALL SWAP2 DUP3 ISZERO PUSH2 0x49B JUMPI PUSH2 0xF00 SWAP3 PUSH2 0xF05 JUMPI JUMPDEST POP PUSH2 0x194A JUMP JUMPDEST PUSH2 0xDFF JUMP JUMPDEST PUSH2 0xF1D SWAP1 PUSH1 0x20 RETURNDATASIZE PUSH1 0x20 GT PUSH2 0x494 JUMPI PUSH2 0x485 DUP2 DUP4 PUSH2 0x1801 JUMP JUMPDEST POP DUP11 PUSH2 0xEFA JUMP JUMPDEST POP SWAP7 POP SWAP3 POP PUSH2 0xF63 SWAP2 SWAP4 POP PUSH32 0x3D05AC2057427AC2F84502E7EFEFEBF5AE10D9529129C2979CE60FB97D460614 PUSH1 0x40 DUP1 MLOAD DUP8 DUP2 MSTORE DUP4 PUSH1 0x20 DUP3 ADD MSTORE LOG1 PUSH2 0x194A JUMP JUMPDEST SWAP4 SWAP1 SWAP2 PUSH2 0xD88 JUMP JUMPDEST POP SWAP4 POP POP POP SWAP3 SWAP4 POP JUMPDEST PUSH1 0x1 SWAP3 DUP4 PUSH1 0x0 PUSH1 0xB DUP4 ADD SLOAD SWAP1 JUMPDEST DUP2 DUP2 LT PUSH2 0x10AD JUMPI JUMPDEST POP POP PUSH2 0x1076 JUMPI JUMPDEST DUP2 PUSH2 0xFD7 JUMPI JUMPDEST PUSH32 0xDC376ABD09229A842AC7D8BCADC9017651F1F1B8490750870CAE0ECD4AEDF674 PUSH1 0x80 DUP7 DUP7 DUP7 PUSH1 0x40 MLOAD SWAP3 DUP4 MSTORE CALLER PUSH1 0x20 DUP5 ADD MSTORE PUSH1 0x40 DUP4 ADD MSTORE ISZERO ISZERO PUSH1 0x60 DUP3 ADD MSTORE LOG1 STOP JUMPDEST PUSH1 0x7 SLOAD PUSH1 0x1 SWAP2 SWAP1 SWAP2 ADD SLOAD PUSH1 0x40 MLOAD PUSH4 0xA9059CBB PUSH1 0xE0 SHL DUP2 MSTORE PUSH1 0x1 PUSH1 0x1 PUSH1 0xA0 SHL SUB SWAP2 DUP3 AND PUSH1 0x4 DUP3 ADD MSTORE PUSH1 0x24 DUP2 ADD SWAP4 SWAP1 SWAP4 MSTORE SWAP2 SWAP5 SWAP3 SWAP4 SWAP2 PUSH1 0x20 SWAP2 DUP7 SWAP2 PUSH1 0x44 SWAP2 DUP4 SWAP2 PUSH1 0x0 SWAP2 AND GAS CALL SWAP3 DUP4 ISZERO PUSH2 0x49B JUMPI PUSH32 0xDC376ABD09229A842AC7D8BCADC9017651F1F1B8490750870CAE0ECD4AEDF674 SWAP5 PUSH1 0x80 SWAP5 PUSH2 0x1057 JUMPI JUMPDEST POP SWAP2 SWAP4 DUP2 SWAP4 POP PUSH2 0xF96 JUMP JUMPDEST PUSH2 0x106F SWAP1 PUSH1 0x20 RETURNDATASIZE PUSH1 0x20 GT PUSH2 0x494 JUMPI PUSH2 0x485 DUP2 DUP4 PUSH2 0x1801 JUMP JUMPDEST POP DUP6 PUSH2 0x104C JUMP JUMPDEST PUSH1 0x9 DUP2 ADD DUP1 SLOAD PUSH1 0xFF NOT SWAP1 DUP2 AND SWAP1 SWAP2 SSTORE PUSH1 0x1 DUP3 ADD SLOAD PUSH1 0x1 PUSH1 0x1 PUSH1 0xA0 SHL SUB AND PUSH1 0x0 SWAP1 DUP2 MSTORE PUSH1 0x3 PUSH1 0x20 MSTORE PUSH1 0x40 SWAP1 KECCAK256 DUP1 SLOAD SWAP1 SWAP2 AND SWAP1 SSTORE PUSH2 0xF90 JUMP JUMPDEST SWAP1 SWAP2 POP PUSH1 0xFF PUSH1 0x2 PUSH2 0x10C1 DUP4 PUSH1 0xB DUP8 ADD PUSH2 0x1A30 JUMP JUMPDEST POP ADD SLOAD AND ISZERO PUSH2 0x10DB JUMPI PUSH2 0x10D3 SWAP1 PUSH2 0x194A JUMP JUMPDEST SWAP1 DUP6 SWAP2 PUSH2 0xF81 JUMP JUMPDEST POP POP SWAP3 POP PUSH1 0x0 SWAP3 DUP4 DUP7 DUP1 PUSH2 0xF89 JUMP JUMPDEST SWAP2 SWAP1 SWAP4 PUSH2 0xF63 SWAP1 PUSH2 0x194A JUMP JUMPDEST SWAP3 SWAP4 POP PUSH2 0xF74 JUMP JUMPDEST POP DUP2 ISZERO ISZERO PUSH2 0xD95 JUMP JUMPDEST PUSH2 0x111F SWAP1 PUSH1 0x20 RETURNDATASIZE PUSH1 0x20 GT PUSH2 0x494 JUMPI PUSH2 0x485 DUP2 DUP4 PUSH2 0x1801 JUMP JUMPDEST POP DUP4 PUSH2 0xD81 JUMP JUMPDEST PUSH1 0x40 MLOAD PUSH3 0x461BCD PUSH1 0xE5 SHL DUP2 MSTORE PUSH1 0x20 PUSH1 0x4 DUP3 ADD MSTORE PUSH1 0x17 PUSH1 0x24 DUP3 ADD MSTORE PUSH32 0x4F6E6C7920626F72726F7765722063616E207265706179000000000000000000 PUSH1 0x44 DUP3 ADD MSTORE PUSH1 0x64 SWAP1 REVERT JUMPDEST CALLVALUE PUSH2 0x10E JUMPI PUSH1 0x20 CALLDATASIZE PUSH1 0x3 NOT ADD SLT PUSH2 0x10E JUMPI PUSH1 0x4 CALLDATALOAD PUSH1 0x1 PUSH1 0x1 PUSH1 0xA0 SHL SUB DUP2 DUP2 AND SWAP2 DUP3 SWAP1 SUB PUSH2 0x10E JUMPI PUSH2 0x11A1 SWAP1 PUSH1 0x6 SLOAD AND CALLER EQ PUSH2 0x1A64 JUMP JUMPDEST PUSH1 0x1 PUSH1 0x1 PUSH1 0x60 SHL SUB PUSH1 0xA0 SHL PUSH1 0x0 SLOAD AND OR PUSH1 0x0 SSTORE PUSH1 0x0 DUP1 RETURN JUMPDEST CALLVALUE PUSH2 0x10E JUMPI PUSH1 0x20 DUP1 PUSH1 0x3 NOT CALLDATASIZE ADD SLT PUSH2 0x10E JUMPI PUSH1 0x4 CALLDATALOAD PUSH1 0x0 MSTORE PUSH1 0x2 SWAP1 DUP2 DUP2 MSTORE PUSH1 0xB PUSH1 0x40 PUSH1 0x0 KECCAK256 ADD SWAP2 DUP3 SLOAD PUSH2 0x11EB DUP2 PUSH2 0x1A4C JUMP JUMPDEST SWAP2 PUSH2 0x11F9 PUSH1 0x40 MLOAD SWAP4 DUP5 PUSH2 0x1801 JUMP JUMPDEST DUP2 DUP4 MSTORE PUSH1 0x0 SWAP5 DUP6 MSTORE DUP4 DUP6 KECCAK256 DUP5 DUP5 ADD SWAP6 SWAP2 DUP7 JUMPDEST DUP5 DUP5 LT PUSH2 0x1263 JUMPI PUSH1 0x40 DUP1 MLOAD DUP9 DUP2 MSTORE DUP8 MLOAD DUP2 DUP11 ADD DUP2 SWAP1 MSTORE DUP11 SWAP3 DUP3 ADD SWAP1 DUP11 PUSH1 0x0 JUMPDEST DUP3 DUP2 LT PUSH2 0x1237 JUMPI DUP5 DUP5 SUB DUP6 RETURN JUMPDEST DUP6 MLOAD DUP1 MLOAD DUP6 MSTORE DUP1 DUP4 ADD MLOAD DUP6 DUP5 ADD MSTORE PUSH1 0x40 SWAP1 DUP2 ADD MLOAD ISZERO ISZERO SWAP1 DUP6 ADD MSTORE SWAP5 DUP2 ADD SWAP5 PUSH1 0x60 SWAP1 SWAP4 ADD SWAP3 PUSH1 0x1 ADD PUSH2 0x122A JUMP JUMPDEST PUSH1 0x3 DUP8 PUSH1 0x1 SWAP3 PUSH1 0x40 MLOAD PUSH2 0x1275 DUP2 PUSH2 0x17E5 JUMP JUMPDEST DUP7 SLOAD DUP2 MSTORE DUP5 DUP8 ADD SLOAD DUP4 DUP3 ADD MSTORE PUSH1 0xFF DUP7 DUP9 ADD SLOAD AND ISZERO ISZERO PUSH1 0x40 DUP3 ADD MSTORE DUP2 MSTORE ADD SWAP4 ADD SWAP4 ADD SWAP3 SWAP2 PUSH2 0x120B JUMP JUMPDEST CALLVALUE PUSH2 0x10E JUMPI PUSH1 0x20 DUP1 PUSH1 0x3 NOT CALLDATASIZE ADD SLT PUSH2 0x10E JUMPI PUSH1 0x4 CALLDATALOAD CALLER PUSH1 0x0 MSTORE PUSH1 0x1 DUP3 MSTORE DUP1 PUSH1 0x2 PUSH1 0x40 PUSH1 0x0 KECCAK256 ADD SLOAD LT PUSH2 0x1365 JUMPI DUP2 PUSH2 0x133D PUSH1 0x0 SWAP3 CALLER DUP5 MSTORE PUSH1 0x1 DUP4 MSTORE PUSH1 0x2 PUSH1 0x40 DUP6 KECCAK256 ADD PUSH2 0x12E9 DUP3 DUP3 SLOAD PUSH2 0x1920 JUMP JUMPDEST SWAP1 SSTORE CALLER DUP5 MSTORE PUSH1 0x1 DUP4 MSTORE PUSH1 0x40 DUP5 KECCAK256 PUSH2 0x1301 DUP3 DUP3 SLOAD PUSH2 0x1920 JUMP JUMPDEST SWAP1 SSTORE PUSH1 0x7 SLOAD PUSH1 0x40 MLOAD PUSH4 0xA9059CBB PUSH1 0xE0 SHL DUP2 MSTORE CALLER PUSH1 0x4 DUP3 ADD MSTORE PUSH1 0x24 DUP2 ADD SWAP3 SWAP1 SWAP3 MSTORE SWAP1 SWAP4 DUP5 SWAP3 PUSH1 0x1 PUSH1 0x1 PUSH1 0xA0 SHL SUB SWAP1 SWAP3 AND SWAP2 DUP4 SWAP2 SWAP1 DUP3 SWAP1 PUSH1 0x44 DUP3 ADD SWAP1 JUMP JUMPDEST SUB SWAP3 GAS CALL DUP1 ISZERO PUSH2 0x49B JUMPI PUSH2 0x134D JUMPI STOP JUMPDEST DUP2 PUSH2 0x1363 SWAP3 SWAP1 RETURNDATASIZE LT PUSH2 0x494 JUMPI PUSH2 0x485 DUP2 DUP4 PUSH2 0x1801 JUMP JUMPDEST STOP JUMPDEST PUSH1 0x40 MLOAD PUSH3 0x461BCD PUSH1 0xE5 SHL DUP2 MSTORE PUSH1 0x4 DUP2 ADD DUP4 SWAP1 MSTORE PUSH1 0x14 PUSH1 0x24 DUP3 ADD MSTORE PUSH20 0x496E73756666696369656E742062616C616E6365 PUSH1 0x60 SHL PUSH1 0x44 DUP3 ADD MSTORE PUSH1 0x64 SWAP1 REVERT JUMPDEST CALLVALUE PUSH2 0x10E JUMPI PUSH1 0x20 CALLDATASIZE PUSH1 0x3 NOT ADD SLT PUSH2 0x10E JUMPI PUSH1 0x4 CALLDATALOAD PUSH1 0x1 PUSH1 0x1 PUSH1 0xA0 SHL SUB DUP2 AND SWAP1 DUP2 SWAP1 SUB PUSH2 0x10E JUMPI PUSH1 0x0 MSTORE PUSH1 0x1 PUSH1 0x20 MSTORE PUSH1 0x80 PUSH1 0x40 PUSH1 0x0 KECCAK256 DUP1 SLOAD SWAP1 PUSH1 0x1 DUP2 ADD SLOAD SWAP1 PUSH1 0x3 PUSH1 0x2 DUP3 ADD SLOAD SWAP2 ADD SLOAD SWAP2 PUSH1 0x40 MLOAD SWAP4 DUP5 MSTORE PUSH1 0x20 DUP5 ADD MSTORE PUSH1 0x40 DUP4 ADD MSTORE PUSH1 0x60 DUP3 ADD MSTORE RETURN JUMPDEST CALLVALUE PUSH2 0x10E JUMPI PUSH1 0x20 CALLDATASIZE PUSH1 0x3 NOT ADD SLT PUSH2 0x10E JUMPI PUSH1 0x4 CALLDATALOAD PUSH1 0x1 PUSH1 0x1 PUSH1 0xA0 SHL SUB DUP2 AND SWAP1 DUP2 SWAP1 SUB PUSH2 0x10E JUMPI PUSH1 0x0 MSTORE PUSH1 0x3 PUSH1 0x20 MSTORE PUSH1 0x20 PUSH1 0xFF PUSH1 0x40 PUSH1 0x0 KECCAK256 SLOAD AND PUSH1 0x40 MLOAD SWAP1 ISZERO ISZERO DUP2 MSTORE RETURN JUMPDEST CALLVALUE PUSH2 0x10E JUMPI PUSH1 0x0 CALLDATASIZE PUSH1 0x3 NOT ADD SLT PUSH2 0x10E JUMPI PUSH1 0x7 SLOAD PUSH1 0x40 MLOAD PUSH1 0x1 PUSH1 0x1 PUSH1 0xA0 SHL SUB SWAP1 SWAP2 AND DUP2 MSTORE PUSH1 0x20 SWAP1 RETURN JUMPDEST CALLVALUE PUSH2 0x10E JUMPI PUSH1 0x20 CALLDATASIZE PUSH1 0x3 NOT ADD SLT PUSH2 0x10E JUMPI PUSH2 0x1493 PUSH1 0x1 DUP1 PUSH1 0xA0 SHL SUB PUSH1 0x6 SLOAD AND CALLER EQ PUSH2 0x1A64 JUMP JUMPDEST PUSH1 0x4 CALLDATALOAD PUSH1 0x0 MSTORE PUSH1 0x2 PUSH1 0x20 MSTORE PUSH1 0x40 PUSH1 0x0 KECCAK256 PUSH1 0x9 DUP2 ADD DUP1 SLOAD PUSH2 0x14B5 PUSH1 0xFF DUP3 AND PUSH2 0x1ABA JUMP JUMPDEST PUSH2 0x14BD PUSH2 0x183A JUMP JUMPDEST SWAP2 PUSH1 0x8 DUP5 ADD SLOAD PUSH1 0x64 DUP5 MUL DUP5 DUP2 DIV PUSH1 0x64 EQ DUP6 ISZERO OR ISZERO PUSH2 0x66E JUMPI PUSH1 0x5F DUP3 MUL SWAP2 DUP1 DUP4 DIV PUSH1 0x5F EQ SWAP1 ISZERO OR ISZERO PUSH2 0x66E JUMPI GT PUSH2 0x16E7 JUMPI PUSH1 0xFF NOT DUP1 SWAP3 AND SWAP1 SSTORE PUSH1 0x1 DUP1 PUSH1 0xA0 SHL SUB PUSH1 0x1 DUP5 ADD SLOAD AND PUSH1 0x0 MSTORE PUSH1 0x3 PUSH1 0x20 MSTORE PUSH1 0x40 PUSH1 0x0 KECCAK256 SWAP1 DUP2 SLOAD AND SWAP1 SSTORE PUSH1 0x3 DUP3 ADD SLOAD PUSH1 0x0 SWAP1 PUSH1 0x0 PUSH1 0xA DUP6 ADD SLOAD JUMPDEST DUP1 DUP3 LT PUSH2 0x16AB JUMPI POP POP DUP2 PUSH2 0x157E JUMPI JUMPDEST POP POP PUSH1 0x60 SWAP1 PUSH32 0xCAB88A55906C5830A49DDDD8B31D115294A5E6C4210F25FE140530A39C51DC74 SWAP3 PUSH1 0x1 DUP1 DUP1 PUSH1 0xA0 SHL SUB SWAP2 ADD SLOAD AND SWAP1 PUSH1 0x40 MLOAD SWAP2 PUSH1 0x4 CALLDATALOAD DUP4 MSTORE PUSH1 0x20 DUP4 ADD MSTORE PUSH1 0x40 DUP3 ADD MSTORE LOG1 STOP JUMPDEST SWAP1 SWAP3 PUSH1 0x0 JUMPDEST PUSH1 0xA DUP3 ADD SLOAD DUP2 LT ISZERO PUSH2 0x167F JUMPI PUSH2 0x159C DUP2 PUSH1 0xA DUP5 ADD PUSH2 0x196D JUMP JUMPDEST POP SWAP1 PUSH2 0x15B1 PUSH1 0x1 DUP4 ADD SLOAD PUSH1 0x3 DUP5 ADD SLOAD SWAP1 PUSH2 0x1920 JUMP JUMPDEST DUP1 ISZERO PUSH2 0x1674 JUMPI DUP1 PUSH8 0xDE0B6B3A7640000 DUP2 MUL DIV PUSH8 0xDE0B6B3A7640000 SUB PUSH2 0x66E JUMPI PUSH2 0x1637 SWAP3 PUSH8 0xDE0B6B3A7640000 PUSH2 0x15F6 PUSH2 0x15F0 DUP11 DUP4 PUSH1 0x20 SWAP7 MUL PUSH2 0x1940 JUMP JUMPDEST DUP9 PUSH2 0x192D JUMP JUMPDEST PUSH1 0x7 SLOAD SWAP3 SLOAD PUSH1 0x40 MLOAD PUSH4 0xA9059CBB PUSH1 0xE0 SHL DUP2 MSTORE PUSH1 0x1 PUSH1 0x1 PUSH1 0xA0 SHL SUB SWAP2 DUP3 AND PUSH1 0x4 DUP3 ADD MSTORE SWAP3 SWAP1 SWAP2 DIV PUSH1 0x24 DUP4 ADD MSTORE SWAP1 SWAP5 DUP6 SWAP3 SWAP1 SWAP2 AND SWAP1 DUP3 SWAP1 PUSH1 0x0 SWAP1 DUP3 SWAP1 PUSH1 0x44 DUP3 ADD SWAP1 JUMP JUMPDEST SUB SWAP3 GAS CALL SWAP2 DUP3 ISZERO PUSH2 0x49B JUMPI PUSH2 0x1650 SWAP3 PUSH2 0x1655 JUMPI POP PUSH2 0x194A JUMP JUMPDEST PUSH2 0x1583 JUMP JUMPDEST PUSH2 0x166D SWAP1 PUSH1 0x20 RETURNDATASIZE PUSH1 0x20 GT PUSH2 0x494 JUMPI PUSH2 0x485 DUP2 DUP4 PUSH2 0x1801 JUMP JUMPDEST POP DUP7 PUSH2 0xEFA JUMP JUMPDEST POP PUSH2 0x1650 SWAP2 POP PUSH2 0x194A JUMP JUMPDEST POP SWAP3 POP DUP2 SWAP1 POP PUSH32 0xCAB88A55906C5830A49DDDD8B31D115294A5E6C4210F25FE140530A39C51DC74 PUSH2 0x1534 JUMP JUMPDEST SWAP1 SWAP3 PUSH2 0x16DB PUSH2 0x16E1 SWAP2 PUSH2 0x16D5 PUSH2 0x16C4 DUP8 PUSH1 0xA DUP12 ADD PUSH2 0x196D JUMP JUMPDEST POP PUSH1 0x3 PUSH1 0x1 DUP3 ADD SLOAD SWAP2 ADD SLOAD SWAP1 PUSH2 0x1920 JUMP JUMPDEST SWAP1 PUSH2 0x1913 JUMP JUMPDEST SWAP4 PUSH2 0x194A JUMP JUMPDEST SWAP1 PUSH2 0x1525 JUMP JUMPDEST PUSH1 0x40 MLOAD PUSH3 0x461BCD PUSH1 0xE5 SHL DUP2 MSTORE PUSH1 0x20 PUSH1 0x4 DUP3 ADD MSTORE PUSH1 0x36 PUSH1 0x24 DUP3 ADD MSTORE PUSH32 0x42544320707269636520686173206E6F742064726F7070656420737566666963 PUSH1 0x44 DUP3 ADD MSTORE PUSH22 0x34B2B73A363C903337B9103634B8BAB4B230BA34B7B7 PUSH1 0x51 SHL PUSH1 0x64 DUP3 ADD MSTORE PUSH1 0x84 SWAP1 REVERT JUMPDEST PUSH1 0x40 SWAP1 PUSH1 0x3 NOT ADD SLT PUSH2 0x10E JUMPI PUSH1 0x4 CALLDATALOAD SWAP1 PUSH1 0x24 CALLDATALOAD SWAP1 JUMP JUMPDEST PUSH1 0x4 SLOAD DUP2 LT ISZERO PUSH2 0x1798 JUMPI PUSH1 0x4 PUSH1 0x0 MSTORE PUSH32 0x8A35ACFBC15FF81A39AE7D344FD709F28E8600B4AA8C65C6B64BFE7FE36BD19B ADD SWAP1 PUSH1 0x0 SWAP1 JUMP JUMPDEST PUSH4 0x4E487B71 PUSH1 0xE0 SHL PUSH1 0x0 MSTORE PUSH1 0x32 PUSH1 0x4 MSTORE PUSH1 0x24 PUSH1 0x0 REVERT JUMPDEST PUSH1 0x5 SLOAD DUP2 LT ISZERO PUSH2 0x1798 JUMPI PUSH1 0x5 PUSH1 0x0 MSTORE PUSH32 0x36B6384B5ECA791C62761152D0C79BB0604C104A5FB6F4EB0703F3154BB3DB0 ADD SWAP1 PUSH1 0x0 SWAP1 JUMP JUMPDEST PUSH1 0x60 DUP2 ADD SWAP1 DUP2 LT PUSH8 0xFFFFFFFFFFFFFFFF DUP3 GT OR PUSH2 0x458 JUMPI PUSH1 0x40 MSTORE JUMP JUMPDEST SWAP1 PUSH1 0x1F DUP1 NOT SWAP2 ADD AND DUP2 ADD SWAP1 DUP2 LT PUSH8 0xFFFFFFFFFFFFFFFF DUP3 GT OR PUSH2 0x458 JUMPI PUSH1 0x40 MSTORE JUMP JUMPDEST MLOAD SWAP1 PUSH10 0xFFFFFFFFFFFFFFFFFFFF DUP3 AND DUP3 SUB PUSH2 0x10E JUMPI JUMP JUMPDEST PUSH1 0x0 SLOAD PUSH1 0x40 MLOAD PUSH4 0x3FABE5A3 PUSH1 0xE2 SHL DUP2 MSTORE SWAP1 PUSH1 0xA0 SWAP1 DUP3 SWAP1 PUSH1 0x4 SWAP1 DUP3 SWAP1 PUSH1 0x1 PUSH1 0x1 PUSH1 0xA0 SHL SUB AND GAS STATICCALL SWAP1 DUP2 ISZERO PUSH2 0x49B JUMPI PUSH1 0x0 SWAP2 PUSH2 0x1872 JUMPI POP SWAP1 JUMP JUMPDEST SWAP1 PUSH1 0xA0 DUP3 RETURNDATASIZE DUP3 GT PUSH2 0x18B6 JUMPI JUMPDEST DUP2 PUSH2 0x188B PUSH1 0xA0 SWAP4 DUP4 PUSH2 0x1801 JUMP JUMPDEST DUP2 ADD SUB SLT PUSH2 0x18B3 JUMPI POP PUSH2 0x189D DUP2 PUSH2 0x1823 JUMP JUMPDEST POP PUSH2 0x18AF PUSH1 0x80 PUSH1 0x20 DUP4 ADD MLOAD SWAP3 ADD PUSH2 0x1823 JUMP JUMPDEST POP SWAP1 JUMP JUMPDEST DUP1 REVERT JUMPDEST RETURNDATASIZE SWAP2 POP PUSH2 0x187E JUMP JUMPDEST ISZERO PUSH2 0x18C5 JUMPI JUMP JUMPDEST PUSH1 0x40 MLOAD PUSH3 0x461BCD PUSH1 0xE5 SHL DUP2 MSTORE PUSH1 0x20 PUSH1 0x4 DUP3 ADD MSTORE PUSH1 0xE PUSH1 0x24 DUP3 ADD MSTORE PUSH14 0x125B9D985B1A5908185B5BDD5B9D PUSH1 0x92 SHL PUSH1 0x44 DUP3 ADD MSTORE PUSH1 0x64 SWAP1 REVERT JUMPDEST SWAP1 DUP2 PUSH1 0x20 SWAP2 SUB SLT PUSH2 0x10E JUMPI MLOAD DUP1 ISZERO ISZERO DUP2 SUB PUSH2 0x10E JUMPI SWAP1 JUMP JUMPDEST SWAP2 SWAP1 DUP3 ADD DUP1 SWAP3 GT PUSH2 0x66E JUMPI JUMP JUMPDEST SWAP2 SWAP1 DUP3 SUB SWAP2 DUP3 GT PUSH2 0x66E JUMPI JUMP JUMPDEST DUP2 DUP2 MUL SWAP3 SWAP2 DUP2 ISZERO SWAP2 DUP5 DIV EQ OR ISZERO PUSH2 0x66E JUMPI JUMP JUMPDEST DUP2 ISZERO PUSH2 0xBBF JUMPI DIV SWAP1 JUMP JUMPDEST PUSH1 0x0 NOT DUP2 EQ PUSH2 0x66E JUMPI PUSH1 0x1 ADD SWAP1 JUMP JUMPDEST DUP1 MLOAD DUP3 LT ISZERO PUSH2 0x1798 JUMPI PUSH1 0x20 SWAP2 PUSH1 0x5 SHL ADD ADD SWAP1 JUMP JUMPDEST DUP1 SLOAD DUP3 LT ISZERO PUSH2 0x1798 JUMPI PUSH1 0x0 MSTORE PUSH1 0x5 PUSH1 0x20 PUSH1 0x0 KECCAK256 SWAP2 MUL ADD SWAP1 PUSH1 0x0 SWAP1 JUMP JUMPDEST SWAP1 DUP1 ISZERO PUSH2 0x1A29 JUMPI DUP2 ISZERO PUSH2 0x1A22 JUMPI DUP2 DUP1 PUSH1 0x1 EQ PUSH2 0x1A1A JUMPI PUSH1 0x2 EQ PUSH2 0x1A09 JUMPI PUSH1 0x20 DUP2 LT PUSH2 0x133 DUP4 LT AND PUSH1 0x4E DUP3 LT PUSH1 0xB DUP5 LT AND OR PUSH2 0x1A04 JUMPI PUSH1 0x1 SWAP1 DUP2 JUMPDEST DUP1 DUP3 GT PUSH2 0x19DB JUMPI POP POP DUP2 PUSH1 0x0 NOT DIV DUP2 GT PUSH2 0x66E JUMPI MUL SWAP1 JUMP JUMPDEST SWAP1 SWAP3 DUP1 PUSH1 0x0 NOT DIV DUP2 GT PUSH2 0x66E JUMPI DUP2 DUP5 AND PUSH2 0x19FB JUMPI JUMPDEST DUP1 MUL SWAP3 DUP2 SHR SWAP1 PUSH2 0x19C3 JUMP JUMPDEST DUP1 SWAP3 MUL SWAP2 PUSH2 0x19F0 JUMP JUMPDEST SWAP1 EXP SWAP1 JUMP JUMPDEST SWAP1 POP PUSH1 0xFF DUP2 GT PUSH2 0x66E JUMPI PUSH1 0x1 SWAP1 SHL SWAP1 JUMP JUMPDEST POP POP POP PUSH1 0x1 SWAP1 JUMP JUMPDEST POP POP PUSH1 0x0 SWAP1 JUMP JUMPDEST POP POP PUSH1 0x1 SWAP1 JUMP JUMPDEST DUP1 SLOAD DUP3 LT ISZERO PUSH2 0x1798 JUMPI PUSH1 0x0 MSTORE PUSH1 0x3 PUSH1 0x20 PUSH1 0x0 KECCAK256 SWAP2 MUL ADD SWAP1 PUSH1 0x0 SWAP1 JUMP JUMPDEST PUSH8 0xFFFFFFFFFFFFFFFF DUP2 GT PUSH2 0x458 JUMPI PUSH1 0x5 SHL PUSH1 0x20 ADD SWAP1 JUMP JUMPDEST ISZERO PUSH2 0x1A6B JUMPI JUMP JUMPDEST PUSH1 0x40 MLOAD PUSH3 0x461BCD PUSH1 0xE5 SHL DUP2 MSTORE PUSH1 0x20 PUSH1 0x4 DUP3 ADD MSTORE PUSH1 0x21 PUSH1 0x24 DUP3 ADD MSTORE PUSH32 0x4F6E6C79206F776E65722063616E2063616C6C20746869732066756E6374696F PUSH1 0x44 DUP3 ADD MSTORE PUSH1 0x37 PUSH1 0xF9 SHL PUSH1 0x64 DUP3 ADD MSTORE PUSH1 0x84 SWAP1 REVERT JUMPDEST ISZERO PUSH2 0x1AC1 JUMPI JUMP JUMPDEST PUSH1 0x40 MLOAD PUSH3 0x461BCD PUSH1 0xE5 SHL DUP2 MSTORE PUSH1 0x20 PUSH1 0x4 DUP3 ADD MSTORE PUSH1 0x12 PUSH1 0x24 DUP3 ADD MSTORE PUSH18 0x4C6F616E206973206E6F7420616374697665 PUSH1 0x70 SHL PUSH1 0x44 DUP3 ADD MSTORE PUSH1 0x64 SWAP1 REVERT JUMPDEST SWAP1 PUSH1 0x1 DUP3 ADD SWAP2 PUSH1 0x0 PUSH1 0x1 DUP5 SLT SWAP2 SLT SWAP1 DUP1 ISZERO DUP3 AND SWAP2 ISZERO AND OR PUSH2 0x66E JUMPI JUMP INVALID LOG2 PUSH5 0x6970667358 0x22 SLT KECCAK256 PUSH4 0x1DFF9294 PUSH25 0xBF1BC900EDD0546EE6033561FABBD659E212AFE44C509CF3F9 JUMPDEST PUSH5 0x736F6C6343 STOP ADDMOD EQ STOP CALLER "},"methodIdentifiers":{"chainlinkOracle()":"ef06e72c","deposit(uint256)":"b6b55f25","getInstallmentSchedule(bytes32)":"6c1945ae","getPrice()":"98d5fdca","hasActiveLoan(address)":"21d4f8db","lenders(address)":"28fd10d7","lendersList(uint256)":"c7c92222","liquidate(bytes32)":"0a71096e","loan(uint256,uint256,uint256)":"864a83b2","loanIds(uint256)":"f8715a42","loans(bytes32)":"c4a90815","markInstallmentPaid(bytes32,uint256)":"c9642d2a","owner()":"8da5cb5b","payouts(bytes32,uint256)":"80f2122c","setChainlinkOracle(address)":"7a9b0412","usdcToken()":"11eac855","withdraw(uint256)":"2e1a7d4d"}}}}}