{"contracts/Lending.sol":{"LendingPool":{"abi":[{"inputs":[{"internalType":"address","name":"usdc","type":"address"},{"internalType":"address","name":"_cbBtcToken","type":"address"},{"internalType":"address","name":"oracleAddress","type":"address"},{"internalType":"address","name":"_aavePool","type":"address"},{"internalType":"address","name":"_swapRouter","type":"address"}],"stateMutability":"nonpayable","type":"constructor"},{"anonymous":false,"inputs":[{"indexed":false,"internalType":"bytes32","name":"loanId","type":"bytes32"},{"indexed":false,"internalType":"uint256","name":"requested","type":"uint256"},{"indexed":false,"internalType":"uint256","name":"actualWithdrawn","type":"uint256"},{"indexed":false,"internalType":"uint256","name":"preBalance","type":"uint256"},{"indexed":false,"internalType":"uint256","name":"postBalance","type":"uint256"}],"name":"DebugUnstake","type":"event"},{"anonymous":false,"inputs":[{"indexed":false,"internalType":"bytes32","name":"loanId","type":"bytes32"},{"indexed":false,"internalType":"uint256","name":"principalRepaid","type":"uint256"},{"indexed":false,"internalType":"uint256","name":"proportionRepaid","type":"uint256"},{"indexed":false,"internalType":"uint256","name":"cbBtcToUnstake","type":"uint256"}],"name":"DebugUnstakeProportion","type":"event"},{"anonymous":false,"inputs":[{"indexed":true,"internalType":"address","name":"lender","type":"address"},{"indexed":false,"internalType":"uint256","name":"amount","type":"uint256"},{"indexed":false,"internalType":"bool","name":"reinvest","type":"bool"}],"name":"Deposit","type":"event"},{"anonymous":false,"inputs":[{"indexed":false,"internalType":"bytes32","name":"loanId","type":"bytes32"},{"indexed":false,"internalType":"uint256","name":"index","type":"uint256"}],"name":"InstallmentPaid","type":"event"},{"anonymous":false,"inputs":[{"indexed":false,"internalType":"bytes32","name":"id","type":"bytes32"},{"indexed":false,"internalType":"uint256","name":"amount","type":"uint256"},{"indexed":false,"internalType":"uint256","name":"collateral","type":"uint256"},{"indexed":false,"internalType":"address","name":"borrower","type":"address"}],"name":"LoanCreated","type":"event"},{"anonymous":false,"inputs":[{"indexed":false,"internalType":"bytes32","name":"id","type":"bytes32"},{"indexed":false,"internalType":"address","name":"borrower","type":"address"},{"indexed":false,"internalType":"uint256","name":"btcPriceNow","type":"uint256"}],"name":"LoanLiquidated","type":"event"},{"anonymous":false,"inputs":[{"indexed":false,"internalType":"bytes32","name":"loanId","type":"bytes32"},{"indexed":false,"internalType":"address","name":"borrower","type":"address"},{"indexed":false,"internalType":"uint256","name":"amount","type":"uint256"},{"indexed":false,"internalType":"bool","name":"fullyRepaid","type":"bool"}],"name":"Payout","type":"event"},{"anonymous":false,"inputs":[{"indexed":false,"internalType":"bytes32","name":"loanId","type":"bytes32"},{"indexed":false,"internalType":"uint256","name":"usdcAmount","type":"uint256"},{"indexed":false,"internalType":"uint256","name":"cbBtcAmount","type":"uint256"}],"name":"TokensStaked","type":"event"},{"anonymous":false,"inputs":[{"indexed":false,"internalType":"bytes32","name":"loanId","type":"bytes32"},{"indexed":false,"internalType":"uint256","name":"cbBtcAmount","type":"uint256"},{"indexed":false,"internalType":"uint256","name":"usdcAmount","type":"uint256"},{"indexed":false,"internalType":"uint256","name":"borrowerCbBtcShare","type":"uint256"}],"name":"TokensUnstaked","type":"event"},{"inputs":[],"name":"aavePool","outputs":[{"internalType":"contract IAavePool","name":"","type":"address"}],"stateMutability":"view","type":"function"},{"inputs":[],"name":"accumulatedFees","outputs":[{"internalType":"uint256","name":"","type":"uint256"}],"stateMutability":"view","type":"function"},{"inputs":[],"name":"cbBtcToken","outputs":[{"internalType":"address","name":"","type":"address"}],"stateMutability":"view","type":"function"},{"inputs":[],"name":"chainlinkOracle","outputs":[{"internalType":"contract AggregatorV3Interface","name":"","type":"address"}],"stateMutability":"view","type":"function"},{"inputs":[{"internalType":"uint256","name":"totalAmount","type":"uint256"}],"name":"computeLoanParts","outputs":[{"internalType":"uint256","name":"borrowerDeposit","type":"uint256"},{"internalType":"uint256","name":"lenderPrincipal","type":"uint256"}],"stateMutability":"pure","type":"function"},{"inputs":[{"internalType":"bytes32","name":"loanId","type":"bytes32"},{"internalType":"uint256","name":"principalRepaid","type":"uint256"}],"name":"debugUnstakeCalc","outputs":[{"internalType":"uint256","name":"proportionRepaid","type":"uint256"},{"internalType":"uint256","name":"cbBtcToUnstake","type":"uint256"}],"stateMutability":"view","type":"function"},{"inputs":[{"internalType":"uint256","name":"amount","type":"uint256"},{"internalType":"bool","name":"reinvest","type":"bool"}],"name":"depositToPool","outputs":[],"stateMutability":"nonpayable","type":"function"},{"inputs":[],"name":"earlyClosureFeeBps","outputs":[{"internalType":"uint256","name":"","type":"uint256"}],"stateMutability":"view","type":"function"},{"inputs":[{"internalType":"bytes32","name":"loanId","type":"bytes32"}],"name":"getAmortizationSchedule","outputs":[{"internalType":"uint256[]","name":"principals","type":"uint256[]"},{"internalType":"uint256[]","name":"interests","type":"uint256[]"},{"internalType":"bool[]","name":"paidStatuses","type":"bool[]"}],"stateMutability":"view","type":"function"},{"inputs":[{"internalType":"bytes32","name":"loanId","type":"bytes32"}],"name":"getContributions","outputs":[{"internalType":"address[]","name":"lenders","type":"address[]"},{"internalType":"uint256[]","name":"amounts","type":"uint256[]"},{"internalType":"uint256[]","name":"receivableInterests","type":"uint256[]"},{"internalType":"uint256[]","name":"repaidPrincipals","type":"uint256[]"},{"internalType":"uint256[]","name":"repaidInterests","type":"uint256[]"}],"stateMutability":"view","type":"function"},{"inputs":[{"internalType":"uint256","name":"totalAmount","type":"uint256"},{"internalType":"uint256","name":"borrowerDeposit","type":"uint256"}],"name":"getDownPaymentBasisPoints","outputs":[{"internalType":"uint256","name":"downPaymentBps","type":"uint256"},{"internalType":"bool","name":"isValidDownPayment","type":"bool"}],"stateMutability":"pure","type":"function"},{"inputs":[{"internalType":"bytes32","name":"loanId","type":"bytes32"}],"name":"getInstallmentSchedule","outputs":[{"components":[{"internalType":"uint256","name":"duePrincipal","type":"uint256"},{"internalType":"uint256","name":"dueInterest","type":"uint256"},{"internalType":"bool","name":"paid","type":"bool"},{"internalType":"uint256","name":"dueTimestamp","type":"uint256"}],"internalType":"struct LendingPool.Installment[]","name":"","type":"tuple[]"}],"stateMutability":"view","type":"function"},{"inputs":[{"internalType":"uint256","name":"totalAmount","type":"uint256"},{"internalType":"uint256","name":"downPaymentPercentage","type":"uint256"}],"name":"getLoanRequirements","outputs":[{"internalType":"uint256","name":"borrowerDeposit","type":"uint256"},{"internalType":"uint256","name":"lenderPrincipal","type":"uint256"},{"internalType":"bool","name":"isValidDownPayment","type":"bool"}],"stateMutability":"pure","type":"function"},{"inputs":[],"name":"getPrice","outputs":[{"internalType":"int256","name":"","type":"int256"}],"stateMutability":"view","type":"function"},{"inputs":[{"internalType":"bytes32","name":"loanId","type":"bytes32"}],"name":"getStakedAmount","outputs":[{"internalType":"uint256","name":"","type":"uint256"}],"stateMutability":"view","type":"function"},{"inputs":[{"internalType":"address","name":"","type":"address"}],"name":"hasActiveLoan","outputs":[{"internalType":"bool","name":"","type":"bool"}],"stateMutability":"view","type":"function"},{"inputs":[{"internalType":"address","name":"","type":"address"}],"name":"lenderPoolBalance","outputs":[{"internalType":"uint256","name":"","type":"uint256"}],"stateMutability":"view","type":"function"},{"inputs":[{"internalType":"address","name":"","type":"address"}],"name":"lenders","outputs":[{"internalType":"uint256","name":"totalContributed","type":"uint256"}],"stateMutability":"view","type":"function"},{"inputs":[{"internalType":"bytes32","name":"loanId","type":"bytes32"}],"name":"liquidate","outputs":[],"stateMutability":"nonpayable","type":"function"},{"inputs":[{"internalType":"bytes32","name":"loanId","type":"bytes32"}],"name":"liquidateIfOverdue","outputs":[],"stateMutability":"nonpayable","type":"function"},{"inputs":[{"internalType":"uint256","name":"totalAmount","type":"uint256"},{"internalType":"uint256","name":"durationMonths","type":"uint256"},{"internalType":"uint256","name":"annualInterestRate","type":"uint256"},{"internalType":"uint256","name":"downPaymentPercentage","type":"uint256"}],"name":"loan","outputs":[],"stateMutability":"nonpayable","type":"function"},{"inputs":[{"internalType":"uint256","name":"","type":"uint256"}],"name":"loanIds","outputs":[{"internalType":"bytes32","name":"","type":"bytes32"}],"stateMutability":"view","type":"function"},{"inputs":[{"internalType":"bytes32","name":"","type":"bytes32"}],"name":"loans","outputs":[{"internalType":"bytes32","name":"id","type":"bytes32"},{"internalType":"address","name":"borrower","type":"address"},{"internalType":"uint256","name":"principal","type":"uint256"},{"internalType":"uint256","name":"borrowerDeposit","type":"uint256"},{"internalType":"uint256","name":"interestRate","type":"uint256"},{"internalType":"uint256","name":"duration","type":"uint256"},{"internalType":"uint256","name":"monthlyPayment","type":"uint256"},{"internalType":"uint256","name":"startTime","type":"uint256"},{"internalType":"uint256","name":"btcPriceAtCreation","type":"uint256"},{"internalType":"bool","name":"isActive","type":"bool"},{"internalType":"uint256","name":"totalAmount","type":"uint256"},{"internalType":"uint256","name":"stakedAmount","type":"uint256"},{"internalType":"uint256","name":"remainingPrincipal","type":"uint256"},{"internalType":"bool","name":"insuranceTaken","type":"bool"}],"stateMutability":"view","type":"function"},{"inputs":[{"internalType":"bytes32","name":"loanId","type":"bytes32"},{"internalType":"uint256","name":"index","type":"uint256"}],"name":"markInstallmentPaid","outputs":[],"stateMutability":"nonpayable","type":"function"},{"inputs":[],"name":"missedPaymentFeeBps","outputs":[{"internalType":"uint256","name":"","type":"uint256"}],"stateMutability":"view","type":"function"},{"inputs":[],"name":"originationFeeBps","outputs":[{"internalType":"uint256","name":"","type":"uint256"}],"stateMutability":"view","type":"function"},{"inputs":[],"name":"owner","outputs":[{"internalType":"address","name":"","type":"address"}],"stateMutability":"view","type":"function"},{"inputs":[{"internalType":"bytes32","name":"loanId","type":"bytes32"},{"internalType":"uint256","name":"usdcAmount","type":"uint256"}],"name":"payouts","outputs":[],"stateMutability":"nonpayable","type":"function"},{"inputs":[{"internalType":"address","name":"_aavePool","type":"address"}],"name":"setAavePool","outputs":[],"stateMutability":"nonpayable","type":"function"},{"inputs":[{"internalType":"address","name":"_cbBtcToken","type":"address"}],"name":"setCbBtcToken","outputs":[],"stateMutability":"nonpayable","type":"function"},{"inputs":[{"internalType":"address","name":"oracleAddress","type":"address"}],"name":"setChainlinkOracle","outputs":[],"stateMutability":"nonpayable","type":"function"},{"inputs":[{"internalType":"uint256","name":"bps","type":"uint256"}],"name":"setEarlyClosureFee","outputs":[],"stateMutability":"nonpayable","type":"function"},{"inputs":[{"internalType":"bytes32","name":"loanId","type":"bytes32"},{"internalType":"bool","name":"status","type":"bool"}],"name":"setInsuranceTaken","outputs":[],"stateMutability":"nonpayable","type":"function"},{"inputs":[{"internalType":"uint256","name":"bps","type":"uint256"}],"name":"setMissedPaymentFee","outputs":[],"stateMutability":"nonpayable","type":"function"},{"inputs":[{"internalType":"uint256","name":"bps","type":"uint256"}],"name":"setOriginationFee","outputs":[],"stateMutability":"nonpayable","type":"function"},{"inputs":[{"internalType":"address","name":"_swapRouter","type":"address"}],"name":"setSwapRouter","outputs":[],"stateMutability":"nonpayable","type":"function"},{"inputs":[],"name":"swapRouter","outputs":[{"internalType":"contract ISwapRouter","name":"","type":"address"}],"stateMutability":"view","type":"function"},{"inputs":[],"name":"totalPoolBalance","outputs":[{"internalType":"uint256","name":"","type":"uint256"}],"stateMutability":"view","type":"function"},{"inputs":[],"name":"usdcToken","outputs":[{"internalType":"address","name":"","type":"address"}],"stateMutability":"view","type":"function"},{"inputs":[{"internalType":"address","name":"to","type":"address"}],"name":"withdrawAccumulatedFees","outputs":[],"stateMutability":"nonpayable","type":"function"},{"inputs":[{"internalType":"uint256","name":"amount","type":"uint256"}],"name":"withdrawFromPool","outputs":[],"stateMutability":"nonpayable","type":"function"}],"evm":{"bytecode":{"linkReferences":{},"object":"608034620000fb57601f62003ac538819003918201601f19168301916001600160401b03831184841017620001005780849260a094604052833981010312620000fb576200004d8162000116565b906200005c6020820162000116565b906200006b6040820162000116565b91620000886080620000806060850162000116565b930162000116565b9160018060a01b0319943386600854161760085560018060a01b039485809481809416896009541617600955168760025416176002551685600354161760035516836000541617600055169060015416176001556000600c556000600d556000600e5560405161399990816200012c8239f35b600080fd5b634e487b7160e01b600052604160045260246000fd5b51906001600160a01b0382168203620000fb5756fe608080604052600436101561001357600080fd5b600090813560e01c9081630662bcc4146129be575080630a71096e146126d25780630e462386146126a957806311eac8551461268057806317007125146126155780631fc8f4df146124e457806321d4f8db146124a257806328830d471461216b57806328fd10d71461212e57806329055efc1461154b57806330fc43ed146113a257806331739bb714611384578063337a173714611357578063349f937c1461130e57806341273657146112c15780635026d63e146112a35780635206d2d014611289578063587f5ed71461126b5780636221fa301461121257806363eed603146111f45780636c1945ae146110f35780637a9b0412146110a65780637c5b296014610f835780637f2006a014610f4557806380f2122c14610a6e57806383cd8fcf14610a2157806386a2e274146108ef5780638da5cb5b146108c657806398d5fdca146108a3578063a03e4bc31461087c578063a20ce4861461083b578063a990201c146107d4578063b2f0045214610796578063c1f10663146106b7578063c31c9c071461068e578063c4a90815146105be578063c9642d2a14610485578063dcfc8ebf14610447578063ef06e72c1461041e578063f58901fa1461021f5763f8715a42146101e457600080fd5b3461021c57602036600319011261021c576004359060075482101561021c57602061020e83612a70565b90546040519160031b1c8152f35b80fd5b503461021c57604036600319011261021c5760043561023c612a61565b610247821515613922565b6009546040516323b872dd60e01b81523360048201523060248201526044810184905260209185916001600160a01b0391849082906064908290879087165af180156103f657610401575b50600954825460405163095ea7b360e01b81529083166001600160a01b0316600482015260248101879052908490829084168186816044810103925af180156103f6576103c9575b50815460095482169116803b156103c55760405163617ba03760e01b81526001600160a01b03929092166004830152602482018690523060448301526000606483015282908290608490829084905af180156103ba576103a2575b50507f693c1828300d1cab0919b948d714897f817e305af51c026ad14233b6a8939adb91600a61039c923387525260408520610372858254612c52565b905561038084600b54612c52565b600b556040805194855290151560208501523393918291820190565b0390a280f35b6103ab90612aef565b6103b6578338610335565b8380fd5b6040513d84823e3d90fd5b8280fd5b6103e890843d86116103ef575b6103e08183612b1f565b810190612c3a565b50386102da565b503d6103d6565b6040513d85823e3d90fd5b61041790843d86116103ef576103e08183612b1f565b5038610292565b503461021c578060031936011261021c576003546040516001600160a01b039091168152602090f35b503461021c57602036600319011261021c5760043561047160018060a01b03600854163314612eac565b61047f6127108211156138e7565b600d5580f35b503461021c57610494366129da565b906104aa60018060a01b03600854163314612eac565b8083526005602052600c604084206104c860ff600983015416612f02565b019081548310156105795760ff60026104e18585612e90565b50015416610534578260026105197f3d05ac2057427ac2f84502e7efefebf5ae10d9529129c2979ce60fb97d46061495604095612e90565b5001805460ff1916600117905582519182526020820152a180f35b60405162461bcd60e51b815260206004820152601f60248201527f496e7374616c6c6d656e7420616c7265616479206d61726b65642070616964006044820152606490fd5b60405162461bcd60e51b815260206004820152601960248201527f496e76616c696420696e7374616c6c6d656e7420696e646578000000000000006044820152606490fd5b503461021c57602036600319011261021c5760406101c091600435815260056020522080549060018060a01b03600182015416906002810154600382015460048301546005840154600685015460078601549060088701549260ff60098901541694600a89015496600d8a01549860ff600f600e8d01549c0154169b60206040519e8f908152015260408d015260608c015260808b015260a08a015260c089015260e0880152610100870152151561012086015261014085015261016084015261018083015215156101a0820152f35b503461021c578060031936011261021c576001546040516001600160a01b039091168152602090f35b503461021c57602036600319011261021c576004356001600160a01b0380821682036103c5576106ec81600854163314612eac565b600f54801561075b57600f84905560095460405163a9059cbb60e01b81526001600160a01b039490941660048501526024840191909152602091839160449183918791165af180156103ba57610740575080f35b6107579060203d81116103ef576103e08183612b1f565b5080f35b60405162461bcd60e51b81526020600482015260136024820152724e6f206665657320746f20776974686472617760681b6044820152606490fd5b503461021c57602036600319011261021c576004356107c060018060a01b03600854163314612eac565b6107ce6127108211156138e7565b600e5580f35b503461021c57604036600319011261021c576108386107f1612a61565b61080660018060a01b03600854163314612eac565b60043583526005602052600f6040842061082660ff600983015416612f02565b019060ff801983541691151516179055565b80f35b503461021c57602036600319011261021c576004356001600160a01b03811690819003610878578160409160209352600a83522054604051908152f35b5080fd5b503461021c578060031936011261021c57546040516001600160a01b039091168152602090f35b503461021c578060031936011261021c5760206108be612b8d565b604051908152f35b503461021c578060031936011261021c576008546040516001600160a01b039091168152602090f35b503461021c57602036600319011261021c5760043581526005602052600b60408220019081549061091f82612cc4565b9161092981612cc4565b61093282612cc4565b9061093c83612cc4565b9261094681612cc4565b945b8181106109b357610977876109af886109a1896109938a6109858b604051998a9960a08b5260a08b0190612a24565b9089820360208b01526129f0565b9087820360408901526129f0565b9085820360608701526129f0565b9083820360808501526129f0565b0390f35b8060046109c3610a1c938b61386c565b5080546001600160a01b03166109d9848c612d13565b5260018101546109e98488612d13565b5260028101546109f98489612d13565b526003810154610a09848a612d13565b520154610a168289612d13565b52612e81565b610948565b503461021c57602036600319011261021c576004356001600160a01b03818116918290036103c557610a5890600854163314612eac565b6001600160601b0360a01b600254161760025580f35b503461021c57610a7d366129da565b9080835260056020526040832092610a9b60ff600986015416612f02565b60018401546001600160a01b03163303610f00576009546040516323b872dd60e01b815233600482015230602482015260448101859052906020908290606490829086906001600160a01b03165af180156103ba57610ee1575b50829381805b600c830154811080610ed8575b15610bfd57610b1a81600c8501612e90565b5080548015610bb857600282019081549260ff8416610b4a576001610b4191015482612c52565b808b1015610b5c575b50505050610b5790612e81565b610afb565b600191610b72610b7892610b5797969a9d612c9f565b9b612c52565b9660ff19161790557f3d05ac2057427ac2f84502e7efefebf5ae10d9529129c2979ce60fb97d46061460408051888152836020820152a190388080610b4a565b60405162461bcd60e51b815260206004820152601860248201527f496e7374616c6c6d656e7420616c7265616479207061696400000000000000006044820152606490fd5b5091838686610c0c8282612c9f565b80610d98575b5090610c4c818493610c477fdc376abd09229a842ac7d8bcadc9017651f1f1b8490750870cae0ecd4aedf67497608097612f43565b612c9f565b6040519283523360208401526040830152156060820152a160018283600c840154905b818110610d2a575b505081610d20575b50610c88575080f35b610c9c6002612710920154600d5490612bf1565b0480610ca6575080f35b6009546040516323b872dd60e01b81523360048201523060248201526044810183905291906020908390606490829087906001600160a01b03165af19182156103f657610cfb92610d01575b50600f54612c52565b600f5580f35b610d199060203d6020116103ef576103e08183612b1f565b5083610cf2565b9050421083610c7f565b60ff6002610d3b83600c8901612e90565b5001541615610d8b57610d5181600c8701612e90565b508360038092015411610d6e575b50610d6990612e81565b610c6f565b819350610d81610d6992600c8801612e90565b5001549290610d5f565b5050905082908480610c77565b600954875460405163095ea7b360e01b81526001600160a01b0391821660048201526024810184905291602091839160449183918d91165af18015610ecd57610eae575b50865460095488916001600160a01b039182169116803b156103c55760405163617ba03760e01b81526001600160a01b03929092166004830152602482018490523060448301526000606483015282908290608490829084905af180156103ba57610e8e575b5050826080949392610c477fdc376abd09229a842ac7d8bcadc9017651f1f1b8490750870cae0ecd4aedf67497610e7e610c4c95600b54612c52565b600b559750509250929350610c12565b610e9b9095949395612aef565b610eaa57868894929394610e42565b8680fd5b610ec69060203d6020116103ef576103e08183612b1f565b5087610ddc565b6040513d8a823e3d90fd5b50861515610b08565b610ef99060203d6020116103ef576103e08183612b1f565b5038610af5565b60405162461bcd60e51b815260206004820152601760248201527f4f6e6c7920626f72726f7765722063616e2072657061790000000000000000006044820152606490fd5b503461021c57602036600319011261021c57600435610f6f60018060a01b03600854163314612eac565b610f7d6127108211156138e7565b600c5580f35b503461021c57610f92366129da565b811561105557818111610ffc5761271090818102918183041490151715610fe857610fbd9250612c1a565b6107d08110159081610fdb575b604080519182529115156020820152f35b6113888111159150610fca565b634e487b7160e01b83526011600452602483fd5b60405162461bcd60e51b815260206004820152602b60248201527f426f72726f776572206465706f7369742063616e6e6f7420657863656564207460448201526a1bdd185b08185b5bdd5b9d60aa1b6064820152608490fd5b60405162461bcd60e51b815260206004820152602360248201527f546f74616c20616d6f756e74206d75737420626520677265617465722074686160448201526206e20360ec1b6064820152608490fd5b503461021c57602036600319011261021c576004356001600160a01b03818116918290036103c5576110dd90600854163314612eac565b6001600160601b0360a01b600354161760035580f35b503461021c576020908160031936011261021c5790600435825260058152600c6040832001805461112381612cac565b906111316040519283612b1f565b8082528382018093865284862086915b8383106111a557505050506040519280840191818552518092526040840192945b82811061116f5784840385f35b85518051855280830151858401526040808201511515908601526060908101519085015294810194608090930192600101611162565b60048760019260409a9997989a516111bc81612abd565b85548152848601548382015260ff60028701541615156040820152600386015460608201528152019201920191909694939596611141565b503461021c578060031936011261021c576020600e54604051908152f35b503461021c57602036600319011261021c57600435601481029181830460141482151715611257575061124b6064604093048092612c9f565b82519182526020820152f35b634e487b7160e01b81526011600452602490fd5b503461021c578060031936011261021c576020600f54604051908152f35b503461021c57604061124b61129d366129da565b90613888565b503461021c578060031936011261021c576020600b54604051908152f35b503461021c57602036600319011261021c576004356001600160a01b03818116918290036103c5576112f890600854163314612eac565b6001600160601b0360a01b600154161760015580f35b503461021c57602036600319011261021c576004356001600160a01b03818116918290036103c55761134590600854163314612eac565b81546001600160a01b03191617815580f35b503461021c57602036600319011261021c57600d6040602092600435815260058452200154604051908152f35b503461021c578060031936011261021c576020600c54604051908152f35b503461021c57602080600319360112610878576004356113c3811515613922565b338352600a82528060408420541061150657828091338252600a8452604082206113ee828254612c9f565b90556113fc81600b54612c9f565b600b558154600954604051631a4ca37b60e21b81526001600160a01b0391821660048201526024810184905230604482015293909186918591606491839186165af180156114fb57859385916114bf575b509061145e83611490949314612c5f565b60095460405163a9059cbb60e01b81523360048201526024810193909352919485939190921691839182906044820190565b03925af180156103f6576114a2578280f35b816114b892903d106103ef576103e08183612b1f565b5038808280f35b929450509181813d83116114f4575b6114d88183612b1f565b810103126114ef575184928492909161145e61144d565b600080fd5b503d6114ce565b6040513d86823e3d90fd5b60405162461bcd60e51b815260048101839052601960248201527f496e73756666696369656e7420706f6f6c2062616c616e6365000000000000006044820152606490fd5b503461021c57608036600319011261021c57606435600435156120f857602435156120c0576107d0811015806120b4575b1561205e57600435600b541061201957612710908161159f600c54600435612bf1565b0480611f9e575b50825460095460405163ee9e836d60e01b81526001600160a01b0391821660048201819052306024830152939290911690602081604481855afa908115611bf2578691611f68575b5060043503611f2357604051631a4ca37b60e21b81526001600160a01b03939093166004808501919091523560248401523060448401526020908390606490829088905af19182156114fb578492611eed575b5061165261166b9260043514612c5f565b611660600435600b54612c9f565b600b55600435612bf1565b0461167881600435612c9f565b6009546040516323b872dd60e01b815233600482015230602482015260448101849052906020908290606490829088906001600160a01b03165af180156114fb57611ece575b5060405160208101903360601b8252426034820152603481526116e081612b03565b519020918284526005602052604084209083825560018201336001600160601b0360a01b825416179055600435600a830155826002830155600382015560443590816004820155602435600582015542600782015561173d612b8d565b600882015560098101600160ff1982541617905582600e820155670de0b6b3a7640000820291808304670de0b6b3a76400001490151715611eba576117866104b0830484612bf1565b6104b08304670de0b6b3a764000001670de0b6b3a764000011611c52576104b08304670de0b6b3a76400000115611ea6576117db6024356104b08504670de0b6b3a764000001670de0b6b3a764000004612dda565b670de0b6b3a76400000390670de0b6b3a76400008211611c3e5760069161180191612c1a565b91015582845260056020526040842091670de0b6b3a764000081865b6024358110611e7c57508161183a61183f926104b0870490612bf1565b612bf1565b9080670de0b6b3a763ffff19810111611c3e57670de0b6b3a76400009161187191670de0b6b3a763ffff190190612c1a565b0480600685015585915b6024358310611d0c578686600754600160401b811015611cf8578060016118a59201600755612a70565b815460001960039290921b91821b19169083901b179055338252600660209081526040808420805460ff1916600190811790915583855260058352818520600a8101546009549254935163095ea7b360e01b81526001600160a01b039485166004820152602481018290529194909391929091839160449183918a91165af18015611ced57611cce575b5060405161193c81612b03565b6002815260403660208301376009546001600160a01b031661195d82612cf6565b526002546001600160a01b031661197382612d03565b52600354604051633fabe5a360e21b81529060a090829060049082906001600160a01b03165afa908115611bf2578691611c9b575b5085811315611c66576305f5e100808402908482041484151715611c3e57906119d091612c1a565b80606281020460621481151715611c52576001546001600160a01b0316914261012c810110611c3e5791611a2e9391878094604051968795869485936338ed173960e01b855261012c42019260646062309402049060048701612da1565b03925af180156114fb57611a49918591611c1c575b50612d03565b518284526005602090815260408086206002548754925163095ea7b360e01b81526001600160a01b0393841660048201526024810186905291939192839160449183918b91165af18015611bf257611bfd575b50845460025486916001600160a01b039081169116813b156103c55760405163617ba03760e01b81526001600160a01b03919091166004820152602481018590523060448201526000606482015291908290608490829084905af18015611bf257611b8b575b506080927faeec09af87559b9077da2e499d1fad2e228d7c24cb4b566fe61976820abaadda6060846002857f65410888fb30edd04f6acfb2f6cfd92aaf0ebb9b5303b6286d65d0b031b5b7f79997600d60039801550154906040519187835260208301526040820152a1015460405191825260043560208301526040820152336060820152a180f35b927faeec09af87559b9077da2e499d1fad2e228d7c24cb4b566fe61976820abaadda60607f65410888fb30edd04f6acfb2f6cfd92aaf0ebb9b5303b6286d65d0b031b5b7f79694600260039599611be3608099612aef565b99955050949650505092611b02565b6040513d88823e3d90fd5b611c159060203d6020116103ef576103e08183612b1f565b5085611a9c565b611c3891503d8087833e611c308183612b1f565b810190612d27565b85611a43565b634e487b7160e01b87526011600452602487fd5b634e487b7160e01b86526011600452602486fd5b60405162461bcd60e51b815260206004820152600d60248201526c496e76616c696420707269636560981b6044820152606490fd5b611cbc915060a03d8111611cc7575b611cb48183612b1f565b810190612b58565b5050509050866119a8565b503d611caa565b611ce69060203d6020116103ef576103e08183612b1f565b508461192f565b6040513d87823e3d90fd5b634e487b7160e01b83526041600452602483fd5b670de0b6b3a7640000611d236104b0860483612bf1565b049081831115611e7657611d378284612c9f565b91602435600019810111611e6257602435600019018514611e4d575b62278d008581810204811486151715611e3957611d7290860242612c52565b60405191611d7f83612abd565b84835260208301528960408301526060820152600c870154600160401b811015611e2557806001611db99201600c8a0155600c8901612e90565b919091611e115791611e0b93916003606085611e059651845560208101516001850155611dfb60408201511515600286019060ff801983541691151516179055565b0151910155612c9f565b92612e81565b9161187b565b634e487b7160e01b8a5260048a905260248afd5b634e487b7160e01b8a52604160045260248afd5b634e487b7160e01b8a52601160045260248afd5b9250905080611e5c8382612c52565b92611d53565b634e487b7160e01b89526011600452602489fd5b87611d37565b91670de0b6b3a7640000611e9a611ea1926104b08804830190612bf1565b0492612e81565b61181d565b634e487b7160e01b86526012600452602486fd5b634e487b7160e01b85526011600452602485fd5b611ee69060203d6020116103ef576103e08183612b1f565b50386116be565b91506020823d602011611f1b575b81611f0860209383612b1f565b810103126103b657905190611652611641565b3d9150611efb565b60405162461bcd60e51b815260206004820152601e60248201527f496e73756666696369656e74204141564520706f6f6c2062616c616e636500006044820152606490fd5b90506020813d602011611f96575b81611f8360209383612b1f565b81010312611f925751386115ee565b8580fd5b3d9150611f76565b6009546040516323b872dd60e01b81523360048201523060248201526044810183905291906020908390606490829089906001600160a01b03165af1918215611ced57611ff292611ffb5750600f54612c52565b600f55386115a6565b6120129060203d81116103ef576103e08183612b1f565b5038610cf2565b60405162461bcd60e51b815260206004820152601b60248201527f496e73756666696369656e7420706f6f6c206c697175696469747900000000006044820152606490fd5b60405162461bcd60e51b815260206004820152602860248201527f446f776e207061796d656e74206d757374206265206265747765656e2032302560448201526720616e642035302560c01b6064820152608490fd5b5061138881111561157c565b60405162461bcd60e51b815260206004820152601060248201526f24b73b30b634b210323ab930ba34b7b760811b6044820152606490fd5b60405162461bcd60e51b815260206004820152600e60248201526d125b9d985b1a5908185b5bdd5b9d60921b6044820152606490fd5b503461021c57602036600319011261021c576004356001600160a01b03811690819003610878578160409160209352600483522054604051908152f35b503461021c576020806003193601126108785760043560018060a01b0361219781600854163314612eac565b8184526005835260408420926009908185019160ff6121b881855416612f02565b87908890600c89018054925b83811061245257505050506276a70010156123f857600e86016127106121ee8254600d5490612bf1565b04806123d6575b5060ff199384815416905560019081880194868654168a526006855260408a20908154169055600d880154806123c6575b506003908189015490549182612298575b8a7fcab88a55906c5830a49dddd8b31d115294a5e6c4210f25fe140530a39c51dc748a8a8a54169061229261226a612b8d565b604080519384526001600160a01b039094166020840152928201929092529081906060820190565b0390a180f35b9091928099600b8c9101915b6122af575b50612237565b81548110156123c1576122c2818361386c565b506122d48c8201548583015490612c9f565b8c81156123b05750670de0b6b3a764000090818102908104820361239c578796959493928f919261231261230c61234e9b8e96612c1a565b89612bf1565b04918d808c541692541690604051809b8195829463a9059cbb60e01b84526004840160209093929193604081019460018060a01b031681520152565b03925af1908115612391578c9661236a92612374575b50612e81565b90919293946122a4565b61238a908a3d8c116103ef576103e08183612b1f565b5038612364565b6040513d8f823e3d90fd5b634e487b7160e01b8f52601160045260248ffd5b9695949392905061236a9150612e81565b6122a9565b6123d090886133e6565b38612226565b806123e66123f092600f54612c52565b600f558254612c9f565b8155386121f5565b60405162461bcd60e51b815260048101839052602c60248201527f4c6f616e206973206e6f74206f766572647565206265796f6e642033206d6f6e60448201526b1d1a1cc81a5b881d1bdd185b60a21b6064820152608490fd5b61245c8183612e90565b50836002820154166124745760030154804211612483575b5061247e90612e81565b6121c4565b61247e919561249561249b9242612c9f565b90612c52565b9490612474565b503461021c57602036600319011261021c576004356001600160a01b038116908190036108785760408260ff9260209452600684522054166040519015158152f35b503461021c576020806003193601126108785790600435815260058252600c604082200180549161251483612cc4565b9261251e81612cc4565b61252782612cac565b916125356040519384612b1f565b80835261254181612cac565b8388019590601f1901368737845b8281106125bd5750505094806125836125769760405198899860608a5260608a01906129f0565b90888203848a01526129f0565b92868403604088015251928381520193925b8281106125a457505050500390f35b8351151585528695509381019392810192600101612595565b8060ff60026125d561260a94869d9a999b9c9d612e90565b5080546125e2858f612d13565b5260018101546125f2858a612d13565b52015416612600828a612d13565b9015159052612e81565b97969593949761254f565b503461021c57606090612627366129da565b90916107d0821015919082612673575b821561266a575061271061264e6126569285612bf1565b048093612c9f565b604051928352602083015215156040820152f35b92505081612656565b6113888211159250612637565b503461021c578060031936011261021c576009546040516001600160a01b039091168152602090f35b503461021c578060031936011261021c576002546040516001600160a01b039091168152602090f35b503461021c57602036600319011261021c576126f960018060a01b03600854163314612eac565b60043581526005602052604081206009810180549161271a60ff8416612f02565b612722612b8d565b91600d82016305f5e100612737858354612bf1565b0491600e8401928354606981029080820460691490151715611e6257606490041061295b5760ff1995861690556001830180546001600160a01b0316875260066020526040872080549096169095558154600e54612710916127999190612bf1565b0480612939575b505480612927575b50600382015490549182612807575b505091546040805160043581526001600160a01b0390921660208301528101919091527fcab88a55906c5830a49dddd8b31d115294a5e6c4210f25fe140530a39c51dc7491508060608101612292565b909192855b600b8301548110156128fa5761282581600b850161386c565b506128396001820154600383015490612c9f565b80156128ef5780670de0b6b3a7640000810204670de0b6b3a764000003611e62576128b99291670de0b6b3a764000061287961230c8a8360209602612c1a565b600954925460405163a9059cbb60e01b81526001600160a01b039182166004820152929091046024830152909485929091169082908c9082906044820190565b03925af1918215610ecd576128d2926128d75750612e81565b61280c565b61238a9060203d6020116103ef576103e08183612b1f565b50506128d290612e81565b50925050507fcab88a55906c5830a49dddd8b31d115294a5e6c4210f25fe140530a39c51dc7438806127b7565b612933906004356133e6565b386127a8565b8061294961295392600f54612c52565b600f558354612c9f565b8255386127a0565b60405162461bcd60e51b815260206004820152603560248201527f4254432076616c756520686173206e6f742064726f707065642062656c6f77206044820152741b1a5c5d5a59185d1a5bdb881d1a1c995cda1bdb19605a1b6064820152608490fd5b905034610878578160031936011261087857602090600d548152f35b60409060031901126114ef576004359060243590565b90815180825260208080930193019160005b828110612a10575050505090565b835185529381019392810192600101612a02565b90815180825260208080930193019160005b828110612a44575050505090565b83516001600160a01b031685529381019392810192600101612a36565b6024359081151582036114ef57565b600754811015612aa75760076000527fa66cc928b5edb82af9bd49922954155ab7b0942694bea4ce44661d9a8736c6880190600090565b634e487b7160e01b600052603260045260246000fd5b6080810190811067ffffffffffffffff821117612ad957604052565b634e487b7160e01b600052604160045260246000fd5b67ffffffffffffffff8111612ad957604052565b6060810190811067ffffffffffffffff821117612ad957604052565b90601f8019910116810190811067ffffffffffffffff821117612ad957604052565b519069ffffffffffffffffffff821682036114ef57565b908160a09103126114ef57612b6c81612b41565b91602082015191604081015191612b8a608060608401519301612b41565b90565b600354604051633fabe5a360e21b81529060a090829060049082906001600160a01b03165afa908115612be557600091612bc5575090565b612bdd915060a03d8111611cc757611cb48183612b1f565b505050905090565b6040513d6000823e3d90fd5b81810292918115918404141715612c0457565b634e487b7160e01b600052601160045260246000fd5b8115612c24570490565b634e487b7160e01b600052601260045260246000fd5b908160209103126114ef575180151581036114ef5790565b91908201809211612c0457565b15612c6657565b60405162461bcd60e51b81526020600482015260116024820152700aed2e8d0c8e4c2ee40dad2e6dac2e8c6d607b1b6044820152606490fd5b91908203918211612c0457565b67ffffffffffffffff8111612ad95760051b60200190565b90612cce82612cac565b612cdb6040519182612b1f565b8281528092612cec601f1991612cac565b0190602036910137565b805115612aa75760200190565b805160011015612aa75760400190565b8051821015612aa75760209160051b010190565b60209081818403126114ef5780519067ffffffffffffffff82116114ef57019180601f840112156114ef578251612d5d81612cac565b93612d6b6040519586612b1f565b818552838086019260051b8201019283116114ef578301905b828210612d92575050505090565b81518152908301908301612d84565b9192608093612dc692979695978452602084015260a0604084015260a0830190612a24565b6001600160a01b0390951660608201520152565b908015612e7a578115612e73578180600114612e6b57600214612e5a5760208110610133831016604e8210600b84101617612e5557600190815b808211612e2c57505081600019048111612c04570290565b909280600019048111612c0457818416612e4c575b800292811c90612e14565b80920291612e41565b900a90565b905060ff8111612c04576001901b90565b505050600190565b5050600090565b5050600190565b6000198114612c045760010190565b8054821015612aa75760005260206000209060021b0190600090565b15612eb357565b60405162461bcd60e51b815260206004820152602160248201527f4f6e6c79206f776e65722063616e2063616c6c20746869732066756e6374696f6044820152603760f91b6064820152608490fd5b15612f0957565b60405162461bcd60e51b81526020600482015260126024820152714c6f616e206973206e6f742061637469766560701b6044820152606490fd5b91906000908382526020936005855260408084209280158080156133da575b80156133ce575b612fa8576305f5e100808302928304141715611eba57612f90600d91600886015490612c1a565b93019384548085116133c6575b508315918215612fb2575b5050505050509050565b8382526005885280822097600d89019384548711613374576133325760018060a01b03928360025416809a8451956370a0823160e01b97888852858860248160049730898301525afa9788156132c8578598613301575b50858b9c9d9e613056999a9b9c8488541690888b51809d81958294631a4ca37b60e21b845230918d850191939290604091606084019560018060a01b038093168552602085015216910152565b03925af19788156132c85785986132d2575b508582600254169a60248951809d8193825230898301525afa998a156132c857859a613295575b50888a1115613247578715613204576130ee928692826130b18b809554612c9f565b9055600181600254169201541686895180968195829463a9059cbb60e01b84528a840160209093929193604081019460018060a01b031681520152565b03925af19081156131fa5783916131dd575b501561319a575092828860a096937f38a556a122683cb48d496614a7a03605b6c2c0482342924caf483386980ecc9f608061318c9c9b987f971c7ec4a7c96c0a198687499279ccf05d9699970007b5ae5017b1177ee02ed39b9851908a8252858583015286820152866060820152a1825196875286015284015260608301526080820152a18254612c9f565b905580388080808080612fa8565b835162461bcd60e51b8152908101839052601b60248201527f5472616e7366657220746f20626f72726f776572206661696c656400000000006044820152606490fd5b6131f49150843d86116103ef576103e08183612b1f565b38613100565b85513d85823e3d90fd5b865162461bcd60e51b8152808501879052601c60248201527f556e7374616b652072657475726e6564207a65726f20746f6b656e73000000006044820152606490fd5b865162461bcd60e51b8152808501879052602260248201527f5769746864726177616c206469646e277420696e6372656173652062616c616e604482015261636560f01b6064820152608490fd5b9099508581813d83116132c1575b6132ad8183612b1f565b810103126132bd5751983861308f565b8480fd5b503d6132a3565b87513d87823e3d90fd5b9097508581813d83116132fa575b6132ea8183612b1f565b810103126132bd57519638613068565b503d6132e0565b9d9750858e813d831161332b575b6133198183612b1f565b810103126132bd579c51969c85613009565b503d61330f565b606491519062461bcd60e51b82526004820152601a60248201527f43616e6e6f7420756e7374616b65207a65726f20616d6f756e740000000000006044820152fd5b50608491519062461bcd60e51b82526004820152602660248201527f43616e6e6f7420756e7374616b65206d6f7265207468616e207374616b656420604482015265185b5bdd5b9d60d21b6064820152fd5b935038612f9d565b50600d85015415612f69565b50600885015415612f62565b9190916000928184526020600581526040600d8187200192835481116138195780156137d55760018060a01b039283600254169783519489866370a0823160e01b988982528582600494308683015260249485915afa9889156136ad5785996137a4575b5084548851631a4ca37b60e21b81526001600160a01b039e909e16848f01908152602081018990523060408201529c9d9b9c9a9b999a87918b91829003606001908290899089165af19889156136ad578599613775575b508584600254169b838a51809e8193825230888301525afa9a8b156136ad57859b613746575b50898b11156136f95788156136b7576134e1898254612c9f565b9055600254600154885163095ea7b360e01b81529085166001600160a01b0316848201908152602081018b905290918791839187169082908990829060400103925af180156136ad57613690575b5086519161353c83612b03565b60028352873687850137836002541661355484612cf6565b52836009541661356384612d03565b52605f890293898504605f0361367e57600154169161012c42019081421161366d575090858a6135b0829695948c51988997889687956338ed173960e01b87526064309404918701612da1565b03925af19081156136635760808361361a7f971c7ec4a7c96c0a198687499279ccf05d9699970007b5ae5017b1177ee02ed39c9a9896947f38a556a122683cb48d496614a7a03605b6c2c0482342924caf483386980ecc9f9460a09d9b9997916136495750612d03565b51908651918b83528686840152878301526060820152a1825196875286015284015260608301526080820152a1565b61365d91503d8085833e611c308183612b1f565b38611a43565b85513d84823e3d90fd5b634e487b7160e01b87526011835286fd5b50634e487b7160e01b85526011905283fd5b6136a690863d88116103ef576103e08183612b1f565b503861352f565b88513d87823e3d90fd5b875162461bcd60e51b8152808401879052601c818401527f556e7374616b652072657475726e6564207a65726f20746f6b656e73000000006044820152606490fd5b875162461bcd60e51b81528084018790526022818401527f5769746864726177616c206469646e277420696e6372656173652062616c616e604482015261636560f01b6064820152608490fd5b909a508581813d831161376e575b61375e8183612b1f565b810103126132bd575199386134c7565b503d613754565b9098508581813d831161379d575b61378d8183612b1f565b810103126132bd575197386134a1565b503d613783565b9c9850858d813d83116137ce575b6137bc8183612b1f565b810103126132bd579b51979b8561344a565b503d6137b2565b815162461bcd60e51b815260048101849052601a60248201527f43616e6e6f7420756e7374616b65207a65726f20616d6f756e740000000000006044820152606490fd5b815162461bcd60e51b815260048101849052602660248201527f43616e6e6f7420756e7374616b65206d6f7265207468616e207374616b656420604482015265185b5bdd5b9d60d21b6064820152608490fd5b8054821015612aa7576000526005602060002091020190600090565b6000908152600560205260408120600281015490939281156138de57670de0b6b3a764000092838202918083048514901517156112575750936138d06138da92600d96612c1a565b9485910154612bf1565b0490565b50508092509190565b156138ee57565b60405162461bcd60e51b815260206004820152600c60248201526b08ccaca40e8dede40d0d2ced60a31b6044820152606490fd5b1561392957565b60405162461bcd60e51b81526020600482015260126024820152710416d6f756e74206d757374206265203e20360741b6044820152606490fdfea26469706673582212207a31227219e842b9cc1beb091128289bcdde13d79703d80c7f90d5fe01d40a3864736f6c63430008140033","opcodes":"PUSH1 0x80 CALLVALUE PUSH3 0xFB JUMPI PUSH1 0x1F PUSH3 0x3AC5 CODESIZE DUP2 SWAP1 SUB SWAP2 DUP3 ADD PUSH1 0x1F NOT AND DUP4 ADD SWAP2 PUSH1 0x1 PUSH1 0x1 PUSH1 0x40 SHL SUB DUP4 GT DUP5 DUP5 LT OR PUSH3 0x100 JUMPI DUP1 DUP5 SWAP3 PUSH1 0xA0 SWAP5 PUSH1 0x40 MSTORE DUP4 CODECOPY DUP2 ADD SUB SLT PUSH3 0xFB JUMPI PUSH3 0x4D DUP2 PUSH3 0x116 JUMP JUMPDEST SWAP1 PUSH3 0x5C PUSH1 0x20 DUP3 ADD PUSH3 0x116 JUMP JUMPDEST SWAP1 PUSH3 0x6B PUSH1 0x40 DUP3 ADD PUSH3 0x116 JUMP JUMPDEST SWAP2 PUSH3 0x88 PUSH1 0x80 PUSH3 0x80 PUSH1 0x60 DUP6 ADD PUSH3 0x116 JUMP JUMPDEST SWAP4 ADD PUSH3 0x116 JUMP JUMPDEST SWAP2 PUSH1 0x1 DUP1 PUSH1 0xA0 SHL SUB NOT SWAP5 CALLER DUP7 PUSH1 0x8 SLOAD AND OR PUSH1 0x8 SSTORE PUSH1 0x1 DUP1 PUSH1 0xA0 SHL SUB SWAP5 DUP6 DUP1 SWAP5 DUP2 DUP1 SWAP5 AND DUP10 PUSH1 0x9 SLOAD AND OR PUSH1 0x9 SSTORE AND DUP8 PUSH1 0x2 SLOAD AND OR PUSH1 0x2 SSTORE AND DUP6 PUSH1 0x3 SLOAD AND OR PUSH1 0x3 SSTORE AND DUP4 PUSH1 0x0 SLOAD AND OR PUSH1 0x0 SSTORE AND SWAP1 PUSH1 0x1 SLOAD AND OR PUSH1 0x1 SSTORE PUSH1 0x0 PUSH1 0xC SSTORE PUSH1 0x0 PUSH1 0xD SSTORE PUSH1 0x0 PUSH1 0xE SSTORE PUSH1 0x40 MLOAD PUSH2 0x3999 SWAP1 DUP2 PUSH3 0x12C DUP3 CODECOPY RETURN JUMPDEST PUSH1 0x0 DUP1 REVERT JUMPDEST PUSH4 0x4E487B71 PUSH1 0xE0 SHL PUSH1 0x0 MSTORE PUSH1 0x41 PUSH1 0x4 MSTORE PUSH1 0x24 PUSH1 0x0 REVERT JUMPDEST MLOAD SWAP1 PUSH1 0x1 PUSH1 0x1 PUSH1 0xA0 SHL SUB DUP3 AND DUP3 SUB PUSH3 0xFB JUMPI JUMP INVALID PUSH1 0x80 DUP1 PUSH1 0x40 MSTORE PUSH1 0x4 CALLDATASIZE LT ISZERO PUSH2 0x13 JUMPI PUSH1 0x0 DUP1 REVERT JUMPDEST PUSH1 0x0 SWAP1 DUP2 CALLDATALOAD PUSH1 0xE0 SHR SWAP1 DUP2 PUSH4 0x662BCC4 EQ PUSH2 0x29BE JUMPI POP DUP1 PUSH4 0xA71096E EQ PUSH2 0x26D2 JUMPI DUP1 PUSH4 0xE462386 EQ PUSH2 0x26A9 JUMPI DUP1 PUSH4 0x11EAC855 EQ PUSH2 0x2680 JUMPI DUP1 PUSH4 0x17007125 EQ PUSH2 0x2615 JUMPI DUP1 PUSH4 0x1FC8F4DF EQ PUSH2 0x24E4 JUMPI DUP1 PUSH4 0x21D4F8DB EQ PUSH2 0x24A2 JUMPI DUP1 PUSH4 0x28830D47 EQ PUSH2 0x216B JUMPI DUP1 PUSH4 0x28FD10D7 EQ PUSH2 0x212E JUMPI DUP1 PUSH4 0x29055EFC EQ PUSH2 0x154B JUMPI DUP1 PUSH4 0x30FC43ED EQ PUSH2 0x13A2 JUMPI DUP1 PUSH4 0x31739BB7 EQ PUSH2 0x1384 JUMPI DUP1 PUSH4 0x337A1737 EQ PUSH2 0x1357 JUMPI DUP1 PUSH4 0x349F937C EQ PUSH2 0x130E JUMPI DUP1 PUSH4 0x41273657 EQ PUSH2 0x12C1 JUMPI DUP1 PUSH4 0x5026D63E EQ PUSH2 0x12A3 JUMPI DUP1 PUSH4 0x5206D2D0 EQ PUSH2 0x1289 JUMPI DUP1 PUSH4 0x587F5ED7 EQ PUSH2 0x126B JUMPI DUP1 PUSH4 0x6221FA30 EQ PUSH2 0x1212 JUMPI DUP1 PUSH4 0x63EED603 EQ PUSH2 0x11F4 JUMPI DUP1 PUSH4 0x6C1945AE EQ PUSH2 0x10F3 JUMPI DUP1 PUSH4 0x7A9B0412 EQ PUSH2 0x10A6 JUMPI DUP1 PUSH4 0x7C5B2960 EQ PUSH2 0xF83 JUMPI DUP1 PUSH4 0x7F2006A0 EQ PUSH2 0xF45 JUMPI DUP1 PUSH4 0x80F2122C EQ PUSH2 0xA6E JUMPI DUP1 PUSH4 0x83CD8FCF EQ PUSH2 0xA21 JUMPI DUP1 PUSH4 0x86A2E274 EQ PUSH2 0x8EF JUMPI DUP1 PUSH4 0x8DA5CB5B EQ PUSH2 0x8C6 JUMPI DUP1 PUSH4 0x98D5FDCA EQ PUSH2 0x8A3 JUMPI DUP1 PUSH4 0xA03E4BC3 EQ PUSH2 0x87C JUMPI DUP1 PUSH4 0xA20CE486 EQ PUSH2 0x83B JUMPI DUP1 PUSH4 0xA990201C EQ PUSH2 0x7D4 JUMPI DUP1 PUSH4 0xB2F00452 EQ PUSH2 0x796 JUMPI DUP1 PUSH4 0xC1F10663 EQ PUSH2 0x6B7 JUMPI DUP1 PUSH4 0xC31C9C07 EQ PUSH2 0x68E JUMPI DUP1 PUSH4 0xC4A90815 EQ PUSH2 0x5BE JUMPI DUP1 PUSH4 0xC9642D2A EQ PUSH2 0x485 JUMPI DUP1 PUSH4 0xDCFC8EBF EQ PUSH2 0x447 JUMPI DUP1 PUSH4 0xEF06E72C EQ PUSH2 0x41E JUMPI DUP1 PUSH4 0xF58901FA EQ PUSH2 0x21F JUMPI PUSH4 0xF8715A42 EQ PUSH2 0x1E4 JUMPI PUSH1 0x0 DUP1 REVERT JUMPDEST CALLVALUE PUSH2 0x21C JUMPI PUSH1 0x20 CALLDATASIZE PUSH1 0x3 NOT ADD SLT PUSH2 0x21C JUMPI PUSH1 0x4 CALLDATALOAD SWAP1 PUSH1 0x7 SLOAD DUP3 LT ISZERO PUSH2 0x21C JUMPI PUSH1 0x20 PUSH2 0x20E DUP4 PUSH2 0x2A70 JUMP JUMPDEST SWAP1 SLOAD PUSH1 0x40 MLOAD SWAP2 PUSH1 0x3 SHL SHR DUP2 MSTORE RETURN JUMPDEST DUP1 REVERT JUMPDEST POP CALLVALUE PUSH2 0x21C JUMPI PUSH1 0x40 CALLDATASIZE PUSH1 0x3 NOT ADD SLT PUSH2 0x21C JUMPI PUSH1 0x4 CALLDATALOAD PUSH2 0x23C PUSH2 0x2A61 JUMP JUMPDEST PUSH2 0x247 DUP3 ISZERO ISZERO PUSH2 0x3922 JUMP JUMPDEST PUSH1 0x9 SLOAD PUSH1 0x40 MLOAD PUSH4 0x23B872DD PUSH1 0xE0 SHL DUP2 MSTORE CALLER PUSH1 0x4 DUP3 ADD MSTORE ADDRESS PUSH1 0x24 DUP3 ADD MSTORE PUSH1 0x44 DUP2 ADD DUP5 SWAP1 MSTORE PUSH1 0x20 SWAP2 DUP6 SWAP2 PUSH1 0x1 PUSH1 0x1 PUSH1 0xA0 SHL SUB SWAP2 DUP5 SWAP1 DUP3 SWAP1 PUSH1 0x64 SWAP1 DUP3 SWAP1 DUP8 SWAP1 DUP8 AND GAS CALL DUP1 ISZERO PUSH2 0x3F6 JUMPI PUSH2 0x401 JUMPI JUMPDEST POP PUSH1 0x9 SLOAD DUP3 SLOAD PUSH1 0x40 MLOAD PUSH4 0x95EA7B3 PUSH1 0xE0 SHL DUP2 MSTORE SWAP1 DUP4 AND PUSH1 0x1 PUSH1 0x1 PUSH1 0xA0 SHL SUB AND PUSH1 0x4 DUP3 ADD MSTORE PUSH1 0x24 DUP2 ADD DUP8 SWAP1 MSTORE SWAP1 DUP5 SWAP1 DUP3 SWAP1 DUP5 AND DUP2 DUP7 DUP2 PUSH1 0x44 DUP2 ADD SUB SWAP3 GAS CALL DUP1 ISZERO PUSH2 0x3F6 JUMPI PUSH2 0x3C9 JUMPI JUMPDEST POP DUP2 SLOAD PUSH1 0x9 SLOAD DUP3 AND SWAP2 AND DUP1 EXTCODESIZE ISZERO PUSH2 0x3C5 JUMPI PUSH1 0x40 MLOAD PUSH4 0x617BA037 PUSH1 0xE0 SHL DUP2 MSTORE PUSH1 0x1 PUSH1 0x1 PUSH1 0xA0 SHL SUB SWAP3 SWAP1 SWAP3 AND PUSH1 0x4 DUP4 ADD MSTORE PUSH1 0x24 DUP3 ADD DUP7 SWAP1 MSTORE ADDRESS PUSH1 0x44 DUP4 ADD MSTORE PUSH1 0x0 PUSH1 0x64 DUP4 ADD MSTORE DUP3 SWAP1 DUP3 SWAP1 PUSH1 0x84 SWAP1 DUP3 SWAP1 DUP5 SWAP1 GAS CALL DUP1 ISZERO PUSH2 0x3BA JUMPI PUSH2 0x3A2 JUMPI JUMPDEST POP POP PUSH32 0x693C1828300D1CAB0919B948D714897F817E305AF51C026AD14233B6A8939ADB SWAP2 PUSH1 0xA PUSH2 0x39C SWAP3 CALLER DUP8 MSTORE MSTORE PUSH1 0x40 DUP6 KECCAK256 PUSH2 0x372 DUP6 DUP3 SLOAD PUSH2 0x2C52 JUMP JUMPDEST SWAP1 SSTORE PUSH2 0x380 DUP5 PUSH1 0xB SLOAD PUSH2 0x2C52 JUMP JUMPDEST PUSH1 0xB SSTORE PUSH1 0x40 DUP1 MLOAD SWAP5 DUP6 MSTORE SWAP1 ISZERO ISZERO PUSH1 0x20 DUP6 ADD MSTORE CALLER SWAP4 SWAP2 DUP3 SWAP2 DUP3 ADD SWAP1 JUMP JUMPDEST SUB SWAP1 LOG2 DUP1 RETURN JUMPDEST PUSH2 0x3AB SWAP1 PUSH2 0x2AEF JUMP JUMPDEST PUSH2 0x3B6 JUMPI DUP4 CODESIZE PUSH2 0x335 JUMP JUMPDEST DUP4 DUP1 REVERT JUMPDEST PUSH1 0x40 MLOAD RETURNDATASIZE DUP5 DUP3 RETURNDATACOPY RETURNDATASIZE SWAP1 REVERT JUMPDEST DUP3 DUP1 REVERT JUMPDEST PUSH2 0x3E8 SWAP1 DUP5 RETURNDATASIZE DUP7 GT PUSH2 0x3EF JUMPI JUMPDEST PUSH2 0x3E0 DUP2 DUP4 PUSH2 0x2B1F JUMP JUMPDEST DUP2 ADD SWAP1 PUSH2 0x2C3A JUMP JUMPDEST POP CODESIZE PUSH2 0x2DA JUMP JUMPDEST POP RETURNDATASIZE PUSH2 0x3D6 JUMP JUMPDEST PUSH1 0x40 MLOAD RETURNDATASIZE DUP6 DUP3 RETURNDATACOPY RETURNDATASIZE SWAP1 REVERT JUMPDEST PUSH2 0x417 SWAP1 DUP5 RETURNDATASIZE DUP7 GT PUSH2 0x3EF JUMPI PUSH2 0x3E0 DUP2 DUP4 PUSH2 0x2B1F JUMP JUMPDEST POP CODESIZE PUSH2 0x292 JUMP JUMPDEST POP CALLVALUE PUSH2 0x21C JUMPI DUP1 PUSH1 0x3 NOT CALLDATASIZE ADD SLT PUSH2 0x21C JUMPI PUSH1 0x3 SLOAD PUSH1 0x40 MLOAD PUSH1 0x1 PUSH1 0x1 PUSH1 0xA0 SHL SUB SWAP1 SWAP2 AND DUP2 MSTORE PUSH1 0x20 SWAP1 RETURN JUMPDEST POP CALLVALUE PUSH2 0x21C JUMPI PUSH1 0x20 CALLDATASIZE PUSH1 0x3 NOT ADD SLT PUSH2 0x21C JUMPI PUSH1 0x4 CALLDATALOAD PUSH2 0x471 PUSH1 0x1 DUP1 PUSH1 0xA0 SHL SUB PUSH1 0x8 SLOAD AND CALLER EQ PUSH2 0x2EAC JUMP JUMPDEST PUSH2 0x47F PUSH2 0x2710 DUP3 GT ISZERO PUSH2 0x38E7 JUMP JUMPDEST PUSH1 0xD SSTORE DUP1 RETURN JUMPDEST POP CALLVALUE PUSH2 0x21C JUMPI PUSH2 0x494 CALLDATASIZE PUSH2 0x29DA JUMP JUMPDEST SWAP1 PUSH2 0x4AA PUSH1 0x1 DUP1 PUSH1 0xA0 SHL SUB PUSH1 0x8 SLOAD AND CALLER EQ PUSH2 0x2EAC JUMP JUMPDEST DUP1 DUP4 MSTORE PUSH1 0x5 PUSH1 0x20 MSTORE PUSH1 0xC PUSH1 0x40 DUP5 KECCAK256 PUSH2 0x4C8 PUSH1 0xFF PUSH1 0x9 DUP4 ADD SLOAD AND PUSH2 0x2F02 JUMP JUMPDEST ADD SWAP1 DUP2 SLOAD DUP4 LT ISZERO PUSH2 0x579 JUMPI PUSH1 0xFF PUSH1 0x2 PUSH2 0x4E1 DUP6 DUP6 PUSH2 0x2E90 JUMP JUMPDEST POP ADD SLOAD AND PUSH2 0x534 JUMPI DUP3 PUSH1 0x2 PUSH2 0x519 PUSH32 0x3D05AC2057427AC2F84502E7EFEFEBF5AE10D9529129C2979CE60FB97D460614 SWAP6 PUSH1 0x40 SWAP6 PUSH2 0x2E90 JUMP JUMPDEST POP ADD DUP1 SLOAD PUSH1 0xFF NOT AND PUSH1 0x1 OR SWAP1 SSTORE DUP3 MLOAD SWAP2 DUP3 MSTORE PUSH1 0x20 DUP3 ADD MSTORE LOG1 DUP1 RETURN JUMPDEST PUSH1 0x40 MLOAD PUSH3 0x461BCD PUSH1 0xE5 SHL DUP2 MSTORE PUSH1 0x20 PUSH1 0x4 DUP3 ADD MSTORE PUSH1 0x1F PUSH1 0x24 DUP3 ADD MSTORE PUSH32 0x496E7374616C6C6D656E7420616C7265616479206D61726B6564207061696400 PUSH1 0x44 DUP3 ADD MSTORE PUSH1 0x64 SWAP1 REVERT JUMPDEST PUSH1 0x40 MLOAD PUSH3 0x461BCD PUSH1 0xE5 SHL DUP2 MSTORE PUSH1 0x20 PUSH1 0x4 DUP3 ADD MSTORE PUSH1 0x19 PUSH1 0x24 DUP3 ADD MSTORE PUSH32 0x496E76616C696420696E7374616C6C6D656E7420696E64657800000000000000 PUSH1 0x44 DUP3 ADD MSTORE PUSH1 0x64 SWAP1 REVERT JUMPDEST POP CALLVALUE PUSH2 0x21C JUMPI PUSH1 0x20 CALLDATASIZE PUSH1 0x3 NOT ADD SLT PUSH2 0x21C JUMPI PUSH1 0x40 PUSH2 0x1C0 SWAP2 PUSH1 0x4 CALLDATALOAD DUP2 MSTORE PUSH1 0x5 PUSH1 0x20 MSTORE KECCAK256 DUP1 SLOAD SWAP1 PUSH1 0x1 DUP1 PUSH1 0xA0 SHL SUB PUSH1 0x1 DUP3 ADD SLOAD AND SWAP1 PUSH1 0x2 DUP2 ADD SLOAD PUSH1 0x3 DUP3 ADD SLOAD PUSH1 0x4 DUP4 ADD SLOAD PUSH1 0x5 DUP5 ADD SLOAD PUSH1 0x6 DUP6 ADD SLOAD PUSH1 0x7 DUP7 ADD SLOAD SWAP1 PUSH1 0x8 DUP8 ADD SLOAD SWAP3 PUSH1 0xFF PUSH1 0x9 DUP10 ADD SLOAD AND SWAP5 PUSH1 0xA DUP10 ADD SLOAD SWAP7 PUSH1 0xD DUP11 ADD SLOAD SWAP9 PUSH1 0xFF PUSH1 0xF PUSH1 0xE DUP14 ADD SLOAD SWAP13 ADD SLOAD AND SWAP12 PUSH1 0x20 PUSH1 0x40 MLOAD SWAP15 DUP16 SWAP1 DUP2 MSTORE ADD MSTORE PUSH1 0x40 DUP14 ADD MSTORE PUSH1 0x60 DUP13 ADD MSTORE PUSH1 0x80 DUP12 ADD MSTORE PUSH1 0xA0 DUP11 ADD MSTORE PUSH1 0xC0 DUP10 ADD MSTORE PUSH1 0xE0 DUP9 ADD MSTORE PUSH2 0x100 DUP8 ADD MSTORE ISZERO ISZERO PUSH2 0x120 DUP7 ADD MSTORE PUSH2 0x140 DUP6 ADD MSTORE PUSH2 0x160 DUP5 ADD MSTORE PUSH2 0x180 DUP4 ADD MSTORE ISZERO ISZERO PUSH2 0x1A0 DUP3 ADD MSTORE RETURN JUMPDEST POP CALLVALUE PUSH2 0x21C JUMPI DUP1 PUSH1 0x3 NOT CALLDATASIZE ADD SLT PUSH2 0x21C JUMPI PUSH1 0x1 SLOAD PUSH1 0x40 MLOAD PUSH1 0x1 PUSH1 0x1 PUSH1 0xA0 SHL SUB SWAP1 SWAP2 AND DUP2 MSTORE PUSH1 0x20 SWAP1 RETURN JUMPDEST POP CALLVALUE PUSH2 0x21C JUMPI PUSH1 0x20 CALLDATASIZE PUSH1 0x3 NOT ADD SLT PUSH2 0x21C JUMPI PUSH1 0x4 CALLDATALOAD PUSH1 0x1 PUSH1 0x1 PUSH1 0xA0 SHL SUB DUP1 DUP3 AND DUP3 SUB PUSH2 0x3C5 JUMPI PUSH2 0x6EC DUP2 PUSH1 0x8 SLOAD AND CALLER EQ PUSH2 0x2EAC JUMP JUMPDEST PUSH1 0xF SLOAD DUP1 ISZERO PUSH2 0x75B JUMPI PUSH1 0xF DUP5 SWAP1 SSTORE PUSH1 0x9 SLOAD PUSH1 0x40 MLOAD PUSH4 0xA9059CBB PUSH1 0xE0 SHL DUP2 MSTORE PUSH1 0x1 PUSH1 0x1 PUSH1 0xA0 SHL SUB SWAP5 SWAP1 SWAP5 AND PUSH1 0x4 DUP6 ADD MSTORE PUSH1 0x24 DUP5 ADD SWAP2 SWAP1 SWAP2 MSTORE PUSH1 0x20 SWAP2 DUP4 SWAP2 PUSH1 0x44 SWAP2 DUP4 SWAP2 DUP8 SWAP2 AND GAS CALL DUP1 ISZERO PUSH2 0x3BA JUMPI PUSH2 0x740 JUMPI POP DUP1 RETURN JUMPDEST PUSH2 0x757 SWAP1 PUSH1 0x20 RETURNDATASIZE DUP2 GT PUSH2 0x3EF JUMPI PUSH2 0x3E0 DUP2 DUP4 PUSH2 0x2B1F JUMP JUMPDEST POP DUP1 RETURN JUMPDEST PUSH1 0x40 MLOAD PUSH3 0x461BCD PUSH1 0xE5 SHL DUP2 MSTORE PUSH1 0x20 PUSH1 0x4 DUP3 ADD MSTORE PUSH1 0x13 PUSH1 0x24 DUP3 ADD MSTORE PUSH19 0x4E6F206665657320746F207769746864726177 PUSH1 0x68 SHL PUSH1 0x44 DUP3 ADD MSTORE PUSH1 0x64 SWAP1 REVERT JUMPDEST POP CALLVALUE PUSH2 0x21C JUMPI PUSH1 0x20 CALLDATASIZE PUSH1 0x3 NOT ADD SLT PUSH2 0x21C JUMPI PUSH1 0x4 CALLDATALOAD PUSH2 0x7C0 PUSH1 0x1 DUP1 PUSH1 0xA0 SHL SUB PUSH1 0x8 SLOAD AND CALLER EQ PUSH2 0x2EAC JUMP JUMPDEST PUSH2 0x7CE PUSH2 0x2710 DUP3 GT ISZERO PUSH2 0x38E7 JUMP JUMPDEST PUSH1 0xE SSTORE DUP1 RETURN JUMPDEST POP CALLVALUE PUSH2 0x21C JUMPI PUSH1 0x40 CALLDATASIZE PUSH1 0x3 NOT ADD SLT PUSH2 0x21C JUMPI PUSH2 0x838 PUSH2 0x7F1 PUSH2 0x2A61 JUMP JUMPDEST PUSH2 0x806 PUSH1 0x1 DUP1 PUSH1 0xA0 SHL SUB PUSH1 0x8 SLOAD AND CALLER EQ PUSH2 0x2EAC JUMP JUMPDEST PUSH1 0x4 CALLDATALOAD DUP4 MSTORE PUSH1 0x5 PUSH1 0x20 MSTORE PUSH1 0xF PUSH1 0x40 DUP5 KECCAK256 PUSH2 0x826 PUSH1 0xFF PUSH1 0x9 DUP4 ADD SLOAD AND PUSH2 0x2F02 JUMP JUMPDEST ADD SWAP1 PUSH1 0xFF DUP1 NOT DUP4 SLOAD AND SWAP2 ISZERO ISZERO AND OR SWAP1 SSTORE JUMP JUMPDEST DUP1 RETURN JUMPDEST POP CALLVALUE PUSH2 0x21C JUMPI PUSH1 0x20 CALLDATASIZE PUSH1 0x3 NOT ADD SLT PUSH2 0x21C JUMPI PUSH1 0x4 CALLDATALOAD PUSH1 0x1 PUSH1 0x1 PUSH1 0xA0 SHL SUB DUP2 AND SWAP1 DUP2 SWAP1 SUB PUSH2 0x878 JUMPI DUP2 PUSH1 0x40 SWAP2 PUSH1 0x20 SWAP4 MSTORE PUSH1 0xA DUP4 MSTORE KECCAK256 SLOAD PUSH1 0x40 MLOAD SWAP1 DUP2 MSTORE RETURN JUMPDEST POP DUP1 REVERT JUMPDEST POP CALLVALUE PUSH2 0x21C JUMPI DUP1 PUSH1 0x3 NOT CALLDATASIZE ADD SLT PUSH2 0x21C JUMPI SLOAD PUSH1 0x40 MLOAD PUSH1 0x1 PUSH1 0x1 PUSH1 0xA0 SHL SUB SWAP1 SWAP2 AND DUP2 MSTORE PUSH1 0x20 SWAP1 RETURN JUMPDEST POP CALLVALUE PUSH2 0x21C JUMPI DUP1 PUSH1 0x3 NOT CALLDATASIZE ADD SLT PUSH2 0x21C JUMPI PUSH1 0x20 PUSH2 0x8BE PUSH2 0x2B8D JUMP JUMPDEST PUSH1 0x40 MLOAD SWAP1 DUP2 MSTORE RETURN JUMPDEST POP CALLVALUE PUSH2 0x21C JUMPI DUP1 PUSH1 0x3 NOT CALLDATASIZE ADD SLT PUSH2 0x21C JUMPI PUSH1 0x8 SLOAD PUSH1 0x40 MLOAD PUSH1 0x1 PUSH1 0x1 PUSH1 0xA0 SHL SUB SWAP1 SWAP2 AND DUP2 MSTORE PUSH1 0x20 SWAP1 RETURN JUMPDEST POP CALLVALUE PUSH2 0x21C JUMPI PUSH1 0x20 CALLDATASIZE PUSH1 0x3 NOT ADD SLT PUSH2 0x21C JUMPI PUSH1 0x4 CALLDATALOAD DUP2 MSTORE PUSH1 0x5 PUSH1 0x20 MSTORE PUSH1 0xB PUSH1 0x40 DUP3 KECCAK256 ADD SWAP1 DUP2 SLOAD SWAP1 PUSH2 0x91F DUP3 PUSH2 0x2CC4 JUMP JUMPDEST SWAP2 PUSH2 0x929 DUP2 PUSH2 0x2CC4 JUMP JUMPDEST PUSH2 0x932 DUP3 PUSH2 0x2CC4 JUMP JUMPDEST SWAP1 PUSH2 0x93C DUP4 PUSH2 0x2CC4 JUMP JUMPDEST SWAP3 PUSH2 0x946 DUP2 PUSH2 0x2CC4 JUMP JUMPDEST SWAP5 JUMPDEST DUP2 DUP2 LT PUSH2 0x9B3 JUMPI PUSH2 0x977 DUP8 PUSH2 0x9AF DUP9 PUSH2 0x9A1 DUP10 PUSH2 0x993 DUP11 PUSH2 0x985 DUP12 PUSH1 0x40 MLOAD SWAP10 DUP11 SWAP10 PUSH1 0xA0 DUP12 MSTORE PUSH1 0xA0 DUP12 ADD SWAP1 PUSH2 0x2A24 JUMP JUMPDEST SWAP1 DUP10 DUP3 SUB PUSH1 0x20 DUP12 ADD MSTORE PUSH2 0x29F0 JUMP JUMPDEST SWAP1 DUP8 DUP3 SUB PUSH1 0x40 DUP10 ADD MSTORE PUSH2 0x29F0 JUMP JUMPDEST SWAP1 DUP6 DUP3 SUB PUSH1 0x60 DUP8 ADD MSTORE PUSH2 0x29F0 JUMP JUMPDEST SWAP1 DUP4 DUP3 SUB PUSH1 0x80 DUP6 ADD MSTORE PUSH2 0x29F0 JUMP JUMPDEST SUB SWAP1 RETURN JUMPDEST DUP1 PUSH1 0x4 PUSH2 0x9C3 PUSH2 0xA1C SWAP4 DUP12 PUSH2 0x386C JUMP JUMPDEST POP DUP1 SLOAD PUSH1 0x1 PUSH1 0x1 PUSH1 0xA0 SHL SUB AND PUSH2 0x9D9 DUP5 DUP13 PUSH2 0x2D13 JUMP JUMPDEST MSTORE PUSH1 0x1 DUP2 ADD SLOAD PUSH2 0x9E9 DUP5 DUP9 PUSH2 0x2D13 JUMP JUMPDEST MSTORE PUSH1 0x2 DUP2 ADD SLOAD PUSH2 0x9F9 DUP5 DUP10 PUSH2 0x2D13 JUMP JUMPDEST MSTORE PUSH1 0x3 DUP2 ADD SLOAD PUSH2 0xA09 DUP5 DUP11 PUSH2 0x2D13 JUMP JUMPDEST MSTORE ADD SLOAD PUSH2 0xA16 DUP3 DUP10 PUSH2 0x2D13 JUMP JUMPDEST MSTORE PUSH2 0x2E81 JUMP JUMPDEST PUSH2 0x948 JUMP JUMPDEST POP CALLVALUE PUSH2 0x21C JUMPI PUSH1 0x20 CALLDATASIZE PUSH1 0x3 NOT ADD SLT PUSH2 0x21C JUMPI PUSH1 0x4 CALLDATALOAD PUSH1 0x1 PUSH1 0x1 PUSH1 0xA0 SHL SUB DUP2 DUP2 AND SWAP2 DUP3 SWAP1 SUB PUSH2 0x3C5 JUMPI PUSH2 0xA58 SWAP1 PUSH1 0x8 SLOAD AND CALLER EQ PUSH2 0x2EAC JUMP JUMPDEST PUSH1 0x1 PUSH1 0x1 PUSH1 0x60 SHL SUB PUSH1 0xA0 SHL PUSH1 0x2 SLOAD AND OR PUSH1 0x2 SSTORE DUP1 RETURN JUMPDEST POP CALLVALUE PUSH2 0x21C JUMPI PUSH2 0xA7D CALLDATASIZE PUSH2 0x29DA JUMP JUMPDEST SWAP1 DUP1 DUP4 MSTORE PUSH1 0x5 PUSH1 0x20 MSTORE PUSH1 0x40 DUP4 KECCAK256 SWAP3 PUSH2 0xA9B PUSH1 0xFF PUSH1 0x9 DUP7 ADD SLOAD AND PUSH2 0x2F02 JUMP JUMPDEST PUSH1 0x1 DUP5 ADD SLOAD PUSH1 0x1 PUSH1 0x1 PUSH1 0xA0 SHL SUB AND CALLER SUB PUSH2 0xF00 JUMPI PUSH1 0x9 SLOAD PUSH1 0x40 MLOAD PUSH4 0x23B872DD PUSH1 0xE0 SHL DUP2 MSTORE CALLER PUSH1 0x4 DUP3 ADD MSTORE ADDRESS PUSH1 0x24 DUP3 ADD MSTORE PUSH1 0x44 DUP2 ADD DUP6 SWAP1 MSTORE SWAP1 PUSH1 0x20 SWAP1 DUP3 SWAP1 PUSH1 0x64 SWAP1 DUP3 SWAP1 DUP7 SWAP1 PUSH1 0x1 PUSH1 0x1 PUSH1 0xA0 SHL SUB AND GAS CALL DUP1 ISZERO PUSH2 0x3BA JUMPI PUSH2 0xEE1 JUMPI JUMPDEST POP DUP3 SWAP4 DUP2 DUP1 JUMPDEST PUSH1 0xC DUP4 ADD SLOAD DUP2 LT DUP1 PUSH2 0xED8 JUMPI JUMPDEST ISZERO PUSH2 0xBFD JUMPI PUSH2 0xB1A DUP2 PUSH1 0xC DUP6 ADD PUSH2 0x2E90 JUMP JUMPDEST POP DUP1 SLOAD DUP1 ISZERO PUSH2 0xBB8 JUMPI PUSH1 0x2 DUP3 ADD SWAP1 DUP2 SLOAD SWAP3 PUSH1 0xFF DUP5 AND PUSH2 0xB4A JUMPI PUSH1 0x1 PUSH2 0xB41 SWAP2 ADD SLOAD DUP3 PUSH2 0x2C52 JUMP JUMPDEST DUP1 DUP12 LT ISZERO PUSH2 0xB5C JUMPI JUMPDEST POP POP POP POP PUSH2 0xB57 SWAP1 PUSH2 0x2E81 JUMP JUMPDEST PUSH2 0xAFB JUMP JUMPDEST PUSH1 0x1 SWAP2 PUSH2 0xB72 PUSH2 0xB78 SWAP3 PUSH2 0xB57 SWAP8 SWAP7 SWAP11 SWAP14 PUSH2 0x2C9F JUMP JUMPDEST SWAP12 PUSH2 0x2C52 JUMP JUMPDEST SWAP7 PUSH1 0xFF NOT AND OR SWAP1 SSTORE PUSH32 0x3D05AC2057427AC2F84502E7EFEFEBF5AE10D9529129C2979CE60FB97D460614 PUSH1 0x40 DUP1 MLOAD DUP9 DUP2 MSTORE DUP4 PUSH1 0x20 DUP3 ADD MSTORE LOG1 SWAP1 CODESIZE DUP1 DUP1 PUSH2 0xB4A JUMP JUMPDEST PUSH1 0x40 MLOAD PUSH3 0x461BCD PUSH1 0xE5 SHL DUP2 MSTORE PUSH1 0x20 PUSH1 0x4 DUP3 ADD MSTORE PUSH1 0x18 PUSH1 0x24 DUP3 ADD MSTORE PUSH32 0x496E7374616C6C6D656E7420616C726561647920706169640000000000000000 PUSH1 0x44 DUP3 ADD MSTORE PUSH1 0x64 SWAP1 REVERT JUMPDEST POP SWAP2 DUP4 DUP7 DUP7 PUSH2 0xC0C DUP3 DUP3 PUSH2 0x2C9F JUMP JUMPDEST DUP1 PUSH2 0xD98 JUMPI JUMPDEST POP SWAP1 PUSH2 0xC4C DUP2 DUP5 SWAP4 PUSH2 0xC47 PUSH32 0xDC376ABD09229A842AC7D8BCADC9017651F1F1B8490750870CAE0ECD4AEDF674 SWAP8 PUSH1 0x80 SWAP8 PUSH2 0x2F43 JUMP JUMPDEST PUSH2 0x2C9F JUMP JUMPDEST PUSH1 0x40 MLOAD SWAP3 DUP4 MSTORE CALLER PUSH1 0x20 DUP5 ADD MSTORE PUSH1 0x40 DUP4 ADD MSTORE ISZERO PUSH1 0x60 DUP3 ADD MSTORE LOG1 PUSH1 0x1 DUP3 DUP4 PUSH1 0xC DUP5 ADD SLOAD SWAP1 JUMPDEST DUP2 DUP2 LT PUSH2 0xD2A JUMPI JUMPDEST POP POP DUP2 PUSH2 0xD20 JUMPI JUMPDEST POP PUSH2 0xC88 JUMPI POP DUP1 RETURN JUMPDEST PUSH2 0xC9C PUSH1 0x2 PUSH2 0x2710 SWAP3 ADD SLOAD PUSH1 0xD SLOAD SWAP1 PUSH2 0x2BF1 JUMP JUMPDEST DIV DUP1 PUSH2 0xCA6 JUMPI POP DUP1 RETURN JUMPDEST PUSH1 0x9 SLOAD PUSH1 0x40 MLOAD PUSH4 0x23B872DD PUSH1 0xE0 SHL DUP2 MSTORE CALLER PUSH1 0x4 DUP3 ADD MSTORE ADDRESS PUSH1 0x24 DUP3 ADD MSTORE PUSH1 0x44 DUP2 ADD DUP4 SWAP1 MSTORE SWAP2 SWAP1 PUSH1 0x20 SWAP1 DUP4 SWAP1 PUSH1 0x64 SWAP1 DUP3 SWAP1 DUP8 SWAP1 PUSH1 0x1 PUSH1 0x1 PUSH1 0xA0 SHL SUB AND GAS CALL SWAP2 DUP3 ISZERO PUSH2 0x3F6 JUMPI PUSH2 0xCFB SWAP3 PUSH2 0xD01 JUMPI JUMPDEST POP PUSH1 0xF SLOAD PUSH2 0x2C52 JUMP JUMPDEST PUSH1 0xF SSTORE DUP1 RETURN JUMPDEST PUSH2 0xD19 SWAP1 PUSH1 0x20 RETURNDATASIZE PUSH1 0x20 GT PUSH2 0x3EF JUMPI PUSH2 0x3E0 DUP2 DUP4 PUSH2 0x2B1F JUMP JUMPDEST POP DUP4 PUSH2 0xCF2 JUMP JUMPDEST SWAP1 POP TIMESTAMP LT DUP4 PUSH2 0xC7F JUMP JUMPDEST PUSH1 0xFF PUSH1 0x2 PUSH2 0xD3B DUP4 PUSH1 0xC DUP10 ADD PUSH2 0x2E90 JUMP JUMPDEST POP ADD SLOAD AND ISZERO PUSH2 0xD8B JUMPI PUSH2 0xD51 DUP2 PUSH1 0xC DUP8 ADD PUSH2 0x2E90 JUMP JUMPDEST POP DUP4 PUSH1 0x3 DUP1 SWAP3 ADD SLOAD GT PUSH2 0xD6E JUMPI JUMPDEST POP PUSH2 0xD69 SWAP1 PUSH2 0x2E81 JUMP JUMPDEST PUSH2 0xC6F JUMP JUMPDEST DUP2 SWAP4 POP PUSH2 0xD81 PUSH2 0xD69 SWAP3 PUSH1 0xC DUP9 ADD PUSH2 0x2E90 JUMP JUMPDEST POP ADD SLOAD SWAP3 SWAP1 PUSH2 0xD5F JUMP JUMPDEST POP POP SWAP1 POP DUP3 SWAP1 DUP5 DUP1 PUSH2 0xC77 JUMP JUMPDEST PUSH1 0x9 SLOAD DUP8 SLOAD PUSH1 0x40 MLOAD PUSH4 0x95EA7B3 PUSH1 0xE0 SHL DUP2 MSTORE PUSH1 0x1 PUSH1 0x1 PUSH1 0xA0 SHL SUB SWAP2 DUP3 AND PUSH1 0x4 DUP3 ADD MSTORE PUSH1 0x24 DUP2 ADD DUP5 SWAP1 MSTORE SWAP2 PUSH1 0x20 SWAP2 DUP4 SWAP2 PUSH1 0x44 SWAP2 DUP4 SWAP2 DUP14 SWAP2 AND GAS CALL DUP1 ISZERO PUSH2 0xECD JUMPI PUSH2 0xEAE JUMPI JUMPDEST POP DUP7 SLOAD PUSH1 0x9 SLOAD DUP9 SWAP2 PUSH1 0x1 PUSH1 0x1 PUSH1 0xA0 SHL SUB SWAP2 DUP3 AND SWAP2 AND DUP1 EXTCODESIZE ISZERO PUSH2 0x3C5 JUMPI PUSH1 0x40 MLOAD PUSH4 0x617BA037 PUSH1 0xE0 SHL DUP2 MSTORE PUSH1 0x1 PUSH1 0x1 PUSH1 0xA0 SHL SUB SWAP3 SWAP1 SWAP3 AND PUSH1 0x4 DUP4 ADD MSTORE PUSH1 0x24 DUP3 ADD DUP5 SWAP1 MSTORE ADDRESS PUSH1 0x44 DUP4 ADD MSTORE PUSH1 0x0 PUSH1 0x64 DUP4 ADD MSTORE DUP3 SWAP1 DUP3 SWAP1 PUSH1 0x84 SWAP1 DUP3 SWAP1 DUP5 SWAP1 GAS CALL DUP1 ISZERO PUSH2 0x3BA JUMPI PUSH2 0xE8E JUMPI JUMPDEST POP POP DUP3 PUSH1 0x80 SWAP5 SWAP4 SWAP3 PUSH2 0xC47 PUSH32 0xDC376ABD09229A842AC7D8BCADC9017651F1F1B8490750870CAE0ECD4AEDF674 SWAP8 PUSH2 0xE7E PUSH2 0xC4C SWAP6 PUSH1 0xB SLOAD PUSH2 0x2C52 JUMP JUMPDEST PUSH1 0xB SSTORE SWAP8 POP POP SWAP3 POP SWAP3 SWAP4 POP PUSH2 0xC12 JUMP JUMPDEST PUSH2 0xE9B SWAP1 SWAP6 SWAP5 SWAP4 SWAP6 PUSH2 0x2AEF JUMP JUMPDEST PUSH2 0xEAA JUMPI DUP7 DUP9 SWAP5 SWAP3 SWAP4 SWAP5 PUSH2 0xE42 JUMP JUMPDEST DUP7 DUP1 REVERT JUMPDEST PUSH2 0xEC6 SWAP1 PUSH1 0x20 RETURNDATASIZE PUSH1 0x20 GT PUSH2 0x3EF JUMPI PUSH2 0x3E0 DUP2 DUP4 PUSH2 0x2B1F JUMP JUMPDEST POP DUP8 PUSH2 0xDDC JUMP JUMPDEST PUSH1 0x40 MLOAD RETURNDATASIZE DUP11 DUP3 RETURNDATACOPY RETURNDATASIZE SWAP1 REVERT JUMPDEST POP DUP7 ISZERO ISZERO PUSH2 0xB08 JUMP JUMPDEST PUSH2 0xEF9 SWAP1 PUSH1 0x20 RETURNDATASIZE PUSH1 0x20 GT PUSH2 0x3EF JUMPI PUSH2 0x3E0 DUP2 DUP4 PUSH2 0x2B1F JUMP JUMPDEST POP CODESIZE PUSH2 0xAF5 JUMP JUMPDEST PUSH1 0x40 MLOAD PUSH3 0x461BCD PUSH1 0xE5 SHL DUP2 MSTORE PUSH1 0x20 PUSH1 0x4 DUP3 ADD MSTORE PUSH1 0x17 PUSH1 0x24 DUP3 ADD MSTORE PUSH32 0x4F6E6C7920626F72726F7765722063616E207265706179000000000000000000 PUSH1 0x44 DUP3 ADD MSTORE PUSH1 0x64 SWAP1 REVERT JUMPDEST POP CALLVALUE PUSH2 0x21C JUMPI PUSH1 0x20 CALLDATASIZE PUSH1 0x3 NOT ADD SLT PUSH2 0x21C JUMPI PUSH1 0x4 CALLDATALOAD PUSH2 0xF6F PUSH1 0x1 DUP1 PUSH1 0xA0 SHL SUB PUSH1 0x8 SLOAD AND CALLER EQ PUSH2 0x2EAC JUMP JUMPDEST PUSH2 0xF7D PUSH2 0x2710 DUP3 GT ISZERO PUSH2 0x38E7 JUMP JUMPDEST PUSH1 0xC SSTORE DUP1 RETURN JUMPDEST POP CALLVALUE PUSH2 0x21C JUMPI PUSH2 0xF92 CALLDATASIZE PUSH2 0x29DA JUMP JUMPDEST DUP2 ISZERO PUSH2 0x1055 JUMPI DUP2 DUP2 GT PUSH2 0xFFC JUMPI PUSH2 0x2710 SWAP1 DUP2 DUP2 MUL SWAP2 DUP2 DUP4 DIV EQ SWAP1 ISZERO OR ISZERO PUSH2 0xFE8 JUMPI PUSH2 0xFBD SWAP3 POP PUSH2 0x2C1A JUMP JUMPDEST PUSH2 0x7D0 DUP2 LT ISZERO SWAP1 DUP2 PUSH2 0xFDB JUMPI JUMPDEST PUSH1 0x40 DUP1 MLOAD SWAP2 DUP3 MSTORE SWAP2 ISZERO ISZERO PUSH1 0x20 DUP3 ADD MSTORE RETURN JUMPDEST PUSH2 0x1388 DUP2 GT ISZERO SWAP2 POP PUSH2 0xFCA JUMP JUMPDEST PUSH4 0x4E487B71 PUSH1 0xE0 SHL DUP4 MSTORE PUSH1 0x11 PUSH1 0x4 MSTORE PUSH1 0x24 DUP4 REVERT JUMPDEST PUSH1 0x40 MLOAD PUSH3 0x461BCD PUSH1 0xE5 SHL DUP2 MSTORE PUSH1 0x20 PUSH1 0x4 DUP3 ADD MSTORE PUSH1 0x2B PUSH1 0x24 DUP3 ADD MSTORE PUSH32 0x426F72726F776572206465706F7369742063616E6E6F74206578636565642074 PUSH1 0x44 DUP3 ADD MSTORE PUSH11 0x1BDD185B08185B5BDD5B9D PUSH1 0xAA SHL PUSH1 0x64 DUP3 ADD MSTORE PUSH1 0x84 SWAP1 REVERT JUMPDEST PUSH1 0x40 MLOAD PUSH3 0x461BCD PUSH1 0xE5 SHL DUP2 MSTORE PUSH1 0x20 PUSH1 0x4 DUP3 ADD MSTORE PUSH1 0x23 PUSH1 0x24 DUP3 ADD MSTORE PUSH32 0x546F74616C20616D6F756E74206D757374206265206772656174657220746861 PUSH1 0x44 DUP3 ADD MSTORE PUSH3 0x6E203 PUSH1 0xEC SHL PUSH1 0x64 DUP3 ADD MSTORE PUSH1 0x84 SWAP1 REVERT JUMPDEST POP CALLVALUE PUSH2 0x21C JUMPI PUSH1 0x20 CALLDATASIZE PUSH1 0x3 NOT ADD SLT PUSH2 0x21C JUMPI PUSH1 0x4 CALLDATALOAD PUSH1 0x1 PUSH1 0x1 PUSH1 0xA0 SHL SUB DUP2 DUP2 AND SWAP2 DUP3 SWAP1 SUB PUSH2 0x3C5 JUMPI PUSH2 0x10DD SWAP1 PUSH1 0x8 SLOAD AND CALLER EQ PUSH2 0x2EAC JUMP JUMPDEST PUSH1 0x1 PUSH1 0x1 PUSH1 0x60 SHL SUB PUSH1 0xA0 SHL PUSH1 0x3 SLOAD AND OR PUSH1 0x3 SSTORE DUP1 RETURN JUMPDEST POP CALLVALUE PUSH2 0x21C JUMPI PUSH1 0x20 SWAP1 DUP2 PUSH1 0x3 NOT CALLDATASIZE ADD SLT PUSH2 0x21C JUMPI SWAP1 PUSH1 0x4 CALLDATALOAD DUP3 MSTORE PUSH1 0x5 DUP2 MSTORE PUSH1 0xC PUSH1 0x40 DUP4 KECCAK256 ADD DUP1 SLOAD PUSH2 0x1123 DUP2 PUSH2 0x2CAC JUMP JUMPDEST SWAP1 PUSH2 0x1131 PUSH1 0x40 MLOAD SWAP3 DUP4 PUSH2 0x2B1F JUMP JUMPDEST DUP1 DUP3 MSTORE DUP4 DUP3 ADD DUP1 SWAP4 DUP7 MSTORE DUP5 DUP7 KECCAK256 DUP7 SWAP2 JUMPDEST DUP4 DUP4 LT PUSH2 0x11A5 JUMPI POP POP POP POP PUSH1 0x40 MLOAD SWAP3 DUP1 DUP5 ADD SWAP2 DUP2 DUP6 MSTORE MLOAD DUP1 SWAP3 MSTORE PUSH1 0x40 DUP5 ADD SWAP3 SWAP5 JUMPDEST DUP3 DUP2 LT PUSH2 0x116F JUMPI DUP5 DUP5 SUB DUP6 RETURN JUMPDEST DUP6 MLOAD DUP1 MLOAD DUP6 MSTORE DUP1 DUP4 ADD MLOAD DUP6 DUP5 ADD MSTORE PUSH1 0x40 DUP1 DUP3 ADD MLOAD ISZERO ISZERO SWAP1 DUP7 ADD MSTORE PUSH1 0x60 SWAP1 DUP2 ADD MLOAD SWAP1 DUP6 ADD MSTORE SWAP5 DUP2 ADD SWAP5 PUSH1 0x80 SWAP1 SWAP4 ADD SWAP3 PUSH1 0x1 ADD PUSH2 0x1162 JUMP JUMPDEST PUSH1 0x4 DUP8 PUSH1 0x1 SWAP3 PUSH1 0x40 SWAP11 SWAP10 SWAP8 SWAP9 SWAP11 MLOAD PUSH2 0x11BC DUP2 PUSH2 0x2ABD JUMP JUMPDEST DUP6 SLOAD DUP2 MSTORE DUP5 DUP7 ADD SLOAD DUP4 DUP3 ADD MSTORE PUSH1 0xFF PUSH1 0x2 DUP8 ADD SLOAD AND ISZERO ISZERO PUSH1 0x40 DUP3 ADD MSTORE PUSH1 0x3 DUP7 ADD SLOAD PUSH1 0x60 DUP3 ADD MSTORE DUP2 MSTORE ADD SWAP3 ADD SWAP3 ADD SWAP2 SWAP1 SWAP7 SWAP5 SWAP4 SWAP6 SWAP7 PUSH2 0x1141 JUMP JUMPDEST POP CALLVALUE PUSH2 0x21C JUMPI DUP1 PUSH1 0x3 NOT CALLDATASIZE ADD SLT PUSH2 0x21C JUMPI PUSH1 0x20 PUSH1 0xE SLOAD PUSH1 0x40 MLOAD SWAP1 DUP2 MSTORE RETURN JUMPDEST POP CALLVALUE PUSH2 0x21C JUMPI PUSH1 0x20 CALLDATASIZE PUSH1 0x3 NOT ADD SLT PUSH2 0x21C JUMPI PUSH1 0x4 CALLDATALOAD PUSH1 0x14 DUP2 MUL SWAP2 DUP2 DUP4 DIV PUSH1 0x14 EQ DUP3 ISZERO OR ISZERO PUSH2 0x1257 JUMPI POP PUSH2 0x124B PUSH1 0x64 PUSH1 0x40 SWAP4 DIV DUP1 SWAP3 PUSH2 0x2C9F JUMP JUMPDEST DUP3 MLOAD SWAP2 DUP3 MSTORE PUSH1 0x20 DUP3 ADD MSTORE RETURN JUMPDEST PUSH4 0x4E487B71 PUSH1 0xE0 SHL DUP2 MSTORE PUSH1 0x11 PUSH1 0x4 MSTORE PUSH1 0x24 SWAP1 REVERT JUMPDEST POP CALLVALUE PUSH2 0x21C JUMPI DUP1 PUSH1 0x3 NOT CALLDATASIZE ADD SLT PUSH2 0x21C JUMPI PUSH1 0x20 PUSH1 0xF SLOAD PUSH1 0x40 MLOAD SWAP1 DUP2 MSTORE RETURN JUMPDEST POP CALLVALUE PUSH2 0x21C JUMPI PUSH1 0x40 PUSH2 0x124B PUSH2 0x129D CALLDATASIZE PUSH2 0x29DA JUMP JUMPDEST SWAP1 PUSH2 0x3888 JUMP JUMPDEST POP CALLVALUE PUSH2 0x21C JUMPI DUP1 PUSH1 0x3 NOT CALLDATASIZE ADD SLT PUSH2 0x21C JUMPI PUSH1 0x20 PUSH1 0xB SLOAD PUSH1 0x40 MLOAD SWAP1 DUP2 MSTORE RETURN JUMPDEST POP CALLVALUE PUSH2 0x21C JUMPI PUSH1 0x20 CALLDATASIZE PUSH1 0x3 NOT ADD SLT PUSH2 0x21C JUMPI PUSH1 0x4 CALLDATALOAD PUSH1 0x1 PUSH1 0x1 PUSH1 0xA0 SHL SUB DUP2 DUP2 AND SWAP2 DUP3 SWAP1 SUB PUSH2 0x3C5 JUMPI PUSH2 0x12F8 SWAP1 PUSH1 0x8 SLOAD AND CALLER EQ PUSH2 0x2EAC JUMP JUMPDEST PUSH1 0x1 PUSH1 0x1 PUSH1 0x60 SHL SUB PUSH1 0xA0 SHL PUSH1 0x1 SLOAD AND OR PUSH1 0x1 SSTORE DUP1 RETURN JUMPDEST POP CALLVALUE PUSH2 0x21C JUMPI PUSH1 0x20 CALLDATASIZE PUSH1 0x3 NOT ADD SLT PUSH2 0x21C JUMPI PUSH1 0x4 CALLDATALOAD PUSH1 0x1 PUSH1 0x1 PUSH1 0xA0 SHL SUB DUP2 DUP2 AND SWAP2 DUP3 SWAP1 SUB PUSH2 0x3C5 JUMPI PUSH2 0x1345 SWAP1 PUSH1 0x8 SLOAD AND CALLER EQ PUSH2 0x2EAC JUMP JUMPDEST DUP2 SLOAD PUSH1 0x1 PUSH1 0x1 PUSH1 0xA0 SHL SUB NOT AND OR DUP2 SSTORE DUP1 RETURN JUMPDEST POP CALLVALUE PUSH2 0x21C JUMPI PUSH1 0x20 CALLDATASIZE PUSH1 0x3 NOT ADD SLT PUSH2 0x21C JUMPI PUSH1 0xD PUSH1 0x40 PUSH1 0x20 SWAP3 PUSH1 0x4 CALLDATALOAD DUP2 MSTORE PUSH1 0x5 DUP5 MSTORE KECCAK256 ADD SLOAD PUSH1 0x40 MLOAD SWAP1 DUP2 MSTORE RETURN JUMPDEST POP CALLVALUE PUSH2 0x21C JUMPI DUP1 PUSH1 0x3 NOT CALLDATASIZE ADD SLT PUSH2 0x21C JUMPI PUSH1 0x20 PUSH1 0xC SLOAD PUSH1 0x40 MLOAD SWAP1 DUP2 MSTORE RETURN JUMPDEST POP CALLVALUE PUSH2 0x21C JUMPI PUSH1 0x20 DUP1 PUSH1 0x3 NOT CALLDATASIZE ADD SLT PUSH2 0x878 JUMPI PUSH1 0x4 CALLDATALOAD PUSH2 0x13C3 DUP2 ISZERO ISZERO PUSH2 0x3922 JUMP JUMPDEST CALLER DUP4 MSTORE PUSH1 0xA DUP3 MSTORE DUP1 PUSH1 0x40 DUP5 KECCAK256 SLOAD LT PUSH2 0x1506 JUMPI DUP3 DUP1 SWAP2 CALLER DUP3 MSTORE PUSH1 0xA DUP5 MSTORE PUSH1 0x40 DUP3 KECCAK256 PUSH2 0x13EE DUP3 DUP3 SLOAD PUSH2 0x2C9F JUMP JUMPDEST SWAP1 SSTORE PUSH2 0x13FC DUP2 PUSH1 0xB SLOAD PUSH2 0x2C9F JUMP JUMPDEST PUSH1 0xB SSTORE DUP2 SLOAD PUSH1 0x9 SLOAD PUSH1 0x40 MLOAD PUSH4 0x1A4CA37B PUSH1 0xE2 SHL DUP2 MSTORE PUSH1 0x1 PUSH1 0x1 PUSH1 0xA0 SHL SUB SWAP2 DUP3 AND PUSH1 0x4 DUP3 ADD MSTORE PUSH1 0x24 DUP2 ADD DUP5 SWAP1 MSTORE ADDRESS PUSH1 0x44 DUP3 ADD MSTORE SWAP4 SWAP1 SWAP2 DUP7 SWAP2 DUP6 SWAP2 PUSH1 0x64 SWAP2 DUP4 SWAP2 DUP7 AND GAS CALL DUP1 ISZERO PUSH2 0x14FB JUMPI DUP6 SWAP4 DUP6 SWAP2 PUSH2 0x14BF JUMPI JUMPDEST POP SWAP1 PUSH2 0x145E DUP4 PUSH2 0x1490 SWAP5 SWAP4 EQ PUSH2 0x2C5F JUMP JUMPDEST PUSH1 0x9 SLOAD PUSH1 0x40 MLOAD PUSH4 0xA9059CBB PUSH1 0xE0 SHL DUP2 MSTORE CALLER PUSH1 0x4 DUP3 ADD MSTORE PUSH1 0x24 DUP2 ADD SWAP4 SWAP1 SWAP4 MSTORE SWAP2 SWAP5 DUP6 SWAP4 SWAP2 SWAP1 SWAP3 AND SWAP2 DUP4 SWAP2 DUP3 SWAP1 PUSH1 0x44 DUP3 ADD SWAP1 JUMP JUMPDEST SUB SWAP3 GAS CALL DUP1 ISZERO PUSH2 0x3F6 JUMPI PUSH2 0x14A2 JUMPI DUP3 DUP1 RETURN JUMPDEST DUP2 PUSH2 0x14B8 SWAP3 SWAP1 RETURNDATASIZE LT PUSH2 0x3EF JUMPI PUSH2 0x3E0 DUP2 DUP4 PUSH2 0x2B1F JUMP JUMPDEST POP CODESIZE DUP1 DUP3 DUP1 RETURN JUMPDEST SWAP3 SWAP5 POP POP SWAP2 DUP2 DUP2 RETURNDATASIZE DUP4 GT PUSH2 0x14F4 JUMPI JUMPDEST PUSH2 0x14D8 DUP2 DUP4 PUSH2 0x2B1F JUMP JUMPDEST DUP2 ADD SUB SLT PUSH2 0x14EF JUMPI MLOAD DUP5 SWAP3 DUP5 SWAP3 SWAP1 SWAP2 PUSH2 0x145E PUSH2 0x144D JUMP JUMPDEST PUSH1 0x0 DUP1 REVERT JUMPDEST POP RETURNDATASIZE PUSH2 0x14CE JUMP JUMPDEST PUSH1 0x40 MLOAD RETURNDATASIZE DUP7 DUP3 RETURNDATACOPY RETURNDATASIZE SWAP1 REVERT JUMPDEST PUSH1 0x40 MLOAD PUSH3 0x461BCD PUSH1 0xE5 SHL DUP2 MSTORE PUSH1 0x4 DUP2 ADD DUP4 SWAP1 MSTORE PUSH1 0x19 PUSH1 0x24 DUP3 ADD MSTORE PUSH32 0x496E73756666696369656E7420706F6F6C2062616C616E636500000000000000 PUSH1 0x44 DUP3 ADD MSTORE PUSH1 0x64 SWAP1 REVERT JUMPDEST POP CALLVALUE PUSH2 0x21C JUMPI PUSH1 0x80 CALLDATASIZE PUSH1 0x3 NOT ADD SLT PUSH2 0x21C JUMPI PUSH1 0x64 CALLDATALOAD PUSH1 0x4 CALLDATALOAD ISZERO PUSH2 0x20F8 JUMPI PUSH1 0x24 CALLDATALOAD ISZERO PUSH2 0x20C0 JUMPI PUSH2 0x7D0 DUP2 LT ISZERO DUP1 PUSH2 0x20B4 JUMPI JUMPDEST ISZERO PUSH2 0x205E JUMPI PUSH1 0x4 CALLDATALOAD PUSH1 0xB SLOAD LT PUSH2 0x2019 JUMPI PUSH2 0x2710 SWAP1 DUP2 PUSH2 0x159F PUSH1 0xC SLOAD PUSH1 0x4 CALLDATALOAD PUSH2 0x2BF1 JUMP JUMPDEST DIV DUP1 PUSH2 0x1F9E JUMPI JUMPDEST POP DUP3 SLOAD PUSH1 0x9 SLOAD PUSH1 0x40 MLOAD PUSH4 0xEE9E836D PUSH1 0xE0 SHL DUP2 MSTORE PUSH1 0x1 PUSH1 0x1 PUSH1 0xA0 SHL SUB SWAP2 DUP3 AND PUSH1 0x4 DUP3 ADD DUP2 SWAP1 MSTORE ADDRESS PUSH1 0x24 DUP4 ADD MSTORE SWAP4 SWAP3 SWAP1 SWAP2 AND SWAP1 PUSH1 0x20 DUP2 PUSH1 0x44 DUP2 DUP6 GAS STATICCALL SWAP1 DUP2 ISZERO PUSH2 0x1BF2 JUMPI DUP7 SWAP2 PUSH2 0x1F68 JUMPI JUMPDEST POP PUSH1 0x4 CALLDATALOAD SUB PUSH2 0x1F23 JUMPI PUSH1 0x40 MLOAD PUSH4 0x1A4CA37B PUSH1 0xE2 SHL DUP2 MSTORE PUSH1 0x1 PUSH1 0x1 PUSH1 0xA0 SHL SUB SWAP4 SWAP1 SWAP4 AND PUSH1 0x4 DUP1 DUP6 ADD SWAP2 SWAP1 SWAP2 MSTORE CALLDATALOAD PUSH1 0x24 DUP5 ADD MSTORE ADDRESS PUSH1 0x44 DUP5 ADD MSTORE PUSH1 0x20 SWAP1 DUP4 SWAP1 PUSH1 0x64 SWAP1 DUP3 SWAP1 DUP9 SWAP1 GAS CALL SWAP2 DUP3 ISZERO PUSH2 0x14FB JUMPI DUP5 SWAP3 PUSH2 0x1EED JUMPI JUMPDEST POP PUSH2 0x1652 PUSH2 0x166B SWAP3 PUSH1 0x4 CALLDATALOAD EQ PUSH2 0x2C5F JUMP JUMPDEST PUSH2 0x1660 PUSH1 0x4 CALLDATALOAD PUSH1 0xB SLOAD PUSH2 0x2C9F JUMP JUMPDEST PUSH1 0xB SSTORE PUSH1 0x4 CALLDATALOAD PUSH2 0x2BF1 JUMP JUMPDEST DIV PUSH2 0x1678 DUP2 PUSH1 0x4 CALLDATALOAD PUSH2 0x2C9F JUMP JUMPDEST PUSH1 0x9 SLOAD PUSH1 0x40 MLOAD PUSH4 0x23B872DD PUSH1 0xE0 SHL DUP2 MSTORE CALLER PUSH1 0x4 DUP3 ADD MSTORE ADDRESS PUSH1 0x24 DUP3 ADD MSTORE PUSH1 0x44 DUP2 ADD DUP5 SWAP1 MSTORE SWAP1 PUSH1 0x20 SWAP1 DUP3 SWAP1 PUSH1 0x64 SWAP1 DUP3 SWAP1 DUP9 SWAP1 PUSH1 0x1 PUSH1 0x1 PUSH1 0xA0 SHL SUB AND GAS CALL DUP1 ISZERO PUSH2 0x14FB JUMPI PUSH2 0x1ECE JUMPI JUMPDEST POP PUSH1 0x40 MLOAD PUSH1 0x20 DUP2 ADD SWAP1 CALLER PUSH1 0x60 SHL DUP3 MSTORE TIMESTAMP PUSH1 0x34 DUP3 ADD MSTORE PUSH1 0x34 DUP2 MSTORE PUSH2 0x16E0 DUP2 PUSH2 0x2B03 JUMP JUMPDEST MLOAD SWAP1 KECCAK256 SWAP2 DUP3 DUP5 MSTORE PUSH1 0x5 PUSH1 0x20 MSTORE PUSH1 0x40 DUP5 KECCAK256 SWAP1 DUP4 DUP3 SSTORE PUSH1 0x1 DUP3 ADD CALLER PUSH1 0x1 PUSH1 0x1 PUSH1 0x60 SHL SUB PUSH1 0xA0 SHL DUP3 SLOAD AND OR SWAP1 SSTORE PUSH1 0x4 CALLDATALOAD PUSH1 0xA DUP4 ADD SSTORE DUP3 PUSH1 0x2 DUP4 ADD SSTORE PUSH1 0x3 DUP3 ADD SSTORE PUSH1 0x44 CALLDATALOAD SWAP1 DUP2 PUSH1 0x4 DUP3 ADD SSTORE PUSH1 0x24 CALLDATALOAD PUSH1 0x5 DUP3 ADD SSTORE TIMESTAMP PUSH1 0x7 DUP3 ADD SSTORE PUSH2 0x173D PUSH2 0x2B8D JUMP JUMPDEST PUSH1 0x8 DUP3 ADD SSTORE PUSH1 0x9 DUP2 ADD PUSH1 0x1 PUSH1 0xFF NOT DUP3 SLOAD AND OR SWAP1 SSTORE DUP3 PUSH1 0xE DUP3 ADD SSTORE PUSH8 0xDE0B6B3A7640000 DUP3 MUL SWAP2 DUP1 DUP4 DIV PUSH8 0xDE0B6B3A7640000 EQ SWAP1 ISZERO OR ISZERO PUSH2 0x1EBA JUMPI PUSH2 0x1786 PUSH2 0x4B0 DUP4 DIV DUP5 PUSH2 0x2BF1 JUMP JUMPDEST PUSH2 0x4B0 DUP4 DIV PUSH8 0xDE0B6B3A7640000 ADD PUSH8 0xDE0B6B3A7640000 GT PUSH2 0x1C52 JUMPI PUSH2 0x4B0 DUP4 DIV PUSH8 0xDE0B6B3A7640000 ADD ISZERO PUSH2 0x1EA6 JUMPI PUSH2 0x17DB PUSH1 0x24 CALLDATALOAD PUSH2 0x4B0 DUP6 DIV PUSH8 0xDE0B6B3A7640000 ADD PUSH8 0xDE0B6B3A7640000 DIV PUSH2 0x2DDA JUMP JUMPDEST PUSH8 0xDE0B6B3A7640000 SUB SWAP1 PUSH8 0xDE0B6B3A7640000 DUP3 GT PUSH2 0x1C3E JUMPI PUSH1 0x6 SWAP2 PUSH2 0x1801 SWAP2 PUSH2 0x2C1A JUMP JUMPDEST SWAP2 ADD SSTORE DUP3 DUP5 MSTORE PUSH1 0x5 PUSH1 0x20 MSTORE PUSH1 0x40 DUP5 KECCAK256 SWAP2 PUSH8 0xDE0B6B3A7640000 DUP2 DUP7 JUMPDEST PUSH1 0x24 CALLDATALOAD DUP2 LT PUSH2 0x1E7C JUMPI POP DUP2 PUSH2 0x183A PUSH2 0x183F SWAP3 PUSH2 0x4B0 DUP8 DIV SWAP1 PUSH2 0x2BF1 JUMP JUMPDEST PUSH2 0x2BF1 JUMP JUMPDEST SWAP1 DUP1 PUSH8 0xDE0B6B3A763FFFF NOT DUP2 ADD GT PUSH2 0x1C3E JUMPI PUSH8 0xDE0B6B3A7640000 SWAP2 PUSH2 0x1871 SWAP2 PUSH8 0xDE0B6B3A763FFFF NOT ADD SWAP1 PUSH2 0x2C1A JUMP JUMPDEST DIV DUP1 PUSH1 0x6 DUP6 ADD SSTORE DUP6 SWAP2 JUMPDEST PUSH1 0x24 CALLDATALOAD DUP4 LT PUSH2 0x1D0C JUMPI DUP7 DUP7 PUSH1 0x7 SLOAD PUSH1 0x1 PUSH1 0x40 SHL DUP2 LT ISZERO PUSH2 0x1CF8 JUMPI DUP1 PUSH1 0x1 PUSH2 0x18A5 SWAP3 ADD PUSH1 0x7 SSTORE PUSH2 0x2A70 JUMP JUMPDEST DUP2 SLOAD PUSH1 0x0 NOT PUSH1 0x3 SWAP3 SWAP1 SWAP3 SHL SWAP2 DUP3 SHL NOT AND SWAP1 DUP4 SWAP1 SHL OR SWAP1 SSTORE CALLER DUP3 MSTORE PUSH1 0x6 PUSH1 0x20 SWAP1 DUP2 MSTORE PUSH1 0x40 DUP1 DUP5 KECCAK256 DUP1 SLOAD PUSH1 0xFF NOT AND PUSH1 0x1 SWAP1 DUP2 OR SWAP1 SWAP2 SSTORE DUP4 DUP6 MSTORE PUSH1 0x5 DUP4 MSTORE DUP2 DUP6 KECCAK256 PUSH1 0xA DUP2 ADD SLOAD PUSH1 0x9 SLOAD SWAP3 SLOAD SWAP4 MLOAD PUSH4 0x95EA7B3 PUSH1 0xE0 SHL DUP2 MSTORE PUSH1 0x1 PUSH1 0x1 PUSH1 0xA0 SHL SUB SWAP5 DUP6 AND PUSH1 0x4 DUP3 ADD MSTORE PUSH1 0x24 DUP2 ADD DUP3 SWAP1 MSTORE SWAP2 SWAP5 SWAP1 SWAP4 SWAP2 SWAP3 SWAP1 SWAP2 DUP4 SWAP2 PUSH1 0x44 SWAP2 DUP4 SWAP2 DUP11 SWAP2 AND GAS CALL DUP1 ISZERO PUSH2 0x1CED JUMPI PUSH2 0x1CCE JUMPI JUMPDEST POP PUSH1 0x40 MLOAD PUSH2 0x193C DUP2 PUSH2 0x2B03 JUMP JUMPDEST PUSH1 0x2 DUP2 MSTORE PUSH1 0x40 CALLDATASIZE PUSH1 0x20 DUP4 ADD CALLDATACOPY PUSH1 0x9 SLOAD PUSH1 0x1 PUSH1 0x1 PUSH1 0xA0 SHL SUB AND PUSH2 0x195D DUP3 PUSH2 0x2CF6 JUMP JUMPDEST MSTORE PUSH1 0x2 SLOAD PUSH1 0x1 PUSH1 0x1 PUSH1 0xA0 SHL SUB AND PUSH2 0x1973 DUP3 PUSH2 0x2D03 JUMP JUMPDEST MSTORE PUSH1 0x3 SLOAD PUSH1 0x40 MLOAD PUSH4 0x3FABE5A3 PUSH1 0xE2 SHL DUP2 MSTORE SWAP1 PUSH1 0xA0 SWAP1 DUP3 SWAP1 PUSH1 0x4 SWAP1 DUP3 SWAP1 PUSH1 0x1 PUSH1 0x1 PUSH1 0xA0 SHL SUB AND GAS STATICCALL SWAP1 DUP2 ISZERO PUSH2 0x1BF2 JUMPI DUP7 SWAP2 PUSH2 0x1C9B JUMPI JUMPDEST POP DUP6 DUP2 SGT ISZERO PUSH2 0x1C66 JUMPI PUSH4 0x5F5E100 DUP1 DUP5 MUL SWAP1 DUP5 DUP3 DIV EQ DUP5 ISZERO OR ISZERO PUSH2 0x1C3E JUMPI SWAP1 PUSH2 0x19D0 SWAP2 PUSH2 0x2C1A JUMP JUMPDEST DUP1 PUSH1 0x62 DUP2 MUL DIV PUSH1 0x62 EQ DUP2 ISZERO OR ISZERO PUSH2 0x1C52 JUMPI PUSH1 0x1 SLOAD PUSH1 0x1 PUSH1 0x1 PUSH1 0xA0 SHL SUB AND SWAP2 TIMESTAMP PUSH2 0x12C DUP2 ADD LT PUSH2 0x1C3E JUMPI SWAP2 PUSH2 0x1A2E SWAP4 SWAP2 DUP8 DUP1 SWAP5 PUSH1 0x40 MLOAD SWAP7 DUP8 SWAP6 DUP7 SWAP5 DUP6 SWAP4 PUSH4 0x38ED1739 PUSH1 0xE0 SHL DUP6 MSTORE PUSH2 0x12C TIMESTAMP ADD SWAP3 PUSH1 0x64 PUSH1 0x62 ADDRESS SWAP5 MUL DIV SWAP1 PUSH1 0x4 DUP8 ADD PUSH2 0x2DA1 JUMP JUMPDEST SUB SWAP3 GAS CALL DUP1 ISZERO PUSH2 0x14FB JUMPI PUSH2 0x1A49 SWAP2 DUP6 SWAP2 PUSH2 0x1C1C JUMPI JUMPDEST POP PUSH2 0x2D03 JUMP JUMPDEST MLOAD DUP3 DUP5 MSTORE PUSH1 0x5 PUSH1 0x20 SWAP1 DUP2 MSTORE PUSH1 0x40 DUP1 DUP7 KECCAK256 PUSH1 0x2 SLOAD DUP8 SLOAD SWAP3 MLOAD PUSH4 0x95EA7B3 PUSH1 0xE0 SHL DUP2 MSTORE PUSH1 0x1 PUSH1 0x1 PUSH1 0xA0 SHL SUB SWAP4 DUP5 AND PUSH1 0x4 DUP3 ADD MSTORE PUSH1 0x24 DUP2 ADD DUP7 SWAP1 MSTORE SWAP2 SWAP4 SWAP2 SWAP3 DUP4 SWAP2 PUSH1 0x44 SWAP2 DUP4 SWAP2 DUP12 SWAP2 AND GAS CALL DUP1 ISZERO PUSH2 0x1BF2 JUMPI PUSH2 0x1BFD JUMPI JUMPDEST POP DUP5 SLOAD PUSH1 0x2 SLOAD DUP7 SWAP2 PUSH1 0x1 PUSH1 0x1 PUSH1 0xA0 SHL SUB SWAP1 DUP2 AND SWAP2 AND DUP2 EXTCODESIZE ISZERO PUSH2 0x3C5 JUMPI PUSH1 0x40 MLOAD PUSH4 0x617BA037 PUSH1 0xE0 SHL DUP2 MSTORE PUSH1 0x1 PUSH1 0x1 PUSH1 0xA0 SHL SUB SWAP2 SWAP1 SWAP2 AND PUSH1 0x4 DUP3 ADD MSTORE PUSH1 0x24 DUP2 ADD DUP6 SWAP1 MSTORE ADDRESS PUSH1 0x44 DUP3 ADD MSTORE PUSH1 0x0 PUSH1 0x64 DUP3 ADD MSTORE SWAP2 SWAP1 DUP3 SWAP1 PUSH1 0x84 SWAP1 DUP3 SWAP1 DUP5 SWAP1 GAS CALL DUP1 ISZERO PUSH2 0x1BF2 JUMPI PUSH2 0x1B8B JUMPI JUMPDEST POP PUSH1 0x80 SWAP3 PUSH32 0xAEEC09AF87559B9077DA2E499D1FAD2E228D7C24CB4B566FE61976820ABAADDA PUSH1 0x60 DUP5 PUSH1 0x2 DUP6 PUSH32 0x65410888FB30EDD04F6ACFB2F6CFD92AAF0EBB9B5303B6286D65D0B031B5B7F7 SWAP10 SWAP8 PUSH1 0xD PUSH1 0x3 SWAP9 ADD SSTORE ADD SLOAD SWAP1 PUSH1 0x40 MLOAD SWAP2 DUP8 DUP4 MSTORE PUSH1 0x20 DUP4 ADD MSTORE PUSH1 0x40 DUP3 ADD MSTORE LOG1 ADD SLOAD PUSH1 0x40 MLOAD SWAP2 DUP3 MSTORE PUSH1 0x4 CALLDATALOAD PUSH1 0x20 DUP4 ADD MSTORE PUSH1 0x40 DUP3 ADD MSTORE CALLER PUSH1 0x60 DUP3 ADD MSTORE LOG1 DUP1 RETURN JUMPDEST SWAP3 PUSH32 0xAEEC09AF87559B9077DA2E499D1FAD2E228D7C24CB4B566FE61976820ABAADDA PUSH1 0x60 PUSH32 0x65410888FB30EDD04F6ACFB2F6CFD92AAF0EBB9B5303B6286D65D0B031B5B7F7 SWAP7 SWAP5 PUSH1 0x2 PUSH1 0x3 SWAP6 SWAP10 PUSH2 0x1BE3 PUSH1 0x80 SWAP10 PUSH2 0x2AEF JUMP JUMPDEST SWAP10 SWAP6 POP POP SWAP5 SWAP7 POP POP POP SWAP3 PUSH2 0x1B02 JUMP JUMPDEST PUSH1 0x40 MLOAD RETURNDATASIZE DUP9 DUP3 RETURNDATACOPY RETURNDATASIZE SWAP1 REVERT JUMPDEST PUSH2 0x1C15 SWAP1 PUSH1 0x20 RETURNDATASIZE PUSH1 0x20 GT PUSH2 0x3EF JUMPI PUSH2 0x3E0 DUP2 DUP4 PUSH2 0x2B1F JUMP JUMPDEST POP DUP6 PUSH2 0x1A9C JUMP JUMPDEST PUSH2 0x1C38 SWAP2 POP RETURNDATASIZE DUP1 DUP8 DUP4 RETURNDATACOPY PUSH2 0x1C30 DUP2 DUP4 PUSH2 0x2B1F JUMP JUMPDEST DUP2 ADD SWAP1 PUSH2 0x2D27 JUMP JUMPDEST DUP6 PUSH2 0x1A43 JUMP JUMPDEST PUSH4 0x4E487B71 PUSH1 0xE0 SHL DUP8 MSTORE PUSH1 0x11 PUSH1 0x4 MSTORE PUSH1 0x24 DUP8 REVERT JUMPDEST PUSH4 0x4E487B71 PUSH1 0xE0 SHL DUP7 MSTORE PUSH1 0x11 PUSH1 0x4 MSTORE PUSH1 0x24 DUP7 REVERT JUMPDEST PUSH1 0x40 MLOAD PUSH3 0x461BCD PUSH1 0xE5 SHL DUP2 MSTORE PUSH1 0x20 PUSH1 0x4 DUP3 ADD MSTORE PUSH1 0xD PUSH1 0x24 DUP3 ADD MSTORE PUSH13 0x496E76616C6964207072696365 PUSH1 0x98 SHL PUSH1 0x44 DUP3 ADD MSTORE PUSH1 0x64 SWAP1 REVERT JUMPDEST PUSH2 0x1CBC SWAP2 POP PUSH1 0xA0 RETURNDATASIZE DUP2 GT PUSH2 0x1CC7 JUMPI JUMPDEST PUSH2 0x1CB4 DUP2 DUP4 PUSH2 0x2B1F JUMP JUMPDEST DUP2 ADD SWAP1 PUSH2 0x2B58 JUMP JUMPDEST POP POP POP SWAP1 POP DUP7 PUSH2 0x19A8 JUMP JUMPDEST POP RETURNDATASIZE PUSH2 0x1CAA JUMP JUMPDEST PUSH2 0x1CE6 SWAP1 PUSH1 0x20 RETURNDATASIZE PUSH1 0x20 GT PUSH2 0x3EF JUMPI PUSH2 0x3E0 DUP2 DUP4 PUSH2 0x2B1F JUMP JUMPDEST POP DUP5 PUSH2 0x192F JUMP JUMPDEST PUSH1 0x40 MLOAD RETURNDATASIZE DUP8 DUP3 RETURNDATACOPY RETURNDATASIZE SWAP1 REVERT JUMPDEST PUSH4 0x4E487B71 PUSH1 0xE0 SHL DUP4 MSTORE PUSH1 0x41 PUSH1 0x4 MSTORE PUSH1 0x24 DUP4 REVERT JUMPDEST PUSH8 0xDE0B6B3A7640000 PUSH2 0x1D23 PUSH2 0x4B0 DUP7 DIV DUP4 PUSH2 0x2BF1 JUMP JUMPDEST DIV SWAP1 DUP2 DUP4 GT ISZERO PUSH2 0x1E76 JUMPI PUSH2 0x1D37 DUP3 DUP5 PUSH2 0x2C9F JUMP JUMPDEST SWAP2 PUSH1 0x24 CALLDATALOAD PUSH1 0x0 NOT DUP2 ADD GT PUSH2 0x1E62 JUMPI PUSH1 0x24 CALLDATALOAD PUSH1 0x0 NOT ADD DUP6 EQ PUSH2 0x1E4D JUMPI JUMPDEST PUSH3 0x278D00 DUP6 DUP2 DUP2 MUL DIV DUP2 EQ DUP7 ISZERO OR ISZERO PUSH2 0x1E39 JUMPI PUSH2 0x1D72 SWAP1 DUP7 MUL TIMESTAMP PUSH2 0x2C52 JUMP JUMPDEST PUSH1 0x40 MLOAD SWAP2 PUSH2 0x1D7F DUP4 PUSH2 0x2ABD JUMP JUMPDEST DUP5 DUP4 MSTORE PUSH1 0x20 DUP4 ADD MSTORE DUP10 PUSH1 0x40 DUP4 ADD MSTORE PUSH1 0x60 DUP3 ADD MSTORE PUSH1 0xC DUP8 ADD SLOAD PUSH1 0x1 PUSH1 0x40 SHL DUP2 LT ISZERO PUSH2 0x1E25 JUMPI DUP1 PUSH1 0x1 PUSH2 0x1DB9 SWAP3 ADD PUSH1 0xC DUP11 ADD SSTORE PUSH1 0xC DUP10 ADD PUSH2 0x2E90 JUMP JUMPDEST SWAP2 SWAP1 SWAP2 PUSH2 0x1E11 JUMPI SWAP2 PUSH2 0x1E0B SWAP4 SWAP2 PUSH1 0x3 PUSH1 0x60 DUP6 PUSH2 0x1E05 SWAP7 MLOAD DUP5 SSTORE PUSH1 0x20 DUP2 ADD MLOAD PUSH1 0x1 DUP6 ADD SSTORE PUSH2 0x1DFB PUSH1 0x40 DUP3 ADD MLOAD ISZERO ISZERO PUSH1 0x2 DUP7 ADD SWAP1 PUSH1 0xFF DUP1 NOT DUP4 SLOAD AND SWAP2 ISZERO ISZERO AND OR SWAP1 SSTORE JUMP JUMPDEST ADD MLOAD SWAP2 ADD SSTORE PUSH2 0x2C9F JUMP JUMPDEST SWAP3 PUSH2 0x2E81 JUMP JUMPDEST SWAP2 PUSH2 0x187B JUMP JUMPDEST PUSH4 0x4E487B71 PUSH1 0xE0 SHL DUP11 MSTORE PUSH1 0x4 DUP11 SWAP1 MSTORE PUSH1 0x24 DUP11 REVERT JUMPDEST PUSH4 0x4E487B71 PUSH1 0xE0 SHL DUP11 MSTORE PUSH1 0x41 PUSH1 0x4 MSTORE PUSH1 0x24 DUP11 REVERT JUMPDEST PUSH4 0x4E487B71 PUSH1 0xE0 SHL DUP11 MSTORE PUSH1 0x11 PUSH1 0x4 MSTORE PUSH1 0x24 DUP11 REVERT JUMPDEST SWAP3 POP SWAP1 POP DUP1 PUSH2 0x1E5C DUP4 DUP3 PUSH2 0x2C52 JUMP JUMPDEST SWAP3 PUSH2 0x1D53 JUMP JUMPDEST PUSH4 0x4E487B71 PUSH1 0xE0 SHL DUP10 MSTORE PUSH1 0x11 PUSH1 0x4 MSTORE PUSH1 0x24 DUP10 REVERT JUMPDEST DUP8 PUSH2 0x1D37 JUMP JUMPDEST SWAP2 PUSH8 0xDE0B6B3A7640000 PUSH2 0x1E9A PUSH2 0x1EA1 SWAP3 PUSH2 0x4B0 DUP9 DIV DUP4 ADD SWAP1 PUSH2 0x2BF1 JUMP JUMPDEST DIV SWAP3 PUSH2 0x2E81 JUMP JUMPDEST PUSH2 0x181D JUMP JUMPDEST PUSH4 0x4E487B71 PUSH1 0xE0 SHL DUP7 MSTORE PUSH1 0x12 PUSH1 0x4 MSTORE PUSH1 0x24 DUP7 REVERT JUMPDEST PUSH4 0x4E487B71 PUSH1 0xE0 SHL DUP6 MSTORE PUSH1 0x11 PUSH1 0x4 MSTORE PUSH1 0x24 DUP6 REVERT JUMPDEST PUSH2 0x1EE6 SWAP1 PUSH1 0x20 RETURNDATASIZE PUSH1 0x20 GT PUSH2 0x3EF JUMPI PUSH2 0x3E0 DUP2 DUP4 PUSH2 0x2B1F JUMP JUMPDEST POP CODESIZE PUSH2 0x16BE JUMP JUMPDEST SWAP2 POP PUSH1 0x20 DUP3 RETURNDATASIZE PUSH1 0x20 GT PUSH2 0x1F1B JUMPI JUMPDEST DUP2 PUSH2 0x1F08 PUSH1 0x20 SWAP4 DUP4 PUSH2 0x2B1F JUMP JUMPDEST DUP2 ADD SUB SLT PUSH2 0x3B6 JUMPI SWAP1 MLOAD SWAP1 PUSH2 0x1652 PUSH2 0x1641 JUMP JUMPDEST RETURNDATASIZE SWAP2 POP PUSH2 0x1EFB JUMP JUMPDEST PUSH1 0x40 MLOAD PUSH3 0x461BCD PUSH1 0xE5 SHL DUP2 MSTORE PUSH1 0x20 PUSH1 0x4 DUP3 ADD MSTORE PUSH1 0x1E PUSH1 0x24 DUP3 ADD MSTORE PUSH32 0x496E73756666696369656E74204141564520706F6F6C2062616C616E63650000 PUSH1 0x44 DUP3 ADD MSTORE PUSH1 0x64 SWAP1 REVERT JUMPDEST SWAP1 POP PUSH1 0x20 DUP2 RETURNDATASIZE PUSH1 0x20 GT PUSH2 0x1F96 JUMPI JUMPDEST DUP2 PUSH2 0x1F83 PUSH1 0x20 SWAP4 DUP4 PUSH2 0x2B1F JUMP JUMPDEST DUP2 ADD SUB SLT PUSH2 0x1F92 JUMPI MLOAD CODESIZE PUSH2 0x15EE JUMP JUMPDEST DUP6 DUP1 REVERT JUMPDEST RETURNDATASIZE SWAP2 POP PUSH2 0x1F76 JUMP JUMPDEST PUSH1 0x9 SLOAD PUSH1 0x40 MLOAD PUSH4 0x23B872DD PUSH1 0xE0 SHL DUP2 MSTORE CALLER PUSH1 0x4 DUP3 ADD MSTORE ADDRESS PUSH1 0x24 DUP3 ADD MSTORE PUSH1 0x44 DUP2 ADD DUP4 SWAP1 MSTORE SWAP2 SWAP1 PUSH1 0x20 SWAP1 DUP4 SWAP1 PUSH1 0x64 SWAP1 DUP3 SWAP1 DUP10 SWAP1 PUSH1 0x1 PUSH1 0x1 PUSH1 0xA0 SHL SUB AND GAS CALL SWAP2 DUP3 ISZERO PUSH2 0x1CED JUMPI PUSH2 0x1FF2 SWAP3 PUSH2 0x1FFB JUMPI POP PUSH1 0xF SLOAD PUSH2 0x2C52 JUMP JUMPDEST PUSH1 0xF SSTORE CODESIZE PUSH2 0x15A6 JUMP JUMPDEST PUSH2 0x2012 SWAP1 PUSH1 0x20 RETURNDATASIZE DUP2 GT PUSH2 0x3EF JUMPI PUSH2 0x3E0 DUP2 DUP4 PUSH2 0x2B1F JUMP JUMPDEST POP CODESIZE PUSH2 0xCF2 JUMP JUMPDEST PUSH1 0x40 MLOAD PUSH3 0x461BCD PUSH1 0xE5 SHL DUP2 MSTORE PUSH1 0x20 PUSH1 0x4 DUP3 ADD MSTORE PUSH1 0x1B PUSH1 0x24 DUP3 ADD MSTORE PUSH32 0x496E73756666696369656E7420706F6F6C206C69717569646974790000000000 PUSH1 0x44 DUP3 ADD MSTORE PUSH1 0x64 SWAP1 REVERT JUMPDEST PUSH1 0x40 MLOAD PUSH3 0x461BCD PUSH1 0xE5 SHL DUP2 MSTORE PUSH1 0x20 PUSH1 0x4 DUP3 ADD MSTORE PUSH1 0x28 PUSH1 0x24 DUP3 ADD MSTORE PUSH32 0x446F776E207061796D656E74206D757374206265206265747765656E20323025 PUSH1 0x44 DUP3 ADD MSTORE PUSH8 0x20616E6420353025 PUSH1 0xC0 SHL PUSH1 0x64 DUP3 ADD MSTORE PUSH1 0x84 SWAP1 REVERT JUMPDEST POP PUSH2 0x1388 DUP2 GT ISZERO PUSH2 0x157C JUMP JUMPDEST PUSH1 0x40 MLOAD PUSH3 0x461BCD PUSH1 0xE5 SHL DUP2 MSTORE PUSH1 0x20 PUSH1 0x4 DUP3 ADD MSTORE PUSH1 0x10 PUSH1 0x24 DUP3 ADD MSTORE PUSH16 0x24B73B30B634B210323AB930BA34B7B7 PUSH1 0x81 SHL PUSH1 0x44 DUP3 ADD MSTORE PUSH1 0x64 SWAP1 REVERT JUMPDEST PUSH1 0x40 MLOAD PUSH3 0x461BCD PUSH1 0xE5 SHL DUP2 MSTORE PUSH1 0x20 PUSH1 0x4 DUP3 ADD MSTORE PUSH1 0xE PUSH1 0x24 DUP3 ADD MSTORE PUSH14 0x125B9D985B1A5908185B5BDD5B9D PUSH1 0x92 SHL PUSH1 0x44 DUP3 ADD MSTORE PUSH1 0x64 SWAP1 REVERT JUMPDEST POP CALLVALUE PUSH2 0x21C JUMPI PUSH1 0x20 CALLDATASIZE PUSH1 0x3 NOT ADD SLT PUSH2 0x21C JUMPI PUSH1 0x4 CALLDATALOAD PUSH1 0x1 PUSH1 0x1 PUSH1 0xA0 SHL SUB DUP2 AND SWAP1 DUP2 SWAP1 SUB PUSH2 0x878 JUMPI DUP2 PUSH1 0x40 SWAP2 PUSH1 0x20 SWAP4 MSTORE PUSH1 0x4 DUP4 MSTORE KECCAK256 SLOAD PUSH1 0x40 MLOAD SWAP1 DUP2 MSTORE RETURN JUMPDEST POP CALLVALUE PUSH2 0x21C JUMPI PUSH1 0x20 DUP1 PUSH1 0x3 NOT CALLDATASIZE ADD SLT PUSH2 0x878 JUMPI PUSH1 0x4 CALLDATALOAD PUSH1 0x1 DUP1 PUSH1 0xA0 SHL SUB PUSH2 0x2197 DUP2 PUSH1 0x8 SLOAD AND CALLER EQ PUSH2 0x2EAC JUMP JUMPDEST DUP2 DUP5 MSTORE PUSH1 0x5 DUP4 MSTORE PUSH1 0x40 DUP5 KECCAK256 SWAP3 PUSH1 0x9 SWAP1 DUP2 DUP6 ADD SWAP2 PUSH1 0xFF PUSH2 0x21B8 DUP2 DUP6 SLOAD AND PUSH2 0x2F02 JUMP JUMPDEST DUP8 SWAP1 DUP9 SWAP1 PUSH1 0xC DUP10 ADD DUP1 SLOAD SWAP3 JUMPDEST DUP4 DUP2 LT PUSH2 0x2452 JUMPI POP POP POP POP PUSH3 0x76A700 LT ISZERO PUSH2 0x23F8 JUMPI PUSH1 0xE DUP7 ADD PUSH2 0x2710 PUSH2 0x21EE DUP3 SLOAD PUSH1 0xD SLOAD SWAP1 PUSH2 0x2BF1 JUMP JUMPDEST DIV DUP1 PUSH2 0x23D6 JUMPI JUMPDEST POP PUSH1 0xFF NOT SWAP4 DUP5 DUP2 SLOAD AND SWAP1 SSTORE PUSH1 0x1 SWAP1 DUP2 DUP9 ADD SWAP5 DUP7 DUP7 SLOAD AND DUP11 MSTORE PUSH1 0x6 DUP6 MSTORE PUSH1 0x40 DUP11 KECCAK256 SWAP1 DUP2 SLOAD AND SWAP1 SSTORE PUSH1 0xD DUP9 ADD SLOAD DUP1 PUSH2 0x23C6 JUMPI JUMPDEST POP PUSH1 0x3 SWAP1 DUP2 DUP10 ADD SLOAD SWAP1 SLOAD SWAP2 DUP3 PUSH2 0x2298 JUMPI JUMPDEST DUP11 PUSH32 0xCAB88A55906C5830A49DDDD8B31D115294A5E6C4210F25FE140530A39C51DC74 DUP11 DUP11 DUP11 SLOAD AND SWAP1 PUSH2 0x2292 PUSH2 0x226A PUSH2 0x2B8D JUMP JUMPDEST PUSH1 0x40 DUP1 MLOAD SWAP4 DUP5 MSTORE PUSH1 0x1 PUSH1 0x1 PUSH1 0xA0 SHL SUB SWAP1 SWAP5 AND PUSH1 0x20 DUP5 ADD MSTORE SWAP3 DUP3 ADD SWAP3 SWAP1 SWAP3 MSTORE SWAP1 DUP2 SWAP1 PUSH1 0x60 DUP3 ADD SWAP1 JUMP JUMPDEST SUB SWAP1 LOG1 DUP1 RETURN JUMPDEST SWAP1 SWAP2 SWAP3 DUP1 SWAP10 PUSH1 0xB DUP13 SWAP2 ADD SWAP2 JUMPDEST PUSH2 0x22AF JUMPI JUMPDEST POP PUSH2 0x2237 JUMP JUMPDEST DUP2 SLOAD DUP2 LT ISZERO PUSH2 0x23C1 JUMPI PUSH2 0x22C2 DUP2 DUP4 PUSH2 0x386C JUMP JUMPDEST POP PUSH2 0x22D4 DUP13 DUP3 ADD SLOAD DUP6 DUP4 ADD SLOAD SWAP1 PUSH2 0x2C9F JUMP JUMPDEST DUP13 DUP2 ISZERO PUSH2 0x23B0 JUMPI POP PUSH8 0xDE0B6B3A7640000 SWAP1 DUP2 DUP2 MUL SWAP1 DUP2 DIV DUP3 SUB PUSH2 0x239C JUMPI DUP8 SWAP7 SWAP6 SWAP5 SWAP4 SWAP3 DUP16 SWAP2 SWAP3 PUSH2 0x2312 PUSH2 0x230C PUSH2 0x234E SWAP12 DUP15 SWAP7 PUSH2 0x2C1A JUMP JUMPDEST DUP10 PUSH2 0x2BF1 JUMP JUMPDEST DIV SWAP2 DUP14 DUP1 DUP13 SLOAD AND SWAP3 SLOAD AND SWAP1 PUSH1 0x40 MLOAD DUP1 SWAP12 DUP2 SWAP6 DUP3 SWAP5 PUSH4 0xA9059CBB PUSH1 0xE0 SHL DUP5 MSTORE PUSH1 0x4 DUP5 ADD PUSH1 0x20 SWAP1 SWAP4 SWAP3 SWAP2 SWAP4 PUSH1 0x40 DUP2 ADD SWAP5 PUSH1 0x1 DUP1 PUSH1 0xA0 SHL SUB AND DUP2 MSTORE ADD MSTORE JUMP JUMPDEST SUB SWAP3 GAS CALL SWAP1 DUP2 ISZERO PUSH2 0x2391 JUMPI DUP13 SWAP7 PUSH2 0x236A SWAP3 PUSH2 0x2374 JUMPI JUMPDEST POP PUSH2 0x2E81 JUMP JUMPDEST SWAP1 SWAP2 SWAP3 SWAP4 SWAP5 PUSH2 0x22A4 JUMP JUMPDEST PUSH2 0x238A SWAP1 DUP11 RETURNDATASIZE DUP13 GT PUSH2 0x3EF JUMPI PUSH2 0x3E0 DUP2 DUP4 PUSH2 0x2B1F JUMP JUMPDEST POP CODESIZE PUSH2 0x2364 JUMP JUMPDEST PUSH1 0x40 MLOAD RETURNDATASIZE DUP16 DUP3 RETURNDATACOPY RETURNDATASIZE SWAP1 REVERT JUMPDEST PUSH4 0x4E487B71 PUSH1 0xE0 SHL DUP16 MSTORE PUSH1 0x11 PUSH1 0x4 MSTORE PUSH1 0x24 DUP16 REVERT JUMPDEST SWAP7 SWAP6 SWAP5 SWAP4 SWAP3 SWAP1 POP PUSH2 0x236A SWAP2 POP PUSH2 0x2E81 JUMP JUMPDEST PUSH2 0x22A9 JUMP JUMPDEST PUSH2 0x23D0 SWAP1 DUP9 PUSH2 0x33E6 JUMP JUMPDEST CODESIZE PUSH2 0x2226 JUMP JUMPDEST DUP1 PUSH2 0x23E6 PUSH2 0x23F0 SWAP3 PUSH1 0xF SLOAD PUSH2 0x2C52 JUMP JUMPDEST PUSH1 0xF SSTORE DUP3 SLOAD PUSH2 0x2C9F JUMP JUMPDEST DUP2 SSTORE CODESIZE PUSH2 0x21F5 JUMP JUMPDEST PUSH1 0x40 MLOAD PUSH3 0x461BCD PUSH1 0xE5 SHL DUP2 MSTORE PUSH1 0x4 DUP2 ADD DUP4 SWAP1 MSTORE PUSH1 0x2C PUSH1 0x24 DUP3 ADD MSTORE PUSH32 0x4C6F616E206973206E6F74206F766572647565206265796F6E642033206D6F6E PUSH1 0x44 DUP3 ADD MSTORE PUSH12 0x1D1A1CC81A5B881D1BDD185B PUSH1 0xA2 SHL PUSH1 0x64 DUP3 ADD MSTORE PUSH1 0x84 SWAP1 REVERT JUMPDEST PUSH2 0x245C DUP2 DUP4 PUSH2 0x2E90 JUMP JUMPDEST POP DUP4 PUSH1 0x2 DUP3 ADD SLOAD AND PUSH2 0x2474 JUMPI PUSH1 0x3 ADD SLOAD DUP1 TIMESTAMP GT PUSH2 0x2483 JUMPI JUMPDEST POP PUSH2 0x247E SWAP1 PUSH2 0x2E81 JUMP JUMPDEST PUSH2 0x21C4 JUMP JUMPDEST PUSH2 0x247E SWAP2 SWAP6 PUSH2 0x2495 PUSH2 0x249B SWAP3 TIMESTAMP PUSH2 0x2C9F JUMP JUMPDEST SWAP1 PUSH2 0x2C52 JUMP JUMPDEST SWAP5 SWAP1 PUSH2 0x2474 JUMP JUMPDEST POP CALLVALUE PUSH2 0x21C JUMPI PUSH1 0x20 CALLDATASIZE PUSH1 0x3 NOT ADD SLT PUSH2 0x21C JUMPI PUSH1 0x4 CALLDATALOAD PUSH1 0x1 PUSH1 0x1 PUSH1 0xA0 SHL SUB DUP2 AND SWAP1 DUP2 SWAP1 SUB PUSH2 0x878 JUMPI PUSH1 0x40 DUP3 PUSH1 0xFF SWAP3 PUSH1 0x20 SWAP5 MSTORE PUSH1 0x6 DUP5 MSTORE KECCAK256 SLOAD AND PUSH1 0x40 MLOAD SWAP1 ISZERO ISZERO DUP2 MSTORE RETURN JUMPDEST POP CALLVALUE PUSH2 0x21C JUMPI PUSH1 0x20 DUP1 PUSH1 0x3 NOT CALLDATASIZE ADD SLT PUSH2 0x878 JUMPI SWAP1 PUSH1 0x4 CALLDATALOAD DUP2 MSTORE PUSH1 0x5 DUP3 MSTORE PUSH1 0xC PUSH1 0x40 DUP3 KECCAK256 ADD DUP1 SLOAD SWAP2 PUSH2 0x2514 DUP4 PUSH2 0x2CC4 JUMP JUMPDEST SWAP3 PUSH2 0x251E DUP2 PUSH2 0x2CC4 JUMP JUMPDEST PUSH2 0x2527 DUP3 PUSH2 0x2CAC JUMP JUMPDEST SWAP2 PUSH2 0x2535 PUSH1 0x40 MLOAD SWAP4 DUP5 PUSH2 0x2B1F JUMP JUMPDEST DUP1 DUP4 MSTORE PUSH2 0x2541 DUP2 PUSH2 0x2CAC JUMP JUMPDEST DUP4 DUP9 ADD SWAP6 SWAP1 PUSH1 0x1F NOT ADD CALLDATASIZE DUP8 CALLDATACOPY DUP5 JUMPDEST DUP3 DUP2 LT PUSH2 0x25BD JUMPI POP POP POP SWAP5 DUP1 PUSH2 0x2583 PUSH2 0x2576 SWAP8 PUSH1 0x40 MLOAD SWAP9 DUP10 SWAP9 PUSH1 0x60 DUP11 MSTORE PUSH1 0x60 DUP11 ADD SWAP1 PUSH2 0x29F0 JUMP JUMPDEST SWAP1 DUP9 DUP3 SUB DUP5 DUP11 ADD MSTORE PUSH2 0x29F0 JUMP JUMPDEST SWAP3 DUP7 DUP5 SUB PUSH1 0x40 DUP9 ADD MSTORE MLOAD SWAP3 DUP4 DUP2 MSTORE ADD SWAP4 SWAP3 JUMPDEST DUP3 DUP2 LT PUSH2 0x25A4 JUMPI POP POP POP POP SUB SWAP1 RETURN JUMPDEST DUP4 MLOAD ISZERO ISZERO DUP6 MSTORE DUP7 SWAP6 POP SWAP4 DUP2 ADD SWAP4 SWAP3 DUP2 ADD SWAP3 PUSH1 0x1 ADD PUSH2 0x2595 JUMP JUMPDEST DUP1 PUSH1 0xFF PUSH1 0x2 PUSH2 0x25D5 PUSH2 0x260A SWAP5 DUP7 SWAP14 SWAP11 SWAP10 SWAP12 SWAP13 SWAP14 PUSH2 0x2E90 JUMP JUMPDEST POP DUP1 SLOAD PUSH2 0x25E2 DUP6 DUP16 PUSH2 0x2D13 JUMP JUMPDEST MSTORE PUSH1 0x1 DUP2 ADD SLOAD PUSH2 0x25F2 DUP6 DUP11 PUSH2 0x2D13 JUMP JUMPDEST MSTORE ADD SLOAD AND PUSH2 0x2600 DUP3 DUP11 PUSH2 0x2D13 JUMP JUMPDEST SWAP1 ISZERO ISZERO SWAP1 MSTORE PUSH2 0x2E81 JUMP JUMPDEST SWAP8 SWAP7 SWAP6 SWAP4 SWAP5 SWAP8 PUSH2 0x254F JUMP JUMPDEST POP CALLVALUE PUSH2 0x21C JUMPI PUSH1 0x60 SWAP1 PUSH2 0x2627 CALLDATASIZE PUSH2 0x29DA JUMP JUMPDEST SWAP1 SWAP2 PUSH2 0x7D0 DUP3 LT ISZERO SWAP2 SWAP1 DUP3 PUSH2 0x2673 JUMPI JUMPDEST DUP3 ISZERO PUSH2 0x266A JUMPI POP PUSH2 0x2710 PUSH2 0x264E PUSH2 0x2656 SWAP3 DUP6 PUSH2 0x2BF1 JUMP JUMPDEST DIV DUP1 SWAP4 PUSH2 0x2C9F JUMP JUMPDEST PUSH1 0x40 MLOAD SWAP3 DUP4 MSTORE PUSH1 0x20 DUP4 ADD MSTORE ISZERO ISZERO PUSH1 0x40 DUP3 ADD MSTORE RETURN JUMPDEST SWAP3 POP POP DUP2 PUSH2 0x2656 JUMP JUMPDEST PUSH2 0x1388 DUP3 GT ISZERO SWAP3 POP PUSH2 0x2637 JUMP JUMPDEST POP CALLVALUE PUSH2 0x21C JUMPI DUP1 PUSH1 0x3 NOT CALLDATASIZE ADD SLT PUSH2 0x21C JUMPI PUSH1 0x9 SLOAD PUSH1 0x40 MLOAD PUSH1 0x1 PUSH1 0x1 PUSH1 0xA0 SHL SUB SWAP1 SWAP2 AND DUP2 MSTORE PUSH1 0x20 SWAP1 RETURN JUMPDEST POP CALLVALUE PUSH2 0x21C JUMPI DUP1 PUSH1 0x3 NOT CALLDATASIZE ADD SLT PUSH2 0x21C JUMPI PUSH1 0x2 SLOAD PUSH1 0x40 MLOAD PUSH1 0x1 PUSH1 0x1 PUSH1 0xA0 SHL SUB SWAP1 SWAP2 AND DUP2 MSTORE PUSH1 0x20 SWAP1 RETURN JUMPDEST POP CALLVALUE PUSH2 0x21C JUMPI PUSH1 0x20 CALLDATASIZE PUSH1 0x3 NOT ADD SLT PUSH2 0x21C JUMPI PUSH2 0x26F9 PUSH1 0x1 DUP1 PUSH1 0xA0 SHL SUB PUSH1 0x8 SLOAD AND CALLER EQ PUSH2 0x2EAC JUMP JUMPDEST PUSH1 0x4 CALLDATALOAD DUP2 MSTORE PUSH1 0x5 PUSH1 0x20 MSTORE PUSH1 0x40 DUP2 KECCAK256 PUSH1 0x9 DUP2 ADD DUP1 SLOAD SWAP2 PUSH2 0x271A PUSH1 0xFF DUP5 AND PUSH2 0x2F02 JUMP JUMPDEST PUSH2 0x2722 PUSH2 0x2B8D JUMP JUMPDEST SWAP2 PUSH1 0xD DUP3 ADD PUSH4 0x5F5E100 PUSH2 0x2737 DUP6 DUP4 SLOAD PUSH2 0x2BF1 JUMP JUMPDEST DIV SWAP2 PUSH1 0xE DUP5 ADD SWAP3 DUP4 SLOAD PUSH1 0x69 DUP2 MUL SWAP1 DUP1 DUP3 DIV PUSH1 0x69 EQ SWAP1 ISZERO OR ISZERO PUSH2 0x1E62 JUMPI PUSH1 0x64 SWAP1 DIV LT PUSH2 0x295B JUMPI PUSH1 0xFF NOT SWAP6 DUP7 AND SWAP1 SSTORE PUSH1 0x1 DUP4 ADD DUP1 SLOAD PUSH1 0x1 PUSH1 0x1 PUSH1 0xA0 SHL SUB AND DUP8 MSTORE PUSH1 0x6 PUSH1 0x20 MSTORE PUSH1 0x40 DUP8 KECCAK256 DUP1 SLOAD SWAP1 SWAP7 AND SWAP1 SWAP6 SSTORE DUP2 SLOAD PUSH1 0xE SLOAD PUSH2 0x2710 SWAP2 PUSH2 0x2799 SWAP2 SWAP1 PUSH2 0x2BF1 JUMP JUMPDEST DIV DUP1 PUSH2 0x2939 JUMPI JUMPDEST POP SLOAD DUP1 PUSH2 0x2927 JUMPI JUMPDEST POP PUSH1 0x3 DUP3 ADD SLOAD SWAP1 SLOAD SWAP2 DUP3 PUSH2 0x2807 JUMPI JUMPDEST POP POP SWAP2 SLOAD PUSH1 0x40 DUP1 MLOAD PUSH1 0x4 CALLDATALOAD DUP2 MSTORE PUSH1 0x1 PUSH1 0x1 PUSH1 0xA0 SHL SUB SWAP1 SWAP3 AND PUSH1 0x20 DUP4 ADD MSTORE DUP2 ADD SWAP2 SWAP1 SWAP2 MSTORE PUSH32 0xCAB88A55906C5830A49DDDD8B31D115294A5E6C4210F25FE140530A39C51DC74 SWAP2 POP DUP1 PUSH1 0x60 DUP2 ADD PUSH2 0x2292 JUMP JUMPDEST SWAP1 SWAP2 SWAP3 DUP6 JUMPDEST PUSH1 0xB DUP4 ADD SLOAD DUP2 LT ISZERO PUSH2 0x28FA JUMPI PUSH2 0x2825 DUP2 PUSH1 0xB DUP6 ADD PUSH2 0x386C JUMP JUMPDEST POP PUSH2 0x2839 PUSH1 0x1 DUP3 ADD SLOAD PUSH1 0x3 DUP4 ADD SLOAD SWAP1 PUSH2 0x2C9F JUMP JUMPDEST DUP1 ISZERO PUSH2 0x28EF JUMPI DUP1 PUSH8 0xDE0B6B3A7640000 DUP2 MUL DIV PUSH8 0xDE0B6B3A7640000 SUB PUSH2 0x1E62 JUMPI PUSH2 0x28B9 SWAP3 SWAP2 PUSH8 0xDE0B6B3A7640000 PUSH2 0x2879 PUSH2 0x230C DUP11 DUP4 PUSH1 0x20 SWAP7 MUL PUSH2 0x2C1A JUMP JUMPDEST PUSH1 0x9 SLOAD SWAP3 SLOAD PUSH1 0x40 MLOAD PUSH4 0xA9059CBB PUSH1 0xE0 SHL DUP2 MSTORE PUSH1 0x1 PUSH1 0x1 PUSH1 0xA0 SHL SUB SWAP2 DUP3 AND PUSH1 0x4 DUP3 ADD MSTORE SWAP3 SWAP1 SWAP2 DIV PUSH1 0x24 DUP4 ADD MSTORE SWAP1 SWAP5 DUP6 SWAP3 SWAP1 SWAP2 AND SWAP1 DUP3 SWAP1 DUP13 SWAP1 DUP3 SWAP1 PUSH1 0x44 DUP3 ADD SWAP1 JUMP JUMPDEST SUB SWAP3 GAS CALL SWAP2 DUP3 ISZERO PUSH2 0xECD JUMPI PUSH2 0x28D2 SWAP3 PUSH2 0x28D7 JUMPI POP PUSH2 0x2E81 JUMP JUMPDEST PUSH2 0x280C JUMP JUMPDEST PUSH2 0x238A SWAP1 PUSH1 0x20 RETURNDATASIZE PUSH1 0x20 GT PUSH2 0x3EF JUMPI PUSH2 0x3E0 DUP2 DUP4 PUSH2 0x2B1F JUMP JUMPDEST POP POP PUSH2 0x28D2 SWAP1 PUSH2 0x2E81 JUMP JUMPDEST POP SWAP3 POP POP POP PUSH32 0xCAB88A55906C5830A49DDDD8B31D115294A5E6C4210F25FE140530A39C51DC74 CODESIZE DUP1 PUSH2 0x27B7 JUMP JUMPDEST PUSH2 0x2933 SWAP1 PUSH1 0x4 CALLDATALOAD PUSH2 0x33E6 JUMP JUMPDEST CODESIZE PUSH2 0x27A8 JUMP JUMPDEST DUP1 PUSH2 0x2949 PUSH2 0x2953 SWAP3 PUSH1 0xF SLOAD PUSH2 0x2C52 JUMP JUMPDEST PUSH1 0xF SSTORE DUP4 SLOAD PUSH2 0x2C9F JUMP JUMPDEST DUP3 SSTORE CODESIZE PUSH2 0x27A0 JUMP JUMPDEST PUSH1 0x40 MLOAD PUSH3 0x461BCD PUSH1 0xE5 SHL DUP2 MSTORE PUSH1 0x20 PUSH1 0x4 DUP3 ADD MSTORE PUSH1 0x35 PUSH1 0x24 DUP3 ADD MSTORE PUSH32 0x4254432076616C756520686173206E6F742064726F707065642062656C6F7720 PUSH1 0x44 DUP3 ADD MSTORE PUSH21 0x1B1A5C5D5A59185D1A5BDB881D1A1C995CDA1BDB19 PUSH1 0x5A SHL PUSH1 0x64 DUP3 ADD MSTORE PUSH1 0x84 SWAP1 REVERT JUMPDEST SWAP1 POP CALLVALUE PUSH2 0x878 JUMPI DUP2 PUSH1 0x3 NOT CALLDATASIZE ADD SLT PUSH2 0x878 JUMPI PUSH1 0x20 SWAP1 PUSH1 0xD SLOAD DUP2 MSTORE RETURN JUMPDEST PUSH1 0x40 SWAP1 PUSH1 0x3 NOT ADD SLT PUSH2 0x14EF JUMPI PUSH1 0x4 CALLDATALOAD SWAP1 PUSH1 0x24 CALLDATALOAD SWAP1 JUMP JUMPDEST SWAP1 DUP2 MLOAD DUP1 DUP3 MSTORE PUSH1 0x20 DUP1 DUP1 SWAP4 ADD SWAP4 ADD SWAP2 PUSH1 0x0 JUMPDEST DUP3 DUP2 LT PUSH2 0x2A10 JUMPI POP POP POP POP SWAP1 JUMP JUMPDEST DUP4 MLOAD DUP6 MSTORE SWAP4 DUP2 ADD SWAP4 SWAP3 DUP2 ADD SWAP3 PUSH1 0x1 ADD PUSH2 0x2A02 JUMP JUMPDEST SWAP1 DUP2 MLOAD DUP1 DUP3 MSTORE PUSH1 0x20 DUP1 DUP1 SWAP4 ADD SWAP4 ADD SWAP2 PUSH1 0x0 JUMPDEST DUP3 DUP2 LT PUSH2 0x2A44 JUMPI POP POP POP POP SWAP1 JUMP JUMPDEST DUP4 MLOAD PUSH1 0x1 PUSH1 0x1 PUSH1 0xA0 SHL SUB AND DUP6 MSTORE SWAP4 DUP2 ADD SWAP4 SWAP3 DUP2 ADD SWAP3 PUSH1 0x1 ADD PUSH2 0x2A36 JUMP JUMPDEST PUSH1 0x24 CALLDATALOAD SWAP1 DUP2 ISZERO ISZERO DUP3 SUB PUSH2 0x14EF JUMPI JUMP JUMPDEST PUSH1 0x7 SLOAD DUP2 LT ISZERO PUSH2 0x2AA7 JUMPI PUSH1 0x7 PUSH1 0x0 MSTORE PUSH32 0xA66CC928B5EDB82AF9BD49922954155AB7B0942694BEA4CE44661D9A8736C688 ADD SWAP1 PUSH1 0x0 SWAP1 JUMP JUMPDEST PUSH4 0x4E487B71 PUSH1 0xE0 SHL PUSH1 0x0 MSTORE PUSH1 0x32 PUSH1 0x4 MSTORE PUSH1 0x24 PUSH1 0x0 REVERT JUMPDEST PUSH1 0x80 DUP2 ADD SWAP1 DUP2 LT PUSH8 0xFFFFFFFFFFFFFFFF DUP3 GT OR PUSH2 0x2AD9 JUMPI PUSH1 0x40 MSTORE JUMP JUMPDEST PUSH4 0x4E487B71 PUSH1 0xE0 SHL PUSH1 0x0 MSTORE PUSH1 0x41 PUSH1 0x4 MSTORE PUSH1 0x24 PUSH1 0x0 REVERT JUMPDEST PUSH8 0xFFFFFFFFFFFFFFFF DUP2 GT PUSH2 0x2AD9 JUMPI PUSH1 0x40 MSTORE JUMP JUMPDEST PUSH1 0x60 DUP2 ADD SWAP1 DUP2 LT PUSH8 0xFFFFFFFFFFFFFFFF DUP3 GT OR PUSH2 0x2AD9 JUMPI PUSH1 0x40 MSTORE JUMP JUMPDEST SWAP1 PUSH1 0x1F DUP1 NOT SWAP2 ADD AND DUP2 ADD SWAP1 DUP2 LT PUSH8 0xFFFFFFFFFFFFFFFF DUP3 GT OR PUSH2 0x2AD9 JUMPI PUSH1 0x40 MSTORE JUMP JUMPDEST MLOAD SWAP1 PUSH10 0xFFFFFFFFFFFFFFFFFFFF DUP3 AND DUP3 SUB PUSH2 0x14EF JUMPI JUMP JUMPDEST SWAP1 DUP2 PUSH1 0xA0 SWAP2 SUB SLT PUSH2 0x14EF JUMPI PUSH2 0x2B6C DUP2 PUSH2 0x2B41 JUMP JUMPDEST SWAP2 PUSH1 0x20 DUP3 ADD MLOAD SWAP2 PUSH1 0x40 DUP2 ADD MLOAD SWAP2 PUSH2 0x2B8A PUSH1 0x80 PUSH1 0x60 DUP5 ADD MLOAD SWAP4 ADD PUSH2 0x2B41 JUMP JUMPDEST SWAP1 JUMP JUMPDEST PUSH1 0x3 SLOAD PUSH1 0x40 MLOAD PUSH4 0x3FABE5A3 PUSH1 0xE2 SHL DUP2 MSTORE SWAP1 PUSH1 0xA0 SWAP1 DUP3 SWAP1 PUSH1 0x4 SWAP1 DUP3 SWAP1 PUSH1 0x1 PUSH1 0x1 PUSH1 0xA0 SHL SUB AND GAS STATICCALL SWAP1 DUP2 ISZERO PUSH2 0x2BE5 JUMPI PUSH1 0x0 SWAP2 PUSH2 0x2BC5 JUMPI POP SWAP1 JUMP JUMPDEST PUSH2 0x2BDD SWAP2 POP PUSH1 0xA0 RETURNDATASIZE DUP2 GT PUSH2 0x1CC7 JUMPI PUSH2 0x1CB4 DUP2 DUP4 PUSH2 0x2B1F JUMP JUMPDEST POP POP POP SWAP1 POP SWAP1 JUMP JUMPDEST PUSH1 0x40 MLOAD RETURNDATASIZE PUSH1 0x0 DUP3 RETURNDATACOPY RETURNDATASIZE SWAP1 REVERT JUMPDEST DUP2 DUP2 MUL SWAP3 SWAP2 DUP2 ISZERO SWAP2 DUP5 DIV EQ OR ISZERO PUSH2 0x2C04 JUMPI JUMP JUMPDEST PUSH4 0x4E487B71 PUSH1 0xE0 SHL PUSH1 0x0 MSTORE PUSH1 0x11 PUSH1 0x4 MSTORE PUSH1 0x24 PUSH1 0x0 REVERT JUMPDEST DUP2 ISZERO PUSH2 0x2C24 JUMPI DIV SWAP1 JUMP JUMPDEST PUSH4 0x4E487B71 PUSH1 0xE0 SHL PUSH1 0x0 MSTORE PUSH1 0x12 PUSH1 0x4 MSTORE PUSH1 0x24 PUSH1 0x0 REVERT JUMPDEST SWAP1 DUP2 PUSH1 0x20 SWAP2 SUB SLT PUSH2 0x14EF JUMPI MLOAD DUP1 ISZERO ISZERO DUP2 SUB PUSH2 0x14EF JUMPI SWAP1 JUMP JUMPDEST SWAP2 SWAP1 DUP3 ADD DUP1 SWAP3 GT PUSH2 0x2C04 JUMPI JUMP JUMPDEST ISZERO PUSH2 0x2C66 JUMPI JUMP JUMPDEST PUSH1 0x40 MLOAD PUSH3 0x461BCD PUSH1 0xE5 SHL DUP2 MSTORE PUSH1 0x20 PUSH1 0x4 DUP3 ADD MSTORE PUSH1 0x11 PUSH1 0x24 DUP3 ADD MSTORE PUSH17 0xAED2E8D0C8E4C2EE40DAD2E6DAC2E8C6D PUSH1 0x7B SHL PUSH1 0x44 DUP3 ADD MSTORE PUSH1 0x64 SWAP1 REVERT JUMPDEST SWAP2 SWAP1 DUP3 SUB SWAP2 DUP3 GT PUSH2 0x2C04 JUMPI JUMP JUMPDEST PUSH8 0xFFFFFFFFFFFFFFFF DUP2 GT PUSH2 0x2AD9 JUMPI PUSH1 0x5 SHL PUSH1 0x20 ADD SWAP1 JUMP JUMPDEST SWAP1 PUSH2 0x2CCE DUP3 PUSH2 0x2CAC JUMP JUMPDEST PUSH2 0x2CDB PUSH1 0x40 MLOAD SWAP2 DUP3 PUSH2 0x2B1F JUMP JUMPDEST DUP3 DUP2 MSTORE DUP1 SWAP3 PUSH2 0x2CEC PUSH1 0x1F NOT SWAP2 PUSH2 0x2CAC JUMP JUMPDEST ADD SWAP1 PUSH1 0x20 CALLDATASIZE SWAP2 ADD CALLDATACOPY JUMP JUMPDEST DUP1 MLOAD ISZERO PUSH2 0x2AA7 JUMPI PUSH1 0x20 ADD SWAP1 JUMP JUMPDEST DUP1 MLOAD PUSH1 0x1 LT ISZERO PUSH2 0x2AA7 JUMPI PUSH1 0x40 ADD SWAP1 JUMP JUMPDEST DUP1 MLOAD DUP3 LT ISZERO PUSH2 0x2AA7 JUMPI PUSH1 0x20 SWAP2 PUSH1 0x5 SHL ADD ADD SWAP1 JUMP JUMPDEST PUSH1 0x20 SWAP1 DUP2 DUP2 DUP5 SUB SLT PUSH2 0x14EF JUMPI DUP1 MLOAD SWAP1 PUSH8 0xFFFFFFFFFFFFFFFF DUP3 GT PUSH2 0x14EF JUMPI ADD SWAP2 DUP1 PUSH1 0x1F DUP5 ADD SLT ISZERO PUSH2 0x14EF JUMPI DUP3 MLOAD PUSH2 0x2D5D DUP2 PUSH2 0x2CAC JUMP JUMPDEST SWAP4 PUSH2 0x2D6B PUSH1 0x40 MLOAD SWAP6 DUP7 PUSH2 0x2B1F JUMP JUMPDEST DUP2 DUP6 MSTORE DUP4 DUP1 DUP7 ADD SWAP3 PUSH1 0x5 SHL DUP3 ADD ADD SWAP3 DUP4 GT PUSH2 0x14EF JUMPI DUP4 ADD SWAP1 JUMPDEST DUP3 DUP3 LT PUSH2 0x2D92 JUMPI POP POP POP POP SWAP1 JUMP JUMPDEST DUP2 MLOAD DUP2 MSTORE SWAP1 DUP4 ADD SWAP1 DUP4 ADD PUSH2 0x2D84 JUMP JUMPDEST SWAP2 SWAP3 PUSH1 0x80 SWAP4 PUSH2 0x2DC6 SWAP3 SWAP8 SWAP7 SWAP6 SWAP8 DUP5 MSTORE PUSH1 0x20 DUP5 ADD MSTORE PUSH1 0xA0 PUSH1 0x40 DUP5 ADD MSTORE PUSH1 0xA0 DUP4 ADD SWAP1 PUSH2 0x2A24 JUMP JUMPDEST PUSH1 0x1 PUSH1 0x1 PUSH1 0xA0 SHL SUB SWAP1 SWAP6 AND PUSH1 0x60 DUP3 ADD MSTORE ADD MSTORE JUMP JUMPDEST SWAP1 DUP1 ISZERO PUSH2 0x2E7A JUMPI DUP2 ISZERO PUSH2 0x2E73 JUMPI DUP2 DUP1 PUSH1 0x1 EQ PUSH2 0x2E6B JUMPI PUSH1 0x2 EQ PUSH2 0x2E5A JUMPI PUSH1 0x20 DUP2 LT PUSH2 0x133 DUP4 LT AND PUSH1 0x4E DUP3 LT PUSH1 0xB DUP5 LT AND OR PUSH2 0x2E55 JUMPI PUSH1 0x1 SWAP1 DUP2 JUMPDEST DUP1 DUP3 GT PUSH2 0x2E2C JUMPI POP POP DUP2 PUSH1 0x0 NOT DIV DUP2 GT PUSH2 0x2C04 JUMPI MUL SWAP1 JUMP JUMPDEST SWAP1 SWAP3 DUP1 PUSH1 0x0 NOT DIV DUP2 GT PUSH2 0x2C04 JUMPI DUP2 DUP5 AND PUSH2 0x2E4C JUMPI JUMPDEST DUP1 MUL SWAP3 DUP2 SHR SWAP1 PUSH2 0x2E14 JUMP JUMPDEST DUP1 SWAP3 MUL SWAP2 PUSH2 0x2E41 JUMP JUMPDEST SWAP1 EXP SWAP1 JUMP JUMPDEST SWAP1 POP PUSH1 0xFF DUP2 GT PUSH2 0x2C04 JUMPI PUSH1 0x1 SWAP1 SHL SWAP1 JUMP JUMPDEST POP POP POP PUSH1 0x1 SWAP1 JUMP JUMPDEST POP POP PUSH1 0x0 SWAP1 JUMP JUMPDEST POP POP PUSH1 0x1 SWAP1 JUMP JUMPDEST PUSH1 0x0 NOT DUP2 EQ PUSH2 0x2C04 JUMPI PUSH1 0x1 ADD SWAP1 JUMP JUMPDEST DUP1 SLOAD DUP3 LT ISZERO PUSH2 0x2AA7 JUMPI PUSH1 0x0 MSTORE PUSH1 0x20 PUSH1 0x0 KECCAK256 SWAP1 PUSH1 0x2 SHL ADD SWAP1 PUSH1 0x0 SWAP1 JUMP JUMPDEST ISZERO PUSH2 0x2EB3 JUMPI JUMP JUMPDEST PUSH1 0x40 MLOAD PUSH3 0x461BCD PUSH1 0xE5 SHL DUP2 MSTORE PUSH1 0x20 PUSH1 0x4 DUP3 ADD MSTORE PUSH1 0x21 PUSH1 0x24 DUP3 ADD MSTORE PUSH32 0x4F6E6C79206F776E65722063616E2063616C6C20746869732066756E6374696F PUSH1 0x44 DUP3 ADD MSTORE PUSH1 0x37 PUSH1 0xF9 SHL PUSH1 0x64 DUP3 ADD MSTORE PUSH1 0x84 SWAP1 REVERT JUMPDEST ISZERO PUSH2 0x2F09 JUMPI JUMP JUMPDEST PUSH1 0x40 MLOAD PUSH3 0x461BCD PUSH1 0xE5 SHL DUP2 MSTORE PUSH1 0x20 PUSH1 0x4 DUP3 ADD MSTORE PUSH1 0x12 PUSH1 0x24 DUP3 ADD MSTORE PUSH18 0x4C6F616E206973206E6F7420616374697665 PUSH1 0x70 SHL PUSH1 0x44 DUP3 ADD MSTORE PUSH1 0x64 SWAP1 REVERT JUMPDEST SWAP2 SWAP1 PUSH1 0x0 SWAP1 DUP4 DUP3 MSTORE PUSH1 0x20 SWAP4 PUSH1 0x5 DUP6 MSTORE PUSH1 0x40 DUP1 DUP5 KECCAK256 SWAP3 DUP1 ISZERO DUP1 DUP1 ISZERO PUSH2 0x33DA JUMPI JUMPDEST DUP1 ISZERO PUSH2 0x33CE JUMPI JUMPDEST PUSH2 0x2FA8 JUMPI PUSH4 0x5F5E100 DUP1 DUP4 MUL SWAP3 DUP4 DIV EQ OR ISZERO PUSH2 0x1EBA JUMPI PUSH2 0x2F90 PUSH1 0xD SWAP2 PUSH1 0x8 DUP7 ADD SLOAD SWAP1 PUSH2 0x2C1A JUMP JUMPDEST SWAP4 ADD SWAP4 DUP5 SLOAD DUP1 DUP6 GT PUSH2 0x33C6 JUMPI JUMPDEST POP DUP4 ISZERO SWAP2 DUP3 ISZERO PUSH2 0x2FB2 JUMPI JUMPDEST POP POP POP POP POP POP SWAP1 POP JUMP JUMPDEST DUP4 DUP3 MSTORE PUSH1 0x5 DUP9 MSTORE DUP1 DUP3 KECCAK256 SWAP8 PUSH1 0xD DUP10 ADD SWAP4 DUP5 SLOAD DUP8 GT PUSH2 0x3374 JUMPI PUSH2 0x3332 JUMPI PUSH1 0x1 DUP1 PUSH1 0xA0 SHL SUB SWAP3 DUP4 PUSH1 0x2 SLOAD AND DUP1 SWAP11 DUP5 MLOAD SWAP6 PUSH4 0x70A08231 PUSH1 0xE0 SHL SWAP8 DUP9 DUP9 MSTORE DUP6 DUP9 PUSH1 0x24 DUP2 PUSH1 0x4 SWAP8 ADDRESS DUP10 DUP4 ADD MSTORE GAS STATICCALL SWAP8 DUP9 ISZERO PUSH2 0x32C8 JUMPI DUP6 SWAP9 PUSH2 0x3301 JUMPI JUMPDEST POP DUP6 DUP12 SWAP13 SWAP14 SWAP15 PUSH2 0x3056 SWAP10 SWAP11 SWAP12 SWAP13 DUP5 DUP9 SLOAD AND SWAP1 DUP9 DUP12 MLOAD DUP1 SWAP14 DUP2 SWAP6 DUP3 SWAP5 PUSH4 0x1A4CA37B PUSH1 0xE2 SHL DUP5 MSTORE ADDRESS SWAP2 DUP14 DUP6 ADD SWAP2 SWAP4 SWAP3 SWAP1 PUSH1 0x40 SWAP2 PUSH1 0x60 DUP5 ADD SWAP6 PUSH1 0x1 DUP1 PUSH1 0xA0 SHL SUB DUP1 SWAP4 AND DUP6 MSTORE PUSH1 0x20 DUP6 ADD MSTORE AND SWAP2 ADD MSTORE JUMP JUMPDEST SUB SWAP3 GAS CALL SWAP8 DUP9 ISZERO PUSH2 0x32C8 JUMPI DUP6 SWAP9 PUSH2 0x32D2 JUMPI JUMPDEST POP DUP6 DUP3 PUSH1 0x2 SLOAD AND SWAP11 PUSH1 0x24 DUP10 MLOAD DUP1 SWAP14 DUP2 SWAP4 DUP3 MSTORE ADDRESS DUP10 DUP4 ADD MSTORE GAS STATICCALL SWAP10 DUP11 ISZERO PUSH2 0x32C8 JUMPI DUP6 SWAP11 PUSH2 0x3295 JUMPI JUMPDEST POP DUP9 DUP11 GT ISZERO PUSH2 0x3247 JUMPI DUP8 ISZERO PUSH2 0x3204 JUMPI PUSH2 0x30EE SWAP3 DUP7 SWAP3 DUP3 PUSH2 0x30B1 DUP12 DUP1 SWAP6 SLOAD PUSH2 0x2C9F JUMP JUMPDEST SWAP1 SSTORE PUSH1 0x1 DUP2 PUSH1 0x2 SLOAD AND SWAP3 ADD SLOAD AND DUP7 DUP10 MLOAD DUP1 SWAP7 DUP2 SWAP6 DUP3 SWAP5 PUSH4 0xA9059CBB PUSH1 0xE0 SHL DUP5 MSTORE DUP11 DUP5 ADD PUSH1 0x20 SWAP1 SWAP4 SWAP3 SWAP2 SWAP4 PUSH1 0x40 DUP2 ADD SWAP5 PUSH1 0x1 DUP1 PUSH1 0xA0 SHL SUB AND DUP2 MSTORE ADD MSTORE JUMP JUMPDEST SUB SWAP3 GAS CALL SWAP1 DUP2 ISZERO PUSH2 0x31FA JUMPI DUP4 SWAP2 PUSH2 0x31DD JUMPI JUMPDEST POP ISZERO PUSH2 0x319A JUMPI POP SWAP3 DUP3 DUP9 PUSH1 0xA0 SWAP7 SWAP4 PUSH32 0x38A556A122683CB48D496614A7A03605B6C2C0482342924CAF483386980ECC9F PUSH1 0x80 PUSH2 0x318C SWAP13 SWAP12 SWAP9 PUSH32 0x971C7EC4A7C96C0A198687499279CCF05D9699970007B5AE5017B1177EE02ED3 SWAP12 SWAP9 MLOAD SWAP1 DUP11 DUP3 MSTORE DUP6 DUP6 DUP4 ADD MSTORE DUP7 DUP3 ADD MSTORE DUP7 PUSH1 0x60 DUP3 ADD MSTORE LOG1 DUP3 MLOAD SWAP7 DUP8 MSTORE DUP7 ADD MSTORE DUP5 ADD MSTORE PUSH1 0x60 DUP4 ADD MSTORE PUSH1 0x80 DUP3 ADD MSTORE LOG1 DUP3 SLOAD PUSH2 0x2C9F JUMP JUMPDEST SWAP1 SSTORE DUP1 CODESIZE DUP1 DUP1 DUP1 DUP1 DUP1 PUSH2 0x2FA8 JUMP JUMPDEST DUP4 MLOAD PUSH3 0x461BCD PUSH1 0xE5 SHL DUP2 MSTORE SWAP1 DUP2 ADD DUP4 SWAP1 MSTORE PUSH1 0x1B PUSH1 0x24 DUP3 ADD MSTORE PUSH32 0x5472616E7366657220746F20626F72726F776572206661696C65640000000000 PUSH1 0x44 DUP3 ADD MSTORE PUSH1 0x64 SWAP1 REVERT JUMPDEST PUSH2 0x31F4 SWAP2 POP DUP5 RETURNDATASIZE DUP7 GT PUSH2 0x3EF JUMPI PUSH2 0x3E0 DUP2 DUP4 PUSH2 0x2B1F JUMP JUMPDEST CODESIZE PUSH2 0x3100 JUMP JUMPDEST DUP6 MLOAD RETURNDATASIZE DUP6 DUP3 RETURNDATACOPY RETURNDATASIZE SWAP1 REVERT JUMPDEST DUP7 MLOAD PUSH3 0x461BCD PUSH1 0xE5 SHL DUP2 MSTORE DUP1 DUP6 ADD DUP8 SWAP1 MSTORE PUSH1 0x1C PUSH1 0x24 DUP3 ADD MSTORE PUSH32 0x556E7374616B652072657475726E6564207A65726F20746F6B656E7300000000 PUSH1 0x44 DUP3 ADD MSTORE PUSH1 0x64 SWAP1 REVERT JUMPDEST DUP7 MLOAD PUSH3 0x461BCD PUSH1 0xE5 SHL DUP2 MSTORE DUP1 DUP6 ADD DUP8 SWAP1 MSTORE PUSH1 0x22 PUSH1 0x24 DUP3 ADD MSTORE PUSH32 0x5769746864726177616C206469646E277420696E6372656173652062616C616E PUSH1 0x44 DUP3 ADD MSTORE PUSH2 0x6365 PUSH1 0xF0 SHL PUSH1 0x64 DUP3 ADD MSTORE PUSH1 0x84 SWAP1 REVERT JUMPDEST SWAP1 SWAP10 POP DUP6 DUP2 DUP2 RETURNDATASIZE DUP4 GT PUSH2 0x32C1 JUMPI JUMPDEST PUSH2 0x32AD DUP2 DUP4 PUSH2 0x2B1F JUMP JUMPDEST DUP2 ADD SUB SLT PUSH2 0x32BD JUMPI MLOAD SWAP9 CODESIZE PUSH2 0x308F JUMP JUMPDEST DUP5 DUP1 REVERT JUMPDEST POP RETURNDATASIZE PUSH2 0x32A3 JUMP JUMPDEST DUP8 MLOAD RETURNDATASIZE DUP8 DUP3 RETURNDATACOPY RETURNDATASIZE SWAP1 REVERT JUMPDEST SWAP1 SWAP8 POP DUP6 DUP2 DUP2 RETURNDATASIZE DUP4 GT PUSH2 0x32FA JUMPI JUMPDEST PUSH2 0x32EA DUP2 DUP4 PUSH2 0x2B1F JUMP JUMPDEST DUP2 ADD SUB SLT PUSH2 0x32BD JUMPI MLOAD SWAP7 CODESIZE PUSH2 0x3068 JUMP JUMPDEST POP RETURNDATASIZE PUSH2 0x32E0 JUMP JUMPDEST SWAP14 SWAP8 POP DUP6 DUP15 DUP2 RETURNDATASIZE DUP4 GT PUSH2 0x332B JUMPI JUMPDEST PUSH2 0x3319 DUP2 DUP4 PUSH2 0x2B1F JUMP JUMPDEST DUP2 ADD SUB SLT PUSH2 0x32BD JUMPI SWAP13 MLOAD SWAP7 SWAP13 DUP6 PUSH2 0x3009 JUMP JUMPDEST POP RETURNDATASIZE PUSH2 0x330F JUMP JUMPDEST PUSH1 0x64 SWAP2 MLOAD SWAP1 PUSH3 0x461BCD PUSH1 0xE5 SHL DUP3 MSTORE PUSH1 0x4 DUP3 ADD MSTORE PUSH1 0x1A PUSH1 0x24 DUP3 ADD MSTORE PUSH32 0x43616E6E6F7420756E7374616B65207A65726F20616D6F756E74000000000000 PUSH1 0x44 DUP3 ADD MSTORE REVERT JUMPDEST POP PUSH1 0x84 SWAP2 MLOAD SWAP1 PUSH3 0x461BCD PUSH1 0xE5 SHL DUP3 MSTORE PUSH1 0x4 DUP3 ADD MSTORE PUSH1 0x26 PUSH1 0x24 DUP3 ADD MSTORE PUSH32 0x43616E6E6F7420756E7374616B65206D6F7265207468616E207374616B656420 PUSH1 0x44 DUP3 ADD MSTORE PUSH6 0x185B5BDD5B9D PUSH1 0xD2 SHL PUSH1 0x64 DUP3 ADD MSTORE REVERT JUMPDEST SWAP4 POP CODESIZE PUSH2 0x2F9D JUMP JUMPDEST POP PUSH1 0xD DUP6 ADD SLOAD ISZERO PUSH2 0x2F69 JUMP JUMPDEST POP PUSH1 0x8 DUP6 ADD SLOAD ISZERO PUSH2 0x2F62 JUMP JUMPDEST SWAP2 SWAP1 SWAP2 PUSH1 0x0 SWAP3 DUP2 DUP5 MSTORE PUSH1 0x20 PUSH1 0x5 DUP2 MSTORE PUSH1 0x40 PUSH1 0xD DUP2 DUP8 KECCAK256 ADD SWAP3 DUP4 SLOAD DUP2 GT PUSH2 0x3819 JUMPI DUP1 ISZERO PUSH2 0x37D5 JUMPI PUSH1 0x1 DUP1 PUSH1 0xA0 SHL SUB SWAP3 DUP4 PUSH1 0x2 SLOAD AND SWAP8 DUP4 MLOAD SWAP5 DUP10 DUP7 PUSH4 0x70A08231 PUSH1 0xE0 SHL SWAP9 DUP10 DUP3 MSTORE DUP6 DUP3 PUSH1 0x4 SWAP5 ADDRESS DUP7 DUP4 ADD MSTORE PUSH1 0x24 SWAP5 DUP6 SWAP2 GAS STATICCALL SWAP9 DUP10 ISZERO PUSH2 0x36AD JUMPI DUP6 SWAP10 PUSH2 0x37A4 JUMPI JUMPDEST POP DUP5 SLOAD DUP9 MLOAD PUSH4 0x1A4CA37B PUSH1 0xE2 SHL DUP2 MSTORE PUSH1 0x1 PUSH1 0x1 PUSH1 0xA0 SHL SUB SWAP15 SWAP1 SWAP15 AND DUP5 DUP16 ADD SWAP1 DUP2 MSTORE PUSH1 0x20 DUP2 ADD DUP10 SWAP1 MSTORE ADDRESS PUSH1 0x40 DUP3 ADD MSTORE SWAP13 SWAP14 SWAP12 SWAP13 SWAP11 SWAP12 SWAP10 SWAP11 DUP8 SWAP2 DUP12 SWAP2 DUP3 SWAP1 SUB PUSH1 0x60 ADD SWAP1 DUP3 SWAP1 DUP10 SWAP1 DUP10 AND GAS CALL SWAP9 DUP10 ISZERO PUSH2 0x36AD JUMPI DUP6 SWAP10 PUSH2 0x3775 JUMPI JUMPDEST POP DUP6 DUP5 PUSH1 0x2 SLOAD AND SWAP12 DUP4 DUP11 MLOAD DUP1 SWAP15 DUP2 SWAP4 DUP3 MSTORE ADDRESS DUP9 DUP4 ADD MSTORE GAS STATICCALL SWAP11 DUP12 ISZERO PUSH2 0x36AD JUMPI DUP6 SWAP12 PUSH2 0x3746 JUMPI JUMPDEST POP DUP10 DUP12 GT ISZERO PUSH2 0x36F9 JUMPI DUP9 ISZERO PUSH2 0x36B7 JUMPI PUSH2 0x34E1 DUP10 DUP3 SLOAD PUSH2 0x2C9F JUMP JUMPDEST SWAP1 SSTORE PUSH1 0x2 SLOAD PUSH1 0x1 SLOAD DUP9 MLOAD PUSH4 0x95EA7B3 PUSH1 0xE0 SHL DUP2 MSTORE SWAP1 DUP6 AND PUSH1 0x1 PUSH1 0x1 PUSH1 0xA0 SHL SUB AND DUP5 DUP3 ADD SWAP1 DUP2 MSTORE PUSH1 0x20 DUP2 ADD DUP12 SWAP1 MSTORE SWAP1 SWAP2 DUP8 SWAP2 DUP4 SWAP2 DUP8 AND SWAP1 DUP3 SWAP1 DUP10 SWAP1 DUP3 SWAP1 PUSH1 0x40 ADD SUB SWAP3 GAS CALL DUP1 ISZERO PUSH2 0x36AD JUMPI PUSH2 0x3690 JUMPI JUMPDEST POP DUP7 MLOAD SWAP2 PUSH2 0x353C DUP4 PUSH2 0x2B03 JUMP JUMPDEST PUSH1 0x2 DUP4 MSTORE DUP8 CALLDATASIZE DUP8 DUP6 ADD CALLDATACOPY DUP4 PUSH1 0x2 SLOAD AND PUSH2 0x3554 DUP5 PUSH2 0x2CF6 JUMP JUMPDEST MSTORE DUP4 PUSH1 0x9 SLOAD AND PUSH2 0x3563 DUP5 PUSH2 0x2D03 JUMP JUMPDEST MSTORE PUSH1 0x5F DUP10 MUL SWAP4 DUP10 DUP6 DIV PUSH1 0x5F SUB PUSH2 0x367E JUMPI PUSH1 0x1 SLOAD AND SWAP2 PUSH2 0x12C TIMESTAMP ADD SWAP1 DUP2 TIMESTAMP GT PUSH2 0x366D JUMPI POP SWAP1 DUP6 DUP11 PUSH2 0x35B0 DUP3 SWAP7 SWAP6 SWAP5 DUP13 MLOAD SWAP9 DUP10 SWAP8 DUP9 SWAP7 DUP8 SWAP6 PUSH4 0x38ED1739 PUSH1 0xE0 SHL DUP8 MSTORE PUSH1 0x64 ADDRESS SWAP5 DIV SWAP2 DUP8 ADD PUSH2 0x2DA1 JUMP JUMPDEST SUB SWAP3 GAS CALL SWAP1 DUP2 ISZERO PUSH2 0x3663 JUMPI PUSH1 0x80 DUP4 PUSH2 0x361A PUSH32 0x971C7EC4A7C96C0A198687499279CCF05D9699970007B5AE5017B1177EE02ED3 SWAP13 SWAP11 SWAP9 SWAP7 SWAP5 PUSH32 0x38A556A122683CB48D496614A7A03605B6C2C0482342924CAF483386980ECC9F SWAP5 PUSH1 0xA0 SWAP14 SWAP12 SWAP10 SWAP8 SWAP2 PUSH2 0x3649 JUMPI POP PUSH2 0x2D03 JUMP JUMPDEST MLOAD SWAP1 DUP7 MLOAD SWAP2 DUP12 DUP4 MSTORE DUP7 DUP7 DUP5 ADD MSTORE DUP8 DUP4 ADD MSTORE PUSH1 0x60 DUP3 ADD MSTORE LOG1 DUP3 MLOAD SWAP7 DUP8 MSTORE DUP7 ADD MSTORE DUP5 ADD MSTORE PUSH1 0x60 DUP4 ADD MSTORE PUSH1 0x80 DUP3 ADD MSTORE LOG1 JUMP JUMPDEST PUSH2 0x365D SWAP2 POP RETURNDATASIZE DUP1 DUP6 DUP4 RETURNDATACOPY PUSH2 0x1C30 DUP2 DUP4 PUSH2 0x2B1F JUMP JUMPDEST CODESIZE PUSH2 0x1A43 JUMP JUMPDEST DUP6 MLOAD RETURNDATASIZE DUP5 DUP3 RETURNDATACOPY RETURNDATASIZE SWAP1 REVERT JUMPDEST PUSH4 0x4E487B71 PUSH1 0xE0 SHL DUP8 MSTORE PUSH1 0x11 DUP4 MSTORE DUP7 REVERT JUMPDEST POP PUSH4 0x4E487B71 PUSH1 0xE0 SHL DUP6 MSTORE PUSH1 0x11 SWAP1 MSTORE DUP4 REVERT JUMPDEST PUSH2 0x36A6 SWAP1 DUP7 RETURNDATASIZE DUP9 GT PUSH2 0x3EF JUMPI PUSH2 0x3E0 DUP2 DUP4 PUSH2 0x2B1F JUMP JUMPDEST POP CODESIZE PUSH2 0x352F JUMP JUMPDEST DUP9 MLOAD RETURNDATASIZE DUP8 DUP3 RETURNDATACOPY RETURNDATASIZE SWAP1 REVERT JUMPDEST DUP8 MLOAD PUSH3 0x461BCD PUSH1 0xE5 SHL DUP2 MSTORE DUP1 DUP5 ADD DUP8 SWAP1 MSTORE PUSH1 0x1C DUP2 DUP5 ADD MSTORE PUSH32 0x556E7374616B652072657475726E6564207A65726F20746F6B656E7300000000 PUSH1 0x44 DUP3 ADD MSTORE PUSH1 0x64 SWAP1 REVERT JUMPDEST DUP8 MLOAD PUSH3 0x461BCD PUSH1 0xE5 SHL DUP2 MSTORE DUP1 DUP5 ADD DUP8 SWAP1 MSTORE PUSH1 0x22 DUP2 DUP5 ADD MSTORE PUSH32 0x5769746864726177616C206469646E277420696E6372656173652062616C616E PUSH1 0x44 DUP3 ADD MSTORE PUSH2 0x6365 PUSH1 0xF0 SHL PUSH1 0x64 DUP3 ADD MSTORE PUSH1 0x84 SWAP1 REVERT JUMPDEST SWAP1 SWAP11 POP DUP6 DUP2 DUP2 RETURNDATASIZE DUP4 GT PUSH2 0x376E JUMPI JUMPDEST PUSH2 0x375E DUP2 DUP4 PUSH2 0x2B1F JUMP JUMPDEST DUP2 ADD SUB SLT PUSH2 0x32BD JUMPI MLOAD SWAP10 CODESIZE PUSH2 0x34C7 JUMP JUMPDEST POP RETURNDATASIZE PUSH2 0x3754 JUMP JUMPDEST SWAP1 SWAP9 POP DUP6 DUP2 DUP2 RETURNDATASIZE DUP4 GT PUSH2 0x379D JUMPI JUMPDEST PUSH2 0x378D DUP2 DUP4 PUSH2 0x2B1F JUMP JUMPDEST DUP2 ADD SUB SLT PUSH2 0x32BD JUMPI MLOAD SWAP8 CODESIZE PUSH2 0x34A1 JUMP JUMPDEST POP RETURNDATASIZE PUSH2 0x3783 JUMP JUMPDEST SWAP13 SWAP9 POP DUP6 DUP14 DUP2 RETURNDATASIZE DUP4 GT PUSH2 0x37CE JUMPI JUMPDEST PUSH2 0x37BC DUP2 DUP4 PUSH2 0x2B1F JUMP JUMPDEST DUP2 ADD SUB SLT PUSH2 0x32BD JUMPI SWAP12 MLOAD SWAP8 SWAP12 DUP6 PUSH2 0x344A JUMP JUMPDEST POP RETURNDATASIZE PUSH2 0x37B2 JUMP JUMPDEST DUP2 MLOAD PUSH3 0x461BCD PUSH1 0xE5 SHL DUP2 MSTORE PUSH1 0x4 DUP2 ADD DUP5 SWAP1 MSTORE PUSH1 0x1A PUSH1 0x24 DUP3 ADD MSTORE PUSH32 0x43616E6E6F7420756E7374616B65207A65726F20616D6F756E74000000000000 PUSH1 0x44 DUP3 ADD MSTORE PUSH1 0x64 SWAP1 REVERT JUMPDEST DUP2 MLOAD PUSH3 0x461BCD PUSH1 0xE5 SHL DUP2 MSTORE PUSH1 0x4 DUP2 ADD DUP5 SWAP1 MSTORE PUSH1 0x26 PUSH1 0x24 DUP3 ADD MSTORE PUSH32 0x43616E6E6F7420756E7374616B65206D6F7265207468616E207374616B656420 PUSH1 0x44 DUP3 ADD MSTORE PUSH6 0x185B5BDD5B9D PUSH1 0xD2 SHL PUSH1 0x64 DUP3 ADD MSTORE PUSH1 0x84 SWAP1 REVERT JUMPDEST DUP1 SLOAD DUP3 LT ISZERO PUSH2 0x2AA7 JUMPI PUSH1 0x0 MSTORE PUSH1 0x5 PUSH1 0x20 PUSH1 0x0 KECCAK256 SWAP2 MUL ADD SWAP1 PUSH1 0x0 SWAP1 JUMP JUMPDEST PUSH1 0x0 SWAP1 DUP2 MSTORE PUSH1 0x5 PUSH1 0x20 MSTORE PUSH1 0x40 DUP2 KECCAK256 PUSH1 0x2 DUP2 ADD SLOAD SWAP1 SWAP4 SWAP3 DUP2 ISZERO PUSH2 0x38DE JUMPI PUSH8 0xDE0B6B3A7640000 SWAP3 DUP4 DUP3 MUL SWAP2 DUP1 DUP4 DIV DUP6 EQ SWAP1 ISZERO OR ISZERO PUSH2 0x1257 JUMPI POP SWAP4 PUSH2 0x38D0 PUSH2 0x38DA SWAP3 PUSH1 0xD SWAP7 PUSH2 0x2C1A JUMP JUMPDEST SWAP5 DUP6 SWAP2 ADD SLOAD PUSH2 0x2BF1 JUMP JUMPDEST DIV SWAP1 JUMP JUMPDEST POP POP DUP1 SWAP3 POP SWAP2 SWAP1 JUMP JUMPDEST ISZERO PUSH2 0x38EE JUMPI JUMP JUMPDEST PUSH1 0x40 MLOAD PUSH3 0x461BCD PUSH1 0xE5 SHL DUP2 MSTORE PUSH1 0x20 PUSH1 0x4 DUP3 ADD MSTORE PUSH1 0xC PUSH1 0x24 DUP3 ADD MSTORE PUSH12 0x8CCACA40E8DEDE40D0D2CED PUSH1 0xA3 SHL PUSH1 0x44 DUP3 ADD MSTORE PUSH1 0x64 SWAP1 REVERT JUMPDEST ISZERO PUSH2 0x3929 JUMPI JUMP JUMPDEST PUSH1 0x40 MLOAD PUSH3 0x461BCD PUSH1 0xE5 SHL DUP2 MSTORE PUSH1 0x20 PUSH1 0x4 DUP3 ADD MSTORE PUSH1 0x12 PUSH1 0x24 DUP3 ADD MSTORE PUSH18 0x416D6F756E74206D757374206265203E203 PUSH1 0x74 SHL PUSH1 0x44 DUP3 ADD MSTORE PUSH1 0x64 SWAP1 REVERT INVALID LOG2 PUSH5 0x6970667358 0x22 SLT KECCAK256 PUSH27 0x31227219E842B9CC1BEB091128289BCDDE13D79703D80C7F90D5FE ADD 0xD4 EXP CODESIZE PUSH5 0x736F6C6343 STOP ADDMOD EQ STOP CALLER "},"methodIdentifiers":{"aavePool()":"a03e4bc3","accumulatedFees()":"587f5ed7","cbBtcToken()":"0e462386","chainlinkOracle()":"ef06e72c","computeLoanParts(uint256)":"6221fa30","debugUnstakeCalc(bytes32,uint256)":"5206d2d0","depositToPool(uint256,bool)":"f58901fa","earlyClosureFeeBps()":"0662bcc4","getAmortizationSchedule(bytes32)":"1fc8f4df","getContributions(bytes32)":"86a2e274","getDownPaymentBasisPoints(uint256,uint256)":"7c5b2960","getInstallmentSchedule(bytes32)":"6c1945ae","getLoanRequirements(uint256,uint256)":"17007125","getPrice()":"98d5fdca","getStakedAmount(bytes32)":"337a1737","hasActiveLoan(address)":"21d4f8db","lenderPoolBalance(address)":"a20ce486","lenders(address)":"28fd10d7","liquidate(bytes32)":"0a71096e","liquidateIfOverdue(bytes32)":"28830d47","loan(uint256,uint256,uint256,uint256)":"29055efc","loanIds(uint256)":"f8715a42","loans(bytes32)":"c4a90815","markInstallmentPaid(bytes32,uint256)":"c9642d2a","missedPaymentFeeBps()":"63eed603","originationFeeBps()":"31739bb7","owner()":"8da5cb5b","payouts(bytes32,uint256)":"80f2122c","setAavePool(address)":"349f937c","setCbBtcToken(address)":"83cd8fcf","setChainlinkOracle(address)":"7a9b0412","setEarlyClosureFee(uint256)":"dcfc8ebf","setInsuranceTaken(bytes32,bool)":"a990201c","setMissedPaymentFee(uint256)":"b2f00452","setOriginationFee(uint256)":"7f2006a0","setSwapRouter(address)":"41273657","swapRouter()":"c31c9c07","totalPoolBalance()":"5026d63e","usdcToken()":"11eac855","withdrawAccumulatedFees(address)":"c1f10663","withdrawFromPool(uint256)":"30fc43ed"}}}}}