{
  "_format": "hh-sol-artifact-1",
  "contractName": "LendingPool",
  "sourceName": "Contracts/Lending.sol",
  "abi": [
    {
      "inputs": [
        {
          "internalType": "address",
          "name": "usdc",
          "type": "address"
        },
        {
          "internalType": "address",
          "name": "_cbBtcToken",
          "type": "address"
        },
        {
          "internalType": "address",
          "name": "oracleAddress",
          "type": "address"
        },
        {
          "internalType": "address",
          "name": "_aavePool",
          "type": "address"
        },
        {
          "internalType": "address",
          "name": "_swapRouter",
          "type": "address"
        }
      ],
      "stateMutability": "nonpayable",
      "type": "constructor"
    },
    {
      "anonymous": false,
      "inputs": [
        {
          "indexed": false,
          "internalType": "bytes32",
          "name": "loanId",
          "type": "bytes32"
        },
        {
          "indexed": false,
          "internalType": "uint256",
          "name": "requested",
          "type": "uint256"
        },
        {
          "indexed": false,
          "internalType": "uint256",
          "name": "actualWithdrawn",
          "type": "uint256"
        },
        {
          "indexed": false,
          "internalType": "uint256",
          "name": "preBalance",
          "type": "uint256"
        },
        {
          "indexed": false,
          "internalType": "uint256",
          "name": "postBalance",
          "type": "uint256"
        }
      ],
      "name": "DebugUnstake",
      "type": "event"
    },
    {
      "anonymous": false,
      "inputs": [
        {
          "indexed": false,
          "internalType": "bytes32",
          "name": "loanId",
          "type": "bytes32"
        },
        {
          "indexed": false,
          "internalType": "uint256",
          "name": "principalRepaid",
          "type": "uint256"
        },
        {
          "indexed": false,
          "internalType": "uint256",
          "name": "proportionRepaid",
          "type": "uint256"
        },
        {
          "indexed": false,
          "internalType": "uint256",
          "name": "cbBtcToUnstake",
          "type": "uint256"
        }
      ],
      "name": "DebugUnstakeProportion",
      "type": "event"
    },
    {
      "anonymous": false,
      "inputs": [
        {
          "indexed": false,
          "internalType": "bytes32",
          "name": "loanId",
          "type": "bytes32"
        },
        {
          "indexed": false,
          "internalType": "uint256",
          "name": "index",
          "type": "uint256"
        }
      ],
      "name": "InstallmentPaid",
      "type": "event"
    },
    {
      "anonymous": false,
      "inputs": [
        {
          "indexed": false,
          "internalType": "bytes32",
          "name": "id",
          "type": "bytes32"
        },
        {
          "indexed": false,
          "internalType": "uint256",
          "name": "amount",
          "type": "uint256"
        },
        {
          "indexed": false,
          "internalType": "uint256",
          "name": "collateral",
          "type": "uint256"
        },
        {
          "indexed": false,
          "internalType": "address",
          "name": "borrower",
          "type": "address"
        }
      ],
      "name": "LoanCreated",
      "type": "event"
    },
    {
      "anonymous": false,
      "inputs": [
        {
          "indexed": false,
          "internalType": "bytes32",
          "name": "id",
          "type": "bytes32"
        },
        {
          "indexed": false,
          "internalType": "address",
          "name": "borrower",
          "type": "address"
        },
        {
          "indexed": false,
          "internalType": "uint256",
          "name": "btcPriceNow",
          "type": "uint256"
        }
      ],
      "name": "LoanLiquidated",
      "type": "event"
    },
    {
      "anonymous": false,
      "inputs": [
        {
          "indexed": false,
          "internalType": "bytes32",
          "name": "loanId",
          "type": "bytes32"
        },
        {
          "indexed": false,
          "internalType": "address",
          "name": "borrower",
          "type": "address"
        },
        {
          "indexed": false,
          "internalType": "uint256",
          "name": "amount",
          "type": "uint256"
        },
        {
          "indexed": false,
          "internalType": "bool",
          "name": "fullyRepaid",
          "type": "bool"
        }
      ],
      "name": "Payout",
      "type": "event"
    },
    {
      "anonymous": false,
      "inputs": [
        {
          "indexed": false,
          "internalType": "bytes32",
          "name": "loanId",
          "type": "bytes32"
        },
        {
          "indexed": false,
          "internalType": "uint256",
          "name": "usdcAmount",
          "type": "uint256"
        },
        {
          "indexed": false,
          "internalType": "uint256",
          "name": "cbBtcAmount",
          "type": "uint256"
        }
      ],
      "name": "TokensStaked",
      "type": "event"
    },
    {
      "anonymous": false,
      "inputs": [
        {
          "indexed": false,
          "internalType": "bytes32",
          "name": "loanId",
          "type": "bytes32"
        },
        {
          "indexed": false,
          "internalType": "uint256",
          "name": "cbBtcAmount",
          "type": "uint256"
        },
        {
          "indexed": false,
          "internalType": "uint256",
          "name": "usdcAmount",
          "type": "uint256"
        },
        {
          "indexed": false,
          "internalType": "uint256",
          "name": "borrowerCbBtcShare",
          "type": "uint256"
        }
      ],
      "name": "TokensUnstaked",
      "type": "event"
    },
    {
      "inputs": [],
      "name": "aavePool",
      "outputs": [
        {
          "internalType": "contract IAavePool",
          "name": "",
          "type": "address"
        }
      ],
      "stateMutability": "view",
      "type": "function"
    },
    {
      "inputs": [],
      "name": "cbBtcToken",
      "outputs": [
        {
          "internalType": "address",
          "name": "",
          "type": "address"
        }
      ],
      "stateMutability": "view",
      "type": "function"
    },
    {
      "inputs": [],
      "name": "chainlinkOracle",
      "outputs": [
        {
          "internalType": "contract AggregatorV3Interface",
          "name": "",
          "type": "address"
        }
      ],
      "stateMutability": "view",
      "type": "function"
    },
    {
      "inputs": [
        {
          "internalType": "bytes32",
          "name": "loanId",
          "type": "bytes32"
        },
        {
          "internalType": "uint256",
          "name": "principalRepaid",
          "type": "uint256"
        }
      ],
      "name": "debugUnstakeCalc",
      "outputs": [
        {
          "internalType": "uint256",
          "name": "proportionRepaid",
          "type": "uint256"
        },
        {
          "internalType": "uint256",
          "name": "cbBtcToUnstake",
          "type": "uint256"
        }
      ],
      "stateMutability": "view",
      "type": "function"
    },
    {
      "inputs": [
        {
          "internalType": "bytes32",
          "name": "loanId",
          "type": "bytes32"
        }
      ],
      "name": "getAmortizationSchedule",
      "outputs": [
        {
          "internalType": "uint256[]",
          "name": "principals",
          "type": "uint256[]"
        },
        {
          "internalType": "uint256[]",
          "name": "interests",
          "type": "uint256[]"
        },
        {
          "internalType": "bool[]",
          "name": "paidStatuses",
          "type": "bool[]"
        }
      ],
      "stateMutability": "view",
      "type": "function"
    },
    {
      "inputs": [
        {
          "internalType": "bytes32",
          "name": "loanId",
          "type": "bytes32"
        }
      ],
      "name": "getInstallmentSchedule",
      "outputs": [
        {
          "components": [
            {
              "internalType": "uint256",
              "name": "duePrincipal",
              "type": "uint256"
            },
            {
              "internalType": "uint256",
              "name": "dueInterest",
              "type": "uint256"
            },
            {
              "internalType": "bool",
              "name": "paid",
              "type": "bool"
            },
            {
              "internalType": "uint256",
              "name": "dueTimestamp",
              "type": "uint256"
            }
          ],
          "internalType": "struct LendingPool.Installment[]",
          "name": "",
          "type": "tuple[]"
        }
      ],
      "stateMutability": "view",
      "type": "function"
    },
    {
      "inputs": [],
      "name": "getPrice",
      "outputs": [
        {
          "internalType": "int256",
          "name": "",
          "type": "int256"
        }
      ],
      "stateMutability": "view",
      "type": "function"
    },
    {
      "inputs": [
        {
          "internalType": "bytes32",
          "name": "loanId",
          "type": "bytes32"
        }
      ],
      "name": "getStakedAmount",
      "outputs": [
        {
          "internalType": "uint256",
          "name": "",
          "type": "uint256"
        }
      ],
      "stateMutability": "view",
      "type": "function"
    },
    {
      "inputs": [
        {
          "internalType": "address",
          "name": "",
          "type": "address"
        }
      ],
      "name": "hasActiveLoan",
      "outputs": [
        {
          "internalType": "bool",
          "name": "",
          "type": "bool"
        }
      ],
      "stateMutability": "view",
      "type": "function"
    },
    {
      "inputs": [
        {
          "internalType": "address",
          "name": "",
          "type": "address"
        }
      ],
      "name": "lenders",
      "outputs": [
        {
          "internalType": "uint256",
          "name": "totalContributed",
          "type": "uint256"
        }
      ],
      "stateMutability": "view",
      "type": "function"
    },
    {
      "inputs": [
        {
          "internalType": "bytes32",
          "name": "loanId",
          "type": "bytes32"
        }
      ],
      "name": "liquidate",
      "outputs": [],
      "stateMutability": "nonpayable",
      "type": "function"
    },
    {
      "inputs": [
        {
          "internalType": "bytes32",
          "name": "loanId",
          "type": "bytes32"
        }
      ],
      "name": "liquidateIfOverdue",
      "outputs": [],
      "stateMutability": "nonpayable",
      "type": "function"
    },
    {
      "inputs": [
        {
          "internalType": "uint256",
          "name": "totalAmount",
          "type": "uint256"
        },
        {
          "internalType": "uint256",
          "name": "durationMonths",
          "type": "uint256"
        },
        {
          "internalType": "uint256",
          "name": "annualInterestRate",
          "type": "uint256"
        },
        {
          "internalType": "address[]",
          "name": "lenderAddresses",
          "type": "address[]"
        },
        {
          "internalType": "uint256[]",
          "name": "lenderAmounts",
          "type": "uint256[]"
        }
      ],
      "name": "loan",
      "outputs": [],
      "stateMutability": "nonpayable",
      "type": "function"
    },
    {
      "inputs": [
        {
          "internalType": "uint256",
          "name": "",
          "type": "uint256"
        }
      ],
      "name": "loanIds",
      "outputs": [
        {
          "internalType": "bytes32",
          "name": "",
          "type": "bytes32"
        }
      ],
      "stateMutability": "view",
      "type": "function"
    },
    {
      "inputs": [
        {
          "internalType": "bytes32",
          "name": "",
          "type": "bytes32"
        }
      ],
      "name": "loans",
      "outputs": [
        {
          "internalType": "bytes32",
          "name": "id",
          "type": "bytes32"
        },
        {
          "internalType": "address",
          "name": "borrower",
          "type": "address"
        },
        {
          "internalType": "uint256",
          "name": "principal",
          "type": "uint256"
        },
        {
          "internalType": "uint256",
          "name": "borrowerDeposit",
          "type": "uint256"
        },
        {
          "internalType": "uint256",
          "name": "interestRate",
          "type": "uint256"
        },
        {
          "internalType": "uint256",
          "name": "duration",
          "type": "uint256"
        },
        {
          "internalType": "uint256",
          "name": "monthlyPayment",
          "type": "uint256"
        },
        {
          "internalType": "uint256",
          "name": "startTime",
          "type": "uint256"
        },
        {
          "internalType": "uint256",
          "name": "btcPriceAtCreation",
          "type": "uint256"
        },
        {
          "internalType": "bool",
          "name": "isActive",
          "type": "bool"
        },
        {
          "internalType": "uint256",
          "name": "totalAmount",
          "type": "uint256"
        },
        {
          "internalType": "uint256",
          "name": "stakedAmount",
          "type": "uint256"
        },
        {
          "internalType": "uint256",
          "name": "remainingPrincipal",
          "type": "uint256"
        }
      ],
      "stateMutability": "view",
      "type": "function"
    },
    {
      "inputs": [
        {
          "internalType": "bytes32",
          "name": "loanId",
          "type": "bytes32"
        },
        {
          "internalType": "uint256",
          "name": "index",
          "type": "uint256"
        }
      ],
      "name": "markInstallmentPaid",
      "outputs": [],
      "stateMutability": "nonpayable",
      "type": "function"
    },
    {
      "inputs": [],
      "name": "owner",
      "outputs": [
        {
          "internalType": "address",
          "name": "",
          "type": "address"
        }
      ],
      "stateMutability": "view",
      "type": "function"
    },
    {
      "inputs": [
        {
          "internalType": "bytes32",
          "name": "loanId",
          "type": "bytes32"
        },
        {
          "internalType": "uint256",
          "name": "usdcAmount",
          "type": "uint256"
        }
      ],
      "name": "payouts",
      "outputs": [],
      "stateMutability": "nonpayable",
      "type": "function"
    },
    {
      "inputs": [
        {
          "internalType": "address",
          "name": "_aavePool",
          "type": "address"
        }
      ],
      "name": "setAavePool",
      "outputs": [],
      "stateMutability": "nonpayable",
      "type": "function"
    },
    {
      "inputs": [
        {
          "internalType": "address",
          "name": "_cbBtcToken",
          "type": "address"
        }
      ],
      "name": "setCbBtcToken",
      "outputs": [],
      "stateMutability": "nonpayable",
      "type": "function"
    },
    {
      "inputs": [
        {
          "internalType": "address",
          "name": "oracleAddress",
          "type": "address"
        }
      ],
      "name": "setChainlinkOracle",
      "outputs": [],
      "stateMutability": "nonpayable",
      "type": "function"
    },
    {
      "inputs": [
        {
          "internalType": "address",
          "name": "_swapRouter",
          "type": "address"
        }
      ],
      "name": "setSwapRouter",
      "outputs": [],
      "stateMutability": "nonpayable",
      "type": "function"
    },
    {
      "inputs": [],
      "name": "swapRouter",
      "outputs": [
        {
          "internalType": "contract ISwapRouter",
          "name": "",
          "type": "address"
        }
      ],
      "stateMutability": "view",
      "type": "function"
    },
    {
      "inputs": [],
      "name": "usdcToken",
      "outputs": [
        {
          "internalType": "address",
          "name": "",
          "type": "address"
        }
      ],
      "stateMutability": "view",
      "type": "function"
    }
  ],
  "bytecode": "0x608034620000ec57601f62002f0338819003918201601f19168301916001600160401b03831184841017620000f15780849260a094604052833981010312620000ec576200004d8162000107565b906200005c6020820162000107565b906200006b6040820162000107565b91620000886080620000806060850162000107565b930162000107565b9160018060a01b0319943386600854161760085560018060a01b03948580948180941689600954161760095516876002541617600255168560035416176003551683600054161760005516906001541617600155604051612de690816200011d8239f35b600080fd5b634e487b7160e01b600052604160045260246000fd5b51906001600160a01b0382168203620000ec5756fe6080604052600436101561001257600080fd5b6000803560e01c80630a71096e14611c505780630e46238614611c2757806311eac85514611bfe5780631fc8f4df14611acd57806321d4f8db14611a8b57806328830d47146117a557806328fd10d714611768578063337a17371461173b578063349f937c146116f257806341273657146116a55780635206d2d01461167f57806366fb6e5a1461098d5780636c1945ae1461088c5780637a9b04121461083f57806380f2122c1461046d57806383cd8fcf1461041c5780638da5cb5b146103f357806398d5fdca146103d0578063a03e4bc3146103a9578063c31c9c0714610380578063c4a90815146102c2578063c9642d2a14610189578063ef06e72c146101605763f8715a421461012557600080fd5b3461015d57602036600319011261015d576004359060075482101561015d57602061014f83611f67565b90546040519160031b1c8152f35b80fd5b503461015d578060031936011261015d576003546040516001600160a01b039091168152602090f35b503461015d5761019836611f1b565b906101ae60018060a01b0360085416331461237a565b8083526005602052600c604084206101cc60ff6009830154166123d0565b0190815483101561027d5760ff60026101e5858561235e565b500154166102385782600261021d7f3d05ac2057427ac2f84502e7efefebf5ae10d9529129c2979ce60fb97d4606149560409561235e565b5001805460ff1916600117905582519182526020820152a180f35b60405162461bcd60e51b815260206004820152601f60248201527f496e7374616c6c6d656e7420616c7265616479206d61726b65642070616964006044820152606490fd5b60405162461bcd60e51b815260206004820152601960248201527f496e76616c696420696e7374616c6c6d656e7420696e646578000000000000006044820152606490fd5b503461015d57602036600319011261015d5760406101a091600435815260056020522080549060018060a01b03600182015416906002810154600382015460048301546005840154600685015460078601549160088701549360ff60098901541695600a89015497600e600d8b01549a01549a6040519c8d5260208d015260408c015260608b015260808a015260a089015260c088015260e08701526101008601521515610120850152610140840152610160830152610180820152f35b503461015d578060031936011261015d576001546040516001600160a01b039091168152602090f35b503461015d578060031936011261015d57546040516001600160a01b039091168152602090f35b503461015d578060031936011261015d5760206103eb612070565b604051908152f35b503461015d578060031936011261015d576008546040516001600160a01b039091168152602090f35b503461015d57602036600319011261015d576004356001600160a01b0381811691829003610469576104539060085416331461237a565b6001600160601b0360a01b600254161760025580f35b8280fd5b503461015d5761047c36611f1b565b908083526005602052604083209061049a60ff6009840154166123d0565b60018201546001600160a01b031633036107fa576009546040516323b872dd60e01b815233600482015230602482015260448101859052906020908290606490829089906001600160a01b03165af180156107ef576107d0575b50829084855b600c8501548110806107c7575b156107725761051981600c870161235e565b508054801561072d5760ff6002830154166107225760018201549061053e828261217e565b80881015610559575b505050506105549061227c565b6104fa565b9061056e610574928298959b949a979961226f565b9761217e565b906002850154968a5b600b8701548110156106cb5761059681600b890161229b565b50600181015480670de0b6b3a7640000810204670de0b6b3a764000014811517156106b7578d61065e93928d61062e670de0b6b3a76400008f8f826105ec6105e56105f3948360209c0261215e565b8093612135565b0494612135565b046003840161060384825461217e565b90556004840161061482825461217e565b905560095493546001600160a01b0394851694169261217e565b60405163a9059cbb60e01b81526001600160a01b0390921660048301526024820152948592839182906044820190565b03925af19182156106ac576106789261067d575b5061227c565b61057d565b61069e9060203d6020116106a5575b6106968183612002565b8101906120d4565b5038610672565b503d61068c565b6040513d8f823e3d90fd5b634e487b7160e01b8e52601160045260248efd5b5096509790939650610554929194506002600160ff198284015416179101557f3d05ac2057427ac2f84502e7efefebf5ae10d9529129c2979ce60fb97d46061460408051868152836020820152a190388080610547565b50506105549061227c565b60405162461bcd60e51b815260206004820152601860248201527f496e7374616c6c6d656e7420616c7265616479207061696400000000000000006044820152606490fd5b867fdc376abd09229a842ac7d8bcadc9017651f1f1b8490750870cae0ecd4aedf674608085876107ac818c6107a78a86612411565b61226f565b6040519283523360208401526040830152156060820152a180f35b50831515610507565b6107e89060203d6020116106a5576106968183612002565b50386104f4565b6040513d87823e3d90fd5b60405162461bcd60e51b815260206004820152601760248201527f4f6e6c7920626f72726f7765722063616e2072657061790000000000000000006044820152606490fd5b503461015d57602036600319011261015d576004356001600160a01b0381811691829003610469576108769060085416331461237a565b6001600160601b0360a01b600354161760035580f35b503461015d576020908160031936011261015d5790600435825260058152600c604083200180546108bc816120ec565b906108ca6040519283612002565b8082528382018093865284862086915b83831061093e57505050506040519280840191818552518092526040840192945b8281106109085784840385f35b855180518552808301518584015260408082015115159086015260609081015190850152948101946080909301926001016108fb565b60048760019260409a9997989a5161095581611fb4565b85548152848601548382015260ff600287015416151560408201526003860154606082015281520192019201919096949395966108da565b503461015d5760a036600319011261015d5760643567ffffffffffffffff811161167b576109bf903690600401611f36565b9060843567ffffffffffffffff8111611677576109e0903690600401611f36565b9260043515611641576024351561160957338552600660205260ff6040862054166115b85783810361155e57801561152357601460043502916004358304601403610ff857610a346064840460043561226f565b6009546040516323b872dd60e01b8152336004820152306024820152606480870460448301529296929091602091839182908c906001600160a01b03165af18015611518576114f9575b509084929160405160208101903360601b825242603482015260348152610aa481611fe6565b519020968789526005602052606460408a209689885560018801336001600160601b0360a01b825416179055600435600a89015586600289015504600387015560443560048701556024356005870155426007870155610b02612070565b600887015560098601805460ff19166001179055600e86018590558893845b8181106112b85750505050500361126257670de0b6b3a764000060443502906044358204670de0b6b3a76400001460443515171561124e57610b676104b0830484612135565b6104b08304670de0b6b3a764000001670de0b6b3a764000011610ff8576104b08304670de0b6b3a7640000011561123a57610bbc6024356104b08504670de0b6b3a764000001670de0b6b3a7640000046122b7565b670de0b6b3a76400000390670de0b6b3a76400008211610fe457600691610be29161215e565b91015582845260056020526040842091670de0b6b3a764000081865b6024358110611210575081610c1b610c20926104b0870490612135565b612135565b9080670de0b6b3a763ffff19810111610fe457670de0b6b3a764000091610c5291670de0b6b3a763ffff19019061215e565b0480600685015585915b60243583106110a8578686600754600160401b81101561109457806001610c869201600755611f67565b815460001960039290921b91821b19169083901b179055338252600660209081526040808420805460ff1916600190811790915583855260058352818520600a8101546009549254935163095ea7b360e01b81526001600160a01b039485166004820152602481018290529194909391929091839160449183918a91165af180156107ef57611075575b50604051610d1d81611fe6565b6002815260403660208301376009546001600160a01b0316610d3e82612104565b526002546001600160a01b0316610d5482612111565b52600354604051633fabe5a360e21b81529060a090829060049082906001600160a01b03165afa908115610f8d578691611041575b508581131561100c576305f5e100808402908482041484151715610fe45790610db19161215e565b80606281020460621481151715610ff8576001546001600160a01b0316914261012c810110610fe45791610e0f9391878094604051968795869485936338ed173960e01b855261012c42019260646062309402049060048701612205565b03925af18015610fd957610e2a918591610fb7575b50612111565b518284526005602090815260408086206002548754925163095ea7b360e01b81526001600160a01b0393841660048201526024810186905291939192839160449183918b91165af18015610f8d57610f98575b50845460025486916001600160a01b039182169116803b156104695760848392604051948593849263617ba03760e01b845260048401528860248401523060448401528160648401525af18015610f8d57610f5c575b506080927faeec09af87559b9077da2e499d1fad2e228d7c24cb4b566fe61976820abaadda6060846002857f65410888fb30edd04f6acfb2f6cfd92aaf0ebb9b5303b6286d65d0b031b5b7f79997600d60039801550154906040519187835260208301526040820152a1015460405191825260043560208301526040820152336060820152a180f35b67ffffffffffffffff8196929611610f7957604052936080610ed3565b634e487b7160e01b82526041600452602482fd5b6040513d88823e3d90fd5b610fb09060203d6020116106a5576106968183612002565b5085610e7d565b610fd391503d8087833e610fcb8183612002565b81019061218b565b85610e24565b6040513d86823e3d90fd5b634e487b7160e01b87526011600452602487fd5b634e487b7160e01b86526011600452602486fd5b60405162461bcd60e51b815260206004820152600d60248201526c496e76616c696420707269636560981b6044820152606490fd5b611063915060a03d60a01161106e575b61105b8183612002565b81019061203b565b505050905086610d89565b503d611051565b61108d9060203d6020116106a5576106968183612002565b5084610d10565b634e487b7160e01b83526041600452602483fd5b670de0b6b3a76400006110bf6104b0860483612135565b04908183111561120a576110d3828461226f565b916024356000198101116111f6576024356000190185146111e1575b62278d0085818102048114861517156111cd5761110e9086024261217e565b6040519161111b83611fb4565b84835260208301528960408301526060820152600c870154600160401b8110156111b9578060016111559201600c8a0155600c890161235e565b9190916111a5579161119f939160036060856111999651845560208101516001850155600284016040820151151560ff80198354169116179055015191015561226f565b9261227c565b91610c5c565b634e487b7160e01b8a5260048a905260248afd5b634e487b7160e01b8a52604160045260248afd5b634e487b7160e01b8a52601160045260248afd5b92509050806111f0838261217e565b926110ef565b634e487b7160e01b89526011600452602489fd5b876110d3565b91670de0b6b3a764000061122e611235926104b08804830190612135565b049261227c565b610bfe565b634e487b7160e01b86526012600452602486fd5b634e487b7160e01b85526011600452602485fd5b60405162461bcd60e51b815260206004820152602860248201527f436f6c6c656374656420616d6f756e7420646f65736e2774206d6174636820706044820152671c9a5b98da5c185b60c21b6064820152608490fd5b909192939495506112ca81838661228b565b356001600160a01b03811681036114f5576112e682858861228b565b359687156114b8578b90602061133c60018060a01b03600954168b6040519586809481936323b872dd60e01b8352308b6004850160409194939294606082019560018060a01b0380921683521660208201520152565b03925af19081156106ac57611358928a92611499575b5061217e565b9660018060a01b0382168c52600460205260408c2061137882825461217e565b90556104b061138f602435610c1b60443585612135565b0490604051928360a081011067ffffffffffffffff60a0860111176114855760a0840160405260018060a01b03168352602083015260408201528a60608201528a6080820152600b880154600160401b811015611471578060016113fc9201600b8b0155600b8a0161229b565b91909161145d57805182546001600160a01b0319166001600160a01b0391909116178255602081015160018301556040810151600283015560608101516003830155608001516004909101556114519061227c565b90879594939291610b21565b634e487b7160e01b8c5260048c905260248cfd5b634e487b7160e01b8c52604160045260248cfd5b634e487b7160e01b8e52604160045260248efd5b6114b19060203d6020116106a5576106968183612002565b5038611352565b60405162461bcd60e51b8152602060048201526015602482015274125b9d985b1a59081b195b99195c88185b5bdd5b9d605a1b6044820152606490fd5b8a80fd5b6115119060203d6020116106a5576106968183612002565b5038610a7e565b6040513d8a823e3d90fd5b60405162461bcd60e51b8152602060048201526013602482015272139bc81b195b99195c9cc81c1c9bdd9a591959606a1b6044820152606490fd5b60405162461bcd60e51b815260206004820152602c60248201527f4c656e6465722061646472657373657320616e6420616d6f756e7473206c656e60448201526b0cee8d040dad2e6dac2e8c6d60a31b6064820152608490fd5b60405162461bcd60e51b815260206004820152602360248201527f426f72726f77657220616c72656164792068617320616e20616374697665206c60448201526237b0b760e91b6064820152608490fd5b60405162461bcd60e51b815260206004820152601060248201526f24b73b30b634b210323ab930ba34b7b760811b6044820152606490fd5b60405162461bcd60e51b815260206004820152600e60248201526d125b9d985b1a5908185b5bdd5b9d60921b6044820152606490fd5b8380fd5b5080fd5b503461015d57604061169961169336611f1b565b90612d0b565b82519182526020820152f35b503461015d57602036600319011261015d576004356001600160a01b0381811691829003610469576116dc9060085416331461237a565b6001600160601b0360a01b600154161760015580f35b503461015d57602036600319011261015d576004356001600160a01b0381811691829003610469576117299060085416331461237a565b81546001600160a01b03191617815580f35b503461015d57602036600319011261015d57600d6040602092600435815260058452200154604051908152f35b503461015d57602036600319011261015d576004356001600160a01b0381169081900361167b578160409160209352600483522054604051908152f35b503461015d5760208060031936011261167b5760043560018060a01b036117d18160085416331461237a565b8184526005835260408420926009908185019182549260ff6117f48186166123d0565b88908990600c8a018054925b838110611a3b57505050506276a70010156119e15760ff1980941690556001808701938585541689526006845260408920908154169055600d870154806119d1575b50600380880154600e89015491826118b6575b8a7fcab88a55906c5830a49dddd8b31d115294a5e6c4210f25fe140530a39c51dc748a8a8a5416906118b0611888612070565b604080519384526001600160a01b039094166020840152928201929092529081906060820190565b0390a180f35b9091928099600b8c9101915b6118cd575b50611855565b81548110156119cc576118e0818361229b565b506118f28c820154858301549061226f565b8c81156119bb5750670de0b6b3a76400009081810290810482036119a7578796959493928f919261193061192a61196c9b8e9661215e565b89612135565b04918d808c541692541690604051809b8195829463a9059cbb60e01b84526004840160209093929193604081019460018060a01b031681520152565b03925af19081156106ac578c9661198792611991575061227c565b90919293946118c2565b61069e908a3d8c116106a5576106968183612002565b634e487b7160e01b8f52601160045260248ffd5b96959493929050611987915061227c565b6118c7565b6119db9087612889565b38611842565b60405162461bcd60e51b815260048101849052602c60248201527f4c6f616e206973206e6f74206f766572647565206265796f6e642033206d6f6e60448201526b1d1a1cc81a5b881d1bdd185b60a21b6064820152608490fd5b611a45818361235e565b5083600282015416611a5d5760030154804211611a6c575b50611a679061227c565b611800565b611a679195611a7e611a84924261226f565b9061217e565b9490611a5d565b503461015d57602036600319011261015d576004356001600160a01b0381169081900361167b5760408260ff9260209452600684522054166040519015158152f35b503461015d5760208060031936011261167b5790600435815260058252600c6040822001805491611afd83612d7e565b92611b0781612d7e565b611b10826120ec565b91611b1e6040519384612002565b808352611b2a816120ec565b8388019590601f1901368737845b828110611ba6575050509480611b6c611b5f9760405198899860608a5260608a0190611ee7565b90888203848a0152611ee7565b92868403604088015251928381520193925b828110611b8d57505050500390f35b8351151585528695509381019392810192600101611b7e565b8060ff6002611bbe611bf394869d9a999b9c9d61235e565b508054611bcb858f612121565b526001810154611bdb858a612121565b52015416611be9828a612121565b901515905261227c565b979695939497611b38565b503461015d578060031936011261015d576009546040516001600160a01b039091168152602090f35b503461015d578060031936011261015d576002546040516001600160a01b039091168152602090f35b503461015d57602036600319011261015d57611c7760018060a01b0360085416331461237a565b600435815260056020526040812060098101805491611c9860ff84166123d0565b611ca0612070565b91600d82016305f5e100611cb5858354612135565b0491600e84019283546069810290808204606914901517156111f6576064900410611e845760ff1995861690556001830180546001600160a01b0316875260066020526040872080549096169095555480611e72575b50600382015490549182611d6a575b505091546040805160043581526001600160a01b0390921660208301528101919091527fcab88a55906c5830a49dddd8b31d115294a5e6c4210f25fe140530a39c51dc74915080606081016118b0565b909192855b600b830154811015611e4557611d8881600b850161229b565b50611d9c600182015460038301549061226f565b8015611e3a5780670de0b6b3a7640000810204670de0b6b3a7640000036111f657611e1c9291670de0b6b3a7640000611ddc61192a8a836020960261215e565b600954925460405163a9059cbb60e01b81526001600160a01b039182166004820152929091046024830152909485929091169082908c9082906044820190565b03925af191821561151857611e359261067d575061227c565b611d6f565b5050611e359061227c565b50925050507fcab88a55906c5830a49dddd8b31d115294a5e6c4210f25fe140530a39c51dc743880611d1a565b611e7e90600435612889565b38611d0b565b60405162461bcd60e51b815260206004820152603560248201527f4254432076616c756520686173206e6f742064726f707065642062656c6f77206044820152741b1a5c5d5a59185d1a5bdb881d1a1c995cda1bdb19605a1b6064820152608490fd5b90815180825260208080930193019160005b828110611f07575050505090565b835185529381019392810192600101611ef9565b6040906003190112611f31576004359060243590565b600080fd5b9181601f84011215611f315782359167ffffffffffffffff8311611f31576020808501948460051b010111611f3157565b600754811015611f9e5760076000527fa66cc928b5edb82af9bd49922954155ab7b0942694bea4ce44661d9a8736c6880190600090565b634e487b7160e01b600052603260045260246000fd5b6080810190811067ffffffffffffffff821117611fd057604052565b634e487b7160e01b600052604160045260246000fd5b6060810190811067ffffffffffffffff821117611fd057604052565b90601f8019910116810190811067ffffffffffffffff821117611fd057604052565b519069ffffffffffffffffffff82168203611f3157565b908160a0910312611f315761204f81612024565b9160208201519160408101519161206d608060608401519301612024565b90565b600354604051633fabe5a360e21b81529060a090829060049082906001600160a01b03165afa9081156120c8576000916120a8575090565b6120c0915060a03d811161106e5761105b8183612002565b505050905090565b6040513d6000823e3d90fd5b90816020910312611f3157518015158103611f315790565b67ffffffffffffffff8111611fd05760051b60200190565b805115611f9e5760200190565b805160011015611f9e5760400190565b8051821015611f9e5760209160051b010190565b8181029291811591840414171561214857565b634e487b7160e01b600052601160045260246000fd5b8115612168570490565b634e487b7160e01b600052601260045260246000fd5b9190820180921161214857565b6020908181840312611f315780519067ffffffffffffffff8211611f3157019180601f84011215611f315782516121c1816120ec565b936121cf6040519586612002565b818552838086019260051b820101928311611f31578301905b8282106121f6575050505090565b815181529083019083016121e8565b9291909594939560a084019084526020918285015260a0604085015282518091528160c0850193019160005b8281106122525750505050906080919460018060a01b031660608201520152565b83516001600160a01b031685529381019392810192600101612231565b9190820391821161214857565b60001981146121485760010190565b9190811015611f9e5760051b0190565b8054821015611f9e576000526005602060002091020190600090565b908015612357578115612350578180600114612348576002146123375760208110610133831016604e8210600b8410161761233257600190815b80821161230957505081600019048111612148570290565b90928060001904811161214857818416612329575b800292811c906122f1565b8092029161231e565b900a90565b905060ff8111612148576001901b90565b505050600190565b5050600090565b5050600190565b8054821015611f9e5760005260206000209060021b0190600090565b1561238157565b60405162461bcd60e51b815260206004820152602160248201527f4f6e6c79206f776e65722063616e2063616c6c20746869732066756e6374696f6044820152603760f91b6064820152608490fd5b156123d757565b60405162461bcd60e51b81526020600482015260126024820152714c6f616e206973206e6f742061637469766560701b6044820152606490fd5b90600091808352602060058152604080852093801580801561287d575b8015612871575b612474576305f5e100808302928304141715610ff85761245c600d9160088701549061215e565b9401948554808611612869575b50841591821561247d575b50505050505050565b8482526005845280822093600d85019384548811612817576127d55760018060a01b03928360025416938351956370a0823160e01b9788885260049230848a0152602492868a85818c5afa998a1561276d57869a6127a6575b50868d6064848954169b898c519d8e948593631a4ca37b60e21b85528c8501528a8401523060448401525af198891561276d578699612777575b508682600254169b858a51809e81938252308a8301525afa9a8b1561276d57869b61273a575b50898b11156126ed5788156126ab57612595928792826125588c80955461226f565b90556001816002541692015416878a5180968195829463a9059cbb60e01b84528b840160209093929193604081019460018060a01b031681520152565b03925af19081156126a1578491612684575b501561264257505092828860a096937f38a556a122683cb48d496614a7a03605b6c2c0482342924caf483386980ecc9f60806126349c9b987f971c7ec4a7c96c0a198687499279ccf05d9699970007b5ae5017b1177ee02ed39b9851908a8252858583015286820152866060820152a1825196875286015284015260608301526080820152a1825461226f565b905538808080808080612474565b845162461bcd60e51b8152918201849052601b908201527f5472616e7366657220746f20626f72726f776572206661696c656400000000006044820152606490fd5b61269b9150853d87116106a5576106968183612002565b386125a7565b86513d86823e3d90fd5b875162461bcd60e51b8152808601889052601c818601527f556e7374616b652072657475726e6564207a65726f20746f6b656e73000000006044820152606490fd5b875162461bcd60e51b81528086018890526022818601527f5769746864726177616c206469646e277420696e6372656173652062616c616e604482015261636560f01b6064820152608490fd5b909a508681813d8311612766575b6127528183612002565b8101031261276257519938612536565b8580fd5b503d612748565b88513d88823e3d90fd5b9098508681813d831161279f575b61278f8183612002565b8101031261276257519738612510565b503d612785565b9099508681813d83116127ce575b6127be8183612002565b81010312612762575198386124d6565b503d6127b4565b606491519062461bcd60e51b82526004820152601a60248201527f43616e6e6f7420756e7374616b65207a65726f20616d6f756e740000000000006044820152fd5b50608491519062461bcd60e51b82526004820152602660248201527f43616e6e6f7420756e7374616b65206d6f7265207468616e207374616b656420604482015265185b5bdd5b9d60d21b6064820152fd5b945038612469565b50600d86015415612435565b5060088601541561242e565b90600090828252602091600583526040600d818320019283548111612cb8578015612c745760025482516370a0823160e01b808252306004808401919091529097919691926001600160a01b03926024918416858a8481845afa998a15612c6a57899a612c37575b5090858594939260648b97885416918b519c8d938492631a4ca37b60e21b8452898401528c888401523060448401525af1988915612b3c578599612c08575b508584600254169b838a51809e8193825230888301525afa9a8b15612b3c57859b612bd5575b50898b1115612b88578815612b465761297089825461226f565b9055600254600154885163095ea7b360e01b81529085166001600160a01b0316848201908152602081018b905290918791839187169082908990829060400103925af18015612b3c57612b1f575b508651916129cb83611fe6565b6002835287368785013783600254166129e384612104565b5283600954166129f284612111565b52605f890293898504605f03612b0d57600154169161012c420190814211612afc575090858a612a3f829695948c51988997889687956338ed173960e01b87526064309404918701612205565b03925af1908115612af257608083612aa97f971c7ec4a7c96c0a198687499279ccf05d9699970007b5ae5017b1177ee02ed39c9a9896947f38a556a122683cb48d496614a7a03605b6c2c0482342924caf483386980ecc9f9460a09d9b999791612ad85750612111565b51908651918b83528686840152878301526060820152a1825196875286015284015260608301526080820152a1565b612aec91503d8085833e610fcb8183612002565b38610e24565b85513d84823e3d90fd5b634e487b7160e01b87526011835286fd5b50634e487b7160e01b85526011905283fd5b612b3590863d88116106a5576106968183612002565b50386129be565b88513d87823e3d90fd5b875162461bcd60e51b8152808401879052601c818401527f556e7374616b652072657475726e6564207a65726f20746f6b656e73000000006044820152606490fd5b875162461bcd60e51b81528084018790526022818401527f5769746864726177616c206469646e277420696e6372656173652062616c616e604482015261636560f01b6064820152608490fd5b909a508581813d8311612c01575b612bed8183612002565b81010312612bfd57519938612956565b8480fd5b503d612be3565b9098508581813d8311612c30575b612c208183612002565b81010312612bfd57519738612930565b503d612c16565b9099508581813d8311612c63575b612c4f8183612002565b81010312612c5f575198856128f1565b8880fd5b503d612c45565b88513d8b823e3d90fd5b815162461bcd60e51b815260048101869052601a60248201527f43616e6e6f7420756e7374616b65207a65726f20616d6f756e740000000000006044820152606490fd5b815162461bcd60e51b815260048101869052602660248201527f43616e6e6f7420756e7374616b65206d6f7265207468616e207374616b656420604482015265185b5bdd5b9d60d21b6064820152608490fd5b600090815260056020526040812060028101549093928115612d7557670de0b6b3a76400009283820291808304851490151715612d61575093612d53612d5d92600d9661215e565b9485910154612135565b0490565b634e487b7160e01b81526011600452602490fd5b50508092509190565b90612d88826120ec565b612d956040519182612002565b8281528092612da6601f19916120ec565b019060203691013756fea264697066735822122061a3ab8e0e450f842eef006f0bcedae14f82884ed68c28e0604ab98b36b018e564736f6c63430008140033",
  "linkReferences": {},
  "deployedLinkReferences": {}
}