{
  "_format": "hh-sol-artifact-1",
  "contractName": "LendingPool",
  "sourceName": "Contracts/Lending.sol",
  "abi": [
    {
      "inputs": [
        {
          "internalType": "address",
          "name": "usdc",
          "type": "address"
        },
        {
          "internalType": "address",
          "name": "_cbBtcToken",
          "type": "address"
        },
        {
          "internalType": "address",
          "name": "oracleAddress",
          "type": "address"
        },
        {
          "internalType": "address",
          "name": "_aavePool",
          "type": "address"
        },
        {
          "internalType": "address",
          "name": "_swapRouter",
          "type": "address"
        }
      ],
      "stateMutability": "nonpayable",
      "type": "constructor"
    },
    {
      "anonymous": false,
      "inputs": [
        {
          "indexed": false,
          "internalType": "bytes32",
          "name": "loanId",
          "type": "bytes32"
        },
        {
          "indexed": false,
          "internalType": "uint256",
          "name": "requested",
          "type": "uint256"
        },
        {
          "indexed": false,
          "internalType": "uint256",
          "name": "actualWithdrawn",
          "type": "uint256"
        },
        {
          "indexed": false,
          "internalType": "uint256",
          "name": "preBalance",
          "type": "uint256"
        },
        {
          "indexed": false,
          "internalType": "uint256",
          "name": "postBalance",
          "type": "uint256"
        }
      ],
      "name": "DebugUnstake",
      "type": "event"
    },
    {
      "anonymous": false,
      "inputs": [
        {
          "indexed": false,
          "internalType": "bytes32",
          "name": "loanId",
          "type": "bytes32"
        },
        {
          "indexed": false,
          "internalType": "uint256",
          "name": "principalRepaid",
          "type": "uint256"
        },
        {
          "indexed": false,
          "internalType": "uint256",
          "name": "proportionRepaid",
          "type": "uint256"
        },
        {
          "indexed": false,
          "internalType": "uint256",
          "name": "cbBtcToUnstake",
          "type": "uint256"
        }
      ],
      "name": "DebugUnstakeProportion",
      "type": "event"
    },
    {
      "anonymous": false,
      "inputs": [
        {
          "indexed": false,
          "internalType": "bytes32",
          "name": "loanId",
          "type": "bytes32"
        },
        {
          "indexed": false,
          "internalType": "uint256",
          "name": "index",
          "type": "uint256"
        }
      ],
      "name": "InstallmentPaid",
      "type": "event"
    },
    {
      "anonymous": false,
      "inputs": [
        {
          "indexed": false,
          "internalType": "bytes32",
          "name": "id",
          "type": "bytes32"
        },
        {
          "indexed": false,
          "internalType": "uint256",
          "name": "amount",
          "type": "uint256"
        },
        {
          "indexed": false,
          "internalType": "uint256",
          "name": "collateral",
          "type": "uint256"
        },
        {
          "indexed": false,
          "internalType": "address",
          "name": "borrower",
          "type": "address"
        }
      ],
      "name": "LoanCreated",
      "type": "event"
    },
    {
      "anonymous": false,
      "inputs": [
        {
          "indexed": false,
          "internalType": "bytes32",
          "name": "id",
          "type": "bytes32"
        },
        {
          "indexed": false,
          "internalType": "address",
          "name": "borrower",
          "type": "address"
        },
        {
          "indexed": false,
          "internalType": "uint256",
          "name": "btcPriceNow",
          "type": "uint256"
        }
      ],
      "name": "LoanLiquidated",
      "type": "event"
    },
    {
      "anonymous": false,
      "inputs": [
        {
          "indexed": false,
          "internalType": "bytes32",
          "name": "loanId",
          "type": "bytes32"
        },
        {
          "indexed": false,
          "internalType": "address",
          "name": "borrower",
          "type": "address"
        },
        {
          "indexed": false,
          "internalType": "uint256",
          "name": "amount",
          "type": "uint256"
        },
        {
          "indexed": false,
          "internalType": "bool",
          "name": "fullyRepaid",
          "type": "bool"
        }
      ],
      "name": "Payout",
      "type": "event"
    },
    {
      "anonymous": false,
      "inputs": [
        {
          "indexed": false,
          "internalType": "bytes32",
          "name": "loanId",
          "type": "bytes32"
        },
        {
          "indexed": false,
          "internalType": "uint256",
          "name": "usdcAmount",
          "type": "uint256"
        },
        {
          "indexed": false,
          "internalType": "uint256",
          "name": "cbBtcAmount",
          "type": "uint256"
        }
      ],
      "name": "TokensStaked",
      "type": "event"
    },
    {
      "anonymous": false,
      "inputs": [
        {
          "indexed": false,
          "internalType": "bytes32",
          "name": "loanId",
          "type": "bytes32"
        },
        {
          "indexed": false,
          "internalType": "uint256",
          "name": "cbBtcAmount",
          "type": "uint256"
        },
        {
          "indexed": false,
          "internalType": "uint256",
          "name": "usdcAmount",
          "type": "uint256"
        },
        {
          "indexed": false,
          "internalType": "uint256",
          "name": "borrowerCbBtcShare",
          "type": "uint256"
        }
      ],
      "name": "TokensUnstaked",
      "type": "event"
    },
    {
      "inputs": [],
      "name": "aavePool",
      "outputs": [
        {
          "internalType": "contract IAavePool",
          "name": "",
          "type": "address"
        }
      ],
      "stateMutability": "view",
      "type": "function"
    },
    {
      "inputs": [],
      "name": "cbBtcToken",
      "outputs": [
        {
          "internalType": "address",
          "name": "",
          "type": "address"
        }
      ],
      "stateMutability": "view",
      "type": "function"
    },
    {
      "inputs": [],
      "name": "chainlinkOracle",
      "outputs": [
        {
          "internalType": "contract AggregatorV3Interface",
          "name": "",
          "type": "address"
        }
      ],
      "stateMutability": "view",
      "type": "function"
    },
    {
      "inputs": [
        {
          "internalType": "bytes32",
          "name": "loanId",
          "type": "bytes32"
        },
        {
          "internalType": "bool",
          "name": "status",
          "type": "bool"
        }
      ],
      "name": "changeInsuranceStatus",
      "outputs": [],
      "stateMutability": "nonpayable",
      "type": "function"
    },
    {
      "inputs": [
        {
          "internalType": "bytes32",
          "name": "loanId",
          "type": "bytes32"
        },
        {
          "internalType": "uint256",
          "name": "principalRepaid",
          "type": "uint256"
        }
      ],
      "name": "debugUnstakeCalc",
      "outputs": [
        {
          "internalType": "uint256",
          "name": "proportionRepaid",
          "type": "uint256"
        },
        {
          "internalType": "uint256",
          "name": "cbBtcToUnstake",
          "type": "uint256"
        }
      ],
      "stateMutability": "view",
      "type": "function"
    },
    {
      "inputs": [
        {
          "internalType": "bytes32",
          "name": "loanId",
          "type": "bytes32"
        }
      ],
      "name": "getAmortizationSchedule",
      "outputs": [
        {
          "internalType": "uint256[]",
          "name": "principals",
          "type": "uint256[]"
        },
        {
          "internalType": "uint256[]",
          "name": "interests",
          "type": "uint256[]"
        },
        {
          "internalType": "bool[]",
          "name": "paidStatuses",
          "type": "bool[]"
        }
      ],
      "stateMutability": "view",
      "type": "function"
    },
    {
      "inputs": [
        {
          "internalType": "bytes32",
          "name": "loanId",
          "type": "bytes32"
        }
      ],
      "name": "getContributions",
      "outputs": [
        {
          "internalType": "address[]",
          "name": "lenders",
          "type": "address[]"
        },
        {
          "internalType": "uint256[]",
          "name": "amounts",
          "type": "uint256[]"
        },
        {
          "internalType": "uint256[]",
          "name": "receivableInterests",
          "type": "uint256[]"
        },
        {
          "internalType": "uint256[]",
          "name": "repaidPrincipals",
          "type": "uint256[]"
        },
        {
          "internalType": "uint256[]",
          "name": "repaidInterests",
          "type": "uint256[]"
        }
      ],
      "stateMutability": "view",
      "type": "function"
    },
    {
      "inputs": [
        {
          "internalType": "bytes32",
          "name": "loanId",
          "type": "bytes32"
        }
      ],
      "name": "getInstallmentSchedule",
      "outputs": [
        {
          "components": [
            {
              "internalType": "uint256",
              "name": "duePrincipal",
              "type": "uint256"
            },
            {
              "internalType": "uint256",
              "name": "dueInterest",
              "type": "uint256"
            },
            {
              "internalType": "bool",
              "name": "paid",
              "type": "bool"
            },
            {
              "internalType": "uint256",
              "name": "dueTimestamp",
              "type": "uint256"
            }
          ],
          "internalType": "struct LendingPool.Installment[]",
          "name": "",
          "type": "tuple[]"
        }
      ],
      "stateMutability": "view",
      "type": "function"
    },
    {
      "inputs": [],
      "name": "getPrice",
      "outputs": [
        {
          "internalType": "int256",
          "name": "",
          "type": "int256"
        }
      ],
      "stateMutability": "view",
      "type": "function"
    },
    {
      "inputs": [
        {
          "internalType": "bytes32",
          "name": "loanId",
          "type": "bytes32"
        }
      ],
      "name": "getStakedAmount",
      "outputs": [
        {
          "internalType": "uint256",
          "name": "",
          "type": "uint256"
        }
      ],
      "stateMutability": "view",
      "type": "function"
    },
    {
      "inputs": [
        {
          "internalType": "address",
          "name": "",
          "type": "address"
        }
      ],
      "name": "hasActiveLoan",
      "outputs": [
        {
          "internalType": "bool",
          "name": "",
          "type": "bool"
        }
      ],
      "stateMutability": "view",
      "type": "function"
    },
    {
      "inputs": [
        {
          "internalType": "address",
          "name": "",
          "type": "address"
        }
      ],
      "name": "lenders",
      "outputs": [
        {
          "internalType": "uint256",
          "name": "totalContributed",
          "type": "uint256"
        }
      ],
      "stateMutability": "view",
      "type": "function"
    },
    {
      "inputs": [
        {
          "internalType": "bytes32",
          "name": "loanId",
          "type": "bytes32"
        }
      ],
      "name": "liquidate",
      "outputs": [],
      "stateMutability": "nonpayable",
      "type": "function"
    },
    {
      "inputs": [
        {
          "internalType": "bytes32",
          "name": "loanId",
          "type": "bytes32"
        }
      ],
      "name": "liquidateIfOverdue",
      "outputs": [],
      "stateMutability": "nonpayable",
      "type": "function"
    },
    {
      "inputs": [
        {
          "internalType": "uint256",
          "name": "totalAmount",
          "type": "uint256"
        },
        {
          "internalType": "uint256",
          "name": "durationMonths",
          "type": "uint256"
        },
        {
          "internalType": "uint256",
          "name": "annualInterestRate",
          "type": "uint256"
        },
        {
          "internalType": "address[]",
          "name": "lenderAddresses",
          "type": "address[]"
        },
        {
          "internalType": "uint256[]",
          "name": "lenderAmounts",
          "type": "uint256[]"
        }
      ],
      "name": "loan",
      "outputs": [],
      "stateMutability": "nonpayable",
      "type": "function"
    },
    {
      "inputs": [
        {
          "internalType": "uint256",
          "name": "",
          "type": "uint256"
        }
      ],
      "name": "loanIds",
      "outputs": [
        {
          "internalType": "bytes32",
          "name": "",
          "type": "bytes32"
        }
      ],
      "stateMutability": "view",
      "type": "function"
    },
    {
      "inputs": [
        {
          "internalType": "bytes32",
          "name": "",
          "type": "bytes32"
        }
      ],
      "name": "loans",
      "outputs": [
        {
          "internalType": "bytes32",
          "name": "id",
          "type": "bytes32"
        },
        {
          "internalType": "address",
          "name": "borrower",
          "type": "address"
        },
        {
          "internalType": "uint256",
          "name": "principal",
          "type": "uint256"
        },
        {
          "internalType": "uint256",
          "name": "borrowerDeposit",
          "type": "uint256"
        },
        {
          "internalType": "uint256",
          "name": "interestRate",
          "type": "uint256"
        },
        {
          "internalType": "uint256",
          "name": "duration",
          "type": "uint256"
        },
        {
          "internalType": "uint256",
          "name": "monthlyPayment",
          "type": "uint256"
        },
        {
          "internalType": "uint256",
          "name": "startTime",
          "type": "uint256"
        },
        {
          "internalType": "uint256",
          "name": "btcPriceAtCreation",
          "type": "uint256"
        },
        {
          "internalType": "bool",
          "name": "isActive",
          "type": "bool"
        },
        {
          "internalType": "uint256",
          "name": "totalAmount",
          "type": "uint256"
        },
        {
          "internalType": "uint256",
          "name": "stakedAmount",
          "type": "uint256"
        },
        {
          "internalType": "uint256",
          "name": "remainingPrincipal",
          "type": "uint256"
        },
        {
          "internalType": "bool",
          "name": "insuranceTaken",
          "type": "bool"
        }
      ],
      "stateMutability": "view",
      "type": "function"
    },
    {
      "inputs": [
        {
          "internalType": "bytes32",
          "name": "loanId",
          "type": "bytes32"
        },
        {
          "internalType": "uint256",
          "name": "index",
          "type": "uint256"
        }
      ],
      "name": "markInstallmentPaid",
      "outputs": [],
      "stateMutability": "nonpayable",
      "type": "function"
    },
    {
      "inputs": [],
      "name": "owner",
      "outputs": [
        {
          "internalType": "address",
          "name": "",
          "type": "address"
        }
      ],
      "stateMutability": "view",
      "type": "function"
    },
    {
      "inputs": [
        {
          "internalType": "bytes32",
          "name": "loanId",
          "type": "bytes32"
        },
        {
          "internalType": "uint256",
          "name": "usdcAmount",
          "type": "uint256"
        }
      ],
      "name": "payouts",
      "outputs": [],
      "stateMutability": "nonpayable",
      "type": "function"
    },
    {
      "inputs": [
        {
          "internalType": "address",
          "name": "_aavePool",
          "type": "address"
        }
      ],
      "name": "setAavePool",
      "outputs": [],
      "stateMutability": "nonpayable",
      "type": "function"
    },
    {
      "inputs": [
        {
          "internalType": "address",
          "name": "_cbBtcToken",
          "type": "address"
        }
      ],
      "name": "setCbBtcToken",
      "outputs": [],
      "stateMutability": "nonpayable",
      "type": "function"
    },
    {
      "inputs": [
        {
          "internalType": "address",
          "name": "oracleAddress",
          "type": "address"
        }
      ],
      "name": "setChainlinkOracle",
      "outputs": [],
      "stateMutability": "nonpayable",
      "type": "function"
    },
    {
      "inputs": [
        {
          "internalType": "address",
          "name": "_swapRouter",
          "type": "address"
        }
      ],
      "name": "setSwapRouter",
      "outputs": [],
      "stateMutability": "nonpayable",
      "type": "function"
    },
    {
      "inputs": [],
      "name": "swapRouter",
      "outputs": [
        {
          "internalType": "contract ISwapRouter",
          "name": "",
          "type": "address"
        }
      ],
      "stateMutability": "view",
      "type": "function"
    },
    {
      "inputs": [],
      "name": "usdcToken",
      "outputs": [
        {
          "internalType": "address",
          "name": "",
          "type": "address"
        }
      ],
      "stateMutability": "view",
      "type": "function"
    }
  ],
  "bytecode": "0x608034620000ec57601f620030e838819003918201601f19168301916001600160401b03831184841017620000f15780849260a094604052833981010312620000ec576200004d8162000107565b906200005c6020820162000107565b906200006b6040820162000107565b91620000886080620000806060850162000107565b930162000107565b9160018060a01b0319943386600854161760085560018060a01b03948580948180941689600954161760095516876002541617600255168560035416176003551683600054161760005516906001541617600155604051612fcb90816200011d8239f35b600080fd5b634e487b7160e01b600052604160045260246000fd5b51906001600160a01b0382168203620000ec5756fe6080604052600436101561001257600080fd5b6000803560e01c80630a71096e14611e295780630e46238614611e0057806311eac85514611dd75780631fc8f4df14611ca657806321d4f8db14611c6457806328830d471461197e57806328fd10d714611941578063337a173714611914578063349f937c146118cb578063412736571461187e5780635206d2d01461185857806366fb6e5a14610b575780636c1945ae14610a565780637a9b041214610a0957806380f2122c1461063757806383cd8fcf146105e657806386280f821461057657806386a2e274146104445780638da5cb5b1461041b57806398d5fdca146103f8578063a03e4bc3146103d1578063c31c9c07146103a8578063c4a90815146102d8578063c9642d2a1461019f578063ef06e72c146101765763f8715a421461013b57600080fd5b3461017357602036600319011261017357600435906007548210156101735760206101658361217d565b90546040519160031b1c8152f35b80fd5b50346101735780600319360112610173576003546040516001600160a01b039091168152602090f35b5034610173576101ae366120f4565b906101c460018060a01b03600854163314612591565b8083526005602052600c604084206101e260ff6009830154166125e7565b019081548310156102935760ff60026101fb8585612575565b5001541661024e578260026102337f3d05ac2057427ac2f84502e7efefebf5ae10d9529129c2979ce60fb97d46061495604095612575565b5001805460ff1916600117905582519182526020820152a180f35b60405162461bcd60e51b815260206004820152601f60248201527f496e7374616c6c6d656e7420616c7265616479206d61726b65642070616964006044820152606490fd5b60405162461bcd60e51b815260206004820152601960248201527f496e76616c696420696e7374616c6c6d656e7420696e646578000000000000006044820152606490fd5b50346101735760203660031901126101735760406101c091600435815260056020522080549060018060a01b03600182015416906002810154600382015460048301546005840154600685015460078601549060088701549260ff60098901541694600a89015496600d8a01549860ff600f600e8d01549c0154169b60206040519e8f908152015260408d015260608c015260808b015260a08a015260c089015260e0880152610100870152151561012086015261014085015261016084015261018083015215156101a0820152f35b50346101735780600319360112610173576001546040516001600160a01b039091168152602090f35b5034610173578060031936011261017357546040516001600160a01b039091168152602090f35b50346101735780600319360112610173576020610413612286565b604051908152f35b50346101735780600319360112610173576008546040516001600160a01b039091168152602090f35b50346101735760203660031901126101735760043581526005602052600b6040822001908154906104748261231a565b9161047e8161231a565b6104878261231a565b906104918361231a565b9261049b8161231a565b945b818110610508576104cc87610504886104f6896104e88a6104da8b604051998a9960a08b5260a08b0190612140565b9089820360208b01526120c0565b9087820360408901526120c0565b9085820360608701526120c0565b9083820360808501526120c0565b0390f35b806004610518610571938b6124b2565b5080546001600160a01b031661052e848c612369565b52600181015461053e8488612369565b52600281015461054e8489612369565b52600381015461055e848a612369565b52015461056b8289612369565b52612493565b61049d565b50346101735760403660031901126101735760243580151581036105e2576105df906105ad60018060a01b03600854163314612591565b60043583526005602052600f604084206105cd60ff6009830154166125e7565b019060ff801983541691151516179055565b80f35b5080fd5b5034610173576020366003190112610173576004356001600160a01b03818116918290036106335761061d90600854163314612591565b6001600160601b0360a01b600254161760025580f35b8280fd5b503461017357610646366120f4565b908083526005602052604083209061066460ff6009840154166125e7565b60018201546001600160a01b031633036109c4576009546040516323b872dd60e01b815233600482015230602482015260448101859052906020908290606490829089906001600160a01b03165af180156109b95761099a575b50829084855b600c850154811080610991575b1561093c576106e381600c8701612575565b50805480156108f75760ff6002830154166108ec5760018201549061070882826123c6565b80881015610723575b5050505061071e90612493565b6106c4565b9061073861073e928298959b949a9799612486565b976123c6565b906002850154968a5b600b8701548110156108955761076081600b89016124b2565b50600181015480670de0b6b3a7640000810204670de0b6b3a76400001481151715610881578d61082893928d6107f8670de0b6b3a76400008f8f826107b66107af6107bd948360209c026123a6565b809361237d565b049461237d565b04600384016107cd8482546123c6565b9055600484016107de8282546123c6565b905560095493546001600160a01b039485169416926123c6565b60405163a9059cbb60e01b81526001600160a01b0390921660048301526024820152948592839182906044820190565b03925af19182156108765761084292610847575b50612493565b610747565b6108689060203d60201161086f575b6108608183612218565b8101906122ea565b503861083c565b503d610856565b6040513d8f823e3d90fd5b634e487b7160e01b8e52601160045260248efd5b509650979093965061071e929194506002600160ff198284015416179101557f3d05ac2057427ac2f84502e7efefebf5ae10d9529129c2979ce60fb97d46061460408051868152836020820152a190388080610711565b505061071e90612493565b60405162461bcd60e51b815260206004820152601860248201527f496e7374616c6c6d656e7420616c7265616479207061696400000000000000006044820152606490fd5b867fdc376abd09229a842ac7d8bcadc9017651f1f1b8490750870cae0ecd4aedf67460808587610976818c6109718a86612628565b612486565b6040519283523360208401526040830152156060820152a180f35b508315156106d1565b6109b29060203d60201161086f576108608183612218565b50386106be565b6040513d87823e3d90fd5b60405162461bcd60e51b815260206004820152601760248201527f4f6e6c7920626f72726f7765722063616e2072657061790000000000000000006044820152606490fd5b5034610173576020366003190112610173576004356001600160a01b038181169182900361063357610a4090600854163314612591565b6001600160601b0360a01b600354161760035580f35b503461017357602090816003193601126101735790600435825260058152600c60408320018054610a8681612302565b90610a946040519283612218565b8082528382018093865284862086915b838310610b0857505050506040519280840191818552518092526040840192945b828110610ad25784840385f35b85518051855280830151858401526040808201511515908601526060908101519085015294810194608090930192600101610ac5565b60048760019260409a9997989a51610b1f816121ca565b85548152848601548382015260ff60028701541615156040820152600386015460608201528152019201920191909694939596610aa4565b50346101735760a03660031901126101735760643567ffffffffffffffff81116105e257610b8990369060040161210f565b9060843567ffffffffffffffff811161185457610baa90369060040161210f565b926004351561181e57602435156117e657338552600660205260ff6040862054166117955783810361173b578015611700576014600435029160043583046014036111cd57610bfe60648404600435612486565b6009546040516323b872dd60e01b8152336004820152306024820152606480870460448301529296929091602091839182908c906001600160a01b03165af180156116f5576116d6575b509084929160405160208101903360601b825242603482015260348152610c6e816121fc565b519020968789526005602052606460408a209689885560018801336001600160601b0360a01b825416179055600435600a89015586600289015504600387015560443560048701556024356005870155426007870155610ccc612286565b600887015560098601600160ff1982541617905584600e870155600f860160ff1981541690558893895b8181106114955750505050500361143f57670de0b6b3a764000060443502906044358204670de0b6b3a76400001460443515171561142b57610d3c6104b083048461237d565b6104b08304670de0b6b3a764000001670de0b6b3a7640000116111cd576104b08304670de0b6b3a7640000011561141757610d916024356104b08504670de0b6b3a764000001670de0b6b3a7640000046124ce565b670de0b6b3a76400000390670de0b6b3a764000082116111b957600691610db7916123a6565b91015582845260056020526040842091670de0b6b3a764000081865b60243581106113ed575081610df0610df5926104b087049061237d565b61237d565b9080670de0b6b3a763ffff198101116111b957670de0b6b3a764000091610e2791670de0b6b3a763ffff1901906123a6565b0480600685015585915b602435831061127d578686600754600160401b81101561126957806001610e5b920160075561217d565b815460001960039290921b91821b19169083901b179055338252600660209081526040808420805460ff1916600190811790915583855260058352818520600a8101546009549254935163095ea7b360e01b81526001600160a01b039485166004820152602481018290529194909391929091839160449183918a91165af180156109b95761124a575b50604051610ef2816121fc565b6002815260403660208301376009546001600160a01b0316610f138261234c565b526002546001600160a01b0316610f2982612359565b52600354604051633fabe5a360e21b81529060a090829060049082906001600160a01b03165afa908115611162578691611216575b50858113156111e1576305f5e1008084029084820414841517156111b95790610f86916123a6565b806062810204606214811517156111cd576001546001600160a01b0316914261012c8101106111b95791610fe49391878094604051968795869485936338ed173960e01b855261012c4201926064606230940204906004870161244d565b03925af180156111ae57610fff91859161118c575b50612359565b518284526005602090815260408086206002548754925163095ea7b360e01b81526001600160a01b0393841660048201526024810186905291939192839160449183918b91165af180156111625761116d575b50845460025486916001600160a01b039182169116803b156106335760848392604051948593849263617ba03760e01b845260048401528860248401523060448401528160648401525af1801561116257611131575b506080927faeec09af87559b9077da2e499d1fad2e228d7c24cb4b566fe61976820abaadda6060846002857f65410888fb30edd04f6acfb2f6cfd92aaf0ebb9b5303b6286d65d0b031b5b7f79997600d60039801550154906040519187835260208301526040820152a1015460405191825260043560208301526040820152336060820152a180f35b67ffffffffffffffff819692961161114e576040529360806110a8565b634e487b7160e01b82526041600452602482fd5b6040513d88823e3d90fd5b6111859060203d60201161086f576108608183612218565b5085611052565b6111a891503d8087833e6111a08183612218565b8101906123d3565b85610ff9565b6040513d86823e3d90fd5b634e487b7160e01b87526011600452602487fd5b634e487b7160e01b86526011600452602486fd5b60405162461bcd60e51b815260206004820152600d60248201526c496e76616c696420707269636560981b6044820152606490fd5b611238915060a03d60a011611243575b6112308183612218565b810190612251565b505050905086610f5e565b503d611226565b6112629060203d60201161086f576108608183612218565b5084610ee5565b634e487b7160e01b83526041600452602483fd5b670de0b6b3a76400006112946104b086048361237d565b0490818311156113e7576112a88284612486565b916024356000198101116113d3576024356000190185146113be575b62278d0085818102048114861517156113aa576112e3908602426123c6565b604051916112f0836121ca565b84835260208301528960408301526060820152600c870154600160401b8110156113965780600161132a9201600c8a0155600c8901612575565b919091611382579161137c93916003606085611376965184556020810151600185015561136c60408201511515600286019060ff801983541691151516179055565b0151910155612486565b92612493565b91610e31565b634e487b7160e01b8a5260048a905260248afd5b634e487b7160e01b8a52604160045260248afd5b634e487b7160e01b8a52601160045260248afd5b92509050806113cd83826123c6565b926112c4565b634e487b7160e01b89526011600452602489fd5b876112a8565b91670de0b6b3a764000061140b611412926104b0880483019061237d565b0492612493565b610dd3565b634e487b7160e01b86526012600452602486fd5b634e487b7160e01b85526011600452602485fd5b60405162461bcd60e51b815260206004820152602860248201527f436f6c6c656374656420616d6f756e7420646f65736e2774206d6174636820706044820152671c9a5b98da5c185b60c21b6064820152608490fd5b909192939495506114a78183866124a2565b356001600160a01b03811681036116d2576114c38285886124a2565b35968715611695578b90602061151960018060a01b03600954168b6040519586809481936323b872dd60e01b8352308b6004850160409194939294606082019560018060a01b0380921683521660208201520152565b03925af190811561087657611535928a92611676575b506123c6565b9660018060a01b0382168c52600460205260408c206115558282546123c6565b90556104b061156c602435610df06044358561237d565b0490604051928360a081011067ffffffffffffffff60a0860111176116625760a0840160405260018060a01b03168352602083015260408201528a60608201528a6080820152600b880154600160401b81101561164e578060016115d99201600b8b0155600b8a016124b2565b91909161163a57805182546001600160a01b0319166001600160a01b03919091161782556020810151600183015560408101516002830155606081015160038301556080015160049091015561162e90612493565b90879594939291610cf6565b634e487b7160e01b8c5260048c905260248cfd5b634e487b7160e01b8c52604160045260248cfd5b634e487b7160e01b8e52604160045260248efd5b61168e9060203d60201161086f576108608183612218565b503861152f565b60405162461bcd60e51b8152602060048201526015602482015274125b9d985b1a59081b195b99195c88185b5bdd5b9d605a1b6044820152606490fd5b8a80fd5b6116ee9060203d60201161086f576108608183612218565b5038610c48565b6040513d8a823e3d90fd5b60405162461bcd60e51b8152602060048201526013602482015272139bc81b195b99195c9cc81c1c9bdd9a591959606a1b6044820152606490fd5b60405162461bcd60e51b815260206004820152602c60248201527f4c656e6465722061646472657373657320616e6420616d6f756e7473206c656e60448201526b0cee8d040dad2e6dac2e8c6d60a31b6064820152608490fd5b60405162461bcd60e51b815260206004820152602360248201527f426f72726f77657220616c72656164792068617320616e20616374697665206c60448201526237b0b760e91b6064820152608490fd5b60405162461bcd60e51b815260206004820152601060248201526f24b73b30b634b210323ab930ba34b7b760811b6044820152606490fd5b60405162461bcd60e51b815260206004820152600e60248201526d125b9d985b1a5908185b5bdd5b9d60921b6044820152606490fd5b8380fd5b503461017357604061187261186c366120f4565b90612f22565b82519182526020820152f35b5034610173576020366003190112610173576004356001600160a01b0381811691829003610633576118b590600854163314612591565b6001600160601b0360a01b600154161760015580f35b5034610173576020366003190112610173576004356001600160a01b03818116918290036106335761190290600854163314612591565b81546001600160a01b03191617815580f35b503461017357602036600319011261017357600d6040602092600435815260058452200154604051908152f35b5034610173576020366003190112610173576004356001600160a01b038116908190036105e2578160409160209352600483522054604051908152f35b5034610173576020806003193601126105e25760043560018060a01b036119aa81600854163314612591565b8184526005835260408420926009908185019182549260ff6119cd8186166125e7565b88908990600c8a018054925b838110611c1457505050506276a7001015611bba5760ff1980941690556001808701938585541689526006845260408920908154169055600d87015480611baa575b50600380880154600e8901549182611a8f575b8a7fcab88a55906c5830a49dddd8b31d115294a5e6c4210f25fe140530a39c51dc748a8a8a541690611a89611a61612286565b604080519384526001600160a01b039094166020840152928201929092529081906060820190565b0390a180f35b9091928099600b8c9101915b611aa6575b50611a2e565b8154811015611ba557611ab981836124b2565b50611acb8c8201548583015490612486565b8c8115611b945750670de0b6b3a7640000908181029081048203611b80578796959493928f9192611b09611b03611b459b8e966123a6565b8961237d565b04918d808c541692541690604051809b8195829463a9059cbb60e01b84526004840160209093929193604081019460018060a01b031681520152565b03925af1908115610876578c96611b6092611b6a5750612493565b9091929394611a9b565b610868908a3d8c1161086f576108608183612218565b634e487b7160e01b8f52601160045260248ffd5b96959493929050611b609150612493565b611aa0565b611bb49087612aa0565b38611a1b565b60405162461bcd60e51b815260048101849052602c60248201527f4c6f616e206973206e6f74206f766572647565206265796f6e642033206d6f6e60448201526b1d1a1cc81a5b881d1bdd185b60a21b6064820152608490fd5b611c1e8183612575565b5083600282015416611c365760030154804211611c45575b50611c4090612493565b6119d9565b611c409195611c57611c5d9242612486565b906123c6565b9490611c36565b5034610173576020366003190112610173576004356001600160a01b038116908190036105e25760408260ff9260209452600684522054166040519015158152f35b5034610173576020806003193601126105e25790600435815260058252600c6040822001805491611cd68361231a565b92611ce08161231a565b611ce982612302565b91611cf76040519384612218565b808352611d0381612302565b8388019590601f1901368737845b828110611d7f575050509480611d45611d389760405198899860608a5260608a01906120c0565b90888203848a01526120c0565b92868403604088015251928381520193925b828110611d6657505050500390f35b8351151585528695509381019392810192600101611d57565b8060ff6002611d97611dcc94869d9a999b9c9d612575565b508054611da4858f612369565b526001810154611db4858a612369565b52015416611dc2828a612369565b9015159052612493565b979695939497611d11565b50346101735780600319360112610173576009546040516001600160a01b039091168152602090f35b50346101735780600319360112610173576002546040516001600160a01b039091168152602090f35b503461017357602036600319011261017357611e5060018060a01b03600854163314612591565b600435815260056020526040812060098101805491611e7160ff84166125e7565b611e79612286565b91600d82016305f5e100611e8e85835461237d565b0491600e84019283546069810290808204606914901517156113d357606490041061205d5760ff1995861690556001830180546001600160a01b031687526006602052604087208054909616909555548061204b575b50600382015490549182611f43575b505091546040805160043581526001600160a01b0390921660208301528101919091527fcab88a55906c5830a49dddd8b31d115294a5e6c4210f25fe140530a39c51dc7491508060608101611a89565b909192855b600b83015481101561201e57611f6181600b85016124b2565b50611f756001820154600383015490612486565b80156120135780670de0b6b3a7640000810204670de0b6b3a7640000036113d357611ff59291670de0b6b3a7640000611fb5611b038a83602096026123a6565b600954925460405163a9059cbb60e01b81526001600160a01b039182166004820152929091046024830152909485929091169082908c9082906044820190565b03925af19182156116f55761200e926108475750612493565b611f48565b505061200e90612493565b50925050507fcab88a55906c5830a49dddd8b31d115294a5e6c4210f25fe140530a39c51dc743880611ef3565b61205790600435612aa0565b38611ee4565b60405162461bcd60e51b815260206004820152603560248201527f4254432076616c756520686173206e6f742064726f707065642062656c6f77206044820152741b1a5c5d5a59185d1a5bdb881d1a1c995cda1bdb19605a1b6064820152608490fd5b90815180825260208080930193019160005b8281106120e0575050505090565b8351855293810193928101926001016120d2565b604090600319011261210a576004359060243590565b600080fd5b9181601f8401121561210a5782359167ffffffffffffffff831161210a576020808501948460051b01011161210a57565b90815180825260208080930193019160005b828110612160575050505090565b83516001600160a01b031685529381019392810192600101612152565b6007548110156121b45760076000527fa66cc928b5edb82af9bd49922954155ab7b0942694bea4ce44661d9a8736c6880190600090565b634e487b7160e01b600052603260045260246000fd5b6080810190811067ffffffffffffffff8211176121e657604052565b634e487b7160e01b600052604160045260246000fd5b6060810190811067ffffffffffffffff8211176121e657604052565b90601f8019910116810190811067ffffffffffffffff8211176121e657604052565b519069ffffffffffffffffffff8216820361210a57565b908160a091031261210a576122658161223a565b9160208201519160408101519161228360806060840151930161223a565b90565b600354604051633fabe5a360e21b81529060a090829060049082906001600160a01b03165afa9081156122de576000916122be575090565b6122d6915060a03d8111611243576112308183612218565b505050905090565b6040513d6000823e3d90fd5b9081602091031261210a5751801515810361210a5790565b67ffffffffffffffff81116121e65760051b60200190565b9061232482612302565b6123316040519182612218565b8281528092612342601f1991612302565b0190602036910137565b8051156121b45760200190565b8051600110156121b45760400190565b80518210156121b45760209160051b010190565b8181029291811591840414171561239057565b634e487b7160e01b600052601160045260246000fd5b81156123b0570490565b634e487b7160e01b600052601260045260246000fd5b9190820180921161239057565b602090818184031261210a5780519067ffffffffffffffff821161210a57019180601f8401121561210a57825161240981612302565b936124176040519586612218565b818552838086019260051b82010192831161210a578301905b82821061243e575050505090565b81518152908301908301612430565b919260809361247292979695978452602084015260a0604084015260a0830190612140565b6001600160a01b0390951660608201520152565b9190820391821161239057565b60001981146123905760010190565b91908110156121b45760051b0190565b80548210156121b4576000526005602060002091020190600090565b90801561256e57811561256757818060011461255f5760021461254e5760208110610133831016604e8210600b8410161761254957600190815b80821161252057505081600019048111612390570290565b90928060001904811161239057818416612540575b800292811c90612508565b80920291612535565b900a90565b905060ff8111612390576001901b90565b505050600190565b5050600090565b5050600190565b80548210156121b45760005260206000209060021b0190600090565b1561259857565b60405162461bcd60e51b815260206004820152602160248201527f4f6e6c79206f776e65722063616e2063616c6c20746869732066756e6374696f6044820152603760f91b6064820152608490fd5b156125ee57565b60405162461bcd60e51b81526020600482015260126024820152714c6f616e206973206e6f742061637469766560701b6044820152606490fd5b906000918083526020600581526040808520938015808015612a94575b8015612a88575b61268b576305f5e1008083029283041417156111cd57612673600d916008870154906123a6565b9401948554808611612a80575b508415918215612694575b50505050505050565b8482526005845280822093600d85019384548811612a2e576129ec5760018060a01b03928360025416938351956370a0823160e01b9788885260049230848a0152602492868a85818c5afa998a1561298457869a6129bd575b50868d6064848954169b898c519d8e948593631a4ca37b60e21b85528c8501528a8401523060448401525af198891561298457869961298e575b508682600254169b858a51809e81938252308a8301525afa9a8b1561298457869b612951575b50898b11156129045788156128c2576127ac9287928261276f8c809554612486565b90556001816002541692015416878a5180968195829463a9059cbb60e01b84528b840160209093929193604081019460018060a01b031681520152565b03925af19081156128b857849161289b575b501561285957505092828860a096937f38a556a122683cb48d496614a7a03605b6c2c0482342924caf483386980ecc9f608061284b9c9b987f971c7ec4a7c96c0a198687499279ccf05d9699970007b5ae5017b1177ee02ed39b9851908a8252858583015286820152866060820152a1825196875286015284015260608301526080820152a18254612486565b90553880808080808061268b565b845162461bcd60e51b8152918201849052601b908201527f5472616e7366657220746f20626f72726f776572206661696c656400000000006044820152606490fd5b6128b29150853d871161086f576108608183612218565b386127be565b86513d86823e3d90fd5b875162461bcd60e51b8152808601889052601c818601527f556e7374616b652072657475726e6564207a65726f20746f6b656e73000000006044820152606490fd5b875162461bcd60e51b81528086018890526022818601527f5769746864726177616c206469646e277420696e6372656173652062616c616e604482015261636560f01b6064820152608490fd5b909a508681813d831161297d575b6129698183612218565b810103126129795751993861274d565b8580fd5b503d61295f565b88513d88823e3d90fd5b9098508681813d83116129b6575b6129a68183612218565b8101031261297957519738612727565b503d61299c565b9099508681813d83116129e5575b6129d58183612218565b81010312612979575198386126ed565b503d6129cb565b606491519062461bcd60e51b82526004820152601a60248201527f43616e6e6f7420756e7374616b65207a65726f20616d6f756e740000000000006044820152fd5b50608491519062461bcd60e51b82526004820152602660248201527f43616e6e6f7420756e7374616b65206d6f7265207468616e207374616b656420604482015265185b5bdd5b9d60d21b6064820152fd5b945038612680565b50600d8601541561264c565b50600886015415612645565b90600090828252602091600583526040600d818320019283548111612ecf578015612e8b5760025482516370a0823160e01b808252306004808401919091529097919691926001600160a01b03926024918416858a8481845afa998a15612e8157899a612e4e575b5090858594939260648b97885416918b519c8d938492631a4ca37b60e21b8452898401528c888401523060448401525af1988915612d53578599612e1f575b508584600254169b838a51809e8193825230888301525afa9a8b15612d5357859b612dec575b50898b1115612d9f578815612d5d57612b87898254612486565b9055600254600154885163095ea7b360e01b81529085166001600160a01b0316848201908152602081018b905290918791839187169082908990829060400103925af18015612d5357612d36575b50865191612be2836121fc565b600283528736878501378360025416612bfa8461234c565b528360095416612c0984612359565b52605f890293898504605f03612d2457600154169161012c420190814211612d13575090858a612c56829695948c51988997889687956338ed173960e01b8752606430940491870161244d565b03925af1908115612d0957608083612cc07f971c7ec4a7c96c0a198687499279ccf05d9699970007b5ae5017b1177ee02ed39c9a9896947f38a556a122683cb48d496614a7a03605b6c2c0482342924caf483386980ecc9f9460a09d9b999791612cef5750612359565b51908651918b83528686840152878301526060820152a1825196875286015284015260608301526080820152a1565b612d0391503d8085833e6111a08183612218565b38610ff9565b85513d84823e3d90fd5b634e487b7160e01b87526011835286fd5b50634e487b7160e01b85526011905283fd5b612d4c90863d881161086f576108608183612218565b5038612bd5565b88513d87823e3d90fd5b875162461bcd60e51b8152808401879052601c818401527f556e7374616b652072657475726e6564207a65726f20746f6b656e73000000006044820152606490fd5b875162461bcd60e51b81528084018790526022818401527f5769746864726177616c206469646e277420696e6372656173652062616c616e604482015261636560f01b6064820152608490fd5b909a508581813d8311612e18575b612e048183612218565b81010312612e1457519938612b6d565b8480fd5b503d612dfa565b9098508581813d8311612e47575b612e378183612218565b81010312612e1457519738612b47565b503d612e2d565b9099508581813d8311612e7a575b612e668183612218565b81010312612e7657519885612b08565b8880fd5b503d612e5c565b88513d8b823e3d90fd5b815162461bcd60e51b815260048101869052601a60248201527f43616e6e6f7420756e7374616b65207a65726f20616d6f756e740000000000006044820152606490fd5b815162461bcd60e51b815260048101869052602660248201527f43616e6e6f7420756e7374616b65206d6f7265207468616e207374616b656420604482015265185b5bdd5b9d60d21b6064820152608490fd5b600090815260056020526040812060028101549093928115612f8c57670de0b6b3a76400009283820291808304851490151715612f78575093612f6a612f7492600d966123a6565b948591015461237d565b0490565b634e487b7160e01b81526011600452602490fd5b5050809250919056fea264697066735822122012a91a210a813c110c735a383ebecb1ed46cc377796963d8fa7d033da56c68b164736f6c63430008140033",
  "linkReferences": {},
  "deployedLinkReferences": {}
}