{
  "_format": "hh-sol-artifact-1",
  "contractName": "LendingPool",
  "sourceName": "Contracts/Lending.sol",
  "abi": [
    {
      "inputs": [
        {
          "internalType": "address",
          "name": "usdc",
          "type": "address"
        },
        {
          "internalType": "address",
          "name": "_cbBtcToken",
          "type": "address"
        },
        {
          "internalType": "address",
          "name": "oracleAddress",
          "type": "address"
        },
        {
          "internalType": "address",
          "name": "_aavePool",
          "type": "address"
        },
        {
          "internalType": "address",
          "name": "_swapRouter",
          "type": "address"
        }
      ],
      "stateMutability": "nonpayable",
      "type": "constructor"
    },
    {
      "anonymous": false,
      "inputs": [
        {
          "indexed": false,
          "internalType": "bytes32",
          "name": "loanId",
          "type": "bytes32"
        },
        {
          "indexed": false,
          "internalType": "uint256",
          "name": "requested",
          "type": "uint256"
        },
        {
          "indexed": false,
          "internalType": "uint256",
          "name": "actualWithdrawn",
          "type": "uint256"
        },
        {
          "indexed": false,
          "internalType": "uint256",
          "name": "preBalance",
          "type": "uint256"
        },
        {
          "indexed": false,
          "internalType": "uint256",
          "name": "postBalance",
          "type": "uint256"
        }
      ],
      "name": "DebugUnstake",
      "type": "event"
    },
    {
      "anonymous": false,
      "inputs": [
        {
          "indexed": false,
          "internalType": "bytes32",
          "name": "loanId",
          "type": "bytes32"
        },
        {
          "indexed": false,
          "internalType": "uint256",
          "name": "principalRepaid",
          "type": "uint256"
        },
        {
          "indexed": false,
          "internalType": "uint256",
          "name": "proportionRepaid",
          "type": "uint256"
        },
        {
          "indexed": false,
          "internalType": "uint256",
          "name": "cbBtcToUnstake",
          "type": "uint256"
        }
      ],
      "name": "DebugUnstakeProportion",
      "type": "event"
    },
    {
      "anonymous": false,
      "inputs": [
        {
          "indexed": false,
          "internalType": "bytes32",
          "name": "loanId",
          "type": "bytes32"
        },
        {
          "indexed": false,
          "internalType": "uint256",
          "name": "index",
          "type": "uint256"
        }
      ],
      "name": "InstallmentPaid",
      "type": "event"
    },
    {
      "anonymous": false,
      "inputs": [
        {
          "indexed": false,
          "internalType": "bytes32",
          "name": "id",
          "type": "bytes32"
        },
        {
          "indexed": false,
          "internalType": "uint256",
          "name": "amount",
          "type": "uint256"
        },
        {
          "indexed": false,
          "internalType": "uint256",
          "name": "collateral",
          "type": "uint256"
        },
        {
          "indexed": false,
          "internalType": "address",
          "name": "borrower",
          "type": "address"
        }
      ],
      "name": "LoanCreated",
      "type": "event"
    },
    {
      "anonymous": false,
      "inputs": [
        {
          "indexed": false,
          "internalType": "bytes32",
          "name": "id",
          "type": "bytes32"
        },
        {
          "indexed": false,
          "internalType": "address",
          "name": "borrower",
          "type": "address"
        },
        {
          "indexed": false,
          "internalType": "uint256",
          "name": "btcPriceNow",
          "type": "uint256"
        }
      ],
      "name": "LoanLiquidated",
      "type": "event"
    },
    {
      "anonymous": false,
      "inputs": [
        {
          "indexed": false,
          "internalType": "bytes32",
          "name": "loanId",
          "type": "bytes32"
        },
        {
          "indexed": false,
          "internalType": "address",
          "name": "borrower",
          "type": "address"
        },
        {
          "indexed": false,
          "internalType": "uint256",
          "name": "amount",
          "type": "uint256"
        },
        {
          "indexed": false,
          "internalType": "bool",
          "name": "fullyRepaid",
          "type": "bool"
        }
      ],
      "name": "Payout",
      "type": "event"
    },
    {
      "anonymous": false,
      "inputs": [
        {
          "indexed": false,
          "internalType": "bytes32",
          "name": "loanId",
          "type": "bytes32"
        },
        {
          "indexed": false,
          "internalType": "uint256",
          "name": "usdcAmount",
          "type": "uint256"
        },
        {
          "indexed": false,
          "internalType": "uint256",
          "name": "cbBtcAmount",
          "type": "uint256"
        }
      ],
      "name": "TokensStaked",
      "type": "event"
    },
    {
      "anonymous": false,
      "inputs": [
        {
          "indexed": false,
          "internalType": "bytes32",
          "name": "loanId",
          "type": "bytes32"
        },
        {
          "indexed": false,
          "internalType": "uint256",
          "name": "cbBtcAmount",
          "type": "uint256"
        },
        {
          "indexed": false,
          "internalType": "uint256",
          "name": "usdcAmount",
          "type": "uint256"
        },
        {
          "indexed": false,
          "internalType": "uint256",
          "name": "borrowerCbBtcShare",
          "type": "uint256"
        }
      ],
      "name": "TokensUnstaked",
      "type": "event"
    },
    {
      "inputs": [],
      "name": "aavePool",
      "outputs": [
        {
          "internalType": "contract IAavePool",
          "name": "",
          "type": "address"
        }
      ],
      "stateMutability": "view",
      "type": "function"
    },
    {
      "inputs": [],
      "name": "cbBtcToken",
      "outputs": [
        {
          "internalType": "address",
          "name": "",
          "type": "address"
        }
      ],
      "stateMutability": "view",
      "type": "function"
    },
    {
      "inputs": [],
      "name": "chainlinkOracle",
      "outputs": [
        {
          "internalType": "contract AggregatorV3Interface",
          "name": "",
          "type": "address"
        }
      ],
      "stateMutability": "view",
      "type": "function"
    },
    {
      "inputs": [
        {
          "internalType": "uint256",
          "name": "totalAmount",
          "type": "uint256"
        }
      ],
      "name": "computeLoanParts",
      "outputs": [
        {
          "internalType": "uint256",
          "name": "borrowerDeposit",
          "type": "uint256"
        },
        {
          "internalType": "uint256",
          "name": "lenderPrincipal",
          "type": "uint256"
        }
      ],
      "stateMutability": "pure",
      "type": "function"
    },
    {
      "inputs": [
        {
          "internalType": "bytes32",
          "name": "loanId",
          "type": "bytes32"
        },
        {
          "internalType": "uint256",
          "name": "principalRepaid",
          "type": "uint256"
        }
      ],
      "name": "debugUnstakeCalc",
      "outputs": [
        {
          "internalType": "uint256",
          "name": "proportionRepaid",
          "type": "uint256"
        },
        {
          "internalType": "uint256",
          "name": "cbBtcToUnstake",
          "type": "uint256"
        }
      ],
      "stateMutability": "view",
      "type": "function"
    },
    {
      "inputs": [
        {
          "internalType": "bytes32",
          "name": "loanId",
          "type": "bytes32"
        }
      ],
      "name": "getAmortizationSchedule",
      "outputs": [
        {
          "internalType": "uint256[]",
          "name": "principals",
          "type": "uint256[]"
        },
        {
          "internalType": "uint256[]",
          "name": "interests",
          "type": "uint256[]"
        },
        {
          "internalType": "bool[]",
          "name": "paidStatuses",
          "type": "bool[]"
        }
      ],
      "stateMutability": "view",
      "type": "function"
    },
    {
      "inputs": [
        {
          "internalType": "bytes32",
          "name": "loanId",
          "type": "bytes32"
        }
      ],
      "name": "getContributions",
      "outputs": [
        {
          "internalType": "address[]",
          "name": "lenders",
          "type": "address[]"
        },
        {
          "internalType": "uint256[]",
          "name": "amounts",
          "type": "uint256[]"
        },
        {
          "internalType": "uint256[]",
          "name": "receivableInterests",
          "type": "uint256[]"
        },
        {
          "internalType": "uint256[]",
          "name": "repaidPrincipals",
          "type": "uint256[]"
        },
        {
          "internalType": "uint256[]",
          "name": "repaidInterests",
          "type": "uint256[]"
        }
      ],
      "stateMutability": "view",
      "type": "function"
    },
    {
      "inputs": [
        {
          "internalType": "bytes32",
          "name": "loanId",
          "type": "bytes32"
        }
      ],
      "name": "getInstallmentSchedule",
      "outputs": [
        {
          "components": [
            {
              "internalType": "uint256",
              "name": "duePrincipal",
              "type": "uint256"
            },
            {
              "internalType": "uint256",
              "name": "dueInterest",
              "type": "uint256"
            },
            {
              "internalType": "bool",
              "name": "paid",
              "type": "bool"
            },
            {
              "internalType": "uint256",
              "name": "dueTimestamp",
              "type": "uint256"
            }
          ],
          "internalType": "struct LendingPool.Installment[]",
          "name": "",
          "type": "tuple[]"
        }
      ],
      "stateMutability": "view",
      "type": "function"
    },
    {
      "inputs": [],
      "name": "getPrice",
      "outputs": [
        {
          "internalType": "int256",
          "name": "",
          "type": "int256"
        }
      ],
      "stateMutability": "view",
      "type": "function"
    },
    {
      "inputs": [
        {
          "internalType": "bytes32",
          "name": "loanId",
          "type": "bytes32"
        }
      ],
      "name": "getStakedAmount",
      "outputs": [
        {
          "internalType": "uint256",
          "name": "",
          "type": "uint256"
        }
      ],
      "stateMutability": "view",
      "type": "function"
    },
    {
      "inputs": [
        {
          "internalType": "address",
          "name": "",
          "type": "address"
        }
      ],
      "name": "hasActiveLoan",
      "outputs": [
        {
          "internalType": "bool",
          "name": "",
          "type": "bool"
        }
      ],
      "stateMutability": "view",
      "type": "function"
    },
    {
      "inputs": [
        {
          "internalType": "address",
          "name": "",
          "type": "address"
        }
      ],
      "name": "lenders",
      "outputs": [
        {
          "internalType": "uint256",
          "name": "totalContributed",
          "type": "uint256"
        }
      ],
      "stateMutability": "view",
      "type": "function"
    },
    {
      "inputs": [
        {
          "internalType": "bytes32",
          "name": "loanId",
          "type": "bytes32"
        }
      ],
      "name": "liquidate",
      "outputs": [],
      "stateMutability": "nonpayable",
      "type": "function"
    },
    {
      "inputs": [
        {
          "internalType": "bytes32",
          "name": "loanId",
          "type": "bytes32"
        }
      ],
      "name": "liquidateIfOverdue",
      "outputs": [],
      "stateMutability": "nonpayable",
      "type": "function"
    },
    {
      "inputs": [
        {
          "internalType": "uint256",
          "name": "totalAmount",
          "type": "uint256"
        },
        {
          "internalType": "uint256",
          "name": "durationMonths",
          "type": "uint256"
        },
        {
          "internalType": "uint256",
          "name": "annualInterestRate",
          "type": "uint256"
        },
        {
          "internalType": "address[]",
          "name": "lenderAddresses",
          "type": "address[]"
        },
        {
          "internalType": "uint256[]",
          "name": "lenderAmounts",
          "type": "uint256[]"
        }
      ],
      "name": "loan",
      "outputs": [],
      "stateMutability": "nonpayable",
      "type": "function"
    },
    {
      "inputs": [
        {
          "internalType": "uint256",
          "name": "",
          "type": "uint256"
        }
      ],
      "name": "loanIds",
      "outputs": [
        {
          "internalType": "bytes32",
          "name": "",
          "type": "bytes32"
        }
      ],
      "stateMutability": "view",
      "type": "function"
    },
    {
      "inputs": [
        {
          "internalType": "bytes32",
          "name": "",
          "type": "bytes32"
        }
      ],
      "name": "loans",
      "outputs": [
        {
          "internalType": "bytes32",
          "name": "id",
          "type": "bytes32"
        },
        {
          "internalType": "address",
          "name": "borrower",
          "type": "address"
        },
        {
          "internalType": "uint256",
          "name": "principal",
          "type": "uint256"
        },
        {
          "internalType": "uint256",
          "name": "borrowerDeposit",
          "type": "uint256"
        },
        {
          "internalType": "uint256",
          "name": "interestRate",
          "type": "uint256"
        },
        {
          "internalType": "uint256",
          "name": "duration",
          "type": "uint256"
        },
        {
          "internalType": "uint256",
          "name": "monthlyPayment",
          "type": "uint256"
        },
        {
          "internalType": "uint256",
          "name": "startTime",
          "type": "uint256"
        },
        {
          "internalType": "uint256",
          "name": "btcPriceAtCreation",
          "type": "uint256"
        },
        {
          "internalType": "bool",
          "name": "isActive",
          "type": "bool"
        },
        {
          "internalType": "uint256",
          "name": "totalAmount",
          "type": "uint256"
        },
        {
          "internalType": "uint256",
          "name": "stakedAmount",
          "type": "uint256"
        },
        {
          "internalType": "uint256",
          "name": "remainingPrincipal",
          "type": "uint256"
        },
        {
          "internalType": "bool",
          "name": "insuranceTaken",
          "type": "bool"
        }
      ],
      "stateMutability": "view",
      "type": "function"
    },
    {
      "inputs": [
        {
          "internalType": "bytes32",
          "name": "loanId",
          "type": "bytes32"
        },
        {
          "internalType": "uint256",
          "name": "index",
          "type": "uint256"
        }
      ],
      "name": "markInstallmentPaid",
      "outputs": [],
      "stateMutability": "nonpayable",
      "type": "function"
    },
    {
      "inputs": [],
      "name": "owner",
      "outputs": [
        {
          "internalType": "address",
          "name": "",
          "type": "address"
        }
      ],
      "stateMutability": "view",
      "type": "function"
    },
    {
      "inputs": [
        {
          "internalType": "bytes32",
          "name": "loanId",
          "type": "bytes32"
        },
        {
          "internalType": "uint256",
          "name": "usdcAmount",
          "type": "uint256"
        }
      ],
      "name": "payouts",
      "outputs": [],
      "stateMutability": "nonpayable",
      "type": "function"
    },
    {
      "inputs": [
        {
          "internalType": "address",
          "name": "_aavePool",
          "type": "address"
        }
      ],
      "name": "setAavePool",
      "outputs": [],
      "stateMutability": "nonpayable",
      "type": "function"
    },
    {
      "inputs": [
        {
          "internalType": "address",
          "name": "_cbBtcToken",
          "type": "address"
        }
      ],
      "name": "setCbBtcToken",
      "outputs": [],
      "stateMutability": "nonpayable",
      "type": "function"
    },
    {
      "inputs": [
        {
          "internalType": "address",
          "name": "oracleAddress",
          "type": "address"
        }
      ],
      "name": "setChainlinkOracle",
      "outputs": [],
      "stateMutability": "nonpayable",
      "type": "function"
    },
    {
      "inputs": [
        {
          "internalType": "bytes32",
          "name": "loanId",
          "type": "bytes32"
        },
        {
          "internalType": "bool",
          "name": "status",
          "type": "bool"
        }
      ],
      "name": "setInsuranceTaken",
      "outputs": [],
      "stateMutability": "nonpayable",
      "type": "function"
    },
    {
      "inputs": [
        {
          "internalType": "address",
          "name": "_swapRouter",
          "type": "address"
        }
      ],
      "name": "setSwapRouter",
      "outputs": [],
      "stateMutability": "nonpayable",
      "type": "function"
    },
    {
      "inputs": [],
      "name": "swapRouter",
      "outputs": [
        {
          "internalType": "contract ISwapRouter",
          "name": "",
          "type": "address"
        }
      ],
      "stateMutability": "view",
      "type": "function"
    },
    {
      "inputs": [],
      "name": "usdcToken",
      "outputs": [
        {
          "internalType": "address",
          "name": "",
          "type": "address"
        }
      ],
      "stateMutability": "view",
      "type": "function"
    }
  ],
  "bytecode": "0x608034620000ec57601f620030c738819003918201601f19168301916001600160401b03831184841017620000f15780849260a094604052833981010312620000ec576200004d8162000107565b906200005c6020820162000107565b906200006b6040820162000107565b91620000886080620000806060850162000107565b930162000107565b9160018060a01b0319943386600854161760085560018060a01b03948580948180941689600954161760095516876002541617600255168560035416176003551683600054161760005516906001541617600155604051612faa90816200011d8239f35b600080fd5b634e487b7160e01b600052604160045260246000fd5b51906001600160a01b0382168203620000ec5756fe6080604052600436101561001257600080fd5b6000803560e01c80630a71096e14611e1c5780630e46238614611df357806311eac85514611dca5780631fc8f4df14611c9957806321d4f8db14611c5757806328830d471461197157806328fd10d714611934578063337a173714611907578063349f937c146118be57806341273657146118715780635206d2d0146118575780636221fa30146117fe57806366fb6e5a14610b625780636c1945ae14610a615780637a9b041214610a1457806380f2122c1461064257806383cd8fcf146105f157806386a2e274146104bf5780638da5cb5b1461049657806398d5fdca14610473578063a03e4bc31461044c578063a990201c146103dc578063c31c9c07146103b3578063c4a90815146102e3578063c9642d2a146101aa578063ef06e72c146101815763f8715a421461014657600080fd5b3461017e57602036600319011261017e576004359060075482101561017e57602061017083612170565b90546040519160031b1c8152f35b80fd5b503461017e578060031936011261017e576003546040516001600160a01b039091168152602090f35b503461017e576101b9366120e7565b906101cf60018060a01b03600854163314612584565b8083526005602052600c604084206101ed60ff6009830154166125da565b0190815483101561029e5760ff60026102068585612568565b500154166102595782600261023e7f3d05ac2057427ac2f84502e7efefebf5ae10d9529129c2979ce60fb97d46061495604095612568565b5001805460ff1916600117905582519182526020820152a180f35b60405162461bcd60e51b815260206004820152601f60248201527f496e7374616c6c6d656e7420616c7265616479206d61726b65642070616964006044820152606490fd5b60405162461bcd60e51b815260206004820152601960248201527f496e76616c696420696e7374616c6c6d656e7420696e646578000000000000006044820152606490fd5b503461017e57602036600319011261017e5760406101c091600435815260056020522080549060018060a01b03600182015416906002810154600382015460048301546005840154600685015460078601549060088701549260ff60098901541694600a89015496600d8a01549860ff600f600e8d01549c0154169b60206040519e8f908152015260408d015260608c015260808b015260a08a015260c089015260e0880152610100870152151561012086015261014085015261016084015261018083015215156101a0820152f35b503461017e578060031936011261017e576001546040516001600160a01b039091168152602090f35b503461017e57604036600319011261017e576024358015158103610448576104459061041360018060a01b03600854163314612584565b60043583526005602052600f6040842061043360ff6009830154166125da565b019060ff801983541691151516179055565b80f35b5080fd5b503461017e578060031936011261017e57546040516001600160a01b039091168152602090f35b503461017e578060031936011261017e57602061048e612279565b604051908152f35b503461017e578060031936011261017e576008546040516001600160a01b039091168152602090f35b503461017e57602036600319011261017e5760043581526005602052600b6040822001908154906104ef8261230d565b916104f98161230d565b6105028261230d565b9061050c8361230d565b926105168161230d565b945b818110610583576105478761057f88610571896105638a6105558b604051998a9960a08b5260a08b0190612133565b9089820360208b01526120b3565b9087820360408901526120b3565b9085820360608701526120b3565b9083820360808501526120b3565b0390f35b8060046105936105ec938b6124a5565b5080546001600160a01b03166105a9848c61235c565b5260018101546105b9848861235c565b5260028101546105c9848961235c565b5260038101546105d9848a61235c565b5201546105e6828961235c565b52612486565b610518565b503461017e57602036600319011261017e576004356001600160a01b038181169182900361063e5761062890600854163314612584565b6001600160601b0360a01b600254161760025580f35b8280fd5b503461017e57610651366120e7565b908083526005602052604083209061066f60ff6009840154166125da565b60018201546001600160a01b031633036109cf576009546040516323b872dd60e01b815233600482015230602482015260448101859052906020908290606490829089906001600160a01b03165af180156109c4576109a5575b50829084855b600c85015481108061099c575b15610947576106ee81600c8701612568565b50805480156109025760ff6002830154166108f75760018201549061071382826123b9565b8088101561072e575b5050505061072990612486565b6106cf565b90610743610749928298959b949a9799612479565b976123b9565b906002850154968a5b600b8701548110156108a05761076b81600b89016124a5565b50600181015480670de0b6b3a7640000810204670de0b6b3a7640000148115171561088c578d61083393928d610803670de0b6b3a76400008f8f826107c16107ba6107c8948360209c02612399565b8093612370565b0494612370565b04600384016107d88482546123b9565b9055600484016107e98282546123b9565b905560095493546001600160a01b039485169416926123b9565b60405163a9059cbb60e01b81526001600160a01b0390921660048301526024820152948592839182906044820190565b03925af19182156108815761084d92610852575b50612486565b610752565b6108739060203d60201161087a575b61086b818361220b565b8101906122dd565b5038610847565b503d610861565b6040513d8f823e3d90fd5b634e487b7160e01b8e52601160045260248efd5b5096509790939650610729929194506002600160ff198284015416179101557f3d05ac2057427ac2f84502e7efefebf5ae10d9529129c2979ce60fb97d46061460408051868152836020820152a19038808061071c565b505061072990612486565b60405162461bcd60e51b815260206004820152601860248201527f496e7374616c6c6d656e7420616c7265616479207061696400000000000000006044820152606490fd5b867fdc376abd09229a842ac7d8bcadc9017651f1f1b8490750870cae0ecd4aedf67460808587610981818c61097c8a8661261b565b612479565b6040519283523360208401526040830152156060820152a180f35b508315156106dc565b6109bd9060203d60201161087a5761086b818361220b565b50386106c9565b6040513d87823e3d90fd5b60405162461bcd60e51b815260206004820152601760248201527f4f6e6c7920626f72726f7765722063616e2072657061790000000000000000006044820152606490fd5b503461017e57602036600319011261017e576004356001600160a01b038181169182900361063e57610a4b90600854163314612584565b6001600160601b0360a01b600354161760035580f35b503461017e576020908160031936011261017e5790600435825260058152600c60408320018054610a91816122f5565b90610a9f604051928361220b565b8082528382018093865284862086915b838310610b1357505050506040519280840191818552518092526040840192945b828110610add5784840385f35b85518051855280830151858401526040808201511515908601526060908101519085015294810194608090930192600101610ad0565b60048760019260409a9997989a51610b2a816121bd565b85548152848601548382015260ff60028701541615156040820152600386015460608201528152019201920191909694939596610aaf565b503461017e5760a036600319011261017e5760643567ffffffffffffffff811161044857610b94903690600401612102565b9060843567ffffffffffffffff81116117fa57610bb5903690600401612102565b92600435156117c4576024351561178c578381036117325780156116f7576014600435029160043583046014036111c457610bf560648404600435612479565b6009546040516323b872dd60e01b8152336004820152306024820152606480870460448301529296929091602091839182908c906001600160a01b03165af180156116ec576116cd575b509084929160405160208101903360601b825242603482015260348152610c65816121ef565b519020968789526005602052606460408a209689885560018801336001600160601b0360a01b825416179055600435600a89015586600289015504600387015560443560048701556024356005870155426007870155610cc3612279565b600887015560098601600160ff1982541617905584600e870155600f860160ff1981541690558893895b81811061148c5750505050500361143657670de0b6b3a764000060443502906044358204670de0b6b3a76400001460443515171561142257610d336104b0830484612370565b6104b08304670de0b6b3a764000001670de0b6b3a7640000116111c4576104b08304670de0b6b3a7640000011561140e57610d886024356104b08504670de0b6b3a764000001670de0b6b3a7640000046124c1565b670de0b6b3a76400000390670de0b6b3a764000082116111b057600691610dae91612399565b91015582845260056020526040842091670de0b6b3a764000081865b60243581106113e4575081610de7610dec926104b0870490612370565b612370565b9080670de0b6b3a763ffff198101116111b057670de0b6b3a764000091610e1e91670de0b6b3a763ffff190190612399565b0480600685015585915b6024358310611274578686600754600160401b81101561126057806001610e529201600755612170565b815460001960039290921b91821b19169083901b179055338252600660209081526040808420805460ff1916600190811790915583855260058352818520600a8101546009549254935163095ea7b360e01b81526001600160a01b039485166004820152602481018290529194909391929091839160449183918a91165af180156109c457611241575b50604051610ee9816121ef565b6002815260403660208301376009546001600160a01b0316610f0a8261233f565b526002546001600160a01b0316610f208261234c565b52600354604051633fabe5a360e21b81529060a090829060049082906001600160a01b03165afa90811561115957869161120d575b50858113156111d8576305f5e1008084029084820414841517156111b05790610f7d91612399565b806062810204606214811517156111c4576001546001600160a01b0316914261012c8101106111b05791610fdb9391878094604051968795869485936338ed173960e01b855261012c42019260646062309402049060048701612440565b03925af180156111a557610ff6918591611183575b5061234c565b518284526005602090815260408086206002548754925163095ea7b360e01b81526001600160a01b0393841660048201526024810186905291939192839160449183918b91165af1801561115957611164575b50845460025486916001600160a01b039182169116803b1561063e5760848392604051948593849263617ba03760e01b845260048401528860248401523060448401528160648401525af1801561115957611128575b506080927faeec09af87559b9077da2e499d1fad2e228d7c24cb4b566fe61976820abaadda6060846002857f65410888fb30edd04f6acfb2f6cfd92aaf0ebb9b5303b6286d65d0b031b5b7f79997600d60039801550154906040519187835260208301526040820152a1015460405191825260043560208301526040820152336060820152a180f35b67ffffffffffffffff81969296116111455760405293608061109f565b634e487b7160e01b82526041600452602482fd5b6040513d88823e3d90fd5b61117c9060203d60201161087a5761086b818361220b565b5085611049565b61119f91503d8087833e611197818361220b565b8101906123c6565b85610ff0565b6040513d86823e3d90fd5b634e487b7160e01b87526011600452602487fd5b634e487b7160e01b86526011600452602486fd5b60405162461bcd60e51b815260206004820152600d60248201526c496e76616c696420707269636560981b6044820152606490fd5b61122f915060a03d60a01161123a575b611227818361220b565b810190612244565b505050905086610f55565b503d61121d565b6112599060203d60201161087a5761086b818361220b565b5084610edc565b634e487b7160e01b83526041600452602483fd5b670de0b6b3a764000061128b6104b0860483612370565b0490818311156113de5761129f8284612479565b916024356000198101116113ca576024356000190185146113b5575b62278d0085818102048114861517156113a1576112da908602426123b9565b604051916112e7836121bd565b84835260208301528960408301526060820152600c870154600160401b81101561138d578060016113219201600c8a0155600c8901612568565b91909161137957916113739391600360608561136d965184556020810151600185015561136360408201511515600286019060ff801983541691151516179055565b0151910155612479565b92612486565b91610e28565b634e487b7160e01b8a5260048a905260248afd5b634e487b7160e01b8a52604160045260248afd5b634e487b7160e01b8a52601160045260248afd5b92509050806113c483826123b9565b926112bb565b634e487b7160e01b89526011600452602489fd5b8761129f565b91670de0b6b3a7640000611402611409926104b08804830190612370565b0492612486565b610dca565b634e487b7160e01b86526012600452602486fd5b634e487b7160e01b85526011600452602485fd5b60405162461bcd60e51b815260206004820152602860248201527f436f6c6c656374656420616d6f756e7420646f65736e2774206d6174636820706044820152671c9a5b98da5c185b60c21b6064820152608490fd5b9091929394955061149e818386612495565b356001600160a01b03811681036116c9576114ba828588612495565b3596871561168c578b90602061151060018060a01b03600954168b6040519586809481936323b872dd60e01b8352308b6004850160409194939294606082019560018060a01b0380921683521660208201520152565b03925af19081156108815761152c928a9261166d575b506123b9565b9660018060a01b0382168c52600460205260408c2061154c8282546123b9565b90556104b0611563602435610de760443585612370565b0490604051928360a081011067ffffffffffffffff60a0860111176116595760a0840160405260018060a01b03168352602083015260408201528a60608201528a6080820152600b880154600160401b811015611645578060016115d09201600b8b0155600b8a016124a5565b91909161163157805182546001600160a01b0319166001600160a01b03919091161782556020810151600183015560408101516002830155606081015160038301556080015160049091015561162590612486565b90879594939291610ced565b634e487b7160e01b8c5260048c905260248cfd5b634e487b7160e01b8c52604160045260248cfd5b634e487b7160e01b8e52604160045260248efd5b6116859060203d60201161087a5761086b818361220b565b5038611526565b60405162461bcd60e51b8152602060048201526015602482015274125b9d985b1a59081b195b99195c88185b5bdd5b9d605a1b6044820152606490fd5b8a80fd5b6116e59060203d60201161087a5761086b818361220b565b5038610c3f565b6040513d8a823e3d90fd5b60405162461bcd60e51b8152602060048201526013602482015272139bc81b195b99195c9cc81c1c9bdd9a591959606a1b6044820152606490fd5b60405162461bcd60e51b815260206004820152602c60248201527f4c656e6465722061646472657373657320616e6420616d6f756e7473206c656e60448201526b0cee8d040dad2e6dac2e8c6d60a31b6064820152608490fd5b60405162461bcd60e51b815260206004820152601060248201526f24b73b30b634b210323ab930ba34b7b760811b6044820152606490fd5b60405162461bcd60e51b815260206004820152600e60248201526d125b9d985b1a5908185b5bdd5b9d60921b6044820152606490fd5b8380fd5b503461017e57602036600319011261017e5760043560148102918183046014148215171561184357506118376064604093048092612479565b82519182526020820152f35b634e487b7160e01b81526011600452602490fd5b503461017e57604061183761186b366120e7565b90612f15565b503461017e57602036600319011261017e576004356001600160a01b038181169182900361063e576118a890600854163314612584565b6001600160601b0360a01b600154161760015580f35b503461017e57602036600319011261017e576004356001600160a01b038181169182900361063e576118f590600854163314612584565b81546001600160a01b03191617815580f35b503461017e57602036600319011261017e57600d6040602092600435815260058452200154604051908152f35b503461017e57602036600319011261017e576004356001600160a01b03811690819003610448578160409160209352600483522054604051908152f35b503461017e576020806003193601126104485760043560018060a01b0361199d81600854163314612584565b8184526005835260408420926009908185019182549260ff6119c08186166125da565b88908990600c8a018054925b838110611c0757505050506276a7001015611bad5760ff1980941690556001808701938585541689526006845260408920908154169055600d87015480611b9d575b50600380880154600e8901549182611a82575b8a7fcab88a55906c5830a49dddd8b31d115294a5e6c4210f25fe140530a39c51dc748a8a8a541690611a7c611a54612279565b604080519384526001600160a01b039094166020840152928201929092529081906060820190565b0390a180f35b9091928099600b8c9101915b611a99575b50611a21565b8154811015611b9857611aac81836124a5565b50611abe8c8201548583015490612479565b8c8115611b875750670de0b6b3a7640000908181029081048203611b73578796959493928f9192611afc611af6611b389b8e96612399565b89612370565b04918d808c541692541690604051809b8195829463a9059cbb60e01b84526004840160209093929193604081019460018060a01b031681520152565b03925af1908115610881578c96611b5392611b5d5750612486565b9091929394611a8e565b610873908a3d8c1161087a5761086b818361220b565b634e487b7160e01b8f52601160045260248ffd5b96959493929050611b539150612486565b611a93565b611ba79087612a93565b38611a0e565b60405162461bcd60e51b815260048101849052602c60248201527f4c6f616e206973206e6f74206f766572647565206265796f6e642033206d6f6e60448201526b1d1a1cc81a5b881d1bdd185b60a21b6064820152608490fd5b611c118183612568565b5083600282015416611c295760030154804211611c38575b50611c3390612486565b6119cc565b611c339195611c4a611c509242612479565b906123b9565b9490611c29565b503461017e57602036600319011261017e576004356001600160a01b038116908190036104485760408260ff9260209452600684522054166040519015158152f35b503461017e576020806003193601126104485790600435815260058252600c6040822001805491611cc98361230d565b92611cd38161230d565b611cdc826122f5565b91611cea604051938461220b565b808352611cf6816122f5565b8388019590601f1901368737845b828110611d72575050509480611d38611d2b9760405198899860608a5260608a01906120b3565b90888203848a01526120b3565b92868403604088015251928381520193925b828110611d5957505050500390f35b8351151585528695509381019392810192600101611d4a565b8060ff6002611d8a611dbf94869d9a999b9c9d612568565b508054611d97858f61235c565b526001810154611da7858a61235c565b52015416611db5828a61235c565b9015159052612486565b979695939497611d04565b503461017e578060031936011261017e576009546040516001600160a01b039091168152602090f35b503461017e578060031936011261017e576002546040516001600160a01b039091168152602090f35b503461017e57602036600319011261017e57611e4360018060a01b03600854163314612584565b600435815260056020526040812060098101805491611e6460ff84166125da565b611e6c612279565b91600d82016305f5e100611e81858354612370565b0491600e84019283546069810290808204606914901517156113ca5760649004106120505760ff1995861690556001830180546001600160a01b031687526006602052604087208054909616909555548061203e575b50600382015490549182611f36575b505091546040805160043581526001600160a01b0390921660208301528101919091527fcab88a55906c5830a49dddd8b31d115294a5e6c4210f25fe140530a39c51dc7491508060608101611a7c565b909192855b600b83015481101561201157611f5481600b85016124a5565b50611f686001820154600383015490612479565b80156120065780670de0b6b3a7640000810204670de0b6b3a7640000036113ca57611fe89291670de0b6b3a7640000611fa8611af68a8360209602612399565b600954925460405163a9059cbb60e01b81526001600160a01b039182166004820152929091046024830152909485929091169082908c9082906044820190565b03925af19182156116ec57612001926108525750612486565b611f3b565b505061200190612486565b50925050507fcab88a55906c5830a49dddd8b31d115294a5e6c4210f25fe140530a39c51dc743880611ee6565b61204a90600435612a93565b38611ed7565b60405162461bcd60e51b815260206004820152603560248201527f4254432076616c756520686173206e6f742064726f707065642062656c6f77206044820152741b1a5c5d5a59185d1a5bdb881d1a1c995cda1bdb19605a1b6064820152608490fd5b90815180825260208080930193019160005b8281106120d3575050505090565b8351855293810193928101926001016120c5565b60409060031901126120fd576004359060243590565b600080fd5b9181601f840112156120fd5782359167ffffffffffffffff83116120fd576020808501948460051b0101116120fd57565b90815180825260208080930193019160005b828110612153575050505090565b83516001600160a01b031685529381019392810192600101612145565b6007548110156121a75760076000527fa66cc928b5edb82af9bd49922954155ab7b0942694bea4ce44661d9a8736c6880190600090565b634e487b7160e01b600052603260045260246000fd5b6080810190811067ffffffffffffffff8211176121d957604052565b634e487b7160e01b600052604160045260246000fd5b6060810190811067ffffffffffffffff8211176121d957604052565b90601f8019910116810190811067ffffffffffffffff8211176121d957604052565b519069ffffffffffffffffffff821682036120fd57565b908160a09103126120fd576122588161222d565b9160208201519160408101519161227660806060840151930161222d565b90565b600354604051633fabe5a360e21b81529060a090829060049082906001600160a01b03165afa9081156122d1576000916122b1575090565b6122c9915060a03d811161123a57611227818361220b565b505050905090565b6040513d6000823e3d90fd5b908160209103126120fd575180151581036120fd5790565b67ffffffffffffffff81116121d95760051b60200190565b90612317826122f5565b612324604051918261220b565b8281528092612335601f19916122f5565b0190602036910137565b8051156121a75760200190565b8051600110156121a75760400190565b80518210156121a75760209160051b010190565b8181029291811591840414171561238357565b634e487b7160e01b600052601160045260246000fd5b81156123a3570490565b634e487b7160e01b600052601260045260246000fd5b9190820180921161238357565b60209081818403126120fd5780519067ffffffffffffffff82116120fd57019180601f840112156120fd5782516123fc816122f5565b9361240a604051958661220b565b818552838086019260051b8201019283116120fd578301905b828210612431575050505090565b81518152908301908301612423565b919260809361246592979695978452602084015260a0604084015260a0830190612133565b6001600160a01b0390951660608201520152565b9190820391821161238357565b60001981146123835760010190565b91908110156121a75760051b0190565b80548210156121a7576000526005602060002091020190600090565b90801561256157811561255a578180600114612552576002146125415760208110610133831016604e8210600b8410161761253c57600190815b80821161251357505081600019048111612383570290565b90928060001904811161238357818416612533575b800292811c906124fb565b80920291612528565b900a90565b905060ff8111612383576001901b90565b505050600190565b5050600090565b5050600190565b80548210156121a75760005260206000209060021b0190600090565b1561258b57565b60405162461bcd60e51b815260206004820152602160248201527f4f6e6c79206f776e65722063616e2063616c6c20746869732066756e6374696f6044820152603760f91b6064820152608490fd5b156125e157565b60405162461bcd60e51b81526020600482015260126024820152714c6f616e206973206e6f742061637469766560701b6044820152606490fd5b906000918083526020600581526040808520938015808015612a87575b8015612a7b575b61267e576305f5e1008083029283041417156111c457612666600d91600887015490612399565b9401948554808611612a73575b508415918215612687575b50505050505050565b8482526005845280822093600d85019384548811612a21576129df5760018060a01b03928360025416938351956370a0823160e01b9788885260049230848a0152602492868a85818c5afa998a1561297757869a6129b0575b50868d6064848954169b898c519d8e948593631a4ca37b60e21b85528c8501528a8401523060448401525af1988915612977578699612981575b508682600254169b858a51809e81938252308a8301525afa9a8b1561297757869b612944575b50898b11156128f75788156128b55761279f928792826127628c809554612479565b90556001816002541692015416878a5180968195829463a9059cbb60e01b84528b840160209093929193604081019460018060a01b031681520152565b03925af19081156128ab57849161288e575b501561284c57505092828860a096937f38a556a122683cb48d496614a7a03605b6c2c0482342924caf483386980ecc9f608061283e9c9b987f971c7ec4a7c96c0a198687499279ccf05d9699970007b5ae5017b1177ee02ed39b9851908a8252858583015286820152866060820152a1825196875286015284015260608301526080820152a18254612479565b90553880808080808061267e565b845162461bcd60e51b8152918201849052601b908201527f5472616e7366657220746f20626f72726f776572206661696c656400000000006044820152606490fd5b6128a59150853d871161087a5761086b818361220b565b386127b1565b86513d86823e3d90fd5b875162461bcd60e51b8152808601889052601c818601527f556e7374616b652072657475726e6564207a65726f20746f6b656e73000000006044820152606490fd5b875162461bcd60e51b81528086018890526022818601527f5769746864726177616c206469646e277420696e6372656173652062616c616e604482015261636560f01b6064820152608490fd5b909a508681813d8311612970575b61295c818361220b565b8101031261296c57519938612740565b8580fd5b503d612952565b88513d88823e3d90fd5b9098508681813d83116129a9575b612999818361220b565b8101031261296c5751973861271a565b503d61298f565b9099508681813d83116129d8575b6129c8818361220b565b8101031261296c575198386126e0565b503d6129be565b606491519062461bcd60e51b82526004820152601a60248201527f43616e6e6f7420756e7374616b65207a65726f20616d6f756e740000000000006044820152fd5b50608491519062461bcd60e51b82526004820152602660248201527f43616e6e6f7420756e7374616b65206d6f7265207468616e207374616b656420604482015265185b5bdd5b9d60d21b6064820152fd5b945038612673565b50600d8601541561263f565b50600886015415612638565b90600090828252602091600583526040600d818320019283548111612ec2578015612e7e5760025482516370a0823160e01b808252306004808401919091529097919691926001600160a01b03926024918416858a8481845afa998a15612e7457899a612e41575b5090858594939260648b97885416918b519c8d938492631a4ca37b60e21b8452898401528c888401523060448401525af1988915612d46578599612e12575b508584600254169b838a51809e8193825230888301525afa9a8b15612d4657859b612ddf575b50898b1115612d92578815612d5057612b7a898254612479565b9055600254600154885163095ea7b360e01b81529085166001600160a01b0316848201908152602081018b905290918791839187169082908990829060400103925af18015612d4657612d29575b50865191612bd5836121ef565b600283528736878501378360025416612bed8461233f565b528360095416612bfc8461234c565b52605f890293898504605f03612d1757600154169161012c420190814211612d06575090858a612c49829695948c51988997889687956338ed173960e01b87526064309404918701612440565b03925af1908115612cfc57608083612cb37f971c7ec4a7c96c0a198687499279ccf05d9699970007b5ae5017b1177ee02ed39c9a9896947f38a556a122683cb48d496614a7a03605b6c2c0482342924caf483386980ecc9f9460a09d9b999791612ce2575061234c565b51908651918b83528686840152878301526060820152a1825196875286015284015260608301526080820152a1565b612cf691503d8085833e611197818361220b565b38610ff0565b85513d84823e3d90fd5b634e487b7160e01b87526011835286fd5b50634e487b7160e01b85526011905283fd5b612d3f90863d881161087a5761086b818361220b565b5038612bc8565b88513d87823e3d90fd5b875162461bcd60e51b8152808401879052601c818401527f556e7374616b652072657475726e6564207a65726f20746f6b656e73000000006044820152606490fd5b875162461bcd60e51b81528084018790526022818401527f5769746864726177616c206469646e277420696e6372656173652062616c616e604482015261636560f01b6064820152608490fd5b909a508581813d8311612e0b575b612df7818361220b565b81010312612e0757519938612b60565b8480fd5b503d612ded565b9098508581813d8311612e3a575b612e2a818361220b565b81010312612e0757519738612b3a565b503d612e20565b9099508581813d8311612e6d575b612e59818361220b565b81010312612e6957519885612afb565b8880fd5b503d612e4f565b88513d8b823e3d90fd5b815162461bcd60e51b815260048101869052601a60248201527f43616e6e6f7420756e7374616b65207a65726f20616d6f756e740000000000006044820152606490fd5b815162461bcd60e51b815260048101869052602660248201527f43616e6e6f7420756e7374616b65206d6f7265207468616e207374616b656420604482015265185b5bdd5b9d60d21b6064820152608490fd5b600090815260056020526040812060028101549093928115612f6b57670de0b6b3a76400009283820291808304851490151715611843575093612f5d612f6792600d96612399565b9485910154612370565b0490565b5050809250919056fea264697066735822122083dff10d42d5972ee5051434c52c9c8d8f9dc5448c723371d0a1d68903167dbe64736f6c63430008140033",
  "linkReferences": {},
  "deployedLinkReferences": {}
}