{
  "_format": "hh-sol-artifact-1",
  "contractName": "LendingPool",
  "sourceName": "Contracts/Lending.sol",
  "abi": [
    {
      "inputs": [
        {
          "internalType": "address",
          "name": "usdc",
          "type": "address"
        },
        {
          "internalType": "address",
          "name": "_cbBtcToken",
          "type": "address"
        },
        {
          "internalType": "address",
          "name": "oracleAddress",
          "type": "address"
        },
        {
          "internalType": "address",
          "name": "_aavePool",
          "type": "address"
        },
        {
          "internalType": "address",
          "name": "_swapRouter",
          "type": "address"
        }
      ],
      "stateMutability": "nonpayable",
      "type": "constructor"
    },
    {
      "anonymous": false,
      "inputs": [
        {
          "indexed": false,
          "internalType": "bytes32",
          "name": "loanId",
          "type": "bytes32"
        },
        {
          "indexed": false,
          "internalType": "uint256",
          "name": "requested",
          "type": "uint256"
        },
        {
          "indexed": false,
          "internalType": "uint256",
          "name": "actualWithdrawn",
          "type": "uint256"
        },
        {
          "indexed": false,
          "internalType": "uint256",
          "name": "preBalance",
          "type": "uint256"
        },
        {
          "indexed": false,
          "internalType": "uint256",
          "name": "postBalance",
          "type": "uint256"
        }
      ],
      "name": "DebugUnstake",
      "type": "event"
    },
    {
      "anonymous": false,
      "inputs": [
        {
          "indexed": false,
          "internalType": "bytes32",
          "name": "loanId",
          "type": "bytes32"
        },
        {
          "indexed": false,
          "internalType": "uint256",
          "name": "principalRepaid",
          "type": "uint256"
        },
        {
          "indexed": false,
          "internalType": "uint256",
          "name": "proportionRepaid",
          "type": "uint256"
        },
        {
          "indexed": false,
          "internalType": "uint256",
          "name": "cbBtcToUnstake",
          "type": "uint256"
        }
      ],
      "name": "DebugUnstakeProportion",
      "type": "event"
    },
    {
      "anonymous": false,
      "inputs": [
        {
          "indexed": false,
          "internalType": "bytes32",
          "name": "loanId",
          "type": "bytes32"
        },
        {
          "indexed": false,
          "internalType": "uint256",
          "name": "index",
          "type": "uint256"
        }
      ],
      "name": "InstallmentPaid",
      "type": "event"
    },
    {
      "anonymous": false,
      "inputs": [
        {
          "indexed": false,
          "internalType": "bytes32",
          "name": "id",
          "type": "bytes32"
        },
        {
          "indexed": false,
          "internalType": "uint256",
          "name": "amount",
          "type": "uint256"
        },
        {
          "indexed": false,
          "internalType": "uint256",
          "name": "collateral",
          "type": "uint256"
        },
        {
          "indexed": false,
          "internalType": "address",
          "name": "borrower",
          "type": "address"
        }
      ],
      "name": "LoanCreated",
      "type": "event"
    },
    {
      "anonymous": false,
      "inputs": [
        {
          "indexed": false,
          "internalType": "bytes32",
          "name": "id",
          "type": "bytes32"
        },
        {
          "indexed": false,
          "internalType": "address",
          "name": "borrower",
          "type": "address"
        },
        {
          "indexed": false,
          "internalType": "uint256",
          "name": "btcPriceNow",
          "type": "uint256"
        }
      ],
      "name": "LoanLiquidated",
      "type": "event"
    },
    {
      "anonymous": false,
      "inputs": [
        {
          "indexed": false,
          "internalType": "bytes32",
          "name": "loanId",
          "type": "bytes32"
        },
        {
          "indexed": false,
          "internalType": "address",
          "name": "borrower",
          "type": "address"
        },
        {
          "indexed": false,
          "internalType": "uint256",
          "name": "amount",
          "type": "uint256"
        },
        {
          "indexed": false,
          "internalType": "bool",
          "name": "fullyRepaid",
          "type": "bool"
        }
      ],
      "name": "Payout",
      "type": "event"
    },
    {
      "anonymous": false,
      "inputs": [
        {
          "indexed": false,
          "internalType": "bytes32",
          "name": "loanId",
          "type": "bytes32"
        },
        {
          "indexed": false,
          "internalType": "uint256",
          "name": "usdcAmount",
          "type": "uint256"
        },
        {
          "indexed": false,
          "internalType": "uint256",
          "name": "cbBtcAmount",
          "type": "uint256"
        }
      ],
      "name": "TokensStaked",
      "type": "event"
    },
    {
      "anonymous": false,
      "inputs": [
        {
          "indexed": false,
          "internalType": "bytes32",
          "name": "loanId",
          "type": "bytes32"
        },
        {
          "indexed": false,
          "internalType": "uint256",
          "name": "cbBtcAmount",
          "type": "uint256"
        },
        {
          "indexed": false,
          "internalType": "uint256",
          "name": "usdcAmount",
          "type": "uint256"
        },
        {
          "indexed": false,
          "internalType": "uint256",
          "name": "borrowerCbBtcShare",
          "type": "uint256"
        }
      ],
      "name": "TokensUnstaked",
      "type": "event"
    },
    {
      "inputs": [],
      "name": "aavePool",
      "outputs": [
        {
          "internalType": "contract IAavePool",
          "name": "",
          "type": "address"
        }
      ],
      "stateMutability": "view",
      "type": "function"
    },
    {
      "inputs": [],
      "name": "accumulatedFees",
      "outputs": [
        {
          "internalType": "uint256",
          "name": "",
          "type": "uint256"
        }
      ],
      "stateMutability": "view",
      "type": "function"
    },
    {
      "inputs": [],
      "name": "cbBtcToken",
      "outputs": [
        {
          "internalType": "address",
          "name": "",
          "type": "address"
        }
      ],
      "stateMutability": "view",
      "type": "function"
    },
    {
      "inputs": [],
      "name": "chainlinkOracle",
      "outputs": [
        {
          "internalType": "contract AggregatorV3Interface",
          "name": "",
          "type": "address"
        }
      ],
      "stateMutability": "view",
      "type": "function"
    },
    {
      "inputs": [
        {
          "internalType": "bytes32",
          "name": "loanId",
          "type": "bytes32"
        },
        {
          "internalType": "uint256",
          "name": "principalRepaid",
          "type": "uint256"
        }
      ],
      "name": "debugUnstakeCalc",
      "outputs": [
        {
          "internalType": "uint256",
          "name": "proportionRepaid",
          "type": "uint256"
        },
        {
          "internalType": "uint256",
          "name": "cbBtcToUnstake",
          "type": "uint256"
        }
      ],
      "stateMutability": "view",
      "type": "function"
    },
    {
      "inputs": [
        {
          "internalType": "uint256",
          "name": "amount",
          "type": "uint256"
        }
      ],
      "name": "depositToPool",
      "outputs": [],
      "stateMutability": "nonpayable",
      "type": "function"
    },
    {
      "inputs": [],
      "name": "earlyClosureFeeBps",
      "outputs": [
        {
          "internalType": "uint256",
          "name": "",
          "type": "uint256"
        }
      ],
      "stateMutability": "view",
      "type": "function"
    },
    {
      "inputs": [
        {
          "internalType": "bytes32",
          "name": "loanId",
          "type": "bytes32"
        }
      ],
      "name": "getAmortizationSchedule",
      "outputs": [
        {
          "internalType": "uint256[]",
          "name": "principals",
          "type": "uint256[]"
        },
        {
          "internalType": "uint256[]",
          "name": "interests",
          "type": "uint256[]"
        },
        {
          "internalType": "bool[]",
          "name": "paidStatuses",
          "type": "bool[]"
        }
      ],
      "stateMutability": "view",
      "type": "function"
    },
    {
      "inputs": [
        {
          "internalType": "bytes32",
          "name": "loanId",
          "type": "bytes32"
        }
      ],
      "name": "getContributions",
      "outputs": [
        {
          "internalType": "address[]",
          "name": "lenders",
          "type": "address[]"
        },
        {
          "internalType": "uint256[]",
          "name": "amounts",
          "type": "uint256[]"
        },
        {
          "internalType": "uint256[]",
          "name": "receivableInterests",
          "type": "uint256[]"
        },
        {
          "internalType": "uint256[]",
          "name": "repaidPrincipals",
          "type": "uint256[]"
        },
        {
          "internalType": "uint256[]",
          "name": "repaidInterests",
          "type": "uint256[]"
        }
      ],
      "stateMutability": "view",
      "type": "function"
    },
    {
      "inputs": [
        {
          "internalType": "bytes32",
          "name": "loanId",
          "type": "bytes32"
        }
      ],
      "name": "getInstallmentSchedule",
      "outputs": [
        {
          "components": [
            {
              "internalType": "uint256",
              "name": "duePrincipal",
              "type": "uint256"
            },
            {
              "internalType": "uint256",
              "name": "dueInterest",
              "type": "uint256"
            },
            {
              "internalType": "bool",
              "name": "paid",
              "type": "bool"
            },
            {
              "internalType": "uint256",
              "name": "dueTimestamp",
              "type": "uint256"
            }
          ],
          "internalType": "struct LendingPool.Installment[]",
          "name": "",
          "type": "tuple[]"
        }
      ],
      "stateMutability": "view",
      "type": "function"
    },
    {
      "inputs": [],
      "name": "getPrice",
      "outputs": [
        {
          "internalType": "int256",
          "name": "",
          "type": "int256"
        }
      ],
      "stateMutability": "view",
      "type": "function"
    },
    {
      "inputs": [
        {
          "internalType": "bytes32",
          "name": "loanId",
          "type": "bytes32"
        }
      ],
      "name": "getStakedAmount",
      "outputs": [
        {
          "internalType": "uint256",
          "name": "",
          "type": "uint256"
        }
      ],
      "stateMutability": "view",
      "type": "function"
    },
    {
      "inputs": [
        {
          "internalType": "address",
          "name": "",
          "type": "address"
        }
      ],
      "name": "hasActiveLoan",
      "outputs": [
        {
          "internalType": "bool",
          "name": "",
          "type": "bool"
        }
      ],
      "stateMutability": "view",
      "type": "function"
    },
    {
      "inputs": [
        {
          "internalType": "address",
          "name": "",
          "type": "address"
        }
      ],
      "name": "lenderPoolBalance",
      "outputs": [
        {
          "internalType": "uint256",
          "name": "",
          "type": "uint256"
        }
      ],
      "stateMutability": "view",
      "type": "function"
    },
    {
      "inputs": [
        {
          "internalType": "address",
          "name": "",
          "type": "address"
        }
      ],
      "name": "lenders",
      "outputs": [
        {
          "internalType": "uint256",
          "name": "totalContributed",
          "type": "uint256"
        }
      ],
      "stateMutability": "view",
      "type": "function"
    },
    {
      "inputs": [
        {
          "internalType": "bytes32",
          "name": "loanId",
          "type": "bytes32"
        }
      ],
      "name": "liquidate",
      "outputs": [],
      "stateMutability": "nonpayable",
      "type": "function"
    },
    {
      "inputs": [
        {
          "internalType": "bytes32",
          "name": "loanId",
          "type": "bytes32"
        }
      ],
      "name": "liquidateIfOverdue",
      "outputs": [],
      "stateMutability": "nonpayable",
      "type": "function"
    },
    {
      "inputs": [
        {
          "internalType": "uint256",
          "name": "totalAmount",
          "type": "uint256"
        },
        {
          "internalType": "uint256",
          "name": "durationMonths",
          "type": "uint256"
        },
        {
          "internalType": "uint256",
          "name": "annualInterestRate",
          "type": "uint256"
        }
      ],
      "name": "loan",
      "outputs": [],
      "stateMutability": "nonpayable",
      "type": "function"
    },
    {
      "inputs": [
        {
          "internalType": "uint256",
          "name": "",
          "type": "uint256"
        }
      ],
      "name": "loanIds",
      "outputs": [
        {
          "internalType": "bytes32",
          "name": "",
          "type": "bytes32"
        }
      ],
      "stateMutability": "view",
      "type": "function"
    },
    {
      "inputs": [
        {
          "internalType": "bytes32",
          "name": "",
          "type": "bytes32"
        }
      ],
      "name": "loans",
      "outputs": [
        {
          "internalType": "bytes32",
          "name": "id",
          "type": "bytes32"
        },
        {
          "internalType": "address",
          "name": "borrower",
          "type": "address"
        },
        {
          "internalType": "uint256",
          "name": "principal",
          "type": "uint256"
        },
        {
          "internalType": "uint256",
          "name": "borrowerDeposit",
          "type": "uint256"
        },
        {
          "internalType": "uint256",
          "name": "interestRate",
          "type": "uint256"
        },
        {
          "internalType": "uint256",
          "name": "duration",
          "type": "uint256"
        },
        {
          "internalType": "uint256",
          "name": "monthlyPayment",
          "type": "uint256"
        },
        {
          "internalType": "uint256",
          "name": "startTime",
          "type": "uint256"
        },
        {
          "internalType": "uint256",
          "name": "btcPriceAtCreation",
          "type": "uint256"
        },
        {
          "internalType": "bool",
          "name": "isActive",
          "type": "bool"
        },
        {
          "internalType": "uint256",
          "name": "totalAmount",
          "type": "uint256"
        },
        {
          "internalType": "uint256",
          "name": "stakedAmount",
          "type": "uint256"
        },
        {
          "internalType": "uint256",
          "name": "remainingPrincipal",
          "type": "uint256"
        }
      ],
      "stateMutability": "view",
      "type": "function"
    },
    {
      "inputs": [
        {
          "internalType": "bytes32",
          "name": "loanId",
          "type": "bytes32"
        },
        {
          "internalType": "uint256",
          "name": "index",
          "type": "uint256"
        }
      ],
      "name": "markInstallmentPaid",
      "outputs": [],
      "stateMutability": "nonpayable",
      "type": "function"
    },
    {
      "inputs": [],
      "name": "missedPaymentFeeBps",
      "outputs": [
        {
          "internalType": "uint256",
          "name": "",
          "type": "uint256"
        }
      ],
      "stateMutability": "view",
      "type": "function"
    },
    {
      "inputs": [],
      "name": "originationFeeBps",
      "outputs": [
        {
          "internalType": "uint256",
          "name": "",
          "type": "uint256"
        }
      ],
      "stateMutability": "view",
      "type": "function"
    },
    {
      "inputs": [],
      "name": "owner",
      "outputs": [
        {
          "internalType": "address",
          "name": "",
          "type": "address"
        }
      ],
      "stateMutability": "view",
      "type": "function"
    },
    {
      "inputs": [
        {
          "internalType": "bytes32",
          "name": "loanId",
          "type": "bytes32"
        },
        {
          "internalType": "uint256",
          "name": "usdcAmount",
          "type": "uint256"
        }
      ],
      "name": "payouts",
      "outputs": [],
      "stateMutability": "nonpayable",
      "type": "function"
    },
    {
      "inputs": [
        {
          "internalType": "address",
          "name": "_aavePool",
          "type": "address"
        }
      ],
      "name": "setAavePool",
      "outputs": [],
      "stateMutability": "nonpayable",
      "type": "function"
    },
    {
      "inputs": [
        {
          "internalType": "address",
          "name": "_cbBtcToken",
          "type": "address"
        }
      ],
      "name": "setCbBtcToken",
      "outputs": [],
      "stateMutability": "nonpayable",
      "type": "function"
    },
    {
      "inputs": [
        {
          "internalType": "address",
          "name": "oracleAddress",
          "type": "address"
        }
      ],
      "name": "setChainlinkOracle",
      "outputs": [],
      "stateMutability": "nonpayable",
      "type": "function"
    },
    {
      "inputs": [
        {
          "internalType": "uint256",
          "name": "bps",
          "type": "uint256"
        }
      ],
      "name": "setEarlyClosureFee",
      "outputs": [],
      "stateMutability": "nonpayable",
      "type": "function"
    },
    {
      "inputs": [
        {
          "internalType": "uint256",
          "name": "bps",
          "type": "uint256"
        }
      ],
      "name": "setMissedPaymentFee",
      "outputs": [],
      "stateMutability": "nonpayable",
      "type": "function"
    },
    {
      "inputs": [
        {
          "internalType": "uint256",
          "name": "bps",
          "type": "uint256"
        }
      ],
      "name": "setOriginationFee",
      "outputs": [],
      "stateMutability": "nonpayable",
      "type": "function"
    },
    {
      "inputs": [
        {
          "internalType": "address",
          "name": "_swapRouter",
          "type": "address"
        }
      ],
      "name": "setSwapRouter",
      "outputs": [],
      "stateMutability": "nonpayable",
      "type": "function"
    },
    {
      "inputs": [],
      "name": "swapRouter",
      "outputs": [
        {
          "internalType": "contract ISwapRouter",
          "name": "",
          "type": "address"
        }
      ],
      "stateMutability": "view",
      "type": "function"
    },
    {
      "inputs": [],
      "name": "totalPoolBalance",
      "outputs": [
        {
          "internalType": "uint256",
          "name": "",
          "type": "uint256"
        }
      ],
      "stateMutability": "view",
      "type": "function"
    },
    {
      "inputs": [],
      "name": "usdcToken",
      "outputs": [
        {
          "internalType": "address",
          "name": "",
          "type": "address"
        }
      ],
      "stateMutability": "view",
      "type": "function"
    },
    {
      "inputs": [
        {
          "internalType": "address",
          "name": "to",
          "type": "address"
        }
      ],
      "name": "withdrawAccumulatedFees",
      "outputs": [],
      "stateMutability": "nonpayable",
      "type": "function"
    },
    {
      "inputs": [
        {
          "internalType": "uint256",
          "name": "amount",
          "type": "uint256"
        }
      ],
      "name": "withdrawFromPool",
      "outputs": [],
      "stateMutability": "nonpayable",
      "type": "function"
    }
  ],
  "bytecode": "0x608034620000fb57601f620036f138819003918201601f19168301916001600160401b03831184841017620001005780849260a094604052833981010312620000fb576200004d8162000116565b906200005c6020820162000116565b906200006b6040820162000116565b91620000886080620000806060850162000116565b930162000116565b9160018060a01b0319943386600854161760085560018060a01b039485809481809416896009541617600955168760025416176002551685600354161760035516836000541617600055169060015416176001556000600c556000600d556000600e556040516135c590816200012c8239f35b600080fd5b634e487b7160e01b600052604160045260246000fd5b51906001600160a01b0382168203620000fb5756fe608080604052600436101561001357600080fd5b600090813560e01c9081630662bcc4146125e9575080630a71096e146122fd5780630e462386146122d457806311eac855146122ab5780631fc8f4df1461217a57806321d4f8db1461213857806328830d4714611e0157806328fd10d714611dc457806330fc43ed14611c2d57806331739bb714611c0f578063337a173714611be2578063349f937c14611b995780634127365714611b4c5780635026d63e14611b2e5780635206d2d014611b08578063587f5ed714611aea57806363eed60314611acc57806368b0e070146119415780636c1945ae146118405780637a9b0412146117f35780637f2006a0146117b557806380f2122c146112df57806383cd8fcf14611292578063864a83b21461079c57806386a2e2741461066a5780638da5cb5b1461064157806398d5fdca1461061e578063a03e4bc3146105f7578063a20ce486146105b6578063b2f0045214610578578063c1f106631461047a578063c31c9c0714610451578063c4a9081514610393578063c9642d2a1461025a578063dcfc8ebf1461021c578063ef06e72c146101f35763f8715a42146101b857600080fd5b346101f05760203660031901126101f057600435906007548210156101f05760206101e28361268c565b90546040519160031b1c8152f35b80fd5b50346101f057806003193601126101f0576003546040516001600160a01b039091168152602090f35b50346101f05760203660031901126101f05760043561024660018060a01b03600854163314612ac8565b610254612710821115613513565b600d5580f35b50346101f05761026936612639565b9061027f60018060a01b03600854163314612ac8565b8083526005602052600c6040842061029d60ff600983015416612b1e565b0190815483101561034e5760ff60026102b68585612aac565b50015416610309578260026102ee7f3d05ac2057427ac2f84502e7efefebf5ae10d9529129c2979ce60fb97d46061495604095612aac565b5001805460ff1916600117905582519182526020820152a180f35b60405162461bcd60e51b815260206004820152601f60248201527f496e7374616c6c6d656e7420616c7265616479206d61726b65642070616964006044820152606490fd5b60405162461bcd60e51b815260206004820152601960248201527f496e76616c696420696e7374616c6c6d656e7420696e646578000000000000006044820152606490fd5b50346101f05760203660031901126101f05760406101a091600435815260056020522080549060018060a01b03600182015416906002810154600382015460048301546005840154600685015460078601549160088701549360ff60098901541695600a89015497600e600d8b01549a01549a6040519c8d5260208d015260408c015260608b015260808a015260a089015260c088015260e08701526101008601521515610120850152610140840152610160830152610180820152f35b50346101f057806003193601126101f0576001546040516001600160a01b039091168152602090f35b50346101f05760203660031901126101f0576004356001600160a01b038082168203610574576104af81600854163314612ac8565b600f54801561053957600f84905560095460405163a9059cbb60e01b81526001600160a01b039490941660048501526024840191909152602091839160449183918791165af1801561052e57610503575080f35b6105239060203d8111610527575b61051b818361273b565b810190612856565b5080f35b503d610511565b6040513d84823e3d90fd5b60405162461bcd60e51b81526020600482015260136024820152724e6f206665657320746f20776974686472617760681b6044820152606490fd5b8280fd5b50346101f05760203660031901126101f0576004356105a260018060a01b03600854163314612ac8565b6105b0612710821115613513565b600e5580f35b50346101f05760203660031901126101f0576004356001600160a01b038116908190036105f3578160409160209352600a83522054604051908152f35b5080fd5b50346101f057806003193601126101f057546040516001600160a01b039091168152602090f35b50346101f057806003193601126101f05760206106396127a9565b604051908152f35b50346101f057806003193601126101f0576008546040516001600160a01b039091168152602090f35b50346101f05760203660031901126101f05760043581526005602052600b60408220019081549061069a826128e0565b916106a4816128e0565b6106ad826128e0565b906106b7836128e0565b926106c1816128e0565b945b81811061072e576106f28761072a8861071c8961070e8a6107008b604051998a9960a08b5260a08b019061264f565b9089820360208b0152612605565b908782036040890152612605565b908582036060870152612605565b908382036080850152612605565b0390f35b80600461073e610797938b613484565b5080546001600160a01b0316610754848c61292f565b526001810154610764848861292f565b526002810154610774848961292f565b526003810154610784848a61292f565b520154610791828961292f565b52612a9d565b6106c3565b50346101f05760603660031901126101f0576044356004351561125c576024351561122457338252600660205260ff6040832054166111d357600435600b541061118e576127106107f1600c5460043561280d565b0480611111575b508154600954604051631a4ca37b60e21b81526001600160a01b0391821660048083019190915235602482015230604482015291602091839160649183918891165af180156111065783906110cd575b61085691506004351461287b565b610864600435600b546128bb565b600b5560146004350260043581046014036110b957606490049061088a826004356128bb565b6009546040516323b872dd60e01b815233600482015230602482015260448101859052919291906020908290606490829089906001600160a01b03165af18015610ec15761109a575b5060405160208101903360601b8252426034820152603481526108f58161271f565b519020928385526005602052604085209084825560018201336001600160601b0360a01b825416179055600435600a8301558360028301556003820155816004820155602435600582015542600782015561094e6127a9565b600882015560098101600160ff1982541617905582600e820155670de0b6b3a7640000820291808304670de0b6b3a76400001490151715611086576109976104b083048461280d565b6104b08304670de0b6b3a764000001670de0b6b3a764000011610e26576104b08304670de0b6b3a76400000115611072576109ec6024356104b08504670de0b6b3a764000001670de0b6b3a7640000046129f6565b670de0b6b3a76400000390670de0b6b3a76400008211610e1257600691610a1291612836565b91015582845260056020526040842091670de0b6b3a764000081865b6024358110611048575081610a4b610a50926104b087049061280d565b61280d565b9080670de0b6b3a763ffff19810111610e1257670de0b6b3a764000091610a8291670de0b6b3a763ffff190190612836565b0480600685015585915b6024358310610ee0578686600754600160401b811015610ecc57806001610ab6920160075561268c565b815460001960039290921b91821b19169083901b179055338252600660209081526040808420805460ff1916600190811790915583855260058352818520600a8101546009549254935163095ea7b360e01b81526001600160a01b03948516600482015260248101829052919594909391929091839160449183918a91165af18015610ec157610ea2575b50604051610b4e8161271f565b6002815260403660208301376009546001600160a01b0316610b6f82612912565b526002546001600160a01b0316610b858261291f565b52600354604051633fabe5a360e21b81529060a090829060049082906001600160a01b03165afa908115610dda578691610e6f575b5085811315610e3a576305f5e100808402908482041484151715610e125790610be291612836565b80606281020460621481151715610e26576001546001600160a01b0316914261012c810110610e125791610c409391878094604051968795869485936338ed173960e01b855261012c420192606460623094020490600487016129bd565b03925af18015610e0757610c5b918591610de5575b5061291f565b518184526005602090815260408086206002548754925163095ea7b360e01b81526001600160a01b0393841660048201526024810186905291939192839160449183918b91165af18015610dda57610dbb575b50845460025486916001600160a01b039182169116803b156105745760405163617ba03760e01b81526001600160a01b03929092166004830152602482018590523060448301526000606483015282908290608490829084905af1801561052e57610d9d575b50926003857faeec09af87559b9077da2e499d1fad2e228d7c24cb4b566fe61976820abaadda6060866002877f65410888fb30edd04f6acfb2f6cfd92aaf0ebb9b5303b6286d65d0b031b5b7f799600d60809a01550154906040519187835260208301526040820152a1015460405191825260043560208301526040820152336060820152a180f35b610da9909493946126d9565b610db7578486939293610d14565b8480fd5b610dd39060203d6020116105275761051b818361273b565b5085610cae565b6040513d88823e3d90fd5b610e0191503d8087833e610df9818361273b565b810190612943565b85610c55565b6040513d86823e3d90fd5b634e487b7160e01b87526011600452602487fd5b634e487b7160e01b86526011600452602486fd5b60405162461bcd60e51b815260206004820152600d60248201526c496e76616c696420707269636560981b6044820152606490fd5b610e90915060a03d8111610e9b575b610e88818361273b565b810190612774565b505050905086610bba565b503d610e7e565b610eba9060203d6020116105275761051b818361273b565b5084610b41565b6040513d87823e3d90fd5b634e487b7160e01b83526041600452602483fd5b670de0b6b3a7640000610ef76104b086048361280d565b04908183111561104257610f0b82846128bb565b9160243560001981011161102e57602435600019018514611019575b62278d00858181020481148615171561100557610f469086024261286e565b60405191610f5383612703565b84835260208301528960408301526060820152600c870154600160401b811015610ff157806001610f8d9201600c8a0155600c8901612aac565b919091610fdd5791610fd793916003606085610fd19651845560208101516001850155600284016040820151151560ff8019835416911617905501519101556128bb565b92612a9d565b91610a8c565b634e487b7160e01b8a5260048a905260248afd5b634e487b7160e01b8a52604160045260248afd5b634e487b7160e01b8a52601160045260248afd5b9250905080611028838261286e565b92610f27565b634e487b7160e01b89526011600452602489fd5b87610f0b565b91670de0b6b3a764000061106661106d926104b0880483019061280d565b0492612a9d565b610a2e565b634e487b7160e01b86526012600452602486fd5b634e487b7160e01b85526011600452602485fd5b6110b29060203d6020116105275761051b818361273b565b50386108d3565b634e487b7160e01b83526011600452602483fd5b506020813d6020116110fe575b816110e76020938361273b565b810103126110f9576108569051610848565b600080fd5b3d91506110da565b6040513d85823e3d90fd5b6009546040516323b872dd60e01b81523360048201523060248201526044810183905291906020908390606490829088906001600160a01b03165af1918215610e07576111669261116f575b50600f5461286e565b600f55386107f8565b6111879060203d6020116105275761051b818361273b565b503861115d565b60405162461bcd60e51b815260206004820152601b60248201527f496e73756666696369656e7420706f6f6c206c697175696469747900000000006044820152606490fd5b60405162461bcd60e51b815260206004820152602360248201527f426f72726f77657220616c72656164792068617320616e20616374697665206c60448201526237b0b760e91b6064820152608490fd5b60405162461bcd60e51b815260206004820152601060248201526f24b73b30b634b210323ab930ba34b7b760811b6044820152606490fd5b60405162461bcd60e51b815260206004820152600e60248201526d125b9d985b1a5908185b5bdd5b9d60921b6044820152606490fd5b50346101f05760203660031901126101f0576004356001600160a01b0381811691829003610574576112c990600854163314612ac8565b6001600160601b0360a01b600254161760025580f35b50346101f0576112ee36612639565b908083526005602052604083209261130c60ff600986015416612b1e565b60018401546001600160a01b03163303611770576009546040516323b872dd60e01b815233600482015230602482015260448101859052906020908290606490829086906001600160a01b03165af1801561052e57611751575b50829381805b600c830154811080611748575b1561146e5761138b81600c8501612aac565b508054801561142957600282019081549260ff84166113bb5760016113b29101548261286e565b808b10156113cd575b505050506113c890612a9d565b61136c565b6001916113e36113e9926113c897969a9d6128bb565b9b61286e565b9660ff19161790557f3d05ac2057427ac2f84502e7efefebf5ae10d9529129c2979ce60fb97d46061460408051888152836020820152a1903880806113bb565b60405162461bcd60e51b815260206004820152601860248201527f496e7374616c6c6d656e7420616c7265616479207061696400000000000000006044820152606490fd5b509183868661147d82826128bb565b80611608575b50906114bd8184936114b87fdc376abd09229a842ac7d8bcadc9017651f1f1b8490750870cae0ecd4aedf67497608097612b5f565b6128bb565b6040519283523360208401526040830152156060820152a160018283600c840154905b81811061159a575b505081611590575b506114f9575080f35b61150d6002612710920154600d549061280d565b0480611517575080f35b6009546040516323b872dd60e01b81523360048201523060248201526044810183905291906020908390606490829087906001600160a01b03165af19182156111065761156b926115715750600f5461286e565b600f5580f35b6115899060203d6020116105275761051b818361273b565b508361115d565b90504210836114f0565b60ff60026115ab83600c8901612aac565b50015416156115fb576115c181600c8701612aac565b5083600380920154116115de575b506115d990612a9d565b6114e0565b8193506115f16115d992600c8801612aac565b50015492906115cf565b50509050829084806114e8565b600954875460405163095ea7b360e01b81526001600160a01b0391821660048201526024810184905291602091839160449183918d91165af1801561173d5761171e575b50865460095488916001600160a01b039182169116803b156105745760405163617ba03760e01b81526001600160a01b03929092166004830152602482018490523060448301526000606483015282908290608490829084905af1801561052e576116fe575b50508260809493926114b87fdc376abd09229a842ac7d8bcadc9017651f1f1b8490750870cae0ecd4aedf674976116ee6114bd95600b5461286e565b600b559750509250929350611483565b61170b90959493956126d9565b61171a578688949293946116b2565b8680fd5b6117369060203d6020116105275761051b818361273b565b508761164c565b6040513d8a823e3d90fd5b50861515611379565b6117699060203d6020116105275761051b818361273b565b5038611366565b60405162461bcd60e51b815260206004820152601760248201527f4f6e6c7920626f72726f7765722063616e2072657061790000000000000000006044820152606490fd5b50346101f05760203660031901126101f0576004356117df60018060a01b03600854163314612ac8565b6117ed612710821115613513565b600c5580f35b50346101f05760203660031901126101f0576004356001600160a01b03818116918290036105745761182a90600854163314612ac8565b6001600160601b0360a01b600354161760035580f35b50346101f057602090816003193601126101f05790600435825260058152600c60408320018054611870816128c8565b9061187e604051928361273b565b8082528382018093865284862086915b8383106118f257505050506040519280840191818552518092526040840192945b8281106118bc5784840385f35b855180518552808301518584015260408082015115159086015260609081015190850152948101946080909301926001016118af565b60048760019260409a9997989a5161190981612703565b85548152848601548382015260ff6002870154161515604082015260038601546060820152815201920192019190969493959661188e565b50346101f057602090816003193601126101f05760043561196381151561354e565b6009546040516323b872dd60e01b8152336004820152306024820152604481018390526001600160a01b0391859082906064908290889087165af18015610e0757611aaf575b50600954835460405163095ea7b360e01b81529083166001600160a01b0316600482015260248101849052908590829084168187816044810103925af18015610e0757611a92575b50808354169060095416813b15611a8e5760405163617ba03760e01b81526001600160a01b0391909116600482015260248101839052306044820152600060648201529083908290608490829084905af1801561110657611a78575b50600a611a7292933385525260408320611a6882825461286e565b9055600b5461286e565b600b5580f35b611a7292611a87600a926126d9565b9250611a4d565b8380fd5b611aa890853d87116105275761051b818361273b565b50386119f1565b611ac590853d87116105275761051b818361273b565b50386119a9565b50346101f057806003193601126101f0576020600e54604051908152f35b50346101f057806003193601126101f0576020600f54604051908152f35b50346101f0576040611b22611b1c36612639565b906134a0565b82519182526020820152f35b50346101f057806003193601126101f0576020600b54604051908152f35b50346101f05760203660031901126101f0576004356001600160a01b038181169182900361057457611b8390600854163314612ac8565b6001600160601b0360a01b600154161760015580f35b50346101f05760203660031901126101f0576004356001600160a01b038181169182900361057457611bd090600854163314612ac8565b81546001600160a01b03191617815580f35b50346101f05760203660031901126101f057600d6040602092600435815260058452200154604051908152f35b50346101f057806003193601126101f0576020600c54604051908152f35b50346101f0576020806003193601126105f357600435611c4e81151561354e565b338352600a825280604084205410611d7f578290338252600a835260408220611c788282546128bb565b9055611c8681600b546128bb565b600b558154600954604051631a4ca37b60e21b81526001600160a01b0391821660048201526024810184905230604482015290929091859083906064908290889088165af18015610e075785928591611d4c575b5092611ceb82611d1d94951461287b565b60095460405163a9059cbb60e01b81523360048201526024810193909352919485939190921691839182906044820190565b03925af1801561110657611d2f578280f35b81611d4592903d106105275761051b818361273b565b5038808280f35b83819492503d8311611d78575b611d63818361273b565b81010312611a8e579051849190611ceb611cda565b503d611d59565b60405162461bcd60e51b815260048101839052601960248201527f496e73756666696369656e7420706f6f6c2062616c616e6365000000000000006044820152606490fd5b50346101f05760203660031901126101f0576004356001600160a01b038116908190036105f3578160409160209352600483522054604051908152f35b50346101f0576020806003193601126105f35760043560018060a01b03611e2d81600854163314612ac8565b8184526005835260408420926009908185019160ff611e4e81855416612b1e565b87908890600c89018054925b8381106120e857505050506276a700101561208e57600e8601612710611e848254600d549061280d565b048061206c575b5060ff199384815416905560019081880194868654168a526006855260408a20908154169055600d8801548061205c575b506003908189015490549182611f2e575b8a7fcab88a55906c5830a49dddd8b31d115294a5e6c4210f25fe140530a39c51dc748a8a8a541690611f28611f006127a9565b604080519384526001600160a01b039094166020840152928201929092529081906060820190565b0390a180f35b9091928099600b8c9101915b611f45575b50611ecd565b815481101561205757611f588183613484565b50611f6a8c82015485830154906128bb565b8c81156120465750670de0b6b3a7640000908181029081048203612032578796959493928f9192611fa8611fa2611fe49b8e96612836565b8961280d565b04918d808c541692541690604051809b8195829463a9059cbb60e01b84526004840160209093929193604081019460018060a01b031681520152565b03925af1908115612027578c966120009261200a575b50612a9d565b9091929394611f3a565b612020908a3d8c116105275761051b818361273b565b5038611ffa565b6040513d8f823e3d90fd5b634e487b7160e01b8f52601160045260248ffd5b969594939290506120009150612a9d565b611f3f565b6120669088612ffe565b38611ebc565b8061207c61208692600f5461286e565b600f5582546128bb565b815538611e8b565b60405162461bcd60e51b815260048101839052602c60248201527f4c6f616e206973206e6f74206f766572647565206265796f6e642033206d6f6e60448201526b1d1a1cc81a5b881d1bdd185b60a21b6064820152608490fd5b6120f28183612aac565b508360028201541661210a5760030154804211612119575b5061211490612a9d565b611e5a565b612114919561212b61213192426128bb565b9061286e565b949061210a565b50346101f05760203660031901126101f0576004356001600160a01b038116908190036105f35760408260ff9260209452600684522054166040519015158152f35b50346101f0576020806003193601126105f35790600435815260058252600c60408220018054916121aa836128e0565b926121b4816128e0565b6121bd826128c8565b916121cb604051938461273b565b8083526121d7816128c8565b8388019590601f1901368737845b82811061225357505050948061221961220c9760405198899860608a5260608a0190612605565b90888203848a0152612605565b92868403604088015251928381520193925b82811061223a57505050500390f35b835115158552869550938101939281019260010161222b565b8060ff600261226b6122a094869d9a999b9c9d612aac565b508054612278858f61292f565b526001810154612288858a61292f565b52015416612296828a61292f565b9015159052612a9d565b9796959394976121e5565b50346101f057806003193601126101f0576009546040516001600160a01b039091168152602090f35b50346101f057806003193601126101f0576002546040516001600160a01b039091168152602090f35b50346101f05760203660031901126101f05761232460018060a01b03600854163314612ac8565b60043581526005602052604081206009810180549161234560ff8416612b1e565b61234d6127a9565b91600d82016305f5e10061236285835461280d565b0491600e840192835460698102908082046069149015171561102e5760649004106125865760ff1995861690556001830180546001600160a01b0316875260066020526040872080549096169095558154600e54612710916123c4919061280d565b0480612564575b505480612552575b50600382015490549182612432575b505091546040805160043581526001600160a01b0390921660208301528101919091527fcab88a55906c5830a49dddd8b31d115294a5e6c4210f25fe140530a39c51dc7491508060608101611f28565b909192855b600b8301548110156125255761245081600b8501613484565b5061246460018201546003830154906128bb565b801561251a5780670de0b6b3a7640000810204670de0b6b3a76400000361102e576124e49291670de0b6b3a76400006124a4611fa28a8360209602612836565b600954925460405163a9059cbb60e01b81526001600160a01b039182166004820152929091046024830152909485929091169082908c9082906044820190565b03925af191821561173d576124fd926125025750612a9d565b612437565b6120209060203d6020116105275761051b818361273b565b50506124fd90612a9d565b50925050507fcab88a55906c5830a49dddd8b31d115294a5e6c4210f25fe140530a39c51dc7438806123e2565b61255e90600435612ffe565b386123d3565b8061257461257e92600f5461286e565b600f5583546128bb565b8255386123cb565b60405162461bcd60e51b815260206004820152603560248201527f4254432076616c756520686173206e6f742064726f707065642062656c6f77206044820152741b1a5c5d5a59185d1a5bdb881d1a1c995cda1bdb19605a1b6064820152608490fd5b9050346105f357816003193601126105f357602090600d548152f35b90815180825260208080930193019160005b828110612625575050505090565b835185529381019392810192600101612617565b60409060031901126110f9576004359060243590565b90815180825260208080930193019160005b82811061266f575050505090565b83516001600160a01b031685529381019392810192600101612661565b6007548110156126c35760076000527fa66cc928b5edb82af9bd49922954155ab7b0942694bea4ce44661d9a8736c6880190600090565b634e487b7160e01b600052603260045260246000fd5b67ffffffffffffffff81116126ed57604052565b634e487b7160e01b600052604160045260246000fd5b6080810190811067ffffffffffffffff8211176126ed57604052565b6060810190811067ffffffffffffffff8211176126ed57604052565b90601f8019910116810190811067ffffffffffffffff8211176126ed57604052565b519069ffffffffffffffffffff821682036110f957565b908160a09103126110f9576127888161275d565b916020820151916040810151916127a660806060840151930161275d565b90565b600354604051633fabe5a360e21b81529060a090829060049082906001600160a01b03165afa908115612801576000916127e1575090565b6127f9915060a03d8111610e9b57610e88818361273b565b505050905090565b6040513d6000823e3d90fd5b8181029291811591840414171561282057565b634e487b7160e01b600052601160045260246000fd5b8115612840570490565b634e487b7160e01b600052601260045260246000fd5b908160209103126110f9575180151581036110f95790565b9190820180921161282057565b1561288257565b60405162461bcd60e51b81526020600482015260116024820152700aed2e8d0c8e4c2ee40dad2e6dac2e8c6d607b1b6044820152606490fd5b9190820391821161282057565b67ffffffffffffffff81116126ed5760051b60200190565b906128ea826128c8565b6128f7604051918261273b565b8281528092612908601f19916128c8565b0190602036910137565b8051156126c35760200190565b8051600110156126c35760400190565b80518210156126c35760209160051b010190565b60209081818403126110f95780519067ffffffffffffffff82116110f957019180601f840112156110f9578251612979816128c8565b93612987604051958661273b565b818552838086019260051b8201019283116110f9578301905b8282106129ae575050505090565b815181529083019083016129a0565b91926080936129e292979695978452602084015260a0604084015260a083019061264f565b6001600160a01b0390951660608201520152565b908015612a96578115612a8f578180600114612a8757600214612a765760208110610133831016604e8210600b84101617612a7157600190815b808211612a4857505081600019048111612820570290565b90928060001904811161282057818416612a68575b800292811c90612a30565b80920291612a5d565b900a90565b905060ff8111612820576001901b90565b505050600190565b5050600090565b5050600190565b60001981146128205760010190565b80548210156126c35760005260206000209060021b0190600090565b15612acf57565b60405162461bcd60e51b815260206004820152602160248201527f4f6e6c79206f776e65722063616e2063616c6c20746869732066756e6374696f6044820152603760f91b6064820152608490fd5b15612b2557565b60405162461bcd60e51b81526020600482015260126024820152714c6f616e206973206e6f742061637469766560701b6044820152606490fd5b9190600090838252602093600585526040808420928015808015612ff2575b8015612fe6575b612bc4576305f5e10080830292830414171561108657612bac600d91600886015490612836565b9301938454808511612fde575b508315918215612bce575b5050505050509050565b8382526005885280822097600d89019384548711612f8c57612f4a5760018060a01b03928360025416809a8451956370a0823160e01b97888852858860248160049730898301525afa978815612ee0578598612f19575b50858b9c9d9e612c72999a9b9c8488541690888b51809d81958294631a4ca37b60e21b845230918d850191939290604091606084019560018060a01b038093168552602085015216910152565b03925af1978815612ee0578598612eea575b508582600254169a60248951809d8193825230898301525afa998a15612ee057859a612eb1575b50888a1115612e63578715612e2057612d0a92869282612ccd8b8095546128bb565b9055600181600254169201541686895180968195829463a9059cbb60e01b84528a840160209093929193604081019460018060a01b031681520152565b03925af1908115612e16578391612df9575b5015612db6575092828860a096937f38a556a122683cb48d496614a7a03605b6c2c0482342924caf483386980ecc9f6080612da89c9b987f971c7ec4a7c96c0a198687499279ccf05d9699970007b5ae5017b1177ee02ed39b9851908a8252858583015286820152866060820152a1825196875286015284015260608301526080820152a182546128bb565b905580388080808080612bc4565b835162461bcd60e51b8152908101839052601b60248201527f5472616e7366657220746f20626f72726f776572206661696c656400000000006044820152606490fd5b612e109150843d86116105275761051b818361273b565b38612d1c565b85513d85823e3d90fd5b865162461bcd60e51b8152808501879052601c60248201527f556e7374616b652072657475726e6564207a65726f20746f6b656e73000000006044820152606490fd5b865162461bcd60e51b8152808501879052602260248201527f5769746864726177616c206469646e277420696e6372656173652062616c616e604482015261636560f01b6064820152608490fd5b9099508581813d8311612ed9575b612ec9818361273b565b81010312610db757519838612cab565b503d612ebf565b87513d87823e3d90fd5b9097508581813d8311612f12575b612f02818361273b565b81010312610db757519638612c84565b503d612ef8565b9d9750858e813d8311612f43575b612f31818361273b565b81010312610db7579c51969c85612c25565b503d612f27565b606491519062461bcd60e51b82526004820152601a60248201527f43616e6e6f7420756e7374616b65207a65726f20616d6f756e740000000000006044820152fd5b50608491519062461bcd60e51b82526004820152602660248201527f43616e6e6f7420756e7374616b65206d6f7265207468616e207374616b656420604482015265185b5bdd5b9d60d21b6064820152fd5b935038612bb9565b50600d85015415612b85565b50600885015415612b7e565b9190916000928184526020600581526040600d8187200192835481116134315780156133ed5760018060a01b039283600254169783519489866370a0823160e01b988982528582600494308683015260249485915afa9889156132c55785996133bc575b5084548851631a4ca37b60e21b81526001600160a01b039e909e16848f01908152602081018990523060408201529c9d9b9c9a9b999a87918b91829003606001908290899089165af19889156132c557859961338d575b508584600254169b838a51809e8193825230888301525afa9a8b156132c557859b61335e575b50898b11156133115788156132cf576130f98982546128bb565b9055600254600154885163095ea7b360e01b81529085166001600160a01b0316848201908152602081018b905290918791839187169082908990829060400103925af180156132c5576132a8575b508651916131548361271f565b60028352873687850137836002541661316c84612912565b52836009541661317b8461291f565b52605f890293898504605f0361329657600154169161012c420190814211613285575090858a6131c8829695948c51988997889687956338ed173960e01b875260643094049187016129bd565b03925af190811561327b576080836132327f971c7ec4a7c96c0a198687499279ccf05d9699970007b5ae5017b1177ee02ed39c9a9896947f38a556a122683cb48d496614a7a03605b6c2c0482342924caf483386980ecc9f9460a09d9b999791613261575061291f565b51908651918b83528686840152878301526060820152a1825196875286015284015260608301526080820152a1565b61327591503d8085833e610df9818361273b565b38610c55565b85513d84823e3d90fd5b634e487b7160e01b87526011835286fd5b50634e487b7160e01b85526011905283fd5b6132be90863d88116105275761051b818361273b565b5038613147565b88513d87823e3d90fd5b875162461bcd60e51b8152808401879052601c818401527f556e7374616b652072657475726e6564207a65726f20746f6b656e73000000006044820152606490fd5b875162461bcd60e51b81528084018790526022818401527f5769746864726177616c206469646e277420696e6372656173652062616c616e604482015261636560f01b6064820152608490fd5b909a508581813d8311613386575b613376818361273b565b81010312610db7575199386130df565b503d61336c565b9098508581813d83116133b5575b6133a5818361273b565b81010312610db7575197386130b9565b503d61339b565b9c9850858d813d83116133e6575b6133d4818361273b565b81010312610db7579b51979b85613062565b503d6133ca565b815162461bcd60e51b815260048101849052601a60248201527f43616e6e6f7420756e7374616b65207a65726f20616d6f756e740000000000006044820152606490fd5b815162461bcd60e51b815260048101849052602660248201527f43616e6e6f7420756e7374616b65206d6f7265207468616e207374616b656420604482015265185b5bdd5b9d60d21b6064820152608490fd5b80548210156126c3576000526005602060002091020190600090565b60009081526005602052604081206002810154909392811561350a57670de0b6b3a764000092838202918083048514901517156134f65750936134e86134f292600d96612836565b948591015461280d565b0490565b634e487b7160e01b81526011600452602490fd5b50508092509190565b1561351a57565b60405162461bcd60e51b815260206004820152600c60248201526b08ccaca40e8dede40d0d2ced60a31b6044820152606490fd5b1561355557565b60405162461bcd60e51b81526020600482015260126024820152710416d6f756e74206d757374206265203e20360741b6044820152606490fdfea2646970667358221220b10969ad24e62d4ecd29f22f2fa081c349166449962ed52e1c5e78a5dea04bbb64736f6c63430008140033",
  "linkReferences": {},
  "deployedLinkReferences": {}
}