{
  "_format": "hh-sol-artifact-1",
  "contractName": "LendingPool",
  "sourceName": "contracts/Lending.sol",
  "abi": [
    {
      "inputs": [
        {
          "internalType": "address",
          "name": "usdc",
          "type": "address"
        },
        {
          "internalType": "address",
          "name": "_cbBtcToken",
          "type": "address"
        },
        {
          "internalType": "address",
          "name": "oracleAddress",
          "type": "address"
        },
        {
          "internalType": "address",
          "name": "_aavePool",
          "type": "address"
        },
        {
          "internalType": "address",
          "name": "_swapRouter",
          "type": "address"
        }
      ],
      "stateMutability": "nonpayable",
      "type": "constructor"
    },
    {
      "anonymous": false,
      "inputs": [
        {
          "indexed": false,
          "internalType": "bytes32",
          "name": "loanId",
          "type": "bytes32"
        },
        {
          "indexed": false,
          "internalType": "uint256",
          "name": "requested",
          "type": "uint256"
        },
        {
          "indexed": false,
          "internalType": "uint256",
          "name": "actualWithdrawn",
          "type": "uint256"
        },
        {
          "indexed": false,
          "internalType": "uint256",
          "name": "preBalance",
          "type": "uint256"
        },
        {
          "indexed": false,
          "internalType": "uint256",
          "name": "postBalance",
          "type": "uint256"
        }
      ],
      "name": "DebugUnstake",
      "type": "event"
    },
    {
      "anonymous": false,
      "inputs": [
        {
          "indexed": false,
          "internalType": "bytes32",
          "name": "loanId",
          "type": "bytes32"
        },
        {
          "indexed": false,
          "internalType": "uint256",
          "name": "principalRepaid",
          "type": "uint256"
        },
        {
          "indexed": false,
          "internalType": "uint256",
          "name": "proportionRepaid",
          "type": "uint256"
        },
        {
          "indexed": false,
          "internalType": "uint256",
          "name": "cbBtcToUnstake",
          "type": "uint256"
        }
      ],
      "name": "DebugUnstakeProportion",
      "type": "event"
    },
    {
      "anonymous": false,
      "inputs": [
        {
          "indexed": true,
          "internalType": "address",
          "name": "lender",
          "type": "address"
        },
        {
          "indexed": false,
          "internalType": "uint256",
          "name": "amount",
          "type": "uint256"
        },
        {
          "indexed": false,
          "internalType": "bool",
          "name": "reinvest",
          "type": "bool"
        }
      ],
      "name": "Deposit",
      "type": "event"
    },
    {
      "anonymous": false,
      "inputs": [
        {
          "indexed": false,
          "internalType": "bytes32",
          "name": "loanId",
          "type": "bytes32"
        },
        {
          "indexed": false,
          "internalType": "uint256",
          "name": "index",
          "type": "uint256"
        }
      ],
      "name": "InstallmentPaid",
      "type": "event"
    },
    {
      "anonymous": false,
      "inputs": [
        {
          "indexed": false,
          "internalType": "bytes32",
          "name": "id",
          "type": "bytes32"
        },
        {
          "indexed": false,
          "internalType": "uint256",
          "name": "amount",
          "type": "uint256"
        },
        {
          "indexed": false,
          "internalType": "uint256",
          "name": "collateral",
          "type": "uint256"
        },
        {
          "indexed": false,
          "internalType": "address",
          "name": "borrower",
          "type": "address"
        }
      ],
      "name": "LoanCreated",
      "type": "event"
    },
    {
      "anonymous": false,
      "inputs": [
        {
          "indexed": false,
          "internalType": "bytes32",
          "name": "id",
          "type": "bytes32"
        },
        {
          "indexed": false,
          "internalType": "address",
          "name": "borrower",
          "type": "address"
        },
        {
          "indexed": false,
          "internalType": "uint256",
          "name": "btcPriceNow",
          "type": "uint256"
        }
      ],
      "name": "LoanLiquidated",
      "type": "event"
    },
    {
      "anonymous": false,
      "inputs": [
        {
          "indexed": false,
          "internalType": "bytes32",
          "name": "loanId",
          "type": "bytes32"
        },
        {
          "indexed": false,
          "internalType": "address",
          "name": "borrower",
          "type": "address"
        },
        {
          "indexed": false,
          "internalType": "uint256",
          "name": "amount",
          "type": "uint256"
        },
        {
          "indexed": false,
          "internalType": "bool",
          "name": "fullyRepaid",
          "type": "bool"
        }
      ],
      "name": "Payout",
      "type": "event"
    },
    {
      "anonymous": false,
      "inputs": [
        {
          "indexed": false,
          "internalType": "bytes32",
          "name": "loanId",
          "type": "bytes32"
        },
        {
          "indexed": false,
          "internalType": "uint256",
          "name": "usdcAmount",
          "type": "uint256"
        },
        {
          "indexed": false,
          "internalType": "uint256",
          "name": "cbBtcAmount",
          "type": "uint256"
        }
      ],
      "name": "TokensStaked",
      "type": "event"
    },
    {
      "anonymous": false,
      "inputs": [
        {
          "indexed": false,
          "internalType": "bytes32",
          "name": "loanId",
          "type": "bytes32"
        },
        {
          "indexed": false,
          "internalType": "uint256",
          "name": "cbBtcAmount",
          "type": "uint256"
        },
        {
          "indexed": false,
          "internalType": "uint256",
          "name": "usdcAmount",
          "type": "uint256"
        },
        {
          "indexed": false,
          "internalType": "uint256",
          "name": "borrowerCbBtcShare",
          "type": "uint256"
        }
      ],
      "name": "TokensUnstaked",
      "type": "event"
    },
    {
      "inputs": [],
      "name": "aavePool",
      "outputs": [
        {
          "internalType": "contract IAavePool",
          "name": "",
          "type": "address"
        }
      ],
      "stateMutability": "view",
      "type": "function"
    },
    {
      "inputs": [],
      "name": "accumulatedFees",
      "outputs": [
        {
          "internalType": "uint256",
          "name": "",
          "type": "uint256"
        }
      ],
      "stateMutability": "view",
      "type": "function"
    },
    {
      "inputs": [],
      "name": "cbBtcToken",
      "outputs": [
        {
          "internalType": "address",
          "name": "",
          "type": "address"
        }
      ],
      "stateMutability": "view",
      "type": "function"
    },
    {
      "inputs": [],
      "name": "chainlinkOracle",
      "outputs": [
        {
          "internalType": "contract AggregatorV3Interface",
          "name": "",
          "type": "address"
        }
      ],
      "stateMutability": "view",
      "type": "function"
    },
    {
      "inputs": [
        {
          "internalType": "uint256",
          "name": "totalAmount",
          "type": "uint256"
        }
      ],
      "name": "computeLoanParts",
      "outputs": [
        {
          "internalType": "uint256",
          "name": "borrowerDeposit",
          "type": "uint256"
        },
        {
          "internalType": "uint256",
          "name": "lenderPrincipal",
          "type": "uint256"
        }
      ],
      "stateMutability": "pure",
      "type": "function"
    },
    {
      "inputs": [
        {
          "internalType": "bytes32",
          "name": "loanId",
          "type": "bytes32"
        },
        {
          "internalType": "uint256",
          "name": "principalRepaid",
          "type": "uint256"
        }
      ],
      "name": "debugUnstakeCalc",
      "outputs": [
        {
          "internalType": "uint256",
          "name": "proportionRepaid",
          "type": "uint256"
        },
        {
          "internalType": "uint256",
          "name": "cbBtcToUnstake",
          "type": "uint256"
        }
      ],
      "stateMutability": "view",
      "type": "function"
    },
    {
      "inputs": [
        {
          "internalType": "uint256",
          "name": "amount",
          "type": "uint256"
        },
        {
          "internalType": "bool",
          "name": "reinvest",
          "type": "bool"
        }
      ],
      "name": "depositToPool",
      "outputs": [],
      "stateMutability": "nonpayable",
      "type": "function"
    },
    {
      "inputs": [],
      "name": "earlyClosureFeeBps",
      "outputs": [
        {
          "internalType": "uint256",
          "name": "",
          "type": "uint256"
        }
      ],
      "stateMutability": "view",
      "type": "function"
    },
    {
      "inputs": [
        {
          "internalType": "bytes32",
          "name": "loanId",
          "type": "bytes32"
        }
      ],
      "name": "getAmortizationSchedule",
      "outputs": [
        {
          "internalType": "uint256[]",
          "name": "principals",
          "type": "uint256[]"
        },
        {
          "internalType": "uint256[]",
          "name": "interests",
          "type": "uint256[]"
        },
        {
          "internalType": "bool[]",
          "name": "paidStatuses",
          "type": "bool[]"
        }
      ],
      "stateMutability": "view",
      "type": "function"
    },
    {
      "inputs": [
        {
          "internalType": "bytes32",
          "name": "loanId",
          "type": "bytes32"
        }
      ],
      "name": "getContributions",
      "outputs": [
        {
          "internalType": "address[]",
          "name": "lenders",
          "type": "address[]"
        },
        {
          "internalType": "uint256[]",
          "name": "amounts",
          "type": "uint256[]"
        },
        {
          "internalType": "uint256[]",
          "name": "receivableInterests",
          "type": "uint256[]"
        },
        {
          "internalType": "uint256[]",
          "name": "repaidPrincipals",
          "type": "uint256[]"
        },
        {
          "internalType": "uint256[]",
          "name": "repaidInterests",
          "type": "uint256[]"
        }
      ],
      "stateMutability": "view",
      "type": "function"
    },
    {
      "inputs": [
        {
          "internalType": "uint256",
          "name": "totalAmount",
          "type": "uint256"
        },
        {
          "internalType": "uint256",
          "name": "borrowerDeposit",
          "type": "uint256"
        }
      ],
      "name": "getDownPaymentBasisPoints",
      "outputs": [
        {
          "internalType": "uint256",
          "name": "downPaymentBps",
          "type": "uint256"
        },
        {
          "internalType": "bool",
          "name": "isValidDownPayment",
          "type": "bool"
        }
      ],
      "stateMutability": "pure",
      "type": "function"
    },
    {
      "inputs": [
        {
          "internalType": "bytes32",
          "name": "loanId",
          "type": "bytes32"
        }
      ],
      "name": "getInstallmentSchedule",
      "outputs": [
        {
          "components": [
            {
              "internalType": "uint256",
              "name": "duePrincipal",
              "type": "uint256"
            },
            {
              "internalType": "uint256",
              "name": "dueInterest",
              "type": "uint256"
            },
            {
              "internalType": "bool",
              "name": "paid",
              "type": "bool"
            },
            {
              "internalType": "uint256",
              "name": "dueTimestamp",
              "type": "uint256"
            }
          ],
          "internalType": "struct LendingPool.Installment[]",
          "name": "",
          "type": "tuple[]"
        }
      ],
      "stateMutability": "view",
      "type": "function"
    },
    {
      "inputs": [
        {
          "internalType": "uint256",
          "name": "totalAmount",
          "type": "uint256"
        },
        {
          "internalType": "uint256",
          "name": "downPaymentPercentage",
          "type": "uint256"
        }
      ],
      "name": "getLoanRequirements",
      "outputs": [
        {
          "internalType": "uint256",
          "name": "borrowerDeposit",
          "type": "uint256"
        },
        {
          "internalType": "uint256",
          "name": "lenderPrincipal",
          "type": "uint256"
        },
        {
          "internalType": "bool",
          "name": "isValidDownPayment",
          "type": "bool"
        }
      ],
      "stateMutability": "pure",
      "type": "function"
    },
    {
      "inputs": [],
      "name": "getPrice",
      "outputs": [
        {
          "internalType": "int256",
          "name": "",
          "type": "int256"
        }
      ],
      "stateMutability": "view",
      "type": "function"
    },
    {
      "inputs": [
        {
          "internalType": "bytes32",
          "name": "loanId",
          "type": "bytes32"
        }
      ],
      "name": "getStakedAmount",
      "outputs": [
        {
          "internalType": "uint256",
          "name": "",
          "type": "uint256"
        }
      ],
      "stateMutability": "view",
      "type": "function"
    },
    {
      "inputs": [
        {
          "internalType": "address",
          "name": "",
          "type": "address"
        }
      ],
      "name": "hasActiveLoan",
      "outputs": [
        {
          "internalType": "bool",
          "name": "",
          "type": "bool"
        }
      ],
      "stateMutability": "view",
      "type": "function"
    },
    {
      "inputs": [
        {
          "internalType": "address",
          "name": "",
          "type": "address"
        }
      ],
      "name": "lenderPoolBalance",
      "outputs": [
        {
          "internalType": "uint256",
          "name": "",
          "type": "uint256"
        }
      ],
      "stateMutability": "view",
      "type": "function"
    },
    {
      "inputs": [
        {
          "internalType": "address",
          "name": "",
          "type": "address"
        }
      ],
      "name": "lenders",
      "outputs": [
        {
          "internalType": "uint256",
          "name": "totalContributed",
          "type": "uint256"
        }
      ],
      "stateMutability": "view",
      "type": "function"
    },
    {
      "inputs": [
        {
          "internalType": "bytes32",
          "name": "loanId",
          "type": "bytes32"
        }
      ],
      "name": "liquidate",
      "outputs": [],
      "stateMutability": "nonpayable",
      "type": "function"
    },
    {
      "inputs": [
        {
          "internalType": "bytes32",
          "name": "loanId",
          "type": "bytes32"
        }
      ],
      "name": "liquidateIfOverdue",
      "outputs": [],
      "stateMutability": "nonpayable",
      "type": "function"
    },
    {
      "inputs": [
        {
          "internalType": "uint256",
          "name": "totalAmount",
          "type": "uint256"
        },
        {
          "internalType": "uint256",
          "name": "durationMonths",
          "type": "uint256"
        },
        {
          "internalType": "uint256",
          "name": "annualInterestRate",
          "type": "uint256"
        },
        {
          "internalType": "uint256",
          "name": "downPaymentPercentage",
          "type": "uint256"
        }
      ],
      "name": "loan",
      "outputs": [],
      "stateMutability": "nonpayable",
      "type": "function"
    },
    {
      "inputs": [
        {
          "internalType": "uint256",
          "name": "",
          "type": "uint256"
        }
      ],
      "name": "loanIds",
      "outputs": [
        {
          "internalType": "bytes32",
          "name": "",
          "type": "bytes32"
        }
      ],
      "stateMutability": "view",
      "type": "function"
    },
    {
      "inputs": [
        {
          "internalType": "bytes32",
          "name": "",
          "type": "bytes32"
        }
      ],
      "name": "loans",
      "outputs": [
        {
          "internalType": "bytes32",
          "name": "id",
          "type": "bytes32"
        },
        {
          "internalType": "address",
          "name": "borrower",
          "type": "address"
        },
        {
          "internalType": "uint256",
          "name": "principal",
          "type": "uint256"
        },
        {
          "internalType": "uint256",
          "name": "borrowerDeposit",
          "type": "uint256"
        },
        {
          "internalType": "uint256",
          "name": "interestRate",
          "type": "uint256"
        },
        {
          "internalType": "uint256",
          "name": "duration",
          "type": "uint256"
        },
        {
          "internalType": "uint256",
          "name": "monthlyPayment",
          "type": "uint256"
        },
        {
          "internalType": "uint256",
          "name": "startTime",
          "type": "uint256"
        },
        {
          "internalType": "uint256",
          "name": "btcPriceAtCreation",
          "type": "uint256"
        },
        {
          "internalType": "bool",
          "name": "isActive",
          "type": "bool"
        },
        {
          "internalType": "uint256",
          "name": "totalAmount",
          "type": "uint256"
        },
        {
          "internalType": "uint256",
          "name": "stakedAmount",
          "type": "uint256"
        },
        {
          "internalType": "uint256",
          "name": "remainingPrincipal",
          "type": "uint256"
        },
        {
          "internalType": "bool",
          "name": "insuranceTaken",
          "type": "bool"
        }
      ],
      "stateMutability": "view",
      "type": "function"
    },
    {
      "inputs": [
        {
          "internalType": "bytes32",
          "name": "loanId",
          "type": "bytes32"
        },
        {
          "internalType": "uint256",
          "name": "index",
          "type": "uint256"
        }
      ],
      "name": "markInstallmentPaid",
      "outputs": [],
      "stateMutability": "nonpayable",
      "type": "function"
    },
    {
      "inputs": [],
      "name": "missedPaymentFeeBps",
      "outputs": [
        {
          "internalType": "uint256",
          "name": "",
          "type": "uint256"
        }
      ],
      "stateMutability": "view",
      "type": "function"
    },
    {
      "inputs": [],
      "name": "originationFeeBps",
      "outputs": [
        {
          "internalType": "uint256",
          "name": "",
          "type": "uint256"
        }
      ],
      "stateMutability": "view",
      "type": "function"
    },
    {
      "inputs": [],
      "name": "owner",
      "outputs": [
        {
          "internalType": "address",
          "name": "",
          "type": "address"
        }
      ],
      "stateMutability": "view",
      "type": "function"
    },
    {
      "inputs": [
        {
          "internalType": "bytes32",
          "name": "loanId",
          "type": "bytes32"
        },
        {
          "internalType": "uint256",
          "name": "usdcAmount",
          "type": "uint256"
        }
      ],
      "name": "payouts",
      "outputs": [],
      "stateMutability": "nonpayable",
      "type": "function"
    },
    {
      "inputs": [
        {
          "internalType": "address",
          "name": "_aavePool",
          "type": "address"
        }
      ],
      "name": "setAavePool",
      "outputs": [],
      "stateMutability": "nonpayable",
      "type": "function"
    },
    {
      "inputs": [
        {
          "internalType": "address",
          "name": "_cbBtcToken",
          "type": "address"
        }
      ],
      "name": "setCbBtcToken",
      "outputs": [],
      "stateMutability": "nonpayable",
      "type": "function"
    },
    {
      "inputs": [
        {
          "internalType": "address",
          "name": "oracleAddress",
          "type": "address"
        }
      ],
      "name": "setChainlinkOracle",
      "outputs": [],
      "stateMutability": "nonpayable",
      "type": "function"
    },
    {
      "inputs": [
        {
          "internalType": "uint256",
          "name": "bps",
          "type": "uint256"
        }
      ],
      "name": "setEarlyClosureFee",
      "outputs": [],
      "stateMutability": "nonpayable",
      "type": "function"
    },
    {
      "inputs": [
        {
          "internalType": "bytes32",
          "name": "loanId",
          "type": "bytes32"
        },
        {
          "internalType": "bool",
          "name": "status",
          "type": "bool"
        }
      ],
      "name": "setInsuranceTaken",
      "outputs": [],
      "stateMutability": "nonpayable",
      "type": "function"
    },
    {
      "inputs": [
        {
          "internalType": "uint256",
          "name": "bps",
          "type": "uint256"
        }
      ],
      "name": "setMissedPaymentFee",
      "outputs": [],
      "stateMutability": "nonpayable",
      "type": "function"
    },
    {
      "inputs": [
        {
          "internalType": "uint256",
          "name": "bps",
          "type": "uint256"
        }
      ],
      "name": "setOriginationFee",
      "outputs": [],
      "stateMutability": "nonpayable",
      "type": "function"
    },
    {
      "inputs": [
        {
          "internalType": "address",
          "name": "_swapRouter",
          "type": "address"
        }
      ],
      "name": "setSwapRouter",
      "outputs": [],
      "stateMutability": "nonpayable",
      "type": "function"
    },
    {
      "inputs": [],
      "name": "swapRouter",
      "outputs": [
        {
          "internalType": "contract ISwapRouter",
          "name": "",
          "type": "address"
        }
      ],
      "stateMutability": "view",
      "type": "function"
    },
    {
      "inputs": [],
      "name": "totalPoolBalance",
      "outputs": [
        {
          "internalType": "uint256",
          "name": "",
          "type": "uint256"
        }
      ],
      "stateMutability": "view",
      "type": "function"
    },
    {
      "inputs": [],
      "name": "usdcToken",
      "outputs": [
        {
          "internalType": "address",
          "name": "",
          "type": "address"
        }
      ],
      "stateMutability": "view",
      "type": "function"
    },
    {
      "inputs": [
        {
          "internalType": "address",
          "name": "to",
          "type": "address"
        }
      ],
      "name": "withdrawAccumulatedFees",
      "outputs": [],
      "stateMutability": "nonpayable",
      "type": "function"
    },
    {
      "inputs": [
        {
          "internalType": "uint256",
          "name": "amount",
          "type": "uint256"
        }
      ],
      "name": "withdrawFromPool",
      "outputs": [],
      "stateMutability": "nonpayable",
      "type": "function"
    }
  ],
  "bytecode": "0x608034620000fb57601f62003ac538819003918201601f19168301916001600160401b03831184841017620001005780849260a094604052833981010312620000fb576200004d8162000116565b906200005c6020820162000116565b906200006b6040820162000116565b91620000886080620000806060850162000116565b930162000116565b9160018060a01b0319943386600854161760085560018060a01b039485809481809416896009541617600955168760025416176002551685600354161760035516836000541617600055169060015416176001556000600c556000600d556000600e5560405161399990816200012c8239f35b600080fd5b634e487b7160e01b600052604160045260246000fd5b51906001600160a01b0382168203620000fb5756fe608080604052600436101561001357600080fd5b600090813560e01c9081630662bcc4146129be575080630a71096e146126d25780630e462386146126a957806311eac8551461268057806317007125146126155780631fc8f4df146124e457806321d4f8db146124a257806328830d471461216b57806328fd10d71461212e57806329055efc1461154b57806330fc43ed146113a257806331739bb714611384578063337a173714611357578063349f937c1461130e57806341273657146112c15780635026d63e146112a35780635206d2d014611289578063587f5ed71461126b5780636221fa301461121257806363eed603146111f45780636c1945ae146110f35780637a9b0412146110a65780637c5b296014610f835780637f2006a014610f4557806380f2122c14610a6e57806383cd8fcf14610a2157806386a2e274146108ef5780638da5cb5b146108c657806398d5fdca146108a3578063a03e4bc31461087c578063a20ce4861461083b578063a990201c146107d4578063b2f0045214610796578063c1f10663146106b7578063c31c9c071461068e578063c4a90815146105be578063c9642d2a14610485578063dcfc8ebf14610447578063ef06e72c1461041e578063f58901fa1461021f5763f8715a42146101e457600080fd5b3461021c57602036600319011261021c576004359060075482101561021c57602061020e83612a70565b90546040519160031b1c8152f35b80fd5b503461021c57604036600319011261021c5760043561023c612a61565b610247821515613922565b6009546040516323b872dd60e01b81523360048201523060248201526044810184905260209185916001600160a01b0391849082906064908290879087165af180156103f657610401575b50600954825460405163095ea7b360e01b81529083166001600160a01b0316600482015260248101879052908490829084168186816044810103925af180156103f6576103c9575b50815460095482169116803b156103c55760405163617ba03760e01b81526001600160a01b03929092166004830152602482018690523060448301526000606483015282908290608490829084905af180156103ba576103a2575b50507f693c1828300d1cab0919b948d714897f817e305af51c026ad14233b6a8939adb91600a61039c923387525260408520610372858254612c52565b905561038084600b54612c52565b600b556040805194855290151560208501523393918291820190565b0390a280f35b6103ab90612aef565b6103b6578338610335565b8380fd5b6040513d84823e3d90fd5b8280fd5b6103e890843d86116103ef575b6103e08183612b1f565b810190612c3a565b50386102da565b503d6103d6565b6040513d85823e3d90fd5b61041790843d86116103ef576103e08183612b1f565b5038610292565b503461021c578060031936011261021c576003546040516001600160a01b039091168152602090f35b503461021c57602036600319011261021c5760043561047160018060a01b03600854163314612eac565b61047f6127108211156138e7565b600d5580f35b503461021c57610494366129da565b906104aa60018060a01b03600854163314612eac565b8083526005602052600c604084206104c860ff600983015416612f02565b019081548310156105795760ff60026104e18585612e90565b50015416610534578260026105197f3d05ac2057427ac2f84502e7efefebf5ae10d9529129c2979ce60fb97d46061495604095612e90565b5001805460ff1916600117905582519182526020820152a180f35b60405162461bcd60e51b815260206004820152601f60248201527f496e7374616c6c6d656e7420616c7265616479206d61726b65642070616964006044820152606490fd5b60405162461bcd60e51b815260206004820152601960248201527f496e76616c696420696e7374616c6c6d656e7420696e646578000000000000006044820152606490fd5b503461021c57602036600319011261021c5760406101c091600435815260056020522080549060018060a01b03600182015416906002810154600382015460048301546005840154600685015460078601549060088701549260ff60098901541694600a89015496600d8a01549860ff600f600e8d01549c0154169b60206040519e8f908152015260408d015260608c015260808b015260a08a015260c089015260e0880152610100870152151561012086015261014085015261016084015261018083015215156101a0820152f35b503461021c578060031936011261021c576001546040516001600160a01b039091168152602090f35b503461021c57602036600319011261021c576004356001600160a01b0380821682036103c5576106ec81600854163314612eac565b600f54801561075b57600f84905560095460405163a9059cbb60e01b81526001600160a01b039490941660048501526024840191909152602091839160449183918791165af180156103ba57610740575080f35b6107579060203d81116103ef576103e08183612b1f565b5080f35b60405162461bcd60e51b81526020600482015260136024820152724e6f206665657320746f20776974686472617760681b6044820152606490fd5b503461021c57602036600319011261021c576004356107c060018060a01b03600854163314612eac565b6107ce6127108211156138e7565b600e5580f35b503461021c57604036600319011261021c576108386107f1612a61565b61080660018060a01b03600854163314612eac565b60043583526005602052600f6040842061082660ff600983015416612f02565b019060ff801983541691151516179055565b80f35b503461021c57602036600319011261021c576004356001600160a01b03811690819003610878578160409160209352600a83522054604051908152f35b5080fd5b503461021c578060031936011261021c57546040516001600160a01b039091168152602090f35b503461021c578060031936011261021c5760206108be612b8d565b604051908152f35b503461021c578060031936011261021c576008546040516001600160a01b039091168152602090f35b503461021c57602036600319011261021c5760043581526005602052600b60408220019081549061091f82612cc4565b9161092981612cc4565b61093282612cc4565b9061093c83612cc4565b9261094681612cc4565b945b8181106109b357610977876109af886109a1896109938a6109858b604051998a9960a08b5260a08b0190612a24565b9089820360208b01526129f0565b9087820360408901526129f0565b9085820360608701526129f0565b9083820360808501526129f0565b0390f35b8060046109c3610a1c938b61386c565b5080546001600160a01b03166109d9848c612d13565b5260018101546109e98488612d13565b5260028101546109f98489612d13565b526003810154610a09848a612d13565b520154610a168289612d13565b52612e81565b610948565b503461021c57602036600319011261021c576004356001600160a01b03818116918290036103c557610a5890600854163314612eac565b6001600160601b0360a01b600254161760025580f35b503461021c57610a7d366129da565b9080835260056020526040832092610a9b60ff600986015416612f02565b60018401546001600160a01b03163303610f00576009546040516323b872dd60e01b815233600482015230602482015260448101859052906020908290606490829086906001600160a01b03165af180156103ba57610ee1575b50829381805b600c830154811080610ed8575b15610bfd57610b1a81600c8501612e90565b5080548015610bb857600282019081549260ff8416610b4a576001610b4191015482612c52565b808b1015610b5c575b50505050610b5790612e81565b610afb565b600191610b72610b7892610b5797969a9d612c9f565b9b612c52565b9660ff19161790557f3d05ac2057427ac2f84502e7efefebf5ae10d9529129c2979ce60fb97d46061460408051888152836020820152a190388080610b4a565b60405162461bcd60e51b815260206004820152601860248201527f496e7374616c6c6d656e7420616c7265616479207061696400000000000000006044820152606490fd5b5091838686610c0c8282612c9f565b80610d98575b5090610c4c818493610c477fdc376abd09229a842ac7d8bcadc9017651f1f1b8490750870cae0ecd4aedf67497608097612f43565b612c9f565b6040519283523360208401526040830152156060820152a160018283600c840154905b818110610d2a575b505081610d20575b50610c88575080f35b610c9c6002612710920154600d5490612bf1565b0480610ca6575080f35b6009546040516323b872dd60e01b81523360048201523060248201526044810183905291906020908390606490829087906001600160a01b03165af19182156103f657610cfb92610d01575b50600f54612c52565b600f5580f35b610d199060203d6020116103ef576103e08183612b1f565b5083610cf2565b9050421083610c7f565b60ff6002610d3b83600c8901612e90565b5001541615610d8b57610d5181600c8701612e90565b508360038092015411610d6e575b50610d6990612e81565b610c6f565b819350610d81610d6992600c8801612e90565b5001549290610d5f565b5050905082908480610c77565b600954875460405163095ea7b360e01b81526001600160a01b0391821660048201526024810184905291602091839160449183918d91165af18015610ecd57610eae575b50865460095488916001600160a01b039182169116803b156103c55760405163617ba03760e01b81526001600160a01b03929092166004830152602482018490523060448301526000606483015282908290608490829084905af180156103ba57610e8e575b5050826080949392610c477fdc376abd09229a842ac7d8bcadc9017651f1f1b8490750870cae0ecd4aedf67497610e7e610c4c95600b54612c52565b600b559750509250929350610c12565b610e9b9095949395612aef565b610eaa57868894929394610e42565b8680fd5b610ec69060203d6020116103ef576103e08183612b1f565b5087610ddc565b6040513d8a823e3d90fd5b50861515610b08565b610ef99060203d6020116103ef576103e08183612b1f565b5038610af5565b60405162461bcd60e51b815260206004820152601760248201527f4f6e6c7920626f72726f7765722063616e2072657061790000000000000000006044820152606490fd5b503461021c57602036600319011261021c57600435610f6f60018060a01b03600854163314612eac565b610f7d6127108211156138e7565b600c5580f35b503461021c57610f92366129da565b811561105557818111610ffc5761271090818102918183041490151715610fe857610fbd9250612c1a565b6107d08110159081610fdb575b604080519182529115156020820152f35b6113888111159150610fca565b634e487b7160e01b83526011600452602483fd5b60405162461bcd60e51b815260206004820152602b60248201527f426f72726f776572206465706f7369742063616e6e6f7420657863656564207460448201526a1bdd185b08185b5bdd5b9d60aa1b6064820152608490fd5b60405162461bcd60e51b815260206004820152602360248201527f546f74616c20616d6f756e74206d75737420626520677265617465722074686160448201526206e20360ec1b6064820152608490fd5b503461021c57602036600319011261021c576004356001600160a01b03818116918290036103c5576110dd90600854163314612eac565b6001600160601b0360a01b600354161760035580f35b503461021c576020908160031936011261021c5790600435825260058152600c6040832001805461112381612cac565b906111316040519283612b1f565b8082528382018093865284862086915b8383106111a557505050506040519280840191818552518092526040840192945b82811061116f5784840385f35b85518051855280830151858401526040808201511515908601526060908101519085015294810194608090930192600101611162565b60048760019260409a9997989a516111bc81612abd565b85548152848601548382015260ff60028701541615156040820152600386015460608201528152019201920191909694939596611141565b503461021c578060031936011261021c576020600e54604051908152f35b503461021c57602036600319011261021c57600435601481029181830460141482151715611257575061124b6064604093048092612c9f565b82519182526020820152f35b634e487b7160e01b81526011600452602490fd5b503461021c578060031936011261021c576020600f54604051908152f35b503461021c57604061124b61129d366129da565b90613888565b503461021c578060031936011261021c576020600b54604051908152f35b503461021c57602036600319011261021c576004356001600160a01b03818116918290036103c5576112f890600854163314612eac565b6001600160601b0360a01b600154161760015580f35b503461021c57602036600319011261021c576004356001600160a01b03818116918290036103c55761134590600854163314612eac565b81546001600160a01b03191617815580f35b503461021c57602036600319011261021c57600d6040602092600435815260058452200154604051908152f35b503461021c578060031936011261021c576020600c54604051908152f35b503461021c57602080600319360112610878576004356113c3811515613922565b338352600a82528060408420541061150657828091338252600a8452604082206113ee828254612c9f565b90556113fc81600b54612c9f565b600b558154600954604051631a4ca37b60e21b81526001600160a01b0391821660048201526024810184905230604482015293909186918591606491839186165af180156114fb57859385916114bf575b509061145e83611490949314612c5f565b60095460405163a9059cbb60e01b81523360048201526024810193909352919485939190921691839182906044820190565b03925af180156103f6576114a2578280f35b816114b892903d106103ef576103e08183612b1f565b5038808280f35b929450509181813d83116114f4575b6114d88183612b1f565b810103126114ef575184928492909161145e61144d565b600080fd5b503d6114ce565b6040513d86823e3d90fd5b60405162461bcd60e51b815260048101839052601960248201527f496e73756666696369656e7420706f6f6c2062616c616e6365000000000000006044820152606490fd5b503461021c57608036600319011261021c57606435600435156120f857602435156120c0576107d0811015806120b4575b1561205e57600435600b541061201957612710908161159f600c54600435612bf1565b0480611f9e575b50825460095460405163ee9e836d60e01b81526001600160a01b0391821660048201819052306024830152939290911690602081604481855afa908115611bf2578691611f68575b5060043503611f2357604051631a4ca37b60e21b81526001600160a01b03939093166004808501919091523560248401523060448401526020908390606490829088905af19182156114fb578492611eed575b5061165261166b9260043514612c5f565b611660600435600b54612c9f565b600b55600435612bf1565b0461167881600435612c9f565b6009546040516323b872dd60e01b815233600482015230602482015260448101849052906020908290606490829088906001600160a01b03165af180156114fb57611ece575b5060405160208101903360601b8252426034820152603481526116e081612b03565b519020918284526005602052604084209083825560018201336001600160601b0360a01b825416179055600435600a830155826002830155600382015560443590816004820155602435600582015542600782015561173d612b8d565b600882015560098101600160ff1982541617905582600e820155670de0b6b3a7640000820291808304670de0b6b3a76400001490151715611eba576117866104b0830484612bf1565b6104b08304670de0b6b3a764000001670de0b6b3a764000011611c52576104b08304670de0b6b3a76400000115611ea6576117db6024356104b08504670de0b6b3a764000001670de0b6b3a764000004612dda565b670de0b6b3a76400000390670de0b6b3a76400008211611c3e5760069161180191612c1a565b91015582845260056020526040842091670de0b6b3a764000081865b6024358110611e7c57508161183a61183f926104b0870490612bf1565b612bf1565b9080670de0b6b3a763ffff19810111611c3e57670de0b6b3a76400009161187191670de0b6b3a763ffff190190612c1a565b0480600685015585915b6024358310611d0c578686600754600160401b811015611cf8578060016118a59201600755612a70565b815460001960039290921b91821b19169083901b179055338252600660209081526040808420805460ff1916600190811790915583855260058352818520600a8101546009549254935163095ea7b360e01b81526001600160a01b039485166004820152602481018290529194909391929091839160449183918a91165af18015611ced57611cce575b5060405161193c81612b03565b6002815260403660208301376009546001600160a01b031661195d82612cf6565b526002546001600160a01b031661197382612d03565b52600354604051633fabe5a360e21b81529060a090829060049082906001600160a01b03165afa908115611bf2578691611c9b575b5085811315611c66576305f5e100808402908482041484151715611c3e57906119d091612c1a565b80606281020460621481151715611c52576001546001600160a01b0316914261012c810110611c3e5791611a2e9391878094604051968795869485936338ed173960e01b855261012c42019260646062309402049060048701612da1565b03925af180156114fb57611a49918591611c1c575b50612d03565b518284526005602090815260408086206002548754925163095ea7b360e01b81526001600160a01b0393841660048201526024810186905291939192839160449183918b91165af18015611bf257611bfd575b50845460025486916001600160a01b039081169116813b156103c55760405163617ba03760e01b81526001600160a01b03919091166004820152602481018590523060448201526000606482015291908290608490829084905af18015611bf257611b8b575b506080927faeec09af87559b9077da2e499d1fad2e228d7c24cb4b566fe61976820abaadda6060846002857f65410888fb30edd04f6acfb2f6cfd92aaf0ebb9b5303b6286d65d0b031b5b7f79997600d60039801550154906040519187835260208301526040820152a1015460405191825260043560208301526040820152336060820152a180f35b927faeec09af87559b9077da2e499d1fad2e228d7c24cb4b566fe61976820abaadda60607f65410888fb30edd04f6acfb2f6cfd92aaf0ebb9b5303b6286d65d0b031b5b7f79694600260039599611be3608099612aef565b99955050949650505092611b02565b6040513d88823e3d90fd5b611c159060203d6020116103ef576103e08183612b1f565b5085611a9c565b611c3891503d8087833e611c308183612b1f565b810190612d27565b85611a43565b634e487b7160e01b87526011600452602487fd5b634e487b7160e01b86526011600452602486fd5b60405162461bcd60e51b815260206004820152600d60248201526c496e76616c696420707269636560981b6044820152606490fd5b611cbc915060a03d8111611cc7575b611cb48183612b1f565b810190612b58565b5050509050866119a8565b503d611caa565b611ce69060203d6020116103ef576103e08183612b1f565b508461192f565b6040513d87823e3d90fd5b634e487b7160e01b83526041600452602483fd5b670de0b6b3a7640000611d236104b0860483612bf1565b049081831115611e7657611d378284612c9f565b91602435600019810111611e6257602435600019018514611e4d575b62278d008581810204811486151715611e3957611d7290860242612c52565b60405191611d7f83612abd565b84835260208301528960408301526060820152600c870154600160401b811015611e2557806001611db99201600c8a0155600c8901612e90565b919091611e115791611e0b93916003606085611e059651845560208101516001850155611dfb60408201511515600286019060ff801983541691151516179055565b0151910155612c9f565b92612e81565b9161187b565b634e487b7160e01b8a5260048a905260248afd5b634e487b7160e01b8a52604160045260248afd5b634e487b7160e01b8a52601160045260248afd5b9250905080611e5c8382612c52565b92611d53565b634e487b7160e01b89526011600452602489fd5b87611d37565b91670de0b6b3a7640000611e9a611ea1926104b08804830190612bf1565b0492612e81565b61181d565b634e487b7160e01b86526012600452602486fd5b634e487b7160e01b85526011600452602485fd5b611ee69060203d6020116103ef576103e08183612b1f565b50386116be565b91506020823d602011611f1b575b81611f0860209383612b1f565b810103126103b657905190611652611641565b3d9150611efb565b60405162461bcd60e51b815260206004820152601e60248201527f496e73756666696369656e74204141564520706f6f6c2062616c616e636500006044820152606490fd5b90506020813d602011611f96575b81611f8360209383612b1f565b81010312611f925751386115ee565b8580fd5b3d9150611f76565b6009546040516323b872dd60e01b81523360048201523060248201526044810183905291906020908390606490829089906001600160a01b03165af1918215611ced57611ff292611ffb5750600f54612c52565b600f55386115a6565b6120129060203d81116103ef576103e08183612b1f565b5038610cf2565b60405162461bcd60e51b815260206004820152601b60248201527f496e73756666696369656e7420706f6f6c206c697175696469747900000000006044820152606490fd5b60405162461bcd60e51b815260206004820152602860248201527f446f776e207061796d656e74206d757374206265206265747765656e2032302560448201526720616e642035302560c01b6064820152608490fd5b5061138881111561157c565b60405162461bcd60e51b815260206004820152601060248201526f24b73b30b634b210323ab930ba34b7b760811b6044820152606490fd5b60405162461bcd60e51b815260206004820152600e60248201526d125b9d985b1a5908185b5bdd5b9d60921b6044820152606490fd5b503461021c57602036600319011261021c576004356001600160a01b03811690819003610878578160409160209352600483522054604051908152f35b503461021c576020806003193601126108785760043560018060a01b0361219781600854163314612eac565b8184526005835260408420926009908185019160ff6121b881855416612f02565b87908890600c89018054925b83811061245257505050506276a70010156123f857600e86016127106121ee8254600d5490612bf1565b04806123d6575b5060ff199384815416905560019081880194868654168a526006855260408a20908154169055600d880154806123c6575b506003908189015490549182612298575b8a7fcab88a55906c5830a49dddd8b31d115294a5e6c4210f25fe140530a39c51dc748a8a8a54169061229261226a612b8d565b604080519384526001600160a01b039094166020840152928201929092529081906060820190565b0390a180f35b9091928099600b8c9101915b6122af575b50612237565b81548110156123c1576122c2818361386c565b506122d48c8201548583015490612c9f565b8c81156123b05750670de0b6b3a764000090818102908104820361239c578796959493928f919261231261230c61234e9b8e96612c1a565b89612bf1565b04918d808c541692541690604051809b8195829463a9059cbb60e01b84526004840160209093929193604081019460018060a01b031681520152565b03925af1908115612391578c9661236a92612374575b50612e81565b90919293946122a4565b61238a908a3d8c116103ef576103e08183612b1f565b5038612364565b6040513d8f823e3d90fd5b634e487b7160e01b8f52601160045260248ffd5b9695949392905061236a9150612e81565b6122a9565b6123d090886133e6565b38612226565b806123e66123f092600f54612c52565b600f558254612c9f565b8155386121f5565b60405162461bcd60e51b815260048101839052602c60248201527f4c6f616e206973206e6f74206f766572647565206265796f6e642033206d6f6e60448201526b1d1a1cc81a5b881d1bdd185b60a21b6064820152608490fd5b61245c8183612e90565b50836002820154166124745760030154804211612483575b5061247e90612e81565b6121c4565b61247e919561249561249b9242612c9f565b90612c52565b9490612474565b503461021c57602036600319011261021c576004356001600160a01b038116908190036108785760408260ff9260209452600684522054166040519015158152f35b503461021c576020806003193601126108785790600435815260058252600c604082200180549161251483612cc4565b9261251e81612cc4565b61252782612cac565b916125356040519384612b1f565b80835261254181612cac565b8388019590601f1901368737845b8281106125bd5750505094806125836125769760405198899860608a5260608a01906129f0565b90888203848a01526129f0565b92868403604088015251928381520193925b8281106125a457505050500390f35b8351151585528695509381019392810192600101612595565b8060ff60026125d561260a94869d9a999b9c9d612e90565b5080546125e2858f612d13565b5260018101546125f2858a612d13565b52015416612600828a612d13565b9015159052612e81565b97969593949761254f565b503461021c57606090612627366129da565b90916107d0821015919082612673575b821561266a575061271061264e6126569285612bf1565b048093612c9f565b604051928352602083015215156040820152f35b92505081612656565b6113888211159250612637565b503461021c578060031936011261021c576009546040516001600160a01b039091168152602090f35b503461021c578060031936011261021c576002546040516001600160a01b039091168152602090f35b503461021c57602036600319011261021c576126f960018060a01b03600854163314612eac565b60043581526005602052604081206009810180549161271a60ff8416612f02565b612722612b8d565b91600d82016305f5e100612737858354612bf1565b0491600e8401928354606981029080820460691490151715611e6257606490041061295b5760ff1995861690556001830180546001600160a01b0316875260066020526040872080549096169095558154600e54612710916127999190612bf1565b0480612939575b505480612927575b50600382015490549182612807575b505091546040805160043581526001600160a01b0390921660208301528101919091527fcab88a55906c5830a49dddd8b31d115294a5e6c4210f25fe140530a39c51dc7491508060608101612292565b909192855b600b8301548110156128fa5761282581600b850161386c565b506128396001820154600383015490612c9f565b80156128ef5780670de0b6b3a7640000810204670de0b6b3a764000003611e62576128b99291670de0b6b3a764000061287961230c8a8360209602612c1a565b600954925460405163a9059cbb60e01b81526001600160a01b039182166004820152929091046024830152909485929091169082908c9082906044820190565b03925af1918215610ecd576128d2926128d75750612e81565b61280c565b61238a9060203d6020116103ef576103e08183612b1f565b50506128d290612e81565b50925050507fcab88a55906c5830a49dddd8b31d115294a5e6c4210f25fe140530a39c51dc7438806127b7565b612933906004356133e6565b386127a8565b8061294961295392600f54612c52565b600f558354612c9f565b8255386127a0565b60405162461bcd60e51b815260206004820152603560248201527f4254432076616c756520686173206e6f742064726f707065642062656c6f77206044820152741b1a5c5d5a59185d1a5bdb881d1a1c995cda1bdb19605a1b6064820152608490fd5b905034610878578160031936011261087857602090600d548152f35b60409060031901126114ef576004359060243590565b90815180825260208080930193019160005b828110612a10575050505090565b835185529381019392810192600101612a02565b90815180825260208080930193019160005b828110612a44575050505090565b83516001600160a01b031685529381019392810192600101612a36565b6024359081151582036114ef57565b600754811015612aa75760076000527fa66cc928b5edb82af9bd49922954155ab7b0942694bea4ce44661d9a8736c6880190600090565b634e487b7160e01b600052603260045260246000fd5b6080810190811067ffffffffffffffff821117612ad957604052565b634e487b7160e01b600052604160045260246000fd5b67ffffffffffffffff8111612ad957604052565b6060810190811067ffffffffffffffff821117612ad957604052565b90601f8019910116810190811067ffffffffffffffff821117612ad957604052565b519069ffffffffffffffffffff821682036114ef57565b908160a09103126114ef57612b6c81612b41565b91602082015191604081015191612b8a608060608401519301612b41565b90565b600354604051633fabe5a360e21b81529060a090829060049082906001600160a01b03165afa908115612be557600091612bc5575090565b612bdd915060a03d8111611cc757611cb48183612b1f565b505050905090565b6040513d6000823e3d90fd5b81810292918115918404141715612c0457565b634e487b7160e01b600052601160045260246000fd5b8115612c24570490565b634e487b7160e01b600052601260045260246000fd5b908160209103126114ef575180151581036114ef5790565b91908201809211612c0457565b15612c6657565b60405162461bcd60e51b81526020600482015260116024820152700aed2e8d0c8e4c2ee40dad2e6dac2e8c6d607b1b6044820152606490fd5b91908203918211612c0457565b67ffffffffffffffff8111612ad95760051b60200190565b90612cce82612cac565b612cdb6040519182612b1f565b8281528092612cec601f1991612cac565b0190602036910137565b805115612aa75760200190565b805160011015612aa75760400190565b8051821015612aa75760209160051b010190565b60209081818403126114ef5780519067ffffffffffffffff82116114ef57019180601f840112156114ef578251612d5d81612cac565b93612d6b6040519586612b1f565b818552838086019260051b8201019283116114ef578301905b828210612d92575050505090565b81518152908301908301612d84565b9192608093612dc692979695978452602084015260a0604084015260a0830190612a24565b6001600160a01b0390951660608201520152565b908015612e7a578115612e73578180600114612e6b57600214612e5a5760208110610133831016604e8210600b84101617612e5557600190815b808211612e2c57505081600019048111612c04570290565b909280600019048111612c0457818416612e4c575b800292811c90612e14565b80920291612e41565b900a90565b905060ff8111612c04576001901b90565b505050600190565b5050600090565b5050600190565b6000198114612c045760010190565b8054821015612aa75760005260206000209060021b0190600090565b15612eb357565b60405162461bcd60e51b815260206004820152602160248201527f4f6e6c79206f776e65722063616e2063616c6c20746869732066756e6374696f6044820152603760f91b6064820152608490fd5b15612f0957565b60405162461bcd60e51b81526020600482015260126024820152714c6f616e206973206e6f742061637469766560701b6044820152606490fd5b91906000908382526020936005855260408084209280158080156133da575b80156133ce575b612fa8576305f5e100808302928304141715611eba57612f90600d91600886015490612c1a565b93019384548085116133c6575b508315918215612fb2575b5050505050509050565b8382526005885280822097600d89019384548711613374576133325760018060a01b03928360025416809a8451956370a0823160e01b97888852858860248160049730898301525afa9788156132c8578598613301575b50858b9c9d9e613056999a9b9c8488541690888b51809d81958294631a4ca37b60e21b845230918d850191939290604091606084019560018060a01b038093168552602085015216910152565b03925af19788156132c85785986132d2575b508582600254169a60248951809d8193825230898301525afa998a156132c857859a613295575b50888a1115613247578715613204576130ee928692826130b18b809554612c9f565b9055600181600254169201541686895180968195829463a9059cbb60e01b84528a840160209093929193604081019460018060a01b031681520152565b03925af19081156131fa5783916131dd575b501561319a575092828860a096937f38a556a122683cb48d496614a7a03605b6c2c0482342924caf483386980ecc9f608061318c9c9b987f971c7ec4a7c96c0a198687499279ccf05d9699970007b5ae5017b1177ee02ed39b9851908a8252858583015286820152866060820152a1825196875286015284015260608301526080820152a18254612c9f565b905580388080808080612fa8565b835162461bcd60e51b8152908101839052601b60248201527f5472616e7366657220746f20626f72726f776572206661696c656400000000006044820152606490fd5b6131f49150843d86116103ef576103e08183612b1f565b38613100565b85513d85823e3d90fd5b865162461bcd60e51b8152808501879052601c60248201527f556e7374616b652072657475726e6564207a65726f20746f6b656e73000000006044820152606490fd5b865162461bcd60e51b8152808501879052602260248201527f5769746864726177616c206469646e277420696e6372656173652062616c616e604482015261636560f01b6064820152608490fd5b9099508581813d83116132c1575b6132ad8183612b1f565b810103126132bd5751983861308f565b8480fd5b503d6132a3565b87513d87823e3d90fd5b9097508581813d83116132fa575b6132ea8183612b1f565b810103126132bd57519638613068565b503d6132e0565b9d9750858e813d831161332b575b6133198183612b1f565b810103126132bd579c51969c85613009565b503d61330f565b606491519062461bcd60e51b82526004820152601a60248201527f43616e6e6f7420756e7374616b65207a65726f20616d6f756e740000000000006044820152fd5b50608491519062461bcd60e51b82526004820152602660248201527f43616e6e6f7420756e7374616b65206d6f7265207468616e207374616b656420604482015265185b5bdd5b9d60d21b6064820152fd5b935038612f9d565b50600d85015415612f69565b50600885015415612f62565b9190916000928184526020600581526040600d8187200192835481116138195780156137d55760018060a01b039283600254169783519489866370a0823160e01b988982528582600494308683015260249485915afa9889156136ad5785996137a4575b5084548851631a4ca37b60e21b81526001600160a01b039e909e16848f01908152602081018990523060408201529c9d9b9c9a9b999a87918b91829003606001908290899089165af19889156136ad578599613775575b508584600254169b838a51809e8193825230888301525afa9a8b156136ad57859b613746575b50898b11156136f95788156136b7576134e1898254612c9f565b9055600254600154885163095ea7b360e01b81529085166001600160a01b0316848201908152602081018b905290918791839187169082908990829060400103925af180156136ad57613690575b5086519161353c83612b03565b60028352873687850137836002541661355484612cf6565b52836009541661356384612d03565b52605f890293898504605f0361367e57600154169161012c42019081421161366d575090858a6135b0829695948c51988997889687956338ed173960e01b87526064309404918701612da1565b03925af19081156136635760808361361a7f971c7ec4a7c96c0a198687499279ccf05d9699970007b5ae5017b1177ee02ed39c9a9896947f38a556a122683cb48d496614a7a03605b6c2c0482342924caf483386980ecc9f9460a09d9b9997916136495750612d03565b51908651918b83528686840152878301526060820152a1825196875286015284015260608301526080820152a1565b61365d91503d8085833e611c308183612b1f565b38611a43565b85513d84823e3d90fd5b634e487b7160e01b87526011835286fd5b50634e487b7160e01b85526011905283fd5b6136a690863d88116103ef576103e08183612b1f565b503861352f565b88513d87823e3d90fd5b875162461bcd60e51b8152808401879052601c818401527f556e7374616b652072657475726e6564207a65726f20746f6b656e73000000006044820152606490fd5b875162461bcd60e51b81528084018790526022818401527f5769746864726177616c206469646e277420696e6372656173652062616c616e604482015261636560f01b6064820152608490fd5b909a508581813d831161376e575b61375e8183612b1f565b810103126132bd575199386134c7565b503d613754565b9098508581813d831161379d575b61378d8183612b1f565b810103126132bd575197386134a1565b503d613783565b9c9850858d813d83116137ce575b6137bc8183612b1f565b810103126132bd579b51979b8561344a565b503d6137b2565b815162461bcd60e51b815260048101849052601a60248201527f43616e6e6f7420756e7374616b65207a65726f20616d6f756e740000000000006044820152606490fd5b815162461bcd60e51b815260048101849052602660248201527f43616e6e6f7420756e7374616b65206d6f7265207468616e207374616b656420604482015265185b5bdd5b9d60d21b6064820152608490fd5b8054821015612aa7576000526005602060002091020190600090565b6000908152600560205260408120600281015490939281156138de57670de0b6b3a764000092838202918083048514901517156112575750936138d06138da92600d96612c1a565b9485910154612bf1565b0490565b50508092509190565b156138ee57565b60405162461bcd60e51b815260206004820152600c60248201526b08ccaca40e8dede40d0d2ced60a31b6044820152606490fd5b1561392957565b60405162461bcd60e51b81526020600482015260126024820152710416d6f756e74206d757374206265203e20360741b6044820152606490fdfea26469706673582212207a31227219e842b9cc1beb091128289bcdde13d79703d80c7f90d5fe01d40a3864736f6c63430008140033",
  "linkReferences": {},
  "deployedLinkReferences": {}
}