{
  "_format": "hh-sol-artifact-1",
  "contractName": "LendingPool",
  "sourceName": "Contracts/Lending.sol",
  "abi": [
    {
      "inputs": [
        {
          "internalType": "address",
          "name": "usdc",
          "type": "address"
        },
        {
          "internalType": "address",
          "name": "_cbBtcToken",
          "type": "address"
        },
        {
          "internalType": "address",
          "name": "oracleAddress",
          "type": "address"
        },
        {
          "internalType": "address",
          "name": "_aavePool",
          "type": "address"
        },
        {
          "internalType": "address",
          "name": "_swapRouter",
          "type": "address"
        }
      ],
      "stateMutability": "nonpayable",
      "type": "constructor"
    },
    {
      "anonymous": false,
      "inputs": [
        {
          "indexed": false,
          "internalType": "bytes32",
          "name": "loanId",
          "type": "bytes32"
        },
        {
          "indexed": false,
          "internalType": "uint256",
          "name": "requested",
          "type": "uint256"
        },
        {
          "indexed": false,
          "internalType": "uint256",
          "name": "actualWithdrawn",
          "type": "uint256"
        },
        {
          "indexed": false,
          "internalType": "uint256",
          "name": "preBalance",
          "type": "uint256"
        },
        {
          "indexed": false,
          "internalType": "uint256",
          "name": "postBalance",
          "type": "uint256"
        }
      ],
      "name": "DebugUnstake",
      "type": "event"
    },
    {
      "anonymous": false,
      "inputs": [
        {
          "indexed": false,
          "internalType": "bytes32",
          "name": "loanId",
          "type": "bytes32"
        },
        {
          "indexed": false,
          "internalType": "uint256",
          "name": "principalRepaid",
          "type": "uint256"
        },
        {
          "indexed": false,
          "internalType": "uint256",
          "name": "proportionRepaid",
          "type": "uint256"
        },
        {
          "indexed": false,
          "internalType": "uint256",
          "name": "cbBtcToUnstake",
          "type": "uint256"
        }
      ],
      "name": "DebugUnstakeProportion",
      "type": "event"
    },
    {
      "anonymous": false,
      "inputs": [
        {
          "indexed": false,
          "internalType": "bytes32",
          "name": "loanId",
          "type": "bytes32"
        },
        {
          "indexed": false,
          "internalType": "uint256",
          "name": "index",
          "type": "uint256"
        }
      ],
      "name": "InstallmentPaid",
      "type": "event"
    },
    {
      "anonymous": false,
      "inputs": [
        {
          "indexed": false,
          "internalType": "bytes32",
          "name": "id",
          "type": "bytes32"
        },
        {
          "indexed": false,
          "internalType": "uint256",
          "name": "amount",
          "type": "uint256"
        },
        {
          "indexed": false,
          "internalType": "uint256",
          "name": "collateral",
          "type": "uint256"
        },
        {
          "indexed": false,
          "internalType": "address",
          "name": "borrower",
          "type": "address"
        }
      ],
      "name": "LoanCreated",
      "type": "event"
    },
    {
      "anonymous": false,
      "inputs": [
        {
          "indexed": false,
          "internalType": "bytes32",
          "name": "id",
          "type": "bytes32"
        },
        {
          "indexed": false,
          "internalType": "address",
          "name": "borrower",
          "type": "address"
        },
        {
          "indexed": false,
          "internalType": "uint256",
          "name": "btcPriceNow",
          "type": "uint256"
        }
      ],
      "name": "LoanLiquidated",
      "type": "event"
    },
    {
      "anonymous": false,
      "inputs": [
        {
          "indexed": false,
          "internalType": "bytes32",
          "name": "loanId",
          "type": "bytes32"
        },
        {
          "indexed": false,
          "internalType": "address",
          "name": "borrower",
          "type": "address"
        },
        {
          "indexed": false,
          "internalType": "uint256",
          "name": "amount",
          "type": "uint256"
        },
        {
          "indexed": false,
          "internalType": "bool",
          "name": "fullyRepaid",
          "type": "bool"
        }
      ],
      "name": "Payout",
      "type": "event"
    },
    {
      "anonymous": false,
      "inputs": [
        {
          "indexed": false,
          "internalType": "bytes32",
          "name": "loanId",
          "type": "bytes32"
        },
        {
          "indexed": false,
          "internalType": "uint256",
          "name": "usdcAmount",
          "type": "uint256"
        },
        {
          "indexed": false,
          "internalType": "uint256",
          "name": "cbBtcAmount",
          "type": "uint256"
        }
      ],
      "name": "TokensStaked",
      "type": "event"
    },
    {
      "anonymous": false,
      "inputs": [
        {
          "indexed": false,
          "internalType": "bytes32",
          "name": "loanId",
          "type": "bytes32"
        },
        {
          "indexed": false,
          "internalType": "uint256",
          "name": "cbBtcAmount",
          "type": "uint256"
        },
        {
          "indexed": false,
          "internalType": "uint256",
          "name": "usdcAmount",
          "type": "uint256"
        },
        {
          "indexed": false,
          "internalType": "uint256",
          "name": "borrowerCbBtcShare",
          "type": "uint256"
        }
      ],
      "name": "TokensUnstaked",
      "type": "event"
    },
    {
      "inputs": [],
      "name": "aavePool",
      "outputs": [
        {
          "internalType": "contract IAavePool",
          "name": "",
          "type": "address"
        }
      ],
      "stateMutability": "view",
      "type": "function"
    },
    {
      "inputs": [],
      "name": "accumulatedFees",
      "outputs": [
        {
          "internalType": "uint256",
          "name": "",
          "type": "uint256"
        }
      ],
      "stateMutability": "view",
      "type": "function"
    },
    {
      "inputs": [],
      "name": "cbBtcToken",
      "outputs": [
        {
          "internalType": "address",
          "name": "",
          "type": "address"
        }
      ],
      "stateMutability": "view",
      "type": "function"
    },
    {
      "inputs": [],
      "name": "chainlinkOracle",
      "outputs": [
        {
          "internalType": "contract AggregatorV3Interface",
          "name": "",
          "type": "address"
        }
      ],
      "stateMutability": "view",
      "type": "function"
    },
    {
      "inputs": [
        {
          "internalType": "bytes32",
          "name": "loanId",
          "type": "bytes32"
        },
        {
          "internalType": "uint256",
          "name": "principalRepaid",
          "type": "uint256"
        }
      ],
      "name": "debugUnstakeCalc",
      "outputs": [
        {
          "internalType": "uint256",
          "name": "proportionRepaid",
          "type": "uint256"
        },
        {
          "internalType": "uint256",
          "name": "cbBtcToUnstake",
          "type": "uint256"
        }
      ],
      "stateMutability": "view",
      "type": "function"
    },
    {
      "inputs": [],
      "name": "earlyClosureFeeBps",
      "outputs": [
        {
          "internalType": "uint256",
          "name": "",
          "type": "uint256"
        }
      ],
      "stateMutability": "view",
      "type": "function"
    },
    {
      "inputs": [
        {
          "internalType": "bytes32",
          "name": "loanId",
          "type": "bytes32"
        }
      ],
      "name": "getAmortizationSchedule",
      "outputs": [
        {
          "internalType": "uint256[]",
          "name": "principals",
          "type": "uint256[]"
        },
        {
          "internalType": "uint256[]",
          "name": "interests",
          "type": "uint256[]"
        },
        {
          "internalType": "bool[]",
          "name": "paidStatuses",
          "type": "bool[]"
        }
      ],
      "stateMutability": "view",
      "type": "function"
    },
    {
      "inputs": [
        {
          "internalType": "bytes32",
          "name": "loanId",
          "type": "bytes32"
        }
      ],
      "name": "getContributions",
      "outputs": [
        {
          "internalType": "address[]",
          "name": "lenders",
          "type": "address[]"
        },
        {
          "internalType": "uint256[]",
          "name": "amounts",
          "type": "uint256[]"
        },
        {
          "internalType": "uint256[]",
          "name": "receivableInterests",
          "type": "uint256[]"
        },
        {
          "internalType": "uint256[]",
          "name": "repaidPrincipals",
          "type": "uint256[]"
        },
        {
          "internalType": "uint256[]",
          "name": "repaidInterests",
          "type": "uint256[]"
        }
      ],
      "stateMutability": "view",
      "type": "function"
    },
    {
      "inputs": [
        {
          "internalType": "bytes32",
          "name": "loanId",
          "type": "bytes32"
        }
      ],
      "name": "getInstallmentSchedule",
      "outputs": [
        {
          "components": [
            {
              "internalType": "uint256",
              "name": "duePrincipal",
              "type": "uint256"
            },
            {
              "internalType": "uint256",
              "name": "dueInterest",
              "type": "uint256"
            },
            {
              "internalType": "bool",
              "name": "paid",
              "type": "bool"
            },
            {
              "internalType": "uint256",
              "name": "dueTimestamp",
              "type": "uint256"
            }
          ],
          "internalType": "struct LendingPool.Installment[]",
          "name": "",
          "type": "tuple[]"
        }
      ],
      "stateMutability": "view",
      "type": "function"
    },
    {
      "inputs": [],
      "name": "getPrice",
      "outputs": [
        {
          "internalType": "int256",
          "name": "",
          "type": "int256"
        }
      ],
      "stateMutability": "view",
      "type": "function"
    },
    {
      "inputs": [
        {
          "internalType": "bytes32",
          "name": "loanId",
          "type": "bytes32"
        }
      ],
      "name": "getStakedAmount",
      "outputs": [
        {
          "internalType": "uint256",
          "name": "",
          "type": "uint256"
        }
      ],
      "stateMutability": "view",
      "type": "function"
    },
    {
      "inputs": [
        {
          "internalType": "address",
          "name": "",
          "type": "address"
        }
      ],
      "name": "hasActiveLoan",
      "outputs": [
        {
          "internalType": "bool",
          "name": "",
          "type": "bool"
        }
      ],
      "stateMutability": "view",
      "type": "function"
    },
    {
      "inputs": [
        {
          "internalType": "address",
          "name": "",
          "type": "address"
        }
      ],
      "name": "lenders",
      "outputs": [
        {
          "internalType": "uint256",
          "name": "totalContributed",
          "type": "uint256"
        }
      ],
      "stateMutability": "view",
      "type": "function"
    },
    {
      "inputs": [
        {
          "internalType": "bytes32",
          "name": "loanId",
          "type": "bytes32"
        }
      ],
      "name": "liquidate",
      "outputs": [],
      "stateMutability": "nonpayable",
      "type": "function"
    },
    {
      "inputs": [
        {
          "internalType": "bytes32",
          "name": "loanId",
          "type": "bytes32"
        }
      ],
      "name": "liquidateIfOverdue",
      "outputs": [],
      "stateMutability": "nonpayable",
      "type": "function"
    },
    {
      "inputs": [
        {
          "internalType": "uint256",
          "name": "totalAmount",
          "type": "uint256"
        },
        {
          "internalType": "uint256",
          "name": "durationMonths",
          "type": "uint256"
        },
        {
          "internalType": "uint256",
          "name": "annualInterestRate",
          "type": "uint256"
        },
        {
          "internalType": "address[]",
          "name": "lenderAddresses",
          "type": "address[]"
        },
        {
          "internalType": "uint256[]",
          "name": "lenderAmounts",
          "type": "uint256[]"
        }
      ],
      "name": "loan",
      "outputs": [],
      "stateMutability": "nonpayable",
      "type": "function"
    },
    {
      "inputs": [
        {
          "internalType": "uint256",
          "name": "",
          "type": "uint256"
        }
      ],
      "name": "loanIds",
      "outputs": [
        {
          "internalType": "bytes32",
          "name": "",
          "type": "bytes32"
        }
      ],
      "stateMutability": "view",
      "type": "function"
    },
    {
      "inputs": [
        {
          "internalType": "bytes32",
          "name": "",
          "type": "bytes32"
        }
      ],
      "name": "loans",
      "outputs": [
        {
          "internalType": "bytes32",
          "name": "id",
          "type": "bytes32"
        },
        {
          "internalType": "address",
          "name": "borrower",
          "type": "address"
        },
        {
          "internalType": "uint256",
          "name": "principal",
          "type": "uint256"
        },
        {
          "internalType": "uint256",
          "name": "borrowerDeposit",
          "type": "uint256"
        },
        {
          "internalType": "uint256",
          "name": "interestRate",
          "type": "uint256"
        },
        {
          "internalType": "uint256",
          "name": "duration",
          "type": "uint256"
        },
        {
          "internalType": "uint256",
          "name": "monthlyPayment",
          "type": "uint256"
        },
        {
          "internalType": "uint256",
          "name": "startTime",
          "type": "uint256"
        },
        {
          "internalType": "uint256",
          "name": "btcPriceAtCreation",
          "type": "uint256"
        },
        {
          "internalType": "bool",
          "name": "isActive",
          "type": "bool"
        },
        {
          "internalType": "uint256",
          "name": "totalAmount",
          "type": "uint256"
        },
        {
          "internalType": "uint256",
          "name": "stakedAmount",
          "type": "uint256"
        },
        {
          "internalType": "uint256",
          "name": "remainingPrincipal",
          "type": "uint256"
        }
      ],
      "stateMutability": "view",
      "type": "function"
    },
    {
      "inputs": [
        {
          "internalType": "bytes32",
          "name": "loanId",
          "type": "bytes32"
        },
        {
          "internalType": "uint256",
          "name": "index",
          "type": "uint256"
        }
      ],
      "name": "markInstallmentPaid",
      "outputs": [],
      "stateMutability": "nonpayable",
      "type": "function"
    },
    {
      "inputs": [],
      "name": "missedPaymentFeeBps",
      "outputs": [
        {
          "internalType": "uint256",
          "name": "",
          "type": "uint256"
        }
      ],
      "stateMutability": "view",
      "type": "function"
    },
    {
      "inputs": [],
      "name": "originationFeeBps",
      "outputs": [
        {
          "internalType": "uint256",
          "name": "",
          "type": "uint256"
        }
      ],
      "stateMutability": "view",
      "type": "function"
    },
    {
      "inputs": [],
      "name": "owner",
      "outputs": [
        {
          "internalType": "address",
          "name": "",
          "type": "address"
        }
      ],
      "stateMutability": "view",
      "type": "function"
    },
    {
      "inputs": [
        {
          "internalType": "bytes32",
          "name": "loanId",
          "type": "bytes32"
        },
        {
          "internalType": "uint256",
          "name": "usdcAmount",
          "type": "uint256"
        }
      ],
      "name": "payouts",
      "outputs": [],
      "stateMutability": "nonpayable",
      "type": "function"
    },
    {
      "inputs": [
        {
          "internalType": "address",
          "name": "_aavePool",
          "type": "address"
        }
      ],
      "name": "setAavePool",
      "outputs": [],
      "stateMutability": "nonpayable",
      "type": "function"
    },
    {
      "inputs": [
        {
          "internalType": "address",
          "name": "_cbBtcToken",
          "type": "address"
        }
      ],
      "name": "setCbBtcToken",
      "outputs": [],
      "stateMutability": "nonpayable",
      "type": "function"
    },
    {
      "inputs": [
        {
          "internalType": "address",
          "name": "oracleAddress",
          "type": "address"
        }
      ],
      "name": "setChainlinkOracle",
      "outputs": [],
      "stateMutability": "nonpayable",
      "type": "function"
    },
    {
      "inputs": [
        {
          "internalType": "uint256",
          "name": "bps",
          "type": "uint256"
        }
      ],
      "name": "setEarlyClosureFee",
      "outputs": [],
      "stateMutability": "nonpayable",
      "type": "function"
    },
    {
      "inputs": [
        {
          "internalType": "uint256",
          "name": "bps",
          "type": "uint256"
        }
      ],
      "name": "setMissedPaymentFee",
      "outputs": [],
      "stateMutability": "nonpayable",
      "type": "function"
    },
    {
      "inputs": [
        {
          "internalType": "uint256",
          "name": "bps",
          "type": "uint256"
        }
      ],
      "name": "setOriginationFee",
      "outputs": [],
      "stateMutability": "nonpayable",
      "type": "function"
    },
    {
      "inputs": [
        {
          "internalType": "address",
          "name": "_swapRouter",
          "type": "address"
        }
      ],
      "name": "setSwapRouter",
      "outputs": [],
      "stateMutability": "nonpayable",
      "type": "function"
    },
    {
      "inputs": [],
      "name": "swapRouter",
      "outputs": [
        {
          "internalType": "contract ISwapRouter",
          "name": "",
          "type": "address"
        }
      ],
      "stateMutability": "view",
      "type": "function"
    },
    {
      "inputs": [],
      "name": "usdcToken",
      "outputs": [
        {
          "internalType": "address",
          "name": "",
          "type": "address"
        }
      ],
      "stateMutability": "view",
      "type": "function"
    },
    {
      "inputs": [
        {
          "internalType": "address",
          "name": "to",
          "type": "address"
        }
      ],
      "name": "withdrawAccumulatedFees",
      "outputs": [],
      "stateMutability": "nonpayable",
      "type": "function"
    }
  ],
  "bytecode": "0x608034620000fb57601f6200354438819003918201601f19168301916001600160401b03831184841017620001005780849260a094604052833981010312620000fb576200004d8162000116565b906200005c6020820162000116565b906200006b6040820162000116565b91620000886080620000806060850162000116565b930162000116565b9160018060a01b0319943386600854161760085560018060a01b039485809481809416896009541617600955168760025416176002551685600354161760035516836000541617600055169060015416176001556000600a556000600b556000600c5560405161341890816200012c8239f35b600080fd5b634e487b7160e01b600052604160045260246000fd5b51906001600160a01b0382168203620000fb5756fe608080604052600436101561001357600080fd5b600090813560e01c9081630662bcc4146124b6575080630a71096e146121e25780630e462386146121b957806311eac855146121905780631fc8f4df1461205f57806321d4f8db1461201d57806328830d4714611cf957806328fd10d714611cbc57806331739bb714611c9e578063337a173714611c71578063349f937c14611c285780634127365714611bdb5780635206d2d014611bb5578063587f5ed714611b9757806363eed60314611b7957806366fb6e5a14610e065780636c1945ae14610d055780637a9b041214610cb85780637f2006a014610c7a57806380f2122c1461077c57806383cd8fcf1461072f57806386a2e274146105fd5780638da5cb5b146105d457806398d5fdca146105b1578063a03e4bc31461058a578063b2f004521461054c578063c1f106631461044e578063c31c9c0714610425578063c4a9081514610367578063c9642d2a1461022e578063dcfc8ebf146101f0578063ef06e72c146101c75763f8715a421461018c57600080fd5b346101c45760203660031901126101c457600435906007548210156101c45760206101b68361258f565b90546040519160031b1c8152f35b80fd5b50346101c457806003193601126101c4576003546040516001600160a01b039091168152602090f35b50346101c45760203660031901126101c45760043561021a60018060a01b036008541633146129a3565b6102286127108211156133a7565b600b5580f35b50346101c45761023d36612506565b9061025360018060a01b036008541633146129a3565b8083526005602052600c6040842061027160ff6009830154166129f9565b019081548310156103225760ff600261028a8585612987565b500154166102dd578260026102c27f3d05ac2057427ac2f84502e7efefebf5ae10d9529129c2979ce60fb97d46061495604095612987565b5001805460ff1916600117905582519182526020820152a180f35b60405162461bcd60e51b815260206004820152601f60248201527f496e7374616c6c6d656e7420616c7265616479206d61726b65642070616964006044820152606490fd5b60405162461bcd60e51b815260206004820152601960248201527f496e76616c696420696e7374616c6c6d656e7420696e646578000000000000006044820152606490fd5b50346101c45760203660031901126101c45760406101a091600435815260056020522080549060018060a01b03600182015416906002810154600382015460048301546005840154600685015460078601549160088701549360ff60098901541695600a89015497600e600d8b01549a01549a6040519c8d5260208d015260408c015260608b015260808a015260a089015260c088015260e08701526101008601521515610120850152610140840152610160830152610180820152f35b50346101c457806003193601126101c4576001546040516001600160a01b039091168152602090f35b50346101c45760203660031901126101c4576004356001600160a01b03808216820361054857610483816008541633146129a3565b600d54801561050d57600d84905560095460405163a9059cbb60e01b81526001600160a01b039490941660048501526024840191909152602091839160449183918791165af18015610502576104d7575080f35b6104f79060203d81116104fb575b6104ef818361262a565b810190612745565b5080f35b503d6104e5565b6040513d84823e3d90fd5b60405162461bcd60e51b81526020600482015260136024820152724e6f206665657320746f20776974686472617760681b6044820152606490fd5b8280fd5b50346101c45760203660031901126101c45760043561057660018060a01b036008541633146129a3565b6105846127108211156133a7565b600c5580f35b50346101c457806003193601126101c457546040516001600160a01b039091168152602090f35b50346101c457806003193601126101c45760206105cc612698565b604051908152f35b50346101c457806003193601126101c4576008546040516001600160a01b039091168152602090f35b50346101c45760203660031901126101c45760043581526005602052600b60408220019081549061062d82612782565b9161063781612782565b61064082612782565b9061064a83612782565b9261065481612782565b945b8181106106c157610685876106bd886106af896106a18a6106938b604051998a9960a08b5260a08b0190612552565b9089820360208b01526124d2565b9087820360408901526124d2565b9085820360608701526124d2565b9083820360808501526124d2565b0390f35b8060046106d161072a938b6128c4565b5080546001600160a01b03166106e7848c6127d1565b5260018101546106f784886127d1565b52600281015461070784896127d1565b526003810154610717848a6127d1565b52015461072482896127d1565b526128a5565b610656565b50346101c45760203660031901126101c4576004356001600160a01b038181169182900361054857610766906008541633146129a3565b6001600160601b0360a01b600254161760025580f35b50346101c45761078b36612506565b90808352600560205260408320906107a960ff6009840154166129f9565b60018201546001600160a01b03163303610c35576009546040516323b872dd60e01b815233600482015230602482015260448101859052906020908290606490829089906001600160a01b03165af18015610c2a57610c0b575b50829084855b600c850154811080610c02575b15610a715761082881600c8701612987565b5080548015610a2c5760ff600283015416610a215760018201549061084d828261275d565b80881015610868575b50505050610863906128a5565b610809565b9061087d610883928298959b949a9799612898565b9761275d565b906002850154968a5b600b8701548110156109ca576108a581600b89016128c4565b50600181015480670de0b6b3a7640000810204670de0b6b3a764000014811517156109b6578d61096d93928d61093d670de0b6b3a76400008f8f826108fb6108f4610902948360209c02612725565b80936126fc565b04946126fc565b046003840161091284825461275d565b90556004840161092382825461275d565b905560095493546001600160a01b0394851694169261275d565b60405163a9059cbb60e01b81526001600160a01b0390921660048301526024820152948592839182906044820190565b03925af19182156109ab576109879261098c575b506128a5565b61088c565b6109a49060203d6020116104fb576104ef818361262a565b5038610981565b6040513d8f823e3d90fd5b634e487b7160e01b8e52601160045260248efd5b5096509790939650610863929194506002600160ff198284015416179101557f3d05ac2057427ac2f84502e7efefebf5ae10d9529129c2979ce60fb97d46061460408051868152836020820152a190388080610856565b5050610863906128a5565b60405162461bcd60e51b815260206004820152601860248201527f496e7374616c6c6d656e7420616c7265616479207061696400000000000000006044820152606490fd5b5091610aab817fdc376abd09229a842ac7d8bcadc9017651f1f1b8490750870cae0ecd4aedf6749596610aa660809686612a3a565b612898565b6040519283523360208401526040830152156060820152a160018283600c840154905b818110610b94575b505081610b8a575b50610ae7575080f35b610afb6002612710920154600b54906126fc565b0480610b05575080f35b6009546040516323b872dd60e01b81523360048201523060248201526044810183905291906020908390606490829087906001600160a01b03165af1918215610b7f57610b5a92610b60575b50600d5461275d565b600d5580f35b610b789060203d6020116104fb576104ef818361262a565b5038610b51565b6040513d85823e3d90fd5b9050421038610ade565b60ff6002610ba583600c8901612987565b5001541615610bf557610bbb81600c8701612987565b508360038092015411610bd8575b50610bd3906128a5565b610ace565b819350610beb610bd392600c8801612987565b5001549290610bc9565b5050905082903880610ad6565b50831515610816565b610c239060203d6020116104fb576104ef818361262a565b5038610803565b6040513d87823e3d90fd5b60405162461bcd60e51b815260206004820152601760248201527f4f6e6c7920626f72726f7765722063616e2072657061790000000000000000006044820152606490fd5b50346101c45760203660031901126101c457600435610ca460018060a01b036008541633146129a3565b610cb26127108211156133a7565b600a5580f35b50346101c45760203660031901126101c4576004356001600160a01b038181169182900361054857610cef906008541633146129a3565b6001600160601b0360a01b600354161760035580f35b50346101c457602090816003193601126101c45790600435825260058152600c60408320018054610d358161276a565b90610d43604051928361262a565b8082528382018093865284862086915b838310610db757505050506040519280840191818552518092526040840192945b828110610d815784840385f35b85518051855280830151858401526040808201511515908601526060908101519085015294810194608090930192600101610d74565b60048760019260409a9997989a51610dce816125dc565b85548152848601548382015260ff60028701541615156040820152600386015460608201528152019201920191909694939596610d53565b50346101c45760a03660031901126101c45760643567ffffffffffffffff8111611b7557610e38903690600401612521565b9060843567ffffffffffffffff8111611b7157610e59903690600401612521565b9260043515611b3b5760243515611b0357338552600660205260ff604086205416611ab257838103611a58578015611a1d57612710610e9c600a546004356126fc565b04806119b5575b5060146004350291600435830460140361148a57610ec660648404600435612898565b6009546040516323b872dd60e01b8152336004820152306024820152606480870460448301529296929091602091839182908c906001600160a01b03165af180156119aa5761198b575b509084929160405160208101903360601b825242603482015260348152610f368161260e565b519020968789526005602052606460408a209689885560018801336001600160601b0360a01b825416179055600435600a89015586600289015504600387015560443560048701556024356005870155426007870155610f94612698565b600887015560098601805460ff19166001179055600e86018590558893845b81811061174a575050505050036116f457670de0b6b3a764000060443502906044358204670de0b6b3a7640000146044351517156116e057610ff96104b08304846126fc565b6104b08304670de0b6b3a764000001670de0b6b3a76400001161148a576104b08304670de0b6b3a764000001156116cc5761104e6024356104b08504670de0b6b3a764000001670de0b6b3a7640000046128e0565b670de0b6b3a76400000390670de0b6b3a764000082116114765760069161107491612725565b91015582845260056020526040842091670de0b6b3a764000081865b60243581106116a25750816110ad6110b2926104b08704906126fc565b6126fc565b9080670de0b6b3a763ffff1981011161147657670de0b6b3a7640000916110e491670de0b6b3a763ffff190190612725565b0480600685015585915b602435831061153a578686600754600160401b81101561152657806001611118920160075561258f565b815460001960039290921b91821b19169083901b179055338252600660209081526040808420805460ff1916600190811790915583855260058352818520600a8101546009549254935163095ea7b360e01b81526001600160a01b039485166004820152602481018290529194909391929091839160449183918a91165af18015610c2a57611507575b506040516111af8161260e565b6002815260403660208301376009546001600160a01b03166111d0826127b4565b526002546001600160a01b03166111e6826127c1565b52600354604051633fabe5a360e21b81529060a090829060049082906001600160a01b03165afa90811561141f5786916114d3575b508581131561149e576305f5e100808402908482041484151715611476579061124391612725565b8060628102046062148115171561148a576001546001600160a01b0316914261012c81011061147657916112a19391878094604051968795869485936338ed173960e01b855261012c4201926064606230940204906004870161285f565b03925af1801561146b576112bc918591611449575b506127c1565b518284526005602090815260408086206002548754925163095ea7b360e01b81526001600160a01b0393841660048201526024810186905291939192839160449183918b91165af1801561141f5761142a575b50845460025486916001600160a01b039182169116803b156105485760848392604051948593849263617ba03760e01b845260048401528860248401523060448401528160648401525af1801561141f576113ee575b506080927faeec09af87559b9077da2e499d1fad2e228d7c24cb4b566fe61976820abaadda6060846002857f65410888fb30edd04f6acfb2f6cfd92aaf0ebb9b5303b6286d65d0b031b5b7f79997600d60039801550154906040519187835260208301526040820152a1015460405191825260043560208301526040820152336060820152a180f35b67ffffffffffffffff819692961161140b57604052936080611365565b634e487b7160e01b82526041600452602482fd5b6040513d88823e3d90fd5b6114429060203d6020116104fb576104ef818361262a565b508561130f565b61146591503d8087833e61145d818361262a565b8101906127e5565b856112b6565b6040513d86823e3d90fd5b634e487b7160e01b87526011600452602487fd5b634e487b7160e01b86526011600452602486fd5b60405162461bcd60e51b815260206004820152600d60248201526c496e76616c696420707269636560981b6044820152606490fd5b6114f5915060a03d60a011611500575b6114ed818361262a565b810190612663565b50505090508661121b565b503d6114e3565b61151f9060203d6020116104fb576104ef818361262a565b50846111a2565b634e487b7160e01b83526041600452602483fd5b670de0b6b3a76400006115516104b08604836126fc565b04908183111561169c576115658284612898565b9160243560001981011161168857602435600019018514611673575b62278d00858181020481148615171561165f576115a09086024261275d565b604051916115ad836125dc565b84835260208301528960408301526060820152600c870154600160401b81101561164b578060016115e79201600c8a0155600c8901612987565b91909161163757916116319391600360608561162b9651845560208101516001850155600284016040820151151560ff801983541691161790550151910155612898565b926128a5565b916110ee565b634e487b7160e01b8a5260048a905260248afd5b634e487b7160e01b8a52604160045260248afd5b634e487b7160e01b8a52601160045260248afd5b9250905080611682838261275d565b92611581565b634e487b7160e01b89526011600452602489fd5b87611565565b91670de0b6b3a76400006116c06116c7926104b088048301906126fc565b04926128a5565b611090565b634e487b7160e01b86526012600452602486fd5b634e487b7160e01b85526011600452602485fd5b60405162461bcd60e51b815260206004820152602860248201527f436f6c6c656374656420616d6f756e7420646f65736e2774206d6174636820706044820152671c9a5b98da5c185b60c21b6064820152608490fd5b9091929394955061175c8183866128b4565b356001600160a01b0381168103611987576117788285886128b4565b3596871561194a578b9060206117ce60018060a01b03600954168b6040519586809481936323b872dd60e01b8352308b6004850160409194939294606082019560018060a01b0380921683521660208201520152565b03925af19081156109ab576117ea928a9261192b575b5061275d565b9660018060a01b0382168c52600460205260408c2061180a82825461275d565b90556104b06118216024356110ad604435856126fc565b0490604051928360a081011067ffffffffffffffff60a0860111176119175760a0840160405260018060a01b03168352602083015260408201528a60608201528a6080820152600b880154600160401b8110156119035780600161188e9201600b8b0155600b8a016128c4565b9190916118ef57805182546001600160a01b0319166001600160a01b0391909116178255602081015160018301556040810151600283015560608101516003830155608001516004909101556118e3906128a5565b90879594939291610fb3565b634e487b7160e01b8c5260048c905260248cfd5b634e487b7160e01b8c52604160045260248cfd5b634e487b7160e01b8e52604160045260248efd5b6119439060203d6020116104fb576104ef818361262a565b50386117e4565b60405162461bcd60e51b8152602060048201526015602482015274125b9d985b1a59081b195b99195c88185b5bdd5b9d605a1b6044820152606490fd5b8a80fd5b6119a39060203d6020116104fb576104ef818361262a565b5038610f10565b6040513d8a823e3d90fd5b6009546040516323b872dd60e01b8152336004820152306024820152604481018390529190602090839060649082908b906001600160a01b03165af1918215611a1257611a0992610b605750600d5461275d565b600d5538610ea3565b6040513d89823e3d90fd5b60405162461bcd60e51b8152602060048201526013602482015272139bc81b195b99195c9cc81c1c9bdd9a591959606a1b6044820152606490fd5b60405162461bcd60e51b815260206004820152602c60248201527f4c656e6465722061646472657373657320616e6420616d6f756e7473206c656e60448201526b0cee8d040dad2e6dac2e8c6d60a31b6064820152608490fd5b60405162461bcd60e51b815260206004820152602360248201527f426f72726f77657220616c72656164792068617320616e20616374697665206c60448201526237b0b760e91b6064820152608490fd5b60405162461bcd60e51b815260206004820152601060248201526f24b73b30b634b210323ab930ba34b7b760811b6044820152606490fd5b60405162461bcd60e51b815260206004820152600e60248201526d125b9d985b1a5908185b5bdd5b9d60921b6044820152606490fd5b8380fd5b5080fd5b50346101c457806003193601126101c4576020600c54604051908152f35b50346101c457806003193601126101c4576020600d54604051908152f35b50346101c4576040611bcf611bc936612506565b90613334565b82519182526020820152f35b50346101c45760203660031901126101c4576004356001600160a01b038181169182900361054857611c12906008541633146129a3565b6001600160601b0360a01b600154161760015580f35b50346101c45760203660031901126101c4576004356001600160a01b038181169182900361054857611c5f906008541633146129a3565b81546001600160a01b03191617815580f35b50346101c45760203660031901126101c457600d6040602092600435815260058452200154604051908152f35b50346101c457806003193601126101c4576020600a54604051908152f35b50346101c45760203660031901126101c4576004356001600160a01b03811690819003611b75578160409160209352600483522054604051908152f35b50346101c457602080600319360112611b755760043560018060a01b03611d25816008541633146129a3565b8184526005835260408420926009908185019160ff611d46818554166129f9565b87908890600c89018054925b838110611fcd57505050506276a7001015611f7357600e8601612710611d7c8254600b54906126fc565b0480611f51575b5060ff199384815416905560019081880194868654168a526006855260408a20908154169055600d88015480611f41575b506003908189015490549182611e26575b8a7fcab88a55906c5830a49dddd8b31d115294a5e6c4210f25fe140530a39c51dc748a8a8a541690611e20611df8612698565b604080519384526001600160a01b039094166020840152928201929092529081906060820190565b0390a180f35b9091928099600b8c9101915b611e3d575b50611dc5565b8154811015611f3c57611e5081836128c4565b50611e628c8201548583015490612898565b8c8115611f2b5750670de0b6b3a7640000908181029081048203611f17578796959493928f9192611ea0611e9a611edc9b8e96612725565b896126fc565b04918d808c541692541690604051809b8195829463a9059cbb60e01b84526004840160209093929193604081019460018060a01b031681520152565b03925af19081156109ab578c96611ef792611f0157506128a5565b9091929394611e32565b6109a4908a3d8c116104fb576104ef818361262a565b634e487b7160e01b8f52601160045260248ffd5b96959493929050611ef791506128a5565b611e37565b611f4b9088612eb2565b38611db4565b80611f61611f6b92600d5461275d565b600d558254612898565b815538611d83565b60405162461bcd60e51b815260048101839052602c60248201527f4c6f616e206973206e6f74206f766572647565206265796f6e642033206d6f6e60448201526b1d1a1cc81a5b881d1bdd185b60a21b6064820152608490fd5b611fd78183612987565b5083600282015416611fef5760030154804211611ffe575b50611ff9906128a5565b611d52565b611ff991956120106120169242612898565b9061275d565b9490611fef565b50346101c45760203660031901126101c4576004356001600160a01b03811690819003611b755760408260ff9260209452600684522054166040519015158152f35b50346101c457602080600319360112611b755790600435815260058252600c604082200180549161208f83612782565b9261209981612782565b6120a28261276a565b916120b0604051938461262a565b8083526120bc8161276a565b8388019590601f1901368737845b8281106121385750505094806120fe6120f19760405198899860608a5260608a01906124d2565b90888203848a01526124d2565b92868403604088015251928381520193925b82811061211f57505050500390f35b8351151585528695509381019392810192600101612110565b8060ff600261215061218594869d9a999b9c9d612987565b50805461215d858f6127d1565b52600181015461216d858a6127d1565b5201541661217b828a6127d1565b90151590526128a5565b9796959394976120ca565b50346101c457806003193601126101c4576009546040516001600160a01b039091168152602090f35b50346101c457806003193601126101c4576002546040516001600160a01b039091168152602090f35b50346101c45760203660031901126101c45761220960018060a01b036008541633146129a3565b60043581526005602052604081206009810180549161222a60ff84166129f9565b612232612698565b91600d82016305f5e1006122478583546126fc565b0491600e84019283546069810290808204606914901517156116885760649004106124535760ff1995861690556001830180546001600160a01b0316875260066020526040872080549096169095558154600c54612710916122a991906126fc565b0480612431575b50548061241f575b50600382015490549182612317575b505091546040805160043581526001600160a01b0390921660208301528101919091527fcab88a55906c5830a49dddd8b31d115294a5e6c4210f25fe140530a39c51dc7491508060608101611e20565b909192855b600b8301548110156123f25761233581600b85016128c4565b506123496001820154600383015490612898565b80156123e75780670de0b6b3a7640000810204670de0b6b3a764000003611688576123c99291670de0b6b3a7640000612389611e9a8a8360209602612725565b600954925460405163a9059cbb60e01b81526001600160a01b039182166004820152929091046024830152909485929091169082908c9082906044820190565b03925af19182156119aa576123e29261098c57506128a5565b61231c565b50506123e2906128a5565b50925050507fcab88a55906c5830a49dddd8b31d115294a5e6c4210f25fe140530a39c51dc7438806122c7565b61242b90600435612eb2565b386122b8565b8061244161244b92600d5461275d565b600d558354612898565b8255386122b0565b60405162461bcd60e51b815260206004820152603560248201527f4254432076616c756520686173206e6f742064726f707065642062656c6f77206044820152741b1a5c5d5a59185d1a5bdb881d1a1c995cda1bdb19605a1b6064820152608490fd5b905034611b755781600319360112611b7557602090600b548152f35b90815180825260208080930193019160005b8281106124f2575050505090565b8351855293810193928101926001016124e4565b604090600319011261251c576004359060243590565b600080fd5b9181601f8401121561251c5782359167ffffffffffffffff831161251c576020808501948460051b01011161251c57565b90815180825260208080930193019160005b828110612572575050505090565b83516001600160a01b031685529381019392810192600101612564565b6007548110156125c65760076000527fa66cc928b5edb82af9bd49922954155ab7b0942694bea4ce44661d9a8736c6880190600090565b634e487b7160e01b600052603260045260246000fd5b6080810190811067ffffffffffffffff8211176125f857604052565b634e487b7160e01b600052604160045260246000fd5b6060810190811067ffffffffffffffff8211176125f857604052565b90601f8019910116810190811067ffffffffffffffff8211176125f857604052565b519069ffffffffffffffffffff8216820361251c57565b908160a091031261251c576126778161264c565b9160208201519160408101519161269560806060840151930161264c565b90565b600354604051633fabe5a360e21b81529060a090829060049082906001600160a01b03165afa9081156126f0576000916126d0575090565b6126e8915060a03d8111611500576114ed818361262a565b505050905090565b6040513d6000823e3d90fd5b8181029291811591840414171561270f57565b634e487b7160e01b600052601160045260246000fd5b811561272f570490565b634e487b7160e01b600052601260045260246000fd5b9081602091031261251c5751801515810361251c5790565b9190820180921161270f57565b67ffffffffffffffff81116125f85760051b60200190565b9061278c8261276a565b612799604051918261262a565b82815280926127aa601f199161276a565b0190602036910137565b8051156125c65760200190565b8051600110156125c65760400190565b80518210156125c65760209160051b010190565b602090818184031261251c5780519067ffffffffffffffff821161251c57019180601f8401121561251c57825161281b8161276a565b93612829604051958661262a565b818552838086019260051b82010192831161251c578301905b828210612850575050505090565b81518152908301908301612842565b919260809361288492979695978452602084015260a0604084015260a0830190612552565b6001600160a01b0390951660608201520152565b9190820391821161270f57565b600019811461270f5760010190565b91908110156125c65760051b0190565b80548210156125c6576000526005602060002091020190600090565b908015612980578115612979578180600114612971576002146129605760208110610133831016604e8210600b8410161761295b57600190815b8082116129325750508160001904811161270f570290565b90928060001904811161270f57818416612952575b800292811c9061291a565b80920291612947565b900a90565b905060ff811161270f576001901b90565b505050600190565b5050600090565b5050600190565b80548210156125c65760005260206000209060021b0190600090565b156129aa57565b60405162461bcd60e51b815260206004820152602160248201527f4f6e6c79206f776e65722063616e2063616c6c20746869732066756e6374696f6044820152603760f91b6064820152608490fd5b15612a0057565b60405162461bcd60e51b81526020600482015260126024820152714c6f616e206973206e6f742061637469766560701b6044820152606490fd5b906000918083526020600581526040808520938015808015612ea6575b8015612e9a575b612a9d576305f5e10080830292830414171561148a57612a85600d91600887015490612725565b9401948554808611612e92575b508415918215612aa6575b50505050505050565b8482526005845280822093600d85019384548811612e4057612dfe5760018060a01b03928360025416938351956370a0823160e01b9788885260049230848a0152602492868a85818c5afa998a15612d9657869a612dcf575b50868d6064848954169b898c519d8e948593631a4ca37b60e21b85528c8501528a8401523060448401525af1988915612d96578699612da0575b508682600254169b858a51809e81938252308a8301525afa9a8b15612d9657869b612d63575b50898b1115612d16578815612cd457612bbe92879282612b818c809554612898565b90556001816002541692015416878a5180968195829463a9059cbb60e01b84528b840160209093929193604081019460018060a01b031681520152565b03925af1908115612cca578491612cad575b5015612c6b57505092828860a096937f38a556a122683cb48d496614a7a03605b6c2c0482342924caf483386980ecc9f6080612c5d9c9b987f971c7ec4a7c96c0a198687499279ccf05d9699970007b5ae5017b1177ee02ed39b9851908a8252858583015286820152866060820152a1825196875286015284015260608301526080820152a18254612898565b905538808080808080612a9d565b845162461bcd60e51b8152918201849052601b908201527f5472616e7366657220746f20626f72726f776572206661696c656400000000006044820152606490fd5b612cc49150853d87116104fb576104ef818361262a565b38612bd0565b86513d86823e3d90fd5b875162461bcd60e51b8152808601889052601c818601527f556e7374616b652072657475726e6564207a65726f20746f6b656e73000000006044820152606490fd5b875162461bcd60e51b81528086018890526022818601527f5769746864726177616c206469646e277420696e6372656173652062616c616e604482015261636560f01b6064820152608490fd5b909a508681813d8311612d8f575b612d7b818361262a565b81010312612d8b57519938612b5f565b8580fd5b503d612d71565b88513d88823e3d90fd5b9098508681813d8311612dc8575b612db8818361262a565b81010312612d8b57519738612b39565b503d612dae565b9099508681813d8311612df7575b612de7818361262a565b81010312612d8b57519838612aff565b503d612ddd565b606491519062461bcd60e51b82526004820152601a60248201527f43616e6e6f7420756e7374616b65207a65726f20616d6f756e740000000000006044820152fd5b50608491519062461bcd60e51b82526004820152602660248201527f43616e6e6f7420756e7374616b65206d6f7265207468616e207374616b656420604482015265185b5bdd5b9d60d21b6064820152fd5b945038612a92565b50600d86015415612a5e565b50600886015415612a57565b90600090828252602091600583526040600d8183200192835481116132e157801561329d5760025482516370a0823160e01b808252306004808401919091529097919691926001600160a01b03926024918416858a8481845afa998a1561329357899a613260575b5090858594939260648b97885416918b519c8d938492631a4ca37b60e21b8452898401528c888401523060448401525af1988915613165578599613231575b508584600254169b838a51809e8193825230888301525afa9a8b1561316557859b6131fe575b50898b11156131b157881561316f57612f99898254612898565b9055600254600154885163095ea7b360e01b81529085166001600160a01b0316848201908152602081018b905290918791839187169082908990829060400103925af1801561316557613148575b50865191612ff48361260e565b60028352873687850137836002541661300c846127b4565b52836009541661301b846127c1565b52605f890293898504605f0361313657600154169161012c420190814211613125575090858a613068829695948c51988997889687956338ed173960e01b8752606430940491870161285f565b03925af190811561311b576080836130d27f971c7ec4a7c96c0a198687499279ccf05d9699970007b5ae5017b1177ee02ed39c9a9896947f38a556a122683cb48d496614a7a03605b6c2c0482342924caf483386980ecc9f9460a09d9b99979161310157506127c1565b51908651918b83528686840152878301526060820152a1825196875286015284015260608301526080820152a1565b61311591503d8085833e61145d818361262a565b386112b6565b85513d84823e3d90fd5b634e487b7160e01b87526011835286fd5b50634e487b7160e01b85526011905283fd5b61315e90863d88116104fb576104ef818361262a565b5038612fe7565b88513d87823e3d90fd5b875162461bcd60e51b8152808401879052601c818401527f556e7374616b652072657475726e6564207a65726f20746f6b656e73000000006044820152606490fd5b875162461bcd60e51b81528084018790526022818401527f5769746864726177616c206469646e277420696e6372656173652062616c616e604482015261636560f01b6064820152608490fd5b909a508581813d831161322a575b613216818361262a565b8101031261322657519938612f7f565b8480fd5b503d61320c565b9098508581813d8311613259575b613249818361262a565b8101031261322657519738612f59565b503d61323f565b9099508581813d831161328c575b613278818361262a565b8101031261328857519885612f1a565b8880fd5b503d61326e565b88513d8b823e3d90fd5b815162461bcd60e51b815260048101869052601a60248201527f43616e6e6f7420756e7374616b65207a65726f20616d6f756e740000000000006044820152606490fd5b815162461bcd60e51b815260048101869052602660248201527f43616e6e6f7420756e7374616b65206d6f7265207468616e207374616b656420604482015265185b5bdd5b9d60d21b6064820152608490fd5b60009081526005602052604081206002810154909392811561339e57670de0b6b3a7640000928382029180830485149015171561338a57509361337c61338692600d96612725565b94859101546126fc565b0490565b634e487b7160e01b81526011600452602490fd5b50508092509190565b156133ae57565b60405162461bcd60e51b815260206004820152600c60248201526b08ccaca40e8dede40d0d2ced60a31b6044820152606490fdfea264697066735822122047aa4c40daf8488757d0ea531421f0d1c183321154e92becd32de300f494d29664736f6c63430008140033",
  "linkReferences": {},
  "deployedLinkReferences": {}
}