{
  "_format": "hh-sol-artifact-1",
  "contractName": "LendingPool",
  "sourceName": "Contracts/Lending.sol",
  "abi": [
    {
      "inputs": [
        {
          "internalType": "address",
          "name": "usdc",
          "type": "address"
        },
        {
          "internalType": "address",
          "name": "_cbBtcToken",
          "type": "address"
        },
        {
          "internalType": "address",
          "name": "oracleAddress",
          "type": "address"
        },
        {
          "internalType": "address",
          "name": "_aavePool",
          "type": "address"
        },
        {
          "internalType": "address",
          "name": "_swapRouter",
          "type": "address"
        }
      ],
      "stateMutability": "nonpayable",
      "type": "constructor"
    },
    {
      "anonymous": false,
      "inputs": [
        {
          "indexed": false,
          "internalType": "bytes32",
          "name": "loanId",
          "type": "bytes32"
        },
        {
          "indexed": false,
          "internalType": "uint256",
          "name": "requested",
          "type": "uint256"
        },
        {
          "indexed": false,
          "internalType": "uint256",
          "name": "actualWithdrawn",
          "type": "uint256"
        },
        {
          "indexed": false,
          "internalType": "uint256",
          "name": "preBalance",
          "type": "uint256"
        },
        {
          "indexed": false,
          "internalType": "uint256",
          "name": "postBalance",
          "type": "uint256"
        }
      ],
      "name": "DebugUnstake",
      "type": "event"
    },
    {
      "anonymous": false,
      "inputs": [
        {
          "indexed": false,
          "internalType": "bytes32",
          "name": "loanId",
          "type": "bytes32"
        },
        {
          "indexed": false,
          "internalType": "uint256",
          "name": "principalRepaid",
          "type": "uint256"
        },
        {
          "indexed": false,
          "internalType": "uint256",
          "name": "proportionRepaid",
          "type": "uint256"
        },
        {
          "indexed": false,
          "internalType": "uint256",
          "name": "cbBtcToUnstake",
          "type": "uint256"
        }
      ],
      "name": "DebugUnstakeProportion",
      "type": "event"
    },
    {
      "anonymous": false,
      "inputs": [
        {
          "indexed": false,
          "internalType": "bytes32",
          "name": "loanId",
          "type": "bytes32"
        },
        {
          "indexed": false,
          "internalType": "uint256",
          "name": "index",
          "type": "uint256"
        }
      ],
      "name": "InstallmentPaid",
      "type": "event"
    },
    {
      "anonymous": false,
      "inputs": [
        {
          "indexed": false,
          "internalType": "bytes32",
          "name": "id",
          "type": "bytes32"
        },
        {
          "indexed": false,
          "internalType": "uint256",
          "name": "amount",
          "type": "uint256"
        },
        {
          "indexed": false,
          "internalType": "uint256",
          "name": "collateral",
          "type": "uint256"
        },
        {
          "indexed": false,
          "internalType": "address",
          "name": "borrower",
          "type": "address"
        }
      ],
      "name": "LoanCreated",
      "type": "event"
    },
    {
      "anonymous": false,
      "inputs": [
        {
          "indexed": false,
          "internalType": "bytes32",
          "name": "id",
          "type": "bytes32"
        },
        {
          "indexed": false,
          "internalType": "address",
          "name": "borrower",
          "type": "address"
        },
        {
          "indexed": false,
          "internalType": "uint256",
          "name": "btcPriceNow",
          "type": "uint256"
        }
      ],
      "name": "LoanLiquidated",
      "type": "event"
    },
    {
      "anonymous": false,
      "inputs": [
        {
          "indexed": false,
          "internalType": "bytes32",
          "name": "loanId",
          "type": "bytes32"
        },
        {
          "indexed": false,
          "internalType": "address",
          "name": "borrower",
          "type": "address"
        },
        {
          "indexed": false,
          "internalType": "uint256",
          "name": "amount",
          "type": "uint256"
        },
        {
          "indexed": false,
          "internalType": "bool",
          "name": "fullyRepaid",
          "type": "bool"
        }
      ],
      "name": "Payout",
      "type": "event"
    },
    {
      "anonymous": false,
      "inputs": [
        {
          "indexed": false,
          "internalType": "bytes32",
          "name": "loanId",
          "type": "bytes32"
        },
        {
          "indexed": false,
          "internalType": "uint256",
          "name": "usdcAmount",
          "type": "uint256"
        },
        {
          "indexed": false,
          "internalType": "uint256",
          "name": "cbBtcAmount",
          "type": "uint256"
        }
      ],
      "name": "TokensStaked",
      "type": "event"
    },
    {
      "anonymous": false,
      "inputs": [
        {
          "indexed": false,
          "internalType": "bytes32",
          "name": "loanId",
          "type": "bytes32"
        },
        {
          "indexed": false,
          "internalType": "uint256",
          "name": "cbBtcAmount",
          "type": "uint256"
        },
        {
          "indexed": false,
          "internalType": "uint256",
          "name": "usdcAmount",
          "type": "uint256"
        },
        {
          "indexed": false,
          "internalType": "uint256",
          "name": "borrowerCbBtcShare",
          "type": "uint256"
        }
      ],
      "name": "TokensUnstaked",
      "type": "event"
    },
    {
      "inputs": [],
      "name": "aavePool",
      "outputs": [
        {
          "internalType": "contract IAavePool",
          "name": "",
          "type": "address"
        }
      ],
      "stateMutability": "view",
      "type": "function"
    },
    {
      "inputs": [],
      "name": "cbBtcToken",
      "outputs": [
        {
          "internalType": "address",
          "name": "",
          "type": "address"
        }
      ],
      "stateMutability": "view",
      "type": "function"
    },
    {
      "inputs": [],
      "name": "chainlinkOracle",
      "outputs": [
        {
          "internalType": "contract AggregatorV3Interface",
          "name": "",
          "type": "address"
        }
      ],
      "stateMutability": "view",
      "type": "function"
    },
    {
      "inputs": [
        {
          "internalType": "bytes32",
          "name": "loanId",
          "type": "bytes32"
        },
        {
          "internalType": "uint256",
          "name": "principalRepaid",
          "type": "uint256"
        }
      ],
      "name": "debugUnstakeCalc",
      "outputs": [
        {
          "internalType": "uint256",
          "name": "proportionRepaid",
          "type": "uint256"
        },
        {
          "internalType": "uint256",
          "name": "cbBtcToUnstake",
          "type": "uint256"
        }
      ],
      "stateMutability": "view",
      "type": "function"
    },
    {
      "inputs": [
        {
          "internalType": "bytes32",
          "name": "loanId",
          "type": "bytes32"
        }
      ],
      "name": "getAmortizationSchedule",
      "outputs": [
        {
          "internalType": "uint256[]",
          "name": "principals",
          "type": "uint256[]"
        },
        {
          "internalType": "uint256[]",
          "name": "interests",
          "type": "uint256[]"
        },
        {
          "internalType": "bool[]",
          "name": "paidStatuses",
          "type": "bool[]"
        }
      ],
      "stateMutability": "view",
      "type": "function"
    },
    {
      "inputs": [
        {
          "internalType": "bytes32",
          "name": "loanId",
          "type": "bytes32"
        }
      ],
      "name": "getContributions",
      "outputs": [
        {
          "internalType": "address[]",
          "name": "lenders",
          "type": "address[]"
        },
        {
          "internalType": "uint256[]",
          "name": "amounts",
          "type": "uint256[]"
        },
        {
          "internalType": "uint256[]",
          "name": "receivableInterests",
          "type": "uint256[]"
        },
        {
          "internalType": "uint256[]",
          "name": "repaidPrincipals",
          "type": "uint256[]"
        },
        {
          "internalType": "uint256[]",
          "name": "repaidInterests",
          "type": "uint256[]"
        }
      ],
      "stateMutability": "view",
      "type": "function"
    },
    {
      "inputs": [
        {
          "internalType": "bytes32",
          "name": "loanId",
          "type": "bytes32"
        }
      ],
      "name": "getInstallmentSchedule",
      "outputs": [
        {
          "components": [
            {
              "internalType": "uint256",
              "name": "duePrincipal",
              "type": "uint256"
            },
            {
              "internalType": "uint256",
              "name": "dueInterest",
              "type": "uint256"
            },
            {
              "internalType": "bool",
              "name": "paid",
              "type": "bool"
            },
            {
              "internalType": "uint256",
              "name": "dueTimestamp",
              "type": "uint256"
            }
          ],
          "internalType": "struct LendingPool.Installment[]",
          "name": "",
          "type": "tuple[]"
        }
      ],
      "stateMutability": "view",
      "type": "function"
    },
    {
      "inputs": [],
      "name": "getPrice",
      "outputs": [
        {
          "internalType": "int256",
          "name": "",
          "type": "int256"
        }
      ],
      "stateMutability": "view",
      "type": "function"
    },
    {
      "inputs": [
        {
          "internalType": "bytes32",
          "name": "loanId",
          "type": "bytes32"
        }
      ],
      "name": "getStakedAmount",
      "outputs": [
        {
          "internalType": "uint256",
          "name": "",
          "type": "uint256"
        }
      ],
      "stateMutability": "view",
      "type": "function"
    },
    {
      "inputs": [
        {
          "internalType": "address",
          "name": "",
          "type": "address"
        }
      ],
      "name": "hasActiveLoan",
      "outputs": [
        {
          "internalType": "bool",
          "name": "",
          "type": "bool"
        }
      ],
      "stateMutability": "view",
      "type": "function"
    },
    {
      "inputs": [
        {
          "internalType": "address",
          "name": "",
          "type": "address"
        }
      ],
      "name": "lenders",
      "outputs": [
        {
          "internalType": "uint256",
          "name": "totalContributed",
          "type": "uint256"
        }
      ],
      "stateMutability": "view",
      "type": "function"
    },
    {
      "inputs": [
        {
          "internalType": "bytes32",
          "name": "loanId",
          "type": "bytes32"
        }
      ],
      "name": "liquidate",
      "outputs": [],
      "stateMutability": "nonpayable",
      "type": "function"
    },
    {
      "inputs": [
        {
          "internalType": "bytes32",
          "name": "loanId",
          "type": "bytes32"
        }
      ],
      "name": "liquidateIfOverdue",
      "outputs": [],
      "stateMutability": "nonpayable",
      "type": "function"
    },
    {
      "inputs": [
        {
          "internalType": "uint256",
          "name": "totalAmount",
          "type": "uint256"
        },
        {
          "internalType": "uint256",
          "name": "durationMonths",
          "type": "uint256"
        },
        {
          "internalType": "uint256",
          "name": "annualInterestRate",
          "type": "uint256"
        },
        {
          "internalType": "address[]",
          "name": "lenderAddresses",
          "type": "address[]"
        },
        {
          "internalType": "uint256[]",
          "name": "lenderAmounts",
          "type": "uint256[]"
        }
      ],
      "name": "loan",
      "outputs": [],
      "stateMutability": "nonpayable",
      "type": "function"
    },
    {
      "inputs": [
        {
          "internalType": "uint256",
          "name": "",
          "type": "uint256"
        }
      ],
      "name": "loanIds",
      "outputs": [
        {
          "internalType": "bytes32",
          "name": "",
          "type": "bytes32"
        }
      ],
      "stateMutability": "view",
      "type": "function"
    },
    {
      "inputs": [
        {
          "internalType": "bytes32",
          "name": "",
          "type": "bytes32"
        }
      ],
      "name": "loans",
      "outputs": [
        {
          "internalType": "bytes32",
          "name": "id",
          "type": "bytes32"
        },
        {
          "internalType": "address",
          "name": "borrower",
          "type": "address"
        },
        {
          "internalType": "uint256",
          "name": "principal",
          "type": "uint256"
        },
        {
          "internalType": "uint256",
          "name": "borrowerDeposit",
          "type": "uint256"
        },
        {
          "internalType": "uint256",
          "name": "interestRate",
          "type": "uint256"
        },
        {
          "internalType": "uint256",
          "name": "duration",
          "type": "uint256"
        },
        {
          "internalType": "uint256",
          "name": "monthlyPayment",
          "type": "uint256"
        },
        {
          "internalType": "uint256",
          "name": "startTime",
          "type": "uint256"
        },
        {
          "internalType": "uint256",
          "name": "btcPriceAtCreation",
          "type": "uint256"
        },
        {
          "internalType": "bool",
          "name": "isActive",
          "type": "bool"
        },
        {
          "internalType": "uint256",
          "name": "totalAmount",
          "type": "uint256"
        },
        {
          "internalType": "uint256",
          "name": "stakedAmount",
          "type": "uint256"
        },
        {
          "internalType": "uint256",
          "name": "remainingPrincipal",
          "type": "uint256"
        }
      ],
      "stateMutability": "view",
      "type": "function"
    },
    {
      "inputs": [
        {
          "internalType": "bytes32",
          "name": "loanId",
          "type": "bytes32"
        },
        {
          "internalType": "uint256",
          "name": "index",
          "type": "uint256"
        }
      ],
      "name": "markInstallmentPaid",
      "outputs": [],
      "stateMutability": "nonpayable",
      "type": "function"
    },
    {
      "inputs": [],
      "name": "owner",
      "outputs": [
        {
          "internalType": "address",
          "name": "",
          "type": "address"
        }
      ],
      "stateMutability": "view",
      "type": "function"
    },
    {
      "inputs": [
        {
          "internalType": "bytes32",
          "name": "loanId",
          "type": "bytes32"
        },
        {
          "internalType": "uint256",
          "name": "usdcAmount",
          "type": "uint256"
        }
      ],
      "name": "payouts",
      "outputs": [],
      "stateMutability": "nonpayable",
      "type": "function"
    },
    {
      "inputs": [
        {
          "internalType": "address",
          "name": "_aavePool",
          "type": "address"
        }
      ],
      "name": "setAavePool",
      "outputs": [],
      "stateMutability": "nonpayable",
      "type": "function"
    },
    {
      "inputs": [
        {
          "internalType": "address",
          "name": "_cbBtcToken",
          "type": "address"
        }
      ],
      "name": "setCbBtcToken",
      "outputs": [],
      "stateMutability": "nonpayable",
      "type": "function"
    },
    {
      "inputs": [
        {
          "internalType": "address",
          "name": "oracleAddress",
          "type": "address"
        }
      ],
      "name": "setChainlinkOracle",
      "outputs": [],
      "stateMutability": "nonpayable",
      "type": "function"
    },
    {
      "inputs": [
        {
          "internalType": "address",
          "name": "_swapRouter",
          "type": "address"
        }
      ],
      "name": "setSwapRouter",
      "outputs": [],
      "stateMutability": "nonpayable",
      "type": "function"
    },
    {
      "inputs": [],
      "name": "swapRouter",
      "outputs": [
        {
          "internalType": "contract ISwapRouter",
          "name": "",
          "type": "address"
        }
      ],
      "stateMutability": "view",
      "type": "function"
    },
    {
      "inputs": [],
      "name": "usdcToken",
      "outputs": [
        {
          "internalType": "address",
          "name": "",
          "type": "address"
        }
      ],
      "stateMutability": "view",
      "type": "function"
    }
  ],
  "bytecode": "0x608034620000ec57601f6200304c38819003918201601f19168301916001600160401b03831184841017620000f15780849260a094604052833981010312620000ec576200004d8162000107565b906200005c6020820162000107565b906200006b6040820162000107565b91620000886080620000806060850162000107565b930162000107565b9160018060a01b0319943386600854161760085560018060a01b03948580948180941689600954161760095516876002541617600255168560035416176003551683600054161760005516906001541617600155604051612f2f90816200011d8239f35b600080fd5b634e487b7160e01b600052604160045260246000fd5b51906001600160a01b0382168203620000ec5756fe6080604052600436101561001257600080fd5b6000803560e01c80630a71096e14611d8d5780630e46238614611d6457806311eac85514611d3b5780631fc8f4df14611c0a57806321d4f8db14611bc857806328830d47146118e257806328fd10d7146118a5578063337a173714611878578063349f937c1461182f57806341273657146117e25780635206d2d0146117bc57806366fb6e5a14610aca5780636c1945ae146109c95780637a9b04121461097c57806380f2122c146105aa57806383cd8fcf1461055957806386a2e274146104275780638da5cb5b146103fe57806398d5fdca146103db578063a03e4bc3146103b4578063c31c9c071461038b578063c4a90815146102cd578063c9642d2a14610194578063ef06e72c1461016b5763f8715a421461013057600080fd5b34610168576020366003190112610168576004359060075482101561016857602061015a836120e1565b90546040519160031b1c8152f35b80fd5b50346101685780600319360112610168576003546040516001600160a01b039091168152602090f35b5034610168576101a336612058565b906101b960018060a01b036008541633146124f5565b8083526005602052600c604084206101d760ff60098301541661254b565b019081548310156102885760ff60026101f085856124d9565b50015416610243578260026102287f3d05ac2057427ac2f84502e7efefebf5ae10d9529129c2979ce60fb97d460614956040956124d9565b5001805460ff1916600117905582519182526020820152a180f35b60405162461bcd60e51b815260206004820152601f60248201527f496e7374616c6c6d656e7420616c7265616479206d61726b65642070616964006044820152606490fd5b60405162461bcd60e51b815260206004820152601960248201527f496e76616c696420696e7374616c6c6d656e7420696e646578000000000000006044820152606490fd5b50346101685760203660031901126101685760406101a091600435815260056020522080549060018060a01b03600182015416906002810154600382015460048301546005840154600685015460078601549160088701549360ff60098901541695600a89015497600e600d8b01549a01549a6040519c8d5260208d015260408c015260608b015260808a015260a089015260c088015260e08701526101008601521515610120850152610140840152610160830152610180820152f35b50346101685780600319360112610168576001546040516001600160a01b039091168152602090f35b5034610168578060031936011261016857546040516001600160a01b039091168152602090f35b503461016857806003193601126101685760206103f66121ea565b604051908152f35b50346101685780600319360112610168576008546040516001600160a01b039091168152602090f35b50346101685760203660031901126101685760043581526005602052600b6040822001908154906104578261227e565b916104618161227e565b61046a8261227e565b906104748361227e565b9261047e8161227e565b945b8181106104eb576104af876104e7886104d9896104cb8a6104bd8b604051998a9960a08b5260a08b01906120a4565b9089820360208b0152612024565b908782036040890152612024565b908582036060870152612024565b908382036080850152612024565b0390f35b8060046104fb610554938b612416565b5080546001600160a01b0316610511848c6122cd565b52600181015461052184886122cd565b52600281015461053184896122cd565b526003810154610541848a6122cd565b52015461054e82896122cd565b526123f7565b610480565b5034610168576020366003190112610168576004356001600160a01b03818116918290036105a657610590906008541633146124f5565b6001600160601b0360a01b600254161760025580f35b8280fd5b5034610168576105b936612058565b90808352600560205260408320906105d760ff60098401541661254b565b60018201546001600160a01b03163303610937576009546040516323b872dd60e01b815233600482015230602482015260448101859052906020908290606490829089906001600160a01b03165af1801561092c5761090d575b50829084855b600c850154811080610904575b156108af5761065681600c87016124d9565b508054801561086a5760ff60028301541661085f5760018201549061067b828261232a565b80881015610696575b50505050610691906123f7565b610637565b906106ab6106b1928298959b949a97996123ea565b9761232a565b906002850154968a5b600b870154811015610808576106d381600b8901612416565b50600181015480670de0b6b3a7640000810204670de0b6b3a764000014811517156107f4578d61079b93928d61076b670de0b6b3a76400008f8f82610729610722610730948360209c0261230a565b80936122e1565b04946122e1565b046003840161074084825461232a565b90556004840161075182825461232a565b905560095493546001600160a01b0394851694169261232a565b60405163a9059cbb60e01b81526001600160a01b0390921660048301526024820152948592839182906044820190565b03925af19182156107e9576107b5926107ba575b506123f7565b6106ba565b6107db9060203d6020116107e2575b6107d3818361217c565b81019061224e565b50386107af565b503d6107c9565b6040513d8f823e3d90fd5b634e487b7160e01b8e52601160045260248efd5b5096509790939650610691929194506002600160ff198284015416179101557f3d05ac2057427ac2f84502e7efefebf5ae10d9529129c2979ce60fb97d46061460408051868152836020820152a190388080610684565b5050610691906123f7565b60405162461bcd60e51b815260206004820152601860248201527f496e7374616c6c6d656e7420616c7265616479207061696400000000000000006044820152606490fd5b867fdc376abd09229a842ac7d8bcadc9017651f1f1b8490750870cae0ecd4aedf674608085876108e9818c6108e48a8661258c565b6123ea565b6040519283523360208401526040830152156060820152a180f35b50831515610644565b6109259060203d6020116107e2576107d3818361217c565b5038610631565b6040513d87823e3d90fd5b60405162461bcd60e51b815260206004820152601760248201527f4f6e6c7920626f72726f7765722063616e2072657061790000000000000000006044820152606490fd5b5034610168576020366003190112610168576004356001600160a01b03818116918290036105a6576109b3906008541633146124f5565b6001600160601b0360a01b600354161760035580f35b503461016857602090816003193601126101685790600435825260058152600c604083200180546109f981612266565b90610a07604051928361217c565b8082528382018093865284862086915b838310610a7b57505050506040519280840191818552518092526040840192945b828110610a455784840385f35b85518051855280830151858401526040808201511515908601526060908101519085015294810194608090930192600101610a38565b60048760019260409a9997989a51610a928161212e565b85548152848601548382015260ff60028701541615156040820152600386015460608201528152019201920191909694939596610a17565b50346101685760a03660031901126101685760643567ffffffffffffffff81116117b857610afc903690600401612073565b9060843567ffffffffffffffff81116117b457610b1d903690600401612073565b926004351561177e576024351561174657338552600660205260ff6040862054166116f55783810361169b5780156116605760146004350291600435830460140361113557610b71606484046004356123ea565b6009546040516323b872dd60e01b8152336004820152306024820152606480870460448301529296929091602091839182908c906001600160a01b03165af1801561165557611636575b509084929160405160208101903360601b825242603482015260348152610be181612160565b519020968789526005602052606460408a209689885560018801336001600160601b0360a01b825416179055600435600a89015586600289015504600387015560443560048701556024356005870155426007870155610c3f6121ea565b600887015560098601805460ff19166001179055600e86018590558893845b8181106113f55750505050500361139f57670de0b6b3a764000060443502906044358204670de0b6b3a76400001460443515171561138b57610ca46104b08304846122e1565b6104b08304670de0b6b3a764000001670de0b6b3a764000011611135576104b08304670de0b6b3a7640000011561137757610cf96024356104b08504670de0b6b3a764000001670de0b6b3a764000004612432565b670de0b6b3a76400000390670de0b6b3a7640000821161112157600691610d1f9161230a565b91015582845260056020526040842091670de0b6b3a764000081865b602435811061134d575081610d58610d5d926104b08704906122e1565b6122e1565b9080670de0b6b3a763ffff1981011161112157670de0b6b3a764000091610d8f91670de0b6b3a763ffff19019061230a565b0480600685015585915b60243583106111e5578686600754600160401b8110156111d157806001610dc392016007556120e1565b815460001960039290921b91821b19169083901b179055338252600660209081526040808420805460ff1916600190811790915583855260058352818520600a8101546009549254935163095ea7b360e01b81526001600160a01b039485166004820152602481018290529194909391929091839160449183918a91165af1801561092c576111b2575b50604051610e5a81612160565b6002815260403660208301376009546001600160a01b0316610e7b826122b0565b526002546001600160a01b0316610e91826122bd565b52600354604051633fabe5a360e21b81529060a090829060049082906001600160a01b03165afa9081156110ca57869161117e575b5085811315611149576305f5e1008084029084820414841517156111215790610eee9161230a565b80606281020460621481151715611135576001546001600160a01b0316914261012c8101106111215791610f4c9391878094604051968795869485936338ed173960e01b855261012c420192606460623094020490600487016123b1565b03925af1801561111657610f679185916110f4575b506122bd565b518284526005602090815260408086206002548754925163095ea7b360e01b81526001600160a01b0393841660048201526024810186905291939192839160449183918b91165af180156110ca576110d5575b50845460025486916001600160a01b039182169116803b156105a65760848392604051948593849263617ba03760e01b845260048401528860248401523060448401528160648401525af180156110ca57611099575b506080927faeec09af87559b9077da2e499d1fad2e228d7c24cb4b566fe61976820abaadda6060846002857f65410888fb30edd04f6acfb2f6cfd92aaf0ebb9b5303b6286d65d0b031b5b7f79997600d60039801550154906040519187835260208301526040820152a1015460405191825260043560208301526040820152336060820152a180f35b67ffffffffffffffff81969296116110b657604052936080611010565b634e487b7160e01b82526041600452602482fd5b6040513d88823e3d90fd5b6110ed9060203d6020116107e2576107d3818361217c565b5085610fba565b61111091503d8087833e611108818361217c565b810190612337565b85610f61565b6040513d86823e3d90fd5b634e487b7160e01b87526011600452602487fd5b634e487b7160e01b86526011600452602486fd5b60405162461bcd60e51b815260206004820152600d60248201526c496e76616c696420707269636560981b6044820152606490fd5b6111a0915060a03d60a0116111ab575b611198818361217c565b8101906121b5565b505050905086610ec6565b503d61118e565b6111ca9060203d6020116107e2576107d3818361217c565b5084610e4d565b634e487b7160e01b83526041600452602483fd5b670de0b6b3a76400006111fc6104b08604836122e1565b0490818311156113475761121082846123ea565b916024356000198101116113335760243560001901851461131e575b62278d00858181020481148615171561130a5761124b9086024261232a565b604051916112588361212e565b84835260208301528960408301526060820152600c870154600160401b8110156112f6578060016112929201600c8a0155600c89016124d9565b9190916112e257916112dc939160036060856112d69651845560208101516001850155600284016040820151151560ff8019835416911617905501519101556123ea565b926123f7565b91610d99565b634e487b7160e01b8a5260048a905260248afd5b634e487b7160e01b8a52604160045260248afd5b634e487b7160e01b8a52601160045260248afd5b925090508061132d838261232a565b9261122c565b634e487b7160e01b89526011600452602489fd5b87611210565b91670de0b6b3a764000061136b611372926104b088048301906122e1565b04926123f7565b610d3b565b634e487b7160e01b86526012600452602486fd5b634e487b7160e01b85526011600452602485fd5b60405162461bcd60e51b815260206004820152602860248201527f436f6c6c656374656420616d6f756e7420646f65736e2774206d6174636820706044820152671c9a5b98da5c185b60c21b6064820152608490fd5b90919293949550611407818386612406565b356001600160a01b038116810361163257611423828588612406565b359687156115f5578b90602061147960018060a01b03600954168b6040519586809481936323b872dd60e01b8352308b6004850160409194939294606082019560018060a01b0380921683521660208201520152565b03925af19081156107e957611495928a926115d6575b5061232a565b9660018060a01b0382168c52600460205260408c206114b582825461232a565b90556104b06114cc602435610d58604435856122e1565b0490604051928360a081011067ffffffffffffffff60a0860111176115c25760a0840160405260018060a01b03168352602083015260408201528a60608201528a6080820152600b880154600160401b8110156115ae578060016115399201600b8b0155600b8a01612416565b91909161159a57805182546001600160a01b0319166001600160a01b03919091161782556020810151600183015560408101516002830155606081015160038301556080015160049091015561158e906123f7565b90879594939291610c5e565b634e487b7160e01b8c5260048c905260248cfd5b634e487b7160e01b8c52604160045260248cfd5b634e487b7160e01b8e52604160045260248efd5b6115ee9060203d6020116107e2576107d3818361217c565b503861148f565b60405162461bcd60e51b8152602060048201526015602482015274125b9d985b1a59081b195b99195c88185b5bdd5b9d605a1b6044820152606490fd5b8a80fd5b61164e9060203d6020116107e2576107d3818361217c565b5038610bbb565b6040513d8a823e3d90fd5b60405162461bcd60e51b8152602060048201526013602482015272139bc81b195b99195c9cc81c1c9bdd9a591959606a1b6044820152606490fd5b60405162461bcd60e51b815260206004820152602c60248201527f4c656e6465722061646472657373657320616e6420616d6f756e7473206c656e60448201526b0cee8d040dad2e6dac2e8c6d60a31b6064820152608490fd5b60405162461bcd60e51b815260206004820152602360248201527f426f72726f77657220616c72656164792068617320616e20616374697665206c60448201526237b0b760e91b6064820152608490fd5b60405162461bcd60e51b815260206004820152601060248201526f24b73b30b634b210323ab930ba34b7b760811b6044820152606490fd5b60405162461bcd60e51b815260206004820152600e60248201526d125b9d985b1a5908185b5bdd5b9d60921b6044820152606490fd5b8380fd5b5080fd5b50346101685760406117d66117d036612058565b90612e86565b82519182526020820152f35b5034610168576020366003190112610168576004356001600160a01b03818116918290036105a657611819906008541633146124f5565b6001600160601b0360a01b600154161760015580f35b5034610168576020366003190112610168576004356001600160a01b03818116918290036105a657611866906008541633146124f5565b81546001600160a01b03191617815580f35b503461016857602036600319011261016857600d6040602092600435815260058452200154604051908152f35b5034610168576020366003190112610168576004356001600160a01b038116908190036117b8578160409160209352600483522054604051908152f35b5034610168576020806003193601126117b85760043560018060a01b0361190e816008541633146124f5565b8184526005835260408420926009908185019182549260ff61193181861661254b565b88908990600c8a018054925b838110611b7857505050506276a7001015611b1e5760ff1980941690556001808701938585541689526006845260408920908154169055600d87015480611b0e575b50600380880154600e89015491826119f3575b8a7fcab88a55906c5830a49dddd8b31d115294a5e6c4210f25fe140530a39c51dc748a8a8a5416906119ed6119c56121ea565b604080519384526001600160a01b039094166020840152928201929092529081906060820190565b0390a180f35b9091928099600b8c9101915b611a0a575b50611992565b8154811015611b0957611a1d8183612416565b50611a2f8c82015485830154906123ea565b8c8115611af85750670de0b6b3a7640000908181029081048203611ae4578796959493928f9192611a6d611a67611aa99b8e9661230a565b896122e1565b04918d808c541692541690604051809b8195829463a9059cbb60e01b84526004840160209093929193604081019460018060a01b031681520152565b03925af19081156107e9578c96611ac492611ace57506123f7565b90919293946119ff565b6107db908a3d8c116107e2576107d3818361217c565b634e487b7160e01b8f52601160045260248ffd5b96959493929050611ac491506123f7565b611a04565b611b189087612a04565b3861197f565b60405162461bcd60e51b815260048101849052602c60248201527f4c6f616e206973206e6f74206f766572647565206265796f6e642033206d6f6e60448201526b1d1a1cc81a5b881d1bdd185b60a21b6064820152608490fd5b611b8281836124d9565b5083600282015416611b9a5760030154804211611ba9575b50611ba4906123f7565b61193d565b611ba49195611bbb611bc192426123ea565b9061232a565b9490611b9a565b5034610168576020366003190112610168576004356001600160a01b038116908190036117b85760408260ff9260209452600684522054166040519015158152f35b5034610168576020806003193601126117b85790600435815260058252600c6040822001805491611c3a8361227e565b92611c448161227e565b611c4d82612266565b91611c5b604051938461217c565b808352611c6781612266565b8388019590601f1901368737845b828110611ce3575050509480611ca9611c9c9760405198899860608a5260608a0190612024565b90888203848a0152612024565b92868403604088015251928381520193925b828110611cca57505050500390f35b8351151585528695509381019392810192600101611cbb565b8060ff6002611cfb611d3094869d9a999b9c9d6124d9565b508054611d08858f6122cd565b526001810154611d18858a6122cd565b52015416611d26828a6122cd565b90151590526123f7565b979695939497611c75565b50346101685780600319360112610168576009546040516001600160a01b039091168152602090f35b50346101685780600319360112610168576002546040516001600160a01b039091168152602090f35b503461016857602036600319011261016857611db460018060a01b036008541633146124f5565b600435815260056020526040812060098101805491611dd560ff841661254b565b611ddd6121ea565b91600d82016305f5e100611df28583546122e1565b0491600e8401928354606981029080820460691490151715611333576064900410611fc15760ff1995861690556001830180546001600160a01b0316875260066020526040872080549096169095555480611faf575b50600382015490549182611ea7575b505091546040805160043581526001600160a01b0390921660208301528101919091527fcab88a55906c5830a49dddd8b31d115294a5e6c4210f25fe140530a39c51dc74915080606081016119ed565b909192855b600b830154811015611f8257611ec581600b8501612416565b50611ed960018201546003830154906123ea565b8015611f775780670de0b6b3a7640000810204670de0b6b3a76400000361133357611f599291670de0b6b3a7640000611f19611a678a836020960261230a565b600954925460405163a9059cbb60e01b81526001600160a01b039182166004820152929091046024830152909485929091169082908c9082906044820190565b03925af191821561165557611f72926107ba57506123f7565b611eac565b5050611f72906123f7565b50925050507fcab88a55906c5830a49dddd8b31d115294a5e6c4210f25fe140530a39c51dc743880611e57565b611fbb90600435612a04565b38611e48565b60405162461bcd60e51b815260206004820152603560248201527f4254432076616c756520686173206e6f742064726f707065642062656c6f77206044820152741b1a5c5d5a59185d1a5bdb881d1a1c995cda1bdb19605a1b6064820152608490fd5b90815180825260208080930193019160005b828110612044575050505090565b835185529381019392810192600101612036565b604090600319011261206e576004359060243590565b600080fd5b9181601f8401121561206e5782359167ffffffffffffffff831161206e576020808501948460051b01011161206e57565b90815180825260208080930193019160005b8281106120c4575050505090565b83516001600160a01b0316855293810193928101926001016120b6565b6007548110156121185760076000527fa66cc928b5edb82af9bd49922954155ab7b0942694bea4ce44661d9a8736c6880190600090565b634e487b7160e01b600052603260045260246000fd5b6080810190811067ffffffffffffffff82111761214a57604052565b634e487b7160e01b600052604160045260246000fd5b6060810190811067ffffffffffffffff82111761214a57604052565b90601f8019910116810190811067ffffffffffffffff82111761214a57604052565b519069ffffffffffffffffffff8216820361206e57565b908160a091031261206e576121c98161219e565b916020820151916040810151916121e760806060840151930161219e565b90565b600354604051633fabe5a360e21b81529060a090829060049082906001600160a01b03165afa90811561224257600091612222575090565b61223a915060a03d81116111ab57611198818361217c565b505050905090565b6040513d6000823e3d90fd5b9081602091031261206e5751801515810361206e5790565b67ffffffffffffffff811161214a5760051b60200190565b9061228882612266565b612295604051918261217c565b82815280926122a6601f1991612266565b0190602036910137565b8051156121185760200190565b8051600110156121185760400190565b80518210156121185760209160051b010190565b818102929181159184041417156122f457565b634e487b7160e01b600052601160045260246000fd5b8115612314570490565b634e487b7160e01b600052601260045260246000fd5b919082018092116122f457565b602090818184031261206e5780519067ffffffffffffffff821161206e57019180601f8401121561206e57825161236d81612266565b9361237b604051958661217c565b818552838086019260051b82010192831161206e578301905b8282106123a2575050505090565b81518152908301908301612394565b91926080936123d692979695978452602084015260a0604084015260a08301906120a4565b6001600160a01b0390951660608201520152565b919082039182116122f457565b60001981146122f45760010190565b91908110156121185760051b0190565b8054821015612118576000526005602060002091020190600090565b9080156124d25781156124cb5781806001146124c3576002146124b25760208110610133831016604e8210600b841016176124ad57600190815b808211612484575050816000190481116122f4570290565b9092806000190481116122f4578184166124a4575b800292811c9061246c565b80920291612499565b900a90565b905060ff81116122f4576001901b90565b505050600190565b5050600090565b5050600190565b80548210156121185760005260206000209060021b0190600090565b156124fc57565b60405162461bcd60e51b815260206004820152602160248201527f4f6e6c79206f776e65722063616e2063616c6c20746869732066756e6374696f6044820152603760f91b6064820152608490fd5b1561255257565b60405162461bcd60e51b81526020600482015260126024820152714c6f616e206973206e6f742061637469766560701b6044820152606490fd5b9060009180835260206005815260408085209380158080156129f8575b80156129ec575b6125ef576305f5e100808302928304141715611135576125d7600d9160088701549061230a565b94019485548086116129e4575b5084159182156125f8575b50505050505050565b8482526005845280822093600d85019384548811612992576129505760018060a01b03928360025416938351956370a0823160e01b9788885260049230848a0152602492868a85818c5afa998a156128e857869a612921575b50868d6064848954169b898c519d8e948593631a4ca37b60e21b85528c8501528a8401523060448401525af19889156128e85786996128f2575b508682600254169b858a51809e81938252308a8301525afa9a8b156128e857869b6128b5575b50898b111561286857881561282657612710928792826126d38c8095546123ea565b90556001816002541692015416878a5180968195829463a9059cbb60e01b84528b840160209093929193604081019460018060a01b031681520152565b03925af190811561281c5784916127ff575b50156127bd57505092828860a096937f38a556a122683cb48d496614a7a03605b6c2c0482342924caf483386980ecc9f60806127af9c9b987f971c7ec4a7c96c0a198687499279ccf05d9699970007b5ae5017b1177ee02ed39b9851908a8252858583015286820152866060820152a1825196875286015284015260608301526080820152a182546123ea565b9055388080808080806125ef565b845162461bcd60e51b8152918201849052601b908201527f5472616e7366657220746f20626f72726f776572206661696c656400000000006044820152606490fd5b6128169150853d87116107e2576107d3818361217c565b38612722565b86513d86823e3d90fd5b875162461bcd60e51b8152808601889052601c818601527f556e7374616b652072657475726e6564207a65726f20746f6b656e73000000006044820152606490fd5b875162461bcd60e51b81528086018890526022818601527f5769746864726177616c206469646e277420696e6372656173652062616c616e604482015261636560f01b6064820152608490fd5b909a508681813d83116128e1575b6128cd818361217c565b810103126128dd575199386126b1565b8580fd5b503d6128c3565b88513d88823e3d90fd5b9098508681813d831161291a575b61290a818361217c565b810103126128dd5751973861268b565b503d612900565b9099508681813d8311612949575b612939818361217c565b810103126128dd57519838612651565b503d61292f565b606491519062461bcd60e51b82526004820152601a60248201527f43616e6e6f7420756e7374616b65207a65726f20616d6f756e740000000000006044820152fd5b50608491519062461bcd60e51b82526004820152602660248201527f43616e6e6f7420756e7374616b65206d6f7265207468616e207374616b656420604482015265185b5bdd5b9d60d21b6064820152fd5b9450386125e4565b50600d860154156125b0565b506008860154156125a9565b90600090828252602091600583526040600d818320019283548111612e33578015612def5760025482516370a0823160e01b808252306004808401919091529097919691926001600160a01b03926024918416858a8481845afa998a15612de557899a612db2575b5090858594939260648b97885416918b519c8d938492631a4ca37b60e21b8452898401528c888401523060448401525af1988915612cb7578599612d83575b508584600254169b838a51809e8193825230888301525afa9a8b15612cb757859b612d50575b50898b1115612d03578815612cc157612aeb8982546123ea565b9055600254600154885163095ea7b360e01b81529085166001600160a01b0316848201908152602081018b905290918791839187169082908990829060400103925af18015612cb757612c9a575b50865191612b4683612160565b600283528736878501378360025416612b5e846122b0565b528360095416612b6d846122bd565b52605f890293898504605f03612c8857600154169161012c420190814211612c77575090858a612bba829695948c51988997889687956338ed173960e01b875260643094049187016123b1565b03925af1908115612c6d57608083612c247f971c7ec4a7c96c0a198687499279ccf05d9699970007b5ae5017b1177ee02ed39c9a9896947f38a556a122683cb48d496614a7a03605b6c2c0482342924caf483386980ecc9f9460a09d9b999791612c5357506122bd565b51908651918b83528686840152878301526060820152a1825196875286015284015260608301526080820152a1565b612c6791503d8085833e611108818361217c565b38610f61565b85513d84823e3d90fd5b634e487b7160e01b87526011835286fd5b50634e487b7160e01b85526011905283fd5b612cb090863d88116107e2576107d3818361217c565b5038612b39565b88513d87823e3d90fd5b875162461bcd60e51b8152808401879052601c818401527f556e7374616b652072657475726e6564207a65726f20746f6b656e73000000006044820152606490fd5b875162461bcd60e51b81528084018790526022818401527f5769746864726177616c206469646e277420696e6372656173652062616c616e604482015261636560f01b6064820152608490fd5b909a508581813d8311612d7c575b612d68818361217c565b81010312612d7857519938612ad1565b8480fd5b503d612d5e565b9098508581813d8311612dab575b612d9b818361217c565b81010312612d7857519738612aab565b503d612d91565b9099508581813d8311612dde575b612dca818361217c565b81010312612dda57519885612a6c565b8880fd5b503d612dc0565b88513d8b823e3d90fd5b815162461bcd60e51b815260048101869052601a60248201527f43616e6e6f7420756e7374616b65207a65726f20616d6f756e740000000000006044820152606490fd5b815162461bcd60e51b815260048101869052602660248201527f43616e6e6f7420756e7374616b65206d6f7265207468616e207374616b656420604482015265185b5bdd5b9d60d21b6064820152608490fd5b600090815260056020526040812060028101549093928115612ef057670de0b6b3a76400009283820291808304851490151715612edc575093612ece612ed892600d9661230a565b94859101546122e1565b0490565b634e487b7160e01b81526011600452602490fd5b5050809250919056fea26469706673582212203ea5e433c08d2f3e4cc6d5e055bac316b39eea6e1a0044ff18d4b3f7fd4911af64736f6c63430008140033",
  "linkReferences": {},
  "deployedLinkReferences": {}
}