{
  "_format": "hh-sol-artifact-1",
  "contractName": "LendingPool",
  "sourceName": "contracts/Lending.sol",
  "abi": [
    {
      "inputs": [
        {
          "internalType": "address",
          "name": "usdc",
          "type": "address"
        },
        {
          "internalType": "address",
          "name": "_cbBtcToken",
          "type": "address"
        },
        {
          "internalType": "address",
          "name": "oracleAddress",
          "type": "address"
        },
        {
          "internalType": "address",
          "name": "_aavePool",
          "type": "address"
        },
        {
          "internalType": "address",
          "name": "_swapRouter",
          "type": "address"
        }
      ],
      "stateMutability": "nonpayable",
      "type": "constructor"
    },
    {
      "anonymous": false,
      "inputs": [
        {
          "indexed": false,
          "internalType": "bytes32",
          "name": "loanId",
          "type": "bytes32"
        },
        {
          "indexed": false,
          "internalType": "uint256",
          "name": "requested",
          "type": "uint256"
        },
        {
          "indexed": false,
          "internalType": "uint256",
          "name": "actualWithdrawn",
          "type": "uint256"
        },
        {
          "indexed": false,
          "internalType": "uint256",
          "name": "preBalance",
          "type": "uint256"
        },
        {
          "indexed": false,
          "internalType": "uint256",
          "name": "postBalance",
          "type": "uint256"
        }
      ],
      "name": "DebugUnstake",
      "type": "event"
    },
    {
      "anonymous": false,
      "inputs": [
        {
          "indexed": false,
          "internalType": "bytes32",
          "name": "loanId",
          "type": "bytes32"
        },
        {
          "indexed": false,
          "internalType": "uint256",
          "name": "principalRepaid",
          "type": "uint256"
        },
        {
          "indexed": false,
          "internalType": "uint256",
          "name": "proportionRepaid",
          "type": "uint256"
        },
        {
          "indexed": false,
          "internalType": "uint256",
          "name": "cbBtcToUnstake",
          "type": "uint256"
        }
      ],
      "name": "DebugUnstakeProportion",
      "type": "event"
    },
    {
      "anonymous": false,
      "inputs": [
        {
          "indexed": false,
          "internalType": "bytes32",
          "name": "loanId",
          "type": "bytes32"
        },
        {
          "indexed": false,
          "internalType": "uint256",
          "name": "index",
          "type": "uint256"
        }
      ],
      "name": "InstallmentPaid",
      "type": "event"
    },
    {
      "anonymous": false,
      "inputs": [
        {
          "indexed": false,
          "internalType": "bytes32",
          "name": "id",
          "type": "bytes32"
        },
        {
          "indexed": false,
          "internalType": "uint256",
          "name": "amount",
          "type": "uint256"
        },
        {
          "indexed": false,
          "internalType": "uint256",
          "name": "collateral",
          "type": "uint256"
        },
        {
          "indexed": false,
          "internalType": "address",
          "name": "borrower",
          "type": "address"
        }
      ],
      "name": "LoanCreated",
      "type": "event"
    },
    {
      "anonymous": false,
      "inputs": [
        {
          "indexed": false,
          "internalType": "bytes32",
          "name": "id",
          "type": "bytes32"
        },
        {
          "indexed": false,
          "internalType": "address",
          "name": "borrower",
          "type": "address"
        },
        {
          "indexed": false,
          "internalType": "uint256",
          "name": "btcPriceNow",
          "type": "uint256"
        }
      ],
      "name": "LoanLiquidated",
      "type": "event"
    },
    {
      "anonymous": false,
      "inputs": [
        {
          "indexed": false,
          "internalType": "bytes32",
          "name": "loanId",
          "type": "bytes32"
        },
        {
          "indexed": false,
          "internalType": "address",
          "name": "borrower",
          "type": "address"
        },
        {
          "indexed": false,
          "internalType": "uint256",
          "name": "amount",
          "type": "uint256"
        },
        {
          "indexed": false,
          "internalType": "bool",
          "name": "fullyRepaid",
          "type": "bool"
        }
      ],
      "name": "Payout",
      "type": "event"
    },
    {
      "anonymous": false,
      "inputs": [
        {
          "indexed": false,
          "internalType": "bytes32",
          "name": "loanId",
          "type": "bytes32"
        },
        {
          "indexed": false,
          "internalType": "uint256",
          "name": "usdcAmount",
          "type": "uint256"
        },
        {
          "indexed": false,
          "internalType": "uint256",
          "name": "cbBtcAmount",
          "type": "uint256"
        }
      ],
      "name": "TokensStaked",
      "type": "event"
    },
    {
      "anonymous": false,
      "inputs": [
        {
          "indexed": false,
          "internalType": "bytes32",
          "name": "loanId",
          "type": "bytes32"
        },
        {
          "indexed": false,
          "internalType": "uint256",
          "name": "cbBtcAmount",
          "type": "uint256"
        },
        {
          "indexed": false,
          "internalType": "uint256",
          "name": "usdcAmount",
          "type": "uint256"
        },
        {
          "indexed": false,
          "internalType": "uint256",
          "name": "borrowerCbBtcShare",
          "type": "uint256"
        }
      ],
      "name": "TokensUnstaked",
      "type": "event"
    },
    {
      "inputs": [],
      "name": "aavePool",
      "outputs": [
        {
          "internalType": "contract IAavePool",
          "name": "",
          "type": "address"
        }
      ],
      "stateMutability": "view",
      "type": "function"
    },
    {
      "inputs": [],
      "name": "cbBtcToken",
      "outputs": [
        {
          "internalType": "address",
          "name": "",
          "type": "address"
        }
      ],
      "stateMutability": "view",
      "type": "function"
    },
    {
      "inputs": [],
      "name": "chainlinkOracle",
      "outputs": [
        {
          "internalType": "contract AggregatorV3Interface",
          "name": "",
          "type": "address"
        }
      ],
      "stateMutability": "view",
      "type": "function"
    },
    {
      "inputs": [
        {
          "internalType": "uint256",
          "name": "totalAmount",
          "type": "uint256"
        }
      ],
      "name": "computeLoanParts",
      "outputs": [
        {
          "internalType": "uint256",
          "name": "borrowerDeposit",
          "type": "uint256"
        },
        {
          "internalType": "uint256",
          "name": "lenderPrincipal",
          "type": "uint256"
        }
      ],
      "stateMutability": "pure",
      "type": "function"
    },
    {
      "inputs": [
        {
          "internalType": "bytes32",
          "name": "loanId",
          "type": "bytes32"
        },
        {
          "internalType": "uint256",
          "name": "principalRepaid",
          "type": "uint256"
        }
      ],
      "name": "debugUnstakeCalc",
      "outputs": [
        {
          "internalType": "uint256",
          "name": "proportionRepaid",
          "type": "uint256"
        },
        {
          "internalType": "uint256",
          "name": "cbBtcToUnstake",
          "type": "uint256"
        }
      ],
      "stateMutability": "view",
      "type": "function"
    },
    {
      "inputs": [
        {
          "internalType": "bytes32",
          "name": "loanId",
          "type": "bytes32"
        }
      ],
      "name": "getAmortizationSchedule",
      "outputs": [
        {
          "internalType": "uint256[]",
          "name": "principals",
          "type": "uint256[]"
        },
        {
          "internalType": "uint256[]",
          "name": "interests",
          "type": "uint256[]"
        },
        {
          "internalType": "bool[]",
          "name": "paidStatuses",
          "type": "bool[]"
        }
      ],
      "stateMutability": "view",
      "type": "function"
    },
    {
      "inputs": [
        {
          "internalType": "bytes32",
          "name": "loanId",
          "type": "bytes32"
        }
      ],
      "name": "getContributions",
      "outputs": [
        {
          "internalType": "address[]",
          "name": "lenders",
          "type": "address[]"
        },
        {
          "internalType": "uint256[]",
          "name": "amounts",
          "type": "uint256[]"
        },
        {
          "internalType": "uint256[]",
          "name": "receivableInterests",
          "type": "uint256[]"
        },
        {
          "internalType": "uint256[]",
          "name": "repaidPrincipals",
          "type": "uint256[]"
        },
        {
          "internalType": "uint256[]",
          "name": "repaidInterests",
          "type": "uint256[]"
        }
      ],
      "stateMutability": "view",
      "type": "function"
    },
    {
      "inputs": [
        {
          "internalType": "bytes32",
          "name": "loanId",
          "type": "bytes32"
        }
      ],
      "name": "getInstallmentSchedule",
      "outputs": [
        {
          "components": [
            {
              "internalType": "uint256",
              "name": "duePrincipal",
              "type": "uint256"
            },
            {
              "internalType": "uint256",
              "name": "dueInterest",
              "type": "uint256"
            },
            {
              "internalType": "bool",
              "name": "paid",
              "type": "bool"
            },
            {
              "internalType": "uint256",
              "name": "dueTimestamp",
              "type": "uint256"
            }
          ],
          "internalType": "struct LendingPool.Installment[]",
          "name": "",
          "type": "tuple[]"
        }
      ],
      "stateMutability": "view",
      "type": "function"
    },
    {
      "inputs": [],
      "name": "getPrice",
      "outputs": [
        {
          "internalType": "int256",
          "name": "",
          "type": "int256"
        }
      ],
      "stateMutability": "view",
      "type": "function"
    },
    {
      "inputs": [
        {
          "internalType": "bytes32",
          "name": "loanId",
          "type": "bytes32"
        }
      ],
      "name": "getStakedAmount",
      "outputs": [
        {
          "internalType": "uint256",
          "name": "",
          "type": "uint256"
        }
      ],
      "stateMutability": "view",
      "type": "function"
    },
    {
      "inputs": [
        {
          "internalType": "address",
          "name": "",
          "type": "address"
        }
      ],
      "name": "hasActiveLoan",
      "outputs": [
        {
          "internalType": "bool",
          "name": "",
          "type": "bool"
        }
      ],
      "stateMutability": "view",
      "type": "function"
    },
    {
      "inputs": [
        {
          "internalType": "address",
          "name": "",
          "type": "address"
        }
      ],
      "name": "lenders",
      "outputs": [
        {
          "internalType": "uint256",
          "name": "totalContributed",
          "type": "uint256"
        }
      ],
      "stateMutability": "view",
      "type": "function"
    },
    {
      "inputs": [
        {
          "internalType": "bytes32",
          "name": "loanId",
          "type": "bytes32"
        }
      ],
      "name": "liquidate",
      "outputs": [],
      "stateMutability": "nonpayable",
      "type": "function"
    },
    {
      "inputs": [
        {
          "internalType": "bytes32",
          "name": "loanId",
          "type": "bytes32"
        }
      ],
      "name": "liquidateIfOverdue",
      "outputs": [],
      "stateMutability": "nonpayable",
      "type": "function"
    },
    {
      "inputs": [
        {
          "internalType": "uint256",
          "name": "totalAmount",
          "type": "uint256"
        },
        {
          "internalType": "uint256",
          "name": "durationMonths",
          "type": "uint256"
        },
        {
          "internalType": "uint256",
          "name": "annualInterestRate",
          "type": "uint256"
        },
        {
          "internalType": "address[]",
          "name": "lenderAddresses",
          "type": "address[]"
        },
        {
          "internalType": "uint256[]",
          "name": "lenderAmounts",
          "type": "uint256[]"
        }
      ],
      "name": "loan",
      "outputs": [],
      "stateMutability": "nonpayable",
      "type": "function"
    },
    {
      "inputs": [
        {
          "internalType": "uint256",
          "name": "",
          "type": "uint256"
        }
      ],
      "name": "loanIds",
      "outputs": [
        {
          "internalType": "bytes32",
          "name": "",
          "type": "bytes32"
        }
      ],
      "stateMutability": "view",
      "type": "function"
    },
    {
      "inputs": [
        {
          "internalType": "bytes32",
          "name": "",
          "type": "bytes32"
        }
      ],
      "name": "loans",
      "outputs": [
        {
          "internalType": "bytes32",
          "name": "id",
          "type": "bytes32"
        },
        {
          "internalType": "address",
          "name": "borrower",
          "type": "address"
        },
        {
          "internalType": "uint256",
          "name": "principal",
          "type": "uint256"
        },
        {
          "internalType": "uint256",
          "name": "borrowerDeposit",
          "type": "uint256"
        },
        {
          "internalType": "uint256",
          "name": "interestRate",
          "type": "uint256"
        },
        {
          "internalType": "uint256",
          "name": "duration",
          "type": "uint256"
        },
        {
          "internalType": "uint256",
          "name": "monthlyPayment",
          "type": "uint256"
        },
        {
          "internalType": "uint256",
          "name": "startTime",
          "type": "uint256"
        },
        {
          "internalType": "uint256",
          "name": "btcPriceAtCreation",
          "type": "uint256"
        },
        {
          "internalType": "bool",
          "name": "isActive",
          "type": "bool"
        },
        {
          "internalType": "uint256",
          "name": "totalAmount",
          "type": "uint256"
        },
        {
          "internalType": "uint256",
          "name": "stakedAmount",
          "type": "uint256"
        },
        {
          "internalType": "uint256",
          "name": "remainingPrincipal",
          "type": "uint256"
        },
        {
          "internalType": "bool",
          "name": "insuranceTaken",
          "type": "bool"
        }
      ],
      "stateMutability": "view",
      "type": "function"
    },
    {
      "inputs": [
        {
          "internalType": "bytes32",
          "name": "loanId",
          "type": "bytes32"
        },
        {
          "internalType": "uint256",
          "name": "index",
          "type": "uint256"
        }
      ],
      "name": "markInstallmentPaid",
      "outputs": [],
      "stateMutability": "nonpayable",
      "type": "function"
    },
    {
      "inputs": [],
      "name": "owner",
      "outputs": [
        {
          "internalType": "address",
          "name": "",
          "type": "address"
        }
      ],
      "stateMutability": "view",
      "type": "function"
    },
    {
      "inputs": [
        {
          "internalType": "bytes32",
          "name": "loanId",
          "type": "bytes32"
        },
        {
          "internalType": "uint256",
          "name": "usdcAmount",
          "type": "uint256"
        }
      ],
      "name": "payouts",
      "outputs": [],
      "stateMutability": "nonpayable",
      "type": "function"
    },
    {
      "inputs": [
        {
          "internalType": "address",
          "name": "_aavePool",
          "type": "address"
        }
      ],
      "name": "setAavePool",
      "outputs": [],
      "stateMutability": "nonpayable",
      "type": "function"
    },
    {
      "inputs": [
        {
          "internalType": "address",
          "name": "_cbBtcToken",
          "type": "address"
        }
      ],
      "name": "setCbBtcToken",
      "outputs": [],
      "stateMutability": "nonpayable",
      "type": "function"
    },
    {
      "inputs": [
        {
          "internalType": "address",
          "name": "oracleAddress",
          "type": "address"
        }
      ],
      "name": "setChainlinkOracle",
      "outputs": [],
      "stateMutability": "nonpayable",
      "type": "function"
    },
    {
      "inputs": [
        {
          "internalType": "bytes32",
          "name": "loanId",
          "type": "bytes32"
        },
        {
          "internalType": "bool",
          "name": "status",
          "type": "bool"
        }
      ],
      "name": "setInsuranceTaken",
      "outputs": [],
      "stateMutability": "nonpayable",
      "type": "function"
    },
    {
      "inputs": [
        {
          "internalType": "address",
          "name": "_swapRouter",
          "type": "address"
        }
      ],
      "name": "setSwapRouter",
      "outputs": [],
      "stateMutability": "nonpayable",
      "type": "function"
    },
    {
      "inputs": [],
      "name": "swapRouter",
      "outputs": [
        {
          "internalType": "contract ISwapRouter",
          "name": "",
          "type": "address"
        }
      ],
      "stateMutability": "view",
      "type": "function"
    },
    {
      "inputs": [],
      "name": "usdcToken",
      "outputs": [
        {
          "internalType": "address",
          "name": "",
          "type": "address"
        }
      ],
      "stateMutability": "view",
      "type": "function"
    }
  ],
  "bytecode": "0x608034620000ec57601f6200305a38819003918201601f19168301916001600160401b03831184841017620000f15780849260a094604052833981010312620000ec576200004d8162000107565b906200005c6020820162000107565b906200006b6040820162000107565b91620000886080620000806060850162000107565b930162000107565b9160018060a01b0319943386600854161760085560018060a01b03948580948180941689600954161760095516876002541617600255168560035416176003551683600054161760005516906001541617600155604051612f3d90816200011d8239f35b600080fd5b634e487b7160e01b600052604160045260246000fd5b51906001600160a01b0382168203620000ec5756fe6080604052600436101561001257600080fd5b6000803560e01c80630a71096e14611daf5780630e46238614611d8657806311eac85514611d5d5780631fc8f4df14611c2c57806321d4f8db14611bea57806328830d471461190457806328fd10d7146118c7578063337a17371461189a578063349f937c1461185157806341273657146118045780635206d2d0146117ea5780636221fa301461179157806366fb6e5a14610b625780636c1945ae14610a615780637a9b041214610a1457806380f2122c1461064257806383cd8fcf146105f157806386a2e274146104bf5780638da5cb5b1461049657806398d5fdca14610473578063a03e4bc31461044c578063a990201c146103dc578063c31c9c07146103b3578063c4a90815146102e3578063c9642d2a146101aa578063ef06e72c146101815763f8715a421461014657600080fd5b3461017e57602036600319011261017e576004359060075482101561017e57602061017083612103565b90546040519160031b1c8152f35b80fd5b503461017e578060031936011261017e576003546040516001600160a01b039091168152602090f35b503461017e576101b93661207a565b906101cf60018060a01b03600854163314612517565b8083526005602052600c604084206101ed60ff60098301541661256d565b0190815483101561029e5760ff600261020685856124fb565b500154166102595782600261023e7f3d05ac2057427ac2f84502e7efefebf5ae10d9529129c2979ce60fb97d460614956040956124fb565b5001805460ff1916600117905582519182526020820152a180f35b60405162461bcd60e51b815260206004820152601f60248201527f496e7374616c6c6d656e7420616c7265616479206d61726b65642070616964006044820152606490fd5b60405162461bcd60e51b815260206004820152601960248201527f496e76616c696420696e7374616c6c6d656e7420696e646578000000000000006044820152606490fd5b503461017e57602036600319011261017e5760406101c091600435815260056020522080549060018060a01b03600182015416906002810154600382015460048301546005840154600685015460078601549060088701549260ff60098901541694600a89015496600d8a01549860ff600f600e8d01549c0154169b60206040519e8f908152015260408d015260608c015260808b015260a08a015260c089015260e0880152610100870152151561012086015261014085015261016084015261018083015215156101a0820152f35b503461017e578060031936011261017e576001546040516001600160a01b039091168152602090f35b503461017e57604036600319011261017e576024358015158103610448576104459061041360018060a01b03600854163314612517565b60043583526005602052600f6040842061043360ff60098301541661256d565b019060ff801983541691151516179055565b80f35b5080fd5b503461017e578060031936011261017e57546040516001600160a01b039091168152602090f35b503461017e578060031936011261017e57602061048e61220c565b604051908152f35b503461017e578060031936011261017e576008546040516001600160a01b039091168152602090f35b503461017e57602036600319011261017e5760043581526005602052600b6040822001908154906104ef826122a0565b916104f9816122a0565b610502826122a0565b9061050c836122a0565b92610516816122a0565b945b818110610583576105478761057f88610571896105638a6105558b604051998a9960a08b5260a08b01906120c6565b9089820360208b0152612046565b908782036040890152612046565b908582036060870152612046565b908382036080850152612046565b0390f35b8060046105936105ec938b612438565b5080546001600160a01b03166105a9848c6122ef565b5260018101546105b984886122ef565b5260028101546105c984896122ef565b5260038101546105d9848a6122ef565b5201546105e682896122ef565b52612419565b610518565b503461017e57602036600319011261017e576004356001600160a01b038181169182900361063e5761062890600854163314612517565b6001600160601b0360a01b600254161760025580f35b8280fd5b503461017e576106513661207a565b908083526005602052604083209061066f60ff60098401541661256d565b60018201546001600160a01b031633036109cf576009546040516323b872dd60e01b815233600482015230602482015260448101859052906020908290606490829089906001600160a01b03165af180156109c4576109a5575b50829084855b600c85015481108061099c575b15610947576106ee81600c87016124fb565b50805480156109025760ff6002830154166108f757600182015490610713828261234c565b8088101561072e575b5050505061072990612419565b6106cf565b90610743610749928298959b949a979961240c565b9761234c565b906002850154968a5b600b8701548110156108a05761076b81600b8901612438565b50600181015480670de0b6b3a7640000810204670de0b6b3a7640000148115171561088c578d61083393928d610803670de0b6b3a76400008f8f826107c16107ba6107c8948360209c0261232c565b8093612303565b0494612303565b04600384016107d884825461234c565b9055600484016107e982825461234c565b905560095493546001600160a01b0394851694169261234c565b60405163a9059cbb60e01b81526001600160a01b0390921660048301526024820152948592839182906044820190565b03925af19182156108815761084d92610852575b50612419565b610752565b6108739060203d60201161087a575b61086b818361219e565b810190612270565b5038610847565b503d610861565b6040513d8f823e3d90fd5b634e487b7160e01b8e52601160045260248efd5b5096509790939650610729929194506002600160ff198284015416179101557f3d05ac2057427ac2f84502e7efefebf5ae10d9529129c2979ce60fb97d46061460408051868152836020820152a19038808061071c565b505061072990612419565b60405162461bcd60e51b815260206004820152601860248201527f496e7374616c6c6d656e7420616c7265616479207061696400000000000000006044820152606490fd5b867fdc376abd09229a842ac7d8bcadc9017651f1f1b8490750870cae0ecd4aedf67460808587610981818c61097c8a866125ae565b61240c565b6040519283523360208401526040830152156060820152a180f35b508315156106dc565b6109bd9060203d60201161087a5761086b818361219e565b50386106c9565b6040513d87823e3d90fd5b60405162461bcd60e51b815260206004820152601760248201527f4f6e6c7920626f72726f7765722063616e2072657061790000000000000000006044820152606490fd5b503461017e57602036600319011261017e576004356001600160a01b038181169182900361063e57610a4b90600854163314612517565b6001600160601b0360a01b600354161760035580f35b503461017e576020908160031936011261017e5790600435825260058152600c60408320018054610a9181612288565b90610a9f604051928361219e565b8082528382018093865284862086915b838310610b1357505050506040519280840191818552518092526040840192945b828110610add5784840385f35b85518051855280830151858401526040808201511515908601526060908101519085015294810194608090930192600101610ad0565b60048760019260409a9997989a51610b2a81612150565b85548152848601548382015260ff60028701541615156040820152600386015460608201528152019201920191909694939596610aaf565b503461017e5760a036600319011261017e5760643567ffffffffffffffff811161044857610b94903690600401612095565b60843567ffffffffffffffff811161178d57610bb4903690600401612095565b929060043515611757576024351561171f578383036116c557821561168a576014600435029160043583046014036111bc57610bf56064840460043561240c565b6009546040516323b872dd60e01b8152336004820152306024820152606480870460448301529296929091602091839182908c906001600160a01b03165af1801561167f57611660575b5060405160208101903360601b825242603482015260348152610c6181612182565b5190209586885260056020526064604089209588875560018701336001600160601b0360a01b825416179055600435600a88015587600288015504600386015560443560048601556024356005860155426007860155610cbf61220c565b600886015560098501600160ff1982541617905585600e860155600f850160ff1981541690558791885b81811061142e57505050505050670de0b6b3a764000060443502906044358204670de0b6b3a76400001460443515171561141a57610d2b6104b0830484612303565b6104b08304670de0b6b3a764000001670de0b6b3a7640000116111bc576104b08304670de0b6b3a7640000011561140657610d806024356104b08504670de0b6b3a764000001670de0b6b3a764000004612454565b670de0b6b3a76400000390670de0b6b3a764000082116111a857600691610da69161232c565b91015582845260056020526040842091670de0b6b3a764000081865b60243581106113dc575081610ddf610de4926104b0870490612303565b612303565b9080670de0b6b3a763ffff198101116111a857670de0b6b3a764000091610e1691670de0b6b3a763ffff19019061232c565b0480600685015585915b602435831061126c578686600754600160401b81101561125857806001610e4a9201600755612103565b815460001960039290921b91821b19169083901b179055338252600660209081526040808420805460ff1916600190811790915583855260058352818520600a8101546009549254935163095ea7b360e01b81526001600160a01b039485166004820152602481018290529194909391929091839160449183918a91165af180156109c457611239575b50604051610ee181612182565b6002815260403660208301376009546001600160a01b0316610f02826122d2565b526002546001600160a01b0316610f18826122df565b52600354604051633fabe5a360e21b81529060a090829060049082906001600160a01b03165afa908115611151578691611205575b50858113156111d0576305f5e1008084029084820414841517156111a85790610f759161232c565b806062810204606214811517156111bc576001546001600160a01b0316914261012c8101106111a85791610fd39391878094604051968795869485936338ed173960e01b855261012c420192606460623094020490600487016123d3565b03925af1801561119d57610fee91859161117b575b506122df565b518284526005602090815260408086206002548754925163095ea7b360e01b81526001600160a01b0393841660048201526024810186905291939192839160449183918b91165af180156111515761115c575b50845460025486916001600160a01b039182169116803b1561063e5760848392604051948593849263617ba03760e01b845260048401528860248401523060448401528160648401525af1801561115157611120575b506080927faeec09af87559b9077da2e499d1fad2e228d7c24cb4b566fe61976820abaadda6060846002857f65410888fb30edd04f6acfb2f6cfd92aaf0ebb9b5303b6286d65d0b031b5b7f79997600d60039801550154906040519187835260208301526040820152a1015460405191825260043560208301526040820152336060820152a180f35b67ffffffffffffffff819692961161113d57604052936080611097565b634e487b7160e01b82526041600452602482fd5b6040513d88823e3d90fd5b6111749060203d60201161087a5761086b818361219e565b5085611041565b61119791503d8087833e61118f818361219e565b810190612359565b85610fe8565b6040513d86823e3d90fd5b634e487b7160e01b87526011600452602487fd5b634e487b7160e01b86526011600452602486fd5b60405162461bcd60e51b815260206004820152600d60248201526c496e76616c696420707269636560981b6044820152606490fd5b611227915060a03d60a011611232575b61121f818361219e565b8101906121d7565b505050905086610f4d565b503d611215565b6112519060203d60201161087a5761086b818361219e565b5084610ed4565b634e487b7160e01b83526041600452602483fd5b670de0b6b3a76400006112836104b0860483612303565b0490818311156113d657611297828461240c565b916024356000198101116113c2576024356000190185146113ad575b62278d008581810204811486151715611399576112d29086024261234c565b604051916112df83612150565b84835260208301528960408301526060820152600c870154600160401b811015611385578060016113199201600c8a0155600c89016124fb565b919091611371579161136b93916003606085611365965184556020810151600185015561135b60408201511515600286019060ff801983541691151516179055565b015191015561240c565b92612419565b91610e20565b634e487b7160e01b8a5260048a905260248afd5b634e487b7160e01b8a52604160045260248afd5b634e487b7160e01b8a52601160045260248afd5b92509050806113bc838261234c565b926112b3565b634e487b7160e01b89526011600452602489fd5b87611297565b91670de0b6b3a76400006113fa611401926104b08804830190612303565b0492612419565b610dc2565b634e487b7160e01b86526012600452602486fd5b634e487b7160e01b85526011600452602485fd5b611439818387612428565b356001600160a01b038116810361165c57611455828589612428565b3594851561161f5760018060a01b03600954169060208d604051938480926323b872dd60e01b8252816114aa8d308b6004850160409194939294606082019560018060a01b0380921683521660208201520152565b03925af1908115610881576114c6928892611600575b5061234c565b9460018060a01b0382168c52600460205260408c206114e682825461234c565b90556104b06114fd602435610ddf60443585612303565b0490604051928360a081011067ffffffffffffffff60a0860111176115ec5760a0840160405260018060a01b03168352602083015260408201528a60608201528a6080820152600b880154600160401b8110156115d85780600161156a9201600b8b0155600b8a01612438565b9190916115c457805182546001600160a01b0319166001600160a01b0391909116178255602081015160018301556040810151600283015560608101516003830155608001516004909101556115bf90612419565b610ce9565b634e487b7160e01b8c5260048c905260248cfd5b634e487b7160e01b8c52604160045260248cfd5b634e487b7160e01b8e52604160045260248efd5b6116189060203d60201161087a5761086b818361219e565b50386114c0565b60405162461bcd60e51b8152602060048201526015602482015274125b9d985b1a59081b195b99195c88185b5bdd5b9d605a1b6044820152606490fd5b8a80fd5b6116789060203d60201161087a5761086b818361219e565b5038610c3f565b6040513d8a823e3d90fd5b60405162461bcd60e51b8152602060048201526013602482015272139bc81b195b99195c9cc81c1c9bdd9a591959606a1b6044820152606490fd5b60405162461bcd60e51b815260206004820152602c60248201527f4c656e6465722061646472657373657320616e6420616d6f756e7473206c656e60448201526b0cee8d040dad2e6dac2e8c6d60a31b6064820152608490fd5b60405162461bcd60e51b815260206004820152601060248201526f24b73b30b634b210323ab930ba34b7b760811b6044820152606490fd5b60405162461bcd60e51b815260206004820152600e60248201526d125b9d985b1a5908185b5bdd5b9d60921b6044820152606490fd5b8380fd5b503461017e57602036600319011261017e576004356014810291818304601414821517156117d657506117ca606460409304809261240c565b82519182526020820152f35b634e487b7160e01b81526011600452602490fd5b503461017e5760406117ca6117fe3661207a565b90612ea8565b503461017e57602036600319011261017e576004356001600160a01b038181169182900361063e5761183b90600854163314612517565b6001600160601b0360a01b600154161760015580f35b503461017e57602036600319011261017e576004356001600160a01b038181169182900361063e5761188890600854163314612517565b81546001600160a01b03191617815580f35b503461017e57602036600319011261017e57600d6040602092600435815260058452200154604051908152f35b503461017e57602036600319011261017e576004356001600160a01b03811690819003610448578160409160209352600483522054604051908152f35b503461017e576020806003193601126104485760043560018060a01b0361193081600854163314612517565b8184526005835260408420926009908185019182549260ff61195381861661256d565b88908990600c8a018054925b838110611b9a57505050506276a7001015611b405760ff1980941690556001808701938585541689526006845260408920908154169055600d87015480611b30575b50600380880154600e8901549182611a15575b8a7fcab88a55906c5830a49dddd8b31d115294a5e6c4210f25fe140530a39c51dc748a8a8a541690611a0f6119e761220c565b604080519384526001600160a01b039094166020840152928201929092529081906060820190565b0390a180f35b9091928099600b8c9101915b611a2c575b506119b4565b8154811015611b2b57611a3f8183612438565b50611a518c820154858301549061240c565b8c8115611b1a5750670de0b6b3a7640000908181029081048203611b06578796959493928f9192611a8f611a89611acb9b8e9661232c565b89612303565b04918d808c541692541690604051809b8195829463a9059cbb60e01b84526004840160209093929193604081019460018060a01b031681520152565b03925af1908115610881578c96611ae692611af05750612419565b9091929394611a21565b610873908a3d8c1161087a5761086b818361219e565b634e487b7160e01b8f52601160045260248ffd5b96959493929050611ae69150612419565b611a26565b611b3a9087612a26565b386119a1565b60405162461bcd60e51b815260048101849052602c60248201527f4c6f616e206973206e6f74206f766572647565206265796f6e642033206d6f6e60448201526b1d1a1cc81a5b881d1bdd185b60a21b6064820152608490fd5b611ba481836124fb565b5083600282015416611bbc5760030154804211611bcb575b50611bc690612419565b61195f565b611bc69195611bdd611be3924261240c565b9061234c565b9490611bbc565b503461017e57602036600319011261017e576004356001600160a01b038116908190036104485760408260ff9260209452600684522054166040519015158152f35b503461017e576020806003193601126104485790600435815260058252600c6040822001805491611c5c836122a0565b92611c66816122a0565b611c6f82612288565b91611c7d604051938461219e565b808352611c8981612288565b8388019590601f1901368737845b828110611d05575050509480611ccb611cbe9760405198899860608a5260608a0190612046565b90888203848a0152612046565b92868403604088015251928381520193925b828110611cec57505050500390f35b8351151585528695509381019392810192600101611cdd565b8060ff6002611d1d611d5294869d9a999b9c9d6124fb565b508054611d2a858f6122ef565b526001810154611d3a858a6122ef565b52015416611d48828a6122ef565b9015159052612419565b979695939497611c97565b503461017e578060031936011261017e576009546040516001600160a01b039091168152602090f35b503461017e578060031936011261017e576002546040516001600160a01b039091168152602090f35b503461017e57602036600319011261017e57611dd660018060a01b03600854163314612517565b600435815260056020526040812060098101805491611df760ff841661256d565b611dff61220c565b91600d82016305f5e100611e14858354612303565b0491600e84019283546069810290808204606914901517156113c2576064900410611fe35760ff1995861690556001830180546001600160a01b0316875260066020526040872080549096169095555480611fd1575b50600382015490549182611ec9575b505091546040805160043581526001600160a01b0390921660208301528101919091527fcab88a55906c5830a49dddd8b31d115294a5e6c4210f25fe140530a39c51dc7491508060608101611a0f565b909192855b600b830154811015611fa457611ee781600b8501612438565b50611efb600182015460038301549061240c565b8015611f995780670de0b6b3a7640000810204670de0b6b3a7640000036113c257611f7b9291670de0b6b3a7640000611f3b611a898a836020960261232c565b600954925460405163a9059cbb60e01b81526001600160a01b039182166004820152929091046024830152909485929091169082908c9082906044820190565b03925af191821561167f57611f94926108525750612419565b611ece565b5050611f9490612419565b50925050507fcab88a55906c5830a49dddd8b31d115294a5e6c4210f25fe140530a39c51dc743880611e79565b611fdd90600435612a26565b38611e6a565b60405162461bcd60e51b815260206004820152603560248201527f4254432076616c756520686173206e6f742064726f707065642062656c6f77206044820152741b1a5c5d5a59185d1a5bdb881d1a1c995cda1bdb19605a1b6064820152608490fd5b90815180825260208080930193019160005b828110612066575050505090565b835185529381019392810192600101612058565b6040906003190112612090576004359060243590565b600080fd5b9181601f840112156120905782359167ffffffffffffffff8311612090576020808501948460051b01011161209057565b90815180825260208080930193019160005b8281106120e6575050505090565b83516001600160a01b0316855293810193928101926001016120d8565b60075481101561213a5760076000527fa66cc928b5edb82af9bd49922954155ab7b0942694bea4ce44661d9a8736c6880190600090565b634e487b7160e01b600052603260045260246000fd5b6080810190811067ffffffffffffffff82111761216c57604052565b634e487b7160e01b600052604160045260246000fd5b6060810190811067ffffffffffffffff82111761216c57604052565b90601f8019910116810190811067ffffffffffffffff82111761216c57604052565b519069ffffffffffffffffffff8216820361209057565b908160a0910312612090576121eb816121c0565b916020820151916040810151916122096080606084015193016121c0565b90565b600354604051633fabe5a360e21b81529060a090829060049082906001600160a01b03165afa90811561226457600091612244575090565b61225c915060a03d81116112325761121f818361219e565b505050905090565b6040513d6000823e3d90fd5b90816020910312612090575180151581036120905790565b67ffffffffffffffff811161216c5760051b60200190565b906122aa82612288565b6122b7604051918261219e565b82815280926122c8601f1991612288565b0190602036910137565b80511561213a5760200190565b80516001101561213a5760400190565b805182101561213a5760209160051b010190565b8181029291811591840414171561231657565b634e487b7160e01b600052601160045260246000fd5b8115612336570490565b634e487b7160e01b600052601260045260246000fd5b9190820180921161231657565b60209081818403126120905780519067ffffffffffffffff821161209057019180601f8401121561209057825161238f81612288565b9361239d604051958661219e565b818552838086019260051b820101928311612090578301905b8282106123c4575050505090565b815181529083019083016123b6565b91926080936123f892979695978452602084015260a0604084015260a08301906120c6565b6001600160a01b0390951660608201520152565b9190820391821161231657565b60001981146123165760010190565b919081101561213a5760051b0190565b805482101561213a576000526005602060002091020190600090565b9080156124f45781156124ed5781806001146124e5576002146124d45760208110610133831016604e8210600b841016176124cf57600190815b8082116124a657505081600019048111612316570290565b909280600019048111612316578184166124c6575b800292811c9061248e565b809202916124bb565b900a90565b905060ff8111612316576001901b90565b505050600190565b5050600090565b5050600190565b805482101561213a5760005260206000209060021b0190600090565b1561251e57565b60405162461bcd60e51b815260206004820152602160248201527f4f6e6c79206f776e65722063616e2063616c6c20746869732066756e6374696f6044820152603760f91b6064820152608490fd5b1561257457565b60405162461bcd60e51b81526020600482015260126024820152714c6f616e206973206e6f742061637469766560701b6044820152606490fd5b906000918083526020600581526040808520938015808015612a1a575b8015612a0e575b612611576305f5e1008083029283041417156111bc576125f9600d9160088701549061232c565b9401948554808611612a06575b50841591821561261a575b50505050505050565b8482526005845280822093600d850193845488116129b4576129725760018060a01b03928360025416938351956370a0823160e01b9788885260049230848a0152602492868a85818c5afa998a1561290a57869a612943575b50868d6064848954169b898c519d8e948593631a4ca37b60e21b85528c8501528a8401523060448401525af198891561290a578699612914575b508682600254169b858a51809e81938252308a8301525afa9a8b1561290a57869b6128d7575b50898b111561288a57881561284857612732928792826126f58c80955461240c565b90556001816002541692015416878a5180968195829463a9059cbb60e01b84528b840160209093929193604081019460018060a01b031681520152565b03925af190811561283e578491612821575b50156127df57505092828860a096937f38a556a122683cb48d496614a7a03605b6c2c0482342924caf483386980ecc9f60806127d19c9b987f971c7ec4a7c96c0a198687499279ccf05d9699970007b5ae5017b1177ee02ed39b9851908a8252858583015286820152866060820152a1825196875286015284015260608301526080820152a1825461240c565b905538808080808080612611565b845162461bcd60e51b8152918201849052601b908201527f5472616e7366657220746f20626f72726f776572206661696c656400000000006044820152606490fd5b6128389150853d871161087a5761086b818361219e565b38612744565b86513d86823e3d90fd5b875162461bcd60e51b8152808601889052601c818601527f556e7374616b652072657475726e6564207a65726f20746f6b656e73000000006044820152606490fd5b875162461bcd60e51b81528086018890526022818601527f5769746864726177616c206469646e277420696e6372656173652062616c616e604482015261636560f01b6064820152608490fd5b909a508681813d8311612903575b6128ef818361219e565b810103126128ff575199386126d3565b8580fd5b503d6128e5565b88513d88823e3d90fd5b9098508681813d831161293c575b61292c818361219e565b810103126128ff575197386126ad565b503d612922565b9099508681813d831161296b575b61295b818361219e565b810103126128ff57519838612673565b503d612951565b606491519062461bcd60e51b82526004820152601a60248201527f43616e6e6f7420756e7374616b65207a65726f20616d6f756e740000000000006044820152fd5b50608491519062461bcd60e51b82526004820152602660248201527f43616e6e6f7420756e7374616b65206d6f7265207468616e207374616b656420604482015265185b5bdd5b9d60d21b6064820152fd5b945038612606565b50600d860154156125d2565b506008860154156125cb565b90600090828252602091600583526040600d818320019283548111612e55578015612e115760025482516370a0823160e01b808252306004808401919091529097919691926001600160a01b03926024918416858a8481845afa998a15612e0757899a612dd4575b5090858594939260648b97885416918b519c8d938492631a4ca37b60e21b8452898401528c888401523060448401525af1988915612cd9578599612da5575b508584600254169b838a51809e8193825230888301525afa9a8b15612cd957859b612d72575b50898b1115612d25578815612ce357612b0d89825461240c565b9055600254600154885163095ea7b360e01b81529085166001600160a01b0316848201908152602081018b905290918791839187169082908990829060400103925af18015612cd957612cbc575b50865191612b6883612182565b600283528736878501378360025416612b80846122d2565b528360095416612b8f846122df565b52605f890293898504605f03612caa57600154169161012c420190814211612c99575090858a612bdc829695948c51988997889687956338ed173960e01b875260643094049187016123d3565b03925af1908115612c8f57608083612c467f971c7ec4a7c96c0a198687499279ccf05d9699970007b5ae5017b1177ee02ed39c9a9896947f38a556a122683cb48d496614a7a03605b6c2c0482342924caf483386980ecc9f9460a09d9b999791612c7557506122df565b51908651918b83528686840152878301526060820152a1825196875286015284015260608301526080820152a1565b612c8991503d8085833e61118f818361219e565b38610fe8565b85513d84823e3d90fd5b634e487b7160e01b87526011835286fd5b50634e487b7160e01b85526011905283fd5b612cd290863d881161087a5761086b818361219e565b5038612b5b565b88513d87823e3d90fd5b875162461bcd60e51b8152808401879052601c818401527f556e7374616b652072657475726e6564207a65726f20746f6b656e73000000006044820152606490fd5b875162461bcd60e51b81528084018790526022818401527f5769746864726177616c206469646e277420696e6372656173652062616c616e604482015261636560f01b6064820152608490fd5b909a508581813d8311612d9e575b612d8a818361219e565b81010312612d9a57519938612af3565b8480fd5b503d612d80565b9098508581813d8311612dcd575b612dbd818361219e565b81010312612d9a57519738612acd565b503d612db3565b9099508581813d8311612e00575b612dec818361219e565b81010312612dfc57519885612a8e565b8880fd5b503d612de2565b88513d8b823e3d90fd5b815162461bcd60e51b815260048101869052601a60248201527f43616e6e6f7420756e7374616b65207a65726f20616d6f756e740000000000006044820152606490fd5b815162461bcd60e51b815260048101869052602660248201527f43616e6e6f7420756e7374616b65206d6f7265207468616e207374616b656420604482015265185b5bdd5b9d60d21b6064820152608490fd5b600090815260056020526040812060028101549093928115612efe57670de0b6b3a764000092838202918083048514901517156117d6575093612ef0612efa92600d9661232c565b9485910154612303565b0490565b5050809250919056fea26469706673582212202beaf859ecf6cfc06136f92b6d76964c9d7f6cc053a8402161434f044f89fb1564736f6c63430008140033",
  "linkReferences": {},
  "deployedLinkReferences": {}
}