{
  "_format": "hh-sol-artifact-1",
  "contractName": "LendingPool",
  "sourceName": "Contracts/Lending.sol",
  "abi": [
    {
      "inputs": [
        {
          "internalType": "address",
          "name": "usdc",
          "type": "address"
        },
        {
          "internalType": "address",
          "name": "_cbBtcToken",
          "type": "address"
        },
        {
          "internalType": "address",
          "name": "oracleAddress",
          "type": "address"
        },
        {
          "internalType": "address",
          "name": "_aavePool",
          "type": "address"
        },
        {
          "internalType": "address",
          "name": "_swapRouter",
          "type": "address"
        }
      ],
      "stateMutability": "nonpayable",
      "type": "constructor"
    },
    {
      "anonymous": false,
      "inputs": [
        {
          "indexed": false,
          "internalType": "bytes32",
          "name": "loanId",
          "type": "bytes32"
        },
        {
          "indexed": false,
          "internalType": "uint256",
          "name": "requested",
          "type": "uint256"
        },
        {
          "indexed": false,
          "internalType": "uint256",
          "name": "actualWithdrawn",
          "type": "uint256"
        },
        {
          "indexed": false,
          "internalType": "uint256",
          "name": "preBalance",
          "type": "uint256"
        },
        {
          "indexed": false,
          "internalType": "uint256",
          "name": "postBalance",
          "type": "uint256"
        }
      ],
      "name": "DebugUnstake",
      "type": "event"
    },
    {
      "anonymous": false,
      "inputs": [
        {
          "indexed": false,
          "internalType": "bytes32",
          "name": "loanId",
          "type": "bytes32"
        },
        {
          "indexed": false,
          "internalType": "uint256",
          "name": "principalRepaid",
          "type": "uint256"
        },
        {
          "indexed": false,
          "internalType": "uint256",
          "name": "proportionRepaid",
          "type": "uint256"
        },
        {
          "indexed": false,
          "internalType": "uint256",
          "name": "cbBtcToUnstake",
          "type": "uint256"
        }
      ],
      "name": "DebugUnstakeProportion",
      "type": "event"
    },
    {
      "anonymous": false,
      "inputs": [
        {
          "indexed": false,
          "internalType": "bytes32",
          "name": "loanId",
          "type": "bytes32"
        },
        {
          "indexed": false,
          "internalType": "uint256",
          "name": "index",
          "type": "uint256"
        }
      ],
      "name": "InstallmentPaid",
      "type": "event"
    },
    {
      "anonymous": false,
      "inputs": [
        {
          "indexed": false,
          "internalType": "bytes32",
          "name": "id",
          "type": "bytes32"
        },
        {
          "indexed": false,
          "internalType": "uint256",
          "name": "amount",
          "type": "uint256"
        },
        {
          "indexed": false,
          "internalType": "uint256",
          "name": "collateral",
          "type": "uint256"
        },
        {
          "indexed": false,
          "internalType": "address",
          "name": "borrower",
          "type": "address"
        }
      ],
      "name": "LoanCreated",
      "type": "event"
    },
    {
      "anonymous": false,
      "inputs": [
        {
          "indexed": false,
          "internalType": "bytes32",
          "name": "id",
          "type": "bytes32"
        },
        {
          "indexed": false,
          "internalType": "address",
          "name": "borrower",
          "type": "address"
        },
        {
          "indexed": false,
          "internalType": "uint256",
          "name": "btcPriceNow",
          "type": "uint256"
        }
      ],
      "name": "LoanLiquidated",
      "type": "event"
    },
    {
      "anonymous": false,
      "inputs": [
        {
          "indexed": false,
          "internalType": "bytes32",
          "name": "loanId",
          "type": "bytes32"
        },
        {
          "indexed": false,
          "internalType": "address",
          "name": "borrower",
          "type": "address"
        },
        {
          "indexed": false,
          "internalType": "uint256",
          "name": "amount",
          "type": "uint256"
        },
        {
          "indexed": false,
          "internalType": "bool",
          "name": "fullyRepaid",
          "type": "bool"
        }
      ],
      "name": "Payout",
      "type": "event"
    },
    {
      "anonymous": false,
      "inputs": [
        {
          "indexed": false,
          "internalType": "bytes32",
          "name": "loanId",
          "type": "bytes32"
        },
        {
          "indexed": false,
          "internalType": "uint256",
          "name": "usdcAmount",
          "type": "uint256"
        },
        {
          "indexed": false,
          "internalType": "uint256",
          "name": "cbBtcAmount",
          "type": "uint256"
        }
      ],
      "name": "TokensStaked",
      "type": "event"
    },
    {
      "anonymous": false,
      "inputs": [
        {
          "indexed": false,
          "internalType": "bytes32",
          "name": "loanId",
          "type": "bytes32"
        },
        {
          "indexed": false,
          "internalType": "uint256",
          "name": "cbBtcAmount",
          "type": "uint256"
        },
        {
          "indexed": false,
          "internalType": "uint256",
          "name": "usdcAmount",
          "type": "uint256"
        },
        {
          "indexed": false,
          "internalType": "uint256",
          "name": "borrowerCbBtcShare",
          "type": "uint256"
        }
      ],
      "name": "TokensUnstaked",
      "type": "event"
    },
    {
      "inputs": [],
      "name": "aavePool",
      "outputs": [
        {
          "internalType": "contract IAavePool",
          "name": "",
          "type": "address"
        }
      ],
      "stateMutability": "view",
      "type": "function"
    },
    {
      "inputs": [],
      "name": "cbBtcToken",
      "outputs": [
        {
          "internalType": "address",
          "name": "",
          "type": "address"
        }
      ],
      "stateMutability": "view",
      "type": "function"
    },
    {
      "inputs": [],
      "name": "chainlinkOracle",
      "outputs": [
        {
          "internalType": "contract AggregatorV3Interface",
          "name": "",
          "type": "address"
        }
      ],
      "stateMutability": "view",
      "type": "function"
    },
    {
      "inputs": [
        {
          "internalType": "bytes32",
          "name": "loanId",
          "type": "bytes32"
        },
        {
          "internalType": "uint256",
          "name": "principalRepaid",
          "type": "uint256"
        }
      ],
      "name": "debugUnstakeCalc",
      "outputs": [
        {
          "internalType": "uint256",
          "name": "proportionRepaid",
          "type": "uint256"
        },
        {
          "internalType": "uint256",
          "name": "cbBtcToUnstake",
          "type": "uint256"
        }
      ],
      "stateMutability": "view",
      "type": "function"
    },
    {
      "inputs": [
        {
          "internalType": "bytes32",
          "name": "loanId",
          "type": "bytes32"
        }
      ],
      "name": "getAmortizationSchedule",
      "outputs": [
        {
          "internalType": "uint256[]",
          "name": "principals",
          "type": "uint256[]"
        },
        {
          "internalType": "uint256[]",
          "name": "interests",
          "type": "uint256[]"
        },
        {
          "internalType": "bool[]",
          "name": "paidStatuses",
          "type": "bool[]"
        }
      ],
      "stateMutability": "view",
      "type": "function"
    },
    {
      "inputs": [
        {
          "internalType": "bytes32",
          "name": "loanId",
          "type": "bytes32"
        }
      ],
      "name": "getContributions",
      "outputs": [
        {
          "internalType": "address[]",
          "name": "lenders",
          "type": "address[]"
        },
        {
          "internalType": "uint256[]",
          "name": "amounts",
          "type": "uint256[]"
        },
        {
          "internalType": "uint256[]",
          "name": "receivableInterests",
          "type": "uint256[]"
        },
        {
          "internalType": "uint256[]",
          "name": "repaidPrincipals",
          "type": "uint256[]"
        },
        {
          "internalType": "uint256[]",
          "name": "repaidInterests",
          "type": "uint256[]"
        }
      ],
      "stateMutability": "view",
      "type": "function"
    },
    {
      "inputs": [
        {
          "internalType": "bytes32",
          "name": "loanId",
          "type": "bytes32"
        }
      ],
      "name": "getInstallmentSchedule",
      "outputs": [
        {
          "components": [
            {
              "internalType": "uint256",
              "name": "duePrincipal",
              "type": "uint256"
            },
            {
              "internalType": "uint256",
              "name": "dueInterest",
              "type": "uint256"
            },
            {
              "internalType": "bool",
              "name": "paid",
              "type": "bool"
            },
            {
              "internalType": "uint256",
              "name": "dueTimestamp",
              "type": "uint256"
            }
          ],
          "internalType": "struct LendingPool.Installment[]",
          "name": "",
          "type": "tuple[]"
        }
      ],
      "stateMutability": "view",
      "type": "function"
    },
    {
      "inputs": [],
      "name": "getPrice",
      "outputs": [
        {
          "internalType": "int256",
          "name": "",
          "type": "int256"
        }
      ],
      "stateMutability": "view",
      "type": "function"
    },
    {
      "inputs": [
        {
          "internalType": "bytes32",
          "name": "loanId",
          "type": "bytes32"
        }
      ],
      "name": "getStakedAmount",
      "outputs": [
        {
          "internalType": "uint256",
          "name": "",
          "type": "uint256"
        }
      ],
      "stateMutability": "view",
      "type": "function"
    },
    {
      "inputs": [
        {
          "internalType": "address",
          "name": "",
          "type": "address"
        }
      ],
      "name": "hasActiveLoan",
      "outputs": [
        {
          "internalType": "bool",
          "name": "",
          "type": "bool"
        }
      ],
      "stateMutability": "view",
      "type": "function"
    },
    {
      "inputs": [
        {
          "internalType": "address",
          "name": "",
          "type": "address"
        }
      ],
      "name": "lenders",
      "outputs": [
        {
          "internalType": "uint256",
          "name": "totalContributed",
          "type": "uint256"
        }
      ],
      "stateMutability": "view",
      "type": "function"
    },
    {
      "inputs": [
        {
          "internalType": "bytes32",
          "name": "loanId",
          "type": "bytes32"
        }
      ],
      "name": "liquidate",
      "outputs": [],
      "stateMutability": "nonpayable",
      "type": "function"
    },
    {
      "inputs": [
        {
          "internalType": "bytes32",
          "name": "loanId",
          "type": "bytes32"
        }
      ],
      "name": "liquidateIfOverdue",
      "outputs": [],
      "stateMutability": "nonpayable",
      "type": "function"
    },
    {
      "inputs": [
        {
          "internalType": "uint256",
          "name": "totalAmount",
          "type": "uint256"
        },
        {
          "internalType": "uint256",
          "name": "durationMonths",
          "type": "uint256"
        },
        {
          "internalType": "uint256",
          "name": "annualInterestRate",
          "type": "uint256"
        },
        {
          "internalType": "address[]",
          "name": "lenderAddresses",
          "type": "address[]"
        },
        {
          "internalType": "uint256[]",
          "name": "lenderAmounts",
          "type": "uint256[]"
        }
      ],
      "name": "loan",
      "outputs": [],
      "stateMutability": "nonpayable",
      "type": "function"
    },
    {
      "inputs": [
        {
          "internalType": "uint256",
          "name": "",
          "type": "uint256"
        }
      ],
      "name": "loanIds",
      "outputs": [
        {
          "internalType": "bytes32",
          "name": "",
          "type": "bytes32"
        }
      ],
      "stateMutability": "view",
      "type": "function"
    },
    {
      "inputs": [
        {
          "internalType": "bytes32",
          "name": "",
          "type": "bytes32"
        }
      ],
      "name": "loans",
      "outputs": [
        {
          "internalType": "bytes32",
          "name": "id",
          "type": "bytes32"
        },
        {
          "internalType": "address",
          "name": "borrower",
          "type": "address"
        },
        {
          "internalType": "uint256",
          "name": "principal",
          "type": "uint256"
        },
        {
          "internalType": "uint256",
          "name": "borrowerDeposit",
          "type": "uint256"
        },
        {
          "internalType": "uint256",
          "name": "interestRate",
          "type": "uint256"
        },
        {
          "internalType": "uint256",
          "name": "duration",
          "type": "uint256"
        },
        {
          "internalType": "uint256",
          "name": "monthlyPayment",
          "type": "uint256"
        },
        {
          "internalType": "uint256",
          "name": "startTime",
          "type": "uint256"
        },
        {
          "internalType": "uint256",
          "name": "btcPriceAtCreation",
          "type": "uint256"
        },
        {
          "internalType": "bool",
          "name": "isActive",
          "type": "bool"
        },
        {
          "internalType": "uint256",
          "name": "totalAmount",
          "type": "uint256"
        },
        {
          "internalType": "uint256",
          "name": "stakedAmount",
          "type": "uint256"
        },
        {
          "internalType": "uint256",
          "name": "remainingPrincipal",
          "type": "uint256"
        },
        {
          "internalType": "bool",
          "name": "insuranceTaken",
          "type": "bool"
        }
      ],
      "stateMutability": "view",
      "type": "function"
    },
    {
      "inputs": [
        {
          "internalType": "bytes32",
          "name": "loanId",
          "type": "bytes32"
        },
        {
          "internalType": "uint256",
          "name": "index",
          "type": "uint256"
        }
      ],
      "name": "markInstallmentPaid",
      "outputs": [],
      "stateMutability": "nonpayable",
      "type": "function"
    },
    {
      "inputs": [],
      "name": "owner",
      "outputs": [
        {
          "internalType": "address",
          "name": "",
          "type": "address"
        }
      ],
      "stateMutability": "view",
      "type": "function"
    },
    {
      "inputs": [
        {
          "internalType": "bytes32",
          "name": "loanId",
          "type": "bytes32"
        },
        {
          "internalType": "uint256",
          "name": "usdcAmount",
          "type": "uint256"
        }
      ],
      "name": "payouts",
      "outputs": [],
      "stateMutability": "nonpayable",
      "type": "function"
    },
    {
      "inputs": [
        {
          "internalType": "address",
          "name": "_aavePool",
          "type": "address"
        }
      ],
      "name": "setAavePool",
      "outputs": [],
      "stateMutability": "nonpayable",
      "type": "function"
    },
    {
      "inputs": [
        {
          "internalType": "address",
          "name": "_cbBtcToken",
          "type": "address"
        }
      ],
      "name": "setCbBtcToken",
      "outputs": [],
      "stateMutability": "nonpayable",
      "type": "function"
    },
    {
      "inputs": [
        {
          "internalType": "address",
          "name": "oracleAddress",
          "type": "address"
        }
      ],
      "name": "setChainlinkOracle",
      "outputs": [],
      "stateMutability": "nonpayable",
      "type": "function"
    },
    {
      "inputs": [
        {
          "internalType": "bytes32",
          "name": "loanId",
          "type": "bytes32"
        },
        {
          "internalType": "bool",
          "name": "status",
          "type": "bool"
        }
      ],
      "name": "setInsuranceTaken",
      "outputs": [],
      "stateMutability": "nonpayable",
      "type": "function"
    },
    {
      "inputs": [
        {
          "internalType": "address",
          "name": "_swapRouter",
          "type": "address"
        }
      ],
      "name": "setSwapRouter",
      "outputs": [],
      "stateMutability": "nonpayable",
      "type": "function"
    },
    {
      "inputs": [],
      "name": "swapRouter",
      "outputs": [
        {
          "internalType": "contract ISwapRouter",
          "name": "",
          "type": "address"
        }
      ],
      "stateMutability": "view",
      "type": "function"
    },
    {
      "inputs": [],
      "name": "usdcToken",
      "outputs": [
        {
          "internalType": "address",
          "name": "",
          "type": "address"
        }
      ],
      "stateMutability": "view",
      "type": "function"
    }
  ],
  "bytecode": "0x608034620000ec57601f6200307b38819003918201601f19168301916001600160401b03831184841017620000f15780849260a094604052833981010312620000ec576200004d8162000107565b906200005c6020820162000107565b906200006b6040820162000107565b91620000886080620000806060850162000107565b930162000107565b9160018060a01b0319943386600854161760085560018060a01b03948580948180941689600954161760095516876002541617600255168560035416176003551683600054161760005516906001541617600155604051612f5e90816200011d8239f35b600080fd5b634e487b7160e01b600052604160045260246000fd5b51906001600160a01b0382168203620000ec5756fe6080604052600436101561001257600080fd5b6000803560e01c80630a71096e14611dbc5780630e46238614611d9357806311eac85514611d6a5780631fc8f4df14611c3957806321d4f8db14611bf757806328830d471461191157806328fd10d7146118d4578063337a1737146118a7578063349f937c1461185e57806341273657146118115780635206d2d0146117eb57806366fb6e5a14610b575780636c1945ae14610a565780637a9b041214610a0957806380f2122c1461063757806383cd8fcf146105e657806386a2e274146104b45780638da5cb5b1461048b57806398d5fdca14610468578063a03e4bc314610441578063a990201c146103d1578063c31c9c07146103a8578063c4a90815146102d8578063c9642d2a1461019f578063ef06e72c146101765763f8715a421461013b57600080fd5b34610173576020366003190112610173576004359060075482101561017357602061016583612110565b90546040519160031b1c8152f35b80fd5b50346101735780600319360112610173576003546040516001600160a01b039091168152602090f35b5034610173576101ae36612087565b906101c460018060a01b03600854163314612524565b8083526005602052600c604084206101e260ff60098301541661257a565b019081548310156102935760ff60026101fb8585612508565b5001541661024e578260026102337f3d05ac2057427ac2f84502e7efefebf5ae10d9529129c2979ce60fb97d46061495604095612508565b5001805460ff1916600117905582519182526020820152a180f35b60405162461bcd60e51b815260206004820152601f60248201527f496e7374616c6c6d656e7420616c7265616479206d61726b65642070616964006044820152606490fd5b60405162461bcd60e51b815260206004820152601960248201527f496e76616c696420696e7374616c6c6d656e7420696e646578000000000000006044820152606490fd5b50346101735760203660031901126101735760406101c091600435815260056020522080549060018060a01b03600182015416906002810154600382015460048301546005840154600685015460078601549060088701549260ff60098901541694600a89015496600d8a01549860ff600f600e8d01549c0154169b60206040519e8f908152015260408d015260608c015260808b015260a08a015260c089015260e0880152610100870152151561012086015261014085015261016084015261018083015215156101a0820152f35b50346101735780600319360112610173576001546040516001600160a01b039091168152602090f35b503461017357604036600319011261017357602435801515810361043d5761043a9061040860018060a01b03600854163314612524565b60043583526005602052600f6040842061042860ff60098301541661257a565b019060ff801983541691151516179055565b80f35b5080fd5b5034610173578060031936011261017357546040516001600160a01b039091168152602090f35b50346101735780600319360112610173576020610483612219565b604051908152f35b50346101735780600319360112610173576008546040516001600160a01b039091168152602090f35b50346101735760203660031901126101735760043581526005602052600b6040822001908154906104e4826122ad565b916104ee816122ad565b6104f7826122ad565b90610501836122ad565b9261050b816122ad565b945b8181106105785761053c8761057488610566896105588a61054a8b604051998a9960a08b5260a08b01906120d3565b9089820360208b0152612053565b908782036040890152612053565b908582036060870152612053565b908382036080850152612053565b0390f35b8060046105886105e1938b612445565b5080546001600160a01b031661059e848c6122fc565b5260018101546105ae84886122fc565b5260028101546105be84896122fc565b5260038101546105ce848a6122fc565b5201546105db82896122fc565b52612426565b61050d565b5034610173576020366003190112610173576004356001600160a01b03818116918290036106335761061d90600854163314612524565b6001600160601b0360a01b600254161760025580f35b8280fd5b50346101735761064636612087565b908083526005602052604083209061066460ff60098401541661257a565b60018201546001600160a01b031633036109c4576009546040516323b872dd60e01b815233600482015230602482015260448101859052906020908290606490829089906001600160a01b03165af180156109b95761099a575b50829084855b600c850154811080610991575b1561093c576106e381600c8701612508565b50805480156108f75760ff6002830154166108ec576001820154906107088282612359565b80881015610723575b5050505061071e90612426565b6106c4565b9061073861073e928298959b949a9799612419565b97612359565b906002850154968a5b600b8701548110156108955761076081600b8901612445565b50600181015480670de0b6b3a7640000810204670de0b6b3a76400001481151715610881578d61082893928d6107f8670de0b6b3a76400008f8f826107b66107af6107bd948360209c02612339565b8093612310565b0494612310565b04600384016107cd848254612359565b9055600484016107de828254612359565b905560095493546001600160a01b03948516941692612359565b60405163a9059cbb60e01b81526001600160a01b0390921660048301526024820152948592839182906044820190565b03925af19182156108765761084292610847575b50612426565b610747565b6108689060203d60201161086f575b61086081836121ab565b81019061227d565b503861083c565b503d610856565b6040513d8f823e3d90fd5b634e487b7160e01b8e52601160045260248efd5b509650979093965061071e929194506002600160ff198284015416179101557f3d05ac2057427ac2f84502e7efefebf5ae10d9529129c2979ce60fb97d46061460408051868152836020820152a190388080610711565b505061071e90612426565b60405162461bcd60e51b815260206004820152601860248201527f496e7374616c6c6d656e7420616c7265616479207061696400000000000000006044820152606490fd5b867fdc376abd09229a842ac7d8bcadc9017651f1f1b8490750870cae0ecd4aedf67460808587610976818c6109718a866125bb565b612419565b6040519283523360208401526040830152156060820152a180f35b508315156106d1565b6109b29060203d60201161086f5761086081836121ab565b50386106be565b6040513d87823e3d90fd5b60405162461bcd60e51b815260206004820152601760248201527f4f6e6c7920626f72726f7765722063616e2072657061790000000000000000006044820152606490fd5b5034610173576020366003190112610173576004356001600160a01b038181169182900361063357610a4090600854163314612524565b6001600160601b0360a01b600354161760035580f35b503461017357602090816003193601126101735790600435825260058152600c60408320018054610a8681612295565b90610a9460405192836121ab565b8082528382018093865284862086915b838310610b0857505050506040519280840191818552518092526040840192945b828110610ad25784840385f35b85518051855280830151858401526040808201511515908601526060908101519085015294810194608090930192600101610ac5565b60048760019260409a9997989a51610b1f8161215d565b85548152848601548382015260ff60028701541615156040820152600386015460608201528152019201920191909694939596610aa4565b50346101735760a03660031901126101735760643567ffffffffffffffff811161043d57610b899036906004016120a2565b60843567ffffffffffffffff81116117e757610ba99036906004016120a2565b9290600435156117b1576024351561177957338552600660205260ff604086205416611728578383036116ce578215611693576014600435029160043583046014036111c557610bfe60648404600435612419565b6009546040516323b872dd60e01b8152336004820152306024820152606480870460448301529296929091602091839182908c906001600160a01b03165af1801561168857611669575b5060405160208101903360601b825242603482015260348152610c6a8161218f565b5190209586885260056020526064604089209588875560018701336001600160601b0360a01b825416179055600435600a88015587600288015504600386015560443560048601556024356005860155426007860155610cc8612219565b600886015560098501600160ff1982541617905585600e860155600f850160ff1981541690558791885b81811061143757505050505050670de0b6b3a764000060443502906044358204670de0b6b3a76400001460443515171561142357610d346104b0830484612310565b6104b08304670de0b6b3a764000001670de0b6b3a7640000116111c5576104b08304670de0b6b3a7640000011561140f57610d896024356104b08504670de0b6b3a764000001670de0b6b3a764000004612461565b670de0b6b3a76400000390670de0b6b3a764000082116111b157600691610daf91612339565b91015582845260056020526040842091670de0b6b3a764000081865b60243581106113e5575081610de8610ded926104b0870490612310565b612310565b9080670de0b6b3a763ffff198101116111b157670de0b6b3a764000091610e1f91670de0b6b3a763ffff190190612339565b0480600685015585915b6024358310611275578686600754600160401b81101561126157806001610e539201600755612110565b815460001960039290921b91821b19169083901b179055338252600660209081526040808420805460ff1916600190811790915583855260058352818520600a8101546009549254935163095ea7b360e01b81526001600160a01b039485166004820152602481018290529194909391929091839160449183918a91165af180156109b957611242575b50604051610eea8161218f565b6002815260403660208301376009546001600160a01b0316610f0b826122df565b526002546001600160a01b0316610f21826122ec565b52600354604051633fabe5a360e21b81529060a090829060049082906001600160a01b03165afa90811561115a57869161120e575b50858113156111d9576305f5e1008084029084820414841517156111b15790610f7e91612339565b806062810204606214811517156111c5576001546001600160a01b0316914261012c8101106111b15791610fdc9391878094604051968795869485936338ed173960e01b855261012c420192606460623094020490600487016123e0565b03925af180156111a657610ff7918591611184575b506122ec565b518284526005602090815260408086206002548754925163095ea7b360e01b81526001600160a01b0393841660048201526024810186905291939192839160449183918b91165af1801561115a57611165575b50845460025486916001600160a01b039182169116803b156106335760848392604051948593849263617ba03760e01b845260048401528860248401523060448401528160648401525af1801561115a57611129575b506080927faeec09af87559b9077da2e499d1fad2e228d7c24cb4b566fe61976820abaadda6060846002857f65410888fb30edd04f6acfb2f6cfd92aaf0ebb9b5303b6286d65d0b031b5b7f79997600d60039801550154906040519187835260208301526040820152a1015460405191825260043560208301526040820152336060820152a180f35b67ffffffffffffffff8196929611611146576040529360806110a0565b634e487b7160e01b82526041600452602482fd5b6040513d88823e3d90fd5b61117d9060203d60201161086f5761086081836121ab565b508561104a565b6111a091503d8087833e61119881836121ab565b810190612366565b85610ff1565b6040513d86823e3d90fd5b634e487b7160e01b87526011600452602487fd5b634e487b7160e01b86526011600452602486fd5b60405162461bcd60e51b815260206004820152600d60248201526c496e76616c696420707269636560981b6044820152606490fd5b611230915060a03d60a01161123b575b61122881836121ab565b8101906121e4565b505050905086610f56565b503d61121e565b61125a9060203d60201161086f5761086081836121ab565b5084610edd565b634e487b7160e01b83526041600452602483fd5b670de0b6b3a764000061128c6104b0860483612310565b0490818311156113df576112a08284612419565b916024356000198101116113cb576024356000190185146113b6575b62278d0085818102048114861517156113a2576112db90860242612359565b604051916112e88361215d565b84835260208301528960408301526060820152600c870154600160401b81101561138e578060016113229201600c8a0155600c8901612508565b91909161137a57916113749391600360608561136e965184556020810151600185015561136460408201511515600286019060ff801983541691151516179055565b0151910155612419565b92612426565b91610e29565b634e487b7160e01b8a5260048a905260248afd5b634e487b7160e01b8a52604160045260248afd5b634e487b7160e01b8a52601160045260248afd5b92509050806113c58382612359565b926112bc565b634e487b7160e01b89526011600452602489fd5b876112a0565b91670de0b6b3a764000061140361140a926104b08804830190612310565b0492612426565b610dcb565b634e487b7160e01b86526012600452602486fd5b634e487b7160e01b85526011600452602485fd5b611442818387612435565b356001600160a01b03811681036116655761145e828589612435565b359485156116285760018060a01b03600954169060208d604051938480926323b872dd60e01b8252816114b38d308b6004850160409194939294606082019560018060a01b0380921683521660208201520152565b03925af1908115610876576114cf928892611609575b50612359565b9460018060a01b0382168c52600460205260408c206114ef828254612359565b90556104b0611506602435610de860443585612310565b0490604051928360a081011067ffffffffffffffff60a0860111176115f55760a0840160405260018060a01b03168352602083015260408201528a60608201528a6080820152600b880154600160401b8110156115e1578060016115739201600b8b0155600b8a01612445565b9190916115cd57805182546001600160a01b0319166001600160a01b0391909116178255602081015160018301556040810151600283015560608101516003830155608001516004909101556115c890612426565b610cf2565b634e487b7160e01b8c5260048c905260248cfd5b634e487b7160e01b8c52604160045260248cfd5b634e487b7160e01b8e52604160045260248efd5b6116219060203d60201161086f5761086081836121ab565b50386114c9565b60405162461bcd60e51b8152602060048201526015602482015274125b9d985b1a59081b195b99195c88185b5bdd5b9d605a1b6044820152606490fd5b8a80fd5b6116819060203d60201161086f5761086081836121ab565b5038610c48565b6040513d8a823e3d90fd5b60405162461bcd60e51b8152602060048201526013602482015272139bc81b195b99195c9cc81c1c9bdd9a591959606a1b6044820152606490fd5b60405162461bcd60e51b815260206004820152602c60248201527f4c656e6465722061646472657373657320616e6420616d6f756e7473206c656e60448201526b0cee8d040dad2e6dac2e8c6d60a31b6064820152608490fd5b60405162461bcd60e51b815260206004820152602360248201527f426f72726f77657220616c72656164792068617320616e20616374697665206c60448201526237b0b760e91b6064820152608490fd5b60405162461bcd60e51b815260206004820152601060248201526f24b73b30b634b210323ab930ba34b7b760811b6044820152606490fd5b60405162461bcd60e51b815260206004820152600e60248201526d125b9d985b1a5908185b5bdd5b9d60921b6044820152606490fd5b8380fd5b50346101735760406118056117ff36612087565b90612eb5565b82519182526020820152f35b5034610173576020366003190112610173576004356001600160a01b03818116918290036106335761184890600854163314612524565b6001600160601b0360a01b600154161760015580f35b5034610173576020366003190112610173576004356001600160a01b03818116918290036106335761189590600854163314612524565b81546001600160a01b03191617815580f35b503461017357602036600319011261017357600d6040602092600435815260058452200154604051908152f35b5034610173576020366003190112610173576004356001600160a01b0381169081900361043d578160409160209352600483522054604051908152f35b50346101735760208060031936011261043d5760043560018060a01b0361193d81600854163314612524565b8184526005835260408420926009908185019182549260ff61196081861661257a565b88908990600c8a018054925b838110611ba757505050506276a7001015611b4d5760ff1980941690556001808701938585541689526006845260408920908154169055600d87015480611b3d575b50600380880154600e8901549182611a22575b8a7fcab88a55906c5830a49dddd8b31d115294a5e6c4210f25fe140530a39c51dc748a8a8a541690611a1c6119f4612219565b604080519384526001600160a01b039094166020840152928201929092529081906060820190565b0390a180f35b9091928099600b8c9101915b611a39575b506119c1565b8154811015611b3857611a4c8183612445565b50611a5e8c8201548583015490612419565b8c8115611b275750670de0b6b3a7640000908181029081048203611b13578796959493928f9192611a9c611a96611ad89b8e96612339565b89612310565b04918d808c541692541690604051809b8195829463a9059cbb60e01b84526004840160209093929193604081019460018060a01b031681520152565b03925af1908115610876578c96611af392611afd5750612426565b9091929394611a2e565b610868908a3d8c1161086f5761086081836121ab565b634e487b7160e01b8f52601160045260248ffd5b96959493929050611af39150612426565b611a33565b611b479087612a33565b386119ae565b60405162461bcd60e51b815260048101849052602c60248201527f4c6f616e206973206e6f74206f766572647565206265796f6e642033206d6f6e60448201526b1d1a1cc81a5b881d1bdd185b60a21b6064820152608490fd5b611bb18183612508565b5083600282015416611bc95760030154804211611bd8575b50611bd390612426565b61196c565b611bd39195611bea611bf09242612419565b90612359565b9490611bc9565b5034610173576020366003190112610173576004356001600160a01b0381169081900361043d5760408260ff9260209452600684522054166040519015158152f35b50346101735760208060031936011261043d5790600435815260058252600c6040822001805491611c69836122ad565b92611c73816122ad565b611c7c82612295565b91611c8a60405193846121ab565b808352611c9681612295565b8388019590601f1901368737845b828110611d12575050509480611cd8611ccb9760405198899860608a5260608a0190612053565b90888203848a0152612053565b92868403604088015251928381520193925b828110611cf957505050500390f35b8351151585528695509381019392810192600101611cea565b8060ff6002611d2a611d5f94869d9a999b9c9d612508565b508054611d37858f6122fc565b526001810154611d47858a6122fc565b52015416611d55828a6122fc565b9015159052612426565b979695939497611ca4565b50346101735780600319360112610173576009546040516001600160a01b039091168152602090f35b50346101735780600319360112610173576002546040516001600160a01b039091168152602090f35b503461017357602036600319011261017357611de360018060a01b03600854163314612524565b600435815260056020526040812060098101805491611e0460ff841661257a565b611e0c612219565b91600d82016305f5e100611e21858354612310565b0491600e84019283546069810290808204606914901517156113cb576064900410611ff05760ff1995861690556001830180546001600160a01b0316875260066020526040872080549096169095555480611fde575b50600382015490549182611ed6575b505091546040805160043581526001600160a01b0390921660208301528101919091527fcab88a55906c5830a49dddd8b31d115294a5e6c4210f25fe140530a39c51dc7491508060608101611a1c565b909192855b600b830154811015611fb157611ef481600b8501612445565b50611f086001820154600383015490612419565b8015611fa65780670de0b6b3a7640000810204670de0b6b3a7640000036113cb57611f889291670de0b6b3a7640000611f48611a968a8360209602612339565b600954925460405163a9059cbb60e01b81526001600160a01b039182166004820152929091046024830152909485929091169082908c9082906044820190565b03925af191821561168857611fa1926108475750612426565b611edb565b5050611fa190612426565b50925050507fcab88a55906c5830a49dddd8b31d115294a5e6c4210f25fe140530a39c51dc743880611e86565b611fea90600435612a33565b38611e77565b60405162461bcd60e51b815260206004820152603560248201527f4254432076616c756520686173206e6f742064726f707065642062656c6f77206044820152741b1a5c5d5a59185d1a5bdb881d1a1c995cda1bdb19605a1b6064820152608490fd5b90815180825260208080930193019160005b828110612073575050505090565b835185529381019392810192600101612065565b604090600319011261209d576004359060243590565b600080fd5b9181601f8401121561209d5782359167ffffffffffffffff831161209d576020808501948460051b01011161209d57565b90815180825260208080930193019160005b8281106120f3575050505090565b83516001600160a01b0316855293810193928101926001016120e5565b6007548110156121475760076000527fa66cc928b5edb82af9bd49922954155ab7b0942694bea4ce44661d9a8736c6880190600090565b634e487b7160e01b600052603260045260246000fd5b6080810190811067ffffffffffffffff82111761217957604052565b634e487b7160e01b600052604160045260246000fd5b6060810190811067ffffffffffffffff82111761217957604052565b90601f8019910116810190811067ffffffffffffffff82111761217957604052565b519069ffffffffffffffffffff8216820361209d57565b908160a091031261209d576121f8816121cd565b916020820151916040810151916122166080606084015193016121cd565b90565b600354604051633fabe5a360e21b81529060a090829060049082906001600160a01b03165afa90811561227157600091612251575090565b612269915060a03d811161123b5761122881836121ab565b505050905090565b6040513d6000823e3d90fd5b9081602091031261209d5751801515810361209d5790565b67ffffffffffffffff81116121795760051b60200190565b906122b782612295565b6122c460405191826121ab565b82815280926122d5601f1991612295565b0190602036910137565b8051156121475760200190565b8051600110156121475760400190565b80518210156121475760209160051b010190565b8181029291811591840414171561232357565b634e487b7160e01b600052601160045260246000fd5b8115612343570490565b634e487b7160e01b600052601260045260246000fd5b9190820180921161232357565b602090818184031261209d5780519067ffffffffffffffff821161209d57019180601f8401121561209d57825161239c81612295565b936123aa60405195866121ab565b818552838086019260051b82010192831161209d578301905b8282106123d1575050505090565b815181529083019083016123c3565b919260809361240592979695978452602084015260a0604084015260a08301906120d3565b6001600160a01b0390951660608201520152565b9190820391821161232357565b60001981146123235760010190565b91908110156121475760051b0190565b8054821015612147576000526005602060002091020190600090565b9080156125015781156124fa5781806001146124f2576002146124e15760208110610133831016604e8210600b841016176124dc57600190815b8082116124b357505081600019048111612323570290565b909280600019048111612323578184166124d3575b800292811c9061249b565b809202916124c8565b900a90565b905060ff8111612323576001901b90565b505050600190565b5050600090565b5050600190565b80548210156121475760005260206000209060021b0190600090565b1561252b57565b60405162461bcd60e51b815260206004820152602160248201527f4f6e6c79206f776e65722063616e2063616c6c20746869732066756e6374696f6044820152603760f91b6064820152608490fd5b1561258157565b60405162461bcd60e51b81526020600482015260126024820152714c6f616e206973206e6f742061637469766560701b6044820152606490fd5b906000918083526020600581526040808520938015808015612a27575b8015612a1b575b61261e576305f5e1008083029283041417156111c557612606600d91600887015490612339565b9401948554808611612a13575b508415918215612627575b50505050505050565b8482526005845280822093600d850193845488116129c15761297f5760018060a01b03928360025416938351956370a0823160e01b9788885260049230848a0152602492868a85818c5afa998a1561291757869a612950575b50868d6064848954169b898c519d8e948593631a4ca37b60e21b85528c8501528a8401523060448401525af1988915612917578699612921575b508682600254169b858a51809e81938252308a8301525afa9a8b1561291757869b6128e4575b50898b11156128975788156128555761273f928792826127028c809554612419565b90556001816002541692015416878a5180968195829463a9059cbb60e01b84528b840160209093929193604081019460018060a01b031681520152565b03925af190811561284b57849161282e575b50156127ec57505092828860a096937f38a556a122683cb48d496614a7a03605b6c2c0482342924caf483386980ecc9f60806127de9c9b987f971c7ec4a7c96c0a198687499279ccf05d9699970007b5ae5017b1177ee02ed39b9851908a8252858583015286820152866060820152a1825196875286015284015260608301526080820152a18254612419565b90553880808080808061261e565b845162461bcd60e51b8152918201849052601b908201527f5472616e7366657220746f20626f72726f776572206661696c656400000000006044820152606490fd5b6128459150853d871161086f5761086081836121ab565b38612751565b86513d86823e3d90fd5b875162461bcd60e51b8152808601889052601c818601527f556e7374616b652072657475726e6564207a65726f20746f6b656e73000000006044820152606490fd5b875162461bcd60e51b81528086018890526022818601527f5769746864726177616c206469646e277420696e6372656173652062616c616e604482015261636560f01b6064820152608490fd5b909a508681813d8311612910575b6128fc81836121ab565b8101031261290c575199386126e0565b8580fd5b503d6128f2565b88513d88823e3d90fd5b9098508681813d8311612949575b61293981836121ab565b8101031261290c575197386126ba565b503d61292f565b9099508681813d8311612978575b61296881836121ab565b8101031261290c57519838612680565b503d61295e565b606491519062461bcd60e51b82526004820152601a60248201527f43616e6e6f7420756e7374616b65207a65726f20616d6f756e740000000000006044820152fd5b50608491519062461bcd60e51b82526004820152602660248201527f43616e6e6f7420756e7374616b65206d6f7265207468616e207374616b656420604482015265185b5bdd5b9d60d21b6064820152fd5b945038612613565b50600d860154156125df565b506008860154156125d8565b90600090828252602091600583526040600d818320019283548111612e62578015612e1e5760025482516370a0823160e01b808252306004808401919091529097919691926001600160a01b03926024918416858a8481845afa998a15612e1457899a612de1575b5090858594939260648b97885416918b519c8d938492631a4ca37b60e21b8452898401528c888401523060448401525af1988915612ce6578599612db2575b508584600254169b838a51809e8193825230888301525afa9a8b15612ce657859b612d7f575b50898b1115612d32578815612cf057612b1a898254612419565b9055600254600154885163095ea7b360e01b81529085166001600160a01b0316848201908152602081018b905290918791839187169082908990829060400103925af18015612ce657612cc9575b50865191612b758361218f565b600283528736878501378360025416612b8d846122df565b528360095416612b9c846122ec565b52605f890293898504605f03612cb757600154169161012c420190814211612ca6575090858a612be9829695948c51988997889687956338ed173960e01b875260643094049187016123e0565b03925af1908115612c9c57608083612c537f971c7ec4a7c96c0a198687499279ccf05d9699970007b5ae5017b1177ee02ed39c9a9896947f38a556a122683cb48d496614a7a03605b6c2c0482342924caf483386980ecc9f9460a09d9b999791612c8257506122ec565b51908651918b83528686840152878301526060820152a1825196875286015284015260608301526080820152a1565b612c9691503d8085833e61119881836121ab565b38610ff1565b85513d84823e3d90fd5b634e487b7160e01b87526011835286fd5b50634e487b7160e01b85526011905283fd5b612cdf90863d881161086f5761086081836121ab565b5038612b68565b88513d87823e3d90fd5b875162461bcd60e51b8152808401879052601c818401527f556e7374616b652072657475726e6564207a65726f20746f6b656e73000000006044820152606490fd5b875162461bcd60e51b81528084018790526022818401527f5769746864726177616c206469646e277420696e6372656173652062616c616e604482015261636560f01b6064820152608490fd5b909a508581813d8311612dab575b612d9781836121ab565b81010312612da757519938612b00565b8480fd5b503d612d8d565b9098508581813d8311612dda575b612dca81836121ab565b81010312612da757519738612ada565b503d612dc0565b9099508581813d8311612e0d575b612df981836121ab565b81010312612e0957519885612a9b565b8880fd5b503d612def565b88513d8b823e3d90fd5b815162461bcd60e51b815260048101869052601a60248201527f43616e6e6f7420756e7374616b65207a65726f20616d6f756e740000000000006044820152606490fd5b815162461bcd60e51b815260048101869052602660248201527f43616e6e6f7420756e7374616b65206d6f7265207468616e207374616b656420604482015265185b5bdd5b9d60d21b6064820152608490fd5b600090815260056020526040812060028101549093928115612f1f57670de0b6b3a76400009283820291808304851490151715612f0b575093612efd612f0792600d96612339565b9485910154612310565b0490565b634e487b7160e01b81526011600452602490fd5b5050809250919056fea2646970667358221220c264455dbf5f19c9c40f5a457649a450631adf06ef16c31de97833527fd7a7ef64736f6c63430008140033",
  "linkReferences": {},
  "deployedLinkReferences": {}
}