{
  "_format": "hh-sol-artifact-1",
  "contractName": "LendingPool",
  "sourceName": "Contracts/Lending.sol",
  "abi": [
    {
      "inputs": [
        {
          "internalType": "address",
          "name": "usdc",
          "type": "address"
        },
        {
          "internalType": "address",
          "name": "_cbBtcToken",
          "type": "address"
        },
        {
          "internalType": "address",
          "name": "oracleAddress",
          "type": "address"
        },
        {
          "internalType": "address",
          "name": "_aavePool",
          "type": "address"
        },
        {
          "internalType": "address",
          "name": "_swapRouter",
          "type": "address"
        }
      ],
      "stateMutability": "nonpayable",
      "type": "constructor"
    },
    {
      "anonymous": false,
      "inputs": [
        {
          "indexed": false,
          "internalType": "bytes32",
          "name": "loanId",
          "type": "bytes32"
        },
        {
          "indexed": false,
          "internalType": "uint256",
          "name": "requested",
          "type": "uint256"
        },
        {
          "indexed": false,
          "internalType": "uint256",
          "name": "actualWithdrawn",
          "type": "uint256"
        },
        {
          "indexed": false,
          "internalType": "uint256",
          "name": "preBalance",
          "type": "uint256"
        },
        {
          "indexed": false,
          "internalType": "uint256",
          "name": "postBalance",
          "type": "uint256"
        }
      ],
      "name": "DebugUnstake",
      "type": "event"
    },
    {
      "anonymous": false,
      "inputs": [
        {
          "indexed": false,
          "internalType": "bytes32",
          "name": "loanId",
          "type": "bytes32"
        },
        {
          "indexed": false,
          "internalType": "uint256",
          "name": "principalRepaid",
          "type": "uint256"
        },
        {
          "indexed": false,
          "internalType": "uint256",
          "name": "proportionRepaid",
          "type": "uint256"
        },
        {
          "indexed": false,
          "internalType": "uint256",
          "name": "cbBtcToUnstake",
          "type": "uint256"
        }
      ],
      "name": "DebugUnstakeProportion",
      "type": "event"
    },
    {
      "anonymous": false,
      "inputs": [
        {
          "indexed": false,
          "internalType": "bytes32",
          "name": "loanId",
          "type": "bytes32"
        },
        {
          "indexed": false,
          "internalType": "uint256",
          "name": "index",
          "type": "uint256"
        }
      ],
      "name": "InstallmentPaid",
      "type": "event"
    },
    {
      "anonymous": false,
      "inputs": [
        {
          "indexed": false,
          "internalType": "bytes32",
          "name": "id",
          "type": "bytes32"
        },
        {
          "indexed": false,
          "internalType": "uint256",
          "name": "amount",
          "type": "uint256"
        },
        {
          "indexed": false,
          "internalType": "uint256",
          "name": "collateral",
          "type": "uint256"
        },
        {
          "indexed": false,
          "internalType": "address",
          "name": "borrower",
          "type": "address"
        }
      ],
      "name": "LoanCreated",
      "type": "event"
    },
    {
      "anonymous": false,
      "inputs": [
        {
          "indexed": false,
          "internalType": "bytes32",
          "name": "id",
          "type": "bytes32"
        },
        {
          "indexed": false,
          "internalType": "address",
          "name": "borrower",
          "type": "address"
        },
        {
          "indexed": false,
          "internalType": "uint256",
          "name": "btcPriceNow",
          "type": "uint256"
        }
      ],
      "name": "LoanLiquidated",
      "type": "event"
    },
    {
      "anonymous": false,
      "inputs": [
        {
          "indexed": false,
          "internalType": "bytes32",
          "name": "loanId",
          "type": "bytes32"
        },
        {
          "indexed": false,
          "internalType": "address",
          "name": "borrower",
          "type": "address"
        },
        {
          "indexed": false,
          "internalType": "uint256",
          "name": "amount",
          "type": "uint256"
        },
        {
          "indexed": false,
          "internalType": "bool",
          "name": "fullyRepaid",
          "type": "bool"
        }
      ],
      "name": "Payout",
      "type": "event"
    },
    {
      "anonymous": false,
      "inputs": [
        {
          "indexed": false,
          "internalType": "bytes32",
          "name": "loanId",
          "type": "bytes32"
        },
        {
          "indexed": false,
          "internalType": "uint256",
          "name": "usdcAmount",
          "type": "uint256"
        },
        {
          "indexed": false,
          "internalType": "uint256",
          "name": "cbBtcAmount",
          "type": "uint256"
        }
      ],
      "name": "TokensStaked",
      "type": "event"
    },
    {
      "anonymous": false,
      "inputs": [
        {
          "indexed": false,
          "internalType": "bytes32",
          "name": "loanId",
          "type": "bytes32"
        },
        {
          "indexed": false,
          "internalType": "uint256",
          "name": "cbBtcAmount",
          "type": "uint256"
        },
        {
          "indexed": false,
          "internalType": "uint256",
          "name": "usdcAmount",
          "type": "uint256"
        },
        {
          "indexed": false,
          "internalType": "uint256",
          "name": "borrowerCbBtcShare",
          "type": "uint256"
        }
      ],
      "name": "TokensUnstaked",
      "type": "event"
    },
    {
      "inputs": [],
      "name": "aavePool",
      "outputs": [
        {
          "internalType": "contract IAavePool",
          "name": "",
          "type": "address"
        }
      ],
      "stateMutability": "view",
      "type": "function"
    },
    {
      "inputs": [],
      "name": "cbBtcToken",
      "outputs": [
        {
          "internalType": "address",
          "name": "",
          "type": "address"
        }
      ],
      "stateMutability": "view",
      "type": "function"
    },
    {
      "inputs": [],
      "name": "chainlinkOracle",
      "outputs": [
        {
          "internalType": "contract AggregatorV3Interface",
          "name": "",
          "type": "address"
        }
      ],
      "stateMutability": "view",
      "type": "function"
    },
    {
      "inputs": [
        {
          "internalType": "bytes32",
          "name": "loanId",
          "type": "bytes32"
        },
        {
          "internalType": "uint256",
          "name": "principalRepaid",
          "type": "uint256"
        }
      ],
      "name": "debugUnstakeCalc",
      "outputs": [
        {
          "internalType": "uint256",
          "name": "proportionRepaid",
          "type": "uint256"
        },
        {
          "internalType": "uint256",
          "name": "cbBtcToUnstake",
          "type": "uint256"
        }
      ],
      "stateMutability": "view",
      "type": "function"
    },
    {
      "inputs": [
        {
          "internalType": "bytes32",
          "name": "loanId",
          "type": "bytes32"
        }
      ],
      "name": "getInstallmentSchedule",
      "outputs": [
        {
          "components": [
            {
              "internalType": "uint256",
              "name": "duePrincipal",
              "type": "uint256"
            },
            {
              "internalType": "uint256",
              "name": "dueInterest",
              "type": "uint256"
            },
            {
              "internalType": "bool",
              "name": "paid",
              "type": "bool"
            },
            {
              "internalType": "uint256",
              "name": "dueTimestamp",
              "type": "uint256"
            }
          ],
          "internalType": "struct LendingPool.Installment[]",
          "name": "",
          "type": "tuple[]"
        }
      ],
      "stateMutability": "view",
      "type": "function"
    },
    {
      "inputs": [],
      "name": "getPrice",
      "outputs": [
        {
          "internalType": "int256",
          "name": "",
          "type": "int256"
        }
      ],
      "stateMutability": "view",
      "type": "function"
    },
    {
      "inputs": [
        {
          "internalType": "bytes32",
          "name": "loanId",
          "type": "bytes32"
        }
      ],
      "name": "getStakedAmount",
      "outputs": [
        {
          "internalType": "uint256",
          "name": "",
          "type": "uint256"
        }
      ],
      "stateMutability": "view",
      "type": "function"
    },
    {
      "inputs": [
        {
          "internalType": "address",
          "name": "",
          "type": "address"
        }
      ],
      "name": "hasActiveLoan",
      "outputs": [
        {
          "internalType": "bool",
          "name": "",
          "type": "bool"
        }
      ],
      "stateMutability": "view",
      "type": "function"
    },
    {
      "inputs": [
        {
          "internalType": "address",
          "name": "",
          "type": "address"
        }
      ],
      "name": "lenders",
      "outputs": [
        {
          "internalType": "uint256",
          "name": "totalContributed",
          "type": "uint256"
        }
      ],
      "stateMutability": "view",
      "type": "function"
    },
    {
      "inputs": [
        {
          "internalType": "bytes32",
          "name": "loanId",
          "type": "bytes32"
        }
      ],
      "name": "liquidate",
      "outputs": [],
      "stateMutability": "nonpayable",
      "type": "function"
    },
    {
      "inputs": [
        {
          "internalType": "bytes32",
          "name": "loanId",
          "type": "bytes32"
        }
      ],
      "name": "liquidateIfOverdue",
      "outputs": [],
      "stateMutability": "nonpayable",
      "type": "function"
    },
    {
      "inputs": [
        {
          "internalType": "uint256",
          "name": "totalAmount",
          "type": "uint256"
        },
        {
          "internalType": "uint256",
          "name": "durationMonths",
          "type": "uint256"
        },
        {
          "internalType": "uint256",
          "name": "annualInterestRate",
          "type": "uint256"
        },
        {
          "internalType": "address[]",
          "name": "lenderAddresses",
          "type": "address[]"
        },
        {
          "internalType": "uint256[]",
          "name": "lenderAmounts",
          "type": "uint256[]"
        }
      ],
      "name": "loan",
      "outputs": [],
      "stateMutability": "nonpayable",
      "type": "function"
    },
    {
      "inputs": [
        {
          "internalType": "uint256",
          "name": "",
          "type": "uint256"
        }
      ],
      "name": "loanIds",
      "outputs": [
        {
          "internalType": "bytes32",
          "name": "",
          "type": "bytes32"
        }
      ],
      "stateMutability": "view",
      "type": "function"
    },
    {
      "inputs": [
        {
          "internalType": "bytes32",
          "name": "",
          "type": "bytes32"
        }
      ],
      "name": "loans",
      "outputs": [
        {
          "internalType": "bytes32",
          "name": "id",
          "type": "bytes32"
        },
        {
          "internalType": "address",
          "name": "borrower",
          "type": "address"
        },
        {
          "internalType": "uint256",
          "name": "principal",
          "type": "uint256"
        },
        {
          "internalType": "uint256",
          "name": "borrowerDeposit",
          "type": "uint256"
        },
        {
          "internalType": "uint256",
          "name": "interestRate",
          "type": "uint256"
        },
        {
          "internalType": "uint256",
          "name": "duration",
          "type": "uint256"
        },
        {
          "internalType": "uint256",
          "name": "monthlyPayment",
          "type": "uint256"
        },
        {
          "internalType": "uint256",
          "name": "startTime",
          "type": "uint256"
        },
        {
          "internalType": "uint256",
          "name": "btcPriceAtCreation",
          "type": "uint256"
        },
        {
          "internalType": "bool",
          "name": "isActive",
          "type": "bool"
        },
        {
          "internalType": "uint256",
          "name": "totalAmount",
          "type": "uint256"
        },
        {
          "internalType": "uint256",
          "name": "stakedAmount",
          "type": "uint256"
        },
        {
          "internalType": "uint256",
          "name": "remainingPrincipal",
          "type": "uint256"
        }
      ],
      "stateMutability": "view",
      "type": "function"
    },
    {
      "inputs": [
        {
          "internalType": "bytes32",
          "name": "loanId",
          "type": "bytes32"
        },
        {
          "internalType": "uint256",
          "name": "index",
          "type": "uint256"
        }
      ],
      "name": "markInstallmentPaid",
      "outputs": [],
      "stateMutability": "nonpayable",
      "type": "function"
    },
    {
      "inputs": [],
      "name": "owner",
      "outputs": [
        {
          "internalType": "address",
          "name": "",
          "type": "address"
        }
      ],
      "stateMutability": "view",
      "type": "function"
    },
    {
      "inputs": [
        {
          "internalType": "bytes32",
          "name": "loanId",
          "type": "bytes32"
        },
        {
          "internalType": "uint256",
          "name": "usdcAmount",
          "type": "uint256"
        }
      ],
      "name": "payouts",
      "outputs": [],
      "stateMutability": "nonpayable",
      "type": "function"
    },
    {
      "inputs": [
        {
          "internalType": "address",
          "name": "_aavePool",
          "type": "address"
        }
      ],
      "name": "setAavePool",
      "outputs": [],
      "stateMutability": "nonpayable",
      "type": "function"
    },
    {
      "inputs": [
        {
          "internalType": "address",
          "name": "_cbBtcToken",
          "type": "address"
        }
      ],
      "name": "setCbBtcToken",
      "outputs": [],
      "stateMutability": "nonpayable",
      "type": "function"
    },
    {
      "inputs": [
        {
          "internalType": "address",
          "name": "oracleAddress",
          "type": "address"
        }
      ],
      "name": "setChainlinkOracle",
      "outputs": [],
      "stateMutability": "nonpayable",
      "type": "function"
    },
    {
      "inputs": [
        {
          "internalType": "address",
          "name": "_swapRouter",
          "type": "address"
        }
      ],
      "name": "setSwapRouter",
      "outputs": [],
      "stateMutability": "nonpayable",
      "type": "function"
    },
    {
      "inputs": [],
      "name": "swapRouter",
      "outputs": [
        {
          "internalType": "contract ISwapRouter",
          "name": "",
          "type": "address"
        }
      ],
      "stateMutability": "view",
      "type": "function"
    },
    {
      "inputs": [],
      "name": "usdcToken",
      "outputs": [
        {
          "internalType": "address",
          "name": "",
          "type": "address"
        }
      ],
      "stateMutability": "view",
      "type": "function"
    }
  ],
  "bytecode": "0x608034620000ec57601f62002c0838819003918201601f19168301916001600160401b03831184841017620000f15780849260a094604052833981010312620000ec576200004d8162000107565b906200005c6020820162000107565b906200006b6040820162000107565b91620000886080620000806060850162000107565b930162000107565b9160018060a01b0319943386600854161760085560018060a01b03948580948180941689600954161760095516876002541617600255168560035416176003551683600054161760005516906001541617600155604051612aeb90816200011d8239f35b600080fd5b634e487b7160e01b600052604160045260246000fd5b51906001600160a01b0382168203620000ec5756fe6080604052600436101561001257600080fd5b6000803560e01c80630a71096e14611a195780630e462386146119f057806311eac855146119c757806321d4f8db1461198557806328830d471461169f57806328fd10d714611662578063337a173714611635578063349f937c146115ec578063412736571461159f5780635206d2d01461157957806366fb6e5a146109365780636c1945ae146108355780637a9b0412146107e857806380f2122c1461046257806383cd8fcf146104115780638da5cb5b146103e857806398d5fdca146103c5578063a03e4bc31461039e578063c31c9c0714610375578063c4a90815146102b7578063c9642d2a1461017e578063ef06e72c146101555763f8715a421461011a57600080fd5b34610152576020366003190112610152576004359060075482101561015257602061014483611cfc565b90546040519160031b1c8152f35b80fd5b50346101525780600319360112610152576003546040516001600160a01b039091168152602090f35b50346101525761018d36611cb0565b906101a360018060a01b036008541633146120fb565b8083526005602052600c604084206101c160ff600983015416612151565b019081548310156102725760ff60026101da85856120df565b5001541661022d578260026102127f3d05ac2057427ac2f84502e7efefebf5ae10d9529129c2979ce60fb97d460614956040956120df565b5001805460ff1916600117905582519182526020820152a180f35b60405162461bcd60e51b815260206004820152601f60248201527f496e7374616c6c6d656e7420616c7265616479206d61726b65642070616964006044820152606490fd5b60405162461bcd60e51b815260206004820152601960248201527f496e76616c696420696e7374616c6c6d656e7420696e646578000000000000006044820152606490fd5b50346101525760203660031901126101525760406101a091600435815260056020522080549060018060a01b03600182015416906002810154600382015460048301546005840154600685015460078601549160088701549360ff60098901541695600a89015497600e600d8b01549a01549a6040519c8d5260208d015260408c015260608b015260808a015260a089015260c088015260e08701526101008601521515610120850152610140840152610160830152610180820152f35b50346101525780600319360112610152576001546040516001600160a01b039091168152602090f35b5034610152578060031936011261015257546040516001600160a01b039091168152602090f35b503461015257806003193601126101525760206103e0611e05565b604051908152f35b50346101525780600319360112610152576008546040516001600160a01b039091168152602090f35b5034610152576020366003190112610152576004356001600160a01b038181169182900361045e57610448906008541633146120fb565b6001600160601b0360a01b600254161760025580f35b8280fd5b50346101525761047136611cb0565b908083526005602052604083209061048f60ff600984015416612151565b60018201546001600160a01b031633036107a3576009546040516323b872dd60e01b815233600482015230602482015260448101859052906020908290606490829089906001600160a01b03165af1801561079857610779575b50829084855b600c850154811080610770575b1561071b5761050e81600c87016120df565b5060ff60028201541661071157805460018201549061052d8282611eff565b80881015610548575b5050505061054390611ffd565b6104ef565b9061055d610563928298959b949a9799611ff0565b97611eff565b906002850154968a5b600b8701548110156106ba5761058581600b890161201c565b50600181015480670de0b6b3a7640000810204670de0b6b3a764000014811517156106a6578d61064d93928d61061d670de0b6b3a76400008f8f826105db6105d46105e2948360209c02611edf565b8093611eb6565b0494611eb6565b04600384016105f2848254611eff565b905560048401610603828254611eff565b905560095493546001600160a01b03948516941692611eff565b60405163a9059cbb60e01b81526001600160a01b0390921660048301526024820152948592839182906044820190565b03925af191821561069b576106679261066c575b50611ffd565b61056c565b61068d9060203d602011610694575b6106858183611d97565b810190611e69565b5038610661565b503d61067b565b6040513d8f823e3d90fd5b634e487b7160e01b8e52601160045260248efd5b5096509790939650610543929194506002600160ff198284015416179101557f3d05ac2057427ac2f84502e7efefebf5ae10d9529129c2979ce60fb97d46061460408051868152836020820152a190388080610536565b5061054390611ffd565b867fdc376abd09229a842ac7d8bcadc9017651f1f1b8490750870cae0ecd4aedf67460808587610755818c6107508a86612192565b611ff0565b6040519283523360208401526040830152156060820152a180f35b508315156104fc565b6107919060203d602011610694576106858183611d97565b50386104e9565b6040513d87823e3d90fd5b60405162461bcd60e51b815260206004820152601760248201527f4f6e6c7920626f72726f7765722063616e2072657061790000000000000000006044820152606490fd5b5034610152576020366003190112610152576004356001600160a01b038181169182900361045e5761081f906008541633146120fb565b6001600160601b0360a01b600354161760035580f35b503461015257602090816003193601126101525790600435825260058152600c6040832001805461086581611e81565b906108736040519283611d97565b8082528382018093865284862086915b8383106108e757505050506040519280840191818552518092526040840192945b8281106108b15784840385f35b855180518552808301518584015260408082015115159086015260609081015190850152948101946080909301926001016108a4565b60048760019260409a9997989a516108fe81611d49565b85548152848601548382015260ff60028701541615156040820152600386015460608201528152019201920191909694939596610883565b50346101525760a03660031901126101525760643567ffffffffffffffff811161157557610968903690600401611ccb565b9060843567ffffffffffffffff811161157157610989903690600401611ccb565b926004351561153b576024351561150357338552600660205260ff6040862054166114b25783810361145857801561141d57601460043502916004358304601403610f25576109dd60648404600435611ff0565b6009546040516323b872dd60e01b8152336004820152306024820152606480870460448301529296929091602091839182908c906001600160a01b03165af18015611412576113f3575b509084929160405160208101903360601b825242603482015260348152610a4d81611d7b565b519020968789526005602052606460408a209689885560018801336001600160601b0360a01b825416179055600435600a89015586600289015504600387015560443560048701556024356005870155426007870155610aab611e05565b600887015560098601805460ff19166001179055600e86018590558893845b8181106111ad5750505050500361115757670de0b6b3a764000060443502906044358204670de0b6b3a76400001460443515171561114357610b106104b0830484611eb6565b6104b08304670de0b6b3a76400000180670de0b6b3a764000011610f1157801561112f57610b4b9060243590670de0b6b3a764000004612038565b670de0b6b3a76400000390670de0b6b3a76400008211610f1157600691610b7191611edf565b91015582845260056020526040842091600683015485915b6024358310610fd5578686600754600160401b811015610fc157806001610bb39201600755611cfc565b815460001960039290921b91821b19169083901b179055338252600660209081526040808420805460ff1916600190811790915583855260058352818520600a8101546009549254935163095ea7b360e01b81526001600160a01b039485166004820152602481018290529194909391929091839160449183918a91165af1801561079857610fa2575b50604051610c4a81611d7b565b6002815260403660208301376009546001600160a01b0316610c6b82611e99565b526002546001600160a01b0316610c8182611ea6565b52600354604051633fabe5a360e21b81529060a090829060049082906001600160a01b03165afa908115610eba578691610f6e575b5085811315610f39576305f5e100808402908482041484151715610f115790610cde91611edf565b80606281020460621481151715610f25576001546001600160a01b0316914261012c810110610f115791610d3c9391878094604051968795869485936338ed173960e01b855261012c42019260646062309402049060048701611f86565b03925af18015610f0657610d57918591610ee4575b50611ea6565b518284526005602090815260408086206002548754925163095ea7b360e01b81526001600160a01b0393841660048201526024810186905291939192839160449183918b91165af18015610eba57610ec5575b50845460025486916001600160a01b039182169116803b1561045e5760848392604051948593849263617ba03760e01b845260048401528860248401523060448401528160648401525af18015610eba57610e89575b506080927faeec09af87559b9077da2e499d1fad2e228d7c24cb4b566fe61976820abaadda6060846002857f65410888fb30edd04f6acfb2f6cfd92aaf0ebb9b5303b6286d65d0b031b5b7f79997600d60039801550154906040519187835260208301526040820152a1015460405191825260043560208301526040820152336060820152a180f35b67ffffffffffffffff8196929611610ea657604052936080610e00565b634e487b7160e01b82526041600452602482fd5b6040513d88823e3d90fd5b610edd9060203d602011610694576106858183611d97565b5085610daa565b610f0091503d8087833e610ef88183611d97565b810190611f0c565b85610d51565b6040513d86823e3d90fd5b634e487b7160e01b87526011600452602487fd5b634e487b7160e01b86526011600452602486fd5b60405162461bcd60e51b815260206004820152600d60248201526c496e76616c696420707269636560981b6044820152606490fd5b610f90915060a03d60a011610f9b575b610f888183611d97565b810190611dd0565b505050905086610cb6565b503d610f7e565b610fba9060203d602011610694576106858183611d97565b5084610c3d565b634e487b7160e01b83526041600452602483fd5b670de0b6b3a7640000610fec6104b0860483611eb6565b0490610ff88284611ff0565b9160243560001981011161111b57602435600019018514611106575b62278d0085818102048114861517156110f25761103390860242611eff565b6040519161104083611d49565b84835260208301528960408301526060820152600c870154600160401b8110156110de5780600161107a9201600c8a0155600c89016120df565b9190916110ca57916110c4939160036060856110be9651845560208101516001850155600284016040820151151560ff801983541691161790550151910155611ff0565b92611ffd565b91610b89565b634e487b7160e01b8a5260048a905260248afd5b634e487b7160e01b8a52604160045260248afd5b634e487b7160e01b8a52601160045260248afd5b92509050806111158382611eff565b92611014565b634e487b7160e01b89526011600452602489fd5b634e487b7160e01b87526012600452602487fd5b634e487b7160e01b85526011600452602485fd5b60405162461bcd60e51b815260206004820152602860248201527f436f6c6c656374656420616d6f756e7420646f65736e2774206d6174636820706044820152671c9a5b98da5c185b60c21b6064820152608490fd5b909192939495506111bf81838661200c565b356001600160a01b03811681036113ef576111db82858861200c565b359687156113b2578b90602061123160018060a01b03600954168b6040519586809481936323b872dd60e01b8352308b6004850160409194939294606082019560018060a01b0380921683521660208201520152565b03925af190811561069b5761124d928a92611393575b50611eff565b9660018060a01b0382168c52600460205260408c2061126d828254611eff565b90556104b061128960243561128460443585611eb6565b611eb6565b0490604051928360a081011067ffffffffffffffff60a08601111761137f5760a0840160405260018060a01b03168352602083015260408201528a60608201528a6080820152600b880154600160401b81101561136b578060016112f69201600b8b0155600b8a0161201c565b91909161135757805182546001600160a01b0319166001600160a01b03919091161782556020810151600183015560408101516002830155606081015160038301556080015160049091015561134b90611ffd565b90879594939291610aca565b634e487b7160e01b8c5260048c905260248cfd5b634e487b7160e01b8c52604160045260248cfd5b634e487b7160e01b8e52604160045260248efd5b6113ab9060203d602011610694576106858183611d97565b5038611247565b60405162461bcd60e51b8152602060048201526015602482015274125b9d985b1a59081b195b99195c88185b5bdd5b9d605a1b6044820152606490fd5b8a80fd5b61140b9060203d602011610694576106858183611d97565b5038610a27565b6040513d8a823e3d90fd5b60405162461bcd60e51b8152602060048201526013602482015272139bc81b195b99195c9cc81c1c9bdd9a591959606a1b6044820152606490fd5b60405162461bcd60e51b815260206004820152602c60248201527f4c656e6465722061646472657373657320616e6420616d6f756e7473206c656e60448201526b0cee8d040dad2e6dac2e8c6d60a31b6064820152608490fd5b60405162461bcd60e51b815260206004820152602360248201527f426f72726f77657220616c72656164792068617320616e20616374697665206c60448201526237b0b760e91b6064820152608490fd5b60405162461bcd60e51b815260206004820152601060248201526f24b73b30b634b210323ab930ba34b7b760811b6044820152606490fd5b60405162461bcd60e51b815260206004820152600e60248201526d125b9d985b1a5908185b5bdd5b9d60921b6044820152606490fd5b8380fd5b5080fd5b503461015257604061159361158d36611cb0565b90612a42565b82519182526020820152f35b5034610152576020366003190112610152576004356001600160a01b038181169182900361045e576115d6906008541633146120fb565b6001600160601b0360a01b600154161760015580f35b5034610152576020366003190112610152576004356001600160a01b038181169182900361045e57611623906008541633146120fb565b81546001600160a01b03191617815580f35b503461015257602036600319011261015257600d6040602092600435815260058452200154604051908152f35b5034610152576020366003190112610152576004356001600160a01b03811690819003611575578160409160209352600483522054604051908152f35b5034610152576020806003193601126115755760043560018060a01b036116cb816008541633146120fb565b8184526005835260408420926009908185019182549260ff6116ee818616612151565b88908990600c8a018054925b83811061193557505050506276a70010156118db5760ff1980941690556001808701938585541689526006845260408920908154169055600d870154806118cb575b50600380880154600e89015491826117b0575b8a7fcab88a55906c5830a49dddd8b31d115294a5e6c4210f25fe140530a39c51dc748a8a8a5416906117aa611782611e05565b604080519384526001600160a01b039094166020840152928201929092529081906060820190565b0390a180f35b9091928099600b8c9101915b6117c7575b5061174f565b81548110156118c6576117da818361201c565b506117ec8c8201548583015490611ff0565b8c81156118b55750670de0b6b3a76400009081810290810482036118a1578796959493928f919261182a6118246118669b8e96611edf565b89611eb6565b04918d808c541692541690604051809b8195829463a9059cbb60e01b84526004840160209093929193604081019460018060a01b031681520152565b03925af190811561069b578c966118819261188b5750611ffd565b90919293946117bc565b61068d908a3d8c11610694576106858183611d97565b634e487b7160e01b8f52601160045260248ffd5b969594939290506118819150611ffd565b6117c1565b6118d59087612600565b3861173c565b60405162461bcd60e51b815260048101849052602c60248201527f4c6f616e206973206e6f74206f766572647565206265796f6e642033206d6f6e60448201526b1d1a1cc81a5b881d1bdd185b60a21b6064820152608490fd5b61193f81836120df565b50836002820154166119575760030154804211611966575b5061196190611ffd565b6116fa565b611961919561197861197e9242611ff0565b90611eff565b9490611957565b5034610152576020366003190112610152576004356001600160a01b038116908190036115755760408260ff9260209452600684522054166040519015158152f35b50346101525780600319360112610152576009546040516001600160a01b039091168152602090f35b50346101525780600319360112610152576002546040516001600160a01b039091168152602090f35b503461015257602036600319011261015257611a4060018060a01b036008541633146120fb565b600435815260056020526040812060098101805491611a6160ff8416612151565b611a69611e05565b91600d82016305f5e100611a7e858354611eb6565b0491600e840192835460698102908082046069149015171561111b576064900410611c4d5760ff1995861690556001830180546001600160a01b0316875260066020526040872080549096169095555480611c3b575b50600382015490549182611b33575b505091546040805160043581526001600160a01b0390921660208301528101919091527fcab88a55906c5830a49dddd8b31d115294a5e6c4210f25fe140530a39c51dc74915080606081016117aa565b909192855b600b830154811015611c0e57611b5181600b850161201c565b50611b656001820154600383015490611ff0565b8015611c035780670de0b6b3a7640000810204670de0b6b3a76400000361111b57611be59291670de0b6b3a7640000611ba56118248a8360209602611edf565b600954925460405163a9059cbb60e01b81526001600160a01b039182166004820152929091046024830152909485929091169082908c9082906044820190565b03925af191821561141257611bfe9261066c5750611ffd565b611b38565b5050611bfe90611ffd565b50925050507fcab88a55906c5830a49dddd8b31d115294a5e6c4210f25fe140530a39c51dc743880611ae3565b611c4790600435612600565b38611ad4565b60405162461bcd60e51b815260206004820152603560248201527f4254432076616c756520686173206e6f742064726f707065642062656c6f77206044820152741b1a5c5d5a59185d1a5bdb881d1a1c995cda1bdb19605a1b6064820152608490fd5b6040906003190112611cc6576004359060243590565b600080fd5b9181601f84011215611cc65782359167ffffffffffffffff8311611cc6576020808501948460051b010111611cc657565b600754811015611d335760076000527fa66cc928b5edb82af9bd49922954155ab7b0942694bea4ce44661d9a8736c6880190600090565b634e487b7160e01b600052603260045260246000fd5b6080810190811067ffffffffffffffff821117611d6557604052565b634e487b7160e01b600052604160045260246000fd5b6060810190811067ffffffffffffffff821117611d6557604052565b90601f8019910116810190811067ffffffffffffffff821117611d6557604052565b519069ffffffffffffffffffff82168203611cc657565b908160a0910312611cc657611de481611db9565b91602082015191604081015191611e02608060608401519301611db9565b90565b600354604051633fabe5a360e21b81529060a090829060049082906001600160a01b03165afa908115611e5d57600091611e3d575090565b611e55915060a03d8111610f9b57610f888183611d97565b505050905090565b6040513d6000823e3d90fd5b90816020910312611cc657518015158103611cc65790565b67ffffffffffffffff8111611d655760051b60200190565b805115611d335760200190565b805160011015611d335760400190565b81810292918115918404141715611ec957565b634e487b7160e01b600052601160045260246000fd5b8115611ee9570490565b634e487b7160e01b600052601260045260246000fd5b91908201809211611ec957565b6020908181840312611cc65780519067ffffffffffffffff8211611cc657019180601f84011215611cc6578251611f4281611e81565b93611f506040519586611d97565b818552838086019260051b820101928311611cc6578301905b828210611f77575050505090565b81518152908301908301611f69565b9291909594939560a084019084526020918285015260a0604085015282518091528160c0850193019160005b828110611fd35750505050906080919460018060a01b031660608201520152565b83516001600160a01b031685529381019392810192600101611fb2565b91908203918211611ec957565b6000198114611ec95760010190565b9190811015611d335760051b0190565b8054821015611d33576000526005602060002091020190600090565b9080156120d85781156120d15781806001146120c9576002146120b85760208110610133831016604e8210600b841016176120b357600190815b80821161208a57505081600019048111611ec9570290565b909280600019048111611ec9578184166120aa575b800292811c90612072565b8092029161209f565b900a90565b905060ff8111611ec9576001901b90565b505050600190565b5050600090565b5050600190565b8054821015611d335760005260206000209060021b0190600090565b1561210257565b60405162461bcd60e51b815260206004820152602160248201527f4f6e6c79206f776e65722063616e2063616c6c20746869732066756e6374696f6044820152603760f91b6064820152608490fd5b1561215857565b60405162461bcd60e51b81526020600482015260126024820152714c6f616e206973206e6f742061637469766560701b6044820152606490fd5b60008181526005602090815260408083209594909181158080156125f4575b6125ea57670de0b6b3a7640000908184029084820483141715610f2557886121e66121f0926002600d999a9b9c015490611edf565b9687910154611eb6565b049485156125a65786815260058252838120600d810190815488116125535760025486516370a0823160e01b8082523060048084019190915294602494936001600160a01b0393919290841689838881845afa9283156124d3578e98979695949392918a8e8d93829661250f575b50818b9189606494541690519d8e958694631a4ca37b60e21b86528501528c8401523060448401525af19788156124d3578c918b918b9a6124dd575b508786600254169351809481938252308c8301525afa9081156124d35789916124a2575b5011156124555785156124135761231b928892826122de89809554611ff0565b90556001816002541692015416888c5180968195829463a9059cbb60e01b84528b840160209093929193604081019460018060a01b031681520152565b03925af19081156124095785916123ec575b50156123aa575050917f38a556a122683cb48d496614a7a03605b6c2c0482342924caf483386980ecc9f60807fbbe6753bdc52f1f0bca193fae9cf6f21e08e703147f9903fd2a84bb9cf273fa6999795938795829a9851918a83528986840152878301526060820152a182519586528501528301526060820152a1565b865162461bcd60e51b8152918201859052601b908201527f5472616e7366657220746f20626f72726f776572206661696c656400000000006044820152606490fd5b6124039150863d8811610694576106858183611d97565b3861232d565b88513d87823e3d90fd5b895162461bcd60e51b8152808601899052601c818601527f556e7374616b652072657475726e6564207a65726f20746f6b656e73000000006044820152606490fd5b895162461bcd60e51b81528086018990526022818601527f5769746864726177616c206469646e277420696e6372656173652062616c616e604482015261636560f01b6064820152608490fd5b90508981813d83116124cc575b6124b98183611d97565b810103126124c85751386122be565b8880fd5b503d6124af565b8c513d8b823e3d90fd5b9250985081813d8311612508575b6124f58183611d97565b810103126124c857898c9151983861229a565b503d6124eb565b94969798999a9b505050925081813d831161254c575b61252f8183611d97565b810103126124c857518d97969594939290918a908a8e606461225e565b503d612525565b855162461bcd60e51b815260048101859052602660248201527f43616e6e6f7420756e7374616b65206d6f7265207468616e207374616b656420604482015265185b5bdd5b9d60d21b6064820152608490fd5b835162461bcd60e51b815260048101839052601960248201527f416d6f756e7420746f20756e7374616b65206973207a65726f000000000000006044820152606490fd5b5050505050509050565b506002880154156121b1565b9060009082825260209060058252604090600d82852001805482116129ef5781156129ab5760025483516370a0823160e01b808252306004808401919091526001600160a01b0394602494919390929091861689838781845afa928315612937578b9695949392918b918894612970575b50606489895416918c51998a938492631a4ca37b60e21b84528a8401528d8b8401523060448401525af1958615612937578b96612941575b5089876002541691868b5180948193825230898301525afa908115612937578b9161290a575b5011156128be57831561287d576126e7848254611ff0565b9055600254600154875163095ea7b360e01b81529086166001600160a01b03168382019081526020810186905290918991839188169082908d90829060400103925af1801561287357612856575b5085519261274284611d7b565b60028452863689860137846002541661275a85611e99565b52846009541661276985611ea6565b52605f810294818604605f0361284457600154169261012c420190814211612833575089949392916127b686928a51988997889687956338ed173960e01b87526064309404918701611f86565b03925af190811561282957916127fa8694927f38a556a122683cb48d496614a7a03605b6c2c0482342924caf483386980ecc9f9896946080989161280f5750611ea6565b519282519586528501528301526060820152a1565b61282391503d8088833e610ef88183611d97565b38610d51565b83513d87823e3d90fd5b634e487b7160e01b8b52601184528afd5b634e487b7160e01b8a5260118352838afd5b61286c90883d8a11610694576106858183611d97565b5038612735565b87513d8b823e3d90fd5b50601c6064928888519362461bcd60e51b85528401528201527f556e7374616b652072657475726e6564207a65726f20746f6b656e73000000006044820152fd5b5060226084928888519362461bcd60e51b85528401528201527f5769746864726177616c206469646e277420696e6372656173652062616c616e604482015261636560f01b6064820152fd5b90508981813d8311612930575b6129218183611d97565b810103126113ef5751386126cf565b503d612917565b89513d8d823e3d90fd5b9095508981813d8311612969575b6129598183611d97565b810103126113ef575194386126a9565b503d61294f565b929350939495965081813d83116129a4575b61298c8183611d97565b810103126113ef5790898b9695949392519238612671565b503d612982565b825162461bcd60e51b815260048101859052601a60248201527f43616e6e6f7420756e7374616b65207a65726f20616d6f756e740000000000006044820152606490fd5b825162461bcd60e51b815260048101859052602660248201527f43616e6e6f7420756e7374616b65206d6f7265207468616e207374616b656420604482015265185b5bdd5b9d60d21b6064820152608490fd5b600090815260056020526040812060028101549093928115612aac57670de0b6b3a76400009283820291808304851490151715612a98575093612a8a612a9492600d96611edf565b9485910154611eb6565b0490565b634e487b7160e01b81526011600452602490fd5b5050809250919056fea26469706673582212208aea43713d52269c0cbe6898baa896c72e3faf39f7f3deefb39566917cb8709c64736f6c63430008140033",
  "linkReferences": {},
  "deployedLinkReferences": {}
}