{
  "_format": "hh-sol-artifact-1",
  "contractName": "LendingPool",
  "sourceName": "Contracts/Lending.sol",
  "abi": [
    {
      "inputs": [
        {
          "internalType": "address",
          "name": "usdc",
          "type": "address"
        },
        {
          "internalType": "address",
          "name": "_cbBtcToken",
          "type": "address"
        },
        {
          "internalType": "address",
          "name": "oracleAddress",
          "type": "address"
        },
        {
          "internalType": "address",
          "name": "_aavePool",
          "type": "address"
        },
        {
          "internalType": "address",
          "name": "_swapRouter",
          "type": "address"
        }
      ],
      "stateMutability": "nonpayable",
      "type": "constructor"
    },
    {
      "anonymous": false,
      "inputs": [
        {
          "indexed": false,
          "internalType": "bytes32",
          "name": "loanId",
          "type": "bytes32"
        },
        {
          "indexed": false,
          "internalType": "uint256",
          "name": "index",
          "type": "uint256"
        }
      ],
      "name": "InstallmentPaid",
      "type": "event"
    },
    {
      "anonymous": false,
      "inputs": [
        {
          "indexed": false,
          "internalType": "bytes32",
          "name": "id",
          "type": "bytes32"
        },
        {
          "indexed": false,
          "internalType": "uint256",
          "name": "amount",
          "type": "uint256"
        },
        {
          "indexed": false,
          "internalType": "uint256",
          "name": "collateral",
          "type": "uint256"
        },
        {
          "indexed": false,
          "internalType": "address",
          "name": "borrower",
          "type": "address"
        }
      ],
      "name": "LoanCreated",
      "type": "event"
    },
    {
      "anonymous": false,
      "inputs": [
        {
          "indexed": false,
          "internalType": "bytes32",
          "name": "id",
          "type": "bytes32"
        },
        {
          "indexed": false,
          "internalType": "address",
          "name": "borrower",
          "type": "address"
        },
        {
          "indexed": false,
          "internalType": "uint256",
          "name": "btcPriceNow",
          "type": "uint256"
        }
      ],
      "name": "LoanLiquidated",
      "type": "event"
    },
    {
      "anonymous": false,
      "inputs": [
        {
          "indexed": false,
          "internalType": "bytes32",
          "name": "loanId",
          "type": "bytes32"
        },
        {
          "indexed": false,
          "internalType": "address",
          "name": "borrower",
          "type": "address"
        },
        {
          "indexed": false,
          "internalType": "uint256",
          "name": "amount",
          "type": "uint256"
        },
        {
          "indexed": false,
          "internalType": "bool",
          "name": "fullyRepaid",
          "type": "bool"
        }
      ],
      "name": "Payout",
      "type": "event"
    },
    {
      "anonymous": false,
      "inputs": [
        {
          "indexed": false,
          "internalType": "bytes32",
          "name": "loanId",
          "type": "bytes32"
        },
        {
          "indexed": false,
          "internalType": "uint256",
          "name": "usdcAmount",
          "type": "uint256"
        },
        {
          "indexed": false,
          "internalType": "uint256",
          "name": "cbBtcAmount",
          "type": "uint256"
        }
      ],
      "name": "TokensStaked",
      "type": "event"
    },
    {
      "anonymous": false,
      "inputs": [
        {
          "indexed": false,
          "internalType": "bytes32",
          "name": "loanId",
          "type": "bytes32"
        },
        {
          "indexed": false,
          "internalType": "uint256",
          "name": "cbBtcAmount",
          "type": "uint256"
        },
        {
          "indexed": false,
          "internalType": "uint256",
          "name": "usdcAmount",
          "type": "uint256"
        },
        {
          "indexed": false,
          "internalType": "uint256",
          "name": "borrowerCbBtcShare",
          "type": "uint256"
        }
      ],
      "name": "TokensUnstaked",
      "type": "event"
    },
    {
      "inputs": [],
      "name": "aavePool",
      "outputs": [
        {
          "internalType": "contract IAavePool",
          "name": "",
          "type": "address"
        }
      ],
      "stateMutability": "view",
      "type": "function"
    },
    {
      "inputs": [],
      "name": "cbBtcToken",
      "outputs": [
        {
          "internalType": "address",
          "name": "",
          "type": "address"
        }
      ],
      "stateMutability": "view",
      "type": "function"
    },
    {
      "inputs": [],
      "name": "chainlinkOracle",
      "outputs": [
        {
          "internalType": "contract AggregatorV3Interface",
          "name": "",
          "type": "address"
        }
      ],
      "stateMutability": "view",
      "type": "function"
    },
    {
      "inputs": [
        {
          "internalType": "bytes32",
          "name": "loanId",
          "type": "bytes32"
        }
      ],
      "name": "getInstallmentSchedule",
      "outputs": [
        {
          "components": [
            {
              "internalType": "uint256",
              "name": "duePrincipal",
              "type": "uint256"
            },
            {
              "internalType": "uint256",
              "name": "dueInterest",
              "type": "uint256"
            },
            {
              "internalType": "bool",
              "name": "paid",
              "type": "bool"
            },
            {
              "internalType": "uint256",
              "name": "dueTimestamp",
              "type": "uint256"
            }
          ],
          "internalType": "struct LendingPool.Installment[]",
          "name": "",
          "type": "tuple[]"
        }
      ],
      "stateMutability": "view",
      "type": "function"
    },
    {
      "inputs": [],
      "name": "getPrice",
      "outputs": [
        {
          "internalType": "int256",
          "name": "",
          "type": "int256"
        }
      ],
      "stateMutability": "view",
      "type": "function"
    },
    {
      "inputs": [
        {
          "internalType": "address",
          "name": "",
          "type": "address"
        }
      ],
      "name": "hasActiveLoan",
      "outputs": [
        {
          "internalType": "bool",
          "name": "",
          "type": "bool"
        }
      ],
      "stateMutability": "view",
      "type": "function"
    },
    {
      "inputs": [
        {
          "internalType": "address",
          "name": "",
          "type": "address"
        }
      ],
      "name": "lenders",
      "outputs": [
        {
          "internalType": "uint256",
          "name": "totalContributed",
          "type": "uint256"
        }
      ],
      "stateMutability": "view",
      "type": "function"
    },
    {
      "inputs": [
        {
          "internalType": "bytes32",
          "name": "loanId",
          "type": "bytes32"
        }
      ],
      "name": "liquidate",
      "outputs": [],
      "stateMutability": "nonpayable",
      "type": "function"
    },
    {
      "inputs": [
        {
          "internalType": "bytes32",
          "name": "loanId",
          "type": "bytes32"
        }
      ],
      "name": "liquidateIfOverdue",
      "outputs": [],
      "stateMutability": "nonpayable",
      "type": "function"
    },
    {
      "inputs": [
        {
          "internalType": "uint256",
          "name": "totalAmount",
          "type": "uint256"
        },
        {
          "internalType": "uint256",
          "name": "durationMonths",
          "type": "uint256"
        },
        {
          "internalType": "uint256",
          "name": "annualInterestRate",
          "type": "uint256"
        },
        {
          "internalType": "address[]",
          "name": "lenderAddresses",
          "type": "address[]"
        },
        {
          "internalType": "uint256[]",
          "name": "lenderAmounts",
          "type": "uint256[]"
        }
      ],
      "name": "loan",
      "outputs": [],
      "stateMutability": "nonpayable",
      "type": "function"
    },
    {
      "inputs": [
        {
          "internalType": "uint256",
          "name": "",
          "type": "uint256"
        }
      ],
      "name": "loanIds",
      "outputs": [
        {
          "internalType": "bytes32",
          "name": "",
          "type": "bytes32"
        }
      ],
      "stateMutability": "view",
      "type": "function"
    },
    {
      "inputs": [
        {
          "internalType": "bytes32",
          "name": "",
          "type": "bytes32"
        }
      ],
      "name": "loans",
      "outputs": [
        {
          "internalType": "bytes32",
          "name": "id",
          "type": "bytes32"
        },
        {
          "internalType": "address",
          "name": "borrower",
          "type": "address"
        },
        {
          "internalType": "uint256",
          "name": "principal",
          "type": "uint256"
        },
        {
          "internalType": "uint256",
          "name": "borrowerDeposit",
          "type": "uint256"
        },
        {
          "internalType": "uint256",
          "name": "interestRate",
          "type": "uint256"
        },
        {
          "internalType": "uint256",
          "name": "duration",
          "type": "uint256"
        },
        {
          "internalType": "uint256",
          "name": "monthlyPayment",
          "type": "uint256"
        },
        {
          "internalType": "uint256",
          "name": "startTime",
          "type": "uint256"
        },
        {
          "internalType": "uint256",
          "name": "btcPriceAtCreation",
          "type": "uint256"
        },
        {
          "internalType": "bool",
          "name": "isActive",
          "type": "bool"
        },
        {
          "internalType": "uint256",
          "name": "stakedAmount",
          "type": "uint256"
        },
        {
          "internalType": "uint256",
          "name": "remainingPrincipal",
          "type": "uint256"
        }
      ],
      "stateMutability": "view",
      "type": "function"
    },
    {
      "inputs": [
        {
          "internalType": "bytes32",
          "name": "loanId",
          "type": "bytes32"
        },
        {
          "internalType": "uint256",
          "name": "index",
          "type": "uint256"
        }
      ],
      "name": "markInstallmentPaid",
      "outputs": [],
      "stateMutability": "nonpayable",
      "type": "function"
    },
    {
      "inputs": [],
      "name": "owner",
      "outputs": [
        {
          "internalType": "address",
          "name": "",
          "type": "address"
        }
      ],
      "stateMutability": "view",
      "type": "function"
    },
    {
      "inputs": [
        {
          "internalType": "bytes32",
          "name": "loanId",
          "type": "bytes32"
        },
        {
          "internalType": "uint256",
          "name": "usdcAmount",
          "type": "uint256"
        }
      ],
      "name": "payouts",
      "outputs": [],
      "stateMutability": "nonpayable",
      "type": "function"
    },
    {
      "inputs": [
        {
          "internalType": "address",
          "name": "_aavePool",
          "type": "address"
        }
      ],
      "name": "setAavePool",
      "outputs": [],
      "stateMutability": "nonpayable",
      "type": "function"
    },
    {
      "inputs": [
        {
          "internalType": "address",
          "name": "_cbBtcToken",
          "type": "address"
        }
      ],
      "name": "setCbBtcToken",
      "outputs": [],
      "stateMutability": "nonpayable",
      "type": "function"
    },
    {
      "inputs": [
        {
          "internalType": "address",
          "name": "oracleAddress",
          "type": "address"
        }
      ],
      "name": "setChainlinkOracle",
      "outputs": [],
      "stateMutability": "nonpayable",
      "type": "function"
    },
    {
      "inputs": [
        {
          "internalType": "address",
          "name": "_swapRouter",
          "type": "address"
        }
      ],
      "name": "setSwapRouter",
      "outputs": [],
      "stateMutability": "nonpayable",
      "type": "function"
    },
    {
      "inputs": [],
      "name": "swapRouter",
      "outputs": [
        {
          "internalType": "contract ISwapRouter",
          "name": "",
          "type": "address"
        }
      ],
      "stateMutability": "view",
      "type": "function"
    },
    {
      "inputs": [],
      "name": "usdcToken",
      "outputs": [
        {
          "internalType": "address",
          "name": "",
          "type": "address"
        }
      ],
      "stateMutability": "view",
      "type": "function"
    }
  ],
  "bytecode": "0x608034620000ec57601f6200280038819003918201601f19168301916001600160401b03831184841017620000f15780849260a094604052833981010312620000ec576200004d8162000107565b906200005c6020820162000107565b906200006b6040820162000107565b91620000886080620000806060850162000107565b930162000107565b9160018060a01b0319943386600854161760085560018060a01b039485809481809416896009541617600955168760025416176002551685600354161760035516836000541617600055169060015416176001556040516126e390816200011d8239f35b600080fd5b634e487b7160e01b600052604160045260246000fd5b51906001600160a01b0382168203620000ec5756fe6080604052600436101561001257600080fd5b6000803560e01c80630a71096e14611cbc5780630e46238614611c9357806311eac85514611c6a57806321d4f8db14611c2857806328830d471461194257806328fd10d714611905578063349f937c146118bc578063412736571461186f57806366fb6e5a14610d025780636c1945ae14610c015780637a9b041214610bb457806380f2122c1461044157806383cd8fcf146103f05780638da5cb5b146103c757806398d5fdca146103a4578063a03e4bc31461037d578063c31c9c0714610354578063c4a90815146102a1578063c9642d2a14610168578063ef06e72c1461013f5763f8715a421461010457600080fd5b3461013c57602036600319011261013c576004359060075482101561013c57602061012e83611f9f565b90546040519160031b1c8152f35b80fd5b503461013c578060031936011261013c576003546040516001600160a01b039091168152602090f35b503461013c5761017736611f89565b9061018d60018060a01b03600854163314612370565b8083526005602052600b604084206101ab60ff6009830154166123c6565b0190815483101561025c5760ff60026101c48585612354565b50015416610217578260026101fc7f3d05ac2057427ac2f84502e7efefebf5ae10d9529129c2979ce60fb97d46061495604095612354565b5001805460ff1916600117905582519182526020820152a180f35b60405162461bcd60e51b815260206004820152601f60248201527f496e7374616c6c6d656e7420616c7265616479206d61726b65642070616964006044820152606490fd5b60405162461bcd60e51b815260206004820152601960248201527f496e76616c696420696e7374616c6c6d656e7420696e646578000000000000006044820152606490fd5b503461013c57602036600319011261013c57604061018091600435815260056020522080549060018060a01b0360018201541690600281015460038201546004830154600584015460068501549060078601549260088701549460ff60098901541696600d600c8a0154990154996040519b8c5260208c015260408b015260608a0152608089015260a088015260c087015260e08601526101008501521515610120840152610140830152610160820152f35b503461013c578060031936011261013c576001546040516001600160a01b039091168152602090f35b503461013c578060031936011261013c57546040516001600160a01b039091168152602090f35b503461013c578060031936011261013c5760206103bf612073565b604051908152f35b503461013c578060031936011261013c576008546040516001600160a01b039091168152602090f35b503461013c57602036600319011261013c576004356001600160a01b038181169182900361043d5761042790600854163314612370565b6001600160601b0360a01b600254161760025580f35b8280fd5b503461013c5761045036611f89565b81835260056020526040832061046c60ff6009830154166123c6565b60018101546001600160a01b03163303610b6f576009546040516323b872dd60e01b815233600482015230602482015260448101849052906020908290606490829089906001600160a01b03165af18015610b6457610b45575b5060088101548015610b0c57670de0b6b3a76400008302838104670de0b6b3a76400001484151715610ad857906104fc91612154565b8491855b600b820154811080610b03575b15610af95761051f81600b8401612354565b5094600286015460ff8116610aec578654946001880154976105418988612174565b9283831061070a57928792610565926002600161056b9760ff191617910155612265565b96612174565b94600284015495895b600a8601548110156106c35761058d81600a8801612291565b50600181015480670de0b6b3a7640000810204670de0b6b3a764000014811517156106af578c61065693928c610626670de0b6b3a76400006105eb8f8f906105e46105dd85928360209c02612154565b8093612141565b0494612141565b04600384016105fb848254612174565b90556004840161060c828254612174565b905560095493546001600160a01b03948516941692612174565b60405163a9059cbb60e01b81526001600160a01b0390921660048301526024820152948592839182906044820190565b03925af19182156106a45761067092610675575b50612272565b610574565b6106969060203d60201161069d575b61068e818361203a565b8101906120f4565b503861066a565b503d610684565b6040513d8e823e3d90fd5b634e487b7160e01b8d52601160045260248dfd5b50955095509250610702907f3d05ac2057427ac2f84502e7efefebf5ae10d9529129c2979ce60fb97d46061460408051898152836020820152a1612272565b939193610500565b505050509392505092505b600d8301610724828254612265565b90558015908115610810575b505060019184600b820154905b8181106107da575b5050917fdc376abd09229a842ac7d8bcadc9017651f1f1b8490750870cae0ecd4aedf674939160809382610791575b50604051928352336020840152604083015215156060820152a180f35b60098101805460ff1990811690915560018201546001600160a01b0316885260066020526040882080549091169055600c01548015610774576107d49084612407565b38610774565b60ff60026107eb83600b8701612354565b5001541615610802576107fd90612272565b61073d565b508593508290506080610745565b84865260056020526040862091670de0b6b3a76400008202918204670de0b6b3a7640000141715610ad85781600c610859610861936002670de0b6b3a764000096015490612154565b910154612141565b04806108cf575b508284526005602052604084208485600a83018054905b8183106108a357505050610899600d916002840154612265565b9101553880610730565b9091926108c26108c89160036108b98786612291565b50015490612174565b93612272565b919061087f565b836000526005602052604060002090600c820180548211610a845760008054600254604051631a4ca37b60e21b81526001600160a01b03918216600482015260248101959095523060448601526020928592606492849291165af1918215610a2e57600092610a50575b50610945828254612265565b9055601981029080820460191481151715610a3a5760646109b4920460208161096e8185612265565b60025460019097015460405163a9059cbb60e01b81526001600160a01b039182166004820152602481019390935290969195869290911690829060009082906044820190565b03925af18015610a2e577f38a556a122683cb48d496614a7a03605b6c2c0482342924caf483386980ecc9f946080946109f292610a0f575b50612556565b60405192888452602084015260408301526060820152a138610868565b610a279060203d60201161069d5761068e818361203a565b50386109ec565b6040513d6000823e3d90fd5b634e487b7160e01b600052601160045260246000fd5b90916020823d602011610a7c575b81610a6b6020938361203a565b8101031261013c5750519038610939565b3d9150610a5e565b60405162461bcd60e51b815260206004820152602660248201527f43616e6e6f7420756e7374616b65206d6f7265207468616e207374616b656420604482015265185b5bdd5b9d60d21b6064820152608490fd5b634e487b7160e01b86526011600452602486fd5b5092945061070290612272565b5092919050610715565b5082151561050d565b60405162461bcd60e51b8152602060048201526011602482015270496e76616c69642042544320707269636560781b6044820152606490fd5b610b5d9060203d60201161069d5761068e818361203a565b50386104c6565b6040513d87823e3d90fd5b60405162461bcd60e51b815260206004820152601760248201527f4f6e6c7920626f72726f7765722063616e2072657061790000000000000000006044820152606490fd5b503461013c57602036600319011261013c576004356001600160a01b038181169182900361043d57610beb90600854163314612370565b6001600160601b0360a01b600354161760035580f35b503461013c576020908160031936011261013c5790600435825260058152600b60408320018054610c318161210c565b90610c3f604051928361203a565b8082528382018093865284862086915b838310610cb357505050506040519280840191818552518092526040840192945b828110610c7d5784840385f35b85518051855280830151858401526040808201511515908601526060908101519085015294810194608090930192600101610c70565b60048760019260409a9997989a51610cca81611fec565b85548152848601548382015260ff60028701541615156040820152600386015460608201528152019201920191909694939596610c4f565b503461013c5760a036600319011261013c5760643567ffffffffffffffff811161186b57610d34903690600401611f53565b9060843567ffffffffffffffff811161186757610d55903690600401611f53565b926004351561183157602435156117f957338552600660205260ff6040862054166117a85783810361174e57801561171357601460043502916004358304601403610ad857610da960648404600435612265565b6009546040516323b872dd60e01b8152336004820152306024820152606480870460448301529296929091602091839182908c906001600160a01b03165af18015611708576116e9575b509084929160405160208101903360601b825242603482015260348152610e198161201e565b519020968789526005602052606460408a209689885560018801336001600160601b0360a01b82541617905586600289015504600387015560443560048701556024356005870155426007870155610e6f612073565b600887015560098601805460ff19166001179055600d86018590558893845b8181106114985750505050500361144257670de0b6b3a764000060443502906044358204670de0b6b3a76400001460443515171561127957610ed46104b0830484612141565b6104b08304670de0b6b3a76400000180670de0b6b3a76400001161141a57801561142e57610f0f9060243590670de0b6b3a7640000046122ad565b670de0b6b3a76400000390670de0b6b3a7640000821161141a57600691610f3591612154565b91015582845260056020526040842091600683015485915b60243583106112c0578686600754600160401b8110156112ac57806001610f779201600755611f9f565b815460001960039290921b91821b19169083901b179055338252600660209081526040808420805460ff191660019081179091558385526005835281852060028101546009549254935163095ea7b360e01b81526001600160a01b039485166004820152602481018290529194909391929091839160449183918a91165af18015610b645761128d575b506040519061100f8261201e565b6002825260403660208401376009546001600160a01b031661103083612124565b526002546001600160a01b031661104683612131565b5280605f810204605f1481151715611279576001546001600160a01b0316904261012c810110610ad8579185916110a493836040518096819582946338ed173960e01b845261012c42019130916064605f82020490600487016121fb565b03925af1801561126e576110bf91859161124c575b50612131565b518284526005602090815260408086206002548754925163095ea7b360e01b81526001600160a01b0393841660048201526024810186905291939192839160449183918b91165af180156112225761122d575b50845460025486916001600160a01b039182169116803b1561043d5760848392604051948593849263617ba03760e01b845260048401528860248401523060448401528160648401525af18015611222576111f1575b506080927faeec09af87559b9077da2e499d1fad2e228d7c24cb4b566fe61976820abaadda6060846002857f65410888fb30edd04f6acfb2f6cfd92aaf0ebb9b5303b6286d65d0b031b5b7f79997600c60039801550154906040519187835260208301526040820152a1015460405191825260043560208301526040820152336060820152a180f35b67ffffffffffffffff819692961161120e57604052936080611168565b634e487b7160e01b82526041600452602482fd5b6040513d88823e3d90fd5b6112459060203d60201161069d5761068e818361203a565b5085611112565b61126891503d8087833e611260818361203a565b810190612181565b856110b9565b6040513d86823e3d90fd5b634e487b7160e01b85526011600452602485fd5b6112a59060203d60201161069d5761068e818361203a565b5084611001565b634e487b7160e01b83526041600452602483fd5b670de0b6b3a76400006112d76104b0860483612141565b04906112e38284612265565b91602435600019810111611406576024356000190185146113f1575b62278d0085818102048114861517156113dd5761131e90860242612174565b6040519161132b83611fec565b84835260208301528960408301526060820152600b870154600160401b8110156113c9578060016113659201600b8a0155600b8901612354565b9190916113b557916113af939160036060856113a99651845560208101516001850155600284016040820151151560ff801983541691161790550151910155612265565b92612272565b91610f4d565b634e487b7160e01b8a5260048a905260248afd5b634e487b7160e01b8a52604160045260248afd5b634e487b7160e01b8a52601160045260248afd5b92509050806114008382612174565b926112ff565b634e487b7160e01b89526011600452602489fd5b634e487b7160e01b87526011600452602487fd5b634e487b7160e01b87526012600452602487fd5b60405162461bcd60e51b815260206004820152602860248201527f436f6c6c656374656420616d6f756e7420646f65736e2774206d6174636820706044820152671c9a5b98da5c185b60c21b6064820152608490fd5b909192939495506114aa818386612281565b356001600160a01b03811681036116e5576114c6828588612281565b359687156116a8578b90602061151c60018060a01b03600954168b6040519586809481936323b872dd60e01b8352308b6004850160409194939294606082019560018060a01b0380921683521660208201520152565b03925af190811561169d57611538928a9261167e575b50612174565b9660018060a01b0382168c52600460205260408c20611558828254612174565b90556104b061157460243561156f60443585612141565b612141565b0490604051928360a081011067ffffffffffffffff60a08601111761166a5760a0840160405260018060a01b03168352602083015260408201528a60608201528a6080820152600a880154600160401b811015611656578060016115e19201600a8b0155600a8a01612291565b91909161164257805182546001600160a01b0319166001600160a01b03919091161782556020810151600183015560408101516002830155606081015160038301556080015160049091015561163690612272565b90879594939291610e8e565b634e487b7160e01b8c5260048c905260248cfd5b634e487b7160e01b8c52604160045260248cfd5b634e487b7160e01b8e52604160045260248efd5b6116969060203d60201161069d5761068e818361203a565b5038611532565b6040513d8f823e3d90fd5b60405162461bcd60e51b8152602060048201526015602482015274125b9d985b1a59081b195b99195c88185b5bdd5b9d605a1b6044820152606490fd5b8a80fd5b6117019060203d60201161069d5761068e818361203a565b5038610df3565b6040513d8a823e3d90fd5b60405162461bcd60e51b8152602060048201526013602482015272139bc81b195b99195c9cc81c1c9bdd9a591959606a1b6044820152606490fd5b60405162461bcd60e51b815260206004820152602c60248201527f4c656e6465722061646472657373657320616e6420616d6f756e7473206c656e60448201526b0cee8d040dad2e6dac2e8c6d60a31b6064820152608490fd5b60405162461bcd60e51b815260206004820152602360248201527f426f72726f77657220616c72656164792068617320616e20616374697665206c60448201526237b0b760e91b6064820152608490fd5b60405162461bcd60e51b815260206004820152601060248201526f24b73b30b634b210323ab930ba34b7b760811b6044820152606490fd5b60405162461bcd60e51b815260206004820152600e60248201526d125b9d985b1a5908185b5bdd5b9d60921b6044820152606490fd5b8380fd5b5080fd5b503461013c57602036600319011261013c576004356001600160a01b038181169182900361043d576118a690600854163314612370565b6001600160601b0360a01b600154161760015580f35b503461013c57602036600319011261013c576004356001600160a01b038181169182900361043d576118f390600854163314612370565b81546001600160a01b03191617815580f35b503461013c57602036600319011261013c576004356001600160a01b0381169081900361186b578160409160209352600483522054604051908152f35b503461013c5760208060031936011261186b5760043560018060a01b0361196e81600854163314612370565b8184526005835260408420926009908185019182549260ff6119918186166123c6565b88908990600b8a018054925b838110611bd857505050506276a7001015611b7e5760ff1980941690556001808701938585541689526006845260408920908154169055600c87015480611b6e575b50600380880154600d8901549182611a53575b8a7fcab88a55906c5830a49dddd8b31d115294a5e6c4210f25fe140530a39c51dc748a8a8a541690611a4d611a25612073565b604080519384526001600160a01b039094166020840152928201929092529081906060820190565b0390a180f35b9091928099600a8c9101915b611a6a575b506119f2565b8154811015611b6957611a7d8183612291565b50611a8f8c8201548583015490612265565b8c8115611b585750670de0b6b3a7640000908181029081048203611b44578796959493928f9192611acd611ac7611b099b8e96612154565b89612141565b04918d808c541692541690604051809b8195829463a9059cbb60e01b84526004840160209093929193604081019460018060a01b031681520152565b03925af190811561169d578c96611b2492611b2e5750612272565b9091929394611a5f565b610696908a3d8c1161069d5761068e818361203a565b634e487b7160e01b8f52601160045260248ffd5b96959493929050611b249150612272565b611a64565b611b789087612407565b386119df565b60405162461bcd60e51b815260048101849052602c60248201527f4c6f616e206973206e6f74206f766572647565206265796f6e642033206d6f6e60448201526b1d1a1cc81a5b881d1bdd185b60a21b6064820152608490fd5b611be28183612354565b5083600282015416611bfa5760030154804211611c09575b50611c0490612272565b61199d565b611c049195611c1b611c219242612265565b90612174565b9490611bfa565b503461013c57602036600319011261013c576004356001600160a01b0381169081900361186b5760408260ff9260209452600684522054166040519015158152f35b503461013c578060031936011261013c576009546040516001600160a01b039091168152602090f35b503461013c578060031936011261013c576002546040516001600160a01b039091168152602090f35b503461013c57602036600319011261013c57611ce360018060a01b03600854163314612370565b600435815260056020526040812060098101805491611d0460ff84166123c6565b611d0c612073565b91600c82016305f5e100611d21858354612141565b0491600d8401928354606981029080820460691490151715611406576064900410611ef05760ff1995861690556001830180546001600160a01b0316875260066020526040872080549096169095555480611ede575b50600382015490549182611dd6575b505091546040805160043581526001600160a01b0390921660208301528101919091527fcab88a55906c5830a49dddd8b31d115294a5e6c4210f25fe140530a39c51dc7491508060608101611a4d565b909192855b600a830154811015611eb157611df481600a8501612291565b50611e086001820154600383015490612265565b8015611ea65780670de0b6b3a7640000810204670de0b6b3a76400000361140657611e889291670de0b6b3a7640000611e48611ac78a8360209602612154565b600954925460405163a9059cbb60e01b81526001600160a01b039182166004820152929091046024830152909485929091169082908c9082906044820190565b03925af191821561170857611ea1926106755750612272565b611ddb565b5050611ea190612272565b50925050507fcab88a55906c5830a49dddd8b31d115294a5e6c4210f25fe140530a39c51dc743880611d86565b611eea90600435612407565b38611d77565b60405162461bcd60e51b815260206004820152603560248201527f4254432076616c756520686173206e6f742064726f707065642062656c6f77206044820152741b1a5c5d5a59185d1a5bdb881d1a1c995cda1bdb19605a1b6064820152608490fd5b9181601f84011215611f845782359167ffffffffffffffff8311611f84576020808501948460051b010111611f8457565b600080fd5b6040906003190112611f84576004359060243590565b600754811015611fd65760076000527fa66cc928b5edb82af9bd49922954155ab7b0942694bea4ce44661d9a8736c6880190600090565b634e487b7160e01b600052603260045260246000fd5b6080810190811067ffffffffffffffff82111761200857604052565b634e487b7160e01b600052604160045260246000fd5b6060810190811067ffffffffffffffff82111761200857604052565b90601f8019910116810190811067ffffffffffffffff82111761200857604052565b519069ffffffffffffffffffff82168203611f8457565b600354604051633fabe5a360e21b81529060a090829060049082906001600160a01b03165afa908115610a2e576000916120ab575090565b9060a0823d82116120ec575b816120c460a0938361203a565b8101031261013c57506120d68161205c565b506120e860806020830151920161205c565b5090565b3d91506120b7565b90816020910312611f8457518015158103611f845790565b67ffffffffffffffff81116120085760051b60200190565b805115611fd65760200190565b805160011015611fd65760400190565b81810292918115918404141715610a3a57565b811561215e570490565b634e487b7160e01b600052601260045260246000fd5b91908201809211610a3a57565b6020908181840312611f845780519067ffffffffffffffff8211611f8457019180601f84011215611f845782516121b78161210c565b936121c5604051958661203a565b818552838086019260051b820101928311611f84578301905b8282106121ec575050505090565b815181529083019083016121de565b9291909594939560a084019084526020918285015260a0604085015282518091528160c0850193019160005b8281106122485750505050906080919460018060a01b031660608201520152565b83516001600160a01b031685529381019392810192600101612227565b91908203918211610a3a57565b6000198114610a3a5760010190565b9190811015611fd65760051b0190565b8054821015611fd6576000526005602060002091020190600090565b90801561234d57811561234657818060011461233e5760021461232d5760208110610133831016604e8210600b8410161761232857600190815b8082116122ff57505081600019048111610a3a570290565b909280600019048111610a3a5781841661231f575b800292811c906122e7565b80920291612314565b900a90565b905060ff8111610a3a576001901b90565b505050600190565b5050600090565b5050600190565b8054821015611fd65760005260206000209060021b0190600090565b1561237757565b60405162461bcd60e51b815260206004820152602160248201527f4f6e6c79206f776e65722063616e2063616c6c20746869732066756e6374696f6044820152603760f91b6064820152608490fd5b156123cd57565b60405162461bcd60e51b81526020600482015260126024820152714c6f616e206973206e6f742061637469766560701b6044820152606490fd5b9060009082825260209060058252604090600c82852001805482116125035784546002548451631a4ca37b60e21b81526001600160a01b03918216600482015260248101949094523060448501528591849160649183918a91165af19182156124f95785926124c5575b509181836124a67f38a556a122683cb48d496614a7a03605b6c2c0482342924caf483386980ecc9f9896946080989654612265565b90556124b181612556565b9282519586528501528301526060820152a1565b9091508381813d83116124f2575b6124dd818361203a565b810103126124ee5751906080612471565b8480fd5b503d6124d3565b83513d87823e3d90fd5b825162461bcd60e51b815260048101859052602660248201527f43616e6e6f7420756e7374616b65206d6f7265207468616e207374616b656420604482015265185b5bdd5b9d60d21b6064820152608490fd5b6002546001546040805163095ea7b360e01b81526001600160a01b03928316600482015260248101859052600095949193919291602090829060449082908a9087165af180156126a357612685575b5082516125b18161201e565b600281528336602083013781600254166125ca82612124565b5281600954166125d982612131565b52605f830291838304605f148415171561141a57600154169061012c4201938442116126715790878094939261262a8851978896879586946338ed173960e01b8652606430930490600487016121fb565b03925af191821561266857508361264993949261264d575b5050612131565b5190565b61266192503d8091833e611260818361203a565b3880612642565b513d85823e3d90fd5b634e487b7160e01b88526011600452602488fd5b61269c9060203d811161069d5761068e818361203a565b50386125a5565b84513d88823e3d90fdfea264697066735822122067af01fe44e4e0eff65518bb8a7fa6ba5fd6583082d3214edb4b692a072cea1164736f6c63430008140033",
  "linkReferences": {},
  "deployedLinkReferences": {}
}