{
  "_format": "hh-sol-artifact-1",
  "contractName": "MockBTCPriceOracle",
  "sourceName": "Contracts/Helper.sol",
  "abi": [
    {
      "inputs": [
        {
          "internalType": "int256",
          "name": "initialPrice",
          "type": "int256"
        }
      ],
      "stateMutability": "nonpayable",
      "type": "constructor"
    },
    {
      "anonymous": false,
      "inputs": [
        {
          "indexed": false,
          "internalType": "int256",
          "name": "price",
          "type": "int256"
        }
      ],
      "name": "PriceUpdated",
      "type": "event"
    },
    {
      "inputs": [],
      "name": "decimals",
      "outputs": [
        {
          "internalType": "uint8",
          "name": "",
          "type": "uint8"
        }
      ],
      "stateMutability": "view",
      "type": "function"
    },
    {
      "inputs": [],
      "name": "description",
      "outputs": [
        {
          "internalType": "string",
          "name": "",
          "type": "string"
        }
      ],
      "stateMutability": "view",
      "type": "function"
    },
    {
      "inputs": [],
      "name": "latestRoundData",
      "outputs": [
        {
          "internalType": "uint80",
          "name": "roundId",
          "type": "uint80"
        },
        {
          "internalType": "int256",
          "name": "answer",
          "type": "int256"
        },
        {
          "internalType": "uint256",
          "name": "startedAt",
          "type": "uint256"
        },
        {
          "internalType": "uint256",
          "name": "updatedAt",
          "type": "uint256"
        },
        {
          "internalType": "uint80",
          "name": "answeredInRound",
          "type": "uint80"
        }
      ],
      "stateMutability": "view",
      "type": "function"
    },
    {
      "inputs": [],
      "name": "owner",
      "outputs": [
        {
          "internalType": "address",
          "name": "",
          "type": "address"
        }
      ],
      "stateMutability": "view",
      "type": "function"
    },
    {
      "inputs": [
        {
          "internalType": "int256",
          "name": "newPrice",
          "type": "int256"
        }
      ],
      "name": "updatePrice",
      "outputs": [],
      "stateMutability": "nonpayable",
      "type": "function"
    },
    {
      "inputs": [],
      "name": "version",
      "outputs": [
        {
          "internalType": "uint256",
          "name": "",
          "type": "uint256"
        }
      ],
      "stateMutability": "view",
      "type": "function"
    }
  ],
  "bytecode": "0x60803461012757601f6104b738819003918201601f19168301916001600160401b0383118484101761012c5780849260209460405283398101031261012757516001805460ff1916600817815560025480821c908216801561011d575b602082101461010757601f81116100ba575b507f4d6f636b20425443202f2055534400000000000000000000000000000000001c600255600355600055600480546001600160a01b0319163317905560405161037490816101438239f35b6002600052601f0160051c7f405787fa12a823e0f2b7631cc41b3ba8828b3321ca811111fa75cd3aa3bb5ace9081019082905b8281106100fb57505061006e565b600081550182906100ed565b634e487b7160e01b600052602260045260246000fd5b90607f169061005c565b600080fd5b634e487b7160e01b600052604160045260246000fdfe608060408181526004918236101561001657600080fd5b600090813560e01c908163313ce5671461031f5750806354fd4d50146102fc5780637284e4161461019d5780638da5cb5b14610175578063d4c19bda146100cb5763feaf968c1461006657600080fd5b346100c857806003193601126100c85769ffffffffffffffffffff431690805492610e0f194201914283116100b5575060a0945080519383855260208501528301524260608301526080820152f35b634e487b7160e01b815260118652602490fd5b80fd5b50919034610171576020366003190112610171578154823592906001600160a01b031633036101255750816020917ffa6bd982fa4e58a45ea44e1fe84ab8e9de93c3310ec81db62565ac50139a6ca393855551908152a180f35b6020608492519162461bcd60e51b8352820152602160248201527f4f6e6c79206f776e65722063616e2063616c6c20746869732066756e6374696f6044820152603760f91b6064820152fd5b8280fd5b5091346101715782600319360112610171575490516001600160a01b03909116815260209150f35b5091903461017157826003193601126101715780518360025460019581871c8783169788156102f2575b6020938483108a146102df57848798999a84895291826000146102c357505060011461026f575b5050601f801995869203011683019583871067ffffffffffffffff88111761025c575085929391838652818452845191828186015281955b8387106102445750508394508582601f949501015201168101030190f35b86810182015189880189015295810195889550610226565b634e487b7160e01b835260419052602482fd5b600285528492507f405787fa12a823e0f2b7631cc41b3ba8828b3321ca811111fa75cd3aa3bb5ace5b8284106102ad575050508301810138806101ee565b8054888501860152879650928401928101610298565b925093505060ff191682860152151560051b84010138806101ee565b634e487b7160e01b865260228952602486fd5b90607f16906101c7565b50903461031b578160031936011261031b576020906003549051908152f35b5080fd5b90503461031b578160031936011261031b5760209060ff600154168152f3fea2646970667358221220feb34c46e25671ef9d02d1faf5c975cf9838a6c071cc2fb09a57585e84474a7a64736f6c63430008140033",
  "linkReferences": {},
  "deployedLinkReferences": {}
}