{
  "_format": "hh-sol-artifact-1",
  "contractName": "MockAavePool",
  "sourceName": "Contracts/Helper.sol",
  "abi": [
    {
      "inputs": [],
      "stateMutability": "nonpayable",
      "type": "constructor"
    },
    {
      "anonymous": false,
      "inputs": [
        {
          "indexed": true,
          "internalType": "address",
          "name": "asset",
          "type": "address"
        },
        {
          "indexed": false,
          "internalType": "uint256",
          "name": "rate",
          "type": "uint256"
        }
      ],
      "name": "InterestRateSet",
      "type": "event"
    },
    {
      "anonymous": false,
      "inputs": [
        {
          "indexed": true,
          "internalType": "address",
          "name": "asset",
          "type": "address"
        },
        {
          "indexed": true,
          "internalType": "address",
          "name": "user",
          "type": "address"
        },
        {
          "indexed": false,
          "internalType": "uint256",
          "name": "amount",
          "type": "uint256"
        }
      ],
      "name": "Supply",
      "type": "event"
    },
    {
      "anonymous": false,
      "inputs": [
        {
          "indexed": true,
          "internalType": "address",
          "name": "asset",
          "type": "address"
        },
        {
          "indexed": true,
          "internalType": "address",
          "name": "user",
          "type": "address"
        },
        {
          "indexed": false,
          "internalType": "uint256",
          "name": "amount",
          "type": "uint256"
        }
      ],
      "name": "Withdraw",
      "type": "event"
    },
    {
      "inputs": [
        {
          "internalType": "address",
          "name": "asset",
          "type": "address"
        }
      ],
      "name": "getTotalSupply",
      "outputs": [
        {
          "internalType": "uint256",
          "name": "",
          "type": "uint256"
        }
      ],
      "stateMutability": "view",
      "type": "function"
    },
    {
      "inputs": [
        {
          "internalType": "address",
          "name": "asset",
          "type": "address"
        },
        {
          "internalType": "address",
          "name": "user",
          "type": "address"
        }
      ],
      "name": "getUserSupply",
      "outputs": [
        {
          "internalType": "uint256",
          "name": "",
          "type": "uint256"
        }
      ],
      "stateMutability": "view",
      "type": "function"
    },
    {
      "inputs": [
        {
          "internalType": "address",
          "name": "",
          "type": "address"
        }
      ],
      "name": "interestRates",
      "outputs": [
        {
          "internalType": "uint256",
          "name": "",
          "type": "uint256"
        }
      ],
      "stateMutability": "view",
      "type": "function"
    },
    {
      "inputs": [],
      "name": "owner",
      "outputs": [
        {
          "internalType": "address",
          "name": "",
          "type": "address"
        }
      ],
      "stateMutability": "view",
      "type": "function"
    },
    {
      "inputs": [
        {
          "internalType": "address",
          "name": "asset",
          "type": "address"
        },
        {
          "internalType": "uint256",
          "name": "rate",
          "type": "uint256"
        }
      ],
      "name": "setInterestRate",
      "outputs": [],
      "stateMutability": "nonpayable",
      "type": "function"
    },
    {
      "inputs": [
        {
          "internalType": "address",
          "name": "asset",
          "type": "address"
        },
        {
          "internalType": "uint256",
          "name": "amount",
          "type": "uint256"
        },
        {
          "internalType": "address",
          "name": "onBehalfOf",
          "type": "address"
        },
        {
          "internalType": "uint16",
          "name": "referralCode",
          "type": "uint16"
        }
      ],
      "name": "supply",
      "outputs": [],
      "stateMutability": "nonpayable",
      "type": "function"
    },
    {
      "inputs": [
        {
          "internalType": "address",
          "name": "",
          "type": "address"
        }
      ],
      "name": "totalSupplies",
      "outputs": [
        {
          "internalType": "uint256",
          "name": "",
          "type": "uint256"
        }
      ],
      "stateMutability": "view",
      "type": "function"
    },
    {
      "inputs": [
        {
          "internalType": "address",
          "name": "",
          "type": "address"
        },
        {
          "internalType": "address",
          "name": "",
          "type": "address"
        }
      ],
      "name": "userSupplies",
      "outputs": [
        {
          "internalType": "uint256",
          "name": "",
          "type": "uint256"
        }
      ],
      "stateMutability": "view",
      "type": "function"
    },
    {
      "inputs": [
        {
          "internalType": "address",
          "name": "asset",
          "type": "address"
        },
        {
          "internalType": "uint256",
          "name": "amount",
          "type": "uint256"
        },
        {
          "internalType": "address",
          "name": "to",
          "type": "address"
        }
      ],
      "name": "withdraw",
      "outputs": [
        {
          "internalType": "uint256",
          "name": "",
          "type": "uint256"
        }
      ],
      "stateMutability": "nonpayable",
      "type": "function"
    }
  ],
  "bytecode": "0x6080806040523461002857600380546001600160a01b03191633179055610618908161002e8239f35b600080fdfe608060408181526004918236101561001657600080fd5b600092833560e01c918263028cc651146104e357508163617ba0371461038e57816368da10ae1461036657816369328dec1461022957816373e5515e14610168575080638da5cb5b146101405780639782e82114610109578063dccda03d146100d25763ee9e836d1461008857600080fd5b346100ce57806003193601126100ce57806020926100a4610528565b6100ac610543565b6001600160a01b03918216835282865283832091168252845220549051908152f35b5080fd5b50346100ce5760203660031901126100ce5760209181906001600160a01b036100f9610528565b1681526002845220549051908152f35b50346100ce5760203660031901126100ce5760209181906001600160a01b03610130610528565b1681526001845220549051908152f35b50346100ce57816003193601126100ce5760035490516001600160a01b039091168152602090f35b905034610225578160031936011261022557610182610528565b600354602435926001600160a01b039291831633036101d85750916020917fcd71eadfd232caec497a12178db6d8be8a15f0f645b648615007e6e8e7143c8893169384865260028352818187205551908152a280f35b608490602086519162461bcd60e51b8352820152602160248201527f4f6e6c79206f776e65722063616e2063616c6c20746869732066756e6374696f6044820152603760f91b6064820152fd5b8280fd5b9190503461022557606036600319011261022557610245610528565b9160243592610252610559565b913386526020958087528481209260018060a01b03809116938483528852858220805490888203918211610353575585519463a9059cbb60e01b865216938483820152866024820152878160448185885af1918215610348579161031b575b50156102e657507f9b1bfa7fa9ee420a16e124f794c35ac9f90472acc99140eb2f6447c714cad8eb858451868152a351908152f35b835162461bcd60e51b8152908101869052600f60248201526e151c985b9cd9995c8819985a5b1959608a1b6044820152606490fd5b61033b9150873d8911610341575b610333818361056f565b8101906105a7565b386102b1565b503d610329565b8651903d90823e3d90fd5b634e487b7160e01b845260118552602484fd5b5050346100ce5760203660031901126100ce5760209181906001600160a01b03610130610528565b91905034610225576080366003190112610225576103aa610528565b90602435916103b7610559565b9260643561ffff8116036104df57801561049c5782516323b872dd60e01b81523395810195909552306024860152604485018190526001600160a01b039182169260209283876064818b895af1968715610492577fd1cf3d156d5f8f0d50f6c122ed609cec09d35c9b9fb3fff6ea0959134dae424e959697610475575b5085885287845281882096169586885283528087206104548382546105bf565b90558487526001835280872061046b8382546105bf565b905551908152a380f35b61048b90853d871161034157610333818361056f565b5038610434565b82513d8a823e3d90fd5b825162461bcd60e51b8152602081870152601d60248201527f416d6f756e74206d7573742062652067726561746572207468616e20300000006044820152606490fd5b8580fd5b84908434610225578060031936011261022557602092610501610528565b610509610543565b6001600160a01b03918216835282865283832091168252845220548152f35b600435906001600160a01b038216820361053e57565b600080fd5b602435906001600160a01b038216820361053e57565b604435906001600160a01b038216820361053e57565b90601f8019910116810190811067ffffffffffffffff82111761059157604052565b634e487b7160e01b600052604160045260246000fd5b9081602091031261053e5751801515810361053e5790565b919082018092116105cc57565b634e487b7160e01b600052601160045260246000fdfea2646970667358221220b78f184320f9090bed29c34b65c3d448d636c0cbc5236ab52f107b082906865864736f6c63430008140033",
  "linkReferences": {},
  "deployedLinkReferences": {}
}