{
  "_format": "hh-sol-artifact-1",
  "contractName": "MockCbBTC",
  "sourceName": "Contracts/Helper.sol",
  "abi": [
    {
      "inputs": [],
      "stateMutability": "nonpayable",
      "type": "constructor"
    },
    {
      "inputs": [
        {
          "internalType": "address",
          "name": "spender",
          "type": "address"
        },
        {
          "internalType": "uint256",
          "name": "allowance",
          "type": "uint256"
        },
        {
          "internalType": "uint256",
          "name": "needed",
          "type": "uint256"
        }
      ],
      "name": "ERC20InsufficientAllowance",
      "type": "error"
    },
    {
      "inputs": [
        {
          "internalType": "address",
          "name": "sender",
          "type": "address"
        },
        {
          "internalType": "uint256",
          "name": "balance",
          "type": "uint256"
        },
        {
          "internalType": "uint256",
          "name": "needed",
          "type": "uint256"
        }
      ],
      "name": "ERC20InsufficientBalance",
      "type": "error"
    },
    {
      "inputs": [
        {
          "internalType": "address",
          "name": "approver",
          "type": "address"
        }
      ],
      "name": "ERC20InvalidApprover",
      "type": "error"
    },
    {
      "inputs": [
        {
          "internalType": "address",
          "name": "receiver",
          "type": "address"
        }
      ],
      "name": "ERC20InvalidReceiver",
      "type": "error"
    },
    {
      "inputs": [
        {
          "internalType": "address",
          "name": "sender",
          "type": "address"
        }
      ],
      "name": "ERC20InvalidSender",
      "type": "error"
    },
    {
      "inputs": [
        {
          "internalType": "address",
          "name": "spender",
          "type": "address"
        }
      ],
      "name": "ERC20InvalidSpender",
      "type": "error"
    },
    {
      "inputs": [
        {
          "internalType": "address",
          "name": "owner",
          "type": "address"
        }
      ],
      "name": "OwnableInvalidOwner",
      "type": "error"
    },
    {
      "inputs": [
        {
          "internalType": "address",
          "name": "account",
          "type": "address"
        }
      ],
      "name": "OwnableUnauthorizedAccount",
      "type": "error"
    },
    {
      "anonymous": false,
      "inputs": [
        {
          "indexed": true,
          "internalType": "address",
          "name": "owner",
          "type": "address"
        },
        {
          "indexed": true,
          "internalType": "address",
          "name": "spender",
          "type": "address"
        },
        {
          "indexed": false,
          "internalType": "uint256",
          "name": "value",
          "type": "uint256"
        }
      ],
      "name": "Approval",
      "type": "event"
    },
    {
      "anonymous": false,
      "inputs": [
        {
          "indexed": true,
          "internalType": "address",
          "name": "previousOwner",
          "type": "address"
        },
        {
          "indexed": true,
          "internalType": "address",
          "name": "newOwner",
          "type": "address"
        }
      ],
      "name": "OwnershipTransferred",
      "type": "event"
    },
    {
      "anonymous": false,
      "inputs": [
        {
          "indexed": true,
          "internalType": "address",
          "name": "from",
          "type": "address"
        },
        {
          "indexed": true,
          "internalType": "address",
          "name": "to",
          "type": "address"
        },
        {
          "indexed": false,
          "internalType": "uint256",
          "name": "value",
          "type": "uint256"
        }
      ],
      "name": "Transfer",
      "type": "event"
    },
    {
      "inputs": [
        {
          "internalType": "address",
          "name": "owner",
          "type": "address"
        },
        {
          "internalType": "address",
          "name": "spender",
          "type": "address"
        }
      ],
      "name": "allowance",
      "outputs": [
        {
          "internalType": "uint256",
          "name": "",
          "type": "uint256"
        }
      ],
      "stateMutability": "view",
      "type": "function"
    },
    {
      "inputs": [
        {
          "internalType": "address",
          "name": "spender",
          "type": "address"
        },
        {
          "internalType": "uint256",
          "name": "value",
          "type": "uint256"
        }
      ],
      "name": "approve",
      "outputs": [
        {
          "internalType": "bool",
          "name": "",
          "type": "bool"
        }
      ],
      "stateMutability": "nonpayable",
      "type": "function"
    },
    {
      "inputs": [
        {
          "internalType": "address",
          "name": "account",
          "type": "address"
        }
      ],
      "name": "balanceOf",
      "outputs": [
        {
          "internalType": "uint256",
          "name": "",
          "type": "uint256"
        }
      ],
      "stateMutability": "view",
      "type": "function"
    },
    {
      "inputs": [],
      "name": "decimals",
      "outputs": [
        {
          "internalType": "uint8",
          "name": "",
          "type": "uint8"
        }
      ],
      "stateMutability": "view",
      "type": "function"
    },
    {
      "inputs": [
        {
          "internalType": "uint256",
          "name": "amount",
          "type": "uint256"
        }
      ],
      "name": "faucet",
      "outputs": [],
      "stateMutability": "nonpayable",
      "type": "function"
    },
    {
      "inputs": [
        {
          "internalType": "address",
          "name": "to",
          "type": "address"
        },
        {
          "internalType": "uint256",
          "name": "amount",
          "type": "uint256"
        }
      ],
      "name": "mint",
      "outputs": [],
      "stateMutability": "nonpayable",
      "type": "function"
    },
    {
      "inputs": [],
      "name": "name",
      "outputs": [
        {
          "internalType": "string",
          "name": "",
          "type": "string"
        }
      ],
      "stateMutability": "view",
      "type": "function"
    },
    {
      "inputs": [],
      "name": "owner",
      "outputs": [
        {
          "internalType": "address",
          "name": "",
          "type": "address"
        }
      ],
      "stateMutability": "view",
      "type": "function"
    },
    {
      "inputs": [],
      "name": "renounceOwnership",
      "outputs": [],
      "stateMutability": "nonpayable",
      "type": "function"
    },
    {
      "inputs": [],
      "name": "symbol",
      "outputs": [
        {
          "internalType": "string",
          "name": "",
          "type": "string"
        }
      ],
      "stateMutability": "view",
      "type": "function"
    },
    {
      "inputs": [],
      "name": "totalSupply",
      "outputs": [
        {
          "internalType": "uint256",
          "name": "",
          "type": "uint256"
        }
      ],
      "stateMutability": "view",
      "type": "function"
    },
    {
      "inputs": [
        {
          "internalType": "address",
          "name": "to",
          "type": "address"
        },
        {
          "internalType": "uint256",
          "name": "value",
          "type": "uint256"
        }
      ],
      "name": "transfer",
      "outputs": [
        {
          "internalType": "bool",
          "name": "",
          "type": "bool"
        }
      ],
      "stateMutability": "nonpayable",
      "type": "function"
    },
    {
      "inputs": [
        {
          "internalType": "address",
          "name": "from",
          "type": "address"
        },
        {
          "internalType": "address",
          "name": "to",
          "type": "address"
        },
        {
          "internalType": "uint256",
          "name": "value",
          "type": "uint256"
        }
      ],
      "name": "transferFrom",
      "outputs": [
        {
          "internalType": "bool",
          "name": "",
          "type": "bool"
        }
      ],
      "stateMutability": "nonpayable",
      "type": "function"
    },
    {
      "inputs": [
        {
          "internalType": "address",
          "name": "newOwner",
          "type": "address"
        }
      ],
      "name": "transferOwnership",
      "outputs": [],
      "stateMutability": "nonpayable",
      "type": "function"
    }
  ],
  "bytecode": "0x60803462000385576040906001600160401b0390808301828111828210176200028757835260118152602090704d6f636b20436f696e626173652042544360781b82820152835192848401848110828211176200028757855260059384815264636242544360d81b84820152825182811162000287576003918254916001958684811c941680156200037a575b8885101462000364578190601f9485811162000310575b508890858311600114620002a9576000926200029d575b505060001982861b1c191690861b1783555b8051938411620002875760049586548681811c911680156200027c575b8282101462000267578381116200021e575b5080928511600114620001b05750938394918492600095620001a4575b50501b92600019911b1c19161781555b33156200018d57508054915191336001600160a01b0382167f8be0079c531659141344cd1fd0a4f28419497f9722a3daafe3b4186f6b6457e0600080a36001600160a81b0319163360ff60a01b191617600160a31b17905561097390816200038b8239f35b6024906000845191631e4fbdf760e01b8352820152fd5b01519350388062000118565b92919084601f1981168860005285600020956000905b89838310620002035750505010620001e8575b50505050811b01815562000128565b01519060f884600019921b161c1916905538808080620001d9565b858701518955909701969485019488935090810190620001c6565b8760005281600020848088018b1c8201928489106200025d575b018a1c019087905b82811062000250575050620000fb565b6000815501879062000240565b9250819262000238565b602288634e487b7160e01b6000525260246000fd5b90607f1690620000e9565b634e487b7160e01b600052604160045260246000fd5b015190503880620000ba565b90889350601f19831691876000528a6000209260005b8c828210620002f95750508411620002e0575b505050811b018355620000cc565b015160001983881b60f8161c19169055388080620002d2565b8385015186558c97909501949384019301620002bf565b9091508560005288600020858085018c1c8201928b86106200035a575b918a9186959493018d1c01915b8281106200034a575050620000a3565b600081558594508a91016200033a565b925081926200032d565b634e487b7160e01b600052602260045260246000fd5b93607f16936200008c565b600080fdfe6080604081815260048036101561001557600080fd5b600092833560e01c90816306fdde031461064d57508063095ea7b3146105a457806318160ddd1461058557806323b872dd14610492578063313ce5671461046d57806340c10f191461044057806357915897146103ad57806370a0823114610376578063715018a6146103165780638da5cb5b146102ed57806395d89b41146101cd578063a9059cbb1461019c578063dd62ed3e1461014f5763f2fde38b146100bd57600080fd5b3461014b57602036600319011261014b576100d661078b565b906100df6107bc565b6001600160a01b03918216928315610135575050600554826bffffffffffffffffffffffff60a01b821617600555167f8be0079c531659141344cd1fd0a4f28419497f9722a3daafe3b4186f6b6457e08380a380f35b51631e4fbdf760e01b8152908101849052602490fd5b8280fd5b5050346101985780600319360112610198578060209261016d61078b565b6101756107a6565b6001600160a01b0391821683526001865283832091168252845220549051908152f35b5080fd5b5050346101985780600319360112610198576020906101c66101bc61078b565b60243590336107e8565b5160018152f35b50919034610198578160031936011261019857805190828454600181811c908083169283156102e3575b60209384841081146102d0578388529081156102b4575060011461025f575b505050829003601f01601f191682019267ffffffffffffffff84118385101761024c5750829182610248925282610742565b0390f35b634e487b7160e01b815260418552602490fd5b8787529192508591837f8a35acfbc15ff81a39ae7d344fd709f28e8600b4aa8c65c6b64bfe7fe36bd19b5b8385106102a05750505050830101388080610216565b80548886018301529301928490820161028a565b60ff1916878501525050151560051b8401019050388080610216565b634e487b7160e01b895260228a52602489fd5b91607f16916101f7565b50503461019857816003193601126101985760055490516001600160a01b039091168152602090f35b833461037357806003193601126103735761032f6107bc565b600580546001600160a01b0319811690915581906001600160a01b03167f8be0079c531659141344cd1fd0a4f28419497f9722a3daafe3b4186f6b6457e08280a380f35b80fd5b5050346101985760203660031901126101985760209181906001600160a01b0361039e61078b565b16815280845220549051908152f35b503461014b57602036600319011261014b5780359160ff60055460a01c16604d811161042d57600a0a83116103ea57836103e784336108c6565b80f35b906020606492519162461bcd60e51b8352820152601960248201527f466175636574206c696d6974656420746f2031206362425443000000000000006044820152fd5b634e487b7160e01b855260118352602485fd5b50503461019857366003190112610373576103e761045c61078b565b6104646107bc565b602435906108c6565b50503461019857816003193601126101985760209060ff60055460a01c169051908152f35b508234610373576060366003190112610373576104ad61078b565b6104b56107a6565b916044359360018060a01b0383168083526001602052868320338452602052868320549160001983036104f1575b6020886101c68989896107e8565b86831061055957811561054257331561052b575082526001602090815286832033845281529186902090859003905582906101c6876104e3565b8751634a1406b160e11b8152908101849052602490fd5b875163e602df0560e01b8152908101849052602490fd5b8751637dc7a0d960e11b8152339181019182526020820193909352604081018790528291506060010390fd5b5050346101985781600319360112610198576020906002549051908152f35b503461014b578160031936011261014b576105bd61078b565b602435903315610636576001600160a01b031691821561061f57508083602095338152600187528181208582528752205582519081527f8c5be1e5ebec7d5bd14f71427d1e84f3dd0314c0f7b2291e5b200ac8c7c3b925843392a35160018152f35b8351634a1406b160e11b8152908101859052602490fd5b835163e602df0560e01b8152808401869052602490fd5b849150833461014b578260031936011261014b5782600354600181811c90808316928315610738575b60209384841081146102d05783885290811561071c57506001146106c657505050829003601f01601f191682019267ffffffffffffffff84118385101761024c5750829182610248925282610742565b600387529192508591837fc2575a0e9e593c00f959f8c92f12db2869c3395a3b0502d05e2516446f71f85b5b8385106107085750505050830101858080610216565b8054888601830152930192849082016106f2565b60ff1916878501525050151560051b8401019050858080610216565b91607f1691610676565b6020808252825181830181905290939260005b82811061077757505060409293506000838284010152601f8019910116010190565b818101860151848201604001528501610755565b600435906001600160a01b03821682036107a157565b600080fd5b602435906001600160a01b03821682036107a157565b6005546001600160a01b031633036107d057565b60405163118cdaa760e01b8152336004820152602490fd5b916001600160a01b038084169283156108ad57169283156108945760009083825281602052604082205490838210610862575091604082827fddf252ad1be2c89b69c2b068fc378daa952ba7f163c4a11628f55a4df523b3ef958760209652828652038282205586815220818154019055604051908152a3565b60405163391434e360e21b81526001600160a01b03919091166004820152602481019190915260448101839052606490fd5b60405163ec442f0560e01b815260006004820152602490fd5b604051634b637e8f60e11b815260006004820152602490fd5b6001600160a01b031690811561089457600254908082018092116109275760207fddf252ad1be2c89b69c2b068fc378daa952ba7f163c4a11628f55a4df523b3ef9160009360025584845283825260408420818154019055604051908152a3565b634e487b7160e01b600052601160045260246000fdfea26469706673582212202e534d57a34528ed66d934382170d3ae4461435da38e0e7fac62d18a76173c9e64736f6c63430008140033",
  "linkReferences": {},
  "deployedLinkReferences": {}
}