{
  "_format": "hh-sol-artifact-1",
  "contractName": "MockDeployer",
  "sourceName": "Contracts/Helper.sol",
  "abi": [
    {
      "anonymous": false,
      "inputs": [
        {
          "indexed": false,
          "internalType": "address",
          "name": "usdc",
          "type": "address"
        },
        {
          "indexed": false,
          "internalType": "address",
          "name": "cbBtc",
          "type": "address"
        },
        {
          "indexed": false,
          "internalType": "address",
          "name": "aavePool",
          "type": "address"
        },
        {
          "indexed": false,
          "internalType": "address",
          "name": "swapRouter",
          "type": "address"
        },
        {
          "indexed": false,
          "internalType": "address",
          "name": "priceOracle",
          "type": "address"
        }
      ],
      "name": "Deployed",
      "type": "event"
    },
    {
      "anonymous": false,
      "inputs": [
        {
          "indexed": false,
          "internalType": "uint256",
          "name": "usdcLiquidity",
          "type": "uint256"
        },
        {
          "indexed": false,
          "internalType": "uint256",
          "name": "btcLiquidity",
          "type": "uint256"
        },
        {
          "indexed": false,
          "internalType": "uint256",
          "name": "btcUsdRate",
          "type": "uint256"
        }
      ],
      "name": "Initialized",
      "type": "event"
    },
    {
      "inputs": [],
      "name": "BTC_USD_PRICE",
      "outputs": [
        {
          "internalType": "uint256",
          "name": "",
          "type": "uint256"
        }
      ],
      "stateMutability": "view",
      "type": "function"
    },
    {
      "inputs": [],
      "name": "INITIAL_BTC_LIQUIDITY",
      "outputs": [
        {
          "internalType": "uint256",
          "name": "",
          "type": "uint256"
        }
      ],
      "stateMutability": "view",
      "type": "function"
    },
    {
      "inputs": [],
      "name": "INITIAL_USDC_LIQUIDITY",
      "outputs": [
        {
          "internalType": "uint256",
          "name": "",
          "type": "uint256"
        }
      ],
      "stateMutability": "view",
      "type": "function"
    },
    {
      "inputs": [],
      "name": "aavePool",
      "outputs": [
        {
          "internalType": "contract MockAavePool",
          "name": "",
          "type": "address"
        }
      ],
      "stateMutability": "view",
      "type": "function"
    },
    {
      "inputs": [],
      "name": "cbBtc",
      "outputs": [
        {
          "internalType": "contract MockCbBTC",
          "name": "",
          "type": "address"
        }
      ],
      "stateMutability": "view",
      "type": "function"
    },
    {
      "inputs": [],
      "name": "deploy",
      "outputs": [],
      "stateMutability": "nonpayable",
      "type": "function"
    },
    {
      "inputs": [],
      "name": "getAddresses",
      "outputs": [
        {
          "internalType": "address",
          "name": "usdcAddress",
          "type": "address"
        },
        {
          "internalType": "address",
          "name": "cbBtcAddress",
          "type": "address"
        },
        {
          "internalType": "address",
          "name": "aavePoolAddress",
          "type": "address"
        },
        {
          "internalType": "address",
          "name": "swapRouterAddress",
          "type": "address"
        },
        {
          "internalType": "address",
          "name": "priceOracleAddress",
          "type": "address"
        }
      ],
      "stateMutability": "view",
      "type": "function"
    },
    {
      "inputs": [],
      "name": "initialize",
      "outputs": [],
      "stateMutability": "nonpayable",
      "type": "function"
    },
    {
      "inputs": [
        {
          "internalType": "address",
          "name": "user",
          "type": "address"
        },
        {
          "internalType": "uint256",
          "name": "usdcAmount",
          "type": "uint256"
        },
        {
          "internalType": "uint256",
          "name": "btcAmount",
          "type": "uint256"
        }
      ],
      "name": "mintTestTokens",
      "outputs": [],
      "stateMutability": "nonpayable",
      "type": "function"
    },
    {
      "inputs": [],
      "name": "priceOracle",
      "outputs": [
        {
          "internalType": "contract MockBTCPriceOracle",
          "name": "",
          "type": "address"
        }
      ],
      "stateMutability": "view",
      "type": "function"
    },
    {
      "inputs": [],
      "name": "swapRouter",
      "outputs": [
        {
          "internalType": "contract MockSwapRouter",
          "name": "",
          "type": "address"
        }
      ],
      "stateMutability": "view",
      "type": "function"
    },
    {
      "inputs": [
        {
          "internalType": "int256",
          "name": "newPrice",
          "type": "int256"
        }
      ],
      "name": "updateBtcPrice",
      "outputs": [],
      "stateMutability": "nonpayable",
      "type": "function"
    },
    {
      "inputs": [],
      "name": "usdc",
      "outputs": [
        {
          "internalType": "contract MockUSDC",
          "name": "",
          "type": "address"
        }
      ],
      "stateMutability": "view",
      "type": "function"
    }
  ],
  "bytecode": "0x60808060405234610016576138ff908161001c8239f35b600080fdfe60806040818152600491823610156200001757600080fd5b600092833560e01c9182632630c12f14620009ae575081633e413bee1462000984578163410147f51462000962578382636eb73b85146200082657508163775c300c1462000614578163801a450a14620005f05781638129fc1c14620002535781639781a8ca1462000230578163a03e4bc3146200020557838263a0accccd146200017657508163a39fac12146200011d57508063c31c9c0714620000f35763ecf3a80e14620000c657600080fd5b34620000ef5781600319360112620000ef5760015490516001600160a01b039091168152602090f35b5080fd5b5034620000ef5781600319360112620000ef5760035490516001600160a01b039091168152602090f35b9190503462000172578260031936011262000172579154600154600254600354935494516001600160a01b0393841681529183166020830152821660408201529181166060830152909116608082015260a090f35b8280fd5b8091843462000201576020366003190112620002015781546001600160a01b031691620001a5831515620009d4565b823b15620001fc5783926024849284519586938492636a60cded60e11b84528035908401525af1908115620001f35750620001dd5750f35b620001e89062000a1a565b620001f05780f35b80fd5b513d84823e3d90fd5b505050fd5b5050fd5b505034620000ef5781600319360112620000ef5760025490516001600160a01b039091168152602090f35b505034620000ef5781600319360112620000ef576020905165095e27d758008152f35b905034620001725782600319360112620001725782546001600160a01b0391849183169062000284821515620009d4565b813b15620001725782918551946340c10f1960e01b9283875230818801526658d15e176280009685816024958a878301528160449a8b925af1908115620005ce578691620005d8575b5050816001541695863b15620004e4578851948552308286015285858281836405d21dba009b8c8a8401525af1948515620005ce578695620005b2575b50828554168360035416908a519063095ea7b360e01b92838352858301528a8783015281848160209b8c945af18015620005485762000590575b50868a83866001541693898860035416935195869485938452898401528d8b8401525af180156200051c576200056e575b508260035416838654168460015416823b156200056a5760848892838e519586948593631bc6f1e760e31b85528a8501528b8401526417fb474600888401526305f5e10060648401525af19081156200051c57869162000552575b508087858c935416848c88600354169551948593849263a9059cbb60e01b988985528b8501528c8401525af18015620005485762000526575b50868a83866001541693898860035416935195869485938452898401528d8b8401525af180156200051c57620004e8575b508260025416926001541691833b15620004e4578580946101f48c5197889687956339f2a8af60e11b87528601528401525af18015620004da57620004b8575b509265095e27d75800857f7c8b2bb4ba88603ecaf8a835a16f5dc600d81cc928f239a94f1ab037549017ca946060948251948552840152820152a180f35b620004c69094939462000a1a565b620004d65784389392936200047a565b8480fd5b86513d84823e3d90fd5b8580fd5b6200050c90873d891162000514575b62000503818362000a45565b81019062000a68565b50386200043a565b503d620004f7565b8a513d88823e3d90fd5b6200054090883d8a11620005145762000503818362000a45565b503862000409565b8b513d89823e3d90fd5b6200055d9062000a1a565b620004d6578438620003d0565b8780fd5b6200058890873d8911620005145762000503818362000a45565b503862000375565b620005aa90883d8a11620005145762000503818362000a45565b503862000344565b620005c09095919562000a1a565b620004d6578493386200030a565b89513d88823e3d90fd5b620005e39062000a1a565b620004d6578438620002cd565b505034620000ef5781600319360112620000ef57602090516658d15e176280008152f35b838334620000ef5781600319360112620000ef57805192610d309384810167ffffffffffffffff95828210878311176200081357908291620019e58339039084f0908115620008075783546001600160a01b03199081166001600160a01b039384161785558351909290610cfe8082019088821183831017620007f457908291620027158339039086f08015620007ea57811683600154161760015583516106468082019082821089831117620007f45790829162000a888339039086f08015620007ea57811683600254161760025583516109178082019082821089831117620007f457908291620010ce8339039086f08015620007ea57811683600354161760035583516104b78082019782891090891117620007d75781879860209298979862003413833965095e27d75800815203019085f08015620007cd5782549082169381168417909255835460015460025460035497519284166001600160a01b03908116845291841682166020840152831681166040830152959091168516606082015292161790911660808201527f560d905b644f11cd6f1e40961146bf323afe328326f2e94ead6d032af436ef4d9060a090a180f35b85513d86823e3d90fd5b634e487b7160e01b875260418452602487fd5b84513d87823e3d90fd5b634e487b7160e01b885260418552602488fd5b505051903d90823e3d90fd5b634e487b7160e01b865260418452602486fd5b809184346200020157606036600319011262000201578135916001600160a01b038084168403620004d6578454604435919081166024356200086a821515620009d4565b80620008ef575b5050816200087d578580f35b60015416803b15620004e45783516340c10f1960e01b81526001600160a01b039095169285019283526020830191909152849184919082908490829060400103925af1908115620001f35750620008d7575b808080808580f35b620008e29062000a1a565b620001f0578082620008cf565b813b156200056a5785516340c10f1960e01b81526001600160a01b03881686820190815260208101929092529888928a928390036040019183915af18015620009585762000941575b86869762000871565b9490956200094f9062000a1a565b93859062000938565b84513d88823e3d90fd5b505034620000ef5781600319360112620000ef57602090516405d21dba008152f35b505034620000ef5781600319360112620000ef57905490516001600160a01b039091168152602090f35b8491346200017257826003193601126200017257546001600160a01b0316815260209150f35b15620009dc57565b60405162461bcd60e51b815260206004820152601660248201527511195c1b1bde4818dbdb9d1c9858dd1cc8199a5c9cdd60521b6044820152606490fd5b67ffffffffffffffff811162000a2f57604052565b634e487b7160e01b600052604160045260246000fd5b90601f8019910116810190811067ffffffffffffffff82111762000a2f57604052565b9081602091031262000a825751801515810362000a825790565b600080fdfe6080806040523461002857600380546001600160a01b03191633179055610618908161002e8239f35b600080fdfe608060408181526004918236101561001657600080fd5b600092833560e01c918263028cc651146104e357508163617ba0371461038e57816368da10ae1461036657816369328dec1461022957816373e5515e14610168575080638da5cb5b146101405780639782e82114610109578063dccda03d146100d25763ee9e836d1461008857600080fd5b346100ce57806003193601126100ce57806020926100a4610528565b6100ac610543565b6001600160a01b03918216835282865283832091168252845220549051908152f35b5080fd5b50346100ce5760203660031901126100ce5760209181906001600160a01b036100f9610528565b1681526002845220549051908152f35b50346100ce5760203660031901126100ce5760209181906001600160a01b03610130610528565b1681526001845220549051908152f35b50346100ce57816003193601126100ce5760035490516001600160a01b039091168152602090f35b905034610225578160031936011261022557610182610528565b600354602435926001600160a01b039291831633036101d85750916020917fcd71eadfd232caec497a12178db6d8be8a15f0f645b648615007e6e8e7143c8893169384865260028352818187205551908152a280f35b608490602086519162461bcd60e51b8352820152602160248201527f4f6e6c79206f776e65722063616e2063616c6c20746869732066756e6374696f6044820152603760f91b6064820152fd5b8280fd5b9190503461022557606036600319011261022557610245610528565b9160243592610252610559565b913386526020958087528481209260018060a01b03809116938483528852858220805490888203918211610353575585519463a9059cbb60e01b865216938483820152866024820152878160448185885af1918215610348579161031b575b50156102e657507f9b1bfa7fa9ee420a16e124f794c35ac9f90472acc99140eb2f6447c714cad8eb858451868152a351908152f35b835162461bcd60e51b8152908101869052600f60248201526e151c985b9cd9995c8819985a5b1959608a1b6044820152606490fd5b61033b9150873d8911610341575b610333818361056f565b8101906105a7565b386102b1565b503d610329565b8651903d90823e3d90fd5b634e487b7160e01b845260118552602484fd5b5050346100ce5760203660031901126100ce5760209181906001600160a01b03610130610528565b91905034610225576080366003190112610225576103aa610528565b90602435916103b7610559565b9260643561ffff8116036104df57801561049c5782516323b872dd60e01b81523395810195909552306024860152604485018190526001600160a01b039182169260209283876064818b895af1968715610492577fd1cf3d156d5f8f0d50f6c122ed609cec09d35c9b9fb3fff6ea0959134dae424e959697610475575b5085885287845281882096169586885283528087206104548382546105bf565b90558487526001835280872061046b8382546105bf565b905551908152a380f35b61048b90853d871161034157610333818361056f565b5038610434565b82513d8a823e3d90fd5b825162461bcd60e51b8152602081870152601d60248201527f416d6f756e74206d7573742062652067726561746572207468616e20300000006044820152606490fd5b8580fd5b84908434610225578060031936011261022557602092610501610528565b610509610543565b6001600160a01b03918216835282865283832091168252845220548152f35b600435906001600160a01b038216820361053e57565b600080fd5b602435906001600160a01b038216820361053e57565b604435906001600160a01b038216820361053e57565b90601f8019910116810190811067ffffffffffffffff82111761059157604052565b634e487b7160e01b600052604160045260246000fd5b9081602091031261053e5751801515810361053e5790565b919082018092116105cc57565b634e487b7160e01b600052601160045260246000fdfea2646970667358221220b78f184320f9090bed29c34b65c3d448d636c0cbc5236ab52f107b082906865864736f6c634300081400336080806040523461002857600180546001600160a01b031916331790556108e9908161002e8239f35b600080fdfe608080604052600436101561001357600080fd5b60003560e01c90816338ed1739146102d457508063503fa44f1461027a5780638da5cb5b14610251578063baaa61be146101e25763de378f381461005657600080fd5b346101dd5760803660031901126101dd5761006f6107cb565b6100776107e1565b60015490916001600160a01b03916064359190604435908416330361018e57821561013e577ff7e06908c466f8ecd19cb46c7e97598dc5a8760f637bb764d91fc4b6da7664ef9260409283516100cc816107f7565b8381526001602092888484019186835216988960005260008552876000209a16998a6000528452866000209251835551910155835161010a816107f7565b82815260018282018581528960005260008452866000208960005284528660002092518355519101558351928352820152a3005b60405162461bcd60e51b815260206004820152602260248201527f44656e6f6d696e61746f72206d7573742062652067726561746572207468616e604482015261020360f41b6064820152608490fd5b60405162461bcd60e51b815260206004820152602160248201527f4f6e6c79206f776e65722063616e2063616c6c20746869732066756e6374696f6044820152603760f91b6064820152608490fd5b600080fd5b346101dd5760403660031901126101dd576101fb6107cb565b6102036107e1565b9060018060a01b0380911660005260006020526040600020911660005260205260408060002060208251610236816107f7565b60018354938483520154918291015282519182526020820152f35b346101dd5760003660031901126101dd576001546040516001600160a01b039091168152602090f35b346101dd5760403660031901126101dd576102936107cb565b61029b6107e1565b9060018060a01b038091166000526000602052604060002091166000526020526040806000206001815491015482519182526020820152f35b346101dd5760a03660031901126101dd5767ffffffffffffffff80604435116101dd573660236044350112156101dd5760443560040135116101dd573660246044356004013560051b6044350101116101dd57606435906001600160a01b03821682036101dd576002604435600401351061079a575060043515610755576103616044356004013561084b565b61036e6040519182610829565b60046044350135808252601f19906103859061084b565b0136602083013780511561073f57600435602082015260005b600460443501356000198101116105195760046044350135600019018110156106f9576103df6103da8260443560040135602460443501610877565b610887565b600182018211610519576104056103da6001840160443560040135602460443501610877565b6001600160a01b038281166000908152602081815260408083209385168352929052819020905190610436826107f7565b60018154918284520154806020840152151590816106ef575b50156106b25761045f8486610863565b51916020820151918383810204831484151715610519575191821561069c5782818502046104906001880189610863565b528515610635575b60046044350135600119810111610519576004604435013560011901861461052f575b907ffa2dda1cc1b86e41239702756b13effbc1a092b5c57e3ad320fbe4f3b13fe235926040926104eb888a610863565b51845190815295020460208501526001600160a01b03908116941692a360001981146105195760010161039e565b634e487b7160e01b600052601160045260246000fd5b906024358383860204106105f05760405163a9059cbb60e01b81526001600160a01b03898116600483015285840285900460248301529093906020908590604490829060009087165af19283156105e4577ffa2dda1cc1b86e41239702756b13effbc1a092b5c57e3ad320fbe4f3b13fe235946040946105b5575b5091925092506104bb565b6105d69060203d6020116105dd575b6105ce8183610829565b81019061089b565b508a6105aa565b503d6105c4565b6040513d6000823e3d90fd5b60405162461bcd60e51b815260206004820152601a60248201527f496e73756666696369656e74206f757470757420616d6f756e740000000000006044820152606490fd5b6040516323b872dd60e01b81523360048083019190915230602483015235604482015260208160648160006001600160a01b038b165af180156105e45761067d575b50610498565b6106959060203d6020116105dd576105ce8183610829565b5088610677565b634e487b7160e01b600052601260045260246000fd5b60405162461bcd60e51b8152602060048201526015602482015274115e18da185b99d9481c985d19481b9bdd081cd95d605a1b6044820152606490fd5b905015158761044f565b5060405180916020820160208352815180915260206040840192019060005b818110610726575050500390f35b8251845285945060209384019390920191600101610718565b634e487b7160e01b600052603260045260246000fd5b60405162461bcd60e51b815260206004820152601d60248201527f416d6f756e74206d7573742062652067726561746572207468616e20300000006044820152606490fd5b62461bcd60e51b815260206004820152600c60248201526b092dcecc2d8d2c840e0c2e8d60a31b6044820152606490fd5b600435906001600160a01b03821682036101dd57565b602435906001600160a01b03821682036101dd57565b6040810190811067ffffffffffffffff82111761081357604052565b634e487b7160e01b600052604160045260246000fd5b90601f8019910116810190811067ffffffffffffffff82111761081357604052565b67ffffffffffffffff81116108135760051b60200190565b805182101561073f5760209160051b010190565b919081101561073f5760051b0190565b356001600160a01b03811681036101dd5790565b908160209103126101dd575180151581036101dd579056fea2646970667358221220a9aa088b1e851c6d1ee05322925a3062978e24fba72fa58d78f6dd64d2113b3164736f6c63430008140033608034620003a8576040906001600160401b0390808301828111828210176200039257835260098152602091684d6f636b205553444360b81b838301528351928484018481108382111762000392578552600493848152635553444360e01b828201528351908382116200037d576003928354926001968785811c9516801562000372575b838610146200035d578190601f9586811162000307575b508390868311600114620002a05760009262000294575b505060001982871b1c191690871b1784555b81519485116200027f5786548681811c9116801562000274575b828210146200025f5783811162000214575b5080928511600114620001a657509383949184926000956200019a575b50501b92600019911b1c19161781555b3315620001845750600554905190336001600160a01b0382167f8be0079c531659141344cd1fd0a4f28419497f9722a3daafe3b4186f6b6457e0600080a36001600160a81b0319163360ff60a01b191617600360a11b176005556109829081620003ae8239f35b60006024925191631e4fbdf760e01b8352820152fd5b0151935038806200010d565b92919084601f1981168860005285600020956000905b89838310620001f95750505010620001de575b50505050811b0181556200011d565b01519060f884600019921b161c1916905538808080620001cf565b858701518955909701969485019488935090810190620001bc565b87600052816000208480880160051c82019284891062000255575b0160051c019087905b82811062000248575050620000f0565b6000815501879062000238565b925081926200022f565b602288634e487b7160e01b6000525260246000fd5b90607f1690620000de565b604187634e487b7160e01b6000525260246000fd5b015190503880620000b2565b90899350601f1983169188600052856000209260005b87828210620002f05750508411620002d7575b505050811b018455620000c4565b015160001983891b60f8161c19169055388080620002c9565b8385015186558d97909501949384019301620002b6565b90915086600052836000208680850160051c82019286861062000353575b918b91869594930160051c01915b828110620003435750506200009b565b600081558594508b910162000333565b9250819262000325565b602289634e487b7160e01b6000525260246000fd5b94607f169462000084565b604186634e487b7160e01b6000525260246000fd5b634e487b7160e01b600052604160045260246000fd5b600080fdfe6080604081815260048036101561001557600080fd5b600092833560e01c90816306fdde031461065c57508063095ea7b3146105b357806318160ddd1461059457806323b872dd146104a1578063313ce5671461047c57806340c10f191461044f57806357915897146103ad57806370a0823114610376578063715018a6146103165780638da5cb5b146102ed57806395d89b41146101cd578063a9059cbb1461019c578063dd62ed3e1461014f5763f2fde38b146100bd57600080fd5b3461014b57602036600319011261014b576100d661079a565b906100df6107cb565b6001600160a01b03918216928315610135575050600554826bffffffffffffffffffffffff60a01b821617600555167f8be0079c531659141344cd1fd0a4f28419497f9722a3daafe3b4186f6b6457e08380a380f35b51631e4fbdf760e01b8152908101849052602490fd5b8280fd5b5050346101985780600319360112610198578060209261016d61079a565b6101756107b5565b6001600160a01b0391821683526001865283832091168252845220549051908152f35b5080fd5b5050346101985780600319360112610198576020906101c66101bc61079a565b60243590336107f7565b5160018152f35b50919034610198578160031936011261019857805190828454600181811c908083169283156102e3575b60209384841081146102d0578388529081156102b4575060011461025f575b505050829003601f01601f191682019267ffffffffffffffff84118385101761024c5750829182610248925282610751565b0390f35b634e487b7160e01b815260418552602490fd5b8787529192508591837f8a35acfbc15ff81a39ae7d344fd709f28e8600b4aa8c65c6b64bfe7fe36bd19b5b8385106102a05750505050830101388080610216565b80548886018301529301928490820161028a565b60ff1916878501525050151560051b8401019050388080610216565b634e487b7160e01b895260228a52602489fd5b91607f16916101f7565b50503461019857816003193601126101985760055490516001600160a01b039091168152602090f35b833461037357806003193601126103735761032f6107cb565b600580546001600160a01b0319811690915581906001600160a01b03167f8be0079c531659141344cd1fd0a4f28419497f9722a3daafe3b4186f6b6457e08280a380f35b80fd5b5050346101985760203660031901126101985760209181906001600160a01b0361039e61079a565b16815280845220549051908152f35b503461014b57602036600319011261014b5780359160ff60055460a01c16604d811161043c57600a0a612710908082029182040361043c5783116103f957836103f684336108d5565b80f35b906020606492519162461bcd60e51b8352820152601d60248201527f466175636574206c696d6974656420746f2031302c30303020555344430000006044820152fd5b634e487b7160e01b855260118352602485fd5b50503461019857366003190112610373576103f661046b61079a565b6104736107cb565b602435906108d5565b50503461019857816003193601126101985760209060ff60055460a01c169051908152f35b508234610373576060366003190112610373576104bc61079a565b6104c46107b5565b916044359360018060a01b038316808352600160205286832033845260205286832054916000198303610500575b6020886101c68989896107f7565b86831061056857811561055157331561053a575082526001602090815286832033845281529186902090859003905582906101c6876104f2565b8751634a1406b160e11b8152908101849052602490fd5b875163e602df0560e01b8152908101849052602490fd5b8751637dc7a0d960e11b8152339181019182526020820193909352604081018790528291506060010390fd5b5050346101985781600319360112610198576020906002549051908152f35b503461014b578160031936011261014b576105cc61079a565b602435903315610645576001600160a01b031691821561062e57508083602095338152600187528181208582528752205582519081527f8c5be1e5ebec7d5bd14f71427d1e84f3dd0314c0f7b2291e5b200ac8c7c3b925843392a35160018152f35b8351634a1406b160e11b8152908101859052602490fd5b835163e602df0560e01b8152808401869052602490fd5b849150833461014b578260031936011261014b5782600354600181811c90808316928315610747575b60209384841081146102d05783885290811561072b57506001146106d557505050829003601f01601f191682019267ffffffffffffffff84118385101761024c5750829182610248925282610751565b600387529192508591837fc2575a0e9e593c00f959f8c92f12db2869c3395a3b0502d05e2516446f71f85b5b8385106107175750505050830101858080610216565b805488860183015293019284908201610701565b60ff1916878501525050151560051b8401019050858080610216565b91607f1691610685565b6020808252825181830181905290939260005b82811061078657505060409293506000838284010152601f8019910116010190565b818101860151848201604001528501610764565b600435906001600160a01b03821682036107b057565b600080fd5b602435906001600160a01b03821682036107b057565b6005546001600160a01b031633036107df57565b60405163118cdaa760e01b8152336004820152602490fd5b916001600160a01b038084169283156108bc57169283156108a35760009083825281602052604082205490838210610871575091604082827fddf252ad1be2c89b69c2b068fc378daa952ba7f163c4a11628f55a4df523b3ef958760209652828652038282205586815220818154019055604051908152a3565b60405163391434e360e21b81526001600160a01b03919091166004820152602481019190915260448101839052606490fd5b60405163ec442f0560e01b815260006004820152602490fd5b604051634b637e8f60e11b815260006004820152602490fd5b6001600160a01b03169081156108a357600254908082018092116109365760207fddf252ad1be2c89b69c2b068fc378daa952ba7f163c4a11628f55a4df523b3ef9160009360025584845283825260408420818154019055604051908152a3565b634e487b7160e01b600052601160045260246000fdfea2646970667358221220cae02f1d2a1db110129a13a2870730baf66a4f17b6e4df15a908d6fc4faf664a64736f6c6343000814003360803462000385576040906001600160401b0390808301828111828210176200028757835260118152602090704d6f636b20436f696e626173652042544360781b82820152835192848401848110828211176200028757855260059384815264636242544360d81b84820152825182811162000287576003918254916001958684811c941680156200037a575b8885101462000364578190601f9485811162000310575b508890858311600114620002a9576000926200029d575b505060001982861b1c191690861b1783555b8051938411620002875760049586548681811c911680156200027c575b8282101462000267578381116200021e575b5080928511600114620001b05750938394918492600095620001a4575b50501b92600019911b1c19161781555b33156200018d57508054915191336001600160a01b0382167f8be0079c531659141344cd1fd0a4f28419497f9722a3daafe3b4186f6b6457e0600080a36001600160a81b0319163360ff60a01b191617600160a31b17905561097390816200038b8239f35b6024906000845191631e4fbdf760e01b8352820152fd5b01519350388062000118565b92919084601f1981168860005285600020956000905b89838310620002035750505010620001e8575b50505050811b01815562000128565b01519060f884600019921b161c1916905538808080620001d9565b858701518955909701969485019488935090810190620001c6565b8760005281600020848088018b1c8201928489106200025d575b018a1c019087905b82811062000250575050620000fb565b6000815501879062000240565b9250819262000238565b602288634e487b7160e01b6000525260246000fd5b90607f1690620000e9565b634e487b7160e01b600052604160045260246000fd5b015190503880620000ba565b90889350601f19831691876000528a6000209260005b8c828210620002f95750508411620002e0575b505050811b018355620000cc565b015160001983881b60f8161c19169055388080620002d2565b8385015186558c97909501949384019301620002bf565b9091508560005288600020858085018c1c8201928b86106200035a575b918a9186959493018d1c01915b8281106200034a575050620000a3565b600081558594508a91016200033a565b925081926200032d565b634e487b7160e01b600052602260045260246000fd5b93607f16936200008c565b600080fdfe6080604081815260048036101561001557600080fd5b600092833560e01c90816306fdde031461064d57508063095ea7b3146105a457806318160ddd1461058557806323b872dd14610492578063313ce5671461046d57806340c10f191461044057806357915897146103ad57806370a0823114610376578063715018a6146103165780638da5cb5b146102ed57806395d89b41146101cd578063a9059cbb1461019c578063dd62ed3e1461014f5763f2fde38b146100bd57600080fd5b3461014b57602036600319011261014b576100d661078b565b906100df6107bc565b6001600160a01b03918216928315610135575050600554826bffffffffffffffffffffffff60a01b821617600555167f8be0079c531659141344cd1fd0a4f28419497f9722a3daafe3b4186f6b6457e08380a380f35b51631e4fbdf760e01b8152908101849052602490fd5b8280fd5b5050346101985780600319360112610198578060209261016d61078b565b6101756107a6565b6001600160a01b0391821683526001865283832091168252845220549051908152f35b5080fd5b5050346101985780600319360112610198576020906101c66101bc61078b565b60243590336107e8565b5160018152f35b50919034610198578160031936011261019857805190828454600181811c908083169283156102e3575b60209384841081146102d0578388529081156102b4575060011461025f575b505050829003601f01601f191682019267ffffffffffffffff84118385101761024c5750829182610248925282610742565b0390f35b634e487b7160e01b815260418552602490fd5b8787529192508591837f8a35acfbc15ff81a39ae7d344fd709f28e8600b4aa8c65c6b64bfe7fe36bd19b5b8385106102a05750505050830101388080610216565b80548886018301529301928490820161028a565b60ff1916878501525050151560051b8401019050388080610216565b634e487b7160e01b895260228a52602489fd5b91607f16916101f7565b50503461019857816003193601126101985760055490516001600160a01b039091168152602090f35b833461037357806003193601126103735761032f6107bc565b600580546001600160a01b0319811690915581906001600160a01b03167f8be0079c531659141344cd1fd0a4f28419497f9722a3daafe3b4186f6b6457e08280a380f35b80fd5b5050346101985760203660031901126101985760209181906001600160a01b0361039e61078b565b16815280845220549051908152f35b503461014b57602036600319011261014b5780359160ff60055460a01c16604d811161042d57600a0a83116103ea57836103e784336108c6565b80f35b906020606492519162461bcd60e51b8352820152601960248201527f466175636574206c696d6974656420746f2031206362425443000000000000006044820152fd5b634e487b7160e01b855260118352602485fd5b50503461019857366003190112610373576103e761045c61078b565b6104646107bc565b602435906108c6565b50503461019857816003193601126101985760209060ff60055460a01c169051908152f35b508234610373576060366003190112610373576104ad61078b565b6104b56107a6565b916044359360018060a01b0383168083526001602052868320338452602052868320549160001983036104f1575b6020886101c68989896107e8565b86831061055957811561054257331561052b575082526001602090815286832033845281529186902090859003905582906101c6876104e3565b8751634a1406b160e11b8152908101849052602490fd5b875163e602df0560e01b8152908101849052602490fd5b8751637dc7a0d960e11b8152339181019182526020820193909352604081018790528291506060010390fd5b5050346101985781600319360112610198576020906002549051908152f35b503461014b578160031936011261014b576105bd61078b565b602435903315610636576001600160a01b031691821561061f57508083602095338152600187528181208582528752205582519081527f8c5be1e5ebec7d5bd14f71427d1e84f3dd0314c0f7b2291e5b200ac8c7c3b925843392a35160018152f35b8351634a1406b160e11b8152908101859052602490fd5b835163e602df0560e01b8152808401869052602490fd5b849150833461014b578260031936011261014b5782600354600181811c90808316928315610738575b60209384841081146102d05783885290811561071c57506001146106c657505050829003601f01601f191682019267ffffffffffffffff84118385101761024c5750829182610248925282610742565b600387529192508591837fc2575a0e9e593c00f959f8c92f12db2869c3395a3b0502d05e2516446f71f85b5b8385106107085750505050830101858080610216565b8054888601830152930192849082016106f2565b60ff1916878501525050151560051b8401019050858080610216565b91607f1691610676565b6020808252825181830181905290939260005b82811061077757505060409293506000838284010152601f8019910116010190565b818101860151848201604001528501610755565b600435906001600160a01b03821682036107a157565b600080fd5b602435906001600160a01b03821682036107a157565b6005546001600160a01b031633036107d057565b60405163118cdaa760e01b8152336004820152602490fd5b916001600160a01b038084169283156108ad57169283156108945760009083825281602052604082205490838210610862575091604082827fddf252ad1be2c89b69c2b068fc378daa952ba7f163c4a11628f55a4df523b3ef958760209652828652038282205586815220818154019055604051908152a3565b60405163391434e360e21b81526001600160a01b03919091166004820152602481019190915260448101839052606490fd5b60405163ec442f0560e01b815260006004820152602490fd5b604051634b637e8f60e11b815260006004820152602490fd5b6001600160a01b031690811561089457600254908082018092116109275760207fddf252ad1be2c89b69c2b068fc378daa952ba7f163c4a11628f55a4df523b3ef9160009360025584845283825260408420818154019055604051908152a3565b634e487b7160e01b600052601160045260246000fdfea26469706673582212202e534d57a34528ed66d934382170d3ae4461435da38e0e7fac62d18a76173c9e64736f6c6343000814003360803461012757601f6104b738819003918201601f19168301916001600160401b0383118484101761012c5780849260209460405283398101031261012757516001805460ff1916600817815560025480821c908216801561011d575b602082101461010757601f81116100ba575b507f4d6f636b20425443202f2055534400000000000000000000000000000000001c600255600355600055600480546001600160a01b0319163317905560405161037490816101438239f35b6002600052601f0160051c7f405787fa12a823e0f2b7631cc41b3ba8828b3321ca811111fa75cd3aa3bb5ace9081019082905b8281106100fb57505061006e565b600081550182906100ed565b634e487b7160e01b600052602260045260246000fd5b90607f169061005c565b600080fd5b634e487b7160e01b600052604160045260246000fdfe608060408181526004918236101561001657600080fd5b600090813560e01c908163313ce5671461031f5750806354fd4d50146102fc5780637284e4161461019d5780638da5cb5b14610175578063d4c19bda146100cb5763feaf968c1461006657600080fd5b346100c857806003193601126100c85769ffffffffffffffffffff431690805492610e0f194201914283116100b5575060a0945080519383855260208501528301524260608301526080820152f35b634e487b7160e01b815260118652602490fd5b80fd5b50919034610171576020366003190112610171578154823592906001600160a01b031633036101255750816020917ffa6bd982fa4e58a45ea44e1fe84ab8e9de93c3310ec81db62565ac50139a6ca393855551908152a180f35b6020608492519162461bcd60e51b8352820152602160248201527f4f6e6c79206f776e65722063616e2063616c6c20746869732066756e6374696f6044820152603760f91b6064820152fd5b8280fd5b5091346101715782600319360112610171575490516001600160a01b03909116815260209150f35b5091903461017157826003193601126101715780518360025460019581871c8783169788156102f2575b6020938483108a146102df57848798999a84895291826000146102c357505060011461026f575b5050601f801995869203011683019583871067ffffffffffffffff88111761025c575085929391838652818452845191828186015281955b8387106102445750508394508582601f949501015201168101030190f35b86810182015189880189015295810195889550610226565b634e487b7160e01b835260419052602482fd5b600285528492507f405787fa12a823e0f2b7631cc41b3ba8828b3321ca811111fa75cd3aa3bb5ace5b8284106102ad575050508301810138806101ee565b8054888501860152879650928401928101610298565b925093505060ff191682860152151560051b84010138806101ee565b634e487b7160e01b865260228952602486fd5b90607f16906101c7565b50903461031b578160031936011261031b576020906003549051908152f35b5080fd5b90503461031b578160031936011261031b5760209060ff600154168152f3fea2646970667358221220feb34c46e25671ef9d02d1faf5c975cf9838a6c071cc2fb09a57585e84474a7a64736f6c63430008140033a26469706673582212209ba692e597ea7062f936842f5ffc0b637388693945136fcd6ed7df0b7afb123864736f6c63430008140033",
  "linkReferences": {},
  "deployedLinkReferences": {}
}