{
  "_format": "hh-sol-artifact-1",
  "contractName": "MockSwapRouter",
  "sourceName": "Contracts/Helper.sol",
  "abi": [
    {
      "inputs": [],
      "stateMutability": "nonpayable",
      "type": "constructor"
    },
    {
      "anonymous": false,
      "inputs": [
        {
          "indexed": true,
          "internalType": "address",
          "name": "tokenA",
          "type": "address"
        },
        {
          "indexed": true,
          "internalType": "address",
          "name": "tokenB",
          "type": "address"
        },
        {
          "indexed": false,
          "internalType": "uint256",
          "name": "numerator",
          "type": "uint256"
        },
        {
          "indexed": false,
          "internalType": "uint256",
          "name": "denominator",
          "type": "uint256"
        }
      ],
      "name": "RateSet",
      "type": "event"
    },
    {
      "anonymous": false,
      "inputs": [
        {
          "indexed": true,
          "internalType": "address",
          "name": "tokenIn",
          "type": "address"
        },
        {
          "indexed": true,
          "internalType": "address",
          "name": "tokenOut",
          "type": "address"
        },
        {
          "indexed": false,
          "internalType": "uint256",
          "name": "amountIn",
          "type": "uint256"
        },
        {
          "indexed": false,
          "internalType": "uint256",
          "name": "amountOut",
          "type": "uint256"
        }
      ],
      "name": "Swap",
      "type": "event"
    },
    {
      "inputs": [
        {
          "internalType": "address",
          "name": "",
          "type": "address"
        },
        {
          "internalType": "address",
          "name": "",
          "type": "address"
        }
      ],
      "name": "exchangeRates",
      "outputs": [
        {
          "internalType": "uint256",
          "name": "numerator",
          "type": "uint256"
        },
        {
          "internalType": "uint256",
          "name": "denominator",
          "type": "uint256"
        }
      ],
      "stateMutability": "view",
      "type": "function"
    },
    {
      "inputs": [
        {
          "internalType": "address",
          "name": "tokenA",
          "type": "address"
        },
        {
          "internalType": "address",
          "name": "tokenB",
          "type": "address"
        }
      ],
      "name": "getExchangeRate",
      "outputs": [
        {
          "internalType": "uint256",
          "name": "",
          "type": "uint256"
        },
        {
          "internalType": "uint256",
          "name": "",
          "type": "uint256"
        }
      ],
      "stateMutability": "view",
      "type": "function"
    },
    {
      "inputs": [],
      "name": "owner",
      "outputs": [
        {
          "internalType": "address",
          "name": "",
          "type": "address"
        }
      ],
      "stateMutability": "view",
      "type": "function"
    },
    {
      "inputs": [
        {
          "internalType": "address",
          "name": "tokenA",
          "type": "address"
        },
        {
          "internalType": "address",
          "name": "tokenB",
          "type": "address"
        },
        {
          "internalType": "uint256",
          "name": "numerator",
          "type": "uint256"
        },
        {
          "internalType": "uint256",
          "name": "denominator",
          "type": "uint256"
        }
      ],
      "name": "setExchangeRate",
      "outputs": [],
      "stateMutability": "nonpayable",
      "type": "function"
    },
    {
      "inputs": [
        {
          "internalType": "uint256",
          "name": "amountIn",
          "type": "uint256"
        },
        {
          "internalType": "uint256",
          "name": "amountOutMin",
          "type": "uint256"
        },
        {
          "internalType": "address[]",
          "name": "path",
          "type": "address[]"
        },
        {
          "internalType": "address",
          "name": "to",
          "type": "address"
        },
        {
          "internalType": "uint256",
          "name": "deadline",
          "type": "uint256"
        }
      ],
      "name": "swapExactTokensForTokens",
      "outputs": [
        {
          "internalType": "uint256[]",
          "name": "amounts",
          "type": "uint256[]"
        }
      ],
      "stateMutability": "nonpayable",
      "type": "function"
    }
  ],
  "bytecode": "0x6080806040523461002857600180546001600160a01b031916331790556108d4908161002e8239f35b600080fdfe608080604052600436101561001357600080fd5b60003560e01c90816338ed1739146102d457508063503fa44f1461027a5780638da5cb5b14610251578063baaa61be146101e25763de378f381461005657600080fd5b346101dd5760803660031901126101dd5761006f6107b6565b6100776107cc565b60015490916001600160a01b03916064359190604435908416330361018e57821561013e577ff7e06908c466f8ecd19cb46c7e97598dc5a8760f637bb764d91fc4b6da7664ef9260409283516100cc816107e2565b8381526001602092888484019186835216988960005260008552876000209a16998a6000528452866000209251835551910155835161010a816107e2565b82815260018282018581528960005260008452866000208960005284528660002092518355519101558351928352820152a3005b60405162461bcd60e51b815260206004820152602260248201527f44656e6f6d696e61746f72206d7573742062652067726561746572207468616e604482015261020360f41b6064820152608490fd5b60405162461bcd60e51b815260206004820152602160248201527f4f6e6c79206f776e65722063616e2063616c6c20746869732066756e6374696f6044820152603760f91b6064820152608490fd5b600080fd5b346101dd5760403660031901126101dd576101fb6107b6565b6102036107cc565b9060018060a01b0380911660005260006020526040600020911660005260205260408060002060208251610236816107e2565b60018354938483520154918291015282519182526020820152f35b346101dd5760003660031901126101dd576001546040516001600160a01b039091168152602090f35b346101dd5760403660031901126101dd576102936107b6565b61029b6107cc565b9060018060a01b038091166000526000602052604060002091166000526020526040806000206001815491015482519182526020820152f35b346101dd5760a03660031901126101dd5767ffffffffffffffff80604435116101dd573660236044350112156101dd5760443560040135116101dd573660246044356004013560051b6044350101116101dd57606435906001600160a01b03821682036101dd57600260443560040135106107855750600435156107405761036160443560040135610836565b61036e6040519182610814565b60046044350135808252601f199061038590610836565b0136602083013780511561072a57600435602082015260005b6004604435013560001981011161050e5760046044350135600019018110156106e4576103df6103da8260443560040135602460443501610862565b610872565b60018201821161050e576104056103da6001840160443560040135602460443501610862565b6001600160a01b038281166000908152602081815260408083209385168352929052819020905190600190610439836107e2565b805483520154806020830152156106a757610454848661084e565b5191815191838381020483148415171561050e5760200151918215610691578281850204610485600188018961084e565b52851561062a575b6004604435013560011981011161050e5760046044350135600119018614610524575b907ffa2dda1cc1b86e41239702756b13effbc1a092b5c57e3ad320fbe4f3b13fe235926040926104e0888a61084e565b51845190815295020460208501526001600160a01b03908116941692a3600019811461050e5760010161039e565b634e487b7160e01b600052601160045260246000fd5b906024358383860204106105e55760405163a9059cbb60e01b81526001600160a01b03898116600483015285840285900460248301529093906020908590604490829060009087165af19283156105d9577ffa2dda1cc1b86e41239702756b13effbc1a092b5c57e3ad320fbe4f3b13fe235946040946105aa575b5091925092506104b0565b6105cb9060203d6020116105d2575b6105c38183610814565b810190610886565b508a61059f565b503d6105b9565b6040513d6000823e3d90fd5b60405162461bcd60e51b815260206004820152601a60248201527f496e73756666696369656e74206f757470757420616d6f756e740000000000006044820152606490fd5b6040516323b872dd60e01b81523360048083019190915230602483015235604482015260208160648160006001600160a01b038b165af180156105d957610672575b5061048d565b61068a9060203d6020116105d2576105c38183610814565b508861066c565b634e487b7160e01b600052601260045260246000fd5b60405162461bcd60e51b8152602060048201526015602482015274115e18da185b99d9481c985d19481b9bdd081cd95d605a1b6044820152606490fd5b5060405180916020820160208352815180915260206040840192019060005b818110610711575050500390f35b8251845285945060209384019390920191600101610703565b634e487b7160e01b600052603260045260246000fd5b60405162461bcd60e51b815260206004820152601d60248201527f416d6f756e74206d7573742062652067726561746572207468616e20300000006044820152606490fd5b62461bcd60e51b815260206004820152600c60248201526b092dcecc2d8d2c840e0c2e8d60a31b6044820152606490fd5b600435906001600160a01b03821682036101dd57565b602435906001600160a01b03821682036101dd57565b6040810190811067ffffffffffffffff8211176107fe57604052565b634e487b7160e01b600052604160045260246000fd5b90601f8019910116810190811067ffffffffffffffff8211176107fe57604052565b67ffffffffffffffff81116107fe5760051b60200190565b805182101561072a5760209160051b010190565b919081101561072a5760051b0190565b356001600160a01b03811681036101dd5790565b908160209103126101dd575180151581036101dd579056fea26469706673582212200082059d7c3ae28f2af162eb6deebd6e9588d0bd68cfd9c62bef443f157a68bc64736f6c63430008140033",
  "linkReferences": {},
  "deployedLinkReferences": {}
}